{
  "contractName": "DeployedRegistry",
  "abi": [
    {
      "constant": true,
      "inputs": [
        {
          "internalType": "address",
          "name": "",
          "type": "address"
        }
      ],
      "name": "isWhitelisted",
      "outputs": [
        {
          "internalType": "bool",
          "name": "",
          "type": "bool"
        }
      ],
      "payable": false,
      "stateMutability": "view",
      "type": "function"
    }
  ],
  "bytecode": "0x608060405234801561001057600080fd5b5060db8061001f6000396000f3fe6080604052348015600f57600080fd5b506004361060285760003560e01c80633af32abf14602d575b600080fd5b606c60048036036020811015604157600080fd5b81019080803573ffffffffffffffffffffffffffffffffffffffff1690602001909291905050506086565b604051808215151515815260200191505060405180910390f35b60006020528060005260406000206000915054906101000a900460ff168156fea265627a7a72315820112a61bceee4ddd93eaa9ece167f471e4db2d26e2e86fc70450ee7f7bdec2efd64736f6c634300050b0032",
  "source": "pragma solidity ^0.5.11;\n\n\nimport \"./ERC721.sol\";\nimport \"./Ownable.sol\";\n\n\n// Copy of Deployed Registry contract ABI\n// We just use the signatures of the parts we need to interact with:\ncontract DeployedRegistry {\n    mapping (address => bool) public isWhitelisted;\n}\n\n\n/**\n * Customized for Microsponsors\n * from Open Zeppelin's ERC721Metadata contract:\n * https://github.com/OpenZeppelin/openzeppelin-contracts/blob/master/contracts/token/ERC721/ERC721Metadata.sol\n */\ncontract Microsponsors is ERC721, Ownable {\n\n    // Token name\n    string private _name;\n\n    // Token symbol\n    string private _symbol;\n\n    // Microsponsors Registry (whitelist)\n    DeployedRegistry public registry;\n\n    // Mapping for token URIs\n    mapping(uint256 => string) private _tokenURIs;\n\n    // Pause. When true, token minting and transfers stop.\n    bool public paused = false;\n\n\n    /*\n     *     bytes4(keccak256('name()')) == 0x06fdde03\n     *     bytes4(keccak256('symbol()')) == 0x95d89b41\n     *     bytes4(keccak256('tokenURI(uint256)')) == 0xc87b56dd\n     *\n     *     => 0x06fdde03 ^ 0x95d89b41 ^ 0xc87b56dd == 0x5b5e139f\n     */\n    bytes4 private constant _INTERFACE_ID_ERC721_METADATA = 0x5b5e139f;\n\n    /**\n     * @dev Constructor function\n     */\n    constructor (string memory name, string memory symbol, address registryAddress) public {\n\n        _name = name;\n        _symbol = symbol;\n\n        // register the supported interfaces to conform to ERC721 via ERC165\n        _registerInterface(_INTERFACE_ID_ERC721_METADATA);\n\n        registry = DeployedRegistry(registryAddress);\n\n    }\n\n    /**\n     * @dev Gets the token name.\n     * @return string representing the token name\n     */\n    function name() external view returns (string memory) {\n        return _name;\n    }\n\n    /**\n     * @dev Gets the token symbol.\n     * @return string representing the token symbol\n     */\n    function symbol() external view returns (string memory) {\n        return _symbol;\n    }\n\n    /**\n     * @dev Update address for Microsponsors Registry contract\n     * @param newAddress where the Registry contract lives\n     */\n    function updateRegistryAddress(address newAddress) public onlyOwner {\n        require(msg.sender == owner, 'NOT_AUTHORIZED');\n        registry = DeployedRegistry(newAddress);\n    }\n\n    /**\n     * @dev Checks Registry contract for whitelisted status\n     * @param target The address to check\n     */\n    function isWhitelisted(address target) public view returns (bool) {\n        return registry.isWhitelisted(target);\n    }\n\n    function isMinter(address account) public view returns (bool) {\n        return isWhitelisted(account);\n    }\n\n    modifier onlyMinter() {\n\n        require(\n            isMinter(_msgSender()),\n            \"MinterRole: caller is not whitelisted for the Minter role\"\n        );\n        _;\n\n    }\n\n    /**\n     * @dev Function to mint tokens.\n     * @param to The address that will receive the minted token.\n     * @param tokenId The token id to mint.\n     * @return A boolean that indicates if the operation was successful.\n     */\n    function mint(address to, uint256 tokenId)\n        public\n        onlyMinter\n        whenNotPaused\n        returns (bool)\n    {\n\n        _mint(to, tokenId);\n        return true;\n\n    }\n\n    // solhint-disable\n    /**\n     * Customized for Microsponsors from:\n     * https://github.com/OpenZeppelin/openzeppelin-contracts/blob/master/contracts/token/ERC721/ERC721MetadataMintable.sol\n     *\n     * @dev Function to mint tokens.\n     * @param to The address that will receive the minted tokens.\n     * @param tokenId The token id to mint.\n     * @param tokenURI The token URI of the minted token.\n     * @return A boolean that indicates if the operation was successful.\n     */\n    // solhint-enable\n    function mintWithTokenURI(address to, uint256 tokenId, string memory tokenURI)\n        public\n        onlyMinter\n        whenNotPaused\n        returns (bool)\n    {\n\n        _mint(to, tokenId);\n        _setTokenURI(tokenId, tokenURI);\n        return true;\n\n    }\n\n    /**\n     * @dev Function to safely mint tokens.\n     * @param to The address that will receive the minted token.\n     * @param tokenId The token id to mint.\n     * @return A boolean that indicates if the operation was successful.\n     */\n    function safeMint(address to, uint256 tokenId)\n        public\n        onlyMinter\n        whenNotPaused\n        returns (bool)\n    {\n\n        _safeMint(to, tokenId);\n        return true;\n\n    }\n\n    /**\n     * @dev Function to safely mint tokens.\n     * @param to The address that will receive the minted token.\n     * @param tokenId The token id to mint.\n     * @param _data bytes data to send along with a safe transfer check.\n     * @return A boolean that indicates if the operation was successful.\n     */\n    function safeMint(address to, uint256 tokenId, bytes memory _data)\n        public\n        onlyMinter\n        whenNotPaused\n        returns (bool)\n    {\n\n        _safeMint(to, tokenId, _data);\n        return true;\n\n    }\n\n    // solhint-disable\n    /**\n     * Customized for Microsponsors from\n     * https://github.com/OpenZeppelin/openzeppelin-contracts/blob/master/contracts/token/ERC721/ERC721MetadataMintable.sol\n     *\n     * @dev Function to safely mint tokens.\n     * @param to The address that will receive the minted tokens.\n     * @param tokenId The token id to mint.\n     * @param tokenURI The token URI of the minted token.\n     * @return A boolean that indicates if the operation was successful.\n     */\n    // solhint-enable\n    function safeMintWithTokenURI(address to, uint256 tokenId, string memory tokenURI)\n        public\n        onlyMinter\n        whenNotPaused\n        returns (bool)\n    {\n\n        _safeMint(to, tokenId);\n        _setTokenURI(tokenId, tokenURI);\n        return true;\n\n    }\n\n    /**\n     * @dev Internal function to set the token URI for a given token.\n     * Reverts if the token ID does not exist.\n     * @param tokenId uint256 ID of the token to set its URI\n     * @param uri string URI to assign\n     */\n    function _setTokenURI(uint256 tokenId, string memory uri) internal {\n\n        require(\n            _exists(tokenId),\n            \"ERC721Metadata: URI set of nonexistent token\"\n        );\n        _tokenURIs[tokenId] = uri;\n\n    }\n\n    /**\n     * @dev Returns an URI for a given token ID.\n     * Throws if the token ID does not exist. May return an empty string.\n     * @param tokenId uint256 ID of the token to query\n     */\n    function tokenURI(uint256 tokenId) external view returns (string memory) {\n\n        require(\n            _exists(tokenId),\n            \"ERC721Metadata: URI query for nonexistent token\"\n        );\n        return _tokenURIs[tokenId];\n\n    }\n\n    /**\n     * @dev Internal function to burn a specific token.\n     * Reverts if the token does not exist.\n     * Deprecated, use _burn(uint256) instead.\n     * @param tokenOwner owner of the token to burn\n     * @param tokenId uint256 ID of the token being burned by the msg.sender\n     */\n    function _burn(address tokenOwner, uint256 tokenId) internal {\n\n        super._burn(tokenOwner, tokenId);\n\n        // Clear metadata (if any)\n        if (bytes(_tokenURIs[tokenId]).length != 0) {\n            delete _tokenURIs[tokenId];\n        }\n\n    }\n\n    // solhint-disable\n    /**\n     * Customized for Microsponsors\n     * https://github.com/OpenZeppelin/openzeppelin-contracts/blob/master/contracts/token/ERC721/ERC721Burnable.sol     * @dev Burns a specific ERC721 token.\n     * @param tokenId uint256 id of the ERC721 token to be burned.\n     */\n     // solhint-enable\n    function burn(uint256 tokenId) public whenNotPaused {\n\n        require(\n            _isApprovedOrOwner(_msgSender(), tokenId),\n            \"ERC721Burnable: caller is not owner nor approved\"\n        );\n        _burn(tokenId);\n\n    }\n\n\n    /*** Pausable adapted from OpenZeppelin via Cryptokitties ***/\n\n\n    /// @dev Modifier to allow actions only when the contract IS NOT paused\n    modifier whenNotPaused() {\n        require(!paused);\n        _;\n    }\n\n    /// @dev Modifier to allow actions only when the contract IS paused\n    modifier whenPaused {\n        require(paused);\n        _;\n    }\n\n    /// @dev Called by contract owner to pause actions on this contract\n    function pause() external onlyOwner whenNotPaused {\n        paused = true;\n    }\n\n    /// @dev Called by contract owner to unpause the smart contract.\n    /// @notice This is public rather than external so it can be called by\n    ///  derived contracts.\n    function unpause() public onlyOwner whenPaused {\n        // can't unpause if contract was upgraded\n        paused = false;\n    }\n\n\n}\n",
  "sourcePath": "/Users/lauren/github/erc-721/contracts/Microsponsors.sol",
  "compiler": {
    "name": "solc",
    "version": "0.5.11+commit.c082d0b4.Emscripten.clang"
  },
  "schemaVersion": "3.0.10",
  "updatedAt": "2019-08-22T01:08:02.718Z",
  "devdoc": {
    "methods": {}
  },
  "userdoc": {
    "methods": {}
  }
}