{
  "contractName": "ERC721",
  "abi": [
    {
      "constant": true,
      "inputs": [
        {
          "internalType": "bytes4",
          "name": "interfaceId",
          "type": "bytes4"
        }
      ],
      "name": "supportsInterface",
      "outputs": [
        {
          "internalType": "bool",
          "name": "",
          "type": "bool"
        }
      ],
      "payable": false,
      "stateMutability": "view",
      "type": "function"
    },
    {
      "constant": true,
      "inputs": [],
      "name": "paused",
      "outputs": [
        {
          "internalType": "bool",
          "name": "",
          "type": "bool"
        }
      ],
      "payable": false,
      "stateMutability": "view",
      "type": "function"
    },
    {
      "constant": true,
      "inputs": [],
      "name": "registry",
      "outputs": [
        {
          "internalType": "contract DeployedRegistry",
          "name": "",
          "type": "address"
        }
      ],
      "payable": false,
      "stateMutability": "view",
      "type": "function"
    },
    {
      "constant": true,
      "inputs": [],
      "name": "owner",
      "outputs": [
        {
          "internalType": "address",
          "name": "",
          "type": "address"
        }
      ],
      "payable": false,
      "stateMutability": "view",
      "type": "function"
    },
    {
      "inputs": [],
      "payable": false,
      "stateMutability": "nonpayable",
      "type": "constructor"
    },
    {
      "anonymous": false,
      "inputs": [
        {
          "indexed": true,
          "internalType": "address",
          "name": "from",
          "type": "address"
        },
        {
          "indexed": true,
          "internalType": "address",
          "name": "to",
          "type": "address"
        },
        {
          "indexed": true,
          "internalType": "uint256",
          "name": "tokenId",
          "type": "uint256"
        }
      ],
      "name": "Transfer",
      "type": "event"
    },
    {
      "anonymous": false,
      "inputs": [
        {
          "indexed": true,
          "internalType": "address",
          "name": "tokenOwner",
          "type": "address"
        },
        {
          "indexed": true,
          "internalType": "address",
          "name": "approved",
          "type": "address"
        },
        {
          "indexed": true,
          "internalType": "uint256",
          "name": "tokenId",
          "type": "uint256"
        }
      ],
      "name": "Approval",
      "type": "event"
    },
    {
      "anonymous": false,
      "inputs": [
        {
          "indexed": true,
          "internalType": "address",
          "name": "tokenOwner",
          "type": "address"
        },
        {
          "indexed": true,
          "internalType": "address",
          "name": "operator",
          "type": "address"
        },
        {
          "indexed": false,
          "internalType": "bool",
          "name": "approved",
          "type": "bool"
        }
      ],
      "name": "ApprovalForAll",
      "type": "event"
    },
    {
      "constant": false,
      "inputs": [
        {
          "internalType": "address",
          "name": "newOwner",
          "type": "address"
        }
      ],
      "name": "transferOwnership",
      "outputs": [],
      "payable": false,
      "stateMutability": "nonpayable",
      "type": "function"
    },
    {
      "constant": false,
      "inputs": [
        {
          "internalType": "address",
          "name": "newAddress",
          "type": "address"
        }
      ],
      "name": "updateRegistryAddress",
      "outputs": [],
      "payable": false,
      "stateMutability": "nonpayable",
      "type": "function"
    },
    {
      "constant": true,
      "inputs": [
        {
          "internalType": "address",
          "name": "target",
          "type": "address"
        }
      ],
      "name": "isWhitelisted",
      "outputs": [
        {
          "internalType": "bool",
          "name": "",
          "type": "bool"
        }
      ],
      "payable": false,
      "stateMutability": "view",
      "type": "function"
    },
    {
      "constant": true,
      "inputs": [
        {
          "internalType": "address",
          "name": "account",
          "type": "address"
        }
      ],
      "name": "isMinter",
      "outputs": [
        {
          "internalType": "bool",
          "name": "",
          "type": "bool"
        }
      ],
      "payable": false,
      "stateMutability": "view",
      "type": "function"
    },
    {
      "constant": false,
      "inputs": [
        {
          "internalType": "address",
          "name": "to",
          "type": "address"
        },
        {
          "internalType": "uint256",
          "name": "tokenId",
          "type": "uint256"
        }
      ],
      "name": "mint",
      "outputs": [
        {
          "internalType": "bool",
          "name": "",
          "type": "bool"
        }
      ],
      "payable": false,
      "stateMutability": "nonpayable",
      "type": "function"
    },
    {
      "constant": false,
      "inputs": [
        {
          "internalType": "address",
          "name": "to",
          "type": "address"
        },
        {
          "internalType": "uint256",
          "name": "tokenId",
          "type": "uint256"
        },
        {
          "internalType": "string",
          "name": "tokenURI",
          "type": "string"
        }
      ],
      "name": "mintWithTokenURI",
      "outputs": [
        {
          "internalType": "bool",
          "name": "",
          "type": "bool"
        }
      ],
      "payable": false,
      "stateMutability": "nonpayable",
      "type": "function"
    },
    {
      "constant": false,
      "inputs": [
        {
          "internalType": "address",
          "name": "to",
          "type": "address"
        },
        {
          "internalType": "uint256",
          "name": "tokenId",
          "type": "uint256"
        },
        {
          "internalType": "bytes",
          "name": "_data",
          "type": "bytes"
        }
      ],
      "name": "safeMint",
      "outputs": [
        {
          "internalType": "bool",
          "name": "",
          "type": "bool"
        }
      ],
      "payable": false,
      "stateMutability": "nonpayable",
      "type": "function"
    },
    {
      "constant": false,
      "inputs": [
        {
          "internalType": "address",
          "name": "to",
          "type": "address"
        },
        {
          "internalType": "uint256",
          "name": "tokenId",
          "type": "uint256"
        }
      ],
      "name": "safeMint",
      "outputs": [
        {
          "internalType": "bool",
          "name": "",
          "type": "bool"
        }
      ],
      "payable": false,
      "stateMutability": "nonpayable",
      "type": "function"
    },
    {
      "constant": false,
      "inputs": [
        {
          "internalType": "address",
          "name": "to",
          "type": "address"
        },
        {
          "internalType": "uint256",
          "name": "tokenId",
          "type": "uint256"
        },
        {
          "internalType": "string",
          "name": "tokenURI",
          "type": "string"
        }
      ],
      "name": "safeMintWithTokenURI",
      "outputs": [
        {
          "internalType": "bool",
          "name": "",
          "type": "bool"
        }
      ],
      "payable": false,
      "stateMutability": "nonpayable",
      "type": "function"
    },
    {
      "constant": true,
      "inputs": [
        {
          "internalType": "uint256",
          "name": "tokenId",
          "type": "uint256"
        }
      ],
      "name": "tokenURI",
      "outputs": [
        {
          "internalType": "string",
          "name": "",
          "type": "string"
        }
      ],
      "payable": false,
      "stateMutability": "view",
      "type": "function"
    },
    {
      "constant": true,
      "inputs": [
        {
          "internalType": "address",
          "name": "tokenOwner",
          "type": "address"
        }
      ],
      "name": "balanceOf",
      "outputs": [
        {
          "internalType": "uint256",
          "name": "",
          "type": "uint256"
        }
      ],
      "payable": false,
      "stateMutability": "view",
      "type": "function"
    },
    {
      "constant": true,
      "inputs": [
        {
          "internalType": "uint256",
          "name": "tokenId",
          "type": "uint256"
        }
      ],
      "name": "ownerOf",
      "outputs": [
        {
          "internalType": "address",
          "name": "",
          "type": "address"
        }
      ],
      "payable": false,
      "stateMutability": "view",
      "type": "function"
    },
    {
      "constant": false,
      "inputs": [
        {
          "internalType": "address",
          "name": "to",
          "type": "address"
        },
        {
          "internalType": "uint256",
          "name": "tokenId",
          "type": "uint256"
        }
      ],
      "name": "approve",
      "outputs": [],
      "payable": false,
      "stateMutability": "nonpayable",
      "type": "function"
    },
    {
      "constant": true,
      "inputs": [
        {
          "internalType": "uint256",
          "name": "tokenId",
          "type": "uint256"
        }
      ],
      "name": "getApproved",
      "outputs": [
        {
          "internalType": "address",
          "name": "",
          "type": "address"
        }
      ],
      "payable": false,
      "stateMutability": "view",
      "type": "function"
    },
    {
      "constant": false,
      "inputs": [
        {
          "internalType": "address",
          "name": "to",
          "type": "address"
        },
        {
          "internalType": "bool",
          "name": "approved",
          "type": "bool"
        }
      ],
      "name": "setApprovalForAll",
      "outputs": [],
      "payable": false,
      "stateMutability": "nonpayable",
      "type": "function"
    },
    {
      "constant": true,
      "inputs": [
        {
          "internalType": "address",
          "name": "tokenOwner",
          "type": "address"
        },
        {
          "internalType": "address",
          "name": "operator",
          "type": "address"
        }
      ],
      "name": "isApprovedForAll",
      "outputs": [
        {
          "internalType": "bool",
          "name": "",
          "type": "bool"
        }
      ],
      "payable": false,
      "stateMutability": "view",
      "type": "function"
    },
    {
      "constant": false,
      "inputs": [
        {
          "internalType": "address",
          "name": "from",
          "type": "address"
        },
        {
          "internalType": "address",
          "name": "to",
          "type": "address"
        },
        {
          "internalType": "uint256",
          "name": "tokenId",
          "type": "uint256"
        }
      ],
      "name": "transferFrom",
      "outputs": [],
      "payable": false,
      "stateMutability": "nonpayable",
      "type": "function"
    },
    {
      "constant": false,
      "inputs": [
        {
          "internalType": "address",
          "name": "from",
          "type": "address"
        },
        {
          "internalType": "address",
          "name": "to",
          "type": "address"
        },
        {
          "internalType": "uint256",
          "name": "tokenId",
          "type": "uint256"
        },
        {
          "internalType": "bytes",
          "name": "_data",
          "type": "bytes"
        }
      ],
      "name": "safeTransferFrom",
      "outputs": [],
      "payable": false,
      "stateMutability": "nonpayable",
      "type": "function"
    },
    {
      "constant": false,
      "inputs": [
        {
          "internalType": "address",
          "name": "from",
          "type": "address"
        },
        {
          "internalType": "address",
          "name": "to",
          "type": "address"
        },
        {
          "internalType": "uint256",
          "name": "tokenId",
          "type": "uint256"
        }
      ],
      "name": "safeTransferFrom",
      "outputs": [],
      "payable": false,
      "stateMutability": "nonpayable",
      "type": "function"
    },
    {
      "constant": false,
      "inputs": [
        {
          "internalType": "uint256",
          "name": "tokenId",
          "type": "uint256"
        }
      ],
      "name": "burn",
      "outputs": [],
      "payable": false,
      "stateMutability": "nonpayable",
      "type": "function"
    },
    {
      "constant": false,
      "inputs": [],
      "name": "pause",
      "outputs": [],
      "payable": false,
      "stateMutability": "nonpayable",
      "type": "function"
    },
    {
      "constant": false,
      "inputs": [],
      "name": "unpause",
      "outputs": [],
      "payable": false,
      "stateMutability": "nonpayable",
      "type": "function"
    }
  ],
  "bytecode": "0x60806040526000600860006101000a81548160ff0219169083151502179055503480156200002c57600080fd5b50620000456301ffc9a760e01b620000b360201b60201c565b6200005d6380ac58cd60e01b620000b360201b60201c565b6200006d620001bc60201b60201c565b600160006101000a81548173ffffffffffffffffffffffffffffffffffffffff021916908373ffffffffffffffffffffffffffffffffffffffff160217905550620001c4565b63ffffffff60e01b817bffffffffffffffffffffffffffffffffffffffffffffffffffffffff1916141562000150576040517f08c379a000000000000000000000000000000000000000000000000000000000815260040180806020018281038252601c8152602001807f4552433136353a20696e76616c696420696e746572666163652069640000000081525060200191505060405180910390fd5b6001600080837bffffffffffffffffffffffffffffffffffffffffffffffffffffffff19167bffffffffffffffffffffffffffffffffffffffffffffffffffffffff1916815260200190815260200160002060006101000a81548160ff02191690831515021790555050565b600033905090565b61362380620001d46000396000f3fe608060405234801561001057600080fd5b506004361061018e5760003560e01c80637b103999116100de578063aa271e1a11610097578063c87b56dd11610071578063c87b56dd14610a65578063ca63c0ef14610b0c578063e985e9c514610c09578063f2fde38b14610c855761018e565b8063aa271e1a146108c0578063b88d4fde1461091c578063c57a882514610a215761018e565b80637b1039991461066f5780638456cb59146106b95780638832e6e3146106c35780638da5cb5b146107c0578063a14481941461080a578063a22cb465146108705761018e565b806340c10f191161014b57806350bb4e7f1161012557806350bb4e7f1461048a5780635c975abb146105875780636352211e146105a957806370a08231146106175761018e565b806340c10f191461038857806342842e0e146103ee57806342966c681461045c5761018e565b806301ffc9a714610193578063081812fc146101f8578063095ea7b31461026657806323b872dd146102b45780633af32abf146103225780633f4ba83a1461037e575b600080fd5b6101de600480360360208110156101a957600080fd5b8101908080357bffffffffffffffffffffffffffffffffffffffffffffffffffffffff19169060200190929190505050610cc9565b604051808215151515815260200191505060405180910390f35b6102246004803603602081101561020e57600080fd5b8101908080359060200190929190505050610d30565b604051808273ffffffffffffffffffffffffffffffffffffffff1673ffffffffffffffffffffffffffffffffffffffff16815260200191505060405180910390f35b6102b26004803603604081101561027c57600080fd5b81019080803573ffffffffffffffffffffffffffffffffffffffff16906020019092919080359060200190929190505050610dcb565b005b610320600480360360608110156102ca57600080fd5b81019080803573ffffffffffffffffffffffffffffffffffffffff169060200190929190803573ffffffffffffffffffffffffffffffffffffffff169060200190929190803590602001909291905050506110ac565b005b6103646004803603602081101561033857600080fd5b81019080803573ffffffffffffffffffffffffffffffffffffffff16906020019092919050505061125d565b604051808215151515815260200191505060405180910390f35b610386611340565b005b6103d46004803603604081101561039e57600080fd5b81019080803573ffffffffffffffffffffffffffffffffffffffff16906020019092919080359060200190929190505050611440565b604051808215151515815260200191505060405180910390f35b61045a6004803603606081101561040457600080fd5b81019080803573ffffffffffffffffffffffffffffffffffffffff169060200190929190803573ffffffffffffffffffffffffffffffffffffffff169060200190929190803590602001909291905050506114d5565b005b6104886004803603602081101561047257600080fd5b81019080803590602001909291905050506114f5565b005b61056d600480360360608110156104a057600080fd5b81019080803573ffffffffffffffffffffffffffffffffffffffff16906020019092919080359060200190929190803590602001906401000000008111156104e757600080fd5b8201836020820111156104f957600080fd5b8035906020019184600183028401116401000000008311171561051b57600080fd5b91908080601f016020809104026020016040519081016040528093929190818152602001838380828437600081840152601f19601f820116905080830192505050505050509192919290505050611581565b604051808215151515815260200191505060405180910390f35b61058f611621565b604051808215151515815260200191505060405180910390f35b6105d5600480360360208110156105bf57600080fd5b8101908080359060200190929190505050611634565b604051808273ffffffffffffffffffffffffffffffffffffffff1673ffffffffffffffffffffffffffffffffffffffff16815260200191505060405180910390f35b6106596004803603602081101561062d57600080fd5b81019080803573ffffffffffffffffffffffffffffffffffffffff1690602001909291905050506116fc565b6040518082815260200191505060405180910390f35b6106776117d1565b604051808273ffffffffffffffffffffffffffffffffffffffff1673ffffffffffffffffffffffffffffffffffffffff16815260200191505060405180910390f35b6106c16117f7565b005b6107a6600480360360608110156106d957600080fd5b81019080803573ffffffffffffffffffffffffffffffffffffffff169060200190929190803590602001909291908035906020019064010000000081111561072057600080fd5b82018360208201111561073257600080fd5b8035906020019184600183028401116401000000008311171561075457600080fd5b91908080601f016020809104026020016040519081016040528093929190818152602001838380828437600081840152601f19601f8201169050808301925050505050505091929192905050506118f8565b604051808215151515815260200191505060405180910390f35b6107c861198f565b604051808273ffffffffffffffffffffffffffffffffffffffff1673ffffffffffffffffffffffffffffffffffffffff16815260200191505060405180910390f35b6108566004803603604081101561082057600080fd5b81019080803573ffffffffffffffffffffffffffffffffffffffff169060200190929190803590602001909291905050506119b5565b604051808215151515815260200191505060405180910390f35b6108be6004803603604081101561088657600080fd5b81019080803573ffffffffffffffffffffffffffffffffffffffff169060200190929190803515159060200190929190505050611a4a565b005b610902600480360360208110156108d657600080fd5b81019080803573ffffffffffffffffffffffffffffffffffffffff169060200190929190505050611cdf565b604051808215151515815260200191505060405180910390f35b610a1f6004803603608081101561093257600080fd5b81019080803573ffffffffffffffffffffffffffffffffffffffff169060200190929190803573ffffffffffffffffffffffffffffffffffffffff169060200190929190803590602001909291908035906020019064010000000081111561099957600080fd5b8201836020820111156109ab57600080fd5b803590602001918460018302840111640100000000831117156109cd57600080fd5b91908080601f016020809104026020016040519081016040528093929190818152602001838380828437600081840152601f19601f820116905080830192505050505050509192919290505050611cf1565b005b610a6360048036036020811015610a3757600080fd5b81019080803573ffffffffffffffffffffffffffffffffffffffff169060200190929190505050611ea4565b005b610a9160048036036020811015610a7b57600080fd5b8101908080359060200190929190505050611fb2565b6040518080602001828103825283818151815260200191508051906020019080838360005b83811015610ad1578082015181840152602081019050610ab6565b50505050905090810190601f168015610afe5780820380516001836020036101000a031916815260200191505b509250505060405180910390f35b610bef60048036036060811015610b2257600080fd5b81019080803573ffffffffffffffffffffffffffffffffffffffff1690602001909291908035906020019092919080359060200190640100000000811115610b6957600080fd5b820183602082011115610b7b57600080fd5b80359060200191846001830284011164010000000083111715610b9d57600080fd5b91908080601f016020809104026020016040519081016040528093929190818152602001838380828437600081840152601f19601f8201169050808301925050505050505091929192905050506120c5565b604051808215151515815260200191505060405180910390f35b610c6b60048036036040811015610c1f57600080fd5b81019080803573ffffffffffffffffffffffffffffffffffffffff169060200190929190803573ffffffffffffffffffffffffffffffffffffffff169060200190929190505050612165565b604051808215151515815260200191505060405180910390f35b610cc760048036036020811015610c9b57600080fd5b81019080803573ffffffffffffffffffffffffffffffffffffffff1690602001909291905050506121f9565b005b6000806000837bffffffffffffffffffffffffffffffffffffffffffffffffffffffff19167bffffffffffffffffffffffffffffffffffffffffffffffffffffffff1916815260200190815260200160002060009054906101000a900460ff169050919050565b6000610d3b8261233c565b610d90576040517f08c379a000000000000000000000000000000000000000000000000000000000815260040180806020018281038252602c8152602001806134aa602c913960400191505060405180910390fd5b6004600083815260200190815260200160002060009054906101000a900473ffffffffffffffffffffffffffffffffffffffff169050919050565b610ddb610dd66123ae565b61125d565b610e30576040517f08c379a00000000000000000000000000000000000000000000000000000000081526004018080602001828103825260218152602001806135ce6021913960400191505060405180910390fd5b600860009054906101000a900460ff1615610e4a57600080fd5b6000610e5582611634565b90508073ffffffffffffffffffffffffffffffffffffffff168373ffffffffffffffffffffffffffffffffffffffff161415610ef9576040517f08c379a000000000000000000000000000000000000000000000000000000000815260040180806020018281038252601d8152602001807f4552433732313a20617070726f76616c20697320726564756e64616e7400000081525060200191505060405180910390fd5b610f028361125d565b610f57576040517f08c379a00000000000000000000000000000000000000000000000000000000081526004018080602001828103825260348152602001806134766034913960400191505060405180910390fd5b8073ffffffffffffffffffffffffffffffffffffffff16610f766123ae565b73ffffffffffffffffffffffffffffffffffffffff161480610fa55750610fa481610f9f6123ae565b612165565b5b610ffa576040517f08c379a000000000000000000000000000000000000000000000000000000000815260040180806020018281038252603e815260200180613409603e913960400191505060405180910390fd5b826004600084815260200190815260200160002060006101000a81548173ffffffffffffffffffffffffffffffffffffffff021916908373ffffffffffffffffffffffffffffffffffffffff160217905550818373ffffffffffffffffffffffffffffffffffffffff168273ffffffffffffffffffffffffffffffffffffffff167f8c5be1e5ebec7d5bd14f71427d1e84f3dd0314c0f7b2291e5b200ac8c7c3b92560405160405180910390a4505050565b6110bc6110b76123ae565b61125d565b611111576040517f08c379a00000000000000000000000000000000000000000000000000000000081526004018080602001828103825260218152602001806135ce6021913960400191505060405180910390fd5b600860009054906101000a900460ff161561112b57600080fd5b61113c6111366123ae565b826123b6565b611191576040517f08c379a00000000000000000000000000000000000000000000000000000000081526004018080602001828103825260318152602001806134ff6031913960400191505060405180910390fd5b61119a8361125d565b6111ef576040517f08c379a00000000000000000000000000000000000000000000000000000000081526004018080602001828103825260348152602001806133ab6034913960400191505060405180910390fd5b6111f88261125d565b61124d576040517f08c379a00000000000000000000000000000000000000000000000000000000081526004018080602001828103825260348152602001806133ab6034913960400191505060405180910390fd5b6112588383836125cb565b505050565b6000600260009054906101000a900473ffffffffffffffffffffffffffffffffffffffff1673ffffffffffffffffffffffffffffffffffffffff16633af32abf836040518263ffffffff1660e01b8152600401808273ffffffffffffffffffffffffffffffffffffffff1673ffffffffffffffffffffffffffffffffffffffff16815260200191505060206040518083038186803b1580156112fe57600080fd5b505afa158015611312573d6000803e3d6000fd5b505050506040513d602081101561132857600080fd5b81019080805190602001909291905050509050919050565b600160009054906101000a900473ffffffffffffffffffffffffffffffffffffffff1673ffffffffffffffffffffffffffffffffffffffff166113816123ae565b73ffffffffffffffffffffffffffffffffffffffff161461140a576040517f08c379a000000000000000000000000000000000000000000000000000000000815260040180806020018281038252601b8152602001807f4552433732313a2063616c6c6572206973206e6f74206f776e6572000000000081525060200191505060405180910390fd5b600860009054906101000a900460ff1661142357600080fd5b6000600860006101000a81548160ff021916908315150217905550565b600061145261144d6123ae565b611cdf565b6114a7576040517f08c379a00000000000000000000000000000000000000000000000000000000081526004018080602001828103825260358152602001806133266035913960400191505060405180910390fd5b600860009054906101000a900460ff16156114c157600080fd5b6114cb8383612826565b6001905092915050565b6114f083838360405180602001604052806000815250611cf1565b505050565b600860009054906101000a900460ff161561150f57600080fd5b61152061151a6123ae565b826123b6565b611575576040517f08c379a000000000000000000000000000000000000000000000000000000000815260040180806020018281038252602e815260200180613579602e913960400191505060405180910390fd5b61157e81612a3e565b50565b600061159361158e6123ae565b611cdf565b6115e8576040517f08c379a00000000000000000000000000000000000000000000000000000000081526004018080602001828103825260358152602001806133266035913960400191505060405180910390fd5b600860009054906101000a900460ff161561160257600080fd5b61160c8484612826565b6116168383612a53565b600190509392505050565b600860009054906101000a900460ff1681565b6000806003600084815260200190815260200160002060009054906101000a900473ffffffffffffffffffffffffffffffffffffffff169050600073ffffffffffffffffffffffffffffffffffffffff168173ffffffffffffffffffffffffffffffffffffffff1614156116f3576040517f08c379a000000000000000000000000000000000000000000000000000000000815260040180806020018281038252602f815260200180613447602f913960400191505060405180910390fd5b80915050919050565b60008073ffffffffffffffffffffffffffffffffffffffff168273ffffffffffffffffffffffffffffffffffffffff161415611783576040517f08c379a000000000000000000000000000000000000000000000000000000000815260040180806020018281038252602a8152602001806133df602a913960400191505060405180910390fd5b6117ca600560008473ffffffffffffffffffffffffffffffffffffffff1673ffffffffffffffffffffffffffffffffffffffff168152602001908152602001600020612add565b9050919050565b600260009054906101000a900473ffffffffffffffffffffffffffffffffffffffff1681565b600160009054906101000a900473ffffffffffffffffffffffffffffffffffffffff1673ffffffffffffffffffffffffffffffffffffffff166118386123ae565b73ffffffffffffffffffffffffffffffffffffffff16146118c1576040517f08c379a000000000000000000000000000000000000000000000000000000000815260040180806020018281038252601b8152602001807f4552433732313a2063616c6c6572206973206e6f74206f776e6572000000000081525060200191505060405180910390fd5b600860009054906101000a900460ff16156118db57600080fd5b6001600860006101000a81548160ff021916908315150217905550565b600061190a6119056123ae565b611cdf565b61195f576040517f08c379a00000000000000000000000000000000000000000000000000000000081526004018080602001828103825260358152602001806133266035913960400191505060405180910390fd5b600860009054906101000a900460ff161561197957600080fd5b611984848484612aeb565b600190509392505050565b600160009054906101000a900473ffffffffffffffffffffffffffffffffffffffff1681565b60006119c76119c26123ae565b611cdf565b611a1c576040517f08c379a00000000000000000000000000000000000000000000000000000000081526004018080602001828103825260358152602001806133266035913960400191505060405180910390fd5b600860009054906101000a900460ff1615611a3657600080fd5b611a408383612b5c565b6001905092915050565b611a5a611a556123ae565b61125d565b611aaf576040517f08c379a00000000000000000000000000000000000000000000000000000000081526004018080602001828103825260218152602001806135ce6021913960400191505060405180910390fd5b600860009054906101000a900460ff1615611ac957600080fd5b611ad16123ae565b73ffffffffffffffffffffffffffffffffffffffff168273ffffffffffffffffffffffffffffffffffffffff161415611b72576040517f08c379a00000000000000000000000000000000000000000000000000000000081526004018080602001828103825260198152602001807f4552433732313a20617070726f766520746f2063616c6c65720000000000000081525060200191505060405180910390fd5b611b7b8261125d565b611bd0576040517f08c379a00000000000000000000000000000000000000000000000000000000081526004018080602001828103825260348152602001806134766034913960400191505060405180910390fd5b8060066000611bdd6123ae565b73ffffffffffffffffffffffffffffffffffffffff1673ffffffffffffffffffffffffffffffffffffffff16815260200190815260200160002060008473ffffffffffffffffffffffffffffffffffffffff1673ffffffffffffffffffffffffffffffffffffffff16815260200190815260200160002060006101000a81548160ff0219169083151502179055508173ffffffffffffffffffffffffffffffffffffffff16611c8a6123ae565b73ffffffffffffffffffffffffffffffffffffffff167f17307eab39ab6107e8899845ad3d59bd9653f200f220920489ca2b5937696c3183604051808215151515815260200191505060405180910390a35050565b6000611cea8261125d565b9050919050565b611d01611cfc6123ae565b61125d565b611d56576040517f08c379a00000000000000000000000000000000000000000000000000000000081526004018080602001828103825260218152602001806135ce6021913960400191505060405180910390fd5b600860009054906101000a900460ff1615611d7057600080fd5b611d798461125d565b611dce576040517f08c379a00000000000000000000000000000000000000000000000000000000081526004018080602001828103825260348152602001806133ab6034913960400191505060405180910390fd5b611dd78361125d565b611e2c576040517f08c379a00000000000000000000000000000000000000000000000000000000081526004018080602001828103825260348152602001806133ab6034913960400191505060405180910390fd5b611e3d611e376123ae565b836123b6565b611e92576040517f08c379a00000000000000000000000000000000000000000000000000000000081526004018080602001828103825260318152602001806134ff6031913960400191505060405180910390fd5b611e9e84848484612b7a565b50505050565b600160009054906101000a900473ffffffffffffffffffffffffffffffffffffffff1673ffffffffffffffffffffffffffffffffffffffff16611ee56123ae565b73ffffffffffffffffffffffffffffffffffffffff1614611f6e576040517f08c379a000000000000000000000000000000000000000000000000000000000815260040180806020018281038252601b8152602001807f4552433732313a2063616c6c6572206973206e6f74206f776e6572000000000081525060200191505060405180910390fd5b80600260006101000a81548173ffffffffffffffffffffffffffffffffffffffff021916908373ffffffffffffffffffffffffffffffffffffffff16021790555050565b6060611fbd8261233c565b612012576040517f08c379a00000000000000000000000000000000000000000000000000000000081526004018080602001828103825260278152602001806135a76027913960400191505060405180910390fd5b600760008381526020019081526020016000208054600181600116156101000203166002900480601f0160208091040260200160405190810160405280929190818152602001828054600181600116156101000203166002900480156120b95780601f1061208e576101008083540402835291602001916120b9565b820191906000526020600020905b81548152906001019060200180831161209c57829003601f168201915b50505050509050919050565b60006120d76120d26123ae565b611cdf565b61212c576040517f08c379a00000000000000000000000000000000000000000000000000000000081526004018080602001828103825260358152602001806133266035913960400191505060405180910390fd5b600860009054906101000a900460ff161561214657600080fd5b6121508484612b5c565b61215a8383612a53565b600190509392505050565b6000600660008473ffffffffffffffffffffffffffffffffffffffff1673ffffffffffffffffffffffffffffffffffffffff16815260200190815260200160002060008373ffffffffffffffffffffffffffffffffffffffff1673ffffffffffffffffffffffffffffffffffffffff16815260200190815260200160002060009054906101000a900460ff16905092915050565b600160009054906101000a900473ffffffffffffffffffffffffffffffffffffffff1673ffffffffffffffffffffffffffffffffffffffff1661223a6123ae565b73ffffffffffffffffffffffffffffffffffffffff16146122c3576040517f08c379a000000000000000000000000000000000000000000000000000000000815260040180806020018281038252601b8152602001807f4552433732313a2063616c6c6572206973206e6f74206f776e6572000000000081525060200191505060405180910390fd5b600073ffffffffffffffffffffffffffffffffffffffff168173ffffffffffffffffffffffffffffffffffffffff16146123395780600160006101000a81548173ffffffffffffffffffffffffffffffffffffffff021916908373ffffffffffffffffffffffffffffffffffffffff1602179055505b50565b6000806003600084815260200190815260200160002060009054906101000a900473ffffffffffffffffffffffffffffffffffffffff169050600073ffffffffffffffffffffffffffffffffffffffff168173ffffffffffffffffffffffffffffffffffffffff161415915050919050565b600033905090565b60006123c86123c36123ae565b61125d565b61241d576040517f08c379a00000000000000000000000000000000000000000000000000000000081526004018080602001828103825260218152602001806135ce6021913960400191505060405180910390fd5b6124268261233c565b61247b576040517f08c379a000000000000000000000000000000000000000000000000000000000815260040180806020018281038252602c81526020018061337f602c913960400191505060405180910390fd5b6124848361125d565b6124d9576040517f08c379a00000000000000000000000000000000000000000000000000000000081526004018080602001828103825260348152602001806133ab6034913960400191505060405180910390fd5b60006124e483611634565b90506124ef8161125d565b612544576040517f08c379a00000000000000000000000000000000000000000000000000000000081526004018080602001828103825260348152602001806133ab6034913960400191505060405180910390fd5b8073ffffffffffffffffffffffffffffffffffffffff168473ffffffffffffffffffffffffffffffffffffffff1614806125b157508373ffffffffffffffffffffffffffffffffffffffff1661259984610d30565b73ffffffffffffffffffffffffffffffffffffffff16145b806125c257506125c18185612165565b5b91505092915050565b8273ffffffffffffffffffffffffffffffffffffffff166125eb82611634565b73ffffffffffffffffffffffffffffffffffffffff1614612657576040517f08c379a00000000000000000000000000000000000000000000000000000000081526004018080602001828103825260298152602001806134d66029913960400191505060405180910390fd5b600073ffffffffffffffffffffffffffffffffffffffff168273ffffffffffffffffffffffffffffffffffffffff1614156126dd576040517f08c379a000000000000000000000000000000000000000000000000000000000815260040180806020018281038252602481526020018061335b6024913960400191505060405180910390fd5b6126e681612bec565b61272d600560008573ffffffffffffffffffffffffffffffffffffffff1673ffffffffffffffffffffffffffffffffffffffff168152602001908152602001600020612caa565b612774600560008473ffffffffffffffffffffffffffffffffffffffff1673ffffffffffffffffffffffffffffffffffffffff168152602001908152602001600020612ccd565b816003600083815260200190815260200160002060006101000a81548173ffffffffffffffffffffffffffffffffffffffff021916908373ffffffffffffffffffffffffffffffffffffffff160217905550808273ffffffffffffffffffffffffffffffffffffffff168473ffffffffffffffffffffffffffffffffffffffff167fddf252ad1be2c89b69c2b068fc378daa952ba7f163c4a11628f55a4df523b3ef60405160405180910390a4505050565b600073ffffffffffffffffffffffffffffffffffffffff168273ffffffffffffffffffffffffffffffffffffffff1614156128c9576040517f08c379a00000000000000000000000000000000000000000000000000000000081526004018080602001828103825260208152602001807f4552433732313a206d696e7420746f20746865207a65726f206164647265737381525060200191505060405180910390fd5b6128d28161233c565b15612945576040517f08c379a000000000000000000000000000000000000000000000000000000000815260040180806020018281038252601c8152602001807f4552433732313a20746f6b656e20616c7265616479206d696e7465640000000081525060200191505060405180910390fd5b816003600083815260200190815260200160002060006101000a81548173ffffffffffffffffffffffffffffffffffffffff021916908373ffffffffffffffffffffffffffffffffffffffff1602179055506129de600560008473ffffffffffffffffffffffffffffffffffffffff1673ffffffffffffffffffffffffffffffffffffffff168152602001908152602001600020612ccd565b808273ffffffffffffffffffffffffffffffffffffffff16600073ffffffffffffffffffffffffffffffffffffffff167fddf252ad1be2c89b69c2b068fc378daa952ba7f163c4a11628f55a4df523b3ef60405160405180910390a45050565b612a50612a4a82611634565b82612ce3565b50565b612a5c8261233c565b612ab1576040517f08c379a00000000000000000000000000000000000000000000000000000000081526004018080602001828103825260248152602001806135556024913960400191505060405180910390fd5b80600760008481526020019081526020016000209080519060200190612ad8929190613206565b505050565b600081600001549050919050565b612af58383612826565b612b026000848484612ec1565b612b57576040517f08c379a00000000000000000000000000000000000000000000000000000000081526004018080602001828103825260328152602001806132f46032913960400191505060405180910390fd5b505050565b612b76828260405180602001604052806000815250612aeb565b5050565b612b858484846125cb565b612b9184848484612ec1565b612be6576040517f08c379a00000000000000000000000000000000000000000000000000000000081526004018080602001828103825260328152602001806132f46032913960400191505060405180910390fd5b50505050565b600073ffffffffffffffffffffffffffffffffffffffff166004600083815260200190815260200160002060009054906101000a900473ffffffffffffffffffffffffffffffffffffffff1673ffffffffffffffffffffffffffffffffffffffff1614612ca75760006004600083815260200190815260200160002060006101000a81548173ffffffffffffffffffffffffffffffffffffffff021916908373ffffffffffffffffffffffffffffffffffffffff1602179055505b50565b612cc2600182600001546130b190919063ffffffff16565b816000018190555050565b6001816000016000828254019250508190555050565b8173ffffffffffffffffffffffffffffffffffffffff16612d0382611634565b73ffffffffffffffffffffffffffffffffffffffff1614612d6f576040517f08c379a00000000000000000000000000000000000000000000000000000000081526004018080602001828103825260258152602001806135306025913960400191505060405180910390fd5b612d7881612bec565b612dbf600560008473ffffffffffffffffffffffffffffffffffffffff1673ffffffffffffffffffffffffffffffffffffffff168152602001908152602001600020612caa565b60006003600083815260200190815260200160002060006101000a81548173ffffffffffffffffffffffffffffffffffffffff021916908373ffffffffffffffffffffffffffffffffffffffff16021790555060006007600083815260200190815260200160002080546001816001161561010002031660029004905014612e6157600760008281526020019081526020016000206000612e609190613286565b5b80600073ffffffffffffffffffffffffffffffffffffffff168373ffffffffffffffffffffffffffffffffffffffff167fddf252ad1be2c89b69c2b068fc378daa952ba7f163c4a11628f55a4df523b3ef60405160405180910390a45050565b6000612ee28473ffffffffffffffffffffffffffffffffffffffff166130fb565b612eef57600190506130a9565b60008473ffffffffffffffffffffffffffffffffffffffff1663150b7a02612f156123ae565b8887876040518563ffffffff1660e01b8152600401808573ffffffffffffffffffffffffffffffffffffffff1673ffffffffffffffffffffffffffffffffffffffff1681526020018473ffffffffffffffffffffffffffffffffffffffff1673ffffffffffffffffffffffffffffffffffffffff16815260200183815260200180602001828103825283818151815260200191508051906020019080838360005b83811015612fd1578082015181840152602081019050612fb6565b50505050905090810190601f168015612ffe5780820380516001836020036101000a031916815260200191505b5095505050505050602060405180830381600087803b15801561302057600080fd5b505af1158015613034573d6000803e3d6000fd5b505050506040513d602081101561304a57600080fd5b8101908080519060200190929190505050905063150b7a0260e01b7bffffffffffffffffffffffffffffffffffffffffffffffffffffffff1916817bffffffffffffffffffffffffffffffffffffffffffffffffffffffff1916149150505b949350505050565b60006130f383836040518060400160405280601e81526020017f536166654d6174683a207375627472616374696f6e206f766572666c6f770000815250613146565b905092915050565b60008060007fc5d2460186f7233c927e7db2dcc703c0e500b653ca82273b7bfad8045d85a47060001b9050833f91506000801b821415801561313d5750808214155b92505050919050565b60008383111582906131f3576040517f08c379a00000000000000000000000000000000000000000000000000000000081526004018080602001828103825283818151815260200191508051906020019080838360005b838110156131b857808201518184015260208101905061319d565b50505050905090810190601f1680156131e55780820380516001836020036101000a031916815260200191505b509250505060405180910390fd5b5060008385039050809150509392505050565b828054600181600116156101000203166002900490600052602060002090601f016020900481019282601f1061324757805160ff1916838001178555613275565b82800160010185558215613275579182015b82811115613274578251825591602001919060010190613259565b5b50905061328291906132ce565b5090565b50805460018160011615610100020316600290046000825580601f106132ac57506132cb565b601f0160209004906000526020600020908101906132ca91906132ce565b5b50565b6132f091905b808211156132ec5760008160009055506001016132d4565b5090565b9056fe4552433732313a207472616e7366657220746f206e6f6e20455243373231526563656976657220696d706c656d656e7465724552433732313a2063616c6c6572206973206e6f742077686974656c697374656420666f7220746865204d696e74657220726f6c654552433732313a207472616e7366657220746f20746865207a65726f20616464726573734552433732313a206f70657261746f7220717565727920666f72206e6f6e6578697374656e7420746f6b656e4552433732313a207472616e73666572207265737472696374656420746f2077686974656c6973746564206164647265737365734552433732313a2062616c616e636520717565727920666f7220746865207a65726f20616464726573734552433732313a20617070726f76652063616c6c6572206973206e6f7420746f6b656e206f776e6572206e6f7220617070726f76656420666f7220616c6c4552433732313a20746f6b656e206f776e657220717565727920666f72206e6f6e6578697374656e7420746f6b656e4552433732313a20617070726f76616c207265737472696374656420746f2077686974656c6973746564206164647265737365734552433732313a20617070726f76656420717565727920666f72206e6f6e6578697374656e7420746f6b656e4552433732313a207472616e73666572206f6620746f6b656e2074686174206973206e6f74206f776e4552433732313a207472616e736665722063616c6c6572206973206e6f74206f776e6572206e6f7220617070726f7665644552433732313a206275726e206f6620746f6b656e2074686174206973206e6f74206f776e4552433732313a2055524920736574206f66206e6f6e6578697374656e7420746f6b656e4552433732313a2063616c6c6572206973206e6f7420746f6b656e206f776e6572206e6f7220617070726f7665644552433732313a2055524920717565727920666f72206e6f6e6578697374656e7420746f6b656e4552433732313a2063616c6c6572206973206e6f742077686974656c6973746564a265627a7a72315820b5afe56c12b592e197e38e1f15100205c90ee5bd47de2e68c95223e501e1facb64736f6c634300050b0032",
  "source": "pragma solidity ^0.5.11;\n\n\nimport \"./IERC721.sol\";\nimport \"./IERC721Receiver.sol\";\nimport \"./SafeMath.sol\";\nimport \"./Address.sol\";\nimport \"./Counters.sol\";\nimport \"./ERC165.sol\";\n\n\n// Copy of Deployed Registry contract ABI\n// We just use the signatures of the parts we need to interact with:\ncontract DeployedRegistry {\n    mapping (address => bool) public isWhitelisted;\n}\n\n\n/**\n * @title ERC721 Non-Fungible Token Standard basic implementation\n * @dev see https://eips.ethereum.org/EIPS/eip-721\n */\ncontract ERC721 is ERC165, IERC721 {\n    using SafeMath for uint256;\n    using Address for address;\n    using Counters for Counters.Counter;\n\n\n    /***  Contract data  ***/\n\n\n    // This contract's owner (administator)\n    address public owner;\n\n    // Microsponsors Registry (whitelist)\n    DeployedRegistry public registry;\n\n    // Equals to `bytes4(keccak256(\"onERC721Received(address,address,uint256,bytes)\"))`\n    // which can be also obtained as `IERC721Receiver(0).onERC721Received.selector`\n    bytes4 private constant _ERC721_RECEIVED = 0x150b7a02;\n\n    // Mapping from token ID to token owner\n    mapping (uint256 => address) private _tokenOwner;\n\n    // Mapping from token ID to approved address\n    mapping (uint256 => address) private _tokenApprovals;\n\n    // Mapping from token owner to number of owned token\n    mapping (address => Counters.Counter) private _ownedTokensCount;\n\n    // Mapping from token owner to operator approvals\n    mapping (address => mapping (address => bool)) private _operatorApprovals;\n\n    // Mapping for token URIs\n    mapping(uint256 => string) private _tokenURIs;\n\n    // Pause. When true, token minting and transfers stop.\n    bool public paused = false;\n\n    /*\n     *     bytes4(keccak256('balanceOf(address)')) == 0x70a08231\n     *     bytes4(keccak256('ownerOf(uint256)')) == 0x6352211e\n     *     bytes4(keccak256('approve(address,uint256)')) == 0x095ea7b3\n     *     bytes4(keccak256('getApproved(uint256)')) == 0x081812fc\n     *     bytes4(keccak256('setApprovalForAll(address,bool)')) == 0xa22cb465\n     *     bytes4(keccak256('isApprovedForAll(address,address)')) == 0xe985e9c5\n     *     bytes4(keccak256('transferFrom(address,address,uint256)')) == 0x23b872dd\n     *     bytes4(keccak256('safeTransferFrom(address,address,uint256)')) == 0x42842e0e\n     *     bytes4(keccak256('safeTransferFrom(address,address,uint256,bytes)')) == 0xb88d4fde\n     *\n     *     => 0x70a08231 ^ 0x6352211e ^ 0x095ea7b3 ^ 0x081812fc ^\n     *        0xa22cb465 ^ 0xe985e9c ^ 0x23b872dd ^ 0x42842e0e ^ 0xb88d4fde == 0x80ac58cd\n     */\n    bytes4 private constant _INTERFACE_ID_ERC721 = 0x80ac58cd;\n\n\n    constructor () public {\n\n        // register the supported interfaces to conform to ERC721 via ERC165\n        _registerInterface(_INTERFACE_ID_ERC721);\n\n        // set the contract owner\n        owner = _msgSender();\n    }\n\n\n    /*\n     * @dev Provides information about the current execution context, including the\n     * sender of the transaction and its data. While these are generally available\n     * via msg.sender and msg.data, they not should not be accessed in such a direct\n     * manner, since when dealing with GSN meta-transactions the account sending and\n     * paying for execution may not be the actual sender (as far as an application\n     * is concerned).\n     */\n\n    function _msgSender() internal view returns (address) {\n\n        return msg.sender;\n\n    }\n\n    function _msgData() internal view returns (bytes memory) {\n\n        this; // silence state mutability warning without generating bytecode -\n              // see https://github.com/ethereum/solidity/issues/2691\n        return msg.data;\n\n    }\n\n\n    /***  Owner (Administrator) functions  ***/\n\n\n    /*\n     * @dev Sets the contract's owner (administrator)\n     * Based on 0x's Ownable, but modified here\n     * import \"@0x/contracts-utils/contracts/src/Ownable.sol\";\n     */\n    modifier onlyOwner() {\n        require(\n            _msgSender() == owner,\n            \"ERC721: caller is not owner\"\n        );\n        _;\n    }\n\n    function transferOwnership(address newOwner)\n        public\n        onlyOwner\n    {\n        if (newOwner != address(0)) {\n            owner = newOwner;\n        }\n    }\n\n    /**\n     * @dev Update address for Microsponsors Registry contract\n     * @param newAddress where the Registry contract lives\n     */\n    function updateRegistryAddress(address newAddress)\n        public\n        onlyOwner\n    {\n        registry = DeployedRegistry(newAddress);\n    }\n\n\n    /***  User account permissions  ***/\n\n\n    /**\n     * @dev Checks Registry contract for whitelisted status\n     * @param target The address to check\n     */\n    function isWhitelisted(address target) public view returns (bool) {\n        return registry.isWhitelisted(target);\n    }\n\n    /**\n     * @dev Checks if caller isWhitelisted(),\n     * throws with error message and refunds gas if not\n     */\n    modifier onlyWhitelisted() {\n\n        require(\n            isWhitelisted(_msgSender()),\n            \"ERC721: caller is not whitelisted\"\n        );\n        _;\n\n    }\n\n    /**\n     * @dev Checks if minter isWhitelisted()\n     */\n    function isMinter(address account) public view returns (bool) {\n        return isWhitelisted(account);\n    }\n\n    /**\n     * @dev Checks if caller isMinter(),\n     * throws with error message and refunds gas if not\n     */\n    modifier onlyMinter() {\n\n        require(\n            isMinter(_msgSender()),\n            \"ERC721: caller is not whitelisted for the Minter role\"\n        );\n        _;\n\n    }\n\n\n    /***  Minting tokens  ***/\n\n\n    /**\n     * @dev Function to mint tokens.\n     * @param to The address that will receive the minted token.\n     * @param tokenId The token id to mint.\n     * @return A boolean that indicates if the operation was successful.\n     */\n    function mint(address to, uint256 tokenId)\n        public\n        onlyMinter\n        whenNotPaused\n        returns (bool)\n    {\n\n        _mint(to, tokenId);\n        return true;\n\n    }\n\n    // solhint-disable\n    /**\n     * Customized for Microsponsors from:\n     * https://github.com/OpenZeppelin/openzeppelin-contracts/blob/master/contracts/token/ERC721/ERC721MetadataMintable.sol\n     *\n     * @dev Function to mint tokens.\n     * @param to The address that will receive the minted tokens.\n     * @param tokenId The token id to mint.\n     * @param tokenURI The token URI of the minted token.\n     * @return A boolean that indicates if the operation was successful.\n     */\n    // solhint-enable\n    function mintWithTokenURI(address to, uint256 tokenId, string memory tokenURI)\n        public\n        onlyMinter\n        whenNotPaused\n        returns (bool)\n    {\n\n        _mint(to, tokenId);\n        _setTokenURI(tokenId, tokenURI);\n        return true;\n\n    }\n\n    /**\n     * @dev Function to safely mint tokens.\n     * @param to The address that will receive the minted token.\n     * @param tokenId The token id to mint.\n     * @return A boolean that indicates if the operation was successful.\n     */\n    function safeMint(address to, uint256 tokenId)\n        public\n        onlyMinter\n        whenNotPaused\n        returns (bool)\n    {\n\n        _safeMint(to, tokenId);\n        return true;\n\n    }\n\n    /**\n     * @dev Function to safely mint tokens.\n     * @param to The address that will receive the minted token.\n     * @param tokenId The token id to mint.\n     * @param _data bytes data to send along with a safe transfer check.\n     * @return A boolean that indicates if the operation was successful.\n     */\n    function safeMint(address to, uint256 tokenId, bytes memory _data)\n        public\n        onlyMinter\n        whenNotPaused\n        returns (bool)\n    {\n\n        _safeMint(to, tokenId, _data);\n        return true;\n\n    }\n\n    // solhint-disable\n    /**\n     * Customized for Microsponsors from\n     * https://github.com/OpenZeppelin/openzeppelin-contracts/blob/master/contracts/token/ERC721/ERC721MetadataMintable.sol\n     *\n     * @dev Function to safely mint tokens.\n     * @param to The address that will receive the minted tokens.\n     * @param tokenId The token id to mint.\n     * @param tokenURI The token URI of the minted token.\n     * @return A boolean that indicates if the operation was successful.\n     */\n    // solhint-enable\n    function safeMintWithTokenURI(address to, uint256 tokenId, string memory tokenURI)\n        public\n        onlyMinter\n        whenNotPaused\n        returns (bool)\n    {\n\n        _safeMint(to, tokenId);\n        _setTokenURI(tokenId, tokenURI);\n        return true;\n\n    }\n\n    /**\n     * @dev Internal function to safely mint a new token.\n     * Reverts if the given token ID already exists.\n     * If the target address is a contract, it must implement `onERC721Received`,\n     * which is called upon a safe transfer, and return the magic value\n     * `bytes4(keccak256(\"onERC721Received(address,address,uint256,bytes)\"))`; otherwise,\n     * the transfer is reverted.\n     * @param to The address that will own the minted token\n     * @param tokenId uint256 ID of the token to be minted\n     */\n    function _safeMint(address to, uint256 tokenId) internal {\n\n        _safeMint(to, tokenId, \"\");\n\n    }\n\n    /**\n     * @dev Internal function to safely mint a new token.\n     * Reverts if the given token ID already exists.\n     * If the target address is a contract, it must implement `onERC721Received`,\n     * which is called upon a safe transfer, and return the magic value\n     * `bytes4(keccak256(\"onERC721Received(address,address,uint256,bytes)\"))`; otherwise,\n     * the transfer is reverted.\n     * @param to The address that will own the minted token\n     * @param tokenId uint256 ID of the token to be minted\n     * @param _data bytes data to send along with a safe transfer check\n     */\n    function _safeMint(address to, uint256 tokenId, bytes memory _data) internal {\n\n        _mint(to, tokenId);\n\n        require(\n            _checkOnERC721Received(address(0), to, tokenId, _data),\n            \"ERC721: transfer to non ERC721Receiver implementer\"\n        );\n\n    }\n\n    /**\n     * @dev Internal function to mint a new token.\n     * Reverts if the given token ID already exists.\n     * @param to The address that will own the minted token\n     * @param tokenId uint256 ID of the token to be minted\n     */\n    function _mint(address to, uint256 tokenId) internal {\n\n        require(to != address(0), \"ERC721: mint to the zero address\");\n        require(!_exists(tokenId), \"ERC721: token already minted\");\n\n        _tokenOwner[tokenId] = to;\n        _ownedTokensCount[to].increment();\n\n        emit Transfer(address(0), to, tokenId);\n\n    }\n\n\n    /***  Token URIs  ***/\n\n\n    /**\n     * @dev Internal function to set the token URI for a given token.\n     * Reverts if the token ID does not exist.\n     * @param tokenId uint256 ID of the token to set its URI\n     * @param uri string URI to assign\n     */\n    function _setTokenURI(uint256 tokenId, string memory uri) internal {\n\n        require(\n            _exists(tokenId),\n            \"ERC721: URI set of nonexistent token\"\n        );\n        _tokenURIs[tokenId] = uri;\n\n    }\n\n    /**\n     * @dev Returns an URI for a given token ID.\n     * Throws if the token ID does not exist. May return an empty string.\n     * @param tokenId uint256 ID of the token to query\n     */\n    function tokenURI(uint256 tokenId) external view returns (string memory) {\n\n        require(\n            _exists(tokenId),\n            \"ERC721: URI query for nonexistent token\"\n        );\n        return _tokenURIs[tokenId];\n\n    }\n\n\n    /***  Query balanceOf() a token holder's account  ***/\n\n\n    /**\n     * @dev Gets the balance of the specified address.\n     * @param tokenOwner address to query the balance of\n     * @return uint256 representing the amount owned by the passed address\n     */\n    function balanceOf(address tokenOwner) public view returns (uint256) {\n\n        require(\n            tokenOwner != address(0),\n            \"ERC721: balance query for the zero address\"\n        );\n\n        return _ownedTokensCount[tokenOwner].current();\n\n    }\n\n\n    /***  Transfers  ***/\n\n\n    /**\n     * @dev Gets the owner of the specified token ID.\n     * @param tokenId uint256 ID of the token to query the owner of\n     * @return address currently marked as the owner of the given token ID\n     */\n    function ownerOf(uint256 tokenId) public view returns (address) {\n\n        address tokenOwner = _tokenOwner[tokenId];\n        require(\n            tokenOwner != address(0),\n            \"ERC721: token owner query for nonexistent token\"\n        );\n\n        return tokenOwner;\n\n    }\n\n    /**\n     * @dev Approves another address to transfer the given token ID\n     * The zero address indicates there is no approved address.\n     * There can only be one approved address per token at a given time.\n     * Can only be called by the token owner or an approved operator.\n     * @param to address to be approved for the given token ID\n     * @param tokenId uint256 ID of the token to be approved\n     */\n    function approve(address to, uint256 tokenId)\n        public\n        onlyWhitelisted\n        whenNotPaused\n    {\n\n        address tokenOwner = ownerOf(tokenId);\n\n        require(\n            to != tokenOwner,\n            \"ERC721: approval is redundant\"\n        );\n\n        require(\n            isWhitelisted(to),\n            \"ERC721: approval restricted to whitelisted addresses\"\n        );\n\n        require(\n            _msgSender() == tokenOwner || isApprovedForAll(tokenOwner, _msgSender()),\n            \"ERC721: approve caller is not token owner nor approved for all\"\n        );\n\n        _tokenApprovals[tokenId] = to;\n        emit Approval(tokenOwner, to, tokenId);\n\n    }\n\n    /**\n     * @dev Gets the approved address for a token ID, or zero if no address set\n     * Reverts if the token ID does not exist.\n     * @param tokenId uint256 ID of the token to query the approval of\n     * @return address currently approved for the given token ID\n     */\n    function getApproved(uint256 tokenId) public view returns (address) {\n\n        require(\n            _exists(tokenId),\n            \"ERC721: approved query for nonexistent token\"\n        );\n\n        return _tokenApprovals[tokenId];\n\n    }\n\n    /**\n     * @dev Sets or unsets the approval of a given operator\n     * An operator is allowed to transfer all tokens of the sender on their behalf.\n     * @param to operator address to set the approval\n     * @param approved representing the status of the approval to be set\n     */\n    function setApprovalForAll(address to, bool approved)\n        public\n        onlyWhitelisted\n        whenNotPaused\n    {\n\n        require(to != _msgSender(), \"ERC721: approve to caller\");\n\n        require(\n            isWhitelisted(to),\n            \"ERC721: approval restricted to whitelisted addresses\"\n        );\n\n        _operatorApprovals[_msgSender()][to] = approved;\n        emit ApprovalForAll(_msgSender(), to, approved);\n\n    }\n\n    /**\n     * @dev Tells whether an operator is approved by a given token owner.\n     * @param tokenOwner token owner address which you want to query the approval of\n     * @param operator operator address which you want to query the approval of\n     * @return bool whether the given operator is approved by the token owner\n     */\n    function isApprovedForAll(address tokenOwner, address operator)\n        public\n        view\n        returns (bool)\n    {\n\n        return _operatorApprovals[tokenOwner][operator];\n\n    }\n\n    /**\n     * @dev Transfers the ownership of a given token ID to another address.\n     * Usage of this method is discouraged, use {safeTransferFrom} whenever possible.\n     * Requires the msg.sender to be the owner, approved, or operator.\n     * @param from current owner of the token\n     * @param to address to receive the ownership of the given token ID\n     * @param tokenId uint256 ID of the token to be transferred\n     */\n    function transferFrom(address from, address to, uint256 tokenId)\n        public\n        onlyWhitelisted\n        whenNotPaused\n    {\n\n        require(\n            _isApprovedOrOwner(_msgSender(), tokenId),\n            \"ERC721: transfer caller is not owner nor approved\"\n        );\n\n        require(\n            isWhitelisted(from),\n            \"ERC721: transfer restricted to whitelisted addresses\"\n        );\n\n        require(\n            isWhitelisted(to),\n            \"ERC721: transfer restricted to whitelisted addresses\"\n        );\n\n        _transferFrom(from, to, tokenId);\n\n    }\n\n    /**\n     * @dev Safely transfers the ownership of a given token ID to another address\n     * If the target address is a contract, it must implement {IERC721Receiver-onERC721Received},\n     * which is called upon a safe transfer, and return the magic value\n     * `bytes4(keccak256(\"onERC721Received(address,address,uint256,bytes)\"))`; otherwise,\n     * the transfer is reverted.\n     * Requires the msg.sender to be the owner, approved, or operator\n     * @param from current owner of the token\n     * @param to address to receive the ownership of the given token ID\n     * @param tokenId uint256 ID of the token to be transferred\n     */\n    function safeTransferFrom(address from, address to, uint256 tokenId) public {\n\n        safeTransferFrom(from, to, tokenId, \"\");\n\n    }\n\n    /**\n     * @dev Safely transfers the ownership of a given token ID to another address\n     * If the target address is a contract, it must implement {IERC721Receiver-onERC721Received},\n     * which is called upon a safe transfer, and return the magic value\n     * `bytes4(keccak256(\"onERC721Received(address,address,uint256,bytes)\"))`; otherwise,\n     * the transfer is reverted.\n     * Requires the _msgSender() to be the owner, approved, or operator\n     * @param from current owner of the token\n     * @param to address to receive the ownership of the given token ID\n     * @param tokenId uint256 ID of the token to be transferred\n     * @param _data bytes data to send along with a safe transfer check\n     */\n    function safeTransferFrom(address from, address to, uint256 tokenId, bytes memory _data)\n        public\n        onlyWhitelisted\n        whenNotPaused\n    {\n\n        require(\n            isWhitelisted(from),\n            \"ERC721: transfer restricted to whitelisted addresses\"\n        );\n\n        require(\n            isWhitelisted(to),\n            \"ERC721: transfer restricted to whitelisted addresses\"\n        );\n\n        require(\n            _isApprovedOrOwner(_msgSender(), tokenId),\n            \"ERC721: transfer caller is not owner nor approved\"\n        );\n\n        _safeTransferFrom(from, to, tokenId, _data);\n\n    }\n\n    /**\n     * @dev Safely transfers the ownership of a given token ID to another address\n     * If the target address is a contract, it must implement `onERC721Received`,\n     * which is called upon a safe transfer, and return the magic value\n     * `bytes4(keccak256(\"onERC721Received(address,address,uint256,bytes)\"))`; otherwise,\n     * the transfer is reverted.\n     * Requires the msg.sender to be the owner, approved, or operator\n     * @param from current owner of the token\n     * @param to address to receive the ownership of the given token ID\n     * @param tokenId uint256 ID of the token to be transferred\n     * @param _data bytes data to send along with a safe transfer check\n     */\n    function _safeTransferFrom(address from, address to, uint256 tokenId, bytes memory _data)\n        internal\n    {\n\n        _transferFrom(from, to, tokenId);\n\n        require(\n            _checkOnERC721Received(from, to, tokenId, _data),\n            \"ERC721: transfer to non ERC721Receiver implementer\"\n        );\n\n    }\n\n    /**\n     * @dev Returns whether the specified token exists.\n     * @param tokenId uint256 ID of the token to query the existence of\n     * @return bool whether the token exists\n     */\n    function _exists(uint256 tokenId) internal view returns (bool) {\n\n        address tokenOwner = _tokenOwner[tokenId];\n\n        return tokenOwner != address(0);\n\n    }\n\n    /**\n     * @dev Returns whether the given spender can transfer a given token ID.\n     * @param spender address of the spender to query\n     * @param tokenId uint256 ID of the token to be transferred\n     * @return bool whether the msg.sender is approved for the given token ID,\n     * is an operator of the owner, or is the owner of the token\n     */\n    function _isApprovedOrOwner(address spender, uint256 tokenId)\n        internal\n        view\n        onlyWhitelisted\n        returns (bool)\n    {\n\n        require(\n            _exists(tokenId),\n            \"ERC721: operator query for nonexistent token\"\n        );\n\n        require(\n            isWhitelisted(spender),\n            \"ERC721: transfer restricted to whitelisted addresses\"\n        );\n\n        address tokenOwner = ownerOf(tokenId);\n\n\n        require(\n            isWhitelisted(tokenOwner),\n            \"ERC721: transfer restricted to whitelisted addresses\"\n        );\n\n        return (spender == tokenOwner || getApproved(tokenId) == spender || isApprovedForAll(tokenOwner, spender));\n\n    }\n\n    /**\n     * @dev Internal function to transfer ownership of a given token ID to another address.\n     * As opposed to {transferFrom}, this imposes no restrictions on msg.sender.\n     * @param from current owner of the token\n     * @param to address to receive the ownership of the given token ID\n     * @param tokenId uint256 ID of the token to be transferred\n     */\n    function _transferFrom(address from, address to, uint256 tokenId) internal {\n\n        require(\n            ownerOf(tokenId) == from,\n            \"ERC721: transfer of token that is not own\"\n        );\n\n        require(\n            to != address(0),\n            \"ERC721: transfer to the zero address\"\n        );\n\n        _clearApproval(tokenId);\n\n        _ownedTokensCount[from].decrement();\n        _ownedTokensCount[to].increment();\n\n        _tokenOwner[tokenId] = to;\n\n        emit Transfer(from, to, tokenId);\n\n    }\n\n    /**\n     * @dev Internal function to invoke {IERC721Receiver-onERC721Received} on a target address.\n     * The call is not executed if the target address is not a contract.\n     *\n     * This function is deprecated.\n     * @param from address representing the previous owner of the given token ID\n     * @param to target address that will receive the tokens\n     * @param tokenId uint256 ID of the token to be transferred\n     * @param _data bytes optional data to send along with the call\n     * @return bool whether the call correctly returned the expected magic value\n     */\n    function _checkOnERC721Received(address from, address to, uint256 tokenId, bytes memory _data)\n        internal\n        returns (bool)\n    {\n\n        if (!to.isContract()) {\n            return true;\n        }\n\n        bytes4 retval = IERC721Receiver(to).onERC721Received(_msgSender(), from, tokenId, _data);\n        return (retval == _ERC721_RECEIVED);\n\n    }\n\n    /**\n     * @dev Private function to clear current approval of a given token ID.\n     * @param tokenId uint256 ID of the token to be transferred\n     */\n    function _clearApproval(uint256 tokenId) private {\n\n        if (_tokenApprovals[tokenId] != address(0)) {\n            _tokenApprovals[tokenId] = address(0);\n        }\n\n    }\n\n\n    /***  Burn Tokens  ***/\n\n\n    // solhint-disable\n    /**\n     * Customized for Microsponsors\n     * https://github.com/OpenZeppelin/openzeppelin-contracts/blob/master/contracts/token/ERC721/ERC721Burnable.sol     * @dev Burns a specific ERC721 token.\n     * @param tokenId uint256 id of the ERC721 token to be burned.\n     */\n     // solhint-enable\n    function burn(uint256 tokenId) public whenNotPaused {\n\n        require(\n            _isApprovedOrOwner(_msgSender(), tokenId),\n            \"ERC721: caller is not token owner nor approved\"\n        );\n\n        _burn(tokenId);\n\n    }\n\n\n    /**\n     * @dev Internal function to burn a specific token.\n     * Reverts if the token does not exist.\n     * Deprecated, use {_burn} instead.\n     * @param tokenOwner owner of the token to burn\n     * @param tokenId uint256 ID of the token being burned\n     */\n    function _burn(address tokenOwner, uint256 tokenId) internal {\n\n        require(\n            ownerOf(tokenId) == tokenOwner,\n            \"ERC721: burn of token that is not own\"\n        );\n\n        _clearApproval(tokenId);\n\n        _ownedTokensCount[tokenOwner].decrement();\n        _tokenOwner[tokenId] = address(0);\n\n        // Clear metadata (if any)\n        if (bytes(_tokenURIs[tokenId]).length != 0) {\n            delete _tokenURIs[tokenId];\n        }\n\n        emit Transfer(tokenOwner, address(0), tokenId);\n\n    }\n\n    /**\n     * @dev Internal function to burn a specific token.\n     * Reverts if the token does not exist.\n     * @param tokenId uint256 ID of the token being burned\n     */\n    function _burn(uint256 tokenId) internal {\n\n        _burn(ownerOf(tokenId), tokenId);\n\n    }\n\n\n    /*** Pausable (adapted from OpenZeppelin via Cryptokitties) ***/\n\n\n    /// @dev Modifier to allow actions only when the contract IS NOT paused\n    modifier whenNotPaused() {\n        require(!paused);\n        _;\n    }\n\n    /// @dev Modifier to allow actions only when the contract IS paused\n    modifier whenPaused {\n        require(paused);\n        _;\n    }\n\n    /// @dev Called by contract owner to pause actions on this contract\n    function pause() external onlyOwner whenNotPaused {\n        paused = true;\n    }\n\n    /// @dev Called by contract owner to unpause the smart contract.\n    /// @notice This is public rather than external so it can be called by\n    ///  derived contracts.\n    function unpause() public onlyOwner whenPaused {\n        // can't unpause if contract was upgraded\n        paused = false;\n    }\n\n}\n",
  "sourcePath": "/Users/lauren/github/erc-721/contracts/ERC721.sol",
  "compiler": {
    "name": "solc",
    "version": "0.5.11+commit.c082d0b4.Emscripten.clang"
  },
  "schemaVersion": "3.0.10",
  "updatedAt": "2019-08-23T19:58:41.167Z",
  "devdoc": {
    "details": "see https://eips.ethereum.org/EIPS/eip-721",
    "methods": {
      "approve(address,uint256)": {
        "details": "Approves another address to transfer the given token ID The zero address indicates there is no approved address. There can only be one approved address per token at a given time. Can only be called by the token owner or an approved operator.",
        "params": {
          "to": "address to be approved for the given token ID",
          "tokenId": "uint256 ID of the token to be approved"
        }
      },
      "balanceOf(address)": {
        "details": "Gets the balance of the specified address.",
        "params": {
          "tokenOwner": "address to query the balance of"
        },
        "return": "uint256 representing the amount owned by the passed address"
      },
      "burn(uint256)": {
        "details": "Burns a specific ERC721 token.",
        "params": {
          "tokenId": "uint256 id of the ERC721 token to be burned."
        }
      },
      "getApproved(uint256)": {
        "details": "Gets the approved address for a token ID, or zero if no address set Reverts if the token ID does not exist.",
        "params": {
          "tokenId": "uint256 ID of the token to query the approval of"
        },
        "return": "address currently approved for the given token ID"
      },
      "isApprovedForAll(address,address)": {
        "details": "Tells whether an operator is approved by a given token owner.",
        "params": {
          "operator": "operator address which you want to query the approval of",
          "tokenOwner": "token owner address which you want to query the approval of"
        },
        "return": "bool whether the given operator is approved by the token owner"
      },
      "isMinter(address)": {
        "details": "Checks if minter isWhitelisted()"
      },
      "isWhitelisted(address)": {
        "details": "Checks Registry contract for whitelisted status",
        "params": {
          "target": "The address to check"
        }
      },
      "mint(address,uint256)": {
        "details": "Function to mint tokens.",
        "params": {
          "to": "The address that will receive the minted token.",
          "tokenId": "The token id to mint."
        },
        "return": "A boolean that indicates if the operation was successful."
      },
      "mintWithTokenURI(address,uint256,string)": {
        "details": "Function to mint tokens.",
        "params": {
          "to": "The address that will receive the minted tokens.",
          "tokenId": "The token id to mint.",
          "tokenURI": "The token URI of the minted token."
        },
        "return": "A boolean that indicates if the operation was successful."
      },
      "ownerOf(uint256)": {
        "details": "Gets the owner of the specified token ID.",
        "params": {
          "tokenId": "uint256 ID of the token to query the owner of"
        },
        "return": "address currently marked as the owner of the given token ID"
      },
      "pause()": {
        "details": "Called by contract owner to pause actions on this contract"
      },
      "safeMint(address,uint256)": {
        "details": "Function to safely mint tokens.",
        "params": {
          "to": "The address that will receive the minted token.",
          "tokenId": "The token id to mint."
        },
        "return": "A boolean that indicates if the operation was successful."
      },
      "safeMint(address,uint256,bytes)": {
        "details": "Function to safely mint tokens.",
        "params": {
          "_data": "bytes data to send along with a safe transfer check.",
          "to": "The address that will receive the minted token.",
          "tokenId": "The token id to mint."
        },
        "return": "A boolean that indicates if the operation was successful."
      },
      "safeMintWithTokenURI(address,uint256,string)": {
        "details": "Function to safely mint tokens.",
        "params": {
          "to": "The address that will receive the minted tokens.",
          "tokenId": "The token id to mint.",
          "tokenURI": "The token URI of the minted token."
        },
        "return": "A boolean that indicates if the operation was successful."
      },
      "safeTransferFrom(address,address,uint256)": {
        "details": "Safely transfers the ownership of a given token ID to another address If the target address is a contract, it must implement {IERC721Receiver-onERC721Received}, which is called upon a safe transfer, and return the magic value `bytes4(keccak256(\"onERC721Received(address,address,uint256,bytes)\"))`; otherwise, the transfer is reverted. Requires the msg.sender to be the owner, approved, or operator",
        "params": {
          "from": "current owner of the token",
          "to": "address to receive the ownership of the given token ID",
          "tokenId": "uint256 ID of the token to be transferred"
        }
      },
      "safeTransferFrom(address,address,uint256,bytes)": {
        "details": "Safely transfers the ownership of a given token ID to another address If the target address is a contract, it must implement {IERC721Receiver-onERC721Received}, which is called upon a safe transfer, and return the magic value `bytes4(keccak256(\"onERC721Received(address,address,uint256,bytes)\"))`; otherwise, the transfer is reverted. Requires the _msgSender() to be the owner, approved, or operator",
        "params": {
          "_data": "bytes data to send along with a safe transfer check",
          "from": "current owner of the token",
          "to": "address to receive the ownership of the given token ID",
          "tokenId": "uint256 ID of the token to be transferred"
        }
      },
      "setApprovalForAll(address,bool)": {
        "details": "Sets or unsets the approval of a given operator An operator is allowed to transfer all tokens of the sender on their behalf.",
        "params": {
          "approved": "representing the status of the approval to be set",
          "to": "operator address to set the approval"
        }
      },
      "supportsInterface(bytes4)": {
        "details": "See {IERC165-supportsInterface}.     * Time complexity O(1), guaranteed to always use less than 30 000 gas."
      },
      "tokenURI(uint256)": {
        "details": "Returns an URI for a given token ID. Throws if the token ID does not exist. May return an empty string.",
        "params": {
          "tokenId": "uint256 ID of the token to query"
        }
      },
      "transferFrom(address,address,uint256)": {
        "details": "Transfers the ownership of a given token ID to another address. Usage of this method is discouraged, use {safeTransferFrom} whenever possible. Requires the msg.sender to be the owner, approved, or operator.",
        "params": {
          "from": "current owner of the token",
          "to": "address to receive the ownership of the given token ID",
          "tokenId": "uint256 ID of the token to be transferred"
        }
      },
      "unpause()": {
        "details": "Called by contract owner to unpause the smart contract."
      },
      "updateRegistryAddress(address)": {
        "details": "Update address for Microsponsors Registry contract",
        "params": {
          "newAddress": "where the Registry contract lives"
        }
      }
    },
    "title": "ERC721 Non-Fungible Token Standard basic implementation"
  },
  "userdoc": {
    "methods": {
      "burn(uint256)": {
        "notice": "Customized for Microsponsors"
      },
      "mintWithTokenURI(address,uint256,string)": {
        "notice": "Customized for Microsponsors from: https://github.com/OpenZeppelin/openzeppelin-contracts/blob/master/contracts/token/ERC721/ERC721MetadataMintable.sol"
      },
      "safeMintWithTokenURI(address,uint256,string)": {
        "notice": "Customized for Microsponsors from https://github.com/OpenZeppelin/openzeppelin-contracts/blob/master/contracts/token/ERC721/ERC721MetadataMintable.sol"
      },
      "unpause()": {
        "notice": "This is public rather than external so it can be called by  derived contracts."
      }
    }
  }
}