{
  "contractName": "ERC721",
  "abi": [
    {
      "constant": true,
      "inputs": [
        {
          "internalType": "bytes4",
          "name": "interfaceId",
          "type": "bytes4"
        }
      ],
      "name": "supportsInterface",
      "outputs": [
        {
          "internalType": "bool",
          "name": "",
          "type": "bool"
        }
      ],
      "payable": false,
      "stateMutability": "view",
      "type": "function"
    },
    {
      "constant": true,
      "inputs": [],
      "name": "paused",
      "outputs": [
        {
          "internalType": "bool",
          "name": "",
          "type": "bool"
        }
      ],
      "payable": false,
      "stateMutability": "view",
      "type": "function"
    },
    {
      "constant": true,
      "inputs": [],
      "name": "registry",
      "outputs": [
        {
          "internalType": "contract DeployedRegistry",
          "name": "",
          "type": "address"
        }
      ],
      "payable": false,
      "stateMutability": "view",
      "type": "function"
    },
    {
      "constant": true,
      "inputs": [],
      "name": "owner",
      "outputs": [
        {
          "internalType": "address",
          "name": "",
          "type": "address"
        }
      ],
      "payable": false,
      "stateMutability": "view",
      "type": "function"
    },
    {
      "inputs": [],
      "payable": false,
      "stateMutability": "nonpayable",
      "type": "constructor"
    },
    {
      "anonymous": false,
      "inputs": [
        {
          "indexed": true,
          "internalType": "address",
          "name": "from",
          "type": "address"
        },
        {
          "indexed": true,
          "internalType": "address",
          "name": "to",
          "type": "address"
        },
        {
          "indexed": true,
          "internalType": "uint256",
          "name": "tokenId",
          "type": "uint256"
        }
      ],
      "name": "Transfer",
      "type": "event"
    },
    {
      "anonymous": false,
      "inputs": [
        {
          "indexed": true,
          "internalType": "address",
          "name": "tokenOwner",
          "type": "address"
        },
        {
          "indexed": true,
          "internalType": "address",
          "name": "approved",
          "type": "address"
        },
        {
          "indexed": true,
          "internalType": "uint256",
          "name": "tokenId",
          "type": "uint256"
        }
      ],
      "name": "Approval",
      "type": "event"
    },
    {
      "anonymous": false,
      "inputs": [
        {
          "indexed": true,
          "internalType": "address",
          "name": "tokenOwner",
          "type": "address"
        },
        {
          "indexed": true,
          "internalType": "address",
          "name": "operator",
          "type": "address"
        },
        {
          "indexed": false,
          "internalType": "bool",
          "name": "approved",
          "type": "bool"
        }
      ],
      "name": "ApprovalForAll",
      "type": "event"
    },
    {
      "constant": false,
      "inputs": [
        {
          "internalType": "address",
          "name": "newOwner",
          "type": "address"
        }
      ],
      "name": "transferOwnership",
      "outputs": [],
      "payable": false,
      "stateMutability": "nonpayable",
      "type": "function"
    },
    {
      "constant": false,
      "inputs": [
        {
          "internalType": "address",
          "name": "newAddress",
          "type": "address"
        }
      ],
      "name": "updateRegistryAddress",
      "outputs": [],
      "payable": false,
      "stateMutability": "nonpayable",
      "type": "function"
    },
    {
      "constant": true,
      "inputs": [
        {
          "internalType": "address",
          "name": "target",
          "type": "address"
        }
      ],
      "name": "isWhitelisted",
      "outputs": [
        {
          "internalType": "bool",
          "name": "",
          "type": "bool"
        }
      ],
      "payable": false,
      "stateMutability": "view",
      "type": "function"
    },
    {
      "constant": true,
      "inputs": [
        {
          "internalType": "address",
          "name": "account",
          "type": "address"
        }
      ],
      "name": "isMinter",
      "outputs": [
        {
          "internalType": "bool",
          "name": "",
          "type": "bool"
        }
      ],
      "payable": false,
      "stateMutability": "view",
      "type": "function"
    },
    {
      "constant": false,
      "inputs": [
        {
          "internalType": "string",
          "name": "contentId",
          "type": "string"
        },
        {
          "internalType": "bytes32",
          "name": "propertyName",
          "type": "bytes32"
        },
        {
          "internalType": "uint48",
          "name": "startTime",
          "type": "uint48"
        },
        {
          "internalType": "uint48",
          "name": "endTime",
          "type": "uint48"
        },
        {
          "internalType": "uint48",
          "name": "auctionEndTime",
          "type": "uint48"
        }
      ],
      "name": "mint",
      "outputs": [
        {
          "internalType": "uint256",
          "name": "",
          "type": "uint256"
        }
      ],
      "payable": false,
      "stateMutability": "nonpayable",
      "type": "function"
    },
    {
      "constant": false,
      "inputs": [
        {
          "internalType": "string",
          "name": "contentId",
          "type": "string"
        },
        {
          "internalType": "bytes32",
          "name": "propertyName",
          "type": "bytes32"
        },
        {
          "internalType": "uint48",
          "name": "startTime",
          "type": "uint48"
        },
        {
          "internalType": "uint48",
          "name": "endTime",
          "type": "uint48"
        },
        {
          "internalType": "uint48",
          "name": "auctionEndTime",
          "type": "uint48"
        },
        {
          "internalType": "string",
          "name": "tokenURI",
          "type": "string"
        }
      ],
      "name": "mintWithTokenURI",
      "outputs": [
        {
          "internalType": "uint256",
          "name": "",
          "type": "uint256"
        }
      ],
      "payable": false,
      "stateMutability": "nonpayable",
      "type": "function"
    },
    {
      "constant": false,
      "inputs": [
        {
          "internalType": "string",
          "name": "contentId",
          "type": "string"
        },
        {
          "internalType": "bytes32",
          "name": "propertyName",
          "type": "bytes32"
        },
        {
          "internalType": "uint48",
          "name": "startTime",
          "type": "uint48"
        },
        {
          "internalType": "uint48",
          "name": "endTime",
          "type": "uint48"
        },
        {
          "internalType": "uint48",
          "name": "auctionEndTime",
          "type": "uint48"
        }
      ],
      "name": "safeMint",
      "outputs": [
        {
          "internalType": "uint256",
          "name": "",
          "type": "uint256"
        }
      ],
      "payable": false,
      "stateMutability": "nonpayable",
      "type": "function"
    },
    {
      "constant": false,
      "inputs": [
        {
          "internalType": "string",
          "name": "contentId",
          "type": "string"
        },
        {
          "internalType": "bytes32",
          "name": "propertyName",
          "type": "bytes32"
        },
        {
          "internalType": "uint48",
          "name": "startTime",
          "type": "uint48"
        },
        {
          "internalType": "uint48",
          "name": "endTime",
          "type": "uint48"
        },
        {
          "internalType": "uint48",
          "name": "auctionEndTime",
          "type": "uint48"
        },
        {
          "internalType": "bytes",
          "name": "data",
          "type": "bytes"
        }
      ],
      "name": "safeMint",
      "outputs": [
        {
          "internalType": "uint256",
          "name": "",
          "type": "uint256"
        }
      ],
      "payable": false,
      "stateMutability": "nonpayable",
      "type": "function"
    },
    {
      "constant": false,
      "inputs": [
        {
          "internalType": "string",
          "name": "contentId",
          "type": "string"
        },
        {
          "internalType": "bytes32",
          "name": "propertyName",
          "type": "bytes32"
        },
        {
          "internalType": "uint48",
          "name": "startTime",
          "type": "uint48"
        },
        {
          "internalType": "uint48",
          "name": "endTime",
          "type": "uint48"
        },
        {
          "internalType": "uint48",
          "name": "auctionEndTime",
          "type": "uint48"
        },
        {
          "internalType": "string",
          "name": "tokenURI",
          "type": "string"
        }
      ],
      "name": "safeMintWithTokenURI",
      "outputs": [
        {
          "internalType": "uint256",
          "name": "",
          "type": "uint256"
        }
      ],
      "payable": false,
      "stateMutability": "nonpayable",
      "type": "function"
    },
    {
      "constant": true,
      "inputs": [
        {
          "internalType": "uint256",
          "name": "tokenId",
          "type": "uint256"
        }
      ],
      "name": "tokenURI",
      "outputs": [
        {
          "internalType": "string",
          "name": "",
          "type": "string"
        }
      ],
      "payable": false,
      "stateMutability": "view",
      "type": "function"
    },
    {
      "constant": true,
      "inputs": [
        {
          "internalType": "uint256",
          "name": "tokenId",
          "type": "uint256"
        }
      ],
      "name": "tokenTimeSlot",
      "outputs": [
        {
          "internalType": "address",
          "name": "minter",
          "type": "address"
        },
        {
          "internalType": "string",
          "name": "contentId",
          "type": "string"
        },
        {
          "internalType": "bytes32",
          "name": "propertyName",
          "type": "bytes32"
        },
        {
          "internalType": "uint48",
          "name": "startTime",
          "type": "uint48"
        },
        {
          "internalType": "uint48",
          "name": "endTime",
          "type": "uint48"
        },
        {
          "internalType": "uint48",
          "name": "auctionEndTime",
          "type": "uint48"
        }
      ],
      "payable": false,
      "stateMutability": "view",
      "type": "function"
    },
    {
      "constant": true,
      "inputs": [
        {
          "internalType": "address",
          "name": "minter",
          "type": "address"
        }
      ],
      "name": "tokenMinterContentIds",
      "outputs": [
        {
          "internalType": "string[]",
          "name": "",
          "type": "string[]"
        }
      ],
      "payable": false,
      "stateMutability": "view",
      "type": "function"
    },
    {
      "constant": true,
      "inputs": [
        {
          "internalType": "address",
          "name": "minter",
          "type": "address"
        },
        {
          "internalType": "string",
          "name": "contentId",
          "type": "string"
        }
      ],
      "name": "tokenMinterPropertyNames",
      "outputs": [
        {
          "internalType": "bytes32[]",
          "name": "",
          "type": "bytes32[]"
        }
      ],
      "payable": false,
      "stateMutability": "view",
      "type": "function"
    },
    {
      "constant": true,
      "inputs": [],
      "name": "totalSupply",
      "outputs": [
        {
          "internalType": "uint256",
          "name": "",
          "type": "uint256"
        }
      ],
      "payable": false,
      "stateMutability": "view",
      "type": "function"
    },
    {
      "constant": true,
      "inputs": [
        {
          "internalType": "address",
          "name": "tokenOwner",
          "type": "address"
        }
      ],
      "name": "balanceOf",
      "outputs": [
        {
          "internalType": "uint256",
          "name": "",
          "type": "uint256"
        }
      ],
      "payable": false,
      "stateMutability": "view",
      "type": "function"
    },
    {
      "constant": true,
      "inputs": [
        {
          "internalType": "uint256",
          "name": "tokenId",
          "type": "uint256"
        }
      ],
      "name": "ownerOf",
      "outputs": [
        {
          "internalType": "address",
          "name": "",
          "type": "address"
        }
      ],
      "payable": false,
      "stateMutability": "view",
      "type": "function"
    },
    {
      "constant": true,
      "inputs": [
        {
          "internalType": "address",
          "name": "tokenOwner",
          "type": "address"
        }
      ],
      "name": "tokensOfOwner",
      "outputs": [
        {
          "internalType": "uint256[]",
          "name": "",
          "type": "uint256[]"
        }
      ],
      "payable": false,
      "stateMutability": "view",
      "type": "function"
    },
    {
      "constant": false,
      "inputs": [
        {
          "internalType": "address",
          "name": "to",
          "type": "address"
        },
        {
          "internalType": "uint256",
          "name": "tokenId",
          "type": "uint256"
        }
      ],
      "name": "approve",
      "outputs": [],
      "payable": false,
      "stateMutability": "nonpayable",
      "type": "function"
    },
    {
      "constant": true,
      "inputs": [
        {
          "internalType": "uint256",
          "name": "tokenId",
          "type": "uint256"
        }
      ],
      "name": "getApproved",
      "outputs": [
        {
          "internalType": "address",
          "name": "",
          "type": "address"
        }
      ],
      "payable": false,
      "stateMutability": "view",
      "type": "function"
    },
    {
      "constant": false,
      "inputs": [
        {
          "internalType": "address",
          "name": "to",
          "type": "address"
        },
        {
          "internalType": "bool",
          "name": "approved",
          "type": "bool"
        }
      ],
      "name": "setApprovalForAll",
      "outputs": [],
      "payable": false,
      "stateMutability": "nonpayable",
      "type": "function"
    },
    {
      "constant": true,
      "inputs": [
        {
          "internalType": "address",
          "name": "tokenOwner",
          "type": "address"
        },
        {
          "internalType": "address",
          "name": "operator",
          "type": "address"
        }
      ],
      "name": "isApprovedForAll",
      "outputs": [
        {
          "internalType": "bool",
          "name": "",
          "type": "bool"
        }
      ],
      "payable": false,
      "stateMutability": "view",
      "type": "function"
    },
    {
      "constant": false,
      "inputs": [
        {
          "internalType": "address",
          "name": "from",
          "type": "address"
        },
        {
          "internalType": "address",
          "name": "to",
          "type": "address"
        },
        {
          "internalType": "uint256",
          "name": "tokenId",
          "type": "uint256"
        }
      ],
      "name": "transferFrom",
      "outputs": [],
      "payable": false,
      "stateMutability": "nonpayable",
      "type": "function"
    },
    {
      "constant": false,
      "inputs": [
        {
          "internalType": "address",
          "name": "from",
          "type": "address"
        },
        {
          "internalType": "address",
          "name": "to",
          "type": "address"
        },
        {
          "internalType": "uint256",
          "name": "tokenId",
          "type": "uint256"
        }
      ],
      "name": "safeTransferFrom",
      "outputs": [],
      "payable": false,
      "stateMutability": "nonpayable",
      "type": "function"
    },
    {
      "constant": false,
      "inputs": [
        {
          "internalType": "address",
          "name": "from",
          "type": "address"
        },
        {
          "internalType": "address",
          "name": "to",
          "type": "address"
        },
        {
          "internalType": "uint256",
          "name": "tokenId",
          "type": "uint256"
        },
        {
          "internalType": "bytes",
          "name": "data",
          "type": "bytes"
        }
      ],
      "name": "safeTransferFrom",
      "outputs": [],
      "payable": false,
      "stateMutability": "nonpayable",
      "type": "function"
    },
    {
      "constant": false,
      "inputs": [
        {
          "internalType": "uint256",
          "name": "tokenId",
          "type": "uint256"
        }
      ],
      "name": "burn",
      "outputs": [],
      "payable": false,
      "stateMutability": "nonpayable",
      "type": "function"
    },
    {
      "constant": false,
      "inputs": [],
      "name": "pause",
      "outputs": [],
      "payable": false,
      "stateMutability": "nonpayable",
      "type": "function"
    },
    {
      "constant": false,
      "inputs": [],
      "name": "unpause",
      "outputs": [],
      "payable": false,
      "stateMutability": "nonpayable",
      "type": "function"
    }
  ],
  "bytecode": "0x60806040526000600c60006101000a81548160ff0219169083151502179055503480156200002c57600080fd5b50620000456301ffc9a760e01b620000b360201b60201c565b6200005d6380ac58cd60e01b620000b360201b60201c565b6200006d6200018b60201b60201c565b600160006101000a81548173ffffffffffffffffffffffffffffffffffffffff021916908373ffffffffffffffffffffffffffffffffffffffff16021790555062000208565b63ffffffff60e01b817bffffffffffffffffffffffffffffffffffffffffffffffffffffffff191614156200011f576040517f08c379a00000000000000000000000000000000000000000000000000000000081526004016200011690620001d5565b60405180910390fd5b6001600080837bffffffffffffffffffffffffffffffffffffffffffffffffffffffff19167bffffffffffffffffffffffffffffffffffffffffffffffffffffffff1916815260200190815260200160002060006101000a81548160ff02191690831515021790555050565b600033905090565b6000620001a2601c83620001f7565b91507f4552433136353a20696e76616c696420696e74657266616365206964000000006000830152602082019050919050565b60006020820190508181036000830152620001f08162000193565b9050919050565b600082825260208201905092915050565b61502080620002186000396000f3fe608060405234801561001057600080fd5b50600436106101e55760003560e01c80637affcb9a1161010f578063aaa83bdb116100a2578063cf74a5ad11610071578063cf74a5ad146105da578063e5c249241461060a578063e985e9c51461063f578063f2fde38b1461066f576101e5565b8063aaa83bdb14610542578063b88d4fde14610572578063c57a88251461058e578063c87b56dd146105aa576101e5565b80638da5cb5b116100de5780638da5cb5b146104a8578063a22cb465146104c6578063a4ede128146104e2578063aa271e1a14610512576101e5565b80637affcb9a146104205780637b103999146104505780638456cb591461046e5780638462151c14610478576101e5565b80633f4ba83a116101875780635c975abb116101565780635c975abb14610372578063613a8da9146103905780636352211e146103c057806370a08231146103f0576101e5565b80633f4ba83a1461030057806342842e0e1461030a57806342966c681461032657806349eabf5e14610342576101e5565b806318160ddd116101c357806318160ddd1461026657806323b872dd146102845780633874fd67146102a05780633af32abf146102d0576101e5565b806301ffc9a7146101ea578063081812fc1461021a578063095ea7b31461024a575b600080fd5b61020460048036036101ff91908101906139a9565b61068b565b604051610211919061494a565b60405180910390f35b610234600480360361022f9190810190613bfc565b6106f2565b6040516102419190614815565b60405180910390f35b610264600480360361025f9190810190613944565b610777565b005b61026e61099b565b60405161027b9190614ca2565b60405180910390f35b61029e600480360361029991908101906137e6565b6109ac565b005b6102ba60048036036102b59190810190613b43565b610ab6565b6040516102c79190614ca2565b60405180910390f35b6102ea60048036036102e59190810190613781565b610ba5565b6040516102f7919061494a565b60405180910390f35b610308610c59565b005b610324600480360361031f91908101906137e6565b610d26565b005b610340600480360361033b9190810190613bfc565b610d46565b005b61035c60048036036103579190810190613a8a565b610dbc565b6040516103699190614ca2565b60405180910390f35b61037a610ea2565b604051610387919061494a565b60405180910390f35b6103aa60048036036103a59190810190613b43565b610eb5565b6040516103b79190614ca2565b60405180910390f35b6103da60048036036103d59190810190613bfc565b610fa4565b6040516103e79190614815565b60405180910390f35b61040a60048036036104059190810190613781565b611056565b6040516104179190614ca2565b60405180910390f35b61043a600480360361043591908101906138ec565b611115565b60405161044791906148e4565b60405180910390f35b610458611261565b6040516104659190614965565b60405180910390f35b610476611287565b005b610492600480360361048d9190810190613781565b611355565b60405161049f9190614928565b60405180910390f35b6104b061149d565b6040516104bd9190614815565b60405180910390f35b6104e060048036036104db91908101906138b0565b6114c3565b005b6104fc60048036036104f79190810190613781565b6116ad565b6040516105099190614906565b60405180910390f35b61052c60048036036105279190810190613781565b611875565b604051610539919061494a565b60405180910390f35b61055c600480360361055791908101906139fb565b611887565b6040516105699190614ca2565b60405180910390f35b61058c60048036036105879190810190613835565b61196b565b005b6105a860048036036105a39190810190613781565b611a77565b005b6105c460048036036105bf9190810190613bfc565b611b52565b6040516105d19190614980565b60405180910390f35b6105f460048036036105ef91908101906139fb565b611c4f565b6040516106019190614ca2565b60405180910390f35b610624600480360361061f9190810190613bfc565b611d33565b6040516106369695949392919061487c565b60405180910390f35b610659600480360361065491908101906137aa565b611f15565b604051610666919061494a565b60405180910390f35b61068960048036036106849190810190613781565b611fa9565b005b6000806000837bffffffffffffffffffffffffffffffffffffffffffffffffffffffff19167bffffffffffffffffffffffffffffffffffffffffffffffffffffffff1916815260200190815260200160002060009054906101000a900460ff169050919050565b60006106fd826120b9565b61073c576040517f08c379a000000000000000000000000000000000000000000000000000000000815260040161073390614b62565b60405180910390fd5b600a600083815260200190815260200160002060009054906101000a900473ffffffffffffffffffffffffffffffffffffffff169050919050565b61078761078261212b565b610ba5565b6107c6576040517f08c379a00000000000000000000000000000000000000000000000000000000081526004016107bd90614c82565b60405180910390fd5b600c60009054906101000a900460ff16156107e057600080fd5b60006107eb82610fa4565b90508073ffffffffffffffffffffffffffffffffffffffff168373ffffffffffffffffffffffffffffffffffffffff16141561085c576040517f08c379a000000000000000000000000000000000000000000000000000000000815260040161085390614ba2565b60405180910390fd5b8073ffffffffffffffffffffffffffffffffffffffff1661087b61212b565b73ffffffffffffffffffffffffffffffffffffffff1614806108aa57506108a9816108a461212b565b611f15565b5b6108e9576040517f08c379a00000000000000000000000000000000000000000000000000000000081526004016108e090614b02565b60405180910390fd5b82600a600084815260200190815260200160002060006101000a81548173ffffffffffffffffffffffffffffffffffffffff021916908373ffffffffffffffffffffffffffffffffffffffff160217905550818373ffffffffffffffffffffffffffffffffffffffff168273ffffffffffffffffffffffffffffffffffffffff167f8c5be1e5ebec7d5bd14f71427d1e84f3dd0314c0f7b2291e5b200ac8c7c3b92560405160405180910390a4505050565b60006109a76003612133565b905090565b600c60009054906101000a900460ff16156109c657600080fd5b6109d76109d161212b565b82612141565b610a16576040517f08c379a0000000000000000000000000000000000000000000000000000000008152600401610a0d90614bc2565b60405180910390fd5b610a1f83610ba5565b610a5e576040517f08c379a0000000000000000000000000000000000000000000000000000000008152600401610a5590614a62565b60405180910390fd5b610a6782610ba5565b610aa6576040517f08c379a0000000000000000000000000000000000000000000000000000000008152600401610a9d90614a62565b60405180910390fd5b610ab183838361221f565b505050565b6000610ac8610ac361212b565b611875565b610b07576040517f08c379a0000000000000000000000000000000000000000000000000000000008152600401610afe906149c2565b60405180910390fd5b600c60009054906101000a900460ff1615610b2157600080fd5b610b2c87868661244e565b610b6b576040517f08c379a0000000000000000000000000000000000000000000000000000000008152600401610b6290614aa2565b60405180910390fd5b6000610b7d610b7861212b565b612597565b9050610b8d8189898989896125be565b610b9781846128df565b809150509695505050505050565b6000600260009054906101000a900473ffffffffffffffffffffffffffffffffffffffff1673ffffffffffffffffffffffffffffffffffffffff16633af32abf836040518263ffffffff1660e01b8152600401610c029190614815565b60206040518083038186803b158015610c1a57600080fd5b505afa158015610c2e573d6000803e3d6000fd5b505050506040513d601f19601f82011682018060405250610c529190810190613980565b9050919050565b600160009054906101000a900473ffffffffffffffffffffffffffffffffffffffff1673ffffffffffffffffffffffffffffffffffffffff16610c9a61212b565b73ffffffffffffffffffffffffffffffffffffffff1614610cf0576040517f08c379a0000000000000000000000000000000000000000000000000000000008152600401610ce790614c22565b60405180910390fd5b600c60009054906101000a900460ff16610d0957600080fd5b6000600c60006101000a81548160ff021916908315150217905550565b610d418383836040518060200160405280600081525061196b565b505050565b600c60009054906101000a900460ff1615610d6057600080fd5b610d71610d6b61212b565b82612141565b610db0576040517f08c379a0000000000000000000000000000000000000000000000000000000008152600401610da790614c42565b60405180910390fd5b610db981612953565b50565b6000610dce610dc961212b565b611875565b610e0d576040517f08c379a0000000000000000000000000000000000000000000000000000000008152600401610e04906149c2565b60405180910390fd5b600c60009054906101000a900460ff1615610e2757600080fd5b610e3287868661244e565b610e71576040517f08c379a0000000000000000000000000000000000000000000000000000000008152600401610e6890614aa2565b60405180910390fd5b6000610e84610e7e61212b565b84612968565b9050610e948189898989896125be565b809150509695505050505050565b600c60009054906101000a900460ff1681565b6000610ec7610ec261212b565b611875565b610f06576040517f08c379a0000000000000000000000000000000000000000000000000000000008152600401610efd906149c2565b60405180910390fd5b600c60009054906101000a900460ff1615610f2057600080fd5b610f2b87868661244e565b610f6a576040517f08c379a0000000000000000000000000000000000000000000000000000000008152600401610f6190614aa2565b60405180910390fd5b6000610f7c610f7761212b565b6129cc565b9050610f8c8189898989896125be565b610f9681846128df565b809150509695505050505050565b6000806004600084815260200190815260200160002060009054906101000a900473ffffffffffffffffffffffffffffffffffffffff169050600073ffffffffffffffffffffffffffffffffffffffff168173ffffffffffffffffffffffffffffffffffffffff16141561104d576040517f08c379a000000000000000000000000000000000000000000000000000000000815260040161104490614b42565b60405180910390fd5b80915050919050565b60008073ffffffffffffffffffffffffffffffffffffffff168273ffffffffffffffffffffffffffffffffffffffff1614156110c7576040517f08c379a00000000000000000000000000000000000000000000000000000000081526004016110be90614ae2565b60405180910390fd5b61110e600560008473ffffffffffffffffffffffffffffffffffffffff1673ffffffffffffffffffffffffffffffffffffffff168152602001908152602001600020612133565b9050919050565b606080600760008673ffffffffffffffffffffffffffffffffffffffff1673ffffffffffffffffffffffffffffffffffffffff16815260200190815260200160002084846040516111679291906147e5565b9081526020016040518091039020805480602002602001604051908101604052809291908181526020016000905b828210156111cd5783829060005260206000200160405180602001604052908160008201548152505081526020019060010190611195565b505050509050606081516040519080825280602002602001820160405280156112055781602001602082028038833980820191505090505b50905060008090505b82518110156112545782818151811061122357fe5b60200260200101516000015182828151811061123b57fe5b602002602001018181525050808060010191505061120e565b5080925050509392505050565b600260009054906101000a900473ffffffffffffffffffffffffffffffffffffffff1681565b600160009054906101000a900473ffffffffffffffffffffffffffffffffffffffff1673ffffffffffffffffffffffffffffffffffffffff166112c861212b565b73ffffffffffffffffffffffffffffffffffffffff161461131e576040517f08c379a000000000000000000000000000000000000000000000000000000000815260040161131590614c22565b60405180910390fd5b600c60009054906101000a900460ff161561133857600080fd5b6001600c60006101000a81548160ff021916908315150217905550565b6060600061136283611056565b905060008114156113a657600060405190808252806020026020018201604052801561139d5781602001602082028038833980820191505090505b50915050611498565b6060816040519080825280602002602001820160405280156113d75781602001602082028038833980820191505090505b50905060006113e461099b565b905060008090506000600190505b82811161148f578673ffffffffffffffffffffffffffffffffffffffff166004600083815260200190815260200160002060009054906101000a900473ffffffffffffffffffffffffffffffffffffffff1673ffffffffffffffffffffffffffffffffffffffff161415611482578084838151811061146d57fe5b60200260200101818152505081806001019250505b80806001019150506113f2565b83955050505050505b919050565b600160009054906101000a900473ffffffffffffffffffffffffffffffffffffffff1681565b6114d36114ce61212b565b610ba5565b611512576040517f08c379a000000000000000000000000000000000000000000000000000000000815260040161150990614c82565b60405180910390fd5b600c60009054906101000a900460ff161561152c57600080fd5b61153461212b565b73ffffffffffffffffffffffffffffffffffffffff168273ffffffffffffffffffffffffffffffffffffffff1614156115a2576040517f08c379a000000000000000000000000000000000000000000000000000000000815260040161159990614a22565b60405180910390fd5b80600b60006115af61212b565b73ffffffffffffffffffffffffffffffffffffffff1673ffffffffffffffffffffffffffffffffffffffff16815260200190815260200160002060008473ffffffffffffffffffffffffffffffffffffffff1673ffffffffffffffffffffffffffffffffffffffff16815260200190815260200160002060006101000a81548160ff0219169083151502179055508173ffffffffffffffffffffffffffffffffffffffff1661165c61212b565b73ffffffffffffffffffffffffffffffffffffffff167f17307eab39ab6107e8899845ad3d59bd9653f200f220920489ca2b5937696c31836040516116a1919061494a565b60405180910390a35050565b606080600860008473ffffffffffffffffffffffffffffffffffffffff1673ffffffffffffffffffffffffffffffffffffffff168152602001908152602001600020805480602002602001604051908101604052809291908181526020016000905b828210156117df57838290600052602060002001604051806020016040529081600082018054600181600116156101000203166002900480601f0160208091040260200160405190810160405280929190818152602001828054600181600116156101000203166002900480156117c75780601f1061179c576101008083540402835291602001916117c7565b820191906000526020600020905b8154815290600101906020018083116117aa57829003601f168201915b5050505050815250508152602001906001019061170f565b5050505090506060815160405190808252806020026020018201604052801561181c57816020015b60608152602001906001900390816118075790505b50905060008090505b825181101561186a5782818151811061183a57fe5b60200260200101516000015182828151811061185257fe5b60200260200101819052508080600101915050611825565b508092505050919050565b600061188082610ba5565b9050919050565b600061189961189461212b565b611875565b6118d8576040517f08c379a00000000000000000000000000000000000000000000000000000000081526004016118cf906149c2565b60405180910390fd5b600c60009054906101000a900460ff16156118f257600080fd5b6118fd86858561244e565b61193c576040517f08c379a000000000000000000000000000000000000000000000000000000000815260040161193390614aa2565b60405180910390fd5b600061194e61194961212b565b6129cc565b905061195e8188888888886125be565b8091505095945050505050565b600c60009054906101000a900460ff161561198557600080fd5b61198e84610ba5565b6119cd576040517f08c379a00000000000000000000000000000000000000000000000000000000081526004016119c490614a62565b60405180910390fd5b6119d683610ba5565b611a15576040517f08c379a0000000000000000000000000000000000000000000000000000000008152600401611a0c90614a62565b60405180910390fd5b611a26611a2061212b565b83612141565b611a65576040517f08c379a0000000000000000000000000000000000000000000000000000000008152600401611a5c90614bc2565b60405180910390fd5b611a7184848484612b53565b50505050565b600160009054906101000a900473ffffffffffffffffffffffffffffffffffffffff1673ffffffffffffffffffffffffffffffffffffffff16611ab861212b565b73ffffffffffffffffffffffffffffffffffffffff1614611b0e576040517f08c379a0000000000000000000000000000000000000000000000000000000008152600401611b0590614c22565b60405180910390fd5b80600260006101000a81548173ffffffffffffffffffffffffffffffffffffffff021916908373ffffffffffffffffffffffffffffffffffffffff16021790555050565b6060611b5d826120b9565b611b9c576040517f08c379a0000000000000000000000000000000000000000000000000000000008152600401611b9390614c62565b60405180910390fd5b600960008381526020019081526020016000208054600181600116156101000203166002900480601f016020809104026020016040519081016040528092919081815260200182805460018160011615610100020316600290048015611c435780601f10611c1857610100808354040283529160200191611c43565b820191906000526020600020905b815481529060010190602001808311611c2657829003601f168201915b50505050509050919050565b6000611c61611c5c61212b565b611875565b611ca0576040517f08c379a0000000000000000000000000000000000000000000000000000000008152600401611c97906149c2565b60405180910390fd5b600c60009054906101000a900460ff1615611cba57600080fd5b611cc586858561244e565b611d04576040517f08c379a0000000000000000000000000000000000000000000000000000000008152600401611cfb90614aa2565b60405180910390fd5b6000611d16611d1161212b565b612597565b9050611d268188888888886125be565b8091505095945050505050565b60006060600080600080611d46876120b9565b611d85576040517f08c379a0000000000000000000000000000000000000000000000000000000008152600401611d7c90614a82565b60405180910390fd5b6006600088815260200190815260200160002060000160009054906101000a900473ffffffffffffffffffffffffffffffffffffffff1660066000898152602001908152602001600020600101600660008a815260200190815260200160002060020154600660008b815260200190815260200160002060030160009054906101000a900465ffffffffffff16600660008c815260200190815260200160002060030160069054906101000a900465ffffffffffff16600660008d8152602001908152602001600020600301600c9054906101000a900465ffffffffffff16848054600181600116156101000203166002900480601f016020809104026020016040519081016040528092919081815260200182805460018160011615610100020316600290048015611ef95780601f10611ece57610100808354040283529160200191611ef9565b820191906000526020600020905b815481529060010190602001808311611edc57829003601f168201915b5050505050945095509550955095509550955091939550919395565b6000600b60008473ffffffffffffffffffffffffffffffffffffffff1673ffffffffffffffffffffffffffffffffffffffff16815260200190815260200160002060008373ffffffffffffffffffffffffffffffffffffffff1673ffffffffffffffffffffffffffffffffffffffff16815260200190815260200160002060009054906101000a900460ff16905092915050565b600160009054906101000a900473ffffffffffffffffffffffffffffffffffffffff1673ffffffffffffffffffffffffffffffffffffffff16611fea61212b565b73ffffffffffffffffffffffffffffffffffffffff1614612040576040517f08c379a000000000000000000000000000000000000000000000000000000000815260040161203790614c22565b60405180910390fd5b600073ffffffffffffffffffffffffffffffffffffffff168173ffffffffffffffffffffffffffffffffffffffff16146120b65780600160006101000a81548173ffffffffffffffffffffffffffffffffffffffff021916908373ffffffffffffffffffffffffffffffffffffffff1602179055505b50565b6000806004600084815260200190815260200160002060009054906101000a900473ffffffffffffffffffffffffffffffffffffffff169050600073ffffffffffffffffffffffffffffffffffffffff168173ffffffffffffffffffffffffffffffffffffffff161415915050919050565b600033905090565b600081600001549050919050565b600061214c826120b9565b61218b576040517f08c379a000000000000000000000000000000000000000000000000000000000815260040161218290614a42565b60405180910390fd5b600061219683610fa4565b90508073ffffffffffffffffffffffffffffffffffffffff168473ffffffffffffffffffffffffffffffffffffffff16148061220557508373ffffffffffffffffffffffffffffffffffffffff166121ed846106f2565b73ffffffffffffffffffffffffffffffffffffffff16145b8061221657506122158185611f15565b5b91505092915050565b8273ffffffffffffffffffffffffffffffffffffffff1661223f82610fa4565b73ffffffffffffffffffffffffffffffffffffffff1614612295576040517f08c379a000000000000000000000000000000000000000000000000000000000815260040161228c90614b82565b60405180910390fd5b600073ffffffffffffffffffffffffffffffffffffffff168273ffffffffffffffffffffffffffffffffffffffff161415612305576040517f08c379a00000000000000000000000000000000000000000000000000000000081526004016122fc90614a02565b60405180910390fd5b61230e81612baf565b612355600560008573ffffffffffffffffffffffffffffffffffffffff1673ffffffffffffffffffffffffffffffffffffffff168152602001908152602001600020612c6d565b61239c600560008473ffffffffffffffffffffffffffffffffffffffff1673ffffffffffffffffffffffffffffffffffffffff168152602001908152602001600020612c90565b816004600083815260200190815260200160002060006101000a81548173ffffffffffffffffffffffffffffffffffffffff021916908373ffffffffffffffffffffffffffffffffffffffff160217905550808273ffffffffffffffffffffffffffffffffffffffff168473ffffffffffffffffffffffffffffffffffffffff167fddf252ad1be2c89b69c2b068fc378daa952ba7f163c4a11628f55a4df523b3ef60405160405180910390a4505050565b6000600260009054906101000a900473ffffffffffffffffffffffffffffffffffffffff1673ffffffffffffffffffffffffffffffffffffffff166347ba747a856040518263ffffffff1660e01b81526004016124ab9190614980565b60206040518083038186803b1580156124c357600080fd5b505afa1580156124d7573d6000803e3d6000fd5b505050506040513d601f19601f820116820180604052506124fb9190810190613980565b61253a576040517f08c379a000000000000000000000000000000000000000000000000000000000815260040161253190614ac2565b60405180910390fd5b8265ffffffffffff168265ffffffffffff161161258c576040517f08c379a0000000000000000000000000000000000000000000000000000000008152600401612583906149e2565b60405180910390fd5b600190509392505050565b6000806125b38360405180602001604052806000815250612968565b905080915050919050565b6125c7866120b9565b612606576040517f08c379a00000000000000000000000000000000000000000000000000000000081526004016125fd90614c02565b60405180910390fd5b61260e613413565b6040518060c0016040528061262161212b565b73ffffffffffffffffffffffffffffffffffffffff1681526020018781526020018681526020018565ffffffffffff1681526020018465ffffffffffff1681526020018365ffffffffffff168152509050806006600089815260200190815260200160002060008201518160000160006101000a81548173ffffffffffffffffffffffffffffffffffffffff021916908373ffffffffffffffffffffffffffffffffffffffff16021790555060208201518160010190805190602001906126e992919061347a565b506040820151816002015560608201518160030160006101000a81548165ffffffffffff021916908365ffffffffffff16021790555060808201518160030160066101000a81548165ffffffffffff021916908365ffffffffffff16021790555060a082015181600301600c6101000a81548165ffffffffffff021916908365ffffffffffff16021790555090505061278186612ca6565b612822576008600061279161212b565b73ffffffffffffffffffffffffffffffffffffffff1673ffffffffffffffffffffffffffffffffffffffff168152602001908152602001600020604051806020016040528088815250908060018154018082558091505090600182039060005260206000200160009091929091909150600082015181600001908051906020019061281d92919061347a565b505050505b61282c8686612e36565b6128d6576007600061283c61212b565b73ffffffffffffffffffffffffffffffffffffffff1673ffffffffffffffffffffffffffffffffffffffff1681526020019081526020016000208660405161288491906147fe565b9081526020016040518091039020604051806020016040528087815250908060018154018082558091505090600182039060005260206000200160009091929091909150600082015181600001555050505b50505050505050565b6128e8826120b9565b612927576040517f08c379a000000000000000000000000000000000000000000000000000000000815260040161291e90614c02565b60405180910390fd5b8060096000848152602001908152602001600020908051906020019061294e9291906134fa565b505050565b61296561295f82610fa4565b82612f44565b50565b600080612974846129cc565b905061298360008583866131ac565b6129c2576040517f08c379a00000000000000000000000000000000000000000000000000000000081526004016129b9906149a2565b60405180910390fd5b8091505092915050565b60008073ffffffffffffffffffffffffffffffffffffffff168273ffffffffffffffffffffffffffffffffffffffff161415612a3d576040517f08c379a0000000000000000000000000000000000000000000000000000000008152600401612a3490614b22565b60405180910390fd5b612a476003612c90565b6000612a536003612133565b9050826004600083815260200190815260200160002060006101000a81548173ffffffffffffffffffffffffffffffffffffffff021916908373ffffffffffffffffffffffffffffffffffffffff160217905550612aee600560008573ffffffffffffffffffffffffffffffffffffffff1673ffffffffffffffffffffffffffffffffffffffff168152602001908152602001600020612c90565b808373ffffffffffffffffffffffffffffffffffffffff16600073ffffffffffffffffffffffffffffffffffffffff167fddf252ad1be2c89b69c2b068fc378daa952ba7f163c4a11628f55a4df523b3ef60405160405180910390a480915050919050565b612b5e84848461221f565b612b6a848484846131ac565b612ba9576040517f08c379a0000000000000000000000000000000000000000000000000000000008152600401612ba0906149a2565b60405180910390fd5b50505050565b600073ffffffffffffffffffffffffffffffffffffffff16600a600083815260200190815260200160002060009054906101000a900473ffffffffffffffffffffffffffffffffffffffff1673ffffffffffffffffffffffffffffffffffffffff1614612c6a576000600a600083815260200190815260200160002060006101000a81548173ffffffffffffffffffffffffffffffffffffffff021916908373ffffffffffffffffffffffffffffffffffffffff1602179055505b50565b612c85600182600001546132ca90919063ffffffff16565b816000018190555050565b6001816000016000828254019250508190555050565b60006060600860003373ffffffffffffffffffffffffffffffffffffffff1673ffffffffffffffffffffffffffffffffffffffff168152602001908152602001600020805480602002602001604051908101604052809291908181526020016000905b82821015612dd957838290600052602060002001604051806020016040529081600082018054600181600116156101000203166002900480601f016020809104026020016040519081016040528092919081815260200182805460018160011615610100020316600290048015612dc15780601f10612d9657610100808354040283529160200191612dc1565b820191906000526020600020905b815481529060010190602001808311612da457829003601f168201915b50505050508152505081526020019060010190612d09565b505050509050600080905060008090505b8251811015612e2b57612e1485848381518110612e0357fe5b602002602001015160000151613314565b15612e1e57600191505b8080600101915050612dea565b508092505050919050565b60006060600760003373ffffffffffffffffffffffffffffffffffffffff1673ffffffffffffffffffffffffffffffffffffffff16815260200190815260200160002084604051612e8791906147fe565b9081526020016040518091039020805480602002602001604051908101604052809291908181526020016000905b82821015612eed5783829060005260206000200160405180602001604052908160008201548152505081526020019060010190612eb5565b505050509050600080905060008090505b8251811015612f3857828181518110612f1357fe5b602002602001015160000151851415612f2b57600191505b8080600101915050612efe565b50809250505092915050565b8173ffffffffffffffffffffffffffffffffffffffff16612f6482610fa4565b73ffffffffffffffffffffffffffffffffffffffff1614612fba576040517f08c379a0000000000000000000000000000000000000000000000000000000008152600401612fb190614be2565b60405180910390fd5b612fc381612baf565b61300a600560008473ffffffffffffffffffffffffffffffffffffffff1673ffffffffffffffffffffffffffffffffffffffff168152602001908152602001600020612c6d565b60006004600083815260200190815260200160002060006101000a81548173ffffffffffffffffffffffffffffffffffffffff021916908373ffffffffffffffffffffffffffffffffffffffff160217905550600060096000838152602001908152602001600020805460018160011615610100020316600290049050146130ac576009600082815260200190815260200160002060006130ab919061357a565b5b60066000828152602001908152602001600020600080820160006101000a81549073ffffffffffffffffffffffffffffffffffffffff02191690556001820160006130f7919061357a565b60028201600090556003820160006101000a81549065ffffffffffff02191690556003820160066101000a81549065ffffffffffff021916905560038201600c6101000a81549065ffffffffffff0219169055505080600073ffffffffffffffffffffffffffffffffffffffff168373ffffffffffffffffffffffffffffffffffffffff167fddf252ad1be2c89b69c2b068fc378daa952ba7f163c4a11628f55a4df523b3ef60405160405180910390a45050565b60006131cd8473ffffffffffffffffffffffffffffffffffffffff1661336d565b6131da57600190506132c2565b60008473ffffffffffffffffffffffffffffffffffffffff1663150b7a0261320061212b565b8887876040518563ffffffff1660e01b81526004016132229493929190614830565b602060405180830381600087803b15801561323c57600080fd5b505af1158015613250573d6000803e3d6000fd5b505050506040513d601f19601f8201168201806040525061327491908101906139d2565b905063150b7a0260e01b7bffffffffffffffffffffffffffffffffffffffffffffffffffffffff1916817bffffffffffffffffffffffffffffffffffffffffffffffffffffffff1916149150505b949350505050565b600061330c83836040518060400160405280601e81526020017f536166654d6174683a207375627472616374696f6e206f766572666c6f7700008152506133b8565b905092915050565b60008160405160200161332791906147fe565b604051602081830303815290604052805190602001208360405160200161334e91906147fe565b6040516020818303038152906040528051906020012014905092915050565b60008060007fc5d2460186f7233c927e7db2dcc703c0e500b653ca82273b7bfad8045d85a47060001b9050833f91506000801b82141580156133af5750808214155b92505050919050565b6000838311158290613400576040517f08c379a00000000000000000000000000000000000000000000000000000000081526004016133f79190614980565b60405180910390fd5b5060008385039050809150509392505050565b6040518060c00160405280600073ffffffffffffffffffffffffffffffffffffffff1681526020016060815260200160008019168152602001600065ffffffffffff168152602001600065ffffffffffff168152602001600065ffffffffffff1681525090565b828054600181600116156101000203166002900490600052602060002090601f016020900481019282601f106134bb57805160ff19168380011785556134e9565b828001600101855582156134e9579182015b828111156134e85782518255916020019190600101906134cd565b5b5090506134f691906135c2565b5090565b828054600181600116156101000203166002900490600052602060002090601f016020900481019282601f1061353b57805160ff1916838001178555613569565b82800160010185558215613569579182015b8281111561356857825182559160200191906001019061354d565b5b50905061357691906135c2565b5090565b50805460018160011615610100020316600290046000825580601f106135a057506135bf565b601f0160209004906000526020600020908101906135be91906135c2565b5b50565b6135e491905b808211156135e05760008160009055506001016135c8565b5090565b90565b6000813590506135f681614f53565b92915050565b60008135905061360b81614f6a565b92915050565b60008151905061362081614f6a565b92915050565b60008135905061363581614f81565b92915050565b60008135905061364a81614f98565b92915050565b60008151905061365f81614f98565b92915050565b600082601f83011261367657600080fd5b813561368961368482614cea565b614cbd565b915080825260208301602083018583830111156136a557600080fd5b6136b0838284614f00565b50505092915050565b60008083601f8401126136cb57600080fd5b8235905067ffffffffffffffff8111156136e457600080fd5b6020830191508360018202830111156136fc57600080fd5b9250929050565b600082601f83011261371457600080fd5b813561372761372282614d16565b614cbd565b9150808252602083016020830185838301111561374357600080fd5b61374e838284614f00565b50505092915050565b60008135905061376681614faf565b92915050565b60008135905061377b81614fc6565b92915050565b60006020828403121561379357600080fd5b60006137a1848285016135e7565b91505092915050565b600080604083850312156137bd57600080fd5b60006137cb858286016135e7565b92505060206137dc858286016135e7565b9150509250929050565b6000806000606084860312156137fb57600080fd5b6000613809868287016135e7565b935050602061381a868287016135e7565b925050604061382b86828701613757565b9150509250925092565b6000806000806080858703121561384b57600080fd5b6000613859878288016135e7565b945050602061386a878288016135e7565b935050604061387b87828801613757565b925050606085013567ffffffffffffffff81111561389857600080fd5b6138a487828801613665565b91505092959194509250565b600080604083850312156138c357600080fd5b60006138d1858286016135e7565b92505060206138e2858286016135fc565b9150509250929050565b60008060006040848603121561390157600080fd5b600061390f868287016135e7565b935050602084013567ffffffffffffffff81111561392c57600080fd5b613938868287016136b9565b92509250509250925092565b6000806040838503121561395757600080fd5b6000613965858286016135e7565b925050602061397685828601613757565b9150509250929050565b60006020828403121561399257600080fd5b60006139a084828501613611565b91505092915050565b6000602082840312156139bb57600080fd5b60006139c98482850161363b565b91505092915050565b6000602082840312156139e457600080fd5b60006139f284828501613650565b91505092915050565b600080600080600060a08688031215613a1357600080fd5b600086013567ffffffffffffffff811115613a2d57600080fd5b613a3988828901613703565b9550506020613a4a88828901613626565b9450506040613a5b8882890161376c565b9350506060613a6c8882890161376c565b9250506080613a7d8882890161376c565b9150509295509295909350565b60008060008060008060c08789031215613aa357600080fd5b600087013567ffffffffffffffff811115613abd57600080fd5b613ac989828a01613703565b9650506020613ada89828a01613626565b9550506040613aeb89828a0161376c565b9450506060613afc89828a0161376c565b9350506080613b0d89828a0161376c565b92505060a087013567ffffffffffffffff811115613b2a57600080fd5b613b3689828a01613665565b9150509295509295509295565b60008060008060008060c08789031215613b5c57600080fd5b600087013567ffffffffffffffff811115613b7657600080fd5b613b8289828a01613703565b9650506020613b9389828a01613626565b9550506040613ba489828a0161376c565b9450506060613bb589828a0161376c565b9350506080613bc689828a0161376c565b92505060a087013567ffffffffffffffff811115613be357600080fd5b613bef89828a01613703565b9150509295509295509295565b600060208284031215613c0e57600080fd5b6000613c1c84828501613757565b91505092915050565b6000613c318383613db8565b60208301905092915050565b6000613c498383613ead565b905092915050565b6000613c5d83836147b8565b60208301905092915050565b613c7281614e4c565b82525050565b6000613c8382614d72565b613c8d8185614ddb565b9350613c9883614d42565b8060005b83811015613cc9578151613cb08882613c25565b9750613cbb83614db4565b925050600181019050613c9c565b5085935050505092915050565b6000613ce182614d7d565b613ceb8185614dec565b935083602082028501613cfd85614d52565b8060005b85811015613d395784840389528151613d1a8582613c3d565b9450613d2583614dc1565b925060208a01995050600181019050613d01565b50829750879550505050505092915050565b6000613d5682614d88565b613d608185614dfd565b9350613d6b83614d62565b8060005b83811015613d9c578151613d838882613c51565b9750613d8e83614dce565b925050600181019050613d6f565b5085935050505092915050565b613db281614e5e565b82525050565b613dc181614e6a565b82525050565b613dd081614e6a565b82525050565b6000613de182614d93565b613deb8185614e0e565b9350613dfb818560208601614f0f565b613e0481614f42565b840191505092915050565b613e1881614edc565b82525050565b6000613e2a8385614e41565b9350613e37838584614f00565b82840190509392505050565b6000613e4e82614da9565b613e588185614e30565b9350613e68818560208601614f0f565b613e7181614f42565b840191505092915050565b6000613e8782614da9565b613e918185614e41565b9350613ea1818560208601614f0f565b80840191505092915050565b6000613eb882614d9e565b613ec28185614e1f565b9350613ed2818560208601614f0f565b613edb81614f42565b840191505092915050565b6000613ef3603283614e30565b91507f4552433732313a207472616e7366657220746f206e6f6e20455243373231526560008301527f63656976657220696d706c656d656e74657200000000000000000000000000006020830152604082019050919050565b6000613f59603583614e30565b91507f4552433732313a2063616c6c6572206973206e6f742077686974656c6973746560008301527f6420666f7220746865204d696e74657220726f6c6500000000000000000000006020830152604082019050919050565b6000613fbf602a83614e30565b91507f4552433732313a2073746172742074696d65206d757374206265206265666f7260008301527f6520656e642074696d65000000000000000000000000000000000000000000006020830152604082019050919050565b6000614025602483614e30565b91507f4552433732313a207472616e7366657220746f20746865207a65726f2061646460008301527f72657373000000000000000000000000000000000000000000000000000000006020830152604082019050919050565b600061408b601983614e30565b91507f4552433732313a20617070726f766520746f2063616c6c6572000000000000006000830152602082019050919050565b60006140cb602c83614e30565b91507f4552433732313a206f70657261746f7220717565727920666f72206e6f6e657860008301527f697374656e7420746f6b656e00000000000000000000000000000000000000006020830152604082019050919050565b6000614131603483614e30565b91507f4552433732313a207472616e73666572207265737472696374656420746f207760008301527f686974656c6973746564206164647265737365730000000000000000000000006020830152604082019050919050565b6000614197603083614e30565b91507f4552433732313a2054696d6520736c6f7420717565727920666f72206e6f6e6560008301527f78697374656e7420746f6b656e206964000000000000000000000000000000006020830152604082019050919050565b60006141fd601983614e30565b91507f4552433732313a20696e76616c69642074696d6520736c6f74000000000000006000830152602082019050919050565b600061423d602e83614e30565b91507f4552433732313a20636f6e74656e74206964206973206e6f742072656769737460008301527f6572656420746f2063616c6c65720000000000000000000000000000000000006020830152604082019050919050565b60006142a3602a83614e30565b91507f4552433732313a2062616c616e636520717565727920666f7220746865207a6560008301527f726f2061646472657373000000000000000000000000000000000000000000006020830152604082019050919050565b6000614309603e83614e30565b91507f4552433732313a20617070726f76652063616c6c6572206973206e6f7420746f60008301527f6b656e206f776e6572206e6f7220617070726f76656420666f7220616c6c00006020830152604082019050919050565b600061436f602083614e30565b91507f4552433732313a206d696e7420746f20746865207a65726f20616464726573736000830152602082019050919050565b60006143af602f83614e30565b91507f4552433732313a20746f6b656e206f776e657220717565727920666f72206e6f60008301527f6e6578697374656e7420746f6b656e00000000000000000000000000000000006020830152604082019050919050565b6000614415602c83614e30565b91507f4552433732313a20617070726f76656420717565727920666f72206e6f6e657860008301527f697374656e7420746f6b656e00000000000000000000000000000000000000006020830152604082019050919050565b600061447b602983614e30565b91507f4552433732313a207472616e73666572206f6620746f6b656e2074686174206960008301527f73206e6f74206f776e00000000000000000000000000000000000000000000006020830152604082019050919050565b60006144e1601d83614e30565b91507f4552433732313a20617070726f76616c20697320726564756e64616e740000006000830152602082019050919050565b6000614521603183614e30565b91507f4552433732313a207472616e736665722063616c6c6572206973206e6f74206f60008301527f776e6572206e6f7220617070726f7665640000000000000000000000000000006020830152604082019050919050565b6000614587602583614e30565b91507f4552433732313a206275726e206f6620746f6b656e2074686174206973206e6f60008301527f74206f776e0000000000000000000000000000000000000000000000000000006020830152604082019050919050565b60006145ed602483614e30565b91507f4552433732313a2055524920736574206f66206e6f6e6578697374656e74207460008301527f6f6b656e000000000000000000000000000000000000000000000000000000006020830152604082019050919050565b6000614653601b83614e30565b91507f4552433732313a2063616c6c6572206973206e6f74206f776e657200000000006000830152602082019050919050565b6000614693602e83614e30565b91507f4552433732313a2063616c6c6572206973206e6f7420746f6b656e206f776e6560008301527f72206e6f7220617070726f7665640000000000000000000000000000000000006020830152604082019050919050565b60006146f9602783614e30565b91507f4552433732313a2055524920717565727920666f72206e6f6e6578697374656e60008301527f7420746f6b656e000000000000000000000000000000000000000000000000006020830152604082019050919050565b600061475f602183614e30565b91507f4552433732313a2063616c6c6572206973206e6f742077686974656c6973746560008301527f64000000000000000000000000000000000000000000000000000000000000006020830152604082019050919050565b6147c181614ec0565b82525050565b6147d081614ec0565b82525050565b6147df81614eca565b82525050565b60006147f2828486613e1e565b91508190509392505050565b600061480a8284613e7c565b915081905092915050565b600060208201905061482a6000830184613c69565b92915050565b60006080820190506148456000830187613c69565b6148526020830186613c69565b61485f60408301856147c7565b81810360608301526148718184613dd6565b905095945050505050565b600060c0820190506148916000830189613c69565b81810360208301526148a38188613e43565b90506148b26040830187613dc7565b6148bf60608301866147d6565b6148cc60808301856147d6565b6148d960a08301846147d6565b979650505050505050565b600060208201905081810360008301526148fe8184613c78565b905092915050565b600060208201905081810360008301526149208184613cd6565b905092915050565b600060208201905081810360008301526149428184613d4b565b905092915050565b600060208201905061495f6000830184613da9565b92915050565b600060208201905061497a6000830184613e0f565b92915050565b6000602082019050818103600083015261499a8184613e43565b905092915050565b600060208201905081810360008301526149bb81613ee6565b9050919050565b600060208201905081810360008301526149db81613f4c565b9050919050565b600060208201905081810360008301526149fb81613fb2565b9050919050565b60006020820190508181036000830152614a1b81614018565b9050919050565b60006020820190508181036000830152614a3b8161407e565b9050919050565b60006020820190508181036000830152614a5b816140be565b9050919050565b60006020820190508181036000830152614a7b81614124565b9050919050565b60006020820190508181036000830152614a9b8161418a565b9050919050565b60006020820190508181036000830152614abb816141f0565b9050919050565b60006020820190508181036000830152614adb81614230565b9050919050565b60006020820190508181036000830152614afb81614296565b9050919050565b60006020820190508181036000830152614b1b816142fc565b9050919050565b60006020820190508181036000830152614b3b81614362565b9050919050565b60006020820190508181036000830152614b5b816143a2565b9050919050565b60006020820190508181036000830152614b7b81614408565b9050919050565b60006020820190508181036000830152614b9b8161446e565b9050919050565b60006020820190508181036000830152614bbb816144d4565b9050919050565b60006020820190508181036000830152614bdb81614514565b9050919050565b60006020820190508181036000830152614bfb8161457a565b9050919050565b60006020820190508181036000830152614c1b816145e0565b9050919050565b60006020820190508181036000830152614c3b81614646565b9050919050565b60006020820190508181036000830152614c5b81614686565b9050919050565b60006020820190508181036000830152614c7b816146ec565b9050919050565b60006020820190508181036000830152614c9b81614752565b9050919050565b6000602082019050614cb760008301846147c7565b92915050565b6000604051905081810181811067ffffffffffffffff82111715614ce057600080fd5b8060405250919050565b600067ffffffffffffffff821115614d0157600080fd5b601f19601f8301169050602081019050919050565b600067ffffffffffffffff821115614d2d57600080fd5b601f19601f8301169050602081019050919050565b6000819050602082019050919050565b6000819050602082019050919050565b6000819050602082019050919050565b600081519050919050565b600081519050919050565b600081519050919050565b600081519050919050565b600081519050919050565b600081519050919050565b6000602082019050919050565b6000602082019050919050565b6000602082019050919050565b600082825260208201905092915050565b600082825260208201905092915050565b600082825260208201905092915050565b600082825260208201905092915050565b600082825260208201905092915050565b600082825260208201905092915050565b600081905092915050565b6000614e5782614ea0565b9050919050565b60008115159050919050565b6000819050919050565b60007fffffffff0000000000000000000000000000000000000000000000000000000082169050919050565b600073ffffffffffffffffffffffffffffffffffffffff82169050919050565b6000819050919050565b600065ffffffffffff82169050919050565b6000614ee782614eee565b9050919050565b6000614ef982614ea0565b9050919050565b82818337600083830152505050565b60005b83811015614f2d578082015181840152602081019050614f12565b83811115614f3c576000848401525b50505050565b6000601f19601f8301169050919050565b614f5c81614e4c565b8114614f6757600080fd5b50565b614f7381614e5e565b8114614f7e57600080fd5b50565b614f8a81614e6a565b8114614f9557600080fd5b50565b614fa181614e74565b8114614fac57600080fd5b50565b614fb881614ec0565b8114614fc357600080fd5b50565b614fcf81614eca565b8114614fda57600080fd5b5056fea365627a7a72315820052767885b2b2c7875dc764d92485aa3349eadfc5ab3f2457fc5418e45b107136c6578706572696d656e74616cf564736f6c634300050b0040",
  "source": "pragma solidity ^0.5.11;\npragma experimental ABIEncoderV2;\n\n/**\n * Customized for Microsponsors from:\n * https://github.com/OpenZeppelin/openzeppelin-contracts/blob/master/contracts/token/ERC721/ERC721MetadataMintable.sol\n **/\n\nimport \"./IERC721.sol\";\nimport \"./IERC721Receiver.sol\";\nimport \"./SafeMath.sol\";\nimport \"./Address.sol\";\nimport \"./Counters.sol\";\nimport \"./ERC165.sol\";\n\n\n// Copy of Deployed Registry contract ABI\n// We just use the signatures of the parts we need to interact with:\ncontract DeployedRegistry {\n    mapping (address => bool) public isWhitelisted;\n    function isContentIdRegisteredToCaller(string calldata contentId) external view returns(bool);\n}\n\n\n/**\n * @title ERC721 Non-Fungible Token Standard basic implementation\n * @dev see https://eips.ethereum.org/EIPS/eip-721\n */\ncontract ERC721 is ERC165, IERC721 {\n    using SafeMath for uint256;\n    using Address for address;\n    using Counters for Counters.Counter;\n\n\n    /***  Contract data  ***/\n\n    // This contract's owner (administator)\n    address public owner;\n\n    // Microsponsors Registry (whitelist)\n    DeployedRegistry public registry;\n\n    // Equals to `bytes4(keccak256(\"onERC721Received(address,address,uint256,bytes)\"))`\n    // which can be also obtained as `IERC721Receiver(0).onERC721Received.selector`\n    bytes4 private constant _ERC721_RECEIVED = 0x150b7a02;\n\n    // All token ids minted, incremented starting at 1\n    Counters.Counter _tokenIds;\n\n    // Mapping from Token ID to Token Owner\n    mapping (uint256 => address) private _tokenOwner;\n\n    // Mapping from Token Owner to # of owned tokens\n    mapping (address => Counters.Counter) private _ownedTokensCount;\n\n    // A Token's TimeSlot metadata\n    // Timeslots are uint48 - https://medium.com/@novablitz/storing-structs-is-costing-you-gas-774da988895e\n    struct TimeSlot {\n        address minter; // the address of the user who mint()'ed this time slot\n        string contentId; // the users' registered contentId containing the Property\n        bytes32 propertyName; // describes the Property within the contentId that is tokenized into time slots\n        uint48 startTime; // min timestamp (when time slot begins)\n        uint48 endTime; // max timestamp (when time slot ends)\n        uint48 auctionEndTime; // max timestamp (when auction for time slot ends)\n    }\n\n    // Mapping from Token ID to TimeSlot struct\n    mapping(uint256 => TimeSlot) private _tokenToTimeSlot;\n\n    // Mapping from Token Minter => string ContentId => array of Property Names\n    // Used to display all tokenized time slots on a property.\n    // Using struct because there is no mapping to a dynamic array of bytes32 in Solidity at this time.\n    struct PropertyNameStruct {\n        bytes32 propertyName;\n    }\n    mapping(address => mapping(string => PropertyNameStruct[])) private _tokenMinterToPropertyNames;\n\n    // Mapping from Token Minter to array of Content Ids\n    // We're not grabbing this from the Registry in case the user has private\n    // content ids they dont want exposed\n    struct ContentIdStruct {\n        string contentId;\n    }\n    mapping(address => ContentIdStruct[]) private _tokenMinterToContentIds;\n\n    // Mapping from Token ID to Token URIs\n    mapping(uint256 => string) private _tokenURIs;\n\n    // Mapping from Token ID to Approved Address\n    mapping (uint256 => address) private _tokenApprovals;\n\n    // Mapping from Token Owner to Operator Approvals\n    mapping (address => mapping (address => bool)) private _operatorApprovals;\n\n    // Pause. When true, token minting and transfers stop.\n    bool public paused = false;\n\n    /*\n     *     bytes4(keccak256('balanceOf(address)')) == 0x70a08231\n     *     bytes4(keccak256('ownerOf(uint256)')) == 0x6352211e\n     *     bytes4(keccak256('approve(address,uint256)')) == 0x095ea7b3\n     *     bytes4(keccak256('getApproved(uint256)')) == 0x081812fc\n     *     bytes4(keccak256('setApprovalForAll(address,bool)')) == 0xa22cb465\n     *     bytes4(keccak256('isApprovedForAll(address,address)')) == 0xe985e9c5\n     *     bytes4(keccak256('transferFrom(address,address,uint256)')) == 0x23b872dd\n     *     bytes4(keccak256('safeTransferFrom(address,address,uint256)')) == 0x42842e0e\n     *     bytes4(keccak256('safeTransferFrom(address,address,uint256,bytes)')) == 0xb88d4fde\n     *\n     *     => 0x70a08231 ^ 0x6352211e ^ 0x095ea7b3 ^ 0x081812fc ^\n     *        0xa22cb465 ^ 0xe985e9c ^ 0x23b872dd ^ 0x42842e0e ^ 0xb88d4fde == 0x80ac58cd\n     */\n    bytes4 private constant _INTERFACE_ID_ERC721 = 0x80ac58cd;\n\n\n    constructor () public {\n\n        // register the supported interfaces to conform to ERC721 via ERC165\n        _registerInterface(_INTERFACE_ID_ERC721);\n\n        // set the contract owner\n        owner = _msgSender();\n    }\n\n\n    /*\n     * @dev Provides information about the current execution context, including the\n     * sender of the transaction and its data. While these are generally available\n     * via msg.sender and msg.data, they not should not be accessed in such a direct\n     * manner, since when dealing with GSN meta-transactions the account sending and\n     * paying for execution may not be the actual sender (as far as an application\n     * is concerned).\n     */\n\n    function _msgSender() internal view returns (address) {\n\n        return msg.sender;\n\n    }\n\n    function _msgData() internal view returns (bytes memory) {\n\n        this; // silence state mutability warning without generating bytecode -\n              // see https://github.com/ethereum/solidity/issues/2691\n        return msg.data;\n\n    }\n\n\n    /***  Owner (Administrator) functions  ***/\n\n\n    /*\n     * @dev Sets the contract's owner (administrator)\n     * Based on 0x's Ownable, but modified here\n     * import \"@0x/contracts-utils/contracts/src/Ownable.sol\";\n     */\n    modifier onlyOwner() {\n        require(\n            _msgSender() == owner,\n            \"ERC721: caller is not owner\"\n        );\n        _;\n    }\n\n    function transferOwnership(address newOwner)\n        public\n        onlyOwner\n    {\n        if (newOwner != address(0)) {\n            owner = newOwner;\n        }\n    }\n\n    /**\n     * @dev Update address for Microsponsors Registry contract\n     * @param newAddress where the Registry contract lives\n     */\n    function updateRegistryAddress(address newAddress)\n        public\n        onlyOwner\n    {\n        registry = DeployedRegistry(newAddress);\n    }\n\n\n    /***  User account permissions  ***/\n\n\n    /**\n     * @dev Checks Registry contract for whitelisted status\n     * @param target The address to check\n     */\n    function isWhitelisted(address target) public view returns (bool) {\n        return registry.isWhitelisted(target);\n    }\n\n    /**\n     * @dev Checks if caller isWhitelisted(),\n     * throws with error message and refunds gas if not\n     */\n    modifier onlyWhitelisted() {\n\n        require(\n            isWhitelisted(_msgSender()),\n            \"ERC721: caller is not whitelisted\"\n        );\n        _;\n\n    }\n\n    /**\n     * @dev Checks if minter isWhitelisted()\n     */\n    function isMinter(address account) public view returns (bool) {\n        return isWhitelisted(account);\n    }\n\n    /**\n     * @dev Checks if caller isMinter(),\n     * throws with error message and refunds gas if not\n     */\n    modifier onlyMinter() {\n\n        require(\n            isMinter(_msgSender()),\n            \"ERC721: caller is not whitelisted for the Minter role\"\n        );\n        _;\n\n    }\n\n\n    /***  Minting tokens  ***/\n\n\n    /**\n     * @dev Function to mint tokens.\n     * @return tokenId\n     */\n    function mint(\n        string memory contentId,\n        bytes32 propertyName,\n        uint48 startTime,\n        uint48 endTime,\n        uint48 auctionEndTime\n    )\n        public\n        onlyMinter\n        whenNotPaused\n        returns (uint256)\n    {\n\n        require(\n            _isValidTimeSlot(contentId, startTime, endTime),\n            \"ERC721: invalid time slot\"\n        );\n\n        uint256 tokenId = _mint(_msgSender());\n        _setTokenTimeSlot(tokenId, contentId, propertyName, startTime, endTime, auctionEndTime);\n\n        return tokenId;\n\n    }\n\n    // solhint-disable\n    /**\n     * @dev Function to mint tokens.\n     * @param tokenURI The token URI of the minted token.\n     * @return tokenId\n     */\n    // solhint-enable\n    function mintWithTokenURI(\n        string memory contentId,\n        bytes32 propertyName,\n        uint48 startTime,\n        uint48 endTime,\n        uint48 auctionEndTime,\n        string memory tokenURI\n    )\n        public\n        onlyMinter\n        whenNotPaused\n        returns (uint256)\n    {\n\n        require(\n            _isValidTimeSlot(contentId, startTime, endTime),\n            \"ERC721: invalid time slot\"\n        );\n\n        uint256 tokenId = _mint(_msgSender());\n        _setTokenTimeSlot(tokenId, contentId, propertyName, startTime, endTime, auctionEndTime);\n        _setTokenURI(tokenId, tokenURI);\n\n        return tokenId;\n\n    }\n\n    /**\n     * @dev Function to safely mint tokens.\n     * @return tokenId\n     */\n    function safeMint(\n        string memory contentId,\n        bytes32 propertyName,\n        uint48 startTime,\n        uint48 endTime,\n        uint48 auctionEndTime\n    )\n        public\n        onlyMinter\n        whenNotPaused\n        returns (uint256)\n    {\n\n        require(\n            _isValidTimeSlot(contentId, startTime, endTime),\n            \"ERC721: invalid time slot\"\n        );\n\n        uint256 tokenId = _safeMint(_msgSender());\n        _setTokenTimeSlot(tokenId, contentId, propertyName, startTime, endTime, auctionEndTime);\n\n        return tokenId;\n\n    }\n\n    /**\n     * @dev Function to safely mint tokens.\n     * @param data bytes data to send along with a safe transfer check.\n     * @return tokenId\n     */\n    function safeMint(\n        string memory contentId,\n        bytes32 propertyName,\n        uint48 startTime,\n        uint48 endTime,\n        uint48 auctionEndTime,\n        bytes memory data\n    )\n        public\n        onlyMinter\n        whenNotPaused\n        returns (uint256)\n    {\n\n        require(\n            _isValidTimeSlot(contentId, startTime, endTime),\n            \"ERC721: invalid time slot\"\n        );\n\n        uint256 tokenId = _safeMint(_msgSender(), data);\n        _setTokenTimeSlot(tokenId, contentId, propertyName, startTime, endTime, auctionEndTime);\n\n        return tokenId;\n\n    }\n\n    // solhint-disable\n    /**\n     * Customized for Microsponsors from\n     * https://github.com/OpenZeppelin/openzeppelin-contracts/blob/master/contracts/token/ERC721/ERC721MetadataMintable.sol\n     *\n     * @dev Function to safely mint tokens.\n     * @param tokenURI The token URI of the minted token.\n     * @return tokenId\n     */\n    // solhint-enable\n    function safeMintWithTokenURI(\n        string memory contentId,\n        bytes32 propertyName,\n        uint48 startTime,\n        uint48 endTime,\n        uint48 auctionEndTime,\n        string memory tokenURI\n    )\n        public\n        onlyMinter\n        whenNotPaused\n        returns (uint256)\n    {\n\n        require(\n            _isValidTimeSlot(contentId, startTime, endTime),\n            \"ERC721: invalid time slot\"\n        );\n\n        uint256 tokenId = _safeMint(_msgSender());\n        _setTokenTimeSlot(tokenId, contentId, propertyName, startTime, endTime, auctionEndTime);\n        _setTokenURI(tokenId, tokenURI);\n\n        return tokenId;\n\n    }\n\n    /**\n     * @dev Internal function to safely mint a new token.\n     * Reverts if the given token ID already exists.\n     * If the target address is a contract, it must implement `onERC721Received`,\n     * which is called upon a safe transfer, and return the magic value\n     * `bytes4(keccak256(\"onERC721Received(address,address,uint256,bytes)\"))`; otherwise,\n     * the transfer is reverted.\n     * @param to The address that will own the minted token\n     * @return tokenId\n     */\n    function _safeMint(address to) internal returns (uint256) {\n\n        uint256 tokenId = _safeMint(to, \"\");\n        return tokenId;\n\n    }\n\n    /**\n     * @dev Internal function to safely mint a new token.\n     * Reverts if the given token ID already exists.\n     * If the target address is a contract, it must implement `onERC721Received`,\n     * which is called upon a safe transfer, and return the magic value\n     * `bytes4(keccak256(\"onERC721Received(address,address,uint256,bytes)\"))`; otherwise,\n     * the transfer is reverted.\n     * @param to The address that will own the minted token\n     * @param data bytes data to send along with a safe transfer check\n     * @return tokenId\n     */\n    function _safeMint(address to, bytes memory data) internal returns (uint256) {\n\n        uint256 tokenId = _mint(to);\n\n        require(\n            _checkOnERC721Received(address(0), to, tokenId, data),\n            \"ERC721: transfer to non ERC721Receiver implementer\"\n        );\n\n        return tokenId;\n\n    }\n\n    /**\n     * @dev Internal function to mint a new token.\n     * Reverts if the given token ID already exists.\n     * @param to The address that will own the minted token\n     */\n    function _mint(address to) internal returns (uint256) {\n\n        require(to != address(0), \"ERC721: mint to the zero address\");\n\n        _tokenIds.increment();\n        uint256 tokenId = _tokenIds.current();\n\n        _tokenOwner[tokenId] = to;\n        _ownedTokensCount[to].increment();\n\n        emit Transfer(address(0), to, tokenId);\n\n        return tokenId;\n\n    }\n\n\n    /***  Token URIs  ***/\n\n\n    /**\n     * @dev Internal function to set the token URI for a given token.\n     * Reverts if the token ID does not exist.\n     * @param tokenId uint256 ID of the token to set its URI\n     * @param uri string URI to assign\n     */\n    function _setTokenURI(uint256 tokenId, string memory uri) internal {\n\n        require(\n            _exists(tokenId),\n            \"ERC721: URI set of nonexistent token\"\n        );\n\n        _tokenURIs[tokenId] = uri;\n\n    }\n\n    /**\n     * @dev Returns an URI for a given token ID.\n     * Throws if the token ID does not exist. May return an empty string.\n     * @param tokenId uint256 ID of the token to query\n     */\n    function tokenURI(uint256 tokenId) external view returns (string memory) {\n\n        require(\n            _exists(tokenId),\n            \"ERC721: URI query for nonexistent token\"\n        );\n\n        return _tokenURIs[tokenId];\n\n    }\n\n\n    /***  Token TimeSlot data and metadata  ***/\n\n\n    function _isValidTimeSlot(\n        string memory contentId,\n        uint48 startTime,\n        uint48 endTime\n    ) internal view returns (bool) {\n\n        require(\n            registry.isContentIdRegisteredToCaller(contentId),\n            \"ERC721: content id is not registered to caller\"\n        );\n\n        require(\n            endTime > startTime,\n            \"ERC721: start time must be before end time\"\n        );\n\n        return true;\n\n    }\n\n\n    function _isContentIdMappedToMinter(\n        string memory contentId\n    )  internal view returns (bool) {\n\n        ContentIdStruct[] memory a = _tokenMinterToContentIds[msg.sender];\n        bool foundMatch = false;\n        for (uint i = 0; i < a.length; i++) {\n            if (stringsMatch(contentId, a[i].contentId)) {\n                foundMatch = true;\n            }\n        }\n\n        return foundMatch;\n    }\n\n\n    function _isPropertyNameMappedToMinter(\n        string memory contentId,\n        bytes32 propertyName\n    )  internal view returns (bool) {\n\n        PropertyNameStruct[] memory a = _tokenMinterToPropertyNames[msg.sender][contentId];\n        bool foundMatch = false;\n        for (uint i = 0; i < a.length; i++) {\n            if (propertyName == a[i].propertyName) {\n                foundMatch = true;\n            }\n        }\n\n        return foundMatch;\n    }\n\n\n    function _setTokenTimeSlot(\n        uint256 tokenId,\n        string memory contentId,\n        bytes32 propertyName,\n        uint48 startTime,\n        uint48 endTime,\n        uint48 auctionEndTime\n    ) internal {\n\n        require(\n            _exists(tokenId),\n            \"ERC721: URI set of nonexistent token\"\n        );\n\n        TimeSlot memory _timeSlot = TimeSlot({\n            minter: address(_msgSender()),\n            contentId: string(contentId),\n            propertyName: bytes32(propertyName),\n            startTime: uint48(startTime),\n            endTime: uint48(endTime),\n            auctionEndTime: uint48(auctionEndTime)\n        });\n\n        _tokenToTimeSlot[tokenId] = _timeSlot;\n\n        if (!_isContentIdMappedToMinter(contentId)) {\n            _tokenMinterToContentIds[_msgSender()].push( ContentIdStruct(contentId) );\n        }\n\n        if (!_isPropertyNameMappedToMinter(contentId, propertyName)) {\n            _tokenMinterToPropertyNames[_msgSender()][contentId].push( PropertyNameStruct(propertyName) );\n        }\n\n    }\n\n\n    function tokenTimeSlot(uint256 tokenId) external view returns (\n            address minter,\n            string memory contentId,\n            bytes32 propertyName,\n            uint48 startTime,\n            uint48 endTime,\n            uint48 auctionEndTime\n    ) {\n\n        require(\n            _exists(tokenId),\n            \"ERC721: Time slot query for nonexistent token id\"\n        );\n\n        return (\n            _tokenToTimeSlot[tokenId].minter,\n            _tokenToTimeSlot[tokenId].contentId,\n            _tokenToTimeSlot[tokenId].propertyName,\n            _tokenToTimeSlot[tokenId].startTime,\n            _tokenToTimeSlot[tokenId].endTime,\n            _tokenToTimeSlot[tokenId].auctionEndTime\n        );\n\n    }\n\n    /// @dev Look up all Content IDs a Minter has tokenized TimeSlots on\n    ///      We're not grabbing this from the Registry in case the user has private\n    //       content ids they dont want exposed in there\n    function tokenMinterContentIds(address minter) external view returns (string[] memory) {\n\n        ContentIdStruct[] memory m = _tokenMinterToContentIds[minter];\n        string[] memory r = new string[](m.length);\n\n        for (uint i = 0; i < m.length; i++) {\n            r[i] = m[i].contentId;\n        }\n\n        return r;\n\n    }\n\n    /// @dev Look up all Property Names a Minter has tokenized on a content ID\n    function tokenMinterPropertyNames(\n        address minter,\n        string calldata contentId\n    ) external view returns (bytes32[] memory) {\n\n        PropertyNameStruct[] memory m = _tokenMinterToPropertyNames[minter][contentId];\n        bytes32[] memory r = new bytes32[](m.length);\n\n        for (uint i = 0; i < m.length; i++) {\n            r[i] =  m[i].propertyName;\n        }\n\n        return r;\n\n    }\n\n    /***  Token balance and ownership queries  ***/\n\n\n    /**\n     * @dev Gets the total number of tokens ever minted.\n     */\n    function totalSupply() public view returns (uint256) {\n\n        return _tokenIds.current();\n\n    }\n\n    /**\n     * @dev Gets the balance of the specified address.\n     * @param tokenOwner address to query the balance of\n     * @return uint256 representing the amount owned by the passed address\n     */\n    function balanceOf(address tokenOwner) public view returns (uint256) {\n\n        require(\n            tokenOwner != address(0),\n            \"ERC721: balance query for the zero address\"\n        );\n\n        return _ownedTokensCount[tokenOwner].current();\n\n    }\n\n    /**\n     * @dev Gets the owner of the specified token ID.\n     * @param tokenId uint256 ID of the token to query the owner of\n     * @return address currently marked as the owner of the given token ID\n     */\n    function ownerOf(uint256 tokenId) public view returns (address) {\n\n        address tokenOwner = _tokenOwner[tokenId];\n        require(\n            tokenOwner != address(0),\n            \"ERC721: token owner query for nonexistent token\"\n        );\n\n        return tokenOwner;\n\n    }\n\n    /**\n     * @param tokenOwner The owner whose tokens we are interested in.\n     * @dev This method MUST NEVER be called by smart contract code. First, it's fairly\n     *  expensive (it walks the entire _tokenIds array looking for tokens belonging to owner),\n     *  but it also returns a dynamic array, which is only supported for web3 calls, and\n     *  not contract-to-contract calls.\n    */\n    function tokensOfOwner(address tokenOwner) external view returns(uint256[] memory) {\n        uint256 tokenCount = balanceOf(tokenOwner);\n\n        if (tokenCount == 0) {\n            // Return an empty array\n            return new uint256[](0);\n        } else {\n            uint256[] memory result = new uint256[](tokenCount);\n            uint256 totalTokens = totalSupply();\n            uint256 resultIndex = 0;\n\n            // We count on the fact that all tokens have IDs starting at 1 and increase\n            // sequentially up to the total count.\n            uint256 tokenId;\n\n            for (tokenId = 1; tokenId <= totalTokens; tokenId++) {\n                if (_tokenOwner[tokenId] == tokenOwner) {\n                    result[resultIndex] = tokenId;\n                    resultIndex++;\n                }\n            }\n\n            return result;\n        }\n    }\n\n\n    /***  Transfers  ***/\n\n\n    /**\n     * @dev Approves another address to transfer the given token ID\n     * The zero address indicates there is no approved address.\n     * There can only be one approved address per token at a given time.\n     * Can only be called by the token owner or an approved operator.\n     * @param to address to be approved for the given token ID\n     * @param tokenId uint256 ID of the token to be approved\n     */\n    function approve(address to, uint256 tokenId)\n        public\n        onlyWhitelisted\n        whenNotPaused\n    {\n\n        address tokenOwner = ownerOf(tokenId);\n\n        require(\n            to != tokenOwner,\n            \"ERC721: approval is redundant\"\n        );\n\n        require(\n            _msgSender() == tokenOwner || isApprovedForAll(tokenOwner, _msgSender()),\n            \"ERC721: approve caller is not token owner nor approved for all\"\n        );\n\n        _tokenApprovals[tokenId] = to;\n        emit Approval(tokenOwner, to, tokenId);\n\n    }\n\n    /**\n     * @dev Gets the approved address for a token ID, or zero if no address set\n     * Reverts if the token ID does not exist.\n     * @param tokenId uint256 ID of the token to query the approval of\n     * @return address currently approved for the given token ID\n     */\n    function getApproved(uint256 tokenId) public view returns (address) {\n\n        require(\n            _exists(tokenId),\n            \"ERC721: approved query for nonexistent token\"\n        );\n\n        return _tokenApprovals[tokenId];\n\n    }\n\n    /**\n     * @dev Sets or unsets the approval of a given operator\n     * An operator is allowed to transfer all tokens of the sender on their behalf.\n     * @param to operator address to set the approval\n     * @param approved representing the status of the approval to be set\n     */\n    function setApprovalForAll(address to, bool approved)\n        public\n        onlyWhitelisted\n        whenNotPaused\n    {\n\n        require(to != _msgSender(), \"ERC721: approve to caller\");\n\n        _operatorApprovals[_msgSender()][to] = approved;\n        emit ApprovalForAll(_msgSender(), to, approved);\n\n    }\n\n    /**\n     * @dev Tells whether an operator is approved by a given token owner.\n     * @param tokenOwner token owner address which you want to query the approval of\n     * @param operator operator address which you want to query the approval of\n     * @return bool whether the given operator is approved by the token owner\n     */\n    function isApprovedForAll(address tokenOwner, address operator)\n        public\n        view\n        returns (bool)\n    {\n\n        return _operatorApprovals[tokenOwner][operator];\n\n    }\n\n    /**\n     * @dev Transfers the ownership of a given token ID to another address.\n     * Usage of this method is discouraged, use {safeTransferFrom} whenever possible.\n     * Requires the msg.sender to be the owner, approved, or operator.\n     * @param from current owner of the token\n     * @param to address to receive the ownership of the given token ID\n     * @param tokenId uint256 ID of the token to be transferred\n     */\n    function transferFrom(address from, address to, uint256 tokenId)\n        public\n        whenNotPaused\n    {\n\n        require(\n            _isApprovedOrOwner(_msgSender(), tokenId),\n            \"ERC721: transfer caller is not owner nor approved\"\n        );\n\n        require(\n            isWhitelisted(from),\n            \"ERC721: transfer restricted to whitelisted addresses\"\n        );\n\n        require(\n            isWhitelisted(to),\n            \"ERC721: transfer restricted to whitelisted addresses\"\n        );\n\n        _transferFrom(from, to, tokenId);\n\n    }\n\n    /**\n     * @dev Safely transfers the ownership of a given token ID to another address\n     * If the target address is a contract, it must implement {IERC721Receiver-onERC721Received},\n     * which is called upon a safe transfer, and return the magic value\n     * `bytes4(keccak256(\"onERC721Received(address,address,uint256,bytes)\"))`; otherwise,\n     * the transfer is reverted.\n     * Requires the msg.sender to be the owner, approved, or operator\n     * @param from current owner of the token\n     * @param to address to receive the ownership of the given token ID\n     * @param tokenId uint256 ID of the token to be transferred\n     */\n    function safeTransferFrom(address from, address to, uint256 tokenId) public {\n\n        safeTransferFrom(from, to, tokenId, \"\");\n\n    }\n\n    /**\n     * @dev Safely transfers the ownership of a given token ID to another address\n     * If the target address is a contract, it must implement {IERC721Receiver-onERC721Received},\n     * which is called upon a safe transfer, and return the magic value\n     * `bytes4(keccak256(\"onERC721Received(address,address,uint256,bytes)\"))`; otherwise,\n     * the transfer is reverted.\n     * Requires the _msgSender() to be the owner, approved, or operator\n     * @param from current owner of the token\n     * @param to address to receive the ownership of the given token ID\n     * @param tokenId uint256 ID of the token to be transferred\n     * @param data bytes data to send along with a safe transfer check\n     */\n    function safeTransferFrom(address from, address to, uint256 tokenId, bytes memory data)\n        public\n        whenNotPaused\n    {\n\n        require(\n            isWhitelisted(from),\n            \"ERC721: transfer restricted to whitelisted addresses\"\n        );\n\n        require(\n            isWhitelisted(to),\n            \"ERC721: transfer restricted to whitelisted addresses\"\n        );\n\n        require(\n            _isApprovedOrOwner(_msgSender(), tokenId),\n            \"ERC721: transfer caller is not owner nor approved\"\n        );\n\n        _safeTransferFrom(from, to, tokenId, data);\n\n    }\n\n    /**\n     * @dev Safely transfers the ownership of a given token ID to another address\n     * If the target address is a contract, it must implement `onERC721Received`,\n     * which is called upon a safe transfer, and return the magic value\n     * `bytes4(keccak256(\"onERC721Received(address,address,uint256,bytes)\"))`; otherwise,\n     * the transfer is reverted.\n     * Requires the msg.sender to be the owner, approved, or operator\n     * @param from current owner of the token\n     * @param to address to receive the ownership of the given token ID\n     * @param tokenId uint256 ID of the token to be transferred\n     * @param data bytes data to send along with a safe transfer check\n     */\n    function _safeTransferFrom(address from, address to, uint256 tokenId, bytes memory data)\n        internal\n    {\n\n        _transferFrom(from, to, tokenId);\n\n        require(\n            _checkOnERC721Received(from, to, tokenId, data),\n            \"ERC721: transfer to non ERC721Receiver implementer\"\n        );\n\n    }\n\n    /**\n     * @dev Returns whether the specified token exists.\n     * @param tokenId uint256 ID of the token to query the existence of\n     * @return bool whether the token exists\n     */\n    function _exists(uint256 tokenId) internal view returns (bool) {\n\n        address tokenOwner = _tokenOwner[tokenId];\n\n        return tokenOwner != address(0);\n\n    }\n\n    /**\n     * @dev Returns whether the given spender can transfer a given token ID.\n     * @param spender address of the spender to query\n     * @param tokenId uint256 ID of the token to be transferred\n     * @return bool whether the msg.sender is approved for the given token ID,\n     * is an operator of the owner, or is the owner of the token\n     */\n    function _isApprovedOrOwner(address spender, uint256 tokenId)\n        internal\n        view\n        returns (bool)\n    {\n\n        require(\n            _exists(tokenId),\n            \"ERC721: operator query for nonexistent token\"\n        );\n\n        address tokenOwner = ownerOf(tokenId);\n\n\n        return (spender == tokenOwner || getApproved(tokenId) == spender || isApprovedForAll(tokenOwner, spender));\n\n    }\n\n    /**\n     * @dev Internal function to transfer ownership of a given token ID to another address.\n     * As opposed to {transferFrom}, this imposes no restrictions on msg.sender.\n     * @param from current owner of the token\n     * @param to address to receive the ownership of the given token ID\n     * @param tokenId uint256 ID of the token to be transferred\n     */\n    function _transferFrom(address from, address to, uint256 tokenId) internal {\n\n        require(\n            ownerOf(tokenId) == from,\n            \"ERC721: transfer of token that is not own\"\n        );\n\n        require(\n            to != address(0),\n            \"ERC721: transfer to the zero address\"\n        );\n\n        _clearApproval(tokenId);\n\n        _ownedTokensCount[from].decrement();\n        _ownedTokensCount[to].increment();\n\n        _tokenOwner[tokenId] = to;\n\n        emit Transfer(from, to, tokenId);\n\n    }\n\n    /**\n     * @dev Internal function to invoke {IERC721Receiver-onERC721Received} on a target address.\n     * The call is not executed if the target address is not a contract.\n     *\n     * This function is deprecated.\n     * @param from address representing the previous owner of the given token ID\n     * @param to target address that will receive the tokens\n     * @param tokenId uint256 ID of the token to be transferred\n     * @param data bytes optional data to send along with the call\n     * @return bool whether the call correctly returned the expected magic value\n     */\n    function _checkOnERC721Received(address from, address to, uint256 tokenId, bytes memory data)\n        internal\n        returns (bool)\n    {\n\n        if (!to.isContract()) {\n            return true;\n        }\n\n        bytes4 retval = IERC721Receiver(to).onERC721Received(_msgSender(), from, tokenId, data);\n        return (retval == _ERC721_RECEIVED);\n\n    }\n\n    /**\n     * @dev Private function to clear current approval of a given token ID.\n     * @param tokenId uint256 ID of the token to be transferred\n     */\n    function _clearApproval(uint256 tokenId) private {\n\n        if (_tokenApprovals[tokenId] != address(0)) {\n            _tokenApprovals[tokenId] = address(0);\n        }\n\n    }\n\n\n    /***  Burn Tokens  ***/\n\n\n    // solhint-disable\n    /**\n     * Customized for Microsponsors\n     * https://github.com/OpenZeppelin/openzeppelin-contracts/blob/master/contracts/token/ERC721/ERC721Burnable.sol     * @dev Burns a specific ERC721 token.\n     * @param tokenId uint256 id of the ERC721 token to be burned.\n     */\n     // solhint-enable\n    function burn(uint256 tokenId) public whenNotPaused {\n\n        require(\n            _isApprovedOrOwner(_msgSender(), tokenId),\n            \"ERC721: caller is not token owner nor approved\"\n        );\n\n        _burn(tokenId);\n\n    }\n\n\n    /**\n     * @dev Internal function to burn a specific token.\n     * Reverts if the token does not exist.\n     * Deprecated, use {_burn} instead.\n     * @param tokenOwner owner of the token to burn\n     * @param tokenId uint256 ID of the token being burned\n     */\n    function _burn(address tokenOwner, uint256 tokenId) internal {\n\n        require(\n            ownerOf(tokenId) == tokenOwner,\n            \"ERC721: burn of token that is not own\"\n        );\n\n        _clearApproval(tokenId);\n\n        _ownedTokensCount[tokenOwner].decrement();\n        _tokenOwner[tokenId] = address(0);\n\n        // Clear token URIs (if any)\n        if (bytes(_tokenURIs[tokenId]).length != 0) {\n            delete _tokenURIs[tokenId];\n        }\n\n        // Clear time slot data\n        delete _tokenToTimeSlot[tokenId];\n\n        emit Transfer(tokenOwner, address(0), tokenId);\n\n    }\n\n    /**\n     * @dev Internal function to burn a specific token.\n     * Reverts if the token does not exist.\n     * @param tokenId uint256 ID of the token being burned\n     */\n    function _burn(uint256 tokenId) internal {\n\n        _burn(ownerOf(tokenId), tokenId);\n\n    }\n\n\n    /*** Pausable (adapted from OpenZeppelin via Cryptokitties) ***/\n\n\n    /// @dev Modifier to allow actions only when the contract IS NOT paused\n    modifier whenNotPaused() {\n        require(!paused);\n        _;\n    }\n\n    /// @dev Modifier to allow actions only when the contract IS paused\n    modifier whenPaused {\n        require(paused);\n        _;\n    }\n\n    /// @dev Called by contract owner to pause actions on this contract\n    function pause() external onlyOwner whenNotPaused {\n        paused = true;\n    }\n\n    /// @dev Called by contract owner to unpause the smart contract.\n    /// @notice This is public rather than external so it can be called by\n    ///  derived contracts.\n    function unpause() public onlyOwner whenPaused {\n        // can't unpause if contract was upgraded\n        paused = false;\n    }\n\n\n    /***  Helper fn  ***/\n\n    function stringsMatch (\n        string memory a,\n        string memory b\n    )\n        private\n        pure\n        returns (bool)\n    {\n        return (keccak256(abi.encodePacked((a))) == keccak256(abi.encodePacked((b))) );\n    }\n\n}\n",
  "sourcePath": "/Users/lauren/github/erc-721/contracts/ERC721.sol",
  "compiler": {
    "name": "solc",
    "version": "0.5.11+commit.c082d0b4.Emscripten.clang"
  },
  "schemaVersion": "3.0.10",
  "updatedAt": "2019-09-13T01:30:42.243Z",
  "devdoc": {
    "details": "see https://eips.ethereum.org/EIPS/eip-721",
    "methods": {
      "approve(address,uint256)": {
        "details": "Approves another address to transfer the given token ID The zero address indicates there is no approved address. There can only be one approved address per token at a given time. Can only be called by the token owner or an approved operator.",
        "params": {
          "to": "address to be approved for the given token ID",
          "tokenId": "uint256 ID of the token to be approved"
        }
      },
      "balanceOf(address)": {
        "details": "Gets the balance of the specified address.",
        "params": {
          "tokenOwner": "address to query the balance of"
        },
        "return": "uint256 representing the amount owned by the passed address"
      },
      "burn(uint256)": {
        "details": "Burns a specific ERC721 token.",
        "params": {
          "tokenId": "uint256 id of the ERC721 token to be burned."
        }
      },
      "getApproved(uint256)": {
        "details": "Gets the approved address for a token ID, or zero if no address set Reverts if the token ID does not exist.",
        "params": {
          "tokenId": "uint256 ID of the token to query the approval of"
        },
        "return": "address currently approved for the given token ID"
      },
      "isApprovedForAll(address,address)": {
        "details": "Tells whether an operator is approved by a given token owner.",
        "params": {
          "operator": "operator address which you want to query the approval of",
          "tokenOwner": "token owner address which you want to query the approval of"
        },
        "return": "bool whether the given operator is approved by the token owner"
      },
      "isMinter(address)": {
        "details": "Checks if minter isWhitelisted()"
      },
      "isWhitelisted(address)": {
        "details": "Checks Registry contract for whitelisted status",
        "params": {
          "target": "The address to check"
        }
      },
      "mint(string,bytes32,uint48,uint48,uint48)": {
        "details": "Function to mint tokens.",
        "return": "tokenId"
      },
      "mintWithTokenURI(string,bytes32,uint48,uint48,uint48,string)": {
        "details": "Function to mint tokens.",
        "params": {
          "tokenURI": "The token URI of the minted token."
        },
        "return": "tokenId"
      },
      "ownerOf(uint256)": {
        "details": "Gets the owner of the specified token ID.",
        "params": {
          "tokenId": "uint256 ID of the token to query the owner of"
        },
        "return": "address currently marked as the owner of the given token ID"
      },
      "pause()": {
        "details": "Called by contract owner to pause actions on this contract"
      },
      "safeMint(string,bytes32,uint48,uint48,uint48)": {
        "details": "Function to safely mint tokens.",
        "return": "tokenId"
      },
      "safeMint(string,bytes32,uint48,uint48,uint48,bytes)": {
        "details": "Function to safely mint tokens.",
        "params": {
          "data": "bytes data to send along with a safe transfer check."
        },
        "return": "tokenId"
      },
      "safeMintWithTokenURI(string,bytes32,uint48,uint48,uint48,string)": {
        "details": "Function to safely mint tokens.",
        "params": {
          "tokenURI": "The token URI of the minted token."
        },
        "return": "tokenId"
      },
      "safeTransferFrom(address,address,uint256)": {
        "details": "Safely transfers the ownership of a given token ID to another address If the target address is a contract, it must implement {IERC721Receiver-onERC721Received}, which is called upon a safe transfer, and return the magic value `bytes4(keccak256(\"onERC721Received(address,address,uint256,bytes)\"))`; otherwise, the transfer is reverted. Requires the msg.sender to be the owner, approved, or operator",
        "params": {
          "from": "current owner of the token",
          "to": "address to receive the ownership of the given token ID",
          "tokenId": "uint256 ID of the token to be transferred"
        }
      },
      "safeTransferFrom(address,address,uint256,bytes)": {
        "details": "Safely transfers the ownership of a given token ID to another address If the target address is a contract, it must implement {IERC721Receiver-onERC721Received}, which is called upon a safe transfer, and return the magic value `bytes4(keccak256(\"onERC721Received(address,address,uint256,bytes)\"))`; otherwise, the transfer is reverted. Requires the _msgSender() to be the owner, approved, or operator",
        "params": {
          "data": "bytes data to send along with a safe transfer check",
          "from": "current owner of the token",
          "to": "address to receive the ownership of the given token ID",
          "tokenId": "uint256 ID of the token to be transferred"
        }
      },
      "setApprovalForAll(address,bool)": {
        "details": "Sets or unsets the approval of a given operator An operator is allowed to transfer all tokens of the sender on their behalf.",
        "params": {
          "approved": "representing the status of the approval to be set",
          "to": "operator address to set the approval"
        }
      },
      "supportsInterface(bytes4)": {
        "details": "See {IERC165-supportsInterface}.     * Time complexity O(1), guaranteed to always use less than 30 000 gas."
      },
      "tokenMinterContentIds(address)": {
        "details": "Look up all Content IDs a Minter has tokenized TimeSlots on      We're not grabbing this from the Registry in case the user has private"
      },
      "tokenMinterPropertyNames(address,string)": {
        "details": "Look up all Property Names a Minter has tokenized on a content ID"
      },
      "tokenURI(uint256)": {
        "details": "Returns an URI for a given token ID. Throws if the token ID does not exist. May return an empty string.",
        "params": {
          "tokenId": "uint256 ID of the token to query"
        }
      },
      "tokensOfOwner(address)": {
        "details": "This method MUST NEVER be called by smart contract code. First, it's fairly expensive (it walks the entire _tokenIds array looking for tokens belonging to owner), but it also returns a dynamic array, which is only supported for web3 calls, and not contract-to-contract calls.",
        "params": {
          "tokenOwner": "The owner whose tokens we are interested in."
        }
      },
      "totalSupply()": {
        "details": "Gets the total number of tokens ever minted."
      },
      "transferFrom(address,address,uint256)": {
        "details": "Transfers the ownership of a given token ID to another address. Usage of this method is discouraged, use {safeTransferFrom} whenever possible. Requires the msg.sender to be the owner, approved, or operator.",
        "params": {
          "from": "current owner of the token",
          "to": "address to receive the ownership of the given token ID",
          "tokenId": "uint256 ID of the token to be transferred"
        }
      },
      "unpause()": {
        "details": "Called by contract owner to unpause the smart contract."
      },
      "updateRegistryAddress(address)": {
        "details": "Update address for Microsponsors Registry contract",
        "params": {
          "newAddress": "where the Registry contract lives"
        }
      }
    },
    "title": "ERC721 Non-Fungible Token Standard basic implementation"
  },
  "userdoc": {
    "methods": {
      "burn(uint256)": {
        "notice": "Customized for Microsponsors"
      },
      "safeMintWithTokenURI(string,bytes32,uint48,uint48,uint48,string)": {
        "notice": "Customized for Microsponsors from https://github.com/OpenZeppelin/openzeppelin-contracts/blob/master/contracts/token/ERC721/ERC721MetadataMintable.sol"
      },
      "unpause()": {
        "notice": "This is public rather than external so it can be called by  derived contracts."
      }
    }
  }
}