{
  "contractName": "ERC721",
  "abi": [
    {
      "constant": true,
      "inputs": [
        {
          "internalType": "bytes4",
          "name": "interfaceId",
          "type": "bytes4"
        }
      ],
      "name": "supportsInterface",
      "outputs": [
        {
          "internalType": "bool",
          "name": "",
          "type": "bool"
        }
      ],
      "payable": false,
      "stateMutability": "view",
      "type": "function"
    },
    {
      "constant": true,
      "inputs": [],
      "name": "mintFee",
      "outputs": [
        {
          "internalType": "uint256",
          "name": "",
          "type": "uint256"
        }
      ],
      "payable": false,
      "stateMutability": "view",
      "type": "function"
    },
    {
      "constant": true,
      "inputs": [
        {
          "internalType": "uint256",
          "name": "",
          "type": "uint256"
        }
      ],
      "name": "tokenToFederationId",
      "outputs": [
        {
          "internalType": "uint32",
          "name": "",
          "type": "uint32"
        }
      ],
      "payable": false,
      "stateMutability": "view",
      "type": "function"
    },
    {
      "constant": true,
      "inputs": [],
      "name": "owner2",
      "outputs": [
        {
          "internalType": "address",
          "name": "",
          "type": "address"
        }
      ],
      "payable": false,
      "stateMutability": "view",
      "type": "function"
    },
    {
      "constant": true,
      "inputs": [],
      "name": "paused",
      "outputs": [
        {
          "internalType": "bool",
          "name": "",
          "type": "bool"
        }
      ],
      "payable": false,
      "stateMutability": "view",
      "type": "function"
    },
    {
      "constant": true,
      "inputs": [],
      "name": "owner1",
      "outputs": [
        {
          "internalType": "address",
          "name": "",
          "type": "address"
        }
      ],
      "payable": false,
      "stateMutability": "view",
      "type": "function"
    },
    {
      "constant": true,
      "inputs": [],
      "name": "registry",
      "outputs": [
        {
          "internalType": "contract DeployedRegistry",
          "name": "",
          "type": "address"
        }
      ],
      "payable": false,
      "stateMutability": "view",
      "type": "function"
    },
    {
      "constant": true,
      "inputs": [],
      "name": "isGlobalResaleEnabled",
      "outputs": [
        {
          "internalType": "bool",
          "name": "",
          "type": "bool"
        }
      ],
      "payable": false,
      "stateMutability": "view",
      "type": "function"
    },
    {
      "inputs": [],
      "payable": false,
      "stateMutability": "nonpayable",
      "type": "constructor"
    },
    {
      "anonymous": false,
      "inputs": [
        {
          "indexed": true,
          "internalType": "address",
          "name": "from",
          "type": "address"
        },
        {
          "indexed": true,
          "internalType": "address",
          "name": "to",
          "type": "address"
        },
        {
          "indexed": true,
          "internalType": "uint256",
          "name": "tokenId",
          "type": "uint256"
        }
      ],
      "name": "Transfer",
      "type": "event"
    },
    {
      "anonymous": false,
      "inputs": [
        {
          "indexed": true,
          "internalType": "address",
          "name": "tokenOwner",
          "type": "address"
        },
        {
          "indexed": true,
          "internalType": "address",
          "name": "approved",
          "type": "address"
        },
        {
          "indexed": true,
          "internalType": "uint256",
          "name": "tokenId",
          "type": "uint256"
        }
      ],
      "name": "Approval",
      "type": "event"
    },
    {
      "anonymous": false,
      "inputs": [
        {
          "indexed": true,
          "internalType": "address",
          "name": "tokenOwner",
          "type": "address"
        },
        {
          "indexed": true,
          "internalType": "address",
          "name": "operator",
          "type": "address"
        },
        {
          "indexed": false,
          "internalType": "bool",
          "name": "approved",
          "type": "bool"
        }
      ],
      "name": "ApprovalForAll",
      "type": "event"
    },
    {
      "constant": false,
      "inputs": [
        {
          "internalType": "address",
          "name": "newOwner",
          "type": "address"
        }
      ],
      "name": "transferOwnership1",
      "outputs": [],
      "payable": false,
      "stateMutability": "nonpayable",
      "type": "function"
    },
    {
      "constant": false,
      "inputs": [
        {
          "internalType": "address",
          "name": "newOwner",
          "type": "address"
        }
      ],
      "name": "transferOwnership2",
      "outputs": [],
      "payable": false,
      "stateMutability": "nonpayable",
      "type": "function"
    },
    {
      "constant": false,
      "inputs": [
        {
          "internalType": "address",
          "name": "newAddress",
          "type": "address"
        }
      ],
      "name": "updateRegistryAddress",
      "outputs": [],
      "payable": false,
      "stateMutability": "nonpayable",
      "type": "function"
    },
    {
      "constant": false,
      "inputs": [
        {
          "internalType": "uint256",
          "name": "val",
          "type": "uint256"
        }
      ],
      "name": "updateMintFee",
      "outputs": [],
      "payable": false,
      "stateMutability": "nonpayable",
      "type": "function"
    },
    {
      "constant": false,
      "inputs": [],
      "name": "enableGlobalResale",
      "outputs": [],
      "payable": false,
      "stateMutability": "nonpayable",
      "type": "function"
    },
    {
      "constant": false,
      "inputs": [],
      "name": "disableGlobalResale",
      "outputs": [],
      "payable": false,
      "stateMutability": "nonpayable",
      "type": "function"
    },
    {
      "constant": false,
      "inputs": [],
      "name": "pause",
      "outputs": [],
      "payable": false,
      "stateMutability": "nonpayable",
      "type": "function"
    },
    {
      "constant": false,
      "inputs": [],
      "name": "unpause",
      "outputs": [],
      "payable": false,
      "stateMutability": "nonpayable",
      "type": "function"
    },
    {
      "constant": false,
      "inputs": [],
      "name": "withdrawBalance",
      "outputs": [],
      "payable": false,
      "stateMutability": "nonpayable",
      "type": "function"
    },
    {
      "constant": false,
      "inputs": [
        {
          "internalType": "string",
          "name": "contentId",
          "type": "string"
        },
        {
          "internalType": "string",
          "name": "propertyName",
          "type": "string"
        },
        {
          "internalType": "uint48",
          "name": "startTime",
          "type": "uint48"
        },
        {
          "internalType": "uint48",
          "name": "endTime",
          "type": "uint48"
        },
        {
          "internalType": "uint48",
          "name": "auctionEndTime",
          "type": "uint48"
        },
        {
          "internalType": "uint16",
          "name": "category",
          "type": "uint16"
        },
        {
          "internalType": "uint32",
          "name": "federationId",
          "type": "uint32"
        }
      ],
      "name": "mint",
      "outputs": [
        {
          "internalType": "uint256",
          "name": "",
          "type": "uint256"
        }
      ],
      "payable": true,
      "stateMutability": "payable",
      "type": "function"
    },
    {
      "constant": false,
      "inputs": [
        {
          "internalType": "string",
          "name": "contentId",
          "type": "string"
        },
        {
          "internalType": "string",
          "name": "propertyName",
          "type": "string"
        },
        {
          "internalType": "uint48",
          "name": "startTime",
          "type": "uint48"
        },
        {
          "internalType": "uint48",
          "name": "endTime",
          "type": "uint48"
        },
        {
          "internalType": "uint48",
          "name": "auctionEndTime",
          "type": "uint48"
        },
        {
          "internalType": "uint16",
          "name": "category",
          "type": "uint16"
        },
        {
          "internalType": "uint32",
          "name": "federationId",
          "type": "uint32"
        },
        {
          "internalType": "string",
          "name": "tokenURI",
          "type": "string"
        }
      ],
      "name": "mintWithTokenURI",
      "outputs": [
        {
          "internalType": "uint256",
          "name": "",
          "type": "uint256"
        }
      ],
      "payable": true,
      "stateMutability": "payable",
      "type": "function"
    },
    {
      "constant": false,
      "inputs": [
        {
          "internalType": "string",
          "name": "contentId",
          "type": "string"
        },
        {
          "internalType": "string",
          "name": "propertyName",
          "type": "string"
        },
        {
          "internalType": "uint48",
          "name": "startTime",
          "type": "uint48"
        },
        {
          "internalType": "uint48",
          "name": "endTime",
          "type": "uint48"
        },
        {
          "internalType": "uint48",
          "name": "auctionEndTime",
          "type": "uint48"
        },
        {
          "internalType": "uint16",
          "name": "category",
          "type": "uint16"
        },
        {
          "internalType": "uint32",
          "name": "federationId",
          "type": "uint32"
        },
        {
          "internalType": "bytes",
          "name": "data",
          "type": "bytes"
        }
      ],
      "name": "safeMint",
      "outputs": [
        {
          "internalType": "uint256",
          "name": "",
          "type": "uint256"
        }
      ],
      "payable": true,
      "stateMutability": "payable",
      "type": "function"
    },
    {
      "constant": false,
      "inputs": [
        {
          "internalType": "string",
          "name": "contentId",
          "type": "string"
        },
        {
          "internalType": "string",
          "name": "propertyName",
          "type": "string"
        },
        {
          "internalType": "uint48",
          "name": "startTime",
          "type": "uint48"
        },
        {
          "internalType": "uint48",
          "name": "endTime",
          "type": "uint48"
        },
        {
          "internalType": "uint48",
          "name": "auctionEndTime",
          "type": "uint48"
        },
        {
          "internalType": "uint16",
          "name": "category",
          "type": "uint16"
        },
        {
          "internalType": "uint32",
          "name": "federationId",
          "type": "uint32"
        }
      ],
      "name": "safeMint",
      "outputs": [
        {
          "internalType": "uint256",
          "name": "",
          "type": "uint256"
        }
      ],
      "payable": true,
      "stateMutability": "payable",
      "type": "function"
    },
    {
      "constant": false,
      "inputs": [
        {
          "internalType": "string",
          "name": "contentId",
          "type": "string"
        },
        {
          "internalType": "string",
          "name": "propertyName",
          "type": "string"
        },
        {
          "internalType": "uint48",
          "name": "startTime",
          "type": "uint48"
        },
        {
          "internalType": "uint48",
          "name": "endTime",
          "type": "uint48"
        },
        {
          "internalType": "uint48",
          "name": "auctionEndTime",
          "type": "uint48"
        },
        {
          "internalType": "uint16",
          "name": "category",
          "type": "uint16"
        },
        {
          "internalType": "uint32",
          "name": "federationId",
          "type": "uint32"
        },
        {
          "internalType": "string",
          "name": "tokenURI",
          "type": "string"
        }
      ],
      "name": "safeMintWithTokenURI",
      "outputs": [
        {
          "internalType": "uint256",
          "name": "",
          "type": "uint256"
        }
      ],
      "payable": true,
      "stateMutability": "payable",
      "type": "function"
    },
    {
      "constant": true,
      "inputs": [
        {
          "internalType": "uint256",
          "name": "tokenId",
          "type": "uint256"
        }
      ],
      "name": "tokenURI",
      "outputs": [
        {
          "internalType": "string",
          "name": "",
          "type": "string"
        }
      ],
      "payable": false,
      "stateMutability": "view",
      "type": "function"
    },
    {
      "constant": true,
      "inputs": [
        {
          "internalType": "uint256",
          "name": "tokenId",
          "type": "uint256"
        }
      ],
      "name": "tokenTimeSlot",
      "outputs": [
        {
          "internalType": "address",
          "name": "minter",
          "type": "address"
        },
        {
          "internalType": "address",
          "name": "owner",
          "type": "address"
        },
        {
          "internalType": "string",
          "name": "contentId",
          "type": "string"
        },
        {
          "internalType": "string",
          "name": "propertyName",
          "type": "string"
        },
        {
          "internalType": "uint48",
          "name": "startTime",
          "type": "uint48"
        },
        {
          "internalType": "uint48",
          "name": "endTime",
          "type": "uint48"
        },
        {
          "internalType": "uint48",
          "name": "auctionEndTime",
          "type": "uint48"
        },
        {
          "internalType": "uint16",
          "name": "category",
          "type": "uint16"
        },
        {
          "internalType": "uint32",
          "name": "federationId",
          "type": "uint32"
        }
      ],
      "payable": false,
      "stateMutability": "view",
      "type": "function"
    },
    {
      "constant": true,
      "inputs": [
        {
          "internalType": "address",
          "name": "minter",
          "type": "address"
        }
      ],
      "name": "tokenMinterContentIds",
      "outputs": [
        {
          "internalType": "string[]",
          "name": "",
          "type": "string[]"
        }
      ],
      "payable": false,
      "stateMutability": "view",
      "type": "function"
    },
    {
      "constant": true,
      "inputs": [
        {
          "internalType": "address",
          "name": "minter",
          "type": "address"
        },
        {
          "internalType": "string",
          "name": "contentId",
          "type": "string"
        }
      ],
      "name": "tokenMinterPropertyNames",
      "outputs": [
        {
          "internalType": "string[]",
          "name": "",
          "type": "string[]"
        }
      ],
      "payable": false,
      "stateMutability": "view",
      "type": "function"
    },
    {
      "constant": true,
      "inputs": [
        {
          "internalType": "address",
          "name": "minter",
          "type": "address"
        }
      ],
      "name": "tokensMintedBy",
      "outputs": [
        {
          "internalType": "uint256[]",
          "name": "",
          "type": "uint256[]"
        }
      ],
      "payable": false,
      "stateMutability": "view",
      "type": "function"
    },
    {
      "constant": true,
      "inputs": [],
      "name": "totalSupply",
      "outputs": [
        {
          "internalType": "uint256",
          "name": "",
          "type": "uint256"
        }
      ],
      "payable": false,
      "stateMutability": "view",
      "type": "function"
    },
    {
      "constant": true,
      "inputs": [
        {
          "internalType": "address",
          "name": "tokenOwner",
          "type": "address"
        }
      ],
      "name": "balanceOf",
      "outputs": [
        {
          "internalType": "uint256",
          "name": "",
          "type": "uint256"
        }
      ],
      "payable": false,
      "stateMutability": "view",
      "type": "function"
    },
    {
      "constant": true,
      "inputs": [
        {
          "internalType": "uint256",
          "name": "tokenId",
          "type": "uint256"
        }
      ],
      "name": "ownerOf",
      "outputs": [
        {
          "internalType": "address",
          "name": "",
          "type": "address"
        }
      ],
      "payable": false,
      "stateMutability": "view",
      "type": "function"
    },
    {
      "constant": true,
      "inputs": [
        {
          "internalType": "address",
          "name": "tokenOwner",
          "type": "address"
        }
      ],
      "name": "tokensOfOwner",
      "outputs": [
        {
          "internalType": "uint256[]",
          "name": "",
          "type": "uint256[]"
        }
      ],
      "payable": false,
      "stateMutability": "view",
      "type": "function"
    },
    {
      "constant": false,
      "inputs": [
        {
          "internalType": "address",
          "name": "to",
          "type": "address"
        },
        {
          "internalType": "uint256",
          "name": "tokenId",
          "type": "uint256"
        }
      ],
      "name": "approve",
      "outputs": [],
      "payable": false,
      "stateMutability": "nonpayable",
      "type": "function"
    },
    {
      "constant": true,
      "inputs": [
        {
          "internalType": "uint256",
          "name": "tokenId",
          "type": "uint256"
        }
      ],
      "name": "getApproved",
      "outputs": [
        {
          "internalType": "address",
          "name": "",
          "type": "address"
        }
      ],
      "payable": false,
      "stateMutability": "view",
      "type": "function"
    },
    {
      "constant": false,
      "inputs": [
        {
          "internalType": "address",
          "name": "to",
          "type": "address"
        },
        {
          "internalType": "bool",
          "name": "approved",
          "type": "bool"
        }
      ],
      "name": "setApprovalForAll",
      "outputs": [],
      "payable": false,
      "stateMutability": "nonpayable",
      "type": "function"
    },
    {
      "constant": true,
      "inputs": [
        {
          "internalType": "address",
          "name": "tokenOwner",
          "type": "address"
        },
        {
          "internalType": "address",
          "name": "operator",
          "type": "address"
        }
      ],
      "name": "isApprovedForAll",
      "outputs": [
        {
          "internalType": "bool",
          "name": "",
          "type": "bool"
        }
      ],
      "payable": false,
      "stateMutability": "view",
      "type": "function"
    },
    {
      "constant": false,
      "inputs": [
        {
          "internalType": "address",
          "name": "from",
          "type": "address"
        },
        {
          "internalType": "address",
          "name": "to",
          "type": "address"
        },
        {
          "internalType": "uint256",
          "name": "tokenId",
          "type": "uint256"
        }
      ],
      "name": "transferFrom",
      "outputs": [],
      "payable": false,
      "stateMutability": "nonpayable",
      "type": "function"
    },
    {
      "constant": false,
      "inputs": [
        {
          "internalType": "address",
          "name": "from",
          "type": "address"
        },
        {
          "internalType": "address",
          "name": "to",
          "type": "address"
        },
        {
          "internalType": "uint256",
          "name": "tokenId",
          "type": "uint256"
        },
        {
          "internalType": "bytes",
          "name": "data",
          "type": "bytes"
        }
      ],
      "name": "safeTransferFrom",
      "outputs": [],
      "payable": false,
      "stateMutability": "nonpayable",
      "type": "function"
    },
    {
      "constant": false,
      "inputs": [
        {
          "internalType": "address",
          "name": "from",
          "type": "address"
        },
        {
          "internalType": "address",
          "name": "to",
          "type": "address"
        },
        {
          "internalType": "uint256",
          "name": "tokenId",
          "type": "uint256"
        }
      ],
      "name": "safeTransferFrom",
      "outputs": [],
      "payable": false,
      "stateMutability": "nonpayable",
      "type": "function"
    },
    {
      "constant": false,
      "inputs": [
        {
          "internalType": "uint256",
          "name": "tokenId",
          "type": "uint256"
        }
      ],
      "name": "burn",
      "outputs": [],
      "payable": false,
      "stateMutability": "nonpayable",
      "type": "function"
    }
  ],
  "bytecode": "0x60806040526002805461ffff60a01b19169055655af3107a40006003553480156200002957600080fd5b506200005e7f01ffc9a7000000000000000000000000000000000000000000000000000000006001600160e01b03620000f516565b620000927f80ac58cd000000000000000000000000000000000000000000000000000000006001600160e01b03620000f516565b620000a56001600160e01b036200019a16565b600180546001600160a01b0319166001600160a01b0392909216919091179055620000cf6200019a565b600280546001600160a01b0319166001600160a01b0392909216919091179055620001fa565b7fffffffff0000000000000000000000000000000000000000000000000000000080821614156200015d576040517f08c379a00000000000000000000000000000000000000000000000000000000081526004016200015490620001d9565b60405180910390fd5b7fffffffff00000000000000000000000000000000000000000000000000000000166000908152602081905260409020805460ff19166001179055565b3390565b6000620001ad601c83620001f1565b7f4552433136353a20696e76616c696420696e7465726661636520696400000000815260200192915050565b60208082528101620001eb816200019e565b92915050565b90815260200190565b614653806200020a6000396000f3fe6080604052600436106102305760003560e01c806363e1a8381161012e578063a4ede128116100ab578063c87b56dd1161006f578063c87b56dd14610616578063e2b375a914610643578063e5c2492414610663578063e982d5a914610698578063e985e9c5146106b857610230565b8063a4ede1281461058c578063a930fc73146105ac578063b06e2f9f146105c1578063b88d4fde146105d6578063c57a8825146105f657610230565b806384017e52116100f257806384017e52146105045780638456cb59146105245780638462151c146105395780639ce7dca314610559578063a22cb4651461056c57610230565b806363e1a8381461046d57806370a082311461048057806373688914146104a05780637affcb9a146104b55780637b103999146104e257610230565b80633d857187116101bc578063527097251161018057806352709725146103f957806357550b661461040e5780635c975abb146104235780635fd8c710146104385780636352211e1461044d57610230565b80633d8571871461037e5780633f4ba83a1461039157806342842e0e146103a657806342966c68146103c657806344c140d0146103e657610230565b8063180b9e3f11610203578063180b9e3f146102dc57806318160ddd146103095780631c7029811461031e57806323b872dd146103315780632a0c77991461035157610230565b806301ffc9a714610235578063081812fc1461026b578063095ea7b31461029857806313966db5146102ba575b600080fd5b34801561024157600080fd5b50610255610250366004613561565b6106d8565b60405161026291906142aa565b60405180910390f35b34801561027757600080fd5b5061028b61028636600461375f565b6106fb565b604051610262919061417a565b3480156102a457600080fd5b506102b86102b3366004613513565b610747565b005b3480156102c657600080fd5b506102cf6108e4565b60405161026291906144b7565b3480156102e857600080fd5b506102fc6102f736600461375f565b6108ea565b60405161026291906144c5565b34801561031557600080fd5b506102cf610902565b6102cf61032c36600461359d565b610914565b34801561033d57600080fd5b506102b861034c3660046133c7565b610a7f565b34801561035d57600080fd5b5061037161036c36600461336f565b610c5f565b6040516102629190614299565b6102cf61038c366004613668565b610d67565b34801561039d57600080fd5b506102b8610edd565b3480156103b257600080fd5b506102b86103c13660046133c7565b610f61565b3480156103d257600080fd5b506102b86103e136600461375f565b610f7c565b6102cf6103f4366004613668565b610fc6565b34801561040557600080fd5b5061028b611102565b34801561041a57600080fd5b506102b8611111565b34801561042f57600080fd5b50610255611185565b34801561044457600080fd5b506102b8611195565b34801561045957600080fd5b5061028b61046836600461375f565b611271565b6102cf61047b36600461359d565b61128c565b34801561048c57600080fd5b506102cf61049b36600461336f565b6113b1565b3480156104ac57600080fd5b5061028b611400565b3480156104c157600080fd5b506104d56104d03660046134bd565b61140f565b6040516102629190614288565b3480156104ee57600080fd5b506104f76115b1565b60405161026291906142b8565b34801561051057600080fd5b506102b861051f36600461375f565b6115c0565b34801561053057600080fd5b506102b8611624565b34801561054557600080fd5b5061037161055436600461336f565b6116af565b6102cf610567366004613668565b611769565b34801561057857600080fd5b506102b861058736600461348d565b61188e565b34801561059857600080fd5b506104d56105a736600461336f565b611a14565b3480156105b857600080fd5b50610255611b8a565b3480156105cd57600080fd5b506102b8611b9a565b3480156105e257600080fd5b506102b86105f1366004613414565b611c08565b34801561060257600080fd5b506102b861061136600461336f565b611dea565b34801561062257600080fd5b5061063661063136600461375f565b611e6b565b60405161026291906142c6565b34801561064f57600080fd5b506102b861065e36600461336f565b611f31565b34801561066f57600080fd5b5061068361067e36600461375f565b611fbf565b60405161026299989796959493929190614188565b3480156106a457600080fd5b506102b86106b336600461336f565b612203565b3480156106c457600080fd5b506102556106d336600461338d565b612291565b6001600160e01b0319811660009081526020819052604090205460ff165b919050565b6000610706826122bf565b61072b5760405162461bcd60e51b8152600401610722906143c7565b60405180910390fd5b506000908152600e60205260409020546001600160a01b031690565b6004546001600160a01b0316634039ad0d6107606122dc565b6040518263ffffffff1660e01b815260040161077c919061417a565b60206040518083038186803b15801561079457600080fd5b505afa1580156107a8573d6000803e3d6000fd5b505050506040513d601f19601f820116820180604052506107cc9190810190613543565b6107e85760405162461bcd60e51b8152600401610722906143d7565b600254600160a01b900460ff16156107ff57600080fd5b600061080a82611271565b9050806001600160a01b0316836001600160a01b0316141561083e5760405162461bcd60e51b815260040161072290614407565b806001600160a01b03166108506122dc565b6001600160a01b0316148061086c575061086c816106d36122dc565b6108885760405162461bcd60e51b8152600401610722906143a7565b6000828152600e602052604080822080546001600160a01b0319166001600160a01b0387811691821790925591518593918516917f8c5be1e5ebec7d5bd14f71427d1e84f3dd0314c0f7b2291e5b200ac8c7c3b92591a4505050565b60035481565b60096020526000908152604090205463ffffffff1681565b600061090e60056122e0565b90505b90565b6004546000906001600160a01b031663aa271e1a6109306122dc565b6040518263ffffffff1660e01b815260040161094c919061417a565b60206040518083038186803b15801561096457600080fd5b505afa158015610978573d6000803e3d6000fd5b505050506040513d601f19601f8201168201806040525061099c9190810190613543565b6109b85760405162461bcd60e51b815260040161072290614497565b600254600160a01b900460ff16156109cf57600080fd5b6003543410156109de57600080fd5b60008263ffffffff1611610a045760405162461bcd60e51b8152600401610722906143e7565b610a10888787876122e4565b610a2c5760405162461bcd60e51b815260040161072290614427565b6000610a3e610a396122dc565b6123ec565b9050610a4f818a8a8a8a8a8a612408565b6000818152600960205260409020805463ffffffff851663ffffffff199091161790559050979650505050505050565b600254600160a01b900460ff1615610a9657600080fd5b6004805460405163f9ce6eab60e01b81526001600160a01b039091169163f9ce6eab91610ac9918791879187910161421c565b60206040518083038186803b158015610ae157600080fd5b505afa158015610af5573d6000803e3d6000fd5b505050506040513d601f19601f82011682018060405250610b199190810190613543565b610b355760405162461bcd60e51b815260040161072290614327565b610b46610b406122dc565b82612683565b610b625760405162461bcd60e51b815260040161072290614417565b600254600160a81b900460ff16610ba057610b7e838383612700565b15610b9b5760405162461bcd60e51b815260040161072290614387565b610c4f565b610bab838383612700565b15610c4f57600480546040516360c1c90f60e11b81526001600160a01b039091169163c183921e91610be3918791879187910161421c565b60206040518083038186803b158015610bfb57600080fd5b505afa158015610c0f573d6000803e3d6000fd5b505050506040513d601f19601f82011682018060405250610c339190810190613543565b610c4f5760405162461bcd60e51b8152600401610722906144a7565b610c5a8383836128e0565b505050565b60606001600160a01b038216610c875760405162461bcd60e51b815260040161072290614307565b6001600160a01b0382166000908152600860205260408120610ca8906122e0565b905080610cca5760408051600080825260208201909252905b509150506106f6565b606081604051908082528060200260200182016040528015610cf6578160200160208202803883390190505b5090506000610d03610902565b9050600060015b828111610d5a576000818152600a60205260409020546001600160a01b0388811691161415610d525780848381518110610d4057fe5b60209081029190910101526001909101905b600101610d0a565b83955050505050506106f6565b6004546000906001600160a01b031663aa271e1a610d836122dc565b6040518263ffffffff1660e01b8152600401610d9f919061417a565b60206040518083038186803b158015610db757600080fd5b505afa158015610dcb573d6000803e3d6000fd5b505050506040513d601f19601f82011682018060405250610def9190810190613543565b610e0b5760405162461bcd60e51b815260040161072290614497565b600254600160a01b900460ff1615610e2257600080fd5b600354341015610e3157600080fd5b60008363ffffffff1611610e575760405162461bcd60e51b8152600401610722906143e7565b610e63898888886122e4565b610e7f5760405162461bcd60e51b815260040161072290614427565b6000610e91610e8c6122dc565b6129e6565b9050610ea2818b8b8b8b8b8b612408565b610eac8184612ac5565b6000818152600960205260409020805463ffffffff861663ffffffff19909116179055905098975050505050505050565b6001546001600160a01b0316610ef16122dc565b6001600160a01b03161480610f2057506002546001600160a01b0316610f156122dc565b6001600160a01b0316145b610f3c5760405162461bcd60e51b815260040161072290614397565b600254600160a01b900460ff16610f5257600080fd5b6002805460ff60a01b19169055565b610c5a83838360405180602001604052806000815250611c08565b600254600160a01b900460ff1615610f9357600080fd5b610f9e610b406122dc565b610fba5760405162461bcd60e51b815260040161072290614477565b610fc381612b09565b50565b6004546000906001600160a01b031663aa271e1a610fe26122dc565b6040518263ffffffff1660e01b8152600401610ffe919061417a565b60206040518083038186803b15801561101657600080fd5b505afa15801561102a573d6000803e3d6000fd5b505050506040513d601f19601f8201168201806040525061104e9190810190613543565b61106a5760405162461bcd60e51b815260040161072290614497565b600254600160a01b900460ff161561108157600080fd5b60035434101561109057600080fd5b60008363ffffffff16116110b65760405162461bcd60e51b8152600401610722906143e7565b6110c2898888886122e4565b6110de5760405162461bcd60e51b815260040161072290614427565b60006110f16110eb6122dc565b84612b1b565b9050610eac818b8b8b8b8b8b612408565b6002546001600160a01b031681565b6001546001600160a01b03166111256122dc565b6001600160a01b0316148061115457506002546001600160a01b03166111496122dc565b6001600160a01b0316145b6111705760405162461bcd60e51b815260040161072290614397565b6002805460ff60a81b1916600160a81b179055565b600254600160a01b900460ff1681565b6001546001600160a01b03166111a96122dc565b6001600160a01b031614806111d857506002546001600160a01b03166111cd6122dc565b6001600160a01b0316145b6111f45760405162461bcd60e51b815260040161072290614397565b6040513031906000903390839061120a9061416f565b60006040518083038185875af1925050503d8060008114611247576040519150601f19603f3d011682016040523d82523d6000602084013e61124c565b606091505b505090508061126d5760405162461bcd60e51b8152600401610722906142f7565b5050565b6000908152600660205260409020546001600160a01b031690565b6004546000906001600160a01b031663aa271e1a6112a86122dc565b6040518263ffffffff1660e01b81526004016112c4919061417a565b60206040518083038186803b1580156112dc57600080fd5b505afa1580156112f0573d6000803e3d6000fd5b505050506040513d601f19601f820116820180604052506113149190810190613543565b6113305760405162461bcd60e51b815260040161072290614497565b600254600160a01b900460ff161561134757600080fd5b60035434101561135657600080fd5b60008263ffffffff161161137c5760405162461bcd60e51b8152600401610722906143e7565b611388888787876122e4565b6113a45760405162461bcd60e51b815260040161072290614427565b6000610a3e610e8c6122dc565b60006001600160a01b0382166113d95760405162461bcd60e51b815260040161072290614307565b6001600160a01b03821660009081526007602052604090206113fa906122e0565b92915050565b6001546001600160a01b031681565b6001600160a01b0383166000908152600b6020526040908190209051606091829161143d9086908690614156565b9081526020016040518091039020805480602002602001604051908101604052809291908181526020016000905b8282101561152257600084815260209081902060408051918501805460026001821615610100026000190190911604601f810185900485028401830183529383018481529293909284929091849184018282801561150a5780601f106114df5761010080835404028352916020019161150a565b820191906000526020600020905b8154815290600101906020018083116114ed57829003601f168201915b5050505050815250508152602001906001019061146b565b5050505090506060815160405190808252806020026020018201604052801561155f57816020015b606081526020019060019003908161154a5790505b50905060005b82518110156115a55782818151811061157a57fe5b60200260200101516000015182828151811061159257fe5b6020908102919091010152600101611565565b509150505b9392505050565b6004546001600160a01b031681565b6001546001600160a01b03166115d46122dc565b6001600160a01b0316148061160357506002546001600160a01b03166115f86122dc565b6001600160a01b0316145b61161f5760405162461bcd60e51b815260040161072290614397565b600355565b6001546001600160a01b03166116386122dc565b6001600160a01b0316148061166757506002546001600160a01b031661165c6122dc565b6001600160a01b0316145b6116835760405162461bcd60e51b815260040161072290614397565b600254600160a01b900460ff161561169a57600080fd5b6002805460ff60a01b1916600160a01b179055565b606060006116bc836113b1565b9050806116d9576040805160008082526020820190925290610cc1565b606081604051908082528060200260200182016040528015611705578160200160208202803883390190505b5090506000611712610902565b9050600060015b828111610d5a576000818152600660205260409020546001600160a01b0388811691161415611761578084838151811061174f57fe5b60209081029190910101526001909101905b600101611719565b6004546000906001600160a01b031663aa271e1a6117856122dc565b6040518263ffffffff1660e01b81526004016117a1919061417a565b60206040518083038186803b1580156117b957600080fd5b505afa1580156117cd573d6000803e3d6000fd5b505050506040513d601f19601f820116820180604052506117f19190810190613543565b61180d5760405162461bcd60e51b815260040161072290614497565b600254600160a01b900460ff161561182457600080fd5b60035434101561183357600080fd5b60008363ffffffff16116118595760405162461bcd60e51b8152600401610722906143e7565b611865898888886122e4565b6118815760405162461bcd60e51b815260040161072290614427565b6000610e91610a396122dc565b6004546001600160a01b0316634039ad0d6118a76122dc565b6040518263ffffffff1660e01b81526004016118c3919061417a565b60206040518083038186803b1580156118db57600080fd5b505afa1580156118ef573d6000803e3d6000fd5b505050506040513d601f19601f820116820180604052506119139190810190613543565b61192f5760405162461bcd60e51b8152600401610722906143d7565b600254600160a01b900460ff161561194657600080fd5b61194e6122dc565b6001600160a01b0316826001600160a01b0316141561197f5760405162461bcd60e51b815260040161072290614347565b80600f600061198c6122dc565b6001600160a01b03908116825260208083019390935260409182016000908120918716808252919093529120805460ff1916921515929092179091556119d06122dc565b6001600160a01b03167f17307eab39ab6107e8899845ad3d59bd9653f200f220920489ca2b5937696c3183604051611a0891906142aa565b60405180910390a35050565b6001600160a01b0381166000908152600c602090815260408083208054825181850281018501909352808352606094859484015b82821015611aff57600084815260209081902060408051918501805460026001821615610100026000190190911604601f8101859004850284018301835293830184815292939092849290918491840182828015611ae75780601f10611abc57610100808354040283529160200191611ae7565b820191906000526020600020905b815481529060010190602001808311611aca57829003601f168201915b50505050508152505081526020019060010190611a48565b50505050905060608151604051908082528060200260200182016040528015611b3c57816020015b6060815260200190600190039081611b275790505b50905060005b8251811015611b8257828181518110611b5757fe5b602002602001015160000151828281518110611b6f57fe5b6020908102919091010152600101611b42565b509392505050565b600254600160a81b900460ff1681565b6001546001600160a01b0316611bae6122dc565b6001600160a01b03161480611bdd57506002546001600160a01b0316611bd26122dc565b6001600160a01b0316145b611bf95760405162461bcd60e51b815260040161072290614397565b6002805460ff60a81b19169055565b600254600160a01b900460ff1615611c1f57600080fd5b6004805460405163f9ce6eab60e01b81526001600160a01b039091169163f9ce6eab91611c52918891889188910161421c565b60206040518083038186803b158015611c6a57600080fd5b505afa158015611c7e573d6000803e3d6000fd5b505050506040513d601f19601f82011682018060405250611ca29190810190613543565b611cbe5760405162461bcd60e51b815260040161072290614467565b611ccf611cc96122dc565b83612683565b611ceb5760405162461bcd60e51b815260040161072290614417565b600254600160a81b900460ff16611d2957611d07848484612700565b15611d245760405162461bcd60e51b815260040161072290614387565b611dd8565b611d34848484612700565b15611dd857600480546040516360c1c90f60e11b81526001600160a01b039091169163c183921e91611d6c918891889188910161421c565b60206040518083038186803b158015611d8457600080fd5b505afa158015611d98573d6000803e3d6000fd5b505050506040513d601f19601f82011682018060405250611dbc9190810190613543565b611dd85760405162461bcd60e51b8152600401610722906144a7565b611de484848484612b52565b50505050565b6001546001600160a01b0316611dfe6122dc565b6001600160a01b03161480611e2d57506002546001600160a01b0316611e226122dc565b6001600160a01b0316145b611e495760405162461bcd60e51b815260040161072290614397565b600480546001600160a01b0319166001600160a01b0392909216919091179055565b6060611e76826122bf565b611e925760405162461bcd60e51b815260040161072290614487565b6000828152600d602090815260409182902080548351601f600260001961010060018616150201909316929092049182018490048402810184019094528084529091830182828015611f255780601f10611efa57610100808354040283529160200191611f25565b820191906000526020600020905b815481529060010190602001808311611f0857829003601f168201915b50505050509050919050565b6001546001600160a01b0316611f456122dc565b6001600160a01b03161480611f7457506002546001600160a01b0316611f696122dc565b6001600160a01b0316145b611f905760405162461bcd60e51b815260040161072290614397565b6001600160a01b03811615610fc357600280546001600160a01b0383166001600160a01b031990911617905550565b6000806060806000806000806000611fd68a6122bf565b611ff25760405162461bcd60e51b8152600401610722906142d7565b611ffa61315a565b60008b8152600a6020908152604091829020825160e08101845281546001600160a01b03168152600180830180548651600261010094831615949094026000190190911692909204601f81018690048602830186019096528582529194929385810193919291908301828280156120b25780601f10612087576101008083540402835291602001916120b2565b820191906000526020600020905b81548152906001019060200180831161209557829003601f168201915b5050509183525050600282810180546040805160206001841615610100026000190190931694909404601f810183900483028501830190915280845293810193908301828280156121445780601f1061211957610100808354040283529160200191612144565b820191906000526020600020905b81548152906001019060200180831161212757829003601f168201915b50505091835250506003919091015465ffffffffffff808216602080850191909152600160301b83048216604080860191909152600160601b84049092166060850152600160901b90920461ffff1660809093019290925260008e815260099091522054815191925063ffffffff16906121bd8d611271565b83602001518460400151856060015186608001518760a001518860c00151888696508595509a509a509a509a509a509a509a509a509a5050509193959799909294969850565b6001546001600160a01b03166122176122dc565b6001600160a01b0316148061224657506002546001600160a01b031661223b6122dc565b6001600160a01b0316145b6122625760405162461bcd60e51b815260040161072290614397565b6001600160a01b03811615610fc357600180546001600160a01b0383166001600160a01b031990911617905550565b6001600160a01b039182166000908152600f6020908152604080832093909416825291909152205460ff1690565b6000908152600660205260409020546001600160a01b0316151590565b3390565b5490565b600480546040516323dd3a3d60e11b81526000926001600160a01b03909216916347ba747a91612316918991016142c6565b60206040518083038186803b15801561232e57600080fd5b505afa158015612342573d6000803e3d6000fd5b505050506040513d601f19601f820116820180604052506123669190810190613543565b6123825760405162461bcd60e51b815260040161072290614377565b8165ffffffffffff168465ffffffffffff16116123b15760405162461bcd60e51b815260040161072290614357565b8365ffffffffffff168365ffffffffffff16116123e05760405162461bcd60e51b815260040161072290614317565b5060015b949350505050565b6000806115aa8360405180602001604052806000815250612b1b565b612411876122bf565b61242d5760405162461bcd60e51b815260040161072290614457565b61243561315a565b6040518060e001604052806124486122dc565b6001600160a01b03908116825260208083018b905260408084018b905265ffffffffffff8a811660608601528981166080860152881660a085015261ffff871660c09094019390935260008c8152600a825292909220835181546001600160a01b0319169216919091178155828201518051939450849391926124d392600185019290910190613197565b50604082015180516124ef916002840191602090910190613197565b50606082015160039091018054608084015160a085015160c09095015161ffff16600160901b0261ffff60901b1965ffffffffffff968716600160601b0265ffffffffffff60601b19938816600160301b026bffffffffffff000000000000199890971665ffffffffffff1990951694909417969096169490941716179290921617905561257c87612b85565b6125e557600c600061258c6122dc565b6001600160a01b031681526020808201929092526040908101600090812082518085019093528a83528054600181018083559183529184902083518051929591909301926125e09284929190910190613197565b505050505b6125ef8787612cb0565b61267957600b60006125ff6122dc565b6001600160a01b03166001600160a01b031681526020019081526020016000208760405161262d9190614163565b908152604080519182900360209081018320838201909252888352815460018101808455600093845292829020845180519495949190920192612674928492910190613197565b505050505b5050505050505050565b600061268e826122bf565b6126aa5760405162461bcd60e51b815260040161072290614367565b60006126b583611271565b9050806001600160a01b0316846001600160a01b031614806126f05750836001600160a01b03166126e5846106fb565b6001600160a01b0316145b806123e457506123e48185612291565b600061270a61315a565b6000838152600a6020908152604091829020825160e08101845281546001600160a01b03168152600180830180548651600261010094831615949094026000190190911692909204601f81018690048602830186019096528582529194929385810193919291908301828280156127c25780601f10612797576101008083540402835291602001916127c2565b820191906000526020600020905b8154815290600101906020018083116127a557829003601f168201915b5050509183525050600282810180546040805160206001841615610100026000190190931694909404601f810183900483028501830190915280845293810193908301828280156128545780601f1061282957610100808354040283529160200191612854565b820191906000526020600020905b81548152906001019060200180831161283757829003601f168201915b50505091835250506003919091015465ffffffffffff8082166020840152600160301b820481166040840152600160601b820416606083015261ffff600160901b9091041660809091015280519091506001600160a01b03868116911614156128c15760009150506115aa565b80516001600160a01b03858116911614156123e05760009150506115aa565b826001600160a01b03166128f382611271565b6001600160a01b0316146129195760405162461bcd60e51b8152600401610722906143f7565b6001600160a01b03821661293f5760405162461bcd60e51b815260040161072290614337565b61294881612df7565b6001600160a01b038316600090815260076020526040902061296990612e32565b6001600160a01b038216600090815260076020526040902061298a90612e49565b60008181526006602052604080822080546001600160a01b0319166001600160a01b0386811691821790925591518493918716917fddf252ad1be2c89b69c2b068fc378daa952ba7f163c4a11628f55a4df523b3ef91a4505050565b60006001600160a01b038216612a0e5760405162461bcd60e51b8152600401610722906143b7565b612a186005612e49565b6000612a2460056122e0565b600081815260066020908152604080832080546001600160a01b0319166001600160a01b038916908117909155835260079091529020909150612a6690612e49565b6001600160a01b0383166000908152600860205260409020612a8790612e49565b60405181906001600160a01b038516906000907fddf252ad1be2c89b69c2b068fc378daa952ba7f163c4a11628f55a4df523b3ef908290a492915050565b612ace826122bf565b612aea5760405162461bcd60e51b815260040161072290614447565b6000828152600d602090815260409091208251610c5a92840190613197565b610fc3612b1582611271565b82612e52565b600080612b27846129e6565b9050612b366000858386612f91565b6115aa5760405162461bcd60e51b8152600401610722906142e7565b612b5d8484846128e0565b612b6984848484612f91565b611de45760405162461bcd60e51b8152600401610722906142e7565b336000908152600c602090815260408083208054825181850281018501909352808352606093859084015b82821015612c6757600084815260209081902060408051918501805460026001821615610100026000190190911604601f8101859004850284018301835293830184815292939092849290918491840182828015612c4f5780601f10612c2457610100808354040283529160200191612c4f565b820191906000526020600020905b815481529060010190602001808311612c3257829003601f168201915b50505050508152505081526020019060010190612bb0565b5092935060009250829150505b8251811015611b8257612c9e85848381518110612c8d57fe5b60200260200101516000015161305c565b15612ca857600191505b600101612c74565b336000908152600b6020526040808220905160609190612cd1908690614163565b9081526020016040518091039020805480602002602001604051908101604052809291908181526020016000905b82821015612db657600084815260209081902060408051918501805460026001821615610100026000190190911604601f8101859004850284018301835293830184815292939092849290918491840182828015612d9e5780601f10612d7357610100808354040283529160200191612d9e565b820191906000526020600020905b815481529060010190602001808311612d8157829003601f168201915b50505050508152505081526020019060010190612cff565b5092935060009250829150505b8251811015612dee57612ddc85848381518110612c8d57fe5b15612de657600191505b600101612dc3565b50949350505050565b6000818152600e60205260409020546001600160a01b031615610fc3576000908152600e6020526040902080546001600160a01b0319169055565b8054612e4590600163ffffffff6130b516565b9055565b80546001019055565b816001600160a01b0316612e6582611271565b6001600160a01b031614612e8b5760405162461bcd60e51b815260040161072290614437565b612e9481612df7565b6001600160a01b0382166000908152600760205260409020612eb590612e32565b600081815260066020908152604080832080546001600160a01b0319169055600d9091529020546002600019600183161561010002019091160415612f0b576000818152600d60205260408120612f0b91613215565b6000818152600a6020526040812080546001600160a01b031916815590612f356001830182613215565b612f43600283016000613215565b5060030180546001600160a01b031916905560405181906000906001600160a01b038516907fddf252ad1be2c89b69c2b068fc378daa952ba7f163c4a11628f55a4df523b3ef908390a45050565b6000612fa5846001600160a01b03166130f7565b612fb1575060016123e4565b6000846001600160a01b031663150b7a02612fca6122dc565b8887876040518563ffffffff1660e01b8152600401612fec9493929190614244565b602060405180830381600087803b15801561300657600080fd5b505af115801561301a573d6000803e3d6000fd5b505050506040513d601f19601f8201168201806040525061303e919081019061357f565b6001600160e01b031916630a85bd0160e11b14915050949350505050565b60008160405160200161306f9190614163565b60405160208183030381529060405280519060200120836040516020016130969190614163565b6040516020818303038152906040528051906020012014905092915050565b60006115aa83836040518060400160405280601e81526020017f536166654d6174683a207375627472616374696f6e206f766572666c6f77000081525061312e565b6000813f7fc5d2460186f7233c927e7db2dcc703c0e500b653ca82273b7bfad8045d85a47081158015906123e45750141592915050565b600081848411156131525760405162461bcd60e51b815260040161072291906142c6565b505050900390565b6040805160e08101825260008082526060602083018190529282018390529181018290526080810182905260a0810182905260c081019190915290565b828054600181600116156101000203166002900490600052602060002090601f016020900481019282601f106131d857805160ff1916838001178555613205565b82800160010185558215613205579182015b828111156132055782518255916020019190600101906131ea565b50613211929150613255565b5090565b50805460018160011615610100020316600290046000825580601f1061323b5750610fc3565b601f016020900490600052602060002090810190610fc391905b61091191905b80821115613211576000815560010161325b565b80356113fa816145c6565b80356113fa816145da565b80516113fa816145da565b80356113fa816145e3565b80516113fa816145e3565b600082601f8301126132b757600080fd5b81356132ca6132c5826144fa565b6144d3565b915080825260208301602083018583830111156132e657600080fd5b6132f1838284614584565b50505092915050565b60008083601f84011261330c57600080fd5b50813567ffffffffffffffff81111561332457600080fd5b60208301915083600182028301111561333c57600080fd5b9250929050565b80356113fa816145ec565b80356113fa816145f5565b80356113fa816145fe565b80356113fa81614607565b60006020828403121561338157600080fd5b60006123e4848461326f565b600080604083850312156133a057600080fd5b60006133ac858561326f565b92505060206133bd8582860161326f565b9150509250929050565b6000806000606084860312156133dc57600080fd5b60006133e8868661326f565b93505060206133f98682870161326f565b925050604061340a8682870161334e565b9150509250925092565b6000806000806080858703121561342a57600080fd5b6000613436878761326f565b94505060206134478782880161326f565b93505060406134588782880161334e565b925050606085013567ffffffffffffffff81111561347557600080fd5b613481878288016132a6565b91505092959194509250565b600080604083850312156134a057600080fd5b60006134ac858561326f565b92505060206133bd8582860161327a565b6000806000604084860312156134d257600080fd5b60006134de868661326f565b935050602084013567ffffffffffffffff8111156134fb57600080fd5b613507868287016132fa565b92509250509250925092565b6000806040838503121561352657600080fd5b6000613532858561326f565b92505060206133bd8582860161334e565b60006020828403121561355557600080fd5b60006123e48484613285565b60006020828403121561357357600080fd5b60006123e48484613290565b60006020828403121561359157600080fd5b60006123e4848461329b565b600080600080600080600060e0888a0312156135b857600080fd5b873567ffffffffffffffff8111156135cf57600080fd5b6135db8a828b016132a6565b975050602088013567ffffffffffffffff8111156135f857600080fd5b6136048a828b016132a6565b96505060406136158a828b01613364565b95505060606136268a828b01613364565b94505060806136378a828b01613364565b93505060a06136488a828b01613343565b92505060c06136598a828b01613359565b91505092959891949750929550565b600080600080600080600080610100898b03121561368557600080fd5b883567ffffffffffffffff81111561369c57600080fd5b6136a88b828c016132a6565b985050602089013567ffffffffffffffff8111156136c557600080fd5b6136d18b828c016132a6565b97505060406136e28b828c01613364565b96505060606136f38b828c01613364565b95505060806137048b828c01613364565b94505060a06137158b828c01613343565b93505060c06137268b828c01613359565b92505060e089013567ffffffffffffffff81111561374357600080fd5b61374f8b828c016132a6565b9150509295985092959890939650565b60006020828403121561377157600080fd5b60006123e4848461334e565b60006115aa838361387c565b6000613795838361413b565b505060200190565b6137a681614535565b82525050565b60006137b782614528565b6137c1818561452c565b9350836020820285016137d385614522565b8060005b8581101561380d57848403895281516137f0858261377d565b94506137fb83614522565b60209a909a01999250506001016137d7565b5091979650505050505050565b600061382582614528565b61382f818561452c565b935061383a83614522565b8060005b838110156138685781516138528882613789565b975061385d83614522565b92505060010161383e565b509495945050505050565b6137a681614540565b600061388782614528565b613891818561452c565b93506138a1818560208601614590565b6138aa816145bc565b9093019392505050565b6137a681614579565b60006138c983856106f6565b93506138d6838584614584565b50500190565b60006138e782614528565b6138f181856106f6565b9350613901818560208601614590565b9290920192915050565b6000613918601d8361452c565b7f4552433732313a204e6f6e2d6578697374656e7420546f6b656e204944000000815260200192915050565b600061395160328361452c565b7f4552433732313a207472616e7366657220746f206e6f6e20455243373231526581527131b2b4bb32b91034b6b83632b6b2b73a32b960711b602082015260400192915050565b60006139a5600f8361452c565b6e15da5d1a191c985dc819985a5b1959608a1b815260200192915050565b60006139d060258361452c565b7f4552433732313a2063616e6e6f7420717565727920746865207a65726f206164815264647265737360d81b602082015260400192915050565b6000613a17602a8361452c565b7f4552433732313a2073746172742074696d65206d757374206265206265666f728152696520656e642074696d6560b01b602082015260400192915050565b6000613a63601c8361452c565b7f4552433732313a20756e6174686f72697a6564207472616e7366657200000000815260200192915050565b6000613a9c60248361452c565b7f4552433732313a207472616e7366657220746f20746865207a65726f206164648152637265737360e01b602082015260400192915050565b6000613ae260198361452c565b7f4552433732313a20617070726f766520746f2063616c6c657200000000000000815260200192915050565b6000613b1b60358361452c565b7f4552433732313a2073746172742074696d65206d757374206265206166746572815274206974732061756374696f6e20656e642074696d6560581b602082015260400192915050565b6000613b72602c8361452c565b7f4552433732313a206f70657261746f7220717565727920666f72206e6f6e657881526b34b9ba32b73a103a37b5b2b760a11b602082015260400192915050565b6000613bc0602e8361452c565b7f4552433732313a20636f6e74656e74206964206973206e6f742072656769737481526d32b932b2103a379031b0b63632b960911b602082015260400192915050565b6000613c10602f8361452c565b7f4552433732313a20746f6b656e20726573616c6520697320726573747269637481526e656420617420746869732074696d6560881b602082015260400192915050565b6000613c61601b8361452c565b7f4552433732313a204f4e4c595f434f4e54524143545f4f574e45520000000000815260200192915050565b6000613c9a603e8361452c565b7f4552433732313a20617070726f76652063616c6c6572206973206e6f7420746f81527f6b656e206f776e6572206e6f7220617070726f76656420666f7220616c6c0000602082015260400192915050565b6000613cf960208361452c565b7f4552433732313a206d696e7420746f20746865207a65726f2061646472657373815260200192915050565b6000613d32602c8361452c565b7f4552433732313a20617070726f76656420717565727920666f72206e6f6e657881526b34b9ba32b73a103a37b5b2b760a11b602082015260400192915050565b6000613d8060348361452c565b7f4552433732313a2063616c6c6572206973206e6f7420617574686f72697a656481527320666f72207468652054726164657220726f6c6560601b602082015260400192915050565b6000613dd660158361452c565b741253959053125117d19151115490551253d397d251605a1b815260200192915050565b6000613e0760298361452c565b7f4552433732313a207472616e73666572206f6620746f6b656e2074686174206981526839903737ba1037bbb760b91b602082015260400192915050565b6000613e52601d8361452c565b7f4552433732313a20617070726f76616c20697320726564756e64616e74000000815260200192915050565b60006113fa6000836106f6565b6000613e9860318361452c565b7f4552433732313a207472616e736665722063616c6c6572206973206e6f74206f8152701ddb995c881b9bdc88185c1c1c9bdd9959607a1b602082015260400192915050565b6000613eeb60118361452c565b701253959053125117d512535157d4d313d5607a1b815260200192915050565b6000613f1860258361452c565b7f4552433732313a206275726e206f6620746f6b656e2074686174206973206e6f8152643a1037bbb760d91b602082015260400192915050565b6000613f5f60248361452c565b7f4552433732313a2055524920736574206f66206e6f6e6578697374656e74207481526337b5b2b760e11b602082015260400192915050565b6000613fa5601a8361452c565b7f4552433732313a206e6f6e2d6578697374656e7420746f6b656e000000000000815260200192915050565b6000613fde601d8361452c565b7f4552433732313a20756e617574686f72697a6564207472616e73666572000000815260200192915050565b6000614017602e8361452c565b7f4552433732313a2063616c6c6572206973206e6f7420746f6b656e206f776e6581526d1c881b9bdc88185c1c1c9bdd995960921b602082015260400192915050565b600061406760278361452c565b7f4552433732313a2055524920717565727920666f72206e6f6e6578697374656e8152663a103a37b5b2b760c91b602082015260400192915050565b60006140b060348361452c565b7f4552433732313a2063616c6c6572206973206e6f7420617574686f72697a656481527320666f7220746865204d696e74657220726f6c6560601b602082015260400192915050565b6000614106601b8361452c565b7f4552433732313a20756e617574686f72697a656420726573616c650000000000815260200192915050565b6137a681614552565b6137a681610911565b6137a681614565565b6137a68161456e565b60006123e48284866138bd565b60006115aa82846138dc565b60006113fa82613e7e565b602081016113fa828461379d565b6101208101614197828c61379d565b6141a4602083018b61379d565b81810360408301526141b6818a61387c565b905081810360608301526141ca818961387c565b90506141d9608083018861414d565b6141e660a083018761414d565b6141f360c083018661414d565b61420060e0830185614132565b61420e610100830184614144565b9a9950505050505050505050565b6060810161422a828661379d565b614237602083018561379d565b6123e4604083018461413b565b60808101614252828761379d565b61425f602083018661379d565b61426c604083018561413b565b818103606083015261427e818461387c565b9695505050505050565b602080825281016115aa81846137ac565b602080825281016115aa818461381a565b602081016113fa8284613873565b602081016113fa82846138b4565b602080825281016115aa818461387c565b602080825281016113fa8161390b565b602080825281016113fa81613944565b602080825281016113fa81613998565b602080825281016113fa816139c3565b602080825281016113fa81613a0a565b602080825281016113fa81613a56565b602080825281016113fa81613a8f565b602080825281016113fa81613ad5565b602080825281016113fa81613b0e565b602080825281016113fa81613b65565b602080825281016113fa81613bb3565b602080825281016113fa81613c03565b602080825281016113fa81613c54565b602080825281016113fa81613c8d565b602080825281016113fa81613cec565b602080825281016113fa81613d25565b602080825281016113fa81613d73565b602080825281016113fa81613dc9565b602080825281016113fa81613dfa565b602080825281016113fa81613e45565b602080825281016113fa81613e8b565b602080825281016113fa81613ede565b602080825281016113fa81613f0b565b602080825281016113fa81613f52565b602080825281016113fa81613f98565b602080825281016113fa81613fd1565b602080825281016113fa8161400a565b602080825281016113fa8161405a565b602080825281016113fa816140a3565b602080825281016113fa816140f9565b602081016113fa828461413b565b602081016113fa8284614144565b60405181810167ffffffffffffffff811182821017156144f257600080fd5b604052919050565b600067ffffffffffffffff82111561451157600080fd5b506020601f91909101601f19160190565b60200190565b5190565b90815260200190565b60006113fa82614559565b151590565b6001600160e01b03191690565b61ffff1690565b6001600160a01b031690565b63ffffffff1690565b65ffffffffffff1690565b60006113fa82614535565b82818337506000910152565b60005b838110156145ab578181015183820152602001614593565b83811115611de45750506000910152565b601f01601f191690565b6145cf81614535565b8114610fc357600080fd5b6145cf81614540565b6145cf81614545565b6145cf81614552565b6145cf81610911565b6145cf81614565565b6145cf8161456e56fea365627a7a723158208d65ad4c7956520917243a1b580a1bba5dc8d399fd04ad8a9883851d2d80c3b96c6578706572696d656e74616cf564736f6c634300050b0040",
  "source": "pragma solidity ^0.5.11;\npragma experimental ABIEncoderV2;\n\n/**\n * @title ERC721 Customized for Microsponsors from:\n * https://github.com/OpenZeppelin/openzeppelin-contracts/blob/master/contracts/token/ERC721/ERC721MetadataMintable.sol\n */\n\nimport \"./IERC721.sol\";\nimport \"./IERC721Receiver.sol\";\nimport \"./SafeMath.sol\";\nimport \"./Address.sol\";\nimport \"./Counters.sol\";\nimport \"./ERC165.sol\";\n\n\n/**\n * @title Deployed Microsponsors Registry smart contract interface.\n * @dev We just use the signatures of the parts we need to interact with:\n */\ncontract DeployedRegistry {\n    function isContentIdRegisteredToCaller(string memory contentId) public view returns(bool);\n    function isMinter(address account) public view returns (bool);\n    function isTrader(address account) public view returns(bool);\n    function isAuthorizedTransferFrom(address from, address to, uint256 tokenId) public view returns(bool);\n    function isAuthorizedResale(address from, address to, uint256 tokenId) public view returns(bool);\n}\n\n\n/**\n * @title ERC721 Non-Fungible Token Standard basic implementation\n * @dev see https://eips.ethereum.org/EIPS/eip-721\n */\ncontract ERC721 is ERC165, IERC721 {\n    using SafeMath for uint256;\n    using Address for address;\n    using Counters for Counters.Counter;\n\n\n    /***  Contract data  ***/\n\n\n    /// @dev owner1, owner2 Admins of this contract.\n    address public owner1;\n    address public owner2;\n\n    /// @dev paused Admin only. Set to `true` to stop token minting and transfers.\n    bool public paused = false;\n\n    /// @dev isGlobalResaleEnabled Admin only. When false, token purchasers cannot resell tokens.\n    bool public isGlobalResaleEnabled = false;\n\n    /// @dev mintFee Admin only. Set minting fee; default fee is below (in wei).\n    uint256 public mintFee = 100000000000000;\n\n    /// @dev DeployedRegistry The Microsponsors Registry Contract that verifies participants.\n    ///      Admin can update the contract address here to upgrade Registry.\n    DeployedRegistry public registry;\n\n    /// @title _tokenIds All Token IDs minted, incremented starting at 1\n    Counters.Counter _tokenIds;\n\n    /// @dev _tokenOwner mapping from Token ID to Token Owner\n    mapping (uint256 => address) private _tokenOwner;\n\n    /// @dev _ownedTokensCount mapping from Token Owner to # of owned tokens\n    mapping (address => Counters.Counter) private _ownedTokensCount;\n\n    /// @dev _mintedTokensCount mapping from Token Minter to # of minted tokens\n    mapping (address => Counters.Counter) private _mintedTokensCount;\n\n    /// @dev tokenToFederationId see notes on path to federation in Microsponsors Registry contract\n    mapping (uint256 => uint32) public tokenToFederationId;\n\n    /// @dev TimeSlot metadata struct for each token\n    ///      TimeSlots timestamps are stored as uint48:\n    ///      https://medium.com/@novablitz/storing-structs-is-costing-you-gas-774da988895e\n    struct TimeSlot {\n        address minter; // the address of the user who mint()'ed this time slot\n        string contentId; // the users' registered contentId containing the Property\n        string propertyName; // describes the Property within the contentId that is tokenized into time slots\n        uint48 startTime; // min timestamp (when time slot begins)\n        uint48 endTime; // max timestamp (when time slot ends)\n        uint48 auctionEndTime; // max timestamp (when auction for time slot ends)\n        uint16 category; // integer that represents the category (see Microsponsors utils.js)\n    }\n    /// @dev _tokenToTimeSlot mapping from Token ID to TimeSlot struct\n    mapping(uint256 => TimeSlot) private _tokenToTimeSlot;\n\n    /// @dev PropertyNameStruct: name of the time slot\n    struct PropertyNameStruct {\n        string propertyName;\n    }\n    /// @dev _tokenMinterToPropertyName mapping from Minter => Content ID => array of Property Names\n    ///      Used to display all tokenized Time Slots on a given Property.\n    ///      Using struct because there is no mapping to a dynamic array of bytes32 in Solidity at this time.\n    mapping(address => mapping(string => PropertyNameStruct[])) private _tokenMinterToPropertyNames;\n\n    /// @dev ContentIdStruct The registered Content ID, verified by Registry contract\n    struct ContentIdStruct {\n        string contentId;\n    }\n    /// @dev _tokenMinterToContentIds Mapping from Token Minter to array of Content IDs\n    ///      that they have *ever* minted tokens for\n    mapping(address => ContentIdStruct[]) private _tokenMinterToContentIds;\n\n    /// @dev _tokenURIs Mapping from Token ID to Token URIs\n    mapping(uint256 => string) private _tokenURIs;\n\n    /// @dev _tokenApprovals Mapping from Token ID to Approved Address\n    mapping (uint256 => address) private _tokenApprovals;\n\n    /// @dev _operatorApprovals Mapping from Token Owner to Operator Approvals\n    mapping (address => mapping (address => bool)) private _operatorApprovals;\n\n    /*\n     *     bytes4(keccak256('balanceOf(address)')) == 0x70a08231\n     *     bytes4(keccak256('ownerOf(uint256)')) == 0x6352211e\n     *     bytes4(keccak256('approve(address,uint256)')) == 0x095ea7b3\n     *     bytes4(keccak256('getApproved(uint256)')) == 0x081812fc\n     *     bytes4(keccak256('setApprovalForAll(address,bool)')) == 0xa22cb465\n     *     bytes4(keccak256('isApprovedForAll(address,address)')) == 0xe985e9c5\n     *     bytes4(keccak256('transferFrom(address,address,uint256)')) == 0x23b872dd\n     *     bytes4(keccak256('safeTransferFrom(address,address,uint256)')) == 0x42842e0e\n     *     bytes4(keccak256('safeTransferFrom(address,address,uint256,bytes)')) == 0xb88d4fde\n     *\n     *     => 0x70a08231 ^ 0x6352211e ^ 0x095ea7b3 ^ 0x081812fc ^\n     *        0xa22cb465 ^ 0xe985e9c ^ 0x23b872dd ^ 0x42842e0e ^ 0xb88d4fde == 0x80ac58cd\n     */\n    bytes4 private constant _INTERFACE_ID_ERC721 = 0x80ac58cd;\n\n    // @dev Equals to `bytes4(keccak256(\"onERC721Received(address,address,uint256,bytes)\"))`\n    // which can be also obtained as `IERC721Receiver(0).onERC721Received.selector`\n    bytes4 private constant _ERC721_RECEIVED = 0x150b7a02;\n\n\n    constructor () public {\n\n        // Register the supported interfaces to conform to ERC721 via ERC165\n        _registerInterface(_INTERFACE_ID_ERC721);\n\n        // Set the contract owners to msg.sender by default\n        owner1 = _msgSender();\n        owner2 = _msgSender();\n\n    }\n\n\n    /**\n     * @dev Provides information about the current execution context, including the\n     * sender of the transaction and its data. While these are generally available\n     * via msg.sender and msg.data, they not should not be accessed in such a direct\n     * manner, since when dealing with GSN meta-transactions the account sending and\n     * paying for execution may not be the actual sender (as far as an application\n     * is concerned).\n     */\n\n    function _msgSender() internal view returns (address) {\n\n        return msg.sender;\n\n    }\n\n    function _msgData() internal view returns (bytes memory) {\n\n        this; // silence state mutability warning without generating bytecode -\n              // see https://github.com/ethereum/solidity/issues/2691\n        return msg.data;\n\n    }\n\n\n    /***  Owner (Administrator) functions  ***/\n\n\n    /**\n     * @dev Sets the contract's owner (administrator)\n     * Based on 0x's Ownable, but modified here\n     */\n    modifier onlyOwner() {\n        require(\n            (_msgSender() == owner1) || (_msgSender() == owner2),\n            \"ERC721: ONLY_CONTRACT_OWNER\"\n        );\n        _;\n    }\n\n    /**\n     * @dev Transfer owner (admin) functions to another address\n     * @param newOwner Address of new owner/ admin of contract\n     */\n    function transferOwnership1(address newOwner)\n        public\n        onlyOwner\n    {\n        if (newOwner != address(0)) {\n            owner1 = newOwner;\n        }\n    }\n\n\n    function transferOwnership2(address newOwner)\n        public\n        onlyOwner\n    {\n        if (newOwner != address(0)) {\n            owner2 = newOwner;\n        }\n    }\n\n    /**\n     * @dev Update contract address for Microsponsors Registry contract\n     * @param newAddress where the Registry contract lives\n     */\n    function updateRegistryAddress(address newAddress)\n        public\n        onlyOwner\n    {\n        registry = DeployedRegistry(newAddress);\n    }\n\n    /**\n     * @dev Update the fee (in wei) charged for minting a single token\n     */\n    function updateMintFee(uint256 val)\n        public\n        onlyOwner\n    {\n\n        mintFee = val;\n\n    }\n\n    /// @dev Called by contract owner to enable token transfer (resale) by buyer.\n    function enableGlobalResale() public onlyOwner {\n        isGlobalResaleEnabled = true;\n    }\n\n    /// @dev Called by contract owner to disable token tranfer (resale) by buyer.\n    function disableGlobalResale() public onlyOwner {\n        isGlobalResaleEnabled = false;\n    }\n\n\n    /// @dev Pausable (adapted from OpenZeppelin via Cryptokitties)\n    /// @dev Modifier to allow actions only when the contract IS NOT paused\n    modifier whenNotPaused() {\n        require(!paused);\n        _;\n    }\n\n    /// @dev Modifier to allow actions only when the contract IS paused\n    modifier whenPaused {\n        require(paused);\n        _;\n    }\n\n    /// @dev Called by contract owner to pause minting and transfers.\n    function pause() public onlyOwner whenNotPaused {\n        paused = true;\n    }\n\n    /// @dev Called by contract owner to unpause minting and transfers.\n    function unpause() public onlyOwner whenPaused {\n        paused = false;\n    }\n\n    /// @dev Admin withdraws entire balance from contract.\n    function withdrawBalance() external onlyOwner {\n\n        // Ref: https://diligence.consensys.net/blog/2019/09/stop-using-soliditys-transfer-now/\n        uint balance = address(this).balance;\n        (bool success, ) = msg.sender.call.value(balance)(\"\");\n        require(success, \"Withdraw failed\");\n\n    }\n\n\n    /***  User account permission modifiers  ***/\n\n\n    /**\n     * @dev Checks if caller isMinter(),\n     *      throws with error message and refunds gas if not\n     */\n    modifier onlyMinter() {\n\n        require(\n            registry.isMinter(_msgSender()),\n            \"ERC721: caller is not authorized for the Minter role\"\n        );\n        _;\n\n    }\n\n    /**\n     * @dev Checks if caller isTrader()\n     *      throws with error message and refunds gas if not\n     */\n    modifier onlyTrader() {\n\n        require(\n            registry.isTrader(_msgSender()),\n            \"ERC721: caller is not authorized for the Trader role\"\n        );\n        _;\n\n    }\n\n\n    /***  Minting tokens  ***/\n\n\n    /**\n     * @dev Function to mint tokens.\n     * @return tokenId\n     */\n    function mint(\n        string memory contentId,\n        string memory propertyName,\n        uint48 startTime,\n        uint48 endTime,\n        uint48 auctionEndTime,\n        uint16 category,\n        uint32 federationId\n    )\n        public\n        payable\n        onlyMinter\n        whenNotPaused\n        returns (uint256)\n    {\n\n        require(msg.value >= mintFee);\n\n        require(federationId > 0, \"INVALID_FEDERATION_ID\");\n\n        require(\n            _isValidTimeSlot(contentId, startTime, endTime, auctionEndTime),\n            \"INVALID_TIME_SLOT\"\n        );\n\n        uint256 tokenId = _mint(_msgSender());\n        _setTokenTimeSlot(tokenId, contentId, propertyName, startTime, endTime, auctionEndTime, category);\n        tokenToFederationId[tokenId] = federationId;\n\n        return tokenId;\n\n    }\n\n    /**\n     * @dev Function to mint tokens.\n     * @param tokenURI The token URI of the minted token.\n     * @return tokenId\n     */\n    function mintWithTokenURI(\n        string memory contentId,\n        string memory propertyName,\n        uint48 startTime,\n        uint48 endTime,\n        uint48 auctionEndTime,\n        uint16 category,\n        uint32 federationId,\n        string memory tokenURI\n    )\n        public\n        payable\n        onlyMinter\n        whenNotPaused\n        returns (uint256)\n    {\n\n        require(msg.value >= mintFee);\n\n        require(federationId > 0, \"INVALID_FEDERATION_ID\");\n\n        require(\n            _isValidTimeSlot(contentId, startTime, endTime, auctionEndTime),\n            \"INVALID_TIME_SLOT\"\n        );\n\n        uint256 tokenId = _mint(_msgSender());\n        _setTokenTimeSlot(tokenId, contentId, propertyName, startTime, endTime, auctionEndTime, category);\n        _setTokenURI(tokenId, tokenURI);\n        tokenToFederationId[tokenId] = federationId;\n\n        return tokenId;\n\n    }\n\n    /**\n     * @dev Function to safely mint tokens.\n     * @return tokenId\n     */\n    function safeMint(\n        string memory contentId,\n        string memory propertyName,\n        uint48 startTime,\n        uint48 endTime,\n        uint48 auctionEndTime,\n        uint16 category,\n        uint32 federationId\n    )\n        public\n        payable\n        onlyMinter\n        whenNotPaused\n        returns (uint256)\n    {\n\n        require(msg.value >= mintFee);\n\n        require(federationId > 0, \"INVALID_FEDERATION_ID\");\n\n        require(\n            _isValidTimeSlot(contentId, startTime, endTime, auctionEndTime),\n            \"INVALID_TIME_SLOT\"\n        );\n\n        uint256 tokenId = _safeMint(_msgSender());\n        _setTokenTimeSlot(tokenId, contentId, propertyName, startTime, endTime, auctionEndTime, category);\n        tokenToFederationId[tokenId] = federationId;\n\n        return tokenId;\n\n    }\n\n    /**\n     * @dev Function to safely mint tokens.\n     * @param data bytes data to send along with a safe transfer check.\n     * @return tokenId\n     */\n    function safeMint(\n        string memory contentId,\n        string memory propertyName,\n        uint48 startTime,\n        uint48 endTime,\n        uint48 auctionEndTime,\n        uint16 category,\n        uint32 federationId,\n        bytes memory data\n    )\n        public\n        payable\n        onlyMinter\n        whenNotPaused\n        returns (uint256)\n    {\n\n        require(msg.value >= mintFee);\n\n        require(federationId > 0, \"INVALID_FEDERATION_ID\");\n\n        require(\n            _isValidTimeSlot(contentId, startTime, endTime, auctionEndTime),\n            \"INVALID_TIME_SLOT\"\n        );\n\n        uint256 tokenId = _safeMint(_msgSender(), data);\n        _setTokenTimeSlot(tokenId, contentId, propertyName, startTime, endTime, auctionEndTime, category);\n        tokenToFederationId[tokenId] = federationId;\n\n        return tokenId;\n\n    }\n\n    /**\n     * @param tokenURI The token URI of the minted token.\n     * @return tokenId\n     */\n    function safeMintWithTokenURI(\n        string memory contentId,\n        string memory propertyName,\n        uint48 startTime,\n        uint48 endTime,\n        uint48 auctionEndTime,\n        uint16 category,\n        uint32 federationId,\n        string memory tokenURI\n    )\n        public\n        payable\n        onlyMinter\n        whenNotPaused\n        returns (uint256)\n    {\n\n        require(msg.value >= mintFee);\n\n        require(federationId > 0, \"INVALID_FEDERATION_ID\");\n\n        require(\n            _isValidTimeSlot(contentId, startTime, endTime, auctionEndTime),\n            \"INVALID_TIME_SLOT\"\n        );\n\n        uint256 tokenId = _safeMint(_msgSender());\n        _setTokenTimeSlot(tokenId, contentId, propertyName, startTime, endTime, auctionEndTime, category);\n        _setTokenURI(tokenId, tokenURI);\n        tokenToFederationId[tokenId] = federationId;\n\n        return tokenId;\n\n    }\n\n    /**\n     * @dev Internal function to safely mint a new token.\n     * Reverts if the given token ID already exists.\n     * If the target address is a contract, it must implement `onERC721Received`,\n     * which is called upon a safe transfer, and return the magic value\n     * `bytes4(keccak256(\"onERC721Received(address,address,uint256,bytes)\"))`; otherwise,\n     * the transfer is reverted.\n     * @param to The address that will own the minted token\n     * @return tokenId\n     */\n    function _safeMint(address to) internal returns (uint256) {\n\n        uint256 tokenId = _safeMint(to, \"\");\n        return tokenId;\n\n    }\n\n    /**\n     * @dev Internal function to safely mint a new token.\n     * Reverts if the given token ID already exists.\n     * If the target address is a contract, it must implement `onERC721Received`,\n     * which is called upon a safe transfer, and return the magic value\n     * `bytes4(keccak256(\"onERC721Received(address,address,uint256,bytes)\"))`; otherwise,\n     * the transfer is reverted.\n     * @param to The address that will own the minted token\n     * @param data bytes data to send along with a safe transfer check\n     * @return tokenId\n     */\n    function _safeMint(address to, bytes memory data) internal returns (uint256) {\n\n        uint256 tokenId = _mint(to);\n\n        require(\n            _checkOnERC721Received(address(0), to, tokenId, data),\n            \"ERC721: transfer to non ERC721Receiver implementer\"\n        );\n\n        return tokenId;\n\n    }\n\n    /**\n     * @dev Internal function to mint a new token.\n     * Reverts if the given token ID already exists.\n     * @param to The address that will own the minted token\n     */\n    function _mint(address to) internal returns (uint256) {\n\n        require(to != address(0), \"ERC721: mint to the zero address\");\n\n        _tokenIds.increment();\n        uint256 tokenId = _tokenIds.current();\n\n        _tokenOwner[tokenId] = to;\n        _ownedTokensCount[to].increment();\n        _mintedTokensCount[to].increment();\n\n        emit Transfer(address(0), to, tokenId);\n\n        return tokenId;\n\n    }\n\n\n    /***  Token URIs  ***/\n\n\n    /**\n     * @dev Internal function to set the token URI for a given token.\n     * Reverts if the token ID does not exist.\n     * @param tokenId uint256 ID of the token to set its URI\n     * @param uri string URI to assign\n     */\n    function _setTokenURI(uint256 tokenId, string memory uri) internal {\n\n        require(\n            _exists(tokenId),\n            \"ERC721: URI set of nonexistent token\"\n        );\n\n        _tokenURIs[tokenId] = uri;\n\n    }\n\n    /**\n     * Throws if the token ID does not exist. May return an empty string.\n     * @param tokenId uint256 ID of the token to query\n     * @return URI for a given token ID.\n     */\n    function tokenURI(uint256 tokenId) external view returns (string memory) {\n\n        require(\n            _exists(tokenId),\n            \"ERC721: URI query for nonexistent token\"\n        );\n\n        return _tokenURIs[tokenId];\n\n    }\n\n\n    /***  Token TimeSlot data and metadata  ***/\n\n\n    function _isValidTimeSlot(\n        string memory contentId,\n        uint48 startTime,\n        uint48 endTime,\n        uint48 auctionEndTime\n    ) internal view returns (bool) {\n\n        require(\n            registry.isContentIdRegisteredToCaller(contentId),\n            \"ERC721: content id is not registered to caller\"\n        );\n\n        require(\n            startTime > auctionEndTime,\n            \"ERC721: start time must be after its auction end time\"\n        );\n\n        require(\n            endTime > startTime,\n            \"ERC721: start time must be before end time\"\n        );\n\n        return true;\n\n    }\n\n\n    function _isContentIdMappedToMinter(\n        string memory contentId\n    )  internal view returns (bool) {\n\n        ContentIdStruct[] memory a = _tokenMinterToContentIds[msg.sender];\n        bool foundMatch = false;\n        for (uint i = 0; i < a.length; i++) {\n            if (stringsMatch(contentId, a[i].contentId)) {\n                foundMatch = true;\n            }\n        }\n\n        return foundMatch;\n    }\n\n\n    function _isPropertyNameMappedToMinter(\n        string memory contentId,\n        string memory propertyName\n    )  internal view returns (bool) {\n\n        PropertyNameStruct[] memory a = _tokenMinterToPropertyNames[msg.sender][contentId];\n        bool foundMatch = false;\n        for (uint i = 0; i < a.length; i++) {\n            if (stringsMatch(propertyName, a[i].propertyName)) {\n                foundMatch = true;\n            }\n        }\n\n        return foundMatch;\n    }\n\n\n    function _setTokenTimeSlot(\n        uint256 tokenId,\n        string memory contentId,\n        string memory propertyName,\n        uint48 startTime,\n        uint48 endTime,\n        uint48 auctionEndTime,\n        uint16 category\n    ) internal {\n\n        require(\n            _exists(tokenId),\n            \"ERC721: non-existent token\"\n        );\n\n        TimeSlot memory _timeSlot = TimeSlot({\n            minter: address(_msgSender()),\n            contentId: string(contentId),\n            propertyName: string(propertyName),\n            startTime: uint48(startTime),\n            endTime: uint48(endTime),\n            auctionEndTime: uint48(auctionEndTime),\n            category: uint16(category)\n        });\n\n        _tokenToTimeSlot[tokenId] = _timeSlot;\n\n        if (!_isContentIdMappedToMinter(contentId)) {\n            _tokenMinterToContentIds[_msgSender()].push( ContentIdStruct(contentId) );\n        }\n\n        if (!_isPropertyNameMappedToMinter(contentId, propertyName)) {\n            _tokenMinterToPropertyNames[_msgSender()][contentId].push( PropertyNameStruct(propertyName) );\n        }\n\n    }\n\n\n    function tokenTimeSlot(uint256 tokenId) external view returns (\n        address minter,\n        address owner,\n        string memory contentId,\n        string memory propertyName,\n        uint48 startTime,\n        uint48 endTime,\n        uint48 auctionEndTime,\n        uint16 category,\n        uint32 federationId\n    ) {\n\n        require(\n            _exists(tokenId),\n            \"ERC721: Non-existent Token ID\"\n        );\n\n        TimeSlot memory _timeSlot = _tokenToTimeSlot[tokenId];\n        uint32 _federationId = tokenToFederationId[tokenId];\n\n        return (\n            _timeSlot.minter,\n            ownerOf(tokenId),\n            _timeSlot.contentId,\n            _timeSlot.propertyName,\n            _timeSlot.startTime,\n            _timeSlot.endTime,\n            _timeSlot.auctionEndTime,\n            _timeSlot.category,\n            _federationId\n        );\n\n    }\n\n\n    /***  Token minter queries  ***/\n\n\n    /// @dev Look up all Content IDs a Minter has tokenized TimeSlots for.\n    ///      We're not getting this from the Registry because we want to keep\n    ///      a separate record here of all Content ID's the acct has *ever*\n    ///      minted tokens for. The registry is for keeping track of their\n    ///      current (not necessarily past) Content ID registrations.\n    function tokenMinterContentIds(address minter) external view returns (string[] memory) {\n\n        ContentIdStruct[] memory m = _tokenMinterToContentIds[minter];\n        string[] memory r = new string[](m.length);\n\n        for (uint i = 0; i < m.length; i++) {\n            r[i] = m[i].contentId;\n        }\n\n        return r;\n\n    }\n\n    /// @dev Look up all Property Names a Minter has created Time Slots for\n    ///      with a particular Content ID\n    function tokenMinterPropertyNames(\n        address minter,\n        string calldata contentId\n    ) external view returns (string[] memory) {\n\n        PropertyNameStruct[] memory m = _tokenMinterToPropertyNames[minter][contentId];\n        string[] memory r = new string[](m.length);\n\n        for (uint i = 0; i < m.length; i++) {\n            r[i] =  m[i].propertyName;\n        }\n\n        return r;\n\n    }\n\n\n    /**\n     * Return all the Token IDs minted by a given account.\n     * @dev This method MUST NEVER be called by smart contract code. First, it's fairly\n     *  expensive (it walks the entire _tokenIds array looking for tokens belonging to minter),\n     *  but it also returns a dynamic array, which is only supported for web3 calls, and\n     *  not contract-to-contract calls (at this time).\n     */\n    function tokensMintedBy(address minter) external view returns (uint256[] memory) {\n\n        require(\n            minter != address(0),\n            \"ERC721: cannot query the zero address\"\n        );\n\n        uint256 tokenCount = _mintedTokensCount[minter].current();\n        if (tokenCount == 0) {\n            // Return an empty array\n            return new uint256[](0);\n        } else {\n            uint256[] memory result = new uint256[](tokenCount);\n            uint256 totalTokens = totalSupply();\n            uint256 resultIndex = 0;\n\n            // All Tokens have IDs starting at 1 and increase\n            // sequentially up to the total supply count.\n            uint256 tokenId;\n\n            for (tokenId = 1; tokenId <= totalTokens; tokenId++) {\n                if (_tokenToTimeSlot[tokenId].minter == minter) {\n                    result[resultIndex] = tokenId;\n                    resultIndex++;\n                }\n            }\n\n            return result;\n        }\n\n    }\n\n\n    /***  Token balance and ownership queries  ***/\n\n\n    /**\n     * @dev Gets the total number of tokens ever minted.\n     */\n    function totalSupply() public view returns (uint256) {\n\n        return _tokenIds.current();\n\n    }\n\n    /**\n     * @dev Gets the balance of the specified address.\n     * @param tokenOwner address to query the balance of\n     * @return uint256 representing the amount owned by the passed address\n     */\n    function balanceOf(address tokenOwner) public view returns (uint256) {\n\n        require(\n            tokenOwner != address(0),\n            \"ERC721: cannot query the zero address\"\n        );\n\n        return _ownedTokensCount[tokenOwner].current();\n\n    }\n\n    /**\n     * @dev Gets the owner of the specified token ID.\n     * @param tokenId uint256 ID of the token to query the owner of\n     * @return address currently marked as the owner of the given token ID\n     */\n    function ownerOf(uint256 tokenId) public view returns (address) {\n\n        address tokenOwner = _tokenOwner[tokenId];\n\n        return tokenOwner;\n\n    }\n\n    /**\n     * @param tokenOwner The owner whose tokens we are interested in.\n     * @dev This method MUST NEVER be called by smart contract code. First, it's fairly\n     *  expensive (it walks the entire _tokenIds array looking for tokens belonging to owner),\n     *  but it also returns a dynamic array, which is only supported for web3 calls, and\n     *  not contract-to-contract calls (at this time).\n    */\n    function tokensOfOwner(address tokenOwner) external view returns(uint256[] memory) {\n        uint256 tokenCount = balanceOf(tokenOwner);\n        if (tokenCount == 0) {\n            // Return an empty array\n            return new uint256[](0);\n        } else {\n            uint256[] memory result = new uint256[](tokenCount);\n            uint256 totalTokens = totalSupply();\n            uint256 resultIndex = 0;\n\n            // All Tokens have IDs starting at 1 and increase\n            // sequentially up to the total count.\n            uint256 tokenId;\n\n            for (tokenId = 1; tokenId <= totalTokens; tokenId++) {\n                if (_tokenOwner[tokenId] == tokenOwner) {\n                    result[resultIndex] = tokenId;\n                    resultIndex++;\n                }\n            }\n\n            return result;\n        }\n    }\n\n\n    /***  Approvals & Transfers  ***/\n\n\n    /**\n     * @dev Approves another address to transfer the given token ID\n     * The zero address indicates there is no approved address.\n     * There can only be one approved address per token at a given time.\n     * Can only be called by the token owner or an approved operator.\n     * @param to address to be approved for the given token ID\n     * @param tokenId uint256 ID of the token to be approved\n     */\n    function approve(address to, uint256 tokenId)\n        public\n        onlyTrader\n        whenNotPaused\n    {\n\n        address tokenOwner = ownerOf(tokenId);\n\n        require(\n            to != tokenOwner,\n            \"ERC721: approval is redundant\"\n        );\n\n        require(\n            _msgSender() == tokenOwner || isApprovedForAll(tokenOwner, _msgSender()),\n            \"ERC721: approve caller is not token owner nor approved for all\"\n        );\n\n        _tokenApprovals[tokenId] = to;\n        emit Approval(tokenOwner, to, tokenId);\n\n    }\n\n    /**\n     * @dev Gets the approved address for a token ID, or zero if no address set\n     * Reverts if the token ID does not exist.\n     * @param tokenId uint256 ID of the token to query the approval of\n     * @return address currently approved for the given token ID\n     */\n    function getApproved(uint256 tokenId) public view returns (address) {\n\n        require(\n            _exists(tokenId),\n            \"ERC721: approved query for nonexistent token\"\n        );\n\n        return _tokenApprovals[tokenId];\n\n    }\n\n    /**\n     * @dev Sets or unsets the approval of a given operator\n     * An operator is allowed to transfer all tokens of the sender on their behalf.\n     * @param to operator address to set the approval\n     * @param approved representing the status of the approval to be set\n     */\n    function setApprovalForAll(address to, bool approved)\n        public\n        onlyTrader\n        whenNotPaused\n    {\n\n        require(to != _msgSender(), \"ERC721: approve to caller\");\n\n        _operatorApprovals[_msgSender()][to] = approved;\n        emit ApprovalForAll(_msgSender(), to, approved);\n\n    }\n\n    /**\n     * @dev Tells whether an operator is approved by a given token owner.\n     * @param tokenOwner token owner address which you want to query the approval of\n     * @param operator operator address which you want to query the approval of\n     * @return bool whether the given operator is approved by the token owner\n     */\n    function isApprovedForAll(address tokenOwner, address operator)\n        public\n        view\n        returns (bool)\n    {\n\n        return _operatorApprovals[tokenOwner][operator];\n\n    }\n\n    /**\n     * @dev Transfers the ownership of a given token ID to another address.\n     * Usage of this method is discouraged, use {safeTransferFrom} whenever possible.\n     * Requires the msg.sender to be the owner, approved, or operator.\n     * @param from current owner of the token\n     * @param to address to receive the ownership of the given token ID\n     * @param tokenId uint256 ID of the token to be transferred\n     */\n    function transferFrom(address from, address to, uint256 tokenId)\n        public\n        whenNotPaused\n    {\n\n        require(\n            registry.isAuthorizedTransferFrom(from, to, tokenId),\n            \"ERC721: unathorized transfer\"\n        );\n\n        require(\n            _isApprovedOrOwner(_msgSender(), tokenId),\n            \"ERC721: transfer caller is not owner nor approved\"\n        );\n\n        if (isGlobalResaleEnabled == false) {\n\n            require(\n                _isTokenResale(from, to, tokenId) == false,\n                \"ERC721: token resale is restricted at this time\"\n            );\n\n        } else {\n\n            if (_isTokenResale(from, to, tokenId)) {\n\n                require(\n                    registry.isAuthorizedResale(from, to, tokenId),\n                    'ERC721: unauthorized resale'\n                );\n\n            }\n        }\n\n        _transferFrom(from, to, tokenId);\n\n    }\n\n    /**\n     * @dev Safely transfers the ownership of a given token ID to another address\n     * If the target address is a contract, it must implement {IERC721Receiver-onERC721Received},\n     * which is called upon a safe transfer, and return the magic value\n     * `bytes4(keccak256(\"onERC721Received(address,address,uint256,bytes)\"))`; otherwise,\n     * the transfer is reverted.\n     * Requires the msg.sender to be the owner, approved, or operator\n     * @param from current owner of the token\n     * @param to address to receive the ownership of the given token ID\n     * @param tokenId uint256 ID of the token to be transferred\n     */\n    function safeTransferFrom(address from, address to, uint256 tokenId) public {\n\n        safeTransferFrom(from, to, tokenId, \"\");\n\n    }\n\n    /**\n     * @dev Safely transfers the ownership of a given token ID to another address\n     * If the target address is a contract, it must implement {IERC721Receiver-onERC721Received},\n     * which is called upon a safe transfer, and return the magic value\n     * `bytes4(keccak256(\"onERC721Received(address,address,uint256,bytes)\"))`; otherwise,\n     * the transfer is reverted.\n     * Requires the _msgSender() to be the owner, approved, or operator\n     * @param from current owner of the token\n     * @param to address to receive the ownership of the given token ID\n     * @param tokenId uint256 ID of the token to be transferred\n     * @param data bytes data to send along with a safe transfer check\n     */\n    function safeTransferFrom(address from, address to, uint256 tokenId, bytes memory data)\n        public\n        whenNotPaused\n    {\n\n        require(\n            registry.isAuthorizedTransferFrom(from, to, tokenId),\n            \"ERC721: unauthorized transfer\"\n        );\n\n        require(\n            _isApprovedOrOwner(_msgSender(), tokenId),\n            \"ERC721: transfer caller is not owner nor approved\"\n        );\n\n        if (isGlobalResaleEnabled == false) {\n\n            require(\n                _isTokenResale(from, to, tokenId) == false,\n                \"ERC721: token resale is restricted at this time\"\n            );\n\n        } else {\n\n            if (_isTokenResale(from, to, tokenId)) {\n                require(\n                    registry.isAuthorizedResale(from, to, tokenId),\n                    'ERC721: unauthorized resale'\n                );\n            }\n        }\n\n        _safeTransferFrom(from, to, tokenId, data);\n\n    }\n\n    /**\n     * @dev Safely transfers the ownership of a given token ID to another address\n     * If the target address is a contract, it must implement `onERC721Received`,\n     * which is called upon a safe transfer, and return the magic value\n     * `bytes4(keccak256(\"onERC721Received(address,address,uint256,bytes)\"))`; otherwise,\n     * the transfer is reverted.\n     * Requires the msg.sender to be the owner, approved, or operator\n     * @param from current owner of the token\n     * @param to address to receive the ownership of the given token ID\n     * @param tokenId uint256 ID of the token to be transferred\n     * @param data bytes data to send along with a safe transfer check\n     */\n    function _safeTransferFrom(address from, address to, uint256 tokenId, bytes memory data)\n        internal\n    {\n\n        _transferFrom(from, to, tokenId);\n\n        require(\n            _checkOnERC721Received(from, to, tokenId, data),\n            \"ERC721: transfer to non ERC721Receiver implementer\"\n        );\n\n    }\n\n    /**\n     * @dev Returns whether the specified token exists.\n     * @param tokenId uint256 ID of the token to query the existence of\n     * @return bool whether the token exists\n     */\n    function _exists(uint256 tokenId) internal view returns (bool) {\n\n        address tokenOwner = _tokenOwner[tokenId];\n\n        return tokenOwner != address(0);\n\n    }\n\n    /**\n     * @dev Returns whether the given spender can transfer a given token ID.\n     * @param spender address of the spender to query\n     * @param tokenId uint256 ID of the token to be transferred\n     * @return bool whether the msg.sender is approved for the given token ID,\n     * is an operator of the owner, or is the owner of the token\n     */\n    function _isApprovedOrOwner(address spender, uint256 tokenId)\n        internal\n        view\n        returns (bool)\n    {\n\n        require(\n            _exists(tokenId),\n            \"ERC721: operator query for nonexistent token\"\n        );\n\n        address tokenOwner = ownerOf(tokenId);\n\n\n        return (spender == tokenOwner || getApproved(tokenId) == spender || isApprovedForAll(tokenOwner, spender));\n\n    }\n\n    /**\n     * @dev Returns whether a proposed transfer is a resale of the token.\n     * Must take into account whether buyer is sending token back to minter (not a resale).\n     * @param from address of current owner\n     @ @param to address of reciever\n     * @param tokenId uint256 ID of the token to be transferred\n     * @return bool whether this is a resale of the token by a buyer\n     */\n    function _isTokenResale(address from, address to, uint256 tokenId)\n        internal\n        view\n        returns (bool)\n    {\n\n        TimeSlot memory _token = _tokenToTimeSlot[tokenId];\n\n        if (from == _token.minter) {\n            return false;\n        }\n\n        if (to == _token.minter) {\n            return false;\n        }\n\n        return true;\n\n    }\n\n    /**\n     * @dev Internal function to transfer ownership of a given token ID to another address.\n     *      As opposed to {transferFrom}, this imposes no restrictions on msg.sender\n     * @param from current owner of the token\n     * @param to address to receive the ownership of the given token ID\n     * @param tokenId uint256 ID of the token to be transferred\n     */\n    function _transferFrom(address from, address to, uint256 tokenId) internal {\n\n        require(\n            ownerOf(tokenId) == from,\n            \"ERC721: transfer of token that is not own\"\n        );\n\n        require(\n            to != address(0),\n            \"ERC721: transfer to the zero address\"\n        );\n\n        _clearApproval(tokenId);\n\n        _ownedTokensCount[from].decrement();\n        _ownedTokensCount[to].increment();\n\n        _tokenOwner[tokenId] = to;\n\n        emit Transfer(from, to, tokenId);\n\n    }\n\n    /**\n     * @dev Internal function to invoke {IERC721Receiver-onERC721Received} on a target address.\n     * The call is not executed if the target address is not a contract.\n     *\n     * This function is deprecated.\n     * @param from address representing the previous owner of the given token ID\n     * @param to target address that will receive the tokens\n     * @param tokenId uint256 ID of the token to be transferred\n     * @param data bytes optional data to send along with the call\n     * @return bool whether the call correctly returned the expected magic value\n     */\n    function _checkOnERC721Received(address from, address to, uint256 tokenId, bytes memory data)\n        internal\n        returns (bool)\n    {\n\n        if (!to.isContract()) {\n            return true;\n        }\n\n        bytes4 retval = IERC721Receiver(to).onERC721Received(_msgSender(), from, tokenId, data);\n        return (retval == _ERC721_RECEIVED);\n\n    }\n\n    /**\n     * @dev Private function to clear current approval of a given token ID.\n     * @param tokenId uint256 ID of the token to be transferred\n     */\n    function _clearApproval(uint256 tokenId) private {\n\n        if (_tokenApprovals[tokenId] != address(0)) {\n            _tokenApprovals[tokenId] = address(0);\n        }\n\n    }\n\n\n    /***  Burn Tokens  ***/\n\n\n    // solhint-disable\n    /**\n     * @dev Customized for Microsponsors\n     *      https://github.com/OpenZeppelin/openzeppelin-contracts/blob/master/contracts/token/ERC721/ERC721Burnable.sol     * @dev Burns a specific ERC721 token.\n     * @param tokenId uint256 id of the ERC721 token to be burned\n     */\n     // solhint-enable\n    function burn(uint256 tokenId) public whenNotPaused {\n\n        require(\n            _isApprovedOrOwner(_msgSender(), tokenId),\n            \"ERC721: caller is not token owner nor approved\"\n        );\n\n        _burn(tokenId);\n\n    }\n\n\n    /**\n     * @dev Internal function to burn a specific token.\n     * Reverts if the token does not exist.\n     * Deprecated, use {_burn} instead.\n     * @param tokenOwner owner of the token to burn\n     * @param tokenId uint256 ID of the token being burned\n     */\n    function _burn(address tokenOwner, uint256 tokenId) internal {\n\n        require(\n            ownerOf(tokenId) == tokenOwner,\n            \"ERC721: burn of token that is not own\"\n        );\n\n        _clearApproval(tokenId);\n\n        _ownedTokensCount[tokenOwner].decrement();\n        _tokenOwner[tokenId] = address(0);\n\n        // Clear token URIs (if any)\n        if (bytes(_tokenURIs[tokenId]).length != 0) {\n            delete _tokenURIs[tokenId];\n        }\n\n        // Clear time slot data\n        delete _tokenToTimeSlot[tokenId];\n\n        emit Transfer(tokenOwner, address(0), tokenId);\n\n    }\n\n    /**\n     * @dev Internal function to burn a specific token.\n     * Reverts if the token does not exist.\n     * @param tokenId uint256 ID of the token being burned\n     */\n    function _burn(uint256 tokenId) internal {\n\n        _burn(ownerOf(tokenId), tokenId);\n\n    }\n\n\n    /***  Helper fn  ***/\n\n    function stringsMatch (\n        string memory a,\n        string memory b\n    )\n        private\n        pure\n        returns (bool)\n    {\n        return (keccak256(abi.encodePacked((a))) == keccak256(abi.encodePacked((b))) );\n    }\n\n}\n",
  "sourcePath": "/Users/lauren/github/erc-721/contracts/ERC721.sol",
  "compiler": {
    "name": "solc",
    "version": "0.5.11+commit.c082d0b4.Emscripten.clang"
  },
  "schemaVersion": "3.0.10",
  "updatedAt": "2020-01-03T02:22:32.993Z",
  "devdoc": {
    "details": "see https://eips.ethereum.org/EIPS/eip-721",
    "methods": {
      "approve(address,uint256)": {
        "details": "Approves another address to transfer the given token ID The zero address indicates there is no approved address. There can only be one approved address per token at a given time. Can only be called by the token owner or an approved operator.",
        "params": {
          "to": "address to be approved for the given token ID",
          "tokenId": "uint256 ID of the token to be approved"
        }
      },
      "balanceOf(address)": {
        "details": "Gets the balance of the specified address.",
        "params": {
          "tokenOwner": "address to query the balance of"
        },
        "return": "uint256 representing the amount owned by the passed address"
      },
      "burn(uint256)": {
        "details": "Customized for MicrosponsorsBurns a specific ERC721 token.",
        "params": {
          "tokenId": "uint256 id of the ERC721 token to be burned"
        }
      },
      "disableGlobalResale()": {
        "details": "Called by contract owner to disable token tranfer (resale) by buyer."
      },
      "enableGlobalResale()": {
        "details": "Called by contract owner to enable token transfer (resale) by buyer."
      },
      "getApproved(uint256)": {
        "details": "Gets the approved address for a token ID, or zero if no address set Reverts if the token ID does not exist.",
        "params": {
          "tokenId": "uint256 ID of the token to query the approval of"
        },
        "return": "address currently approved for the given token ID"
      },
      "isApprovedForAll(address,address)": {
        "details": "Tells whether an operator is approved by a given token owner.",
        "params": {
          "operator": "operator address which you want to query the approval of",
          "tokenOwner": "token owner address which you want to query the approval of"
        },
        "return": "bool whether the given operator is approved by the token owner"
      },
      "mint(string,string,uint48,uint48,uint48,uint16,uint32)": {
        "details": "Function to mint tokens.",
        "return": "tokenId"
      },
      "mintWithTokenURI(string,string,uint48,uint48,uint48,uint16,uint32,string)": {
        "details": "Function to mint tokens.",
        "params": {
          "tokenURI": "The token URI of the minted token."
        },
        "return": "tokenId"
      },
      "ownerOf(uint256)": {
        "details": "Gets the owner of the specified token ID.",
        "params": {
          "tokenId": "uint256 ID of the token to query the owner of"
        },
        "return": "address currently marked as the owner of the given token ID"
      },
      "pause()": {
        "details": "Called by contract owner to pause minting and transfers."
      },
      "safeMint(string,string,uint48,uint48,uint48,uint16,uint32)": {
        "details": "Function to safely mint tokens.",
        "return": "tokenId"
      },
      "safeMint(string,string,uint48,uint48,uint48,uint16,uint32,bytes)": {
        "details": "Function to safely mint tokens.",
        "params": {
          "data": "bytes data to send along with a safe transfer check."
        },
        "return": "tokenId"
      },
      "safeMintWithTokenURI(string,string,uint48,uint48,uint48,uint16,uint32,string)": {
        "params": {
          "tokenURI": "The token URI of the minted token."
        },
        "return": "tokenId"
      },
      "safeTransferFrom(address,address,uint256)": {
        "details": "Safely transfers the ownership of a given token ID to another address If the target address is a contract, it must implement {IERC721Receiver-onERC721Received}, which is called upon a safe transfer, and return the magic value `bytes4(keccak256(\"onERC721Received(address,address,uint256,bytes)\"))`; otherwise, the transfer is reverted. Requires the msg.sender to be the owner, approved, or operator",
        "params": {
          "from": "current owner of the token",
          "to": "address to receive the ownership of the given token ID",
          "tokenId": "uint256 ID of the token to be transferred"
        }
      },
      "safeTransferFrom(address,address,uint256,bytes)": {
        "details": "Safely transfers the ownership of a given token ID to another address If the target address is a contract, it must implement {IERC721Receiver-onERC721Received}, which is called upon a safe transfer, and return the magic value `bytes4(keccak256(\"onERC721Received(address,address,uint256,bytes)\"))`; otherwise, the transfer is reverted. Requires the _msgSender() to be the owner, approved, or operator",
        "params": {
          "data": "bytes data to send along with a safe transfer check",
          "from": "current owner of the token",
          "to": "address to receive the ownership of the given token ID",
          "tokenId": "uint256 ID of the token to be transferred"
        }
      },
      "setApprovalForAll(address,bool)": {
        "details": "Sets or unsets the approval of a given operator An operator is allowed to transfer all tokens of the sender on their behalf.",
        "params": {
          "approved": "representing the status of the approval to be set",
          "to": "operator address to set the approval"
        }
      },
      "supportsInterface(bytes4)": {
        "details": "See {IERC165-supportsInterface}.     * Time complexity O(1), guaranteed to always use less than 30 000 gas."
      },
      "tokenMinterContentIds(address)": {
        "details": "Look up all Content IDs a Minter has tokenized TimeSlots for.      We're not getting this from the Registry because we want to keep      a separate record here of all Content ID's the acct has *ever*      minted tokens for. The registry is for keeping track of their      current (not necessarily past) Content ID registrations."
      },
      "tokenMinterPropertyNames(address,string)": {
        "details": "Look up all Property Names a Minter has created Time Slots for      with a particular Content ID"
      },
      "tokenURI(uint256)": {
        "params": {
          "tokenId": "uint256 ID of the token to query"
        },
        "return": "URI for a given token ID."
      },
      "tokensMintedBy(address)": {
        "details": "This method MUST NEVER be called by smart contract code. First, it's fairly expensive (it walks the entire _tokenIds array looking for tokens belonging to minter), but it also returns a dynamic array, which is only supported for web3 calls, and not contract-to-contract calls (at this time)."
      },
      "tokensOfOwner(address)": {
        "details": "This method MUST NEVER be called by smart contract code. First, it's fairly expensive (it walks the entire _tokenIds array looking for tokens belonging to owner), but it also returns a dynamic array, which is only supported for web3 calls, and not contract-to-contract calls (at this time).",
        "params": {
          "tokenOwner": "The owner whose tokens we are interested in."
        }
      },
      "totalSupply()": {
        "details": "Gets the total number of tokens ever minted."
      },
      "transferFrom(address,address,uint256)": {
        "details": "Transfers the ownership of a given token ID to another address. Usage of this method is discouraged, use {safeTransferFrom} whenever possible. Requires the msg.sender to be the owner, approved, or operator.",
        "params": {
          "from": "current owner of the token",
          "to": "address to receive the ownership of the given token ID",
          "tokenId": "uint256 ID of the token to be transferred"
        }
      },
      "transferOwnership1(address)": {
        "details": "Transfer owner (admin) functions to another address",
        "params": {
          "newOwner": "Address of new owner/ admin of contract"
        }
      },
      "unpause()": {
        "details": "Called by contract owner to unpause minting and transfers."
      },
      "updateMintFee(uint256)": {
        "details": "Update the fee (in wei) charged for minting a single token"
      },
      "updateRegistryAddress(address)": {
        "details": "Update contract address for Microsponsors Registry contract",
        "params": {
          "newAddress": "where the Registry contract lives"
        }
      },
      "withdrawBalance()": {
        "details": "Admin withdraws entire balance from contract."
      }
    },
    "title": "ERC721 Non-Fungible Token Standard basic implementation"
  },
  "userdoc": {
    "methods": {
      "tokenURI(uint256)": {
        "notice": "Throws if the token ID does not exist. May return an empty string."
      },
      "tokensMintedBy(address)": {
        "notice": "Return all the Token IDs minted by a given account."
      }
    }
  }
}