{
  "contractName": "ERC721",
  "abi": [
    {
      "constant": true,
      "inputs": [
        {
          "internalType": "bytes4",
          "name": "interfaceId",
          "type": "bytes4"
        }
      ],
      "name": "supportsInterface",
      "outputs": [
        {
          "internalType": "bool",
          "name": "",
          "type": "bool"
        }
      ],
      "payable": false,
      "stateMutability": "view",
      "type": "function"
    },
    {
      "constant": true,
      "inputs": [],
      "name": "mintFee",
      "outputs": [
        {
          "internalType": "uint256",
          "name": "",
          "type": "uint256"
        }
      ],
      "payable": false,
      "stateMutability": "view",
      "type": "function"
    },
    {
      "constant": true,
      "inputs": [],
      "name": "owner2",
      "outputs": [
        {
          "internalType": "address",
          "name": "",
          "type": "address"
        }
      ],
      "payable": false,
      "stateMutability": "view",
      "type": "function"
    },
    {
      "constant": true,
      "inputs": [],
      "name": "paused",
      "outputs": [
        {
          "internalType": "bool",
          "name": "",
          "type": "bool"
        }
      ],
      "payable": false,
      "stateMutability": "view",
      "type": "function"
    },
    {
      "constant": true,
      "inputs": [],
      "name": "owner1",
      "outputs": [
        {
          "internalType": "address",
          "name": "",
          "type": "address"
        }
      ],
      "payable": false,
      "stateMutability": "view",
      "type": "function"
    },
    {
      "constant": true,
      "inputs": [],
      "name": "registry",
      "outputs": [
        {
          "internalType": "contract DeployedRegistry",
          "name": "",
          "type": "address"
        }
      ],
      "payable": false,
      "stateMutability": "view",
      "type": "function"
    },
    {
      "inputs": [],
      "payable": false,
      "stateMutability": "nonpayable",
      "type": "constructor"
    },
    {
      "anonymous": false,
      "inputs": [
        {
          "indexed": true,
          "internalType": "address",
          "name": "from",
          "type": "address"
        },
        {
          "indexed": true,
          "internalType": "address",
          "name": "to",
          "type": "address"
        },
        {
          "indexed": true,
          "internalType": "uint256",
          "name": "tokenId",
          "type": "uint256"
        }
      ],
      "name": "Transfer",
      "type": "event"
    },
    {
      "anonymous": false,
      "inputs": [
        {
          "indexed": true,
          "internalType": "address",
          "name": "tokenOwner",
          "type": "address"
        },
        {
          "indexed": true,
          "internalType": "address",
          "name": "approved",
          "type": "address"
        },
        {
          "indexed": true,
          "internalType": "uint256",
          "name": "tokenId",
          "type": "uint256"
        }
      ],
      "name": "Approval",
      "type": "event"
    },
    {
      "anonymous": false,
      "inputs": [
        {
          "indexed": true,
          "internalType": "address",
          "name": "tokenOwner",
          "type": "address"
        },
        {
          "indexed": true,
          "internalType": "address",
          "name": "operator",
          "type": "address"
        },
        {
          "indexed": false,
          "internalType": "bool",
          "name": "approved",
          "type": "bool"
        }
      ],
      "name": "ApprovalForAll",
      "type": "event"
    },
    {
      "constant": false,
      "inputs": [
        {
          "internalType": "address",
          "name": "newOwner",
          "type": "address"
        }
      ],
      "name": "transferOwnership1",
      "outputs": [],
      "payable": false,
      "stateMutability": "nonpayable",
      "type": "function"
    },
    {
      "constant": false,
      "inputs": [
        {
          "internalType": "address",
          "name": "newOwner",
          "type": "address"
        }
      ],
      "name": "transferOwnership2",
      "outputs": [],
      "payable": false,
      "stateMutability": "nonpayable",
      "type": "function"
    },
    {
      "constant": false,
      "inputs": [
        {
          "internalType": "address",
          "name": "newAddress",
          "type": "address"
        }
      ],
      "name": "updateRegistryAddress",
      "outputs": [],
      "payable": false,
      "stateMutability": "nonpayable",
      "type": "function"
    },
    {
      "constant": false,
      "inputs": [
        {
          "internalType": "uint256",
          "name": "val",
          "type": "uint256"
        }
      ],
      "name": "updateMintFee",
      "outputs": [],
      "payable": false,
      "stateMutability": "nonpayable",
      "type": "function"
    },
    {
      "constant": true,
      "inputs": [
        {
          "internalType": "address",
          "name": "target",
          "type": "address"
        }
      ],
      "name": "isWhitelisted",
      "outputs": [
        {
          "internalType": "bool",
          "name": "",
          "type": "bool"
        }
      ],
      "payable": false,
      "stateMutability": "view",
      "type": "function"
    },
    {
      "constant": true,
      "inputs": [
        {
          "internalType": "address",
          "name": "account",
          "type": "address"
        }
      ],
      "name": "isMinter",
      "outputs": [
        {
          "internalType": "bool",
          "name": "",
          "type": "bool"
        }
      ],
      "payable": false,
      "stateMutability": "view",
      "type": "function"
    },
    {
      "constant": false,
      "inputs": [
        {
          "internalType": "string",
          "name": "contentId",
          "type": "string"
        },
        {
          "internalType": "string",
          "name": "propertyName",
          "type": "string"
        },
        {
          "internalType": "uint48",
          "name": "startTime",
          "type": "uint48"
        },
        {
          "internalType": "uint48",
          "name": "endTime",
          "type": "uint48"
        },
        {
          "internalType": "uint48",
          "name": "auctionEndTime",
          "type": "uint48"
        },
        {
          "internalType": "uint16",
          "name": "category",
          "type": "uint16"
        }
      ],
      "name": "mint",
      "outputs": [
        {
          "internalType": "uint256",
          "name": "",
          "type": "uint256"
        }
      ],
      "payable": true,
      "stateMutability": "payable",
      "type": "function"
    },
    {
      "constant": false,
      "inputs": [
        {
          "internalType": "string",
          "name": "contentId",
          "type": "string"
        },
        {
          "internalType": "string",
          "name": "propertyName",
          "type": "string"
        },
        {
          "internalType": "uint48",
          "name": "startTime",
          "type": "uint48"
        },
        {
          "internalType": "uint48",
          "name": "endTime",
          "type": "uint48"
        },
        {
          "internalType": "uint48",
          "name": "auctionEndTime",
          "type": "uint48"
        },
        {
          "internalType": "uint16",
          "name": "category",
          "type": "uint16"
        },
        {
          "internalType": "string",
          "name": "tokenURI",
          "type": "string"
        }
      ],
      "name": "mintWithTokenURI",
      "outputs": [
        {
          "internalType": "uint256",
          "name": "",
          "type": "uint256"
        }
      ],
      "payable": true,
      "stateMutability": "payable",
      "type": "function"
    },
    {
      "constant": false,
      "inputs": [
        {
          "internalType": "string",
          "name": "contentId",
          "type": "string"
        },
        {
          "internalType": "string",
          "name": "propertyName",
          "type": "string"
        },
        {
          "internalType": "uint48",
          "name": "startTime",
          "type": "uint48"
        },
        {
          "internalType": "uint48",
          "name": "endTime",
          "type": "uint48"
        },
        {
          "internalType": "uint48",
          "name": "auctionEndTime",
          "type": "uint48"
        },
        {
          "internalType": "uint16",
          "name": "category",
          "type": "uint16"
        },
        {
          "internalType": "bytes",
          "name": "data",
          "type": "bytes"
        }
      ],
      "name": "safeMint",
      "outputs": [
        {
          "internalType": "uint256",
          "name": "",
          "type": "uint256"
        }
      ],
      "payable": true,
      "stateMutability": "payable",
      "type": "function"
    },
    {
      "constant": false,
      "inputs": [
        {
          "internalType": "string",
          "name": "contentId",
          "type": "string"
        },
        {
          "internalType": "string",
          "name": "propertyName",
          "type": "string"
        },
        {
          "internalType": "uint48",
          "name": "startTime",
          "type": "uint48"
        },
        {
          "internalType": "uint48",
          "name": "endTime",
          "type": "uint48"
        },
        {
          "internalType": "uint48",
          "name": "auctionEndTime",
          "type": "uint48"
        },
        {
          "internalType": "uint16",
          "name": "category",
          "type": "uint16"
        }
      ],
      "name": "safeMint",
      "outputs": [
        {
          "internalType": "uint256",
          "name": "",
          "type": "uint256"
        }
      ],
      "payable": true,
      "stateMutability": "payable",
      "type": "function"
    },
    {
      "constant": false,
      "inputs": [
        {
          "internalType": "string",
          "name": "contentId",
          "type": "string"
        },
        {
          "internalType": "string",
          "name": "propertyName",
          "type": "string"
        },
        {
          "internalType": "uint48",
          "name": "startTime",
          "type": "uint48"
        },
        {
          "internalType": "uint48",
          "name": "endTime",
          "type": "uint48"
        },
        {
          "internalType": "uint48",
          "name": "auctionEndTime",
          "type": "uint48"
        },
        {
          "internalType": "uint16",
          "name": "category",
          "type": "uint16"
        },
        {
          "internalType": "string",
          "name": "tokenURI",
          "type": "string"
        }
      ],
      "name": "safeMintWithTokenURI",
      "outputs": [
        {
          "internalType": "uint256",
          "name": "",
          "type": "uint256"
        }
      ],
      "payable": true,
      "stateMutability": "payable",
      "type": "function"
    },
    {
      "constant": true,
      "inputs": [
        {
          "internalType": "uint256",
          "name": "tokenId",
          "type": "uint256"
        }
      ],
      "name": "tokenURI",
      "outputs": [
        {
          "internalType": "string",
          "name": "",
          "type": "string"
        }
      ],
      "payable": false,
      "stateMutability": "view",
      "type": "function"
    },
    {
      "constant": true,
      "inputs": [
        {
          "internalType": "uint256",
          "name": "tokenId",
          "type": "uint256"
        }
      ],
      "name": "tokenTimeSlot",
      "outputs": [
        {
          "internalType": "address",
          "name": "minter",
          "type": "address"
        },
        {
          "internalType": "address",
          "name": "owner",
          "type": "address"
        },
        {
          "internalType": "string",
          "name": "contentId",
          "type": "string"
        },
        {
          "internalType": "string",
          "name": "propertyName",
          "type": "string"
        },
        {
          "internalType": "uint48",
          "name": "startTime",
          "type": "uint48"
        },
        {
          "internalType": "uint48",
          "name": "endTime",
          "type": "uint48"
        },
        {
          "internalType": "uint48",
          "name": "auctionEndTime",
          "type": "uint48"
        },
        {
          "internalType": "uint16",
          "name": "category",
          "type": "uint16"
        }
      ],
      "payable": false,
      "stateMutability": "view",
      "type": "function"
    },
    {
      "constant": true,
      "inputs": [
        {
          "internalType": "address",
          "name": "minter",
          "type": "address"
        }
      ],
      "name": "tokenMinterContentIds",
      "outputs": [
        {
          "internalType": "string[]",
          "name": "",
          "type": "string[]"
        }
      ],
      "payable": false,
      "stateMutability": "view",
      "type": "function"
    },
    {
      "constant": true,
      "inputs": [
        {
          "internalType": "address",
          "name": "minter",
          "type": "address"
        },
        {
          "internalType": "string",
          "name": "contentId",
          "type": "string"
        }
      ],
      "name": "tokenMinterPropertyNames",
      "outputs": [
        {
          "internalType": "string[]",
          "name": "",
          "type": "string[]"
        }
      ],
      "payable": false,
      "stateMutability": "view",
      "type": "function"
    },
    {
      "constant": true,
      "inputs": [
        {
          "internalType": "address",
          "name": "minter",
          "type": "address"
        }
      ],
      "name": "tokensMintedBy",
      "outputs": [
        {
          "internalType": "uint256[]",
          "name": "",
          "type": "uint256[]"
        }
      ],
      "payable": false,
      "stateMutability": "view",
      "type": "function"
    },
    {
      "constant": true,
      "inputs": [],
      "name": "totalSupply",
      "outputs": [
        {
          "internalType": "uint256",
          "name": "",
          "type": "uint256"
        }
      ],
      "payable": false,
      "stateMutability": "view",
      "type": "function"
    },
    {
      "constant": true,
      "inputs": [
        {
          "internalType": "address",
          "name": "tokenOwner",
          "type": "address"
        }
      ],
      "name": "balanceOf",
      "outputs": [
        {
          "internalType": "uint256",
          "name": "",
          "type": "uint256"
        }
      ],
      "payable": false,
      "stateMutability": "view",
      "type": "function"
    },
    {
      "constant": true,
      "inputs": [
        {
          "internalType": "uint256",
          "name": "tokenId",
          "type": "uint256"
        }
      ],
      "name": "ownerOf",
      "outputs": [
        {
          "internalType": "address",
          "name": "",
          "type": "address"
        }
      ],
      "payable": false,
      "stateMutability": "view",
      "type": "function"
    },
    {
      "constant": true,
      "inputs": [
        {
          "internalType": "address",
          "name": "tokenOwner",
          "type": "address"
        }
      ],
      "name": "tokensOfOwner",
      "outputs": [
        {
          "internalType": "uint256[]",
          "name": "",
          "type": "uint256[]"
        }
      ],
      "payable": false,
      "stateMutability": "view",
      "type": "function"
    },
    {
      "constant": false,
      "inputs": [
        {
          "internalType": "address",
          "name": "to",
          "type": "address"
        },
        {
          "internalType": "uint256",
          "name": "tokenId",
          "type": "uint256"
        }
      ],
      "name": "approve",
      "outputs": [],
      "payable": false,
      "stateMutability": "nonpayable",
      "type": "function"
    },
    {
      "constant": true,
      "inputs": [
        {
          "internalType": "uint256",
          "name": "tokenId",
          "type": "uint256"
        }
      ],
      "name": "getApproved",
      "outputs": [
        {
          "internalType": "address",
          "name": "",
          "type": "address"
        }
      ],
      "payable": false,
      "stateMutability": "view",
      "type": "function"
    },
    {
      "constant": false,
      "inputs": [
        {
          "internalType": "address",
          "name": "to",
          "type": "address"
        },
        {
          "internalType": "bool",
          "name": "approved",
          "type": "bool"
        }
      ],
      "name": "setApprovalForAll",
      "outputs": [],
      "payable": false,
      "stateMutability": "nonpayable",
      "type": "function"
    },
    {
      "constant": true,
      "inputs": [
        {
          "internalType": "address",
          "name": "tokenOwner",
          "type": "address"
        },
        {
          "internalType": "address",
          "name": "operator",
          "type": "address"
        }
      ],
      "name": "isApprovedForAll",
      "outputs": [
        {
          "internalType": "bool",
          "name": "",
          "type": "bool"
        }
      ],
      "payable": false,
      "stateMutability": "view",
      "type": "function"
    },
    {
      "constant": false,
      "inputs": [
        {
          "internalType": "address",
          "name": "from",
          "type": "address"
        },
        {
          "internalType": "address",
          "name": "to",
          "type": "address"
        },
        {
          "internalType": "uint256",
          "name": "tokenId",
          "type": "uint256"
        }
      ],
      "name": "transferFrom",
      "outputs": [],
      "payable": false,
      "stateMutability": "nonpayable",
      "type": "function"
    },
    {
      "constant": false,
      "inputs": [
        {
          "internalType": "address",
          "name": "from",
          "type": "address"
        },
        {
          "internalType": "address",
          "name": "to",
          "type": "address"
        },
        {
          "internalType": "uint256",
          "name": "tokenId",
          "type": "uint256"
        }
      ],
      "name": "safeTransferFrom",
      "outputs": [],
      "payable": false,
      "stateMutability": "nonpayable",
      "type": "function"
    },
    {
      "constant": false,
      "inputs": [
        {
          "internalType": "address",
          "name": "from",
          "type": "address"
        },
        {
          "internalType": "address",
          "name": "to",
          "type": "address"
        },
        {
          "internalType": "uint256",
          "name": "tokenId",
          "type": "uint256"
        },
        {
          "internalType": "bytes",
          "name": "data",
          "type": "bytes"
        }
      ],
      "name": "safeTransferFrom",
      "outputs": [],
      "payable": false,
      "stateMutability": "nonpayable",
      "type": "function"
    },
    {
      "constant": false,
      "inputs": [
        {
          "internalType": "uint256",
          "name": "tokenId",
          "type": "uint256"
        }
      ],
      "name": "burn",
      "outputs": [],
      "payable": false,
      "stateMutability": "nonpayable",
      "type": "function"
    },
    {
      "constant": false,
      "inputs": [],
      "name": "pause",
      "outputs": [],
      "payable": false,
      "stateMutability": "nonpayable",
      "type": "function"
    },
    {
      "constant": false,
      "inputs": [],
      "name": "unpause",
      "outputs": [],
      "payable": false,
      "stateMutability": "nonpayable",
      "type": "function"
    },
    {
      "constant": false,
      "inputs": [],
      "name": "withdrawBalance",
      "outputs": [],
      "payable": false,
      "stateMutability": "nonpayable",
      "type": "function"
    }
  ],
  "bytecode": "0x6080604052655af3107a40006008556000600f60006101000a81548160ff0219169083151502179055503480156200003657600080fd5b506200004f6301ffc9a760e01b6200010d60201b60201c565b620000676380ac58cd60e01b6200010d60201b60201c565b62000077620001e560201b60201c565b600160006101000a81548173ffffffffffffffffffffffffffffffffffffffff021916908373ffffffffffffffffffffffffffffffffffffffff160217905550620000c7620001e560201b60201c565b600260006101000a81548173ffffffffffffffffffffffffffffffffffffffff021916908373ffffffffffffffffffffffffffffffffffffffff16021790555062000262565b63ffffffff60e01b817bffffffffffffffffffffffffffffffffffffffffffffffffffffffff1916141562000179576040517f08c379a000000000000000000000000000000000000000000000000000000000815260040162000170906200022f565b60405180910390fd5b6001600080837bffffffffffffffffffffffffffffffffffffffffffffffffffffffff19167bffffffffffffffffffffffffffffffffffffffffffffffffffffffff1916815260200190815260200160002060006101000a81548160ff02191690831515021790555050565b600033905090565b6000620001fc601c8362000251565b91507f4552433136353a20696e76616c696420696e74657266616365206964000000006000830152602082019050919050565b600060208201905081810360008301526200024a81620001ed565b9050919050565b600082825260208201905092915050565b615e7580620002726000396000f3fe60806040526004361061021a5760003560e01c80637368891411610123578063b88d4fde116100ab578063e2b375a91161006f578063e2b375a91461080d578063e5c2492414610836578063e982d5a91461087a578063e985e9c5146108a3578063f91869d4146108e05761021a565b8063b88d4fde1461071e578063bac1083914610747578063bffb18f614610777578063c57a8825146107a7578063c87b56dd146107d05761021a565b80638456cb59116100f25780638456cb59146106275780638462151c1461063e578063a22cb4651461067b578063a4ede128146106a4578063aa271e1a146106e15761021a565b8063736889141461056b5780637affcb9a146105965780637b103999146105d357806384017e52146105fe5761021a565b80633af32abf116101a6578063527097251161017557806352709725146104845780635c975abb146104af5780635fd8c710146104da5780636352211e146104f157806370a082311461052e5761021a565b80633af32abf146103de5780633f4ba83a1461041b57806342842e0e1461043257806342966c681461045b5761021a565b806313966db5116101ed57806313966db5146102f257806318160ddd1461031d57806319f9eb021461034857806323b872dd146103785780632a0c7799146103a15761021a565b806301ffc9a71461021f57806305fe1a201461025c578063081812fc1461028c578063095ea7b3146102c9575b600080fd5b34801561022b57600080fd5b506102466004803603610241919081019061475e565b610910565b6040516102539190615789565b60405180910390f35b6102766004803603610271919081019061494f565b610977565b6040516102839190615b21565b60405180910390f35b34801561029857600080fd5b506102b360048036036102ae9190810190614a35565b610a78565b6040516102c09190615652565b60405180910390f35b3480156102d557600080fd5b506102f060048036036102eb91908101906146f9565b610afd565b005b3480156102fe57600080fd5b50610307610d21565b6040516103149190615b21565b60405180910390f35b34801561032957600080fd5b50610332610d27565b60405161033f9190615b21565b60405180910390f35b610362600480360361035d919081019061494f565b610d38565b60405161036f9190615b21565b60405180910390f35b34801561038457600080fd5b5061039f600480360361039a919081019061459b565b610e39565b005b3480156103ad57600080fd5b506103c860048036036103c39190810190614536565b610f43565b6040516103d59190615767565b60405180910390f35b3480156103ea57600080fd5b5061040560048036036104009190810190614536565b61113c565b6040516104129190615789565b60405180910390f35b34801561042757600080fd5b506104306111f0565b005b34801561043e57600080fd5b506104596004803603610454919081019061459b565b61131c565b005b34801561046757600080fd5b50610482600480360361047d9190810190614a35565b61133c565b005b34801561049057600080fd5b506104996113b2565b6040516104a69190615652565b60405180910390f35b3480156104bb57600080fd5b506104c46113d8565b6040516104d19190615789565b60405180910390f35b3480156104e657600080fd5b506104ef6113eb565b005b3480156104fd57600080fd5b5061051860048036036105139190810190614a35565b6115ad565b6040516105259190615652565b60405180910390f35b34801561053a57600080fd5b5061055560048036036105509190810190614536565b6115ef565b6040516105629190615b21565b60405180910390f35b34801561057757600080fd5b506105806116ae565b60405161058d9190615652565b60405180910390f35b3480156105a257600080fd5b506105bd60048036036105b891908101906146a1565b6116d4565b6040516105ca9190615745565b60405180910390f35b3480156105df57600080fd5b506105e86118bc565b6040516105f591906157a4565b60405180910390f35b34801561060a57600080fd5b5061062560048036036106209190810190614a35565b6118e2565b005b34801561063357600080fd5b5061063c6119e2565b005b34801561064a57600080fd5b5061066560048036036106609190810190614536565b611b0f565b6040516106729190615767565b60405180910390f35b34801561068757600080fd5b506106a2600480360361069d9190810190614665565b611c57565b005b3480156106b057600080fd5b506106cb60048036036106c69190810190614536565b611e41565b6040516106d89190615745565b60405180910390f35b3480156106ed57600080fd5b5061070860048036036107039190810190614536565b612009565b6040516107159190615789565b60405180910390f35b34801561072a57600080fd5b50610745600480360361074091908101906145ea565b61201b565b005b610761600480360361075c91908101906147b0565b612127565b60405161076e9190615b21565b60405180910390f35b610791600480360361078c91908101906147b0565b61221d565b60405161079e9190615b21565b60405180910390f35b3480156107b357600080fd5b506107ce60048036036107c99190810190614536565b612313565b005b3480156107dc57600080fd5b506107f760048036036107f29190810190614a35565b61244d565b60405161080491906157bf565b60405180910390f35b34801561081957600080fd5b50610834600480360361082f9190810190614536565b61254a565b005b34801561084257600080fd5b5061085d60048036036108589190810190614a35565b6126b9565b60405161087198979695949392919061566d565b60405180910390f35b34801561088657600080fd5b506108a1600480360361089c9190810190614536565b6129c1565b005b3480156108af57600080fd5b506108ca60048036036108c5919081019061455f565b612b30565b6040516108d79190615789565b60405180910390f35b6108fa60048036036108f59190810190614869565b612bc4565b6040516109079190615b21565b60405180910390f35b6000806000837bffffffffffffffffffffffffffffffffffffffffffffffffffffffff19167bffffffffffffffffffffffffffffffffffffffffffffffffffffffff1916815260200190815260200160002060009054906101000a900460ff169050919050565b6000610989610984612cbc565b612009565b6109c8576040517f08c379a00000000000000000000000000000000000000000000000000000000081526004016109bf90615821565b60405180910390fd5b600f60009054906101000a900460ff16156109e257600080fd5b6008543410156109f157600080fd5b6109fd88878787612cc4565b610a3c576040517f08c379a0000000000000000000000000000000000000000000000000000000008152600401610a3390615941565b60405180910390fd5b6000610a4e610a49612cbc565b612e60565b9050610a5f818a8a8a8a8a8a61302e565b610a6981846133a3565b80915050979650505050505050565b6000610a8382613417565b610ac2576040517f08c379a0000000000000000000000000000000000000000000000000000000008152600401610ab9906159e1565b60405180910390fd5b600d600083815260200190815260200160002060009054906101000a900473ffffffffffffffffffffffffffffffffffffffff169050919050565b610b0d610b08612cbc565b61113c565b610b4c576040517f08c379a0000000000000000000000000000000000000000000000000000000008152600401610b4390615b01565b60405180910390fd5b600f60009054906101000a900460ff1615610b6657600080fd5b6000610b71826115ad565b90508073ffffffffffffffffffffffffffffffffffffffff168373ffffffffffffffffffffffffffffffffffffffff161415610be2576040517f08c379a0000000000000000000000000000000000000000000000000000000008152600401610bd990615a21565b60405180910390fd5b8073ffffffffffffffffffffffffffffffffffffffff16610c01612cbc565b73ffffffffffffffffffffffffffffffffffffffff161480610c305750610c2f81610c2a612cbc565b612b30565b5b610c6f576040517f08c379a0000000000000000000000000000000000000000000000000000000008152600401610c66906159a1565b60405180910390fd5b82600d600084815260200190815260200160002060006101000a81548173ffffffffffffffffffffffffffffffffffffffff021916908373ffffffffffffffffffffffffffffffffffffffff160217905550818373ffffffffffffffffffffffffffffffffffffffff168273ffffffffffffffffffffffffffffffffffffffff167f8c5be1e5ebec7d5bd14f71427d1e84f3dd0314c0f7b2291e5b200ac8c7c3b92560405160405180910390a4505050565b60085481565b6000610d336004613489565b905090565b6000610d4a610d45612cbc565b612009565b610d89576040517f08c379a0000000000000000000000000000000000000000000000000000000008152600401610d8090615821565b60405180910390fd5b600f60009054906101000a900460ff1615610da357600080fd5b600854341015610db257600080fd5b610dbe88878787612cc4565b610dfd576040517f08c379a0000000000000000000000000000000000000000000000000000000008152600401610df490615941565b60405180910390fd5b6000610e0f610e0a612cbc565b613497565b9050610e20818a8a8a8a8a8a61302e565b610e2a81846133a3565b80915050979650505050505050565b600f60009054906101000a900460ff1615610e5357600080fd5b610e64610e5e612cbc565b826134be565b610ea3576040517f08c379a0000000000000000000000000000000000000000000000000000000008152600401610e9a90615a41565b60405180910390fd5b610eac8361113c565b610eeb576040517f08c379a0000000000000000000000000000000000000000000000000000000008152600401610ee290615921565b60405180910390fd5b610ef48261113c565b610f33576040517f08c379a0000000000000000000000000000000000000000000000000000000008152600401610f2a90615921565b60405180910390fd5b610f3e83838361359c565b505050565b6060600073ffffffffffffffffffffffffffffffffffffffff168273ffffffffffffffffffffffffffffffffffffffff161415610fb5576040517f08c379a0000000000000000000000000000000000000000000000000000000008152600401610fac90615861565b60405180910390fd5b6000610ffe600760008573ffffffffffffffffffffffffffffffffffffffff1673ffffffffffffffffffffffffffffffffffffffff168152602001908152602001600020613489565b905060008114156110425760006040519080825280602002602001820160405280156110395781602001602082028038833980820191505090505b50915050611137565b6060816040519080825280602002602001820160405280156110735781602001602082028038833980820191505090505b5090506000611080610d27565b905060008090506000600190505b82811161112e578673ffffffffffffffffffffffffffffffffffffffff166009600083815260200190815260200160002060000160009054906101000a900473ffffffffffffffffffffffffffffffffffffffff1673ffffffffffffffffffffffffffffffffffffffff161415611121578084838151811061110c57fe5b60200260200101818152505081806001019250505b808060010191505061108e565b83955050505050505b919050565b6000600360009054906101000a900473ffffffffffffffffffffffffffffffffffffffff1673ffffffffffffffffffffffffffffffffffffffff16633af32abf836040518263ffffffff1660e01b81526004016111999190615652565b60206040518083038186803b1580156111b157600080fd5b505afa1580156111c5573d6000803e3d6000fd5b505050506040513d601f19601f820116820180604052506111e99190810190614735565b9050919050565b600160009054906101000a900473ffffffffffffffffffffffffffffffffffffffff1673ffffffffffffffffffffffffffffffffffffffff16611231612cbc565b73ffffffffffffffffffffffffffffffffffffffff1614806112a75750600260009054906101000a900473ffffffffffffffffffffffffffffffffffffffff1673ffffffffffffffffffffffffffffffffffffffff1661128f612cbc565b73ffffffffffffffffffffffffffffffffffffffff16145b6112e6576040517f08c379a00000000000000000000000000000000000000000000000000000000081526004016112dd90615981565b60405180910390fd5b600f60009054906101000a900460ff166112ff57600080fd5b6000600f60006101000a81548160ff021916908315150217905550565b6113378383836040518060200160405280600081525061201b565b505050565b600f60009054906101000a900460ff161561135657600080fd5b611367611361612cbc565b826134be565b6113a6576040517f08c379a000000000000000000000000000000000000000000000000000000000815260040161139d90615ac1565b60405180910390fd5b6113af816137cb565b50565b600260009054906101000a900473ffffffffffffffffffffffffffffffffffffffff1681565b600f60009054906101000a900460ff1681565b600160009054906101000a900473ffffffffffffffffffffffffffffffffffffffff1673ffffffffffffffffffffffffffffffffffffffff1661142c612cbc565b73ffffffffffffffffffffffffffffffffffffffff1614806114a25750600260009054906101000a900473ffffffffffffffffffffffffffffffffffffffff1673ffffffffffffffffffffffffffffffffffffffff1661148a612cbc565b73ffffffffffffffffffffffffffffffffffffffff16145b6114e1576040517f08c379a00000000000000000000000000000000000000000000000000000000081526004016114d890615981565b60405180910390fd5b60003073ffffffffffffffffffffffffffffffffffffffff1631905060003373ffffffffffffffffffffffffffffffffffffffff16826040516115239061563d565b60006040518083038185875af1925050503d8060008114611560576040519150601f19603f3d011682016040523d82523d6000602084013e611565565b606091505b50509050806115a9576040517f08c379a00000000000000000000000000000000000000000000000000000000081526004016115a090615841565b60405180910390fd5b5050565b6000806005600084815260200190815260200160002060009054906101000a900473ffffffffffffffffffffffffffffffffffffffff16905080915050919050565b60008073ffffffffffffffffffffffffffffffffffffffff168273ffffffffffffffffffffffffffffffffffffffff161415611660576040517f08c379a000000000000000000000000000000000000000000000000000000000815260040161165790615861565b60405180910390fd5b6116a7600660008473ffffffffffffffffffffffffffffffffffffffff1673ffffffffffffffffffffffffffffffffffffffff168152602001908152602001600020613489565b9050919050565b600160009054906101000a900473ffffffffffffffffffffffffffffffffffffffff1681565b606080600a60008673ffffffffffffffffffffffffffffffffffffffff1673ffffffffffffffffffffffffffffffffffffffff168152602001908152602001600020848460405161172692919061560d565b9081526020016040518091039020805480602002602001604051908101604052809291908181526020016000905b8282101561182457838290600052602060002001604051806020016040529081600082018054600181600116156101000203166002900480601f01602080910402602001604051908101604052809291908181526020018280546001816001161561010002031660029004801561180c5780601f106117e15761010080835404028352916020019161180c565b820191906000526020600020905b8154815290600101906020018083116117ef57829003601f168201915b50505050508152505081526020019060010190611754565b5050505090506060815160405190808252806020026020018201604052801561186157816020015b606081526020019060019003908161184c5790505b50905060008090505b82518110156118af5782818151811061187f57fe5b60200260200101516000015182828151811061189757fe5b6020026020010181905250808060010191505061186a565b5080925050509392505050565b600360009054906101000a900473ffffffffffffffffffffffffffffffffffffffff1681565b600160009054906101000a900473ffffffffffffffffffffffffffffffffffffffff1673ffffffffffffffffffffffffffffffffffffffff16611923612cbc565b73ffffffffffffffffffffffffffffffffffffffff1614806119995750600260009054906101000a900473ffffffffffffffffffffffffffffffffffffffff1673ffffffffffffffffffffffffffffffffffffffff16611981612cbc565b73ffffffffffffffffffffffffffffffffffffffff16145b6119d8576040517f08c379a00000000000000000000000000000000000000000000000000000000081526004016119cf90615981565b60405180910390fd5b8060088190555050565b600160009054906101000a900473ffffffffffffffffffffffffffffffffffffffff1673ffffffffffffffffffffffffffffffffffffffff16611a23612cbc565b73ffffffffffffffffffffffffffffffffffffffff161480611a995750600260009054906101000a900473ffffffffffffffffffffffffffffffffffffffff1673ffffffffffffffffffffffffffffffffffffffff16611a81612cbc565b73ffffffffffffffffffffffffffffffffffffffff16145b611ad8576040517f08c379a0000000000000000000000000000000000000000000000000000000008152600401611acf90615981565b60405180910390fd5b600f60009054906101000a900460ff1615611af257600080fd5b6001600f60006101000a81548160ff021916908315150217905550565b60606000611b1c836115ef565b90506000811415611b60576000604051908082528060200260200182016040528015611b575781602001602082028038833980820191505090505b50915050611c52565b606081604051908082528060200260200182016040528015611b915781602001602082028038833980820191505090505b5090506000611b9e610d27565b905060008090506000600190505b828111611c49578673ffffffffffffffffffffffffffffffffffffffff166005600083815260200190815260200160002060009054906101000a900473ffffffffffffffffffffffffffffffffffffffff1673ffffffffffffffffffffffffffffffffffffffff161415611c3c5780848381518110611c2757fe5b60200260200101818152505081806001019250505b8080600101915050611bac565b83955050505050505b919050565b611c67611c62612cbc565b61113c565b611ca6576040517f08c379a0000000000000000000000000000000000000000000000000000000008152600401611c9d90615b01565b60405180910390fd5b600f60009054906101000a900460ff1615611cc057600080fd5b611cc8612cbc565b73ffffffffffffffffffffffffffffffffffffffff168273ffffffffffffffffffffffffffffffffffffffff161415611d36576040517f08c379a0000000000000000000000000000000000000000000000000000000008152600401611d2d906158c1565b60405180910390fd5b80600e6000611d43612cbc565b73ffffffffffffffffffffffffffffffffffffffff1673ffffffffffffffffffffffffffffffffffffffff16815260200190815260200160002060008473ffffffffffffffffffffffffffffffffffffffff1673ffffffffffffffffffffffffffffffffffffffff16815260200190815260200160002060006101000a81548160ff0219169083151502179055508173ffffffffffffffffffffffffffffffffffffffff16611df0612cbc565b73ffffffffffffffffffffffffffffffffffffffff167f17307eab39ab6107e8899845ad3d59bd9653f200f220920489ca2b5937696c3183604051611e359190615789565b60405180910390a35050565b606080600b60008473ffffffffffffffffffffffffffffffffffffffff1673ffffffffffffffffffffffffffffffffffffffff168152602001908152602001600020805480602002602001604051908101604052809291908181526020016000905b82821015611f7357838290600052602060002001604051806020016040529081600082018054600181600116156101000203166002900480601f016020809104026020016040519081016040528092919081815260200182805460018160011615610100020316600290048015611f5b5780601f10611f3057610100808354040283529160200191611f5b565b820191906000526020600020905b815481529060010190602001808311611f3e57829003601f168201915b50505050508152505081526020019060010190611ea3565b50505050905060608151604051908082528060200260200182016040528015611fb057816020015b6060815260200190600190039081611f9b5790505b50905060008090505b8251811015611ffe57828181518110611fce57fe5b602002602001015160000151828281518110611fe657fe5b60200260200101819052508080600101915050611fb9565b508092505050919050565b60006120148261113c565b9050919050565b600f60009054906101000a900460ff161561203557600080fd5b61203e8461113c565b61207d576040517f08c379a000000000000000000000000000000000000000000000000000000000815260040161207490615921565b60405180910390fd5b6120868361113c565b6120c5576040517f08c379a00000000000000000000000000000000000000000000000000000000081526004016120bc90615921565b60405180910390fd5b6120d66120d0612cbc565b836134be565b612115576040517f08c379a000000000000000000000000000000000000000000000000000000000815260040161210c90615a41565b60405180910390fd5b612121848484846137e0565b50505050565b6000612139612134612cbc565b612009565b612178576040517f08c379a000000000000000000000000000000000000000000000000000000000815260040161216f90615821565b60405180910390fd5b600f60009054906101000a900460ff161561219257600080fd5b6008543410156121a157600080fd5b6121ad87868686612cc4565b6121ec576040517f08c379a00000000000000000000000000000000000000000000000000000000081526004016121e390615941565b60405180910390fd5b60006121fe6121f9612cbc565b613497565b905061220f8189898989898961302e565b809150509695505050505050565b600061222f61222a612cbc565b612009565b61226e576040517f08c379a000000000000000000000000000000000000000000000000000000000815260040161226590615821565b60405180910390fd5b600f60009054906101000a900460ff161561228857600080fd5b60085434101561229757600080fd5b6122a387868686612cc4565b6122e2576040517f08c379a00000000000000000000000000000000000000000000000000000000081526004016122d990615941565b60405180910390fd5b60006122f46122ef612cbc565b612e60565b90506123058189898989898961302e565b809150509695505050505050565b600160009054906101000a900473ffffffffffffffffffffffffffffffffffffffff1673ffffffffffffffffffffffffffffffffffffffff16612354612cbc565b73ffffffffffffffffffffffffffffffffffffffff1614806123ca5750600260009054906101000a900473ffffffffffffffffffffffffffffffffffffffff1673ffffffffffffffffffffffffffffffffffffffff166123b2612cbc565b73ffffffffffffffffffffffffffffffffffffffff16145b612409576040517f08c379a000000000000000000000000000000000000000000000000000000000815260040161240090615981565b60405180910390fd5b80600360006101000a81548173ffffffffffffffffffffffffffffffffffffffff021916908373ffffffffffffffffffffffffffffffffffffffff16021790555050565b606061245882613417565b612497576040517f08c379a000000000000000000000000000000000000000000000000000000000815260040161248e90615ae1565b60405180910390fd5b600c60008381526020019081526020016000208054600181600116156101000203166002900480601f01602080910402602001604051908101604052809291908181526020018280546001816001161561010002031660029004801561253e5780601f106125135761010080835404028352916020019161253e565b820191906000526020600020905b81548152906001019060200180831161252157829003601f168201915b50505050509050919050565b600160009054906101000a900473ffffffffffffffffffffffffffffffffffffffff1673ffffffffffffffffffffffffffffffffffffffff1661258b612cbc565b73ffffffffffffffffffffffffffffffffffffffff1614806126015750600260009054906101000a900473ffffffffffffffffffffffffffffffffffffffff1673ffffffffffffffffffffffffffffffffffffffff166125e9612cbc565b73ffffffffffffffffffffffffffffffffffffffff16145b612640576040517f08c379a000000000000000000000000000000000000000000000000000000000815260040161263790615981565b60405180910390fd5b600073ffffffffffffffffffffffffffffffffffffffff168173ffffffffffffffffffffffffffffffffffffffff16146126b65780600260006101000a81548173ffffffffffffffffffffffffffffffffffffffff021916908373ffffffffffffffffffffffffffffffffffffffff1602179055505b50565b6000806060806000806000806126ce89613417565b61270d576040517f08c379a0000000000000000000000000000000000000000000000000000000008152600401612704906157e1565b60405180910390fd5b6127156141c0565b600960008b81526020019081526020016000206040518060e00160405290816000820160009054906101000a900473ffffffffffffffffffffffffffffffffffffffff1673ffffffffffffffffffffffffffffffffffffffff1673ffffffffffffffffffffffffffffffffffffffff168152602001600182018054600181600116156101000203166002900480601f0160208091040260200160405190810160405280929190818152602001828054600181600116156101000203166002900480156128225780601f106127f757610100808354040283529160200191612822565b820191906000526020600020905b81548152906001019060200180831161280557829003601f168201915b50505050508152602001600282018054600181600116156101000203166002900480601f0160208091040260200160405190810160405280929190818152602001828054600181600116156101000203166002900480156128c45780601f10612899576101008083540402835291602001916128c4565b820191906000526020600020905b8154815290600101906020018083116128a757829003601f168201915b505050505081526020016003820160009054906101000a900465ffffffffffff1665ffffffffffff1665ffffffffffff1681526020016003820160069054906101000a900465ffffffffffff1665ffffffffffff1665ffffffffffff16815260200160038201600c9054906101000a900465ffffffffffff1665ffffffffffff1665ffffffffffff1681526020016003820160129054906101000a900461ffff1661ffff1661ffff1681525050905080600001516129818b6115ad565b82602001518360400151846060015185608001518660a001518760c001518595508494509850985098509850985098509850985050919395975091939597565b600160009054906101000a900473ffffffffffffffffffffffffffffffffffffffff1673ffffffffffffffffffffffffffffffffffffffff16612a02612cbc565b73ffffffffffffffffffffffffffffffffffffffff161480612a785750600260009054906101000a900473ffffffffffffffffffffffffffffffffffffffff1673ffffffffffffffffffffffffffffffffffffffff16612a60612cbc565b73ffffffffffffffffffffffffffffffffffffffff16145b612ab7576040517f08c379a0000000000000000000000000000000000000000000000000000000008152600401612aae90615981565b60405180910390fd5b600073ffffffffffffffffffffffffffffffffffffffff168173ffffffffffffffffffffffffffffffffffffffff1614612b2d5780600160006101000a81548173ffffffffffffffffffffffffffffffffffffffff021916908373ffffffffffffffffffffffffffffffffffffffff1602179055505b50565b6000600e60008473ffffffffffffffffffffffffffffffffffffffff1673ffffffffffffffffffffffffffffffffffffffff16815260200190815260200160002060008373ffffffffffffffffffffffffffffffffffffffff1673ffffffffffffffffffffffffffffffffffffffff16815260200190815260200160002060009054906101000a900460ff16905092915050565b6000612bd6612bd1612cbc565b612009565b612c15576040517f08c379a0000000000000000000000000000000000000000000000000000000008152600401612c0c90615821565b60405180910390fd5b600f60009054906101000a900460ff1615612c2f57600080fd5b600854341015612c3e57600080fd5b612c4a88878787612cc4565b612c89576040517f08c379a0000000000000000000000000000000000000000000000000000000008152600401612c8090615941565b60405180910390fd5b6000612c9c612c96612cbc565b8461383c565b9050612cad818a8a8a8a8a8a61302e565b80915050979650505050505050565b600033905090565b6000600360009054906101000a900473ffffffffffffffffffffffffffffffffffffffff1673ffffffffffffffffffffffffffffffffffffffff166347ba747a866040518263ffffffff1660e01b8152600401612d2191906157bf565b60206040518083038186803b158015612d3957600080fd5b505afa158015612d4d573d6000803e3d6000fd5b505050506040513d601f19601f82011682018060405250612d719190810190614735565b612db0576040517f08c379a0000000000000000000000000000000000000000000000000000000008152600401612da790615961565b60405180910390fd5b8165ffffffffffff168465ffffffffffff1611612e02576040517f08c379a0000000000000000000000000000000000000000000000000000000008152600401612df9906158e1565b60405180910390fd5b8365ffffffffffff168365ffffffffffff1611612e54576040517f08c379a0000000000000000000000000000000000000000000000000000000008152600401612e4b90615881565b60405180910390fd5b60019050949350505050565b60008073ffffffffffffffffffffffffffffffffffffffff168273ffffffffffffffffffffffffffffffffffffffff161415612ed1576040517f08c379a0000000000000000000000000000000000000000000000000000000008152600401612ec8906159c1565b60405180910390fd5b612edb60046138a0565b6000612ee76004613489565b9050826005600083815260200190815260200160002060006101000a81548173ffffffffffffffffffffffffffffffffffffffff021916908373ffffffffffffffffffffffffffffffffffffffff160217905550612f82600660008573ffffffffffffffffffffffffffffffffffffffff1673ffffffffffffffffffffffffffffffffffffffff1681526020019081526020016000206138a0565b612fc9600760008573ffffffffffffffffffffffffffffffffffffffff1673ffffffffffffffffffffffffffffffffffffffff1681526020019081526020016000206138a0565b808373ffffffffffffffffffffffffffffffffffffffff16600073ffffffffffffffffffffffffffffffffffffffff167fddf252ad1be2c89b69c2b068fc378daa952ba7f163c4a11628f55a4df523b3ef60405160405180910390a480915050919050565b61303787613417565b613076576040517f08c379a000000000000000000000000000000000000000000000000000000000815260040161306d90615aa1565b60405180910390fd5b61307e6141c0565b6040518060e00160405280613091612cbc565b73ffffffffffffffffffffffffffffffffffffffff1681526020018881526020018781526020018665ffffffffffff1681526020018565ffffffffffff1681526020018465ffffffffffff1681526020018361ffff16815250905080600960008a815260200190815260200160002060008201518160000160006101000a81548173ffffffffffffffffffffffffffffffffffffffff021916908373ffffffffffffffffffffffffffffffffffffffff160217905550602082015181600101908051906020019061316392919061422f565b50604082015181600201908051906020019061318092919061422f565b5060608201518160030160006101000a81548165ffffffffffff021916908365ffffffffffff16021790555060808201518160030160066101000a81548165ffffffffffff021916908365ffffffffffff16021790555060a082015181600301600c6101000a81548165ffffffffffff021916908365ffffffffffff16021790555060c08201518160030160126101000a81548161ffff021916908361ffff160217905550905050613231876138b6565b6132d257600b6000613241612cbc565b73ffffffffffffffffffffffffffffffffffffffff1673ffffffffffffffffffffffffffffffffffffffff16815260200190815260200160002060405180602001604052808981525090806001815401808255809150509060018203906000526020600020016000909192909190915060008201518160000190805190602001906132cd92919061422f565b505050505b6132dc8787613a46565b61339957600a60006132ec612cbc565b73ffffffffffffffffffffffffffffffffffffffff1673ffffffffffffffffffffffffffffffffffffffff168152602001908152602001600020876040516133349190615626565b9081526020016040518091039020604051806020016040528088815250908060018154018082558091505090600182039060005260206000200160009091929091909150600082015181600001908051906020019061339492919061422f565b505050505b5050505050505050565b6133ac82613417565b6133eb576040517f08c379a00000000000000000000000000000000000000000000000000000000081526004016133e290615a81565b60405180910390fd5b80600c600084815260200190815260200160002090805190602001906134129291906142af565b505050565b6000806005600084815260200190815260200160002060009054906101000a900473ffffffffffffffffffffffffffffffffffffffff169050600073ffffffffffffffffffffffffffffffffffffffff168173ffffffffffffffffffffffffffffffffffffffff161415915050919050565b600081600001549050919050565b6000806134b3836040518060200160405280600081525061383c565b905080915050919050565b60006134c982613417565b613508576040517f08c379a00000000000000000000000000000000000000000000000000000000081526004016134ff90615901565b60405180910390fd5b6000613513836115ad565b90508073ffffffffffffffffffffffffffffffffffffffff168473ffffffffffffffffffffffffffffffffffffffff16148061358257508373ffffffffffffffffffffffffffffffffffffffff1661356a84610a78565b73ffffffffffffffffffffffffffffffffffffffff16145b8061359357506135928185612b30565b5b91505092915050565b8273ffffffffffffffffffffffffffffffffffffffff166135bc826115ad565b73ffffffffffffffffffffffffffffffffffffffff1614613612576040517f08c379a000000000000000000000000000000000000000000000000000000000815260040161360990615a01565b60405180910390fd5b600073ffffffffffffffffffffffffffffffffffffffff168273ffffffffffffffffffffffffffffffffffffffff161415613682576040517f08c379a0000000000000000000000000000000000000000000000000000000008152600401613679906158a1565b60405180910390fd5b61368b81613bf3565b6136d2600660008573ffffffffffffffffffffffffffffffffffffffff1673ffffffffffffffffffffffffffffffffffffffff168152602001908152602001600020613cb1565b613719600660008473ffffffffffffffffffffffffffffffffffffffff1673ffffffffffffffffffffffffffffffffffffffff1681526020019081526020016000206138a0565b816005600083815260200190815260200160002060006101000a81548173ffffffffffffffffffffffffffffffffffffffff021916908373ffffffffffffffffffffffffffffffffffffffff160217905550808273ffffffffffffffffffffffffffffffffffffffff168473ffffffffffffffffffffffffffffffffffffffff167fddf252ad1be2c89b69c2b068fc378daa952ba7f163c4a11628f55a4df523b3ef60405160405180910390a4505050565b6137dd6137d7826115ad565b82613cd4565b50565b6137eb84848461359c565b6137f784848484613f59565b613836576040517f08c379a000000000000000000000000000000000000000000000000000000000815260040161382d90615801565b60405180910390fd5b50505050565b60008061384884612e60565b90506138576000858386613f59565b613896576040517f08c379a000000000000000000000000000000000000000000000000000000000815260040161388d90615801565b60405180910390fd5b8091505092915050565b6001816000016000828254019250508190555050565b60006060600b60003373ffffffffffffffffffffffffffffffffffffffff1673ffffffffffffffffffffffffffffffffffffffff168152602001908152602001600020805480602002602001604051908101604052809291908181526020016000905b828210156139e957838290600052602060002001604051806020016040529081600082018054600181600116156101000203166002900480601f0160208091040260200160405190810160405280929190818152602001828054600181600116156101000203166002900480156139d15780601f106139a6576101008083540402835291602001916139d1565b820191906000526020600020905b8154815290600101906020018083116139b457829003601f168201915b50505050508152505081526020019060010190613919565b505050509050600080905060008090505b8251811015613a3b57613a2485848381518110613a1357fe5b602002602001015160000151614077565b15613a2e57600191505b80806001019150506139fa565b508092505050919050565b60006060600a60003373ffffffffffffffffffffffffffffffffffffffff1673ffffffffffffffffffffffffffffffffffffffff16815260200190815260200160002084604051613a979190615626565b9081526020016040518091039020805480602002602001604051908101604052809291908181526020016000905b82821015613b9557838290600052602060002001604051806020016040529081600082018054600181600116156101000203166002900480601f016020809104026020016040519081016040528092919081815260200182805460018160011615610100020316600290048015613b7d5780601f10613b5257610100808354040283529160200191613b7d565b820191906000526020600020905b815481529060010190602001808311613b6057829003601f168201915b50505050508152505081526020019060010190613ac5565b505050509050600080905060008090505b8251811015613be757613bd085848381518110613bbf57fe5b602002602001015160000151614077565b15613bda57600191505b8080600101915050613ba6565b50809250505092915050565b600073ffffffffffffffffffffffffffffffffffffffff16600d600083815260200190815260200160002060009054906101000a900473ffffffffffffffffffffffffffffffffffffffff1673ffffffffffffffffffffffffffffffffffffffff1614613cae576000600d600083815260200190815260200160002060006101000a81548173ffffffffffffffffffffffffffffffffffffffff021916908373ffffffffffffffffffffffffffffffffffffffff1602179055505b50565b613cc9600182600001546140d090919063ffffffff16565b816000018190555050565b8173ffffffffffffffffffffffffffffffffffffffff16613cf4826115ad565b73ffffffffffffffffffffffffffffffffffffffff1614613d4a576040517f08c379a0000000000000000000000000000000000000000000000000000000008152600401613d4190615a61565b60405180910390fd5b613d5381613bf3565b613d9a600660008473ffffffffffffffffffffffffffffffffffffffff1673ffffffffffffffffffffffffffffffffffffffff168152602001908152602001600020613cb1565b60006005600083815260200190815260200160002060006101000a81548173ffffffffffffffffffffffffffffffffffffffff021916908373ffffffffffffffffffffffffffffffffffffffff1602179055506000600c600083815260200190815260200160002080546001816001161561010002031660029004905014613e3c57600c60008281526020019081526020016000206000613e3b919061432f565b5b60096000828152602001908152602001600020600080820160006101000a81549073ffffffffffffffffffffffffffffffffffffffff0219169055600182016000613e87919061432f565b600282016000613e97919061432f565b6003820160006101000a81549065ffffffffffff02191690556003820160066101000a81549065ffffffffffff021916905560038201600c6101000a81549065ffffffffffff02191690556003820160126101000a81549061ffff0219169055505080600073ffffffffffffffffffffffffffffffffffffffff168373ffffffffffffffffffffffffffffffffffffffff167fddf252ad1be2c89b69c2b068fc378daa952ba7f163c4a11628f55a4df523b3ef60405160405180910390a45050565b6000613f7a8473ffffffffffffffffffffffffffffffffffffffff1661411a565b613f87576001905061406f565b60008473ffffffffffffffffffffffffffffffffffffffff1663150b7a02613fad612cbc565b8887876040518563ffffffff1660e01b8152600401613fcf94939291906156f9565b602060405180830381600087803b158015613fe957600080fd5b505af1158015613ffd573d6000803e3d6000fd5b505050506040513d601f19601f820116820180604052506140219190810190614787565b905063150b7a0260e01b7bffffffffffffffffffffffffffffffffffffffffffffffffffffffff1916817bffffffffffffffffffffffffffffffffffffffffffffffffffffffff1916149150505b949350505050565b60008160405160200161408a9190615626565b60405160208183030381529060405280519060200120836040516020016140b19190615626565b6040516020818303038152906040528051906020012014905092915050565b600061411283836040518060400160405280601e81526020017f536166654d6174683a207375627472616374696f6e206f766572666c6f770000815250614165565b905092915050565b60008060007fc5d2460186f7233c927e7db2dcc703c0e500b653ca82273b7bfad8045d85a47060001b9050833f91506000801b821415801561415c5750808214155b92505050919050565b60008383111582906141ad576040517f08c379a00000000000000000000000000000000000000000000000000000000081526004016141a491906157bf565b60405180910390fd5b5060008385039050809150509392505050565b6040518060e00160405280600073ffffffffffffffffffffffffffffffffffffffff1681526020016060815260200160608152602001600065ffffffffffff168152602001600065ffffffffffff168152602001600065ffffffffffff168152602001600061ffff1681525090565b828054600181600116156101000203166002900490600052602060002090601f016020900481019282601f1061427057805160ff191683800117855561429e565b8280016001018555821561429e579182015b8281111561429d578251825591602001919060010190614282565b5b5090506142ab9190614377565b5090565b828054600181600116156101000203166002900490600052602060002090601f016020900481019282601f106142f057805160ff191683800117855561431e565b8280016001018555821561431e579182015b8281111561431d578251825591602001919060010190614302565b5b50905061432b9190614377565b5090565b50805460018160011615610100020316600290046000825580601f106143555750614374565b601f0160209004906000526020600020908101906143739190614377565b5b50565b61439991905b8082111561439557600081600090555060010161437d565b5090565b90565b6000813590506143ab81615da8565b92915050565b6000813590506143c081615dbf565b92915050565b6000815190506143d581615dbf565b92915050565b6000813590506143ea81615dd6565b92915050565b6000815190506143ff81615dd6565b92915050565b600082601f83011261441657600080fd5b813561442961442482615b69565b615b3c565b9150808252602083016020830185838301111561444557600080fd5b614450838284615d55565b50505092915050565b60008083601f84011261446b57600080fd5b8235905067ffffffffffffffff81111561448457600080fd5b60208301915083600182028301111561449c57600080fd5b9250929050565b600082601f8301126144b457600080fd5b81356144c76144c282615b95565b615b3c565b915080825260208301602083018583830111156144e357600080fd5b6144ee838284615d55565b50505092915050565b60008135905061450681615ded565b92915050565b60008135905061451b81615e04565b92915050565b60008135905061453081615e1b565b92915050565b60006020828403121561454857600080fd5b60006145568482850161439c565b91505092915050565b6000806040838503121561457257600080fd5b60006145808582860161439c565b92505060206145918582860161439c565b9150509250929050565b6000806000606084860312156145b057600080fd5b60006145be8682870161439c565b93505060206145cf8682870161439c565b92505060406145e08682870161450c565b9150509250925092565b6000806000806080858703121561460057600080fd5b600061460e8782880161439c565b945050602061461f8782880161439c565b93505060406146308782880161450c565b925050606085013567ffffffffffffffff81111561464d57600080fd5b61465987828801614405565b91505092959194509250565b6000806040838503121561467857600080fd5b60006146868582860161439c565b9250506020614697858286016143b1565b9150509250929050565b6000806000604084860312156146b657600080fd5b60006146c48682870161439c565b935050602084013567ffffffffffffffff8111156146e157600080fd5b6146ed86828701614459565b92509250509250925092565b6000806040838503121561470c57600080fd5b600061471a8582860161439c565b925050602061472b8582860161450c565b9150509250929050565b60006020828403121561474757600080fd5b6000614755848285016143c6565b91505092915050565b60006020828403121561477057600080fd5b600061477e848285016143db565b91505092915050565b60006020828403121561479957600080fd5b60006147a7848285016143f0565b91505092915050565b60008060008060008060c087890312156147c957600080fd5b600087013567ffffffffffffffff8111156147e357600080fd5b6147ef89828a016144a3565b965050602087013567ffffffffffffffff81111561480c57600080fd5b61481889828a016144a3565b955050604061482989828a01614521565b945050606061483a89828a01614521565b935050608061484b89828a01614521565b92505060a061485c89828a016144f7565b9150509295509295509295565b600080600080600080600060e0888a03121561488457600080fd5b600088013567ffffffffffffffff81111561489e57600080fd5b6148aa8a828b016144a3565b975050602088013567ffffffffffffffff8111156148c757600080fd5b6148d38a828b016144a3565b96505060406148e48a828b01614521565b95505060606148f58a828b01614521565b94505060806149068a828b01614521565b93505060a06149178a828b016144f7565b92505060c088013567ffffffffffffffff81111561493457600080fd5b6149408a828b01614405565b91505092959891949750929550565b600080600080600080600060e0888a03121561496a57600080fd5b600088013567ffffffffffffffff81111561498457600080fd5b6149908a828b016144a3565b975050602088013567ffffffffffffffff8111156149ad57600080fd5b6149b98a828b016144a3565b96505060406149ca8a828b01614521565b95505060606149db8a828b01614521565b94505060806149ec8a828b01614521565b93505060a06149fd8a828b016144f7565b92505060c088013567ffffffffffffffff811115614a1a57600080fd5b614a268a828b016144a3565b91505092959891949750929550565b600060208284031215614a4757600080fd5b6000614a558482850161450c565b91505092915050565b6000614a6a8383614c52565b905092915050565b6000614a7e83836155e0565b60208301905092915050565b614a9381615c9d565b82525050565b6000614aa482615be1565b614aae8185615c32565b935083602082028501614ac085615bc1565b8060005b85811015614afc5784840389528151614add8582614a5e565b9450614ae883615c18565b925060208a01995050600181019050614ac4565b50829750879550505050505092915050565b6000614b1982615bec565b614b238185615c43565b9350614b2e83615bd1565b8060005b83811015614b5f578151614b468882614a72565b9750614b5183615c25565b925050600181019050614b32565b5085935050505092915050565b614b7581615caf565b82525050565b6000614b8682615bf7565b614b908185615c54565b9350614ba0818560208601615d64565b614ba981615d97565b840191505092915050565b614bbd81615d31565b82525050565b6000614bcf8385615c92565b9350614bdc838584615d55565b82840190509392505050565b6000614bf382615c0d565b614bfd8185615c81565b9350614c0d818560208601615d64565b614c1681615d97565b840191505092915050565b6000614c2c82615c0d565b614c368185615c92565b9350614c46818560208601615d64565b80840191505092915050565b6000614c5d82615c02565b614c678185615c70565b9350614c77818560208601615d64565b614c8081615d97565b840191505092915050565b6000614c98601d83615c81565b91507f4552433732313a204e6f6e2d6578697374656e7420546f6b656e2049440000006000830152602082019050919050565b6000614cd8603283615c81565b91507f4552433732313a207472616e7366657220746f206e6f6e20455243373231526560008301527f63656976657220696d706c656d656e74657200000000000000000000000000006020830152604082019050919050565b6000614d3e603583615c81565b91507f4552433732313a2063616c6c6572206973206e6f742077686974656c6973746560008301527f6420666f7220746865204d696e74657220726f6c6500000000000000000000006020830152604082019050919050565b6000614da4600f83615c81565b91507f5769746864726177206661696c656400000000000000000000000000000000006000830152602082019050919050565b6000614de4602583615c81565b91507f4552433732313a2063616e6e6f7420717565727920746865207a65726f20616460008301527f64726573730000000000000000000000000000000000000000000000000000006020830152604082019050919050565b6000614e4a602a83615c81565b91507f4552433732313a2073746172742074696d65206d757374206265206265666f7260008301527f6520656e642074696d65000000000000000000000000000000000000000000006020830152604082019050919050565b6000614eb0602483615c81565b91507f4552433732313a207472616e7366657220746f20746865207a65726f2061646460008301527f72657373000000000000000000000000000000000000000000000000000000006020830152604082019050919050565b6000614f16601983615c81565b91507f4552433732313a20617070726f766520746f2063616c6c6572000000000000006000830152602082019050919050565b6000614f56603583615c81565b91507f4552433732313a2073746172742074696d65206d75737420626520616674657260008301527f206974732061756374696f6e20656e642074696d6500000000000000000000006020830152604082019050919050565b6000614fbc602c83615c81565b91507f4552433732313a206f70657261746f7220717565727920666f72206e6f6e657860008301527f697374656e7420746f6b656e00000000000000000000000000000000000000006020830152604082019050919050565b6000615022603483615c81565b91507f4552433732313a207472616e73666572207265737472696374656420746f207760008301527f686974656c6973746564206164647265737365730000000000000000000000006020830152604082019050919050565b6000615088601983615c81565b91507f4552433732313a20696e76616c69642074696d6520736c6f74000000000000006000830152602082019050919050565b60006150c8602e83615c81565b91507f4552433732313a20636f6e74656e74206964206973206e6f742072656769737460008301527f6572656420746f2063616c6c65720000000000000000000000000000000000006020830152604082019050919050565b600061512e601b83615c81565b91507f4552433732313a204f4e4c595f434f4e54524143545f4f574e455200000000006000830152602082019050919050565b600061516e603e83615c81565b91507f4552433732313a20617070726f76652063616c6c6572206973206e6f7420746f60008301527f6b656e206f776e6572206e6f7220617070726f76656420666f7220616c6c00006020830152604082019050919050565b60006151d4602083615c81565b91507f4552433732313a206d696e7420746f20746865207a65726f20616464726573736000830152602082019050919050565b6000615214602c83615c81565b91507f4552433732313a20617070726f76656420717565727920666f72206e6f6e657860008301527f697374656e7420746f6b656e00000000000000000000000000000000000000006020830152604082019050919050565b600061527a602983615c81565b91507f4552433732313a207472616e73666572206f6620746f6b656e2074686174206960008301527f73206e6f74206f776e00000000000000000000000000000000000000000000006020830152604082019050919050565b60006152e0601d83615c81565b91507f4552433732313a20617070726f76616c20697320726564756e64616e740000006000830152602082019050919050565b6000615320600083615c65565b9150600082019050919050565b600061533a603183615c81565b91507f4552433732313a207472616e736665722063616c6c6572206973206e6f74206f60008301527f776e6572206e6f7220617070726f7665640000000000000000000000000000006020830152604082019050919050565b60006153a0602583615c81565b91507f4552433732313a206275726e206f6620746f6b656e2074686174206973206e6f60008301527f74206f776e0000000000000000000000000000000000000000000000000000006020830152604082019050919050565b6000615406602483615c81565b91507f4552433732313a2055524920736574206f66206e6f6e6578697374656e74207460008301527f6f6b656e000000000000000000000000000000000000000000000000000000006020830152604082019050919050565b600061546c601a83615c81565b91507f4552433732313a206e6f6e2d6578697374656e7420746f6b656e0000000000006000830152602082019050919050565b60006154ac602e83615c81565b91507f4552433732313a2063616c6c6572206973206e6f7420746f6b656e206f776e6560008301527f72206e6f7220617070726f7665640000000000000000000000000000000000006020830152604082019050919050565b6000615512602783615c81565b91507f4552433732313a2055524920717565727920666f72206e6f6e6578697374656e60008301527f7420746f6b656e000000000000000000000000000000000000000000000000006020830152604082019050919050565b6000615578602183615c81565b91507f4552433732313a2063616c6c6572206973206e6f742077686974656c6973746560008301527f64000000000000000000000000000000000000000000000000000000000000006020830152604082019050919050565b6155da81615ce7565b82525050565b6155e981615d15565b82525050565b6155f881615d15565b82525050565b61560781615d1f565b82525050565b600061561a828486614bc3565b91508190509392505050565b60006156328284614c21565b915081905092915050565b600061564882615313565b9150819050919050565b60006020820190506156676000830184614a8a565b92915050565b600061010082019050615683600083018b614a8a565b615690602083018a614a8a565b81810360408301526156a28189614be8565b905081810360608301526156b68188614be8565b90506156c560808301876155fe565b6156d260a08301866155fe565b6156df60c08301856155fe565b6156ec60e08301846155d1565b9998505050505050505050565b600060808201905061570e6000830187614a8a565b61571b6020830186614a8a565b61572860408301856155ef565b818103606083015261573a8184614b7b565b905095945050505050565b6000602082019050818103600083015261575f8184614a99565b905092915050565b600060208201905081810360008301526157818184614b0e565b905092915050565b600060208201905061579e6000830184614b6c565b92915050565b60006020820190506157b96000830184614bb4565b92915050565b600060208201905081810360008301526157d98184614be8565b905092915050565b600060208201905081810360008301526157fa81614c8b565b9050919050565b6000602082019050818103600083015261581a81614ccb565b9050919050565b6000602082019050818103600083015261583a81614d31565b9050919050565b6000602082019050818103600083015261585a81614d97565b9050919050565b6000602082019050818103600083015261587a81614dd7565b9050919050565b6000602082019050818103600083015261589a81614e3d565b9050919050565b600060208201905081810360008301526158ba81614ea3565b9050919050565b600060208201905081810360008301526158da81614f09565b9050919050565b600060208201905081810360008301526158fa81614f49565b9050919050565b6000602082019050818103600083015261591a81614faf565b9050919050565b6000602082019050818103600083015261593a81615015565b9050919050565b6000602082019050818103600083015261595a8161507b565b9050919050565b6000602082019050818103600083015261597a816150bb565b9050919050565b6000602082019050818103600083015261599a81615121565b9050919050565b600060208201905081810360008301526159ba81615161565b9050919050565b600060208201905081810360008301526159da816151c7565b9050919050565b600060208201905081810360008301526159fa81615207565b9050919050565b60006020820190508181036000830152615a1a8161526d565b9050919050565b60006020820190508181036000830152615a3a816152d3565b9050919050565b60006020820190508181036000830152615a5a8161532d565b9050919050565b60006020820190508181036000830152615a7a81615393565b9050919050565b60006020820190508181036000830152615a9a816153f9565b9050919050565b60006020820190508181036000830152615aba8161545f565b9050919050565b60006020820190508181036000830152615ada8161549f565b9050919050565b60006020820190508181036000830152615afa81615505565b9050919050565b60006020820190508181036000830152615b1a8161556b565b9050919050565b6000602082019050615b3660008301846155ef565b92915050565b6000604051905081810181811067ffffffffffffffff82111715615b5f57600080fd5b8060405250919050565b600067ffffffffffffffff821115615b8057600080fd5b601f19601f8301169050602081019050919050565b600067ffffffffffffffff821115615bac57600080fd5b601f19601f8301169050602081019050919050565b6000819050602082019050919050565b6000819050602082019050919050565b600081519050919050565b600081519050919050565b600081519050919050565b600081519050919050565b600081519050919050565b6000602082019050919050565b6000602082019050919050565b600082825260208201905092915050565b600082825260208201905092915050565b600082825260208201905092915050565b600081905092915050565b600082825260208201905092915050565b600082825260208201905092915050565b600081905092915050565b6000615ca882615cf5565b9050919050565b60008115159050919050565b60007fffffffff0000000000000000000000000000000000000000000000000000000082169050919050565b600061ffff82169050919050565b600073ffffffffffffffffffffffffffffffffffffffff82169050919050565b6000819050919050565b600065ffffffffffff82169050919050565b6000615d3c82615d43565b9050919050565b6000615d4e82615cf5565b9050919050565b82818337600083830152505050565b60005b83811015615d82578082015181840152602081019050615d67565b83811115615d91576000848401525b50505050565b6000601f19601f8301169050919050565b615db181615c9d565b8114615dbc57600080fd5b50565b615dc881615caf565b8114615dd357600080fd5b50565b615ddf81615cbb565b8114615dea57600080fd5b50565b615df681615ce7565b8114615e0157600080fd5b50565b615e0d81615d15565b8114615e1857600080fd5b50565b615e2481615d1f565b8114615e2f57600080fd5b5056fea365627a7a72315820f486851a5c618488301ad734fbf1bac72fda8e0cf5f1976556333cd9361627fa6c6578706572696d656e74616cf564736f6c634300050b0040",
  "source": "pragma solidity ^0.5.11;\npragma experimental ABIEncoderV2;\n\n/**\n * @title ERC721 Customized for Microsponsors from:\n * https://github.com/OpenZeppelin/openzeppelin-contracts/blob/master/contracts/token/ERC721/ERC721MetadataMintable.sol\n */\n\nimport \"./IERC721.sol\";\nimport \"./IERC721Receiver.sol\";\nimport \"./SafeMath.sol\";\nimport \"./Address.sol\";\nimport \"./Counters.sol\";\nimport \"./ERC165.sol\";\n\n/**\n * @title Deployed Registry smart contract ABI\n * @dev We just use the signatures of the parts we need to interact with:\n */\ncontract DeployedRegistry {\n    mapping (address => bool) public isWhitelisted;\n    function isContentIdRegisteredToCaller(string calldata contentId) external view returns(bool);\n}\n\n\n/**\n * @title ERC721 Non-Fungible Token Standard basic implementation\n * @dev see https://eips.ethereum.org/EIPS/eip-721\n */\ncontract ERC721 is ERC165, IERC721 {\n    using SafeMath for uint256;\n    using Address for address;\n    using Counters for Counters.Counter;\n\n\n    /***  Contract data  ***/\n\n\n    /// @dev This contract's owners (administators).\n    address public owner1;\n    address public owner2;\n\n    // @title DeployedRegistry the Microsponsors Registry Contract\n    DeployedRegistry public registry;\n\n    // @dev Equals to `bytes4(keccak256(\"onERC721Received(address,address,uint256,bytes)\"))`\n    // which can be also obtained as `IERC721Receiver(0).onERC721Received.selector`\n    bytes4 private constant _ERC721_RECEIVED = 0x150b7a02;\n\n    /// @title _tokenIds All Token IDs minted, incremented starting at 1\n    Counters.Counter _tokenIds;\n\n    /// @dev _tokenOwner mapping from Token ID to Token Owner\n    mapping (uint256 => address) private _tokenOwner;\n\n    /// @dev _ownedTokensCount mapping from Token Owner to # of owned tokens\n    mapping (address => Counters.Counter) private _ownedTokensCount;\n\n    /// @dev _mintedTokensCount mapping from Token Minter to # of minted tokens\n    mapping (address => Counters.Counter) private _mintedTokensCount;\n\n    /// @dev mintFee default amt below in wei; can be changed by contract owner\n    uint256 public mintFee = 100000000000000;\n\n    /// @dev TimeSlot metadata struct for each token\n    ///      TimeSlots timestamps are stored as uint48:\n    ///      https://medium.com/@novablitz/storing-structs-is-costing-you-gas-774da988895e\n    struct TimeSlot {\n        address minter; // the address of the user who mint()'ed this time slot\n        string contentId; // the users' registered contentId containing the Property\n        string propertyName; // describes the Property within the contentId that is tokenized into time slots\n        uint48 startTime; // min timestamp (when time slot begins)\n        uint48 endTime; // max timestamp (when time slot ends)\n        uint48 auctionEndTime; // max timestamp (when auction for time slot ends)\n        uint16 category; // integer that represents the category (see Microsponsors utils.js)\n    }\n    /// @dev _tokenToTimeSlot mapping from Token ID to TimeSlot struct\n    mapping(uint256 => TimeSlot) private _tokenToTimeSlot;\n\n    /// @dev PropertyNameStruct: name of the time slot\n    struct PropertyNameStruct {\n        string propertyName;\n    }\n    /// @dev _tokenMinterToPropertyName mapping from Minter => Content ID => array of Property Names\n    ///      Used to display all tokenized Time Slots on a given Property.\n    ///      Using struct because there is no mapping to a dynamic array of bytes32 in Solidity at this time.\n    mapping(address => mapping(string => PropertyNameStruct[])) private _tokenMinterToPropertyNames;\n\n    /// @dev ContentIdStruct The registered Content ID, verified by Registry contract\n    struct ContentIdStruct {\n        string contentId;\n    }\n    /// @dev _tokenMinterToContentIds Mapping from Token Minter to array of Content IDs\n    ///      that they have *ever* minted tokens for\n    mapping(address => ContentIdStruct[]) private _tokenMinterToContentIds;\n\n    /// @dev _tokenURIs Mapping from Token ID to Token URIs\n    mapping(uint256 => string) private _tokenURIs;\n\n    /// @dev _tokenApprovals Mapping from Token ID to Approved Address\n    mapping (uint256 => address) private _tokenApprovals;\n\n    /// @dev _operatorApprovals Mapping from Token Owner to Operator Approvals\n    mapping (address => mapping (address => bool)) private _operatorApprovals;\n\n    /// @dev paused When true, token minting and transfers stop.\n    bool public paused = false;\n\n    /*\n     *     bytes4(keccak256('balanceOf(address)')) == 0x70a08231\n     *     bytes4(keccak256('ownerOf(uint256)')) == 0x6352211e\n     *     bytes4(keccak256('approve(address,uint256)')) == 0x095ea7b3\n     *     bytes4(keccak256('getApproved(uint256)')) == 0x081812fc\n     *     bytes4(keccak256('setApprovalForAll(address,bool)')) == 0xa22cb465\n     *     bytes4(keccak256('isApprovedForAll(address,address)')) == 0xe985e9c5\n     *     bytes4(keccak256('transferFrom(address,address,uint256)')) == 0x23b872dd\n     *     bytes4(keccak256('safeTransferFrom(address,address,uint256)')) == 0x42842e0e\n     *     bytes4(keccak256('safeTransferFrom(address,address,uint256,bytes)')) == 0xb88d4fde\n     *\n     *     => 0x70a08231 ^ 0x6352211e ^ 0x095ea7b3 ^ 0x081812fc ^\n     *        0xa22cb465 ^ 0xe985e9c ^ 0x23b872dd ^ 0x42842e0e ^ 0xb88d4fde == 0x80ac58cd\n     */\n    bytes4 private constant _INTERFACE_ID_ERC721 = 0x80ac58cd;\n\n\n    constructor () public {\n\n        // Register the supported interfaces to conform to ERC721 via ERC165\n        _registerInterface(_INTERFACE_ID_ERC721);\n\n        // Set the contract owners to msg.sender by default\n        owner1 = _msgSender();\n        owner2 = _msgSender();\n\n    }\n\n\n    /**\n     * @dev Provides information about the current execution context, including the\n     * sender of the transaction and its data. While these are generally available\n     * via msg.sender and msg.data, they not should not be accessed in such a direct\n     * manner, since when dealing with GSN meta-transactions the account sending and\n     * paying for execution may not be the actual sender (as far as an application\n     * is concerned).\n     */\n\n    function _msgSender() internal view returns (address) {\n\n        return msg.sender;\n\n    }\n\n    function _msgData() internal view returns (bytes memory) {\n\n        this; // silence state mutability warning without generating bytecode -\n              // see https://github.com/ethereum/solidity/issues/2691\n        return msg.data;\n\n    }\n\n\n    /***  Owner (Administrator) functions  ***/\n\n\n    /**\n     * @dev Sets the contract's owner (administrator)\n     * Based on 0x's Ownable, but modified here\n     */\n    modifier onlyOwner() {\n        require(\n            (_msgSender() == owner1) || (_msgSender() == owner2),\n            \"ERC721: ONLY_CONTRACT_OWNER\"\n        );\n        _;\n    }\n\n\n    /**\n     * @dev Transfer owner (admin) functions to another address\n     * @param newOwner Address of new owner/ admin of contract\n     */\n    function transferOwnership1(address newOwner)\n        public\n        onlyOwner\n    {\n        if (newOwner != address(0)) {\n            owner1 = newOwner;\n        }\n    }\n\n\n    function transferOwnership2(address newOwner)\n        public\n        onlyOwner\n    {\n        if (newOwner != address(0)) {\n            owner2 = newOwner;\n        }\n    }\n\n\n    /**\n     * @dev Update contract address for Microsponsors Registry contract\n     * @param newAddress where the Registry contract lives\n     */\n    function updateRegistryAddress(address newAddress)\n        public\n        onlyOwner\n    {\n        registry = DeployedRegistry(newAddress);\n    }\n\n\n    /**\n     * @dev Update the fee (in wei) charged for minting a single token\n     */\n    function updateMintFee(uint256 val)\n        public\n        onlyOwner\n    {\n\n        mintFee = val;\n\n    }\n\n\n    /***  User account permissions  ***/\n\n\n    /**\n     * @dev Checks Registry contract for whitelisted status\n     * @param target The address to check\n     */\n    function isWhitelisted(address target) public view returns (bool) {\n        return registry.isWhitelisted(target);\n    }\n\n    /**\n     * @dev Checks if caller isWhitelisted()\n     *      throws with error message and refunds gas if not\n     */\n    modifier onlyWhitelisted() {\n\n        require(\n            isWhitelisted(_msgSender()),\n            \"ERC721: caller is not whitelisted\"\n        );\n        _;\n\n    }\n\n    /**\n     * @dev Checks if minter isWhitelisted()\n     */\n    function isMinter(address account) public view returns (bool) {\n        return isWhitelisted(account);\n    }\n\n    /**\n     * @dev Checks if caller isMinter(),\n     *      throws with error message and refunds gas if not\n     */\n    modifier onlyMinter() {\n\n        require(\n            isMinter(_msgSender()),\n            \"ERC721: caller is not whitelisted for the Minter role\"\n        );\n        _;\n\n    }\n\n\n    /***  Minting tokens  ***/\n\n\n    /**\n     * @dev Function to mint tokens.\n     * @return tokenId\n     */\n    function mint(\n        string memory contentId,\n        string memory propertyName,\n        uint48 startTime,\n        uint48 endTime,\n        uint48 auctionEndTime,\n        uint16 category\n    )\n        public\n        payable\n        onlyMinter\n        whenNotPaused\n        returns (uint256)\n    {\n\n        require(msg.value >= mintFee);\n\n        require(\n            _isValidTimeSlot(contentId, startTime, endTime, auctionEndTime),\n            \"ERC721: invalid time slot\"\n        );\n\n        uint256 tokenId = _mint(_msgSender());\n        _setTokenTimeSlot(tokenId, contentId, propertyName, startTime, endTime, auctionEndTime, category);\n\n        return tokenId;\n\n    }\n\n    /**\n     * @dev Function to mint tokens.\n     * @param tokenURI The token URI of the minted token.\n     * @return tokenId\n     */\n    function mintWithTokenURI(\n        string memory contentId,\n        string memory propertyName,\n        uint48 startTime,\n        uint48 endTime,\n        uint48 auctionEndTime,\n        uint16 category,\n        string memory tokenURI\n    )\n        public\n        payable\n        onlyMinter\n        whenNotPaused\n        returns (uint256)\n    {\n\n        require(msg.value >= mintFee);\n\n        require(\n            _isValidTimeSlot(contentId, startTime, endTime, auctionEndTime),\n            \"ERC721: invalid time slot\"\n        );\n\n        uint256 tokenId = _mint(_msgSender());\n        _setTokenTimeSlot(tokenId, contentId, propertyName, startTime, endTime, auctionEndTime, category);\n        _setTokenURI(tokenId, tokenURI);\n\n        return tokenId;\n\n    }\n\n    /**\n     * @dev Function to safely mint tokens.\n     * @return tokenId\n     */\n    function safeMint(\n        string memory contentId,\n        string memory propertyName,\n        uint48 startTime,\n        uint48 endTime,\n        uint48 auctionEndTime,\n        uint16 category\n    )\n        public\n        payable\n        onlyMinter\n        whenNotPaused\n        returns (uint256)\n    {\n\n        require(msg.value >= mintFee);\n\n        require(\n            _isValidTimeSlot(contentId, startTime, endTime, auctionEndTime),\n            \"ERC721: invalid time slot\"\n        );\n\n        uint256 tokenId = _safeMint(_msgSender());\n        _setTokenTimeSlot(tokenId, contentId, propertyName, startTime, endTime, auctionEndTime, category);\n\n        return tokenId;\n\n    }\n\n    /**\n     * @dev Function to safely mint tokens.\n     * @param data bytes data to send along with a safe transfer check.\n     * @return tokenId\n     */\n    function safeMint(\n        string memory contentId,\n        string memory propertyName,\n        uint48 startTime,\n        uint48 endTime,\n        uint48 auctionEndTime,\n        uint16 category,\n        bytes memory data\n    )\n        public\n        payable\n        onlyMinter\n        whenNotPaused\n        returns (uint256)\n    {\n\n        require(msg.value >= mintFee);\n\n        require(\n            _isValidTimeSlot(contentId, startTime, endTime, auctionEndTime),\n            \"ERC721: invalid time slot\"\n        );\n\n        uint256 tokenId = _safeMint(_msgSender(), data);\n        _setTokenTimeSlot(tokenId, contentId, propertyName, startTime, endTime, auctionEndTime, category);\n\n        return tokenId;\n\n    }\n\n    /**\n     * @param tokenURI The token URI of the minted token.\n     * @return tokenId\n     */\n    function safeMintWithTokenURI(\n        string memory contentId,\n        string memory propertyName,\n        uint48 startTime,\n        uint48 endTime,\n        uint48 auctionEndTime,\n        uint16 category,\n        string memory tokenURI\n    )\n        public\n        payable\n        onlyMinter\n        whenNotPaused\n        returns (uint256)\n    {\n\n        require(msg.value >= mintFee);\n\n        require(\n            _isValidTimeSlot(contentId, startTime, endTime, auctionEndTime),\n            \"ERC721: invalid time slot\"\n        );\n\n        uint256 tokenId = _safeMint(_msgSender());\n        _setTokenTimeSlot(tokenId, contentId, propertyName, startTime, endTime, auctionEndTime, category);\n        _setTokenURI(tokenId, tokenURI);\n\n        return tokenId;\n\n    }\n\n    /**\n     * @dev Internal function to safely mint a new token.\n     * Reverts if the given token ID already exists.\n     * If the target address is a contract, it must implement `onERC721Received`,\n     * which is called upon a safe transfer, and return the magic value\n     * `bytes4(keccak256(\"onERC721Received(address,address,uint256,bytes)\"))`; otherwise,\n     * the transfer is reverted.\n     * @param to The address that will own the minted token\n     * @return tokenId\n     */\n    function _safeMint(address to) internal returns (uint256) {\n\n        uint256 tokenId = _safeMint(to, \"\");\n        return tokenId;\n\n    }\n\n    /**\n     * @dev Internal function to safely mint a new token.\n     * Reverts if the given token ID already exists.\n     * If the target address is a contract, it must implement `onERC721Received`,\n     * which is called upon a safe transfer, and return the magic value\n     * `bytes4(keccak256(\"onERC721Received(address,address,uint256,bytes)\"))`; otherwise,\n     * the transfer is reverted.\n     * @param to The address that will own the minted token\n     * @param data bytes data to send along with a safe transfer check\n     * @return tokenId\n     */\n    function _safeMint(address to, bytes memory data) internal returns (uint256) {\n\n        uint256 tokenId = _mint(to);\n\n        require(\n            _checkOnERC721Received(address(0), to, tokenId, data),\n            \"ERC721: transfer to non ERC721Receiver implementer\"\n        );\n\n        return tokenId;\n\n    }\n\n    /**\n     * @dev Internal function to mint a new token.\n     * Reverts if the given token ID already exists.\n     * @param to The address that will own the minted token\n     */\n    function _mint(address to) internal returns (uint256) {\n\n        require(to != address(0), \"ERC721: mint to the zero address\");\n\n        _tokenIds.increment();\n        uint256 tokenId = _tokenIds.current();\n\n        _tokenOwner[tokenId] = to;\n        _ownedTokensCount[to].increment();\n        _mintedTokensCount[to].increment();\n\n        emit Transfer(address(0), to, tokenId);\n\n        return tokenId;\n\n    }\n\n\n    /***  Token URIs  ***/\n\n\n    /**\n     * @dev Internal function to set the token URI for a given token.\n     * Reverts if the token ID does not exist.\n     * @param tokenId uint256 ID of the token to set its URI\n     * @param uri string URI to assign\n     */\n    function _setTokenURI(uint256 tokenId, string memory uri) internal {\n\n        require(\n            _exists(tokenId),\n            \"ERC721: URI set of nonexistent token\"\n        );\n\n        _tokenURIs[tokenId] = uri;\n\n    }\n\n    /**\n     * Throws if the token ID does not exist. May return an empty string.\n     * @param tokenId uint256 ID of the token to query\n     * @return URI for a given token ID.\n     */\n    function tokenURI(uint256 tokenId) external view returns (string memory) {\n\n        require(\n            _exists(tokenId),\n            \"ERC721: URI query for nonexistent token\"\n        );\n\n        return _tokenURIs[tokenId];\n\n    }\n\n\n    /***  Token TimeSlot data and metadata  ***/\n\n\n    function _isValidTimeSlot(\n        string memory contentId,\n        uint48 startTime,\n        uint48 endTime,\n        uint48 auctionEndTime\n    ) internal view returns (bool) {\n\n        require(\n            registry.isContentIdRegisteredToCaller(contentId),\n            \"ERC721: content id is not registered to caller\"\n        );\n\n        require(\n            startTime > auctionEndTime,\n            \"ERC721: start time must be after its auction end time\"\n        );\n\n        require(\n            endTime > startTime,\n            \"ERC721: start time must be before end time\"\n        );\n\n        return true;\n\n    }\n\n\n    function _isContentIdMappedToMinter(\n        string memory contentId\n    )  internal view returns (bool) {\n\n        ContentIdStruct[] memory a = _tokenMinterToContentIds[msg.sender];\n        bool foundMatch = false;\n        for (uint i = 0; i < a.length; i++) {\n            if (stringsMatch(contentId, a[i].contentId)) {\n                foundMatch = true;\n            }\n        }\n\n        return foundMatch;\n    }\n\n\n    function _isPropertyNameMappedToMinter(\n        string memory contentId,\n        string memory propertyName\n    )  internal view returns (bool) {\n\n        PropertyNameStruct[] memory a = _tokenMinterToPropertyNames[msg.sender][contentId];\n        bool foundMatch = false;\n        for (uint i = 0; i < a.length; i++) {\n            if (stringsMatch(propertyName, a[i].propertyName)) {\n                foundMatch = true;\n            }\n        }\n\n        return foundMatch;\n    }\n\n\n    function _setTokenTimeSlot(\n        uint256 tokenId,\n        string memory contentId,\n        string memory propertyName,\n        uint48 startTime,\n        uint48 endTime,\n        uint48 auctionEndTime,\n        uint16 category\n    ) internal {\n\n        require(\n            _exists(tokenId),\n            \"ERC721: non-existent token\"\n        );\n\n        TimeSlot memory _timeSlot = TimeSlot({\n            minter: address(_msgSender()),\n            contentId: string(contentId),\n            propertyName: string(propertyName),\n            startTime: uint48(startTime),\n            endTime: uint48(endTime),\n            auctionEndTime: uint48(auctionEndTime),\n            category: uint16(category)\n        });\n\n        _tokenToTimeSlot[tokenId] = _timeSlot;\n\n        if (!_isContentIdMappedToMinter(contentId)) {\n            _tokenMinterToContentIds[_msgSender()].push( ContentIdStruct(contentId) );\n        }\n\n        if (!_isPropertyNameMappedToMinter(contentId, propertyName)) {\n            _tokenMinterToPropertyNames[_msgSender()][contentId].push( PropertyNameStruct(propertyName) );\n        }\n\n    }\n\n\n    function tokenTimeSlot(uint256 tokenId) external view returns (\n            address minter,\n            address owner,\n            string memory contentId,\n            string memory propertyName,\n            uint48 startTime,\n            uint48 endTime,\n            uint48 auctionEndTime,\n            uint16 category\n    ) {\n\n        require(\n            _exists(tokenId),\n            \"ERC721: Non-existent Token ID\"\n        );\n\n        TimeSlot memory _timeSlot = _tokenToTimeSlot[tokenId];\n\n        return (\n            _timeSlot.minter,\n            ownerOf(tokenId),\n            _timeSlot.contentId,\n            _timeSlot.propertyName,\n            _timeSlot.startTime,\n            _timeSlot.endTime,\n            _timeSlot.auctionEndTime,\n            _timeSlot.category\n        );\n\n    }\n\n\n    /***  Token minter queries  ***/\n\n\n    /// @dev Look up all Content IDs a Minter has tokenized TimeSlots for.\n    ///      We're not getting this from the Registry because we want to keep\n    ///      a separate record here of all Content ID's the acct has *ever*\n    ///      minted tokens for. The registry is for keeping track of their\n    ///      current (not necessarily past) Content ID registrations.\n    function tokenMinterContentIds(address minter) external view returns (string[] memory) {\n\n        ContentIdStruct[] memory m = _tokenMinterToContentIds[minter];\n        string[] memory r = new string[](m.length);\n\n        for (uint i = 0; i < m.length; i++) {\n            r[i] = m[i].contentId;\n        }\n\n        return r;\n\n    }\n\n    /// @dev Look up all Property Names a Minter has created Time Slots for\n    ///      with a particular Content ID\n    function tokenMinterPropertyNames(\n        address minter,\n        string calldata contentId\n    ) external view returns (string[] memory) {\n\n        PropertyNameStruct[] memory m = _tokenMinterToPropertyNames[minter][contentId];\n        string[] memory r = new string[](m.length);\n\n        for (uint i = 0; i < m.length; i++) {\n            r[i] =  m[i].propertyName;\n        }\n\n        return r;\n\n    }\n\n\n    /**\n     * Return all the Token IDs minted by a given account.\n     * @dev This method MUST NEVER be called by smart contract code. First, it's fairly\n     *  expensive (it walks the entire _tokenIds array looking for tokens belonging to minter),\n     *  but it also returns a dynamic array, which is only supported for web3 calls, and\n     *  not contract-to-contract calls (at this time).\n     */\n    function tokensMintedBy(address minter) external view returns (uint256[] memory) {\n\n        require(\n            minter != address(0),\n            \"ERC721: cannot query the zero address\"\n        );\n\n        uint256 tokenCount = _mintedTokensCount[minter].current();\n        if (tokenCount == 0) {\n            // Return an empty array\n            return new uint256[](0);\n        } else {\n            uint256[] memory result = new uint256[](tokenCount);\n            uint256 totalTokens = totalSupply();\n            uint256 resultIndex = 0;\n\n            // All Tokens have IDs starting at 1 and increase\n            // sequentially up to the total supply count.\n            uint256 tokenId;\n\n            for (tokenId = 1; tokenId <= totalTokens; tokenId++) {\n                if (_tokenToTimeSlot[tokenId].minter == minter) {\n                    result[resultIndex] = tokenId;\n                    resultIndex++;\n                }\n            }\n\n            return result;\n        }\n\n    }\n\n\n    /***  Token balance and ownership queries  ***/\n\n\n    /**\n     * @dev Gets the total number of tokens ever minted.\n     */\n    function totalSupply() public view returns (uint256) {\n\n        return _tokenIds.current();\n\n    }\n\n    /**\n     * @dev Gets the balance of the specified address.\n     * @param tokenOwner address to query the balance of\n     * @return uint256 representing the amount owned by the passed address\n     */\n    function balanceOf(address tokenOwner) public view returns (uint256) {\n\n        require(\n            tokenOwner != address(0),\n            \"ERC721: cannot query the zero address\"\n        );\n\n        return _ownedTokensCount[tokenOwner].current();\n\n    }\n\n    /**\n     * @dev Gets the owner of the specified token ID.\n     * @param tokenId uint256 ID of the token to query the owner of\n     * @return address currently marked as the owner of the given token ID\n     */\n    function ownerOf(uint256 tokenId) public view returns (address) {\n\n        address tokenOwner = _tokenOwner[tokenId];\n\n        return tokenOwner;\n\n    }\n\n    /**\n     * @param tokenOwner The owner whose tokens we are interested in.\n     * @dev This method MUST NEVER be called by smart contract code. First, it's fairly\n     *  expensive (it walks the entire _tokenIds array looking for tokens belonging to owner),\n     *  but it also returns a dynamic array, which is only supported for web3 calls, and\n     *  not contract-to-contract calls (at this time).\n    */\n    function tokensOfOwner(address tokenOwner) external view returns(uint256[] memory) {\n        uint256 tokenCount = balanceOf(tokenOwner);\n        if (tokenCount == 0) {\n            // Return an empty array\n            return new uint256[](0);\n        } else {\n            uint256[] memory result = new uint256[](tokenCount);\n            uint256 totalTokens = totalSupply();\n            uint256 resultIndex = 0;\n\n            // All Tokens have IDs starting at 1 and increase\n            // sequentially up to the total count.\n            uint256 tokenId;\n\n            for (tokenId = 1; tokenId <= totalTokens; tokenId++) {\n                if (_tokenOwner[tokenId] == tokenOwner) {\n                    result[resultIndex] = tokenId;\n                    resultIndex++;\n                }\n            }\n\n            return result;\n        }\n    }\n\n\n    /***  Transfers  ***/\n\n\n    /**\n     * @dev Approves another address to transfer the given token ID\n     * The zero address indicates there is no approved address.\n     * There can only be one approved address per token at a given time.\n     * Can only be called by the token owner or an approved operator.\n     * @param to address to be approved for the given token ID\n     * @param tokenId uint256 ID of the token to be approved\n     */\n    function approve(address to, uint256 tokenId)\n        public\n        onlyWhitelisted\n        whenNotPaused\n    {\n\n        address tokenOwner = ownerOf(tokenId);\n\n        require(\n            to != tokenOwner,\n            \"ERC721: approval is redundant\"\n        );\n\n        require(\n            _msgSender() == tokenOwner || isApprovedForAll(tokenOwner, _msgSender()),\n            \"ERC721: approve caller is not token owner nor approved for all\"\n        );\n\n        _tokenApprovals[tokenId] = to;\n        emit Approval(tokenOwner, to, tokenId);\n\n    }\n\n    /**\n     * @dev Gets the approved address for a token ID, or zero if no address set\n     * Reverts if the token ID does not exist.\n     * @param tokenId uint256 ID of the token to query the approval of\n     * @return address currently approved for the given token ID\n     */\n    function getApproved(uint256 tokenId) public view returns (address) {\n\n        require(\n            _exists(tokenId),\n            \"ERC721: approved query for nonexistent token\"\n        );\n\n        return _tokenApprovals[tokenId];\n\n    }\n\n    /**\n     * @dev Sets or unsets the approval of a given operator\n     * An operator is allowed to transfer all tokens of the sender on their behalf.\n     * @param to operator address to set the approval\n     * @param approved representing the status of the approval to be set\n     */\n    function setApprovalForAll(address to, bool approved)\n        public\n        onlyWhitelisted\n        whenNotPaused\n    {\n\n        require(to != _msgSender(), \"ERC721: approve to caller\");\n\n        _operatorApprovals[_msgSender()][to] = approved;\n        emit ApprovalForAll(_msgSender(), to, approved);\n\n    }\n\n    /**\n     * @dev Tells whether an operator is approved by a given token owner.\n     * @param tokenOwner token owner address which you want to query the approval of\n     * @param operator operator address which you want to query the approval of\n     * @return bool whether the given operator is approved by the token owner\n     */\n    function isApprovedForAll(address tokenOwner, address operator)\n        public\n        view\n        returns (bool)\n    {\n\n        return _operatorApprovals[tokenOwner][operator];\n\n    }\n\n    /**\n     * @dev Transfers the ownership of a given token ID to another address.\n     * Usage of this method is discouraged, use {safeTransferFrom} whenever possible.\n     * Requires the msg.sender to be the owner, approved, or operator.\n     * @param from current owner of the token\n     * @param to address to receive the ownership of the given token ID\n     * @param tokenId uint256 ID of the token to be transferred\n     */\n    function transferFrom(address from, address to, uint256 tokenId)\n        public\n        whenNotPaused\n    {\n\n        require(\n            _isApprovedOrOwner(_msgSender(), tokenId),\n            \"ERC721: transfer caller is not owner nor approved\"\n        );\n\n        require(\n            isWhitelisted(from),\n            \"ERC721: transfer restricted to whitelisted addresses\"\n        );\n\n        require(\n            isWhitelisted(to),\n            \"ERC721: transfer restricted to whitelisted addresses\"\n        );\n\n        _transferFrom(from, to, tokenId);\n\n    }\n\n    /**\n     * @dev Safely transfers the ownership of a given token ID to another address\n     * If the target address is a contract, it must implement {IERC721Receiver-onERC721Received},\n     * which is called upon a safe transfer, and return the magic value\n     * `bytes4(keccak256(\"onERC721Received(address,address,uint256,bytes)\"))`; otherwise,\n     * the transfer is reverted.\n     * Requires the msg.sender to be the owner, approved, or operator\n     * @param from current owner of the token\n     * @param to address to receive the ownership of the given token ID\n     * @param tokenId uint256 ID of the token to be transferred\n     */\n    function safeTransferFrom(address from, address to, uint256 tokenId) public {\n\n        safeTransferFrom(from, to, tokenId, \"\");\n\n    }\n\n    /**\n     * @dev Safely transfers the ownership of a given token ID to another address\n     * If the target address is a contract, it must implement {IERC721Receiver-onERC721Received},\n     * which is called upon a safe transfer, and return the magic value\n     * `bytes4(keccak256(\"onERC721Received(address,address,uint256,bytes)\"))`; otherwise,\n     * the transfer is reverted.\n     * Requires the _msgSender() to be the owner, approved, or operator\n     * @param from current owner of the token\n     * @param to address to receive the ownership of the given token ID\n     * @param tokenId uint256 ID of the token to be transferred\n     * @param data bytes data to send along with a safe transfer check\n     */\n    function safeTransferFrom(address from, address to, uint256 tokenId, bytes memory data)\n        public\n        whenNotPaused\n    {\n\n        require(\n            isWhitelisted(from),\n            \"ERC721: transfer restricted to whitelisted addresses\"\n        );\n\n        require(\n            isWhitelisted(to),\n            \"ERC721: transfer restricted to whitelisted addresses\"\n        );\n\n        require(\n            _isApprovedOrOwner(_msgSender(), tokenId),\n            \"ERC721: transfer caller is not owner nor approved\"\n        );\n\n        _safeTransferFrom(from, to, tokenId, data);\n\n    }\n\n    /**\n     * @dev Safely transfers the ownership of a given token ID to another address\n     * If the target address is a contract, it must implement `onERC721Received`,\n     * which is called upon a safe transfer, and return the magic value\n     * `bytes4(keccak256(\"onERC721Received(address,address,uint256,bytes)\"))`; otherwise,\n     * the transfer is reverted.\n     * Requires the msg.sender to be the owner, approved, or operator\n     * @param from current owner of the token\n     * @param to address to receive the ownership of the given token ID\n     * @param tokenId uint256 ID of the token to be transferred\n     * @param data bytes data to send along with a safe transfer check\n     */\n    function _safeTransferFrom(address from, address to, uint256 tokenId, bytes memory data)\n        internal\n    {\n\n        _transferFrom(from, to, tokenId);\n\n        require(\n            _checkOnERC721Received(from, to, tokenId, data),\n            \"ERC721: transfer to non ERC721Receiver implementer\"\n        );\n\n    }\n\n    /**\n     * @dev Returns whether the specified token exists.\n     * @param tokenId uint256 ID of the token to query the existence of\n     * @return bool whether the token exists\n     */\n    function _exists(uint256 tokenId) internal view returns (bool) {\n\n        address tokenOwner = _tokenOwner[tokenId];\n\n        return tokenOwner != address(0);\n\n    }\n\n    /**\n     * @dev Returns whether the given spender can transfer a given token ID.\n     * @param spender address of the spender to query\n     * @param tokenId uint256 ID of the token to be transferred\n     * @return bool whether the msg.sender is approved for the given token ID,\n     * is an operator of the owner, or is the owner of the token\n     */\n    function _isApprovedOrOwner(address spender, uint256 tokenId)\n        internal\n        view\n        returns (bool)\n    {\n\n        require(\n            _exists(tokenId),\n            \"ERC721: operator query for nonexistent token\"\n        );\n\n        address tokenOwner = ownerOf(tokenId);\n\n\n        return (spender == tokenOwner || getApproved(tokenId) == spender || isApprovedForAll(tokenOwner, spender));\n\n    }\n\n    /**\n     * @dev Internal function to transfer ownership of a given token ID to another address.\n     *      As opposed to {transferFrom}, this imposes no restrictions on msg.sender\n     * @param from current owner of the token\n     * @param to address to receive the ownership of the given token ID\n     * @param tokenId uint256 ID of the token to be transferred\n     */\n    function _transferFrom(address from, address to, uint256 tokenId) internal {\n\n        require(\n            ownerOf(tokenId) == from,\n            \"ERC721: transfer of token that is not own\"\n        );\n\n        require(\n            to != address(0),\n            \"ERC721: transfer to the zero address\"\n        );\n\n        _clearApproval(tokenId);\n\n        _ownedTokensCount[from].decrement();\n        _ownedTokensCount[to].increment();\n\n        _tokenOwner[tokenId] = to;\n\n        emit Transfer(from, to, tokenId);\n\n    }\n\n    /**\n     * @dev Internal function to invoke {IERC721Receiver-onERC721Received} on a target address.\n     * The call is not executed if the target address is not a contract.\n     *\n     * This function is deprecated.\n     * @param from address representing the previous owner of the given token ID\n     * @param to target address that will receive the tokens\n     * @param tokenId uint256 ID of the token to be transferred\n     * @param data bytes optional data to send along with the call\n     * @return bool whether the call correctly returned the expected magic value\n     */\n    function _checkOnERC721Received(address from, address to, uint256 tokenId, bytes memory data)\n        internal\n        returns (bool)\n    {\n\n        if (!to.isContract()) {\n            return true;\n        }\n\n        bytes4 retval = IERC721Receiver(to).onERC721Received(_msgSender(), from, tokenId, data);\n        return (retval == _ERC721_RECEIVED);\n\n    }\n\n    /**\n     * @dev Private function to clear current approval of a given token ID.\n     * @param tokenId uint256 ID of the token to be transferred\n     */\n    function _clearApproval(uint256 tokenId) private {\n\n        if (_tokenApprovals[tokenId] != address(0)) {\n            _tokenApprovals[tokenId] = address(0);\n        }\n\n    }\n\n\n    /***  Burn Tokens  ***/\n\n\n    // solhint-disable\n    /**\n     * @dev Customized for Microsponsors\n     *      https://github.com/OpenZeppelin/openzeppelin-contracts/blob/master/contracts/token/ERC721/ERC721Burnable.sol     * @dev Burns a specific ERC721 token.\n     * @param tokenId uint256 id of the ERC721 token to be burned\n     */\n     // solhint-enable\n    function burn(uint256 tokenId) public whenNotPaused {\n\n        require(\n            _isApprovedOrOwner(_msgSender(), tokenId),\n            \"ERC721: caller is not token owner nor approved\"\n        );\n\n        _burn(tokenId);\n\n    }\n\n\n    /**\n     * @dev Internal function to burn a specific token.\n     * Reverts if the token does not exist.\n     * Deprecated, use {_burn} instead.\n     * @param tokenOwner owner of the token to burn\n     * @param tokenId uint256 ID of the token being burned\n     */\n    function _burn(address tokenOwner, uint256 tokenId) internal {\n\n        require(\n            ownerOf(tokenId) == tokenOwner,\n            \"ERC721: burn of token that is not own\"\n        );\n\n        _clearApproval(tokenId);\n\n        _ownedTokensCount[tokenOwner].decrement();\n        _tokenOwner[tokenId] = address(0);\n\n        // Clear token URIs (if any)\n        if (bytes(_tokenURIs[tokenId]).length != 0) {\n            delete _tokenURIs[tokenId];\n        }\n\n        // Clear time slot data\n        delete _tokenToTimeSlot[tokenId];\n\n        emit Transfer(tokenOwner, address(0), tokenId);\n\n    }\n\n    /**\n     * @dev Internal function to burn a specific token.\n     * Reverts if the token does not exist.\n     * @param tokenId uint256 ID of the token being burned\n     */\n    function _burn(uint256 tokenId) internal {\n\n        _burn(ownerOf(tokenId), tokenId);\n\n    }\n\n\n    /*** Pausable (adapted from OpenZeppelin via Cryptokitties) ***/\n\n\n    /// @dev Modifier to allow actions only when the contract IS NOT paused\n    modifier whenNotPaused() {\n        require(!paused);\n        _;\n    }\n\n    /// @dev Modifier to allow actions only when the contract IS paused\n    modifier whenPaused {\n        require(paused);\n        _;\n    }\n\n    /// @dev Called by contract owner to pause actions on this contract\n    function pause() external onlyOwner whenNotPaused {\n        paused = true;\n    }\n\n    /// @dev Called by contract owner to unpause the smart contract.\n    /// @notice This is public rather than external so it can be called by\n    ///  derived contracts.\n    function unpause() public onlyOwner whenPaused {\n        // can't unpause if contract was upgraded\n        paused = false;\n    }\n\n\n    /*** Withdraw ***/\n\n\n    function withdrawBalance() external onlyOwner {\n\n        // Ref: https://diligence.consensys.net/blog/2019/09/stop-using-soliditys-transfer-now/\n        uint balance = address(this).balance;\n        (bool success, ) = msg.sender.call.value(balance)(\"\");\n        require(success, \"Withdraw failed\");\n\n    }\n\n\n    /***  Helper fn  ***/\n\n    function stringsMatch (\n        string memory a,\n        string memory b\n    )\n        private\n        pure\n        returns (bool)\n    {\n        return (keccak256(abi.encodePacked((a))) == keccak256(abi.encodePacked((b))) );\n    }\n\n}\n",
  "sourcePath": "/Users/lauren/github/erc-721/contracts/ERC721.sol",
  "compiler": {
    "name": "solc",
    "version": "0.5.11+commit.c082d0b4.Emscripten.clang"
  },
  "schemaVersion": "3.0.10",
  "updatedAt": "2019-12-31T03:26:46.570Z",
  "devdoc": {
    "details": "see https://eips.ethereum.org/EIPS/eip-721",
    "methods": {
      "approve(address,uint256)": {
        "details": "Approves another address to transfer the given token ID The zero address indicates there is no approved address. There can only be one approved address per token at a given time. Can only be called by the token owner or an approved operator.",
        "params": {
          "to": "address to be approved for the given token ID",
          "tokenId": "uint256 ID of the token to be approved"
        }
      },
      "balanceOf(address)": {
        "details": "Gets the balance of the specified address.",
        "params": {
          "tokenOwner": "address to query the balance of"
        },
        "return": "uint256 representing the amount owned by the passed address"
      },
      "burn(uint256)": {
        "details": "Customized for MicrosponsorsBurns a specific ERC721 token.",
        "params": {
          "tokenId": "uint256 id of the ERC721 token to be burned"
        }
      },
      "getApproved(uint256)": {
        "details": "Gets the approved address for a token ID, or zero if no address set Reverts if the token ID does not exist.",
        "params": {
          "tokenId": "uint256 ID of the token to query the approval of"
        },
        "return": "address currently approved for the given token ID"
      },
      "isApprovedForAll(address,address)": {
        "details": "Tells whether an operator is approved by a given token owner.",
        "params": {
          "operator": "operator address which you want to query the approval of",
          "tokenOwner": "token owner address which you want to query the approval of"
        },
        "return": "bool whether the given operator is approved by the token owner"
      },
      "isMinter(address)": {
        "details": "Checks if minter isWhitelisted()"
      },
      "isWhitelisted(address)": {
        "details": "Checks Registry contract for whitelisted status",
        "params": {
          "target": "The address to check"
        }
      },
      "mint(string,string,uint48,uint48,uint48,uint16)": {
        "details": "Function to mint tokens.",
        "return": "tokenId"
      },
      "mintWithTokenURI(string,string,uint48,uint48,uint48,uint16,string)": {
        "details": "Function to mint tokens.",
        "params": {
          "tokenURI": "The token URI of the minted token."
        },
        "return": "tokenId"
      },
      "ownerOf(uint256)": {
        "details": "Gets the owner of the specified token ID.",
        "params": {
          "tokenId": "uint256 ID of the token to query the owner of"
        },
        "return": "address currently marked as the owner of the given token ID"
      },
      "pause()": {
        "details": "Called by contract owner to pause actions on this contract"
      },
      "safeMint(string,string,uint48,uint48,uint48,uint16)": {
        "details": "Function to safely mint tokens.",
        "return": "tokenId"
      },
      "safeMint(string,string,uint48,uint48,uint48,uint16,bytes)": {
        "details": "Function to safely mint tokens.",
        "params": {
          "data": "bytes data to send along with a safe transfer check."
        },
        "return": "tokenId"
      },
      "safeMintWithTokenURI(string,string,uint48,uint48,uint48,uint16,string)": {
        "params": {
          "tokenURI": "The token URI of the minted token."
        },
        "return": "tokenId"
      },
      "safeTransferFrom(address,address,uint256)": {
        "details": "Safely transfers the ownership of a given token ID to another address If the target address is a contract, it must implement {IERC721Receiver-onERC721Received}, which is called upon a safe transfer, and return the magic value `bytes4(keccak256(\"onERC721Received(address,address,uint256,bytes)\"))`; otherwise, the transfer is reverted. Requires the msg.sender to be the owner, approved, or operator",
        "params": {
          "from": "current owner of the token",
          "to": "address to receive the ownership of the given token ID",
          "tokenId": "uint256 ID of the token to be transferred"
        }
      },
      "safeTransferFrom(address,address,uint256,bytes)": {
        "details": "Safely transfers the ownership of a given token ID to another address If the target address is a contract, it must implement {IERC721Receiver-onERC721Received}, which is called upon a safe transfer, and return the magic value `bytes4(keccak256(\"onERC721Received(address,address,uint256,bytes)\"))`; otherwise, the transfer is reverted. Requires the _msgSender() to be the owner, approved, or operator",
        "params": {
          "data": "bytes data to send along with a safe transfer check",
          "from": "current owner of the token",
          "to": "address to receive the ownership of the given token ID",
          "tokenId": "uint256 ID of the token to be transferred"
        }
      },
      "setApprovalForAll(address,bool)": {
        "details": "Sets or unsets the approval of a given operator An operator is allowed to transfer all tokens of the sender on their behalf.",
        "params": {
          "approved": "representing the status of the approval to be set",
          "to": "operator address to set the approval"
        }
      },
      "supportsInterface(bytes4)": {
        "details": "See {IERC165-supportsInterface}.     * Time complexity O(1), guaranteed to always use less than 30 000 gas."
      },
      "tokenMinterContentIds(address)": {
        "details": "Look up all Content IDs a Minter has tokenized TimeSlots for.      We're not getting this from the Registry because we want to keep      a separate record here of all Content ID's the acct has *ever*      minted tokens for. The registry is for keeping track of their      current (not necessarily past) Content ID registrations."
      },
      "tokenMinterPropertyNames(address,string)": {
        "details": "Look up all Property Names a Minter has created Time Slots for      with a particular Content ID"
      },
      "tokenURI(uint256)": {
        "params": {
          "tokenId": "uint256 ID of the token to query"
        },
        "return": "URI for a given token ID."
      },
      "tokensMintedBy(address)": {
        "details": "This method MUST NEVER be called by smart contract code. First, it's fairly expensive (it walks the entire _tokenIds array looking for tokens belonging to minter), but it also returns a dynamic array, which is only supported for web3 calls, and not contract-to-contract calls (at this time)."
      },
      "tokensOfOwner(address)": {
        "details": "This method MUST NEVER be called by smart contract code. First, it's fairly expensive (it walks the entire _tokenIds array looking for tokens belonging to owner), but it also returns a dynamic array, which is only supported for web3 calls, and not contract-to-contract calls (at this time).",
        "params": {
          "tokenOwner": "The owner whose tokens we are interested in."
        }
      },
      "totalSupply()": {
        "details": "Gets the total number of tokens ever minted."
      },
      "transferFrom(address,address,uint256)": {
        "details": "Transfers the ownership of a given token ID to another address. Usage of this method is discouraged, use {safeTransferFrom} whenever possible. Requires the msg.sender to be the owner, approved, or operator.",
        "params": {
          "from": "current owner of the token",
          "to": "address to receive the ownership of the given token ID",
          "tokenId": "uint256 ID of the token to be transferred"
        }
      },
      "transferOwnership1(address)": {
        "details": "Transfer owner (admin) functions to another address",
        "params": {
          "newOwner": "Address of new owner/ admin of contract"
        }
      },
      "unpause()": {
        "details": "Called by contract owner to unpause the smart contract."
      },
      "updateMintFee(uint256)": {
        "details": "Update the fee (in wei) charged for minting a single token"
      },
      "updateRegistryAddress(address)": {
        "details": "Update contract address for Microsponsors Registry contract",
        "params": {
          "newAddress": "where the Registry contract lives"
        }
      }
    },
    "title": "ERC721 Non-Fungible Token Standard basic implementation"
  },
  "userdoc": {
    "methods": {
      "tokenURI(uint256)": {
        "notice": "Throws if the token ID does not exist. May return an empty string."
      },
      "tokensMintedBy(address)": {
        "notice": "Return all the Token IDs minted by a given account."
      },
      "unpause()": {
        "notice": "This is public rather than external so it can be called by  derived contracts."
      },
      "withdrawBalance()": {
        "notice": "* Withdraw **"
      }
    }
  }
}