{
  "contractName": "ERC721",
  "abi": [
    {
      "constant": true,
      "inputs": [
        {
          "internalType": "bytes4",
          "name": "interfaceId",
          "type": "bytes4"
        }
      ],
      "name": "supportsInterface",
      "outputs": [
        {
          "internalType": "bool",
          "name": "",
          "type": "bool"
        }
      ],
      "payable": false,
      "stateMutability": "view",
      "type": "function"
    },
    {
      "constant": true,
      "inputs": [],
      "name": "mintFee",
      "outputs": [
        {
          "internalType": "uint256",
          "name": "",
          "type": "uint256"
        }
      ],
      "payable": false,
      "stateMutability": "view",
      "type": "function"
    },
    {
      "constant": true,
      "inputs": [
        {
          "internalType": "uint256",
          "name": "",
          "type": "uint256"
        }
      ],
      "name": "tokenToFederationId",
      "outputs": [
        {
          "internalType": "uint32",
          "name": "",
          "type": "uint32"
        }
      ],
      "payable": false,
      "stateMutability": "view",
      "type": "function"
    },
    {
      "constant": true,
      "inputs": [],
      "name": "owner2",
      "outputs": [
        {
          "internalType": "address",
          "name": "",
          "type": "address"
        }
      ],
      "payable": false,
      "stateMutability": "view",
      "type": "function"
    },
    {
      "constant": true,
      "inputs": [],
      "name": "paused",
      "outputs": [
        {
          "internalType": "bool",
          "name": "",
          "type": "bool"
        }
      ],
      "payable": false,
      "stateMutability": "view",
      "type": "function"
    },
    {
      "constant": true,
      "inputs": [],
      "name": "owner1",
      "outputs": [
        {
          "internalType": "address",
          "name": "",
          "type": "address"
        }
      ],
      "payable": false,
      "stateMutability": "view",
      "type": "function"
    },
    {
      "constant": true,
      "inputs": [],
      "name": "registry",
      "outputs": [
        {
          "internalType": "contract DeployedRegistry",
          "name": "",
          "type": "address"
        }
      ],
      "payable": false,
      "stateMutability": "view",
      "type": "function"
    },
    {
      "inputs": [],
      "payable": false,
      "stateMutability": "nonpayable",
      "type": "constructor"
    },
    {
      "anonymous": false,
      "inputs": [
        {
          "indexed": true,
          "internalType": "address",
          "name": "from",
          "type": "address"
        },
        {
          "indexed": true,
          "internalType": "address",
          "name": "to",
          "type": "address"
        },
        {
          "indexed": true,
          "internalType": "uint256",
          "name": "tokenId",
          "type": "uint256"
        }
      ],
      "name": "Transfer",
      "type": "event"
    },
    {
      "anonymous": false,
      "inputs": [
        {
          "indexed": true,
          "internalType": "address",
          "name": "tokenOwner",
          "type": "address"
        },
        {
          "indexed": true,
          "internalType": "address",
          "name": "approved",
          "type": "address"
        },
        {
          "indexed": true,
          "internalType": "uint256",
          "name": "tokenId",
          "type": "uint256"
        }
      ],
      "name": "Approval",
      "type": "event"
    },
    {
      "anonymous": false,
      "inputs": [
        {
          "indexed": true,
          "internalType": "address",
          "name": "tokenOwner",
          "type": "address"
        },
        {
          "indexed": true,
          "internalType": "address",
          "name": "operator",
          "type": "address"
        },
        {
          "indexed": false,
          "internalType": "bool",
          "name": "approved",
          "type": "bool"
        }
      ],
      "name": "ApprovalForAll",
      "type": "event"
    },
    {
      "constant": false,
      "inputs": [
        {
          "internalType": "address",
          "name": "newOwner",
          "type": "address"
        }
      ],
      "name": "transferOwnership1",
      "outputs": [],
      "payable": false,
      "stateMutability": "nonpayable",
      "type": "function"
    },
    {
      "constant": false,
      "inputs": [
        {
          "internalType": "address",
          "name": "newOwner",
          "type": "address"
        }
      ],
      "name": "transferOwnership2",
      "outputs": [],
      "payable": false,
      "stateMutability": "nonpayable",
      "type": "function"
    },
    {
      "constant": false,
      "inputs": [
        {
          "internalType": "address",
          "name": "newAddress",
          "type": "address"
        }
      ],
      "name": "updateRegistryAddress",
      "outputs": [],
      "payable": false,
      "stateMutability": "nonpayable",
      "type": "function"
    },
    {
      "constant": false,
      "inputs": [
        {
          "internalType": "uint256",
          "name": "val",
          "type": "uint256"
        }
      ],
      "name": "updateMintFee",
      "outputs": [],
      "payable": false,
      "stateMutability": "nonpayable",
      "type": "function"
    },
    {
      "constant": false,
      "inputs": [],
      "name": "pause",
      "outputs": [],
      "payable": false,
      "stateMutability": "nonpayable",
      "type": "function"
    },
    {
      "constant": false,
      "inputs": [],
      "name": "unpause",
      "outputs": [],
      "payable": false,
      "stateMutability": "nonpayable",
      "type": "function"
    },
    {
      "constant": false,
      "inputs": [],
      "name": "withdrawBalance",
      "outputs": [],
      "payable": false,
      "stateMutability": "nonpayable",
      "type": "function"
    },
    {
      "constant": false,
      "inputs": [
        {
          "internalType": "string",
          "name": "contentId",
          "type": "string"
        },
        {
          "internalType": "uint48",
          "name": "startTime",
          "type": "uint48"
        },
        {
          "internalType": "uint48",
          "name": "endTime",
          "type": "uint48"
        },
        {
          "internalType": "bool",
          "name": "isSecondaryTradingEnabled",
          "type": "bool"
        },
        {
          "internalType": "uint32",
          "name": "federationId",
          "type": "uint32"
        }
      ],
      "name": "mint",
      "outputs": [
        {
          "internalType": "uint256",
          "name": "",
          "type": "uint256"
        }
      ],
      "payable": true,
      "stateMutability": "payable",
      "type": "function"
    },
    {
      "constant": false,
      "inputs": [
        {
          "internalType": "string",
          "name": "contentId",
          "type": "string"
        },
        {
          "internalType": "uint48",
          "name": "startTime",
          "type": "uint48"
        },
        {
          "internalType": "uint48",
          "name": "endTime",
          "type": "uint48"
        },
        {
          "internalType": "bool",
          "name": "isSecondaryTradingEnabled",
          "type": "bool"
        },
        {
          "internalType": "uint32",
          "name": "federationId",
          "type": "uint32"
        },
        {
          "internalType": "string",
          "name": "tokenURI",
          "type": "string"
        }
      ],
      "name": "mintWithTokenURI",
      "outputs": [
        {
          "internalType": "uint256",
          "name": "",
          "type": "uint256"
        }
      ],
      "payable": true,
      "stateMutability": "payable",
      "type": "function"
    },
    {
      "constant": false,
      "inputs": [
        {
          "internalType": "string",
          "name": "contentId",
          "type": "string"
        },
        {
          "internalType": "uint48",
          "name": "startTime",
          "type": "uint48"
        },
        {
          "internalType": "uint48",
          "name": "endTime",
          "type": "uint48"
        },
        {
          "internalType": "bool",
          "name": "isSecondaryTradingEnabled",
          "type": "bool"
        },
        {
          "internalType": "uint32",
          "name": "federationId",
          "type": "uint32"
        },
        {
          "internalType": "bytes",
          "name": "data",
          "type": "bytes"
        }
      ],
      "name": "safeMint",
      "outputs": [
        {
          "internalType": "uint256",
          "name": "",
          "type": "uint256"
        }
      ],
      "payable": true,
      "stateMutability": "payable",
      "type": "function"
    },
    {
      "constant": false,
      "inputs": [
        {
          "internalType": "string",
          "name": "contentId",
          "type": "string"
        },
        {
          "internalType": "uint48",
          "name": "startTime",
          "type": "uint48"
        },
        {
          "internalType": "uint48",
          "name": "endTime",
          "type": "uint48"
        },
        {
          "internalType": "bool",
          "name": "isSecondaryTradingEnabled",
          "type": "bool"
        },
        {
          "internalType": "uint32",
          "name": "federationId",
          "type": "uint32"
        }
      ],
      "name": "safeMint",
      "outputs": [
        {
          "internalType": "uint256",
          "name": "",
          "type": "uint256"
        }
      ],
      "payable": true,
      "stateMutability": "payable",
      "type": "function"
    },
    {
      "constant": false,
      "inputs": [
        {
          "internalType": "string",
          "name": "contentId",
          "type": "string"
        },
        {
          "internalType": "uint48",
          "name": "startTime",
          "type": "uint48"
        },
        {
          "internalType": "uint48",
          "name": "endTime",
          "type": "uint48"
        },
        {
          "internalType": "bool",
          "name": "isSecondaryTradingEnabled",
          "type": "bool"
        },
        {
          "internalType": "uint32",
          "name": "federationId",
          "type": "uint32"
        },
        {
          "internalType": "string",
          "name": "tokenURI",
          "type": "string"
        }
      ],
      "name": "safeMintWithTokenURI",
      "outputs": [
        {
          "internalType": "uint256",
          "name": "",
          "type": "uint256"
        }
      ],
      "payable": true,
      "stateMutability": "payable",
      "type": "function"
    },
    {
      "constant": true,
      "inputs": [
        {
          "internalType": "uint256",
          "name": "tokenId",
          "type": "uint256"
        }
      ],
      "name": "tokenURI",
      "outputs": [
        {
          "internalType": "string",
          "name": "",
          "type": "string"
        }
      ],
      "payable": false,
      "stateMutability": "view",
      "type": "function"
    },
    {
      "constant": true,
      "inputs": [
        {
          "internalType": "uint256",
          "name": "tokenId",
          "type": "uint256"
        }
      ],
      "name": "tokenTimeSlot",
      "outputs": [
        {
          "internalType": "address",
          "name": "minter",
          "type": "address"
        },
        {
          "internalType": "address",
          "name": "owner",
          "type": "address"
        },
        {
          "internalType": "string",
          "name": "contentId",
          "type": "string"
        },
        {
          "internalType": "uint48",
          "name": "startTime",
          "type": "uint48"
        },
        {
          "internalType": "uint48",
          "name": "endTime",
          "type": "uint48"
        },
        {
          "internalType": "bool",
          "name": "isSecondaryTradingEnabled",
          "type": "bool"
        },
        {
          "internalType": "uint32",
          "name": "federationId",
          "type": "uint32"
        }
      ],
      "payable": false,
      "stateMutability": "view",
      "type": "function"
    },
    {
      "constant": true,
      "inputs": [
        {
          "internalType": "address",
          "name": "minter",
          "type": "address"
        }
      ],
      "name": "tokenMinterContentIds",
      "outputs": [
        {
          "internalType": "string[]",
          "name": "",
          "type": "string[]"
        }
      ],
      "payable": false,
      "stateMutability": "view",
      "type": "function"
    },
    {
      "constant": true,
      "inputs": [
        {
          "internalType": "address",
          "name": "minter",
          "type": "address"
        }
      ],
      "name": "tokensMintedBy",
      "outputs": [
        {
          "internalType": "uint256[]",
          "name": "",
          "type": "uint256[]"
        }
      ],
      "payable": false,
      "stateMutability": "view",
      "type": "function"
    },
    {
      "constant": true,
      "inputs": [],
      "name": "totalSupply",
      "outputs": [
        {
          "internalType": "uint256",
          "name": "",
          "type": "uint256"
        }
      ],
      "payable": false,
      "stateMutability": "view",
      "type": "function"
    },
    {
      "constant": true,
      "inputs": [
        {
          "internalType": "address",
          "name": "tokenOwner",
          "type": "address"
        }
      ],
      "name": "balanceOf",
      "outputs": [
        {
          "internalType": "uint256",
          "name": "",
          "type": "uint256"
        }
      ],
      "payable": false,
      "stateMutability": "view",
      "type": "function"
    },
    {
      "constant": true,
      "inputs": [
        {
          "internalType": "uint256",
          "name": "tokenId",
          "type": "uint256"
        }
      ],
      "name": "ownerOf",
      "outputs": [
        {
          "internalType": "address",
          "name": "",
          "type": "address"
        }
      ],
      "payable": false,
      "stateMutability": "view",
      "type": "function"
    },
    {
      "constant": true,
      "inputs": [
        {
          "internalType": "address",
          "name": "tokenOwner",
          "type": "address"
        }
      ],
      "name": "tokensOfOwner",
      "outputs": [
        {
          "internalType": "uint256[]",
          "name": "",
          "type": "uint256[]"
        }
      ],
      "payable": false,
      "stateMutability": "view",
      "type": "function"
    },
    {
      "constant": false,
      "inputs": [
        {
          "internalType": "address",
          "name": "to",
          "type": "address"
        },
        {
          "internalType": "uint256",
          "name": "tokenId",
          "type": "uint256"
        }
      ],
      "name": "approve",
      "outputs": [],
      "payable": false,
      "stateMutability": "nonpayable",
      "type": "function"
    },
    {
      "constant": true,
      "inputs": [
        {
          "internalType": "uint256",
          "name": "tokenId",
          "type": "uint256"
        }
      ],
      "name": "getApproved",
      "outputs": [
        {
          "internalType": "address",
          "name": "",
          "type": "address"
        }
      ],
      "payable": false,
      "stateMutability": "view",
      "type": "function"
    },
    {
      "constant": false,
      "inputs": [
        {
          "internalType": "address",
          "name": "to",
          "type": "address"
        },
        {
          "internalType": "bool",
          "name": "approved",
          "type": "bool"
        }
      ],
      "name": "setApprovalForAll",
      "outputs": [],
      "payable": false,
      "stateMutability": "nonpayable",
      "type": "function"
    },
    {
      "constant": true,
      "inputs": [
        {
          "internalType": "address",
          "name": "tokenOwner",
          "type": "address"
        },
        {
          "internalType": "address",
          "name": "operator",
          "type": "address"
        }
      ],
      "name": "isApprovedForAll",
      "outputs": [
        {
          "internalType": "bool",
          "name": "",
          "type": "bool"
        }
      ],
      "payable": false,
      "stateMutability": "view",
      "type": "function"
    },
    {
      "constant": false,
      "inputs": [
        {
          "internalType": "address",
          "name": "from",
          "type": "address"
        },
        {
          "internalType": "address",
          "name": "to",
          "type": "address"
        },
        {
          "internalType": "uint256",
          "name": "tokenId",
          "type": "uint256"
        }
      ],
      "name": "transferFrom",
      "outputs": [],
      "payable": false,
      "stateMutability": "nonpayable",
      "type": "function"
    },
    {
      "constant": false,
      "inputs": [
        {
          "internalType": "address",
          "name": "from",
          "type": "address"
        },
        {
          "internalType": "address",
          "name": "to",
          "type": "address"
        },
        {
          "internalType": "uint256",
          "name": "tokenId",
          "type": "uint256"
        },
        {
          "internalType": "bytes",
          "name": "data",
          "type": "bytes"
        }
      ],
      "name": "safeTransferFrom",
      "outputs": [],
      "payable": false,
      "stateMutability": "nonpayable",
      "type": "function"
    },
    {
      "constant": false,
      "inputs": [
        {
          "internalType": "address",
          "name": "from",
          "type": "address"
        },
        {
          "internalType": "address",
          "name": "to",
          "type": "address"
        },
        {
          "internalType": "uint256",
          "name": "tokenId",
          "type": "uint256"
        }
      ],
      "name": "safeTransferFrom",
      "outputs": [],
      "payable": false,
      "stateMutability": "nonpayable",
      "type": "function"
    },
    {
      "constant": false,
      "inputs": [
        {
          "internalType": "uint256",
          "name": "tokenId",
          "type": "uint256"
        }
      ],
      "name": "burn",
      "outputs": [],
      "payable": false,
      "stateMutability": "nonpayable",
      "type": "function"
    }
  ],
  "bytecode": "0x60806040526002805460ff60a01b19169055655af3107a40006003553480156200002857600080fd5b506200005d7f01ffc9a7000000000000000000000000000000000000000000000000000000006001600160e01b03620000f416565b620000917f80ac58cd000000000000000000000000000000000000000000000000000000006001600160e01b03620000f416565b620000a46001600160e01b036200019916565b600180546001600160a01b0319166001600160a01b0392909216919091179055620000ce62000199565b600280546001600160a01b0319166001600160a01b0392909216919091179055620001f9565b7fffffffff0000000000000000000000000000000000000000000000000000000080821614156200015c576040517f08c379a00000000000000000000000000000000000000000000000000000000081526004016200015390620001d8565b60405180910390fd5b7fffffffff00000000000000000000000000000000000000000000000000000000166000908152602081905260409020805460ff19166001179055565b3390565b6000620001ac601c83620001f0565b7f4552433136353a20696e76616c696420696e7465726661636520696400000000815260200192915050565b60208082528101620001ea816200019d565b92915050565b90815260200190565b6137d380620002096000396000f3fe6080604052600436106102045760003560e01c80637368891411610118578063bd5c4185116100a0578063e2b375a91161006f578063e2b375a9146105a5578063e5c24924146105c5578063e89fecc0146105f8578063e982d5a91461060b578063e985e9c51461062b57610204565b8063bd5c418514610532578063c57a882514610545578063c87b56dd14610565578063cd1ed24a1461059257610204565b80638462151c116100e75780638462151c14610492578063a002c376146104b2578063a22cb465146104c5578063a4ede128146104e5578063b88d4fde1461051257610204565b806373688914146104265780637b1039991461043b57806384017e521461045d5780638456cb591461047d57610204565b80633f4ba83a1161019b5780635a393bc21161016a5780635a393bc2146103a95780635c975abb146103bc5780635fd8c710146103d15780636352211e146103e657806370a082311461040657610204565b80633f4ba83a1461033f57806342842e0e1461035457806342966c6814610374578063527097251461039457610204565b8063180b9e3f116101d7578063180b9e3f146102b057806318160ddd146102dd57806323b872dd146102f25780632a0c77991461031257610204565b806301ffc9a714610209578063081812fc1461023f578063095ea7b31461026c57806313966db51461028e575b600080fd5b34801561021557600080fd5b50610229610224366004612c09565b61064b565b6040516102369190613465565b60405180910390f35b34801561024b57600080fd5b5061025f61025a366004612d87565b61066e565b6040516102369190613382565b34801561027857600080fd5b5061028c610287366004612bbb565b6106ba565b005b34801561029a57600080fd5b506102a36107b6565b60405161023691906135b2565b3480156102bc57600080fd5b506102d06102cb366004612d87565b6107bc565b60405161023691906135c0565b3480156102e957600080fd5b506102a36107d4565b3480156102fe57600080fd5b5061028c61030d366004612ac5565b6107e6565b34801561031e57600080fd5b5061033261032d366004612a6d565b610962565b6040516102369190613454565b34801561034b57600080fd5b5061028c610a6a565b34801561036057600080fd5b5061028c61036f366004612ac5565b610aee565b34801561038057600080fd5b5061028c61038f366004612d87565b610b0e565b3480156103a057600080fd5b5061025f610c52565b6102a36103b7366004612cd1565b610c61565b3480156103c857600080fd5b50610229610dcc565b3480156103dd57600080fd5b5061028c610ddc565b3480156103f257600080fd5b5061025f610401366004612d87565b610eb8565b34801561041257600080fd5b506102a3610421366004612a6d565b610ed3565b34801561043257600080fd5b5061025f610f22565b34801561044757600080fd5b50610450610f31565b6040516102369190613473565b34801561046957600080fd5b5061028c610478366004612d87565b610f40565b34801561048957600080fd5b5061028c610fa4565b34801561049e57600080fd5b506103326104ad366004612a6d565b61102f565b6102a36104c0366004612c45565b6110e9565b3480156104d157600080fd5b5061028c6104e0366004612b8b565b611252565b3480156104f157600080fd5b50610505610500366004612a6d565b611337565b6040516102369190613443565b34801561051e57600080fd5b5061028c61052d366004612b12565b6114ad565b6102a3610540366004612cd1565b61162b565b34801561055157600080fd5b5061028c610560366004612a6d565b61176b565b34801561057157600080fd5b50610585610580366004612d87565b6117ec565b6040516102369190613481565b6102a36105a0366004612cd1565b6118b2565b3480156105b157600080fd5b5061028c6105c0366004612a6d565b6119de565b3480156105d157600080fd5b506105e56105e0366004612d87565b611a6b565b6040516102369796959493929190613390565b6102a3610606366004612c45565b611bf6565b34801561061757600080fd5b5061028c610626366004612a6d565b611d1d565b34801561063757600080fd5b50610229610646366004612a8b565b611dab565b6001600160e01b0319811660009081526020819052604090205460ff165b919050565b600061067982611dd9565b61069e5760405162461bcd60e51b815260040161069590613572565b60405180910390fd5b506000908152600d60205260409020546001600160a01b031690565b600254600160a01b900460ff16156106d157600080fd5b60006106dc82610eb8565b9050806001600160a01b0316836001600160a01b031614156107105760405162461bcd60e51b8152600401610695906134f2565b806001600160a01b0316610722611df6565b6001600160a01b0316148061073e575061073e81610646611df6565b61075a5760405162461bcd60e51b8152600401610695906135a2565b6000828152600d602052604080822080546001600160a01b0319166001600160a01b0387811691821790925591518593918516917f8c5be1e5ebec7d5bd14f71427d1e84f3dd0314c0f7b2291e5b200ac8c7c3b92591a4505050565b60035481565b60096020526000908152604090205463ffffffff1681565b60006107e06005611dfa565b90505b90565b600254600160a01b900460ff16156107fd57600080fd5b61080e610808611df6565b82611dfe565b61082a5760405162461bcd60e51b815260040161069590613592565b6000818152600a60205260408120546001600160a01b03169061084c83610eb8565b600084815260096020908152604080832054600a9092529091206002015491925063ffffffff1690600160601b900460ff166108aa5761088d868686611e83565b156108aa5760405162461bcd60e51b8152600401610695906134a2565b60048054604051630d1e359160e01b81526001600160a01b0390911691630d1e3591916108e39185918b918b918b918b918b91016135e9565b60206040518083038186803b1580156108fb57600080fd5b505afa15801561090f573d6000803e3d6000fd5b505050506040513d601f19601f820116820180604052506109339190810190612beb565b61094f5760405162461bcd60e51b815260040161069590613592565b61095a868686611eda565b505050505050565b60606001600160a01b03821661098a5760405162461bcd60e51b8152600401610695906134d2565b6001600160a01b03821660009081526008602052604081206109ab90611dfa565b9050806109cd5760408051600080825260208201909252905b50915050610669565b6060816040519080825280602002602001820160405280156109f9578160200160208202803883390190505b5090506000610a066107d4565b9050600060015b828111610a5d576000818152600a60205260409020546001600160a01b0388811691161415610a555780848381518110610a4357fe5b60209081029190910101526001909101905b600101610a0d565b8395505050505050610669565b6001546001600160a01b0316610a7e611df6565b6001600160a01b03161480610aad57506002546001600160a01b0316610aa2611df6565b6001600160a01b0316145b610ac95760405162461bcd60e51b815260040161069590613542565b600254600160a01b900460ff16610adf57600080fd5b6002805460ff60a01b19169055565b610b09838383604051806020016040528060008152506114ad565b505050565b600254600160a01b900460ff1615610b2557600080fd5b6000818152600a60205260408120546001600160a01b031690610b4783610eb8565b60008481526009602052604090205490915063ffffffff166001600160a01b038083169084161415610c16576004546001600160a01b03166312d26ac882610b8d611df6565b6040518363ffffffff1660e01b8152600401610baa9291906135ce565b60206040518083038186803b158015610bc257600080fd5b505afa158015610bd6573d6000803e3d6000fd5b505050506040513d601f19601f82011682018060405250610bfa9190810190612beb565b610c165760405162461bcd60e51b8152600401610695906134e2565b610c27610c21611df6565b85611dfe565b610c435760405162461bcd60e51b8152600401610695906134e2565b610c4c84611fe0565b50505050565b6002546001600160a01b031681565b600254600090600160a01b900460ff1615610c7b57600080fd5b600354341015610c8a57600080fd5b60008363ffffffff1611610cb05760405162461bcd60e51b815260040161069590613532565b6004546001600160a01b03166312d26ac884610cca611df6565b6040518363ffffffff1660e01b8152600401610ce79291906135ce565b60206040518083038186803b158015610cff57600080fd5b505afa158015610d13573d6000803e3d6000fd5b505050506040513d601f19601f82011682018060405250610d379190810190612beb565b610d535760405162461bcd60e51b815260040161069590613582565b610d5f87878786611ff2565b610d7b5760405162461bcd60e51b815260040161069590613562565b6000610d8e610d88611df6565b846120cc565b9050610d9d8189898989612103565b6000818152600960205260409020805463ffffffff861663ffffffff1990911617905590509695505050505050565b600254600160a01b900460ff1681565b6001546001600160a01b0316610df0611df6565b6001600160a01b03161480610e1f57506002546001600160a01b0316610e14611df6565b6001600160a01b0316145b610e3b5760405162461bcd60e51b815260040161069590613542565b60405130319060009033908390610e5190613377565b60006040518083038185875af1925050503d8060008114610e8e576040519150601f19603f3d011682016040523d82523d6000602084013e610e93565b606091505b5050905080610eb45760405162461bcd60e51b815260040161069590613502565b5050565b6000908152600660205260409020546001600160a01b031690565b60006001600160a01b038216610efb5760405162461bcd60e51b8152600401610695906134d2565b6001600160a01b0382166000908152600760205260409020610f1c90611dfa565b92915050565b6001546001600160a01b031681565b6004546001600160a01b031681565b6001546001600160a01b0316610f54611df6565b6001600160a01b03161480610f8357506002546001600160a01b0316610f78611df6565b6001600160a01b0316145b610f9f5760405162461bcd60e51b815260040161069590613542565b600355565b6001546001600160a01b0316610fb8611df6565b6001600160a01b03161480610fe757506002546001600160a01b0316610fdc611df6565b6001600160a01b0316145b6110035760405162461bcd60e51b815260040161069590613542565b600254600160a01b900460ff161561101a57600080fd5b6002805460ff60a01b1916600160a01b179055565b6060600061103c83610ed3565b9050806110595760408051600080825260208201909252906109c4565b606081604051908082528060200260200182016040528015611085578160200160208202803883390190505b50905060006110926107d4565b9050600060015b828111610a5d576000818152600660205260409020546001600160a01b03888116911614156110e157808483815181106110cf57fe5b60209081029190910101526001909101905b600101611099565b600254600090600160a01b900460ff161561110357600080fd5b60035434101561111257600080fd5b60008263ffffffff16116111385760405162461bcd60e51b815260040161069590613532565b6004546001600160a01b03166312d26ac883611152611df6565b6040518363ffffffff1660e01b815260040161116f9291906135ce565b60206040518083038186803b15801561118757600080fd5b505afa15801561119b573d6000803e3d6000fd5b505050506040513d601f19601f820116820180604052506111bf9190810190612beb565b6111db5760405162461bcd60e51b815260040161069590613582565b6111e786868685611ff2565b6112035760405162461bcd60e51b815260040161069590613562565b6000611215611210611df6565b6122c2565b90506112248188888888612103565b6000818152600960205260409020805463ffffffff851663ffffffff19909116179055905095945050505050565b600254600160a01b900460ff161561126957600080fd5b611271611df6565b6001600160a01b0316826001600160a01b031614156112a25760405162461bcd60e51b815260040161069590613522565b80600e60006112af611df6565b6001600160a01b03908116825260208083019390935260409182016000908120918716808252919093529120805460ff1916921515929092179091556112f3611df6565b6001600160a01b03167f17307eab39ab6107e8899845ad3d59bd9653f200f220920489ca2b5937696c318360405161132b9190613465565b60405180910390a35050565b6001600160a01b0381166000908152600b602090815260408083208054825181850281018501909352808352606094859484015b8282101561142257600084815260209081902060408051918501805460026001821615610100026000190190911604601f810185900485028401830183529383018481529293909284929091849184018282801561140a5780601f106113df5761010080835404028352916020019161140a565b820191906000526020600020905b8154815290600101906020018083116113ed57829003601f168201915b5050505050815250508152602001906001019061136b565b5050505090506060815160405190808252806020026020018201604052801561145f57816020015b606081526020019060019003908161144a5790505b50905060005b82518110156114a55782818151811061147a57fe5b60200260200101516000015182828151811061149257fe5b6020908102919091010152600101611465565b509392505050565b600254600160a01b900460ff16156114c457600080fd5b6114d56114cf611df6565b83611dfe565b6114f15760405162461bcd60e51b815260040161069590613592565b6000828152600a60205260408120546001600160a01b03169061151384610eb8565b600085815260096020908152604080832054600a9092529091206002015491925063ffffffff1690600160601b900460ff1661157157611554878787611e83565b156115715760405162461bcd60e51b8152600401610695906134a2565b60048054604051630d1e359160e01b81526001600160a01b0390911691630d1e3591916115aa9185918c918c918c918b918b91016135e9565b60206040518083038186803b1580156115c257600080fd5b505afa1580156115d6573d6000803e3d6000fd5b505050506040513d601f19601f820116820180604052506115fa9190810190612beb565b6116165760405162461bcd60e51b815260040161069590613592565b611622878787876122de565b50505050505050565b600254600090600160a01b900460ff161561164557600080fd5b60035434101561165457600080fd5b60008363ffffffff161161167a5760405162461bcd60e51b815260040161069590613532565b6004546001600160a01b03166312d26ac884611694611df6565b6040518363ffffffff1660e01b81526004016116b19291906135ce565b60206040518083038186803b1580156116c957600080fd5b505afa1580156116dd573d6000803e3d6000fd5b505050506040513d601f19601f820116820180604052506117019190810190612beb565b61171d5760405162461bcd60e51b815260040161069590613582565b61172987878786611ff2565b6117455760405162461bcd60e51b815260040161069590613562565b6000611752611210611df6565b90506117618189898989612103565b610d9d8184612311565b6001546001600160a01b031661177f611df6565b6001600160a01b031614806117ae57506002546001600160a01b03166117a3611df6565b6001600160a01b0316145b6117ca5760405162461bcd60e51b815260040161069590613542565b600480546001600160a01b0319166001600160a01b0392909216919091179055565b60606117f782611dd9565b6118135760405162461bcd60e51b815260040161069590613572565b6000828152600c602090815260409182902080548351601f6002600019610100600186161502019093169290920491820184900484028101840190945280845290918301828280156118a65780601f1061187b576101008083540402835291602001916118a6565b820191906000526020600020905b81548152906001019060200180831161188957829003601f168201915b50505050509050919050565b600254600090600160a01b900460ff16156118cc57600080fd5b6003543410156118db57600080fd5b60008363ffffffff16116119015760405162461bcd60e51b815260040161069590613532565b6004546001600160a01b03166312d26ac88461191b611df6565b6040518363ffffffff1660e01b81526004016119389291906135ce565b60206040518083038186803b15801561195057600080fd5b505afa158015611964573d6000803e3d6000fd5b505050506040513d601f19601f820116820180604052506119889190810190612beb565b6119a45760405162461bcd60e51b815260040161069590613582565b6119b087878786611ff2565b6119cc5760405162461bcd60e51b815260040161069590613562565b60006117526119d9611df6565b612355565b6001546001600160a01b03166119f2611df6565b6001600160a01b03161480611a2157506002546001600160a01b0316611a16611df6565b6001600160a01b0316145b611a3d5760405162461bcd60e51b815260040161069590613542565b6001600160a01b03811615611a6857600280546001600160a01b0319166001600160a01b0383161790555b50565b6000806060600080600080611a7f88611dd9565b611a9b5760405162461bcd60e51b815260040161069590613572565b611aa36128ba565b6000898152600a6020908152604091829020825160a08101845281546001600160a01b03168152600180830180548651600261010094831615949094026000190190911692909204601f8101869004860283018601909652858252919492938581019391929190830182828015611b5b5780601f10611b3057610100808354040283529160200191611b5b565b820191906000526020600020905b815481529060010190602001808311611b3e57829003601f168201915b50505091835250506002919091015465ffffffffffff80821660208085019190915266010000000000008304909116604080850191909152600160601b90920460ff16151560609093019290925260008c81526009909252902054815191925063ffffffff1690611bcb8b610eb8565b602084015160408501516060860151608090960151939e929d50909b50995092975095509350915050565b600254600090600160a01b900460ff1615611c1057600080fd5b600354341015611c1f57600080fd5b60008263ffffffff1611611c455760405162461bcd60e51b815260040161069590613532565b6004546001600160a01b03166312d26ac883611c5f611df6565b6040518363ffffffff1660e01b8152600401611c7c9291906135ce565b60206040518083038186803b158015611c9457600080fd5b505afa158015611ca8573d6000803e3d6000fd5b505050506040513d601f19601f82011682018060405250611ccc9190810190612beb565b611ce85760405162461bcd60e51b815260040161069590613582565b611cf486868685611ff2565b611d105760405162461bcd60e51b815260040161069590613562565b60006112156119d9611df6565b6001546001600160a01b0316611d31611df6565b6001600160a01b03161480611d6057506002546001600160a01b0316611d55611df6565b6001600160a01b0316145b611d7c5760405162461bcd60e51b815260040161069590613542565b6001600160a01b03811615611a6857600180546001600160a01b0383166001600160a01b031990911617905550565b6001600160a01b039182166000908152600e6020908152604080832093909416825291909152205460ff1690565b6000908152600660205260409020546001600160a01b0316151590565b3390565b5490565b6000611e0982611dd9565b611e255760405162461bcd60e51b815260040161069590613572565b6000611e3083610eb8565b9050806001600160a01b0316846001600160a01b03161480611e6b5750836001600160a01b0316611e608461066e565b6001600160a01b0316145b80611e7b5750611e7b8185611dab565b949350505050565b6000818152600a60205260408120546001600160a01b03908116908516811480611ebe5750806001600160a01b0316846001600160a01b0316145b15611ecd576000915050611ed3565b60019150505b9392505050565b826001600160a01b0316611eed82610eb8565b6001600160a01b031614611f135760405162461bcd60e51b815260040161069590613592565b6001600160a01b038216611f395760405162461bcd60e51b8152600401610695906134c2565b611f4281612434565b6001600160a01b0383166000908152600760205260409020611f639061246f565b6001600160a01b0382166000908152600760205260409020611f8490612486565b60008181526006602052604080822080546001600160a01b0319166001600160a01b0386811691821790925591518493918716917fddf252ad1be2c89b69c2b068fc378daa952ba7f163c4a11628f55a4df523b3ef91a4505050565b611a68611fec82610eb8565b8261248f565b6004805460405163abe6178360e01b81526000926001600160a01b039092169163abe61783916120269186918a9101613643565b60206040518083038186803b15801561203e57600080fd5b505afa158015612052573d6000803e3d6000fd5b505050506040513d601f19601f820116820180604052506120769190810190612beb565b6120925760405162461bcd60e51b815260040161069590613512565b8365ffffffffffff168365ffffffffffff16116120c15760405162461bcd60e51b815260040161069590613552565b506001949350505050565b6000806120d884612355565b90506120e760008583866125c6565b611ed35760405162461bcd60e51b8152600401610695906134b2565b61210c85611dd9565b6121285760405162461bcd60e51b815260040161069590613572565b6121306128ba565b6040518060a00160405280612143611df6565b6001600160a01b031681526020018681526020018565ffffffffffff1681526020018465ffffffffffff168152602001831515815250905080600a600088815260200190815260200160002060008201518160000160006101000a8154816001600160a01b0302191690836001600160a01b0316021790555060208201518160010190805190602001906121d89291906128e9565b5060408201516002919091018054606084015160809094015165ffffffffffff1990911665ffffffffffff938416176bffffffffffff000000000000191666010000000000009390941692909202929092176cff0000000000000000000000001916600160601b9115159190910217905561225285612691565b61095a57600b6000612262611df6565b6001600160a01b031681526020808201929092526040908101600090812082518085019093528883528054600181018083559183529184902083518051929591909301926122b692849291909101906128e9565b50505050505050505050565b600080611ed383604051806020016040528060008152506120cc565b6122e9848484611eda565b6122f5848484846125c6565b610c4c5760405162461bcd60e51b8152600401610695906134b2565b61231a82611dd9565b6123365760405162461bcd60e51b815260040161069590613572565b6000828152600c602090815260409091208251610b09928401906128e9565b60006001600160a01b03821661237d5760405162461bcd60e51b815260040161069590613492565b6123876005612486565b60006123936005611dfa565b600081815260066020908152604080832080546001600160a01b0319166001600160a01b0389169081179091558352600790915290209091506123d590612486565b6001600160a01b03831660009081526008602052604090206123f690612486565b60405181906001600160a01b038516906000907fddf252ad1be2c89b69c2b068fc378daa952ba7f163c4a11628f55a4df523b3ef908290a492915050565b6000818152600d60205260409020546001600160a01b031615611a68576000908152600d6020526040902080546001600160a01b0319169055565b805461248290600163ffffffff6127bc16565b9055565b80546001019055565b816001600160a01b03166124a282610eb8565b6001600160a01b0316146124c85760405162461bcd60e51b8152600401610695906134e2565b6124d181612434565b6001600160a01b03821660009081526007602052604090206124f29061246f565b600081815260066020908152604080832080546001600160a01b0319169055600c9091529020546002600019600183161561010002019091160415612548576000818152600c6020526040812061254891612967565b6000818152600a6020526040812080546001600160a01b0319168155906125726001830182612967565b5060020180546cffffffffffffffffffffffffff1916905560405181906000906001600160a01b038516907fddf252ad1be2c89b69c2b068fc378daa952ba7f163c4a11628f55a4df523b3ef908390a45050565b60006125da846001600160a01b03166127fe565b6125e657506001611e7b565b6000846001600160a01b031663150b7a026125ff611df6565b8887876040518563ffffffff1660e01b815260040161262194939291906133ff565b602060405180830381600087803b15801561263b57600080fd5b505af115801561264f573d6000803e3d6000fd5b505050506040513d601f19601f820116820180604052506126739190810190612c27565b6001600160e01b031916630a85bd0160e11b14915050949350505050565b336000908152600b602090815260408083208054825181850281018501909352808352606093859084015b8282101561277357600084815260209081902060408051918501805460026001821615610100026000190190911604601f810185900485028401830183529383018481529293909284929091849184018282801561275b5780601f106127305761010080835404028352916020019161275b565b820191906000526020600020905b81548152906001019060200180831161273e57829003601f168201915b505050505081525050815260200190600101906126bc565b5092935060009250829150505b82518110156114a5576127aa8584838151811061279957fe5b602002602001015160000151612835565b156127b457600191505b600101612780565b6000611ed383836040518060400160405280601e81526020017f536166654d6174683a207375627472616374696f6e206f766572666c6f77000081525061288e565b6000813f7fc5d2460186f7233c927e7db2dcc703c0e500b653ca82273b7bfad8045d85a4708115801590611e7b5750141592915050565b600081604051602001612848919061336b565b604051602081830303815290604052805190602001208360405160200161286f919061336b565b6040516020818303038152906040528051906020012014905092915050565b600081848411156128b25760405162461bcd60e51b81526004016106959190613481565b505050900390565b6040805160a0810182526000808252606060208301819052928201819052918101829052608081019190915290565b828054600181600116156101000203166002900490600052602060002090601f016020900481019282601f1061292a57805160ff1916838001178555612957565b82800160010185558215612957579182015b8281111561295757825182559160200191906001019061293c565b506129639291506129a7565b5090565b50805460018160011615610100020316600290046000825580601f1061298d5750611a68565b601f016020900490600052602060002090810190611a6891905b6107e391905b8082111561296357600081556001016129ad565b8035610f1c8161374f565b8035610f1c81613763565b8051610f1c81613763565b8035610f1c8161376c565b8051610f1c8161376c565b600082601f830112612a0957600080fd5b8135612a1c612a178261368a565b613663565b91508082526020830160208301858383011115612a3857600080fd5b612a4383828461370d565b50505092915050565b8035610f1c81613775565b8035610f1c8161377e565b8035610f1c81613787565b600060208284031215612a7f57600080fd5b6000611e7b84846129c1565b60008060408385031215612a9e57600080fd5b6000612aaa85856129c1565b9250506020612abb858286016129c1565b9150509250929050565b600080600060608486031215612ada57600080fd5b6000612ae686866129c1565b9350506020612af7868287016129c1565b9250506040612b0886828701612a4c565b9150509250925092565b60008060008060808587031215612b2857600080fd5b6000612b3487876129c1565b9450506020612b45878288016129c1565b9350506040612b5687828801612a4c565b925050606085013567ffffffffffffffff811115612b7357600080fd5b612b7f878288016129f8565b91505092959194509250565b60008060408385031215612b9e57600080fd5b6000612baa85856129c1565b9250506020612abb858286016129cc565b60008060408385031215612bce57600080fd5b6000612bda85856129c1565b9250506020612abb85828601612a4c565b600060208284031215612bfd57600080fd5b6000611e7b84846129d7565b600060208284031215612c1b57600080fd5b6000611e7b84846129e2565b600060208284031215612c3957600080fd5b6000611e7b84846129ed565b600080600080600060a08688031215612c5d57600080fd5b853567ffffffffffffffff811115612c7457600080fd5b612c80888289016129f8565b9550506020612c9188828901612a62565b9450506040612ca288828901612a62565b9350506060612cb3888289016129cc565b9250506080612cc488828901612a57565b9150509295509295909350565b60008060008060008060c08789031215612cea57600080fd5b863567ffffffffffffffff811115612d0157600080fd5b612d0d89828a016129f8565b9650506020612d1e89828a01612a62565b9550506040612d2f89828a01612a62565b9450506060612d4089828a016129cc565b9350506080612d5189828a01612a57565b92505060a087013567ffffffffffffffff811115612d6e57600080fd5b612d7a89828a016129f8565b9150509295509295509295565b600060208284031215612d9957600080fd5b6000611e7b8484612a4c565b6000611ed38383612ea4565b6000612dbd8383613350565b505060200190565b612dce816136c5565b82525050565b6000612ddf826136b8565b612de981856136bc565b935083602082028501612dfb856136b2565b8060005b85811015612e355784840389528151612e188582612da5565b9450612e23836136b2565b60209a909a0199925050600101612dff565b5091979650505050505050565b6000612e4d826136b8565b612e5781856136bc565b9350612e62836136b2565b8060005b83811015612e90578151612e7a8882612db1565b9750612e85836136b2565b925050600101612e66565b509495945050505050565b612dce816136d0565b6000612eaf826136b8565b612eb981856136bc565b9350612ec9818560208601613719565b612ed281613745565b9093019392505050565b612dce81613702565b6000612ef0826136b8565b612efa8185610669565b9350612f0a818560208601613719565b9290920192915050565b6000612f216014836136bc565b7f4d494e545f544f5f5a45524f5f41444452455353000000000000000000000000815260200192915050565b6000612f5a601a836136bc565b7f5345434f4e444152595f54524144494e475f44495341424c4544000000000000815260200192915050565b6000612f93602a836136bc565b7f5452414e534645525f544f5f4e4f4e5f45524337323152454345495645525f4981526926a82622a6a2a72a22a960b11b602082015260400192915050565b6000612fdf6018836136bc565b7f5452414e534645525f544f5f5a45524f5f414444524553530000000000000000815260200192915050565b60006130186019836136bc565b7f43414e4e4f545f51554552595f5a45524f5f4144445245535300000000000000815260200192915050565b60006130516011836136bc565b7f554e415554484f52495a45445f4255524e000000000000000000000000000000815260200192915050565b600061308a6015836136bc565b7f415050524f56414c5f49535f524544554e44414e540000000000000000000000815260200192915050565b60006130c3600f836136bc565b7f57495448445241575f4641494c45440000000000000000000000000000000000815260200192915050565b60006130fc6023836136bc565b7f434f4e54454e545f49445f4e4f545f524547495354455245445f544f5f43414c8152622622a960e91b602082015260400192915050565b6000613141601a836136bc565b7f43414c4c45525f43414e4e4f545f415050524f56455f53454c46000000000000815260200192915050565b600061317a6015836136bc565b7f494e56414c49445f46454445524154494f4e5f49440000000000000000000000815260200192915050565b60006131b36013836136bc565b7f4f4e4c595f434f4e54524143545f4f574e455200000000000000000000000000815260200192915050565b60006131ec6019836136bc565b7f53544152545f54494d455f41465445525f454e445f54494d4500000000000000815260200192915050565b6000610f1c600083610669565b60006132326011836136bc565b7f494e56414c49445f54494d455f534c4f54000000000000000000000000000000815260200192915050565b600061326b6012836136bc565b7f4e4f4e5f4558495354454e545f544f4b454e0000000000000000000000000000815260200192915050565b60006132a46025836136bc565b7f43414c4c45525f4e4f545f415554484f52495a45445f464f525f4d494e5445528152645f524f4c4560d81b602082015260400192915050565b60006132eb6015836136bc565b7f554e415554484f52495a45445f5452414e534645520000000000000000000000815260200192915050565b60006133246015836136bc565b7f43414c4c45525f4e4f545f415554484f52495a45440000000000000000000000815260200192915050565b612dce816107e3565b612dce816136ee565b612dce816136f7565b6000611ed38284612ee5565b6000610f1c82613218565b60208101610f1c8284612dc5565b60e0810161339e828a612dc5565b6133ab6020830189612dc5565b81810360408301526133bd8188612ea4565b90506133cc6060830187613362565b6133d96080830186613362565b6133e660a0830185612e9b565b6133f360c0830184613359565b98975050505050505050565b6080810161340d8287612dc5565b61341a6020830186612dc5565b6134276040830185613350565b81810360608301526134398184612ea4565b9695505050505050565b60208082528101611ed38184612dd4565b60208082528101611ed38184612e42565b60208101610f1c8284612e9b565b60208101610f1c8284612edc565b60208082528101611ed38184612ea4565b60208082528101610f1c81612f14565b60208082528101610f1c81612f4d565b60208082528101610f1c81612f86565b60208082528101610f1c81612fd2565b60208082528101610f1c8161300b565b60208082528101610f1c81613044565b60208082528101610f1c8161307d565b60208082528101610f1c816130b6565b60208082528101610f1c816130ef565b60208082528101610f1c81613134565b60208082528101610f1c8161316d565b60208082528101610f1c816131a6565b60208082528101610f1c816131df565b60208082528101610f1c81613225565b60208082528101610f1c8161325e565b60208082528101610f1c81613297565b60208082528101610f1c816132de565b60208082528101610f1c81613317565b60208101610f1c8284613350565b60208101610f1c8284613359565b604081016135dc8285613359565b611ed36020830184612dc5565b60c081016135f78289613359565b6136046020830188612dc5565b6136116040830187612dc5565b61361e6060830186613350565b61362b6080830185612dc5565b61363860a0830184612dc5565b979650505050505050565b604081016136518285613359565b8181036020830152611e7b8184612ea4565b60405181810167ffffffffffffffff8111828210171561368257600080fd5b604052919050565b600067ffffffffffffffff8211156136a157600080fd5b506020601f91909101601f19160190565b60200190565b5190565b90815260200190565b6000610f1c826136e2565b151590565b6001600160e01b03191690565b6001600160a01b031690565b63ffffffff1690565b65ffffffffffff1690565b6000610f1c826136c5565b82818337506000910152565b60005b8381101561373457818101518382015260200161371c565b83811115610c4c5750506000910152565b601f01601f191690565b613758816136c5565b8114611a6857600080fd5b613758816136d0565b613758816136d5565b613758816107e3565b613758816136ee565b613758816136f756fea365627a7a72315820b920b39e323fc493adcc28f5df0625a0c8865145826e93ab6cb3b92e4ff712576c6578706572696d656e74616cf564736f6c634300050b0040",
  "source": "pragma solidity ^0.5.11;\npragma experimental ABIEncoderV2;\n\n/**\n * @title ERC721 Customized for Microsponsors from:\n * https://github.com/OpenZeppelin/openzeppelin-contracts/blob/master/contracts/token/ERC721/ERC721MetadataMintable.sol\n */\n\nimport \"./IERC721.sol\";\nimport \"./IERC721Receiver.sol\";\nimport \"./SafeMath.sol\";\nimport \"./Address.sol\";\nimport \"./Counters.sol\";\nimport \"./ERC165.sol\";\n\n\n/**\n * @title Deployed Microsponsors Registry smart contract interface.\n * @dev We just use the signatures of the parts we need to interact with:\n */\ncontract DeployedRegistry {\n    function isContentIdRegisteredToCaller(uint32 federationId, string memory contentId) public view returns(bool);\n    function isMinter(uint32 federationId, address account) public view returns (bool);\n    function isAuthorizedTransferFrom(uint32 federationId, address from, address to, uint256 tokenId, address minter, address owner) public view returns(bool);\n}\n\n\n/**\n * @title ERC721 Non-Fungible Token Standard basic implementation\n * @dev see https://eips.ethereum.org/EIPS/eip-721\n */\ncontract ERC721 is ERC165, IERC721 {\n    using SafeMath for uint256;\n    using Address for address;\n    using Counters for Counters.Counter;\n\n\n    /***  Contract data  ***/\n\n\n    /// @dev owner1, owner2 Admins of this contract.\n    address public owner1;\n    address public owner2;\n\n    /// @dev paused Admin only. Set to `true` to stop token minting and transfers.\n    bool public paused = false;\n\n    /// @dev mintFee Admin only. Set minting fee; default fee is below (in wei).\n    uint256 public mintFee = 100000000000000;\n\n    /// @dev DeployedRegistry The Microsponsors Registry Contract that verifies participants.\n    ///      Admin can update the contract address here to upgrade Registry.\n    DeployedRegistry public registry;\n\n    /// @title _tokenIds All Token IDs minted, incremented starting at 1\n    Counters.Counter _tokenIds;\n\n    /// @dev _tokenOwner mapping from Token ID to Token Owner\n    mapping (uint256 => address) private _tokenOwner;\n\n    /// @dev _ownedTokensCount mapping from Token Owner to # of owned tokens\n    mapping (address => Counters.Counter) private _ownedTokensCount;\n\n    /// @dev _mintedTokensCount mapping from Token Minter to # of minted tokens\n    mapping (address => Counters.Counter) private _mintedTokensCount;\n\n    /// @dev tokenToFederationId see notes on path to federation in Microsponsors Registry contract\n    mapping (uint256 => uint32) public tokenToFederationId;\n\n    /// @dev TimeSlot metadata struct for each token\n    ///      TimeSlots timestamps are stored as uint48:\n    ///      https://medium.com/@novablitz/storing-structs-is-costing-you-gas-774da988895e\n    struct TimeSlot {\n        address minter; // the address of the user who mint()'ed this time slot\n        string contentId; // the users' registered contentId\n        uint48 startTime; // min timestamp (when time slot begins)\n        uint48 endTime; // max timestamp (when time slot ends)\n        bool isSecondaryTradingEnabled; // if true, first buyer can trade to others\n    }\n\n    /// @dev _tokenToTimeSlot mapping from Token ID to TimeSlot struct\n    ///      Use tokenTimeSlot() public method to read\n    mapping(uint256 => TimeSlot) private _tokenToTimeSlot;\n\n    /// @dev ContentIdStruct The registered Content ID, verified by Registry contract\n    struct ContentIdStruct {\n        string contentId;\n    }\n    /// @dev _tokenMinterToContentIds Mapping from Token Minter to array of Content IDs\n    ///      that they have *ever* minted tokens for\n    mapping(address => ContentIdStruct[]) private _tokenMinterToContentIds;\n\n    /// @dev _tokenURIs Mapping from Token ID to Token URIs\n    mapping(uint256 => string) private _tokenURIs;\n\n    /// @dev _tokenApprovals Mapping from Token ID to Approved Address\n    mapping (uint256 => address) private _tokenApprovals;\n\n    /// @dev _operatorApprovals Mapping from Token Owner to Operator Approvals\n    mapping (address => mapping (address => bool)) private _operatorApprovals;\n\n    /*\n     *     bytes4(keccak256('balanceOf(address)')) == 0x70a08231\n     *     bytes4(keccak256('ownerOf(uint256)')) == 0x6352211e\n     *     bytes4(keccak256('approve(address,uint256)')) == 0x095ea7b3\n     *     bytes4(keccak256('getApproved(uint256)')) == 0x081812fc\n     *     bytes4(keccak256('setApprovalForAll(address,bool)')) == 0xa22cb465\n     *     bytes4(keccak256('isApprovedForAll(address,address)')) == 0xe985e9c5\n     *     bytes4(keccak256('transferFrom(address,address,uint256)')) == 0x23b872dd\n     *     bytes4(keccak256('safeTransferFrom(address,address,uint256)')) == 0x42842e0e\n     *     bytes4(keccak256('safeTransferFrom(address,address,uint256,bytes)')) == 0xb88d4fde\n     *\n     *     => 0x70a08231 ^ 0x6352211e ^ 0x095ea7b3 ^ 0x081812fc ^\n     *        0xa22cb465 ^ 0xe985e9c ^ 0x23b872dd ^ 0x42842e0e ^ 0xb88d4fde == 0x80ac58cd\n     */\n    bytes4 private constant _INTERFACE_ID_ERC721 = 0x80ac58cd;\n\n    // @dev Equals to `bytes4(keccak256(\"onERC721Received(address,address,uint256,bytes)\"))`\n    // which can be also obtained as `IERC721Receiver(0).onERC721Received.selector`\n    bytes4 private constant _ERC721_RECEIVED = 0x150b7a02;\n\n\n    constructor () public {\n\n        // Register the supported interfaces to conform to ERC721 via ERC165\n        _registerInterface(_INTERFACE_ID_ERC721);\n\n        // Set the contract owners to msg.sender by default\n        owner1 = _msgSender();\n        owner2 = _msgSender();\n\n    }\n\n\n    /**\n     * @dev Provides information about the current execution context, including the\n     * sender of the transaction and its data. While these are generally available\n     * via msg.sender and msg.data, they not should not be accessed in such a direct\n     * manner, since when dealing with GSN meta-transactions the account sending and\n     * paying for execution may not be the actual sender (as far as an application\n     * is concerned).\n     */\n\n    function _msgSender() internal view returns (address) {\n\n        return msg.sender;\n\n    }\n\n    function _msgData() internal view returns (bytes memory) {\n\n        this; // silence state mutability warning without generating bytecode -\n              // see https://github.com/ethereum/solidity/issues/2691\n        return msg.data;\n\n    }\n\n\n    /***  Owner (Administrator) functions  ***/\n\n\n    /**\n     * @dev Sets the contract's owner (administrator)\n     * Based on 0x's Ownable, but modified here\n     */\n    modifier onlyOwner() {\n        require(\n            (_msgSender() == owner1) || (_msgSender() == owner2),\n            \"ONLY_CONTRACT_OWNER\"\n        );\n        _;\n    }\n\n    /**\n     * @dev Transfer owner (admin) functions to another address\n     * @param newOwner Address of new owner/ admin of contract\n     */\n    function transferOwnership1(address newOwner)\n        public\n        onlyOwner\n    {\n        if (newOwner != address(0)) {\n            owner1 = newOwner;\n        }\n    }\n\n\n    function transferOwnership2(address newOwner)\n        public\n        onlyOwner\n    {\n        if (newOwner != address(0)) {\n            owner2 = newOwner;\n        }\n    }\n\n    /**\n     * @dev Update contract address for Microsponsors Registry contract\n     * @param newAddress where the Registry contract lives\n     */\n    function updateRegistryAddress(address newAddress)\n        public\n        onlyOwner\n    {\n        registry = DeployedRegistry(newAddress);\n    }\n\n    /**\n     * @dev Update the fee (in wei) charged for minting a single token\n     */\n    function updateMintFee(uint256 val)\n        public\n        onlyOwner\n    {\n\n        mintFee = val;\n\n    }\n\n    /// @dev Pausable (adapted from OpenZeppelin via Cryptokitties)\n    /// @dev Modifier to allow actions only when the contract IS NOT paused\n    modifier whenNotPaused() {\n        require(!paused);\n        _;\n    }\n\n    /// @dev Modifier to allow actions only when the contract IS paused\n    modifier whenPaused {\n        require(paused);\n        _;\n    }\n\n    /// @dev Called by contract owner to pause minting and transfers.\n    function pause() public onlyOwner whenNotPaused {\n        paused = true;\n    }\n\n    /// @dev Called by contract owner to unpause minting and transfers.\n    function unpause() public onlyOwner whenPaused {\n        paused = false;\n    }\n\n    /// @dev Admin withdraws entire balance from contract.\n    function withdrawBalance() external onlyOwner {\n\n        // Ref: https://diligence.consensys.net/blog/2019/09/stop-using-soliditys-transfer-now/\n        uint balance = address(this).balance;\n        (bool success, ) = msg.sender.call.value(balance)(\"\");\n        require(success, \"WITHDRAW_FAILED\");\n\n    }\n\n\n    /***  Minting tokens  ***/\n\n\n    /**\n     * @dev Function to mint tokens.\n     * @return tokenId\n     */\n    function mint(\n        string memory contentId,\n        uint48 startTime,\n        uint48 endTime,\n        bool isSecondaryTradingEnabled,\n        uint32 federationId\n    )\n        public\n        payable\n        whenNotPaused\n        returns (uint256)\n    {\n\n        require(msg.value >= mintFee);\n\n        require(federationId > 0, \"INVALID_FEDERATION_ID\");\n\n        require(\n            registry.isMinter(federationId, _msgSender()),\n            \"CALLER_NOT_AUTHORIZED_FOR_MINTER_ROLE\"\n        );\n\n        require(\n            _isValidTimeSlot(contentId, startTime, endTime, federationId),\n            \"INVALID_TIME_SLOT\"\n        );\n\n        uint256 tokenId = _mint(_msgSender());\n        _setTokenTimeSlot(tokenId, contentId, startTime, endTime, isSecondaryTradingEnabled);\n        tokenToFederationId[tokenId] = federationId;\n\n        return tokenId;\n\n    }\n\n    /**\n     * @dev Function to mint tokens.\n     * @param tokenURI The token URI of the minted token.\n     * @return tokenId\n     */\n    function mintWithTokenURI(\n        string memory contentId,\n        uint48 startTime,\n        uint48 endTime,\n        bool isSecondaryTradingEnabled,\n        uint32 federationId,\n        string memory tokenURI\n    )\n        public\n        payable\n        whenNotPaused\n        returns (uint256)\n    {\n\n        require(msg.value >= mintFee);\n\n        require(federationId > 0, \"INVALID_FEDERATION_ID\");\n\n        require(\n            registry.isMinter(federationId, _msgSender()),\n            \"CALLER_NOT_AUTHORIZED_FOR_MINTER_ROLE\"\n        );\n\n        require(\n            _isValidTimeSlot(contentId, startTime, endTime, federationId),\n            \"INVALID_TIME_SLOT\"\n        );\n\n        uint256 tokenId = _mint(_msgSender());\n        _setTokenTimeSlot(tokenId, contentId, startTime, endTime, isSecondaryTradingEnabled);\n        _setTokenURI(tokenId, tokenURI);\n        tokenToFederationId[tokenId] = federationId;\n\n        return tokenId;\n\n    }\n\n    /**\n     * @dev Function to safely mint tokens.\n     * @return tokenId\n     */\n    function safeMint(\n        string memory contentId,\n        uint48 startTime,\n        uint48 endTime,\n        bool isSecondaryTradingEnabled,\n        uint32 federationId\n    )\n        public\n        payable\n        whenNotPaused\n        returns (uint256)\n    {\n\n        require(msg.value >= mintFee);\n\n        require(federationId > 0, \"INVALID_FEDERATION_ID\");\n\n        require(\n            registry.isMinter(federationId, _msgSender()),\n            \"CALLER_NOT_AUTHORIZED_FOR_MINTER_ROLE\"\n        );\n\n        require(\n            _isValidTimeSlot(contentId, startTime, endTime, federationId),\n            \"INVALID_TIME_SLOT\"\n        );\n\n        uint256 tokenId = _safeMint(_msgSender());\n        _setTokenTimeSlot(tokenId, contentId, startTime, endTime, isSecondaryTradingEnabled);\n        tokenToFederationId[tokenId] = federationId;\n\n        return tokenId;\n\n    }\n\n    /**\n     * @dev Function to safely mint tokens.\n     * @param data bytes data to send along with a safe transfer check.\n     * @return tokenId\n     */\n    function safeMint(\n        string memory contentId,\n        uint48 startTime,\n        uint48 endTime,\n        bool isSecondaryTradingEnabled,\n        uint32 federationId,\n        bytes memory data\n    )\n        public\n        payable\n        whenNotPaused\n        returns (uint256)\n    {\n\n        require(msg.value >= mintFee);\n\n        require(federationId > 0, \"INVALID_FEDERATION_ID\");\n\n        require(\n            registry.isMinter(federationId, _msgSender()),\n            \"CALLER_NOT_AUTHORIZED_FOR_MINTER_ROLE\"\n        );\n\n        require(\n            _isValidTimeSlot(contentId, startTime, endTime, federationId),\n            \"INVALID_TIME_SLOT\"\n        );\n\n        uint256 tokenId = _safeMint(_msgSender(), data);\n        _setTokenTimeSlot(tokenId, contentId, startTime, endTime, isSecondaryTradingEnabled);\n        tokenToFederationId[tokenId] = federationId;\n\n        return tokenId;\n\n    }\n\n    /**\n     * @param tokenURI The token URI of the minted token.\n     * @return tokenId\n     */\n    function safeMintWithTokenURI(\n        string memory contentId,\n        uint48 startTime,\n        uint48 endTime,\n        bool isSecondaryTradingEnabled,\n        uint32 federationId,\n        string memory tokenURI\n    )\n        public\n        payable\n        whenNotPaused\n        returns (uint256)\n    {\n\n        require(msg.value >= mintFee);\n\n        require(federationId > 0, \"INVALID_FEDERATION_ID\");\n\n        require(\n            registry.isMinter(federationId, _msgSender()),\n            \"CALLER_NOT_AUTHORIZED_FOR_MINTER_ROLE\"\n        );\n\n        require(\n            _isValidTimeSlot(contentId, startTime, endTime, federationId),\n            \"INVALID_TIME_SLOT\"\n        );\n\n        uint256 tokenId = _safeMint(_msgSender());\n        _setTokenTimeSlot(tokenId, contentId, startTime, endTime, isSecondaryTradingEnabled);\n        _setTokenURI(tokenId, tokenURI);\n        tokenToFederationId[tokenId] = federationId;\n\n        return tokenId;\n\n    }\n\n    /**\n     * @dev Internal function to safely mint a new token.\n     * Reverts if the given token ID already exists.\n     * If the target address is a contract, it must implement `onERC721Received`,\n     * which is called upon a safe transfer, and return the magic value\n     * `bytes4(keccak256(\"onERC721Received(address,address,uint256,bytes)\"))`; otherwise,\n     * the transfer is reverted.\n     * @param to The address that will own the minted token\n     * @return tokenId\n     */\n    function _safeMint(address to) internal returns (uint256) {\n\n        uint256 tokenId = _safeMint(to, \"\");\n        return tokenId;\n\n    }\n\n    /**\n     * @dev Internal function to safely mint a new token.\n     * Reverts if the given token ID already exists.\n     * If the target address is a contract, it must implement `onERC721Received`,\n     * which is called upon a safe transfer, and return the magic value\n     * `bytes4(keccak256(\"onERC721Received(address,address,uint256,bytes)\"))`; otherwise,\n     * the transfer is reverted.\n     * @param to The address that will own the minted token\n     * @param data bytes data to send along with a safe transfer check\n     * @return tokenId\n     */\n    function _safeMint(address to, bytes memory data) internal returns (uint256) {\n\n        uint256 tokenId = _mint(to);\n\n        require(\n            _checkOnERC721Received(address(0), to, tokenId, data),\n            \"TRANSFER_TO_NON_ERC721RECEIVER_IMPLEMENTER\"\n        );\n\n        return tokenId;\n\n    }\n\n    /**\n     * @dev Internal function to mint a new token.\n     * Reverts if the given token ID already exists.\n     * @param to The address that will own the minted token\n     */\n    function _mint(address to) internal returns (uint256) {\n\n        require(to != address(0), \"MINT_TO_ZERO_ADDRESS\");\n\n        _tokenIds.increment();\n        uint256 tokenId = _tokenIds.current();\n\n        _tokenOwner[tokenId] = to;\n        _ownedTokensCount[to].increment();\n        _mintedTokensCount[to].increment();\n\n        emit Transfer(address(0), to, tokenId);\n\n        return tokenId;\n\n    }\n\n\n    /***  Token URIs  ***/\n\n\n    /**\n     * @dev Internal function to set the token URI for a given token.\n     * Reverts if the token ID does not exist.\n     * @param tokenId uint256 ID of the token to set its URI\n     * @param uri string URI to assign\n     */\n    function _setTokenURI(uint256 tokenId, string memory uri) internal {\n\n        require(\n            _exists(tokenId),\n            \"NON_EXISTENT_TOKEN\"\n        );\n\n        _tokenURIs[tokenId] = uri;\n\n    }\n\n    /**\n     * Throws if the token ID does not exist. May return an empty string.\n     * @param tokenId uint256 ID of the token to query\n     * @return URI for a given token ID.\n     */\n    function tokenURI(uint256 tokenId) external view returns (string memory) {\n\n        require(\n            _exists(tokenId),\n            \"NON_EXISTENT_TOKEN\"\n        );\n\n        return _tokenURIs[tokenId];\n\n    }\n\n\n    /***  Token TimeSlot data and metadata  ***/\n\n\n    function _isValidTimeSlot(\n        string memory contentId,\n        uint48 startTime,\n        uint48 endTime,\n        uint32 federationId\n    ) internal view returns (bool) {\n\n        require(\n            registry.isContentIdRegisteredToCaller(federationId, contentId),\n            \"CONTENT_ID_NOT_REGISTERED_TO_CALLER\"\n        );\n\n        require(\n            endTime > startTime,\n            \"START_TIME_AFTER_END_TIME\"\n        );\n\n        return true;\n\n    }\n\n\n    function _isContentIdMappedToMinter(\n        string memory contentId\n    )  internal view returns (bool) {\n\n        ContentIdStruct[] memory a = _tokenMinterToContentIds[msg.sender];\n        bool foundMatch = false;\n        for (uint i = 0; i < a.length; i++) {\n            if (stringsMatch(contentId, a[i].contentId)) {\n                foundMatch = true;\n            }\n        }\n\n        return foundMatch;\n    }\n\n\n    function _setTokenTimeSlot(\n        uint256 tokenId,\n        string memory contentId,\n        uint48 startTime,\n        uint48 endTime,\n        bool isSecondaryTradingEnabled\n    ) internal {\n\n        require(\n            _exists(tokenId),\n            \"NON_EXISTENT_TOKEN\"\n        );\n\n        TimeSlot memory _timeSlot = TimeSlot({\n            minter: address(_msgSender()),\n            contentId: string(contentId),\n            startTime: uint48(startTime),\n            endTime: uint48(endTime),\n            isSecondaryTradingEnabled: bool(isSecondaryTradingEnabled)\n        });\n\n        _tokenToTimeSlot[tokenId] = _timeSlot;\n\n        if (!_isContentIdMappedToMinter(contentId)) {\n            _tokenMinterToContentIds[_msgSender()].push( ContentIdStruct(contentId) );\n        }\n\n    }\n\n\n    function tokenTimeSlot(uint256 tokenId) public view returns (\n        address minter,\n        address owner,\n        string memory contentId,\n        uint48 startTime,\n        uint48 endTime,\n        bool isSecondaryTradingEnabled,\n        uint32 federationId\n    ) {\n\n        require(\n            _exists(tokenId),\n            \"NON_EXISTENT_TOKEN\"\n        );\n\n        TimeSlot memory _timeSlot = _tokenToTimeSlot[tokenId];\n        uint32 _federationId = tokenToFederationId[tokenId];\n\n        return (\n            _timeSlot.minter,\n            ownerOf(tokenId),\n            _timeSlot.contentId,\n            _timeSlot.startTime,\n            _timeSlot.endTime,\n            _timeSlot.isSecondaryTradingEnabled,\n            _federationId\n        );\n\n    }\n\n\n    /***  Token minter queries  ***/\n\n\n    /// @dev Look up all Content IDs a Minter has tokenized TimeSlots for.\n    ///      We're not getting this from the Registry because we want to keep\n    ///      a separate record here of all Content ID's the acct has *ever*\n    ///      minted tokens for. The registry is for keeping track of their\n    ///      current (not necessarily past) Content ID registrations.\n    function tokenMinterContentIds(address minter) external view returns (string[] memory) {\n\n        ContentIdStruct[] memory m = _tokenMinterToContentIds[minter];\n        string[] memory r = new string[](m.length);\n\n        for (uint i = 0; i < m.length; i++) {\n            r[i] = m[i].contentId;\n        }\n\n        return r;\n\n    }\n\n\n    /**\n     * Return all the Token IDs minted by a given account.\n     * @dev This method MUST NEVER be called by smart contract code. First, it's fairly\n     *  expensive (it walks the entire _tokenIds array looking for tokens belonging to minter),\n     *  but it also returns a dynamic array, which is only supported for web3 calls, and\n     *  not contract-to-contract calls (at this time).\n     */\n    function tokensMintedBy(address minter) external view returns (uint256[] memory) {\n\n        require(\n            minter != address(0),\n            \"CANNOT_QUERY_ZERO_ADDRESS\"\n        );\n\n        uint256 tokenCount = _mintedTokensCount[minter].current();\n        if (tokenCount == 0) {\n            // Return an empty array\n            return new uint256[](0);\n        } else {\n            uint256[] memory result = new uint256[](tokenCount);\n            uint256 totalTokens = totalSupply();\n            uint256 resultIndex = 0;\n\n            // All Tokens have IDs starting at 1 and increase\n            // sequentially up to the total supply count.\n            uint256 tokenId;\n\n            for (tokenId = 1; tokenId <= totalTokens; tokenId++) {\n                if (_tokenToTimeSlot[tokenId].minter == minter) {\n                    result[resultIndex] = tokenId;\n                    resultIndex++;\n                }\n            }\n\n            return result;\n        }\n\n    }\n\n\n    /***  Token balance and ownership queries  ***/\n\n\n    /**\n     * @dev Gets the total number of tokens ever minted.\n     */\n    function totalSupply() public view returns (uint256) {\n\n        return _tokenIds.current();\n\n    }\n\n    /**\n     * @dev Gets the balance of the specified address.\n     * @param tokenOwner address to query the balance of\n     * @return uint256 representing the amount owned by the passed address\n     */\n    function balanceOf(address tokenOwner) public view returns (uint256) {\n\n        require(\n            tokenOwner != address(0),\n            \"CANNOT_QUERY_ZERO_ADDRESS\"\n        );\n\n        return _ownedTokensCount[tokenOwner].current();\n\n    }\n\n    /**\n     * @dev Gets the owner of the specified token ID.\n     * @param tokenId uint256 ID of the token to query the owner of\n     * @return address currently marked as the owner of the given token ID\n     */\n    function ownerOf(uint256 tokenId) public view returns (address) {\n\n        address tokenOwner = _tokenOwner[tokenId];\n\n        return tokenOwner;\n\n    }\n\n    /**\n     * @param tokenOwner The owner whose tokens we are interested in.\n     * @dev This method MUST NEVER be called by smart contract code. First, it's fairly\n     *  expensive (it walks the entire _tokenIds array looking for tokens belonging to owner),\n     *  but it also returns a dynamic array, which is only supported for web3 calls, and\n     *  not contract-to-contract calls (at this time).\n    */\n    function tokensOfOwner(address tokenOwner) external view returns(uint256[] memory) {\n        uint256 tokenCount = balanceOf(tokenOwner);\n        if (tokenCount == 0) {\n            // Return an empty array\n            return new uint256[](0);\n        } else {\n            uint256[] memory result = new uint256[](tokenCount);\n            uint256 totalTokens = totalSupply();\n            uint256 resultIndex = 0;\n\n            // All Tokens have IDs starting at 1 and increase\n            // sequentially up to the total count.\n            uint256 tokenId;\n\n            for (tokenId = 1; tokenId <= totalTokens; tokenId++) {\n                if (_tokenOwner[tokenId] == tokenOwner) {\n                    result[resultIndex] = tokenId;\n                    resultIndex++;\n                }\n            }\n\n            return result;\n        }\n    }\n\n\n    /***  Approvals & Transfers  ***/\n\n\n    /**\n     * @dev Approves another address to transfer the given token ID\n     * The zero address indicates there is no approved address.\n     * There can only be one approved address per token at a given time.\n     * Can only be called by the token owner or an approved operator.\n     * @param to address to be approved for the given token ID\n     * @param tokenId uint256 ID of the token to be approved\n     */\n    function approve(address to, uint256 tokenId)\n        public\n        whenNotPaused\n    {\n\n        address tokenOwner = ownerOf(tokenId);\n\n        require(\n            to != tokenOwner,\n            \"APPROVAL_IS_REDUNDANT\"\n        );\n\n        require(\n            _msgSender() == tokenOwner || isApprovedForAll(tokenOwner, _msgSender()),\n            \"CALLER_NOT_AUTHORIZED\"\n        );\n\n        _tokenApprovals[tokenId] = to;\n        emit Approval(tokenOwner, to, tokenId);\n\n    }\n\n    /**\n     * @dev Gets the approved address for a token ID, or zero if no address set\n     * Reverts if the token ID does not exist.\n     * @param tokenId uint256 ID of the token to query the approval of\n     * @return address currently approved for the given token ID\n     */\n    function getApproved(uint256 tokenId) public view returns (address) {\n\n        require(\n            _exists(tokenId),\n            \"NON_EXISTENT_TOKEN\"\n        );\n\n        return _tokenApprovals[tokenId];\n\n    }\n\n    /**\n     * @dev Sets or unsets the approval of a given operator\n     * An operator is allowed to transfer all tokens of the sender on their behalf.\n     * @param to operator address to set the approval\n     * @param approved representing the status of the approval to be set\n     */\n    function setApprovalForAll(address to, bool approved)\n        public\n        whenNotPaused\n    {\n\n        require(to != _msgSender(), \"CALLER_CANNOT_APPROVE_SELF\");\n\n        _operatorApprovals[_msgSender()][to] = approved;\n        emit ApprovalForAll(_msgSender(), to, approved);\n\n    }\n\n    /**\n     * @dev Tells whether an operator is approved by a given token owner.\n     * @param tokenOwner token owner address which you want to query the approval of\n     * @param operator operator address which you want to query the approval of\n     * @return bool whether the given operator is approved by the token owner\n     */\n    function isApprovedForAll(address tokenOwner, address operator)\n        public\n        view\n        returns (bool)\n    {\n\n        return _operatorApprovals[tokenOwner][operator];\n\n    }\n\n    /**\n     * @dev Transfers the ownership of a given token ID to another address.\n     * Usage of this method is discouraged, use {safeTransferFrom} whenever possible.\n     * Requires the msg.sender to be the owner, approved, or operator.\n     * @param from current owner of the token\n     * @param to address to receive the ownership of the given token ID\n     * @param tokenId uint256 ID of the token to be transferred\n     */\n    function transferFrom(address from, address to, uint256 tokenId)\n        public\n        whenNotPaused\n    {\n\n        require(\n            _isApprovedOrOwner(_msgSender(), tokenId),\n            \"UNAUTHORIZED_TRANSFER\"\n        );\n\n        address minter = _tokenToTimeSlot[tokenId].minter;\n        address owner = ownerOf(tokenId);\n        uint32 federationId = tokenToFederationId[tokenId];\n\n        if (_tokenToTimeSlot[tokenId].isSecondaryTradingEnabled == false) {\n            require(\n                isSecondaryTrade(from, to, tokenId) == false,\n                \"SECONDARY_TRADING_DISABLED\"\n            );\n        }\n\n        require(\n            registry.isAuthorizedTransferFrom(federationId, from, to, tokenId, minter, owner),\n            \"UNAUTHORIZED_TRANSFER\"\n        );\n\n        _transferFrom(from, to, tokenId);\n\n    }\n\n    /**\n     * @dev Safely transfers the ownership of a given token ID to another address\n     * If the target address is a contract, it must implement {IERC721Receiver-onERC721Received},\n     * which is called upon a safe transfer, and return the magic value\n     * `bytes4(keccak256(\"onERC721Received(address,address,uint256,bytes)\"))`; otherwise,\n     * the transfer is reverted.\n     * Requires the msg.sender to be the owner, approved, or operator\n     * @param from current owner of the token\n     * @param to address to receive the ownership of the given token ID\n     * @param tokenId uint256 ID of the token to be transferred\n     */\n    function safeTransferFrom(address from, address to, uint256 tokenId) public {\n\n        safeTransferFrom(from, to, tokenId, \"\");\n\n    }\n\n    /**\n     * @dev Safely transfers the ownership of a given token ID to another address\n     * If the target address is a contract, it must implement {IERC721Receiver-onERC721Received},\n     * which is called upon a safe transfer, and return the magic value\n     * `bytes4(keccak256(\"onERC721Received(address,address,uint256,bytes)\"))`; otherwise,\n     * the transfer is reverted.\n     * Requires the _msgSender() to be the owner, approved, or operator\n     * @param from current owner of the token\n     * @param to address to receive the ownership of the given token ID\n     * @param tokenId uint256 ID of the token to be transferred\n     * @param data bytes data to send along with a safe transfer check\n     */\n    function safeTransferFrom(address from, address to, uint256 tokenId, bytes memory data)\n        public\n        whenNotPaused\n    {\n\n        require(\n            _isApprovedOrOwner(_msgSender(), tokenId),\n            \"UNAUTHORIZED_TRANSFER\"\n        );\n\n        address minter = _tokenToTimeSlot[tokenId].minter;\n        address owner = ownerOf(tokenId);\n        uint32 federationId = tokenToFederationId[tokenId];\n\n        if (_tokenToTimeSlot[tokenId].isSecondaryTradingEnabled == false) {\n            require(\n                isSecondaryTrade(from, to, tokenId) == false,\n                \"SECONDARY_TRADING_DISABLED\"\n            );\n        }\n\n        require(\n            registry.isAuthorizedTransferFrom(federationId, from, to, tokenId, minter, owner),\n            \"UNAUTHORIZED_TRANSFER\"\n        );\n\n        _safeTransferFrom(from, to, tokenId, data);\n\n    }\n\n    /**\n     * @dev Safely transfers the ownership of a given token ID to another address\n     * If the target address is a contract, it must implement `onERC721Received`,\n     * which is called upon a safe transfer, and return the magic value\n     * `bytes4(keccak256(\"onERC721Received(address,address,uint256,bytes)\"))`; otherwise,\n     * the transfer is reverted.\n     * Requires the msg.sender to be the owner, approved, or operator\n     * @param from current owner of the token\n     * @param to address to receive the ownership of the given token ID\n     * @param tokenId uint256 ID of the token to be transferred\n     * @param data bytes data to send along with a safe transfer check\n     */\n    function _safeTransferFrom(address from, address to, uint256 tokenId, bytes memory data)\n        internal\n    {\n\n        _transferFrom(from, to, tokenId);\n\n        require(\n            _checkOnERC721Received(from, to, tokenId, data),\n            \"TRANSFER_TO_NON_ERC721RECEIVER_IMPLEMENTER\"\n        );\n\n    }\n\n    /**\n     * @dev Returns whether the specified token exists.\n     * @param tokenId uint256 ID of the token to query the existence of\n     * @return bool whether the token exists\n     */\n    function _exists(uint256 tokenId) internal view returns (bool) {\n\n        address tokenOwner = _tokenOwner[tokenId];\n\n        return tokenOwner != address(0);\n\n    }\n\n    /**\n     * @dev Returns whether the given spender can transfer a given token ID.\n     * @param spender address of the spender to query\n     * @param tokenId uint256 ID of the token to be transferred\n     * @return bool whether the msg.sender is approved for the given token ID,\n     * is an operator of the owner, or is the owner of the token\n     */\n    function _isApprovedOrOwner(address spender, uint256 tokenId)\n        internal\n        view\n        returns (bool)\n    {\n\n        require(\n            _exists(tokenId),\n            \"NON_EXISTENT_TOKEN\"\n        );\n\n        address tokenOwner = ownerOf(tokenId);\n\n        return (spender == tokenOwner || getApproved(tokenId) == spender || isApprovedForAll(tokenOwner, spender));\n\n    }\n\n    /**\n     * @dev Internal function to transfer ownership of a given token ID to another address.\n     *      As opposed to {transferFrom}, this imposes no restrictions on msg.sender\n     * @param from current owner of the token\n     * @param to address to receive the ownership of the given token ID\n     * @param tokenId uint256 ID of the token to be transferred\n     */\n    function _transferFrom(address from, address to, uint256 tokenId) internal {\n\n        require(\n            ownerOf(tokenId) == from,\n            \"UNAUTHORIZED_TRANSFER\"\n        );\n\n        require(\n            to != address(0),\n            \"TRANSFER_TO_ZERO_ADDRESS\"\n        );\n\n        _clearApproval(tokenId);\n\n        _ownedTokensCount[from].decrement();\n        _ownedTokensCount[to].increment();\n\n        _tokenOwner[tokenId] = to;\n\n        emit Transfer(from, to, tokenId);\n\n    }\n\n    /**\n     * @dev Internal function to invoke {IERC721Receiver-onERC721Received} on a target address.\n     * The call is not executed if the target address is not a contract.\n     *\n     * This function is deprecated.\n     * @param from address representing the previous owner of the given token ID\n     * @param to target address that will receive the tokens\n     * @param tokenId uint256 ID of the token to be transferred\n     * @param data bytes optional data to send along with the call\n     * @return bool whether the call correctly returned the expected magic value\n     */\n    function _checkOnERC721Received(address from, address to, uint256 tokenId, bytes memory data)\n        internal\n        returns (bool)\n    {\n\n        if (!to.isContract()) {\n            return true;\n        }\n\n        bytes4 retval = IERC721Receiver(to).onERC721Received(_msgSender(), from, tokenId, data);\n        return (retval == _ERC721_RECEIVED);\n\n    }\n\n    /**\n     * @dev Private function to clear current approval of a given token ID.\n     * @param tokenId uint256 ID of the token to be transferred\n     */\n    function _clearApproval(uint256 tokenId) private {\n\n        if (_tokenApprovals[tokenId] != address(0)) {\n            _tokenApprovals[tokenId] = address(0);\n        }\n\n    }\n\n\n    /***  Burn Tokens  ***/\n\n\n    // solhint-disable\n    /**\n     * @dev Customized for Microsponsors\n     *      https://github.com/OpenZeppelin/openzeppelin-contracts/blob/master/contracts/token/ERC721/ERC721Burnable.sol     * @dev Burns a specific ERC721 token.\n     * @param tokenId uint256 id of the ERC721 token to be burned\n     */\n     // solhint-enable\n    function burn(uint256 tokenId) public whenNotPaused {\n\n        address minter = _tokenToTimeSlot[tokenId].minter;\n        address tokenOwner = ownerOf(tokenId);\n        uint32 federationId = tokenToFederationId[tokenId];\n\n        if (tokenOwner == minter) {\n            require(\n                registry.isMinter(federationId, _msgSender()),\n                \"UNAUTHORIZED_BURN\"\n            );\n        }\n\n        require(\n            _isApprovedOrOwner(_msgSender(), tokenId),\n            \"UNAUTHORIZED_BURN\"\n        );\n\n        _burn(tokenId);\n\n    }\n\n\n    /**\n     * @dev Internal function to burn a specific token.\n     * Reverts if the token does not exist.\n     * Deprecated, use {_burn} instead.\n     * @param tokenOwner owner of the token to burn\n     * @param tokenId uint256 ID of the token being burned\n     */\n    function _burn(address tokenOwner, uint256 tokenId) internal {\n\n        require(\n            ownerOf(tokenId) == tokenOwner,\n            \"UNAUTHORIZED_BURN\"\n        );\n\n        _clearApproval(tokenId);\n\n        _ownedTokensCount[tokenOwner].decrement();\n        _tokenOwner[tokenId] = address(0);\n\n        // Clear token URIs (if any)\n        if (bytes(_tokenURIs[tokenId]).length != 0) {\n            delete _tokenURIs[tokenId];\n        }\n\n        // Clear time slot data\n        delete _tokenToTimeSlot[tokenId];\n\n        emit Transfer(tokenOwner, address(0), tokenId);\n\n    }\n\n    /**\n     * @dev Internal function to burn a specific token.\n     * Reverts if the token does not exist.\n     * @param tokenId uint256 ID of the token being burned\n     */\n    function _burn(uint256 tokenId) internal {\n\n        _burn(ownerOf(tokenId), tokenId);\n\n    }\n\n\n    /***  Helper fns  ***/\n\n    function stringsMatch (\n        string memory a,\n        string memory b\n    )\n        private\n        pure\n        returns (bool)\n    {\n        return (keccak256(abi.encodePacked((a))) == keccak256(abi.encodePacked((b))) );\n    }\n\n    function isSecondaryTrade (\n        address from,\n        address to,\n        uint256 tokenId\n    )\n        internal\n        view\n        returns (bool)\n    {\n\n        address minter = _tokenToTimeSlot[tokenId].minter;\n\n        if (from == minter || to == minter) {\n            return false;\n        } else {\n            return true;\n        }\n\n    }\n\n}\n",
  "sourcePath": "/Users/lauren/github/erc-721/contracts/ERC721.sol",
  "compiler": {
    "name": "solc",
    "version": "0.5.11+commit.c082d0b4.Emscripten.clang"
  },
  "schemaVersion": "3.1.0",
  "updatedAt": "2021-03-03T00:00:40.704Z",
  "devdoc": {
    "details": "see https://eips.ethereum.org/EIPS/eip-721",
    "methods": {
      "approve(address,uint256)": {
        "details": "Approves another address to transfer the given token ID The zero address indicates there is no approved address. There can only be one approved address per token at a given time. Can only be called by the token owner or an approved operator.",
        "params": {
          "to": "address to be approved for the given token ID",
          "tokenId": "uint256 ID of the token to be approved"
        }
      },
      "balanceOf(address)": {
        "details": "Gets the balance of the specified address.",
        "params": {
          "tokenOwner": "address to query the balance of"
        },
        "return": "uint256 representing the amount owned by the passed address"
      },
      "burn(uint256)": {
        "details": "Customized for MicrosponsorsBurns a specific ERC721 token.",
        "params": {
          "tokenId": "uint256 id of the ERC721 token to be burned"
        }
      },
      "getApproved(uint256)": {
        "details": "Gets the approved address for a token ID, or zero if no address set Reverts if the token ID does not exist.",
        "params": {
          "tokenId": "uint256 ID of the token to query the approval of"
        },
        "return": "address currently approved for the given token ID"
      },
      "isApprovedForAll(address,address)": {
        "details": "Tells whether an operator is approved by a given token owner.",
        "params": {
          "operator": "operator address which you want to query the approval of",
          "tokenOwner": "token owner address which you want to query the approval of"
        },
        "return": "bool whether the given operator is approved by the token owner"
      },
      "mint(string,uint48,uint48,bool,uint32)": {
        "details": "Function to mint tokens.",
        "return": "tokenId"
      },
      "mintWithTokenURI(string,uint48,uint48,bool,uint32,string)": {
        "details": "Function to mint tokens.",
        "params": {
          "tokenURI": "The token URI of the minted token."
        },
        "return": "tokenId"
      },
      "ownerOf(uint256)": {
        "details": "Gets the owner of the specified token ID.",
        "params": {
          "tokenId": "uint256 ID of the token to query the owner of"
        },
        "return": "address currently marked as the owner of the given token ID"
      },
      "pause()": {
        "details": "Called by contract owner to pause minting and transfers."
      },
      "safeMint(string,uint48,uint48,bool,uint32)": {
        "details": "Function to safely mint tokens.",
        "return": "tokenId"
      },
      "safeMint(string,uint48,uint48,bool,uint32,bytes)": {
        "details": "Function to safely mint tokens.",
        "params": {
          "data": "bytes data to send along with a safe transfer check."
        },
        "return": "tokenId"
      },
      "safeMintWithTokenURI(string,uint48,uint48,bool,uint32,string)": {
        "params": {
          "tokenURI": "The token URI of the minted token."
        },
        "return": "tokenId"
      },
      "safeTransferFrom(address,address,uint256)": {
        "details": "Safely transfers the ownership of a given token ID to another address If the target address is a contract, it must implement {IERC721Receiver-onERC721Received}, which is called upon a safe transfer, and return the magic value `bytes4(keccak256(\"onERC721Received(address,address,uint256,bytes)\"))`; otherwise, the transfer is reverted. Requires the msg.sender to be the owner, approved, or operator",
        "params": {
          "from": "current owner of the token",
          "to": "address to receive the ownership of the given token ID",
          "tokenId": "uint256 ID of the token to be transferred"
        }
      },
      "safeTransferFrom(address,address,uint256,bytes)": {
        "details": "Safely transfers the ownership of a given token ID to another address If the target address is a contract, it must implement {IERC721Receiver-onERC721Received}, which is called upon a safe transfer, and return the magic value `bytes4(keccak256(\"onERC721Received(address,address,uint256,bytes)\"))`; otherwise, the transfer is reverted. Requires the _msgSender() to be the owner, approved, or operator",
        "params": {
          "data": "bytes data to send along with a safe transfer check",
          "from": "current owner of the token",
          "to": "address to receive the ownership of the given token ID",
          "tokenId": "uint256 ID of the token to be transferred"
        }
      },
      "setApprovalForAll(address,bool)": {
        "details": "Sets or unsets the approval of a given operator An operator is allowed to transfer all tokens of the sender on their behalf.",
        "params": {
          "approved": "representing the status of the approval to be set",
          "to": "operator address to set the approval"
        }
      },
      "supportsInterface(bytes4)": {
        "details": "See {IERC165-supportsInterface}.     * Time complexity O(1), guaranteed to always use less than 30 000 gas."
      },
      "tokenMinterContentIds(address)": {
        "details": "Look up all Content IDs a Minter has tokenized TimeSlots for.      We're not getting this from the Registry because we want to keep      a separate record here of all Content ID's the acct has *ever*      minted tokens for. The registry is for keeping track of their      current (not necessarily past) Content ID registrations."
      },
      "tokenURI(uint256)": {
        "params": {
          "tokenId": "uint256 ID of the token to query"
        },
        "return": "URI for a given token ID."
      },
      "tokensMintedBy(address)": {
        "details": "This method MUST NEVER be called by smart contract code. First, it's fairly expensive (it walks the entire _tokenIds array looking for tokens belonging to minter), but it also returns a dynamic array, which is only supported for web3 calls, and not contract-to-contract calls (at this time)."
      },
      "tokensOfOwner(address)": {
        "details": "This method MUST NEVER be called by smart contract code. First, it's fairly expensive (it walks the entire _tokenIds array looking for tokens belonging to owner), but it also returns a dynamic array, which is only supported for web3 calls, and not contract-to-contract calls (at this time).",
        "params": {
          "tokenOwner": "The owner whose tokens we are interested in."
        }
      },
      "totalSupply()": {
        "details": "Gets the total number of tokens ever minted."
      },
      "transferFrom(address,address,uint256)": {
        "details": "Transfers the ownership of a given token ID to another address. Usage of this method is discouraged, use {safeTransferFrom} whenever possible. Requires the msg.sender to be the owner, approved, or operator.",
        "params": {
          "from": "current owner of the token",
          "to": "address to receive the ownership of the given token ID",
          "tokenId": "uint256 ID of the token to be transferred"
        }
      },
      "transferOwnership1(address)": {
        "details": "Transfer owner (admin) functions to another address",
        "params": {
          "newOwner": "Address of new owner/ admin of contract"
        }
      },
      "unpause()": {
        "details": "Called by contract owner to unpause minting and transfers."
      },
      "updateMintFee(uint256)": {
        "details": "Update the fee (in wei) charged for minting a single token"
      },
      "updateRegistryAddress(address)": {
        "details": "Update contract address for Microsponsors Registry contract",
        "params": {
          "newAddress": "where the Registry contract lives"
        }
      },
      "withdrawBalance()": {
        "details": "Admin withdraws entire balance from contract."
      }
    },
    "title": "ERC721 Non-Fungible Token Standard basic implementation"
  },
  "userdoc": {
    "methods": {
      "tokenURI(uint256)": {
        "notice": "Throws if the token ID does not exist. May return an empty string."
      },
      "tokensMintedBy(address)": {
        "notice": "Return all the Token IDs minted by a given account."
      }
    }
  }
}