{
  "contractName": "ERC721",
  "abi": [
    {
      "constant": true,
      "inputs": [
        {
          "internalType": "bytes4",
          "name": "interfaceId",
          "type": "bytes4"
        }
      ],
      "name": "supportsInterface",
      "outputs": [
        {
          "internalType": "bool",
          "name": "",
          "type": "bool"
        }
      ],
      "payable": false,
      "stateMutability": "view",
      "type": "function"
    },
    {
      "constant": true,
      "inputs": [],
      "name": "mintFee",
      "outputs": [
        {
          "internalType": "uint256",
          "name": "",
          "type": "uint256"
        }
      ],
      "payable": false,
      "stateMutability": "view",
      "type": "function"
    },
    {
      "constant": true,
      "inputs": [
        {
          "internalType": "uint256",
          "name": "",
          "type": "uint256"
        }
      ],
      "name": "tokenToFederationId",
      "outputs": [
        {
          "internalType": "uint32",
          "name": "",
          "type": "uint32"
        }
      ],
      "payable": false,
      "stateMutability": "view",
      "type": "function"
    },
    {
      "constant": true,
      "inputs": [],
      "name": "owner2",
      "outputs": [
        {
          "internalType": "address",
          "name": "",
          "type": "address"
        }
      ],
      "payable": false,
      "stateMutability": "view",
      "type": "function"
    },
    {
      "constant": true,
      "inputs": [],
      "name": "paused",
      "outputs": [
        {
          "internalType": "bool",
          "name": "",
          "type": "bool"
        }
      ],
      "payable": false,
      "stateMutability": "view",
      "type": "function"
    },
    {
      "constant": true,
      "inputs": [],
      "name": "owner1",
      "outputs": [
        {
          "internalType": "address",
          "name": "",
          "type": "address"
        }
      ],
      "payable": false,
      "stateMutability": "view",
      "type": "function"
    },
    {
      "constant": true,
      "inputs": [],
      "name": "registry",
      "outputs": [
        {
          "internalType": "contract DeployedRegistry",
          "name": "",
          "type": "address"
        }
      ],
      "payable": false,
      "stateMutability": "view",
      "type": "function"
    },
    {
      "inputs": [],
      "payable": false,
      "stateMutability": "nonpayable",
      "type": "constructor"
    },
    {
      "anonymous": false,
      "inputs": [
        {
          "indexed": true,
          "internalType": "address",
          "name": "from",
          "type": "address"
        },
        {
          "indexed": true,
          "internalType": "address",
          "name": "to",
          "type": "address"
        },
        {
          "indexed": true,
          "internalType": "uint256",
          "name": "tokenId",
          "type": "uint256"
        }
      ],
      "name": "Transfer",
      "type": "event"
    },
    {
      "anonymous": false,
      "inputs": [
        {
          "indexed": true,
          "internalType": "address",
          "name": "tokenOwner",
          "type": "address"
        },
        {
          "indexed": true,
          "internalType": "address",
          "name": "approved",
          "type": "address"
        },
        {
          "indexed": true,
          "internalType": "uint256",
          "name": "tokenId",
          "type": "uint256"
        }
      ],
      "name": "Approval",
      "type": "event"
    },
    {
      "anonymous": false,
      "inputs": [
        {
          "indexed": true,
          "internalType": "address",
          "name": "tokenOwner",
          "type": "address"
        },
        {
          "indexed": true,
          "internalType": "address",
          "name": "operator",
          "type": "address"
        },
        {
          "indexed": false,
          "internalType": "bool",
          "name": "approved",
          "type": "bool"
        }
      ],
      "name": "ApprovalForAll",
      "type": "event"
    },
    {
      "constant": false,
      "inputs": [
        {
          "internalType": "address",
          "name": "newOwner",
          "type": "address"
        }
      ],
      "name": "transferOwnership1",
      "outputs": [],
      "payable": false,
      "stateMutability": "nonpayable",
      "type": "function"
    },
    {
      "constant": false,
      "inputs": [
        {
          "internalType": "address",
          "name": "newOwner",
          "type": "address"
        }
      ],
      "name": "transferOwnership2",
      "outputs": [],
      "payable": false,
      "stateMutability": "nonpayable",
      "type": "function"
    },
    {
      "constant": false,
      "inputs": [
        {
          "internalType": "address",
          "name": "newAddress",
          "type": "address"
        }
      ],
      "name": "updateRegistryAddress",
      "outputs": [],
      "payable": false,
      "stateMutability": "nonpayable",
      "type": "function"
    },
    {
      "constant": false,
      "inputs": [
        {
          "internalType": "uint256",
          "name": "val",
          "type": "uint256"
        }
      ],
      "name": "updateMintFee",
      "outputs": [],
      "payable": false,
      "stateMutability": "nonpayable",
      "type": "function"
    },
    {
      "constant": false,
      "inputs": [],
      "name": "pause",
      "outputs": [],
      "payable": false,
      "stateMutability": "nonpayable",
      "type": "function"
    },
    {
      "constant": false,
      "inputs": [],
      "name": "unpause",
      "outputs": [],
      "payable": false,
      "stateMutability": "nonpayable",
      "type": "function"
    },
    {
      "constant": false,
      "inputs": [],
      "name": "withdrawBalance",
      "outputs": [],
      "payable": false,
      "stateMutability": "nonpayable",
      "type": "function"
    },
    {
      "constant": false,
      "inputs": [
        {
          "internalType": "string",
          "name": "contentId",
          "type": "string"
        },
        {
          "internalType": "string",
          "name": "propertyName",
          "type": "string"
        },
        {
          "internalType": "uint48",
          "name": "startTime",
          "type": "uint48"
        },
        {
          "internalType": "uint48",
          "name": "endTime",
          "type": "uint48"
        },
        {
          "internalType": "uint48",
          "name": "auctionEndTime",
          "type": "uint48"
        },
        {
          "internalType": "uint16",
          "name": "category",
          "type": "uint16"
        },
        {
          "internalType": "bool",
          "name": "isSecondaryTradingEnabled",
          "type": "bool"
        },
        {
          "internalType": "uint32",
          "name": "federationId",
          "type": "uint32"
        }
      ],
      "name": "mint",
      "outputs": [
        {
          "internalType": "uint256",
          "name": "",
          "type": "uint256"
        }
      ],
      "payable": true,
      "stateMutability": "payable",
      "type": "function"
    },
    {
      "constant": false,
      "inputs": [
        {
          "internalType": "string",
          "name": "contentId",
          "type": "string"
        },
        {
          "internalType": "string",
          "name": "propertyName",
          "type": "string"
        },
        {
          "internalType": "uint48",
          "name": "startTime",
          "type": "uint48"
        },
        {
          "internalType": "uint48",
          "name": "endTime",
          "type": "uint48"
        },
        {
          "internalType": "uint48",
          "name": "auctionEndTime",
          "type": "uint48"
        },
        {
          "internalType": "uint16",
          "name": "category",
          "type": "uint16"
        },
        {
          "internalType": "bool",
          "name": "isSecondaryTradingEnabled",
          "type": "bool"
        },
        {
          "internalType": "uint32",
          "name": "federationId",
          "type": "uint32"
        },
        {
          "internalType": "string",
          "name": "tokenURI",
          "type": "string"
        }
      ],
      "name": "mintWithTokenURI",
      "outputs": [
        {
          "internalType": "uint256",
          "name": "",
          "type": "uint256"
        }
      ],
      "payable": true,
      "stateMutability": "payable",
      "type": "function"
    },
    {
      "constant": false,
      "inputs": [
        {
          "internalType": "string",
          "name": "contentId",
          "type": "string"
        },
        {
          "internalType": "string",
          "name": "propertyName",
          "type": "string"
        },
        {
          "internalType": "uint48",
          "name": "startTime",
          "type": "uint48"
        },
        {
          "internalType": "uint48",
          "name": "endTime",
          "type": "uint48"
        },
        {
          "internalType": "uint48",
          "name": "auctionEndTime",
          "type": "uint48"
        },
        {
          "internalType": "uint16",
          "name": "category",
          "type": "uint16"
        },
        {
          "internalType": "bool",
          "name": "isSecondaryTradingEnabled",
          "type": "bool"
        },
        {
          "internalType": "uint32",
          "name": "federationId",
          "type": "uint32"
        },
        {
          "internalType": "bytes",
          "name": "data",
          "type": "bytes"
        }
      ],
      "name": "safeMint",
      "outputs": [
        {
          "internalType": "uint256",
          "name": "",
          "type": "uint256"
        }
      ],
      "payable": true,
      "stateMutability": "payable",
      "type": "function"
    },
    {
      "constant": false,
      "inputs": [
        {
          "internalType": "string",
          "name": "contentId",
          "type": "string"
        },
        {
          "internalType": "string",
          "name": "propertyName",
          "type": "string"
        },
        {
          "internalType": "uint48",
          "name": "startTime",
          "type": "uint48"
        },
        {
          "internalType": "uint48",
          "name": "endTime",
          "type": "uint48"
        },
        {
          "internalType": "uint48",
          "name": "auctionEndTime",
          "type": "uint48"
        },
        {
          "internalType": "uint16",
          "name": "category",
          "type": "uint16"
        },
        {
          "internalType": "bool",
          "name": "isSecondaryTradingEnabled",
          "type": "bool"
        },
        {
          "internalType": "uint32",
          "name": "federationId",
          "type": "uint32"
        }
      ],
      "name": "safeMint",
      "outputs": [
        {
          "internalType": "uint256",
          "name": "",
          "type": "uint256"
        }
      ],
      "payable": true,
      "stateMutability": "payable",
      "type": "function"
    },
    {
      "constant": false,
      "inputs": [
        {
          "internalType": "string",
          "name": "contentId",
          "type": "string"
        },
        {
          "internalType": "string",
          "name": "propertyName",
          "type": "string"
        },
        {
          "internalType": "uint48",
          "name": "startTime",
          "type": "uint48"
        },
        {
          "internalType": "uint48",
          "name": "endTime",
          "type": "uint48"
        },
        {
          "internalType": "uint48",
          "name": "auctionEndTime",
          "type": "uint48"
        },
        {
          "internalType": "uint16",
          "name": "category",
          "type": "uint16"
        },
        {
          "internalType": "bool",
          "name": "isSecondaryTradingEnabled",
          "type": "bool"
        },
        {
          "internalType": "uint32",
          "name": "federationId",
          "type": "uint32"
        },
        {
          "internalType": "string",
          "name": "tokenURI",
          "type": "string"
        }
      ],
      "name": "safeMintWithTokenURI",
      "outputs": [
        {
          "internalType": "uint256",
          "name": "",
          "type": "uint256"
        }
      ],
      "payable": true,
      "stateMutability": "payable",
      "type": "function"
    },
    {
      "constant": true,
      "inputs": [
        {
          "internalType": "uint256",
          "name": "tokenId",
          "type": "uint256"
        }
      ],
      "name": "tokenURI",
      "outputs": [
        {
          "internalType": "string",
          "name": "",
          "type": "string"
        }
      ],
      "payable": false,
      "stateMutability": "view",
      "type": "function"
    },
    {
      "constant": true,
      "inputs": [
        {
          "internalType": "uint256",
          "name": "tokenId",
          "type": "uint256"
        }
      ],
      "name": "tokenTimeSlot",
      "outputs": [
        {
          "internalType": "address",
          "name": "minter",
          "type": "address"
        },
        {
          "internalType": "address",
          "name": "owner",
          "type": "address"
        },
        {
          "internalType": "string",
          "name": "contentId",
          "type": "string"
        },
        {
          "internalType": "string",
          "name": "propertyName",
          "type": "string"
        },
        {
          "internalType": "uint48",
          "name": "startTime",
          "type": "uint48"
        },
        {
          "internalType": "uint48",
          "name": "endTime",
          "type": "uint48"
        },
        {
          "internalType": "uint48",
          "name": "auctionEndTime",
          "type": "uint48"
        },
        {
          "internalType": "uint16",
          "name": "category",
          "type": "uint16"
        },
        {
          "internalType": "bool",
          "name": "isSecondaryTradingEnabled",
          "type": "bool"
        },
        {
          "internalType": "uint32",
          "name": "federationId",
          "type": "uint32"
        }
      ],
      "payable": false,
      "stateMutability": "view",
      "type": "function"
    },
    {
      "constant": true,
      "inputs": [
        {
          "internalType": "address",
          "name": "minter",
          "type": "address"
        }
      ],
      "name": "tokenMinterContentIds",
      "outputs": [
        {
          "internalType": "string[]",
          "name": "",
          "type": "string[]"
        }
      ],
      "payable": false,
      "stateMutability": "view",
      "type": "function"
    },
    {
      "constant": true,
      "inputs": [
        {
          "internalType": "address",
          "name": "minter",
          "type": "address"
        },
        {
          "internalType": "string",
          "name": "contentId",
          "type": "string"
        }
      ],
      "name": "tokenMinterPropertyNames",
      "outputs": [
        {
          "internalType": "string[]",
          "name": "",
          "type": "string[]"
        }
      ],
      "payable": false,
      "stateMutability": "view",
      "type": "function"
    },
    {
      "constant": true,
      "inputs": [
        {
          "internalType": "address",
          "name": "minter",
          "type": "address"
        }
      ],
      "name": "tokensMintedBy",
      "outputs": [
        {
          "internalType": "uint256[]",
          "name": "",
          "type": "uint256[]"
        }
      ],
      "payable": false,
      "stateMutability": "view",
      "type": "function"
    },
    {
      "constant": true,
      "inputs": [],
      "name": "totalSupply",
      "outputs": [
        {
          "internalType": "uint256",
          "name": "",
          "type": "uint256"
        }
      ],
      "payable": false,
      "stateMutability": "view",
      "type": "function"
    },
    {
      "constant": true,
      "inputs": [
        {
          "internalType": "address",
          "name": "tokenOwner",
          "type": "address"
        }
      ],
      "name": "balanceOf",
      "outputs": [
        {
          "internalType": "uint256",
          "name": "",
          "type": "uint256"
        }
      ],
      "payable": false,
      "stateMutability": "view",
      "type": "function"
    },
    {
      "constant": true,
      "inputs": [
        {
          "internalType": "uint256",
          "name": "tokenId",
          "type": "uint256"
        }
      ],
      "name": "ownerOf",
      "outputs": [
        {
          "internalType": "address",
          "name": "",
          "type": "address"
        }
      ],
      "payable": false,
      "stateMutability": "view",
      "type": "function"
    },
    {
      "constant": true,
      "inputs": [
        {
          "internalType": "address",
          "name": "tokenOwner",
          "type": "address"
        }
      ],
      "name": "tokensOfOwner",
      "outputs": [
        {
          "internalType": "uint256[]",
          "name": "",
          "type": "uint256[]"
        }
      ],
      "payable": false,
      "stateMutability": "view",
      "type": "function"
    },
    {
      "constant": false,
      "inputs": [
        {
          "internalType": "address",
          "name": "to",
          "type": "address"
        },
        {
          "internalType": "uint256",
          "name": "tokenId",
          "type": "uint256"
        }
      ],
      "name": "approve",
      "outputs": [],
      "payable": false,
      "stateMutability": "nonpayable",
      "type": "function"
    },
    {
      "constant": true,
      "inputs": [
        {
          "internalType": "uint256",
          "name": "tokenId",
          "type": "uint256"
        }
      ],
      "name": "getApproved",
      "outputs": [
        {
          "internalType": "address",
          "name": "",
          "type": "address"
        }
      ],
      "payable": false,
      "stateMutability": "view",
      "type": "function"
    },
    {
      "constant": false,
      "inputs": [
        {
          "internalType": "address",
          "name": "to",
          "type": "address"
        },
        {
          "internalType": "bool",
          "name": "approved",
          "type": "bool"
        }
      ],
      "name": "setApprovalForAll",
      "outputs": [],
      "payable": false,
      "stateMutability": "nonpayable",
      "type": "function"
    },
    {
      "constant": true,
      "inputs": [
        {
          "internalType": "address",
          "name": "tokenOwner",
          "type": "address"
        },
        {
          "internalType": "address",
          "name": "operator",
          "type": "address"
        }
      ],
      "name": "isApprovedForAll",
      "outputs": [
        {
          "internalType": "bool",
          "name": "",
          "type": "bool"
        }
      ],
      "payable": false,
      "stateMutability": "view",
      "type": "function"
    },
    {
      "constant": false,
      "inputs": [
        {
          "internalType": "address",
          "name": "from",
          "type": "address"
        },
        {
          "internalType": "address",
          "name": "to",
          "type": "address"
        },
        {
          "internalType": "uint256",
          "name": "tokenId",
          "type": "uint256"
        }
      ],
      "name": "transferFrom",
      "outputs": [],
      "payable": false,
      "stateMutability": "nonpayable",
      "type": "function"
    },
    {
      "constant": false,
      "inputs": [
        {
          "internalType": "address",
          "name": "from",
          "type": "address"
        },
        {
          "internalType": "address",
          "name": "to",
          "type": "address"
        },
        {
          "internalType": "uint256",
          "name": "tokenId",
          "type": "uint256"
        },
        {
          "internalType": "bytes",
          "name": "data",
          "type": "bytes"
        }
      ],
      "name": "safeTransferFrom",
      "outputs": [],
      "payable": false,
      "stateMutability": "nonpayable",
      "type": "function"
    },
    {
      "constant": false,
      "inputs": [
        {
          "internalType": "address",
          "name": "from",
          "type": "address"
        },
        {
          "internalType": "address",
          "name": "to",
          "type": "address"
        },
        {
          "internalType": "uint256",
          "name": "tokenId",
          "type": "uint256"
        }
      ],
      "name": "safeTransferFrom",
      "outputs": [],
      "payable": false,
      "stateMutability": "nonpayable",
      "type": "function"
    },
    {
      "constant": false,
      "inputs": [
        {
          "internalType": "uint256",
          "name": "tokenId",
          "type": "uint256"
        }
      ],
      "name": "burn",
      "outputs": [],
      "payable": false,
      "stateMutability": "nonpayable",
      "type": "function"
    }
  ],
  "bytecode": "0x60806040526002805460ff60a01b19169055655af3107a40006003553480156200002857600080fd5b506200005d7f01ffc9a7000000000000000000000000000000000000000000000000000000006001600160e01b03620000f416565b620000917f80ac58cd000000000000000000000000000000000000000000000000000000006001600160e01b03620000f416565b620000a46001600160e01b036200019916565b600180546001600160a01b0319166001600160a01b0392909216919091179055620000ce62000199565b600280546001600160a01b0319166001600160a01b0392909216919091179055620001f9565b7fffffffff0000000000000000000000000000000000000000000000000000000080821614156200015c576040517f08c379a00000000000000000000000000000000000000000000000000000000081526004016200015390620001d8565b60405180910390fd5b7fffffffff00000000000000000000000000000000000000000000000000000000166000908152602081905260409020805460ff19166001179055565b3390565b6000620001ac601c83620001f0565b7f4552433136353a20696e76616c696420696e7465726661636520696400000000815260200192915050565b60208082528101620001ea816200019d565b92915050565b90815260200190565b613f4980620002096000396000f3fe60806040526004361061020f5760003560e01c80637368891411610118578063c51e713c116100a0578063e5c249241161006f578063e5c24924146105dd578063e982d5a914610613578063e985e9c514610633578063f33efd1e14610653578063fb796bb7146106665761020f565b8063c51e713c1461055d578063c57a882514610570578063c87b56dd14610590578063e2b375a9146105bd5761020f565b80638456cb59116100e75780638456cb59146104c85780638462151c146104dd578063a22cb465146104fd578063a4ede1281461051d578063b88d4fde1461053d5761020f565b806373688914146104445780637affcb9a146104595780637b1039991461048657806384017e52146104a85761020f565b80632e0dccbb1161019b578063527097251161016a57806352709725146103c55780635c975abb146103da5780635fd8c710146103ef5780636352211e1461040457806370a08231146104245761020f565b80632e0dccbb1461035d5780633f4ba83a1461037057806342842e0e1461038557806342966c68146103a55761020f565b8063180b9e3f116101e2578063180b9e3f146102bb57806318160ddd146102e857806323b872dd146102fd5780632441c7091461031d5780632a0c7799146103305761020f565b806301ffc9a714610214578063081812fc1461024a578063095ea7b31461027757806313966db514610299575b600080fd5b34801561022057600080fd5b5061023461022f36600461320b565b610679565b6040516102419190613bbb565b60405180910390f35b34801561025657600080fd5b5061026a610265366004613431565b61069c565b6040516102419190613aa4565b34801561028357600080fd5b506102976102923660046131bd565b6106e8565b005b3480156102a557600080fd5b506102ae6107e4565b6040516102419190613d18565b3480156102c757600080fd5b506102db6102d6366004613431565b6107ea565b6040516102419190613d26565b3480156102f457600080fd5b506102ae610802565b34801561030957600080fd5b50610297610318366004613071565b610814565b6102ae61032b366004613326565b610990565b34801561033c57600080fd5b5061035061034b366004613019565b610b0b565b6040516102419190613baa565b6102ae61036b366004613247565b610c13565b34801561037c57600080fd5b50610297610d7e565b34801561039157600080fd5b506102976103a0366004613071565b610e02565b3480156103b157600080fd5b506102976103c0366004613431565b610e22565b3480156103d157600080fd5b5061026a610f66565b3480156103e657600080fd5b50610234610f75565b3480156103fb57600080fd5b50610297610f85565b34801561041057600080fd5b5061026a61041f366004613431565b611061565b34801561043057600080fd5b506102ae61043f366004613019565b61107c565b34801561045057600080fd5b5061026a6110cb565b34801561046557600080fd5b50610479610474366004613167565b6110da565b6040516102419190613b99565b34801561049257600080fd5b5061049b61127c565b6040516102419190613bc9565b3480156104b457600080fd5b506102976104c3366004613431565b61128b565b3480156104d457600080fd5b506102976112ef565b3480156104e957600080fd5b506103506104f8366004613019565b61137a565b34801561050957600080fd5b50610297610518366004613137565b611434565b34801561052957600080fd5b50610479610538366004613019565b611519565b34801561054957600080fd5b506102976105583660046130be565b61168f565b6102ae61056b366004613326565b61180d565b34801561057c57600080fd5b5061029761058b366004613019565b61193a565b34801561059c57600080fd5b506105b06105ab366004613431565b6119bb565b6040516102419190613bd7565b3480156105c957600080fd5b506102976105d8366004613019565b611a81565b3480156105e957600080fd5b506105fd6105f8366004613431565b611b0e565b6040516102419a99989796959493929190613ab2565b34801561061f57600080fd5b5061029761062e366004613019565b611d6a565b34801561063f57600080fd5b5061023461064e366004613037565b611df8565b6102ae610661366004613247565b611e26565b6102ae610674366004613326565b611f4e565b6001600160e01b0319811660009081526020819052604090205460ff165b919050565b60006106a78261208e565b6106cc5760405162461bcd60e51b81526004016106c390613cd8565b60405180910390fd5b506000908152600e60205260409020546001600160a01b031690565b600254600160a01b900460ff16156106ff57600080fd5b600061070a82611061565b9050806001600160a01b0316836001600160a01b0316141561073e5760405162461bcd60e51b81526004016106c390613c48565b806001600160a01b03166107506120ab565b6001600160a01b0316148061076c575061076c8161064e6120ab565b6107885760405162461bcd60e51b81526004016106c390613d08565b6000828152600e602052604080822080546001600160a01b0319166001600160a01b0387811691821790925591518593918516917f8c5be1e5ebec7d5bd14f71427d1e84f3dd0314c0f7b2291e5b200ac8c7c3b92591a4505050565b60035481565b60096020526000908152604090205463ffffffff1681565b600061080e60056120af565b90505b90565b600254600160a01b900460ff161561082b57600080fd5b61083c6108366120ab565b826120b3565b6108585760405162461bcd60e51b81526004016106c390613cf8565b6000818152600a60205260408120546001600160a01b03169061087a83611061565b600084815260096020908152604080832054600a9092529091206003015491925063ffffffff1690600160a01b900460ff166108d8576108bb868686612138565b156108d85760405162461bcd60e51b81526004016106c390613bf8565b60048054604051630d1e359160e01b81526001600160a01b0390911691630d1e3591916109119185918b918b918b918b918b9101613d4f565b60206040518083038186803b15801561092957600080fd5b505afa15801561093d573d6000803e3d6000fd5b505050506040513d601f19601f8201168201806040525061096191908101906131ed565b61097d5760405162461bcd60e51b81526004016106c390613cf8565b61098886868661218c565b505050505050565b600254600090600160a01b900460ff16156109aa57600080fd5b6003543410156109b957600080fd5b60008363ffffffff16116109df5760405162461bcd60e51b81526004016106c390613c88565b6004546001600160a01b03166312d26ac8846109f96120ab565b6040518363ffffffff1660e01b8152600401610a16929190613d34565b60206040518083038186803b158015610a2e57600080fd5b505afa158015610a42573d6000803e3d6000fd5b505050506040513d601f19601f82011682018060405250610a6691908101906131ed565b610a825760405162461bcd60e51b81526004016106c390613ce8565b610a8f8a89898987612292565b610aab5760405162461bcd60e51b81526004016106c390613cc8565b6000610abd610ab86120ab565b61239c565b9050610acf818c8c8c8c8c8c8c6123b8565b610ad9818461267a565b6000818152600960205260409020805463ffffffff861663ffffffff1990911617905590509998505050505050505050565b60606001600160a01b038216610b335760405162461bcd60e51b81526004016106c390613c28565b6001600160a01b0382166000908152600860205260408120610b54906120af565b905080610b765760408051600080825260208201909252905b50915050610697565b606081604051908082528060200260200182016040528015610ba2578160200160208202803883390190505b5090506000610baf610802565b9050600060015b828111610c06576000818152600a60205260409020546001600160a01b0388811691161415610bfe5780848381518110610bec57fe5b60209081029190910101526001909101905b600101610bb6565b8395505050505050610697565b600254600090600160a01b900460ff1615610c2d57600080fd5b600354341015610c3c57600080fd5b60008263ffffffff1611610c625760405162461bcd60e51b81526004016106c390613c88565b6004546001600160a01b03166312d26ac883610c7c6120ab565b6040518363ffffffff1660e01b8152600401610c99929190613d34565b60206040518083038186803b158015610cb157600080fd5b505afa158015610cc5573d6000803e3d6000fd5b505050506040513d601f19601f82011682018060405250610ce991908101906131ed565b610d055760405162461bcd60e51b81526004016106c390613ce8565b610d128988888886612292565b610d2e5760405162461bcd60e51b81526004016106c390613cc8565b6000610d3b610ab86120ab565b9050610d4d818b8b8b8b8b8b8b6123b8565b6000818152600960205260409020805463ffffffff851663ffffffff19909116179055905098975050505050505050565b6001546001600160a01b0316610d926120ab565b6001600160a01b03161480610dc157506002546001600160a01b0316610db66120ab565b6001600160a01b0316145b610ddd5760405162461bcd60e51b81526004016106c390613c98565b600254600160a01b900460ff16610df357600080fd5b6002805460ff60a01b19169055565b610e1d8383836040518060200160405280600081525061168f565b505050565b600254600160a01b900460ff1615610e3957600080fd5b6000818152600a60205260408120546001600160a01b031690610e5b83611061565b60008481526009602052604090205490915063ffffffff166001600160a01b038083169084161415610f2a576004546001600160a01b03166312d26ac882610ea16120ab565b6040518363ffffffff1660e01b8152600401610ebe929190613d34565b60206040518083038186803b158015610ed657600080fd5b505afa158015610eea573d6000803e3d6000fd5b505050506040513d601f19601f82011682018060405250610f0e91908101906131ed565b610f2a5760405162461bcd60e51b81526004016106c390613c38565b610f3b610f356120ab565b856120b3565b610f575760405162461bcd60e51b81526004016106c390613c38565b610f60846126be565b50505050565b6002546001600160a01b031681565b600254600160a01b900460ff1681565b6001546001600160a01b0316610f996120ab565b6001600160a01b03161480610fc857506002546001600160a01b0316610fbd6120ab565b6001600160a01b0316145b610fe45760405162461bcd60e51b81526004016106c390613c98565b60405130319060009033908390610ffa90613a99565b60006040518083038185875af1925050503d8060008114611037576040519150601f19603f3d011682016040523d82523d6000602084013e61103c565b606091505b505090508061105d5760405162461bcd60e51b81526004016106c390613c58565b5050565b6000908152600660205260409020546001600160a01b031690565b60006001600160a01b0382166110a45760405162461bcd60e51b81526004016106c390613c28565b6001600160a01b03821660009081526007602052604090206110c5906120af565b92915050565b6001546001600160a01b031681565b6001600160a01b0383166000908152600b602052604090819020905160609182916111089086908690613a80565b9081526020016040518091039020805480602002602001604051908101604052809291908181526020016000905b828210156111ed57600084815260209081902060408051918501805460026001821615610100026000190190911604601f81018590048502840183018352938301848152929390928492909184918401828280156111d55780601f106111aa576101008083540402835291602001916111d5565b820191906000526020600020905b8154815290600101906020018083116111b857829003601f168201915b50505050508152505081526020019060010190611136565b5050505090506060815160405190808252806020026020018201604052801561122a57816020015b60608152602001906001900390816112155790505b50905060005b82518110156112705782818151811061124557fe5b60200260200101516000015182828151811061125d57fe5b6020908102919091010152600101611230565b509150505b9392505050565b6004546001600160a01b031681565b6001546001600160a01b031661129f6120ab565b6001600160a01b031614806112ce57506002546001600160a01b03166112c36120ab565b6001600160a01b0316145b6112ea5760405162461bcd60e51b81526004016106c390613c98565b600355565b6001546001600160a01b03166113036120ab565b6001600160a01b0316148061133257506002546001600160a01b03166113276120ab565b6001600160a01b0316145b61134e5760405162461bcd60e51b81526004016106c390613c98565b600254600160a01b900460ff161561136557600080fd5b6002805460ff60a01b1916600160a01b179055565b606060006113878361107c565b9050806113a4576040805160008082526020820190925290610b6d565b6060816040519080825280602002602001820160405280156113d0578160200160208202803883390190505b50905060006113dd610802565b9050600060015b828111610c06576000818152600660205260409020546001600160a01b038881169116141561142c578084838151811061141a57fe5b60209081029190910101526001909101905b6001016113e4565b600254600160a01b900460ff161561144b57600080fd5b6114536120ab565b6001600160a01b0316826001600160a01b031614156114845760405162461bcd60e51b81526004016106c390613c78565b80600f60006114916120ab565b6001600160a01b03908116825260208083019390935260409182016000908120918716808252919093529120805460ff1916921515929092179091556114d56120ab565b6001600160a01b03167f17307eab39ab6107e8899845ad3d59bd9653f200f220920489ca2b5937696c318360405161150d9190613bbb565b60405180910390a35050565b6001600160a01b0381166000908152600c602090815260408083208054825181850281018501909352808352606094859484015b8282101561160457600084815260209081902060408051918501805460026001821615610100026000190190911604601f81018590048502840183018352938301848152929390928492909184918401828280156115ec5780601f106115c1576101008083540402835291602001916115ec565b820191906000526020600020905b8154815290600101906020018083116115cf57829003601f168201915b5050505050815250508152602001906001019061154d565b5050505090506060815160405190808252806020026020018201604052801561164157816020015b606081526020019060019003908161162c5790505b50905060005b82518110156116875782818151811061165c57fe5b60200260200101516000015182828151811061167457fe5b6020908102919091010152600101611647565b509392505050565b600254600160a01b900460ff16156116a657600080fd5b6116b76116b16120ab565b836120b3565b6116d35760405162461bcd60e51b81526004016106c390613cf8565b6000828152600a60205260408120546001600160a01b0316906116f584611061565b600085815260096020908152604080832054600a9092529091206003015491925063ffffffff1690600160a01b900460ff1661175357611736878787612138565b156117535760405162461bcd60e51b81526004016106c390613bf8565b60048054604051630d1e359160e01b81526001600160a01b0390911691630d1e35919161178c9185918c918c918c918b918b9101613d4f565b60206040518083038186803b1580156117a457600080fd5b505afa1580156117b8573d6000803e3d6000fd5b505050506040513d601f19601f820116820180604052506117dc91908101906131ed565b6117f85760405162461bcd60e51b81526004016106c390613cf8565b611804878787876126d0565b50505050505050565b600254600090600160a01b900460ff161561182757600080fd5b60035434101561183657600080fd5b60008363ffffffff161161185c5760405162461bcd60e51b81526004016106c390613c88565b6004546001600160a01b03166312d26ac8846118766120ab565b6040518363ffffffff1660e01b8152600401611893929190613d34565b60206040518083038186803b1580156118ab57600080fd5b505afa1580156118bf573d6000803e3d6000fd5b505050506040513d601f19601f820116820180604052506118e391908101906131ed565b6118ff5760405162461bcd60e51b81526004016106c390613ce8565b61190c8a89898987612292565b6119285760405162461bcd60e51b81526004016106c390613cc8565b6000610abd6119356120ab565b612703565b6001546001600160a01b031661194e6120ab565b6001600160a01b0316148061197d57506002546001600160a01b03166119726120ab565b6001600160a01b0316145b6119995760405162461bcd60e51b81526004016106c390613c98565b600480546001600160a01b0319166001600160a01b0392909216919091179055565b60606119c68261208e565b6119e25760405162461bcd60e51b81526004016106c390613cd8565b6000828152600d602090815260409182902080548351601f600260001961010060018616150201909316929092049182018490048402810184019094528084529091830182828015611a755780601f10611a4a57610100808354040283529160200191611a75565b820191906000526020600020905b815481529060010190602001808311611a5857829003601f168201915b50505050509050919050565b6001546001600160a01b0316611a956120ab565b6001600160a01b03161480611ac457506002546001600160a01b0316611ab96120ab565b6001600160a01b0316145b611ae05760405162461bcd60e51b81526004016106c390613c98565b6001600160a01b03811615611b0b57600280546001600160a01b0319166001600160a01b0383161790555b50565b600080606080600080600080600080611b268b61208e565b611b425760405162461bcd60e51b81526004016106c390613cd8565b611b4a612dfc565b60008c8152600a60209081526040918290208251610100808201855282546001600160a01b03168252600180840180548751600293821615909402600019011691909104601f8101869004860283018601909652858252919492938581019391929190830182828015611bfe5780601f10611bd357610100808354040283529160200191611bfe565b820191906000526020600020905b815481529060010190602001808311611be157829003601f168201915b5050509183525050600282810180546040805160206001841615610100026000190190931694909404601f81018390048302850183019091528084529381019390830182828015611c905780601f10611c6557610100808354040283529160200191611c90565b820191906000526020600020905b815481529060010190602001808311611c7357829003601f168201915b50505091835250506003919091015465ffffffffffff808216602080850191909152660100000000000083048216604080860191909152600160601b84049092166060850152600160901b830461ffff166080850152600160a01b90920460ff16151560a09093019290925260008f815260099091522054815191925063ffffffff1690611d1d8e611061565b83602001518460400151856060015186608001518760a001518860c001518960e00151898797508696509b509b509b509b509b509b509b509b509b509b5050509193959799509193959799565b6001546001600160a01b0316611d7e6120ab565b6001600160a01b03161480611dad57506002546001600160a01b0316611da26120ab565b6001600160a01b0316145b611dc95760405162461bcd60e51b81526004016106c390613c98565b6001600160a01b03811615611b0b57600180546001600160a01b0383166001600160a01b031990911617905550565b6001600160a01b039182166000908152600f6020908152604080832093909416825291909152205460ff1690565b600254600090600160a01b900460ff1615611e4057600080fd5b600354341015611e4f57600080fd5b60008263ffffffff1611611e755760405162461bcd60e51b81526004016106c390613c88565b6004546001600160a01b03166312d26ac883611e8f6120ab565b6040518363ffffffff1660e01b8152600401611eac929190613d34565b60206040518083038186803b158015611ec457600080fd5b505afa158015611ed8573d6000803e3d6000fd5b505050506040513d601f19601f82011682018060405250611efc91908101906131ed565b611f185760405162461bcd60e51b81526004016106c390613ce8565b611f258988888886612292565b611f415760405162461bcd60e51b81526004016106c390613cc8565b6000610d3b6119356120ab565b600254600090600160a01b900460ff1615611f6857600080fd5b600354341015611f7757600080fd5b60008363ffffffff1611611f9d5760405162461bcd60e51b81526004016106c390613c88565b6004546001600160a01b03166312d26ac884611fb76120ab565b6040518363ffffffff1660e01b8152600401611fd4929190613d34565b60206040518083038186803b158015611fec57600080fd5b505afa158015612000573d6000803e3d6000fd5b505050506040513d601f19601f8201168201806040525061202491908101906131ed565b6120405760405162461bcd60e51b81526004016106c390613ce8565b61204d8a89898987612292565b6120695760405162461bcd60e51b81526004016106c390613cc8565b600061207c6120766120ab565b846127e2565b9050610ad9818c8c8c8c8c8c8c6123b8565b6000908152600660205260409020546001600160a01b0316151590565b3390565b5490565b60006120be8261208e565b6120da5760405162461bcd60e51b81526004016106c390613cd8565b60006120e583611061565b9050806001600160a01b0316846001600160a01b031614806121205750836001600160a01b03166121158461069c565b6001600160a01b0316145b8061213057506121308185611df8565b949350505050565b6000818152600a60205260408120546001600160a01b039081169085168114806121735750806001600160a01b0316846001600160a01b0316145b15612182576000915050611275565b6001915050611275565b826001600160a01b031661219f82611061565b6001600160a01b0316146121c55760405162461bcd60e51b81526004016106c390613cf8565b6001600160a01b0382166121eb5760405162461bcd60e51b81526004016106c390613c18565b6121f481612819565b6001600160a01b038316600090815260076020526040902061221590612854565b6001600160a01b03821660009081526007602052604090206122369061286b565b60008181526006602052604080822080546001600160a01b0319166001600160a01b0386811691821790925591518493918716917fddf252ad1be2c89b69c2b068fc378daa952ba7f163c4a11628f55a4df523b3ef91a4505050565b6004805460405163abe6178360e01b81526000926001600160a01b039092169163abe61783916122c69186918b9101613da9565b60206040518083038186803b1580156122de57600080fd5b505afa1580156122f2573d6000803e3d6000fd5b505050506040513d601f19601f8201168201806040525061231691908101906131ed565b6123325760405162461bcd60e51b81526004016106c390613c68565b8265ffffffffffff168565ffffffffffff16116123615760405162461bcd60e51b81526004016106c390613ca8565b8465ffffffffffff168465ffffffffffff16116123905760405162461bcd60e51b81526004016106c390613cb8565b50600195945050505050565b60008061127583604051806020016040528060008152506127e2565b6123c18861208e565b6123dd5760405162461bcd60e51b81526004016106c390613cd8565b6123e5612dfc565b6040518061010001604052806123f96120ab565b6001600160a01b03908116825260208083018c905260408084018c905265ffffffffffff8b811660608601528a81166080860152891660a085015261ffff881660c085015286151560e09094019390935260008d8152600a825292909220835181546001600160a01b03191692169190911781558282015180519394508493919261248c92600185019290910190612e41565b50604082015180516124a8916002840191602090910190612e41565b5060608201516003919091018054608084015160a085015160c086015160e09096015165ffffffffffff1990931665ffffffffffff958616176bffffffffffff00000000000019166601000000000000928616929092029190911771ffffffffffff0000000000000000000000001916600160601b94909116939093029290921773ffff0000000000000000000000000000000000001916600160901b61ffff909416939093029290921760ff60a01b1916600160a01b9115159190910217905561257288612874565b6125db57600c60006125826120ab565b6001600160a01b031681526020808201929092526040908101600090812082518085019093528b83528054600181018083559183529184902083518051929591909301926125d69284929190910190612e41565b505050505b6125e5888861299f565b61266f57600b60006125f56120ab565b6001600160a01b03166001600160a01b03168152602001908152602001600020886040516126239190613a8d565b90815260408051918290036020908101832083820190925289835281546001810180845560009384529282902084518051949594919092019261266a928492910190612e41565b505050505b505050505050505050565b6126838261208e565b61269f5760405162461bcd60e51b81526004016106c390613cd8565b6000828152600d602090815260409091208251610e1d92840190612e41565b611b0b6126ca82611061565b82612ae6565b6126db84848461218c565b6126e784848484612c33565b610f605760405162461bcd60e51b81526004016106c390613c08565b60006001600160a01b03821661272b5760405162461bcd60e51b81526004016106c390613be8565b612735600561286b565b600061274160056120af565b600081815260066020908152604080832080546001600160a01b0319166001600160a01b0389169081179091558352600790915290209091506127839061286b565b6001600160a01b03831660009081526008602052604090206127a49061286b565b60405181906001600160a01b038516906000907fddf252ad1be2c89b69c2b068fc378daa952ba7f163c4a11628f55a4df523b3ef908290a492915050565b6000806127ee84612703565b90506127fd6000858386612c33565b6112755760405162461bcd60e51b81526004016106c390613c08565b6000818152600e60205260409020546001600160a01b031615611b0b576000908152600e6020526040902080546001600160a01b0319169055565b805461286790600163ffffffff612cfe16565b9055565b80546001019055565b336000908152600c602090815260408083208054825181850281018501909352808352606093859084015b8282101561295657600084815260209081902060408051918501805460026001821615610100026000190190911604601f810185900485028401830183529383018481529293909284929091849184018282801561293e5780601f106129135761010080835404028352916020019161293e565b820191906000526020600020905b81548152906001019060200180831161292157829003601f168201915b5050505050815250508152602001906001019061289f565b5092935060009250829150505b82518110156116875761298d8584838151811061297c57fe5b602002602001015160000151612d40565b1561299757600191505b600101612963565b336000908152600b60205260408082209051606091906129c0908690613a8d565b9081526020016040518091039020805480602002602001604051908101604052809291908181526020016000905b82821015612aa557600084815260209081902060408051918501805460026001821615610100026000190190911604601f8101859004850284018301835293830184815292939092849290918491840182828015612a8d5780601f10612a6257610100808354040283529160200191612a8d565b820191906000526020600020905b815481529060010190602001808311612a7057829003601f168201915b505050505081525050815260200190600101906129ee565b5092935060009250829150505b8251811015612add57612acb8584838151811061297c57fe5b15612ad557600191505b600101612ab2565b50949350505050565b816001600160a01b0316612af982611061565b6001600160a01b031614612b1f5760405162461bcd60e51b81526004016106c390613c38565b612b2881612819565b6001600160a01b0382166000908152600760205260409020612b4990612854565b600081815260066020908152604080832080546001600160a01b0319169055600d9091529020546002600019600183161561010002019091160415612b9f576000818152600d60205260408120612b9f91612ebf565b6000818152600a6020526040812080546001600160a01b031916815590612bc96001830182612ebf565b612bd7600283016000612ebf565b50600301805474ffffffffffffffffffffffffffffffffffffffffff1916905560405181906000906001600160a01b038516907fddf252ad1be2c89b69c2b068fc378daa952ba7f163c4a11628f55a4df523b3ef908390a45050565b6000612c47846001600160a01b0316612d99565b612c5357506001612130565b6000846001600160a01b031663150b7a02612c6c6120ab565b8887876040518563ffffffff1660e01b8152600401612c8e9493929190613b55565b602060405180830381600087803b158015612ca857600080fd5b505af1158015612cbc573d6000803e3d6000fd5b505050506040513d601f19601f82011682018060405250612ce09190810190613229565b6001600160e01b031916630a85bd0160e11b14915050949350505050565b600061127583836040518060400160405280601e81526020017f536166654d6174683a207375627472616374696f6e206f766572666c6f770000815250612dd0565b600081604051602001612d539190613a8d565b6040516020818303038152906040528051906020012083604051602001612d7a9190613a8d565b6040516020818303038152906040528051906020012014905092915050565b6000813f7fc5d2460186f7233c927e7db2dcc703c0e500b653ca82273b7bfad8045d85a47081158015906121305750141592915050565b60008184841115612df45760405162461bcd60e51b81526004016106c39190613bd7565b505050900390565b604080516101008101825260008082526060602083018190529282018390529181018290526080810182905260a0810182905260c0810182905260e081019190915290565b828054600181600116156101000203166002900490600052602060002090601f016020900481019282601f10612e8257805160ff1916838001178555612eaf565b82800160010185558215612eaf579182015b82811115612eaf578251825591602001919060010190612e94565b50612ebb929150612eff565b5090565b50805460018160011615610100020316600290046000825580601f10612ee55750611b0b565b601f016020900490600052602060002090810190611b0b91905b61081191905b80821115612ebb5760008155600101612f05565b80356110c581613ebc565b80356110c581613ed0565b80516110c581613ed0565b80356110c581613ed9565b80516110c581613ed9565b600082601f830112612f6157600080fd5b8135612f74612f6f82613df0565b613dc9565b91508082526020830160208301858383011115612f9057600080fd5b612f9b838284613e7a565b50505092915050565b60008083601f840112612fb657600080fd5b50813567ffffffffffffffff811115612fce57600080fd5b602083019150836001820283011115612fe657600080fd5b9250929050565b80356110c581613ee2565b80356110c581613eeb565b80356110c581613ef4565b80356110c581613efd565b60006020828403121561302b57600080fd5b60006121308484612f19565b6000806040838503121561304a57600080fd5b60006130568585612f19565b925050602061306785828601612f19565b9150509250929050565b60008060006060848603121561308657600080fd5b60006130928686612f19565b93505060206130a386828701612f19565b92505060406130b486828701612ff8565b9150509250925092565b600080600080608085870312156130d457600080fd5b60006130e08787612f19565b94505060206130f187828801612f19565b935050604061310287828801612ff8565b925050606085013567ffffffffffffffff81111561311f57600080fd5b61312b87828801612f50565b91505092959194509250565b6000806040838503121561314a57600080fd5b60006131568585612f19565b925050602061306785828601612f24565b60008060006040848603121561317c57600080fd5b60006131888686612f19565b935050602084013567ffffffffffffffff8111156131a557600080fd5b6131b186828701612fa4565b92509250509250925092565b600080604083850312156131d057600080fd5b60006131dc8585612f19565b925050602061306785828601612ff8565b6000602082840312156131ff57600080fd5b60006121308484612f2f565b60006020828403121561321d57600080fd5b60006121308484612f3a565b60006020828403121561323b57600080fd5b60006121308484612f45565b600080600080600080600080610100898b03121561326457600080fd5b883567ffffffffffffffff81111561327b57600080fd5b6132878b828c01612f50565b985050602089013567ffffffffffffffff8111156132a457600080fd5b6132b08b828c01612f50565b97505060406132c18b828c0161300e565b96505060606132d28b828c0161300e565b95505060806132e38b828c0161300e565b94505060a06132f48b828c01612fed565b93505060c06133058b828c01612f24565b92505060e06133168b828c01613003565b9150509295985092959890939650565b60008060008060008060008060006101208a8c03121561334557600080fd5b893567ffffffffffffffff81111561335c57600080fd5b6133688c828d01612f50565b99505060208a013567ffffffffffffffff81111561338557600080fd5b6133918c828d01612f50565b98505060406133a28c828d0161300e565b97505060606133b38c828d0161300e565b96505060806133c48c828d0161300e565b95505060a06133d58c828d01612fed565b94505060c06133e68c828d01612f24565b93505060e06133f78c828d01613003565b9250506101008a013567ffffffffffffffff81111561341557600080fd5b6134218c828d01612f50565b9150509295985092959850929598565b60006020828403121561344357600080fd5b60006121308484612ff8565b6000611275838361354e565b60006134678383613a65565b505060200190565b61347881613e2b565b82525050565b600061348982613e1e565b6134938185613e22565b9350836020820285016134a585613e18565b8060005b858110156134df57848403895281516134c2858261344f565b94506134cd83613e18565b60209a909a01999250506001016134a9565b5091979650505050505050565b60006134f782613e1e565b6135018185613e22565b935061350c83613e18565b8060005b8381101561353a578151613524888261345b565b975061352f83613e18565b925050600101613510565b509495945050505050565b61347881613e36565b600061355982613e1e565b6135638185613e22565b9350613573818560208601613e86565b61357c81613eb2565b9093019392505050565b61347881613e6f565b600061359b8385610697565b93506135a8838584613e7a565b50500190565b60006135b982613e1e565b6135c38185610697565b93506135d3818560208601613e86565b9290920192915050565b60006135ea601483613e22565b7f4d494e545f544f5f5a45524f5f41444452455353000000000000000000000000815260200192915050565b6000613623601a83613e22565b7f5345434f4e444152595f54524144494e475f44495341424c4544000000000000815260200192915050565b600061365c602a83613e22565b7f5452414e534645525f544f5f4e4f4e5f45524337323152454345495645525f4981526926a82622a6a2a72a22a960b11b602082015260400192915050565b60006136a8601883613e22565b7f5452414e534645525f544f5f5a45524f5f414444524553530000000000000000815260200192915050565b60006136e1601983613e22565b7f43414e4e4f545f51554552595f5a45524f5f4144445245535300000000000000815260200192915050565b600061371a601183613e22565b7f554e415554484f52495a45445f4255524e000000000000000000000000000000815260200192915050565b6000613753601583613e22565b7f415050524f56414c5f49535f524544554e44414e540000000000000000000000815260200192915050565b600061378c600f83613e22565b7f57495448445241575f4641494c45440000000000000000000000000000000000815260200192915050565b60006137c5602383613e22565b7f434f4e54454e545f49445f4e4f545f524547495354455245445f544f5f43414c8152622622a960e91b602082015260400192915050565b600061380a601a83613e22565b7f43414c4c45525f43414e4e4f545f415050524f56455f53454c46000000000000815260200192915050565b6000613843601583613e22565b7f494e56414c49445f46454445524154494f4e5f49440000000000000000000000815260200192915050565b600061387c601383613e22565b7f4f4e4c595f434f4e54524143545f4f574e455200000000000000000000000000815260200192915050565b60006138b5602183613e22565b7f53544152545f54494d455f41465445525f41554354494f4e5f454e445f54494d8152604560f81b602082015260400192915050565b60006138f8601983613e22565b7f53544152545f54494d455f41465445525f454e445f54494d4500000000000000815260200192915050565b60006110c5600083610697565b600061393e601183613e22565b7f494e56414c49445f54494d455f534c4f54000000000000000000000000000000815260200192915050565b6000613977601283613e22565b7f4e4f4e5f4558495354454e545f544f4b454e0000000000000000000000000000815260200192915050565b60006139b0602583613e22565b7f43414c4c45525f4e4f545f415554484f52495a45445f464f525f4d494e5445528152645f524f4c4560d81b602082015260400192915050565b60006139f7601583613e22565b7f554e415554484f52495a45445f5452414e534645520000000000000000000000815260200192915050565b6000613a30601583613e22565b7f43414c4c45525f4e4f545f415554484f52495a45440000000000000000000000815260200192915050565b61347881613e48565b61347881610811565b61347881613e5b565b61347881613e64565b600061213082848661358f565b600061127582846135ae565b60006110c582613924565b602081016110c5828461346f565b6101408101613ac1828d61346f565b613ace602083018c61346f565b8181036040830152613ae0818b61354e565b90508181036060830152613af4818a61354e565b9050613b036080830189613a77565b613b1060a0830188613a77565b613b1d60c0830187613a77565b613b2a60e0830186613a5c565b613b38610100830185613545565b613b46610120830184613a6e565b9b9a5050505050505050505050565b60808101613b63828761346f565b613b70602083018661346f565b613b7d6040830185613a65565b8181036060830152613b8f818461354e565b9695505050505050565b60208082528101611275818461347e565b6020808252810161127581846134ec565b602081016110c58284613545565b602081016110c58284613586565b60208082528101611275818461354e565b602080825281016110c5816135dd565b602080825281016110c581613616565b602080825281016110c58161364f565b602080825281016110c58161369b565b602080825281016110c5816136d4565b602080825281016110c58161370d565b602080825281016110c581613746565b602080825281016110c58161377f565b602080825281016110c5816137b8565b602080825281016110c5816137fd565b602080825281016110c581613836565b602080825281016110c58161386f565b602080825281016110c5816138a8565b602080825281016110c5816138eb565b602080825281016110c581613931565b602080825281016110c58161396a565b602080825281016110c5816139a3565b602080825281016110c5816139ea565b602080825281016110c581613a23565b602081016110c58284613a65565b602081016110c58284613a6e565b60408101613d428285613a6e565b611275602083018461346f565b60c08101613d5d8289613a6e565b613d6a602083018861346f565b613d77604083018761346f565b613d846060830186613a65565b613d91608083018561346f565b613d9e60a083018461346f565b979650505050505050565b60408101613db78285613a6e565b8181036020830152612130818461354e565b60405181810167ffffffffffffffff81118282101715613de857600080fd5b604052919050565b600067ffffffffffffffff821115613e0757600080fd5b506020601f91909101601f19160190565b60200190565b5190565b90815260200190565b60006110c582613e4f565b151590565b6001600160e01b03191690565b61ffff1690565b6001600160a01b031690565b63ffffffff1690565b65ffffffffffff1690565b60006110c582613e2b565b82818337506000910152565b60005b83811015613ea1578181015183820152602001613e89565b83811115610f605750506000910152565b601f01601f191690565b613ec581613e2b565b8114611b0b57600080fd5b613ec581613e36565b613ec581613e3b565b613ec581613e48565b613ec581610811565b613ec581613e5b565b613ec581613e6456fea365627a7a72315820a00c7a7d2b3cd5a00333433cf7cccbf456182b08748eac12c12a287d815d5bdc6c6578706572696d656e74616cf564736f6c634300050b0040",
  "source": "pragma solidity ^0.5.11;\npragma experimental ABIEncoderV2;\n\n/**\n * @title ERC721 Customized for Microsponsors from:\n * https://github.com/OpenZeppelin/openzeppelin-contracts/blob/master/contracts/token/ERC721/ERC721MetadataMintable.sol\n */\n\nimport \"./IERC721.sol\";\nimport \"./IERC721Receiver.sol\";\nimport \"./SafeMath.sol\";\nimport \"./Address.sol\";\nimport \"./Counters.sol\";\nimport \"./ERC165.sol\";\n\n\n/**\n * @title Deployed Microsponsors Registry smart contract interface.\n * @dev We just use the signatures of the parts we need to interact with:\n */\ncontract DeployedRegistry {\n    function isContentIdRegisteredToCaller(uint32 federationId, string memory contentId) public view returns(bool);\n    function isMinter(uint32 federationId, address account) public view returns (bool);\n    function isAuthorizedTransferFrom(uint32 federationId, address from, address to, uint256 tokenId, address minter, address owner) public view returns(bool);\n}\n\n\n/**\n * @title ERC721 Non-Fungible Token Standard basic implementation\n * @dev see https://eips.ethereum.org/EIPS/eip-721\n */\ncontract ERC721 is ERC165, IERC721 {\n    using SafeMath for uint256;\n    using Address for address;\n    using Counters for Counters.Counter;\n\n\n    /***  Contract data  ***/\n\n\n    /// @dev owner1, owner2 Admins of this contract.\n    address public owner1;\n    address public owner2;\n\n    /// @dev paused Admin only. Set to `true` to stop token minting and transfers.\n    bool public paused = false;\n\n    /// @dev mintFee Admin only. Set minting fee; default fee is below (in wei).\n    uint256 public mintFee = 100000000000000;\n\n    /// @dev DeployedRegistry The Microsponsors Registry Contract that verifies participants.\n    ///      Admin can update the contract address here to upgrade Registry.\n    DeployedRegistry public registry;\n\n    /// @title _tokenIds All Token IDs minted, incremented starting at 1\n    Counters.Counter _tokenIds;\n\n    /// @dev _tokenOwner mapping from Token ID to Token Owner\n    mapping (uint256 => address) private _tokenOwner;\n\n    /// @dev _ownedTokensCount mapping from Token Owner to # of owned tokens\n    mapping (address => Counters.Counter) private _ownedTokensCount;\n\n    /// @dev _mintedTokensCount mapping from Token Minter to # of minted tokens\n    mapping (address => Counters.Counter) private _mintedTokensCount;\n\n    /// @dev tokenToFederationId see notes on path to federation in Microsponsors Registry contract\n    mapping (uint256 => uint32) public tokenToFederationId;\n\n    /// @dev TimeSlot metadata struct for each token\n    ///      TimeSlots timestamps are stored as uint48:\n    ///      https://medium.com/@novablitz/storing-structs-is-costing-you-gas-774da988895e\n    struct TimeSlot {\n        address minter; // the address of the user who mint()'ed this time slot\n        string contentId; // the users' registered contentId containing the Property\n        string propertyName; // describes the Property within the contentId that is tokenized into time slots\n        uint48 startTime; // min timestamp (when time slot begins)\n        uint48 endTime; // max timestamp (when time slot ends)\n        uint48 auctionEndTime; // max timestamp (when auction for time slot ends)\n        uint16 category; // integer that represents the category (see Microsponsors utils.js)\n        bool isSecondaryTradingEnabled; // if true, first buyer can trade to others\n    }\n    /// @dev _tokenToTimeSlot mapping from Token ID to TimeSlot struct\n    ///      Use tokenTimeSlot() public method to read\n    mapping(uint256 => TimeSlot) private _tokenToTimeSlot;\n\n    /// @dev PropertyNameStruct: name of the time slot\n    struct PropertyNameStruct {\n        string propertyName;\n    }\n    /// @dev _tokenMinterToPropertyName mapping from Minter => Content ID => array of Property Names\n    ///      Used to display all tokenized Time Slots on a given Property.\n    ///      Using struct because there is no mapping to a dynamic array of bytes32 in Solidity at this time.\n    mapping(address => mapping(string => PropertyNameStruct[])) private _tokenMinterToPropertyNames;\n\n    /// @dev ContentIdStruct The registered Content ID, verified by Registry contract\n    struct ContentIdStruct {\n        string contentId;\n    }\n    /// @dev _tokenMinterToContentIds Mapping from Token Minter to array of Content IDs\n    ///      that they have *ever* minted tokens for\n    mapping(address => ContentIdStruct[]) private _tokenMinterToContentIds;\n\n    /// @dev _tokenURIs Mapping from Token ID to Token URIs\n    mapping(uint256 => string) private _tokenURIs;\n\n    /// @dev _tokenApprovals Mapping from Token ID to Approved Address\n    mapping (uint256 => address) private _tokenApprovals;\n\n    /// @dev _operatorApprovals Mapping from Token Owner to Operator Approvals\n    mapping (address => mapping (address => bool)) private _operatorApprovals;\n\n    /*\n     *     bytes4(keccak256('balanceOf(address)')) == 0x70a08231\n     *     bytes4(keccak256('ownerOf(uint256)')) == 0x6352211e\n     *     bytes4(keccak256('approve(address,uint256)')) == 0x095ea7b3\n     *     bytes4(keccak256('getApproved(uint256)')) == 0x081812fc\n     *     bytes4(keccak256('setApprovalForAll(address,bool)')) == 0xa22cb465\n     *     bytes4(keccak256('isApprovedForAll(address,address)')) == 0xe985e9c5\n     *     bytes4(keccak256('transferFrom(address,address,uint256)')) == 0x23b872dd\n     *     bytes4(keccak256('safeTransferFrom(address,address,uint256)')) == 0x42842e0e\n     *     bytes4(keccak256('safeTransferFrom(address,address,uint256,bytes)')) == 0xb88d4fde\n     *\n     *     => 0x70a08231 ^ 0x6352211e ^ 0x095ea7b3 ^ 0x081812fc ^\n     *        0xa22cb465 ^ 0xe985e9c ^ 0x23b872dd ^ 0x42842e0e ^ 0xb88d4fde == 0x80ac58cd\n     */\n    bytes4 private constant _INTERFACE_ID_ERC721 = 0x80ac58cd;\n\n    // @dev Equals to `bytes4(keccak256(\"onERC721Received(address,address,uint256,bytes)\"))`\n    // which can be also obtained as `IERC721Receiver(0).onERC721Received.selector`\n    bytes4 private constant _ERC721_RECEIVED = 0x150b7a02;\n\n\n    constructor () public {\n\n        // Register the supported interfaces to conform to ERC721 via ERC165\n        _registerInterface(_INTERFACE_ID_ERC721);\n\n        // Set the contract owners to msg.sender by default\n        owner1 = _msgSender();\n        owner2 = _msgSender();\n\n    }\n\n\n    /**\n     * @dev Provides information about the current execution context, including the\n     * sender of the transaction and its data. While these are generally available\n     * via msg.sender and msg.data, they not should not be accessed in such a direct\n     * manner, since when dealing with GSN meta-transactions the account sending and\n     * paying for execution may not be the actual sender (as far as an application\n     * is concerned).\n     */\n\n    function _msgSender() internal view returns (address) {\n\n        return msg.sender;\n\n    }\n\n    function _msgData() internal view returns (bytes memory) {\n\n        this; // silence state mutability warning without generating bytecode -\n              // see https://github.com/ethereum/solidity/issues/2691\n        return msg.data;\n\n    }\n\n\n    /***  Owner (Administrator) functions  ***/\n\n\n    /**\n     * @dev Sets the contract's owner (administrator)\n     * Based on 0x's Ownable, but modified here\n     */\n    modifier onlyOwner() {\n        require(\n            (_msgSender() == owner1) || (_msgSender() == owner2),\n            \"ONLY_CONTRACT_OWNER\"\n        );\n        _;\n    }\n\n    /**\n     * @dev Transfer owner (admin) functions to another address\n     * @param newOwner Address of new owner/ admin of contract\n     */\n    function transferOwnership1(address newOwner)\n        public\n        onlyOwner\n    {\n        if (newOwner != address(0)) {\n            owner1 = newOwner;\n        }\n    }\n\n\n    function transferOwnership2(address newOwner)\n        public\n        onlyOwner\n    {\n        if (newOwner != address(0)) {\n            owner2 = newOwner;\n        }\n    }\n\n    /**\n     * @dev Update contract address for Microsponsors Registry contract\n     * @param newAddress where the Registry contract lives\n     */\n    function updateRegistryAddress(address newAddress)\n        public\n        onlyOwner\n    {\n        registry = DeployedRegistry(newAddress);\n    }\n\n    /**\n     * @dev Update the fee (in wei) charged for minting a single token\n     */\n    function updateMintFee(uint256 val)\n        public\n        onlyOwner\n    {\n\n        mintFee = val;\n\n    }\n\n    /// @dev Pausable (adapted from OpenZeppelin via Cryptokitties)\n    /// @dev Modifier to allow actions only when the contract IS NOT paused\n    modifier whenNotPaused() {\n        require(!paused);\n        _;\n    }\n\n    /// @dev Modifier to allow actions only when the contract IS paused\n    modifier whenPaused {\n        require(paused);\n        _;\n    }\n\n    /// @dev Called by contract owner to pause minting and transfers.\n    function pause() public onlyOwner whenNotPaused {\n        paused = true;\n    }\n\n    /// @dev Called by contract owner to unpause minting and transfers.\n    function unpause() public onlyOwner whenPaused {\n        paused = false;\n    }\n\n    /// @dev Admin withdraws entire balance from contract.\n    function withdrawBalance() external onlyOwner {\n\n        // Ref: https://diligence.consensys.net/blog/2019/09/stop-using-soliditys-transfer-now/\n        uint balance = address(this).balance;\n        (bool success, ) = msg.sender.call.value(balance)(\"\");\n        require(success, \"WITHDRAW_FAILED\");\n\n    }\n\n\n    /***  Minting tokens  ***/\n\n\n    /**\n     * @dev Function to mint tokens.\n     * @return tokenId\n     */\n    function mint(\n        string memory contentId,\n        string memory propertyName,\n        uint48 startTime,\n        uint48 endTime,\n        uint48 auctionEndTime,\n        uint16 category,\n        bool isSecondaryTradingEnabled,\n        uint32 federationId\n    )\n        public\n        payable\n        whenNotPaused\n        returns (uint256)\n    {\n\n        require(msg.value >= mintFee);\n\n        require(federationId > 0, \"INVALID_FEDERATION_ID\");\n\n        require(\n            registry.isMinter(federationId, _msgSender()),\n            \"CALLER_NOT_AUTHORIZED_FOR_MINTER_ROLE\"\n        );\n\n        require(\n            _isValidTimeSlot(contentId, startTime, endTime, auctionEndTime, federationId),\n            \"INVALID_TIME_SLOT\"\n        );\n\n        uint256 tokenId = _mint(_msgSender());\n        _setTokenTimeSlot(tokenId, contentId, propertyName, startTime, endTime, auctionEndTime, category, isSecondaryTradingEnabled);\n        tokenToFederationId[tokenId] = federationId;\n\n        return tokenId;\n\n    }\n\n    /**\n     * @dev Function to mint tokens.\n     * @param tokenURI The token URI of the minted token.\n     * @return tokenId\n     */\n    function mintWithTokenURI(\n        string memory contentId,\n        string memory propertyName,\n        uint48 startTime,\n        uint48 endTime,\n        uint48 auctionEndTime,\n        uint16 category,\n        bool isSecondaryTradingEnabled,\n        uint32 federationId,\n        string memory tokenURI\n    )\n        public\n        payable\n        whenNotPaused\n        returns (uint256)\n    {\n\n        require(msg.value >= mintFee);\n\n        require(federationId > 0, \"INVALID_FEDERATION_ID\");\n\n        require(\n            registry.isMinter(federationId, _msgSender()),\n            \"CALLER_NOT_AUTHORIZED_FOR_MINTER_ROLE\"\n        );\n\n        require(\n            _isValidTimeSlot(contentId, startTime, endTime, auctionEndTime, federationId),\n            \"INVALID_TIME_SLOT\"\n        );\n\n        uint256 tokenId = _mint(_msgSender());\n        _setTokenTimeSlot(tokenId, contentId, propertyName, startTime, endTime, auctionEndTime, category, isSecondaryTradingEnabled);\n        _setTokenURI(tokenId, tokenURI);\n        tokenToFederationId[tokenId] = federationId;\n\n        return tokenId;\n\n    }\n\n    /**\n     * @dev Function to safely mint tokens.\n     * @return tokenId\n     */\n    function safeMint(\n        string memory contentId,\n        string memory propertyName,\n        uint48 startTime,\n        uint48 endTime,\n        uint48 auctionEndTime,\n        uint16 category,\n        bool isSecondaryTradingEnabled,\n        uint32 federationId\n    )\n        public\n        payable\n        whenNotPaused\n        returns (uint256)\n    {\n\n        require(msg.value >= mintFee);\n\n        require(federationId > 0, \"INVALID_FEDERATION_ID\");\n\n        require(\n            registry.isMinter(federationId, _msgSender()),\n            \"CALLER_NOT_AUTHORIZED_FOR_MINTER_ROLE\"\n        );\n\n        require(\n            _isValidTimeSlot(contentId, startTime, endTime, auctionEndTime, federationId),\n            \"INVALID_TIME_SLOT\"\n        );\n\n        uint256 tokenId = _safeMint(_msgSender());\n        _setTokenTimeSlot(tokenId, contentId, propertyName, startTime, endTime, auctionEndTime, category, isSecondaryTradingEnabled);\n        tokenToFederationId[tokenId] = federationId;\n\n        return tokenId;\n\n    }\n\n    /**\n     * @dev Function to safely mint tokens.\n     * @param data bytes data to send along with a safe transfer check.\n     * @return tokenId\n     */\n    function safeMint(\n        string memory contentId,\n        string memory propertyName,\n        uint48 startTime,\n        uint48 endTime,\n        uint48 auctionEndTime,\n        uint16 category,\n        bool isSecondaryTradingEnabled,\n        uint32 federationId,\n        bytes memory data\n    )\n        public\n        payable\n        whenNotPaused\n        returns (uint256)\n    {\n\n        require(msg.value >= mintFee);\n\n        require(federationId > 0, \"INVALID_FEDERATION_ID\");\n\n        require(\n            registry.isMinter(federationId, _msgSender()),\n            \"CALLER_NOT_AUTHORIZED_FOR_MINTER_ROLE\"\n        );\n\n        require(\n            _isValidTimeSlot(contentId, startTime, endTime, auctionEndTime, federationId),\n            \"INVALID_TIME_SLOT\"\n        );\n\n        uint256 tokenId = _safeMint(_msgSender(), data);\n        _setTokenTimeSlot(tokenId, contentId, propertyName, startTime, endTime, auctionEndTime, category, isSecondaryTradingEnabled);\n        tokenToFederationId[tokenId] = federationId;\n\n        return tokenId;\n\n    }\n\n    /**\n     * @param tokenURI The token URI of the minted token.\n     * @return tokenId\n     */\n    function safeMintWithTokenURI(\n        string memory contentId,\n        string memory propertyName,\n        uint48 startTime,\n        uint48 endTime,\n        uint48 auctionEndTime,\n        uint16 category,\n        bool isSecondaryTradingEnabled,\n        uint32 federationId,\n        string memory tokenURI\n    )\n        public\n        payable\n        whenNotPaused\n        returns (uint256)\n    {\n\n        require(msg.value >= mintFee);\n\n        require(federationId > 0, \"INVALID_FEDERATION_ID\");\n\n        require(\n            registry.isMinter(federationId, _msgSender()),\n            \"CALLER_NOT_AUTHORIZED_FOR_MINTER_ROLE\"\n        );\n\n        require(\n            _isValidTimeSlot(contentId, startTime, endTime, auctionEndTime, federationId),\n            \"INVALID_TIME_SLOT\"\n        );\n\n        uint256 tokenId = _safeMint(_msgSender());\n        _setTokenTimeSlot(tokenId, contentId, propertyName, startTime, endTime, auctionEndTime, category, isSecondaryTradingEnabled);\n        _setTokenURI(tokenId, tokenURI);\n        tokenToFederationId[tokenId] = federationId;\n\n        return tokenId;\n\n    }\n\n    /**\n     * @dev Internal function to safely mint a new token.\n     * Reverts if the given token ID already exists.\n     * If the target address is a contract, it must implement `onERC721Received`,\n     * which is called upon a safe transfer, and return the magic value\n     * `bytes4(keccak256(\"onERC721Received(address,address,uint256,bytes)\"))`; otherwise,\n     * the transfer is reverted.\n     * @param to The address that will own the minted token\n     * @return tokenId\n     */\n    function _safeMint(address to) internal returns (uint256) {\n\n        uint256 tokenId = _safeMint(to, \"\");\n        return tokenId;\n\n    }\n\n    /**\n     * @dev Internal function to safely mint a new token.\n     * Reverts if the given token ID already exists.\n     * If the target address is a contract, it must implement `onERC721Received`,\n     * which is called upon a safe transfer, and return the magic value\n     * `bytes4(keccak256(\"onERC721Received(address,address,uint256,bytes)\"))`; otherwise,\n     * the transfer is reverted.\n     * @param to The address that will own the minted token\n     * @param data bytes data to send along with a safe transfer check\n     * @return tokenId\n     */\n    function _safeMint(address to, bytes memory data) internal returns (uint256) {\n\n        uint256 tokenId = _mint(to);\n\n        require(\n            _checkOnERC721Received(address(0), to, tokenId, data),\n            \"TRANSFER_TO_NON_ERC721RECEIVER_IMPLEMENTER\"\n        );\n\n        return tokenId;\n\n    }\n\n    /**\n     * @dev Internal function to mint a new token.\n     * Reverts if the given token ID already exists.\n     * @param to The address that will own the minted token\n     */\n    function _mint(address to) internal returns (uint256) {\n\n        require(to != address(0), \"MINT_TO_ZERO_ADDRESS\");\n\n        _tokenIds.increment();\n        uint256 tokenId = _tokenIds.current();\n\n        _tokenOwner[tokenId] = to;\n        _ownedTokensCount[to].increment();\n        _mintedTokensCount[to].increment();\n\n        emit Transfer(address(0), to, tokenId);\n\n        return tokenId;\n\n    }\n\n\n    /***  Token URIs  ***/\n\n\n    /**\n     * @dev Internal function to set the token URI for a given token.\n     * Reverts if the token ID does not exist.\n     * @param tokenId uint256 ID of the token to set its URI\n     * @param uri string URI to assign\n     */\n    function _setTokenURI(uint256 tokenId, string memory uri) internal {\n\n        require(\n            _exists(tokenId),\n            \"NON_EXISTENT_TOKEN\"\n        );\n\n        _tokenURIs[tokenId] = uri;\n\n    }\n\n    /**\n     * Throws if the token ID does not exist. May return an empty string.\n     * @param tokenId uint256 ID of the token to query\n     * @return URI for a given token ID.\n     */\n    function tokenURI(uint256 tokenId) external view returns (string memory) {\n\n        require(\n            _exists(tokenId),\n            \"NON_EXISTENT_TOKEN\"\n        );\n\n        return _tokenURIs[tokenId];\n\n    }\n\n\n    /***  Token TimeSlot data and metadata  ***/\n\n\n    function _isValidTimeSlot(\n        string memory contentId,\n        uint48 startTime,\n        uint48 endTime,\n        uint48 auctionEndTime,\n        uint32 federationId\n    ) internal view returns (bool) {\n\n        require(\n            registry.isContentIdRegisteredToCaller(federationId, contentId),\n            \"CONTENT_ID_NOT_REGISTERED_TO_CALLER\"\n        );\n\n        require(\n            startTime > auctionEndTime,\n            \"START_TIME_AFTER_AUCTION_END_TIME\"\n        );\n\n        require(\n            endTime > startTime,\n            \"START_TIME_AFTER_END_TIME\"\n        );\n\n        return true;\n\n    }\n\n\n    function _isContentIdMappedToMinter(\n        string memory contentId\n    )  internal view returns (bool) {\n\n        ContentIdStruct[] memory a = _tokenMinterToContentIds[msg.sender];\n        bool foundMatch = false;\n        for (uint i = 0; i < a.length; i++) {\n            if (stringsMatch(contentId, a[i].contentId)) {\n                foundMatch = true;\n            }\n        }\n\n        return foundMatch;\n    }\n\n\n    function _isPropertyNameMappedToMinter(\n        string memory contentId,\n        string memory propertyName\n    )  internal view returns (bool) {\n\n        PropertyNameStruct[] memory a = _tokenMinterToPropertyNames[msg.sender][contentId];\n        bool foundMatch = false;\n        for (uint i = 0; i < a.length; i++) {\n            if (stringsMatch(propertyName, a[i].propertyName)) {\n                foundMatch = true;\n            }\n        }\n\n        return foundMatch;\n    }\n\n\n    function _setTokenTimeSlot(\n        uint256 tokenId,\n        string memory contentId,\n        string memory propertyName,\n        uint48 startTime,\n        uint48 endTime,\n        uint48 auctionEndTime,\n        uint16 category,\n        bool isSecondaryTradingEnabled\n    ) internal {\n\n        require(\n            _exists(tokenId),\n            \"NON_EXISTENT_TOKEN\"\n        );\n\n        TimeSlot memory _timeSlot = TimeSlot({\n            minter: address(_msgSender()),\n            contentId: string(contentId),\n            propertyName: string(propertyName),\n            startTime: uint48(startTime),\n            endTime: uint48(endTime),\n            auctionEndTime: uint48(auctionEndTime),\n            category: uint16(category),\n            isSecondaryTradingEnabled: bool(isSecondaryTradingEnabled)\n\n        });\n\n        _tokenToTimeSlot[tokenId] = _timeSlot;\n\n        if (!_isContentIdMappedToMinter(contentId)) {\n            _tokenMinterToContentIds[_msgSender()].push( ContentIdStruct(contentId) );\n        }\n\n        if (!_isPropertyNameMappedToMinter(contentId, propertyName)) {\n            _tokenMinterToPropertyNames[_msgSender()][contentId].push( PropertyNameStruct(propertyName) );\n        }\n\n    }\n\n\n    function tokenTimeSlot(uint256 tokenId) public view returns (\n        address minter,\n        address owner,\n        string memory contentId,\n        string memory propertyName,\n        uint48 startTime,\n        uint48 endTime,\n        uint48 auctionEndTime,\n        uint16 category,\n        bool isSecondaryTradingEnabled,\n        uint32 federationId\n    ) {\n\n        require(\n            _exists(tokenId),\n            \"NON_EXISTENT_TOKEN\"\n        );\n\n        TimeSlot memory _timeSlot = _tokenToTimeSlot[tokenId];\n        uint32 _federationId = tokenToFederationId[tokenId];\n\n        return (\n            _timeSlot.minter,\n            ownerOf(tokenId),\n            _timeSlot.contentId,\n            _timeSlot.propertyName,\n            _timeSlot.startTime,\n            _timeSlot.endTime,\n            _timeSlot.auctionEndTime,\n            _timeSlot.category,\n            _timeSlot.isSecondaryTradingEnabled,\n            _federationId\n        );\n\n    }\n\n\n    /***  Token minter queries  ***/\n\n\n    /// @dev Look up all Content IDs a Minter has tokenized TimeSlots for.\n    ///      We're not getting this from the Registry because we want to keep\n    ///      a separate record here of all Content ID's the acct has *ever*\n    ///      minted tokens for. The registry is for keeping track of their\n    ///      current (not necessarily past) Content ID registrations.\n    function tokenMinterContentIds(address minter) external view returns (string[] memory) {\n\n        ContentIdStruct[] memory m = _tokenMinterToContentIds[minter];\n        string[] memory r = new string[](m.length);\n\n        for (uint i = 0; i < m.length; i++) {\n            r[i] = m[i].contentId;\n        }\n\n        return r;\n\n    }\n\n    /// @dev Look up all Property Names a Minter has created Time Slots for\n    ///      with a particular Content ID\n    function tokenMinterPropertyNames(\n        address minter,\n        string calldata contentId\n    ) external view returns (string[] memory) {\n\n        PropertyNameStruct[] memory m = _tokenMinterToPropertyNames[minter][contentId];\n        string[] memory r = new string[](m.length);\n\n        for (uint i = 0; i < m.length; i++) {\n            r[i] =  m[i].propertyName;\n        }\n\n        return r;\n\n    }\n\n\n    /**\n     * Return all the Token IDs minted by a given account.\n     * @dev This method MUST NEVER be called by smart contract code. First, it's fairly\n     *  expensive (it walks the entire _tokenIds array looking for tokens belonging to minter),\n     *  but it also returns a dynamic array, which is only supported for web3 calls, and\n     *  not contract-to-contract calls (at this time).\n     */\n    function tokensMintedBy(address minter) external view returns (uint256[] memory) {\n\n        require(\n            minter != address(0),\n            \"CANNOT_QUERY_ZERO_ADDRESS\"\n        );\n\n        uint256 tokenCount = _mintedTokensCount[minter].current();\n        if (tokenCount == 0) {\n            // Return an empty array\n            return new uint256[](0);\n        } else {\n            uint256[] memory result = new uint256[](tokenCount);\n            uint256 totalTokens = totalSupply();\n            uint256 resultIndex = 0;\n\n            // All Tokens have IDs starting at 1 and increase\n            // sequentially up to the total supply count.\n            uint256 tokenId;\n\n            for (tokenId = 1; tokenId <= totalTokens; tokenId++) {\n                if (_tokenToTimeSlot[tokenId].minter == minter) {\n                    result[resultIndex] = tokenId;\n                    resultIndex++;\n                }\n            }\n\n            return result;\n        }\n\n    }\n\n\n    /***  Token balance and ownership queries  ***/\n\n\n    /**\n     * @dev Gets the total number of tokens ever minted.\n     */\n    function totalSupply() public view returns (uint256) {\n\n        return _tokenIds.current();\n\n    }\n\n    /**\n     * @dev Gets the balance of the specified address.\n     * @param tokenOwner address to query the balance of\n     * @return uint256 representing the amount owned by the passed address\n     */\n    function balanceOf(address tokenOwner) public view returns (uint256) {\n\n        require(\n            tokenOwner != address(0),\n            \"CANNOT_QUERY_ZERO_ADDRESS\"\n        );\n\n        return _ownedTokensCount[tokenOwner].current();\n\n    }\n\n    /**\n     * @dev Gets the owner of the specified token ID.\n     * @param tokenId uint256 ID of the token to query the owner of\n     * @return address currently marked as the owner of the given token ID\n     */\n    function ownerOf(uint256 tokenId) public view returns (address) {\n\n        address tokenOwner = _tokenOwner[tokenId];\n\n        return tokenOwner;\n\n    }\n\n    /**\n     * @param tokenOwner The owner whose tokens we are interested in.\n     * @dev This method MUST NEVER be called by smart contract code. First, it's fairly\n     *  expensive (it walks the entire _tokenIds array looking for tokens belonging to owner),\n     *  but it also returns a dynamic array, which is only supported for web3 calls, and\n     *  not contract-to-contract calls (at this time).\n    */\n    function tokensOfOwner(address tokenOwner) external view returns(uint256[] memory) {\n        uint256 tokenCount = balanceOf(tokenOwner);\n        if (tokenCount == 0) {\n            // Return an empty array\n            return new uint256[](0);\n        } else {\n            uint256[] memory result = new uint256[](tokenCount);\n            uint256 totalTokens = totalSupply();\n            uint256 resultIndex = 0;\n\n            // All Tokens have IDs starting at 1 and increase\n            // sequentially up to the total count.\n            uint256 tokenId;\n\n            for (tokenId = 1; tokenId <= totalTokens; tokenId++) {\n                if (_tokenOwner[tokenId] == tokenOwner) {\n                    result[resultIndex] = tokenId;\n                    resultIndex++;\n                }\n            }\n\n            return result;\n        }\n    }\n\n\n    /***  Approvals & Transfers  ***/\n\n\n    /**\n     * @dev Approves another address to transfer the given token ID\n     * The zero address indicates there is no approved address.\n     * There can only be one approved address per token at a given time.\n     * Can only be called by the token owner or an approved operator.\n     * @param to address to be approved for the given token ID\n     * @param tokenId uint256 ID of the token to be approved\n     */\n    function approve(address to, uint256 tokenId)\n        public\n        whenNotPaused\n    {\n\n        address tokenOwner = ownerOf(tokenId);\n\n        require(\n            to != tokenOwner,\n            \"APPROVAL_IS_REDUNDANT\"\n        );\n\n        require(\n            _msgSender() == tokenOwner || isApprovedForAll(tokenOwner, _msgSender()),\n            \"CALLER_NOT_AUTHORIZED\"\n        );\n\n        _tokenApprovals[tokenId] = to;\n        emit Approval(tokenOwner, to, tokenId);\n\n    }\n\n    /**\n     * @dev Gets the approved address for a token ID, or zero if no address set\n     * Reverts if the token ID does not exist.\n     * @param tokenId uint256 ID of the token to query the approval of\n     * @return address currently approved for the given token ID\n     */\n    function getApproved(uint256 tokenId) public view returns (address) {\n\n        require(\n            _exists(tokenId),\n            \"NON_EXISTENT_TOKEN\"\n        );\n\n        return _tokenApprovals[tokenId];\n\n    }\n\n    /**\n     * @dev Sets or unsets the approval of a given operator\n     * An operator is allowed to transfer all tokens of the sender on their behalf.\n     * @param to operator address to set the approval\n     * @param approved representing the status of the approval to be set\n     */\n    function setApprovalForAll(address to, bool approved)\n        public\n        whenNotPaused\n    {\n\n        require(to != _msgSender(), \"CALLER_CANNOT_APPROVE_SELF\");\n\n        _operatorApprovals[_msgSender()][to] = approved;\n        emit ApprovalForAll(_msgSender(), to, approved);\n\n    }\n\n    /**\n     * @dev Tells whether an operator is approved by a given token owner.\n     * @param tokenOwner token owner address which you want to query the approval of\n     * @param operator operator address which you want to query the approval of\n     * @return bool whether the given operator is approved by the token owner\n     */\n    function isApprovedForAll(address tokenOwner, address operator)\n        public\n        view\n        returns (bool)\n    {\n\n        return _operatorApprovals[tokenOwner][operator];\n\n    }\n\n    /**\n     * @dev Transfers the ownership of a given token ID to another address.\n     * Usage of this method is discouraged, use {safeTransferFrom} whenever possible.\n     * Requires the msg.sender to be the owner, approved, or operator.\n     * @param from current owner of the token\n     * @param to address to receive the ownership of the given token ID\n     * @param tokenId uint256 ID of the token to be transferred\n     */\n    function transferFrom(address from, address to, uint256 tokenId)\n        public\n        whenNotPaused\n    {\n\n        require(\n            _isApprovedOrOwner(_msgSender(), tokenId),\n            \"UNAUTHORIZED_TRANSFER\"\n        );\n\n        address minter = _tokenToTimeSlot[tokenId].minter;\n        address owner = ownerOf(tokenId);\n        uint32 federationId = tokenToFederationId[tokenId];\n\n        if (_tokenToTimeSlot[tokenId].isSecondaryTradingEnabled == false) {\n            require(\n                isSecondaryTrade(from, to, tokenId) == false,\n                \"SECONDARY_TRADING_DISABLED\"\n            );\n        }\n\n        require(\n            registry.isAuthorizedTransferFrom(federationId, from, to, tokenId, minter, owner),\n            \"UNAUTHORIZED_TRANSFER\"\n        );\n\n        _transferFrom(from, to, tokenId);\n\n    }\n\n    /**\n     * @dev Safely transfers the ownership of a given token ID to another address\n     * If the target address is a contract, it must implement {IERC721Receiver-onERC721Received},\n     * which is called upon a safe transfer, and return the magic value\n     * `bytes4(keccak256(\"onERC721Received(address,address,uint256,bytes)\"))`; otherwise,\n     * the transfer is reverted.\n     * Requires the msg.sender to be the owner, approved, or operator\n     * @param from current owner of the token\n     * @param to address to receive the ownership of the given token ID\n     * @param tokenId uint256 ID of the token to be transferred\n     */\n    function safeTransferFrom(address from, address to, uint256 tokenId) public {\n\n        safeTransferFrom(from, to, tokenId, \"\");\n\n    }\n\n    /**\n     * @dev Safely transfers the ownership of a given token ID to another address\n     * If the target address is a contract, it must implement {IERC721Receiver-onERC721Received},\n     * which is called upon a safe transfer, and return the magic value\n     * `bytes4(keccak256(\"onERC721Received(address,address,uint256,bytes)\"))`; otherwise,\n     * the transfer is reverted.\n     * Requires the _msgSender() to be the owner, approved, or operator\n     * @param from current owner of the token\n     * @param to address to receive the ownership of the given token ID\n     * @param tokenId uint256 ID of the token to be transferred\n     * @param data bytes data to send along with a safe transfer check\n     */\n    function safeTransferFrom(address from, address to, uint256 tokenId, bytes memory data)\n        public\n        whenNotPaused\n    {\n\n        require(\n            _isApprovedOrOwner(_msgSender(), tokenId),\n            \"UNAUTHORIZED_TRANSFER\"\n        );\n\n        address minter = _tokenToTimeSlot[tokenId].minter;\n        address owner = ownerOf(tokenId);\n        uint32 federationId = tokenToFederationId[tokenId];\n\n        if (_tokenToTimeSlot[tokenId].isSecondaryTradingEnabled == false) {\n            require(\n                isSecondaryTrade(from, to, tokenId) == false,\n                \"SECONDARY_TRADING_DISABLED\"\n            );\n        }\n\n        require(\n            registry.isAuthorizedTransferFrom(federationId, from, to, tokenId, minter, owner),\n            \"UNAUTHORIZED_TRANSFER\"\n        );\n\n        _safeTransferFrom(from, to, tokenId, data);\n\n    }\n\n    /**\n     * @dev Safely transfers the ownership of a given token ID to another address\n     * If the target address is a contract, it must implement `onERC721Received`,\n     * which is called upon a safe transfer, and return the magic value\n     * `bytes4(keccak256(\"onERC721Received(address,address,uint256,bytes)\"))`; otherwise,\n     * the transfer is reverted.\n     * Requires the msg.sender to be the owner, approved, or operator\n     * @param from current owner of the token\n     * @param to address to receive the ownership of the given token ID\n     * @param tokenId uint256 ID of the token to be transferred\n     * @param data bytes data to send along with a safe transfer check\n     */\n    function _safeTransferFrom(address from, address to, uint256 tokenId, bytes memory data)\n        internal\n    {\n\n        _transferFrom(from, to, tokenId);\n\n        require(\n            _checkOnERC721Received(from, to, tokenId, data),\n            \"TRANSFER_TO_NON_ERC721RECEIVER_IMPLEMENTER\"\n        );\n\n    }\n\n    /**\n     * @dev Returns whether the specified token exists.\n     * @param tokenId uint256 ID of the token to query the existence of\n     * @return bool whether the token exists\n     */\n    function _exists(uint256 tokenId) internal view returns (bool) {\n\n        address tokenOwner = _tokenOwner[tokenId];\n\n        return tokenOwner != address(0);\n\n    }\n\n    /**\n     * @dev Returns whether the given spender can transfer a given token ID.\n     * @param spender address of the spender to query\n     * @param tokenId uint256 ID of the token to be transferred\n     * @return bool whether the msg.sender is approved for the given token ID,\n     * is an operator of the owner, or is the owner of the token\n     */\n    function _isApprovedOrOwner(address spender, uint256 tokenId)\n        internal\n        view\n        returns (bool)\n    {\n\n        require(\n            _exists(tokenId),\n            \"NON_EXISTENT_TOKEN\"\n        );\n\n        address tokenOwner = ownerOf(tokenId);\n\n        return (spender == tokenOwner || getApproved(tokenId) == spender || isApprovedForAll(tokenOwner, spender));\n\n    }\n\n    /**\n     * @dev Internal function to transfer ownership of a given token ID to another address.\n     *      As opposed to {transferFrom}, this imposes no restrictions on msg.sender\n     * @param from current owner of the token\n     * @param to address to receive the ownership of the given token ID\n     * @param tokenId uint256 ID of the token to be transferred\n     */\n    function _transferFrom(address from, address to, uint256 tokenId) internal {\n\n        require(\n            ownerOf(tokenId) == from,\n            \"UNAUTHORIZED_TRANSFER\"\n        );\n\n        require(\n            to != address(0),\n            \"TRANSFER_TO_ZERO_ADDRESS\"\n        );\n\n        _clearApproval(tokenId);\n\n        _ownedTokensCount[from].decrement();\n        _ownedTokensCount[to].increment();\n\n        _tokenOwner[tokenId] = to;\n\n        emit Transfer(from, to, tokenId);\n\n    }\n\n    /**\n     * @dev Internal function to invoke {IERC721Receiver-onERC721Received} on a target address.\n     * The call is not executed if the target address is not a contract.\n     *\n     * This function is deprecated.\n     * @param from address representing the previous owner of the given token ID\n     * @param to target address that will receive the tokens\n     * @param tokenId uint256 ID of the token to be transferred\n     * @param data bytes optional data to send along with the call\n     * @return bool whether the call correctly returned the expected magic value\n     */\n    function _checkOnERC721Received(address from, address to, uint256 tokenId, bytes memory data)\n        internal\n        returns (bool)\n    {\n\n        if (!to.isContract()) {\n            return true;\n        }\n\n        bytes4 retval = IERC721Receiver(to).onERC721Received(_msgSender(), from, tokenId, data);\n        return (retval == _ERC721_RECEIVED);\n\n    }\n\n    /**\n     * @dev Private function to clear current approval of a given token ID.\n     * @param tokenId uint256 ID of the token to be transferred\n     */\n    function _clearApproval(uint256 tokenId) private {\n\n        if (_tokenApprovals[tokenId] != address(0)) {\n            _tokenApprovals[tokenId] = address(0);\n        }\n\n    }\n\n\n    /***  Burn Tokens  ***/\n\n\n    // solhint-disable\n    /**\n     * @dev Customized for Microsponsors\n     *      https://github.com/OpenZeppelin/openzeppelin-contracts/blob/master/contracts/token/ERC721/ERC721Burnable.sol     * @dev Burns a specific ERC721 token.\n     * @param tokenId uint256 id of the ERC721 token to be burned\n     */\n     // solhint-enable\n    function burn(uint256 tokenId) public whenNotPaused {\n\n        address minter = _tokenToTimeSlot[tokenId].minter;\n        address tokenOwner = ownerOf(tokenId);\n        uint32 federationId = tokenToFederationId[tokenId];\n\n        if (tokenOwner == minter) {\n            require(\n                registry.isMinter(federationId, _msgSender()),\n                \"UNAUTHORIZED_BURN\"\n            );\n        }\n\n        require(\n            _isApprovedOrOwner(_msgSender(), tokenId),\n            \"UNAUTHORIZED_BURN\"\n        );\n\n        _burn(tokenId);\n\n    }\n\n\n    /**\n     * @dev Internal function to burn a specific token.\n     * Reverts if the token does not exist.\n     * Deprecated, use {_burn} instead.\n     * @param tokenOwner owner of the token to burn\n     * @param tokenId uint256 ID of the token being burned\n     */\n    function _burn(address tokenOwner, uint256 tokenId) internal {\n\n        require(\n            ownerOf(tokenId) == tokenOwner,\n            \"UNAUTHORIZED_BURN\"\n        );\n\n        _clearApproval(tokenId);\n\n        _ownedTokensCount[tokenOwner].decrement();\n        _tokenOwner[tokenId] = address(0);\n\n        // Clear token URIs (if any)\n        if (bytes(_tokenURIs[tokenId]).length != 0) {\n            delete _tokenURIs[tokenId];\n        }\n\n        // Clear time slot data\n        delete _tokenToTimeSlot[tokenId];\n\n        emit Transfer(tokenOwner, address(0), tokenId);\n\n    }\n\n    /**\n     * @dev Internal function to burn a specific token.\n     * Reverts if the token does not exist.\n     * @param tokenId uint256 ID of the token being burned\n     */\n    function _burn(uint256 tokenId) internal {\n\n        _burn(ownerOf(tokenId), tokenId);\n\n    }\n\n\n    /***  Helper fns  ***/\n\n    function stringsMatch (\n        string memory a,\n        string memory b\n    )\n        private\n        pure\n        returns (bool)\n    {\n        return (keccak256(abi.encodePacked((a))) == keccak256(abi.encodePacked((b))) );\n    }\n\n    function isSecondaryTrade (\n        address from,\n        address to,\n        uint256 tokenId\n    )\n        internal\n        view\n        returns (bool)\n    {\n\n        address minter = _tokenToTimeSlot[tokenId].minter;\n\n        if (from == minter || to == minter) {\n            return false;\n        } else {\n            return true;\n        }\n\n    }\n\n}\n",
  "sourcePath": "/Users/lauren/github/erc-721/contracts/ERC721.sol",
  "compiler": {
    "name": "solc",
    "version": "0.5.11+commit.c082d0b4.Emscripten.clang"
  },
  "schemaVersion": "3.0.10",
  "updatedAt": "2020-02-02T21:41:42.901Z",
  "devdoc": {
    "details": "see https://eips.ethereum.org/EIPS/eip-721",
    "methods": {
      "approve(address,uint256)": {
        "details": "Approves another address to transfer the given token ID The zero address indicates there is no approved address. There can only be one approved address per token at a given time. Can only be called by the token owner or an approved operator.",
        "params": {
          "to": "address to be approved for the given token ID",
          "tokenId": "uint256 ID of the token to be approved"
        }
      },
      "balanceOf(address)": {
        "details": "Gets the balance of the specified address.",
        "params": {
          "tokenOwner": "address to query the balance of"
        },
        "return": "uint256 representing the amount owned by the passed address"
      },
      "burn(uint256)": {
        "details": "Customized for MicrosponsorsBurns a specific ERC721 token.",
        "params": {
          "tokenId": "uint256 id of the ERC721 token to be burned"
        }
      },
      "getApproved(uint256)": {
        "details": "Gets the approved address for a token ID, or zero if no address set Reverts if the token ID does not exist.",
        "params": {
          "tokenId": "uint256 ID of the token to query the approval of"
        },
        "return": "address currently approved for the given token ID"
      },
      "isApprovedForAll(address,address)": {
        "details": "Tells whether an operator is approved by a given token owner.",
        "params": {
          "operator": "operator address which you want to query the approval of",
          "tokenOwner": "token owner address which you want to query the approval of"
        },
        "return": "bool whether the given operator is approved by the token owner"
      },
      "mint(string,string,uint48,uint48,uint48,uint16,bool,uint32)": {
        "details": "Function to mint tokens.",
        "return": "tokenId"
      },
      "mintWithTokenURI(string,string,uint48,uint48,uint48,uint16,bool,uint32,string)": {
        "details": "Function to mint tokens.",
        "params": {
          "tokenURI": "The token URI of the minted token."
        },
        "return": "tokenId"
      },
      "ownerOf(uint256)": {
        "details": "Gets the owner of the specified token ID.",
        "params": {
          "tokenId": "uint256 ID of the token to query the owner of"
        },
        "return": "address currently marked as the owner of the given token ID"
      },
      "pause()": {
        "details": "Called by contract owner to pause minting and transfers."
      },
      "safeMint(string,string,uint48,uint48,uint48,uint16,bool,uint32)": {
        "details": "Function to safely mint tokens.",
        "return": "tokenId"
      },
      "safeMint(string,string,uint48,uint48,uint48,uint16,bool,uint32,bytes)": {
        "details": "Function to safely mint tokens.",
        "params": {
          "data": "bytes data to send along with a safe transfer check."
        },
        "return": "tokenId"
      },
      "safeMintWithTokenURI(string,string,uint48,uint48,uint48,uint16,bool,uint32,string)": {
        "params": {
          "tokenURI": "The token URI of the minted token."
        },
        "return": "tokenId"
      },
      "safeTransferFrom(address,address,uint256)": {
        "details": "Safely transfers the ownership of a given token ID to another address If the target address is a contract, it must implement {IERC721Receiver-onERC721Received}, which is called upon a safe transfer, and return the magic value `bytes4(keccak256(\"onERC721Received(address,address,uint256,bytes)\"))`; otherwise, the transfer is reverted. Requires the msg.sender to be the owner, approved, or operator",
        "params": {
          "from": "current owner of the token",
          "to": "address to receive the ownership of the given token ID",
          "tokenId": "uint256 ID of the token to be transferred"
        }
      },
      "safeTransferFrom(address,address,uint256,bytes)": {
        "details": "Safely transfers the ownership of a given token ID to another address If the target address is a contract, it must implement {IERC721Receiver-onERC721Received}, which is called upon a safe transfer, and return the magic value `bytes4(keccak256(\"onERC721Received(address,address,uint256,bytes)\"))`; otherwise, the transfer is reverted. Requires the _msgSender() to be the owner, approved, or operator",
        "params": {
          "data": "bytes data to send along with a safe transfer check",
          "from": "current owner of the token",
          "to": "address to receive the ownership of the given token ID",
          "tokenId": "uint256 ID of the token to be transferred"
        }
      },
      "setApprovalForAll(address,bool)": {
        "details": "Sets or unsets the approval of a given operator An operator is allowed to transfer all tokens of the sender on their behalf.",
        "params": {
          "approved": "representing the status of the approval to be set",
          "to": "operator address to set the approval"
        }
      },
      "supportsInterface(bytes4)": {
        "details": "See {IERC165-supportsInterface}.     * Time complexity O(1), guaranteed to always use less than 30 000 gas."
      },
      "tokenMinterContentIds(address)": {
        "details": "Look up all Content IDs a Minter has tokenized TimeSlots for.      We're not getting this from the Registry because we want to keep      a separate record here of all Content ID's the acct has *ever*      minted tokens for. The registry is for keeping track of their      current (not necessarily past) Content ID registrations."
      },
      "tokenMinterPropertyNames(address,string)": {
        "details": "Look up all Property Names a Minter has created Time Slots for      with a particular Content ID"
      },
      "tokenURI(uint256)": {
        "params": {
          "tokenId": "uint256 ID of the token to query"
        },
        "return": "URI for a given token ID."
      },
      "tokensMintedBy(address)": {
        "details": "This method MUST NEVER be called by smart contract code. First, it's fairly expensive (it walks the entire _tokenIds array looking for tokens belonging to minter), but it also returns a dynamic array, which is only supported for web3 calls, and not contract-to-contract calls (at this time)."
      },
      "tokensOfOwner(address)": {
        "details": "This method MUST NEVER be called by smart contract code. First, it's fairly expensive (it walks the entire _tokenIds array looking for tokens belonging to owner), but it also returns a dynamic array, which is only supported for web3 calls, and not contract-to-contract calls (at this time).",
        "params": {
          "tokenOwner": "The owner whose tokens we are interested in."
        }
      },
      "totalSupply()": {
        "details": "Gets the total number of tokens ever minted."
      },
      "transferFrom(address,address,uint256)": {
        "details": "Transfers the ownership of a given token ID to another address. Usage of this method is discouraged, use {safeTransferFrom} whenever possible. Requires the msg.sender to be the owner, approved, or operator.",
        "params": {
          "from": "current owner of the token",
          "to": "address to receive the ownership of the given token ID",
          "tokenId": "uint256 ID of the token to be transferred"
        }
      },
      "transferOwnership1(address)": {
        "details": "Transfer owner (admin) functions to another address",
        "params": {
          "newOwner": "Address of new owner/ admin of contract"
        }
      },
      "unpause()": {
        "details": "Called by contract owner to unpause minting and transfers."
      },
      "updateMintFee(uint256)": {
        "details": "Update the fee (in wei) charged for minting a single token"
      },
      "updateRegistryAddress(address)": {
        "details": "Update contract address for Microsponsors Registry contract",
        "params": {
          "newAddress": "where the Registry contract lives"
        }
      },
      "withdrawBalance()": {
        "details": "Admin withdraws entire balance from contract."
      }
    },
    "title": "ERC721 Non-Fungible Token Standard basic implementation"
  },
  "userdoc": {
    "methods": {
      "tokenURI(uint256)": {
        "notice": "Throws if the token ID does not exist. May return an empty string."
      },
      "tokensMintedBy(address)": {
        "notice": "Return all the Token IDs minted by a given account."
      }
    }
  }
}