{
  "contractName": "ERC721",
  "abi": [
    {
      "constant": true,
      "inputs": [
        {
          "internalType": "bytes4",
          "name": "interfaceId",
          "type": "bytes4"
        }
      ],
      "name": "supportsInterface",
      "outputs": [
        {
          "internalType": "bool",
          "name": "",
          "type": "bool"
        }
      ],
      "payable": false,
      "stateMutability": "view",
      "type": "function"
    },
    {
      "constant": true,
      "inputs": [],
      "name": "paused",
      "outputs": [
        {
          "internalType": "bool",
          "name": "",
          "type": "bool"
        }
      ],
      "payable": false,
      "stateMutability": "view",
      "type": "function"
    },
    {
      "constant": true,
      "inputs": [],
      "name": "registry",
      "outputs": [
        {
          "internalType": "contract DeployedRegistry",
          "name": "",
          "type": "address"
        }
      ],
      "payable": false,
      "stateMutability": "view",
      "type": "function"
    },
    {
      "constant": true,
      "inputs": [],
      "name": "owner",
      "outputs": [
        {
          "internalType": "address",
          "name": "",
          "type": "address"
        }
      ],
      "payable": false,
      "stateMutability": "view",
      "type": "function"
    },
    {
      "inputs": [],
      "payable": false,
      "stateMutability": "nonpayable",
      "type": "constructor"
    },
    {
      "anonymous": false,
      "inputs": [
        {
          "indexed": true,
          "internalType": "address",
          "name": "from",
          "type": "address"
        },
        {
          "indexed": true,
          "internalType": "address",
          "name": "to",
          "type": "address"
        },
        {
          "indexed": true,
          "internalType": "uint256",
          "name": "tokenId",
          "type": "uint256"
        }
      ],
      "name": "Transfer",
      "type": "event"
    },
    {
      "anonymous": false,
      "inputs": [
        {
          "indexed": true,
          "internalType": "address",
          "name": "tokenOwner",
          "type": "address"
        },
        {
          "indexed": true,
          "internalType": "address",
          "name": "approved",
          "type": "address"
        },
        {
          "indexed": true,
          "internalType": "uint256",
          "name": "tokenId",
          "type": "uint256"
        }
      ],
      "name": "Approval",
      "type": "event"
    },
    {
      "anonymous": false,
      "inputs": [
        {
          "indexed": true,
          "internalType": "address",
          "name": "tokenOwner",
          "type": "address"
        },
        {
          "indexed": true,
          "internalType": "address",
          "name": "operator",
          "type": "address"
        },
        {
          "indexed": false,
          "internalType": "bool",
          "name": "approved",
          "type": "bool"
        }
      ],
      "name": "ApprovalForAll",
      "type": "event"
    },
    {
      "constant": false,
      "inputs": [
        {
          "internalType": "address",
          "name": "newOwner",
          "type": "address"
        }
      ],
      "name": "transferOwnership",
      "outputs": [],
      "payable": false,
      "stateMutability": "nonpayable",
      "type": "function"
    },
    {
      "constant": false,
      "inputs": [
        {
          "internalType": "address",
          "name": "newAddress",
          "type": "address"
        }
      ],
      "name": "updateRegistryAddress",
      "outputs": [],
      "payable": false,
      "stateMutability": "nonpayable",
      "type": "function"
    },
    {
      "constant": true,
      "inputs": [
        {
          "internalType": "address",
          "name": "target",
          "type": "address"
        }
      ],
      "name": "isWhitelisted",
      "outputs": [
        {
          "internalType": "bool",
          "name": "",
          "type": "bool"
        }
      ],
      "payable": false,
      "stateMutability": "view",
      "type": "function"
    },
    {
      "constant": true,
      "inputs": [
        {
          "internalType": "address",
          "name": "account",
          "type": "address"
        }
      ],
      "name": "isMinter",
      "outputs": [
        {
          "internalType": "bool",
          "name": "",
          "type": "bool"
        }
      ],
      "payable": false,
      "stateMutability": "view",
      "type": "function"
    },
    {
      "constant": false,
      "inputs": [
        {
          "internalType": "string",
          "name": "contentId",
          "type": "string"
        },
        {
          "internalType": "bytes32",
          "name": "propertyName",
          "type": "bytes32"
        },
        {
          "internalType": "uint32",
          "name": "startTime",
          "type": "uint32"
        },
        {
          "internalType": "uint32",
          "name": "endTime",
          "type": "uint32"
        },
        {
          "internalType": "uint32",
          "name": "auctionEndTime",
          "type": "uint32"
        }
      ],
      "name": "mint",
      "outputs": [
        {
          "internalType": "uint256",
          "name": "",
          "type": "uint256"
        }
      ],
      "payable": false,
      "stateMutability": "nonpayable",
      "type": "function"
    },
    {
      "constant": false,
      "inputs": [
        {
          "internalType": "string",
          "name": "contentId",
          "type": "string"
        },
        {
          "internalType": "bytes32",
          "name": "propertyName",
          "type": "bytes32"
        },
        {
          "internalType": "uint32",
          "name": "startTime",
          "type": "uint32"
        },
        {
          "internalType": "uint32",
          "name": "endTime",
          "type": "uint32"
        },
        {
          "internalType": "uint32",
          "name": "auctionEndTime",
          "type": "uint32"
        },
        {
          "internalType": "string",
          "name": "tokenURI",
          "type": "string"
        }
      ],
      "name": "mintWithTokenURI",
      "outputs": [
        {
          "internalType": "uint256",
          "name": "",
          "type": "uint256"
        }
      ],
      "payable": false,
      "stateMutability": "nonpayable",
      "type": "function"
    },
    {
      "constant": false,
      "inputs": [
        {
          "internalType": "string",
          "name": "contentId",
          "type": "string"
        },
        {
          "internalType": "bytes32",
          "name": "propertyName",
          "type": "bytes32"
        },
        {
          "internalType": "uint32",
          "name": "startTime",
          "type": "uint32"
        },
        {
          "internalType": "uint32",
          "name": "endTime",
          "type": "uint32"
        },
        {
          "internalType": "uint32",
          "name": "auctionEndTime",
          "type": "uint32"
        }
      ],
      "name": "safeMint",
      "outputs": [
        {
          "internalType": "uint256",
          "name": "",
          "type": "uint256"
        }
      ],
      "payable": false,
      "stateMutability": "nonpayable",
      "type": "function"
    },
    {
      "constant": false,
      "inputs": [
        {
          "internalType": "string",
          "name": "contentId",
          "type": "string"
        },
        {
          "internalType": "bytes32",
          "name": "propertyName",
          "type": "bytes32"
        },
        {
          "internalType": "uint32",
          "name": "startTime",
          "type": "uint32"
        },
        {
          "internalType": "uint32",
          "name": "endTime",
          "type": "uint32"
        },
        {
          "internalType": "uint32",
          "name": "auctionEndTime",
          "type": "uint32"
        },
        {
          "internalType": "bytes",
          "name": "data",
          "type": "bytes"
        }
      ],
      "name": "safeMint",
      "outputs": [
        {
          "internalType": "uint256",
          "name": "",
          "type": "uint256"
        }
      ],
      "payable": false,
      "stateMutability": "nonpayable",
      "type": "function"
    },
    {
      "constant": false,
      "inputs": [
        {
          "internalType": "string",
          "name": "contentId",
          "type": "string"
        },
        {
          "internalType": "bytes32",
          "name": "propertyName",
          "type": "bytes32"
        },
        {
          "internalType": "uint32",
          "name": "startTime",
          "type": "uint32"
        },
        {
          "internalType": "uint32",
          "name": "endTime",
          "type": "uint32"
        },
        {
          "internalType": "uint32",
          "name": "auctionEndTime",
          "type": "uint32"
        },
        {
          "internalType": "string",
          "name": "tokenURI",
          "type": "string"
        }
      ],
      "name": "safeMintWithTokenURI",
      "outputs": [
        {
          "internalType": "uint256",
          "name": "",
          "type": "uint256"
        }
      ],
      "payable": false,
      "stateMutability": "nonpayable",
      "type": "function"
    },
    {
      "constant": true,
      "inputs": [
        {
          "internalType": "uint256",
          "name": "tokenId",
          "type": "uint256"
        }
      ],
      "name": "tokenURI",
      "outputs": [
        {
          "internalType": "string",
          "name": "",
          "type": "string"
        }
      ],
      "payable": false,
      "stateMutability": "view",
      "type": "function"
    },
    {
      "constant": true,
      "inputs": [
        {
          "internalType": "uint256",
          "name": "tokenId",
          "type": "uint256"
        }
      ],
      "name": "tokenTimeSlot",
      "outputs": [
        {
          "internalType": "address",
          "name": "minter",
          "type": "address"
        },
        {
          "internalType": "string",
          "name": "contentId",
          "type": "string"
        },
        {
          "internalType": "bytes32",
          "name": "propertyName",
          "type": "bytes32"
        },
        {
          "internalType": "uint32",
          "name": "startTime",
          "type": "uint32"
        },
        {
          "internalType": "uint32",
          "name": "endTime",
          "type": "uint32"
        }
      ],
      "payable": false,
      "stateMutability": "view",
      "type": "function"
    },
    {
      "constant": true,
      "inputs": [
        {
          "internalType": "address",
          "name": "minter",
          "type": "address"
        }
      ],
      "name": "tokenMinterContentIds",
      "outputs": [
        {
          "internalType": "string[]",
          "name": "",
          "type": "string[]"
        }
      ],
      "payable": false,
      "stateMutability": "view",
      "type": "function"
    },
    {
      "constant": true,
      "inputs": [
        {
          "internalType": "address",
          "name": "minter",
          "type": "address"
        },
        {
          "internalType": "string",
          "name": "contentId",
          "type": "string"
        }
      ],
      "name": "tokenMinterPropertyNames",
      "outputs": [
        {
          "internalType": "bytes32[]",
          "name": "",
          "type": "bytes32[]"
        }
      ],
      "payable": false,
      "stateMutability": "view",
      "type": "function"
    },
    {
      "constant": true,
      "inputs": [],
      "name": "totalSupply",
      "outputs": [
        {
          "internalType": "uint256",
          "name": "",
          "type": "uint256"
        }
      ],
      "payable": false,
      "stateMutability": "view",
      "type": "function"
    },
    {
      "constant": true,
      "inputs": [
        {
          "internalType": "address",
          "name": "tokenOwner",
          "type": "address"
        }
      ],
      "name": "balanceOf",
      "outputs": [
        {
          "internalType": "uint256",
          "name": "",
          "type": "uint256"
        }
      ],
      "payable": false,
      "stateMutability": "view",
      "type": "function"
    },
    {
      "constant": true,
      "inputs": [
        {
          "internalType": "uint256",
          "name": "tokenId",
          "type": "uint256"
        }
      ],
      "name": "ownerOf",
      "outputs": [
        {
          "internalType": "address",
          "name": "",
          "type": "address"
        }
      ],
      "payable": false,
      "stateMutability": "view",
      "type": "function"
    },
    {
      "constant": true,
      "inputs": [
        {
          "internalType": "address",
          "name": "tokenOwner",
          "type": "address"
        }
      ],
      "name": "tokensOfOwner",
      "outputs": [
        {
          "internalType": "uint256[]",
          "name": "",
          "type": "uint256[]"
        }
      ],
      "payable": false,
      "stateMutability": "view",
      "type": "function"
    },
    {
      "constant": false,
      "inputs": [
        {
          "internalType": "address",
          "name": "to",
          "type": "address"
        },
        {
          "internalType": "uint256",
          "name": "tokenId",
          "type": "uint256"
        }
      ],
      "name": "approve",
      "outputs": [],
      "payable": false,
      "stateMutability": "nonpayable",
      "type": "function"
    },
    {
      "constant": true,
      "inputs": [
        {
          "internalType": "uint256",
          "name": "tokenId",
          "type": "uint256"
        }
      ],
      "name": "getApproved",
      "outputs": [
        {
          "internalType": "address",
          "name": "",
          "type": "address"
        }
      ],
      "payable": false,
      "stateMutability": "view",
      "type": "function"
    },
    {
      "constant": false,
      "inputs": [
        {
          "internalType": "address",
          "name": "to",
          "type": "address"
        },
        {
          "internalType": "bool",
          "name": "approved",
          "type": "bool"
        }
      ],
      "name": "setApprovalForAll",
      "outputs": [],
      "payable": false,
      "stateMutability": "nonpayable",
      "type": "function"
    },
    {
      "constant": true,
      "inputs": [
        {
          "internalType": "address",
          "name": "tokenOwner",
          "type": "address"
        },
        {
          "internalType": "address",
          "name": "operator",
          "type": "address"
        }
      ],
      "name": "isApprovedForAll",
      "outputs": [
        {
          "internalType": "bool",
          "name": "",
          "type": "bool"
        }
      ],
      "payable": false,
      "stateMutability": "view",
      "type": "function"
    },
    {
      "constant": false,
      "inputs": [
        {
          "internalType": "address",
          "name": "from",
          "type": "address"
        },
        {
          "internalType": "address",
          "name": "to",
          "type": "address"
        },
        {
          "internalType": "uint256",
          "name": "tokenId",
          "type": "uint256"
        }
      ],
      "name": "transferFrom",
      "outputs": [],
      "payable": false,
      "stateMutability": "nonpayable",
      "type": "function"
    },
    {
      "constant": false,
      "inputs": [
        {
          "internalType": "address",
          "name": "from",
          "type": "address"
        },
        {
          "internalType": "address",
          "name": "to",
          "type": "address"
        },
        {
          "internalType": "uint256",
          "name": "tokenId",
          "type": "uint256"
        },
        {
          "internalType": "bytes",
          "name": "data",
          "type": "bytes"
        }
      ],
      "name": "safeTransferFrom",
      "outputs": [],
      "payable": false,
      "stateMutability": "nonpayable",
      "type": "function"
    },
    {
      "constant": false,
      "inputs": [
        {
          "internalType": "address",
          "name": "from",
          "type": "address"
        },
        {
          "internalType": "address",
          "name": "to",
          "type": "address"
        },
        {
          "internalType": "uint256",
          "name": "tokenId",
          "type": "uint256"
        }
      ],
      "name": "safeTransferFrom",
      "outputs": [],
      "payable": false,
      "stateMutability": "nonpayable",
      "type": "function"
    },
    {
      "constant": false,
      "inputs": [
        {
          "internalType": "uint256",
          "name": "tokenId",
          "type": "uint256"
        }
      ],
      "name": "burn",
      "outputs": [],
      "payable": false,
      "stateMutability": "nonpayable",
      "type": "function"
    },
    {
      "constant": false,
      "inputs": [],
      "name": "pause",
      "outputs": [],
      "payable": false,
      "stateMutability": "nonpayable",
      "type": "function"
    },
    {
      "constant": false,
      "inputs": [],
      "name": "unpause",
      "outputs": [],
      "payable": false,
      "stateMutability": "nonpayable",
      "type": "function"
    }
  ],
  "bytecode": "0x60806040526000600c60006101000a81548160ff0219169083151502179055503480156200002c57600080fd5b50620000456301ffc9a760e01b620000b360201b60201c565b6200005d6380ac58cd60e01b620000b360201b60201c565b6200006d6200018b60201b60201c565b600160006101000a81548173ffffffffffffffffffffffffffffffffffffffff021916908373ffffffffffffffffffffffffffffffffffffffff16021790555062000208565b63ffffffff60e01b817bffffffffffffffffffffffffffffffffffffffffffffffffffffffff191614156200011f576040517f08c379a00000000000000000000000000000000000000000000000000000000081526004016200011690620001d5565b60405180910390fd5b6001600080837bffffffffffffffffffffffffffffffffffffffffffffffffffffffff19167bffffffffffffffffffffffffffffffffffffffffffffffffffffffff1916815260200190815260200160002060006101000a81548160ff02191690831515021790555050565b600033905090565b6000620001a2601c83620001f7565b91507f4552433136353a20696e76616c696420696e74657266616365206964000000006000830152602082019050919050565b60006020820190508181036000830152620001f08162000193565b9050919050565b600082825260208201905092915050565b614fbd80620002186000396000f3fe608060405234801561001057600080fd5b50600436106101e55760003560e01c80637b1039991161010f578063b525e308116100a2578063cd2c24ca11610071578063cd2c24ca146105da578063e5c249241461060a578063e985e9c51461063e578063f2fde38b1461066e576101e5565b8063b525e30814610542578063b88d4fde14610572578063c57a88251461058e578063c87b56dd146105aa576101e5565b80638f4e59f1116100de5780638f4e59f114610496578063a22cb465146104c6578063a4ede128146104e2578063aa271e1a14610512576101e5565b80637b103999146104205780638456cb591461043e5780638462151c146104485780638da5cb5b14610478576101e5565b806342842e0e116101875780636352211e116101565780636352211e1461036057806370a08231146103905780637668b6c5146103c05780637affcb9a146103f0576101e5565b806342842e0e146102da57806342966c68146102f6578063441d3f1b146103125780635c975abb14610342576101e5565b806318160ddd116101c357806318160ddd1461026657806323b872dd146102845780633af32abf146102a05780633f4ba83a146102d0576101e5565b806301ffc9a7146101ea578063081812fc1461021a578063095ea7b31461024a575b600080fd5b61020460048036036101ff9190810190613956565b61068a565b60405161021191906148e9565b60405180910390f35b610234600480360361022f9190810190613ba9565b6106f1565b60405161024191906147c2565b60405180910390f35b610264600480360361025f91908101906138f1565b610776565b005b61026e61099a565b60405161027b9190614c41565b60405180910390f35b61029e60048036036102999190810190613793565b6109ab565b005b6102ba60048036036102b5919081019061372e565b610ab5565b6040516102c791906148e9565b60405180910390f35b6102d8610b69565b005b6102f460048036036102ef9190810190613793565b610c36565b005b610310600480360361030b9190810190613ba9565b610c56565b005b61032c600480360361032791908101906139a8565b610ccc565b6040516103399190614c41565b60405180910390f35b61034a610db0565b60405161035791906148e9565b60405180910390f35b61037a60048036036103759190810190613ba9565b610dc3565b60405161038791906147c2565b60405180910390f35b6103aa60048036036103a5919081019061372e565b610e75565b6040516103b79190614c41565b60405180910390f35b6103da60048036036103d59190810190613a37565b610f34565b6040516103e79190614c41565b60405180910390f35b61040a60048036036104059190810190613899565b61101a565b6040516104179190614883565b60405180910390f35b610428611166565b6040516104359190614904565b60405180910390f35b61044661118c565b005b610462600480360361045d919081019061372e565b61125a565b60405161046f91906148c7565b60405180910390f35b6104806113a2565b60405161048d91906147c2565b60405180910390f35b6104b060048036036104ab9190810190613af0565b6113c8565b6040516104bd9190614c41565b60405180910390f35b6104e060048036036104db919081019061385d565b6114b7565b005b6104fc60048036036104f7919081019061372e565b6116a1565b60405161050991906148a5565b60405180910390f35b61052c6004803603610527919081019061372e565b611869565b60405161053991906148e9565b60405180910390f35b61055c600480360361055791908101906139a8565b61187b565b6040516105699190614c41565b60405180910390f35b61058c600480360361058791908101906137e2565b61195f565b005b6105a860048036036105a3919081019061372e565b611a6b565b005b6105c460048036036105bf9190810190613ba9565b611b46565b6040516105d1919061491f565b60405180910390f35b6105f460048036036105ef9190810190613af0565b611c43565b6040516106019190614c41565b60405180910390f35b610624600480360361061f9190810190613ba9565b611d32565b604051610635959493929190614829565b60405180910390f35b61065860048036036106539190810190613757565b611ee4565b60405161066591906148e9565b60405180910390f35b6106886004803603610683919081019061372e565b611f78565b005b6000806000837bffffffffffffffffffffffffffffffffffffffffffffffffffffffff19167bffffffffffffffffffffffffffffffffffffffffffffffffffffffff1916815260200190815260200160002060009054906101000a900460ff169050919050565b60006106fc82612088565b61073b576040517f08c379a000000000000000000000000000000000000000000000000000000000815260040161073290614b01565b60405180910390fd5b600a600083815260200190815260200160002060009054906101000a900473ffffffffffffffffffffffffffffffffffffffff169050919050565b6107866107816120fa565b610ab5565b6107c5576040517f08c379a00000000000000000000000000000000000000000000000000000000081526004016107bc90614c21565b60405180910390fd5b600c60009054906101000a900460ff16156107df57600080fd5b60006107ea82610dc3565b90508073ffffffffffffffffffffffffffffffffffffffff168373ffffffffffffffffffffffffffffffffffffffff16141561085b576040517f08c379a000000000000000000000000000000000000000000000000000000000815260040161085290614b41565b60405180910390fd5b8073ffffffffffffffffffffffffffffffffffffffff1661087a6120fa565b73ffffffffffffffffffffffffffffffffffffffff1614806108a957506108a8816108a36120fa565b611ee4565b5b6108e8576040517f08c379a00000000000000000000000000000000000000000000000000000000081526004016108df90614aa1565b60405180910390fd5b82600a600084815260200190815260200160002060006101000a81548173ffffffffffffffffffffffffffffffffffffffff021916908373ffffffffffffffffffffffffffffffffffffffff160217905550818373ffffffffffffffffffffffffffffffffffffffff168273ffffffffffffffffffffffffffffffffffffffff167f8c5be1e5ebec7d5bd14f71427d1e84f3dd0314c0f7b2291e5b200ac8c7c3b92560405160405180910390a4505050565b60006109a66003612102565b905090565b600c60009054906101000a900460ff16156109c557600080fd5b6109d66109d06120fa565b82612110565b610a15576040517f08c379a0000000000000000000000000000000000000000000000000000000008152600401610a0c90614b61565b60405180910390fd5b610a1e83610ab5565b610a5d576040517f08c379a0000000000000000000000000000000000000000000000000000000008152600401610a5490614a01565b60405180910390fd5b610a6682610ab5565b610aa5576040517f08c379a0000000000000000000000000000000000000000000000000000000008152600401610a9c90614a01565b60405180910390fd5b610ab08383836121ee565b505050565b6000600260009054906101000a900473ffffffffffffffffffffffffffffffffffffffff1673ffffffffffffffffffffffffffffffffffffffff16633af32abf836040518263ffffffff1660e01b8152600401610b1291906147c2565b60206040518083038186803b158015610b2a57600080fd5b505afa158015610b3e573d6000803e3d6000fd5b505050506040513d601f19601f82011682018060405250610b62919081019061392d565b9050919050565b600160009054906101000a900473ffffffffffffffffffffffffffffffffffffffff1673ffffffffffffffffffffffffffffffffffffffff16610baa6120fa565b73ffffffffffffffffffffffffffffffffffffffff1614610c00576040517f08c379a0000000000000000000000000000000000000000000000000000000008152600401610bf790614bc1565b60405180910390fd5b600c60009054906101000a900460ff16610c1957600080fd5b6000600c60006101000a81548160ff021916908315150217905550565b610c518383836040518060200160405280600081525061195f565b505050565b600c60009054906101000a900460ff1615610c7057600080fd5b610c81610c7b6120fa565b82612110565b610cc0576040517f08c379a0000000000000000000000000000000000000000000000000000000008152600401610cb790614be1565b60405180910390fd5b610cc98161241d565b50565b6000610cde610cd96120fa565b611869565b610d1d576040517f08c379a0000000000000000000000000000000000000000000000000000000008152600401610d1490614961565b60405180910390fd5b600c60009054906101000a900460ff1615610d3757600080fd5b610d42868585612432565b610d81576040517f08c379a0000000000000000000000000000000000000000000000000000000008152600401610d7890614a41565b60405180910390fd5b6000610d93610d8e6120fa565b612577565b9050610da381888888888861259e565b8091505095945050505050565b600c60009054906101000a900460ff1681565b6000806004600084815260200190815260200160002060009054906101000a900473ffffffffffffffffffffffffffffffffffffffff169050600073ffffffffffffffffffffffffffffffffffffffff168173ffffffffffffffffffffffffffffffffffffffff161415610e6c576040517f08c379a0000000000000000000000000000000000000000000000000000000008152600401610e6390614ae1565b60405180910390fd5b80915050919050565b60008073ffffffffffffffffffffffffffffffffffffffff168273ffffffffffffffffffffffffffffffffffffffff161415610ee6576040517f08c379a0000000000000000000000000000000000000000000000000000000008152600401610edd90614a81565b60405180910390fd5b610f2d600560008473ffffffffffffffffffffffffffffffffffffffff1673ffffffffffffffffffffffffffffffffffffffff168152602001908152602001600020612102565b9050919050565b6000610f46610f416120fa565b611869565b610f85576040517f08c379a0000000000000000000000000000000000000000000000000000000008152600401610f7c90614961565b60405180910390fd5b600c60009054906101000a900460ff1615610f9f57600080fd5b610faa878686612432565b610fe9576040517f08c379a0000000000000000000000000000000000000000000000000000000008152600401610fe090614a41565b60405180910390fd5b6000610ffc610ff66120fa565b846128ad565b905061100c81898989898961259e565b809150509695505050505050565b606080600760008673ffffffffffffffffffffffffffffffffffffffff1673ffffffffffffffffffffffffffffffffffffffff168152602001908152602001600020848460405161106c929190614792565b9081526020016040518091039020805480602002602001604051908101604052809291908181526020016000905b828210156110d2578382906000526020600020016040518060200160405290816000820154815250508152602001906001019061109a565b5050505090506060815160405190808252806020026020018201604052801561110a5781602001602082028038833980820191505090505b50905060008090505b82518110156111595782818151811061112857fe5b60200260200101516000015182828151811061114057fe5b6020026020010181815250508080600101915050611113565b5080925050509392505050565b600260009054906101000a900473ffffffffffffffffffffffffffffffffffffffff1681565b600160009054906101000a900473ffffffffffffffffffffffffffffffffffffffff1673ffffffffffffffffffffffffffffffffffffffff166111cd6120fa565b73ffffffffffffffffffffffffffffffffffffffff1614611223576040517f08c379a000000000000000000000000000000000000000000000000000000000815260040161121a90614bc1565b60405180910390fd5b600c60009054906101000a900460ff161561123d57600080fd5b6001600c60006101000a81548160ff021916908315150217905550565b6060600061126783610e75565b905060008114156112ab5760006040519080825280602002602001820160405280156112a25781602001602082028038833980820191505090505b5091505061139d565b6060816040519080825280602002602001820160405280156112dc5781602001602082028038833980820191505090505b50905060006112e961099a565b905060008090506000600190505b828111611394578673ffffffffffffffffffffffffffffffffffffffff166004600083815260200190815260200160002060009054906101000a900473ffffffffffffffffffffffffffffffffffffffff1673ffffffffffffffffffffffffffffffffffffffff161415611387578084838151811061137257fe5b60200260200101818152505081806001019250505b80806001019150506112f7565b83955050505050505b919050565b600160009054906101000a900473ffffffffffffffffffffffffffffffffffffffff1681565b60006113da6113d56120fa565b611869565b611419576040517f08c379a000000000000000000000000000000000000000000000000000000000815260040161141090614961565b60405180910390fd5b600c60009054906101000a900460ff161561143357600080fd5b61143e878686612432565b61147d576040517f08c379a000000000000000000000000000000000000000000000000000000000815260040161147490614a41565b60405180910390fd5b600061148f61148a6120fa565b612911565b905061149f81898989898961259e565b6114a98184612a98565b809150509695505050505050565b6114c76114c26120fa565b610ab5565b611506576040517f08c379a00000000000000000000000000000000000000000000000000000000081526004016114fd90614c21565b60405180910390fd5b600c60009054906101000a900460ff161561152057600080fd5b6115286120fa565b73ffffffffffffffffffffffffffffffffffffffff168273ffffffffffffffffffffffffffffffffffffffff161415611596576040517f08c379a000000000000000000000000000000000000000000000000000000000815260040161158d906149c1565b60405180910390fd5b80600b60006115a36120fa565b73ffffffffffffffffffffffffffffffffffffffff1673ffffffffffffffffffffffffffffffffffffffff16815260200190815260200160002060008473ffffffffffffffffffffffffffffffffffffffff1673ffffffffffffffffffffffffffffffffffffffff16815260200190815260200160002060006101000a81548160ff0219169083151502179055508173ffffffffffffffffffffffffffffffffffffffff166116506120fa565b73ffffffffffffffffffffffffffffffffffffffff167f17307eab39ab6107e8899845ad3d59bd9653f200f220920489ca2b5937696c318360405161169591906148e9565b60405180910390a35050565b606080600860008473ffffffffffffffffffffffffffffffffffffffff1673ffffffffffffffffffffffffffffffffffffffff168152602001908152602001600020805480602002602001604051908101604052809291908181526020016000905b828210156117d357838290600052602060002001604051806020016040529081600082018054600181600116156101000203166002900480601f0160208091040260200160405190810160405280929190818152602001828054600181600116156101000203166002900480156117bb5780601f10611790576101008083540402835291602001916117bb565b820191906000526020600020905b81548152906001019060200180831161179e57829003601f168201915b50505050508152505081526020019060010190611703565b5050505090506060815160405190808252806020026020018201604052801561181057816020015b60608152602001906001900390816117fb5790505b50905060008090505b825181101561185e5782818151811061182e57fe5b60200260200101516000015182828151811061184657fe5b60200260200101819052508080600101915050611819565b508092505050919050565b600061187482610ab5565b9050919050565b600061188d6118886120fa565b611869565b6118cc576040517f08c379a00000000000000000000000000000000000000000000000000000000081526004016118c390614961565b60405180910390fd5b600c60009054906101000a900460ff16156118e657600080fd5b6118f1868585612432565b611930576040517f08c379a000000000000000000000000000000000000000000000000000000000815260040161192790614a41565b60405180910390fd5b600061194261193d6120fa565b612911565b905061195281888888888861259e565b8091505095945050505050565b600c60009054906101000a900460ff161561197957600080fd5b61198284610ab5565b6119c1576040517f08c379a00000000000000000000000000000000000000000000000000000000081526004016119b890614a01565b60405180910390fd5b6119ca83610ab5565b611a09576040517f08c379a0000000000000000000000000000000000000000000000000000000008152600401611a0090614a01565b60405180910390fd5b611a1a611a146120fa565b83612110565b611a59576040517f08c379a0000000000000000000000000000000000000000000000000000000008152600401611a5090614b61565b60405180910390fd5b611a6584848484612b0c565b50505050565b600160009054906101000a900473ffffffffffffffffffffffffffffffffffffffff1673ffffffffffffffffffffffffffffffffffffffff16611aac6120fa565b73ffffffffffffffffffffffffffffffffffffffff1614611b02576040517f08c379a0000000000000000000000000000000000000000000000000000000008152600401611af990614bc1565b60405180910390fd5b80600260006101000a81548173ffffffffffffffffffffffffffffffffffffffff021916908373ffffffffffffffffffffffffffffffffffffffff16021790555050565b6060611b5182612088565b611b90576040517f08c379a0000000000000000000000000000000000000000000000000000000008152600401611b8790614c01565b60405180910390fd5b600960008381526020019081526020016000208054600181600116156101000203166002900480601f016020809104026020016040519081016040528092919081815260200182805460018160011615610100020316600290048015611c375780601f10611c0c57610100808354040283529160200191611c37565b820191906000526020600020905b815481529060010190602001808311611c1a57829003601f168201915b50505050509050919050565b6000611c55611c506120fa565b611869565b611c94576040517f08c379a0000000000000000000000000000000000000000000000000000000008152600401611c8b90614961565b60405180910390fd5b600c60009054906101000a900460ff1615611cae57600080fd5b611cb9878686612432565b611cf8576040517f08c379a0000000000000000000000000000000000000000000000000000000008152600401611cef90614a41565b60405180910390fd5b6000611d0a611d056120fa565b612577565b9050611d1a81898989898961259e565b611d248184612a98565b809150509695505050505050565b600060606000806000611d4486612088565b611d83576040517f08c379a0000000000000000000000000000000000000000000000000000000008152600401611d7a90614a21565b60405180910390fd5b6006600087815260200190815260200160002060000160009054906101000a900473ffffffffffffffffffffffffffffffffffffffff16600660008881526020019081526020016000206001016006600089815260200190815260200160002060020154600660008a815260200190815260200160002060030160009054906101000a900463ffffffff16600660008b815260200190815260200160002060030160049054906101000a900463ffffffff16838054600181600116156101000203166002900480601f016020809104026020016040519081016040528092919081815260200182805460018160011615610100020316600290048015611eca5780601f10611e9f57610100808354040283529160200191611eca565b820191906000526020600020905b815481529060010190602001808311611ead57829003601f168201915b505050505093509450945094509450945091939590929450565b6000600b60008473ffffffffffffffffffffffffffffffffffffffff1673ffffffffffffffffffffffffffffffffffffffff16815260200190815260200160002060008373ffffffffffffffffffffffffffffffffffffffff1673ffffffffffffffffffffffffffffffffffffffff16815260200190815260200160002060009054906101000a900460ff16905092915050565b600160009054906101000a900473ffffffffffffffffffffffffffffffffffffffff1673ffffffffffffffffffffffffffffffffffffffff16611fb96120fa565b73ffffffffffffffffffffffffffffffffffffffff161461200f576040517f08c379a000000000000000000000000000000000000000000000000000000000815260040161200690614bc1565b60405180910390fd5b600073ffffffffffffffffffffffffffffffffffffffff168173ffffffffffffffffffffffffffffffffffffffff16146120855780600160006101000a81548173ffffffffffffffffffffffffffffffffffffffff021916908373ffffffffffffffffffffffffffffffffffffffff1602179055505b50565b6000806004600084815260200190815260200160002060009054906101000a900473ffffffffffffffffffffffffffffffffffffffff169050600073ffffffffffffffffffffffffffffffffffffffff168173ffffffffffffffffffffffffffffffffffffffff161415915050919050565b600033905090565b600081600001549050919050565b600061211b82612088565b61215a576040517f08c379a0000000000000000000000000000000000000000000000000000000008152600401612151906149e1565b60405180910390fd5b600061216583610dc3565b90508073ffffffffffffffffffffffffffffffffffffffff168473ffffffffffffffffffffffffffffffffffffffff1614806121d457508373ffffffffffffffffffffffffffffffffffffffff166121bc846106f1565b73ffffffffffffffffffffffffffffffffffffffff16145b806121e557506121e48185611ee4565b5b91505092915050565b8273ffffffffffffffffffffffffffffffffffffffff1661220e82610dc3565b73ffffffffffffffffffffffffffffffffffffffff1614612264576040517f08c379a000000000000000000000000000000000000000000000000000000000815260040161225b90614b21565b60405180910390fd5b600073ffffffffffffffffffffffffffffffffffffffff168273ffffffffffffffffffffffffffffffffffffffff1614156122d4576040517f08c379a00000000000000000000000000000000000000000000000000000000081526004016122cb906149a1565b60405180910390fd5b6122dd81612b68565b612324600560008573ffffffffffffffffffffffffffffffffffffffff1673ffffffffffffffffffffffffffffffffffffffff168152602001908152602001600020612c26565b61236b600560008473ffffffffffffffffffffffffffffffffffffffff1673ffffffffffffffffffffffffffffffffffffffff168152602001908152602001600020612c49565b816004600083815260200190815260200160002060006101000a81548173ffffffffffffffffffffffffffffffffffffffff021916908373ffffffffffffffffffffffffffffffffffffffff160217905550808273ffffffffffffffffffffffffffffffffffffffff168473ffffffffffffffffffffffffffffffffffffffff167fddf252ad1be2c89b69c2b068fc378daa952ba7f163c4a11628f55a4df523b3ef60405160405180910390a4505050565b61242f61242982610dc3565b82612c5f565b50565b6000600260009054906101000a900473ffffffffffffffffffffffffffffffffffffffff1673ffffffffffffffffffffffffffffffffffffffff166347ba747a856040518263ffffffff1660e01b815260040161248f919061491f565b60206040518083038186803b1580156124a757600080fd5b505afa1580156124bb573d6000803e3d6000fd5b505050506040513d601f19601f820116820180604052506124df919081019061392d565b61251e576040517f08c379a000000000000000000000000000000000000000000000000000000000815260040161251590614a61565b60405180910390fd5b8263ffffffff168263ffffffff161161256c576040517f08c379a000000000000000000000000000000000000000000000000000000000815260040161256390614981565b60405180910390fd5b600190509392505050565b60008061259383604051806020016040528060008152506128ad565b905080915050919050565b6125a786612088565b6125e6576040517f08c379a00000000000000000000000000000000000000000000000000000000081526004016125dd90614ba1565b60405180910390fd5b6125ee6133c6565b6040518060c001604052806126016120fa565b73ffffffffffffffffffffffffffffffffffffffff1681526020018781526020018681526020018563ffffffff1681526020018463ffffffff1681526020018363ffffffff168152509050806006600089815260200190815260200160002060008201518160000160006101000a81548173ffffffffffffffffffffffffffffffffffffffff021916908373ffffffffffffffffffffffffffffffffffffffff16021790555060208201518160010190805190602001906126c3929190613427565b506040820151816002015560608201518160030160006101000a81548163ffffffff021916908363ffffffff16021790555060808201518160030160046101000a81548163ffffffff021916908363ffffffff16021790555060a08201518160030160086101000a81548163ffffffff021916908363ffffffff16021790555090505061274f86612ec1565b6127f0576008600061275f6120fa565b73ffffffffffffffffffffffffffffffffffffffff1673ffffffffffffffffffffffffffffffffffffffff16815260200190815260200160002060405180602001604052808881525090806001815401808255809150509060018203906000526020600020016000909192909190915060008201518160000190805190602001906127eb929190613427565b505050505b6127fa8686613051565b6128a4576007600061280a6120fa565b73ffffffffffffffffffffffffffffffffffffffff1673ffffffffffffffffffffffffffffffffffffffff1681526020019081526020016000208660405161285291906147ab565b9081526020016040518091039020604051806020016040528087815250908060018154018082558091505090600182039060005260206000200160009091929091909150600082015181600001555050505b50505050505050565b6000806128b984612911565b90506128c8600085838661315f565b612907576040517f08c379a00000000000000000000000000000000000000000000000000000000081526004016128fe90614941565b60405180910390fd5b8091505092915050565b60008073ffffffffffffffffffffffffffffffffffffffff168273ffffffffffffffffffffffffffffffffffffffff161415612982576040517f08c379a000000000000000000000000000000000000000000000000000000000815260040161297990614ac1565b60405180910390fd5b61298c6003612c49565b60006129986003612102565b9050826004600083815260200190815260200160002060006101000a81548173ffffffffffffffffffffffffffffffffffffffff021916908373ffffffffffffffffffffffffffffffffffffffff160217905550612a33600560008573ffffffffffffffffffffffffffffffffffffffff1673ffffffffffffffffffffffffffffffffffffffff168152602001908152602001600020612c49565b808373ffffffffffffffffffffffffffffffffffffffff16600073ffffffffffffffffffffffffffffffffffffffff167fddf252ad1be2c89b69c2b068fc378daa952ba7f163c4a11628f55a4df523b3ef60405160405180910390a480915050919050565b612aa182612088565b612ae0576040517f08c379a0000000000000000000000000000000000000000000000000000000008152600401612ad790614ba1565b60405180910390fd5b80600960008481526020019081526020016000209080519060200190612b079291906134a7565b505050565b612b178484846121ee565b612b238484848461315f565b612b62576040517f08c379a0000000000000000000000000000000000000000000000000000000008152600401612b5990614941565b60405180910390fd5b50505050565b600073ffffffffffffffffffffffffffffffffffffffff16600a600083815260200190815260200160002060009054906101000a900473ffffffffffffffffffffffffffffffffffffffff1673ffffffffffffffffffffffffffffffffffffffff1614612c23576000600a600083815260200190815260200160002060006101000a81548173ffffffffffffffffffffffffffffffffffffffff021916908373ffffffffffffffffffffffffffffffffffffffff1602179055505b50565b612c3e6001826000015461327d90919063ffffffff16565b816000018190555050565b6001816000016000828254019250508190555050565b8173ffffffffffffffffffffffffffffffffffffffff16612c7f82610dc3565b73ffffffffffffffffffffffffffffffffffffffff1614612cd5576040517f08c379a0000000000000000000000000000000000000000000000000000000008152600401612ccc90614b81565b60405180910390fd5b612cde81612b68565b612d25600560008473ffffffffffffffffffffffffffffffffffffffff1673ffffffffffffffffffffffffffffffffffffffff168152602001908152602001600020612c26565b60006004600083815260200190815260200160002060006101000a81548173ffffffffffffffffffffffffffffffffffffffff021916908373ffffffffffffffffffffffffffffffffffffffff16021790555060006009600083815260200190815260200160002080546001816001161561010002031660029004905014612dc757600960008281526020019081526020016000206000612dc69190613527565b5b60066000828152602001908152602001600020600080820160006101000a81549073ffffffffffffffffffffffffffffffffffffffff0219169055600182016000612e129190613527565b60028201600090556003820160006101000a81549063ffffffff02191690556003820160046101000a81549063ffffffff02191690556003820160086101000a81549063ffffffff0219169055505080600073ffffffffffffffffffffffffffffffffffffffff168373ffffffffffffffffffffffffffffffffffffffff167fddf252ad1be2c89b69c2b068fc378daa952ba7f163c4a11628f55a4df523b3ef60405160405180910390a45050565b60006060600860003373ffffffffffffffffffffffffffffffffffffffff1673ffffffffffffffffffffffffffffffffffffffff168152602001908152602001600020805480602002602001604051908101604052809291908181526020016000905b82821015612ff457838290600052602060002001604051806020016040529081600082018054600181600116156101000203166002900480601f016020809104026020016040519081016040528092919081815260200182805460018160011615610100020316600290048015612fdc5780601f10612fb157610100808354040283529160200191612fdc565b820191906000526020600020905b815481529060010190602001808311612fbf57829003601f168201915b50505050508152505081526020019060010190612f24565b505050509050600080905060008090505b82518110156130465761302f8584838151811061301e57fe5b6020026020010151600001516132c7565b1561303957600191505b8080600101915050613005565b508092505050919050565b60006060600760003373ffffffffffffffffffffffffffffffffffffffff1673ffffffffffffffffffffffffffffffffffffffff168152602001908152602001600020846040516130a291906147ab565b9081526020016040518091039020805480602002602001604051908101604052809291908181526020016000905b8282101561310857838290600052602060002001604051806020016040529081600082015481525050815260200190600101906130d0565b505050509050600080905060008090505b82518110156131535782818151811061312e57fe5b60200260200101516000015185141561314657600191505b8080600101915050613119565b50809250505092915050565b60006131808473ffffffffffffffffffffffffffffffffffffffff16613320565b61318d5760019050613275565b60008473ffffffffffffffffffffffffffffffffffffffff1663150b7a026131b36120fa565b8887876040518563ffffffff1660e01b81526004016131d594939291906147dd565b602060405180830381600087803b1580156131ef57600080fd5b505af1158015613203573d6000803e3d6000fd5b505050506040513d601f19601f82011682018060405250613227919081019061397f565b905063150b7a0260e01b7bffffffffffffffffffffffffffffffffffffffffffffffffffffffff1916817bffffffffffffffffffffffffffffffffffffffffffffffffffffffff1916149150505b949350505050565b60006132bf83836040518060400160405280601e81526020017f536166654d6174683a207375627472616374696f6e206f766572666c6f77000081525061336b565b905092915050565b6000816040516020016132da91906147ab565b604051602081830303815290604052805190602001208360405160200161330191906147ab565b6040516020818303038152906040528051906020012014905092915050565b60008060007fc5d2460186f7233c927e7db2dcc703c0e500b653ca82273b7bfad8045d85a47060001b9050833f91506000801b82141580156133625750808214155b92505050919050565b60008383111582906133b3576040517f08c379a00000000000000000000000000000000000000000000000000000000081526004016133aa919061491f565b60405180910390fd5b5060008385039050809150509392505050565b6040518060c00160405280600073ffffffffffffffffffffffffffffffffffffffff1681526020016060815260200160008019168152602001600063ffffffff168152602001600063ffffffff168152602001600063ffffffff1681525090565b828054600181600116156101000203166002900490600052602060002090601f016020900481019282601f1061346857805160ff1916838001178555613496565b82800160010185558215613496579182015b8281111561349557825182559160200191906001019061347a565b5b5090506134a3919061356f565b5090565b828054600181600116156101000203166002900490600052602060002090601f016020900481019282601f106134e857805160ff1916838001178555613516565b82800160010185558215613516579182015b828111156135155782518255916020019190600101906134fa565b5b509050613523919061356f565b5090565b50805460018160011615610100020316600290046000825580601f1061354d575061356c565b601f01602090049060005260206000209081019061356b919061356f565b5b50565b61359191905b8082111561358d576000816000905550600101613575565b5090565b90565b6000813590506135a381614ef0565b92915050565b6000813590506135b881614f07565b92915050565b6000815190506135cd81614f07565b92915050565b6000813590506135e281614f1e565b92915050565b6000813590506135f781614f35565b92915050565b60008151905061360c81614f35565b92915050565b600082601f83011261362357600080fd5b813561363661363182614c89565b614c5c565b9150808252602083016020830185838301111561365257600080fd5b61365d838284614e9d565b50505092915050565b60008083601f84011261367857600080fd5b8235905067ffffffffffffffff81111561369157600080fd5b6020830191508360018202830111156136a957600080fd5b9250929050565b600082601f8301126136c157600080fd5b81356136d46136cf82614cb5565b614c5c565b915080825260208301602083018583830111156136f057600080fd5b6136fb838284614e9d565b50505092915050565b60008135905061371381614f4c565b92915050565b60008135905061372881614f63565b92915050565b60006020828403121561374057600080fd5b600061374e84828501613594565b91505092915050565b6000806040838503121561376a57600080fd5b600061377885828601613594565b925050602061378985828601613594565b9150509250929050565b6000806000606084860312156137a857600080fd5b60006137b686828701613594565b93505060206137c786828701613594565b92505060406137d886828701613704565b9150509250925092565b600080600080608085870312156137f857600080fd5b600061380687828801613594565b945050602061381787828801613594565b935050604061382887828801613704565b925050606085013567ffffffffffffffff81111561384557600080fd5b61385187828801613612565b91505092959194509250565b6000806040838503121561387057600080fd5b600061387e85828601613594565b925050602061388f858286016135a9565b9150509250929050565b6000806000604084860312156138ae57600080fd5b60006138bc86828701613594565b935050602084013567ffffffffffffffff8111156138d957600080fd5b6138e586828701613666565b92509250509250925092565b6000806040838503121561390457600080fd5b600061391285828601613594565b925050602061392385828601613704565b9150509250929050565b60006020828403121561393f57600080fd5b600061394d848285016135be565b91505092915050565b60006020828403121561396857600080fd5b6000613976848285016135e8565b91505092915050565b60006020828403121561399157600080fd5b600061399f848285016135fd565b91505092915050565b600080600080600060a086880312156139c057600080fd5b600086013567ffffffffffffffff8111156139da57600080fd5b6139e6888289016136b0565b95505060206139f7888289016135d3565b9450506040613a0888828901613719565b9350506060613a1988828901613719565b9250506080613a2a88828901613719565b9150509295509295909350565b60008060008060008060c08789031215613a5057600080fd5b600087013567ffffffffffffffff811115613a6a57600080fd5b613a7689828a016136b0565b9650506020613a8789828a016135d3565b9550506040613a9889828a01613719565b9450506060613aa989828a01613719565b9350506080613aba89828a01613719565b92505060a087013567ffffffffffffffff811115613ad757600080fd5b613ae389828a01613612565b9150509295509295509295565b60008060008060008060c08789031215613b0957600080fd5b600087013567ffffffffffffffff811115613b2357600080fd5b613b2f89828a016136b0565b9650506020613b4089828a016135d3565b9550506040613b5189828a01613719565b9450506060613b6289828a01613719565b9350506080613b7389828a01613719565b92505060a087013567ffffffffffffffff811115613b9057600080fd5b613b9c89828a016136b0565b9150509295509295509295565b600060208284031215613bbb57600080fd5b6000613bc984828501613704565b91505092915050565b6000613bde8383613d65565b60208301905092915050565b6000613bf68383613e5a565b905092915050565b6000613c0a8383614765565b60208301905092915050565b613c1f81614deb565b82525050565b6000613c3082614d11565b613c3a8185614d7a565b9350613c4583614ce1565b8060005b83811015613c76578151613c5d8882613bd2565b9750613c6883614d53565b925050600181019050613c49565b5085935050505092915050565b6000613c8e82614d1c565b613c988185614d8b565b935083602082028501613caa85614cf1565b8060005b85811015613ce65784840389528151613cc78582613bea565b9450613cd283614d60565b925060208a01995050600181019050613cae565b50829750879550505050505092915050565b6000613d0382614d27565b613d0d8185614d9c565b9350613d1883614d01565b8060005b83811015613d49578151613d308882613bfe565b9750613d3b83614d6d565b925050600181019050613d1c565b5085935050505092915050565b613d5f81614dfd565b82525050565b613d6e81614e09565b82525050565b613d7d81614e09565b82525050565b6000613d8e82614d32565b613d988185614dad565b9350613da8818560208601614eac565b613db181614edf565b840191505092915050565b613dc581614e79565b82525050565b6000613dd78385614de0565b9350613de4838584614e9d565b82840190509392505050565b6000613dfb82614d48565b613e058185614dcf565b9350613e15818560208601614eac565b613e1e81614edf565b840191505092915050565b6000613e3482614d48565b613e3e8185614de0565b9350613e4e818560208601614eac565b80840191505092915050565b6000613e6582614d3d565b613e6f8185614dbe565b9350613e7f818560208601614eac565b613e8881614edf565b840191505092915050565b6000613ea0603283614dcf565b91507f4552433732313a207472616e7366657220746f206e6f6e20455243373231526560008301527f63656976657220696d706c656d656e74657200000000000000000000000000006020830152604082019050919050565b6000613f06603583614dcf565b91507f4552433732313a2063616c6c6572206973206e6f742077686974656c6973746560008301527f6420666f7220746865204d696e74657220726f6c6500000000000000000000006020830152604082019050919050565b6000613f6c602a83614dcf565b91507f4552433732313a2073746172742074696d65206d757374206265206265666f7260008301527f6520656e642074696d65000000000000000000000000000000000000000000006020830152604082019050919050565b6000613fd2602483614dcf565b91507f4552433732313a207472616e7366657220746f20746865207a65726f2061646460008301527f72657373000000000000000000000000000000000000000000000000000000006020830152604082019050919050565b6000614038601983614dcf565b91507f4552433732313a20617070726f766520746f2063616c6c6572000000000000006000830152602082019050919050565b6000614078602c83614dcf565b91507f4552433732313a206f70657261746f7220717565727920666f72206e6f6e657860008301527f697374656e7420746f6b656e00000000000000000000000000000000000000006020830152604082019050919050565b60006140de603483614dcf565b91507f4552433732313a207472616e73666572207265737472696374656420746f207760008301527f686974656c6973746564206164647265737365730000000000000000000000006020830152604082019050919050565b6000614144603083614dcf565b91507f4552433732313a2054696d6520736c6f7420717565727920666f72206e6f6e6560008301527f78697374656e7420746f6b656e206964000000000000000000000000000000006020830152604082019050919050565b60006141aa601983614dcf565b91507f4552433732313a20696e76616c69642074696d6520736c6f74000000000000006000830152602082019050919050565b60006141ea602e83614dcf565b91507f4552433732313a20636f6e74656e74206964206973206e6f742072656769737460008301527f6572656420746f2063616c6c65720000000000000000000000000000000000006020830152604082019050919050565b6000614250602a83614dcf565b91507f4552433732313a2062616c616e636520717565727920666f7220746865207a6560008301527f726f2061646472657373000000000000000000000000000000000000000000006020830152604082019050919050565b60006142b6603e83614dcf565b91507f4552433732313a20617070726f76652063616c6c6572206973206e6f7420746f60008301527f6b656e206f776e6572206e6f7220617070726f76656420666f7220616c6c00006020830152604082019050919050565b600061431c602083614dcf565b91507f4552433732313a206d696e7420746f20746865207a65726f20616464726573736000830152602082019050919050565b600061435c602f83614dcf565b91507f4552433732313a20746f6b656e206f776e657220717565727920666f72206e6f60008301527f6e6578697374656e7420746f6b656e00000000000000000000000000000000006020830152604082019050919050565b60006143c2602c83614dcf565b91507f4552433732313a20617070726f76656420717565727920666f72206e6f6e657860008301527f697374656e7420746f6b656e00000000000000000000000000000000000000006020830152604082019050919050565b6000614428602983614dcf565b91507f4552433732313a207472616e73666572206f6620746f6b656e2074686174206960008301527f73206e6f74206f776e00000000000000000000000000000000000000000000006020830152604082019050919050565b600061448e601d83614dcf565b91507f4552433732313a20617070726f76616c20697320726564756e64616e740000006000830152602082019050919050565b60006144ce603183614dcf565b91507f4552433732313a207472616e736665722063616c6c6572206973206e6f74206f60008301527f776e6572206e6f7220617070726f7665640000000000000000000000000000006020830152604082019050919050565b6000614534602583614dcf565b91507f4552433732313a206275726e206f6620746f6b656e2074686174206973206e6f60008301527f74206f776e0000000000000000000000000000000000000000000000000000006020830152604082019050919050565b600061459a602483614dcf565b91507f4552433732313a2055524920736574206f66206e6f6e6578697374656e74207460008301527f6f6b656e000000000000000000000000000000000000000000000000000000006020830152604082019050919050565b6000614600601b83614dcf565b91507f4552433732313a2063616c6c6572206973206e6f74206f776e657200000000006000830152602082019050919050565b6000614640602e83614dcf565b91507f4552433732313a2063616c6c6572206973206e6f7420746f6b656e206f776e6560008301527f72206e6f7220617070726f7665640000000000000000000000000000000000006020830152604082019050919050565b60006146a6602783614dcf565b91507f4552433732313a2055524920717565727920666f72206e6f6e6578697374656e60008301527f7420746f6b656e000000000000000000000000000000000000000000000000006020830152604082019050919050565b600061470c602183614dcf565b91507f4552433732313a2063616c6c6572206973206e6f742077686974656c6973746560008301527f64000000000000000000000000000000000000000000000000000000000000006020830152604082019050919050565b61476e81614e5f565b82525050565b61477d81614e5f565b82525050565b61478c81614e69565b82525050565b600061479f828486613dcb565b91508190509392505050565b60006147b78284613e29565b915081905092915050565b60006020820190506147d76000830184613c16565b92915050565b60006080820190506147f26000830187613c16565b6147ff6020830186613c16565b61480c6040830185614774565b818103606083015261481e8184613d83565b905095945050505050565b600060a08201905061483e6000830188613c16565b81810360208301526148508187613df0565b905061485f6040830186613d74565b61486c6060830185614783565b6148796080830184614783565b9695505050505050565b6000602082019050818103600083015261489d8184613c25565b905092915050565b600060208201905081810360008301526148bf8184613c83565b905092915050565b600060208201905081810360008301526148e18184613cf8565b905092915050565b60006020820190506148fe6000830184613d56565b92915050565b60006020820190506149196000830184613dbc565b92915050565b600060208201905081810360008301526149398184613df0565b905092915050565b6000602082019050818103600083015261495a81613e93565b9050919050565b6000602082019050818103600083015261497a81613ef9565b9050919050565b6000602082019050818103600083015261499a81613f5f565b9050919050565b600060208201905081810360008301526149ba81613fc5565b9050919050565b600060208201905081810360008301526149da8161402b565b9050919050565b600060208201905081810360008301526149fa8161406b565b9050919050565b60006020820190508181036000830152614a1a816140d1565b9050919050565b60006020820190508181036000830152614a3a81614137565b9050919050565b60006020820190508181036000830152614a5a8161419d565b9050919050565b60006020820190508181036000830152614a7a816141dd565b9050919050565b60006020820190508181036000830152614a9a81614243565b9050919050565b60006020820190508181036000830152614aba816142a9565b9050919050565b60006020820190508181036000830152614ada8161430f565b9050919050565b60006020820190508181036000830152614afa8161434f565b9050919050565b60006020820190508181036000830152614b1a816143b5565b9050919050565b60006020820190508181036000830152614b3a8161441b565b9050919050565b60006020820190508181036000830152614b5a81614481565b9050919050565b60006020820190508181036000830152614b7a816144c1565b9050919050565b60006020820190508181036000830152614b9a81614527565b9050919050565b60006020820190508181036000830152614bba8161458d565b9050919050565b60006020820190508181036000830152614bda816145f3565b9050919050565b60006020820190508181036000830152614bfa81614633565b9050919050565b60006020820190508181036000830152614c1a81614699565b9050919050565b60006020820190508181036000830152614c3a816146ff565b9050919050565b6000602082019050614c566000830184614774565b92915050565b6000604051905081810181811067ffffffffffffffff82111715614c7f57600080fd5b8060405250919050565b600067ffffffffffffffff821115614ca057600080fd5b601f19601f8301169050602081019050919050565b600067ffffffffffffffff821115614ccc57600080fd5b601f19601f8301169050602081019050919050565b6000819050602082019050919050565b6000819050602082019050919050565b6000819050602082019050919050565b600081519050919050565b600081519050919050565b600081519050919050565b600081519050919050565b600081519050919050565b600081519050919050565b6000602082019050919050565b6000602082019050919050565b6000602082019050919050565b600082825260208201905092915050565b600082825260208201905092915050565b600082825260208201905092915050565b600082825260208201905092915050565b600082825260208201905092915050565b600082825260208201905092915050565b600081905092915050565b6000614df682614e3f565b9050919050565b60008115159050919050565b6000819050919050565b60007fffffffff0000000000000000000000000000000000000000000000000000000082169050919050565b600073ffffffffffffffffffffffffffffffffffffffff82169050919050565b6000819050919050565b600063ffffffff82169050919050565b6000614e8482614e8b565b9050919050565b6000614e9682614e3f565b9050919050565b82818337600083830152505050565b60005b83811015614eca578082015181840152602081019050614eaf565b83811115614ed9576000848401525b50505050565b6000601f19601f8301169050919050565b614ef981614deb565b8114614f0457600080fd5b50565b614f1081614dfd565b8114614f1b57600080fd5b50565b614f2781614e09565b8114614f3257600080fd5b50565b614f3e81614e13565b8114614f4957600080fd5b50565b614f5581614e5f565b8114614f6057600080fd5b50565b614f6c81614e69565b8114614f7757600080fd5b5056fea365627a7a72315820337ba3f8661c778a349d8021043b33b1ea00fcf54cefb0a2980e3e63f9422cae6c6578706572696d656e74616cf564736f6c634300050b0040",
  "source": "pragma solidity ^0.5.11;\npragma experimental ABIEncoderV2;\n\n/**\n * Customized for Microsponsors from:\n * https://github.com/OpenZeppelin/openzeppelin-contracts/blob/master/contracts/token/ERC721/ERC721MetadataMintable.sol\n **/\n\nimport \"./IERC721.sol\";\nimport \"./IERC721Receiver.sol\";\nimport \"./SafeMath.sol\";\nimport \"./Address.sol\";\nimport \"./Counters.sol\";\nimport \"./ERC165.sol\";\n\n\n// Copy of Deployed Registry contract ABI\n// We just use the signatures of the parts we need to interact with:\ncontract DeployedRegistry {\n    mapping (address => bool) public isWhitelisted;\n    function isContentIdRegisteredToCaller(string calldata contentId) external view returns(bool);\n}\n\n\n/**\n * @title ERC721 Non-Fungible Token Standard basic implementation\n * @dev see https://eips.ethereum.org/EIPS/eip-721\n */\ncontract ERC721 is ERC165, IERC721 {\n    using SafeMath for uint256;\n    using Address for address;\n    using Counters for Counters.Counter;\n\n\n    /***  Contract data  ***/\n\n    // This contract's owner (administator)\n    address public owner;\n\n    // Microsponsors Registry (whitelist)\n    DeployedRegistry public registry;\n\n    // Equals to `bytes4(keccak256(\"onERC721Received(address,address,uint256,bytes)\"))`\n    // which can be also obtained as `IERC721Receiver(0).onERC721Received.selector`\n    bytes4 private constant _ERC721_RECEIVED = 0x150b7a02;\n\n    // All token ids minted, incremented starting at 1\n    Counters.Counter _tokenIds;\n\n    // Mapping from Token ID to Token Owner\n    mapping (uint256 => address) private _tokenOwner;\n\n    // Mapping from Token Owner to # of owned tokens\n    mapping (address => Counters.Counter) private _ownedTokensCount;\n\n    // A Token's TimeSlot metadata\n    struct TimeSlot {\n        address minter; // the address of the user who mint()'ed this time slot\n        string contentId; // the users' registered contentId containing the Property\n        bytes32 propertyName; // describes the Property within the contentId that is tokenized into time slots\n        uint32 startTime; // min timestamp (when time slot begins)\n        uint32 endTime; // max timestamp (when time slot ends)\n        uint32 auctionEndTime; // max timestamp (when auction for time slot ends)\n    }\n\n    // Mapping from Token ID to TimeSlot struct\n    mapping(uint256 => TimeSlot) private _tokenToTimeSlot;\n\n    // Mapping from Token Minter => string ContentId => array of Property Names\n    // Used to display all tokenized time slots on a property.\n    // Using struct because there is no mapping to a dynamic array of bytes32 in Solidity at this time.\n    struct PropertyNameStruct {\n        bytes32 propertyName;\n    }\n    mapping(address => mapping(string => PropertyNameStruct[])) private _tokenMinterToPropertyNames;\n\n    // Mapping from Token Minter to array of Content Ids\n    // We're not grabbing this from the Registry in case the user has private\n    // content ids they dont want exposed\n    struct ContentIdStruct {\n        string contentId;\n    }\n    mapping(address => ContentIdStruct[]) private _tokenMinterToContentIds;\n\n    // Mapping from Token ID to Token URIs\n    mapping(uint256 => string) private _tokenURIs;\n\n    // Mapping from Token ID to Approved Address\n    mapping (uint256 => address) private _tokenApprovals;\n\n    // Mapping from Token Owner to Operator Approvals\n    mapping (address => mapping (address => bool)) private _operatorApprovals;\n\n    // Pause. When true, token minting and transfers stop.\n    bool public paused = false;\n\n    /*\n     *     bytes4(keccak256('balanceOf(address)')) == 0x70a08231\n     *     bytes4(keccak256('ownerOf(uint256)')) == 0x6352211e\n     *     bytes4(keccak256('approve(address,uint256)')) == 0x095ea7b3\n     *     bytes4(keccak256('getApproved(uint256)')) == 0x081812fc\n     *     bytes4(keccak256('setApprovalForAll(address,bool)')) == 0xa22cb465\n     *     bytes4(keccak256('isApprovedForAll(address,address)')) == 0xe985e9c5\n     *     bytes4(keccak256('transferFrom(address,address,uint256)')) == 0x23b872dd\n     *     bytes4(keccak256('safeTransferFrom(address,address,uint256)')) == 0x42842e0e\n     *     bytes4(keccak256('safeTransferFrom(address,address,uint256,bytes)')) == 0xb88d4fde\n     *\n     *     => 0x70a08231 ^ 0x6352211e ^ 0x095ea7b3 ^ 0x081812fc ^\n     *        0xa22cb465 ^ 0xe985e9c ^ 0x23b872dd ^ 0x42842e0e ^ 0xb88d4fde == 0x80ac58cd\n     */\n    bytes4 private constant _INTERFACE_ID_ERC721 = 0x80ac58cd;\n\n\n    constructor () public {\n\n        // register the supported interfaces to conform to ERC721 via ERC165\n        _registerInterface(_INTERFACE_ID_ERC721);\n\n        // set the contract owner\n        owner = _msgSender();\n    }\n\n\n    /*\n     * @dev Provides information about the current execution context, including the\n     * sender of the transaction and its data. While these are generally available\n     * via msg.sender and msg.data, they not should not be accessed in such a direct\n     * manner, since when dealing with GSN meta-transactions the account sending and\n     * paying for execution may not be the actual sender (as far as an application\n     * is concerned).\n     */\n\n    function _msgSender() internal view returns (address) {\n\n        return msg.sender;\n\n    }\n\n    function _msgData() internal view returns (bytes memory) {\n\n        this; // silence state mutability warning without generating bytecode -\n              // see https://github.com/ethereum/solidity/issues/2691\n        return msg.data;\n\n    }\n\n\n    /***  Owner (Administrator) functions  ***/\n\n\n    /*\n     * @dev Sets the contract's owner (administrator)\n     * Based on 0x's Ownable, but modified here\n     * import \"@0x/contracts-utils/contracts/src/Ownable.sol\";\n     */\n    modifier onlyOwner() {\n        require(\n            _msgSender() == owner,\n            \"ERC721: caller is not owner\"\n        );\n        _;\n    }\n\n    function transferOwnership(address newOwner)\n        public\n        onlyOwner\n    {\n        if (newOwner != address(0)) {\n            owner = newOwner;\n        }\n    }\n\n    /**\n     * @dev Update address for Microsponsors Registry contract\n     * @param newAddress where the Registry contract lives\n     */\n    function updateRegistryAddress(address newAddress)\n        public\n        onlyOwner\n    {\n        registry = DeployedRegistry(newAddress);\n    }\n\n\n    /***  User account permissions  ***/\n\n\n    /**\n     * @dev Checks Registry contract for whitelisted status\n     * @param target The address to check\n     */\n    function isWhitelisted(address target) public view returns (bool) {\n        return registry.isWhitelisted(target);\n    }\n\n    /**\n     * @dev Checks if caller isWhitelisted(),\n     * throws with error message and refunds gas if not\n     */\n    modifier onlyWhitelisted() {\n\n        require(\n            isWhitelisted(_msgSender()),\n            \"ERC721: caller is not whitelisted\"\n        );\n        _;\n\n    }\n\n    /**\n     * @dev Checks if minter isWhitelisted()\n     */\n    function isMinter(address account) public view returns (bool) {\n        return isWhitelisted(account);\n    }\n\n    /**\n     * @dev Checks if caller isMinter(),\n     * throws with error message and refunds gas if not\n     */\n    modifier onlyMinter() {\n\n        require(\n            isMinter(_msgSender()),\n            \"ERC721: caller is not whitelisted for the Minter role\"\n        );\n        _;\n\n    }\n\n\n    /***  Minting tokens  ***/\n\n\n    /**\n     * @dev Function to mint tokens.\n     * @return tokenId\n     */\n    function mint(\n        string memory contentId,\n        bytes32 propertyName,\n        uint32 startTime,\n        uint32 endTime,\n        uint32 auctionEndTime\n    )\n        public\n        onlyMinter\n        whenNotPaused\n        returns (uint256)\n    {\n\n        require(\n            _isValidTimeSlot(contentId, startTime, endTime),\n            \"ERC721: invalid time slot\"\n        );\n\n        uint256 tokenId = _mint(_msgSender());\n        _setTokenTimeSlot(tokenId, contentId, propertyName, startTime, endTime, auctionEndTime);\n\n        return tokenId;\n\n    }\n\n    // solhint-disable\n    /**\n     * @dev Function to mint tokens.\n     * @param tokenURI The token URI of the minted token.\n     * @return tokenId\n     */\n    // solhint-enable\n    function mintWithTokenURI(\n        string memory contentId,\n        bytes32 propertyName,\n        uint32 startTime,\n        uint32 endTime,\n        uint32 auctionEndTime,\n        string memory tokenURI\n    )\n        public\n        onlyMinter\n        whenNotPaused\n        returns (uint256)\n    {\n\n        require(\n            _isValidTimeSlot(contentId, startTime, endTime),\n            \"ERC721: invalid time slot\"\n        );\n\n        uint256 tokenId = _mint(_msgSender());\n        _setTokenTimeSlot(tokenId, contentId, propertyName, startTime, endTime, auctionEndTime);\n        _setTokenURI(tokenId, tokenURI);\n\n        return tokenId;\n\n    }\n\n    /**\n     * @dev Function to safely mint tokens.\n     * @return tokenId\n     */\n    function safeMint(\n        string memory contentId,\n        bytes32 propertyName,\n        uint32 startTime,\n        uint32 endTime,\n        uint32 auctionEndTime\n    )\n        public\n        onlyMinter\n        whenNotPaused\n        returns (uint256)\n    {\n\n        require(\n            _isValidTimeSlot(contentId, startTime, endTime),\n            \"ERC721: invalid time slot\"\n        );\n\n        uint256 tokenId = _safeMint(_msgSender());\n        _setTokenTimeSlot(tokenId, contentId, propertyName, startTime, endTime, auctionEndTime);\n\n        return tokenId;\n\n    }\n\n    /**\n     * @dev Function to safely mint tokens.\n     * @param data bytes data to send along with a safe transfer check.\n     * @return tokenId\n     */\n    function safeMint(\n        string memory contentId,\n        bytes32 propertyName,\n        uint32 startTime,\n        uint32 endTime,\n        uint32 auctionEndTime,\n        bytes memory data\n    )\n        public\n        onlyMinter\n        whenNotPaused\n        returns (uint256)\n    {\n\n        require(\n            _isValidTimeSlot(contentId, startTime, endTime),\n            \"ERC721: invalid time slot\"\n        );\n\n        uint256 tokenId = _safeMint(_msgSender(), data);\n        _setTokenTimeSlot(tokenId, contentId, propertyName, startTime, endTime, auctionEndTime);\n\n        return tokenId;\n\n    }\n\n    // solhint-disable\n    /**\n     * Customized for Microsponsors from\n     * https://github.com/OpenZeppelin/openzeppelin-contracts/blob/master/contracts/token/ERC721/ERC721MetadataMintable.sol\n     *\n     * @dev Function to safely mint tokens.\n     * @param tokenURI The token URI of the minted token.\n     * @return tokenId\n     */\n    // solhint-enable\n    function safeMintWithTokenURI(\n        string memory contentId,\n        bytes32 propertyName,\n        uint32 startTime,\n        uint32 endTime,\n        uint32 auctionEndTime,\n        string memory tokenURI\n    )\n        public\n        onlyMinter\n        whenNotPaused\n        returns (uint256)\n    {\n\n        require(\n            _isValidTimeSlot(contentId, startTime, endTime),\n            \"ERC721: invalid time slot\"\n        );\n\n        uint256 tokenId = _safeMint(_msgSender());\n        _setTokenTimeSlot(tokenId, contentId, propertyName, startTime, endTime, auctionEndTime);\n        _setTokenURI(tokenId, tokenURI);\n\n        return tokenId;\n\n    }\n\n    /**\n     * @dev Internal function to safely mint a new token.\n     * Reverts if the given token ID already exists.\n     * If the target address is a contract, it must implement `onERC721Received`,\n     * which is called upon a safe transfer, and return the magic value\n     * `bytes4(keccak256(\"onERC721Received(address,address,uint256,bytes)\"))`; otherwise,\n     * the transfer is reverted.\n     * @param to The address that will own the minted token\n     * @return tokenId\n     */\n    function _safeMint(address to) internal returns (uint256) {\n\n        uint256 tokenId = _safeMint(to, \"\");\n        return tokenId;\n\n    }\n\n    /**\n     * @dev Internal function to safely mint a new token.\n     * Reverts if the given token ID already exists.\n     * If the target address is a contract, it must implement `onERC721Received`,\n     * which is called upon a safe transfer, and return the magic value\n     * `bytes4(keccak256(\"onERC721Received(address,address,uint256,bytes)\"))`; otherwise,\n     * the transfer is reverted.\n     * @param to The address that will own the minted token\n     * @param data bytes data to send along with a safe transfer check\n     * @return tokenId\n     */\n    function _safeMint(address to, bytes memory data) internal returns (uint256) {\n\n        uint256 tokenId = _mint(to);\n\n        require(\n            _checkOnERC721Received(address(0), to, tokenId, data),\n            \"ERC721: transfer to non ERC721Receiver implementer\"\n        );\n\n        return tokenId;\n\n    }\n\n    /**\n     * @dev Internal function to mint a new token.\n     * Reverts if the given token ID already exists.\n     * @param to The address that will own the minted token\n     */\n    function _mint(address to) internal returns (uint256) {\n\n        require(to != address(0), \"ERC721: mint to the zero address\");\n\n        _tokenIds.increment();\n        uint256 tokenId = _tokenIds.current();\n\n        _tokenOwner[tokenId] = to;\n        _ownedTokensCount[to].increment();\n\n        emit Transfer(address(0), to, tokenId);\n\n        return tokenId;\n\n    }\n\n\n    /***  Token URIs  ***/\n\n\n    /**\n     * @dev Internal function to set the token URI for a given token.\n     * Reverts if the token ID does not exist.\n     * @param tokenId uint256 ID of the token to set its URI\n     * @param uri string URI to assign\n     */\n    function _setTokenURI(uint256 tokenId, string memory uri) internal {\n\n        require(\n            _exists(tokenId),\n            \"ERC721: URI set of nonexistent token\"\n        );\n\n        _tokenURIs[tokenId] = uri;\n\n    }\n\n    /**\n     * @dev Returns an URI for a given token ID.\n     * Throws if the token ID does not exist. May return an empty string.\n     * @param tokenId uint256 ID of the token to query\n     */\n    function tokenURI(uint256 tokenId) external view returns (string memory) {\n\n        require(\n            _exists(tokenId),\n            \"ERC721: URI query for nonexistent token\"\n        );\n\n        return _tokenURIs[tokenId];\n\n    }\n\n\n    /***  Token TimeSlot data and metadata  ***/\n\n\n    function _isValidTimeSlot(\n        string memory contentId,\n        uint32 startTime,\n        uint32 endTime\n    ) internal view returns (bool) {\n\n        require(\n            registry.isContentIdRegisteredToCaller(contentId),\n            \"ERC721: content id is not registered to caller\"\n        );\n\n        require(\n            endTime > startTime,\n            \"ERC721: start time must be before end time\"\n        );\n\n        return true;\n\n    }\n\n\n    function _isContentIdMappedToMinter(\n        string memory contentId\n    )  internal view returns (bool) {\n\n        ContentIdStruct[] memory a = _tokenMinterToContentIds[msg.sender];\n        bool foundMatch = false;\n        for (uint i = 0; i < a.length; i++) {\n            if (stringsMatch(contentId, a[i].contentId)) {\n                foundMatch = true;\n            }\n        }\n\n        return foundMatch;\n    }\n\n\n    function _isPropertyNameMappedToMinter(\n        string memory contentId,\n        bytes32 propertyName\n    )  internal view returns (bool) {\n\n        PropertyNameStruct[] memory a = _tokenMinterToPropertyNames[msg.sender][contentId];\n        bool foundMatch = false;\n        for (uint i = 0; i < a.length; i++) {\n            if (propertyName == a[i].propertyName) {\n                foundMatch = true;\n            }\n        }\n\n        return foundMatch;\n    }\n\n\n    function _setTokenTimeSlot(\n        uint256 tokenId,\n        string memory contentId,\n        bytes32 propertyName,\n        uint32 startTime,\n        uint32 endTime,\n        uint32 auctionEndTime\n    ) internal {\n\n        require(\n            _exists(tokenId),\n            \"ERC721: URI set of nonexistent token\"\n        );\n\n        TimeSlot memory _timeSlot = TimeSlot({\n            minter: address(_msgSender()),\n            contentId: string(contentId),\n            propertyName: bytes32(propertyName),\n            startTime: uint32(startTime),\n            endTime: uint32(endTime),\n            auctionEndTime: uint32(auctionEndTime)\n        });\n\n        _tokenToTimeSlot[tokenId] = _timeSlot;\n\n        if (!_isContentIdMappedToMinter(contentId)) {\n            _tokenMinterToContentIds[_msgSender()].push( ContentIdStruct(contentId) );\n        }\n\n        if (!_isPropertyNameMappedToMinter(contentId, propertyName)) {\n            _tokenMinterToPropertyNames[_msgSender()][contentId].push( PropertyNameStruct(propertyName) );\n        }\n\n    }\n\n\n    function tokenTimeSlot(uint256 tokenId) external view returns (\n            address minter,\n            string memory contentId,\n            bytes32 propertyName,\n            uint32 startTime,\n            uint32 endTime\n    ) {\n\n        require(\n            _exists(tokenId),\n            \"ERC721: Time slot query for nonexistent token id\"\n        );\n\n        return (\n            _tokenToTimeSlot[tokenId].minter,\n            _tokenToTimeSlot[tokenId].contentId,\n            _tokenToTimeSlot[tokenId].propertyName,\n            _tokenToTimeSlot[tokenId].startTime,\n            _tokenToTimeSlot[tokenId].endTime\n        );\n\n    }\n\n    /// @dev Look up all Content IDs a Minter has tokenized TimeSlots on\n    ///      We're not grabbing this from the Registry in case the user has private\n    //       content ids they dont want exposed in there\n    function tokenMinterContentIds(address minter) external view returns (string[] memory) {\n\n        ContentIdStruct[] memory m = _tokenMinterToContentIds[minter];\n        string[] memory r = new string[](m.length);\n\n        for (uint i = 0; i < m.length; i++) {\n            r[i] = m[i].contentId;\n        }\n\n        return r;\n\n    }\n\n    /// @dev Look up all Property Names a Minter has tokenized on a content ID\n    function tokenMinterPropertyNames(\n        address minter,\n        string calldata contentId\n    ) external view returns (bytes32[] memory) {\n\n        PropertyNameStruct[] memory m = _tokenMinterToPropertyNames[minter][contentId];\n        bytes32[] memory r = new bytes32[](m.length);\n\n        for (uint i = 0; i < m.length; i++) {\n            r[i] =  m[i].propertyName;\n        }\n\n        return r;\n\n    }\n\n    /***  Token balance and ownership queries  ***/\n\n\n    /**\n     * @dev Gets the total number of tokens ever minted.\n     */\n    function totalSupply() public view returns (uint256) {\n\n        return _tokenIds.current();\n\n    }\n\n    /**\n     * @dev Gets the balance of the specified address.\n     * @param tokenOwner address to query the balance of\n     * @return uint256 representing the amount owned by the passed address\n     */\n    function balanceOf(address tokenOwner) public view returns (uint256) {\n\n        require(\n            tokenOwner != address(0),\n            \"ERC721: balance query for the zero address\"\n        );\n\n        return _ownedTokensCount[tokenOwner].current();\n\n    }\n\n    /**\n     * @dev Gets the owner of the specified token ID.\n     * @param tokenId uint256 ID of the token to query the owner of\n     * @return address currently marked as the owner of the given token ID\n     */\n    function ownerOf(uint256 tokenId) public view returns (address) {\n\n        address tokenOwner = _tokenOwner[tokenId];\n        require(\n            tokenOwner != address(0),\n            \"ERC721: token owner query for nonexistent token\"\n        );\n\n        return tokenOwner;\n\n    }\n\n    /**\n     * @param tokenOwner The owner whose tokens we are interested in.\n     * @dev This method MUST NEVER be called by smart contract code. First, it's fairly\n     *  expensive (it walks the entire _tokenIds array looking for tokens belonging to owner),\n     *  but it also returns a dynamic array, which is only supported for web3 calls, and\n     *  not contract-to-contract calls.\n    */\n    function tokensOfOwner(address tokenOwner) external view returns(uint256[] memory) {\n        uint256 tokenCount = balanceOf(tokenOwner);\n\n        if (tokenCount == 0) {\n            // Return an empty array\n            return new uint256[](0);\n        } else {\n            uint256[] memory result = new uint256[](tokenCount);\n            uint256 totalTokens = totalSupply();\n            uint256 resultIndex = 0;\n\n            // We count on the fact that all tokens have IDs starting at 1 and increase\n            // sequentially up to the total count.\n            uint256 tokenId;\n\n            for (tokenId = 1; tokenId <= totalTokens; tokenId++) {\n                if (_tokenOwner[tokenId] == tokenOwner) {\n                    result[resultIndex] = tokenId;\n                    resultIndex++;\n                }\n            }\n\n            return result;\n        }\n    }\n\n\n    /***  Transfers  ***/\n\n\n    /**\n     * @dev Approves another address to transfer the given token ID\n     * The zero address indicates there is no approved address.\n     * There can only be one approved address per token at a given time.\n     * Can only be called by the token owner or an approved operator.\n     * @param to address to be approved for the given token ID\n     * @param tokenId uint256 ID of the token to be approved\n     */\n    function approve(address to, uint256 tokenId)\n        public\n        onlyWhitelisted\n        whenNotPaused\n    {\n\n        address tokenOwner = ownerOf(tokenId);\n\n        require(\n            to != tokenOwner,\n            \"ERC721: approval is redundant\"\n        );\n\n        require(\n            _msgSender() == tokenOwner || isApprovedForAll(tokenOwner, _msgSender()),\n            \"ERC721: approve caller is not token owner nor approved for all\"\n        );\n\n        _tokenApprovals[tokenId] = to;\n        emit Approval(tokenOwner, to, tokenId);\n\n    }\n\n    /**\n     * @dev Gets the approved address for a token ID, or zero if no address set\n     * Reverts if the token ID does not exist.\n     * @param tokenId uint256 ID of the token to query the approval of\n     * @return address currently approved for the given token ID\n     */\n    function getApproved(uint256 tokenId) public view returns (address) {\n\n        require(\n            _exists(tokenId),\n            \"ERC721: approved query for nonexistent token\"\n        );\n\n        return _tokenApprovals[tokenId];\n\n    }\n\n    /**\n     * @dev Sets or unsets the approval of a given operator\n     * An operator is allowed to transfer all tokens of the sender on their behalf.\n     * @param to operator address to set the approval\n     * @param approved representing the status of the approval to be set\n     */\n    function setApprovalForAll(address to, bool approved)\n        public\n        onlyWhitelisted\n        whenNotPaused\n    {\n\n        require(to != _msgSender(), \"ERC721: approve to caller\");\n\n        _operatorApprovals[_msgSender()][to] = approved;\n        emit ApprovalForAll(_msgSender(), to, approved);\n\n    }\n\n    /**\n     * @dev Tells whether an operator is approved by a given token owner.\n     * @param tokenOwner token owner address which you want to query the approval of\n     * @param operator operator address which you want to query the approval of\n     * @return bool whether the given operator is approved by the token owner\n     */\n    function isApprovedForAll(address tokenOwner, address operator)\n        public\n        view\n        returns (bool)\n    {\n\n        return _operatorApprovals[tokenOwner][operator];\n\n    }\n\n    /**\n     * @dev Transfers the ownership of a given token ID to another address.\n     * Usage of this method is discouraged, use {safeTransferFrom} whenever possible.\n     * Requires the msg.sender to be the owner, approved, or operator.\n     * @param from current owner of the token\n     * @param to address to receive the ownership of the given token ID\n     * @param tokenId uint256 ID of the token to be transferred\n     */\n    function transferFrom(address from, address to, uint256 tokenId)\n        public\n        whenNotPaused\n    {\n\n        require(\n            _isApprovedOrOwner(_msgSender(), tokenId),\n            \"ERC721: transfer caller is not owner nor approved\"\n        );\n\n        require(\n            isWhitelisted(from),\n            \"ERC721: transfer restricted to whitelisted addresses\"\n        );\n\n        require(\n            isWhitelisted(to),\n            \"ERC721: transfer restricted to whitelisted addresses\"\n        );\n\n        _transferFrom(from, to, tokenId);\n\n    }\n\n    /**\n     * @dev Safely transfers the ownership of a given token ID to another address\n     * If the target address is a contract, it must implement {IERC721Receiver-onERC721Received},\n     * which is called upon a safe transfer, and return the magic value\n     * `bytes4(keccak256(\"onERC721Received(address,address,uint256,bytes)\"))`; otherwise,\n     * the transfer is reverted.\n     * Requires the msg.sender to be the owner, approved, or operator\n     * @param from current owner of the token\n     * @param to address to receive the ownership of the given token ID\n     * @param tokenId uint256 ID of the token to be transferred\n     */\n    function safeTransferFrom(address from, address to, uint256 tokenId) public {\n\n        safeTransferFrom(from, to, tokenId, \"\");\n\n    }\n\n    /**\n     * @dev Safely transfers the ownership of a given token ID to another address\n     * If the target address is a contract, it must implement {IERC721Receiver-onERC721Received},\n     * which is called upon a safe transfer, and return the magic value\n     * `bytes4(keccak256(\"onERC721Received(address,address,uint256,bytes)\"))`; otherwise,\n     * the transfer is reverted.\n     * Requires the _msgSender() to be the owner, approved, or operator\n     * @param from current owner of the token\n     * @param to address to receive the ownership of the given token ID\n     * @param tokenId uint256 ID of the token to be transferred\n     * @param data bytes data to send along with a safe transfer check\n     */\n    function safeTransferFrom(address from, address to, uint256 tokenId, bytes memory data)\n        public\n        whenNotPaused\n    {\n\n        require(\n            isWhitelisted(from),\n            \"ERC721: transfer restricted to whitelisted addresses\"\n        );\n\n        require(\n            isWhitelisted(to),\n            \"ERC721: transfer restricted to whitelisted addresses\"\n        );\n\n        require(\n            _isApprovedOrOwner(_msgSender(), tokenId),\n            \"ERC721: transfer caller is not owner nor approved\"\n        );\n\n        _safeTransferFrom(from, to, tokenId, data);\n\n    }\n\n    /**\n     * @dev Safely transfers the ownership of a given token ID to another address\n     * If the target address is a contract, it must implement `onERC721Received`,\n     * which is called upon a safe transfer, and return the magic value\n     * `bytes4(keccak256(\"onERC721Received(address,address,uint256,bytes)\"))`; otherwise,\n     * the transfer is reverted.\n     * Requires the msg.sender to be the owner, approved, or operator\n     * @param from current owner of the token\n     * @param to address to receive the ownership of the given token ID\n     * @param tokenId uint256 ID of the token to be transferred\n     * @param data bytes data to send along with a safe transfer check\n     */\n    function _safeTransferFrom(address from, address to, uint256 tokenId, bytes memory data)\n        internal\n    {\n\n        _transferFrom(from, to, tokenId);\n\n        require(\n            _checkOnERC721Received(from, to, tokenId, data),\n            \"ERC721: transfer to non ERC721Receiver implementer\"\n        );\n\n    }\n\n    /**\n     * @dev Returns whether the specified token exists.\n     * @param tokenId uint256 ID of the token to query the existence of\n     * @return bool whether the token exists\n     */\n    function _exists(uint256 tokenId) internal view returns (bool) {\n\n        address tokenOwner = _tokenOwner[tokenId];\n\n        return tokenOwner != address(0);\n\n    }\n\n    /**\n     * @dev Returns whether the given spender can transfer a given token ID.\n     * @param spender address of the spender to query\n     * @param tokenId uint256 ID of the token to be transferred\n     * @return bool whether the msg.sender is approved for the given token ID,\n     * is an operator of the owner, or is the owner of the token\n     */\n    function _isApprovedOrOwner(address spender, uint256 tokenId)\n        internal\n        view\n        returns (bool)\n    {\n\n        require(\n            _exists(tokenId),\n            \"ERC721: operator query for nonexistent token\"\n        );\n\n        address tokenOwner = ownerOf(tokenId);\n\n\n        return (spender == tokenOwner || getApproved(tokenId) == spender || isApprovedForAll(tokenOwner, spender));\n\n    }\n\n    /**\n     * @dev Internal function to transfer ownership of a given token ID to another address.\n     * As opposed to {transferFrom}, this imposes no restrictions on msg.sender.\n     * @param from current owner of the token\n     * @param to address to receive the ownership of the given token ID\n     * @param tokenId uint256 ID of the token to be transferred\n     */\n    function _transferFrom(address from, address to, uint256 tokenId) internal {\n\n        require(\n            ownerOf(tokenId) == from,\n            \"ERC721: transfer of token that is not own\"\n        );\n\n        require(\n            to != address(0),\n            \"ERC721: transfer to the zero address\"\n        );\n\n        _clearApproval(tokenId);\n\n        _ownedTokensCount[from].decrement();\n        _ownedTokensCount[to].increment();\n\n        _tokenOwner[tokenId] = to;\n\n        emit Transfer(from, to, tokenId);\n\n    }\n\n    /**\n     * @dev Internal function to invoke {IERC721Receiver-onERC721Received} on a target address.\n     * The call is not executed if the target address is not a contract.\n     *\n     * This function is deprecated.\n     * @param from address representing the previous owner of the given token ID\n     * @param to target address that will receive the tokens\n     * @param tokenId uint256 ID of the token to be transferred\n     * @param data bytes optional data to send along with the call\n     * @return bool whether the call correctly returned the expected magic value\n     */\n    function _checkOnERC721Received(address from, address to, uint256 tokenId, bytes memory data)\n        internal\n        returns (bool)\n    {\n\n        if (!to.isContract()) {\n            return true;\n        }\n\n        bytes4 retval = IERC721Receiver(to).onERC721Received(_msgSender(), from, tokenId, data);\n        return (retval == _ERC721_RECEIVED);\n\n    }\n\n    /**\n     * @dev Private function to clear current approval of a given token ID.\n     * @param tokenId uint256 ID of the token to be transferred\n     */\n    function _clearApproval(uint256 tokenId) private {\n\n        if (_tokenApprovals[tokenId] != address(0)) {\n            _tokenApprovals[tokenId] = address(0);\n        }\n\n    }\n\n\n    /***  Burn Tokens  ***/\n\n\n    // solhint-disable\n    /**\n     * Customized for Microsponsors\n     * https://github.com/OpenZeppelin/openzeppelin-contracts/blob/master/contracts/token/ERC721/ERC721Burnable.sol     * @dev Burns a specific ERC721 token.\n     * @param tokenId uint256 id of the ERC721 token to be burned.\n     */\n     // solhint-enable\n    function burn(uint256 tokenId) public whenNotPaused {\n\n        require(\n            _isApprovedOrOwner(_msgSender(), tokenId),\n            \"ERC721: caller is not token owner nor approved\"\n        );\n\n        _burn(tokenId);\n\n    }\n\n\n    /**\n     * @dev Internal function to burn a specific token.\n     * Reverts if the token does not exist.\n     * Deprecated, use {_burn} instead.\n     * @param tokenOwner owner of the token to burn\n     * @param tokenId uint256 ID of the token being burned\n     */\n    function _burn(address tokenOwner, uint256 tokenId) internal {\n\n        require(\n            ownerOf(tokenId) == tokenOwner,\n            \"ERC721: burn of token that is not own\"\n        );\n\n        _clearApproval(tokenId);\n\n        _ownedTokensCount[tokenOwner].decrement();\n        _tokenOwner[tokenId] = address(0);\n\n        // Clear token URIs (if any)\n        if (bytes(_tokenURIs[tokenId]).length != 0) {\n            delete _tokenURIs[tokenId];\n        }\n\n        // Clear time slot data\n        delete _tokenToTimeSlot[tokenId];\n\n        emit Transfer(tokenOwner, address(0), tokenId);\n\n    }\n\n    /**\n     * @dev Internal function to burn a specific token.\n     * Reverts if the token does not exist.\n     * @param tokenId uint256 ID of the token being burned\n     */\n    function _burn(uint256 tokenId) internal {\n\n        _burn(ownerOf(tokenId), tokenId);\n\n    }\n\n\n    /*** Pausable (adapted from OpenZeppelin via Cryptokitties) ***/\n\n\n    /// @dev Modifier to allow actions only when the contract IS NOT paused\n    modifier whenNotPaused() {\n        require(!paused);\n        _;\n    }\n\n    /// @dev Modifier to allow actions only when the contract IS paused\n    modifier whenPaused {\n        require(paused);\n        _;\n    }\n\n    /// @dev Called by contract owner to pause actions on this contract\n    function pause() external onlyOwner whenNotPaused {\n        paused = true;\n    }\n\n    /// @dev Called by contract owner to unpause the smart contract.\n    /// @notice This is public rather than external so it can be called by\n    ///  derived contracts.\n    function unpause() public onlyOwner whenPaused {\n        // can't unpause if contract was upgraded\n        paused = false;\n    }\n\n\n    /***  Helper fn  ***/\n\n    function stringsMatch (\n        string memory a,\n        string memory b\n    )\n        private\n        pure\n        returns (bool)\n    {\n        return (keccak256(abi.encodePacked((a))) == keccak256(abi.encodePacked((b))) );\n    }\n\n}\n",
  "sourcePath": "/Users/lauren/github/erc-721/contracts/ERC721.sol",
  "compiler": {
    "name": "solc",
    "version": "0.5.11+commit.c082d0b4.Emscripten.clang"
  },
  "schemaVersion": "3.0.10",
  "updatedAt": "2019-09-13T00:08:59.509Z",
  "devdoc": {
    "details": "see https://eips.ethereum.org/EIPS/eip-721",
    "methods": {
      "approve(address,uint256)": {
        "details": "Approves another address to transfer the given token ID The zero address indicates there is no approved address. There can only be one approved address per token at a given time. Can only be called by the token owner or an approved operator.",
        "params": {
          "to": "address to be approved for the given token ID",
          "tokenId": "uint256 ID of the token to be approved"
        }
      },
      "balanceOf(address)": {
        "details": "Gets the balance of the specified address.",
        "params": {
          "tokenOwner": "address to query the balance of"
        },
        "return": "uint256 representing the amount owned by the passed address"
      },
      "burn(uint256)": {
        "details": "Burns a specific ERC721 token.",
        "params": {
          "tokenId": "uint256 id of the ERC721 token to be burned."
        }
      },
      "getApproved(uint256)": {
        "details": "Gets the approved address for a token ID, or zero if no address set Reverts if the token ID does not exist.",
        "params": {
          "tokenId": "uint256 ID of the token to query the approval of"
        },
        "return": "address currently approved for the given token ID"
      },
      "isApprovedForAll(address,address)": {
        "details": "Tells whether an operator is approved by a given token owner.",
        "params": {
          "operator": "operator address which you want to query the approval of",
          "tokenOwner": "token owner address which you want to query the approval of"
        },
        "return": "bool whether the given operator is approved by the token owner"
      },
      "isMinter(address)": {
        "details": "Checks if minter isWhitelisted()"
      },
      "isWhitelisted(address)": {
        "details": "Checks Registry contract for whitelisted status",
        "params": {
          "target": "The address to check"
        }
      },
      "mint(string,bytes32,uint32,uint32,uint32)": {
        "details": "Function to mint tokens.",
        "return": "tokenId"
      },
      "mintWithTokenURI(string,bytes32,uint32,uint32,uint32,string)": {
        "details": "Function to mint tokens.",
        "params": {
          "tokenURI": "The token URI of the minted token."
        },
        "return": "tokenId"
      },
      "ownerOf(uint256)": {
        "details": "Gets the owner of the specified token ID.",
        "params": {
          "tokenId": "uint256 ID of the token to query the owner of"
        },
        "return": "address currently marked as the owner of the given token ID"
      },
      "pause()": {
        "details": "Called by contract owner to pause actions on this contract"
      },
      "safeMint(string,bytes32,uint32,uint32,uint32)": {
        "details": "Function to safely mint tokens.",
        "return": "tokenId"
      },
      "safeMint(string,bytes32,uint32,uint32,uint32,bytes)": {
        "details": "Function to safely mint tokens.",
        "params": {
          "data": "bytes data to send along with a safe transfer check."
        },
        "return": "tokenId"
      },
      "safeMintWithTokenURI(string,bytes32,uint32,uint32,uint32,string)": {
        "details": "Function to safely mint tokens.",
        "params": {
          "tokenURI": "The token URI of the minted token."
        },
        "return": "tokenId"
      },
      "safeTransferFrom(address,address,uint256)": {
        "details": "Safely transfers the ownership of a given token ID to another address If the target address is a contract, it must implement {IERC721Receiver-onERC721Received}, which is called upon a safe transfer, and return the magic value `bytes4(keccak256(\"onERC721Received(address,address,uint256,bytes)\"))`; otherwise, the transfer is reverted. Requires the msg.sender to be the owner, approved, or operator",
        "params": {
          "from": "current owner of the token",
          "to": "address to receive the ownership of the given token ID",
          "tokenId": "uint256 ID of the token to be transferred"
        }
      },
      "safeTransferFrom(address,address,uint256,bytes)": {
        "details": "Safely transfers the ownership of a given token ID to another address If the target address is a contract, it must implement {IERC721Receiver-onERC721Received}, which is called upon a safe transfer, and return the magic value `bytes4(keccak256(\"onERC721Received(address,address,uint256,bytes)\"))`; otherwise, the transfer is reverted. Requires the _msgSender() to be the owner, approved, or operator",
        "params": {
          "data": "bytes data to send along with a safe transfer check",
          "from": "current owner of the token",
          "to": "address to receive the ownership of the given token ID",
          "tokenId": "uint256 ID of the token to be transferred"
        }
      },
      "setApprovalForAll(address,bool)": {
        "details": "Sets or unsets the approval of a given operator An operator is allowed to transfer all tokens of the sender on their behalf.",
        "params": {
          "approved": "representing the status of the approval to be set",
          "to": "operator address to set the approval"
        }
      },
      "supportsInterface(bytes4)": {
        "details": "See {IERC165-supportsInterface}.     * Time complexity O(1), guaranteed to always use less than 30 000 gas."
      },
      "tokenMinterContentIds(address)": {
        "details": "Look up all Content IDs a Minter has tokenized TimeSlots on      We're not grabbing this from the Registry in case the user has private"
      },
      "tokenMinterPropertyNames(address,string)": {
        "details": "Look up all Property Names a Minter has tokenized on a content ID"
      },
      "tokenURI(uint256)": {
        "details": "Returns an URI for a given token ID. Throws if the token ID does not exist. May return an empty string.",
        "params": {
          "tokenId": "uint256 ID of the token to query"
        }
      },
      "tokensOfOwner(address)": {
        "details": "This method MUST NEVER be called by smart contract code. First, it's fairly expensive (it walks the entire _tokenIds array looking for tokens belonging to owner), but it also returns a dynamic array, which is only supported for web3 calls, and not contract-to-contract calls.",
        "params": {
          "tokenOwner": "The owner whose tokens we are interested in."
        }
      },
      "totalSupply()": {
        "details": "Gets the total number of tokens ever minted."
      },
      "transferFrom(address,address,uint256)": {
        "details": "Transfers the ownership of a given token ID to another address. Usage of this method is discouraged, use {safeTransferFrom} whenever possible. Requires the msg.sender to be the owner, approved, or operator.",
        "params": {
          "from": "current owner of the token",
          "to": "address to receive the ownership of the given token ID",
          "tokenId": "uint256 ID of the token to be transferred"
        }
      },
      "unpause()": {
        "details": "Called by contract owner to unpause the smart contract."
      },
      "updateRegistryAddress(address)": {
        "details": "Update address for Microsponsors Registry contract",
        "params": {
          "newAddress": "where the Registry contract lives"
        }
      }
    },
    "title": "ERC721 Non-Fungible Token Standard basic implementation"
  },
  "userdoc": {
    "methods": {
      "burn(uint256)": {
        "notice": "Customized for Microsponsors"
      },
      "safeMintWithTokenURI(string,bytes32,uint32,uint32,uint32,string)": {
        "notice": "Customized for Microsponsors from https://github.com/OpenZeppelin/openzeppelin-contracts/blob/master/contracts/token/ERC721/ERC721MetadataMintable.sol"
      },
      "unpause()": {
        "notice": "This is public rather than external so it can be called by  derived contracts."
      }
    }
  }
}