{
  "contractName": "ERC721",
  "abi": [
    {
      "constant": true,
      "inputs": [
        {
          "internalType": "bytes4",
          "name": "interfaceId",
          "type": "bytes4"
        }
      ],
      "name": "supportsInterface",
      "outputs": [
        {
          "internalType": "bool",
          "name": "",
          "type": "bool"
        }
      ],
      "payable": false,
      "stateMutability": "view",
      "type": "function"
    },
    {
      "constant": true,
      "inputs": [],
      "name": "mintFee",
      "outputs": [
        {
          "internalType": "uint256",
          "name": "",
          "type": "uint256"
        }
      ],
      "payable": false,
      "stateMutability": "view",
      "type": "function"
    },
    {
      "constant": true,
      "inputs": [
        {
          "internalType": "uint256",
          "name": "",
          "type": "uint256"
        }
      ],
      "name": "tokenToFederationId",
      "outputs": [
        {
          "internalType": "uint32",
          "name": "",
          "type": "uint32"
        }
      ],
      "payable": false,
      "stateMutability": "view",
      "type": "function"
    },
    {
      "constant": true,
      "inputs": [],
      "name": "owner2",
      "outputs": [
        {
          "internalType": "address",
          "name": "",
          "type": "address"
        }
      ],
      "payable": false,
      "stateMutability": "view",
      "type": "function"
    },
    {
      "constant": true,
      "inputs": [],
      "name": "paused",
      "outputs": [
        {
          "internalType": "bool",
          "name": "",
          "type": "bool"
        }
      ],
      "payable": false,
      "stateMutability": "view",
      "type": "function"
    },
    {
      "constant": true,
      "inputs": [],
      "name": "owner1",
      "outputs": [
        {
          "internalType": "address",
          "name": "",
          "type": "address"
        }
      ],
      "payable": false,
      "stateMutability": "view",
      "type": "function"
    },
    {
      "constant": true,
      "inputs": [],
      "name": "registry",
      "outputs": [
        {
          "internalType": "contract DeployedRegistry",
          "name": "",
          "type": "address"
        }
      ],
      "payable": false,
      "stateMutability": "view",
      "type": "function"
    },
    {
      "constant": true,
      "inputs": [],
      "name": "tokenURIBaseUrl",
      "outputs": [
        {
          "internalType": "string",
          "name": "",
          "type": "string"
        }
      ],
      "payable": false,
      "stateMutability": "view",
      "type": "function"
    },
    {
      "inputs": [],
      "payable": false,
      "stateMutability": "nonpayable",
      "type": "constructor"
    },
    {
      "anonymous": false,
      "inputs": [
        {
          "indexed": true,
          "internalType": "address",
          "name": "from",
          "type": "address"
        },
        {
          "indexed": true,
          "internalType": "address",
          "name": "to",
          "type": "address"
        },
        {
          "indexed": true,
          "internalType": "uint256",
          "name": "tokenId",
          "type": "uint256"
        }
      ],
      "name": "Transfer",
      "type": "event"
    },
    {
      "anonymous": false,
      "inputs": [
        {
          "indexed": true,
          "internalType": "address",
          "name": "tokenOwner",
          "type": "address"
        },
        {
          "indexed": true,
          "internalType": "address",
          "name": "approved",
          "type": "address"
        },
        {
          "indexed": true,
          "internalType": "uint256",
          "name": "tokenId",
          "type": "uint256"
        }
      ],
      "name": "Approval",
      "type": "event"
    },
    {
      "anonymous": false,
      "inputs": [
        {
          "indexed": true,
          "internalType": "address",
          "name": "tokenOwner",
          "type": "address"
        },
        {
          "indexed": true,
          "internalType": "address",
          "name": "operator",
          "type": "address"
        },
        {
          "indexed": false,
          "internalType": "bool",
          "name": "approved",
          "type": "bool"
        }
      ],
      "name": "ApprovalForAll",
      "type": "event"
    },
    {
      "constant": false,
      "inputs": [
        {
          "internalType": "address",
          "name": "newOwner",
          "type": "address"
        }
      ],
      "name": "transferOwnership1",
      "outputs": [],
      "payable": false,
      "stateMutability": "nonpayable",
      "type": "function"
    },
    {
      "constant": false,
      "inputs": [
        {
          "internalType": "address",
          "name": "newOwner",
          "type": "address"
        }
      ],
      "name": "transferOwnership2",
      "outputs": [],
      "payable": false,
      "stateMutability": "nonpayable",
      "type": "function"
    },
    {
      "constant": false,
      "inputs": [
        {
          "internalType": "address",
          "name": "newAddress",
          "type": "address"
        }
      ],
      "name": "updateRegistryAddress",
      "outputs": [],
      "payable": false,
      "stateMutability": "nonpayable",
      "type": "function"
    },
    {
      "constant": false,
      "inputs": [
        {
          "internalType": "uint256",
          "name": "val",
          "type": "uint256"
        }
      ],
      "name": "updateMintFee",
      "outputs": [],
      "payable": false,
      "stateMutability": "nonpayable",
      "type": "function"
    },
    {
      "constant": false,
      "inputs": [
        {
          "internalType": "string",
          "name": "val",
          "type": "string"
        }
      ],
      "name": "updateTokenURIBaseUrl",
      "outputs": [],
      "payable": false,
      "stateMutability": "nonpayable",
      "type": "function"
    },
    {
      "constant": false,
      "inputs": [],
      "name": "pause",
      "outputs": [],
      "payable": false,
      "stateMutability": "nonpayable",
      "type": "function"
    },
    {
      "constant": false,
      "inputs": [],
      "name": "unpause",
      "outputs": [],
      "payable": false,
      "stateMutability": "nonpayable",
      "type": "function"
    },
    {
      "constant": false,
      "inputs": [],
      "name": "withdrawBalance",
      "outputs": [],
      "payable": false,
      "stateMutability": "nonpayable",
      "type": "function"
    },
    {
      "constant": false,
      "inputs": [
        {
          "internalType": "string",
          "name": "contentId",
          "type": "string"
        },
        {
          "internalType": "uint48",
          "name": "startTime",
          "type": "uint48"
        },
        {
          "internalType": "uint48",
          "name": "endTime",
          "type": "uint48"
        },
        {
          "internalType": "bool",
          "name": "isSecondaryTradingEnabled",
          "type": "bool"
        },
        {
          "internalType": "uint32",
          "name": "federationId",
          "type": "uint32"
        }
      ],
      "name": "mint",
      "outputs": [
        {
          "internalType": "uint256",
          "name": "",
          "type": "uint256"
        }
      ],
      "payable": true,
      "stateMutability": "payable",
      "type": "function"
    },
    {
      "constant": false,
      "inputs": [
        {
          "internalType": "string",
          "name": "contentId",
          "type": "string"
        },
        {
          "internalType": "uint48",
          "name": "startTime",
          "type": "uint48"
        },
        {
          "internalType": "uint48",
          "name": "endTime",
          "type": "uint48"
        },
        {
          "internalType": "bool",
          "name": "isSecondaryTradingEnabled",
          "type": "bool"
        },
        {
          "internalType": "uint32",
          "name": "federationId",
          "type": "uint32"
        },
        {
          "internalType": "bytes",
          "name": "data",
          "type": "bytes"
        }
      ],
      "name": "safeMint",
      "outputs": [
        {
          "internalType": "uint256",
          "name": "",
          "type": "uint256"
        }
      ],
      "payable": true,
      "stateMutability": "payable",
      "type": "function"
    },
    {
      "constant": false,
      "inputs": [
        {
          "internalType": "string",
          "name": "contentId",
          "type": "string"
        },
        {
          "internalType": "uint48",
          "name": "startTime",
          "type": "uint48"
        },
        {
          "internalType": "uint48",
          "name": "endTime",
          "type": "uint48"
        },
        {
          "internalType": "bool",
          "name": "isSecondaryTradingEnabled",
          "type": "bool"
        },
        {
          "internalType": "uint32",
          "name": "federationId",
          "type": "uint32"
        }
      ],
      "name": "safeMint",
      "outputs": [
        {
          "internalType": "uint256",
          "name": "",
          "type": "uint256"
        }
      ],
      "payable": true,
      "stateMutability": "payable",
      "type": "function"
    },
    {
      "constant": true,
      "inputs": [
        {
          "internalType": "uint256",
          "name": "tokenId",
          "type": "uint256"
        }
      ],
      "name": "tokenURI",
      "outputs": [
        {
          "internalType": "string",
          "name": "",
          "type": "string"
        }
      ],
      "payable": false,
      "stateMutability": "view",
      "type": "function"
    },
    {
      "constant": true,
      "inputs": [
        {
          "internalType": "uint256",
          "name": "tokenId",
          "type": "uint256"
        }
      ],
      "name": "tokenTimeSlot",
      "outputs": [
        {
          "internalType": "address",
          "name": "minter",
          "type": "address"
        },
        {
          "internalType": "address",
          "name": "owner",
          "type": "address"
        },
        {
          "internalType": "string",
          "name": "contentId",
          "type": "string"
        },
        {
          "internalType": "uint48",
          "name": "startTime",
          "type": "uint48"
        },
        {
          "internalType": "uint48",
          "name": "endTime",
          "type": "uint48"
        },
        {
          "internalType": "bool",
          "name": "isSecondaryTradingEnabled",
          "type": "bool"
        },
        {
          "internalType": "uint32",
          "name": "federationId",
          "type": "uint32"
        }
      ],
      "payable": false,
      "stateMutability": "view",
      "type": "function"
    },
    {
      "constant": true,
      "inputs": [
        {
          "internalType": "address",
          "name": "minter",
          "type": "address"
        }
      ],
      "name": "tokenMinterContentIds",
      "outputs": [
        {
          "internalType": "string[]",
          "name": "",
          "type": "string[]"
        }
      ],
      "payable": false,
      "stateMutability": "view",
      "type": "function"
    },
    {
      "constant": true,
      "inputs": [
        {
          "internalType": "address",
          "name": "minter",
          "type": "address"
        }
      ],
      "name": "tokensMintedBy",
      "outputs": [
        {
          "internalType": "uint256[]",
          "name": "",
          "type": "uint256[]"
        }
      ],
      "payable": false,
      "stateMutability": "view",
      "type": "function"
    },
    {
      "constant": true,
      "inputs": [],
      "name": "totalSupply",
      "outputs": [
        {
          "internalType": "uint256",
          "name": "",
          "type": "uint256"
        }
      ],
      "payable": false,
      "stateMutability": "view",
      "type": "function"
    },
    {
      "constant": true,
      "inputs": [
        {
          "internalType": "address",
          "name": "tokenOwner",
          "type": "address"
        }
      ],
      "name": "balanceOf",
      "outputs": [
        {
          "internalType": "uint256",
          "name": "",
          "type": "uint256"
        }
      ],
      "payable": false,
      "stateMutability": "view",
      "type": "function"
    },
    {
      "constant": true,
      "inputs": [
        {
          "internalType": "uint256",
          "name": "tokenId",
          "type": "uint256"
        }
      ],
      "name": "ownerOf",
      "outputs": [
        {
          "internalType": "address",
          "name": "",
          "type": "address"
        }
      ],
      "payable": false,
      "stateMutability": "view",
      "type": "function"
    },
    {
      "constant": true,
      "inputs": [
        {
          "internalType": "address",
          "name": "tokenOwner",
          "type": "address"
        }
      ],
      "name": "tokensOfOwner",
      "outputs": [
        {
          "internalType": "uint256[]",
          "name": "",
          "type": "uint256[]"
        }
      ],
      "payable": false,
      "stateMutability": "view",
      "type": "function"
    },
    {
      "constant": false,
      "inputs": [
        {
          "internalType": "address",
          "name": "to",
          "type": "address"
        },
        {
          "internalType": "uint256",
          "name": "tokenId",
          "type": "uint256"
        }
      ],
      "name": "approve",
      "outputs": [],
      "payable": false,
      "stateMutability": "nonpayable",
      "type": "function"
    },
    {
      "constant": true,
      "inputs": [
        {
          "internalType": "uint256",
          "name": "tokenId",
          "type": "uint256"
        }
      ],
      "name": "getApproved",
      "outputs": [
        {
          "internalType": "address",
          "name": "",
          "type": "address"
        }
      ],
      "payable": false,
      "stateMutability": "view",
      "type": "function"
    },
    {
      "constant": false,
      "inputs": [
        {
          "internalType": "address",
          "name": "to",
          "type": "address"
        },
        {
          "internalType": "bool",
          "name": "approved",
          "type": "bool"
        }
      ],
      "name": "setApprovalForAll",
      "outputs": [],
      "payable": false,
      "stateMutability": "nonpayable",
      "type": "function"
    },
    {
      "constant": true,
      "inputs": [
        {
          "internalType": "address",
          "name": "tokenOwner",
          "type": "address"
        },
        {
          "internalType": "address",
          "name": "operator",
          "type": "address"
        }
      ],
      "name": "isApprovedForAll",
      "outputs": [
        {
          "internalType": "bool",
          "name": "",
          "type": "bool"
        }
      ],
      "payable": false,
      "stateMutability": "view",
      "type": "function"
    },
    {
      "constant": false,
      "inputs": [
        {
          "internalType": "address",
          "name": "from",
          "type": "address"
        },
        {
          "internalType": "address",
          "name": "to",
          "type": "address"
        },
        {
          "internalType": "uint256",
          "name": "tokenId",
          "type": "uint256"
        }
      ],
      "name": "transferFrom",
      "outputs": [],
      "payable": false,
      "stateMutability": "nonpayable",
      "type": "function"
    },
    {
      "constant": false,
      "inputs": [
        {
          "internalType": "address",
          "name": "from",
          "type": "address"
        },
        {
          "internalType": "address",
          "name": "to",
          "type": "address"
        },
        {
          "internalType": "uint256",
          "name": "tokenId",
          "type": "uint256"
        },
        {
          "internalType": "bytes",
          "name": "data",
          "type": "bytes"
        }
      ],
      "name": "safeTransferFrom",
      "outputs": [],
      "payable": false,
      "stateMutability": "nonpayable",
      "type": "function"
    },
    {
      "constant": false,
      "inputs": [
        {
          "internalType": "address",
          "name": "from",
          "type": "address"
        },
        {
          "internalType": "address",
          "name": "to",
          "type": "address"
        },
        {
          "internalType": "uint256",
          "name": "tokenId",
          "type": "uint256"
        }
      ],
      "name": "safeTransferFrom",
      "outputs": [],
      "payable": false,
      "stateMutability": "nonpayable",
      "type": "function"
    },
    {
      "constant": false,
      "inputs": [
        {
          "internalType": "uint256",
          "name": "tokenId",
          "type": "uint256"
        }
      ],
      "name": "burn",
      "outputs": [],
      "payable": false,
      "stateMutability": "nonpayable",
      "type": "function"
    }
  ],
  "bytecode": "0x6002805460ff60a01b19169055655af3107a400060035560a06040819052600060808190526200003291600c91620001b6565b503480156200004057600080fd5b50620000757f01ffc9a7000000000000000000000000000000000000000000000000000000006001600160e01b036200010c16565b620000a97f80ac58cd000000000000000000000000000000000000000000000000000000006001600160e01b036200010c16565b620000bc6001600160e01b03620001b116565b600180546001600160a01b0319166001600160a01b0392909216919091179055620000e6620001b1565b600280546001600160a01b0319166001600160a01b0392909216919091179055620002b4565b7fffffffff00000000000000000000000000000000000000000000000000000000808216141562000174576040517f08c379a00000000000000000000000000000000000000000000000000000000081526004016200016b9062000293565b60405180910390fd5b7fffffffff00000000000000000000000000000000000000000000000000000000166000908152602081905260409020805460ff19166001179055565b335b90565b828054600181600116156101000203166002900490600052602060002090601f016020900481019282601f10620001f957805160ff191683800117855562000229565b8280016001018555821562000229579182015b82811115620002295782518255916020019190600101906200020c565b50620002379291506200023b565b5090565b620001b391905b8082111562000237576000815560010162000242565b600062000267601c83620002ab565b7f4552433136353a20696e76616c696420696e7465726661636520696400000000815260200192915050565b60208082528101620002a58162000258565b92915050565b90815260200190565b61367b80620002c46000396000f3fe6080604052600436106102045760003560e01c80637368891411610118578063b88d4fde116100a0578063e4bacbc51161006f578063e4bacbc5146105bf578063e5c24924146105d4578063e89fecc014610607578063e982d5a91461061a578063e985e9c51461063a57610204565b8063b88d4fde14610532578063c57a882514610552578063c87b56dd14610572578063e2b375a91461059f57610204565b80638456cb59116100e75780638456cb591461049d5780638462151c146104b2578063a002c376146104d2578063a22cb465146104e5578063a4ede1281461050557610204565b80637368891414610426578063748b0fa11461043b5780637b1039991461045b57806384017e521461047d57610204565b80633f4ba83a1161019b5780635a393bc21161016a5780635a393bc2146103a95780635c975abb146103bc5780635fd8c710146103d15780636352211e146103e657806370a082311461040657610204565b80633f4ba83a1461033f57806342842e0e1461035457806342966c6814610374578063527097251461039457610204565b8063180b9e3f116101d7578063180b9e3f146102b057806318160ddd146102dd57806323b872dd146102f25780632a0c77991461031257610204565b806301ffc9a714610209578063081812fc1461023f578063095ea7b31461026c57806313966db51461028e575b600080fd5b34801561021557600080fd5b506102296102243660046129b6565b61065a565b6040516102369190613301565b60405180910390f35b34801561024b57600080fd5b5061025f61025a366004612b69565b61067d565b604051610236919061321e565b34801561027857600080fd5b5061028c610287366004612968565b6106c9565b005b34801561029a57600080fd5b506102a36107c5565b604051610236919061344e565b3480156102bc57600080fd5b506102d06102cb366004612b69565b6107cb565b604051610236919061345c565b3480156102e957600080fd5b506102a36107e3565b3480156102fe57600080fd5b5061028c61030d366004612872565b6107f5565b34801561031e57600080fd5b5061033261032d36600461281a565b610971565b60405161023691906132f0565b34801561034b57600080fd5b5061028c610a79565b34801561036057600080fd5b5061028c61036f366004612872565b610afd565b34801561038057600080fd5b5061028c61038f366004612b69565b610b1d565b3480156103a057600080fd5b5061025f610c61565b6102a36103b7366004612ab3565b610c70565b3480156103c857600080fd5b50610229610ddb565b3480156103dd57600080fd5b5061028c610deb565b3480156103f257600080fd5b5061025f610401366004612b69565b610ec7565b34801561041257600080fd5b506102a361042136600461281a565b610ee2565b34801561043257600080fd5b5061025f610f31565b34801561044757600080fd5b5061028c6104563660046129f2565b610f40565b34801561046757600080fd5b50610470610fb2565b604051610236919061330f565b34801561048957600080fd5b5061028c610498366004612b69565b610fc1565b3480156104a957600080fd5b5061028c611025565b3480156104be57600080fd5b506103326104cd36600461281a565b6110b0565b6102a36104e0366004612a27565b61116a565b3480156104f157600080fd5b5061028c610500366004612938565b6112d3565b34801561051157600080fd5b5061052561052036600461281a565b6113b8565b60405161023691906132df565b34801561053e57600080fd5b5061028c61054d3660046128bf565b61152e565b34801561055e57600080fd5b5061028c61056d36600461281a565b6116ac565b34801561057e57600080fd5b5061059261058d366004612b69565b61172d565b604051610236919061331d565b3480156105ab57600080fd5b5061028c6105ba36600461281a565b61177e565b3480156105cb57600080fd5b5061059261180b565b3480156105e057600080fd5b506105f46105ef366004612b69565b611899565b604051610236979695949392919061322c565b6102a3610615366004612a27565b611a24565b34801561062657600080fd5b5061028c61063536600461281a565b611b50565b34801561064657600080fd5b50610229610655366004612838565b611bde565b6001600160e01b0319811660009081526020819052604090205460ff165b919050565b600061068882611c0c565b6106ad5760405162461bcd60e51b81526004016106a49061340e565b60405180910390fd5b506000908152600d60205260409020546001600160a01b031690565b600254600160a01b900460ff16156106e057600080fd5b60006106eb82610ec7565b9050806001600160a01b0316836001600160a01b0316141561071f5760405162461bcd60e51b81526004016106a49061338e565b806001600160a01b0316610731611c29565b6001600160a01b0316148061074d575061074d81610655611c29565b6107695760405162461bcd60e51b81526004016106a49061343e565b6000828152600d602052604080822080546001600160a01b0319166001600160a01b0387811691821790925591518593918516917f8c5be1e5ebec7d5bd14f71427d1e84f3dd0314c0f7b2291e5b200ac8c7c3b92591a4505050565b60035481565b60096020526000908152604090205463ffffffff1681565b60006107ef6005611c2d565b90505b90565b600254600160a01b900460ff161561080c57600080fd5b61081d610817611c29565b82611c31565b6108395760405162461bcd60e51b81526004016106a49061342e565b6000818152600a60205260408120546001600160a01b03169061085b83610ec7565b600084815260096020908152604080832054600a9092529091206002015491925063ffffffff1690600160601b900460ff166108b95761089c868686611cb6565b156108b95760405162461bcd60e51b81526004016106a49061333e565b60048054604051630d1e359160e01b81526001600160a01b0390911691630d1e3591916108f29185918b918b918b918b918b9101613485565b60206040518083038186803b15801561090a57600080fd5b505afa15801561091e573d6000803e3d6000fd5b505050506040513d601f19601f820116820180604052506109429190810190612998565b61095e5760405162461bcd60e51b81526004016106a49061342e565b610969868686611d0d565b505050505050565b60606001600160a01b0382166109995760405162461bcd60e51b81526004016106a49061336e565b6001600160a01b03821660009081526008602052604081206109ba90611c2d565b9050806109dc5760408051600080825260208201909252905b50915050610678565b606081604051908082528060200260200182016040528015610a08578160200160208202803883390190505b5090506000610a156107e3565b9050600060015b828111610a6c576000818152600a60205260409020546001600160a01b0388811691161415610a645780848381518110610a5257fe5b60209081029190910101526001909101905b600101610a1c565b8395505050505050610678565b6001546001600160a01b0316610a8d611c29565b6001600160a01b03161480610abc57506002546001600160a01b0316610ab1611c29565b6001600160a01b0316145b610ad85760405162461bcd60e51b81526004016106a4906133de565b600254600160a01b900460ff16610aee57600080fd5b6002805460ff60a01b19169055565b610b188383836040518060200160405280600081525061152e565b505050565b600254600160a01b900460ff1615610b3457600080fd5b6000818152600a60205260408120546001600160a01b031690610b5683610ec7565b60008481526009602052604090205490915063ffffffff166001600160a01b038083169084161415610c25576004546001600160a01b03166312d26ac882610b9c611c29565b6040518363ffffffff1660e01b8152600401610bb992919061346a565b60206040518083038186803b158015610bd157600080fd5b505afa158015610be5573d6000803e3d6000fd5b505050506040513d601f19601f82011682018060405250610c099190810190612998565b610c255760405162461bcd60e51b81526004016106a49061337e565b610c36610c30611c29565b85611c31565b610c525760405162461bcd60e51b81526004016106a49061337e565b610c5b84611e13565b50505050565b6002546001600160a01b031681565b600254600090600160a01b900460ff1615610c8a57600080fd5b600354341015610c9957600080fd5b60008363ffffffff1611610cbf5760405162461bcd60e51b81526004016106a4906133ce565b6004546001600160a01b03166312d26ac884610cd9611c29565b6040518363ffffffff1660e01b8152600401610cf692919061346a565b60206040518083038186803b158015610d0e57600080fd5b505afa158015610d22573d6000803e3d6000fd5b505050506040513d601f19601f82011682018060405250610d469190810190612998565b610d625760405162461bcd60e51b81526004016106a49061341e565b610d6e87878786611e25565b610d8a5760405162461bcd60e51b81526004016106a4906133fe565b6000610d9d610d97611c29565b84611eff565b9050610dac8189898989611f36565b6000818152600960205260409020805463ffffffff861663ffffffff1990911617905590509695505050505050565b600254600160a01b900460ff1681565b6001546001600160a01b0316610dff611c29565b6001600160a01b03161480610e2e57506002546001600160a01b0316610e23611c29565b6001600160a01b0316145b610e4a5760405162461bcd60e51b81526004016106a4906133de565b60405130319060009033908390610e6090613213565b60006040518083038185875af1925050503d8060008114610e9d576040519150601f19603f3d011682016040523d82523d6000602084013e610ea2565b606091505b5050905080610ec35760405162461bcd60e51b81526004016106a49061339e565b5050565b6000908152600660205260409020546001600160a01b031690565b60006001600160a01b038216610f0a5760405162461bcd60e51b81526004016106a49061336e565b6001600160a01b0382166000908152600760205260409020610f2b90611c2d565b92915050565b6001546001600160a01b031681565b6001546001600160a01b0316610f54611c29565b6001600160a01b03161480610f8357506002546001600160a01b0316610f78611c29565b6001600160a01b0316145b610f9f5760405162461bcd60e51b81526004016106a4906133de565b8051610ec390600c906020840190612667565b6004546001600160a01b031681565b6001546001600160a01b0316610fd5611c29565b6001600160a01b0316148061100457506002546001600160a01b0316610ff9611c29565b6001600160a01b0316145b6110205760405162461bcd60e51b81526004016106a4906133de565b600355565b6001546001600160a01b0316611039611c29565b6001600160a01b0316148061106857506002546001600160a01b031661105d611c29565b6001600160a01b0316145b6110845760405162461bcd60e51b81526004016106a4906133de565b600254600160a01b900460ff161561109b57600080fd5b6002805460ff60a01b1916600160a01b179055565b606060006110bd83610ee2565b9050806110da5760408051600080825260208201909252906109d3565b606081604051908082528060200260200182016040528015611106578160200160208202803883390190505b50905060006111136107e3565b9050600060015b828111610a6c576000818152600660205260409020546001600160a01b0388811691161415611162578084838151811061115057fe5b60209081029190910101526001909101905b60010161111a565b600254600090600160a01b900460ff161561118457600080fd5b60035434101561119357600080fd5b60008263ffffffff16116111b95760405162461bcd60e51b81526004016106a4906133ce565b6004546001600160a01b03166312d26ac8836111d3611c29565b6040518363ffffffff1660e01b81526004016111f092919061346a565b60206040518083038186803b15801561120857600080fd5b505afa15801561121c573d6000803e3d6000fd5b505050506040513d601f19601f820116820180604052506112409190810190612998565b61125c5760405162461bcd60e51b81526004016106a49061341e565b61126886868685611e25565b6112845760405162461bcd60e51b81526004016106a4906133fe565b6000611296611291611c29565b6120f5565b90506112a58188888888611f36565b6000818152600960205260409020805463ffffffff851663ffffffff19909116179055905095945050505050565b600254600160a01b900460ff16156112ea57600080fd5b6112f2611c29565b6001600160a01b0316826001600160a01b031614156113235760405162461bcd60e51b81526004016106a4906133be565b80600e6000611330611c29565b6001600160a01b03908116825260208083019390935260409182016000908120918716808252919093529120805460ff191692151592909217909155611374611c29565b6001600160a01b03167f17307eab39ab6107e8899845ad3d59bd9653f200f220920489ca2b5937696c31836040516113ac9190613301565b60405180910390a35050565b6001600160a01b0381166000908152600b602090815260408083208054825181850281018501909352808352606094859484015b828210156114a357600084815260209081902060408051918501805460026001821615610100026000190190911604601f810185900485028401830183529383018481529293909284929091849184018282801561148b5780601f106114605761010080835404028352916020019161148b565b820191906000526020600020905b81548152906001019060200180831161146e57829003601f168201915b505050505081525050815260200190600101906113ec565b505050509050606081516040519080825280602002602001820160405280156114e057816020015b60608152602001906001900390816114cb5790505b50905060005b8251811015611526578281815181106114fb57fe5b60200260200101516000015182828151811061151357fe5b60209081029190910101526001016114e6565b509392505050565b600254600160a01b900460ff161561154557600080fd5b611556611550611c29565b83611c31565b6115725760405162461bcd60e51b81526004016106a49061342e565b6000828152600a60205260408120546001600160a01b03169061159484610ec7565b600085815260096020908152604080832054600a9092529091206002015491925063ffffffff1690600160601b900460ff166115f2576115d5878787611cb6565b156115f25760405162461bcd60e51b81526004016106a49061333e565b60048054604051630d1e359160e01b81526001600160a01b0390911691630d1e35919161162b9185918c918c918c918b918b9101613485565b60206040518083038186803b15801561164357600080fd5b505afa158015611657573d6000803e3d6000fd5b505050506040513d601f19601f8201168201806040525061167b9190810190612998565b6116975760405162461bcd60e51b81526004016106a49061342e565b6116a387878787612111565b50505050505050565b6001546001600160a01b03166116c0611c29565b6001600160a01b031614806116ef57506002546001600160a01b03166116e4611c29565b6001600160a01b0316145b61170b5760405162461bcd60e51b81526004016106a4906133de565b600480546001600160a01b0319166001600160a01b0392909216919091179055565b606061173882611c0c565b6117545760405162461bcd60e51b81526004016106a49061340e565b600c826040516020016117689291906131f1565b6040516020818303038152906040529050919050565b6001546001600160a01b0316611792611c29565b6001600160a01b031614806117c157506002546001600160a01b03166117b6611c29565b6001600160a01b0316145b6117dd5760405162461bcd60e51b81526004016106a4906133de565b6001600160a01b0381161561180857600280546001600160a01b0319166001600160a01b0383161790555b50565b600c805460408051602060026001851615610100026000190190941693909304601f810184900484028201840190925281815292918301828280156118915780601f1061186657610100808354040283529160200191611891565b820191906000526020600020905b81548152906001019060200180831161187457829003601f168201915b505050505081565b60008060606000806000806118ad88611c0c565b6118c95760405162461bcd60e51b81526004016106a49061340e565b6118d16126e5565b6000898152600a6020908152604091829020825160a08101845281546001600160a01b03168152600180830180548651600261010094831615949094026000190190911692909204601f81018690048602830186019096528582529194929385810193919291908301828280156119895780601f1061195e57610100808354040283529160200191611989565b820191906000526020600020905b81548152906001019060200180831161196c57829003601f168201915b50505091835250506002919091015465ffffffffffff80821660208085019190915266010000000000008304909116604080850191909152600160601b90920460ff16151560609093019290925260008c81526009909252902054815191925063ffffffff16906119f98b610ec7565b602084015160408501516060860151608090960151939e929d50909b50995092975095509350915050565b600254600090600160a01b900460ff1615611a3e57600080fd5b600354341015611a4d57600080fd5b60008263ffffffff1611611a735760405162461bcd60e51b81526004016106a4906133ce565b6004546001600160a01b03166312d26ac883611a8d611c29565b6040518363ffffffff1660e01b8152600401611aaa92919061346a565b60206040518083038186803b158015611ac257600080fd5b505afa158015611ad6573d6000803e3d6000fd5b505050506040513d601f19601f82011682018060405250611afa9190810190612998565b611b165760405162461bcd60e51b81526004016106a49061341e565b611b2286868685611e25565b611b3e5760405162461bcd60e51b81526004016106a4906133fe565b6000611296611b4b611c29565b612144565b6001546001600160a01b0316611b64611c29565b6001600160a01b03161480611b9357506002546001600160a01b0316611b88611c29565b6001600160a01b0316145b611baf5760405162461bcd60e51b81526004016106a4906133de565b6001600160a01b0381161561180857600180546001600160a01b0383166001600160a01b031990911617905550565b6001600160a01b039182166000908152600e6020908152604080832093909416825291909152205460ff1690565b6000908152600660205260409020546001600160a01b0316151590565b3390565b5490565b6000611c3c82611c0c565b611c585760405162461bcd60e51b81526004016106a49061340e565b6000611c6383610ec7565b9050806001600160a01b0316846001600160a01b03161480611c9e5750836001600160a01b0316611c938461067d565b6001600160a01b0316145b80611cae5750611cae8185611bde565b949350505050565b6000818152600a60205260408120546001600160a01b03908116908516811480611cf15750806001600160a01b0316846001600160a01b0316145b15611d00576000915050611d06565b60019150505b9392505050565b826001600160a01b0316611d2082610ec7565b6001600160a01b031614611d465760405162461bcd60e51b81526004016106a49061342e565b6001600160a01b038216611d6c5760405162461bcd60e51b81526004016106a49061335e565b611d7581612223565b6001600160a01b0383166000908152600760205260409020611d969061225e565b6001600160a01b0382166000908152600760205260409020611db790612275565b60008181526006602052604080822080546001600160a01b0319166001600160a01b0386811691821790925591518493918716917fddf252ad1be2c89b69c2b068fc378daa952ba7f163c4a11628f55a4df523b3ef91a4505050565b611808611e1f82610ec7565b8261227e565b6004805460405163abe6178360e01b81526000926001600160a01b039092169163abe6178391611e599186918a91016134df565b60206040518083038186803b158015611e7157600080fd5b505afa158015611e85573d6000803e3d6000fd5b505050506040513d601f19601f82011682018060405250611ea99190810190612998565b611ec55760405162461bcd60e51b81526004016106a4906133ae565b8365ffffffffffff168365ffffffffffff1611611ef45760405162461bcd60e51b81526004016106a4906133ee565b506001949350505050565b600080611f0b84612144565b9050611f1a6000858386612373565b611d065760405162461bcd60e51b81526004016106a49061334e565b611f3f85611c0c565b611f5b5760405162461bcd60e51b81526004016106a49061340e565b611f636126e5565b6040518060a00160405280611f76611c29565b6001600160a01b031681526020018681526020018565ffffffffffff1681526020018465ffffffffffff168152602001831515815250905080600a600088815260200190815260200160002060008201518160000160006101000a8154816001600160a01b0302191690836001600160a01b03160217905550602082015181600101908051906020019061200b929190612667565b5060408201516002919091018054606084015160809094015165ffffffffffff1990911665ffffffffffff938416176bffffffffffff000000000000191666010000000000009390941692909202929092176cff0000000000000000000000001916600160601b911515919091021790556120858561243e565b61096957600b6000612095611c29565b6001600160a01b031681526020808201929092526040908101600090812082518085019093528883528054600181018083559183529184902083518051929591909301926120e99284929190910190612667565b50505050505050505050565b600080611d068360405180602001604052806000815250611eff565b61211c848484611d0d565b61212884848484612373565b610c5b5760405162461bcd60e51b81526004016106a49061334e565b60006001600160a01b03821661216c5760405162461bcd60e51b81526004016106a49061332e565b6121766005612275565b60006121826005611c2d565b600081815260066020908152604080832080546001600160a01b0319166001600160a01b0389169081179091558352600790915290209091506121c490612275565b6001600160a01b03831660009081526008602052604090206121e590612275565b60405181906001600160a01b038516906000907fddf252ad1be2c89b69c2b068fc378daa952ba7f163c4a11628f55a4df523b3ef908290a492915050565b6000818152600d60205260409020546001600160a01b031615611808576000908152600d6020526040902080546001600160a01b0319169055565b805461227190600163ffffffff61256916565b9055565b80546001019055565b816001600160a01b031661229182610ec7565b6001600160a01b0316146122b75760405162461bcd60e51b81526004016106a49061337e565b6122c081612223565b6001600160a01b03821660009081526007602052604090206122e19061225e565b600081815260066020908152604080832080546001600160a01b0319908116909155600a9092528220805490911681559061231f6001830182612714565b5060020180546cffffffffffffffffffffffffff1916905560405181906000906001600160a01b038516907fddf252ad1be2c89b69c2b068fc378daa952ba7f163c4a11628f55a4df523b3ef908390a45050565b6000612387846001600160a01b03166125ab565b61239357506001611cae565b6000846001600160a01b031663150b7a026123ac611c29565b8887876040518563ffffffff1660e01b81526004016123ce949392919061329b565b602060405180830381600087803b1580156123e857600080fd5b505af11580156123fc573d6000803e3d6000fd5b505050506040513d601f19601f8201168201806040525061242091908101906129d4565b6001600160e01b031916630a85bd0160e11b14915050949350505050565b336000908152600b602090815260408083208054825181850281018501909352808352606093859084015b8282101561252057600084815260209081902060408051918501805460026001821615610100026000190190911604601f81018590048502840183018352938301848152929390928492909184918401828280156125085780601f106124dd57610100808354040283529160200191612508565b820191906000526020600020905b8154815290600101906020018083116124eb57829003601f168201915b50505050508152505081526020019060010190612469565b5092935060009250829150505b8251811015611526576125578584838151811061254657fe5b6020026020010151600001516125e2565b1561256157600191505b60010161252d565b6000611d0683836040518060400160405280601e81526020017f536166654d6174683a207375627472616374696f6e206f766572666c6f77000081525061263b565b6000813f7fc5d2460186f7233c927e7db2dcc703c0e500b653ca82273b7bfad8045d85a4708115801590611cae5750141592915050565b6000816040516020016125f591906131e5565b604051602081830303815290604052805190602001208360405160200161261c91906131e5565b6040516020818303038152906040528051906020012014905092915050565b6000818484111561265f5760405162461bcd60e51b81526004016106a4919061331d565b505050900390565b828054600181600116156101000203166002900490600052602060002090601f016020900481019282601f106126a857805160ff19168380011785556126d5565b828001600101855582156126d5579182015b828111156126d55782518255916020019190600101906126ba565b506126e1929150612754565b5090565b6040805160a0810182526000808252606060208301819052928201819052918101829052608081019190915290565b50805460018160011615610100020316600290046000825580601f1061273a5750611808565b601f01602090049060005260206000209081019061180891905b6107f291905b808211156126e1576000815560010161275a565b8035610f2b816135f7565b8035610f2b8161360b565b8051610f2b8161360b565b8035610f2b81613614565b8051610f2b81613614565b600082601f8301126127b657600080fd5b81356127c96127c482613526565b6134ff565b915080825260208301602083018583830111156127e557600080fd5b6127f08382846135b5565b50505092915050565b8035610f2b8161361d565b8035610f2b81613626565b8035610f2b8161362f565b60006020828403121561282c57600080fd5b6000611cae848461276e565b6000806040838503121561284b57600080fd5b6000612857858561276e565b92505060206128688582860161276e565b9150509250929050565b60008060006060848603121561288757600080fd5b6000612893868661276e565b93505060206128a48682870161276e565b92505060406128b5868287016127f9565b9150509250925092565b600080600080608085870312156128d557600080fd5b60006128e1878761276e565b94505060206128f28782880161276e565b9350506040612903878288016127f9565b925050606085013567ffffffffffffffff81111561292057600080fd5b61292c878288016127a5565b91505092959194509250565b6000806040838503121561294b57600080fd5b6000612957858561276e565b925050602061286885828601612779565b6000806040838503121561297b57600080fd5b6000612987858561276e565b9250506020612868858286016127f9565b6000602082840312156129aa57600080fd5b6000611cae8484612784565b6000602082840312156129c857600080fd5b6000611cae848461278f565b6000602082840312156129e657600080fd5b6000611cae848461279a565b600060208284031215612a0457600080fd5b813567ffffffffffffffff811115612a1b57600080fd5b611cae848285016127a5565b600080600080600060a08688031215612a3f57600080fd5b853567ffffffffffffffff811115612a5657600080fd5b612a62888289016127a5565b9550506020612a738882890161280f565b9450506040612a848882890161280f565b9350506060612a9588828901612779565b9250506080612aa688828901612804565b9150509295509295909350565b60008060008060008060c08789031215612acc57600080fd5b863567ffffffffffffffff811115612ae357600080fd5b612aef89828a016127a5565b9650506020612b0089828a0161280f565b9550506040612b1189828a0161280f565b9450506060612b2289828a01612779565b9350506080612b3389828a01612804565b92505060a087013567ffffffffffffffff811115612b5057600080fd5b612b5c89828a016127a5565b9150509295509295509295565b600060208284031215612b7b57600080fd5b6000611cae84846127f9565b6000611d068383612c86565b6000612b9f83836131b9565b505060200190565b612bb08161356d565b82525050565b6000612bc182613560565b612bcb8185613564565b935083602082028501612bdd8561354e565b8060005b85811015612c175784840389528151612bfa8582612b87565b9450612c058361354e565b60209a909a0199925050600101612be1565b5091979650505050505050565b6000612c2f82613560565b612c398185613564565b9350612c448361354e565b8060005b83811015612c72578151612c5c8882612b93565b9750612c678361354e565b925050600101612c48565b509495945050505050565b612bb081613578565b6000612c9182613560565b612c9b8185613564565b9350612cab8185602086016135c1565b612cb4816135ed565b9093019392505050565b612bb0816135aa565b6000612cd282613560565b612cdc8185610678565b9350612cec8185602086016135c1565b9290920192915050565b600081546001811660008114612d135760018114612d3657612d75565b607f6002830416612d248187610678565b60ff1984168152955085019250612d75565b60028204612d448187610678565b9550612d4f85613554565b60005b82811015612d6e57815488820152600190910190602001612d52565b5050850192505b505092915050565b6000612d8a601483613564565b7f4d494e545f544f5f5a45524f5f41444452455353000000000000000000000000815260200192915050565b6000612dc3601a83613564565b7f5345434f4e444152595f54524144494e475f44495341424c4544000000000000815260200192915050565b6000612dfc602a83613564565b7f5452414e534645525f544f5f4e4f4e5f45524337323152454345495645525f4981526926a82622a6a2a72a22a960b11b602082015260400192915050565b6000612e48601883613564565b7f5452414e534645525f544f5f5a45524f5f414444524553530000000000000000815260200192915050565b6000612e81601983613564565b7f43414e4e4f545f51554552595f5a45524f5f4144445245535300000000000000815260200192915050565b6000612eba601183613564565b7f554e415554484f52495a45445f4255524e000000000000000000000000000000815260200192915050565b6000612ef3601583613564565b7f415050524f56414c5f49535f524544554e44414e540000000000000000000000815260200192915050565b6000612f2c600f83613564565b7f57495448445241575f4641494c45440000000000000000000000000000000000815260200192915050565b6000612f65602383613564565b7f434f4e54454e545f49445f4e4f545f524547495354455245445f544f5f43414c8152622622a960e91b602082015260400192915050565b6000612faa601a83613564565b7f43414c4c45525f43414e4e4f545f415050524f56455f53454c46000000000000815260200192915050565b6000612fe3601583613564565b7f494e56414c49445f46454445524154494f4e5f49440000000000000000000000815260200192915050565b600061301c601383613564565b7f4f4e4c595f434f4e54524143545f4f574e455200000000000000000000000000815260200192915050565b6000613055601983613564565b7f53544152545f54494d455f41465445525f454e445f54494d4500000000000000815260200192915050565b6000610f2b600083610678565b600061309b601183613564565b7f494e56414c49445f54494d455f534c4f54000000000000000000000000000000815260200192915050565b60006130d4601283613564565b7f4e4f4e5f4558495354454e545f544f4b454e0000000000000000000000000000815260200192915050565b600061310d602583613564565b7f43414c4c45525f4e4f545f415554484f52495a45445f464f525f4d494e5445528152645f524f4c4560d81b602082015260400192915050565b6000613154601583613564565b7f554e415554484f52495a45445f5452414e534645520000000000000000000000815260200192915050565b600061318d601583613564565b7f43414c4c45525f4e4f545f415554484f52495a45440000000000000000000000815260200192915050565b612bb0816107f2565b612bb06131ce826107f2565b6107f2565b612bb081613596565b612bb08161359f565b6000611d068284612cc7565b60006131fd8285612cf6565b915061320982846131c2565b5060200192915050565b6000610f2b82613081565b60208101610f2b8284612ba7565b60e0810161323a828a612ba7565b6132476020830189612ba7565b81810360408301526132598188612c86565b905061326860608301876131dc565b61327560808301866131dc565b61328260a0830185612c7d565b61328f60c08301846131d3565b98975050505050505050565b608081016132a98287612ba7565b6132b66020830186612ba7565b6132c360408301856131b9565b81810360608301526132d58184612c86565b9695505050505050565b60208082528101611d068184612bb6565b60208082528101611d068184612c24565b60208101610f2b8284612c7d565b60208101610f2b8284612cbe565b60208082528101611d068184612c86565b60208082528101610f2b81612d7d565b60208082528101610f2b81612db6565b60208082528101610f2b81612def565b60208082528101610f2b81612e3b565b60208082528101610f2b81612e74565b60208082528101610f2b81612ead565b60208082528101610f2b81612ee6565b60208082528101610f2b81612f1f565b60208082528101610f2b81612f58565b60208082528101610f2b81612f9d565b60208082528101610f2b81612fd6565b60208082528101610f2b8161300f565b60208082528101610f2b81613048565b60208082528101610f2b8161308e565b60208082528101610f2b816130c7565b60208082528101610f2b81613100565b60208082528101610f2b81613147565b60208082528101610f2b81613180565b60208101610f2b82846131b9565b60208101610f2b82846131d3565b6040810161347882856131d3565b611d066020830184612ba7565b60c0810161349382896131d3565b6134a06020830188612ba7565b6134ad6040830187612ba7565b6134ba60608301866131b9565b6134c76080830185612ba7565b6134d460a0830184612ba7565b979650505050505050565b604081016134ed82856131d3565b8181036020830152611cae8184612c86565b60405181810167ffffffffffffffff8111828210171561351e57600080fd5b604052919050565b600067ffffffffffffffff82111561353d57600080fd5b506020601f91909101601f19160190565b60200190565b60009081526020902090565b5190565b90815260200190565b6000610f2b8261358a565b151590565b6001600160e01b03191690565b6001600160a01b031690565b63ffffffff1690565b65ffffffffffff1690565b6000610f2b8261356d565b82818337506000910152565b60005b838110156135dc5781810151838201526020016135c4565b83811115610c5b5750506000910152565b601f01601f191690565b6136008161356d565b811461180857600080fd5b61360081613578565b6136008161357d565b613600816107f2565b61360081613596565b6136008161359f56fea365627a7a7231582073be05797e73db523f42f3feb48ddc9fd2d1048c6233623470ce64c5115132206c6578706572696d656e74616cf564736f6c634300050b0040",
  "source": "pragma solidity ^0.5.11;\npragma experimental ABIEncoderV2;\n\n/**\n * @title ERC721 Customized for Microsponsors from:\n * https://github.com/OpenZeppelin/openzeppelin-contracts/blob/master/contracts/token/ERC721/ERC721MetadataMintable.sol\n */\n\nimport \"./IERC721.sol\";\nimport \"./IERC721Receiver.sol\";\nimport \"./SafeMath.sol\";\nimport \"./Address.sol\";\nimport \"./Counters.sol\";\nimport \"./ERC165.sol\";\n\n\n/**\n * @title Deployed Microsponsors Registry smart contract interface.\n * @dev We just use the signatures of the parts we need to interact with:\n */\ncontract DeployedRegistry {\n    function isContentIdRegisteredToCaller(uint32 federationId, string memory contentId) public view returns(bool);\n    function isMinter(uint32 federationId, address account) public view returns (bool);\n    function isAuthorizedTransferFrom(uint32 federationId, address from, address to, uint256 tokenId, address minter, address owner) public view returns(bool);\n}\n\n\n/**\n * @title ERC721 Non-Fungible Token Standard basic implementation\n * @dev see https://eips.ethereum.org/EIPS/eip-721\n */\ncontract ERC721 is ERC165, IERC721 {\n    using SafeMath for uint256;\n    using Address for address;\n    using Counters for Counters.Counter;\n\n\n    /***  Contract data  ***/\n\n\n    /// @dev owner1, owner2 Admins of this contract.\n    address public owner1;\n    address public owner2;\n\n    /// @dev paused Admin only. Set to `true` to stop token minting and transfers.\n    bool public paused = false;\n\n    /// @dev mintFee Admin only. Set minting fee; default fee is below (in wei).\n    uint256 public mintFee = 100000000000000;\n\n    /// @dev DeployedRegistry The Microsponsors Registry Contract that verifies participants.\n    ///      Admin can update the contract address here to upgrade Registry.\n    DeployedRegistry public registry;\n\n    /// @title _tokenIds All Token IDs minted, incremented starting at 1\n    Counters.Counter _tokenIds;\n\n    /// @dev _tokenOwner mapping from Token ID to Token Owner\n    mapping (uint256 => address) private _tokenOwner;\n\n    /// @dev _ownedTokensCount mapping from Token Owner to # of owned tokens\n    mapping (address => Counters.Counter) private _ownedTokensCount;\n\n    /// @dev _mintedTokensCount mapping from Token Minter to # of minted tokens\n    mapping (address => Counters.Counter) private _mintedTokensCount;\n\n    /// @dev tokenToFederationId see notes on path to federation in Microsponsors Registry contract\n    mapping (uint256 => uint32) public tokenToFederationId;\n\n    /// @dev TimeSlot metadata struct for each token\n    ///      TimeSlots timestamps are stored as uint48:\n    ///      https://medium.com/@novablitz/storing-structs-is-costing-you-gas-774da988895e\n    struct TimeSlot {\n        address minter; // the address of the user who mint()'ed this time slot\n        string contentId; // the users' registered contentId\n        uint48 startTime; // min timestamp (when time slot begins)\n        uint48 endTime; // max timestamp (when time slot ends)\n        bool isSecondaryTradingEnabled; // if true, first buyer can trade to others\n    }\n\n    /// @dev _tokenToTimeSlot mapping from Token ID to TimeSlot struct\n    ///      Use tokenTimeSlot() public method to read\n    mapping(uint256 => TimeSlot) private _tokenToTimeSlot;\n\n    /// @dev ContentIdStruct The registered Content ID, verified by Registry contract\n    struct ContentIdStruct {\n        string contentId;\n    }\n    /// @dev _tokenMinterToContentIds Mapping from Token Minter to array of Content IDs\n    ///      that they have *ever* minted tokens for\n    mapping(address => ContentIdStruct[]) private _tokenMinterToContentIds;\n\n    /// @dev set by Admin\n    string public tokenURIBaseUrl = '';\n\n    /// @dev _tokenApprovals Mapping from Token ID to Approved Address\n    mapping (uint256 => address) private _tokenApprovals;\n\n    /// @dev _operatorApprovals Mapping from Token Owner to Operator Approvals\n    mapping (address => mapping (address => bool)) private _operatorApprovals;\n\n    /*\n     *     bytes4(keccak256('balanceOf(address)')) == 0x70a08231\n     *     bytes4(keccak256('ownerOf(uint256)')) == 0x6352211e\n     *     bytes4(keccak256('approve(address,uint256)')) == 0x095ea7b3\n     *     bytes4(keccak256('getApproved(uint256)')) == 0x081812fc\n     *     bytes4(keccak256('setApprovalForAll(address,bool)')) == 0xa22cb465\n     *     bytes4(keccak256('isApprovedForAll(address,address)')) == 0xe985e9c5\n     *     bytes4(keccak256('transferFrom(address,address,uint256)')) == 0x23b872dd\n     *     bytes4(keccak256('safeTransferFrom(address,address,uint256)')) == 0x42842e0e\n     *     bytes4(keccak256('safeTransferFrom(address,address,uint256,bytes)')) == 0xb88d4fde\n     *\n     *     => 0x70a08231 ^ 0x6352211e ^ 0x095ea7b3 ^ 0x081812fc ^\n     *        0xa22cb465 ^ 0xe985e9c ^ 0x23b872dd ^ 0x42842e0e ^ 0xb88d4fde == 0x80ac58cd\n     */\n    bytes4 private constant _INTERFACE_ID_ERC721 = 0x80ac58cd;\n\n    // @dev Equals to `bytes4(keccak256(\"onERC721Received(address,address,uint256,bytes)\"))`\n    // which can be also obtained as `IERC721Receiver(0).onERC721Received.selector`\n    bytes4 private constant _ERC721_RECEIVED = 0x150b7a02;\n\n\n    constructor () public {\n\n        // Register the supported interfaces to conform to ERC721 via ERC165\n        _registerInterface(_INTERFACE_ID_ERC721);\n\n        // Set the contract owners to msg.sender by default\n        owner1 = _msgSender();\n        owner2 = _msgSender();\n\n    }\n\n\n    /**\n     * @dev Provides information about the current execution context, including the\n     * sender of the transaction and its data. While these are generally available\n     * via msg.sender and msg.data, they not should not be accessed in such a direct\n     * manner, since when dealing with GSN meta-transactions the account sending and\n     * paying for execution may not be the actual sender (as far as an application\n     * is concerned).\n     */\n\n    function _msgSender() internal view returns (address) {\n\n        return msg.sender;\n\n    }\n\n    function _msgData() internal view returns (bytes memory) {\n\n        this; // silence state mutability warning without generating bytecode -\n              // see https://github.com/ethereum/solidity/issues/2691\n        return msg.data;\n\n    }\n\n\n    /***  Owner (Administrator) functions  ***/\n\n\n    /**\n     * @dev Sets the contract's owner (administrator)\n     * Based on 0x's Ownable, but modified here\n     */\n    modifier onlyOwner() {\n        require(\n            (_msgSender() == owner1) || (_msgSender() == owner2),\n            \"ONLY_CONTRACT_OWNER\"\n        );\n        _;\n    }\n\n    /**\n     * @dev Transfer owner (admin) functions to another address\n     * @param newOwner Address of new owner/ admin of contract\n     */\n    function transferOwnership1(address newOwner)\n        public\n        onlyOwner\n    {\n        if (newOwner != address(0)) {\n            owner1 = newOwner;\n        }\n    }\n\n\n    function transferOwnership2(address newOwner)\n        public\n        onlyOwner\n    {\n        if (newOwner != address(0)) {\n            owner2 = newOwner;\n        }\n    }\n\n    /**\n     * @dev Update contract address for Microsponsors Registry contract\n     * @param newAddress where the Registry contract lives\n     */\n    function updateRegistryAddress(address newAddress)\n        public\n        onlyOwner\n    {\n        registry = DeployedRegistry(newAddress);\n    }\n\n    /**\n     * @dev Update the fee (in wei) charged for minting a single token\n     */\n    function updateMintFee(uint256 val)\n        public\n        onlyOwner\n    {\n\n        mintFee = val;\n\n    }\n\n    /**\n     * @dev Update the base url for all tokenURI's\n     */\n\n    function updateTokenURIBaseUrl(string memory val)\n        public\n        onlyOwner\n    {\n\n        tokenURIBaseUrl = val;\n\n    }\n\n    /// @dev Pausable (adapted from OpenZeppelin via Cryptokitties)\n    /// @dev Modifier to allow actions only when the contract IS NOT paused\n    modifier whenNotPaused() {\n        require(!paused);\n        _;\n    }\n\n    /// @dev Modifier to allow actions only when the contract IS paused\n    modifier whenPaused {\n        require(paused);\n        _;\n    }\n\n    /// @dev Called by contract owner to pause minting and transfers.\n    function pause() public onlyOwner whenNotPaused {\n        paused = true;\n    }\n\n    /// @dev Called by contract owner to unpause minting and transfers.\n    function unpause() public onlyOwner whenPaused {\n        paused = false;\n    }\n\n    /// @dev Admin withdraws entire balance from contract.\n    function withdrawBalance() external onlyOwner {\n\n        // Ref: https://diligence.consensys.net/blog/2019/09/stop-using-soliditys-transfer-now/\n        uint balance = address(this).balance;\n        (bool success, ) = msg.sender.call.value(balance)(\"\");\n        require(success, \"WITHDRAW_FAILED\");\n\n    }\n\n\n    /***  Minting tokens  ***/\n\n\n    /**\n     * @dev Function to mint tokens.\n     * @return tokenId\n     */\n    function mint(\n        string memory contentId,\n        uint48 startTime,\n        uint48 endTime,\n        bool isSecondaryTradingEnabled,\n        uint32 federationId\n    )\n        public\n        payable\n        whenNotPaused\n        returns (uint256)\n    {\n\n        require(msg.value >= mintFee);\n\n        require(federationId > 0, \"INVALID_FEDERATION_ID\");\n\n        require(\n            registry.isMinter(federationId, _msgSender()),\n            \"CALLER_NOT_AUTHORIZED_FOR_MINTER_ROLE\"\n        );\n\n        require(\n            _isValidTimeSlot(contentId, startTime, endTime, federationId),\n            \"INVALID_TIME_SLOT\"\n        );\n\n        uint256 tokenId = _mint(_msgSender());\n        _setTokenTimeSlot(tokenId, contentId, startTime, endTime, isSecondaryTradingEnabled);\n        tokenToFederationId[tokenId] = federationId;\n\n        return tokenId;\n\n    }\n\n\n    /**\n     * @dev Function to safely mint tokens.\n     * @return tokenId\n     */\n    function safeMint(\n        string memory contentId,\n        uint48 startTime,\n        uint48 endTime,\n        bool isSecondaryTradingEnabled,\n        uint32 federationId\n    )\n        public\n        payable\n        whenNotPaused\n        returns (uint256)\n    {\n\n        require(msg.value >= mintFee);\n\n        require(federationId > 0, \"INVALID_FEDERATION_ID\");\n\n        require(\n            registry.isMinter(federationId, _msgSender()),\n            \"CALLER_NOT_AUTHORIZED_FOR_MINTER_ROLE\"\n        );\n\n        require(\n            _isValidTimeSlot(contentId, startTime, endTime, federationId),\n            \"INVALID_TIME_SLOT\"\n        );\n\n        uint256 tokenId = _safeMint(_msgSender());\n        _setTokenTimeSlot(tokenId, contentId, startTime, endTime, isSecondaryTradingEnabled);\n        tokenToFederationId[tokenId] = federationId;\n\n        return tokenId;\n\n    }\n\n    /**\n     * @dev Function to safely mint tokens.\n     * @param data bytes data to send along with a safe transfer check.\n     * @return tokenId\n     */\n    function safeMint(\n        string memory contentId,\n        uint48 startTime,\n        uint48 endTime,\n        bool isSecondaryTradingEnabled,\n        uint32 federationId,\n        bytes memory data\n    )\n        public\n        payable\n        whenNotPaused\n        returns (uint256)\n    {\n\n        require(msg.value >= mintFee);\n\n        require(federationId > 0, \"INVALID_FEDERATION_ID\");\n\n        require(\n            registry.isMinter(federationId, _msgSender()),\n            \"CALLER_NOT_AUTHORIZED_FOR_MINTER_ROLE\"\n        );\n\n        require(\n            _isValidTimeSlot(contentId, startTime, endTime, federationId),\n            \"INVALID_TIME_SLOT\"\n        );\n\n        uint256 tokenId = _safeMint(_msgSender(), data);\n        _setTokenTimeSlot(tokenId, contentId, startTime, endTime, isSecondaryTradingEnabled);\n        tokenToFederationId[tokenId] = federationId;\n\n        return tokenId;\n\n    }\n\n\n    /**\n     * @dev Internal function to safely mint a new token.\n     * Reverts if the given token ID already exists.\n     * If the target address is a contract, it must implement `onERC721Received`,\n     * which is called upon a safe transfer, and return the magic value\n     * `bytes4(keccak256(\"onERC721Received(address,address,uint256,bytes)\"))`; otherwise,\n     * the transfer is reverted.\n     * @param to The address that will own the minted token\n     * @return tokenId\n     */\n    function _safeMint(address to) internal returns (uint256) {\n\n        uint256 tokenId = _safeMint(to, \"\");\n        return tokenId;\n\n    }\n\n    /**\n     * @dev Internal function to safely mint a new token.\n     * Reverts if the given token ID already exists.\n     * If the target address is a contract, it must implement `onERC721Received`,\n     * which is called upon a safe transfer, and return the magic value\n     * `bytes4(keccak256(\"onERC721Received(address,address,uint256,bytes)\"))`; otherwise,\n     * the transfer is reverted.\n     * @param to The address that will own the minted token\n     * @param data bytes data to send along with a safe transfer check\n     * @return tokenId\n     */\n    function _safeMint(address to, bytes memory data) internal returns (uint256) {\n\n        uint256 tokenId = _mint(to);\n\n        require(\n            _checkOnERC721Received(address(0), to, tokenId, data),\n            \"TRANSFER_TO_NON_ERC721RECEIVER_IMPLEMENTER\"\n        );\n\n        return tokenId;\n\n    }\n\n    /**\n     * @dev Internal function to mint a new token.\n     * Reverts if the given token ID already exists.\n     * @param to The address that will own the minted token\n     */\n    function _mint(address to) internal returns (uint256) {\n\n        require(to != address(0), \"MINT_TO_ZERO_ADDRESS\");\n\n        _tokenIds.increment();\n        uint256 tokenId = _tokenIds.current();\n\n        _tokenOwner[tokenId] = to;\n        _ownedTokensCount[to].increment();\n        _mintedTokensCount[to].increment();\n\n        emit Transfer(address(0), to, tokenId);\n\n        return tokenId;\n\n    }\n\n\n    /***  Token URIs  ***/\n\n\n    /**\n     * Throws if the token ID does not exist. May return an empty string.\n     * @param tokenId uint256 ID of the token to query\n     * @return URI for a given token ID.\n     */\n    function tokenURI(uint256 tokenId) external view returns (string memory) {\n\n        require(\n            _exists(tokenId),\n            \"NON_EXISTENT_TOKEN\"\n        );\n\n        return string(abi.encodePacked(tokenURIBaseUrl, tokenId));\n\n    }\n\n\n    /***  Token TimeSlot data and metadata  ***/\n\n\n    function _isValidTimeSlot(\n        string memory contentId,\n        uint48 startTime,\n        uint48 endTime,\n        uint32 federationId\n    ) internal view returns (bool) {\n\n        require(\n            registry.isContentIdRegisteredToCaller(federationId, contentId),\n            \"CONTENT_ID_NOT_REGISTERED_TO_CALLER\"\n        );\n\n        require(\n            endTime > startTime,\n            \"START_TIME_AFTER_END_TIME\"\n        );\n\n        return true;\n\n    }\n\n\n    function _isContentIdMappedToMinter(\n        string memory contentId\n    )  internal view returns (bool) {\n\n        ContentIdStruct[] memory a = _tokenMinterToContentIds[msg.sender];\n        bool foundMatch = false;\n        for (uint i = 0; i < a.length; i++) {\n            if (stringsMatch(contentId, a[i].contentId)) {\n                foundMatch = true;\n            }\n        }\n\n        return foundMatch;\n    }\n\n\n    function _setTokenTimeSlot(\n        uint256 tokenId,\n        string memory contentId,\n        uint48 startTime,\n        uint48 endTime,\n        bool isSecondaryTradingEnabled\n    ) internal {\n\n        require(\n            _exists(tokenId),\n            \"NON_EXISTENT_TOKEN\"\n        );\n\n        TimeSlot memory _timeSlot = TimeSlot({\n            minter: address(_msgSender()),\n            contentId: string(contentId),\n            startTime: uint48(startTime),\n            endTime: uint48(endTime),\n            isSecondaryTradingEnabled: bool(isSecondaryTradingEnabled)\n        });\n\n        _tokenToTimeSlot[tokenId] = _timeSlot;\n\n        if (!_isContentIdMappedToMinter(contentId)) {\n            _tokenMinterToContentIds[_msgSender()].push( ContentIdStruct(contentId) );\n        }\n\n    }\n\n\n    function tokenTimeSlot(uint256 tokenId) public view returns (\n        address minter,\n        address owner,\n        string memory contentId,\n        uint48 startTime,\n        uint48 endTime,\n        bool isSecondaryTradingEnabled,\n        uint32 federationId\n    ) {\n\n        require(\n            _exists(tokenId),\n            \"NON_EXISTENT_TOKEN\"\n        );\n\n        TimeSlot memory _timeSlot = _tokenToTimeSlot[tokenId];\n        uint32 _federationId = tokenToFederationId[tokenId];\n\n        return (\n            _timeSlot.minter,\n            ownerOf(tokenId),\n            _timeSlot.contentId,\n            _timeSlot.startTime,\n            _timeSlot.endTime,\n            _timeSlot.isSecondaryTradingEnabled,\n            _federationId\n        );\n\n    }\n\n\n    /***  Token minter queries  ***/\n\n\n    /// @dev Look up all Content IDs a Minter has tokenized TimeSlots for.\n    ///      We're not getting this from the Registry because we want to keep\n    ///      a separate record here of all Content ID's the acct has *ever*\n    ///      minted tokens for. The registry is for keeping track of their\n    ///      current (not necessarily past) Content ID registrations.\n    function tokenMinterContentIds(address minter) external view returns (string[] memory) {\n\n        ContentIdStruct[] memory m = _tokenMinterToContentIds[minter];\n        string[] memory r = new string[](m.length);\n\n        for (uint i = 0; i < m.length; i++) {\n            r[i] = m[i].contentId;\n        }\n\n        return r;\n\n    }\n\n\n    /**\n     * Return all the Token IDs minted by a given account.\n     * @dev This method MUST NEVER be called by smart contract code. First, it's fairly\n     *  expensive (it walks the entire _tokenIds array looking for tokens belonging to minter),\n     *  but it also returns a dynamic array, which is only supported for web3 calls, and\n     *  not contract-to-contract calls (at this time).\n     */\n    function tokensMintedBy(address minter) external view returns (uint256[] memory) {\n\n        require(\n            minter != address(0),\n            \"CANNOT_QUERY_ZERO_ADDRESS\"\n        );\n\n        uint256 tokenCount = _mintedTokensCount[minter].current();\n        if (tokenCount == 0) {\n            // Return an empty array\n            return new uint256[](0);\n        } else {\n            uint256[] memory result = new uint256[](tokenCount);\n            uint256 totalTokens = totalSupply();\n            uint256 resultIndex = 0;\n\n            // All Tokens have IDs starting at 1 and increase\n            // sequentially up to the total supply count.\n            uint256 tokenId;\n\n            for (tokenId = 1; tokenId <= totalTokens; tokenId++) {\n                if (_tokenToTimeSlot[tokenId].minter == minter) {\n                    result[resultIndex] = tokenId;\n                    resultIndex++;\n                }\n            }\n\n            return result;\n        }\n\n    }\n\n\n    /***  Token balance and ownership queries  ***/\n\n\n    /**\n     * @dev Gets the total number of tokens ever minted.\n     */\n    function totalSupply() public view returns (uint256) {\n\n        return _tokenIds.current();\n\n    }\n\n    /**\n     * @dev Gets the balance of the specified address.\n     * @param tokenOwner address to query the balance of\n     * @return uint256 representing the amount owned by the passed address\n     */\n    function balanceOf(address tokenOwner) public view returns (uint256) {\n\n        require(\n            tokenOwner != address(0),\n            \"CANNOT_QUERY_ZERO_ADDRESS\"\n        );\n\n        return _ownedTokensCount[tokenOwner].current();\n\n    }\n\n    /**\n     * @dev Gets the owner of the specified token ID.\n     * @param tokenId uint256 ID of the token to query the owner of\n     * @return address currently marked as the owner of the given token ID\n     */\n    function ownerOf(uint256 tokenId) public view returns (address) {\n\n        address tokenOwner = _tokenOwner[tokenId];\n\n        return tokenOwner;\n\n    }\n\n    /**\n     * @param tokenOwner The owner whose tokens we are interested in.\n     * @dev This method MUST NEVER be called by smart contract code. First, it's fairly\n     *  expensive (it walks the entire _tokenIds array looking for tokens belonging to owner),\n     *  but it also returns a dynamic array, which is only supported for web3 calls, and\n     *  not contract-to-contract calls (at this time).\n    */\n    function tokensOfOwner(address tokenOwner) external view returns(uint256[] memory) {\n        uint256 tokenCount = balanceOf(tokenOwner);\n        if (tokenCount == 0) {\n            // Return an empty array\n            return new uint256[](0);\n        } else {\n            uint256[] memory result = new uint256[](tokenCount);\n            uint256 totalTokens = totalSupply();\n            uint256 resultIndex = 0;\n\n            // All Tokens have IDs starting at 1 and increase\n            // sequentially up to the total count.\n            uint256 tokenId;\n\n            for (tokenId = 1; tokenId <= totalTokens; tokenId++) {\n                if (_tokenOwner[tokenId] == tokenOwner) {\n                    result[resultIndex] = tokenId;\n                    resultIndex++;\n                }\n            }\n\n            return result;\n        }\n    }\n\n\n    /***  Approvals & Transfers  ***/\n\n\n    /**\n     * @dev Approves another address to transfer the given token ID\n     * The zero address indicates there is no approved address.\n     * There can only be one approved address per token at a given time.\n     * Can only be called by the token owner or an approved operator.\n     * @param to address to be approved for the given token ID\n     * @param tokenId uint256 ID of the token to be approved\n     */\n    function approve(address to, uint256 tokenId)\n        public\n        whenNotPaused\n    {\n\n        address tokenOwner = ownerOf(tokenId);\n\n        require(\n            to != tokenOwner,\n            \"APPROVAL_IS_REDUNDANT\"\n        );\n\n        require(\n            _msgSender() == tokenOwner || isApprovedForAll(tokenOwner, _msgSender()),\n            \"CALLER_NOT_AUTHORIZED\"\n        );\n\n        _tokenApprovals[tokenId] = to;\n        emit Approval(tokenOwner, to, tokenId);\n\n    }\n\n    /**\n     * @dev Gets the approved address for a token ID, or zero if no address set\n     * Reverts if the token ID does not exist.\n     * @param tokenId uint256 ID of the token to query the approval of\n     * @return address currently approved for the given token ID\n     */\n    function getApproved(uint256 tokenId) public view returns (address) {\n\n        require(\n            _exists(tokenId),\n            \"NON_EXISTENT_TOKEN\"\n        );\n\n        return _tokenApprovals[tokenId];\n\n    }\n\n    /**\n     * @dev Sets or unsets the approval of a given operator\n     * An operator is allowed to transfer all tokens of the sender on their behalf.\n     * @param to operator address to set the approval\n     * @param approved representing the status of the approval to be set\n     */\n    function setApprovalForAll(address to, bool approved)\n        public\n        whenNotPaused\n    {\n\n        require(to != _msgSender(), \"CALLER_CANNOT_APPROVE_SELF\");\n\n        _operatorApprovals[_msgSender()][to] = approved;\n        emit ApprovalForAll(_msgSender(), to, approved);\n\n    }\n\n    /**\n     * @dev Tells whether an operator is approved by a given token owner.\n     * @param tokenOwner token owner address which you want to query the approval of\n     * @param operator operator address which you want to query the approval of\n     * @return bool whether the given operator is approved by the token owner\n     */\n    function isApprovedForAll(address tokenOwner, address operator)\n        public\n        view\n        returns (bool)\n    {\n\n        return _operatorApprovals[tokenOwner][operator];\n\n    }\n\n    /**\n     * @dev Transfers the ownership of a given token ID to another address.\n     * Usage of this method is discouraged, use {safeTransferFrom} whenever possible.\n     * Requires the msg.sender to be the owner, approved, or operator.\n     * @param from current owner of the token\n     * @param to address to receive the ownership of the given token ID\n     * @param tokenId uint256 ID of the token to be transferred\n     */\n    function transferFrom(address from, address to, uint256 tokenId)\n        public\n        whenNotPaused\n    {\n\n        require(\n            _isApprovedOrOwner(_msgSender(), tokenId),\n            \"UNAUTHORIZED_TRANSFER\"\n        );\n\n        address minter = _tokenToTimeSlot[tokenId].minter;\n        address owner = ownerOf(tokenId);\n        uint32 federationId = tokenToFederationId[tokenId];\n\n        if (_tokenToTimeSlot[tokenId].isSecondaryTradingEnabled == false) {\n            require(\n                isSecondaryTrade(from, to, tokenId) == false,\n                \"SECONDARY_TRADING_DISABLED\"\n            );\n        }\n\n        require(\n            registry.isAuthorizedTransferFrom(federationId, from, to, tokenId, minter, owner),\n            \"UNAUTHORIZED_TRANSFER\"\n        );\n\n        _transferFrom(from, to, tokenId);\n\n    }\n\n    /**\n     * @dev Safely transfers the ownership of a given token ID to another address\n     * If the target address is a contract, it must implement {IERC721Receiver-onERC721Received},\n     * which is called upon a safe transfer, and return the magic value\n     * `bytes4(keccak256(\"onERC721Received(address,address,uint256,bytes)\"))`; otherwise,\n     * the transfer is reverted.\n     * Requires the msg.sender to be the owner, approved, or operator\n     * @param from current owner of the token\n     * @param to address to receive the ownership of the given token ID\n     * @param tokenId uint256 ID of the token to be transferred\n     */\n    function safeTransferFrom(address from, address to, uint256 tokenId) public {\n\n        safeTransferFrom(from, to, tokenId, \"\");\n\n    }\n\n    /**\n     * @dev Safely transfers the ownership of a given token ID to another address\n     * If the target address is a contract, it must implement {IERC721Receiver-onERC721Received},\n     * which is called upon a safe transfer, and return the magic value\n     * `bytes4(keccak256(\"onERC721Received(address,address,uint256,bytes)\"))`; otherwise,\n     * the transfer is reverted.\n     * Requires the _msgSender() to be the owner, approved, or operator\n     * @param from current owner of the token\n     * @param to address to receive the ownership of the given token ID\n     * @param tokenId uint256 ID of the token to be transferred\n     * @param data bytes data to send along with a safe transfer check\n     */\n    function safeTransferFrom(address from, address to, uint256 tokenId, bytes memory data)\n        public\n        whenNotPaused\n    {\n\n        require(\n            _isApprovedOrOwner(_msgSender(), tokenId),\n            \"UNAUTHORIZED_TRANSFER\"\n        );\n\n        address minter = _tokenToTimeSlot[tokenId].minter;\n        address owner = ownerOf(tokenId);\n        uint32 federationId = tokenToFederationId[tokenId];\n\n        if (_tokenToTimeSlot[tokenId].isSecondaryTradingEnabled == false) {\n            require(\n                isSecondaryTrade(from, to, tokenId) == false,\n                \"SECONDARY_TRADING_DISABLED\"\n            );\n        }\n\n        require(\n            registry.isAuthorizedTransferFrom(federationId, from, to, tokenId, minter, owner),\n            \"UNAUTHORIZED_TRANSFER\"\n        );\n\n        _safeTransferFrom(from, to, tokenId, data);\n\n    }\n\n    /**\n     * @dev Safely transfers the ownership of a given token ID to another address\n     * If the target address is a contract, it must implement `onERC721Received`,\n     * which is called upon a safe transfer, and return the magic value\n     * `bytes4(keccak256(\"onERC721Received(address,address,uint256,bytes)\"))`; otherwise,\n     * the transfer is reverted.\n     * Requires the msg.sender to be the owner, approved, or operator\n     * @param from current owner of the token\n     * @param to address to receive the ownership of the given token ID\n     * @param tokenId uint256 ID of the token to be transferred\n     * @param data bytes data to send along with a safe transfer check\n     */\n    function _safeTransferFrom(address from, address to, uint256 tokenId, bytes memory data)\n        internal\n    {\n\n        _transferFrom(from, to, tokenId);\n\n        require(\n            _checkOnERC721Received(from, to, tokenId, data),\n            \"TRANSFER_TO_NON_ERC721RECEIVER_IMPLEMENTER\"\n        );\n\n    }\n\n    /**\n     * @dev Returns whether the specified token exists.\n     * @param tokenId uint256 ID of the token to query the existence of\n     * @return bool whether the token exists\n     */\n    function _exists(uint256 tokenId) internal view returns (bool) {\n\n        address tokenOwner = _tokenOwner[tokenId];\n\n        return tokenOwner != address(0);\n\n    }\n\n    /**\n     * @dev Returns whether the given spender can transfer a given token ID.\n     * @param spender address of the spender to query\n     * @param tokenId uint256 ID of the token to be transferred\n     * @return bool whether the msg.sender is approved for the given token ID,\n     * is an operator of the owner, or is the owner of the token\n     */\n    function _isApprovedOrOwner(address spender, uint256 tokenId)\n        internal\n        view\n        returns (bool)\n    {\n\n        require(\n            _exists(tokenId),\n            \"NON_EXISTENT_TOKEN\"\n        );\n\n        address tokenOwner = ownerOf(tokenId);\n\n        return (spender == tokenOwner || getApproved(tokenId) == spender || isApprovedForAll(tokenOwner, spender));\n\n    }\n\n    /**\n     * @dev Internal function to transfer ownership of a given token ID to another address.\n     *      As opposed to {transferFrom}, this imposes no restrictions on msg.sender\n     * @param from current owner of the token\n     * @param to address to receive the ownership of the given token ID\n     * @param tokenId uint256 ID of the token to be transferred\n     */\n    function _transferFrom(address from, address to, uint256 tokenId) internal {\n\n        require(\n            ownerOf(tokenId) == from,\n            \"UNAUTHORIZED_TRANSFER\"\n        );\n\n        require(\n            to != address(0),\n            \"TRANSFER_TO_ZERO_ADDRESS\"\n        );\n\n        _clearApproval(tokenId);\n\n        _ownedTokensCount[from].decrement();\n        _ownedTokensCount[to].increment();\n\n        _tokenOwner[tokenId] = to;\n\n        emit Transfer(from, to, tokenId);\n\n    }\n\n    /**\n     * @dev Internal function to invoke {IERC721Receiver-onERC721Received} on a target address.\n     * The call is not executed if the target address is not a contract.\n     *\n     * This function is deprecated.\n     * @param from address representing the previous owner of the given token ID\n     * @param to target address that will receive the tokens\n     * @param tokenId uint256 ID of the token to be transferred\n     * @param data bytes optional data to send along with the call\n     * @return bool whether the call correctly returned the expected magic value\n     */\n    function _checkOnERC721Received(address from, address to, uint256 tokenId, bytes memory data)\n        internal\n        returns (bool)\n    {\n\n        if (!to.isContract()) {\n            return true;\n        }\n\n        bytes4 retval = IERC721Receiver(to).onERC721Received(_msgSender(), from, tokenId, data);\n        return (retval == _ERC721_RECEIVED);\n\n    }\n\n    /**\n     * @dev Private function to clear current approval of a given token ID.\n     * @param tokenId uint256 ID of the token to be transferred\n     */\n    function _clearApproval(uint256 tokenId) private {\n\n        if (_tokenApprovals[tokenId] != address(0)) {\n            _tokenApprovals[tokenId] = address(0);\n        }\n\n    }\n\n\n    /***  Burn Tokens  ***/\n\n\n    // solhint-disable\n    /**\n     * @dev Customized for Microsponsors\n     *      https://github.com/OpenZeppelin/openzeppelin-contracts/blob/master/contracts/token/ERC721/ERC721Burnable.sol     * @dev Burns a specific ERC721 token.\n     * @param tokenId uint256 id of the ERC721 token to be burned\n     */\n     // solhint-enable\n    function burn(uint256 tokenId) public whenNotPaused {\n\n        address minter = _tokenToTimeSlot[tokenId].minter;\n        address tokenOwner = ownerOf(tokenId);\n        uint32 federationId = tokenToFederationId[tokenId];\n\n        if (tokenOwner == minter) {\n            require(\n                registry.isMinter(federationId, _msgSender()),\n                \"UNAUTHORIZED_BURN\"\n            );\n        }\n\n        require(\n            _isApprovedOrOwner(_msgSender(), tokenId),\n            \"UNAUTHORIZED_BURN\"\n        );\n\n        _burn(tokenId);\n\n    }\n\n\n    /**\n     * @dev Internal function to burn a specific token.\n     * Reverts if the token does not exist.\n     * Deprecated, use {_burn} instead.\n     * @param tokenOwner owner of the token to burn\n     * @param tokenId uint256 ID of the token being burned\n     */\n    function _burn(address tokenOwner, uint256 tokenId) internal {\n\n        require(\n            ownerOf(tokenId) == tokenOwner,\n            \"UNAUTHORIZED_BURN\"\n        );\n\n        _clearApproval(tokenId);\n\n        _ownedTokensCount[tokenOwner].decrement();\n        _tokenOwner[tokenId] = address(0);\n\n        // Clear time slot data\n        delete _tokenToTimeSlot[tokenId];\n\n        emit Transfer(tokenOwner, address(0), tokenId);\n\n    }\n\n    /**\n     * @dev Internal function to burn a specific token.\n     * Reverts if the token does not exist.\n     * @param tokenId uint256 ID of the token being burned\n     */\n    function _burn(uint256 tokenId) internal {\n\n        _burn(ownerOf(tokenId), tokenId);\n\n    }\n\n\n    /***  Helper fns  ***/\n\n    function stringsMatch (\n        string memory a,\n        string memory b\n    )\n        private\n        pure\n        returns (bool)\n    {\n        return (keccak256(abi.encodePacked((a))) == keccak256(abi.encodePacked((b))) );\n    }\n\n    function isSecondaryTrade (\n        address from,\n        address to,\n        uint256 tokenId\n    )\n        internal\n        view\n        returns (bool)\n    {\n\n        address minter = _tokenToTimeSlot[tokenId].minter;\n\n        if (from == minter || to == minter) {\n            return false;\n        } else {\n            return true;\n        }\n\n    }\n\n}\n",
  "sourcePath": "/Users/lauren/github/erc-721/contracts/ERC721.sol",
  "compiler": {
    "name": "solc",
    "version": "0.5.11+commit.c082d0b4.Emscripten.clang"
  },
  "schemaVersion": "3.1.0",
  "updatedAt": "2021-03-03T01:12:35.381Z",
  "devdoc": {
    "details": "see https://eips.ethereum.org/EIPS/eip-721",
    "methods": {
      "approve(address,uint256)": {
        "details": "Approves another address to transfer the given token ID The zero address indicates there is no approved address. There can only be one approved address per token at a given time. Can only be called by the token owner or an approved operator.",
        "params": {
          "to": "address to be approved for the given token ID",
          "tokenId": "uint256 ID of the token to be approved"
        }
      },
      "balanceOf(address)": {
        "details": "Gets the balance of the specified address.",
        "params": {
          "tokenOwner": "address to query the balance of"
        },
        "return": "uint256 representing the amount owned by the passed address"
      },
      "burn(uint256)": {
        "details": "Customized for MicrosponsorsBurns a specific ERC721 token.",
        "params": {
          "tokenId": "uint256 id of the ERC721 token to be burned"
        }
      },
      "getApproved(uint256)": {
        "details": "Gets the approved address for a token ID, or zero if no address set Reverts if the token ID does not exist.",
        "params": {
          "tokenId": "uint256 ID of the token to query the approval of"
        },
        "return": "address currently approved for the given token ID"
      },
      "isApprovedForAll(address,address)": {
        "details": "Tells whether an operator is approved by a given token owner.",
        "params": {
          "operator": "operator address which you want to query the approval of",
          "tokenOwner": "token owner address which you want to query the approval of"
        },
        "return": "bool whether the given operator is approved by the token owner"
      },
      "mint(string,uint48,uint48,bool,uint32)": {
        "details": "Function to mint tokens.",
        "return": "tokenId"
      },
      "ownerOf(uint256)": {
        "details": "Gets the owner of the specified token ID.",
        "params": {
          "tokenId": "uint256 ID of the token to query the owner of"
        },
        "return": "address currently marked as the owner of the given token ID"
      },
      "pause()": {
        "details": "Called by contract owner to pause minting and transfers."
      },
      "safeMint(string,uint48,uint48,bool,uint32)": {
        "details": "Function to safely mint tokens.",
        "return": "tokenId"
      },
      "safeMint(string,uint48,uint48,bool,uint32,bytes)": {
        "details": "Function to safely mint tokens.",
        "params": {
          "data": "bytes data to send along with a safe transfer check."
        },
        "return": "tokenId"
      },
      "safeTransferFrom(address,address,uint256)": {
        "details": "Safely transfers the ownership of a given token ID to another address If the target address is a contract, it must implement {IERC721Receiver-onERC721Received}, which is called upon a safe transfer, and return the magic value `bytes4(keccak256(\"onERC721Received(address,address,uint256,bytes)\"))`; otherwise, the transfer is reverted. Requires the msg.sender to be the owner, approved, or operator",
        "params": {
          "from": "current owner of the token",
          "to": "address to receive the ownership of the given token ID",
          "tokenId": "uint256 ID of the token to be transferred"
        }
      },
      "safeTransferFrom(address,address,uint256,bytes)": {
        "details": "Safely transfers the ownership of a given token ID to another address If the target address is a contract, it must implement {IERC721Receiver-onERC721Received}, which is called upon a safe transfer, and return the magic value `bytes4(keccak256(\"onERC721Received(address,address,uint256,bytes)\"))`; otherwise, the transfer is reverted. Requires the _msgSender() to be the owner, approved, or operator",
        "params": {
          "data": "bytes data to send along with a safe transfer check",
          "from": "current owner of the token",
          "to": "address to receive the ownership of the given token ID",
          "tokenId": "uint256 ID of the token to be transferred"
        }
      },
      "setApprovalForAll(address,bool)": {
        "details": "Sets or unsets the approval of a given operator An operator is allowed to transfer all tokens of the sender on their behalf.",
        "params": {
          "approved": "representing the status of the approval to be set",
          "to": "operator address to set the approval"
        }
      },
      "supportsInterface(bytes4)": {
        "details": "See {IERC165-supportsInterface}.     * Time complexity O(1), guaranteed to always use less than 30 000 gas."
      },
      "tokenMinterContentIds(address)": {
        "details": "Look up all Content IDs a Minter has tokenized TimeSlots for.      We're not getting this from the Registry because we want to keep      a separate record here of all Content ID's the acct has *ever*      minted tokens for. The registry is for keeping track of their      current (not necessarily past) Content ID registrations."
      },
      "tokenURI(uint256)": {
        "params": {
          "tokenId": "uint256 ID of the token to query"
        },
        "return": "URI for a given token ID."
      },
      "tokensMintedBy(address)": {
        "details": "This method MUST NEVER be called by smart contract code. First, it's fairly expensive (it walks the entire _tokenIds array looking for tokens belonging to minter), but it also returns a dynamic array, which is only supported for web3 calls, and not contract-to-contract calls (at this time)."
      },
      "tokensOfOwner(address)": {
        "details": "This method MUST NEVER be called by smart contract code. First, it's fairly expensive (it walks the entire _tokenIds array looking for tokens belonging to owner), but it also returns a dynamic array, which is only supported for web3 calls, and not contract-to-contract calls (at this time).",
        "params": {
          "tokenOwner": "The owner whose tokens we are interested in."
        }
      },
      "totalSupply()": {
        "details": "Gets the total number of tokens ever minted."
      },
      "transferFrom(address,address,uint256)": {
        "details": "Transfers the ownership of a given token ID to another address. Usage of this method is discouraged, use {safeTransferFrom} whenever possible. Requires the msg.sender to be the owner, approved, or operator.",
        "params": {
          "from": "current owner of the token",
          "to": "address to receive the ownership of the given token ID",
          "tokenId": "uint256 ID of the token to be transferred"
        }
      },
      "transferOwnership1(address)": {
        "details": "Transfer owner (admin) functions to another address",
        "params": {
          "newOwner": "Address of new owner/ admin of contract"
        }
      },
      "unpause()": {
        "details": "Called by contract owner to unpause minting and transfers."
      },
      "updateMintFee(uint256)": {
        "details": "Update the fee (in wei) charged for minting a single token"
      },
      "updateRegistryAddress(address)": {
        "details": "Update contract address for Microsponsors Registry contract",
        "params": {
          "newAddress": "where the Registry contract lives"
        }
      },
      "updateTokenURIBaseUrl(string)": {
        "details": "Update the base url for all tokenURI's"
      },
      "withdrawBalance()": {
        "details": "Admin withdraws entire balance from contract."
      }
    },
    "title": "ERC721 Non-Fungible Token Standard basic implementation"
  },
  "userdoc": {
    "methods": {
      "tokenURI(uint256)": {
        "notice": "Throws if the token ID does not exist. May return an empty string."
      },
      "tokensMintedBy(address)": {
        "notice": "Return all the Token IDs minted by a given account."
      }
    }
  }
}