{
  "contractName": "ERC721",
  "abi": [
    {
      "constant": true,
      "inputs": [
        {
          "internalType": "bytes4",
          "name": "interfaceId",
          "type": "bytes4"
        }
      ],
      "name": "supportsInterface",
      "outputs": [
        {
          "internalType": "bool",
          "name": "",
          "type": "bool"
        }
      ],
      "payable": false,
      "stateMutability": "view",
      "type": "function"
    },
    {
      "constant": true,
      "inputs": [],
      "name": "mintFee",
      "outputs": [
        {
          "internalType": "uint256",
          "name": "",
          "type": "uint256"
        }
      ],
      "payable": false,
      "stateMutability": "view",
      "type": "function"
    },
    {
      "constant": true,
      "inputs": [
        {
          "internalType": "uint256",
          "name": "",
          "type": "uint256"
        }
      ],
      "name": "tokenToFederationId",
      "outputs": [
        {
          "internalType": "uint32",
          "name": "",
          "type": "uint32"
        }
      ],
      "payable": false,
      "stateMutability": "view",
      "type": "function"
    },
    {
      "constant": true,
      "inputs": [],
      "name": "tokenURIBaseURL",
      "outputs": [
        {
          "internalType": "string",
          "name": "",
          "type": "string"
        }
      ],
      "payable": false,
      "stateMutability": "view",
      "type": "function"
    },
    {
      "constant": true,
      "inputs": [],
      "name": "owner2",
      "outputs": [
        {
          "internalType": "address",
          "name": "",
          "type": "address"
        }
      ],
      "payable": false,
      "stateMutability": "view",
      "type": "function"
    },
    {
      "constant": true,
      "inputs": [],
      "name": "paused",
      "outputs": [
        {
          "internalType": "bool",
          "name": "",
          "type": "bool"
        }
      ],
      "payable": false,
      "stateMutability": "view",
      "type": "function"
    },
    {
      "constant": true,
      "inputs": [],
      "name": "owner1",
      "outputs": [
        {
          "internalType": "address",
          "name": "",
          "type": "address"
        }
      ],
      "payable": false,
      "stateMutability": "view",
      "type": "function"
    },
    {
      "constant": true,
      "inputs": [],
      "name": "registry",
      "outputs": [
        {
          "internalType": "contract DeployedRegistry",
          "name": "",
          "type": "address"
        }
      ],
      "payable": false,
      "stateMutability": "view",
      "type": "function"
    },
    {
      "inputs": [],
      "payable": false,
      "stateMutability": "nonpayable",
      "type": "constructor"
    },
    {
      "anonymous": false,
      "inputs": [
        {
          "indexed": true,
          "internalType": "address",
          "name": "from",
          "type": "address"
        },
        {
          "indexed": true,
          "internalType": "address",
          "name": "to",
          "type": "address"
        },
        {
          "indexed": true,
          "internalType": "uint256",
          "name": "tokenId",
          "type": "uint256"
        }
      ],
      "name": "Transfer",
      "type": "event"
    },
    {
      "anonymous": false,
      "inputs": [
        {
          "indexed": true,
          "internalType": "address",
          "name": "tokenOwner",
          "type": "address"
        },
        {
          "indexed": true,
          "internalType": "address",
          "name": "approved",
          "type": "address"
        },
        {
          "indexed": true,
          "internalType": "uint256",
          "name": "tokenId",
          "type": "uint256"
        }
      ],
      "name": "Approval",
      "type": "event"
    },
    {
      "anonymous": false,
      "inputs": [
        {
          "indexed": true,
          "internalType": "address",
          "name": "tokenOwner",
          "type": "address"
        },
        {
          "indexed": true,
          "internalType": "address",
          "name": "operator",
          "type": "address"
        },
        {
          "indexed": false,
          "internalType": "bool",
          "name": "approved",
          "type": "bool"
        }
      ],
      "name": "ApprovalForAll",
      "type": "event"
    },
    {
      "constant": false,
      "inputs": [
        {
          "internalType": "address",
          "name": "newOwner",
          "type": "address"
        }
      ],
      "name": "transferOwnership1",
      "outputs": [],
      "payable": false,
      "stateMutability": "nonpayable",
      "type": "function"
    },
    {
      "constant": false,
      "inputs": [
        {
          "internalType": "address",
          "name": "newOwner",
          "type": "address"
        }
      ],
      "name": "transferOwnership2",
      "outputs": [],
      "payable": false,
      "stateMutability": "nonpayable",
      "type": "function"
    },
    {
      "constant": false,
      "inputs": [
        {
          "internalType": "address",
          "name": "newAddress",
          "type": "address"
        }
      ],
      "name": "updateRegistryAddress",
      "outputs": [],
      "payable": false,
      "stateMutability": "nonpayable",
      "type": "function"
    },
    {
      "constant": false,
      "inputs": [
        {
          "internalType": "uint256",
          "name": "val",
          "type": "uint256"
        }
      ],
      "name": "updateMintFee",
      "outputs": [],
      "payable": false,
      "stateMutability": "nonpayable",
      "type": "function"
    },
    {
      "constant": false,
      "inputs": [
        {
          "internalType": "string",
          "name": "val",
          "type": "string"
        }
      ],
      "name": "updateTokenURIBaseURL",
      "outputs": [],
      "payable": false,
      "stateMutability": "nonpayable",
      "type": "function"
    },
    {
      "constant": false,
      "inputs": [],
      "name": "pause",
      "outputs": [],
      "payable": false,
      "stateMutability": "nonpayable",
      "type": "function"
    },
    {
      "constant": false,
      "inputs": [],
      "name": "unpause",
      "outputs": [],
      "payable": false,
      "stateMutability": "nonpayable",
      "type": "function"
    },
    {
      "constant": false,
      "inputs": [],
      "name": "withdrawBalance",
      "outputs": [],
      "payable": false,
      "stateMutability": "nonpayable",
      "type": "function"
    },
    {
      "constant": false,
      "inputs": [
        {
          "internalType": "string",
          "name": "contentId",
          "type": "string"
        },
        {
          "internalType": "uint48",
          "name": "startTime",
          "type": "uint48"
        },
        {
          "internalType": "uint48",
          "name": "endTime",
          "type": "uint48"
        },
        {
          "internalType": "bool",
          "name": "isSecondaryTradingEnabled",
          "type": "bool"
        },
        {
          "internalType": "uint32",
          "name": "federationId",
          "type": "uint32"
        }
      ],
      "name": "mint",
      "outputs": [
        {
          "internalType": "uint256",
          "name": "",
          "type": "uint256"
        }
      ],
      "payable": true,
      "stateMutability": "payable",
      "type": "function"
    },
    {
      "constant": false,
      "inputs": [
        {
          "internalType": "string",
          "name": "contentId",
          "type": "string"
        },
        {
          "internalType": "uint48",
          "name": "startTime",
          "type": "uint48"
        },
        {
          "internalType": "uint48",
          "name": "endTime",
          "type": "uint48"
        },
        {
          "internalType": "bool",
          "name": "isSecondaryTradingEnabled",
          "type": "bool"
        },
        {
          "internalType": "uint32",
          "name": "federationId",
          "type": "uint32"
        },
        {
          "internalType": "bytes",
          "name": "data",
          "type": "bytes"
        }
      ],
      "name": "safeMint",
      "outputs": [
        {
          "internalType": "uint256",
          "name": "",
          "type": "uint256"
        }
      ],
      "payable": true,
      "stateMutability": "payable",
      "type": "function"
    },
    {
      "constant": false,
      "inputs": [
        {
          "internalType": "string",
          "name": "contentId",
          "type": "string"
        },
        {
          "internalType": "uint48",
          "name": "startTime",
          "type": "uint48"
        },
        {
          "internalType": "uint48",
          "name": "endTime",
          "type": "uint48"
        },
        {
          "internalType": "bool",
          "name": "isSecondaryTradingEnabled",
          "type": "bool"
        },
        {
          "internalType": "uint32",
          "name": "federationId",
          "type": "uint32"
        }
      ],
      "name": "safeMint",
      "outputs": [
        {
          "internalType": "uint256",
          "name": "",
          "type": "uint256"
        }
      ],
      "payable": true,
      "stateMutability": "payable",
      "type": "function"
    },
    {
      "constant": true,
      "inputs": [
        {
          "internalType": "uint256",
          "name": "tokenId",
          "type": "uint256"
        }
      ],
      "name": "tokenURI",
      "outputs": [
        {
          "internalType": "string",
          "name": "",
          "type": "string"
        }
      ],
      "payable": false,
      "stateMutability": "view",
      "type": "function"
    },
    {
      "constant": true,
      "inputs": [
        {
          "internalType": "uint256",
          "name": "tokenId",
          "type": "uint256"
        }
      ],
      "name": "tokenTimeSlot",
      "outputs": [
        {
          "internalType": "address",
          "name": "minter",
          "type": "address"
        },
        {
          "internalType": "address",
          "name": "owner",
          "type": "address"
        },
        {
          "internalType": "string",
          "name": "contentId",
          "type": "string"
        },
        {
          "internalType": "uint48",
          "name": "startTime",
          "type": "uint48"
        },
        {
          "internalType": "uint48",
          "name": "endTime",
          "type": "uint48"
        },
        {
          "internalType": "bool",
          "name": "isSecondaryTradingEnabled",
          "type": "bool"
        },
        {
          "internalType": "uint32",
          "name": "federationId",
          "type": "uint32"
        }
      ],
      "payable": false,
      "stateMutability": "view",
      "type": "function"
    },
    {
      "constant": true,
      "inputs": [
        {
          "internalType": "address",
          "name": "minter",
          "type": "address"
        }
      ],
      "name": "tokenMinterContentIds",
      "outputs": [
        {
          "internalType": "string[]",
          "name": "",
          "type": "string[]"
        }
      ],
      "payable": false,
      "stateMutability": "view",
      "type": "function"
    },
    {
      "constant": true,
      "inputs": [
        {
          "internalType": "address",
          "name": "minter",
          "type": "address"
        }
      ],
      "name": "tokensMintedBy",
      "outputs": [
        {
          "internalType": "uint256[]",
          "name": "",
          "type": "uint256[]"
        }
      ],
      "payable": false,
      "stateMutability": "view",
      "type": "function"
    },
    {
      "constant": true,
      "inputs": [],
      "name": "totalSupply",
      "outputs": [
        {
          "internalType": "uint256",
          "name": "",
          "type": "uint256"
        }
      ],
      "payable": false,
      "stateMutability": "view",
      "type": "function"
    },
    {
      "constant": true,
      "inputs": [
        {
          "internalType": "address",
          "name": "tokenOwner",
          "type": "address"
        }
      ],
      "name": "balanceOf",
      "outputs": [
        {
          "internalType": "uint256",
          "name": "",
          "type": "uint256"
        }
      ],
      "payable": false,
      "stateMutability": "view",
      "type": "function"
    },
    {
      "constant": true,
      "inputs": [
        {
          "internalType": "uint256",
          "name": "tokenId",
          "type": "uint256"
        }
      ],
      "name": "ownerOf",
      "outputs": [
        {
          "internalType": "address",
          "name": "",
          "type": "address"
        }
      ],
      "payable": false,
      "stateMutability": "view",
      "type": "function"
    },
    {
      "constant": true,
      "inputs": [
        {
          "internalType": "address",
          "name": "tokenOwner",
          "type": "address"
        }
      ],
      "name": "tokensOfOwner",
      "outputs": [
        {
          "internalType": "uint256[]",
          "name": "",
          "type": "uint256[]"
        }
      ],
      "payable": false,
      "stateMutability": "view",
      "type": "function"
    },
    {
      "constant": false,
      "inputs": [
        {
          "internalType": "address",
          "name": "to",
          "type": "address"
        },
        {
          "internalType": "uint256",
          "name": "tokenId",
          "type": "uint256"
        }
      ],
      "name": "approve",
      "outputs": [],
      "payable": false,
      "stateMutability": "nonpayable",
      "type": "function"
    },
    {
      "constant": true,
      "inputs": [
        {
          "internalType": "uint256",
          "name": "tokenId",
          "type": "uint256"
        }
      ],
      "name": "getApproved",
      "outputs": [
        {
          "internalType": "address",
          "name": "",
          "type": "address"
        }
      ],
      "payable": false,
      "stateMutability": "view",
      "type": "function"
    },
    {
      "constant": false,
      "inputs": [
        {
          "internalType": "address",
          "name": "to",
          "type": "address"
        },
        {
          "internalType": "bool",
          "name": "approved",
          "type": "bool"
        }
      ],
      "name": "setApprovalForAll",
      "outputs": [],
      "payable": false,
      "stateMutability": "nonpayable",
      "type": "function"
    },
    {
      "constant": true,
      "inputs": [
        {
          "internalType": "address",
          "name": "tokenOwner",
          "type": "address"
        },
        {
          "internalType": "address",
          "name": "operator",
          "type": "address"
        }
      ],
      "name": "isApprovedForAll",
      "outputs": [
        {
          "internalType": "bool",
          "name": "",
          "type": "bool"
        }
      ],
      "payable": false,
      "stateMutability": "view",
      "type": "function"
    },
    {
      "constant": false,
      "inputs": [
        {
          "internalType": "address",
          "name": "from",
          "type": "address"
        },
        {
          "internalType": "address",
          "name": "to",
          "type": "address"
        },
        {
          "internalType": "uint256",
          "name": "tokenId",
          "type": "uint256"
        }
      ],
      "name": "transferFrom",
      "outputs": [],
      "payable": false,
      "stateMutability": "nonpayable",
      "type": "function"
    },
    {
      "constant": false,
      "inputs": [
        {
          "internalType": "address",
          "name": "from",
          "type": "address"
        },
        {
          "internalType": "address",
          "name": "to",
          "type": "address"
        },
        {
          "internalType": "uint256",
          "name": "tokenId",
          "type": "uint256"
        },
        {
          "internalType": "bytes",
          "name": "data",
          "type": "bytes"
        }
      ],
      "name": "safeTransferFrom",
      "outputs": [],
      "payable": false,
      "stateMutability": "nonpayable",
      "type": "function"
    },
    {
      "constant": false,
      "inputs": [
        {
          "internalType": "address",
          "name": "from",
          "type": "address"
        },
        {
          "internalType": "address",
          "name": "to",
          "type": "address"
        },
        {
          "internalType": "uint256",
          "name": "tokenId",
          "type": "uint256"
        }
      ],
      "name": "safeTransferFrom",
      "outputs": [],
      "payable": false,
      "stateMutability": "nonpayable",
      "type": "function"
    },
    {
      "constant": false,
      "inputs": [
        {
          "internalType": "uint256",
          "name": "tokenId",
          "type": "uint256"
        }
      ],
      "name": "burn",
      "outputs": [],
      "payable": false,
      "stateMutability": "nonpayable",
      "type": "function"
    }
  ],
  "bytecode": "0x6002805460ff60a01b19169055655af3107a400060035560a06040819052600060808190526200003291600c91620001b6565b503480156200004057600080fd5b50620000757f01ffc9a7000000000000000000000000000000000000000000000000000000006001600160e01b036200010c16565b620000a97f80ac58cd000000000000000000000000000000000000000000000000000000006001600160e01b036200010c16565b620000bc6001600160e01b03620001b116565b600180546001600160a01b0319166001600160a01b0392909216919091179055620000e6620001b1565b600280546001600160a01b0319166001600160a01b0392909216919091179055620002b4565b7fffffffff00000000000000000000000000000000000000000000000000000000808216141562000174576040517f08c379a00000000000000000000000000000000000000000000000000000000081526004016200016b9062000293565b60405180910390fd5b7fffffffff00000000000000000000000000000000000000000000000000000000166000908152602081905260409020805460ff19166001179055565b335b90565b828054600181600116156101000203166002900490600052602060002090601f016020900481019282601f10620001f957805160ff191683800117855562000229565b8280016001018555821562000229579182015b82811115620002295782518255916020019190600101906200020c565b50620002379291506200023b565b5090565b620001b391905b8082111562000237576000815560010162000242565b600062000267601c83620002ab565b7f4552433136353a20696e76616c696420696e7465726661636520696400000000815260200192915050565b60208082528101620002a58162000258565b92915050565b90815260200190565b61374180620002c46000396000f3fe6080604052600436106102045760003560e01c8063706230db11610118578063a4ede128116100a0578063e2b375a91161006f578063e2b375a9146105b4578063e5c24924146105d4578063e89fecc014610607578063e982d5a91461061a578063e985e9c51461063a57610204565b8063a4ede12814610527578063b88d4fde14610554578063c57a882514610574578063c87b56dd1461059457610204565b806384017e52116100e757806384017e521461049f5780638456cb59146104bf5780638462151c146104d4578063a002c376146104f4578063a22cb4651461050757610204565b8063706230db1461042857806370a082311461044857806373688914146104685780637b1039991461047d57610204565b80633f4ba83a1161019b578063527097251161016a57806352709725146103b65780635a393bc2146103cb5780635c975abb146103de5780635fd8c710146103f35780636352211e1461040857610204565b80633f4ba83a1461033f57806340ce3a411461035457806342842e0e1461037657806342966c681461039657610204565b8063180b9e3f116101d7578063180b9e3f146102b057806318160ddd146102dd57806323b872dd146102f25780632a0c77991461031257610204565b806301ffc9a714610209578063081812fc1461023f578063095ea7b31461026c57806313966db51461028e575b600080fd5b34801561021557600080fd5b50610229610224366004612a97565b61065a565b60405161023691906133c7565b60405180910390f35b34801561024b57600080fd5b5061025f61025a366004612c4a565b61067d565b60405161023691906132e4565b34801561027857600080fd5b5061028c610287366004612a49565b6106c9565b005b34801561029a57600080fd5b506102a36107c5565b6040516102369190613514565b3480156102bc57600080fd5b506102d06102cb366004612c4a565b6107cb565b6040516102369190613522565b3480156102e957600080fd5b506102a36107e3565b3480156102fe57600080fd5b5061028c61030d366004612953565b6107f5565b34801561031e57600080fd5b5061033261032d3660046128fb565b610971565b60405161023691906133b6565b34801561034b57600080fd5b5061028c610a79565b34801561036057600080fd5b50610369610afd565b60405161023691906133e3565b34801561038257600080fd5b5061028c610391366004612953565b610b8b565b3480156103a257600080fd5b5061028c6103b1366004612c4a565b610bab565b3480156103c257600080fd5b5061025f610cef565b6102a36103d9366004612b94565b610cfe565b3480156103ea57600080fd5b50610229610e69565b3480156103ff57600080fd5b5061028c610e79565b34801561041457600080fd5b5061025f610423366004612c4a565b610f55565b34801561043457600080fd5b5061028c610443366004612ad3565b610f70565b34801561045457600080fd5b506102a36104633660046128fb565b610fe2565b34801561047457600080fd5b5061025f611031565b34801561048957600080fd5b50610492611040565b60405161023691906133d5565b3480156104ab57600080fd5b5061028c6104ba366004612c4a565b61104f565b3480156104cb57600080fd5b5061028c6110b3565b3480156104e057600080fd5b506103326104ef3660046128fb565b61113e565b6102a3610502366004612b08565b6111f8565b34801561051357600080fd5b5061028c610522366004612a19565b611361565b34801561053357600080fd5b506105476105423660046128fb565b611446565b60405161023691906133a5565b34801561056057600080fd5b5061028c61056f3660046129a0565b6115bc565b34801561058057600080fd5b5061028c61058f3660046128fb565b61173a565b3480156105a057600080fd5b506103696105af366004612c4a565b6117bb565b3480156105c057600080fd5b5061028c6105cf3660046128fb565b611814565b3480156105e057600080fd5b506105f46105ef366004612c4a565b6118a1565b60405161023697969594939291906132f2565b6102a3610615366004612b08565b611a2c565b34801561062657600080fd5b5061028c6106353660046128fb565b611b58565b34801561064657600080fd5b50610229610655366004612919565b611be6565b6001600160e01b0319811660009081526020819052604090205460ff165b919050565b600061068882611c14565b6106ad5760405162461bcd60e51b81526004016106a4906134d4565b60405180910390fd5b506000908152600d60205260409020546001600160a01b031690565b600254600160a01b900460ff16156106e057600080fd5b60006106eb82610f55565b9050806001600160a01b0316836001600160a01b0316141561071f5760405162461bcd60e51b81526004016106a490613454565b806001600160a01b0316610731611c31565b6001600160a01b0316148061074d575061074d81610655611c31565b6107695760405162461bcd60e51b81526004016106a490613504565b6000828152600d602052604080822080546001600160a01b0319166001600160a01b0387811691821790925591518593918516917f8c5be1e5ebec7d5bd14f71427d1e84f3dd0314c0f7b2291e5b200ac8c7c3b92591a4505050565b60035481565b60096020526000908152604090205463ffffffff1681565b60006107ef6005611c35565b90505b90565b600254600160a01b900460ff161561080c57600080fd5b61081d610817611c31565b82611c39565b6108395760405162461bcd60e51b81526004016106a4906134f4565b6000818152600a60205260408120546001600160a01b03169061085b83610f55565b600084815260096020908152604080832054600a9092529091206002015491925063ffffffff1690600160601b900460ff166108b95761089c868686611cbe565b156108b95760405162461bcd60e51b81526004016106a490613404565b60048054604051630d1e359160e01b81526001600160a01b0390911691630d1e3591916108f29185918b918b918b918b918b910161354b565b60206040518083038186803b15801561090a57600080fd5b505afa15801561091e573d6000803e3d6000fd5b505050506040513d601f19601f820116820180604052506109429190810190612a79565b61095e5760405162461bcd60e51b81526004016106a4906134f4565b610969868686611d15565b505050505050565b60606001600160a01b0382166109995760405162461bcd60e51b81526004016106a490613434565b6001600160a01b03821660009081526008602052604081206109ba90611c35565b9050806109dc5760408051600080825260208201909252905b50915050610678565b606081604051908082528060200260200182016040528015610a08578160200160208202803883390190505b5090506000610a156107e3565b9050600060015b828111610a6c576000818152600a60205260409020546001600160a01b0388811691161415610a645780848381518110610a5257fe5b60209081029190910101526001909101905b600101610a1c565b8395505050505050610678565b6001546001600160a01b0316610a8d611c31565b6001600160a01b03161480610abc57506002546001600160a01b0316610ab1611c31565b6001600160a01b0316145b610ad85760405162461bcd60e51b81526004016106a4906134a4565b600254600160a01b900460ff16610aee57600080fd5b6002805460ff60a01b19169055565b600c805460408051602060026001851615610100026000190190941693909304601f81018490048402820184019092528181529291830182828015610b835780601f10610b5857610100808354040283529160200191610b83565b820191906000526020600020905b815481529060010190602001808311610b6657829003601f168201915b505050505081565b610ba6838383604051806020016040528060008152506115bc565b505050565b600254600160a01b900460ff1615610bc257600080fd5b6000818152600a60205260408120546001600160a01b031690610be483610f55565b60008481526009602052604090205490915063ffffffff166001600160a01b038083169084161415610cb3576004546001600160a01b03166312d26ac882610c2a611c31565b6040518363ffffffff1660e01b8152600401610c47929190613530565b60206040518083038186803b158015610c5f57600080fd5b505afa158015610c73573d6000803e3d6000fd5b505050506040513d601f19601f82011682018060405250610c979190810190612a79565b610cb35760405162461bcd60e51b81526004016106a490613444565b610cc4610cbe611c31565b85611c39565b610ce05760405162461bcd60e51b81526004016106a490613444565b610ce984611e1b565b50505050565b6002546001600160a01b031681565b600254600090600160a01b900460ff1615610d1857600080fd5b600354341015610d2757600080fd5b60008363ffffffff1611610d4d5760405162461bcd60e51b81526004016106a490613494565b6004546001600160a01b03166312d26ac884610d67611c31565b6040518363ffffffff1660e01b8152600401610d84929190613530565b60206040518083038186803b158015610d9c57600080fd5b505afa158015610db0573d6000803e3d6000fd5b505050506040513d601f19601f82011682018060405250610dd49190810190612a79565b610df05760405162461bcd60e51b81526004016106a4906134e4565b610dfc87878786611e2d565b610e185760405162461bcd60e51b81526004016106a4906134c4565b6000610e2b610e25611c31565b84611f07565b9050610e3a8189898989611f3e565b6000818152600960205260409020805463ffffffff861663ffffffff1990911617905590509695505050505050565b600254600160a01b900460ff1681565b6001546001600160a01b0316610e8d611c31565b6001600160a01b03161480610ebc57506002546001600160a01b0316610eb1611c31565b6001600160a01b0316145b610ed85760405162461bcd60e51b81526004016106a4906134a4565b60405130319060009033908390610eee906132d9565b60006040518083038185875af1925050503d8060008114610f2b576040519150601f19603f3d011682016040523d82523d6000602084013e610f30565b606091505b5050905080610f515760405162461bcd60e51b81526004016106a490613464565b5050565b6000908152600660205260409020546001600160a01b031690565b6001546001600160a01b0316610f84611c31565b6001600160a01b03161480610fb357506002546001600160a01b0316610fa8611c31565b6001600160a01b0316145b610fcf5760405162461bcd60e51b81526004016106a4906134a4565b8051610f5190600c906020840190612748565b60006001600160a01b03821661100a5760405162461bcd60e51b81526004016106a490613434565b6001600160a01b038216600090815260076020526040902061102b90611c35565b92915050565b6001546001600160a01b031681565b6004546001600160a01b031681565b6001546001600160a01b0316611063611c31565b6001600160a01b0316148061109257506002546001600160a01b0316611087611c31565b6001600160a01b0316145b6110ae5760405162461bcd60e51b81526004016106a4906134a4565b600355565b6001546001600160a01b03166110c7611c31565b6001600160a01b031614806110f657506002546001600160a01b03166110eb611c31565b6001600160a01b0316145b6111125760405162461bcd60e51b81526004016106a4906134a4565b600254600160a01b900460ff161561112957600080fd5b6002805460ff60a01b1916600160a01b179055565b6060600061114b83610fe2565b9050806111685760408051600080825260208201909252906109d3565b606081604051908082528060200260200182016040528015611194578160200160208202803883390190505b50905060006111a16107e3565b9050600060015b828111610a6c576000818152600660205260409020546001600160a01b03888116911614156111f057808483815181106111de57fe5b60209081029190910101526001909101905b6001016111a8565b600254600090600160a01b900460ff161561121257600080fd5b60035434101561122157600080fd5b60008263ffffffff16116112475760405162461bcd60e51b81526004016106a490613494565b6004546001600160a01b03166312d26ac883611261611c31565b6040518363ffffffff1660e01b815260040161127e929190613530565b60206040518083038186803b15801561129657600080fd5b505afa1580156112aa573d6000803e3d6000fd5b505050506040513d601f19601f820116820180604052506112ce9190810190612a79565b6112ea5760405162461bcd60e51b81526004016106a4906134e4565b6112f686868685611e2d565b6113125760405162461bcd60e51b81526004016106a4906134c4565b600061132461131f611c31565b6120fd565b90506113338188888888611f3e565b6000818152600960205260409020805463ffffffff851663ffffffff19909116179055905095945050505050565b600254600160a01b900460ff161561137857600080fd5b611380611c31565b6001600160a01b0316826001600160a01b031614156113b15760405162461bcd60e51b81526004016106a490613484565b80600e60006113be611c31565b6001600160a01b03908116825260208083019390935260409182016000908120918716808252919093529120805460ff191692151592909217909155611402611c31565b6001600160a01b03167f17307eab39ab6107e8899845ad3d59bd9653f200f220920489ca2b5937696c318360405161143a91906133c7565b60405180910390a35050565b6001600160a01b0381166000908152600b602090815260408083208054825181850281018501909352808352606094859484015b8282101561153157600084815260209081902060408051918501805460026001821615610100026000190190911604601f81018590048502840183018352938301848152929390928492909184918401828280156115195780601f106114ee57610100808354040283529160200191611519565b820191906000526020600020905b8154815290600101906020018083116114fc57829003601f168201915b5050505050815250508152602001906001019061147a565b5050505090506060815160405190808252806020026020018201604052801561156e57816020015b60608152602001906001900390816115595790505b50905060005b82518110156115b45782818151811061158957fe5b6020026020010151600001518282815181106115a157fe5b6020908102919091010152600101611574565b509392505050565b600254600160a01b900460ff16156115d357600080fd5b6115e46115de611c31565b83611c39565b6116005760405162461bcd60e51b81526004016106a4906134f4565b6000828152600a60205260408120546001600160a01b03169061162284610f55565b600085815260096020908152604080832054600a9092529091206002015491925063ffffffff1690600160601b900460ff1661168057611663878787611cbe565b156116805760405162461bcd60e51b81526004016106a490613404565b60048054604051630d1e359160e01b81526001600160a01b0390911691630d1e3591916116b99185918c918c918c918b918b910161354b565b60206040518083038186803b1580156116d157600080fd5b505afa1580156116e5573d6000803e3d6000fd5b505050506040513d601f19601f820116820180604052506117099190810190612a79565b6117255760405162461bcd60e51b81526004016106a4906134f4565b61173187878787612119565b50505050505050565b6001546001600160a01b031661174e611c31565b6001600160a01b0316148061177d57506002546001600160a01b0316611772611c31565b6001600160a01b0316145b6117995760405162461bcd60e51b81526004016106a4906134a4565b600480546001600160a01b0319166001600160a01b0392909216919091179055565b60606117c682611c14565b6117e25760405162461bcd60e51b81526004016106a4906134d4565b600c6117ed8361214c565b6040516020016117fe9291906132c1565b6040516020818303038152906040529050919050565b6001546001600160a01b0316611828611c31565b6001600160a01b0316148061185757506002546001600160a01b031661184c611c31565b6001600160a01b0316145b6118735760405162461bcd60e51b81526004016106a4906134a4565b6001600160a01b0381161561189e57600280546001600160a01b0319166001600160a01b0383161790555b50565b60008060606000806000806118b588611c14565b6118d15760405162461bcd60e51b81526004016106a4906134d4565b6118d96127c6565b6000898152600a6020908152604091829020825160a08101845281546001600160a01b03168152600180830180548651600261010094831615949094026000190190911692909204601f81018690048602830186019096528582529194929385810193919291908301828280156119915780601f1061196657610100808354040283529160200191611991565b820191906000526020600020905b81548152906001019060200180831161197457829003601f168201915b50505091835250506002919091015465ffffffffffff80821660208085019190915266010000000000008304909116604080850191909152600160601b90920460ff16151560609093019290925260008c81526009909252902054815191925063ffffffff1690611a018b610f55565b602084015160408501516060860151608090960151939e929d50909b50995092975095509350915050565b600254600090600160a01b900460ff1615611a4657600080fd5b600354341015611a5557600080fd5b60008263ffffffff1611611a7b5760405162461bcd60e51b81526004016106a490613494565b6004546001600160a01b03166312d26ac883611a95611c31565b6040518363ffffffff1660e01b8152600401611ab2929190613530565b60206040518083038186803b158015611aca57600080fd5b505afa158015611ade573d6000803e3d6000fd5b505050506040513d601f19601f82011682018060405250611b029190810190612a79565b611b1e5760405162461bcd60e51b81526004016106a4906134e4565b611b2a86868685611e2d565b611b465760405162461bcd60e51b81526004016106a4906134c4565b6000611324611b53611c31565b612225565b6001546001600160a01b0316611b6c611c31565b6001600160a01b03161480611b9b57506002546001600160a01b0316611b90611c31565b6001600160a01b0316145b611bb75760405162461bcd60e51b81526004016106a4906134a4565b6001600160a01b0381161561189e57600180546001600160a01b0383166001600160a01b031990911617905550565b6001600160a01b039182166000908152600e6020908152604080832093909416825291909152205460ff1690565b6000908152600660205260409020546001600160a01b0316151590565b3390565b5490565b6000611c4482611c14565b611c605760405162461bcd60e51b81526004016106a4906134d4565b6000611c6b83610f55565b9050806001600160a01b0316846001600160a01b03161480611ca65750836001600160a01b0316611c9b8461067d565b6001600160a01b0316145b80611cb65750611cb68185611be6565b949350505050565b6000818152600a60205260408120546001600160a01b03908116908516811480611cf95750806001600160a01b0316846001600160a01b0316145b15611d08576000915050611d0e565b60019150505b9392505050565b826001600160a01b0316611d2882610f55565b6001600160a01b031614611d4e5760405162461bcd60e51b81526004016106a4906134f4565b6001600160a01b038216611d745760405162461bcd60e51b81526004016106a490613424565b611d7d81612304565b6001600160a01b0383166000908152600760205260409020611d9e9061233f565b6001600160a01b0382166000908152600760205260409020611dbf90612356565b60008181526006602052604080822080546001600160a01b0319166001600160a01b0386811691821790925591518493918716917fddf252ad1be2c89b69c2b068fc378daa952ba7f163c4a11628f55a4df523b3ef91a4505050565b61189e611e2782610f55565b8261235f565b6004805460405163abe6178360e01b81526000926001600160a01b039092169163abe6178391611e619186918a91016135a5565b60206040518083038186803b158015611e7957600080fd5b505afa158015611e8d573d6000803e3d6000fd5b505050506040513d601f19601f82011682018060405250611eb19190810190612a79565b611ecd5760405162461bcd60e51b81526004016106a490613474565b8365ffffffffffff168365ffffffffffff1611611efc5760405162461bcd60e51b81526004016106a4906134b4565b506001949350505050565b600080611f1384612225565b9050611f226000858386612454565b611d0e5760405162461bcd60e51b81526004016106a490613414565b611f4785611c14565b611f635760405162461bcd60e51b81526004016106a4906134d4565b611f6b6127c6565b6040518060a00160405280611f7e611c31565b6001600160a01b031681526020018681526020018565ffffffffffff1681526020018465ffffffffffff168152602001831515815250905080600a600088815260200190815260200160002060008201518160000160006101000a8154816001600160a01b0302191690836001600160a01b031602179055506020820151816001019080519060200190612013929190612748565b5060408201516002919091018054606084015160809094015165ffffffffffff1990911665ffffffffffff938416176bffffffffffff000000000000191666010000000000009390941692909202929092176cff0000000000000000000000001916600160601b9115159190910217905561208d8561251f565b61096957600b600061209d611c31565b6001600160a01b031681526020808201929092526040908101600090812082518085019093528883528054600181018083559183529184902083518051929591909301926120f19284929190910190612748565b50505050505050505050565b600080611d0e8360405180602001604052806000815250611f07565b612124848484611d15565b61213084848484612454565b610ce95760405162461bcd60e51b81526004016106a490613414565b60608161217157506040805180820190915260018152600360fc1b6020820152610678565b8160005b811561218957600101600a82049150612175565b6060816040519080825280601f01601f1916602001820160405280156121b6576020820181803883390190505b50905060001982015b851561221c57600a860660300160f81b828280600190039350815181106121e257fe5b60200101907effffffffffffffffffffffffffffffffffffffffffffffffffffffffffffff1916908160001a905350600a860495506121bf565b50949350505050565b60006001600160a01b03821661224d5760405162461bcd60e51b81526004016106a4906133f4565b6122576005612356565b60006122636005611c35565b600081815260066020908152604080832080546001600160a01b0319166001600160a01b0389169081179091558352600790915290209091506122a590612356565b6001600160a01b03831660009081526008602052604090206122c690612356565b60405181906001600160a01b038516906000907fddf252ad1be2c89b69c2b068fc378daa952ba7f163c4a11628f55a4df523b3ef908290a492915050565b6000818152600d60205260409020546001600160a01b03161561189e576000908152600d6020526040902080546001600160a01b0319169055565b805461235290600163ffffffff61264a16565b9055565b80546001019055565b816001600160a01b031661237282610f55565b6001600160a01b0316146123985760405162461bcd60e51b81526004016106a490613444565b6123a181612304565b6001600160a01b03821660009081526007602052604090206123c29061233f565b600081815260066020908152604080832080546001600160a01b0319908116909155600a9092528220805490911681559061240060018301826127f5565b5060020180546cffffffffffffffffffffffffff1916905560405181906000906001600160a01b038516907fddf252ad1be2c89b69c2b068fc378daa952ba7f163c4a11628f55a4df523b3ef908390a45050565b6000612468846001600160a01b031661268c565b61247457506001611cb6565b6000846001600160a01b031663150b7a0261248d611c31565b8887876040518563ffffffff1660e01b81526004016124af9493929190613361565b602060405180830381600087803b1580156124c957600080fd5b505af11580156124dd573d6000803e3d6000fd5b505050506040513d601f19601f820116820180604052506125019190810190612ab5565b6001600160e01b031916630a85bd0160e11b14915050949350505050565b336000908152600b602090815260408083208054825181850281018501909352808352606093859084015b8282101561260157600084815260209081902060408051918501805460026001821615610100026000190190911604601f81018590048502840183018352938301848152929390928492909184918401828280156125e95780601f106125be576101008083540402835291602001916125e9565b820191906000526020600020905b8154815290600101906020018083116125cc57829003601f168201915b5050505050815250508152602001906001019061254a565b5092935060009250829150505b82518110156115b4576126388584838151811061262757fe5b6020026020010151600001516126c3565b1561264257600191505b60010161260e565b6000611d0e83836040518060400160405280601e81526020017f536166654d6174683a207375627472616374696f6e206f766572666c6f77000081525061271c565b6000813f7fc5d2460186f7233c927e7db2dcc703c0e500b653ca82273b7bfad8045d85a4708115801590611cb65750141592915050565b6000816040516020016126d691906132b5565b60405160208183030381529060405280519060200120836040516020016126fd91906132b5565b6040516020818303038152906040528051906020012014905092915050565b600081848411156127405760405162461bcd60e51b81526004016106a491906133e3565b505050900390565b828054600181600116156101000203166002900490600052602060002090601f016020900481019282601f1061278957805160ff19168380011785556127b6565b828001600101855582156127b6579182015b828111156127b657825182559160200191906001019061279b565b506127c2929150612835565b5090565b6040805160a0810182526000808252606060208301819052928201819052918101829052608081019190915290565b50805460018160011615610100020316600290046000825580601f1061281b575061189e565b601f01602090049060005260206000209081019061189e91905b6107f291905b808211156127c2576000815560010161283b565b803561102b816136bd565b803561102b816136d1565b805161102b816136d1565b803561102b816136da565b805161102b816136da565b600082601f83011261289757600080fd5b81356128aa6128a5826135ec565b6135c5565b915080825260208301602083018583830111156128c657600080fd5b6128d183828461367b565b50505092915050565b803561102b816136e3565b803561102b816136ec565b803561102b816136f5565b60006020828403121561290d57600080fd5b6000611cb6848461284f565b6000806040838503121561292c57600080fd5b6000612938858561284f565b92505060206129498582860161284f565b9150509250929050565b60008060006060848603121561296857600080fd5b6000612974868661284f565b93505060206129858682870161284f565b9250506040612996868287016128da565b9150509250925092565b600080600080608085870312156129b657600080fd5b60006129c2878761284f565b94505060206129d38782880161284f565b93505060406129e4878288016128da565b925050606085013567ffffffffffffffff811115612a0157600080fd5b612a0d87828801612886565b91505092959194509250565b60008060408385031215612a2c57600080fd5b6000612a38858561284f565b92505060206129498582860161285a565b60008060408385031215612a5c57600080fd5b6000612a68858561284f565b9250506020612949858286016128da565b600060208284031215612a8b57600080fd5b6000611cb68484612865565b600060208284031215612aa957600080fd5b6000611cb68484612870565b600060208284031215612ac757600080fd5b6000611cb6848461287b565b600060208284031215612ae557600080fd5b813567ffffffffffffffff811115612afc57600080fd5b611cb684828501612886565b600080600080600060a08688031215612b2057600080fd5b853567ffffffffffffffff811115612b3757600080fd5b612b4388828901612886565b9550506020612b54888289016128f0565b9450506040612b65888289016128f0565b9350506060612b768882890161285a565b9250506080612b87888289016128e5565b9150509295509295909350565b60008060008060008060c08789031215612bad57600080fd5b863567ffffffffffffffff811115612bc457600080fd5b612bd089828a01612886565b9650506020612be189828a016128f0565b9550506040612bf289828a016128f0565b9450506060612c0389828a0161285a565b9350506080612c1489828a016128e5565b92505060a087013567ffffffffffffffff811115612c3157600080fd5b612c3d89828a01612886565b9150509295509295509295565b600060208284031215612c5c57600080fd5b6000611cb684846128da565b6000611d0e8383612d67565b6000612c80838361329a565b505060200190565b612c9181613633565b82525050565b6000612ca282613626565b612cac818561362a565b935083602082028501612cbe85613614565b8060005b85811015612cf85784840389528151612cdb8582612c68565b9450612ce683613614565b60209a909a0199925050600101612cc2565b5091979650505050505050565b6000612d1082613626565b612d1a818561362a565b9350612d2583613614565b8060005b83811015612d53578151612d3d8882612c74565b9750612d4883613614565b925050600101612d29565b509495945050505050565b612c918161363e565b6000612d7282613626565b612d7c818561362a565b9350612d8c818560208601613687565b612d95816136b3565b9093019392505050565b612c9181613670565b6000612db382613626565b612dbd8185610678565b9350612dcd818560208601613687565b9290920192915050565b600081546001811660008114612df45760018114612e1757612e56565b607f6002830416612e058187610678565b60ff1984168152955085019250612e56565b60028204612e258187610678565b9550612e308561361a565b60005b82811015612e4f57815488820152600190910190602001612e33565b5050850192505b505092915050565b6000612e6b60148361362a565b7f4d494e545f544f5f5a45524f5f41444452455353000000000000000000000000815260200192915050565b6000612ea4601a8361362a565b7f5345434f4e444152595f54524144494e475f44495341424c4544000000000000815260200192915050565b6000612edd602a8361362a565b7f5452414e534645525f544f5f4e4f4e5f45524337323152454345495645525f4981526926a82622a6a2a72a22a960b11b602082015260400192915050565b6000612f2960188361362a565b7f5452414e534645525f544f5f5a45524f5f414444524553530000000000000000815260200192915050565b6000612f6260198361362a565b7f43414e4e4f545f51554552595f5a45524f5f4144445245535300000000000000815260200192915050565b6000612f9b60118361362a565b7f554e415554484f52495a45445f4255524e000000000000000000000000000000815260200192915050565b6000612fd460158361362a565b7f415050524f56414c5f49535f524544554e44414e540000000000000000000000815260200192915050565b600061300d600f8361362a565b7f57495448445241575f4641494c45440000000000000000000000000000000000815260200192915050565b600061304660238361362a565b7f434f4e54454e545f49445f4e4f545f524547495354455245445f544f5f43414c8152622622a960e91b602082015260400192915050565b600061308b601a8361362a565b7f43414c4c45525f43414e4e4f545f415050524f56455f53454c46000000000000815260200192915050565b60006130c460158361362a565b7f494e56414c49445f46454445524154494f4e5f49440000000000000000000000815260200192915050565b60006130fd60138361362a565b7f4f4e4c595f434f4e54524143545f4f574e455200000000000000000000000000815260200192915050565b600061313660198361362a565b7f53544152545f54494d455f41465445525f454e445f54494d4500000000000000815260200192915050565b600061102b600083610678565b600061317c60118361362a565b7f494e56414c49445f54494d455f534c4f54000000000000000000000000000000815260200192915050565b60006131b560128361362a565b7f4e4f4e5f4558495354454e545f544f4b454e0000000000000000000000000000815260200192915050565b60006131ee60258361362a565b7f43414c4c45525f4e4f545f415554484f52495a45445f464f525f4d494e5445528152645f524f4c4560d81b602082015260400192915050565b600061323560158361362a565b7f554e415554484f52495a45445f5452414e534645520000000000000000000000815260200192915050565b600061326e60158361362a565b7f43414c4c45525f4e4f545f415554484f52495a45440000000000000000000000815260200192915050565b612c91816107f2565b612c918161365c565b612c9181613665565b6000611d0e8284612da8565b60006132cd8285612dd7565b9150611cb68284612da8565b600061102b82613162565b6020810161102b8284612c88565b60e08101613300828a612c88565b61330d6020830189612c88565b818103604083015261331f8188612d67565b905061332e60608301876132ac565b61333b60808301866132ac565b61334860a0830185612d5e565b61335560c08301846132a3565b98975050505050505050565b6080810161336f8287612c88565b61337c6020830186612c88565b613389604083018561329a565b818103606083015261339b8184612d67565b9695505050505050565b60208082528101611d0e8184612c97565b60208082528101611d0e8184612d05565b6020810161102b8284612d5e565b6020810161102b8284612d9f565b60208082528101611d0e8184612d67565b6020808252810161102b81612e5e565b6020808252810161102b81612e97565b6020808252810161102b81612ed0565b6020808252810161102b81612f1c565b6020808252810161102b81612f55565b6020808252810161102b81612f8e565b6020808252810161102b81612fc7565b6020808252810161102b81613000565b6020808252810161102b81613039565b6020808252810161102b8161307e565b6020808252810161102b816130b7565b6020808252810161102b816130f0565b6020808252810161102b81613129565b6020808252810161102b8161316f565b6020808252810161102b816131a8565b6020808252810161102b816131e1565b6020808252810161102b81613228565b6020808252810161102b81613261565b6020810161102b828461329a565b6020810161102b82846132a3565b6040810161353e82856132a3565b611d0e6020830184612c88565b60c0810161355982896132a3565b6135666020830188612c88565b6135736040830187612c88565b613580606083018661329a565b61358d6080830185612c88565b61359a60a0830184612c88565b979650505050505050565b604081016135b382856132a3565b8181036020830152611cb68184612d67565b60405181810167ffffffffffffffff811182821017156135e457600080fd5b604052919050565b600067ffffffffffffffff82111561360357600080fd5b506020601f91909101601f19160190565b60200190565b60009081526020902090565b5190565b90815260200190565b600061102b82613650565b151590565b6001600160e01b03191690565b6001600160a01b031690565b63ffffffff1690565b65ffffffffffff1690565b600061102b82613633565b82818337506000910152565b60005b838110156136a257818101518382015260200161368a565b83811115610ce95750506000910152565b601f01601f191690565b6136c681613633565b811461189e57600080fd5b6136c68161363e565b6136c681613643565b6136c6816107f2565b6136c68161365c565b6136c68161366556fea365627a7a723158202d1b0d7af060947481195c31b727c13c5dd74978a2855c08cd250a344cf1e3306c6578706572696d656e74616cf564736f6c634300050b0040",
  "source": "pragma solidity ^0.5.11;\npragma experimental ABIEncoderV2;\n\n/**\n * @title ERC721 Customized for Microsponsors from:\n * https://github.com/OpenZeppelin/openzeppelin-contracts/blob/master/contracts/token/ERC721/ERC721MetadataMintable.sol\n */\n\nimport \"./IERC721.sol\";\nimport \"./IERC721Receiver.sol\";\nimport \"./SafeMath.sol\";\nimport \"./Address.sol\";\nimport \"./Counters.sol\";\nimport \"./ERC165.sol\";\n\n\n/**\n * @title Deployed Microsponsors Registry smart contract interface.\n * @dev We just use the signatures of the parts we need to interact with:\n */\ncontract DeployedRegistry {\n    function isContentIdRegisteredToCaller(uint32 federationId, string memory contentId) public view returns(bool);\n    function isMinter(uint32 federationId, address account) public view returns (bool);\n    function isAuthorizedTransferFrom(uint32 federationId, address from, address to, uint256 tokenId, address minter, address owner) public view returns(bool);\n}\n\n\n/**\n * @title ERC721 Non-Fungible Token Standard basic implementation\n * @dev see https://eips.ethereum.org/EIPS/eip-721\n */\ncontract ERC721 is ERC165, IERC721 {\n    using SafeMath for uint256;\n    using Address for address;\n    using Counters for Counters.Counter;\n\n\n    /***  Contract data  ***/\n\n\n    /// @dev owner1, owner2 Admins of this contract.\n    address public owner1;\n    address public owner2;\n\n    /// @dev paused Admin only. Set to `true` to stop token minting and transfers.\n    bool public paused = false;\n\n    /// @dev mintFee Admin only. Set minting fee; default fee is below (in wei).\n    uint256 public mintFee = 100000000000000;\n\n    /// @dev DeployedRegistry The Microsponsors Registry Contract that verifies participants.\n    ///      Admin can update the contract address here to upgrade Registry.\n    DeployedRegistry public registry;\n\n    /// @title _tokenIds All Token IDs minted, incremented starting at 1\n    Counters.Counter _tokenIds;\n\n    /// @dev _tokenOwner mapping from Token ID to Token Owner\n    mapping (uint256 => address) private _tokenOwner;\n\n    /// @dev _ownedTokensCount mapping from Token Owner to # of owned tokens\n    mapping (address => Counters.Counter) private _ownedTokensCount;\n\n    /// @dev _mintedTokensCount mapping from Token Minter to # of minted tokens\n    mapping (address => Counters.Counter) private _mintedTokensCount;\n\n    /// @dev tokenToFederationId see notes on path to federation in Microsponsors Registry contract\n    mapping (uint256 => uint32) public tokenToFederationId;\n\n    /// @dev TimeSlot metadata struct for each token\n    ///      TimeSlots timestamps are stored as uint48:\n    ///      https://medium.com/@novablitz/storing-structs-is-costing-you-gas-774da988895e\n    struct TimeSlot {\n        address minter; // the address of the user who mint()'ed this time slot\n        string contentId; // the users' registered contentId\n        uint48 startTime; // min timestamp (when time slot begins)\n        uint48 endTime; // max timestamp (when time slot ends)\n        bool isSecondaryTradingEnabled; // if true, first buyer can trade to others\n    }\n\n    /// @dev _tokenToTimeSlot mapping from Token ID to TimeSlot struct\n    ///      Use tokenTimeSlot() public method to read\n    mapping(uint256 => TimeSlot) private _tokenToTimeSlot;\n\n    /// @dev ContentIdStruct The registered Content ID, verified by Registry contract\n    struct ContentIdStruct {\n        string contentId;\n    }\n    /// @dev _tokenMinterToContentIds Mapping from Token Minter to array of Content IDs\n    ///      that they have *ever* minted tokens for\n    mapping(address => ContentIdStruct[]) private _tokenMinterToContentIds;\n\n    /// @dev set by Admin\n    string public tokenURIBaseURL = '';\n\n    /// @dev _tokenApprovals Mapping from Token ID to Approved Address\n    mapping (uint256 => address) private _tokenApprovals;\n\n    /// @dev _operatorApprovals Mapping from Token Owner to Operator Approvals\n    mapping (address => mapping (address => bool)) private _operatorApprovals;\n\n    /*\n     *     bytes4(keccak256('balanceOf(address)')) == 0x70a08231\n     *     bytes4(keccak256('ownerOf(uint256)')) == 0x6352211e\n     *     bytes4(keccak256('approve(address,uint256)')) == 0x095ea7b3\n     *     bytes4(keccak256('getApproved(uint256)')) == 0x081812fc\n     *     bytes4(keccak256('setApprovalForAll(address,bool)')) == 0xa22cb465\n     *     bytes4(keccak256('isApprovedForAll(address,address)')) == 0xe985e9c5\n     *     bytes4(keccak256('transferFrom(address,address,uint256)')) == 0x23b872dd\n     *     bytes4(keccak256('safeTransferFrom(address,address,uint256)')) == 0x42842e0e\n     *     bytes4(keccak256('safeTransferFrom(address,address,uint256,bytes)')) == 0xb88d4fde\n     *\n     *     => 0x70a08231 ^ 0x6352211e ^ 0x095ea7b3 ^ 0x081812fc ^\n     *        0xa22cb465 ^ 0xe985e9c ^ 0x23b872dd ^ 0x42842e0e ^ 0xb88d4fde == 0x80ac58cd\n     */\n    bytes4 private constant _INTERFACE_ID_ERC721 = 0x80ac58cd;\n\n    // @dev Equals to `bytes4(keccak256(\"onERC721Received(address,address,uint256,bytes)\"))`\n    // which can be also obtained as `IERC721Receiver(0).onERC721Received.selector`\n    bytes4 private constant _ERC721_RECEIVED = 0x150b7a02;\n\n\n    constructor () public {\n\n        // Register the supported interfaces to conform to ERC721 via ERC165\n        _registerInterface(_INTERFACE_ID_ERC721);\n\n        // Set the contract owners to msg.sender by default\n        owner1 = _msgSender();\n        owner2 = _msgSender();\n\n    }\n\n\n    /**\n     * @dev Provides information about the current execution context, including the\n     * sender of the transaction and its data. While these are generally available\n     * via msg.sender and msg.data, they not should not be accessed in such a direct\n     * manner, since when dealing with GSN meta-transactions the account sending and\n     * paying for execution may not be the actual sender (as far as an application\n     * is concerned).\n     */\n\n    function _msgSender() internal view returns (address) {\n\n        return msg.sender;\n\n    }\n\n    function _msgData() internal view returns (bytes memory) {\n\n        this; // silence state mutability warning without generating bytecode -\n              // see https://github.com/ethereum/solidity/issues/2691\n        return msg.data;\n\n    }\n\n\n    /***  Owner (Administrator) functions  ***/\n\n\n    /**\n     * @dev Sets the contract's owner (administrator)\n     * Based on 0x's Ownable, but modified here\n     */\n    modifier onlyOwner() {\n        require(\n            (_msgSender() == owner1) || (_msgSender() == owner2),\n            \"ONLY_CONTRACT_OWNER\"\n        );\n        _;\n    }\n\n    /**\n     * @dev Transfer owner (admin) functions to another address\n     * @param newOwner Address of new owner/ admin of contract\n     */\n    function transferOwnership1(address newOwner)\n        public\n        onlyOwner\n    {\n        if (newOwner != address(0)) {\n            owner1 = newOwner;\n        }\n    }\n\n\n    function transferOwnership2(address newOwner)\n        public\n        onlyOwner\n    {\n        if (newOwner != address(0)) {\n            owner2 = newOwner;\n        }\n    }\n\n    /**\n     * @dev Update contract address for Microsponsors Registry contract\n     * @param newAddress where the Registry contract lives\n     */\n    function updateRegistryAddress(address newAddress)\n        public\n        onlyOwner\n    {\n        registry = DeployedRegistry(newAddress);\n    }\n\n    /**\n     * @dev Update the fee (in wei) charged for minting a single token\n     */\n    function updateMintFee(uint256 val)\n        public\n        onlyOwner\n    {\n\n        mintFee = val;\n\n    }\n\n    /**\n     * @dev Update the base url for all tokenURI's\n     */\n\n    function updateTokenURIBaseURL(string memory val)\n        public\n        onlyOwner\n    {\n\n        tokenURIBaseURL = val;\n\n    }\n\n    /// @dev Pausable (adapted from OpenZeppelin via Cryptokitties)\n    /// @dev Modifier to allow actions only when the contract IS NOT paused\n    modifier whenNotPaused() {\n        require(!paused);\n        _;\n    }\n\n    /// @dev Modifier to allow actions only when the contract IS paused\n    modifier whenPaused {\n        require(paused);\n        _;\n    }\n\n    /// @dev Called by contract owner to pause minting and transfers.\n    function pause() public onlyOwner whenNotPaused {\n        paused = true;\n    }\n\n    /// @dev Called by contract owner to unpause minting and transfers.\n    function unpause() public onlyOwner whenPaused {\n        paused = false;\n    }\n\n    /// @dev Admin withdraws entire balance from contract.\n    function withdrawBalance() external onlyOwner {\n\n        // Ref: https://diligence.consensys.net/blog/2019/09/stop-using-soliditys-transfer-now/\n        uint balance = address(this).balance;\n        (bool success, ) = msg.sender.call.value(balance)(\"\");\n        require(success, \"WITHDRAW_FAILED\");\n\n    }\n\n\n    /***  Minting tokens  ***/\n\n\n    /**\n     * @dev Function to mint tokens.\n     * @return tokenId\n     */\n    function mint(\n        string memory contentId,\n        uint48 startTime,\n        uint48 endTime,\n        bool isSecondaryTradingEnabled,\n        uint32 federationId\n    )\n        public\n        payable\n        whenNotPaused\n        returns (uint256)\n    {\n\n        require(msg.value >= mintFee);\n\n        require(federationId > 0, \"INVALID_FEDERATION_ID\");\n\n        require(\n            registry.isMinter(federationId, _msgSender()),\n            \"CALLER_NOT_AUTHORIZED_FOR_MINTER_ROLE\"\n        );\n\n        require(\n            _isValidTimeSlot(contentId, startTime, endTime, federationId),\n            \"INVALID_TIME_SLOT\"\n        );\n\n        uint256 tokenId = _mint(_msgSender());\n        _setTokenTimeSlot(tokenId, contentId, startTime, endTime, isSecondaryTradingEnabled);\n        tokenToFederationId[tokenId] = federationId;\n\n        return tokenId;\n\n    }\n\n\n    /**\n     * @dev Function to safely mint tokens.\n     * @return tokenId\n     */\n    function safeMint(\n        string memory contentId,\n        uint48 startTime,\n        uint48 endTime,\n        bool isSecondaryTradingEnabled,\n        uint32 federationId\n    )\n        public\n        payable\n        whenNotPaused\n        returns (uint256)\n    {\n\n        require(msg.value >= mintFee);\n\n        require(federationId > 0, \"INVALID_FEDERATION_ID\");\n\n        require(\n            registry.isMinter(federationId, _msgSender()),\n            \"CALLER_NOT_AUTHORIZED_FOR_MINTER_ROLE\"\n        );\n\n        require(\n            _isValidTimeSlot(contentId, startTime, endTime, federationId),\n            \"INVALID_TIME_SLOT\"\n        );\n\n        uint256 tokenId = _safeMint(_msgSender());\n        _setTokenTimeSlot(tokenId, contentId, startTime, endTime, isSecondaryTradingEnabled);\n        tokenToFederationId[tokenId] = federationId;\n\n        return tokenId;\n\n    }\n\n    /**\n     * @dev Function to safely mint tokens.\n     * @param data bytes data to send along with a safe transfer check.\n     * @return tokenId\n     */\n    function safeMint(\n        string memory contentId,\n        uint48 startTime,\n        uint48 endTime,\n        bool isSecondaryTradingEnabled,\n        uint32 federationId,\n        bytes memory data\n    )\n        public\n        payable\n        whenNotPaused\n        returns (uint256)\n    {\n\n        require(msg.value >= mintFee);\n\n        require(federationId > 0, \"INVALID_FEDERATION_ID\");\n\n        require(\n            registry.isMinter(federationId, _msgSender()),\n            \"CALLER_NOT_AUTHORIZED_FOR_MINTER_ROLE\"\n        );\n\n        require(\n            _isValidTimeSlot(contentId, startTime, endTime, federationId),\n            \"INVALID_TIME_SLOT\"\n        );\n\n        uint256 tokenId = _safeMint(_msgSender(), data);\n        _setTokenTimeSlot(tokenId, contentId, startTime, endTime, isSecondaryTradingEnabled);\n        tokenToFederationId[tokenId] = federationId;\n\n        return tokenId;\n\n    }\n\n\n    /**\n     * @dev Internal function to safely mint a new token.\n     * Reverts if the given token ID already exists.\n     * If the target address is a contract, it must implement `onERC721Received`,\n     * which is called upon a safe transfer, and return the magic value\n     * `bytes4(keccak256(\"onERC721Received(address,address,uint256,bytes)\"))`; otherwise,\n     * the transfer is reverted.\n     * @param to The address that will own the minted token\n     * @return tokenId\n     */\n    function _safeMint(address to) internal returns (uint256) {\n\n        uint256 tokenId = _safeMint(to, \"\");\n        return tokenId;\n\n    }\n\n    /**\n     * @dev Internal function to safely mint a new token.\n     * Reverts if the given token ID already exists.\n     * If the target address is a contract, it must implement `onERC721Received`,\n     * which is called upon a safe transfer, and return the magic value\n     * `bytes4(keccak256(\"onERC721Received(address,address,uint256,bytes)\"))`; otherwise,\n     * the transfer is reverted.\n     * @param to The address that will own the minted token\n     * @param data bytes data to send along with a safe transfer check\n     * @return tokenId\n     */\n    function _safeMint(address to, bytes memory data) internal returns (uint256) {\n\n        uint256 tokenId = _mint(to);\n\n        require(\n            _checkOnERC721Received(address(0), to, tokenId, data),\n            \"TRANSFER_TO_NON_ERC721RECEIVER_IMPLEMENTER\"\n        );\n\n        return tokenId;\n\n    }\n\n    /**\n     * @dev Internal function to mint a new token.\n     * Reverts if the given token ID already exists.\n     * @param to The address that will own the minted token\n     */\n    function _mint(address to) internal returns (uint256) {\n\n        require(to != address(0), \"MINT_TO_ZERO_ADDRESS\");\n\n        _tokenIds.increment();\n        uint256 tokenId = _tokenIds.current();\n\n        _tokenOwner[tokenId] = to;\n        _ownedTokensCount[to].increment();\n        _mintedTokensCount[to].increment();\n\n        emit Transfer(address(0), to, tokenId);\n\n        return tokenId;\n\n    }\n\n\n    /***  Token URIs  ***/\n\n\n    /**\n     * Throws if the token ID does not exist. May return an empty string.\n     * @param tokenId uint256 ID of the token to query\n     * @return URI for a given token ID\n     */\n    function tokenURI(uint256 tokenId) external view returns (string memory) {\n\n        require(\n            _exists(tokenId),\n            \"NON_EXISTENT_TOKEN\"\n        );\n\n        return string(abi.encodePacked(tokenURIBaseURL, uint256ToString(tokenId)));\n\n    }\n\n\n    /***  Token TimeSlot data and metadata  ***/\n\n\n    function _isValidTimeSlot(\n        string memory contentId,\n        uint48 startTime,\n        uint48 endTime,\n        uint32 federationId\n    ) internal view returns (bool) {\n\n        require(\n            registry.isContentIdRegisteredToCaller(federationId, contentId),\n            \"CONTENT_ID_NOT_REGISTERED_TO_CALLER\"\n        );\n\n        require(\n            endTime > startTime,\n            \"START_TIME_AFTER_END_TIME\"\n        );\n\n        return true;\n\n    }\n\n\n    function _isContentIdMappedToMinter(\n        string memory contentId\n    )  internal view returns (bool) {\n\n        ContentIdStruct[] memory a = _tokenMinterToContentIds[msg.sender];\n        bool foundMatch = false;\n        for (uint i = 0; i < a.length; i++) {\n            if (stringsMatch(contentId, a[i].contentId)) {\n                foundMatch = true;\n            }\n        }\n\n        return foundMatch;\n    }\n\n\n    function _setTokenTimeSlot(\n        uint256 tokenId,\n        string memory contentId,\n        uint48 startTime,\n        uint48 endTime,\n        bool isSecondaryTradingEnabled\n    ) internal {\n\n        require(\n            _exists(tokenId),\n            \"NON_EXISTENT_TOKEN\"\n        );\n\n        TimeSlot memory _timeSlot = TimeSlot({\n            minter: address(_msgSender()),\n            contentId: string(contentId),\n            startTime: uint48(startTime),\n            endTime: uint48(endTime),\n            isSecondaryTradingEnabled: bool(isSecondaryTradingEnabled)\n        });\n\n        _tokenToTimeSlot[tokenId] = _timeSlot;\n\n        if (!_isContentIdMappedToMinter(contentId)) {\n            _tokenMinterToContentIds[_msgSender()].push( ContentIdStruct(contentId) );\n        }\n\n    }\n\n\n    function tokenTimeSlot(uint256 tokenId) public view returns (\n        address minter,\n        address owner,\n        string memory contentId,\n        uint48 startTime,\n        uint48 endTime,\n        bool isSecondaryTradingEnabled,\n        uint32 federationId\n    ) {\n\n        require(\n            _exists(tokenId),\n            \"NON_EXISTENT_TOKEN\"\n        );\n\n        TimeSlot memory _timeSlot = _tokenToTimeSlot[tokenId];\n        uint32 _federationId = tokenToFederationId[tokenId];\n\n        return (\n            _timeSlot.minter,\n            ownerOf(tokenId),\n            _timeSlot.contentId,\n            _timeSlot.startTime,\n            _timeSlot.endTime,\n            _timeSlot.isSecondaryTradingEnabled,\n            _federationId\n        );\n\n    }\n\n\n    /***  Token minter queries  ***/\n\n\n    /// @dev Look up all Content IDs a Minter has tokenized TimeSlots for.\n    ///      We're not getting this from the Registry because we want to keep\n    ///      a separate record here of all Content ID's the acct has *ever*\n    ///      minted tokens for. The registry is for keeping track of their\n    ///      current (not necessarily past) Content ID registrations.\n    function tokenMinterContentIds(address minter) external view returns (string[] memory) {\n\n        ContentIdStruct[] memory m = _tokenMinterToContentIds[minter];\n        string[] memory r = new string[](m.length);\n\n        for (uint i = 0; i < m.length; i++) {\n            r[i] = m[i].contentId;\n        }\n\n        return r;\n\n    }\n\n\n    /**\n     * Return all the Token IDs minted by a given account.\n     * @dev This method MUST NEVER be called by smart contract code. First, it's fairly\n     *  expensive (it walks the entire _tokenIds array looking for tokens belonging to minter),\n     *  but it also returns a dynamic array, which is only supported for web3 calls, and\n     *  not contract-to-contract calls (at this time).\n     */\n    function tokensMintedBy(address minter) external view returns (uint256[] memory) {\n\n        require(\n            minter != address(0),\n            \"CANNOT_QUERY_ZERO_ADDRESS\"\n        );\n\n        uint256 tokenCount = _mintedTokensCount[minter].current();\n        if (tokenCount == 0) {\n            // Return an empty array\n            return new uint256[](0);\n        } else {\n            uint256[] memory result = new uint256[](tokenCount);\n            uint256 totalTokens = totalSupply();\n            uint256 resultIndex = 0;\n\n            // All Tokens have IDs starting at 1 and increase\n            // sequentially up to the total supply count.\n            uint256 tokenId;\n\n            for (tokenId = 1; tokenId <= totalTokens; tokenId++) {\n                if (_tokenToTimeSlot[tokenId].minter == minter) {\n                    result[resultIndex] = tokenId;\n                    resultIndex++;\n                }\n            }\n\n            return result;\n        }\n\n    }\n\n\n    /***  Token balance and ownership queries  ***/\n\n\n    /**\n     * @dev Gets the total number of tokens ever minted.\n     */\n    function totalSupply() public view returns (uint256) {\n\n        return _tokenIds.current();\n\n    }\n\n    /**\n     * @dev Gets the balance of the specified address.\n     * @param tokenOwner address to query the balance of\n     * @return uint256 representing the amount owned by the passed address\n     */\n    function balanceOf(address tokenOwner) public view returns (uint256) {\n\n        require(\n            tokenOwner != address(0),\n            \"CANNOT_QUERY_ZERO_ADDRESS\"\n        );\n\n        return _ownedTokensCount[tokenOwner].current();\n\n    }\n\n    /**\n     * @dev Gets the owner of the specified token ID.\n     * @param tokenId uint256 ID of the token to query the owner of\n     * @return address currently marked as the owner of the given token ID\n     */\n    function ownerOf(uint256 tokenId) public view returns (address) {\n\n        address tokenOwner = _tokenOwner[tokenId];\n\n        return tokenOwner;\n\n    }\n\n    /**\n     * @param tokenOwner The owner whose tokens we are interested in.\n     * @dev This method MUST NEVER be called by smart contract code. First, it's fairly\n     *  expensive (it walks the entire _tokenIds array looking for tokens belonging to owner),\n     *  but it also returns a dynamic array, which is only supported for web3 calls, and\n     *  not contract-to-contract calls (at this time).\n    */\n    function tokensOfOwner(address tokenOwner) external view returns(uint256[] memory) {\n        uint256 tokenCount = balanceOf(tokenOwner);\n        if (tokenCount == 0) {\n            // Return an empty array\n            return new uint256[](0);\n        } else {\n            uint256[] memory result = new uint256[](tokenCount);\n            uint256 totalTokens = totalSupply();\n            uint256 resultIndex = 0;\n\n            // All Tokens have IDs starting at 1 and increase\n            // sequentially up to the total count.\n            uint256 tokenId;\n\n            for (tokenId = 1; tokenId <= totalTokens; tokenId++) {\n                if (_tokenOwner[tokenId] == tokenOwner) {\n                    result[resultIndex] = tokenId;\n                    resultIndex++;\n                }\n            }\n\n            return result;\n        }\n    }\n\n\n    /***  Approvals & Transfers  ***/\n\n\n    /**\n     * @dev Approves another address to transfer the given token ID\n     * The zero address indicates there is no approved address.\n     * There can only be one approved address per token at a given time.\n     * Can only be called by the token owner or an approved operator.\n     * @param to address to be approved for the given token ID\n     * @param tokenId uint256 ID of the token to be approved\n     */\n    function approve(address to, uint256 tokenId)\n        public\n        whenNotPaused\n    {\n\n        address tokenOwner = ownerOf(tokenId);\n\n        require(\n            to != tokenOwner,\n            \"APPROVAL_IS_REDUNDANT\"\n        );\n\n        require(\n            _msgSender() == tokenOwner || isApprovedForAll(tokenOwner, _msgSender()),\n            \"CALLER_NOT_AUTHORIZED\"\n        );\n\n        _tokenApprovals[tokenId] = to;\n        emit Approval(tokenOwner, to, tokenId);\n\n    }\n\n    /**\n     * @dev Gets the approved address for a token ID, or zero if no address set\n     * Reverts if the token ID does not exist.\n     * @param tokenId uint256 ID of the token to query the approval of\n     * @return address currently approved for the given token ID\n     */\n    function getApproved(uint256 tokenId) public view returns (address) {\n\n        require(\n            _exists(tokenId),\n            \"NON_EXISTENT_TOKEN\"\n        );\n\n        return _tokenApprovals[tokenId];\n\n    }\n\n    /**\n     * @dev Sets or unsets the approval of a given operator\n     * An operator is allowed to transfer all tokens of the sender on their behalf.\n     * @param to operator address to set the approval\n     * @param approved representing the status of the approval to be set\n     */\n    function setApprovalForAll(address to, bool approved)\n        public\n        whenNotPaused\n    {\n\n        require(to != _msgSender(), \"CALLER_CANNOT_APPROVE_SELF\");\n\n        _operatorApprovals[_msgSender()][to] = approved;\n        emit ApprovalForAll(_msgSender(), to, approved);\n\n    }\n\n    /**\n     * @dev Tells whether an operator is approved by a given token owner.\n     * @param tokenOwner token owner address which you want to query the approval of\n     * @param operator operator address which you want to query the approval of\n     * @return bool whether the given operator is approved by the token owner\n     */\n    function isApprovedForAll(address tokenOwner, address operator)\n        public\n        view\n        returns (bool)\n    {\n\n        return _operatorApprovals[tokenOwner][operator];\n\n    }\n\n    /**\n     * @dev Transfers the ownership of a given token ID to another address.\n     * Usage of this method is discouraged, use {safeTransferFrom} whenever possible.\n     * Requires the msg.sender to be the owner, approved, or operator.\n     * @param from current owner of the token\n     * @param to address to receive the ownership of the given token ID\n     * @param tokenId uint256 ID of the token to be transferred\n     */\n    function transferFrom(address from, address to, uint256 tokenId)\n        public\n        whenNotPaused\n    {\n\n        require(\n            _isApprovedOrOwner(_msgSender(), tokenId),\n            \"UNAUTHORIZED_TRANSFER\"\n        );\n\n        address minter = _tokenToTimeSlot[tokenId].minter;\n        address owner = ownerOf(tokenId);\n        uint32 federationId = tokenToFederationId[tokenId];\n\n        if (_tokenToTimeSlot[tokenId].isSecondaryTradingEnabled == false) {\n            require(\n                isSecondaryTrade(from, to, tokenId) == false,\n                \"SECONDARY_TRADING_DISABLED\"\n            );\n        }\n\n        require(\n            registry.isAuthorizedTransferFrom(federationId, from, to, tokenId, minter, owner),\n            \"UNAUTHORIZED_TRANSFER\"\n        );\n\n        _transferFrom(from, to, tokenId);\n\n    }\n\n    /**\n     * @dev Safely transfers the ownership of a given token ID to another address\n     * If the target address is a contract, it must implement {IERC721Receiver-onERC721Received},\n     * which is called upon a safe transfer, and return the magic value\n     * `bytes4(keccak256(\"onERC721Received(address,address,uint256,bytes)\"))`; otherwise,\n     * the transfer is reverted.\n     * Requires the msg.sender to be the owner, approved, or operator\n     * @param from current owner of the token\n     * @param to address to receive the ownership of the given token ID\n     * @param tokenId uint256 ID of the token to be transferred\n     */\n    function safeTransferFrom(address from, address to, uint256 tokenId) public {\n\n        safeTransferFrom(from, to, tokenId, \"\");\n\n    }\n\n    /**\n     * @dev Safely transfers the ownership of a given token ID to another address\n     * If the target address is a contract, it must implement {IERC721Receiver-onERC721Received},\n     * which is called upon a safe transfer, and return the magic value\n     * `bytes4(keccak256(\"onERC721Received(address,address,uint256,bytes)\"))`; otherwise,\n     * the transfer is reverted.\n     * Requires the _msgSender() to be the owner, approved, or operator\n     * @param from current owner of the token\n     * @param to address to receive the ownership of the given token ID\n     * @param tokenId uint256 ID of the token to be transferred\n     * @param data bytes data to send along with a safe transfer check\n     */\n    function safeTransferFrom(address from, address to, uint256 tokenId, bytes memory data)\n        public\n        whenNotPaused\n    {\n\n        require(\n            _isApprovedOrOwner(_msgSender(), tokenId),\n            \"UNAUTHORIZED_TRANSFER\"\n        );\n\n        address minter = _tokenToTimeSlot[tokenId].minter;\n        address owner = ownerOf(tokenId);\n        uint32 federationId = tokenToFederationId[tokenId];\n\n        if (_tokenToTimeSlot[tokenId].isSecondaryTradingEnabled == false) {\n            require(\n                isSecondaryTrade(from, to, tokenId) == false,\n                \"SECONDARY_TRADING_DISABLED\"\n            );\n        }\n\n        require(\n            registry.isAuthorizedTransferFrom(federationId, from, to, tokenId, minter, owner),\n            \"UNAUTHORIZED_TRANSFER\"\n        );\n\n        _safeTransferFrom(from, to, tokenId, data);\n\n    }\n\n    /**\n     * @dev Safely transfers the ownership of a given token ID to another address\n     * If the target address is a contract, it must implement `onERC721Received`,\n     * which is called upon a safe transfer, and return the magic value\n     * `bytes4(keccak256(\"onERC721Received(address,address,uint256,bytes)\"))`; otherwise,\n     * the transfer is reverted.\n     * Requires the msg.sender to be the owner, approved, or operator\n     * @param from current owner of the token\n     * @param to address to receive the ownership of the given token ID\n     * @param tokenId uint256 ID of the token to be transferred\n     * @param data bytes data to send along with a safe transfer check\n     */\n    function _safeTransferFrom(address from, address to, uint256 tokenId, bytes memory data)\n        internal\n    {\n\n        _transferFrom(from, to, tokenId);\n\n        require(\n            _checkOnERC721Received(from, to, tokenId, data),\n            \"TRANSFER_TO_NON_ERC721RECEIVER_IMPLEMENTER\"\n        );\n\n    }\n\n    /**\n     * @dev Returns whether the specified token exists.\n     * @param tokenId uint256 ID of the token to query the existence of\n     * @return bool whether the token exists\n     */\n    function _exists(uint256 tokenId) internal view returns (bool) {\n\n        address tokenOwner = _tokenOwner[tokenId];\n\n        return tokenOwner != address(0);\n\n    }\n\n    /**\n     * @dev Returns whether the given spender can transfer a given token ID.\n     * @param spender address of the spender to query\n     * @param tokenId uint256 ID of the token to be transferred\n     * @return bool whether the msg.sender is approved for the given token ID,\n     * is an operator of the owner, or is the owner of the token\n     */\n    function _isApprovedOrOwner(address spender, uint256 tokenId)\n        internal\n        view\n        returns (bool)\n    {\n\n        require(\n            _exists(tokenId),\n            \"NON_EXISTENT_TOKEN\"\n        );\n\n        address tokenOwner = ownerOf(tokenId);\n\n        return (spender == tokenOwner || getApproved(tokenId) == spender || isApprovedForAll(tokenOwner, spender));\n\n    }\n\n    /**\n     * @dev Internal function to transfer ownership of a given token ID to another address.\n     *      As opposed to {transferFrom}, this imposes no restrictions on msg.sender\n     * @param from current owner of the token\n     * @param to address to receive the ownership of the given token ID\n     * @param tokenId uint256 ID of the token to be transferred\n     */\n    function _transferFrom(address from, address to, uint256 tokenId) internal {\n\n        require(\n            ownerOf(tokenId) == from,\n            \"UNAUTHORIZED_TRANSFER\"\n        );\n\n        require(\n            to != address(0),\n            \"TRANSFER_TO_ZERO_ADDRESS\"\n        );\n\n        _clearApproval(tokenId);\n\n        _ownedTokensCount[from].decrement();\n        _ownedTokensCount[to].increment();\n\n        _tokenOwner[tokenId] = to;\n\n        emit Transfer(from, to, tokenId);\n\n    }\n\n    /**\n     * @dev Internal function to invoke {IERC721Receiver-onERC721Received} on a target address.\n     * The call is not executed if the target address is not a contract.\n     *\n     * This function is deprecated.\n     * @param from address representing the previous owner of the given token ID\n     * @param to target address that will receive the tokens\n     * @param tokenId uint256 ID of the token to be transferred\n     * @param data bytes optional data to send along with the call\n     * @return bool whether the call correctly returned the expected magic value\n     */\n    function _checkOnERC721Received(address from, address to, uint256 tokenId, bytes memory data)\n        internal\n        returns (bool)\n    {\n\n        if (!to.isContract()) {\n            return true;\n        }\n\n        bytes4 retval = IERC721Receiver(to).onERC721Received(_msgSender(), from, tokenId, data);\n        return (retval == _ERC721_RECEIVED);\n\n    }\n\n    /**\n     * @dev Private function to clear current approval of a given token ID.\n     * @param tokenId uint256 ID of the token to be transferred\n     */\n    function _clearApproval(uint256 tokenId) private {\n\n        if (_tokenApprovals[tokenId] != address(0)) {\n            _tokenApprovals[tokenId] = address(0);\n        }\n\n    }\n\n\n    /***  Burn Tokens  ***/\n\n\n    // solhint-disable\n    /**\n     * @dev Customized for Microsponsors\n     *      https://github.com/OpenZeppelin/openzeppelin-contracts/blob/master/contracts/token/ERC721/ERC721Burnable.sol     * @dev Burns a specific ERC721 token.\n     * @param tokenId uint256 id of the ERC721 token to be burned\n     */\n     // solhint-enable\n    function burn(uint256 tokenId) public whenNotPaused {\n\n        address minter = _tokenToTimeSlot[tokenId].minter;\n        address tokenOwner = ownerOf(tokenId);\n        uint32 federationId = tokenToFederationId[tokenId];\n\n        if (tokenOwner == minter) {\n            require(\n                registry.isMinter(federationId, _msgSender()),\n                \"UNAUTHORIZED_BURN\"\n            );\n        }\n\n        require(\n            _isApprovedOrOwner(_msgSender(), tokenId),\n            \"UNAUTHORIZED_BURN\"\n        );\n\n        _burn(tokenId);\n\n    }\n\n\n    /**\n     * @dev Internal function to burn a specific token.\n     * Reverts if the token does not exist.\n     * Deprecated, use {_burn} instead.\n     * @param tokenOwner owner of the token to burn\n     * @param tokenId uint256 ID of the token being burned\n     */\n    function _burn(address tokenOwner, uint256 tokenId) internal {\n\n        require(\n            ownerOf(tokenId) == tokenOwner,\n            \"UNAUTHORIZED_BURN\"\n        );\n\n        _clearApproval(tokenId);\n\n        _ownedTokensCount[tokenOwner].decrement();\n        _tokenOwner[tokenId] = address(0);\n\n        // Clear time slot data\n        delete _tokenToTimeSlot[tokenId];\n\n        emit Transfer(tokenOwner, address(0), tokenId);\n\n    }\n\n    /**\n     * @dev Internal function to burn a specific token.\n     * Reverts if the token does not exist.\n     * @param tokenId uint256 ID of the token being burned\n     */\n    function _burn(uint256 tokenId) internal {\n\n        _burn(ownerOf(tokenId), tokenId);\n\n    }\n\n\n    /***  Helper fns  ***/\n\n    function isSecondaryTrade (\n        address from,\n        address to,\n        uint256 tokenId\n    )\n        internal\n        view\n        returns (bool)\n    {\n\n        address minter = _tokenToTimeSlot[tokenId].minter;\n\n        if (from == minter || to == minter) {\n            return false;\n        } else {\n            return true;\n        }\n\n    }\n\n    function stringsMatch (\n        string memory a,\n        string memory b\n    )\n        private\n        pure\n        returns (bool)\n    {\n        return (keccak256(abi.encodePacked((a))) == keccak256(abi.encodePacked((b))) );\n    }\n\n    function uint256ToString(uint _i) internal pure returns (string memory _uintAsString) {\n        if (_i == 0) {\n            return \"0\";\n        }\n        uint j = _i;\n        uint len;\n        while (j != 0) {\n            len++;\n            j /= 10;\n        }\n        bytes memory bstr = new bytes(len);\n        uint k = len - 1;\n        while (_i != 0) {\n            bstr[k--] = byte(uint8(48 + _i % 10));\n            _i /= 10;\n        }\n        return string(bstr);\n    }\n\n}\n",
  "sourcePath": "/Users/lauren/github/mspt/contracts/ERC721.sol",
  "compiler": {
    "name": "solc",
    "version": "0.5.11+commit.c082d0b4.Emscripten.clang"
  },
  "schemaVersion": "3.1.0",
  "updatedAt": "2021-03-03T23:28:13.781Z",
  "devdoc": {
    "details": "see https://eips.ethereum.org/EIPS/eip-721",
    "methods": {
      "approve(address,uint256)": {
        "details": "Approves another address to transfer the given token ID The zero address indicates there is no approved address. There can only be one approved address per token at a given time. Can only be called by the token owner or an approved operator.",
        "params": {
          "to": "address to be approved for the given token ID",
          "tokenId": "uint256 ID of the token to be approved"
        }
      },
      "balanceOf(address)": {
        "details": "Gets the balance of the specified address.",
        "params": {
          "tokenOwner": "address to query the balance of"
        },
        "return": "uint256 representing the amount owned by the passed address"
      },
      "burn(uint256)": {
        "details": "Customized for MicrosponsorsBurns a specific ERC721 token.",
        "params": {
          "tokenId": "uint256 id of the ERC721 token to be burned"
        }
      },
      "getApproved(uint256)": {
        "details": "Gets the approved address for a token ID, or zero if no address set Reverts if the token ID does not exist.",
        "params": {
          "tokenId": "uint256 ID of the token to query the approval of"
        },
        "return": "address currently approved for the given token ID"
      },
      "isApprovedForAll(address,address)": {
        "details": "Tells whether an operator is approved by a given token owner.",
        "params": {
          "operator": "operator address which you want to query the approval of",
          "tokenOwner": "token owner address which you want to query the approval of"
        },
        "return": "bool whether the given operator is approved by the token owner"
      },
      "mint(string,uint48,uint48,bool,uint32)": {
        "details": "Function to mint tokens.",
        "return": "tokenId"
      },
      "ownerOf(uint256)": {
        "details": "Gets the owner of the specified token ID.",
        "params": {
          "tokenId": "uint256 ID of the token to query the owner of"
        },
        "return": "address currently marked as the owner of the given token ID"
      },
      "pause()": {
        "details": "Called by contract owner to pause minting and transfers."
      },
      "safeMint(string,uint48,uint48,bool,uint32)": {
        "details": "Function to safely mint tokens.",
        "return": "tokenId"
      },
      "safeMint(string,uint48,uint48,bool,uint32,bytes)": {
        "details": "Function to safely mint tokens.",
        "params": {
          "data": "bytes data to send along with a safe transfer check."
        },
        "return": "tokenId"
      },
      "safeTransferFrom(address,address,uint256)": {
        "details": "Safely transfers the ownership of a given token ID to another address If the target address is a contract, it must implement {IERC721Receiver-onERC721Received}, which is called upon a safe transfer, and return the magic value `bytes4(keccak256(\"onERC721Received(address,address,uint256,bytes)\"))`; otherwise, the transfer is reverted. Requires the msg.sender to be the owner, approved, or operator",
        "params": {
          "from": "current owner of the token",
          "to": "address to receive the ownership of the given token ID",
          "tokenId": "uint256 ID of the token to be transferred"
        }
      },
      "safeTransferFrom(address,address,uint256,bytes)": {
        "details": "Safely transfers the ownership of a given token ID to another address If the target address is a contract, it must implement {IERC721Receiver-onERC721Received}, which is called upon a safe transfer, and return the magic value `bytes4(keccak256(\"onERC721Received(address,address,uint256,bytes)\"))`; otherwise, the transfer is reverted. Requires the _msgSender() to be the owner, approved, or operator",
        "params": {
          "data": "bytes data to send along with a safe transfer check",
          "from": "current owner of the token",
          "to": "address to receive the ownership of the given token ID",
          "tokenId": "uint256 ID of the token to be transferred"
        }
      },
      "setApprovalForAll(address,bool)": {
        "details": "Sets or unsets the approval of a given operator An operator is allowed to transfer all tokens of the sender on their behalf.",
        "params": {
          "approved": "representing the status of the approval to be set",
          "to": "operator address to set the approval"
        }
      },
      "supportsInterface(bytes4)": {
        "details": "See {IERC165-supportsInterface}.     * Time complexity O(1), guaranteed to always use less than 30 000 gas."
      },
      "tokenMinterContentIds(address)": {
        "details": "Look up all Content IDs a Minter has tokenized TimeSlots for.      We're not getting this from the Registry because we want to keep      a separate record here of all Content ID's the acct has *ever*      minted tokens for. The registry is for keeping track of their      current (not necessarily past) Content ID registrations."
      },
      "tokenURI(uint256)": {
        "params": {
          "tokenId": "uint256 ID of the token to query"
        },
        "return": "URI for a given token ID"
      },
      "tokensMintedBy(address)": {
        "details": "This method MUST NEVER be called by smart contract code. First, it's fairly expensive (it walks the entire _tokenIds array looking for tokens belonging to minter), but it also returns a dynamic array, which is only supported for web3 calls, and not contract-to-contract calls (at this time)."
      },
      "tokensOfOwner(address)": {
        "details": "This method MUST NEVER be called by smart contract code. First, it's fairly expensive (it walks the entire _tokenIds array looking for tokens belonging to owner), but it also returns a dynamic array, which is only supported for web3 calls, and not contract-to-contract calls (at this time).",
        "params": {
          "tokenOwner": "The owner whose tokens we are interested in."
        }
      },
      "totalSupply()": {
        "details": "Gets the total number of tokens ever minted."
      },
      "transferFrom(address,address,uint256)": {
        "details": "Transfers the ownership of a given token ID to another address. Usage of this method is discouraged, use {safeTransferFrom} whenever possible. Requires the msg.sender to be the owner, approved, or operator.",
        "params": {
          "from": "current owner of the token",
          "to": "address to receive the ownership of the given token ID",
          "tokenId": "uint256 ID of the token to be transferred"
        }
      },
      "transferOwnership1(address)": {
        "details": "Transfer owner (admin) functions to another address",
        "params": {
          "newOwner": "Address of new owner/ admin of contract"
        }
      },
      "unpause()": {
        "details": "Called by contract owner to unpause minting and transfers."
      },
      "updateMintFee(uint256)": {
        "details": "Update the fee (in wei) charged for minting a single token"
      },
      "updateRegistryAddress(address)": {
        "details": "Update contract address for Microsponsors Registry contract",
        "params": {
          "newAddress": "where the Registry contract lives"
        }
      },
      "updateTokenURIBaseURL(string)": {
        "details": "Update the base url for all tokenURI's"
      },
      "withdrawBalance()": {
        "details": "Admin withdraws entire balance from contract."
      }
    },
    "title": "ERC721 Non-Fungible Token Standard basic implementation"
  },
  "userdoc": {
    "methods": {
      "tokenURI(uint256)": {
        "notice": "Throws if the token ID does not exist. May return an empty string."
      },
      "tokensMintedBy(address)": {
        "notice": "Return all the Token IDs minted by a given account."
      }
    }
  }
}