{
  "contractName": "ERC721",
  "abi": [
    {
      "constant": true,
      "inputs": [
        {
          "internalType": "bytes4",
          "name": "interfaceId",
          "type": "bytes4"
        }
      ],
      "name": "supportsInterface",
      "outputs": [
        {
          "internalType": "bool",
          "name": "",
          "type": "bool"
        }
      ],
      "payable": false,
      "stateMutability": "view",
      "type": "function"
    },
    {
      "constant": true,
      "inputs": [],
      "name": "paused",
      "outputs": [
        {
          "internalType": "bool",
          "name": "",
          "type": "bool"
        }
      ],
      "payable": false,
      "stateMutability": "view",
      "type": "function"
    },
    {
      "constant": true,
      "inputs": [],
      "name": "registry",
      "outputs": [
        {
          "internalType": "contract DeployedRegistry",
          "name": "",
          "type": "address"
        }
      ],
      "payable": false,
      "stateMutability": "view",
      "type": "function"
    },
    {
      "constant": true,
      "inputs": [],
      "name": "owner",
      "outputs": [
        {
          "internalType": "address",
          "name": "",
          "type": "address"
        }
      ],
      "payable": false,
      "stateMutability": "view",
      "type": "function"
    },
    {
      "inputs": [],
      "payable": false,
      "stateMutability": "nonpayable",
      "type": "constructor"
    },
    {
      "anonymous": false,
      "inputs": [
        {
          "indexed": true,
          "internalType": "address",
          "name": "from",
          "type": "address"
        },
        {
          "indexed": true,
          "internalType": "address",
          "name": "to",
          "type": "address"
        },
        {
          "indexed": true,
          "internalType": "uint256",
          "name": "tokenId",
          "type": "uint256"
        }
      ],
      "name": "Transfer",
      "type": "event"
    },
    {
      "anonymous": false,
      "inputs": [
        {
          "indexed": true,
          "internalType": "address",
          "name": "tokenOwner",
          "type": "address"
        },
        {
          "indexed": true,
          "internalType": "address",
          "name": "approved",
          "type": "address"
        },
        {
          "indexed": true,
          "internalType": "uint256",
          "name": "tokenId",
          "type": "uint256"
        }
      ],
      "name": "Approval",
      "type": "event"
    },
    {
      "anonymous": false,
      "inputs": [
        {
          "indexed": true,
          "internalType": "address",
          "name": "tokenOwner",
          "type": "address"
        },
        {
          "indexed": true,
          "internalType": "address",
          "name": "operator",
          "type": "address"
        },
        {
          "indexed": false,
          "internalType": "bool",
          "name": "approved",
          "type": "bool"
        }
      ],
      "name": "ApprovalForAll",
      "type": "event"
    },
    {
      "constant": false,
      "inputs": [
        {
          "internalType": "address",
          "name": "newOwner",
          "type": "address"
        }
      ],
      "name": "transferOwnership",
      "outputs": [],
      "payable": false,
      "stateMutability": "nonpayable",
      "type": "function"
    },
    {
      "constant": false,
      "inputs": [
        {
          "internalType": "address",
          "name": "newAddress",
          "type": "address"
        }
      ],
      "name": "updateRegistryAddress",
      "outputs": [],
      "payable": false,
      "stateMutability": "nonpayable",
      "type": "function"
    },
    {
      "constant": true,
      "inputs": [
        {
          "internalType": "address",
          "name": "target",
          "type": "address"
        }
      ],
      "name": "isWhitelisted",
      "outputs": [
        {
          "internalType": "bool",
          "name": "",
          "type": "bool"
        }
      ],
      "payable": false,
      "stateMutability": "view",
      "type": "function"
    },
    {
      "constant": true,
      "inputs": [
        {
          "internalType": "address",
          "name": "account",
          "type": "address"
        }
      ],
      "name": "isMinter",
      "outputs": [
        {
          "internalType": "bool",
          "name": "",
          "type": "bool"
        }
      ],
      "payable": false,
      "stateMutability": "view",
      "type": "function"
    },
    {
      "constant": false,
      "inputs": [
        {
          "internalType": "address",
          "name": "to",
          "type": "address"
        },
        {
          "internalType": "string",
          "name": "contentId",
          "type": "string"
        },
        {
          "internalType": "bytes32",
          "name": "propertyName",
          "type": "bytes32"
        },
        {
          "internalType": "uint32",
          "name": "startTime",
          "type": "uint32"
        },
        {
          "internalType": "uint32",
          "name": "endTime",
          "type": "uint32"
        },
        {
          "internalType": "uint32",
          "name": "auctionEndTime",
          "type": "uint32"
        }
      ],
      "name": "mint",
      "outputs": [
        {
          "internalType": "uint256",
          "name": "",
          "type": "uint256"
        }
      ],
      "payable": false,
      "stateMutability": "nonpayable",
      "type": "function"
    },
    {
      "constant": false,
      "inputs": [
        {
          "internalType": "address",
          "name": "to",
          "type": "address"
        },
        {
          "internalType": "string",
          "name": "contentId",
          "type": "string"
        },
        {
          "internalType": "bytes32",
          "name": "propertyName",
          "type": "bytes32"
        },
        {
          "internalType": "uint32",
          "name": "startTime",
          "type": "uint32"
        },
        {
          "internalType": "uint32",
          "name": "endTime",
          "type": "uint32"
        },
        {
          "internalType": "uint32",
          "name": "auctionEndTime",
          "type": "uint32"
        },
        {
          "internalType": "string",
          "name": "tokenURI",
          "type": "string"
        }
      ],
      "name": "mintWithTokenURI",
      "outputs": [
        {
          "internalType": "uint256",
          "name": "",
          "type": "uint256"
        }
      ],
      "payable": false,
      "stateMutability": "nonpayable",
      "type": "function"
    },
    {
      "constant": false,
      "inputs": [
        {
          "internalType": "address",
          "name": "to",
          "type": "address"
        },
        {
          "internalType": "string",
          "name": "contentId",
          "type": "string"
        },
        {
          "internalType": "bytes32",
          "name": "propertyName",
          "type": "bytes32"
        },
        {
          "internalType": "uint32",
          "name": "startTime",
          "type": "uint32"
        },
        {
          "internalType": "uint32",
          "name": "endTime",
          "type": "uint32"
        },
        {
          "internalType": "uint32",
          "name": "auctionEndTime",
          "type": "uint32"
        }
      ],
      "name": "safeMint",
      "outputs": [
        {
          "internalType": "uint256",
          "name": "",
          "type": "uint256"
        }
      ],
      "payable": false,
      "stateMutability": "nonpayable",
      "type": "function"
    },
    {
      "constant": false,
      "inputs": [
        {
          "internalType": "address",
          "name": "to",
          "type": "address"
        },
        {
          "internalType": "string",
          "name": "contentId",
          "type": "string"
        },
        {
          "internalType": "bytes32",
          "name": "propertyName",
          "type": "bytes32"
        },
        {
          "internalType": "uint32",
          "name": "startTime",
          "type": "uint32"
        },
        {
          "internalType": "uint32",
          "name": "endTime",
          "type": "uint32"
        },
        {
          "internalType": "uint32",
          "name": "auctionEndTime",
          "type": "uint32"
        },
        {
          "internalType": "bytes",
          "name": "data",
          "type": "bytes"
        }
      ],
      "name": "safeMint",
      "outputs": [
        {
          "internalType": "uint256",
          "name": "",
          "type": "uint256"
        }
      ],
      "payable": false,
      "stateMutability": "nonpayable",
      "type": "function"
    },
    {
      "constant": false,
      "inputs": [
        {
          "internalType": "address",
          "name": "to",
          "type": "address"
        },
        {
          "internalType": "string",
          "name": "contentId",
          "type": "string"
        },
        {
          "internalType": "bytes32",
          "name": "propertyName",
          "type": "bytes32"
        },
        {
          "internalType": "uint32",
          "name": "startTime",
          "type": "uint32"
        },
        {
          "internalType": "uint32",
          "name": "endTime",
          "type": "uint32"
        },
        {
          "internalType": "uint32",
          "name": "auctionEndTime",
          "type": "uint32"
        },
        {
          "internalType": "string",
          "name": "tokenURI",
          "type": "string"
        }
      ],
      "name": "safeMintWithTokenURI",
      "outputs": [
        {
          "internalType": "uint256",
          "name": "",
          "type": "uint256"
        }
      ],
      "payable": false,
      "stateMutability": "nonpayable",
      "type": "function"
    },
    {
      "constant": true,
      "inputs": [
        {
          "internalType": "uint256",
          "name": "tokenId",
          "type": "uint256"
        }
      ],
      "name": "tokenURI",
      "outputs": [
        {
          "internalType": "string",
          "name": "",
          "type": "string"
        }
      ],
      "payable": false,
      "stateMutability": "view",
      "type": "function"
    },
    {
      "constant": true,
      "inputs": [
        {
          "internalType": "uint256",
          "name": "tokenId",
          "type": "uint256"
        }
      ],
      "name": "tokenTimeSlot",
      "outputs": [
        {
          "internalType": "address",
          "name": "minter",
          "type": "address"
        },
        {
          "internalType": "string",
          "name": "contentId",
          "type": "string"
        },
        {
          "internalType": "bytes32",
          "name": "propertyName",
          "type": "bytes32"
        },
        {
          "internalType": "uint32",
          "name": "startTime",
          "type": "uint32"
        },
        {
          "internalType": "uint32",
          "name": "endTime",
          "type": "uint32"
        }
      ],
      "payable": false,
      "stateMutability": "view",
      "type": "function"
    },
    {
      "constant": true,
      "inputs": [
        {
          "internalType": "address",
          "name": "minter",
          "type": "address"
        }
      ],
      "name": "tokenMinterContentIds",
      "outputs": [
        {
          "internalType": "string[]",
          "name": "",
          "type": "string[]"
        }
      ],
      "payable": false,
      "stateMutability": "view",
      "type": "function"
    },
    {
      "constant": true,
      "inputs": [
        {
          "internalType": "address",
          "name": "minter",
          "type": "address"
        },
        {
          "internalType": "string",
          "name": "contentId",
          "type": "string"
        }
      ],
      "name": "tokenMinterPropertyNames",
      "outputs": [
        {
          "internalType": "bytes32[]",
          "name": "",
          "type": "bytes32[]"
        }
      ],
      "payable": false,
      "stateMutability": "view",
      "type": "function"
    },
    {
      "constant": true,
      "inputs": [],
      "name": "totalSupply",
      "outputs": [
        {
          "internalType": "uint256",
          "name": "",
          "type": "uint256"
        }
      ],
      "payable": false,
      "stateMutability": "view",
      "type": "function"
    },
    {
      "constant": true,
      "inputs": [
        {
          "internalType": "address",
          "name": "tokenOwner",
          "type": "address"
        }
      ],
      "name": "balanceOf",
      "outputs": [
        {
          "internalType": "uint256",
          "name": "",
          "type": "uint256"
        }
      ],
      "payable": false,
      "stateMutability": "view",
      "type": "function"
    },
    {
      "constant": true,
      "inputs": [
        {
          "internalType": "uint256",
          "name": "tokenId",
          "type": "uint256"
        }
      ],
      "name": "ownerOf",
      "outputs": [
        {
          "internalType": "address",
          "name": "",
          "type": "address"
        }
      ],
      "payable": false,
      "stateMutability": "view",
      "type": "function"
    },
    {
      "constant": true,
      "inputs": [
        {
          "internalType": "address",
          "name": "tokenOwner",
          "type": "address"
        }
      ],
      "name": "tokensOfOwner",
      "outputs": [
        {
          "internalType": "uint256[]",
          "name": "",
          "type": "uint256[]"
        }
      ],
      "payable": false,
      "stateMutability": "view",
      "type": "function"
    },
    {
      "constant": false,
      "inputs": [
        {
          "internalType": "address",
          "name": "to",
          "type": "address"
        },
        {
          "internalType": "uint256",
          "name": "tokenId",
          "type": "uint256"
        }
      ],
      "name": "approve",
      "outputs": [],
      "payable": false,
      "stateMutability": "nonpayable",
      "type": "function"
    },
    {
      "constant": true,
      "inputs": [
        {
          "internalType": "uint256",
          "name": "tokenId",
          "type": "uint256"
        }
      ],
      "name": "getApproved",
      "outputs": [
        {
          "internalType": "address",
          "name": "",
          "type": "address"
        }
      ],
      "payable": false,
      "stateMutability": "view",
      "type": "function"
    },
    {
      "constant": false,
      "inputs": [
        {
          "internalType": "address",
          "name": "to",
          "type": "address"
        },
        {
          "internalType": "bool",
          "name": "approved",
          "type": "bool"
        }
      ],
      "name": "setApprovalForAll",
      "outputs": [],
      "payable": false,
      "stateMutability": "nonpayable",
      "type": "function"
    },
    {
      "constant": true,
      "inputs": [
        {
          "internalType": "address",
          "name": "tokenOwner",
          "type": "address"
        },
        {
          "internalType": "address",
          "name": "operator",
          "type": "address"
        }
      ],
      "name": "isApprovedForAll",
      "outputs": [
        {
          "internalType": "bool",
          "name": "",
          "type": "bool"
        }
      ],
      "payable": false,
      "stateMutability": "view",
      "type": "function"
    },
    {
      "constant": false,
      "inputs": [
        {
          "internalType": "address",
          "name": "from",
          "type": "address"
        },
        {
          "internalType": "address",
          "name": "to",
          "type": "address"
        },
        {
          "internalType": "uint256",
          "name": "tokenId",
          "type": "uint256"
        }
      ],
      "name": "transferFrom",
      "outputs": [],
      "payable": false,
      "stateMutability": "nonpayable",
      "type": "function"
    },
    {
      "constant": false,
      "inputs": [
        {
          "internalType": "address",
          "name": "from",
          "type": "address"
        },
        {
          "internalType": "address",
          "name": "to",
          "type": "address"
        },
        {
          "internalType": "uint256",
          "name": "tokenId",
          "type": "uint256"
        },
        {
          "internalType": "bytes",
          "name": "data",
          "type": "bytes"
        }
      ],
      "name": "safeTransferFrom",
      "outputs": [],
      "payable": false,
      "stateMutability": "nonpayable",
      "type": "function"
    },
    {
      "constant": false,
      "inputs": [
        {
          "internalType": "address",
          "name": "from",
          "type": "address"
        },
        {
          "internalType": "address",
          "name": "to",
          "type": "address"
        },
        {
          "internalType": "uint256",
          "name": "tokenId",
          "type": "uint256"
        }
      ],
      "name": "safeTransferFrom",
      "outputs": [],
      "payable": false,
      "stateMutability": "nonpayable",
      "type": "function"
    },
    {
      "constant": false,
      "inputs": [
        {
          "internalType": "uint256",
          "name": "tokenId",
          "type": "uint256"
        }
      ],
      "name": "burn",
      "outputs": [],
      "payable": false,
      "stateMutability": "nonpayable",
      "type": "function"
    },
    {
      "constant": false,
      "inputs": [],
      "name": "pause",
      "outputs": [],
      "payable": false,
      "stateMutability": "nonpayable",
      "type": "function"
    },
    {
      "constant": false,
      "inputs": [],
      "name": "unpause",
      "outputs": [],
      "payable": false,
      "stateMutability": "nonpayable",
      "type": "function"
    }
  ],
  "bytecode": "0x60806040526000600c60006101000a81548160ff0219169083151502179055503480156200002c57600080fd5b50620000456301ffc9a760e01b620000b360201b60201c565b6200005d6380ac58cd60e01b620000b360201b60201c565b6200006d6200018b60201b60201c565b600160006101000a81548173ffffffffffffffffffffffffffffffffffffffff021916908373ffffffffffffffffffffffffffffffffffffffff16021790555062000208565b63ffffffff60e01b817bffffffffffffffffffffffffffffffffffffffffffffffffffffffff191614156200011f576040517f08c379a00000000000000000000000000000000000000000000000000000000081526004016200011690620001d5565b60405180910390fd5b6001600080837bffffffffffffffffffffffffffffffffffffffffffffffffffffffff19167bffffffffffffffffffffffffffffffffffffffffffffffffffffffff1916815260200190815260200160002060006101000a81548160ff02191690831515021790555050565b600033905090565b6000620001a2601c83620001f7565b91507f4552433136353a20696e76616c696420696e74657266616365206964000000006000830152602082019050919050565b60006020820190508181036000830152620001f08162000193565b9050919050565b600082825260208201905092915050565b614fdb80620002186000396000f3fe608060405234801561001057600080fd5b50600436106101e55760003560e01c80637b1039991161010f578063c57a8825116100a2578063e5c2492411610071578063e5c24924146105da578063e985e9c51461060e578063f2fde38b1461063e578063f30450801461065a576101e5565b8063c57a88251461052e578063c87b56dd1461054a578063d8bf2c781461057a578063da642eec146105aa576101e5565b8063a22cb465116100de578063a22cb46514610496578063a4ede128146104b2578063aa271e1a146104e2578063b88d4fde14610512576101e5565b80637b103999146104205780638456cb591461043e5780638462151c146104485780638da5cb5b14610478576101e5565b806342842e0e116101875780636352211e116101565780636352211e1461036057806370a0823114610390578063769a9433146103c05780637affcb9a146103f0576101e5565b806342842e0e146102da57806342966c68146102f65780634569fd9f146103125780635c975abb14610342576101e5565b806318160ddd116101c357806318160ddd1461026657806323b872dd146102845780633af32abf146102a05780633f4ba83a146102d0576101e5565b806301ffc9a7146101ea578063081812fc1461021a578063095ea7b31461024a575b600080fd5b61020460048036036101ff9190810190613b75565b61068a565b6040516102119190614907565b60405180910390f35b610234600480360361022f9190810190613bc7565b6106f1565b60405161024191906147e0565b60405180910390f35b610264600480360361025f9190810190613b10565b610776565b005b61026e61099a565b60405161027b9190614c5f565b60405180910390f35b61029e60048036036102999190810190613775565b6109ab565b005b6102ba60048036036102b59190810190613710565b610ab5565b6040516102c79190614907565b60405180910390f35b6102d8610b69565b005b6102f460048036036102ef9190810190613775565b610c36565b005b610310600480360361030b9190810190613bc7565b610c56565b005b61032c60048036036103279190810190613974565b610ccc565b6040516103399190614c5f565b60405180910390f35b61034a610dac565b6040516103579190614907565b60405180910390f35b61037a60048036036103759190810190613bc7565b610dbf565b60405161038791906147e0565b60405180910390f35b6103aa60048036036103a59190810190613710565b610e71565b6040516103b79190614c5f565b60405180910390f35b6103da60048036036103d591908101906138d3565b610f30565b6040516103e79190614c5f565b60405180910390f35b61040a6004803603610405919081019061387b565b61100e565b60405161041791906148a1565b60405180910390f35b61042861115a565b6040516104359190614922565b60405180910390f35b610446611180565b005b610462600480360361045d9190810190613710565b61124e565b60405161046f91906148e5565b60405180910390f35b610480611396565b60405161048d91906147e0565b60405180910390f35b6104b060048036036104ab919081019061383f565b6113bc565b005b6104cc60048036036104c79190810190613710565b6115a6565b6040516104d991906148c3565b60405180910390f35b6104fc60048036036104f79190810190613710565b61176e565b6040516105099190614907565b60405180910390f35b61052c600480360361052791908101906137c4565b611780565b005b61054860048036036105439190810190613710565b61188c565b005b610564600480360361055f9190810190613bc7565b611967565b604051610571919061493d565b60405180910390f35b610594600480360361058f91908101906138d3565b611a64565b6040516105a19190614c5f565b60405180910390f35b6105c460048036036105bf9190810190613a42565b611b42565b6040516105d19190614c5f565b60405180910390f35b6105f460048036036105ef9190810190613bc7565b611c2b565b604051610605959493929190614847565b60405180910390f35b61062860048036036106239190810190613739565b611ddd565b6040516106359190614907565b60405180910390f35b61065860048036036106539190810190613710565b611e71565b005b610674600480360361066f9190810190613a42565b611f81565b6040516106819190614c5f565b60405180910390f35b6000806000837bffffffffffffffffffffffffffffffffffffffffffffffffffffffff19167bffffffffffffffffffffffffffffffffffffffffffffffffffffffff1916815260200190815260200160002060009054906101000a900460ff169050919050565b60006106fc8261206a565b61073b576040517f08c379a000000000000000000000000000000000000000000000000000000000815260040161073290614b1f565b60405180910390fd5b600a600083815260200190815260200160002060009054906101000a900473ffffffffffffffffffffffffffffffffffffffff169050919050565b6107866107816120dc565b610ab5565b6107c5576040517f08c379a00000000000000000000000000000000000000000000000000000000081526004016107bc90614c3f565b60405180910390fd5b600c60009054906101000a900460ff16156107df57600080fd5b60006107ea82610dbf565b90508073ffffffffffffffffffffffffffffffffffffffff168373ffffffffffffffffffffffffffffffffffffffff16141561085b576040517f08c379a000000000000000000000000000000000000000000000000000000000815260040161085290614b5f565b60405180910390fd5b8073ffffffffffffffffffffffffffffffffffffffff1661087a6120dc565b73ffffffffffffffffffffffffffffffffffffffff1614806108a957506108a8816108a36120dc565b611ddd565b5b6108e8576040517f08c379a00000000000000000000000000000000000000000000000000000000081526004016108df90614abf565b60405180910390fd5b82600a600084815260200190815260200160002060006101000a81548173ffffffffffffffffffffffffffffffffffffffff021916908373ffffffffffffffffffffffffffffffffffffffff160217905550818373ffffffffffffffffffffffffffffffffffffffff168273ffffffffffffffffffffffffffffffffffffffff167f8c5be1e5ebec7d5bd14f71427d1e84f3dd0314c0f7b2291e5b200ac8c7c3b92560405160405180910390a4505050565b60006109a660036120e4565b905090565b600c60009054906101000a900460ff16156109c557600080fd5b6109d66109d06120dc565b826120f2565b610a15576040517f08c379a0000000000000000000000000000000000000000000000000000000008152600401610a0c90614b7f565b60405180910390fd5b610a1e83610ab5565b610a5d576040517f08c379a0000000000000000000000000000000000000000000000000000000008152600401610a5490614a1f565b60405180910390fd5b610a6682610ab5565b610aa5576040517f08c379a0000000000000000000000000000000000000000000000000000000008152600401610a9c90614a1f565b60405180910390fd5b610ab08383836121d0565b505050565b6000600260009054906101000a900473ffffffffffffffffffffffffffffffffffffffff1673ffffffffffffffffffffffffffffffffffffffff16633af32abf836040518263ffffffff1660e01b8152600401610b1291906147e0565b60206040518083038186803b158015610b2a57600080fd5b505afa158015610b3e573d6000803e3d6000fd5b505050506040513d601f19601f82011682018060405250610b629190810190613b4c565b9050919050565b600160009054906101000a900473ffffffffffffffffffffffffffffffffffffffff1673ffffffffffffffffffffffffffffffffffffffff16610baa6120dc565b73ffffffffffffffffffffffffffffffffffffffff1614610c00576040517f08c379a0000000000000000000000000000000000000000000000000000000008152600401610bf790614bdf565b60405180910390fd5b600c60009054906101000a900460ff16610c1957600080fd5b6000600c60006101000a81548160ff021916908315150217905550565b610c5183838360405180602001604052806000815250611780565b505050565b600c60009054906101000a900460ff1615610c7057600080fd5b610c81610c7b6120dc565b826120f2565b610cc0576040517f08c379a0000000000000000000000000000000000000000000000000000000008152600401610cb790614bff565b60405180910390fd5b610cc9816123ff565b50565b6000610cde610cd96120dc565b61176e565b610d1d576040517f08c379a0000000000000000000000000000000000000000000000000000000008152600401610d149061497f565b60405180910390fd5b600c60009054906101000a900460ff1615610d3757600080fd5b610d42878686612414565b610d81576040517f08c379a0000000000000000000000000000000000000000000000000000000008152600401610d7890614a5f565b60405180910390fd5b6000610d8d8984612559565b9050610d9d8189898989896125bd565b80915050979650505050505050565b600c60009054906101000a900460ff1681565b6000806004600084815260200190815260200160002060009054906101000a900473ffffffffffffffffffffffffffffffffffffffff169050600073ffffffffffffffffffffffffffffffffffffffff168173ffffffffffffffffffffffffffffffffffffffff161415610e68576040517f08c379a0000000000000000000000000000000000000000000000000000000008152600401610e5f90614aff565b60405180910390fd5b80915050919050565b60008073ffffffffffffffffffffffffffffffffffffffff168273ffffffffffffffffffffffffffffffffffffffff161415610ee2576040517f08c379a0000000000000000000000000000000000000000000000000000000008152600401610ed990614a9f565b60405180910390fd5b610f29600560008473ffffffffffffffffffffffffffffffffffffffff1673ffffffffffffffffffffffffffffffffffffffff1681526020019081526020016000206120e4565b9050919050565b6000610f42610f3d6120dc565b61176e565b610f81576040517f08c379a0000000000000000000000000000000000000000000000000000000008152600401610f789061497f565b60405180910390fd5b600c60009054906101000a900460ff1615610f9b57600080fd5b610fa6868585612414565b610fe5576040517f08c379a0000000000000000000000000000000000000000000000000000000008152600401610fdc90614a5f565b60405180910390fd5b6000610ff0886128cc565b90506110008188888888886125bd565b809150509695505050505050565b606080600760008673ffffffffffffffffffffffffffffffffffffffff1673ffffffffffffffffffffffffffffffffffffffff16815260200190815260200160002084846040516110609291906147b0565b9081526020016040518091039020805480602002602001604051908101604052809291908181526020016000905b828210156110c6578382906000526020600020016040518060200160405290816000820154815250508152602001906001019061108e565b505050509050606081516040519080825280602002602001820160405280156110fe5781602001602082028038833980820191505090505b50905060008090505b825181101561114d5782818151811061111c57fe5b60200260200101516000015182828151811061113457fe5b6020026020010181815250508080600101915050611107565b5080925050509392505050565b600260009054906101000a900473ffffffffffffffffffffffffffffffffffffffff1681565b600160009054906101000a900473ffffffffffffffffffffffffffffffffffffffff1673ffffffffffffffffffffffffffffffffffffffff166111c16120dc565b73ffffffffffffffffffffffffffffffffffffffff1614611217576040517f08c379a000000000000000000000000000000000000000000000000000000000815260040161120e90614bdf565b60405180910390fd5b600c60009054906101000a900460ff161561123157600080fd5b6001600c60006101000a81548160ff021916908315150217905550565b6060600061125b83610e71565b9050600081141561129f5760006040519080825280602002602001820160405280156112965781602001602082028038833980820191505090505b50915050611391565b6060816040519080825280602002602001820160405280156112d05781602001602082028038833980820191505090505b50905060006112dd61099a565b905060008090506000600190505b828111611388578673ffffffffffffffffffffffffffffffffffffffff166004600083815260200190815260200160002060009054906101000a900473ffffffffffffffffffffffffffffffffffffffff1673ffffffffffffffffffffffffffffffffffffffff16141561137b578084838151811061136657fe5b60200260200101818152505081806001019250505b80806001019150506112eb565b83955050505050505b919050565b600160009054906101000a900473ffffffffffffffffffffffffffffffffffffffff1681565b6113cc6113c76120dc565b610ab5565b61140b576040517f08c379a000000000000000000000000000000000000000000000000000000000815260040161140290614c3f565b60405180910390fd5b600c60009054906101000a900460ff161561142557600080fd5b61142d6120dc565b73ffffffffffffffffffffffffffffffffffffffff168273ffffffffffffffffffffffffffffffffffffffff16141561149b576040517f08c379a0000000000000000000000000000000000000000000000000000000008152600401611492906149df565b60405180910390fd5b80600b60006114a86120dc565b73ffffffffffffffffffffffffffffffffffffffff1673ffffffffffffffffffffffffffffffffffffffff16815260200190815260200160002060008473ffffffffffffffffffffffffffffffffffffffff1673ffffffffffffffffffffffffffffffffffffffff16815260200190815260200160002060006101000a81548160ff0219169083151502179055508173ffffffffffffffffffffffffffffffffffffffff166115556120dc565b73ffffffffffffffffffffffffffffffffffffffff167f17307eab39ab6107e8899845ad3d59bd9653f200f220920489ca2b5937696c318360405161159a9190614907565b60405180910390a35050565b606080600860008473ffffffffffffffffffffffffffffffffffffffff1673ffffffffffffffffffffffffffffffffffffffff168152602001908152602001600020805480602002602001604051908101604052809291908181526020016000905b828210156116d857838290600052602060002001604051806020016040529081600082018054600181600116156101000203166002900480601f0160208091040260200160405190810160405280929190818152602001828054600181600116156101000203166002900480156116c05780601f10611695576101008083540402835291602001916116c0565b820191906000526020600020905b8154815290600101906020018083116116a357829003601f168201915b50505050508152505081526020019060010190611608565b5050505090506060815160405190808252806020026020018201604052801561171557816020015b60608152602001906001900390816117005790505b50905060008090505b82518110156117635782818151811061173357fe5b60200260200101516000015182828151811061174b57fe5b6020026020010181905250808060010191505061171e565b508092505050919050565b600061177982610ab5565b9050919050565b600c60009054906101000a900460ff161561179a57600080fd5b6117a384610ab5565b6117e2576040517f08c379a00000000000000000000000000000000000000000000000000000000081526004016117d990614a1f565b60405180910390fd5b6117eb83610ab5565b61182a576040517f08c379a000000000000000000000000000000000000000000000000000000000815260040161182190614a1f565b60405180910390fd5b61183b6118356120dc565b836120f2565b61187a576040517f08c379a000000000000000000000000000000000000000000000000000000000815260040161187190614b7f565b60405180910390fd5b61188684848484612a53565b50505050565b600160009054906101000a900473ffffffffffffffffffffffffffffffffffffffff1673ffffffffffffffffffffffffffffffffffffffff166118cd6120dc565b73ffffffffffffffffffffffffffffffffffffffff1614611923576040517f08c379a000000000000000000000000000000000000000000000000000000000815260040161191a90614bdf565b60405180910390fd5b80600260006101000a81548173ffffffffffffffffffffffffffffffffffffffff021916908373ffffffffffffffffffffffffffffffffffffffff16021790555050565b60606119728261206a565b6119b1576040517f08c379a00000000000000000000000000000000000000000000000000000000081526004016119a890614c1f565b60405180910390fd5b600960008381526020019081526020016000208054600181600116156101000203166002900480601f016020809104026020016040519081016040528092919081815260200182805460018160011615610100020316600290048015611a585780601f10611a2d57610100808354040283529160200191611a58565b820191906000526020600020905b815481529060010190602001808311611a3b57829003601f168201915b50505050509050919050565b6000611a76611a716120dc565b61176e565b611ab5576040517f08c379a0000000000000000000000000000000000000000000000000000000008152600401611aac9061497f565b60405180910390fd5b600c60009054906101000a900460ff1615611acf57600080fd5b611ada868585612414565b611b19576040517f08c379a0000000000000000000000000000000000000000000000000000000008152600401611b1090614a5f565b60405180910390fd5b6000611b2488612aaf565b9050611b348188888888886125bd565b809150509695505050505050565b6000611b54611b4f6120dc565b61176e565b611b93576040517f08c379a0000000000000000000000000000000000000000000000000000000008152600401611b8a9061497f565b60405180910390fd5b600c60009054906101000a900460ff1615611bad57600080fd5b611bb8878686612414565b611bf7576040517f08c379a0000000000000000000000000000000000000000000000000000000008152600401611bee90614a5f565b60405180910390fd5b6000611c0289612aaf565b9050611c128189898989896125bd565b611c1c8184612ad6565b80915050979650505050505050565b600060606000806000611c3d8661206a565b611c7c576040517f08c379a0000000000000000000000000000000000000000000000000000000008152600401611c7390614a3f565b60405180910390fd5b6006600087815260200190815260200160002060000160009054906101000a900473ffffffffffffffffffffffffffffffffffffffff16600660008881526020019081526020016000206001016006600089815260200190815260200160002060020154600660008a815260200190815260200160002060030160009054906101000a900463ffffffff16600660008b815260200190815260200160002060030160049054906101000a900463ffffffff16838054600181600116156101000203166002900480601f016020809104026020016040519081016040528092919081815260200182805460018160011615610100020316600290048015611dc35780601f10611d9857610100808354040283529160200191611dc3565b820191906000526020600020905b815481529060010190602001808311611da657829003601f168201915b505050505093509450945094509450945091939590929450565b6000600b60008473ffffffffffffffffffffffffffffffffffffffff1673ffffffffffffffffffffffffffffffffffffffff16815260200190815260200160002060008373ffffffffffffffffffffffffffffffffffffffff1673ffffffffffffffffffffffffffffffffffffffff16815260200190815260200160002060009054906101000a900460ff16905092915050565b600160009054906101000a900473ffffffffffffffffffffffffffffffffffffffff1673ffffffffffffffffffffffffffffffffffffffff16611eb26120dc565b73ffffffffffffffffffffffffffffffffffffffff1614611f08576040517f08c379a0000000000000000000000000000000000000000000000000000000008152600401611eff90614bdf565b60405180910390fd5b600073ffffffffffffffffffffffffffffffffffffffff168173ffffffffffffffffffffffffffffffffffffffff1614611f7e5780600160006101000a81548173ffffffffffffffffffffffffffffffffffffffff021916908373ffffffffffffffffffffffffffffffffffffffff1602179055505b50565b6000611f93611f8e6120dc565b61176e565b611fd2576040517f08c379a0000000000000000000000000000000000000000000000000000000008152600401611fc99061497f565b60405180910390fd5b600c60009054906101000a900460ff1615611fec57600080fd5b611ff7878686612414565b612036576040517f08c379a000000000000000000000000000000000000000000000000000000000815260040161202d90614a5f565b60405180910390fd5b6000612041896128cc565b90506120518189898989896125bd565b61205b8184612ad6565b80915050979650505050505050565b6000806004600084815260200190815260200160002060009054906101000a900473ffffffffffffffffffffffffffffffffffffffff169050600073ffffffffffffffffffffffffffffffffffffffff168173ffffffffffffffffffffffffffffffffffffffff161415915050919050565b600033905090565b600081600001549050919050565b60006120fd8261206a565b61213c576040517f08c379a0000000000000000000000000000000000000000000000000000000008152600401612133906149ff565b60405180910390fd5b600061214783610dbf565b90508073ffffffffffffffffffffffffffffffffffffffff168473ffffffffffffffffffffffffffffffffffffffff1614806121b657508373ffffffffffffffffffffffffffffffffffffffff1661219e846106f1565b73ffffffffffffffffffffffffffffffffffffffff16145b806121c757506121c68185611ddd565b5b91505092915050565b8273ffffffffffffffffffffffffffffffffffffffff166121f082610dbf565b73ffffffffffffffffffffffffffffffffffffffff1614612246576040517f08c379a000000000000000000000000000000000000000000000000000000000815260040161223d90614b3f565b60405180910390fd5b600073ffffffffffffffffffffffffffffffffffffffff168273ffffffffffffffffffffffffffffffffffffffff1614156122b6576040517f08c379a00000000000000000000000000000000000000000000000000000000081526004016122ad906149bf565b60405180910390fd5b6122bf81612b4a565b612306600560008573ffffffffffffffffffffffffffffffffffffffff1673ffffffffffffffffffffffffffffffffffffffff168152602001908152602001600020612c08565b61234d600560008473ffffffffffffffffffffffffffffffffffffffff1673ffffffffffffffffffffffffffffffffffffffff168152602001908152602001600020612c2b565b816004600083815260200190815260200160002060006101000a81548173ffffffffffffffffffffffffffffffffffffffff021916908373ffffffffffffffffffffffffffffffffffffffff160217905550808273ffffffffffffffffffffffffffffffffffffffff168473ffffffffffffffffffffffffffffffffffffffff167fddf252ad1be2c89b69c2b068fc378daa952ba7f163c4a11628f55a4df523b3ef60405160405180910390a4505050565b61241161240b82610dbf565b82612c41565b50565b6000600260009054906101000a900473ffffffffffffffffffffffffffffffffffffffff1673ffffffffffffffffffffffffffffffffffffffff166347ba747a856040518263ffffffff1660e01b8152600401612471919061493d565b60206040518083038186803b15801561248957600080fd5b505afa15801561249d573d6000803e3d6000fd5b505050506040513d601f19601f820116820180604052506124c19190810190613b4c565b612500576040517f08c379a00000000000000000000000000000000000000000000000000000000081526004016124f790614a7f565b60405180910390fd5b8263ffffffff168263ffffffff161161254e576040517f08c379a00000000000000000000000000000000000000000000000000000000081526004016125459061499f565b60405180910390fd5b600190509392505050565b600080612565846128cc565b90506125746000858386612ea3565b6125b3576040517f08c379a00000000000000000000000000000000000000000000000000000000081526004016125aa9061495f565b60405180910390fd5b8091505092915050565b6125c68661206a565b612605576040517f08c379a00000000000000000000000000000000000000000000000000000000081526004016125fc90614bbf565b60405180910390fd5b61260d6133a8565b6040518060c001604052806126206120dc565b73ffffffffffffffffffffffffffffffffffffffff1681526020018781526020018681526020018563ffffffff1681526020018463ffffffff1681526020018363ffffffff168152509050806006600089815260200190815260200160002060008201518160000160006101000a81548173ffffffffffffffffffffffffffffffffffffffff021916908373ffffffffffffffffffffffffffffffffffffffff16021790555060208201518160010190805190602001906126e2929190613409565b506040820151816002015560608201518160030160006101000a81548163ffffffff021916908363ffffffff16021790555060808201518160030160046101000a81548163ffffffff021916908363ffffffff16021790555060a08201518160030160086101000a81548163ffffffff021916908363ffffffff16021790555090505061276e86612fc1565b61280f576008600061277e6120dc565b73ffffffffffffffffffffffffffffffffffffffff1673ffffffffffffffffffffffffffffffffffffffff168152602001908152602001600020604051806020016040528088815250908060018154018082558091505090600182039060005260206000200160009091929091909150600082015181600001908051906020019061280a929190613409565b505050505b6128198686613151565b6128c357600760006128296120dc565b73ffffffffffffffffffffffffffffffffffffffff1673ffffffffffffffffffffffffffffffffffffffff1681526020019081526020016000208660405161287191906147c9565b9081526020016040518091039020604051806020016040528087815250908060018154018082558091505090600182039060005260206000200160009091929091909150600082015181600001555050505b50505050505050565b60008073ffffffffffffffffffffffffffffffffffffffff168273ffffffffffffffffffffffffffffffffffffffff16141561293d576040517f08c379a000000000000000000000000000000000000000000000000000000000815260040161293490614adf565b60405180910390fd5b6129476003612c2b565b600061295360036120e4565b9050826004600083815260200190815260200160002060006101000a81548173ffffffffffffffffffffffffffffffffffffffff021916908373ffffffffffffffffffffffffffffffffffffffff1602179055506129ee600560008573ffffffffffffffffffffffffffffffffffffffff1673ffffffffffffffffffffffffffffffffffffffff168152602001908152602001600020612c2b565b808373ffffffffffffffffffffffffffffffffffffffff16600073ffffffffffffffffffffffffffffffffffffffff167fddf252ad1be2c89b69c2b068fc378daa952ba7f163c4a11628f55a4df523b3ef60405160405180910390a480915050919050565b612a5e8484846121d0565b612a6a84848484612ea3565b612aa9576040517f08c379a0000000000000000000000000000000000000000000000000000000008152600401612aa09061495f565b60405180910390fd5b50505050565b600080612acb8360405180602001604052806000815250612559565b905080915050919050565b612adf8261206a565b612b1e576040517f08c379a0000000000000000000000000000000000000000000000000000000008152600401612b1590614bbf565b60405180910390fd5b80600960008481526020019081526020016000209080519060200190612b45929190613489565b505050565b600073ffffffffffffffffffffffffffffffffffffffff16600a600083815260200190815260200160002060009054906101000a900473ffffffffffffffffffffffffffffffffffffffff1673ffffffffffffffffffffffffffffffffffffffff1614612c05576000600a600083815260200190815260200160002060006101000a81548173ffffffffffffffffffffffffffffffffffffffff021916908373ffffffffffffffffffffffffffffffffffffffff1602179055505b50565b612c206001826000015461325f90919063ffffffff16565b816000018190555050565b6001816000016000828254019250508190555050565b8173ffffffffffffffffffffffffffffffffffffffff16612c6182610dbf565b73ffffffffffffffffffffffffffffffffffffffff1614612cb7576040517f08c379a0000000000000000000000000000000000000000000000000000000008152600401612cae90614b9f565b60405180910390fd5b612cc081612b4a565b612d07600560008473ffffffffffffffffffffffffffffffffffffffff1673ffffffffffffffffffffffffffffffffffffffff168152602001908152602001600020612c08565b60006004600083815260200190815260200160002060006101000a81548173ffffffffffffffffffffffffffffffffffffffff021916908373ffffffffffffffffffffffffffffffffffffffff16021790555060006009600083815260200190815260200160002080546001816001161561010002031660029004905014612da957600960008281526020019081526020016000206000612da89190613509565b5b60066000828152602001908152602001600020600080820160006101000a81549073ffffffffffffffffffffffffffffffffffffffff0219169055600182016000612df49190613509565b60028201600090556003820160006101000a81549063ffffffff02191690556003820160046101000a81549063ffffffff02191690556003820160086101000a81549063ffffffff0219169055505080600073ffffffffffffffffffffffffffffffffffffffff168373ffffffffffffffffffffffffffffffffffffffff167fddf252ad1be2c89b69c2b068fc378daa952ba7f163c4a11628f55a4df523b3ef60405160405180910390a45050565b6000612ec48473ffffffffffffffffffffffffffffffffffffffff166132a9565b612ed15760019050612fb9565b60008473ffffffffffffffffffffffffffffffffffffffff1663150b7a02612ef76120dc565b8887876040518563ffffffff1660e01b8152600401612f1994939291906147fb565b602060405180830381600087803b158015612f3357600080fd5b505af1158015612f47573d6000803e3d6000fd5b505050506040513d601f19601f82011682018060405250612f6b9190810190613b9e565b905063150b7a0260e01b7bffffffffffffffffffffffffffffffffffffffffffffffffffffffff1916817bffffffffffffffffffffffffffffffffffffffffffffffffffffffff1916149150505b949350505050565b60006060600860003373ffffffffffffffffffffffffffffffffffffffff1673ffffffffffffffffffffffffffffffffffffffff168152602001908152602001600020805480602002602001604051908101604052809291908181526020016000905b828210156130f457838290600052602060002001604051806020016040529081600082018054600181600116156101000203166002900480601f0160208091040260200160405190810160405280929190818152602001828054600181600116156101000203166002900480156130dc5780601f106130b1576101008083540402835291602001916130dc565b820191906000526020600020905b8154815290600101906020018083116130bf57829003601f168201915b50505050508152505081526020019060010190613024565b505050509050600080905060008090505b82518110156131465761312f8584838151811061311e57fe5b6020026020010151600001516132f4565b1561313957600191505b8080600101915050613105565b508092505050919050565b60006060600760003373ffffffffffffffffffffffffffffffffffffffff1673ffffffffffffffffffffffffffffffffffffffff168152602001908152602001600020846040516131a291906147c9565b9081526020016040518091039020805480602002602001604051908101604052809291908181526020016000905b8282101561320857838290600052602060002001604051806020016040529081600082015481525050815260200190600101906131d0565b505050509050600080905060008090505b82518110156132535782818151811061322e57fe5b60200260200101516000015185141561324657600191505b8080600101915050613219565b50809250505092915050565b60006132a183836040518060400160405280601e81526020017f536166654d6174683a207375627472616374696f6e206f766572666c6f77000081525061334d565b905092915050565b60008060007fc5d2460186f7233c927e7db2dcc703c0e500b653ca82273b7bfad8045d85a47060001b9050833f91506000801b82141580156132eb5750808214155b92505050919050565b60008160405160200161330791906147c9565b604051602081830303815290604052805190602001208360405160200161332e91906147c9565b6040516020818303038152906040528051906020012014905092915050565b6000838311158290613395576040517f08c379a000000000000000000000000000000000000000000000000000000000815260040161338c919061493d565b60405180910390fd5b5060008385039050809150509392505050565b6040518060c00160405280600073ffffffffffffffffffffffffffffffffffffffff1681526020016060815260200160008019168152602001600063ffffffff168152602001600063ffffffff168152602001600063ffffffff1681525090565b828054600181600116156101000203166002900490600052602060002090601f016020900481019282601f1061344a57805160ff1916838001178555613478565b82800160010185558215613478579182015b8281111561347757825182559160200191906001019061345c565b5b5090506134859190613551565b5090565b828054600181600116156101000203166002900490600052602060002090601f016020900481019282601f106134ca57805160ff19168380011785556134f8565b828001600101855582156134f8579182015b828111156134f75782518255916020019190600101906134dc565b5b5090506135059190613551565b5090565b50805460018160011615610100020316600290046000825580601f1061352f575061354e565b601f01602090049060005260206000209081019061354d9190613551565b5b50565b61357391905b8082111561356f576000816000905550600101613557565b5090565b90565b60008135905061358581614f0e565b92915050565b60008135905061359a81614f25565b92915050565b6000815190506135af81614f25565b92915050565b6000813590506135c481614f3c565b92915050565b6000813590506135d981614f53565b92915050565b6000815190506135ee81614f53565b92915050565b600082601f83011261360557600080fd5b813561361861361382614ca7565b614c7a565b9150808252602083016020830185838301111561363457600080fd5b61363f838284614ebb565b50505092915050565b60008083601f84011261365a57600080fd5b8235905067ffffffffffffffff81111561367357600080fd5b60208301915083600182028301111561368b57600080fd5b9250929050565b600082601f8301126136a357600080fd5b81356136b66136b182614cd3565b614c7a565b915080825260208301602083018583830111156136d257600080fd5b6136dd838284614ebb565b50505092915050565b6000813590506136f581614f6a565b92915050565b60008135905061370a81614f81565b92915050565b60006020828403121561372257600080fd5b600061373084828501613576565b91505092915050565b6000806040838503121561374c57600080fd5b600061375a85828601613576565b925050602061376b85828601613576565b9150509250929050565b60008060006060848603121561378a57600080fd5b600061379886828701613576565b93505060206137a986828701613576565b92505060406137ba868287016136e6565b9150509250925092565b600080600080608085870312156137da57600080fd5b60006137e887828801613576565b94505060206137f987828801613576565b935050604061380a878288016136e6565b925050606085013567ffffffffffffffff81111561382757600080fd5b613833878288016135f4565b91505092959194509250565b6000806040838503121561385257600080fd5b600061386085828601613576565b92505060206138718582860161358b565b9150509250929050565b60008060006040848603121561389057600080fd5b600061389e86828701613576565b935050602084013567ffffffffffffffff8111156138bb57600080fd5b6138c786828701613648565b92509250509250925092565b60008060008060008060c087890312156138ec57600080fd5b60006138fa89828a01613576565b965050602087013567ffffffffffffffff81111561391757600080fd5b61392389828a01613692565b955050604061393489828a016135b5565b945050606061394589828a016136fb565b935050608061395689828a016136fb565b92505060a061396789828a016136fb565b9150509295509295509295565b600080600080600080600060e0888a03121561398f57600080fd5b600061399d8a828b01613576565b975050602088013567ffffffffffffffff8111156139ba57600080fd5b6139c68a828b01613692565b96505060406139d78a828b016135b5565b95505060606139e88a828b016136fb565b94505060806139f98a828b016136fb565b93505060a0613a0a8a828b016136fb565b92505060c088013567ffffffffffffffff811115613a2757600080fd5b613a338a828b016135f4565b91505092959891949750929550565b600080600080600080600060e0888a031215613a5d57600080fd5b6000613a6b8a828b01613576565b975050602088013567ffffffffffffffff811115613a8857600080fd5b613a948a828b01613692565b9650506040613aa58a828b016135b5565b9550506060613ab68a828b016136fb565b9450506080613ac78a828b016136fb565b93505060a0613ad88a828b016136fb565b92505060c088013567ffffffffffffffff811115613af557600080fd5b613b018a828b01613692565b91505092959891949750929550565b60008060408385031215613b2357600080fd5b6000613b3185828601613576565b9250506020613b42858286016136e6565b9150509250929050565b600060208284031215613b5e57600080fd5b6000613b6c848285016135a0565b91505092915050565b600060208284031215613b8757600080fd5b6000613b95848285016135ca565b91505092915050565b600060208284031215613bb057600080fd5b6000613bbe848285016135df565b91505092915050565b600060208284031215613bd957600080fd5b6000613be7848285016136e6565b91505092915050565b6000613bfc8383613d83565b60208301905092915050565b6000613c148383613e78565b905092915050565b6000613c288383614783565b60208301905092915050565b613c3d81614e09565b82525050565b6000613c4e82614d2f565b613c588185614d98565b9350613c6383614cff565b8060005b83811015613c94578151613c7b8882613bf0565b9750613c8683614d71565b925050600181019050613c67565b5085935050505092915050565b6000613cac82614d3a565b613cb68185614da9565b935083602082028501613cc885614d0f565b8060005b85811015613d045784840389528151613ce58582613c08565b9450613cf083614d7e565b925060208a01995050600181019050613ccc565b50829750879550505050505092915050565b6000613d2182614d45565b613d2b8185614dba565b9350613d3683614d1f565b8060005b83811015613d67578151613d4e8882613c1c565b9750613d5983614d8b565b925050600181019050613d3a565b5085935050505092915050565b613d7d81614e1b565b82525050565b613d8c81614e27565b82525050565b613d9b81614e27565b82525050565b6000613dac82614d50565b613db68185614dcb565b9350613dc6818560208601614eca565b613dcf81614efd565b840191505092915050565b613de381614e97565b82525050565b6000613df58385614dfe565b9350613e02838584614ebb565b82840190509392505050565b6000613e1982614d66565b613e238185614ded565b9350613e33818560208601614eca565b613e3c81614efd565b840191505092915050565b6000613e5282614d66565b613e5c8185614dfe565b9350613e6c818560208601614eca565b80840191505092915050565b6000613e8382614d5b565b613e8d8185614ddc565b9350613e9d818560208601614eca565b613ea681614efd565b840191505092915050565b6000613ebe603283614ded565b91507f4552433732313a207472616e7366657220746f206e6f6e20455243373231526560008301527f63656976657220696d706c656d656e74657200000000000000000000000000006020830152604082019050919050565b6000613f24603583614ded565b91507f4552433732313a2063616c6c6572206973206e6f742077686974656c6973746560008301527f6420666f7220746865204d696e74657220726f6c6500000000000000000000006020830152604082019050919050565b6000613f8a602a83614ded565b91507f4552433732313a2073746172742074696d65206d757374206265206265666f7260008301527f6520656e642074696d65000000000000000000000000000000000000000000006020830152604082019050919050565b6000613ff0602483614ded565b91507f4552433732313a207472616e7366657220746f20746865207a65726f2061646460008301527f72657373000000000000000000000000000000000000000000000000000000006020830152604082019050919050565b6000614056601983614ded565b91507f4552433732313a20617070726f766520746f2063616c6c6572000000000000006000830152602082019050919050565b6000614096602c83614ded565b91507f4552433732313a206f70657261746f7220717565727920666f72206e6f6e657860008301527f697374656e7420746f6b656e00000000000000000000000000000000000000006020830152604082019050919050565b60006140fc603483614ded565b91507f4552433732313a207472616e73666572207265737472696374656420746f207760008301527f686974656c6973746564206164647265737365730000000000000000000000006020830152604082019050919050565b6000614162603083614ded565b91507f4552433732313a2054696d6520736c6f7420717565727920666f72206e6f6e6560008301527f78697374656e7420746f6b656e206964000000000000000000000000000000006020830152604082019050919050565b60006141c8601983614ded565b91507f4552433732313a20696e76616c69642074696d6520736c6f74000000000000006000830152602082019050919050565b6000614208602e83614ded565b91507f4552433732313a20636f6e74656e74206964206973206e6f742072656769737460008301527f6572656420746f2063616c6c65720000000000000000000000000000000000006020830152604082019050919050565b600061426e602a83614ded565b91507f4552433732313a2062616c616e636520717565727920666f7220746865207a6560008301527f726f2061646472657373000000000000000000000000000000000000000000006020830152604082019050919050565b60006142d4603e83614ded565b91507f4552433732313a20617070726f76652063616c6c6572206973206e6f7420746f60008301527f6b656e206f776e6572206e6f7220617070726f76656420666f7220616c6c00006020830152604082019050919050565b600061433a602083614ded565b91507f4552433732313a206d696e7420746f20746865207a65726f20616464726573736000830152602082019050919050565b600061437a602f83614ded565b91507f4552433732313a20746f6b656e206f776e657220717565727920666f72206e6f60008301527f6e6578697374656e7420746f6b656e00000000000000000000000000000000006020830152604082019050919050565b60006143e0602c83614ded565b91507f4552433732313a20617070726f76656420717565727920666f72206e6f6e657860008301527f697374656e7420746f6b656e00000000000000000000000000000000000000006020830152604082019050919050565b6000614446602983614ded565b91507f4552433732313a207472616e73666572206f6620746f6b656e2074686174206960008301527f73206e6f74206f776e00000000000000000000000000000000000000000000006020830152604082019050919050565b60006144ac601d83614ded565b91507f4552433732313a20617070726f76616c20697320726564756e64616e740000006000830152602082019050919050565b60006144ec603183614ded565b91507f4552433732313a207472616e736665722063616c6c6572206973206e6f74206f60008301527f776e6572206e6f7220617070726f7665640000000000000000000000000000006020830152604082019050919050565b6000614552602583614ded565b91507f4552433732313a206275726e206f6620746f6b656e2074686174206973206e6f60008301527f74206f776e0000000000000000000000000000000000000000000000000000006020830152604082019050919050565b60006145b8602483614ded565b91507f4552433732313a2055524920736574206f66206e6f6e6578697374656e74207460008301527f6f6b656e000000000000000000000000000000000000000000000000000000006020830152604082019050919050565b600061461e601b83614ded565b91507f4552433732313a2063616c6c6572206973206e6f74206f776e657200000000006000830152602082019050919050565b600061465e602e83614ded565b91507f4552433732313a2063616c6c6572206973206e6f7420746f6b656e206f776e6560008301527f72206e6f7220617070726f7665640000000000000000000000000000000000006020830152604082019050919050565b60006146c4602783614ded565b91507f4552433732313a2055524920717565727920666f72206e6f6e6578697374656e60008301527f7420746f6b656e000000000000000000000000000000000000000000000000006020830152604082019050919050565b600061472a602183614ded565b91507f4552433732313a2063616c6c6572206973206e6f742077686974656c6973746560008301527f64000000000000000000000000000000000000000000000000000000000000006020830152604082019050919050565b61478c81614e7d565b82525050565b61479b81614e7d565b82525050565b6147aa81614e87565b82525050565b60006147bd828486613de9565b91508190509392505050565b60006147d58284613e47565b915081905092915050565b60006020820190506147f56000830184613c34565b92915050565b60006080820190506148106000830187613c34565b61481d6020830186613c34565b61482a6040830185614792565b818103606083015261483c8184613da1565b905095945050505050565b600060a08201905061485c6000830188613c34565b818103602083015261486e8187613e0e565b905061487d6040830186613d92565b61488a60608301856147a1565b61489760808301846147a1565b9695505050505050565b600060208201905081810360008301526148bb8184613c43565b905092915050565b600060208201905081810360008301526148dd8184613ca1565b905092915050565b600060208201905081810360008301526148ff8184613d16565b905092915050565b600060208201905061491c6000830184613d74565b92915050565b60006020820190506149376000830184613dda565b92915050565b600060208201905081810360008301526149578184613e0e565b905092915050565b6000602082019050818103600083015261497881613eb1565b9050919050565b6000602082019050818103600083015261499881613f17565b9050919050565b600060208201905081810360008301526149b881613f7d565b9050919050565b600060208201905081810360008301526149d881613fe3565b9050919050565b600060208201905081810360008301526149f881614049565b9050919050565b60006020820190508181036000830152614a1881614089565b9050919050565b60006020820190508181036000830152614a38816140ef565b9050919050565b60006020820190508181036000830152614a5881614155565b9050919050565b60006020820190508181036000830152614a78816141bb565b9050919050565b60006020820190508181036000830152614a98816141fb565b9050919050565b60006020820190508181036000830152614ab881614261565b9050919050565b60006020820190508181036000830152614ad8816142c7565b9050919050565b60006020820190508181036000830152614af88161432d565b9050919050565b60006020820190508181036000830152614b188161436d565b9050919050565b60006020820190508181036000830152614b38816143d3565b9050919050565b60006020820190508181036000830152614b5881614439565b9050919050565b60006020820190508181036000830152614b788161449f565b9050919050565b60006020820190508181036000830152614b98816144df565b9050919050565b60006020820190508181036000830152614bb881614545565b9050919050565b60006020820190508181036000830152614bd8816145ab565b9050919050565b60006020820190508181036000830152614bf881614611565b9050919050565b60006020820190508181036000830152614c1881614651565b9050919050565b60006020820190508181036000830152614c38816146b7565b9050919050565b60006020820190508181036000830152614c588161471d565b9050919050565b6000602082019050614c746000830184614792565b92915050565b6000604051905081810181811067ffffffffffffffff82111715614c9d57600080fd5b8060405250919050565b600067ffffffffffffffff821115614cbe57600080fd5b601f19601f8301169050602081019050919050565b600067ffffffffffffffff821115614cea57600080fd5b601f19601f8301169050602081019050919050565b6000819050602082019050919050565b6000819050602082019050919050565b6000819050602082019050919050565b600081519050919050565b600081519050919050565b600081519050919050565b600081519050919050565b600081519050919050565b600081519050919050565b6000602082019050919050565b6000602082019050919050565b6000602082019050919050565b600082825260208201905092915050565b600082825260208201905092915050565b600082825260208201905092915050565b600082825260208201905092915050565b600082825260208201905092915050565b600082825260208201905092915050565b600081905092915050565b6000614e1482614e5d565b9050919050565b60008115159050919050565b6000819050919050565b60007fffffffff0000000000000000000000000000000000000000000000000000000082169050919050565b600073ffffffffffffffffffffffffffffffffffffffff82169050919050565b6000819050919050565b600063ffffffff82169050919050565b6000614ea282614ea9565b9050919050565b6000614eb482614e5d565b9050919050565b82818337600083830152505050565b60005b83811015614ee8578082015181840152602081019050614ecd565b83811115614ef7576000848401525b50505050565b6000601f19601f8301169050919050565b614f1781614e09565b8114614f2257600080fd5b50565b614f2e81614e1b565b8114614f3957600080fd5b50565b614f4581614e27565b8114614f5057600080fd5b50565b614f5c81614e31565b8114614f6757600080fd5b50565b614f7381614e7d565b8114614f7e57600080fd5b50565b614f8a81614e87565b8114614f9557600080fd5b5056fea365627a7a723158203022089e467e6a4252db31708b11e4b4973d9990af47844e95f6f2e62e9e59446c6578706572696d656e74616cf564736f6c634300050b0040",
  "source": "pragma solidity ^0.5.11;\npragma experimental ABIEncoderV2;\n\nimport \"./IERC721.sol\";\nimport \"./IERC721Receiver.sol\";\nimport \"./SafeMath.sol\";\nimport \"./Address.sol\";\nimport \"./Counters.sol\";\nimport \"./ERC165.sol\";\n\n\n// Copy of Deployed Registry contract ABI\n// We just use the signatures of the parts we need to interact with:\ncontract DeployedRegistry {\n    mapping (address => bool) public isWhitelisted;\n    function isContentIdRegisteredToCaller(string calldata contentId) external view returns(bool);\n}\n\n\n/**\n * @title ERC721 Non-Fungible Token Standard basic implementation\n * @dev see https://eips.ethereum.org/EIPS/eip-721\n */\ncontract ERC721 is ERC165, IERC721 {\n    using SafeMath for uint256;\n    using Address for address;\n    using Counters for Counters.Counter;\n\n\n    /***  Contract data  ***/\n\n    // This contract's owner (administator)\n    address public owner;\n\n    // Microsponsors Registry (whitelist)\n    DeployedRegistry public registry;\n\n    // Equals to `bytes4(keccak256(\"onERC721Received(address,address,uint256,bytes)\"))`\n    // which can be also obtained as `IERC721Receiver(0).onERC721Received.selector`\n    bytes4 private constant _ERC721_RECEIVED = 0x150b7a02;\n\n    // All token ids minted, incremented starting at 1\n    Counters.Counter _tokenIds;\n\n    // Mapping from Token ID to Token Owner\n    mapping (uint256 => address) private _tokenOwner;\n\n    // Mapping from Token Owner to # of owned tokens\n    mapping (address => Counters.Counter) private _ownedTokensCount;\n\n    // A Token's TimeSlot metadata\n    struct TimeSlot {\n        address minter; // the address of the user who mint()'ed this time slot\n        string contentId; // the users' registered contentId containing the Property\n        bytes32 propertyName; // describes the Property within the contentId that is tokenized into time slots\n        uint32 startTime; // min timestamp (when time slot begins)\n        uint32 endTime; // max timestamp (when time slot ends)\n        uint32 auctionEndTime; // max timestamp (when auction for time slot ends)\n    }\n\n    // Mapping from Token ID to TimeSlot struct\n    mapping(uint256 => TimeSlot) private _tokenToTimeSlot;\n\n    // Mapping from Token Minter => string ContentId => array of Property Names\n    // Used to display all tokenized time slots on a property.\n    // Using struct because there is no mapping to a dynamic array of bytes32 in Solidity at this time.\n    struct PropertyNameStruct {\n        bytes32 propertyName;\n    }\n    mapping(address => mapping(string => PropertyNameStruct[])) private _tokenMinterToPropertyNames;\n\n    // Mapping from Token Minter to array of Content Ids\n    // We're not grabbing this from the Registry in case the user has private\n    // content ids they dont want exposed\n    struct ContentIdStruct {\n        string contentId;\n    }\n    mapping(address => ContentIdStruct[]) private _tokenMinterToContentIds;\n\n    // Mapping from Token ID to Token URIs\n    mapping(uint256 => string) private _tokenURIs;\n\n    // Mapping from Token ID to Approved Address\n    mapping (uint256 => address) private _tokenApprovals;\n\n    // Mapping from Token Owner to Operator Approvals\n    mapping (address => mapping (address => bool)) private _operatorApprovals;\n\n    // Pause. When true, token minting and transfers stop.\n    bool public paused = false;\n\n    /*\n     *     bytes4(keccak256('balanceOf(address)')) == 0x70a08231\n     *     bytes4(keccak256('ownerOf(uint256)')) == 0x6352211e\n     *     bytes4(keccak256('approve(address,uint256)')) == 0x095ea7b3\n     *     bytes4(keccak256('getApproved(uint256)')) == 0x081812fc\n     *     bytes4(keccak256('setApprovalForAll(address,bool)')) == 0xa22cb465\n     *     bytes4(keccak256('isApprovedForAll(address,address)')) == 0xe985e9c5\n     *     bytes4(keccak256('transferFrom(address,address,uint256)')) == 0x23b872dd\n     *     bytes4(keccak256('safeTransferFrom(address,address,uint256)')) == 0x42842e0e\n     *     bytes4(keccak256('safeTransferFrom(address,address,uint256,bytes)')) == 0xb88d4fde\n     *\n     *     => 0x70a08231 ^ 0x6352211e ^ 0x095ea7b3 ^ 0x081812fc ^\n     *        0xa22cb465 ^ 0xe985e9c ^ 0x23b872dd ^ 0x42842e0e ^ 0xb88d4fde == 0x80ac58cd\n     */\n    bytes4 private constant _INTERFACE_ID_ERC721 = 0x80ac58cd;\n\n\n    constructor () public {\n\n        // register the supported interfaces to conform to ERC721 via ERC165\n        _registerInterface(_INTERFACE_ID_ERC721);\n\n        // set the contract owner\n        owner = _msgSender();\n    }\n\n\n    /*\n     * @dev Provides information about the current execution context, including the\n     * sender of the transaction and its data. While these are generally available\n     * via msg.sender and msg.data, they not should not be accessed in such a direct\n     * manner, since when dealing with GSN meta-transactions the account sending and\n     * paying for execution may not be the actual sender (as far as an application\n     * is concerned).\n     */\n\n    function _msgSender() internal view returns (address) {\n\n        return msg.sender;\n\n    }\n\n    function _msgData() internal view returns (bytes memory) {\n\n        this; // silence state mutability warning without generating bytecode -\n              // see https://github.com/ethereum/solidity/issues/2691\n        return msg.data;\n\n    }\n\n\n    /***  Owner (Administrator) functions  ***/\n\n\n    /*\n     * @dev Sets the contract's owner (administrator)\n     * Based on 0x's Ownable, but modified here\n     * import \"@0x/contracts-utils/contracts/src/Ownable.sol\";\n     */\n    modifier onlyOwner() {\n        require(\n            _msgSender() == owner,\n            \"ERC721: caller is not owner\"\n        );\n        _;\n    }\n\n    function transferOwnership(address newOwner)\n        public\n        onlyOwner\n    {\n        if (newOwner != address(0)) {\n            owner = newOwner;\n        }\n    }\n\n    /**\n     * @dev Update address for Microsponsors Registry contract\n     * @param newAddress where the Registry contract lives\n     */\n    function updateRegistryAddress(address newAddress)\n        public\n        onlyOwner\n    {\n        registry = DeployedRegistry(newAddress);\n    }\n\n\n    /***  User account permissions  ***/\n\n\n    /**\n     * @dev Checks Registry contract for whitelisted status\n     * @param target The address to check\n     */\n    function isWhitelisted(address target) public view returns (bool) {\n        return registry.isWhitelisted(target);\n    }\n\n    /**\n     * @dev Checks if caller isWhitelisted(),\n     * throws with error message and refunds gas if not\n     */\n    modifier onlyWhitelisted() {\n\n        require(\n            isWhitelisted(_msgSender()),\n            \"ERC721: caller is not whitelisted\"\n        );\n        _;\n\n    }\n\n    /**\n     * @dev Checks if minter isWhitelisted()\n     */\n    function isMinter(address account) public view returns (bool) {\n        return isWhitelisted(account);\n    }\n\n    /**\n     * @dev Checks if caller isMinter(),\n     * throws with error message and refunds gas if not\n     */\n    modifier onlyMinter() {\n\n        require(\n            isMinter(_msgSender()),\n            \"ERC721: caller is not whitelisted for the Minter role\"\n        );\n        _;\n\n    }\n\n\n    /***  Minting tokens  ***/\n\n\n    /**\n     * @dev Function to mint tokens.\n     * @param to The address that will receive the minted token.\n     * @return tokenId\n     */\n    function mint(\n        address to,\n        string memory contentId,\n        bytes32 propertyName,\n        uint32 startTime,\n        uint32 endTime,\n        uint32 auctionEndTime\n    )\n        public\n        onlyMinter\n        whenNotPaused\n        returns (uint256)\n    {\n\n        require(\n            _isValidTimeSlot(contentId, startTime, endTime),\n            \"ERC721: invalid time slot\"\n        );\n\n        uint256 tokenId = _mint(to);\n        _setTokenTimeSlot(tokenId, contentId, propertyName, startTime, endTime, auctionEndTime);\n\n        return tokenId;\n\n    }\n\n    // solhint-disable\n    /**\n     * Customized for Microsponsors from:\n     * https://github.com/OpenZeppelin/openzeppelin-contracts/blob/master/contracts/token/ERC721/ERC721MetadataMintable.sol\n     *\n     * @dev Function to mint tokens.\n     * @param to The address that will receive the minted tokens.\n     * @param tokenURI The token URI of the minted token.\n     * @return tokenId\n     */\n    // solhint-enable\n    function mintWithTokenURI(\n        address to,\n        string memory contentId,\n        bytes32 propertyName,\n        uint32 startTime,\n        uint32 endTime,\n        uint32 auctionEndTime,\n        string memory tokenURI\n    )\n        public\n        onlyMinter\n        whenNotPaused\n        returns (uint256)\n    {\n\n        require(\n            _isValidTimeSlot(contentId, startTime, endTime),\n            \"ERC721: invalid time slot\"\n        );\n\n        uint256 tokenId = _mint(to);\n        _setTokenTimeSlot(tokenId, contentId, propertyName, startTime, endTime, auctionEndTime);\n        _setTokenURI(tokenId, tokenURI);\n\n        return tokenId;\n\n    }\n\n    /**\n     * @dev Function to safely mint tokens.\n     * @param to The address that will receive the minted token.\n     * @return tokenId\n     */\n    function safeMint(\n        address to,\n        string memory contentId,\n        bytes32 propertyName,\n        uint32 startTime,\n        uint32 endTime,\n        uint32 auctionEndTime\n    )\n        public\n        onlyMinter\n        whenNotPaused\n        returns (uint256)\n    {\n\n        require(\n            _isValidTimeSlot(contentId, startTime, endTime),\n            \"ERC721: invalid time slot\"\n        );\n\n        uint256 tokenId = _safeMint(to);\n        _setTokenTimeSlot(tokenId, contentId, propertyName, startTime, endTime, auctionEndTime);\n\n        return tokenId;\n\n    }\n\n    /**\n     * @dev Function to safely mint tokens.\n     * @param to The address that will receive the minted token.\n     * @param data bytes data to send along with a safe transfer check.\n     * @return tokenId\n     */\n    function safeMint(\n        address to,\n        string memory contentId,\n        bytes32 propertyName,\n        uint32 startTime,\n        uint32 endTime,\n        uint32 auctionEndTime,\n        bytes memory data\n    )\n        public\n        onlyMinter\n        whenNotPaused\n        returns (uint256)\n    {\n\n        require(\n            _isValidTimeSlot(contentId, startTime, endTime),\n            \"ERC721: invalid time slot\"\n        );\n\n        uint256 tokenId = _safeMint(to, data);\n        _setTokenTimeSlot(tokenId, contentId, propertyName, startTime, endTime, auctionEndTime);\n\n        return tokenId;\n\n    }\n\n    // solhint-disable\n    /**\n     * Customized for Microsponsors from\n     * https://github.com/OpenZeppelin/openzeppelin-contracts/blob/master/contracts/token/ERC721/ERC721MetadataMintable.sol\n     *\n     * @dev Function to safely mint tokens.\n     * @param to The address that will receive the minted tokens.\n     * @param tokenURI The token URI of the minted token.\n     * @return tokenId\n     */\n    // solhint-enable\n    function safeMintWithTokenURI(\n        address to,\n        string memory contentId,\n        bytes32 propertyName,\n        uint32 startTime,\n        uint32 endTime,\n        uint32 auctionEndTime,\n        string memory tokenURI\n    )\n        public\n        onlyMinter\n        whenNotPaused\n        returns (uint256)\n    {\n\n        require(\n            _isValidTimeSlot(contentId, startTime, endTime),\n            \"ERC721: invalid time slot\"\n        );\n\n        uint256 tokenId = _safeMint(to);\n        _setTokenTimeSlot(tokenId, contentId, propertyName, startTime, endTime, auctionEndTime);\n        _setTokenURI(tokenId, tokenURI);\n\n        return tokenId;\n\n    }\n\n    /**\n     * @dev Internal function to safely mint a new token.\n     * Reverts if the given token ID already exists.\n     * If the target address is a contract, it must implement `onERC721Received`,\n     * which is called upon a safe transfer, and return the magic value\n     * `bytes4(keccak256(\"onERC721Received(address,address,uint256,bytes)\"))`; otherwise,\n     * the transfer is reverted.\n     * @param to The address that will own the minted token\n     * @return tokenId\n     */\n    function _safeMint(address to) internal returns (uint256) {\n\n        uint256 tokenId = _safeMint(to, \"\");\n        return tokenId;\n\n    }\n\n    /**\n     * @dev Internal function to safely mint a new token.\n     * Reverts if the given token ID already exists.\n     * If the target address is a contract, it must implement `onERC721Received`,\n     * which is called upon a safe transfer, and return the magic value\n     * `bytes4(keccak256(\"onERC721Received(address,address,uint256,bytes)\"))`; otherwise,\n     * the transfer is reverted.\n     * @param to The address that will own the minted token\n     * @param data bytes data to send along with a safe transfer check\n     * @return tokenId\n     */\n    function _safeMint(address to, bytes memory data) internal returns (uint256) {\n\n        uint256 tokenId = _mint(to);\n\n        require(\n            _checkOnERC721Received(address(0), to, tokenId, data),\n            \"ERC721: transfer to non ERC721Receiver implementer\"\n        );\n\n        return tokenId;\n\n    }\n\n    /**\n     * @dev Internal function to mint a new token.\n     * Reverts if the given token ID already exists.\n     * @param to The address that will own the minted token\n     */\n    function _mint(address to) internal returns (uint256) {\n\n        require(to != address(0), \"ERC721: mint to the zero address\");\n\n        _tokenIds.increment();\n        uint256 tokenId = _tokenIds.current();\n\n        _tokenOwner[tokenId] = to;\n        _ownedTokensCount[to].increment();\n\n        emit Transfer(address(0), to, tokenId);\n\n        return tokenId;\n\n    }\n\n\n    /***  Token URIs  ***/\n\n\n    /**\n     * @dev Internal function to set the token URI for a given token.\n     * Reverts if the token ID does not exist.\n     * @param tokenId uint256 ID of the token to set its URI\n     * @param uri string URI to assign\n     */\n    function _setTokenURI(uint256 tokenId, string memory uri) internal {\n\n        require(\n            _exists(tokenId),\n            \"ERC721: URI set of nonexistent token\"\n        );\n\n        _tokenURIs[tokenId] = uri;\n\n    }\n\n    /**\n     * @dev Returns an URI for a given token ID.\n     * Throws if the token ID does not exist. May return an empty string.\n     * @param tokenId uint256 ID of the token to query\n     */\n    function tokenURI(uint256 tokenId) external view returns (string memory) {\n\n        require(\n            _exists(tokenId),\n            \"ERC721: URI query for nonexistent token\"\n        );\n\n        return _tokenURIs[tokenId];\n\n    }\n\n\n    /***  Token TimeSlot data and metadata  ***/\n\n\n    function _isValidTimeSlot(\n        string memory contentId,\n        uint32 startTime,\n        uint32 endTime\n    ) internal view returns (bool) {\n\n        require(\n            registry.isContentIdRegisteredToCaller(contentId),\n            \"ERC721: content id is not registered to caller\"\n        );\n\n        require(\n            endTime > startTime,\n            \"ERC721: start time must be before end time\"\n        );\n\n        return true;\n\n    }\n\n\n    function _isContentIdMappedToMinter(\n        string memory contentId\n    )  internal view returns (bool) {\n\n        ContentIdStruct[] memory a = _tokenMinterToContentIds[msg.sender];\n        bool foundMatch = false;\n        for (uint i = 0; i < a.length; i++) {\n            if (stringsMatch(contentId, a[i].contentId)) {\n                foundMatch = true;\n            }\n        }\n\n        return foundMatch;\n    }\n\n\n    function _isPropertyNameMappedToMinter(\n        string memory contentId,\n        bytes32 propertyName\n    )  internal view returns (bool) {\n\n        PropertyNameStruct[] memory a = _tokenMinterToPropertyNames[msg.sender][contentId];\n        bool foundMatch = false;\n        for (uint i = 0; i < a.length; i++) {\n            if (propertyName == a[i].propertyName) {\n                foundMatch = true;\n            }\n        }\n\n        return foundMatch;\n    }\n\n\n    function _setTokenTimeSlot(\n        uint256 tokenId,\n        string memory contentId,\n        bytes32 propertyName,\n        uint32 startTime,\n        uint32 endTime,\n        uint32 auctionEndTime\n    ) internal {\n\n        require(\n            _exists(tokenId),\n            \"ERC721: URI set of nonexistent token\"\n        );\n\n        TimeSlot memory _timeSlot = TimeSlot({\n            minter: address(_msgSender()),\n            contentId: string(contentId),\n            propertyName: bytes32(propertyName),\n            startTime: uint32(startTime),\n            endTime: uint32(endTime),\n            auctionEndTime: uint32(auctionEndTime)\n        });\n\n        _tokenToTimeSlot[tokenId] = _timeSlot;\n\n        if (!_isContentIdMappedToMinter(contentId)) {\n            _tokenMinterToContentIds[_msgSender()].push( ContentIdStruct(contentId) );\n        }\n\n        if (!_isPropertyNameMappedToMinter(contentId, propertyName)) {\n            _tokenMinterToPropertyNames[_msgSender()][contentId].push( PropertyNameStruct(propertyName) );\n        }\n\n    }\n\n\n    function tokenTimeSlot(uint256 tokenId) external view returns (\n            address minter,\n            string memory contentId,\n            bytes32 propertyName,\n            uint32 startTime,\n            uint32 endTime\n    ) {\n\n        require(\n            _exists(tokenId),\n            \"ERC721: Time slot query for nonexistent token id\"\n        );\n\n        return (\n            _tokenToTimeSlot[tokenId].minter,\n            _tokenToTimeSlot[tokenId].contentId,\n            _tokenToTimeSlot[tokenId].propertyName,\n            _tokenToTimeSlot[tokenId].startTime,\n            _tokenToTimeSlot[tokenId].endTime\n        );\n\n    }\n\n    /// @dev Look up all Content IDs a Minter has tokenized TimeSlots on\n    ///      We're not grabbing this from the Registry in case the user has private\n    //       content ids they dont want exposed in there\n    function tokenMinterContentIds(address minter) external view returns (string[] memory) {\n\n        ContentIdStruct[] memory m = _tokenMinterToContentIds[minter];\n        string[] memory r = new string[](m.length);\n\n        for (uint i = 0; i < m.length; i++) {\n            r[i] = m[i].contentId;\n        }\n\n        return r;\n\n    }\n\n    /// @dev Look up all Property Names a Minter has tokenized on a content ID\n    function tokenMinterPropertyNames(\n        address minter,\n        string calldata contentId\n    ) external view returns (bytes32[] memory) {\n\n        PropertyNameStruct[] memory m = _tokenMinterToPropertyNames[minter][contentId];\n        bytes32[] memory r = new bytes32[](m.length);\n\n        for (uint i = 0; i < m.length; i++) {\n            r[i] =  m[i].propertyName;\n        }\n\n        return r;\n\n    }\n\n    /***  Token balance and ownership queries  ***/\n\n\n    /**\n     * @dev Gets the total number of tokens ever minted.\n     */\n    function totalSupply() public view returns (uint256) {\n\n        return _tokenIds.current();\n\n    }\n\n    /**\n     * @dev Gets the balance of the specified address.\n     * @param tokenOwner address to query the balance of\n     * @return uint256 representing the amount owned by the passed address\n     */\n    function balanceOf(address tokenOwner) public view returns (uint256) {\n\n        require(\n            tokenOwner != address(0),\n            \"ERC721: balance query for the zero address\"\n        );\n\n        return _ownedTokensCount[tokenOwner].current();\n\n    }\n\n    /**\n     * @dev Gets the owner of the specified token ID.\n     * @param tokenId uint256 ID of the token to query the owner of\n     * @return address currently marked as the owner of the given token ID\n     */\n    function ownerOf(uint256 tokenId) public view returns (address) {\n\n        address tokenOwner = _tokenOwner[tokenId];\n        require(\n            tokenOwner != address(0),\n            \"ERC721: token owner query for nonexistent token\"\n        );\n\n        return tokenOwner;\n\n    }\n\n    /**\n     * @param tokenOwner The owner whose tokens we are interested in.\n     * @dev This method MUST NEVER be called by smart contract code. First, it's fairly\n     *  expensive (it walks the entire _tokenIds array looking for tokens belonging to owner),\n     *  but it also returns a dynamic array, which is only supported for web3 calls, and\n     *  not contract-to-contract calls.\n    */\n    function tokensOfOwner(address tokenOwner) external view returns(uint256[] memory) {\n        uint256 tokenCount = balanceOf(tokenOwner);\n\n        if (tokenCount == 0) {\n            // Return an empty array\n            return new uint256[](0);\n        } else {\n            uint256[] memory result = new uint256[](tokenCount);\n            uint256 totalTokens = totalSupply();\n            uint256 resultIndex = 0;\n\n            // We count on the fact that all tokens have IDs starting at 1 and increase\n            // sequentially up to the total count.\n            uint256 tokenId;\n\n            for (tokenId = 1; tokenId <= totalTokens; tokenId++) {\n                if (_tokenOwner[tokenId] == tokenOwner) {\n                    result[resultIndex] = tokenId;\n                    resultIndex++;\n                }\n            }\n\n            return result;\n        }\n    }\n\n\n    /***  Transfers  ***/\n\n\n    /**\n     * @dev Approves another address to transfer the given token ID\n     * The zero address indicates there is no approved address.\n     * There can only be one approved address per token at a given time.\n     * Can only be called by the token owner or an approved operator.\n     * @param to address to be approved for the given token ID\n     * @param tokenId uint256 ID of the token to be approved\n     */\n    function approve(address to, uint256 tokenId)\n        public\n        onlyWhitelisted\n        whenNotPaused\n    {\n\n        address tokenOwner = ownerOf(tokenId);\n\n        require(\n            to != tokenOwner,\n            \"ERC721: approval is redundant\"\n        );\n\n        require(\n            _msgSender() == tokenOwner || isApprovedForAll(tokenOwner, _msgSender()),\n            \"ERC721: approve caller is not token owner nor approved for all\"\n        );\n\n        _tokenApprovals[tokenId] = to;\n        emit Approval(tokenOwner, to, tokenId);\n\n    }\n\n    /**\n     * @dev Gets the approved address for a token ID, or zero if no address set\n     * Reverts if the token ID does not exist.\n     * @param tokenId uint256 ID of the token to query the approval of\n     * @return address currently approved for the given token ID\n     */\n    function getApproved(uint256 tokenId) public view returns (address) {\n\n        require(\n            _exists(tokenId),\n            \"ERC721: approved query for nonexistent token\"\n        );\n\n        return _tokenApprovals[tokenId];\n\n    }\n\n    /**\n     * @dev Sets or unsets the approval of a given operator\n     * An operator is allowed to transfer all tokens of the sender on their behalf.\n     * @param to operator address to set the approval\n     * @param approved representing the status of the approval to be set\n     */\n    function setApprovalForAll(address to, bool approved)\n        public\n        onlyWhitelisted\n        whenNotPaused\n    {\n\n        require(to != _msgSender(), \"ERC721: approve to caller\");\n\n        _operatorApprovals[_msgSender()][to] = approved;\n        emit ApprovalForAll(_msgSender(), to, approved);\n\n    }\n\n    /**\n     * @dev Tells whether an operator is approved by a given token owner.\n     * @param tokenOwner token owner address which you want to query the approval of\n     * @param operator operator address which you want to query the approval of\n     * @return bool whether the given operator is approved by the token owner\n     */\n    function isApprovedForAll(address tokenOwner, address operator)\n        public\n        view\n        returns (bool)\n    {\n\n        return _operatorApprovals[tokenOwner][operator];\n\n    }\n\n    /**\n     * @dev Transfers the ownership of a given token ID to another address.\n     * Usage of this method is discouraged, use {safeTransferFrom} whenever possible.\n     * Requires the msg.sender to be the owner, approved, or operator.\n     * @param from current owner of the token\n     * @param to address to receive the ownership of the given token ID\n     * @param tokenId uint256 ID of the token to be transferred\n     */\n    function transferFrom(address from, address to, uint256 tokenId)\n        public\n        whenNotPaused\n    {\n\n        require(\n            _isApprovedOrOwner(_msgSender(), tokenId),\n            \"ERC721: transfer caller is not owner nor approved\"\n        );\n\n        require(\n            isWhitelisted(from),\n            \"ERC721: transfer restricted to whitelisted addresses\"\n        );\n\n        require(\n            isWhitelisted(to),\n            \"ERC721: transfer restricted to whitelisted addresses\"\n        );\n\n        _transferFrom(from, to, tokenId);\n\n    }\n\n    /**\n     * @dev Safely transfers the ownership of a given token ID to another address\n     * If the target address is a contract, it must implement {IERC721Receiver-onERC721Received},\n     * which is called upon a safe transfer, and return the magic value\n     * `bytes4(keccak256(\"onERC721Received(address,address,uint256,bytes)\"))`; otherwise,\n     * the transfer is reverted.\n     * Requires the msg.sender to be the owner, approved, or operator\n     * @param from current owner of the token\n     * @param to address to receive the ownership of the given token ID\n     * @param tokenId uint256 ID of the token to be transferred\n     */\n    function safeTransferFrom(address from, address to, uint256 tokenId) public {\n\n        safeTransferFrom(from, to, tokenId, \"\");\n\n    }\n\n    /**\n     * @dev Safely transfers the ownership of a given token ID to another address\n     * If the target address is a contract, it must implement {IERC721Receiver-onERC721Received},\n     * which is called upon a safe transfer, and return the magic value\n     * `bytes4(keccak256(\"onERC721Received(address,address,uint256,bytes)\"))`; otherwise,\n     * the transfer is reverted.\n     * Requires the _msgSender() to be the owner, approved, or operator\n     * @param from current owner of the token\n     * @param to address to receive the ownership of the given token ID\n     * @param tokenId uint256 ID of the token to be transferred\n     * @param data bytes data to send along with a safe transfer check\n     */\n    function safeTransferFrom(address from, address to, uint256 tokenId, bytes memory data)\n        public\n        whenNotPaused\n    {\n\n        require(\n            isWhitelisted(from),\n            \"ERC721: transfer restricted to whitelisted addresses\"\n        );\n\n        require(\n            isWhitelisted(to),\n            \"ERC721: transfer restricted to whitelisted addresses\"\n        );\n\n        require(\n            _isApprovedOrOwner(_msgSender(), tokenId),\n            \"ERC721: transfer caller is not owner nor approved\"\n        );\n\n        _safeTransferFrom(from, to, tokenId, data);\n\n    }\n\n    /**\n     * @dev Safely transfers the ownership of a given token ID to another address\n     * If the target address is a contract, it must implement `onERC721Received`,\n     * which is called upon a safe transfer, and return the magic value\n     * `bytes4(keccak256(\"onERC721Received(address,address,uint256,bytes)\"))`; otherwise,\n     * the transfer is reverted.\n     * Requires the msg.sender to be the owner, approved, or operator\n     * @param from current owner of the token\n     * @param to address to receive the ownership of the given token ID\n     * @param tokenId uint256 ID of the token to be transferred\n     * @param data bytes data to send along with a safe transfer check\n     */\n    function _safeTransferFrom(address from, address to, uint256 tokenId, bytes memory data)\n        internal\n    {\n\n        _transferFrom(from, to, tokenId);\n\n        require(\n            _checkOnERC721Received(from, to, tokenId, data),\n            \"ERC721: transfer to non ERC721Receiver implementer\"\n        );\n\n    }\n\n    /**\n     * @dev Returns whether the specified token exists.\n     * @param tokenId uint256 ID of the token to query the existence of\n     * @return bool whether the token exists\n     */\n    function _exists(uint256 tokenId) internal view returns (bool) {\n\n        address tokenOwner = _tokenOwner[tokenId];\n\n        return tokenOwner != address(0);\n\n    }\n\n    /**\n     * @dev Returns whether the given spender can transfer a given token ID.\n     * @param spender address of the spender to query\n     * @param tokenId uint256 ID of the token to be transferred\n     * @return bool whether the msg.sender is approved for the given token ID,\n     * is an operator of the owner, or is the owner of the token\n     */\n    function _isApprovedOrOwner(address spender, uint256 tokenId)\n        internal\n        view\n        returns (bool)\n    {\n\n        require(\n            _exists(tokenId),\n            \"ERC721: operator query for nonexistent token\"\n        );\n\n        address tokenOwner = ownerOf(tokenId);\n\n\n        return (spender == tokenOwner || getApproved(tokenId) == spender || isApprovedForAll(tokenOwner, spender));\n\n    }\n\n    /**\n     * @dev Internal function to transfer ownership of a given token ID to another address.\n     * As opposed to {transferFrom}, this imposes no restrictions on msg.sender.\n     * @param from current owner of the token\n     * @param to address to receive the ownership of the given token ID\n     * @param tokenId uint256 ID of the token to be transferred\n     */\n    function _transferFrom(address from, address to, uint256 tokenId) internal {\n\n        require(\n            ownerOf(tokenId) == from,\n            \"ERC721: transfer of token that is not own\"\n        );\n\n        require(\n            to != address(0),\n            \"ERC721: transfer to the zero address\"\n        );\n\n        _clearApproval(tokenId);\n\n        _ownedTokensCount[from].decrement();\n        _ownedTokensCount[to].increment();\n\n        _tokenOwner[tokenId] = to;\n\n        emit Transfer(from, to, tokenId);\n\n    }\n\n    /**\n     * @dev Internal function to invoke {IERC721Receiver-onERC721Received} on a target address.\n     * The call is not executed if the target address is not a contract.\n     *\n     * This function is deprecated.\n     * @param from address representing the previous owner of the given token ID\n     * @param to target address that will receive the tokens\n     * @param tokenId uint256 ID of the token to be transferred\n     * @param data bytes optional data to send along with the call\n     * @return bool whether the call correctly returned the expected magic value\n     */\n    function _checkOnERC721Received(address from, address to, uint256 tokenId, bytes memory data)\n        internal\n        returns (bool)\n    {\n\n        if (!to.isContract()) {\n            return true;\n        }\n\n        bytes4 retval = IERC721Receiver(to).onERC721Received(_msgSender(), from, tokenId, data);\n        return (retval == _ERC721_RECEIVED);\n\n    }\n\n    /**\n     * @dev Private function to clear current approval of a given token ID.\n     * @param tokenId uint256 ID of the token to be transferred\n     */\n    function _clearApproval(uint256 tokenId) private {\n\n        if (_tokenApprovals[tokenId] != address(0)) {\n            _tokenApprovals[tokenId] = address(0);\n        }\n\n    }\n\n\n    /***  Burn Tokens  ***/\n\n\n    // solhint-disable\n    /**\n     * Customized for Microsponsors\n     * https://github.com/OpenZeppelin/openzeppelin-contracts/blob/master/contracts/token/ERC721/ERC721Burnable.sol     * @dev Burns a specific ERC721 token.\n     * @param tokenId uint256 id of the ERC721 token to be burned.\n     */\n     // solhint-enable\n    function burn(uint256 tokenId) public whenNotPaused {\n\n        require(\n            _isApprovedOrOwner(_msgSender(), tokenId),\n            \"ERC721: caller is not token owner nor approved\"\n        );\n\n        _burn(tokenId);\n\n    }\n\n\n    /**\n     * @dev Internal function to burn a specific token.\n     * Reverts if the token does not exist.\n     * Deprecated, use {_burn} instead.\n     * @param tokenOwner owner of the token to burn\n     * @param tokenId uint256 ID of the token being burned\n     */\n    function _burn(address tokenOwner, uint256 tokenId) internal {\n\n        require(\n            ownerOf(tokenId) == tokenOwner,\n            \"ERC721: burn of token that is not own\"\n        );\n\n        _clearApproval(tokenId);\n\n        _ownedTokensCount[tokenOwner].decrement();\n        _tokenOwner[tokenId] = address(0);\n\n        // Clear token URIs (if any)\n        if (bytes(_tokenURIs[tokenId]).length != 0) {\n            delete _tokenURIs[tokenId];\n        }\n\n        // Clear time slot data\n        delete _tokenToTimeSlot[tokenId];\n\n        emit Transfer(tokenOwner, address(0), tokenId);\n\n    }\n\n    /**\n     * @dev Internal function to burn a specific token.\n     * Reverts if the token does not exist.\n     * @param tokenId uint256 ID of the token being burned\n     */\n    function _burn(uint256 tokenId) internal {\n\n        _burn(ownerOf(tokenId), tokenId);\n\n    }\n\n\n    /*** Pausable (adapted from OpenZeppelin via Cryptokitties) ***/\n\n\n    /// @dev Modifier to allow actions only when the contract IS NOT paused\n    modifier whenNotPaused() {\n        require(!paused);\n        _;\n    }\n\n    /// @dev Modifier to allow actions only when the contract IS paused\n    modifier whenPaused {\n        require(paused);\n        _;\n    }\n\n    /// @dev Called by contract owner to pause actions on this contract\n    function pause() external onlyOwner whenNotPaused {\n        paused = true;\n    }\n\n    /// @dev Called by contract owner to unpause the smart contract.\n    /// @notice This is public rather than external so it can be called by\n    ///  derived contracts.\n    function unpause() public onlyOwner whenPaused {\n        // can't unpause if contract was upgraded\n        paused = false;\n    }\n\n\n    /***  Helper fn  ***/\n\n    function stringsMatch (\n        string memory a,\n        string memory b\n    )\n        private\n        pure\n        returns (bool)\n    {\n        return (keccak256(abi.encodePacked((a))) == keccak256(abi.encodePacked((b))) );\n    }\n\n}\n",
  "sourcePath": "/Users/lauren/github/erc-721/contracts/ERC721.sol",
  "compiler": {
    "name": "solc",
    "version": "0.5.11+commit.c082d0b4.Emscripten.clang"
  },
  "schemaVersion": "3.0.10",
  "updatedAt": "2019-09-12T10:44:22.427Z",
  "devdoc": {
    "details": "see https://eips.ethereum.org/EIPS/eip-721",
    "methods": {
      "approve(address,uint256)": {
        "details": "Approves another address to transfer the given token ID The zero address indicates there is no approved address. There can only be one approved address per token at a given time. Can only be called by the token owner or an approved operator.",
        "params": {
          "to": "address to be approved for the given token ID",
          "tokenId": "uint256 ID of the token to be approved"
        }
      },
      "balanceOf(address)": {
        "details": "Gets the balance of the specified address.",
        "params": {
          "tokenOwner": "address to query the balance of"
        },
        "return": "uint256 representing the amount owned by the passed address"
      },
      "burn(uint256)": {
        "details": "Burns a specific ERC721 token.",
        "params": {
          "tokenId": "uint256 id of the ERC721 token to be burned."
        }
      },
      "getApproved(uint256)": {
        "details": "Gets the approved address for a token ID, or zero if no address set Reverts if the token ID does not exist.",
        "params": {
          "tokenId": "uint256 ID of the token to query the approval of"
        },
        "return": "address currently approved for the given token ID"
      },
      "isApprovedForAll(address,address)": {
        "details": "Tells whether an operator is approved by a given token owner.",
        "params": {
          "operator": "operator address which you want to query the approval of",
          "tokenOwner": "token owner address which you want to query the approval of"
        },
        "return": "bool whether the given operator is approved by the token owner"
      },
      "isMinter(address)": {
        "details": "Checks if minter isWhitelisted()"
      },
      "isWhitelisted(address)": {
        "details": "Checks Registry contract for whitelisted status",
        "params": {
          "target": "The address to check"
        }
      },
      "mint(address,string,bytes32,uint32,uint32,uint32)": {
        "details": "Function to mint tokens.",
        "params": {
          "to": "The address that will receive the minted token."
        },
        "return": "tokenId"
      },
      "mintWithTokenURI(address,string,bytes32,uint32,uint32,uint32,string)": {
        "details": "Function to mint tokens.",
        "params": {
          "to": "The address that will receive the minted tokens.",
          "tokenURI": "The token URI of the minted token."
        },
        "return": "tokenId"
      },
      "ownerOf(uint256)": {
        "details": "Gets the owner of the specified token ID.",
        "params": {
          "tokenId": "uint256 ID of the token to query the owner of"
        },
        "return": "address currently marked as the owner of the given token ID"
      },
      "pause()": {
        "details": "Called by contract owner to pause actions on this contract"
      },
      "safeMint(address,string,bytes32,uint32,uint32,uint32)": {
        "details": "Function to safely mint tokens.",
        "params": {
          "to": "The address that will receive the minted token."
        },
        "return": "tokenId"
      },
      "safeMint(address,string,bytes32,uint32,uint32,uint32,bytes)": {
        "details": "Function to safely mint tokens.",
        "params": {
          "data": "bytes data to send along with a safe transfer check.",
          "to": "The address that will receive the minted token."
        },
        "return": "tokenId"
      },
      "safeMintWithTokenURI(address,string,bytes32,uint32,uint32,uint32,string)": {
        "details": "Function to safely mint tokens.",
        "params": {
          "to": "The address that will receive the minted tokens.",
          "tokenURI": "The token URI of the minted token."
        },
        "return": "tokenId"
      },
      "safeTransferFrom(address,address,uint256)": {
        "details": "Safely transfers the ownership of a given token ID to another address If the target address is a contract, it must implement {IERC721Receiver-onERC721Received}, which is called upon a safe transfer, and return the magic value `bytes4(keccak256(\"onERC721Received(address,address,uint256,bytes)\"))`; otherwise, the transfer is reverted. Requires the msg.sender to be the owner, approved, or operator",
        "params": {
          "from": "current owner of the token",
          "to": "address to receive the ownership of the given token ID",
          "tokenId": "uint256 ID of the token to be transferred"
        }
      },
      "safeTransferFrom(address,address,uint256,bytes)": {
        "details": "Safely transfers the ownership of a given token ID to another address If the target address is a contract, it must implement {IERC721Receiver-onERC721Received}, which is called upon a safe transfer, and return the magic value `bytes4(keccak256(\"onERC721Received(address,address,uint256,bytes)\"))`; otherwise, the transfer is reverted. Requires the _msgSender() to be the owner, approved, or operator",
        "params": {
          "data": "bytes data to send along with a safe transfer check",
          "from": "current owner of the token",
          "to": "address to receive the ownership of the given token ID",
          "tokenId": "uint256 ID of the token to be transferred"
        }
      },
      "setApprovalForAll(address,bool)": {
        "details": "Sets or unsets the approval of a given operator An operator is allowed to transfer all tokens of the sender on their behalf.",
        "params": {
          "approved": "representing the status of the approval to be set",
          "to": "operator address to set the approval"
        }
      },
      "supportsInterface(bytes4)": {
        "details": "See {IERC165-supportsInterface}.     * Time complexity O(1), guaranteed to always use less than 30 000 gas."
      },
      "tokenMinterContentIds(address)": {
        "details": "Look up all Content IDs a Minter has tokenized TimeSlots on      We're not grabbing this from the Registry in case the user has private"
      },
      "tokenMinterPropertyNames(address,string)": {
        "details": "Look up all Property Names a Minter has tokenized on a content ID"
      },
      "tokenURI(uint256)": {
        "details": "Returns an URI for a given token ID. Throws if the token ID does not exist. May return an empty string.",
        "params": {
          "tokenId": "uint256 ID of the token to query"
        }
      },
      "tokensOfOwner(address)": {
        "details": "This method MUST NEVER be called by smart contract code. First, it's fairly expensive (it walks the entire _tokenIds array looking for tokens belonging to owner), but it also returns a dynamic array, which is only supported for web3 calls, and not contract-to-contract calls.",
        "params": {
          "tokenOwner": "The owner whose tokens we are interested in."
        }
      },
      "totalSupply()": {
        "details": "Gets the total number of tokens ever minted."
      },
      "transferFrom(address,address,uint256)": {
        "details": "Transfers the ownership of a given token ID to another address. Usage of this method is discouraged, use {safeTransferFrom} whenever possible. Requires the msg.sender to be the owner, approved, or operator.",
        "params": {
          "from": "current owner of the token",
          "to": "address to receive the ownership of the given token ID",
          "tokenId": "uint256 ID of the token to be transferred"
        }
      },
      "unpause()": {
        "details": "Called by contract owner to unpause the smart contract."
      },
      "updateRegistryAddress(address)": {
        "details": "Update address for Microsponsors Registry contract",
        "params": {
          "newAddress": "where the Registry contract lives"
        }
      }
    },
    "title": "ERC721 Non-Fungible Token Standard basic implementation"
  },
  "userdoc": {
    "methods": {
      "burn(uint256)": {
        "notice": "Customized for Microsponsors"
      },
      "mintWithTokenURI(address,string,bytes32,uint32,uint32,uint32,string)": {
        "notice": "Customized for Microsponsors from: https://github.com/OpenZeppelin/openzeppelin-contracts/blob/master/contracts/token/ERC721/ERC721MetadataMintable.sol"
      },
      "safeMintWithTokenURI(address,string,bytes32,uint32,uint32,uint32,string)": {
        "notice": "Customized for Microsponsors from https://github.com/OpenZeppelin/openzeppelin-contracts/blob/master/contracts/token/ERC721/ERC721MetadataMintable.sol"
      },
      "unpause()": {
        "notice": "This is public rather than external so it can be called by  derived contracts."
      }
    }
  }
}