{
  "contractName": "ERC721",
  "abi": [
    {
      "constant": true,
      "inputs": [
        {
          "internalType": "bytes4",
          "name": "interfaceId",
          "type": "bytes4"
        }
      ],
      "name": "supportsInterface",
      "outputs": [
        {
          "internalType": "bool",
          "name": "",
          "type": "bool"
        }
      ],
      "payable": false,
      "stateMutability": "view",
      "type": "function"
    },
    {
      "constant": true,
      "inputs": [],
      "name": "paused",
      "outputs": [
        {
          "internalType": "bool",
          "name": "",
          "type": "bool"
        }
      ],
      "payable": false,
      "stateMutability": "view",
      "type": "function"
    },
    {
      "constant": true,
      "inputs": [],
      "name": "registry",
      "outputs": [
        {
          "internalType": "contract DeployedRegistry",
          "name": "",
          "type": "address"
        }
      ],
      "payable": false,
      "stateMutability": "view",
      "type": "function"
    },
    {
      "constant": true,
      "inputs": [],
      "name": "owner",
      "outputs": [
        {
          "internalType": "address",
          "name": "",
          "type": "address"
        }
      ],
      "payable": false,
      "stateMutability": "view",
      "type": "function"
    },
    {
      "inputs": [],
      "payable": false,
      "stateMutability": "nonpayable",
      "type": "constructor"
    },
    {
      "anonymous": false,
      "inputs": [
        {
          "indexed": true,
          "internalType": "address",
          "name": "from",
          "type": "address"
        },
        {
          "indexed": true,
          "internalType": "address",
          "name": "to",
          "type": "address"
        },
        {
          "indexed": true,
          "internalType": "uint256",
          "name": "tokenId",
          "type": "uint256"
        }
      ],
      "name": "Transfer",
      "type": "event"
    },
    {
      "anonymous": false,
      "inputs": [
        {
          "indexed": true,
          "internalType": "address",
          "name": "tokenOwner",
          "type": "address"
        },
        {
          "indexed": true,
          "internalType": "address",
          "name": "approved",
          "type": "address"
        },
        {
          "indexed": true,
          "internalType": "uint256",
          "name": "tokenId",
          "type": "uint256"
        }
      ],
      "name": "Approval",
      "type": "event"
    },
    {
      "anonymous": false,
      "inputs": [
        {
          "indexed": true,
          "internalType": "address",
          "name": "tokenOwner",
          "type": "address"
        },
        {
          "indexed": true,
          "internalType": "address",
          "name": "operator",
          "type": "address"
        },
        {
          "indexed": false,
          "internalType": "bool",
          "name": "approved",
          "type": "bool"
        }
      ],
      "name": "ApprovalForAll",
      "type": "event"
    },
    {
      "constant": false,
      "inputs": [
        {
          "internalType": "address",
          "name": "newOwner",
          "type": "address"
        }
      ],
      "name": "transferOwnership",
      "outputs": [],
      "payable": false,
      "stateMutability": "nonpayable",
      "type": "function"
    },
    {
      "constant": false,
      "inputs": [
        {
          "internalType": "address",
          "name": "newAddress",
          "type": "address"
        }
      ],
      "name": "updateRegistryAddress",
      "outputs": [],
      "payable": false,
      "stateMutability": "nonpayable",
      "type": "function"
    },
    {
      "constant": true,
      "inputs": [
        {
          "internalType": "address",
          "name": "target",
          "type": "address"
        }
      ],
      "name": "isWhitelisted",
      "outputs": [
        {
          "internalType": "bool",
          "name": "",
          "type": "bool"
        }
      ],
      "payable": false,
      "stateMutability": "view",
      "type": "function"
    },
    {
      "constant": true,
      "inputs": [
        {
          "internalType": "address",
          "name": "account",
          "type": "address"
        }
      ],
      "name": "isMinter",
      "outputs": [
        {
          "internalType": "bool",
          "name": "",
          "type": "bool"
        }
      ],
      "payable": false,
      "stateMutability": "view",
      "type": "function"
    },
    {
      "constant": false,
      "inputs": [
        {
          "internalType": "address",
          "name": "to",
          "type": "address"
        }
      ],
      "name": "mint",
      "outputs": [
        {
          "internalType": "uint256",
          "name": "",
          "type": "uint256"
        }
      ],
      "payable": false,
      "stateMutability": "nonpayable",
      "type": "function"
    },
    {
      "constant": false,
      "inputs": [
        {
          "internalType": "address",
          "name": "to",
          "type": "address"
        },
        {
          "internalType": "string",
          "name": "tokenURI",
          "type": "string"
        }
      ],
      "name": "mintWithTokenURI",
      "outputs": [
        {
          "internalType": "uint256",
          "name": "",
          "type": "uint256"
        }
      ],
      "payable": false,
      "stateMutability": "nonpayable",
      "type": "function"
    },
    {
      "constant": false,
      "inputs": [
        {
          "internalType": "address",
          "name": "to",
          "type": "address"
        },
        {
          "internalType": "bytes",
          "name": "_data",
          "type": "bytes"
        }
      ],
      "name": "safeMint",
      "outputs": [
        {
          "internalType": "uint256",
          "name": "",
          "type": "uint256"
        }
      ],
      "payable": false,
      "stateMutability": "nonpayable",
      "type": "function"
    },
    {
      "constant": false,
      "inputs": [
        {
          "internalType": "address",
          "name": "to",
          "type": "address"
        }
      ],
      "name": "safeMint",
      "outputs": [
        {
          "internalType": "uint256",
          "name": "",
          "type": "uint256"
        }
      ],
      "payable": false,
      "stateMutability": "nonpayable",
      "type": "function"
    },
    {
      "constant": false,
      "inputs": [
        {
          "internalType": "address",
          "name": "to",
          "type": "address"
        },
        {
          "internalType": "string",
          "name": "tokenURI",
          "type": "string"
        }
      ],
      "name": "safeMintWithTokenURI",
      "outputs": [
        {
          "internalType": "uint256",
          "name": "",
          "type": "uint256"
        }
      ],
      "payable": false,
      "stateMutability": "nonpayable",
      "type": "function"
    },
    {
      "constant": true,
      "inputs": [
        {
          "internalType": "uint256",
          "name": "tokenId",
          "type": "uint256"
        }
      ],
      "name": "tokenURI",
      "outputs": [
        {
          "internalType": "string",
          "name": "",
          "type": "string"
        }
      ],
      "payable": false,
      "stateMutability": "view",
      "type": "function"
    },
    {
      "constant": true,
      "inputs": [],
      "name": "totalSupply",
      "outputs": [
        {
          "internalType": "uint256",
          "name": "",
          "type": "uint256"
        }
      ],
      "payable": false,
      "stateMutability": "view",
      "type": "function"
    },
    {
      "constant": true,
      "inputs": [
        {
          "internalType": "address",
          "name": "tokenOwner",
          "type": "address"
        }
      ],
      "name": "balanceOf",
      "outputs": [
        {
          "internalType": "uint256",
          "name": "",
          "type": "uint256"
        }
      ],
      "payable": false,
      "stateMutability": "view",
      "type": "function"
    },
    {
      "constant": true,
      "inputs": [
        {
          "internalType": "uint256",
          "name": "tokenId",
          "type": "uint256"
        }
      ],
      "name": "ownerOf",
      "outputs": [
        {
          "internalType": "address",
          "name": "",
          "type": "address"
        }
      ],
      "payable": false,
      "stateMutability": "view",
      "type": "function"
    },
    {
      "constant": true,
      "inputs": [
        {
          "internalType": "address",
          "name": "tokenOwner",
          "type": "address"
        }
      ],
      "name": "tokensOfOwner",
      "outputs": [
        {
          "internalType": "uint256[]",
          "name": "",
          "type": "uint256[]"
        }
      ],
      "payable": false,
      "stateMutability": "view",
      "type": "function"
    },
    {
      "constant": false,
      "inputs": [
        {
          "internalType": "address",
          "name": "to",
          "type": "address"
        },
        {
          "internalType": "uint256",
          "name": "tokenId",
          "type": "uint256"
        }
      ],
      "name": "approve",
      "outputs": [],
      "payable": false,
      "stateMutability": "nonpayable",
      "type": "function"
    },
    {
      "constant": true,
      "inputs": [
        {
          "internalType": "uint256",
          "name": "tokenId",
          "type": "uint256"
        }
      ],
      "name": "getApproved",
      "outputs": [
        {
          "internalType": "address",
          "name": "",
          "type": "address"
        }
      ],
      "payable": false,
      "stateMutability": "view",
      "type": "function"
    },
    {
      "constant": false,
      "inputs": [
        {
          "internalType": "address",
          "name": "to",
          "type": "address"
        },
        {
          "internalType": "bool",
          "name": "approved",
          "type": "bool"
        }
      ],
      "name": "setApprovalForAll",
      "outputs": [],
      "payable": false,
      "stateMutability": "nonpayable",
      "type": "function"
    },
    {
      "constant": true,
      "inputs": [
        {
          "internalType": "address",
          "name": "tokenOwner",
          "type": "address"
        },
        {
          "internalType": "address",
          "name": "operator",
          "type": "address"
        }
      ],
      "name": "isApprovedForAll",
      "outputs": [
        {
          "internalType": "bool",
          "name": "",
          "type": "bool"
        }
      ],
      "payable": false,
      "stateMutability": "view",
      "type": "function"
    },
    {
      "constant": false,
      "inputs": [
        {
          "internalType": "address",
          "name": "from",
          "type": "address"
        },
        {
          "internalType": "address",
          "name": "to",
          "type": "address"
        },
        {
          "internalType": "uint256",
          "name": "tokenId",
          "type": "uint256"
        }
      ],
      "name": "transferFrom",
      "outputs": [],
      "payable": false,
      "stateMutability": "nonpayable",
      "type": "function"
    },
    {
      "constant": false,
      "inputs": [
        {
          "internalType": "address",
          "name": "from",
          "type": "address"
        },
        {
          "internalType": "address",
          "name": "to",
          "type": "address"
        },
        {
          "internalType": "uint256",
          "name": "tokenId",
          "type": "uint256"
        },
        {
          "internalType": "bytes",
          "name": "_data",
          "type": "bytes"
        }
      ],
      "name": "safeTransferFrom",
      "outputs": [],
      "payable": false,
      "stateMutability": "nonpayable",
      "type": "function"
    },
    {
      "constant": false,
      "inputs": [
        {
          "internalType": "address",
          "name": "from",
          "type": "address"
        },
        {
          "internalType": "address",
          "name": "to",
          "type": "address"
        },
        {
          "internalType": "uint256",
          "name": "tokenId",
          "type": "uint256"
        }
      ],
      "name": "safeTransferFrom",
      "outputs": [],
      "payable": false,
      "stateMutability": "nonpayable",
      "type": "function"
    },
    {
      "constant": false,
      "inputs": [
        {
          "internalType": "uint256",
          "name": "tokenId",
          "type": "uint256"
        }
      ],
      "name": "burn",
      "outputs": [],
      "payable": false,
      "stateMutability": "nonpayable",
      "type": "function"
    },
    {
      "constant": false,
      "inputs": [],
      "name": "pause",
      "outputs": [],
      "payable": false,
      "stateMutability": "nonpayable",
      "type": "function"
    },
    {
      "constant": false,
      "inputs": [],
      "name": "unpause",
      "outputs": [],
      "payable": false,
      "stateMutability": "nonpayable",
      "type": "function"
    }
  ],
  "bytecode": "0x60806040526000600960006101000a81548160ff0219169083151502179055503480156200002c57600080fd5b50620000456301ffc9a760e01b620000b360201b60201c565b6200005d6380ac58cd60e01b620000b360201b60201c565b6200006d620001bc60201b60201c565b600160006101000a81548173ffffffffffffffffffffffffffffffffffffffff021916908373ffffffffffffffffffffffffffffffffffffffff160217905550620001c4565b63ffffffff60e01b817bffffffffffffffffffffffffffffffffffffffffffffffffffffffff1916141562000150576040517f08c379a000000000000000000000000000000000000000000000000000000000815260040180806020018281038252601c8152602001807f4552433136353a20696e76616c696420696e746572666163652069640000000081525060200191505060405180910390fd5b6001600080837bffffffffffffffffffffffffffffffffffffffffffffffffffffffff19167bffffffffffffffffffffffffffffffffffffffffffffffffffffffff1916815260200190815260200160002060006101000a81548160ff02191690831515021790555050565b600033905090565b61350680620001d46000396000f3fe608060405234801561001057600080fd5b50600436106101c45760003560e01c8063707d9e9a116100f9578063a22cb46511610097578063c57a882511610071578063c57a882514610bc5578063c87b56dd14610c09578063e985e9c514610cb0578063f2fde38b14610d2c576101c4565b8063a22cb46514610a14578063aa271e1a14610a64578063b88d4fde14610ac0576101c4565b80637b103999116100d35780637b103999146108dd5780638456cb59146109275780638462151c146109315780638da5cb5b146109ca576101c4565b8063707d9e9a146106a757806370a0823114610796578063785bb03e146107ee576101c4565b806340d097c31161016657806345c177821161014057806345c17782146104d05780635c975abb146105bf5780636352211e146105e15780636a6278421461064f576101c4565b806340d097c3146103dc57806342842e0e1461043457806342966c68146104a2576101c4565b806318160ddd116101a257806318160ddd146102ea57806323b872dd146103085780633af32abf146103765780633f4ba83a146103d2576101c4565b806301ffc9a7146101c9578063081812fc1461022e578063095ea7b31461029c575b600080fd5b610214600480360360208110156101df57600080fd5b8101908080357bffffffffffffffffffffffffffffffffffffffffffffffffffffffff19169060200190929190505050610d70565b604051808215151515815260200191505060405180910390f35b61025a6004803603602081101561024457600080fd5b8101908080359060200190929190505050610dd7565b604051808273ffffffffffffffffffffffffffffffffffffffff1673ffffffffffffffffffffffffffffffffffffffff16815260200191505060405180910390f35b6102e8600480360360408110156102b257600080fd5b81019080803573ffffffffffffffffffffffffffffffffffffffff16906020019092919080359060200190929190505050610e72565b005b6102f26110f5565b6040518082815260200191505060405180910390f35b6103746004803603606081101561031e57600080fd5b81019080803573ffffffffffffffffffffffffffffffffffffffff169060200190929190803573ffffffffffffffffffffffffffffffffffffffff16906020019092919080359060200190929190505050611106565b005b6103b86004803603602081101561038c57600080fd5b81019080803573ffffffffffffffffffffffffffffffffffffffff169060200190929190505050611252565b604051808215151515815260200191505060405180910390f35b6103da611335565b005b61041e600480360360208110156103f257600080fd5b81019080803573ffffffffffffffffffffffffffffffffffffffff169060200190929190505050611435565b6040518082815260200191505060405180910390f35b6104a06004803603606081101561044a57600080fd5b81019080803573ffffffffffffffffffffffffffffffffffffffff169060200190929190803573ffffffffffffffffffffffffffffffffffffffff169060200190929190803590602001909291905050506114cc565b005b6104ce600480360360208110156104b857600080fd5b81019080803590602001909291905050506114ec565b005b6105a9600480360360408110156104e657600080fd5b81019080803573ffffffffffffffffffffffffffffffffffffffff1690602001909291908035906020019064010000000081111561052357600080fd5b82018360208201111561053557600080fd5b8035906020019184600183028401116401000000008311171561055757600080fd5b91908080601f016020809104026020016040519081016040528093929190818152602001838380828437600081840152601f19601f820116905080830192505050505050509192919290505050611578565b6040518082815260200191505060405180910390f35b6105c761161a565b604051808215151515815260200191505060405180910390f35b61060d600480360360208110156105f757600080fd5b810190808035906020019092919050505061162d565b604051808273ffffffffffffffffffffffffffffffffffffffff1673ffffffffffffffffffffffffffffffffffffffff16815260200191505060405180910390f35b6106916004803603602081101561066557600080fd5b81019080803573ffffffffffffffffffffffffffffffffffffffff1690602001909291905050506116f5565b6040518082815260200191505060405180910390f35b610780600480360360408110156106bd57600080fd5b81019080803573ffffffffffffffffffffffffffffffffffffffff169060200190929190803590602001906401000000008111156106fa57600080fd5b82018360208201111561070c57600080fd5b8035906020019184600183028401116401000000008311171561072e57600080fd5b91908080601f016020809104026020016040519081016040528093929190818152602001838380828437600081840152601f19601f82011690508083019250505050505050919291929050505061178c565b6040518082815260200191505060405180910390f35b6107d8600480360360208110156107ac57600080fd5b81019080803573ffffffffffffffffffffffffffffffffffffffff16906020019092919050505061182e565b6040518082815260200191505060405180910390f35b6108c76004803603604081101561080457600080fd5b81019080803573ffffffffffffffffffffffffffffffffffffffff1690602001909291908035906020019064010000000081111561084157600080fd5b82018360208201111561085357600080fd5b8035906020019184600183028401116401000000008311171561087557600080fd5b91908080601f016020809104026020016040519081016040528093929190818152602001838380828437600081840152601f19601f820116905080830192505050505050509192919290505050611903565b6040518082815260200191505060405180910390f35b6108e561199c565b604051808273ffffffffffffffffffffffffffffffffffffffff1673ffffffffffffffffffffffffffffffffffffffff16815260200191505060405180910390f35b61092f6119c2565b005b6109736004803603602081101561094757600080fd5b81019080803573ffffffffffffffffffffffffffffffffffffffff169060200190929190505050611ac3565b6040518080602001828103825283818151815260200191508051906020019060200280838360005b838110156109b657808201518184015260208101905061099b565b505050509050019250505060405180910390f35b6109d2611c0b565b604051808273ffffffffffffffffffffffffffffffffffffffff1673ffffffffffffffffffffffffffffffffffffffff16815260200191505060405180910390f35b610a6260048036036040811015610a2a57600080fd5b81019080803573ffffffffffffffffffffffffffffffffffffffff169060200190929190803515159060200190929190505050611c31565b005b610aa660048036036020811015610a7a57600080fd5b81019080803573ffffffffffffffffffffffffffffffffffffffff169060200190929190505050611e68565b604051808215151515815260200191505060405180910390f35b610bc360048036036080811015610ad657600080fd5b81019080803573ffffffffffffffffffffffffffffffffffffffff169060200190929190803573ffffffffffffffffffffffffffffffffffffffff1690602001909291908035906020019092919080359060200190640100000000811115610b3d57600080fd5b820183602082011115610b4f57600080fd5b80359060200191846001830284011164010000000083111715610b7157600080fd5b91908080601f016020809104026020016040519081016040528093929190818152602001838380828437600081840152601f19601f820116905080830192505050505050509192919290505050611e7a565b005b610c0760048036036020811015610bdb57600080fd5b81019080803573ffffffffffffffffffffffffffffffffffffffff169060200190929190505050611fc8565b005b610c3560048036036020811015610c1f57600080fd5b81019080803590602001909291905050506120d6565b6040518080602001828103825283818151815260200191508051906020019080838360005b83811015610c75578082015181840152602081019050610c5a565b50505050905090810190601f168015610ca25780820380516001836020036101000a031916815260200191505b509250505060405180910390f35b610d1260048036036040811015610cc657600080fd5b81019080803573ffffffffffffffffffffffffffffffffffffffff169060200190929190803573ffffffffffffffffffffffffffffffffffffffff1690602001909291905050506121e9565b604051808215151515815260200191505060405180910390f35b610d6e60048036036020811015610d4257600080fd5b81019080803573ffffffffffffffffffffffffffffffffffffffff16906020019092919050505061227d565b005b6000806000837bffffffffffffffffffffffffffffffffffffffffffffffffffffffff19167bffffffffffffffffffffffffffffffffffffffffffffffffffffffff1916815260200190815260200160002060009054906101000a900460ff169050919050565b6000610de2826123c0565b610e37576040517f08c379a000000000000000000000000000000000000000000000000000000000815260040180806020018281038252602c81526020018061338d602c913960400191505060405180910390fd5b6005600083815260200190815260200160002060009054906101000a900473ffffffffffffffffffffffffffffffffffffffff169050919050565b610e82610e7d612432565b611252565b610ed7576040517f08c379a00000000000000000000000000000000000000000000000000000000081526004018080602001828103825260218152602001806134b16021913960400191505060405180910390fd5b600960009054906101000a900460ff1615610ef157600080fd5b6000610efc8261162d565b90508073ffffffffffffffffffffffffffffffffffffffff168373ffffffffffffffffffffffffffffffffffffffff161415610fa0576040517f08c379a000000000000000000000000000000000000000000000000000000000815260040180806020018281038252601d8152602001807f4552433732313a20617070726f76616c20697320726564756e64616e7400000081525060200191505060405180910390fd5b8073ffffffffffffffffffffffffffffffffffffffff16610fbf612432565b73ffffffffffffffffffffffffffffffffffffffff161480610fee5750610fed81610fe8612432565b6121e9565b5b611043576040517f08c379a000000000000000000000000000000000000000000000000000000000815260040180806020018281038252603e815260200180613320603e913960400191505060405180910390fd5b826005600084815260200190815260200160002060006101000a81548173ffffffffffffffffffffffffffffffffffffffff021916908373ffffffffffffffffffffffffffffffffffffffff160217905550818373ffffffffffffffffffffffffffffffffffffffff168273ffffffffffffffffffffffffffffffffffffffff167f8c5be1e5ebec7d5bd14f71427d1e84f3dd0314c0f7b2291e5b200ac8c7c3b92560405160405180910390a4505050565b6000611101600361243a565b905090565b600960009054906101000a900460ff161561112057600080fd5b61113161112b612432565b82612448565b611186576040517f08c379a00000000000000000000000000000000000000000000000000000000081526004018080602001828103825260318152602001806133e26031913960400191505060405180910390fd5b61118f83611252565b6111e4576040517f08c379a00000000000000000000000000000000000000000000000000000000081526004018080602001828103825260348152602001806132c26034913960400191505060405180910390fd5b6111ed82611252565b611242576040517f08c379a00000000000000000000000000000000000000000000000000000000081526004018080602001828103825260348152602001806132c26034913960400191505060405180910390fd5b61124d83838361253c565b505050565b6000600260009054906101000a900473ffffffffffffffffffffffffffffffffffffffff1673ffffffffffffffffffffffffffffffffffffffff16633af32abf836040518263ffffffff1660e01b8152600401808273ffffffffffffffffffffffffffffffffffffffff1673ffffffffffffffffffffffffffffffffffffffff16815260200191505060206040518083038186803b1580156112f357600080fd5b505afa158015611307573d6000803e3d6000fd5b505050506040513d602081101561131d57600080fd5b81019080805190602001909291905050509050919050565b600160009054906101000a900473ffffffffffffffffffffffffffffffffffffffff1673ffffffffffffffffffffffffffffffffffffffff16611376612432565b73ffffffffffffffffffffffffffffffffffffffff16146113ff576040517f08c379a000000000000000000000000000000000000000000000000000000000815260040180806020018281038252601b8152602001807f4552433732313a2063616c6c6572206973206e6f74206f776e6572000000000081525060200191505060405180910390fd5b600960009054906101000a900460ff1661141857600080fd5b6000600960006101000a81548160ff021916908315150217905550565b6000611447611442612432565b611e68565b61149c576040517f08c379a000000000000000000000000000000000000000000000000000000000815260040180806020018281038252603581526020018061323d6035913960400191505060405180910390fd5b600960009054906101000a900460ff16156114b657600080fd5b60006114c183612797565b905080915050919050565b6114e783838360405180602001604052806000815250611e7a565b505050565b600960009054906101000a900460ff161561150657600080fd5b611517611511612432565b82612448565b61156c576040517f08c379a000000000000000000000000000000000000000000000000000000000815260040180806020018281038252602e81526020018061345c602e913960400191505060405180910390fd5b611575816127be565b50565b600061158a611585612432565b611e68565b6115df576040517f08c379a000000000000000000000000000000000000000000000000000000000815260040180806020018281038252603581526020018061323d6035913960400191505060405180910390fd5b600960009054906101000a900460ff16156115f957600080fd5b6000611604846127d3565b9050611610818461298d565b8091505092915050565b600960009054906101000a900460ff1681565b6000806004600084815260200190815260200160002060009054906101000a900473ffffffffffffffffffffffffffffffffffffffff169050600073ffffffffffffffffffffffffffffffffffffffff168173ffffffffffffffffffffffffffffffffffffffff1614156116ec576040517f08c379a000000000000000000000000000000000000000000000000000000000815260040180806020018281038252602f81526020018061335e602f913960400191505060405180910390fd5b80915050919050565b6000611707611702612432565b611e68565b61175c576040517f08c379a000000000000000000000000000000000000000000000000000000000815260040180806020018281038252603581526020018061323d6035913960400191505060405180910390fd5b600960009054906101000a900460ff161561177657600080fd5b6000611781836127d3565b905080915050919050565b600061179e611799612432565b611e68565b6117f3576040517f08c379a000000000000000000000000000000000000000000000000000000000815260040180806020018281038252603581526020018061323d6035913960400191505060405180910390fd5b600960009054906101000a900460ff161561180d57600080fd5b600061181884612797565b9050611824818461298d565b8091505092915050565b60008073ffffffffffffffffffffffffffffffffffffffff168273ffffffffffffffffffffffffffffffffffffffff1614156118b5576040517f08c379a000000000000000000000000000000000000000000000000000000000815260040180806020018281038252602a8152602001806132f6602a913960400191505060405180910390fd5b6118fc600660008473ffffffffffffffffffffffffffffffffffffffff1673ffffffffffffffffffffffffffffffffffffffff16815260200190815260200160002061243a565b9050919050565b6000611915611910612432565b611e68565b61196a576040517f08c379a000000000000000000000000000000000000000000000000000000000815260040180806020018281038252603581526020018061323d6035913960400191505060405180910390fd5b600960009054906101000a900460ff161561198457600080fd5b60006119908484612a17565b90508091505092915050565b600260009054906101000a900473ffffffffffffffffffffffffffffffffffffffff1681565b600160009054906101000a900473ffffffffffffffffffffffffffffffffffffffff1673ffffffffffffffffffffffffffffffffffffffff16611a03612432565b73ffffffffffffffffffffffffffffffffffffffff1614611a8c576040517f08c379a000000000000000000000000000000000000000000000000000000000815260040180806020018281038252601b8152602001807f4552433732313a2063616c6c6572206973206e6f74206f776e6572000000000081525060200191505060405180910390fd5b600960009054906101000a900460ff1615611aa657600080fd5b6001600960006101000a81548160ff021916908315150217905550565b60606000611ad08361182e565b90506000811415611b14576000604051908082528060200260200182016040528015611b0b5781602001602082028038833980820191505090505b50915050611c06565b606081604051908082528060200260200182016040528015611b455781602001602082028038833980820191505090505b5090506000611b526110f5565b905060008090506000600190505b828111611bfd578673ffffffffffffffffffffffffffffffffffffffff166004600083815260200190815260200160002060009054906101000a900473ffffffffffffffffffffffffffffffffffffffff1673ffffffffffffffffffffffffffffffffffffffff161415611bf05780848381518110611bdb57fe5b60200260200101818152505081806001019250505b8080600101915050611b60565b83955050505050505b919050565b600160009054906101000a900473ffffffffffffffffffffffffffffffffffffffff1681565b611c41611c3c612432565b611252565b611c96576040517f08c379a00000000000000000000000000000000000000000000000000000000081526004018080602001828103825260218152602001806134b16021913960400191505060405180910390fd5b600960009054906101000a900460ff1615611cb057600080fd5b611cb8612432565b73ffffffffffffffffffffffffffffffffffffffff168273ffffffffffffffffffffffffffffffffffffffff161415611d59576040517f08c379a00000000000000000000000000000000000000000000000000000000081526004018080602001828103825260198152602001807f4552433732313a20617070726f766520746f2063616c6c65720000000000000081525060200191505060405180910390fd5b8060076000611d66612432565b73ffffffffffffffffffffffffffffffffffffffff1673ffffffffffffffffffffffffffffffffffffffff16815260200190815260200160002060008473ffffffffffffffffffffffffffffffffffffffff1673ffffffffffffffffffffffffffffffffffffffff16815260200190815260200160002060006101000a81548160ff0219169083151502179055508173ffffffffffffffffffffffffffffffffffffffff16611e13612432565b73ffffffffffffffffffffffffffffffffffffffff167f17307eab39ab6107e8899845ad3d59bd9653f200f220920489ca2b5937696c3183604051808215151515815260200191505060405180910390a35050565b6000611e7382611252565b9050919050565b600960009054906101000a900460ff1615611e9457600080fd5b611e9d84611252565b611ef2576040517f08c379a00000000000000000000000000000000000000000000000000000000081526004018080602001828103825260348152602001806132c26034913960400191505060405180910390fd5b611efb83611252565b611f50576040517f08c379a00000000000000000000000000000000000000000000000000000000081526004018080602001828103825260348152602001806132c26034913960400191505060405180910390fd5b611f61611f5b612432565b83612448565b611fb6576040517f08c379a00000000000000000000000000000000000000000000000000000000081526004018080602001828103825260318152602001806133e26031913960400191505060405180910390fd5b611fc284848484612a91565b50505050565b600160009054906101000a900473ffffffffffffffffffffffffffffffffffffffff1673ffffffffffffffffffffffffffffffffffffffff16612009612432565b73ffffffffffffffffffffffffffffffffffffffff1614612092576040517f08c379a000000000000000000000000000000000000000000000000000000000815260040180806020018281038252601b8152602001807f4552433732313a2063616c6c6572206973206e6f74206f776e6572000000000081525060200191505060405180910390fd5b80600260006101000a81548173ffffffffffffffffffffffffffffffffffffffff021916908373ffffffffffffffffffffffffffffffffffffffff16021790555050565b60606120e1826123c0565b612136576040517f08c379a000000000000000000000000000000000000000000000000000000000815260040180806020018281038252602781526020018061348a6027913960400191505060405180910390fd5b600860008381526020019081526020016000208054600181600116156101000203166002900480601f0160208091040260200160405190810160405280929190818152602001828054600181600116156101000203166002900480156121dd5780601f106121b2576101008083540402835291602001916121dd565b820191906000526020600020905b8154815290600101906020018083116121c057829003601f168201915b50505050509050919050565b6000600760008473ffffffffffffffffffffffffffffffffffffffff1673ffffffffffffffffffffffffffffffffffffffff16815260200190815260200160002060008373ffffffffffffffffffffffffffffffffffffffff1673ffffffffffffffffffffffffffffffffffffffff16815260200190815260200160002060009054906101000a900460ff16905092915050565b600160009054906101000a900473ffffffffffffffffffffffffffffffffffffffff1673ffffffffffffffffffffffffffffffffffffffff166122be612432565b73ffffffffffffffffffffffffffffffffffffffff1614612347576040517f08c379a000000000000000000000000000000000000000000000000000000000815260040180806020018281038252601b8152602001807f4552433732313a2063616c6c6572206973206e6f74206f776e6572000000000081525060200191505060405180910390fd5b600073ffffffffffffffffffffffffffffffffffffffff168173ffffffffffffffffffffffffffffffffffffffff16146123bd5780600160006101000a81548173ffffffffffffffffffffffffffffffffffffffff021916908373ffffffffffffffffffffffffffffffffffffffff1602179055505b50565b6000806004600084815260200190815260200160002060009054906101000a900473ffffffffffffffffffffffffffffffffffffffff169050600073ffffffffffffffffffffffffffffffffffffffff168173ffffffffffffffffffffffffffffffffffffffff161415915050919050565b600033905090565b600081600001549050919050565b6000612453826123c0565b6124a8576040517f08c379a000000000000000000000000000000000000000000000000000000000815260040180806020018281038252602c815260200180613296602c913960400191505060405180910390fd5b60006124b38361162d565b90508073ffffffffffffffffffffffffffffffffffffffff168473ffffffffffffffffffffffffffffffffffffffff16148061252257508373ffffffffffffffffffffffffffffffffffffffff1661250a84610dd7565b73ffffffffffffffffffffffffffffffffffffffff16145b80612533575061253281856121e9565b5b91505092915050565b8273ffffffffffffffffffffffffffffffffffffffff1661255c8261162d565b73ffffffffffffffffffffffffffffffffffffffff16146125c8576040517f08c379a00000000000000000000000000000000000000000000000000000000081526004018080602001828103825260298152602001806133b96029913960400191505060405180910390fd5b600073ffffffffffffffffffffffffffffffffffffffff168273ffffffffffffffffffffffffffffffffffffffff16141561264e576040517f08c379a00000000000000000000000000000000000000000000000000000000081526004018080602001828103825260248152602001806132726024913960400191505060405180910390fd5b61265781612b03565b61269e600660008573ffffffffffffffffffffffffffffffffffffffff1673ffffffffffffffffffffffffffffffffffffffff168152602001908152602001600020612bc1565b6126e5600660008473ffffffffffffffffffffffffffffffffffffffff1673ffffffffffffffffffffffffffffffffffffffff168152602001908152602001600020612be4565b816004600083815260200190815260200160002060006101000a81548173ffffffffffffffffffffffffffffffffffffffff021916908373ffffffffffffffffffffffffffffffffffffffff160217905550808273ffffffffffffffffffffffffffffffffffffffff168473ffffffffffffffffffffffffffffffffffffffff167fddf252ad1be2c89b69c2b068fc378daa952ba7f163c4a11628f55a4df523b3ef60405160405180910390a4505050565b6000806127b38360405180602001604052806000815250612a17565b905080915050919050565b6127d06127ca8261162d565b82612bfa565b50565b60008073ffffffffffffffffffffffffffffffffffffffff168273ffffffffffffffffffffffffffffffffffffffff161415612877576040517f08c379a00000000000000000000000000000000000000000000000000000000081526004018080602001828103825260208152602001807f4552433732313a206d696e7420746f20746865207a65726f206164647265737381525060200191505060405180910390fd5b6128816003612be4565b600061288d600361243a565b9050826004600083815260200190815260200160002060006101000a81548173ffffffffffffffffffffffffffffffffffffffff021916908373ffffffffffffffffffffffffffffffffffffffff160217905550612928600660008573ffffffffffffffffffffffffffffffffffffffff1673ffffffffffffffffffffffffffffffffffffffff168152602001908152602001600020612be4565b808373ffffffffffffffffffffffffffffffffffffffff16600073ffffffffffffffffffffffffffffffffffffffff167fddf252ad1be2c89b69c2b068fc378daa952ba7f163c4a11628f55a4df523b3ef60405160405180910390a480915050919050565b612996826123c0565b6129eb576040517f08c379a00000000000000000000000000000000000000000000000000000000081526004018080602001828103825260248152602001806134386024913960400191505060405180910390fd5b80600860008481526020019081526020016000209080519060200190612a1292919061311d565b505050565b600080612a23846127d3565b9050612a326000858386612dd8565b612a87576040517f08c379a000000000000000000000000000000000000000000000000000000000815260040180806020018281038252603281526020018061320b6032913960400191505060405180910390fd5b8091505092915050565b612a9c84848461253c565b612aa884848484612dd8565b612afd576040517f08c379a000000000000000000000000000000000000000000000000000000000815260040180806020018281038252603281526020018061320b6032913960400191505060405180910390fd5b50505050565b600073ffffffffffffffffffffffffffffffffffffffff166005600083815260200190815260200160002060009054906101000a900473ffffffffffffffffffffffffffffffffffffffff1673ffffffffffffffffffffffffffffffffffffffff1614612bbe5760006005600083815260200190815260200160002060006101000a81548173ffffffffffffffffffffffffffffffffffffffff021916908373ffffffffffffffffffffffffffffffffffffffff1602179055505b50565b612bd960018260000154612fc890919063ffffffff16565b816000018190555050565b6001816000016000828254019250508190555050565b8173ffffffffffffffffffffffffffffffffffffffff16612c1a8261162d565b73ffffffffffffffffffffffffffffffffffffffff1614612c86576040517f08c379a00000000000000000000000000000000000000000000000000000000081526004018080602001828103825260258152602001806134136025913960400191505060405180910390fd5b612c8f81612b03565b612cd6600660008473ffffffffffffffffffffffffffffffffffffffff1673ffffffffffffffffffffffffffffffffffffffff168152602001908152602001600020612bc1565b60006004600083815260200190815260200160002060006101000a81548173ffffffffffffffffffffffffffffffffffffffff021916908373ffffffffffffffffffffffffffffffffffffffff16021790555060006008600083815260200190815260200160002080546001816001161561010002031660029004905014612d7857600860008281526020019081526020016000206000612d77919061319d565b5b80600073ffffffffffffffffffffffffffffffffffffffff168373ffffffffffffffffffffffffffffffffffffffff167fddf252ad1be2c89b69c2b068fc378daa952ba7f163c4a11628f55a4df523b3ef60405160405180910390a45050565b6000612df98473ffffffffffffffffffffffffffffffffffffffff16613012565b612e065760019050612fc0565b60008473ffffffffffffffffffffffffffffffffffffffff1663150b7a02612e2c612432565b8887876040518563ffffffff1660e01b8152600401808573ffffffffffffffffffffffffffffffffffffffff1673ffffffffffffffffffffffffffffffffffffffff1681526020018473ffffffffffffffffffffffffffffffffffffffff1673ffffffffffffffffffffffffffffffffffffffff16815260200183815260200180602001828103825283818151815260200191508051906020019080838360005b83811015612ee8578082015181840152602081019050612ecd565b50505050905090810190601f168015612f155780820380516001836020036101000a031916815260200191505b5095505050505050602060405180830381600087803b158015612f3757600080fd5b505af1158015612f4b573d6000803e3d6000fd5b505050506040513d6020811015612f6157600080fd5b8101908080519060200190929190505050905063150b7a0260e01b7bffffffffffffffffffffffffffffffffffffffffffffffffffffffff1916817bffffffffffffffffffffffffffffffffffffffffffffffffffffffff1916149150505b949350505050565b600061300a83836040518060400160405280601e81526020017f536166654d6174683a207375627472616374696f6e206f766572666c6f77000081525061305d565b905092915050565b60008060007fc5d2460186f7233c927e7db2dcc703c0e500b653ca82273b7bfad8045d85a47060001b9050833f91506000801b82141580156130545750808214155b92505050919050565b600083831115829061310a576040517f08c379a00000000000000000000000000000000000000000000000000000000081526004018080602001828103825283818151815260200191508051906020019080838360005b838110156130cf5780820151818401526020810190506130b4565b50505050905090810190601f1680156130fc5780820380516001836020036101000a031916815260200191505b509250505060405180910390fd5b5060008385039050809150509392505050565b828054600181600116156101000203166002900490600052602060002090601f016020900481019282601f1061315e57805160ff191683800117855561318c565b8280016001018555821561318c579182015b8281111561318b578251825591602001919060010190613170565b5b50905061319991906131e5565b5090565b50805460018160011615610100020316600290046000825580601f106131c357506131e2565b601f0160209004906000526020600020908101906131e191906131e5565b5b50565b61320791905b808211156132035760008160009055506001016131eb565b5090565b9056fe4552433732313a207472616e7366657220746f206e6f6e20455243373231526563656976657220696d706c656d656e7465724552433732313a2063616c6c6572206973206e6f742077686974656c697374656420666f7220746865204d696e74657220726f6c654552433732313a207472616e7366657220746f20746865207a65726f20616464726573734552433732313a206f70657261746f7220717565727920666f72206e6f6e6578697374656e7420746f6b656e4552433732313a207472616e73666572207265737472696374656420746f2077686974656c6973746564206164647265737365734552433732313a2062616c616e636520717565727920666f7220746865207a65726f20616464726573734552433732313a20617070726f76652063616c6c6572206973206e6f7420746f6b656e206f776e6572206e6f7220617070726f76656420666f7220616c6c4552433732313a20746f6b656e206f776e657220717565727920666f72206e6f6e6578697374656e7420746f6b656e4552433732313a20617070726f76656420717565727920666f72206e6f6e6578697374656e7420746f6b656e4552433732313a207472616e73666572206f6620746f6b656e2074686174206973206e6f74206f776e4552433732313a207472616e736665722063616c6c6572206973206e6f74206f776e6572206e6f7220617070726f7665644552433732313a206275726e206f6620746f6b656e2074686174206973206e6f74206f776e4552433732313a2055524920736574206f66206e6f6e6578697374656e7420746f6b656e4552433732313a2063616c6c6572206973206e6f7420746f6b656e206f776e6572206e6f7220617070726f7665644552433732313a2055524920717565727920666f72206e6f6e6578697374656e7420746f6b656e4552433732313a2063616c6c6572206973206e6f742077686974656c6973746564a265627a7a7231582014de5ab74a59cdadcc34b618eba700a15dc5210e4740c2c9f44f17b7c50a8e2c64736f6c634300050b0032",
  "source": "pragma solidity ^0.5.11;\n\n\nimport \"./IERC721.sol\";\nimport \"./IERC721Receiver.sol\";\nimport \"./SafeMath.sol\";\nimport \"./Address.sol\";\nimport \"./Counters.sol\";\nimport \"./ERC165.sol\";\n\n\n// Copy of Deployed Registry contract ABI\n// We just use the signatures of the parts we need to interact with:\ncontract DeployedRegistry {\n    mapping (address => bool) public isWhitelisted;\n}\n\n\n/**\n * @title ERC721 Non-Fungible Token Standard basic implementation\n * @dev see https://eips.ethereum.org/EIPS/eip-721\n */\ncontract ERC721 is ERC165, IERC721 {\n    using SafeMath for uint256;\n    using Address for address;\n    using Counters for Counters.Counter;\n\n\n    /***  Contract data  ***/\n\n\n    // This contract's owner (administator)\n    address public owner;\n\n    // Microsponsors Registry (whitelist)\n    DeployedRegistry public registry;\n\n    // Equals to `bytes4(keccak256(\"onERC721Received(address,address,uint256,bytes)\"))`\n    // which can be also obtained as `IERC721Receiver(0).onERC721Received.selector`\n    bytes4 private constant _ERC721_RECEIVED = 0x150b7a02;\n\n    // All token ids minted, incremented from 0\n    Counters.Counter _tokenIds;\n\n    // Mapping from token ID to token owner\n    mapping (uint256 => address) private _tokenOwner;\n\n    // Mapping from token ID to approved address\n    mapping (uint256 => address) private _tokenApprovals;\n\n    // Mapping from token owner to number of owned token\n    mapping (address => Counters.Counter) private _ownedTokensCount;\n\n    // Mapping from token owner to operator approvals\n    mapping (address => mapping (address => bool)) private _operatorApprovals;\n\n    // Mapping for token URIs\n    mapping(uint256 => string) private _tokenURIs;\n\n    // Pause. When true, token minting and transfers stop.\n    bool public paused = false;\n\n    /*\n     *     bytes4(keccak256('balanceOf(address)')) == 0x70a08231\n     *     bytes4(keccak256('ownerOf(uint256)')) == 0x6352211e\n     *     bytes4(keccak256('approve(address,uint256)')) == 0x095ea7b3\n     *     bytes4(keccak256('getApproved(uint256)')) == 0x081812fc\n     *     bytes4(keccak256('setApprovalForAll(address,bool)')) == 0xa22cb465\n     *     bytes4(keccak256('isApprovedForAll(address,address)')) == 0xe985e9c5\n     *     bytes4(keccak256('transferFrom(address,address,uint256)')) == 0x23b872dd\n     *     bytes4(keccak256('safeTransferFrom(address,address,uint256)')) == 0x42842e0e\n     *     bytes4(keccak256('safeTransferFrom(address,address,uint256,bytes)')) == 0xb88d4fde\n     *\n     *     => 0x70a08231 ^ 0x6352211e ^ 0x095ea7b3 ^ 0x081812fc ^\n     *        0xa22cb465 ^ 0xe985e9c ^ 0x23b872dd ^ 0x42842e0e ^ 0xb88d4fde == 0x80ac58cd\n     */\n    bytes4 private constant _INTERFACE_ID_ERC721 = 0x80ac58cd;\n\n\n    constructor () public {\n\n        // register the supported interfaces to conform to ERC721 via ERC165\n        _registerInterface(_INTERFACE_ID_ERC721);\n\n        // set the contract owner\n        owner = _msgSender();\n    }\n\n\n    /*\n     * @dev Provides information about the current execution context, including the\n     * sender of the transaction and its data. While these are generally available\n     * via msg.sender and msg.data, they not should not be accessed in such a direct\n     * manner, since when dealing with GSN meta-transactions the account sending and\n     * paying for execution may not be the actual sender (as far as an application\n     * is concerned).\n     */\n\n    function _msgSender() internal view returns (address) {\n\n        return msg.sender;\n\n    }\n\n    function _msgData() internal view returns (bytes memory) {\n\n        this; // silence state mutability warning without generating bytecode -\n              // see https://github.com/ethereum/solidity/issues/2691\n        return msg.data;\n\n    }\n\n\n    /***  Owner (Administrator) functions  ***/\n\n\n    /*\n     * @dev Sets the contract's owner (administrator)\n     * Based on 0x's Ownable, but modified here\n     * import \"@0x/contracts-utils/contracts/src/Ownable.sol\";\n     */\n    modifier onlyOwner() {\n        require(\n            _msgSender() == owner,\n            \"ERC721: caller is not owner\"\n        );\n        _;\n    }\n\n    function transferOwnership(address newOwner)\n        public\n        onlyOwner\n    {\n        if (newOwner != address(0)) {\n            owner = newOwner;\n        }\n    }\n\n    /**\n     * @dev Update address for Microsponsors Registry contract\n     * @param newAddress where the Registry contract lives\n     */\n    function updateRegistryAddress(address newAddress)\n        public\n        onlyOwner\n    {\n        registry = DeployedRegistry(newAddress);\n    }\n\n\n    /***  User account permissions  ***/\n\n\n    /**\n     * @dev Checks Registry contract for whitelisted status\n     * @param target The address to check\n     */\n    function isWhitelisted(address target) public view returns (bool) {\n        return registry.isWhitelisted(target);\n    }\n\n    /**\n     * @dev Checks if caller isWhitelisted(),\n     * throws with error message and refunds gas if not\n     */\n    modifier onlyWhitelisted() {\n\n        require(\n            isWhitelisted(_msgSender()),\n            \"ERC721: caller is not whitelisted\"\n        );\n        _;\n\n    }\n\n    /**\n     * @dev Checks if minter isWhitelisted()\n     */\n    function isMinter(address account) public view returns (bool) {\n        return isWhitelisted(account);\n    }\n\n    /**\n     * @dev Checks if caller isMinter(),\n     * throws with error message and refunds gas if not\n     */\n    modifier onlyMinter() {\n\n        require(\n            isMinter(_msgSender()),\n            \"ERC721: caller is not whitelisted for the Minter role\"\n        );\n        _;\n\n    }\n\n\n    /***  Minting tokens  ***/\n\n\n    /**\n     * @dev Function to mint tokens.\n     * @param to The address that will receive the minted token.\n     * @return tokenId\n     */\n    function mint(address to)\n        public\n        onlyMinter\n        whenNotPaused\n        returns (uint256)\n    {\n\n        uint256 tokenId = _mint(to);\n        return tokenId;\n\n    }\n\n    // solhint-disable\n    /**\n     * Customized for Microsponsors from:\n     * https://github.com/OpenZeppelin/openzeppelin-contracts/blob/master/contracts/token/ERC721/ERC721MetadataMintable.sol\n     *\n     * @dev Function to mint tokens.\n     * @param to The address that will receive the minted tokens.\n     * @param tokenURI The token URI of the minted token.\n     * @return tokenId\n     */\n    // solhint-enable\n    function mintWithTokenURI(address to, string memory tokenURI)\n        public\n        onlyMinter\n        whenNotPaused\n        returns (uint256)\n    {\n\n        uint256 tokenId = _mint(to);\n        _setTokenURI(tokenId, tokenURI);\n\n        return tokenId;\n\n    }\n\n    /**\n     * @dev Function to safely mint tokens.\n     * @param to The address that will receive the minted token.\n     * @return tokenId\n     */\n    function safeMint(address to)\n        public\n        onlyMinter\n        whenNotPaused\n        returns (uint256)\n    {\n\n        uint256 tokenId = _safeMint(to);\n        return tokenId;\n\n    }\n\n    /**\n     * @dev Function to safely mint tokens.\n     * @param to The address that will receive the minted token.\n     * @param _data bytes data to send along with a safe transfer check.\n     * @return tokenId\n     */\n    function safeMint(address to, bytes memory _data)\n        public\n        onlyMinter\n        whenNotPaused\n        returns (uint256)\n    {\n\n        uint256 tokenId = _safeMint(to, _data);\n        return tokenId;\n\n    }\n\n    // solhint-disable\n    /**\n     * Customized for Microsponsors from\n     * https://github.com/OpenZeppelin/openzeppelin-contracts/blob/master/contracts/token/ERC721/ERC721MetadataMintable.sol\n     *\n     * @dev Function to safely mint tokens.\n     * @param to The address that will receive the minted tokens.\n     * @param tokenURI The token URI of the minted token.\n     * @return tokenId\n     */\n    // solhint-enable\n    function safeMintWithTokenURI(address to, string memory tokenURI)\n        public\n        onlyMinter\n        whenNotPaused\n        returns (uint256)\n    {\n\n        uint256 tokenId = _safeMint(to);\n        _setTokenURI(tokenId, tokenURI);\n\n        return tokenId;\n\n    }\n\n    /**\n     * @dev Internal function to safely mint a new token.\n     * Reverts if the given token ID already exists.\n     * If the target address is a contract, it must implement `onERC721Received`,\n     * which is called upon a safe transfer, and return the magic value\n     * `bytes4(keccak256(\"onERC721Received(address,address,uint256,bytes)\"))`; otherwise,\n     * the transfer is reverted.\n     * @param to The address that will own the minted token\n     * @return tokenId\n     */\n    function _safeMint(address to) internal returns (uint256) {\n\n        uint256 tokenId = _safeMint(to, \"\");\n        return tokenId;\n\n    }\n\n    /**\n     * @dev Internal function to safely mint a new token.\n     * Reverts if the given token ID already exists.\n     * If the target address is a contract, it must implement `onERC721Received`,\n     * which is called upon a safe transfer, and return the magic value\n     * `bytes4(keccak256(\"onERC721Received(address,address,uint256,bytes)\"))`; otherwise,\n     * the transfer is reverted.\n     * @param to The address that will own the minted token\n     * @param _data bytes data to send along with a safe transfer check\n     * @return tokenId\n     */\n    function _safeMint(address to, bytes memory _data) internal returns (uint256) {\n\n        uint256 tokenId = _mint(to);\n\n        require(\n            _checkOnERC721Received(address(0), to, tokenId, _data),\n            \"ERC721: transfer to non ERC721Receiver implementer\"\n        );\n\n        return tokenId;\n\n    }\n\n    /**\n     * @dev Internal function to mint a new token.\n     * Reverts if the given token ID already exists.\n     * @param to The address that will own the minted token\n     */\n    function _mint(address to) internal returns (uint256) {\n\n        require(to != address(0), \"ERC721: mint to the zero address\");\n\n        _tokenIds.increment();\n        uint256 tokenId = _tokenIds.current();\n\n        _tokenOwner[tokenId] = to;\n        _ownedTokensCount[to].increment();\n\n        emit Transfer(address(0), to, tokenId);\n\n        return tokenId;\n\n    }\n\n\n    /***  Token URIs  ***/\n\n\n    /**\n     * @dev Internal function to set the token URI for a given token.\n     * Reverts if the token ID does not exist.\n     * @param tokenId uint256 ID of the token to set its URI\n     * @param uri string URI to assign\n     */\n    function _setTokenURI(uint256 tokenId, string memory uri) internal {\n\n        require(\n            _exists(tokenId),\n            \"ERC721: URI set of nonexistent token\"\n        );\n\n        _tokenURIs[tokenId] = uri;\n\n    }\n\n    /**\n     * @dev Returns an URI for a given token ID.\n     * Throws if the token ID does not exist. May return an empty string.\n     * @param tokenId uint256 ID of the token to query\n     */\n    function tokenURI(uint256 tokenId) external view returns (string memory) {\n\n        require(\n            _exists(tokenId),\n            \"ERC721: URI query for nonexistent token\"\n        );\n\n        return _tokenURIs[tokenId];\n\n    }\n\n\n    /***  Token data queries  ***/\n\n\n    /**\n     * @dev Gets the total number of tokens ever minted.\n     */\n    function totalSupply() public view returns (uint256) {\n\n        return _tokenIds.current();\n\n    }\n\n    /**\n     * @dev Gets the balance of the specified address.\n     * @param tokenOwner address to query the balance of\n     * @return uint256 representing the amount owned by the passed address\n     */\n    function balanceOf(address tokenOwner) public view returns (uint256) {\n\n        require(\n            tokenOwner != address(0),\n            \"ERC721: balance query for the zero address\"\n        );\n\n        return _ownedTokensCount[tokenOwner].current();\n\n    }\n\n    /**\n     * @dev Gets the owner of the specified token ID.\n     * @param tokenId uint256 ID of the token to query the owner of\n     * @return address currently marked as the owner of the given token ID\n     */\n    function ownerOf(uint256 tokenId) public view returns (address) {\n\n        address tokenOwner = _tokenOwner[tokenId];\n        require(\n            tokenOwner != address(0),\n            \"ERC721: token owner query for nonexistent token\"\n        );\n\n        return tokenOwner;\n\n    }\n\n    /**\n     * @param tokenOwner The owner whose tokens we are interested in.\n     * @dev This method MUST NEVER be called by smart contract code. First, it's fairly\n     *  expensive (it walks the entire _tokenIds array looking for tokens belonging to owner),\n     *  but it also returns a dynamic array, which is only supported for web3 calls, and\n     *  not contract-to-contract calls.\n     * @return uint256 Returns a list of all token id's assigned to an address.\n    */\n    function tokensOfOwner(address tokenOwner) external view returns(uint256[] memory) {\n        uint256 tokenCount = balanceOf(tokenOwner);\n\n        if (tokenCount == 0) {\n            // Return an empty array\n            return new uint256[](0);\n        } else {\n            uint256[] memory result = new uint256[](tokenCount);\n            uint256 totalTokens = totalSupply();\n            uint256 resultIndex = 0;\n\n            // We count on the fact that all tokens have IDs starting at 1 and increase\n            // sequentially up to the total count.\n            uint256 tokenId;\n\n            for (tokenId = 1; tokenId <= totalTokens; tokenId++) {\n                if (_tokenOwner[tokenId] == tokenOwner) {\n                    result[resultIndex] = tokenId;\n                    resultIndex++;\n                }\n            }\n\n            return result;\n        }\n    }\n\n\n    /***  Transfers  ***/\n\n\n    /**\n     * @dev Approves another address to transfer the given token ID\n     * The zero address indicates there is no approved address.\n     * There can only be one approved address per token at a given time.\n     * Can only be called by the token owner or an approved operator.\n     * @param to address to be approved for the given token ID\n     * @param tokenId uint256 ID of the token to be approved\n     */\n    function approve(address to, uint256 tokenId)\n        public\n        onlyWhitelisted\n        whenNotPaused\n    {\n\n        address tokenOwner = ownerOf(tokenId);\n\n        require(\n            to != tokenOwner,\n            \"ERC721: approval is redundant\"\n        );\n\n        require(\n            _msgSender() == tokenOwner || isApprovedForAll(tokenOwner, _msgSender()),\n            \"ERC721: approve caller is not token owner nor approved for all\"\n        );\n\n        _tokenApprovals[tokenId] = to;\n        emit Approval(tokenOwner, to, tokenId);\n\n    }\n\n    /**\n     * @dev Gets the approved address for a token ID, or zero if no address set\n     * Reverts if the token ID does not exist.\n     * @param tokenId uint256 ID of the token to query the approval of\n     * @return address currently approved for the given token ID\n     */\n    function getApproved(uint256 tokenId) public view returns (address) {\n\n        require(\n            _exists(tokenId),\n            \"ERC721: approved query for nonexistent token\"\n        );\n\n        return _tokenApprovals[tokenId];\n\n    }\n\n    /**\n     * @dev Sets or unsets the approval of a given operator\n     * An operator is allowed to transfer all tokens of the sender on their behalf.\n     * @param to operator address to set the approval\n     * @param approved representing the status of the approval to be set\n     */\n    function setApprovalForAll(address to, bool approved)\n        public\n        onlyWhitelisted\n        whenNotPaused\n    {\n\n        require(to != _msgSender(), \"ERC721: approve to caller\");\n\n        _operatorApprovals[_msgSender()][to] = approved;\n        emit ApprovalForAll(_msgSender(), to, approved);\n\n    }\n\n    /**\n     * @dev Tells whether an operator is approved by a given token owner.\n     * @param tokenOwner token owner address which you want to query the approval of\n     * @param operator operator address which you want to query the approval of\n     * @return bool whether the given operator is approved by the token owner\n     */\n    function isApprovedForAll(address tokenOwner, address operator)\n        public\n        view\n        returns (bool)\n    {\n\n        return _operatorApprovals[tokenOwner][operator];\n\n    }\n\n    /**\n     * @dev Transfers the ownership of a given token ID to another address.\n     * Usage of this method is discouraged, use {safeTransferFrom} whenever possible.\n     * Requires the msg.sender to be the owner, approved, or operator.\n     * @param from current owner of the token\n     * @param to address to receive the ownership of the given token ID\n     * @param tokenId uint256 ID of the token to be transferred\n     */\n    function transferFrom(address from, address to, uint256 tokenId)\n        public\n        whenNotPaused\n    {\n\n        require(\n            _isApprovedOrOwner(_msgSender(), tokenId),\n            \"ERC721: transfer caller is not owner nor approved\"\n        );\n\n        require(\n            isWhitelisted(from),\n            \"ERC721: transfer restricted to whitelisted addresses\"\n        );\n\n        require(\n            isWhitelisted(to),\n            \"ERC721: transfer restricted to whitelisted addresses\"\n        );\n\n        _transferFrom(from, to, tokenId);\n\n    }\n\n    /**\n     * @dev Safely transfers the ownership of a given token ID to another address\n     * If the target address is a contract, it must implement {IERC721Receiver-onERC721Received},\n     * which is called upon a safe transfer, and return the magic value\n     * `bytes4(keccak256(\"onERC721Received(address,address,uint256,bytes)\"))`; otherwise,\n     * the transfer is reverted.\n     * Requires the msg.sender to be the owner, approved, or operator\n     * @param from current owner of the token\n     * @param to address to receive the ownership of the given token ID\n     * @param tokenId uint256 ID of the token to be transferred\n     */\n    function safeTransferFrom(address from, address to, uint256 tokenId) public {\n\n        safeTransferFrom(from, to, tokenId, \"\");\n\n    }\n\n    /**\n     * @dev Safely transfers the ownership of a given token ID to another address\n     * If the target address is a contract, it must implement {IERC721Receiver-onERC721Received},\n     * which is called upon a safe transfer, and return the magic value\n     * `bytes4(keccak256(\"onERC721Received(address,address,uint256,bytes)\"))`; otherwise,\n     * the transfer is reverted.\n     * Requires the _msgSender() to be the owner, approved, or operator\n     * @param from current owner of the token\n     * @param to address to receive the ownership of the given token ID\n     * @param tokenId uint256 ID of the token to be transferred\n     * @param _data bytes data to send along with a safe transfer check\n     */\n    function safeTransferFrom(address from, address to, uint256 tokenId, bytes memory _data)\n        public\n        whenNotPaused\n    {\n\n        require(\n            isWhitelisted(from),\n            \"ERC721: transfer restricted to whitelisted addresses\"\n        );\n\n        require(\n            isWhitelisted(to),\n            \"ERC721: transfer restricted to whitelisted addresses\"\n        );\n\n        require(\n            _isApprovedOrOwner(_msgSender(), tokenId),\n            \"ERC721: transfer caller is not owner nor approved\"\n        );\n\n        _safeTransferFrom(from, to, tokenId, _data);\n\n    }\n\n    /**\n     * @dev Safely transfers the ownership of a given token ID to another address\n     * If the target address is a contract, it must implement `onERC721Received`,\n     * which is called upon a safe transfer, and return the magic value\n     * `bytes4(keccak256(\"onERC721Received(address,address,uint256,bytes)\"))`; otherwise,\n     * the transfer is reverted.\n     * Requires the msg.sender to be the owner, approved, or operator\n     * @param from current owner of the token\n     * @param to address to receive the ownership of the given token ID\n     * @param tokenId uint256 ID of the token to be transferred\n     * @param _data bytes data to send along with a safe transfer check\n     */\n    function _safeTransferFrom(address from, address to, uint256 tokenId, bytes memory _data)\n        internal\n    {\n\n        _transferFrom(from, to, tokenId);\n\n        require(\n            _checkOnERC721Received(from, to, tokenId, _data),\n            \"ERC721: transfer to non ERC721Receiver implementer\"\n        );\n\n    }\n\n    /**\n     * @dev Returns whether the specified token exists.\n     * @param tokenId uint256 ID of the token to query the existence of\n     * @return bool whether the token exists\n     */\n    function _exists(uint256 tokenId) internal view returns (bool) {\n\n        address tokenOwner = _tokenOwner[tokenId];\n\n        return tokenOwner != address(0);\n\n    }\n\n    /**\n     * @dev Returns whether the given spender can transfer a given token ID.\n     * @param spender address of the spender to query\n     * @param tokenId uint256 ID of the token to be transferred\n     * @return bool whether the msg.sender is approved for the given token ID,\n     * is an operator of the owner, or is the owner of the token\n     */\n    function _isApprovedOrOwner(address spender, uint256 tokenId)\n        internal\n        view\n        returns (bool)\n    {\n\n        require(\n            _exists(tokenId),\n            \"ERC721: operator query for nonexistent token\"\n        );\n\n        address tokenOwner = ownerOf(tokenId);\n\n\n        return (spender == tokenOwner || getApproved(tokenId) == spender || isApprovedForAll(tokenOwner, spender));\n\n    }\n\n    /**\n     * @dev Internal function to transfer ownership of a given token ID to another address.\n     * As opposed to {transferFrom}, this imposes no restrictions on msg.sender.\n     * @param from current owner of the token\n     * @param to address to receive the ownership of the given token ID\n     * @param tokenId uint256 ID of the token to be transferred\n     */\n    function _transferFrom(address from, address to, uint256 tokenId) internal {\n\n        require(\n            ownerOf(tokenId) == from,\n            \"ERC721: transfer of token that is not own\"\n        );\n\n        require(\n            to != address(0),\n            \"ERC721: transfer to the zero address\"\n        );\n\n        _clearApproval(tokenId);\n\n        _ownedTokensCount[from].decrement();\n        _ownedTokensCount[to].increment();\n\n        _tokenOwner[tokenId] = to;\n\n        emit Transfer(from, to, tokenId);\n\n    }\n\n    /**\n     * @dev Internal function to invoke {IERC721Receiver-onERC721Received} on a target address.\n     * The call is not executed if the target address is not a contract.\n     *\n     * This function is deprecated.\n     * @param from address representing the previous owner of the given token ID\n     * @param to target address that will receive the tokens\n     * @param tokenId uint256 ID of the token to be transferred\n     * @param _data bytes optional data to send along with the call\n     * @return bool whether the call correctly returned the expected magic value\n     */\n    function _checkOnERC721Received(address from, address to, uint256 tokenId, bytes memory _data)\n        internal\n        returns (bool)\n    {\n\n        if (!to.isContract()) {\n            return true;\n        }\n\n        bytes4 retval = IERC721Receiver(to).onERC721Received(_msgSender(), from, tokenId, _data);\n        return (retval == _ERC721_RECEIVED);\n\n    }\n\n    /**\n     * @dev Private function to clear current approval of a given token ID.\n     * @param tokenId uint256 ID of the token to be transferred\n     */\n    function _clearApproval(uint256 tokenId) private {\n\n        if (_tokenApprovals[tokenId] != address(0)) {\n            _tokenApprovals[tokenId] = address(0);\n        }\n\n    }\n\n\n    /***  Burn Tokens  ***/\n\n\n    // solhint-disable\n    /**\n     * Customized for Microsponsors\n     * https://github.com/OpenZeppelin/openzeppelin-contracts/blob/master/contracts/token/ERC721/ERC721Burnable.sol     * @dev Burns a specific ERC721 token.\n     * @param tokenId uint256 id of the ERC721 token to be burned.\n     */\n     // solhint-enable\n    function burn(uint256 tokenId) public whenNotPaused {\n\n        require(\n            _isApprovedOrOwner(_msgSender(), tokenId),\n            \"ERC721: caller is not token owner nor approved\"\n        );\n\n        _burn(tokenId);\n\n    }\n\n\n    /**\n     * @dev Internal function to burn a specific token.\n     * Reverts if the token does not exist.\n     * Deprecated, use {_burn} instead.\n     * @param tokenOwner owner of the token to burn\n     * @param tokenId uint256 ID of the token being burned\n     */\n    function _burn(address tokenOwner, uint256 tokenId) internal {\n\n        require(\n            ownerOf(tokenId) == tokenOwner,\n            \"ERC721: burn of token that is not own\"\n        );\n\n        _clearApproval(tokenId);\n\n        _ownedTokensCount[tokenOwner].decrement();\n        _tokenOwner[tokenId] = address(0);\n\n        // Clear metadata (if any)\n        if (bytes(_tokenURIs[tokenId]).length != 0) {\n            delete _tokenURIs[tokenId];\n        }\n\n        emit Transfer(tokenOwner, address(0), tokenId);\n\n    }\n\n    /**\n     * @dev Internal function to burn a specific token.\n     * Reverts if the token does not exist.\n     * @param tokenId uint256 ID of the token being burned\n     */\n    function _burn(uint256 tokenId) internal {\n\n        _burn(ownerOf(tokenId), tokenId);\n\n    }\n\n\n    /*** Pausable (adapted from OpenZeppelin via Cryptokitties) ***/\n\n\n    /// @dev Modifier to allow actions only when the contract IS NOT paused\n    modifier whenNotPaused() {\n        require(!paused);\n        _;\n    }\n\n    /// @dev Modifier to allow actions only when the contract IS paused\n    modifier whenPaused {\n        require(paused);\n        _;\n    }\n\n    /// @dev Called by contract owner to pause actions on this contract\n    function pause() external onlyOwner whenNotPaused {\n        paused = true;\n    }\n\n    /// @dev Called by contract owner to unpause the smart contract.\n    /// @notice This is public rather than external so it can be called by\n    ///  derived contracts.\n    function unpause() public onlyOwner whenPaused {\n        // can't unpause if contract was upgraded\n        paused = false;\n    }\n\n}\n",
  "sourcePath": "/Users/lauren/github/erc-721/contracts/ERC721.sol",
  "compiler": {
    "name": "solc",
    "version": "0.5.11+commit.c082d0b4.Emscripten.clang"
  },
  "schemaVersion": "3.0.10",
  "updatedAt": "2019-09-11T00:29:48.749Z",
  "devdoc": {
    "details": "see https://eips.ethereum.org/EIPS/eip-721",
    "methods": {
      "approve(address,uint256)": {
        "details": "Approves another address to transfer the given token ID The zero address indicates there is no approved address. There can only be one approved address per token at a given time. Can only be called by the token owner or an approved operator.",
        "params": {
          "to": "address to be approved for the given token ID",
          "tokenId": "uint256 ID of the token to be approved"
        }
      },
      "balanceOf(address)": {
        "details": "Gets the balance of the specified address.",
        "params": {
          "tokenOwner": "address to query the balance of"
        },
        "return": "uint256 representing the amount owned by the passed address"
      },
      "burn(uint256)": {
        "details": "Burns a specific ERC721 token.",
        "params": {
          "tokenId": "uint256 id of the ERC721 token to be burned."
        }
      },
      "getApproved(uint256)": {
        "details": "Gets the approved address for a token ID, or zero if no address set Reverts if the token ID does not exist.",
        "params": {
          "tokenId": "uint256 ID of the token to query the approval of"
        },
        "return": "address currently approved for the given token ID"
      },
      "isApprovedForAll(address,address)": {
        "details": "Tells whether an operator is approved by a given token owner.",
        "params": {
          "operator": "operator address which you want to query the approval of",
          "tokenOwner": "token owner address which you want to query the approval of"
        },
        "return": "bool whether the given operator is approved by the token owner"
      },
      "isMinter(address)": {
        "details": "Checks if minter isWhitelisted()"
      },
      "isWhitelisted(address)": {
        "details": "Checks Registry contract for whitelisted status",
        "params": {
          "target": "The address to check"
        }
      },
      "mint(address)": {
        "details": "Function to mint tokens.",
        "params": {
          "to": "The address that will receive the minted token."
        },
        "return": "tokenId"
      },
      "mintWithTokenURI(address,string)": {
        "details": "Function to mint tokens.",
        "params": {
          "to": "The address that will receive the minted tokens.",
          "tokenURI": "The token URI of the minted token."
        },
        "return": "tokenId"
      },
      "ownerOf(uint256)": {
        "details": "Gets the owner of the specified token ID.",
        "params": {
          "tokenId": "uint256 ID of the token to query the owner of"
        },
        "return": "address currently marked as the owner of the given token ID"
      },
      "pause()": {
        "details": "Called by contract owner to pause actions on this contract"
      },
      "safeMint(address)": {
        "details": "Function to safely mint tokens.",
        "params": {
          "to": "The address that will receive the minted token."
        },
        "return": "tokenId"
      },
      "safeMint(address,bytes)": {
        "details": "Function to safely mint tokens.",
        "params": {
          "_data": "bytes data to send along with a safe transfer check.",
          "to": "The address that will receive the minted token."
        },
        "return": "tokenId"
      },
      "safeMintWithTokenURI(address,string)": {
        "details": "Function to safely mint tokens.",
        "params": {
          "to": "The address that will receive the minted tokens.",
          "tokenURI": "The token URI of the minted token."
        },
        "return": "tokenId"
      },
      "safeTransferFrom(address,address,uint256)": {
        "details": "Safely transfers the ownership of a given token ID to another address If the target address is a contract, it must implement {IERC721Receiver-onERC721Received}, which is called upon a safe transfer, and return the magic value `bytes4(keccak256(\"onERC721Received(address,address,uint256,bytes)\"))`; otherwise, the transfer is reverted. Requires the msg.sender to be the owner, approved, or operator",
        "params": {
          "from": "current owner of the token",
          "to": "address to receive the ownership of the given token ID",
          "tokenId": "uint256 ID of the token to be transferred"
        }
      },
      "safeTransferFrom(address,address,uint256,bytes)": {
        "details": "Safely transfers the ownership of a given token ID to another address If the target address is a contract, it must implement {IERC721Receiver-onERC721Received}, which is called upon a safe transfer, and return the magic value `bytes4(keccak256(\"onERC721Received(address,address,uint256,bytes)\"))`; otherwise, the transfer is reverted. Requires the _msgSender() to be the owner, approved, or operator",
        "params": {
          "_data": "bytes data to send along with a safe transfer check",
          "from": "current owner of the token",
          "to": "address to receive the ownership of the given token ID",
          "tokenId": "uint256 ID of the token to be transferred"
        }
      },
      "setApprovalForAll(address,bool)": {
        "details": "Sets or unsets the approval of a given operator An operator is allowed to transfer all tokens of the sender on their behalf.",
        "params": {
          "approved": "representing the status of the approval to be set",
          "to": "operator address to set the approval"
        }
      },
      "supportsInterface(bytes4)": {
        "details": "See {IERC165-supportsInterface}.     * Time complexity O(1), guaranteed to always use less than 30 000 gas."
      },
      "tokenURI(uint256)": {
        "details": "Returns an URI for a given token ID. Throws if the token ID does not exist. May return an empty string.",
        "params": {
          "tokenId": "uint256 ID of the token to query"
        }
      },
      "tokensOfOwner(address)": {
        "details": "This method MUST NEVER be called by smart contract code. First, it's fairly expensive (it walks the entire _tokenIds array looking for tokens belonging to owner), but it also returns a dynamic array, which is only supported for web3 calls, and not contract-to-contract calls.",
        "params": {
          "tokenOwner": "The owner whose tokens we are interested in."
        },
        "return": "uint256 Returns a list of all token id's assigned to an address."
      },
      "totalSupply()": {
        "details": "Gets the total number of tokens ever minted."
      },
      "transferFrom(address,address,uint256)": {
        "details": "Transfers the ownership of a given token ID to another address. Usage of this method is discouraged, use {safeTransferFrom} whenever possible. Requires the msg.sender to be the owner, approved, or operator.",
        "params": {
          "from": "current owner of the token",
          "to": "address to receive the ownership of the given token ID",
          "tokenId": "uint256 ID of the token to be transferred"
        }
      },
      "unpause()": {
        "details": "Called by contract owner to unpause the smart contract."
      },
      "updateRegistryAddress(address)": {
        "details": "Update address for Microsponsors Registry contract",
        "params": {
          "newAddress": "where the Registry contract lives"
        }
      }
    },
    "title": "ERC721 Non-Fungible Token Standard basic implementation"
  },
  "userdoc": {
    "methods": {
      "burn(uint256)": {
        "notice": "Customized for Microsponsors"
      },
      "mintWithTokenURI(address,string)": {
        "notice": "Customized for Microsponsors from: https://github.com/OpenZeppelin/openzeppelin-contracts/blob/master/contracts/token/ERC721/ERC721MetadataMintable.sol"
      },
      "safeMintWithTokenURI(address,string)": {
        "notice": "Customized for Microsponsors from https://github.com/OpenZeppelin/openzeppelin-contracts/blob/master/contracts/token/ERC721/ERC721MetadataMintable.sol"
      },
      "unpause()": {
        "notice": "This is public rather than external so it can be called by  derived contracts."
      }
    }
  }
}