{
  "contractName": "ERC721",
  "abi": [
    {
      "constant": true,
      "inputs": [
        {
          "internalType": "bytes4",
          "name": "interfaceId",
          "type": "bytes4"
        }
      ],
      "name": "supportsInterface",
      "outputs": [
        {
          "internalType": "bool",
          "name": "",
          "type": "bool"
        }
      ],
      "payable": false,
      "stateMutability": "view",
      "type": "function"
    },
    {
      "constant": true,
      "inputs": [],
      "name": "mintFee",
      "outputs": [
        {
          "internalType": "uint256",
          "name": "",
          "type": "uint256"
        }
      ],
      "payable": false,
      "stateMutability": "view",
      "type": "function"
    },
    {
      "constant": true,
      "inputs": [
        {
          "internalType": "uint256",
          "name": "",
          "type": "uint256"
        }
      ],
      "name": "tokenToFederationId",
      "outputs": [
        {
          "internalType": "uint32",
          "name": "",
          "type": "uint32"
        }
      ],
      "payable": false,
      "stateMutability": "view",
      "type": "function"
    },
    {
      "constant": true,
      "inputs": [],
      "name": "owner2",
      "outputs": [
        {
          "internalType": "address",
          "name": "",
          "type": "address"
        }
      ],
      "payable": false,
      "stateMutability": "view",
      "type": "function"
    },
    {
      "constant": true,
      "inputs": [],
      "name": "paused",
      "outputs": [
        {
          "internalType": "bool",
          "name": "",
          "type": "bool"
        }
      ],
      "payable": false,
      "stateMutability": "view",
      "type": "function"
    },
    {
      "constant": true,
      "inputs": [],
      "name": "owner1",
      "outputs": [
        {
          "internalType": "address",
          "name": "",
          "type": "address"
        }
      ],
      "payable": false,
      "stateMutability": "view",
      "type": "function"
    },
    {
      "constant": true,
      "inputs": [],
      "name": "registry",
      "outputs": [
        {
          "internalType": "contract DeployedRegistry",
          "name": "",
          "type": "address"
        }
      ],
      "payable": false,
      "stateMutability": "view",
      "type": "function"
    },
    {
      "inputs": [],
      "payable": false,
      "stateMutability": "nonpayable",
      "type": "constructor"
    },
    {
      "anonymous": false,
      "inputs": [
        {
          "indexed": true,
          "internalType": "address",
          "name": "from",
          "type": "address"
        },
        {
          "indexed": true,
          "internalType": "address",
          "name": "to",
          "type": "address"
        },
        {
          "indexed": true,
          "internalType": "uint256",
          "name": "tokenId",
          "type": "uint256"
        }
      ],
      "name": "Transfer",
      "type": "event"
    },
    {
      "anonymous": false,
      "inputs": [
        {
          "indexed": true,
          "internalType": "address",
          "name": "tokenOwner",
          "type": "address"
        },
        {
          "indexed": true,
          "internalType": "address",
          "name": "approved",
          "type": "address"
        },
        {
          "indexed": true,
          "internalType": "uint256",
          "name": "tokenId",
          "type": "uint256"
        }
      ],
      "name": "Approval",
      "type": "event"
    },
    {
      "anonymous": false,
      "inputs": [
        {
          "indexed": true,
          "internalType": "address",
          "name": "tokenOwner",
          "type": "address"
        },
        {
          "indexed": true,
          "internalType": "address",
          "name": "operator",
          "type": "address"
        },
        {
          "indexed": false,
          "internalType": "bool",
          "name": "approved",
          "type": "bool"
        }
      ],
      "name": "ApprovalForAll",
      "type": "event"
    },
    {
      "constant": false,
      "inputs": [
        {
          "internalType": "address",
          "name": "newOwner",
          "type": "address"
        }
      ],
      "name": "transferOwnership1",
      "outputs": [],
      "payable": false,
      "stateMutability": "nonpayable",
      "type": "function"
    },
    {
      "constant": false,
      "inputs": [
        {
          "internalType": "address",
          "name": "newOwner",
          "type": "address"
        }
      ],
      "name": "transferOwnership2",
      "outputs": [],
      "payable": false,
      "stateMutability": "nonpayable",
      "type": "function"
    },
    {
      "constant": false,
      "inputs": [
        {
          "internalType": "address",
          "name": "newAddress",
          "type": "address"
        }
      ],
      "name": "updateRegistryAddress",
      "outputs": [],
      "payable": false,
      "stateMutability": "nonpayable",
      "type": "function"
    },
    {
      "constant": false,
      "inputs": [
        {
          "internalType": "uint256",
          "name": "val",
          "type": "uint256"
        }
      ],
      "name": "updateMintFee",
      "outputs": [],
      "payable": false,
      "stateMutability": "nonpayable",
      "type": "function"
    },
    {
      "constant": false,
      "inputs": [],
      "name": "pause",
      "outputs": [],
      "payable": false,
      "stateMutability": "nonpayable",
      "type": "function"
    },
    {
      "constant": false,
      "inputs": [],
      "name": "unpause",
      "outputs": [],
      "payable": false,
      "stateMutability": "nonpayable",
      "type": "function"
    },
    {
      "constant": false,
      "inputs": [],
      "name": "withdrawBalance",
      "outputs": [],
      "payable": false,
      "stateMutability": "nonpayable",
      "type": "function"
    },
    {
      "constant": false,
      "inputs": [
        {
          "internalType": "string",
          "name": "contentId",
          "type": "string"
        },
        {
          "internalType": "string",
          "name": "propertyName",
          "type": "string"
        },
        {
          "internalType": "uint48",
          "name": "startTime",
          "type": "uint48"
        },
        {
          "internalType": "uint48",
          "name": "endTime",
          "type": "uint48"
        },
        {
          "internalType": "uint48",
          "name": "auctionEndTime",
          "type": "uint48"
        },
        {
          "internalType": "uint16",
          "name": "category",
          "type": "uint16"
        },
        {
          "internalType": "uint32",
          "name": "federationId",
          "type": "uint32"
        }
      ],
      "name": "mint",
      "outputs": [
        {
          "internalType": "uint256",
          "name": "",
          "type": "uint256"
        }
      ],
      "payable": true,
      "stateMutability": "payable",
      "type": "function"
    },
    {
      "constant": false,
      "inputs": [
        {
          "internalType": "string",
          "name": "contentId",
          "type": "string"
        },
        {
          "internalType": "string",
          "name": "propertyName",
          "type": "string"
        },
        {
          "internalType": "uint48",
          "name": "startTime",
          "type": "uint48"
        },
        {
          "internalType": "uint48",
          "name": "endTime",
          "type": "uint48"
        },
        {
          "internalType": "uint48",
          "name": "auctionEndTime",
          "type": "uint48"
        },
        {
          "internalType": "uint16",
          "name": "category",
          "type": "uint16"
        },
        {
          "internalType": "uint32",
          "name": "federationId",
          "type": "uint32"
        },
        {
          "internalType": "string",
          "name": "tokenURI",
          "type": "string"
        }
      ],
      "name": "mintWithTokenURI",
      "outputs": [
        {
          "internalType": "uint256",
          "name": "",
          "type": "uint256"
        }
      ],
      "payable": true,
      "stateMutability": "payable",
      "type": "function"
    },
    {
      "constant": false,
      "inputs": [
        {
          "internalType": "string",
          "name": "contentId",
          "type": "string"
        },
        {
          "internalType": "string",
          "name": "propertyName",
          "type": "string"
        },
        {
          "internalType": "uint48",
          "name": "startTime",
          "type": "uint48"
        },
        {
          "internalType": "uint48",
          "name": "endTime",
          "type": "uint48"
        },
        {
          "internalType": "uint48",
          "name": "auctionEndTime",
          "type": "uint48"
        },
        {
          "internalType": "uint16",
          "name": "category",
          "type": "uint16"
        },
        {
          "internalType": "uint32",
          "name": "federationId",
          "type": "uint32"
        }
      ],
      "name": "safeMint",
      "outputs": [
        {
          "internalType": "uint256",
          "name": "",
          "type": "uint256"
        }
      ],
      "payable": true,
      "stateMutability": "payable",
      "type": "function"
    },
    {
      "constant": false,
      "inputs": [
        {
          "internalType": "string",
          "name": "contentId",
          "type": "string"
        },
        {
          "internalType": "string",
          "name": "propertyName",
          "type": "string"
        },
        {
          "internalType": "uint48",
          "name": "startTime",
          "type": "uint48"
        },
        {
          "internalType": "uint48",
          "name": "endTime",
          "type": "uint48"
        },
        {
          "internalType": "uint48",
          "name": "auctionEndTime",
          "type": "uint48"
        },
        {
          "internalType": "uint16",
          "name": "category",
          "type": "uint16"
        },
        {
          "internalType": "uint32",
          "name": "federationId",
          "type": "uint32"
        },
        {
          "internalType": "bytes",
          "name": "data",
          "type": "bytes"
        }
      ],
      "name": "safeMint",
      "outputs": [
        {
          "internalType": "uint256",
          "name": "",
          "type": "uint256"
        }
      ],
      "payable": true,
      "stateMutability": "payable",
      "type": "function"
    },
    {
      "constant": false,
      "inputs": [
        {
          "internalType": "string",
          "name": "contentId",
          "type": "string"
        },
        {
          "internalType": "string",
          "name": "propertyName",
          "type": "string"
        },
        {
          "internalType": "uint48",
          "name": "startTime",
          "type": "uint48"
        },
        {
          "internalType": "uint48",
          "name": "endTime",
          "type": "uint48"
        },
        {
          "internalType": "uint48",
          "name": "auctionEndTime",
          "type": "uint48"
        },
        {
          "internalType": "uint16",
          "name": "category",
          "type": "uint16"
        },
        {
          "internalType": "uint32",
          "name": "federationId",
          "type": "uint32"
        },
        {
          "internalType": "string",
          "name": "tokenURI",
          "type": "string"
        }
      ],
      "name": "safeMintWithTokenURI",
      "outputs": [
        {
          "internalType": "uint256",
          "name": "",
          "type": "uint256"
        }
      ],
      "payable": true,
      "stateMutability": "payable",
      "type": "function"
    },
    {
      "constant": true,
      "inputs": [
        {
          "internalType": "uint256",
          "name": "tokenId",
          "type": "uint256"
        }
      ],
      "name": "tokenURI",
      "outputs": [
        {
          "internalType": "string",
          "name": "",
          "type": "string"
        }
      ],
      "payable": false,
      "stateMutability": "view",
      "type": "function"
    },
    {
      "constant": true,
      "inputs": [
        {
          "internalType": "uint256",
          "name": "tokenId",
          "type": "uint256"
        }
      ],
      "name": "tokenTimeSlot",
      "outputs": [
        {
          "internalType": "address",
          "name": "minter",
          "type": "address"
        },
        {
          "internalType": "address",
          "name": "owner",
          "type": "address"
        },
        {
          "internalType": "string",
          "name": "contentId",
          "type": "string"
        },
        {
          "internalType": "string",
          "name": "propertyName",
          "type": "string"
        },
        {
          "internalType": "uint48",
          "name": "startTime",
          "type": "uint48"
        },
        {
          "internalType": "uint48",
          "name": "endTime",
          "type": "uint48"
        },
        {
          "internalType": "uint48",
          "name": "auctionEndTime",
          "type": "uint48"
        },
        {
          "internalType": "uint16",
          "name": "category",
          "type": "uint16"
        },
        {
          "internalType": "uint32",
          "name": "federationId",
          "type": "uint32"
        }
      ],
      "payable": false,
      "stateMutability": "view",
      "type": "function"
    },
    {
      "constant": true,
      "inputs": [
        {
          "internalType": "address",
          "name": "minter",
          "type": "address"
        }
      ],
      "name": "tokenMinterContentIds",
      "outputs": [
        {
          "internalType": "string[]",
          "name": "",
          "type": "string[]"
        }
      ],
      "payable": false,
      "stateMutability": "view",
      "type": "function"
    },
    {
      "constant": true,
      "inputs": [
        {
          "internalType": "address",
          "name": "minter",
          "type": "address"
        },
        {
          "internalType": "string",
          "name": "contentId",
          "type": "string"
        }
      ],
      "name": "tokenMinterPropertyNames",
      "outputs": [
        {
          "internalType": "string[]",
          "name": "",
          "type": "string[]"
        }
      ],
      "payable": false,
      "stateMutability": "view",
      "type": "function"
    },
    {
      "constant": true,
      "inputs": [
        {
          "internalType": "address",
          "name": "minter",
          "type": "address"
        }
      ],
      "name": "tokensMintedBy",
      "outputs": [
        {
          "internalType": "uint256[]",
          "name": "",
          "type": "uint256[]"
        }
      ],
      "payable": false,
      "stateMutability": "view",
      "type": "function"
    },
    {
      "constant": true,
      "inputs": [],
      "name": "totalSupply",
      "outputs": [
        {
          "internalType": "uint256",
          "name": "",
          "type": "uint256"
        }
      ],
      "payable": false,
      "stateMutability": "view",
      "type": "function"
    },
    {
      "constant": true,
      "inputs": [
        {
          "internalType": "address",
          "name": "tokenOwner",
          "type": "address"
        }
      ],
      "name": "balanceOf",
      "outputs": [
        {
          "internalType": "uint256",
          "name": "",
          "type": "uint256"
        }
      ],
      "payable": false,
      "stateMutability": "view",
      "type": "function"
    },
    {
      "constant": true,
      "inputs": [
        {
          "internalType": "uint256",
          "name": "tokenId",
          "type": "uint256"
        }
      ],
      "name": "ownerOf",
      "outputs": [
        {
          "internalType": "address",
          "name": "",
          "type": "address"
        }
      ],
      "payable": false,
      "stateMutability": "view",
      "type": "function"
    },
    {
      "constant": true,
      "inputs": [
        {
          "internalType": "address",
          "name": "tokenOwner",
          "type": "address"
        }
      ],
      "name": "tokensOfOwner",
      "outputs": [
        {
          "internalType": "uint256[]",
          "name": "",
          "type": "uint256[]"
        }
      ],
      "payable": false,
      "stateMutability": "view",
      "type": "function"
    },
    {
      "constant": false,
      "inputs": [
        {
          "internalType": "address",
          "name": "to",
          "type": "address"
        },
        {
          "internalType": "uint256",
          "name": "tokenId",
          "type": "uint256"
        }
      ],
      "name": "approve",
      "outputs": [],
      "payable": false,
      "stateMutability": "nonpayable",
      "type": "function"
    },
    {
      "constant": true,
      "inputs": [
        {
          "internalType": "uint256",
          "name": "tokenId",
          "type": "uint256"
        }
      ],
      "name": "getApproved",
      "outputs": [
        {
          "internalType": "address",
          "name": "",
          "type": "address"
        }
      ],
      "payable": false,
      "stateMutability": "view",
      "type": "function"
    },
    {
      "constant": false,
      "inputs": [
        {
          "internalType": "address",
          "name": "to",
          "type": "address"
        },
        {
          "internalType": "bool",
          "name": "approved",
          "type": "bool"
        }
      ],
      "name": "setApprovalForAll",
      "outputs": [],
      "payable": false,
      "stateMutability": "nonpayable",
      "type": "function"
    },
    {
      "constant": true,
      "inputs": [
        {
          "internalType": "address",
          "name": "tokenOwner",
          "type": "address"
        },
        {
          "internalType": "address",
          "name": "operator",
          "type": "address"
        }
      ],
      "name": "isApprovedForAll",
      "outputs": [
        {
          "internalType": "bool",
          "name": "",
          "type": "bool"
        }
      ],
      "payable": false,
      "stateMutability": "view",
      "type": "function"
    },
    {
      "constant": false,
      "inputs": [
        {
          "internalType": "address",
          "name": "from",
          "type": "address"
        },
        {
          "internalType": "address",
          "name": "to",
          "type": "address"
        },
        {
          "internalType": "uint256",
          "name": "tokenId",
          "type": "uint256"
        }
      ],
      "name": "transferFrom",
      "outputs": [],
      "payable": false,
      "stateMutability": "nonpayable",
      "type": "function"
    },
    {
      "constant": false,
      "inputs": [
        {
          "internalType": "address",
          "name": "from",
          "type": "address"
        },
        {
          "internalType": "address",
          "name": "to",
          "type": "address"
        },
        {
          "internalType": "uint256",
          "name": "tokenId",
          "type": "uint256"
        },
        {
          "internalType": "bytes",
          "name": "data",
          "type": "bytes"
        }
      ],
      "name": "safeTransferFrom",
      "outputs": [],
      "payable": false,
      "stateMutability": "nonpayable",
      "type": "function"
    },
    {
      "constant": false,
      "inputs": [
        {
          "internalType": "address",
          "name": "from",
          "type": "address"
        },
        {
          "internalType": "address",
          "name": "to",
          "type": "address"
        },
        {
          "internalType": "uint256",
          "name": "tokenId",
          "type": "uint256"
        }
      ],
      "name": "safeTransferFrom",
      "outputs": [],
      "payable": false,
      "stateMutability": "nonpayable",
      "type": "function"
    },
    {
      "constant": false,
      "inputs": [
        {
          "internalType": "uint256",
          "name": "tokenId",
          "type": "uint256"
        }
      ],
      "name": "burn",
      "outputs": [],
      "payable": false,
      "stateMutability": "nonpayable",
      "type": "function"
    }
  ],
  "bytecode": "0x60806040526002805460ff60a01b19169055655af3107a40006003553480156200002857600080fd5b506200005d7f01ffc9a7000000000000000000000000000000000000000000000000000000006001600160e01b03620000f416565b620000917f80ac58cd000000000000000000000000000000000000000000000000000000006001600160e01b03620000f416565b620000a46001600160e01b036200019916565b600180546001600160a01b0319166001600160a01b0392909216919091179055620000ce62000199565b600280546001600160a01b0319166001600160a01b0392909216919091179055620001f9565b7fffffffff0000000000000000000000000000000000000000000000000000000080821614156200015c576040517f08c379a00000000000000000000000000000000000000000000000000000000081526004016200015390620001d8565b60405180910390fd5b7fffffffff00000000000000000000000000000000000000000000000000000000166000908152602081905260409020805460ff19166001179055565b3390565b6000620001ac601c83620001f0565b7f4552433136353a20696e76616c696420696e7465726661636520696400000000815260200192915050565b60208082528101620001ea816200019d565b92915050565b90815260200190565b613e6c80620002096000396000f3fe60806040526004361061020f5760003560e01c806363e1a83811610118578063a22cb465116100a0578063c87b56dd1161006f578063c87b56dd146105b6578063e2b375a9146105e3578063e5c2492414610603578063e982d5a914610638578063e985e9c5146106585761020f565b8063a22cb46514610536578063a4ede12814610556578063b88d4fde14610576578063c57a8825146105965761020f565b80637b103999116100e75780637b103999146104ac57806384017e52146104ce5780638456cb59146104ee5780638462151c146105035780639ce7dca3146105235761020f565b806363e1a8381461043757806370a082311461044a578063736889141461046a5780637affcb9a1461047f5761020f565b80633d8571871161019b57806344c140d01161016a57806344c140d0146103c557806352709725146103d85780635c975abb146103ed5780635fd8c710146104025780636352211e146104175761020f565b80633d8571871461035d5780633f4ba83a1461037057806342842e0e1461038557806342966c68146103a55761020f565b8063180b9e3f116101e2578063180b9e3f146102bb57806318160ddd146102e85780631c702981146102fd57806323b872dd146103105780632a0c7799146103305761020f565b806301ffc9a714610214578063081812fc1461024a578063095ea7b31461027757806313966db514610299575b600080fd5b34801561022057600080fd5b5061023461022f3660046131aa565b610678565b6040516102419190613b73565b60405180910390f35b34801561025657600080fd5b5061026a6102653660046133a8565b61069b565b6040516102419190613a29565b34801561028357600080fd5b5061029761029236600461315c565b6106e7565b005b3480156102a557600080fd5b506102ae610884565b6040516102419190613cd0565b3480156102c757600080fd5b506102db6102d63660046133a8565b61088a565b6040516102419190613cde565b3480156102f457600080fd5b506102ae6108a2565b6102ae61030b3660046131e6565b6108b4565b34801561031c57600080fd5b5061029761032b366004613010565b610a1f565b34801561033c57600080fd5b5061035061034b366004612fb8565b610b3b565b6040516102419190613b62565b6102ae61036b3660046132b1565b610c43565b34801561037c57600080fd5b50610297610db9565b34801561039157600080fd5b506102976103a0366004613010565b610e3d565b3480156103b157600080fd5b506102976103c03660046133a8565b610e5d565b6102ae6103d33660046132b1565b610f7d565b3480156103e457600080fd5b5061026a6110b9565b3480156103f957600080fd5b506102346110c8565b34801561040e57600080fd5b506102976110d8565b34801561042357600080fd5b5061026a6104323660046133a8565b6111b4565b6102ae6104453660046131e6565b6111cf565b34801561045657600080fd5b506102ae610465366004612fb8565b6112f4565b34801561047657600080fd5b5061026a611343565b34801561048b57600080fd5b5061049f61049a366004613106565b611352565b6040516102419190613b51565b3480156104b857600080fd5b506104c16114f2565b6040516102419190613b81565b3480156104da57600080fd5b506102976104e93660046133a8565b611501565b3480156104fa57600080fd5b50610297611565565b34801561050f57600080fd5b5061035061051e366004612fb8565b6115f0565b6102ae6105313660046132b1565b6116aa565b34801561054257600080fd5b506102976105513660046130d6565b6117cf565b34801561056257600080fd5b5061049f610571366004612fb8565b611955565b34801561058257600080fd5b5061029761059136600461305d565b611acb565b3480156105a257600080fd5b506102976105b1366004612fb8565b611be9565b3480156105c257600080fd5b506105d66105d13660046133a8565b611c6a565b6040516102419190613b8f565b3480156105ef57600080fd5b506102976105fe366004612fb8565b611d30565b34801561060f57600080fd5b5061062361061e3660046133a8565b611dbd565b60405161024199989796959493929190613a37565b34801561064457600080fd5b50610297610653366004612fb8565b612004565b34801561066457600080fd5b50610234610673366004612fd6565b612092565b6001600160e01b0319811660009081526020819052604090205460ff165b919050565b60006106a6826120c0565b6106cb5760405162461bcd60e51b81526004016106c290613c80565b60405180910390fd5b506000908152600e60205260409020546001600160a01b031690565b6004546001600160a01b0316634039ad0d6107006120dd565b6040518263ffffffff1660e01b815260040161071c9190613a29565b60206040518083038186803b15801561073457600080fd5b505afa158015610748573d6000803e3d6000fd5b505050506040513d601f19601f8201168201806040525061076c919081019061318c565b6107885760405162461bcd60e51b81526004016106c290613c90565b600254600160a01b900460ff161561079f57600080fd5b60006107aa826111b4565b9050806001600160a01b0316836001600160a01b031614156107de5760405162461bcd60e51b81526004016106c290613bf0565b806001600160a01b03166107f06120dd565b6001600160a01b0316148061080c575061080c816106736120dd565b6108285760405162461bcd60e51b81526004016106c290613cc0565b6000828152600e602052604080822080546001600160a01b0319166001600160a01b0387811691821790925591518593918516917f8c5be1e5ebec7d5bd14f71427d1e84f3dd0314c0f7b2291e5b200ac8c7c3b92591a4505050565b60035481565b60096020526000908152604090205463ffffffff1681565b60006108ae60056120e1565b90505b90565b6004546000906001600160a01b031663aa271e1a6108d06120dd565b6040518263ffffffff1660e01b81526004016108ec9190613a29565b60206040518083038186803b15801561090457600080fd5b505afa158015610918573d6000803e3d6000fd5b505050506040513d601f19601f8201168201806040525061093c919081019061318c565b6109585760405162461bcd60e51b81526004016106c290613ca0565b600254600160a01b900460ff161561096f57600080fd5b60035434101561097e57600080fd5b60008263ffffffff16116109a45760405162461bcd60e51b81526004016106c290613c30565b6109b0888787876120e5565b6109cc5760405162461bcd60e51b81526004016106c290613c70565b60006109de6109d96120dd565b6121ed565b90506109ef818a8a8a8a8a8a612210565b6000818152600960205260409020805463ffffffff851663ffffffff199091161790559050979650505050505050565b600254600160a01b900460ff1615610a3657600080fd5b610a47610a416120dd565b826124a6565b610a635760405162461bcd60e51b81526004016106c290613cb0565b6000818152600a60205260408120546001600160a01b031690610a85836111b4565b600480546040516354a58b9b60e11b81529293506001600160a01b03169163a94b173691610abd918991899189918991899101613acb565b60206040518083038186803b158015610ad557600080fd5b505afa158015610ae9573d6000803e3d6000fd5b505050506040513d601f19601f82011682018060405250610b0d919081019061318c565b610b295760405162461bcd60e51b81526004016106c290613cb0565b610b34858585612523565b5050505050565b60606001600160a01b038216610b635760405162461bcd60e51b81526004016106c290613bd0565b6001600160a01b0382166000908152600860205260408120610b84906120e1565b905080610ba65760408051600080825260208201909252905b50915050610696565b606081604051908082528060200260200182016040528015610bd2578160200160208202803883390190505b5090506000610bdf6108a2565b9050600060015b828111610c36576000818152600a60205260409020546001600160a01b0388811691161415610c2e5780848381518110610c1c57fe5b60209081029190910101526001909101905b600101610be6565b8395505050505050610696565b6004546000906001600160a01b031663aa271e1a610c5f6120dd565b6040518263ffffffff1660e01b8152600401610c7b9190613a29565b60206040518083038186803b158015610c9357600080fd5b505afa158015610ca7573d6000803e3d6000fd5b505050506040513d601f19601f82011682018060405250610ccb919081019061318c565b610ce75760405162461bcd60e51b81526004016106c290613ca0565b600254600160a01b900460ff1615610cfe57600080fd5b600354341015610d0d57600080fd5b60008363ffffffff1611610d335760405162461bcd60e51b81526004016106c290613c30565b610d3f898888886120e5565b610d5b5760405162461bcd60e51b81526004016106c290613c70565b6000610d6d610d686120dd565b612629565b9050610d7e818b8b8b8b8b8b612210565b610d888184612708565b6000818152600960205260409020805463ffffffff861663ffffffff19909116179055905098975050505050505050565b6001546001600160a01b0316610dcd6120dd565b6001600160a01b03161480610dfc57506002546001600160a01b0316610df16120dd565b6001600160a01b0316145b610e185760405162461bcd60e51b81526004016106c290613c40565b600254600160a01b900460ff16610e2e57600080fd5b6002805460ff60a01b19169055565b610e5883838360405180602001604052806000815250611acb565b505050565b600254600160a01b900460ff1615610e7457600080fd5b6000610e7f826111b4565b6000838152600a60205260409020549091506001600160a01b03908116908216811415610f47576004546001600160a01b031663aa271e1a610ebf6120dd565b6040518263ffffffff1660e01b8152600401610edb9190613a29565b60206040518083038186803b158015610ef357600080fd5b505afa158015610f07573d6000803e3d6000fd5b505050506040513d601f19601f82011682018060405250610f2b919081019061318c565b610f475760405162461bcd60e51b81526004016106c290613be0565b610f58610f526120dd565b846124a6565b610f745760405162461bcd60e51b81526004016106c290613be0565b610e588361274c565b6004546000906001600160a01b031663aa271e1a610f996120dd565b6040518263ffffffff1660e01b8152600401610fb59190613a29565b60206040518083038186803b158015610fcd57600080fd5b505afa158015610fe1573d6000803e3d6000fd5b505050506040513d601f19601f82011682018060405250611005919081019061318c565b6110215760405162461bcd60e51b81526004016106c290613ca0565b600254600160a01b900460ff161561103857600080fd5b60035434101561104757600080fd5b60008363ffffffff161161106d5760405162461bcd60e51b81526004016106c290613c30565b611079898888886120e5565b6110955760405162461bcd60e51b81526004016106c290613c70565b60006110a86110a26120dd565b8461275e565b9050610d88818b8b8b8b8b8b612210565b6002546001600160a01b031681565b600254600160a01b900460ff1681565b6001546001600160a01b03166110ec6120dd565b6001600160a01b0316148061111b57506002546001600160a01b03166111106120dd565b6001600160a01b0316145b6111375760405162461bcd60e51b81526004016106c290613c40565b6040513031906000903390839061114d90613a1e565b60006040518083038185875af1925050503d806000811461118a576040519150601f19603f3d011682016040523d82523d6000602084013e61118f565b606091505b50509050806111b05760405162461bcd60e51b81526004016106c290613c00565b5050565b6000908152600660205260409020546001600160a01b031690565b6004546000906001600160a01b031663aa271e1a6111eb6120dd565b6040518263ffffffff1660e01b81526004016112079190613a29565b60206040518083038186803b15801561121f57600080fd5b505afa158015611233573d6000803e3d6000fd5b505050506040513d601f19601f82011682018060405250611257919081019061318c565b6112735760405162461bcd60e51b81526004016106c290613ca0565b600254600160a01b900460ff161561128a57600080fd5b60035434101561129957600080fd5b60008263ffffffff16116112bf5760405162461bcd60e51b81526004016106c290613c30565b6112cb888787876120e5565b6112e75760405162461bcd60e51b81526004016106c290613c70565b60006109de610d686120dd565b60006001600160a01b03821661131c5760405162461bcd60e51b81526004016106c290613bd0565b6001600160a01b038216600090815260076020526040902061133d906120e1565b92915050565b6001546001600160a01b031681565b6001600160a01b0383166000908152600b602052604090819020905160609182916113809086908690613a05565b9081526020016040518091039020805480602002602001604051908101604052809291908181526020016000905b8282101561146557600084815260209081902060408051918501805460026001821615610100026000190190911604601f810185900485028401830183529383018481529293909284929091849184018282801561144d5780601f106114225761010080835404028352916020019161144d565b820191906000526020600020905b81548152906001019060200180831161143057829003601f168201915b505050505081525050815260200190600101906113ae565b505050509050606081516040519080825280602002602001820160405280156114a257816020015b606081526020019060019003908161148d5790505b50905060005b82518110156114e8578281815181106114bd57fe5b6020026020010151600001518282815181106114d557fe5b60209081029190910101526001016114a8565b5095945050505050565b6004546001600160a01b031681565b6001546001600160a01b03166115156120dd565b6001600160a01b0316148061154457506002546001600160a01b03166115396120dd565b6001600160a01b0316145b6115605760405162461bcd60e51b81526004016106c290613c40565b600355565b6001546001600160a01b03166115796120dd565b6001600160a01b031614806115a857506002546001600160a01b031661159d6120dd565b6001600160a01b0316145b6115c45760405162461bcd60e51b81526004016106c290613c40565b600254600160a01b900460ff16156115db57600080fd5b6002805460ff60a01b1916600160a01b179055565b606060006115fd836112f4565b90508061161a576040805160008082526020820190925290610b9d565b606081604051908082528060200260200182016040528015611646578160200160208202803883390190505b50905060006116536108a2565b9050600060015b828111610c36576000818152600660205260409020546001600160a01b03888116911614156116a2578084838151811061169057fe5b60209081029190910101526001909101905b60010161165a565b6004546000906001600160a01b031663aa271e1a6116c66120dd565b6040518263ffffffff1660e01b81526004016116e29190613a29565b60206040518083038186803b1580156116fa57600080fd5b505afa15801561170e573d6000803e3d6000fd5b505050506040513d601f19601f82011682018060405250611732919081019061318c565b61174e5760405162461bcd60e51b81526004016106c290613ca0565b600254600160a01b900460ff161561176557600080fd5b60035434101561177457600080fd5b60008363ffffffff161161179a5760405162461bcd60e51b81526004016106c290613c30565b6117a6898888886120e5565b6117c25760405162461bcd60e51b81526004016106c290613c70565b6000610d6d6109d96120dd565b6004546001600160a01b0316634039ad0d6117e86120dd565b6040518263ffffffff1660e01b81526004016118049190613a29565b60206040518083038186803b15801561181c57600080fd5b505afa158015611830573d6000803e3d6000fd5b505050506040513d601f19601f82011682018060405250611854919081019061318c565b6118705760405162461bcd60e51b81526004016106c290613c90565b600254600160a01b900460ff161561188757600080fd5b61188f6120dd565b6001600160a01b0316826001600160a01b031614156118c05760405162461bcd60e51b81526004016106c290613c20565b80600f60006118cd6120dd565b6001600160a01b03908116825260208083019390935260409182016000908120918716808252919093529120805460ff1916921515929092179091556119116120dd565b6001600160a01b03167f17307eab39ab6107e8899845ad3d59bd9653f200f220920489ca2b5937696c31836040516119499190613b73565b60405180910390a35050565b6001600160a01b0381166000908152600c602090815260408083208054825181850281018501909352808352606094859484015b82821015611a4057600084815260209081902060408051918501805460026001821615610100026000190190911604601f8101859004850284018301835293830184815292939092849290918491840182828015611a285780601f106119fd57610100808354040283529160200191611a28565b820191906000526020600020905b815481529060010190602001808311611a0b57829003601f168201915b50505050508152505081526020019060010190611989565b50505050905060608151604051908082528060200260200182016040528015611a7d57816020015b6060815260200190600190039081611a685790505b50905060005b8251811015611ac357828181518110611a9857fe5b602002602001015160000151828281518110611ab057fe5b6020908102919091010152600101611a83565b509392505050565b600254600160a01b900460ff1615611ae257600080fd5b611af3611aed6120dd565b836124a6565b611b0f5760405162461bcd60e51b81526004016106c290613cb0565b6000828152600a60205260408120546001600160a01b031690611b31846111b4565b600480546040516354a58b9b60e11b81529293506001600160a01b03169163a94b173691611b69918a918a918a918991899101613acb565b60206040518083038186803b158015611b8157600080fd5b505afa158015611b95573d6000803e3d6000fd5b505050506040513d601f19601f82011682018060405250611bb9919081019061318c565b611bd55760405162461bcd60e51b81526004016106c290613cb0565b611be186868686612795565b505050505050565b6001546001600160a01b0316611bfd6120dd565b6001600160a01b03161480611c2c57506002546001600160a01b0316611c216120dd565b6001600160a01b0316145b611c485760405162461bcd60e51b81526004016106c290613c40565b600480546001600160a01b0319166001600160a01b0392909216919091179055565b6060611c75826120c0565b611c915760405162461bcd60e51b81526004016106c290613c80565b6000828152600d602090815260409182902080548351601f600260001961010060018616150201909316929092049182018490048402810184019094528084529091830182828015611d245780601f10611cf957610100808354040283529160200191611d24565b820191906000526020600020905b815481529060010190602001808311611d0757829003601f168201915b50505050509050919050565b6001546001600160a01b0316611d446120dd565b6001600160a01b03161480611d7357506002546001600160a01b0316611d686120dd565b6001600160a01b0316145b611d8f5760405162461bcd60e51b81526004016106c290613c40565b6001600160a01b03811615611dba57600280546001600160a01b0319166001600160a01b0383161790555b50565b6000806060806000806000806000611dd48a6120c0565b611df05760405162461bcd60e51b81526004016106c290613c80565b611df8612da3565b60008b8152600a6020908152604091829020825160e08101845281546001600160a01b03168152600180830180548651600261010094831615949094026000190190911692909204601f8101869004860283018601909652858252919492938581019391929190830182828015611eb05780601f10611e8557610100808354040283529160200191611eb0565b820191906000526020600020905b815481529060010190602001808311611e9357829003601f168201915b5050509183525050600282810180546040805160206001841615610100026000190190931694909404601f81018390048302850183019091528084529381019390830182828015611f425780601f10611f1757610100808354040283529160200191611f42565b820191906000526020600020905b815481529060010190602001808311611f2557829003601f168201915b50505091835250506003919091015465ffffffffffff808216602080850191909152660100000000000083048216604080860191909152600160601b84049092166060850152600160901b90920461ffff1660809093019290925260008e815260099091522054815191925063ffffffff1690611fbe8d6111b4565b83602001518460400151856060015186608001518760a001518860c00151888696508595509a509a509a509a509a509a509a509a509a5050509193959799909294969850565b6001546001600160a01b03166120186120dd565b6001600160a01b0316148061204757506002546001600160a01b031661203c6120dd565b6001600160a01b0316145b6120635760405162461bcd60e51b81526004016106c290613c40565b6001600160a01b03811615611dba57600180546001600160a01b0383166001600160a01b031990911617905550565b6001600160a01b039182166000908152600f6020908152604080832093909416825291909152205460ff1690565b6000908152600660205260409020546001600160a01b0316151590565b3390565b5490565b600480546040516323dd3a3d60e11b81526000926001600160a01b03909216916347ba747a9161211791899101613b8f565b60206040518083038186803b15801561212f57600080fd5b505afa158015612143573d6000803e3d6000fd5b505050506040513d601f19601f82011682018060405250612167919081019061318c565b6121835760405162461bcd60e51b81526004016106c290613c10565b8165ffffffffffff168465ffffffffffff16116121b25760405162461bcd60e51b81526004016106c290613c50565b8365ffffffffffff168365ffffffffffff16116121e15760405162461bcd60e51b81526004016106c290613c60565b5060015b949350505050565b600080612209836040518060200160405280600081525061275e565b9392505050565b612219876120c0565b6122355760405162461bcd60e51b81526004016106c290613c80565b61223d612da3565b6040518060e001604052806122506120dd565b6001600160a01b03908116825260208083018b905260408084018b905265ffffffffffff8a811660608601528981166080860152881660a085015261ffff871660c09094019390935260008c8152600a825292909220835181546001600160a01b0319169216919091178155828201518051939450849391926122db92600185019290910190612de0565b50604082015180516122f7916002840191602090910190612de0565b50606082015160039091018054608084015160a085015160c09095015161ffff16600160901b0273ffff0000000000000000000000000000000000001965ffffffffffff968716600160601b0271ffffffffffff000000000000000000000000199388166601000000000000026bffffffffffff000000000000199890971665ffffffffffff1990951694909417969096169490941716179290921617905561239f876127ce565b61240857600c60006123af6120dd565b6001600160a01b031681526020808201929092526040908101600090812082518085019093528a83528054600181018083559183529184902083518051929591909301926124039284929190910190612de0565b505050505b61241287876128f9565b61249c57600b60006124226120dd565b6001600160a01b03166001600160a01b03168152602001908152602001600020876040516124509190613a12565b908152604080519182900360209081018320838201909252888352815460018101808455600093845292829020845180519495949190920192612497928492910190612de0565b505050505b5050505050505050565b60006124b1826120c0565b6124cd5760405162461bcd60e51b81526004016106c290613c80565b60006124d8836111b4565b9050806001600160a01b0316846001600160a01b031614806125135750836001600160a01b03166125088461069b565b6001600160a01b0316145b806121e557506121e58185612092565b826001600160a01b0316612536826111b4565b6001600160a01b03161461255c5760405162461bcd60e51b81526004016106c290613cb0565b6001600160a01b0382166125825760405162461bcd60e51b81526004016106c290613bc0565b61258b81612a40565b6001600160a01b03831660009081526007602052604090206125ac90612a7b565b6001600160a01b03821660009081526007602052604090206125cd90612a92565b60008181526006602052604080822080546001600160a01b0319166001600160a01b0386811691821790925591518493918716917fddf252ad1be2c89b69c2b068fc378daa952ba7f163c4a11628f55a4df523b3ef91a4505050565b60006001600160a01b0382166126515760405162461bcd60e51b81526004016106c290613ba0565b61265b6005612a92565b600061266760056120e1565b600081815260066020908152604080832080546001600160a01b0319166001600160a01b0389169081179091558352600790915290209091506126a990612a92565b6001600160a01b03831660009081526008602052604090206126ca90612a92565b60405181906001600160a01b038516906000907fddf252ad1be2c89b69c2b068fc378daa952ba7f163c4a11628f55a4df523b3ef908290a492915050565b612711826120c0565b61272d5760405162461bcd60e51b81526004016106c290613c80565b6000828152600d602090815260409091208251610e5892840190612de0565b611dba612758826111b4565b82612a9b565b60008061276a84612629565b90506127796000858386612bda565b6122095760405162461bcd60e51b81526004016106c290613bb0565b6127a0848484612523565b6127ac84848484612bda565b6127c85760405162461bcd60e51b81526004016106c290613bb0565b50505050565b336000908152600c602090815260408083208054825181850281018501909352808352606093859084015b828210156128b057600084815260209081902060408051918501805460026001821615610100026000190190911604601f81018590048502840183018352938301848152929390928492909184918401828280156128985780601f1061286d57610100808354040283529160200191612898565b820191906000526020600020905b81548152906001019060200180831161287b57829003601f168201915b505050505081525050815260200190600101906127f9565b5092935060009250829150505b8251811015611ac3576128e7858483815181106128d657fe5b602002602001015160000151612ca5565b156128f157600191505b6001016128bd565b336000908152600b602052604080822090516060919061291a908690613a12565b9081526020016040518091039020805480602002602001604051908101604052809291908181526020016000905b828210156129ff57600084815260209081902060408051918501805460026001821615610100026000190190911604601f81018590048502840183018352938301848152929390928492909184918401828280156129e75780601f106129bc576101008083540402835291602001916129e7565b820191906000526020600020905b8154815290600101906020018083116129ca57829003601f168201915b50505050508152505081526020019060010190612948565b5092935060009250829150505b8251811015612a3757612a25858483815181106128d657fe5b15612a2f57600191505b600101612a0c565b50949350505050565b6000818152600e60205260409020546001600160a01b031615611dba576000908152600e6020526040902080546001600160a01b0319169055565b8054612a8e90600163ffffffff612cfe16565b9055565b80546001019055565b816001600160a01b0316612aae826111b4565b6001600160a01b031614612ad45760405162461bcd60e51b81526004016106c290613be0565b612add81612a40565b6001600160a01b0382166000908152600760205260409020612afe90612a7b565b600081815260066020908152604080832080546001600160a01b0319169055600d9091529020546002600019600183161561010002019091160415612b54576000818152600d60205260408120612b5491612e5e565b6000818152600a6020526040812080546001600160a01b031916815590612b7e6001830182612e5e565b612b8c600283016000612e5e565b5060030180546001600160a01b031916905560405181906000906001600160a01b038516907fddf252ad1be2c89b69c2b068fc378daa952ba7f163c4a11628f55a4df523b3ef908390a45050565b6000612bee846001600160a01b0316612d40565b612bfa575060016121e5565b6000846001600160a01b031663150b7a02612c136120dd565b8887876040518563ffffffff1660e01b8152600401612c359493929190613b17565b602060405180830381600087803b158015612c4f57600080fd5b505af1158015612c63573d6000803e3d6000fd5b505050506040513d601f19601f82011682018060405250612c8791908101906131c8565b6001600160e01b031916630a85bd0160e11b14915050949350505050565b600081604051602001612cb89190613a12565b6040516020818303038152906040528051906020012083604051602001612cdf9190613a12565b6040516020818303038152906040528051906020012014905092915050565b600061220983836040518060400160405280601e81526020017f536166654d6174683a207375627472616374696f6e206f766572666c6f770000815250612d77565b6000813f7fc5d2460186f7233c927e7db2dcc703c0e500b653ca82273b7bfad8045d85a47081158015906121e55750141592915050565b60008184841115612d9b5760405162461bcd60e51b81526004016106c29190613b8f565b505050900390565b6040805160e08101825260008082526060602083018190529282018390529181018290526080810182905260a0810182905260c081019190915290565b828054600181600116156101000203166002900490600052602060002090601f016020900481019282601f10612e2157805160ff1916838001178555612e4e565b82800160010185558215612e4e579182015b82811115612e4e578251825591602001919060010190612e33565b50612e5a929150612e9e565b5090565b50805460018160011615610100020316600290046000825580601f10612e845750611dba565b601f016020900490600052602060002090810190611dba91905b6108b191905b80821115612e5a5760008155600101612ea4565b803561133d81613ddf565b803561133d81613df3565b805161133d81613df3565b803561133d81613dfc565b805161133d81613dfc565b600082601f830112612f0057600080fd5b8135612f13612f0e82613d13565b613cec565b91508082526020830160208301858383011115612f2f57600080fd5b612f3a838284613d9d565b50505092915050565b60008083601f840112612f5557600080fd5b50813567ffffffffffffffff811115612f6d57600080fd5b602083019150836001820283011115612f8557600080fd5b9250929050565b803561133d81613e05565b803561133d81613e0e565b803561133d81613e17565b803561133d81613e20565b600060208284031215612fca57600080fd5b60006121e58484612eb8565b60008060408385031215612fe957600080fd5b6000612ff58585612eb8565b925050602061300685828601612eb8565b9150509250929050565b60008060006060848603121561302557600080fd5b60006130318686612eb8565b935050602061304286828701612eb8565b925050604061305386828701612f97565b9150509250925092565b6000806000806080858703121561307357600080fd5b600061307f8787612eb8565b945050602061309087828801612eb8565b93505060406130a187828801612f97565b925050606085013567ffffffffffffffff8111156130be57600080fd5b6130ca87828801612eef565b91505092959194509250565b600080604083850312156130e957600080fd5b60006130f58585612eb8565b925050602061300685828601612ec3565b60008060006040848603121561311b57600080fd5b60006131278686612eb8565b935050602084013567ffffffffffffffff81111561314457600080fd5b61315086828701612f43565b92509250509250925092565b6000806040838503121561316f57600080fd5b600061317b8585612eb8565b925050602061300685828601612f97565b60006020828403121561319e57600080fd5b60006121e58484612ece565b6000602082840312156131bc57600080fd5b60006121e58484612ed9565b6000602082840312156131da57600080fd5b60006121e58484612ee4565b600080600080600080600060e0888a03121561320157600080fd5b873567ffffffffffffffff81111561321857600080fd5b6132248a828b01612eef565b975050602088013567ffffffffffffffff81111561324157600080fd5b61324d8a828b01612eef565b965050604061325e8a828b01612fad565b955050606061326f8a828b01612fad565b94505060806132808a828b01612fad565b93505060a06132918a828b01612f8c565b92505060c06132a28a828b01612fa2565b91505092959891949750929550565b600080600080600080600080610100898b0312156132ce57600080fd5b883567ffffffffffffffff8111156132e557600080fd5b6132f18b828c01612eef565b985050602089013567ffffffffffffffff81111561330e57600080fd5b61331a8b828c01612eef565b975050604061332b8b828c01612fad565b965050606061333c8b828c01612fad565b955050608061334d8b828c01612fad565b94505060a061335e8b828c01612f8c565b93505060c061336f8b828c01612fa2565b92505060e089013567ffffffffffffffff81111561338c57600080fd5b6133988b828c01612eef565b9150509295985092959890939650565b6000602082840312156133ba57600080fd5b60006121e58484612f97565b600061220983836134c5565b60006133de83836139ea565b505060200190565b6133ef81613d4e565b82525050565b600061340082613d41565b61340a8185613d45565b93508360208202850161341c85613d3b565b8060005b85811015613456578484038952815161343985826133c6565b945061344483613d3b565b60209a909a0199925050600101613420565b5091979650505050505050565b600061346e82613d41565b6134788185613d45565b935061348383613d3b565b8060005b838110156134b157815161349b88826133d2565b97506134a683613d3b565b925050600101613487565b509495945050505050565b6133ef81613d59565b60006134d082613d41565b6134da8185613d45565b93506134ea818560208601613da9565b6134f381613dd5565b9093019392505050565b6133ef81613d92565b60006135128385610696565b935061351f838584613d9d565b50500190565b600061353082613d41565b61353a8185610696565b935061354a818560208601613da9565b9290920192915050565b6000613561601483613d45565b7f4d494e545f544f5f5a45524f5f41444452455353000000000000000000000000815260200192915050565b600061359a602a83613d45565b7f5452414e534645525f544f5f4e4f4e5f45524337323152454345495645525f4981526926a82622a6a2a72a22a960b11b602082015260400192915050565b60006135e6601883613d45565b7f5452414e534645525f544f5f5a45524f5f414444524553530000000000000000815260200192915050565b600061361f601983613d45565b7f43414e4e4f545f51554552595f5a45524f5f4144445245535300000000000000815260200192915050565b6000613658601183613d45565b7f554e415554484f52495a45445f4255524e000000000000000000000000000000815260200192915050565b6000613691601583613d45565b7f415050524f56414c5f49535f524544554e44414e540000000000000000000000815260200192915050565b60006136ca600f83613d45565b7f57495448445241575f4641494c45440000000000000000000000000000000000815260200192915050565b6000613703602383613d45565b7f434f4e54454e545f49445f4e4f545f524547495354455245445f544f5f43414c8152622622a960e91b602082015260400192915050565b6000613748601a83613d45565b7f43414c4c45525f43414e4e4f545f415050524f56455f53454c46000000000000815260200192915050565b6000613781601583613d45565b7f494e56414c49445f46454445524154494f4e5f49440000000000000000000000815260200192915050565b60006137ba601383613d45565b7f4f4e4c595f434f4e54524143545f4f574e455200000000000000000000000000815260200192915050565b60006137f3602183613d45565b7f53544152545f54494d455f41465445525f41554354494f4e5f454e445f54494d8152604560f81b602082015260400192915050565b6000613836601983613d45565b7f53544152545f54494d455f41465445525f454e445f54494d4500000000000000815260200192915050565b600061133d600083610696565b600061387c601183613d45565b7f494e56414c49445f54494d455f534c4f54000000000000000000000000000000815260200192915050565b60006138b5601283613d45565b7f4e4f4e5f4558495354454e545f544f4b454e0000000000000000000000000000815260200192915050565b60006138ee602583613d45565b7f43414c4c45525f4e4f545f415554484f52495a45445f464f525f5452414445528152645f524f4c4560d81b602082015260400192915050565b6000613935602583613d45565b7f43414c4c45525f4e4f545f415554484f52495a45445f464f525f4d494e5445528152645f524f4c4560d81b602082015260400192915050565b600061397c601583613d45565b7f554e415554484f52495a45445f5452414e534645520000000000000000000000815260200192915050565b60006139b5601583613d45565b7f43414c4c45525f4e4f545f415554484f52495a45440000000000000000000000815260200192915050565b6133ef81613d6b565b6133ef816108b1565b6133ef81613d7e565b6133ef81613d87565b60006121e5828486613506565b60006122098284613525565b600061133d82613862565b6020810161133d82846133e6565b6101208101613a46828c6133e6565b613a53602083018b6133e6565b8181036040830152613a65818a6134c5565b90508181036060830152613a7981896134c5565b9050613a8860808301886139fc565b613a9560a08301876139fc565b613aa260c08301866139fc565b613aaf60e08301856139e1565b613abd6101008301846139f3565b9a9950505050505050505050565b60a08101613ad982886133e6565b613ae660208301876133e6565b613af360408301866139ea565b613b0060608301856133e6565b613b0d60808301846133e6565b9695505050505050565b60808101613b2582876133e6565b613b3260208301866133e6565b613b3f60408301856139ea565b8181036060830152613b0d81846134c5565b6020808252810161220981846133f5565b602080825281016122098184613463565b6020810161133d82846134bc565b6020810161133d82846134fd565b6020808252810161220981846134c5565b6020808252810161133d81613554565b6020808252810161133d8161358d565b6020808252810161133d816135d9565b6020808252810161133d81613612565b6020808252810161133d8161364b565b6020808252810161133d81613684565b6020808252810161133d816136bd565b6020808252810161133d816136f6565b6020808252810161133d8161373b565b6020808252810161133d81613774565b6020808252810161133d816137ad565b6020808252810161133d816137e6565b6020808252810161133d81613829565b6020808252810161133d8161386f565b6020808252810161133d816138a8565b6020808252810161133d816138e1565b6020808252810161133d81613928565b6020808252810161133d8161396f565b6020808252810161133d816139a8565b6020810161133d82846139ea565b6020810161133d82846139f3565b60405181810167ffffffffffffffff81118282101715613d0b57600080fd5b604052919050565b600067ffffffffffffffff821115613d2a57600080fd5b506020601f91909101601f19160190565b60200190565b5190565b90815260200190565b600061133d82613d72565b151590565b6001600160e01b03191690565b61ffff1690565b6001600160a01b031690565b63ffffffff1690565b65ffffffffffff1690565b600061133d82613d4e565b82818337506000910152565b60005b83811015613dc4578181015183820152602001613dac565b838111156127c85750506000910152565b601f01601f191690565b613de881613d4e565b8114611dba57600080fd5b613de881613d59565b613de881613d5e565b613de881613d6b565b613de8816108b1565b613de881613d7e565b613de881613d8756fea365627a7a72315820489a72ea43185e39128959f460dc274443e7cb818cfa5886d3e0e11a1c4353066c6578706572696d656e74616cf564736f6c634300050b0040",
  "source": "pragma solidity ^0.5.11;\npragma experimental ABIEncoderV2;\n\n/**\n * @title ERC721 Customized for Microsponsors from:\n * https://github.com/OpenZeppelin/openzeppelin-contracts/blob/master/contracts/token/ERC721/ERC721MetadataMintable.sol\n */\n\nimport \"./IERC721.sol\";\nimport \"./IERC721Receiver.sol\";\nimport \"./SafeMath.sol\";\nimport \"./Address.sol\";\nimport \"./Counters.sol\";\nimport \"./ERC165.sol\";\n\n\n/**\n * @title Deployed Microsponsors Registry smart contract interface.\n * @dev We just use the signatures of the parts we need to interact with:\n */\ncontract DeployedRegistry {\n    function isContentIdRegisteredToCaller(string memory contentId) public view returns(bool);\n    function isMinter(address account) public view returns (bool);\n    function isTrader(address account) public view returns(bool);\n    function isAuthorizedTransferFrom(address from, address to, uint256 tokenId, address minter, address owner) public view returns(bool);\n}\n\n\n/**\n * @title ERC721 Non-Fungible Token Standard basic implementation\n * @dev see https://eips.ethereum.org/EIPS/eip-721\n */\ncontract ERC721 is ERC165, IERC721 {\n    using SafeMath for uint256;\n    using Address for address;\n    using Counters for Counters.Counter;\n\n\n    /***  Contract data  ***/\n\n\n    /// @dev owner1, owner2 Admins of this contract.\n    address public owner1;\n    address public owner2;\n\n    /// @dev paused Admin only. Set to `true` to stop token minting and transfers.\n    bool public paused = false;\n\n    /// @dev mintFee Admin only. Set minting fee; default fee is below (in wei).\n    uint256 public mintFee = 100000000000000;\n\n    /// @dev DeployedRegistry The Microsponsors Registry Contract that verifies participants.\n    ///      Admin can update the contract address here to upgrade Registry.\n    DeployedRegistry public registry;\n\n    /// @title _tokenIds All Token IDs minted, incremented starting at 1\n    Counters.Counter _tokenIds;\n\n    /// @dev _tokenOwner mapping from Token ID to Token Owner\n    mapping (uint256 => address) private _tokenOwner;\n\n    /// @dev _ownedTokensCount mapping from Token Owner to # of owned tokens\n    mapping (address => Counters.Counter) private _ownedTokensCount;\n\n    /// @dev _mintedTokensCount mapping from Token Minter to # of minted tokens\n    mapping (address => Counters.Counter) private _mintedTokensCount;\n\n    /// @dev tokenToFederationId see notes on path to federation in Microsponsors Registry contract\n    mapping (uint256 => uint32) public tokenToFederationId;\n\n    /// @dev TimeSlot metadata struct for each token\n    ///      TimeSlots timestamps are stored as uint48:\n    ///      https://medium.com/@novablitz/storing-structs-is-costing-you-gas-774da988895e\n    struct TimeSlot {\n        address minter; // the address of the user who mint()'ed this time slot\n        string contentId; // the users' registered contentId containing the Property\n        string propertyName; // describes the Property within the contentId that is tokenized into time slots\n        uint48 startTime; // min timestamp (when time slot begins)\n        uint48 endTime; // max timestamp (when time slot ends)\n        uint48 auctionEndTime; // max timestamp (when auction for time slot ends)\n        uint16 category; // integer that represents the category (see Microsponsors utils.js)\n    }\n    /// @dev _tokenToTimeSlot mapping from Token ID to TimeSlot struct\n    mapping(uint256 => TimeSlot) private _tokenToTimeSlot;\n\n    /// @dev PropertyNameStruct: name of the time slot\n    struct PropertyNameStruct {\n        string propertyName;\n    }\n    /// @dev _tokenMinterToPropertyName mapping from Minter => Content ID => array of Property Names\n    ///      Used to display all tokenized Time Slots on a given Property.\n    ///      Using struct because there is no mapping to a dynamic array of bytes32 in Solidity at this time.\n    mapping(address => mapping(string => PropertyNameStruct[])) private _tokenMinterToPropertyNames;\n\n    /// @dev ContentIdStruct The registered Content ID, verified by Registry contract\n    struct ContentIdStruct {\n        string contentId;\n    }\n    /// @dev _tokenMinterToContentIds Mapping from Token Minter to array of Content IDs\n    ///      that they have *ever* minted tokens for\n    mapping(address => ContentIdStruct[]) private _tokenMinterToContentIds;\n\n    /// @dev _tokenURIs Mapping from Token ID to Token URIs\n    mapping(uint256 => string) private _tokenURIs;\n\n    /// @dev _tokenApprovals Mapping from Token ID to Approved Address\n    mapping (uint256 => address) private _tokenApprovals;\n\n    /// @dev _operatorApprovals Mapping from Token Owner to Operator Approvals\n    mapping (address => mapping (address => bool)) private _operatorApprovals;\n\n    /*\n     *     bytes4(keccak256('balanceOf(address)')) == 0x70a08231\n     *     bytes4(keccak256('ownerOf(uint256)')) == 0x6352211e\n     *     bytes4(keccak256('approve(address,uint256)')) == 0x095ea7b3\n     *     bytes4(keccak256('getApproved(uint256)')) == 0x081812fc\n     *     bytes4(keccak256('setApprovalForAll(address,bool)')) == 0xa22cb465\n     *     bytes4(keccak256('isApprovedForAll(address,address)')) == 0xe985e9c5\n     *     bytes4(keccak256('transferFrom(address,address,uint256)')) == 0x23b872dd\n     *     bytes4(keccak256('safeTransferFrom(address,address,uint256)')) == 0x42842e0e\n     *     bytes4(keccak256('safeTransferFrom(address,address,uint256,bytes)')) == 0xb88d4fde\n     *\n     *     => 0x70a08231 ^ 0x6352211e ^ 0x095ea7b3 ^ 0x081812fc ^\n     *        0xa22cb465 ^ 0xe985e9c ^ 0x23b872dd ^ 0x42842e0e ^ 0xb88d4fde == 0x80ac58cd\n     */\n    bytes4 private constant _INTERFACE_ID_ERC721 = 0x80ac58cd;\n\n    // @dev Equals to `bytes4(keccak256(\"onERC721Received(address,address,uint256,bytes)\"))`\n    // which can be also obtained as `IERC721Receiver(0).onERC721Received.selector`\n    bytes4 private constant _ERC721_RECEIVED = 0x150b7a02;\n\n\n    constructor () public {\n\n        // Register the supported interfaces to conform to ERC721 via ERC165\n        _registerInterface(_INTERFACE_ID_ERC721);\n\n        // Set the contract owners to msg.sender by default\n        owner1 = _msgSender();\n        owner2 = _msgSender();\n\n    }\n\n\n    /**\n     * @dev Provides information about the current execution context, including the\n     * sender of the transaction and its data. While these are generally available\n     * via msg.sender and msg.data, they not should not be accessed in such a direct\n     * manner, since when dealing with GSN meta-transactions the account sending and\n     * paying for execution may not be the actual sender (as far as an application\n     * is concerned).\n     */\n\n    function _msgSender() internal view returns (address) {\n\n        return msg.sender;\n\n    }\n\n    function _msgData() internal view returns (bytes memory) {\n\n        this; // silence state mutability warning without generating bytecode -\n              // see https://github.com/ethereum/solidity/issues/2691\n        return msg.data;\n\n    }\n\n\n    /***  Owner (Administrator) functions  ***/\n\n\n    /**\n     * @dev Sets the contract's owner (administrator)\n     * Based on 0x's Ownable, but modified here\n     */\n    modifier onlyOwner() {\n        require(\n            (_msgSender() == owner1) || (_msgSender() == owner2),\n            \"ONLY_CONTRACT_OWNER\"\n        );\n        _;\n    }\n\n    /**\n     * @dev Transfer owner (admin) functions to another address\n     * @param newOwner Address of new owner/ admin of contract\n     */\n    function transferOwnership1(address newOwner)\n        public\n        onlyOwner\n    {\n        if (newOwner != address(0)) {\n            owner1 = newOwner;\n        }\n    }\n\n\n    function transferOwnership2(address newOwner)\n        public\n        onlyOwner\n    {\n        if (newOwner != address(0)) {\n            owner2 = newOwner;\n        }\n    }\n\n    /**\n     * @dev Update contract address for Microsponsors Registry contract\n     * @param newAddress where the Registry contract lives\n     */\n    function updateRegistryAddress(address newAddress)\n        public\n        onlyOwner\n    {\n        registry = DeployedRegistry(newAddress);\n    }\n\n    /**\n     * @dev Update the fee (in wei) charged for minting a single token\n     */\n    function updateMintFee(uint256 val)\n        public\n        onlyOwner\n    {\n\n        mintFee = val;\n\n    }\n\n    /// @dev Pausable (adapted from OpenZeppelin via Cryptokitties)\n    /// @dev Modifier to allow actions only when the contract IS NOT paused\n    modifier whenNotPaused() {\n        require(!paused);\n        _;\n    }\n\n    /// @dev Modifier to allow actions only when the contract IS paused\n    modifier whenPaused {\n        require(paused);\n        _;\n    }\n\n    /// @dev Called by contract owner to pause minting and transfers.\n    function pause() public onlyOwner whenNotPaused {\n        paused = true;\n    }\n\n    /// @dev Called by contract owner to unpause minting and transfers.\n    function unpause() public onlyOwner whenPaused {\n        paused = false;\n    }\n\n    /// @dev Admin withdraws entire balance from contract.\n    function withdrawBalance() external onlyOwner {\n\n        // Ref: https://diligence.consensys.net/blog/2019/09/stop-using-soliditys-transfer-now/\n        uint balance = address(this).balance;\n        (bool success, ) = msg.sender.call.value(balance)(\"\");\n        require(success, \"WITHDRAW_FAILED\");\n\n    }\n\n\n    /***  User account permission modifiers  ***/\n\n\n    /**\n     * @dev Checks if caller isMinter(),\n     *      throws with error message and refunds gas if not\n     */\n    modifier onlyMinter() {\n\n        require(\n            registry.isMinter(_msgSender()),\n            \"CALLER_NOT_AUTHORIZED_FOR_MINTER_ROLE\"\n        );\n        _;\n\n    }\n\n    /**\n     * @dev Checks if caller isTrader()\n     *      throws with error message and refunds gas if not\n     */\n    modifier onlyTrader() {\n\n        require(\n            registry.isTrader(_msgSender()),\n            \"CALLER_NOT_AUTHORIZED_FOR_TRADER_ROLE\"\n        );\n        _;\n\n    }\n\n\n    /***  Minting tokens  ***/\n\n\n    /**\n     * @dev Function to mint tokens.\n     * @return tokenId\n     */\n    function mint(\n        string memory contentId,\n        string memory propertyName,\n        uint48 startTime,\n        uint48 endTime,\n        uint48 auctionEndTime,\n        uint16 category,\n        uint32 federationId\n    )\n        public\n        payable\n        onlyMinter\n        whenNotPaused\n        returns (uint256)\n    {\n\n        require(msg.value >= mintFee);\n\n        require(federationId > 0, \"INVALID_FEDERATION_ID\");\n\n        require(\n            _isValidTimeSlot(contentId, startTime, endTime, auctionEndTime),\n            \"INVALID_TIME_SLOT\"\n        );\n\n        uint256 tokenId = _mint(_msgSender());\n        _setTokenTimeSlot(tokenId, contentId, propertyName, startTime, endTime, auctionEndTime, category);\n        tokenToFederationId[tokenId] = federationId;\n\n        return tokenId;\n\n    }\n\n    /**\n     * @dev Function to mint tokens.\n     * @param tokenURI The token URI of the minted token.\n     * @return tokenId\n     */\n    function mintWithTokenURI(\n        string memory contentId,\n        string memory propertyName,\n        uint48 startTime,\n        uint48 endTime,\n        uint48 auctionEndTime,\n        uint16 category,\n        uint32 federationId,\n        string memory tokenURI\n    )\n        public\n        payable\n        onlyMinter\n        whenNotPaused\n        returns (uint256)\n    {\n\n        require(msg.value >= mintFee);\n\n        require(federationId > 0, \"INVALID_FEDERATION_ID\");\n\n        require(\n            _isValidTimeSlot(contentId, startTime, endTime, auctionEndTime),\n            \"INVALID_TIME_SLOT\"\n        );\n\n        uint256 tokenId = _mint(_msgSender());\n        _setTokenTimeSlot(tokenId, contentId, propertyName, startTime, endTime, auctionEndTime, category);\n        _setTokenURI(tokenId, tokenURI);\n        tokenToFederationId[tokenId] = federationId;\n\n        return tokenId;\n\n    }\n\n    /**\n     * @dev Function to safely mint tokens.\n     * @return tokenId\n     */\n    function safeMint(\n        string memory contentId,\n        string memory propertyName,\n        uint48 startTime,\n        uint48 endTime,\n        uint48 auctionEndTime,\n        uint16 category,\n        uint32 federationId\n    )\n        public\n        payable\n        onlyMinter\n        whenNotPaused\n        returns (uint256)\n    {\n\n        require(msg.value >= mintFee);\n\n        require(federationId > 0, \"INVALID_FEDERATION_ID\");\n\n        require(\n            _isValidTimeSlot(contentId, startTime, endTime, auctionEndTime),\n            \"INVALID_TIME_SLOT\"\n        );\n\n        uint256 tokenId = _safeMint(_msgSender());\n        _setTokenTimeSlot(tokenId, contentId, propertyName, startTime, endTime, auctionEndTime, category);\n        tokenToFederationId[tokenId] = federationId;\n\n        return tokenId;\n\n    }\n\n    /**\n     * @dev Function to safely mint tokens.\n     * @param data bytes data to send along with a safe transfer check.\n     * @return tokenId\n     */\n    function safeMint(\n        string memory contentId,\n        string memory propertyName,\n        uint48 startTime,\n        uint48 endTime,\n        uint48 auctionEndTime,\n        uint16 category,\n        uint32 federationId,\n        bytes memory data\n    )\n        public\n        payable\n        onlyMinter\n        whenNotPaused\n        returns (uint256)\n    {\n\n        require(msg.value >= mintFee);\n\n        require(federationId > 0, \"INVALID_FEDERATION_ID\");\n\n        require(\n            _isValidTimeSlot(contentId, startTime, endTime, auctionEndTime),\n            \"INVALID_TIME_SLOT\"\n        );\n\n        uint256 tokenId = _safeMint(_msgSender(), data);\n        _setTokenTimeSlot(tokenId, contentId, propertyName, startTime, endTime, auctionEndTime, category);\n        tokenToFederationId[tokenId] = federationId;\n\n        return tokenId;\n\n    }\n\n    /**\n     * @param tokenURI The token URI of the minted token.\n     * @return tokenId\n     */\n    function safeMintWithTokenURI(\n        string memory contentId,\n        string memory propertyName,\n        uint48 startTime,\n        uint48 endTime,\n        uint48 auctionEndTime,\n        uint16 category,\n        uint32 federationId,\n        string memory tokenURI\n    )\n        public\n        payable\n        onlyMinter\n        whenNotPaused\n        returns (uint256)\n    {\n\n        require(msg.value >= mintFee);\n\n        require(federationId > 0, \"INVALID_FEDERATION_ID\");\n\n        require(\n            _isValidTimeSlot(contentId, startTime, endTime, auctionEndTime),\n            \"INVALID_TIME_SLOT\"\n        );\n\n        uint256 tokenId = _safeMint(_msgSender());\n        _setTokenTimeSlot(tokenId, contentId, propertyName, startTime, endTime, auctionEndTime, category);\n        _setTokenURI(tokenId, tokenURI);\n        tokenToFederationId[tokenId] = federationId;\n\n        return tokenId;\n\n    }\n\n    /**\n     * @dev Internal function to safely mint a new token.\n     * Reverts if the given token ID already exists.\n     * If the target address is a contract, it must implement `onERC721Received`,\n     * which is called upon a safe transfer, and return the magic value\n     * `bytes4(keccak256(\"onERC721Received(address,address,uint256,bytes)\"))`; otherwise,\n     * the transfer is reverted.\n     * @param to The address that will own the minted token\n     * @return tokenId\n     */\n    function _safeMint(address to) internal returns (uint256) {\n\n        uint256 tokenId = _safeMint(to, \"\");\n        return tokenId;\n\n    }\n\n    /**\n     * @dev Internal function to safely mint a new token.\n     * Reverts if the given token ID already exists.\n     * If the target address is a contract, it must implement `onERC721Received`,\n     * which is called upon a safe transfer, and return the magic value\n     * `bytes4(keccak256(\"onERC721Received(address,address,uint256,bytes)\"))`; otherwise,\n     * the transfer is reverted.\n     * @param to The address that will own the minted token\n     * @param data bytes data to send along with a safe transfer check\n     * @return tokenId\n     */\n    function _safeMint(address to, bytes memory data) internal returns (uint256) {\n\n        uint256 tokenId = _mint(to);\n\n        require(\n            _checkOnERC721Received(address(0), to, tokenId, data),\n            \"TRANSFER_TO_NON_ERC721RECEIVER_IMPLEMENTER\"\n        );\n\n        return tokenId;\n\n    }\n\n    /**\n     * @dev Internal function to mint a new token.\n     * Reverts if the given token ID already exists.\n     * @param to The address that will own the minted token\n     */\n    function _mint(address to) internal returns (uint256) {\n\n        require(to != address(0), \"MINT_TO_ZERO_ADDRESS\");\n\n        _tokenIds.increment();\n        uint256 tokenId = _tokenIds.current();\n\n        _tokenOwner[tokenId] = to;\n        _ownedTokensCount[to].increment();\n        _mintedTokensCount[to].increment();\n\n        emit Transfer(address(0), to, tokenId);\n\n        return tokenId;\n\n    }\n\n\n    /***  Token URIs  ***/\n\n\n    /**\n     * @dev Internal function to set the token URI for a given token.\n     * Reverts if the token ID does not exist.\n     * @param tokenId uint256 ID of the token to set its URI\n     * @param uri string URI to assign\n     */\n    function _setTokenURI(uint256 tokenId, string memory uri) internal {\n\n        require(\n            _exists(tokenId),\n            \"NON_EXISTENT_TOKEN\"\n        );\n\n        _tokenURIs[tokenId] = uri;\n\n    }\n\n    /**\n     * Throws if the token ID does not exist. May return an empty string.\n     * @param tokenId uint256 ID of the token to query\n     * @return URI for a given token ID.\n     */\n    function tokenURI(uint256 tokenId) external view returns (string memory) {\n\n        require(\n            _exists(tokenId),\n            \"NON_EXISTENT_TOKEN\"\n        );\n\n        return _tokenURIs[tokenId];\n\n    }\n\n\n    /***  Token TimeSlot data and metadata  ***/\n\n\n    function _isValidTimeSlot(\n        string memory contentId,\n        uint48 startTime,\n        uint48 endTime,\n        uint48 auctionEndTime\n    ) internal view returns (bool) {\n\n        require(\n            registry.isContentIdRegisteredToCaller(contentId),\n            \"CONTENT_ID_NOT_REGISTERED_TO_CALLER\"\n        );\n\n        require(\n            startTime > auctionEndTime,\n            \"START_TIME_AFTER_AUCTION_END_TIME\"\n        );\n\n        require(\n            endTime > startTime,\n            \"START_TIME_AFTER_END_TIME\"\n        );\n\n        return true;\n\n    }\n\n\n    function _isContentIdMappedToMinter(\n        string memory contentId\n    )  internal view returns (bool) {\n\n        ContentIdStruct[] memory a = _tokenMinterToContentIds[msg.sender];\n        bool foundMatch = false;\n        for (uint i = 0; i < a.length; i++) {\n            if (stringsMatch(contentId, a[i].contentId)) {\n                foundMatch = true;\n            }\n        }\n\n        return foundMatch;\n    }\n\n\n    function _isPropertyNameMappedToMinter(\n        string memory contentId,\n        string memory propertyName\n    )  internal view returns (bool) {\n\n        PropertyNameStruct[] memory a = _tokenMinterToPropertyNames[msg.sender][contentId];\n        bool foundMatch = false;\n        for (uint i = 0; i < a.length; i++) {\n            if (stringsMatch(propertyName, a[i].propertyName)) {\n                foundMatch = true;\n            }\n        }\n\n        return foundMatch;\n    }\n\n\n    function _setTokenTimeSlot(\n        uint256 tokenId,\n        string memory contentId,\n        string memory propertyName,\n        uint48 startTime,\n        uint48 endTime,\n        uint48 auctionEndTime,\n        uint16 category\n    ) internal {\n\n        require(\n            _exists(tokenId),\n            \"NON_EXISTENT_TOKEN\"\n        );\n\n        TimeSlot memory _timeSlot = TimeSlot({\n            minter: address(_msgSender()),\n            contentId: string(contentId),\n            propertyName: string(propertyName),\n            startTime: uint48(startTime),\n            endTime: uint48(endTime),\n            auctionEndTime: uint48(auctionEndTime),\n            category: uint16(category)\n        });\n\n        _tokenToTimeSlot[tokenId] = _timeSlot;\n\n        if (!_isContentIdMappedToMinter(contentId)) {\n            _tokenMinterToContentIds[_msgSender()].push( ContentIdStruct(contentId) );\n        }\n\n        if (!_isPropertyNameMappedToMinter(contentId, propertyName)) {\n            _tokenMinterToPropertyNames[_msgSender()][contentId].push( PropertyNameStruct(propertyName) );\n        }\n\n    }\n\n\n    function tokenTimeSlot(uint256 tokenId) external view returns (\n        address minter,\n        address owner,\n        string memory contentId,\n        string memory propertyName,\n        uint48 startTime,\n        uint48 endTime,\n        uint48 auctionEndTime,\n        uint16 category,\n        uint32 federationId\n    ) {\n\n        require(\n            _exists(tokenId),\n            \"NON_EXISTENT_TOKEN\"\n        );\n\n        TimeSlot memory _timeSlot = _tokenToTimeSlot[tokenId];\n        uint32 _federationId = tokenToFederationId[tokenId];\n\n        return (\n            _timeSlot.minter,\n            ownerOf(tokenId),\n            _timeSlot.contentId,\n            _timeSlot.propertyName,\n            _timeSlot.startTime,\n            _timeSlot.endTime,\n            _timeSlot.auctionEndTime,\n            _timeSlot.category,\n            _federationId\n        );\n\n    }\n\n\n    /***  Token minter queries  ***/\n\n\n    /// @dev Look up all Content IDs a Minter has tokenized TimeSlots for.\n    ///      We're not getting this from the Registry because we want to keep\n    ///      a separate record here of all Content ID's the acct has *ever*\n    ///      minted tokens for. The registry is for keeping track of their\n    ///      current (not necessarily past) Content ID registrations.\n    function tokenMinterContentIds(address minter) external view returns (string[] memory) {\n\n        ContentIdStruct[] memory m = _tokenMinterToContentIds[minter];\n        string[] memory r = new string[](m.length);\n\n        for (uint i = 0; i < m.length; i++) {\n            r[i] = m[i].contentId;\n        }\n\n        return r;\n\n    }\n\n    /// @dev Look up all Property Names a Minter has created Time Slots for\n    ///      with a particular Content ID\n    function tokenMinterPropertyNames(\n        address minter,\n        string calldata contentId\n    ) external view returns (string[] memory) {\n\n        PropertyNameStruct[] memory m = _tokenMinterToPropertyNames[minter][contentId];\n        string[] memory r = new string[](m.length);\n\n        for (uint i = 0; i < m.length; i++) {\n            r[i] =  m[i].propertyName;\n        }\n\n        return r;\n\n    }\n\n\n    /**\n     * Return all the Token IDs minted by a given account.\n     * @dev This method MUST NEVER be called by smart contract code. First, it's fairly\n     *  expensive (it walks the entire _tokenIds array looking for tokens belonging to minter),\n     *  but it also returns a dynamic array, which is only supported for web3 calls, and\n     *  not contract-to-contract calls (at this time).\n     */\n    function tokensMintedBy(address minter) external view returns (uint256[] memory) {\n\n        require(\n            minter != address(0),\n            \"CANNOT_QUERY_ZERO_ADDRESS\"\n        );\n\n        uint256 tokenCount = _mintedTokensCount[minter].current();\n        if (tokenCount == 0) {\n            // Return an empty array\n            return new uint256[](0);\n        } else {\n            uint256[] memory result = new uint256[](tokenCount);\n            uint256 totalTokens = totalSupply();\n            uint256 resultIndex = 0;\n\n            // All Tokens have IDs starting at 1 and increase\n            // sequentially up to the total supply count.\n            uint256 tokenId;\n\n            for (tokenId = 1; tokenId <= totalTokens; tokenId++) {\n                if (_tokenToTimeSlot[tokenId].minter == minter) {\n                    result[resultIndex] = tokenId;\n                    resultIndex++;\n                }\n            }\n\n            return result;\n        }\n\n    }\n\n\n    /***  Token balance and ownership queries  ***/\n\n\n    /**\n     * @dev Gets the total number of tokens ever minted.\n     */\n    function totalSupply() public view returns (uint256) {\n\n        return _tokenIds.current();\n\n    }\n\n    /**\n     * @dev Gets the balance of the specified address.\n     * @param tokenOwner address to query the balance of\n     * @return uint256 representing the amount owned by the passed address\n     */\n    function balanceOf(address tokenOwner) public view returns (uint256) {\n\n        require(\n            tokenOwner != address(0),\n            \"CANNOT_QUERY_ZERO_ADDRESS\"\n        );\n\n        return _ownedTokensCount[tokenOwner].current();\n\n    }\n\n    /**\n     * @dev Gets the owner of the specified token ID.\n     * @param tokenId uint256 ID of the token to query the owner of\n     * @return address currently marked as the owner of the given token ID\n     */\n    function ownerOf(uint256 tokenId) public view returns (address) {\n\n        address tokenOwner = _tokenOwner[tokenId];\n\n        return tokenOwner;\n\n    }\n\n    /**\n     * @param tokenOwner The owner whose tokens we are interested in.\n     * @dev This method MUST NEVER be called by smart contract code. First, it's fairly\n     *  expensive (it walks the entire _tokenIds array looking for tokens belonging to owner),\n     *  but it also returns a dynamic array, which is only supported for web3 calls, and\n     *  not contract-to-contract calls (at this time).\n    */\n    function tokensOfOwner(address tokenOwner) external view returns(uint256[] memory) {\n        uint256 tokenCount = balanceOf(tokenOwner);\n        if (tokenCount == 0) {\n            // Return an empty array\n            return new uint256[](0);\n        } else {\n            uint256[] memory result = new uint256[](tokenCount);\n            uint256 totalTokens = totalSupply();\n            uint256 resultIndex = 0;\n\n            // All Tokens have IDs starting at 1 and increase\n            // sequentially up to the total count.\n            uint256 tokenId;\n\n            for (tokenId = 1; tokenId <= totalTokens; tokenId++) {\n                if (_tokenOwner[tokenId] == tokenOwner) {\n                    result[resultIndex] = tokenId;\n                    resultIndex++;\n                }\n            }\n\n            return result;\n        }\n    }\n\n\n    /***  Approvals & Transfers  ***/\n\n\n    /**\n     * @dev Approves another address to transfer the given token ID\n     * The zero address indicates there is no approved address.\n     * There can only be one approved address per token at a given time.\n     * Can only be called by the token owner or an approved operator.\n     * @param to address to be approved for the given token ID\n     * @param tokenId uint256 ID of the token to be approved\n     */\n    function approve(address to, uint256 tokenId)\n        public\n        onlyTrader\n        whenNotPaused\n    {\n\n        address tokenOwner = ownerOf(tokenId);\n\n        require(\n            to != tokenOwner,\n            \"APPROVAL_IS_REDUNDANT\"\n        );\n\n        require(\n            _msgSender() == tokenOwner || isApprovedForAll(tokenOwner, _msgSender()),\n            \"CALLER_NOT_AUTHORIZED\"\n        );\n\n        _tokenApprovals[tokenId] = to;\n        emit Approval(tokenOwner, to, tokenId);\n\n    }\n\n    /**\n     * @dev Gets the approved address for a token ID, or zero if no address set\n     * Reverts if the token ID does not exist.\n     * @param tokenId uint256 ID of the token to query the approval of\n     * @return address currently approved for the given token ID\n     */\n    function getApproved(uint256 tokenId) public view returns (address) {\n\n        require(\n            _exists(tokenId),\n            \"NON_EXISTENT_TOKEN\"\n        );\n\n        return _tokenApprovals[tokenId];\n\n    }\n\n    /**\n     * @dev Sets or unsets the approval of a given operator\n     * An operator is allowed to transfer all tokens of the sender on their behalf.\n     * @param to operator address to set the approval\n     * @param approved representing the status of the approval to be set\n     */\n    function setApprovalForAll(address to, bool approved)\n        public\n        onlyTrader\n        whenNotPaused\n    {\n\n        require(to != _msgSender(), \"CALLER_CANNOT_APPROVE_SELF\");\n\n        _operatorApprovals[_msgSender()][to] = approved;\n        emit ApprovalForAll(_msgSender(), to, approved);\n\n    }\n\n    /**\n     * @dev Tells whether an operator is approved by a given token owner.\n     * @param tokenOwner token owner address which you want to query the approval of\n     * @param operator operator address which you want to query the approval of\n     * @return bool whether the given operator is approved by the token owner\n     */\n    function isApprovedForAll(address tokenOwner, address operator)\n        public\n        view\n        returns (bool)\n    {\n\n        return _operatorApprovals[tokenOwner][operator];\n\n    }\n\n    /**\n     * @dev Transfers the ownership of a given token ID to another address.\n     * Usage of this method is discouraged, use {safeTransferFrom} whenever possible.\n     * Requires the msg.sender to be the owner, approved, or operator.\n     * @param from current owner of the token\n     * @param to address to receive the ownership of the given token ID\n     * @param tokenId uint256 ID of the token to be transferred\n     */\n    function transferFrom(address from, address to, uint256 tokenId)\n        public\n        whenNotPaused\n    {\n\n        require(\n            _isApprovedOrOwner(_msgSender(), tokenId),\n            \"UNAUTHORIZED_TRANSFER\"\n        );\n\n        address minter = _tokenToTimeSlot[tokenId].minter;\n        address owner = ownerOf(tokenId);\n\n        require(\n            registry.isAuthorizedTransferFrom(from, to, tokenId, minter, owner),\n            \"UNAUTHORIZED_TRANSFER\"\n        );\n\n        _transferFrom(from, to, tokenId);\n\n    }\n\n    /**\n     * @dev Safely transfers the ownership of a given token ID to another address\n     * If the target address is a contract, it must implement {IERC721Receiver-onERC721Received},\n     * which is called upon a safe transfer, and return the magic value\n     * `bytes4(keccak256(\"onERC721Received(address,address,uint256,bytes)\"))`; otherwise,\n     * the transfer is reverted.\n     * Requires the msg.sender to be the owner, approved, or operator\n     * @param from current owner of the token\n     * @param to address to receive the ownership of the given token ID\n     * @param tokenId uint256 ID of the token to be transferred\n     */\n    function safeTransferFrom(address from, address to, uint256 tokenId) public {\n\n        safeTransferFrom(from, to, tokenId, \"\");\n\n    }\n\n    /**\n     * @dev Safely transfers the ownership of a given token ID to another address\n     * If the target address is a contract, it must implement {IERC721Receiver-onERC721Received},\n     * which is called upon a safe transfer, and return the magic value\n     * `bytes4(keccak256(\"onERC721Received(address,address,uint256,bytes)\"))`; otherwise,\n     * the transfer is reverted.\n     * Requires the _msgSender() to be the owner, approved, or operator\n     * @param from current owner of the token\n     * @param to address to receive the ownership of the given token ID\n     * @param tokenId uint256 ID of the token to be transferred\n     * @param data bytes data to send along with a safe transfer check\n     */\n    function safeTransferFrom(address from, address to, uint256 tokenId, bytes memory data)\n        public\n        whenNotPaused\n    {\n\n        require(\n            _isApprovedOrOwner(_msgSender(), tokenId),\n            \"UNAUTHORIZED_TRANSFER\"\n        );\n\n        address minter = _tokenToTimeSlot[tokenId].minter;\n        address owner = ownerOf(tokenId);\n\n        require(\n            registry.isAuthorizedTransferFrom(from, to, tokenId, minter, owner),\n            \"UNAUTHORIZED_TRANSFER\"\n        );\n\n        _safeTransferFrom(from, to, tokenId, data);\n\n    }\n\n    /**\n     * @dev Safely transfers the ownership of a given token ID to another address\n     * If the target address is a contract, it must implement `onERC721Received`,\n     * which is called upon a safe transfer, and return the magic value\n     * `bytes4(keccak256(\"onERC721Received(address,address,uint256,bytes)\"))`; otherwise,\n     * the transfer is reverted.\n     * Requires the msg.sender to be the owner, approved, or operator\n     * @param from current owner of the token\n     * @param to address to receive the ownership of the given token ID\n     * @param tokenId uint256 ID of the token to be transferred\n     * @param data bytes data to send along with a safe transfer check\n     */\n    function _safeTransferFrom(address from, address to, uint256 tokenId, bytes memory data)\n        internal\n    {\n\n        _transferFrom(from, to, tokenId);\n\n        require(\n            _checkOnERC721Received(from, to, tokenId, data),\n            \"TRANSFER_TO_NON_ERC721RECEIVER_IMPLEMENTER\"\n        );\n\n    }\n\n    /**\n     * @dev Returns whether the specified token exists.\n     * @param tokenId uint256 ID of the token to query the existence of\n     * @return bool whether the token exists\n     */\n    function _exists(uint256 tokenId) internal view returns (bool) {\n\n        address tokenOwner = _tokenOwner[tokenId];\n\n        return tokenOwner != address(0);\n\n    }\n\n    /**\n     * @dev Returns whether the given spender can transfer a given token ID.\n     * @param spender address of the spender to query\n     * @param tokenId uint256 ID of the token to be transferred\n     * @return bool whether the msg.sender is approved for the given token ID,\n     * is an operator of the owner, or is the owner of the token\n     */\n    function _isApprovedOrOwner(address spender, uint256 tokenId)\n        internal\n        view\n        returns (bool)\n    {\n\n        require(\n            _exists(tokenId),\n            \"NON_EXISTENT_TOKEN\"\n        );\n\n        address tokenOwner = ownerOf(tokenId);\n\n        return (spender == tokenOwner || getApproved(tokenId) == spender || isApprovedForAll(tokenOwner, spender));\n\n    }\n\n    /**\n     * @dev Internal function to transfer ownership of a given token ID to another address.\n     *      As opposed to {transferFrom}, this imposes no restrictions on msg.sender\n     * @param from current owner of the token\n     * @param to address to receive the ownership of the given token ID\n     * @param tokenId uint256 ID of the token to be transferred\n     */\n    function _transferFrom(address from, address to, uint256 tokenId) internal {\n\n        require(\n            ownerOf(tokenId) == from,\n            \"UNAUTHORIZED_TRANSFER\"\n        );\n\n        require(\n            to != address(0),\n            \"TRANSFER_TO_ZERO_ADDRESS\"\n        );\n\n        _clearApproval(tokenId);\n\n        _ownedTokensCount[from].decrement();\n        _ownedTokensCount[to].increment();\n\n        _tokenOwner[tokenId] = to;\n\n        emit Transfer(from, to, tokenId);\n\n    }\n\n    /**\n     * @dev Internal function to invoke {IERC721Receiver-onERC721Received} on a target address.\n     * The call is not executed if the target address is not a contract.\n     *\n     * This function is deprecated.\n     * @param from address representing the previous owner of the given token ID\n     * @param to target address that will receive the tokens\n     * @param tokenId uint256 ID of the token to be transferred\n     * @param data bytes optional data to send along with the call\n     * @return bool whether the call correctly returned the expected magic value\n     */\n    function _checkOnERC721Received(address from, address to, uint256 tokenId, bytes memory data)\n        internal\n        returns (bool)\n    {\n\n        if (!to.isContract()) {\n            return true;\n        }\n\n        bytes4 retval = IERC721Receiver(to).onERC721Received(_msgSender(), from, tokenId, data);\n        return (retval == _ERC721_RECEIVED);\n\n    }\n\n    /**\n     * @dev Private function to clear current approval of a given token ID.\n     * @param tokenId uint256 ID of the token to be transferred\n     */\n    function _clearApproval(uint256 tokenId) private {\n\n        if (_tokenApprovals[tokenId] != address(0)) {\n            _tokenApprovals[tokenId] = address(0);\n        }\n\n    }\n\n\n    /***  Burn Tokens  ***/\n\n\n    // solhint-disable\n    /**\n     * @dev Customized for Microsponsors\n     *      https://github.com/OpenZeppelin/openzeppelin-contracts/blob/master/contracts/token/ERC721/ERC721Burnable.sol     * @dev Burns a specific ERC721 token.\n     * @param tokenId uint256 id of the ERC721 token to be burned\n     */\n     // solhint-enable\n    function burn(uint256 tokenId) public whenNotPaused {\n\n        address tokenOwner = ownerOf(tokenId);\n        address minter = _tokenToTimeSlot[tokenId].minter;\n\n        if (tokenOwner == minter) {\n            require(\n                registry.isMinter(_msgSender()),\n                \"UNAUTHORIZED_BURN\"\n            );\n        }\n\n        require(\n            _isApprovedOrOwner(_msgSender(), tokenId),\n            \"UNAUTHORIZED_BURN\"\n        );\n\n        _burn(tokenId);\n\n    }\n\n\n    /**\n     * @dev Internal function to burn a specific token.\n     * Reverts if the token does not exist.\n     * Deprecated, use {_burn} instead.\n     * @param tokenOwner owner of the token to burn\n     * @param tokenId uint256 ID of the token being burned\n     */\n    function _burn(address tokenOwner, uint256 tokenId) internal {\n\n        require(\n            ownerOf(tokenId) == tokenOwner,\n            \"UNAUTHORIZED_BURN\"\n        );\n\n        _clearApproval(tokenId);\n\n        _ownedTokensCount[tokenOwner].decrement();\n        _tokenOwner[tokenId] = address(0);\n\n        // Clear token URIs (if any)\n        if (bytes(_tokenURIs[tokenId]).length != 0) {\n            delete _tokenURIs[tokenId];\n        }\n\n        // Clear time slot data\n        delete _tokenToTimeSlot[tokenId];\n\n        emit Transfer(tokenOwner, address(0), tokenId);\n\n    }\n\n    /**\n     * @dev Internal function to burn a specific token.\n     * Reverts if the token does not exist.\n     * @param tokenId uint256 ID of the token being burned\n     */\n    function _burn(uint256 tokenId) internal {\n\n        _burn(ownerOf(tokenId), tokenId);\n\n    }\n\n\n    /***  Helper fn  ***/\n\n    function stringsMatch (\n        string memory a,\n        string memory b\n    )\n        private\n        pure\n        returns (bool)\n    {\n        return (keccak256(abi.encodePacked((a))) == keccak256(abi.encodePacked((b))) );\n    }\n\n}\n",
  "sourcePath": "/Users/lauren/github/erc-721/contracts/ERC721.sol",
  "compiler": {
    "name": "solc",
    "version": "0.5.11+commit.c082d0b4.Emscripten.clang"
  },
  "schemaVersion": "3.0.10",
  "updatedAt": "2020-01-06T20:43:11.452Z",
  "devdoc": {
    "details": "see https://eips.ethereum.org/EIPS/eip-721",
    "methods": {
      "approve(address,uint256)": {
        "details": "Approves another address to transfer the given token ID The zero address indicates there is no approved address. There can only be one approved address per token at a given time. Can only be called by the token owner or an approved operator.",
        "params": {
          "to": "address to be approved for the given token ID",
          "tokenId": "uint256 ID of the token to be approved"
        }
      },
      "balanceOf(address)": {
        "details": "Gets the balance of the specified address.",
        "params": {
          "tokenOwner": "address to query the balance of"
        },
        "return": "uint256 representing the amount owned by the passed address"
      },
      "burn(uint256)": {
        "details": "Customized for MicrosponsorsBurns a specific ERC721 token.",
        "params": {
          "tokenId": "uint256 id of the ERC721 token to be burned"
        }
      },
      "getApproved(uint256)": {
        "details": "Gets the approved address for a token ID, or zero if no address set Reverts if the token ID does not exist.",
        "params": {
          "tokenId": "uint256 ID of the token to query the approval of"
        },
        "return": "address currently approved for the given token ID"
      },
      "isApprovedForAll(address,address)": {
        "details": "Tells whether an operator is approved by a given token owner.",
        "params": {
          "operator": "operator address which you want to query the approval of",
          "tokenOwner": "token owner address which you want to query the approval of"
        },
        "return": "bool whether the given operator is approved by the token owner"
      },
      "mint(string,string,uint48,uint48,uint48,uint16,uint32)": {
        "details": "Function to mint tokens.",
        "return": "tokenId"
      },
      "mintWithTokenURI(string,string,uint48,uint48,uint48,uint16,uint32,string)": {
        "details": "Function to mint tokens.",
        "params": {
          "tokenURI": "The token URI of the minted token."
        },
        "return": "tokenId"
      },
      "ownerOf(uint256)": {
        "details": "Gets the owner of the specified token ID.",
        "params": {
          "tokenId": "uint256 ID of the token to query the owner of"
        },
        "return": "address currently marked as the owner of the given token ID"
      },
      "pause()": {
        "details": "Called by contract owner to pause minting and transfers."
      },
      "safeMint(string,string,uint48,uint48,uint48,uint16,uint32)": {
        "details": "Function to safely mint tokens.",
        "return": "tokenId"
      },
      "safeMint(string,string,uint48,uint48,uint48,uint16,uint32,bytes)": {
        "details": "Function to safely mint tokens.",
        "params": {
          "data": "bytes data to send along with a safe transfer check."
        },
        "return": "tokenId"
      },
      "safeMintWithTokenURI(string,string,uint48,uint48,uint48,uint16,uint32,string)": {
        "params": {
          "tokenURI": "The token URI of the minted token."
        },
        "return": "tokenId"
      },
      "safeTransferFrom(address,address,uint256)": {
        "details": "Safely transfers the ownership of a given token ID to another address If the target address is a contract, it must implement {IERC721Receiver-onERC721Received}, which is called upon a safe transfer, and return the magic value `bytes4(keccak256(\"onERC721Received(address,address,uint256,bytes)\"))`; otherwise, the transfer is reverted. Requires the msg.sender to be the owner, approved, or operator",
        "params": {
          "from": "current owner of the token",
          "to": "address to receive the ownership of the given token ID",
          "tokenId": "uint256 ID of the token to be transferred"
        }
      },
      "safeTransferFrom(address,address,uint256,bytes)": {
        "details": "Safely transfers the ownership of a given token ID to another address If the target address is a contract, it must implement {IERC721Receiver-onERC721Received}, which is called upon a safe transfer, and return the magic value `bytes4(keccak256(\"onERC721Received(address,address,uint256,bytes)\"))`; otherwise, the transfer is reverted. Requires the _msgSender() to be the owner, approved, or operator",
        "params": {
          "data": "bytes data to send along with a safe transfer check",
          "from": "current owner of the token",
          "to": "address to receive the ownership of the given token ID",
          "tokenId": "uint256 ID of the token to be transferred"
        }
      },
      "setApprovalForAll(address,bool)": {
        "details": "Sets or unsets the approval of a given operator An operator is allowed to transfer all tokens of the sender on their behalf.",
        "params": {
          "approved": "representing the status of the approval to be set",
          "to": "operator address to set the approval"
        }
      },
      "supportsInterface(bytes4)": {
        "details": "See {IERC165-supportsInterface}.     * Time complexity O(1), guaranteed to always use less than 30 000 gas."
      },
      "tokenMinterContentIds(address)": {
        "details": "Look up all Content IDs a Minter has tokenized TimeSlots for.      We're not getting this from the Registry because we want to keep      a separate record here of all Content ID's the acct has *ever*      minted tokens for. The registry is for keeping track of their      current (not necessarily past) Content ID registrations."
      },
      "tokenMinterPropertyNames(address,string)": {
        "details": "Look up all Property Names a Minter has created Time Slots for      with a particular Content ID"
      },
      "tokenURI(uint256)": {
        "params": {
          "tokenId": "uint256 ID of the token to query"
        },
        "return": "URI for a given token ID."
      },
      "tokensMintedBy(address)": {
        "details": "This method MUST NEVER be called by smart contract code. First, it's fairly expensive (it walks the entire _tokenIds array looking for tokens belonging to minter), but it also returns a dynamic array, which is only supported for web3 calls, and not contract-to-contract calls (at this time)."
      },
      "tokensOfOwner(address)": {
        "details": "This method MUST NEVER be called by smart contract code. First, it's fairly expensive (it walks the entire _tokenIds array looking for tokens belonging to owner), but it also returns a dynamic array, which is only supported for web3 calls, and not contract-to-contract calls (at this time).",
        "params": {
          "tokenOwner": "The owner whose tokens we are interested in."
        }
      },
      "totalSupply()": {
        "details": "Gets the total number of tokens ever minted."
      },
      "transferFrom(address,address,uint256)": {
        "details": "Transfers the ownership of a given token ID to another address. Usage of this method is discouraged, use {safeTransferFrom} whenever possible. Requires the msg.sender to be the owner, approved, or operator.",
        "params": {
          "from": "current owner of the token",
          "to": "address to receive the ownership of the given token ID",
          "tokenId": "uint256 ID of the token to be transferred"
        }
      },
      "transferOwnership1(address)": {
        "details": "Transfer owner (admin) functions to another address",
        "params": {
          "newOwner": "Address of new owner/ admin of contract"
        }
      },
      "unpause()": {
        "details": "Called by contract owner to unpause minting and transfers."
      },
      "updateMintFee(uint256)": {
        "details": "Update the fee (in wei) charged for minting a single token"
      },
      "updateRegistryAddress(address)": {
        "details": "Update contract address for Microsponsors Registry contract",
        "params": {
          "newAddress": "where the Registry contract lives"
        }
      },
      "withdrawBalance()": {
        "details": "Admin withdraws entire balance from contract."
      }
    },
    "title": "ERC721 Non-Fungible Token Standard basic implementation"
  },
  "userdoc": {
    "methods": {
      "tokenURI(uint256)": {
        "notice": "Throws if the token ID does not exist. May return an empty string."
      },
      "tokensMintedBy(address)": {
        "notice": "Return all the Token IDs minted by a given account."
      }
    }
  }
}