{
  "contractName": "Microsponsors",
  "abi": [
    {
      "constant": true,
      "inputs": [
        {
          "internalType": "bytes4",
          "name": "interfaceId",
          "type": "bytes4"
        }
      ],
      "name": "supportsInterface",
      "outputs": [
        {
          "internalType": "bool",
          "name": "",
          "type": "bool"
        }
      ],
      "payable": false,
      "stateMutability": "view",
      "type": "function"
    },
    {
      "constant": false,
      "inputs": [
        {
          "internalType": "string",
          "name": "contentId",
          "type": "string"
        },
        {
          "internalType": "string",
          "name": "propertyName",
          "type": "string"
        },
        {
          "internalType": "uint48",
          "name": "startTime",
          "type": "uint48"
        },
        {
          "internalType": "uint48",
          "name": "endTime",
          "type": "uint48"
        },
        {
          "internalType": "uint48",
          "name": "auctionEndTime",
          "type": "uint48"
        },
        {
          "internalType": "uint16",
          "name": "category",
          "type": "uint16"
        },
        {
          "internalType": "string",
          "name": "tokenURI",
          "type": "string"
        }
      ],
      "name": "mintWithTokenURI",
      "outputs": [
        {
          "internalType": "uint256",
          "name": "",
          "type": "uint256"
        }
      ],
      "payable": true,
      "stateMutability": "payable",
      "type": "function"
    },
    {
      "constant": true,
      "inputs": [
        {
          "internalType": "uint256",
          "name": "tokenId",
          "type": "uint256"
        }
      ],
      "name": "getApproved",
      "outputs": [
        {
          "internalType": "address",
          "name": "",
          "type": "address"
        }
      ],
      "payable": false,
      "stateMutability": "view",
      "type": "function"
    },
    {
      "constant": false,
      "inputs": [
        {
          "internalType": "address",
          "name": "to",
          "type": "address"
        },
        {
          "internalType": "uint256",
          "name": "tokenId",
          "type": "uint256"
        }
      ],
      "name": "approve",
      "outputs": [],
      "payable": false,
      "stateMutability": "nonpayable",
      "type": "function"
    },
    {
      "constant": true,
      "inputs": [],
      "name": "mintFee",
      "outputs": [
        {
          "internalType": "uint256",
          "name": "",
          "type": "uint256"
        }
      ],
      "payable": false,
      "stateMutability": "view",
      "type": "function"
    },
    {
      "constant": true,
      "inputs": [],
      "name": "totalSupply",
      "outputs": [
        {
          "internalType": "uint256",
          "name": "",
          "type": "uint256"
        }
      ],
      "payable": false,
      "stateMutability": "view",
      "type": "function"
    },
    {
      "constant": false,
      "inputs": [
        {
          "internalType": "string",
          "name": "contentId",
          "type": "string"
        },
        {
          "internalType": "string",
          "name": "propertyName",
          "type": "string"
        },
        {
          "internalType": "uint48",
          "name": "startTime",
          "type": "uint48"
        },
        {
          "internalType": "uint48",
          "name": "endTime",
          "type": "uint48"
        },
        {
          "internalType": "uint48",
          "name": "auctionEndTime",
          "type": "uint48"
        },
        {
          "internalType": "uint16",
          "name": "category",
          "type": "uint16"
        },
        {
          "internalType": "string",
          "name": "tokenURI",
          "type": "string"
        }
      ],
      "name": "safeMintWithTokenURI",
      "outputs": [
        {
          "internalType": "uint256",
          "name": "",
          "type": "uint256"
        }
      ],
      "payable": true,
      "stateMutability": "payable",
      "type": "function"
    },
    {
      "constant": false,
      "inputs": [
        {
          "internalType": "address",
          "name": "from",
          "type": "address"
        },
        {
          "internalType": "address",
          "name": "to",
          "type": "address"
        },
        {
          "internalType": "uint256",
          "name": "tokenId",
          "type": "uint256"
        }
      ],
      "name": "transferFrom",
      "outputs": [],
      "payable": false,
      "stateMutability": "nonpayable",
      "type": "function"
    },
    {
      "constant": true,
      "inputs": [
        {
          "internalType": "address",
          "name": "minter",
          "type": "address"
        }
      ],
      "name": "tokensMintedBy",
      "outputs": [
        {
          "internalType": "uint256[]",
          "name": "",
          "type": "uint256[]"
        }
      ],
      "payable": false,
      "stateMutability": "view",
      "type": "function"
    },
    {
      "constant": true,
      "inputs": [
        {
          "internalType": "address",
          "name": "target",
          "type": "address"
        }
      ],
      "name": "isWhitelisted",
      "outputs": [
        {
          "internalType": "bool",
          "name": "",
          "type": "bool"
        }
      ],
      "payable": false,
      "stateMutability": "view",
      "type": "function"
    },
    {
      "constant": false,
      "inputs": [],
      "name": "unpause",
      "outputs": [],
      "payable": false,
      "stateMutability": "nonpayable",
      "type": "function"
    },
    {
      "constant": false,
      "inputs": [
        {
          "internalType": "address",
          "name": "from",
          "type": "address"
        },
        {
          "internalType": "address",
          "name": "to",
          "type": "address"
        },
        {
          "internalType": "uint256",
          "name": "tokenId",
          "type": "uint256"
        }
      ],
      "name": "safeTransferFrom",
      "outputs": [],
      "payable": false,
      "stateMutability": "nonpayable",
      "type": "function"
    },
    {
      "constant": false,
      "inputs": [
        {
          "internalType": "uint256",
          "name": "tokenId",
          "type": "uint256"
        }
      ],
      "name": "burn",
      "outputs": [],
      "payable": false,
      "stateMutability": "nonpayable",
      "type": "function"
    },
    {
      "constant": true,
      "inputs": [],
      "name": "owner2",
      "outputs": [
        {
          "internalType": "address",
          "name": "",
          "type": "address"
        }
      ],
      "payable": false,
      "stateMutability": "view",
      "type": "function"
    },
    {
      "constant": true,
      "inputs": [],
      "name": "paused",
      "outputs": [
        {
          "internalType": "bool",
          "name": "",
          "type": "bool"
        }
      ],
      "payable": false,
      "stateMutability": "view",
      "type": "function"
    },
    {
      "constant": false,
      "inputs": [],
      "name": "withdrawBalance",
      "outputs": [],
      "payable": false,
      "stateMutability": "nonpayable",
      "type": "function"
    },
    {
      "constant": true,
      "inputs": [
        {
          "internalType": "uint256",
          "name": "tokenId",
          "type": "uint256"
        }
      ],
      "name": "ownerOf",
      "outputs": [
        {
          "internalType": "address",
          "name": "",
          "type": "address"
        }
      ],
      "payable": false,
      "stateMutability": "view",
      "type": "function"
    },
    {
      "constant": true,
      "inputs": [
        {
          "internalType": "address",
          "name": "tokenOwner",
          "type": "address"
        }
      ],
      "name": "balanceOf",
      "outputs": [
        {
          "internalType": "uint256",
          "name": "",
          "type": "uint256"
        }
      ],
      "payable": false,
      "stateMutability": "view",
      "type": "function"
    },
    {
      "constant": true,
      "inputs": [],
      "name": "owner1",
      "outputs": [
        {
          "internalType": "address",
          "name": "",
          "type": "address"
        }
      ],
      "payable": false,
      "stateMutability": "view",
      "type": "function"
    },
    {
      "constant": true,
      "inputs": [
        {
          "internalType": "address",
          "name": "minter",
          "type": "address"
        },
        {
          "internalType": "string",
          "name": "contentId",
          "type": "string"
        }
      ],
      "name": "tokenMinterPropertyNames",
      "outputs": [
        {
          "internalType": "string[]",
          "name": "",
          "type": "string[]"
        }
      ],
      "payable": false,
      "stateMutability": "view",
      "type": "function"
    },
    {
      "constant": true,
      "inputs": [],
      "name": "registry",
      "outputs": [
        {
          "internalType": "contract DeployedRegistry",
          "name": "",
          "type": "address"
        }
      ],
      "payable": false,
      "stateMutability": "view",
      "type": "function"
    },
    {
      "constant": false,
      "inputs": [
        {
          "internalType": "uint256",
          "name": "val",
          "type": "uint256"
        }
      ],
      "name": "updateMintFee",
      "outputs": [],
      "payable": false,
      "stateMutability": "nonpayable",
      "type": "function"
    },
    {
      "constant": false,
      "inputs": [],
      "name": "pause",
      "outputs": [],
      "payable": false,
      "stateMutability": "nonpayable",
      "type": "function"
    },
    {
      "constant": true,
      "inputs": [
        {
          "internalType": "address",
          "name": "tokenOwner",
          "type": "address"
        }
      ],
      "name": "tokensOfOwner",
      "outputs": [
        {
          "internalType": "uint256[]",
          "name": "",
          "type": "uint256[]"
        }
      ],
      "payable": false,
      "stateMutability": "view",
      "type": "function"
    },
    {
      "constant": false,
      "inputs": [
        {
          "internalType": "address",
          "name": "to",
          "type": "address"
        },
        {
          "internalType": "bool",
          "name": "approved",
          "type": "bool"
        }
      ],
      "name": "setApprovalForAll",
      "outputs": [],
      "payable": false,
      "stateMutability": "nonpayable",
      "type": "function"
    },
    {
      "constant": true,
      "inputs": [
        {
          "internalType": "address",
          "name": "minter",
          "type": "address"
        }
      ],
      "name": "tokenMinterContentIds",
      "outputs": [
        {
          "internalType": "string[]",
          "name": "",
          "type": "string[]"
        }
      ],
      "payable": false,
      "stateMutability": "view",
      "type": "function"
    },
    {
      "constant": true,
      "inputs": [
        {
          "internalType": "address",
          "name": "account",
          "type": "address"
        }
      ],
      "name": "isMinter",
      "outputs": [
        {
          "internalType": "bool",
          "name": "",
          "type": "bool"
        }
      ],
      "payable": false,
      "stateMutability": "view",
      "type": "function"
    },
    {
      "constant": false,
      "inputs": [
        {
          "internalType": "address",
          "name": "from",
          "type": "address"
        },
        {
          "internalType": "address",
          "name": "to",
          "type": "address"
        },
        {
          "internalType": "uint256",
          "name": "tokenId",
          "type": "uint256"
        },
        {
          "internalType": "bytes",
          "name": "data",
          "type": "bytes"
        }
      ],
      "name": "safeTransferFrom",
      "outputs": [],
      "payable": false,
      "stateMutability": "nonpayable",
      "type": "function"
    },
    {
      "constant": false,
      "inputs": [
        {
          "internalType": "string",
          "name": "contentId",
          "type": "string"
        },
        {
          "internalType": "string",
          "name": "propertyName",
          "type": "string"
        },
        {
          "internalType": "uint48",
          "name": "startTime",
          "type": "uint48"
        },
        {
          "internalType": "uint48",
          "name": "endTime",
          "type": "uint48"
        },
        {
          "internalType": "uint48",
          "name": "auctionEndTime",
          "type": "uint48"
        },
        {
          "internalType": "uint16",
          "name": "category",
          "type": "uint16"
        }
      ],
      "name": "safeMint",
      "outputs": [
        {
          "internalType": "uint256",
          "name": "",
          "type": "uint256"
        }
      ],
      "payable": true,
      "stateMutability": "payable",
      "type": "function"
    },
    {
      "constant": false,
      "inputs": [
        {
          "internalType": "string",
          "name": "contentId",
          "type": "string"
        },
        {
          "internalType": "string",
          "name": "propertyName",
          "type": "string"
        },
        {
          "internalType": "uint48",
          "name": "startTime",
          "type": "uint48"
        },
        {
          "internalType": "uint48",
          "name": "endTime",
          "type": "uint48"
        },
        {
          "internalType": "uint48",
          "name": "auctionEndTime",
          "type": "uint48"
        },
        {
          "internalType": "uint16",
          "name": "category",
          "type": "uint16"
        }
      ],
      "name": "mint",
      "outputs": [
        {
          "internalType": "uint256",
          "name": "",
          "type": "uint256"
        }
      ],
      "payable": true,
      "stateMutability": "payable",
      "type": "function"
    },
    {
      "constant": false,
      "inputs": [
        {
          "internalType": "address",
          "name": "newAddress",
          "type": "address"
        }
      ],
      "name": "updateRegistryAddress",
      "outputs": [],
      "payable": false,
      "stateMutability": "nonpayable",
      "type": "function"
    },
    {
      "constant": true,
      "inputs": [
        {
          "internalType": "uint256",
          "name": "tokenId",
          "type": "uint256"
        }
      ],
      "name": "tokenURI",
      "outputs": [
        {
          "internalType": "string",
          "name": "",
          "type": "string"
        }
      ],
      "payable": false,
      "stateMutability": "view",
      "type": "function"
    },
    {
      "constant": false,
      "inputs": [
        {
          "internalType": "address",
          "name": "newOwner",
          "type": "address"
        }
      ],
      "name": "transferOwnership2",
      "outputs": [],
      "payable": false,
      "stateMutability": "nonpayable",
      "type": "function"
    },
    {
      "constant": true,
      "inputs": [
        {
          "internalType": "uint256",
          "name": "tokenId",
          "type": "uint256"
        }
      ],
      "name": "tokenTimeSlot",
      "outputs": [
        {
          "internalType": "address",
          "name": "minter",
          "type": "address"
        },
        {
          "internalType": "address",
          "name": "owner",
          "type": "address"
        },
        {
          "internalType": "string",
          "name": "contentId",
          "type": "string"
        },
        {
          "internalType": "string",
          "name": "propertyName",
          "type": "string"
        },
        {
          "internalType": "uint48",
          "name": "startTime",
          "type": "uint48"
        },
        {
          "internalType": "uint48",
          "name": "endTime",
          "type": "uint48"
        },
        {
          "internalType": "uint48",
          "name": "auctionEndTime",
          "type": "uint48"
        },
        {
          "internalType": "uint16",
          "name": "category",
          "type": "uint16"
        }
      ],
      "payable": false,
      "stateMutability": "view",
      "type": "function"
    },
    {
      "constant": false,
      "inputs": [
        {
          "internalType": "address",
          "name": "newOwner",
          "type": "address"
        }
      ],
      "name": "transferOwnership1",
      "outputs": [],
      "payable": false,
      "stateMutability": "nonpayable",
      "type": "function"
    },
    {
      "constant": true,
      "inputs": [
        {
          "internalType": "address",
          "name": "tokenOwner",
          "type": "address"
        },
        {
          "internalType": "address",
          "name": "operator",
          "type": "address"
        }
      ],
      "name": "isApprovedForAll",
      "outputs": [
        {
          "internalType": "bool",
          "name": "",
          "type": "bool"
        }
      ],
      "payable": false,
      "stateMutability": "view",
      "type": "function"
    },
    {
      "constant": false,
      "inputs": [
        {
          "internalType": "string",
          "name": "contentId",
          "type": "string"
        },
        {
          "internalType": "string",
          "name": "propertyName",
          "type": "string"
        },
        {
          "internalType": "uint48",
          "name": "startTime",
          "type": "uint48"
        },
        {
          "internalType": "uint48",
          "name": "endTime",
          "type": "uint48"
        },
        {
          "internalType": "uint48",
          "name": "auctionEndTime",
          "type": "uint48"
        },
        {
          "internalType": "uint16",
          "name": "category",
          "type": "uint16"
        },
        {
          "internalType": "bytes",
          "name": "data",
          "type": "bytes"
        }
      ],
      "name": "safeMint",
      "outputs": [
        {
          "internalType": "uint256",
          "name": "",
          "type": "uint256"
        }
      ],
      "payable": true,
      "stateMutability": "payable",
      "type": "function"
    },
    {
      "inputs": [
        {
          "internalType": "string",
          "name": "name",
          "type": "string"
        },
        {
          "internalType": "string",
          "name": "symbol",
          "type": "string"
        },
        {
          "internalType": "address",
          "name": "registryAddress",
          "type": "address"
        }
      ],
      "payable": false,
      "stateMutability": "nonpayable",
      "type": "constructor"
    },
    {
      "anonymous": false,
      "inputs": [
        {
          "indexed": true,
          "internalType": "address",
          "name": "from",
          "type": "address"
        },
        {
          "indexed": true,
          "internalType": "address",
          "name": "to",
          "type": "address"
        },
        {
          "indexed": true,
          "internalType": "uint256",
          "name": "tokenId",
          "type": "uint256"
        }
      ],
      "name": "Transfer",
      "type": "event"
    },
    {
      "anonymous": false,
      "inputs": [
        {
          "indexed": true,
          "internalType": "address",
          "name": "tokenOwner",
          "type": "address"
        },
        {
          "indexed": true,
          "internalType": "address",
          "name": "approved",
          "type": "address"
        },
        {
          "indexed": true,
          "internalType": "uint256",
          "name": "tokenId",
          "type": "uint256"
        }
      ],
      "name": "Approval",
      "type": "event"
    },
    {
      "anonymous": false,
      "inputs": [
        {
          "indexed": true,
          "internalType": "address",
          "name": "tokenOwner",
          "type": "address"
        },
        {
          "indexed": true,
          "internalType": "address",
          "name": "operator",
          "type": "address"
        },
        {
          "indexed": false,
          "internalType": "bool",
          "name": "approved",
          "type": "bool"
        }
      ],
      "name": "ApprovalForAll",
      "type": "event"
    },
    {
      "constant": true,
      "inputs": [],
      "name": "name",
      "outputs": [
        {
          "internalType": "string",
          "name": "",
          "type": "string"
        }
      ],
      "payable": false,
      "stateMutability": "view",
      "type": "function"
    },
    {
      "constant": true,
      "inputs": [],
      "name": "symbol",
      "outputs": [
        {
          "internalType": "string",
          "name": "",
          "type": "string"
        }
      ],
      "payable": false,
      "stateMutability": "view",
      "type": "function"
    }
  ],
  "bytecode": "0x6080604052655af3107a4000600855600f805460ff191690553480156200002557600080fd5b50604051620041ac380380620041ac8339810160408190526200004891620003fc565b6200007c7f01ffc9a7000000000000000000000000000000000000000000000000000000006001600160e01b036200018c16565b620000b07f80ac58cd000000000000000000000000000000000000000000000000000000006001600160e01b036200018c16565b620000c36001600160e01b036200023116565b600180546001600160a01b0319166001600160a01b0392909216919091179055620000ed62000231565b600280546001600160a01b0319166001600160a01b0392909216919091179055825162000122906010906020860190620002eb565b50815162000138906011906020850190620002eb565b506200016d7f5b5e139f000000000000000000000000000000000000000000000000000000006001600160e01b036200018c16565b62000183816200023660201b6200167f1760201c565b505050620005d0565b7fffffffff000000000000000000000000000000000000000000000000000000008082161415620001f4576040517f08c379a0000000000000000000000000000000000000000000000000000000008152600401620001eb90620004f5565b60405180910390fd5b7fffffffff00000000000000000000000000000000000000000000000000000000166000908152602081905260409020805460ff19166001179055565b335b90565b6001546001600160a01b0316620002556001600160e01b036200023116565b6001600160a01b031614806200029057506002546001600160a01b0316620002856001600160e01b036200023116565b6001600160a01b0316145b620002c9576040517f08c379a0000000000000000000000000000000000000000000000000000000008152600401620001eb9062000507565b600380546001600160a01b0319166001600160a01b0392909216919091179055565b828054600181600116156101000203166002900490600052602060002090601f016020900481019282601f106200032e57805160ff19168380011785556200035e565b828001600101855582156200035e579182015b828111156200035e57825182559160200191906001019062000341565b506200036c92915062000370565b5090565b6200023391905b808211156200036c576000815560010162000377565b80516200039a81620005b6565b92915050565b600082601f830112620003b257600080fd5b8151620003c9620003c38262000540565b62000519565b91508082526020830160208301858383011115620003e657600080fd5b620003f383828462000583565b50505092915050565b6000806000606084860312156200041257600080fd5b83516001600160401b038111156200042957600080fd5b6200043786828701620003a0565b93505060208401516001600160401b038111156200045457600080fd5b6200046286828701620003a0565b925050604062000475868287016200038d565b9150509250925092565b60006200048e601c8362000568565b7f4552433136353a20696e76616c696420696e7465726661636520696400000000815260200192915050565b6000620004c9601b8362000568565b7f4552433732313a204f4e4c595f434f4e54524143545f4f574e45520000000000815260200192915050565b602080825281016200039a816200047f565b602080825281016200039a81620004ba565b6040518181016001600160401b03811182821017156200053857600080fd5b604052919050565b60006001600160401b038211156200055757600080fd5b506020601f91909101601f19160190565b90815260200190565b60006001600160a01b0382166200039a565b60005b83811015620005a057818101518382015260200162000586565b83811115620005b0576000848401525b50505050565b620005c18162000571565b8114620005cd57600080fd5b50565b613bcc80620005e06000396000f3fe6080604052600436106102305760003560e01c8063736889141161012e578063b88d4fde116100ab578063e2b375a91161006f578063e2b375a91461062e578063e5c249241461064e578063e982d5a914610682578063e985e9c5146106a2578063f91869d4146106c257610230565b8063b88d4fde146105a8578063bac10839146105c8578063bffb18f6146105db578063c57a8825146105ee578063c87b56dd1461060e57610230565b80638462151c116100f25780638462151c1461051357806395d89b4114610533578063a22cb46514610548578063a4ede12814610568578063aa271e1a1461058857610230565b8063736889141461047a5780637affcb9a1461048f5780637b103999146104bc57806384017e52146104de5780638456cb59146104fe57610230565b80632a0c7799116101bc578063527097251161018057806352709725146103fb5780635c975abb146104105780635fd8c710146104255780636352211e1461043a57806370a082311461045a57610230565b80632a0c7799146103595780633af32abf146103865780633f4ba83a146103a657806342842e0e146103bb57806342966c68146103db57610230565b8063095ea7b311610203578063095ea7b3146102da57806313966db5146102fc57806318160ddd1461031157806319f9eb021461032657806323b872dd1461033957610230565b806301ffc9a71461023557806305fe1a201461026b57806306fdde031461028b578063081812fc146102ad575b600080fd5b34801561024157600080fd5b50610255610250366004612c80565b6106d5565b6040516102629190613883565b60405180910390f35b61027e610279366004612d72565b6106f8565b6040516102629190613a50565b34801561029757600080fd5b506102a06107aa565b604051610262919061389f565b3480156102b957600080fd5b506102cd6102c8366004612e55565b610841565b604051610262919061378a565b3480156102e657600080fd5b506102fa6102f5366004612c32565b610884565b005b34801561030857600080fd5b5061027e6109a0565b34801561031d57600080fd5b5061027e6109a6565b61027e610334366004612d72565b6109b7565b34801561034557600080fd5b506102fa610354366004612ae6565b610a39565b34801561036557600080fd5b50610379610374366004612a8e565b610ad0565b6040516102629190613872565b34801561039257600080fd5b506102556103a1366004612a8e565b610bd8565b3480156103b257600080fd5b506102fa610c5f565b3480156103c757600080fd5b506102fa6103d6366004612ae6565b610cd9565b3480156103e757600080fd5b506102fa6103f6366004612e55565b610cf4565b34801561040757600080fd5b506102cd610d37565b34801561041c57600080fd5b50610255610d46565b34801561043157600080fd5b506102fa610d4f565b34801561044657600080fd5b506102cd610455366004612e55565b610e2b565b34801561046657600080fd5b5061027e610475366004612a8e565b610e46565b34801561048657600080fd5b506102cd610e8f565b34801561049b57600080fd5b506104af6104aa366004612bdc565b610e9e565b6040516102629190613861565b3480156104c857600080fd5b506104d161103e565b6040516102629190613891565b3480156104ea57600080fd5b506102fa6104f9366004612e55565b61104d565b34801561050a57600080fd5b506102fa6110b1565b34801561051f57600080fd5b5061037961052e366004612a8e565b61112f565b34801561053f57600080fd5b506102a06111e9565b34801561055457600080fd5b506102fa610563366004612bac565b61124a565b34801561057457600080fd5b506104af610583366004612a8e565b61134f565b34801561059457600080fd5b506102556105a3366004612a8e565b6114c5565b3480156105b457600080fd5b506102fa6105c3366004612b33565b6114d0565b61027e6105d6366004612cbc565b611569565b61027e6105e9366004612cbc565b611602565b3480156105fa57600080fd5b506102fa610609366004612a8e565b61167f565b34801561061a57600080fd5b506102a0610629366004612e55565b611700565b34801561063a57600080fd5b506102fa610649366004612a8e565b6117c6565b34801561065a57600080fd5b5061066e610669366004612e55565b611854565b604051610262989796959493929190613798565b34801561068e57600080fd5b506102fa61069d366004612a8e565b611a70565b3480156106ae57600080fd5b506102556106bd366004612aac565b611afe565b61027e6106d0366004612d72565b611b2c565b6001600160e01b0319811660009081526020819052604090205460ff165b919050565b60006107056105a3611bc0565b61072a5760405162461bcd60e51b8152600401610721906138d0565b60405180910390fd5b600f5460ff161561073a57600080fd5b60085434101561074957600080fd5b61075588878787611bc4565b6107715760405162461bcd60e51b815260040161072190613960565b600061078361077e611bc0565b611ccb565b9050610794818a8a8a8a8a8a611daa565b61079e8184612028565b98975050505050505050565b60108054604080516020601f60026000196101006001881615020190951694909404938401819004810282018101909252828152606093909290918301828280156108365780601f1061080b57610100808354040283529160200191610836565b820191906000526020600020905b81548152906001019060200180831161081957829003601f168201915b505050505090505b90565b600061084c8261206c565b6108685760405162461bcd60e51b8152600401610721906139b0565b506000908152600d60205260409020546001600160a01b031690565b61088f6103a1611bc0565b6108ab5760405162461bcd60e51b815260040161072190613a40565b600f5460ff16156108bb57600080fd5b60006108c682610e2b565b9050806001600160a01b0316836001600160a01b031614156108fa5760405162461bcd60e51b8152600401610721906139d0565b806001600160a01b031661090c611bc0565b6001600160a01b031614806109285750610928816106bd611bc0565b6109445760405162461bcd60e51b815260040161072190613990565b6000828152600d602052604080822080546001600160a01b0319166001600160a01b0387811691821790925591518593918516917f8c5be1e5ebec7d5bd14f71427d1e84f3dd0314c0f7b2291e5b200ac8c7c3b92591a4505050565b60085481565b60006109b26004612089565b905090565b60006109c46105a3611bc0565b6109e05760405162461bcd60e51b8152600401610721906138d0565b600f5460ff16156109f057600080fd5b6008543410156109ff57600080fd5b610a0b88878787611bc4565b610a275760405162461bcd60e51b815260040161072190613960565b6000610783610a34611bc0565b61208d565b600f5460ff1615610a4957600080fd5b610a5a610a54611bc0565b826120b0565b610a765760405162461bcd60e51b8152600401610721906139e0565b610a7f83610bd8565b610a9b5760405162461bcd60e51b815260040161072190613950565b610aa482610bd8565b610ac05760405162461bcd60e51b815260040161072190613950565b610acb83838361212d565b505050565b60606001600160a01b038216610af85760405162461bcd60e51b8152600401610721906138f0565b6001600160a01b0382166000908152600760205260408120610b1990612089565b905080610b3b5760408051600080825260208201909252905b509150506106f3565b606081604051908082528060200260200182016040528015610b67578160200160208202803883390190505b5090506000610b746109a6565b9050600060015b828111610bcb576000818152600960205260409020546001600160a01b0388811691161415610bc35780848381518110610bb157fe5b60209081029190910101526001909101905b600101610b7b565b83955050505050506106f3565b600354604051633af32abf60e01b81526000916001600160a01b031690633af32abf90610c0990859060040161378a565b60206040518083038186803b158015610c2157600080fd5b505afa158015610c35573d6000803e3d6000fd5b505050506040513d601f19601f82011682018060405250610c599190810190612c62565b92915050565b6001546001600160a01b0316610c73611bc0565b6001600160a01b03161480610ca257506002546001600160a01b0316610c97611bc0565b6001600160a01b0316145b610cbe5760405162461bcd60e51b815260040161072190613980565b600f5460ff16610ccd57600080fd5b600f805460ff19169055565b610acb838383604051806020016040528060008152506114d0565b600f5460ff1615610d0457600080fd5b610d0f610a54611bc0565b610d2b5760405162461bcd60e51b815260040161072190613a20565b610d3481612233565b50565b6002546001600160a01b031681565b600f5460ff1681565b6001546001600160a01b0316610d63611bc0565b6001600160a01b03161480610d9257506002546001600160a01b0316610d87611bc0565b6001600160a01b0316145b610dae5760405162461bcd60e51b815260040161072190613980565b60405130319060009033908390610dc49061377f565b60006040518083038185875af1925050503d8060008114610e01576040519150601f19603f3d011682016040523d82523d6000602084013e610e06565b606091505b5050905080610e275760405162461bcd60e51b8152600401610721906138e0565b5050565b6000908152600560205260409020546001600160a01b031690565b60006001600160a01b038216610e6e5760405162461bcd60e51b8152600401610721906138f0565b6001600160a01b0382166000908152600660205260409020610c5990612089565b6001546001600160a01b031681565b6001600160a01b0383166000908152600a60205260409081902090516060918291610ecc9086908690613766565b9081526020016040518091039020805480602002602001604051908101604052809291908181526020016000905b82821015610fb157600084815260209081902060408051918501805460026001821615610100026000190190911604601f8101859004850284018301835293830184815292939092849290918491840182828015610f995780601f10610f6e57610100808354040283529160200191610f99565b820191906000526020600020905b815481529060010190602001808311610f7c57829003601f168201915b50505050508152505081526020019060010190610efa565b50505050905060608151604051908082528060200260200182016040528015610fee57816020015b6060815260200190600190039081610fd95790505b50905060005b82518110156110345782818151811061100957fe5b60200260200101516000015182828151811061102157fe5b6020908102919091010152600101610ff4565b5095945050505050565b6003546001600160a01b031681565b6001546001600160a01b0316611061611bc0565b6001600160a01b0316148061109057506002546001600160a01b0316611085611bc0565b6001600160a01b0316145b6110ac5760405162461bcd60e51b815260040161072190613980565b600855565b6001546001600160a01b03166110c5611bc0565b6001600160a01b031614806110f457506002546001600160a01b03166110e9611bc0565b6001600160a01b0316145b6111105760405162461bcd60e51b815260040161072190613980565b600f5460ff161561112057600080fd5b600f805460ff19166001179055565b6060600061113c83610e46565b905080611159576040805160008082526020820190925290610b32565b606081604051908082528060200260200182016040528015611185578160200160208202803883390190505b50905060006111926109a6565b9050600060015b828111610bcb576000818152600560205260409020546001600160a01b03888116911614156111e157808483815181106111cf57fe5b60209081029190910101526001909101905b600101611199565b60118054604080516020601f60026000196101006001881615020190951694909404938401819004810282018101909252828152606093909290918301828280156108365780601f1061080b57610100808354040283529160200191610836565b6112556103a1611bc0565b6112715760405162461bcd60e51b815260040161072190613a40565b600f5460ff161561128157600080fd5b611289611bc0565b6001600160a01b0316826001600160a01b031614156112ba5760405162461bcd60e51b815260040161072190613920565b80600e60006112c7611bc0565b6001600160a01b03908116825260208083019390935260409182016000908120918716808252919093529120805460ff19169215159290921790915561130b611bc0565b6001600160a01b03167f17307eab39ab6107e8899845ad3d59bd9653f200f220920489ca2b5937696c31836040516113439190613883565b60405180910390a35050565b6001600160a01b0381166000908152600b602090815260408083208054825181850281018501909352808352606094859484015b8282101561143a57600084815260209081902060408051918501805460026001821615610100026000190190911604601f81018590048502840183018352938301848152929390928492909184918401828280156114225780601f106113f757610100808354040283529160200191611422565b820191906000526020600020905b81548152906001019060200180831161140557829003601f168201915b50505050508152505081526020019060010190611383565b5050505090506060815160405190808252806020026020018201604052801561147757816020015b60608152602001906001900390816114625790505b50905060005b82518110156114bd5782818151811061149257fe5b6020026020010151600001518282815181106114aa57fe5b602090810291909101015260010161147d565b509392505050565b6000610c5982610bd8565b600f5460ff16156114e057600080fd5b6114e984610bd8565b6115055760405162461bcd60e51b815260040161072190613950565b61150e83610bd8565b61152a5760405162461bcd60e51b815260040161072190613950565b61153b611535611bc0565b836120b0565b6115575760405162461bcd60e51b8152600401610721906139e0565b61156384848484612245565b50505050565b60006115766105a3611bc0565b6115925760405162461bcd60e51b8152600401610721906138d0565b600f5460ff16156115a257600080fd5b6008543410156115b157600080fd5b6115bd87868686611bc4565b6115d95760405162461bcd60e51b815260040161072190613960565b60006115e6610a34611bc0565b90506115f781898989898989611daa565b979650505050505050565b600061160f6105a3611bc0565b61162b5760405162461bcd60e51b8152600401610721906138d0565b600f5460ff161561163b57600080fd5b60085434101561164a57600080fd5b61165687868686611bc4565b6116725760405162461bcd60e51b815260040161072190613960565b60006115e661077e611bc0565b6001546001600160a01b0316611693611bc0565b6001600160a01b031614806116c257506002546001600160a01b03166116b7611bc0565b6001600160a01b0316145b6116de5760405162461bcd60e51b815260040161072190613980565b600380546001600160a01b0319166001600160a01b0392909216919091179055565b606061170b8261206c565b6117275760405162461bcd60e51b815260040161072190613a30565b6000828152600c602090815260409182902080548351601f6002600019610100600186161502019093169290920491820184900484028101840190945280845290918301828280156117ba5780601f1061178f576101008083540402835291602001916117ba565b820191906000526020600020905b81548152906001019060200180831161179d57829003601f168201915b50505050509050919050565b6001546001600160a01b03166117da611bc0565b6001600160a01b0316148061180957506002546001600160a01b03166117fe611bc0565b6001600160a01b0316145b6118255760405162461bcd60e51b815260040161072190613980565b6001600160a01b03811615610d3457600280546001600160a01b0383166001600160a01b031990911617905550565b6000806060806000806000806118698961206c565b6118855760405162461bcd60e51b8152600401610721906138b0565b61188d612884565b60008a815260096020908152604091829020825160e08101845281546001600160a01b03168152600180830180548651600261010094831615949094026000190190911692909204601f81018690048602830186019096528582529194929385810193919291908301828280156119455780601f1061191a57610100808354040283529160200191611945565b820191906000526020600020905b81548152906001019060200180831161192857829003601f168201915b5050509183525050600282810180546040805160206001841615610100026000190190931694909404601f810183900483028501830190915280845293810193908301828280156119d75780601f106119ac576101008083540402835291602001916119d7565b820191906000526020600020905b8154815290600101906020018083116119ba57829003601f168201915b50505091835250506003919091015465ffffffffffff80821660208401526601000000000000820481166040840152600160601b8204166060830152600160901b900461ffff166080909101528051909150611a328b610e2b565b602083015160408401516060850151608086015160a087015160c090970151959e50939c50919a509850965094509092509050919395975091939597565b6001546001600160a01b0316611a84611bc0565b6001600160a01b03161480611ab357506002546001600160a01b0316611aa8611bc0565b6001600160a01b0316145b611acf5760405162461bcd60e51b815260040161072190613980565b6001600160a01b03811615610d3457600180546001600160a01b0383166001600160a01b031990911617905550565b6001600160a01b039182166000908152600e6020908152604080832093909416825291909152205460ff1690565b6000611b396105a3611bc0565b611b555760405162461bcd60e51b8152600401610721906138d0565b600f5460ff1615611b6557600080fd5b600854341015611b7457600080fd5b611b8088878787611bc4565b611b9c5760405162461bcd60e51b815260040161072190613960565b6000611baf611ba9611bc0565b84612278565b905061079e818a8a8a8a8a8a611daa565b3390565b6003546040516323dd3a3d60e11b81526000916001600160a01b0316906347ba747a90611bf590889060040161389f565b60206040518083038186803b158015611c0d57600080fd5b505afa158015611c21573d6000803e3d6000fd5b505050506040513d601f19601f82011682018060405250611c459190810190612c62565b611c615760405162461bcd60e51b815260040161072190613970565b8165ffffffffffff168465ffffffffffff1611611c905760405162461bcd60e51b815260040161072190613930565b8365ffffffffffff168365ffffffffffff1611611cbf5760405162461bcd60e51b815260040161072190613900565b5060015b949350505050565b60006001600160a01b038216611cf35760405162461bcd60e51b8152600401610721906139a0565b611cfd60046122af565b6000611d096004612089565b600081815260056020908152604080832080546001600160a01b0319166001600160a01b038916908117909155835260069091529020909150611d4b906122af565b6001600160a01b0383166000908152600760205260409020611d6c906122af565b60405181906001600160a01b038516906000907fddf252ad1be2c89b69c2b068fc378daa952ba7f163c4a11628f55a4df523b3ef908290a492915050565b611db38761206c565b611dcf5760405162461bcd60e51b815260040161072190613a10565b611dd7612884565b6040518060e00160405280611dea611bc0565b6001600160a01b03908116825260208083018b905260408084018b905265ffffffffffff8a811660608601528981166080860152881660a085015261ffff871660c09094019390935260008c81526009825292909220835181546001600160a01b031916921691909117815582820151805193945084939192611e75926001850192909101906128c1565b5060408201518051611e919160028401916020909101906128c1565b50606082015160039091018054608084015160a085015160c09095015161ffff16600160901b0261ffff60901b1965ffffffffffff968716600160601b0265ffffffffffff60601b199388166601000000000000026bffffffffffff000000000000199890971665ffffffffffff19909516949094179690961694909417161792909216179055611f21876122b8565b611f8a57600b6000611f31611bc0565b6001600160a01b031681526020808201929092526040908101600090812082518085019093528a8352805460018101808355918352918490208351805192959190930192611f8592849291909101906128c1565b505050505b611f9487876123e3565b61201e57600a6000611fa4611bc0565b6001600160a01b03166001600160a01b0316815260200190815260200160002087604051611fd29190613773565b9081526040805191829003602090810183208382019092528883528154600181018084556000938452928290208451805194959491909201926120199284929101906128c1565b505050505b5050505050505050565b6120318261206c565b61204d5760405162461bcd60e51b815260040161072190613a00565b6000828152600c602090815260409091208251610acb928401906128c1565b6000908152600560205260409020546001600160a01b0316151590565b5490565b6000806120a98360405180602001604052806000815250612278565b9392505050565b60006120bb8261206c565b6120d75760405162461bcd60e51b815260040161072190613940565b60006120e283610e2b565b9050806001600160a01b0316846001600160a01b0316148061211d5750836001600160a01b031661211284610841565b6001600160a01b0316145b80611cc35750611cc38185611afe565b826001600160a01b031661214082610e2b565b6001600160a01b0316146121665760405162461bcd60e51b8152600401610721906139c0565b6001600160a01b03821661218c5760405162461bcd60e51b815260040161072190613910565b6121958161252a565b6001600160a01b03831660009081526006602052604090206121b690612565565b6001600160a01b03821660009081526006602052604090206121d7906122af565b60008181526005602052604080822080546001600160a01b0319166001600160a01b0386811691821790925591518493918716917fddf252ad1be2c89b69c2b068fc378daa952ba7f163c4a11628f55a4df523b3ef91a4505050565b610d3461223f82610e2b565b8261257c565b61225084848461212d565b61225c848484846126bb565b6115635760405162461bcd60e51b8152600401610721906138c0565b60008061228484611ccb565b905061229360008583866126bb565b6120a95760405162461bcd60e51b8152600401610721906138c0565b80546001019055565b336000908152600b602090815260408083208054825181850281018501909352808352606093859084015b8282101561239a57600084815260209081902060408051918501805460026001821615610100026000190190911604601f81018590048502840183018352938301848152929390928492909184918401828280156123825780601f1061235757610100808354040283529160200191612382565b820191906000526020600020905b81548152906001019060200180831161236557829003601f168201915b505050505081525050815260200190600101906122e3565b5092935060009250829150505b82518110156114bd576123d1858483815181106123c057fe5b602002602001015160000151612786565b156123db57600191505b6001016123a7565b336000908152600a6020526040808220905160609190612404908690613773565b9081526020016040518091039020805480602002602001604051908101604052809291908181526020016000905b828210156124e957600084815260209081902060408051918501805460026001821615610100026000190190911604601f81018590048502840183018352938301848152929390928492909184918401828280156124d15780601f106124a6576101008083540402835291602001916124d1565b820191906000526020600020905b8154815290600101906020018083116124b457829003601f168201915b50505050508152505081526020019060010190612432565b5092935060009250829150505b82518110156125215761250f858483815181106123c057fe5b1561251957600191505b6001016124f6565b50949350505050565b6000818152600d60205260409020546001600160a01b031615610d34576000908152600d6020526040902080546001600160a01b0319169055565b805461257890600163ffffffff6127df16565b9055565b816001600160a01b031661258f82610e2b565b6001600160a01b0316146125b55760405162461bcd60e51b8152600401610721906139f0565b6125be8161252a565b6001600160a01b03821660009081526006602052604090206125df90612565565b600081815260056020908152604080832080546001600160a01b0319169055600c9091529020546002600019600183161561010002019091160415612635576000818152600c602052604081206126359161293f565b600081815260096020526040812080546001600160a01b03191681559061265f600183018261293f565b61266d60028301600061293f565b5060030180546001600160a01b031916905560405181906000906001600160a01b038516907fddf252ad1be2c89b69c2b068fc378daa952ba7f163c4a11628f55a4df523b3ef908390a45050565b60006126cf846001600160a01b0316612821565b6126db57506001611cc3565b6000846001600160a01b031663150b7a026126f4611bc0565b8887876040518563ffffffff1660e01b8152600401612716949392919061381d565b602060405180830381600087803b15801561273057600080fd5b505af1158015612744573d6000803e3d6000fd5b505050506040513d601f19601f820116820180604052506127689190810190612c9e565b6001600160e01b031916630a85bd0160e11b14915050949350505050565b6000816040516020016127999190613773565b60405160208183030381529060405280519060200120836040516020016127c09190613773565b6040516020818303038152906040528051906020012014905092915050565b60006120a983836040518060400160405280601e81526020017f536166654d6174683a207375627472616374696f6e206f766572666c6f770000815250612858565b6000813f7fc5d2460186f7233c927e7db2dcc703c0e500b653ca82273b7bfad8045d85a4708115801590611cc35750141592915050565b6000818484111561287c5760405162461bcd60e51b8152600401610721919061389f565b505050900390565b6040805160e08101825260008082526060602083018190529282018390529181018290526080810182905260a0810182905260c081019190915290565b828054600181600116156101000203166002900490600052602060002090601f016020900481019282601f1061290257805160ff191683800117855561292f565b8280016001018555821561292f579182015b8281111561292f578251825591602001919060010190612914565b5061293b92915061297f565b5090565b50805460018160011615610100020316600290046000825580601f106129655750610d34565b601f016020900490600052602060002090810190610d3491905b61083e91905b8082111561293b5760008155600101612985565b8035610c5981613b48565b8035610c5981613b5c565b8051610c5981613b5c565b8035610c5981613b65565b8051610c5981613b65565b600082601f8301126129e157600080fd5b81356129f46129ef82613a85565b613a5e565b91508082526020830160208301858383011115612a1057600080fd5b612a1b838284613b06565b50505092915050565b60008083601f840112612a3657600080fd5b50813567ffffffffffffffff811115612a4e57600080fd5b602083019150836001820283011115612a6657600080fd5b9250929050565b8035610c5981613b6e565b8035610c5981613b77565b8035610c5981613b80565b600060208284031215612aa057600080fd5b6000611cc38484612999565b60008060408385031215612abf57600080fd5b6000612acb8585612999565b9250506020612adc85828601612999565b9150509250929050565b600080600060608486031215612afb57600080fd5b6000612b078686612999565b9350506020612b1886828701612999565b9250506040612b2986828701612a78565b9150509250925092565b60008060008060808587031215612b4957600080fd5b6000612b558787612999565b9450506020612b6687828801612999565b9350506040612b7787828801612a78565b925050606085013567ffffffffffffffff811115612b9457600080fd5b612ba0878288016129d0565b91505092959194509250565b60008060408385031215612bbf57600080fd5b6000612bcb8585612999565b9250506020612adc858286016129a4565b600080600060408486031215612bf157600080fd5b6000612bfd8686612999565b935050602084013567ffffffffffffffff811115612c1a57600080fd5b612c2686828701612a24565b92509250509250925092565b60008060408385031215612c4557600080fd5b6000612c518585612999565b9250506020612adc85828601612a78565b600060208284031215612c7457600080fd5b6000611cc384846129af565b600060208284031215612c9257600080fd5b6000611cc384846129ba565b600060208284031215612cb057600080fd5b6000611cc384846129c5565b60008060008060008060c08789031215612cd557600080fd5b863567ffffffffffffffff811115612cec57600080fd5b612cf889828a016129d0565b965050602087013567ffffffffffffffff811115612d1557600080fd5b612d2189828a016129d0565b9550506040612d3289828a01612a83565b9450506060612d4389828a01612a83565b9350506080612d5489828a01612a83565b92505060a0612d6589828a01612a6d565b9150509295509295509295565b600080600080600080600060e0888a031215612d8d57600080fd5b873567ffffffffffffffff811115612da457600080fd5b612db08a828b016129d0565b975050602088013567ffffffffffffffff811115612dcd57600080fd5b612dd98a828b016129d0565b9650506040612dea8a828b01612a83565b9550506060612dfb8a828b01612a83565b9450506080612e0c8a828b01612a83565b93505060a0612e1d8a828b01612a6d565b92505060c088013567ffffffffffffffff811115612e3a57600080fd5b612e468a828b016129d0565b91505092959891949750929550565b600060208284031215612e6757600080fd5b6000611cc38484612a78565b60006120a98383612f72565b6000612e8b8383613754565b505060200190565b612e9c81613ac0565b82525050565b6000612ead82613ab3565b612eb78185613ab7565b935083602082028501612ec985613aad565b8060005b85811015612f035784840389528151612ee68582612e73565b9450612ef183613aad565b60209a909a0199925050600101612ecd565b5091979650505050505050565b6000612f1b82613ab3565b612f258185613ab7565b9350612f3083613aad565b8060005b83811015612f5e578151612f488882612e7f565b9750612f5383613aad565b925050600101612f34565b509495945050505050565b612e9c81613acb565b6000612f7d82613ab3565b612f878185613ab7565b9350612f97818560208601613b12565b612fa081613b3e565b9093019392505050565b612e9c81613afb565b6000612fbf83856106f3565b9350612fcc838584613b06565b50500190565b6000612fdd82613ab3565b612fe781856106f3565b9350612ff7818560208601613b12565b9290920192915050565b600061300e601d83613ab7565b7f4552433732313a204e6f6e2d6578697374656e7420546f6b656e204944000000815260200192915050565b6000613047603283613ab7565b7f4552433732313a207472616e7366657220746f206e6f6e20455243373231526581527131b2b4bb32b91034b6b83632b6b2b73a32b960711b602082015260400192915050565b600061309b603583613ab7565b7f4552433732313a2063616c6c6572206973206e6f742077686974656c697374658152746420666f7220746865204d696e74657220726f6c6560581b602082015260400192915050565b60006130f2600f83613ab7565b6e15da5d1a191c985dc819985a5b1959608a1b815260200192915050565b600061311d602583613ab7565b7f4552433732313a2063616e6e6f7420717565727920746865207a65726f206164815264647265737360d81b602082015260400192915050565b6000613164602a83613ab7565b7f4552433732313a2073746172742074696d65206d757374206265206265666f728152696520656e642074696d6560b01b602082015260400192915050565b60006131b0602483613ab7565b7f4552433732313a207472616e7366657220746f20746865207a65726f206164648152637265737360e01b602082015260400192915050565b60006131f6601983613ab7565b7f4552433732313a20617070726f766520746f2063616c6c657200000000000000815260200192915050565b600061322f603583613ab7565b7f4552433732313a2073746172742074696d65206d757374206265206166746572815274206974732061756374696f6e20656e642074696d6560581b602082015260400192915050565b6000613286602c83613ab7565b7f4552433732313a206f70657261746f7220717565727920666f72206e6f6e657881526b34b9ba32b73a103a37b5b2b760a11b602082015260400192915050565b60006132d4603483613ab7565b7f4552433732313a207472616e73666572207265737472696374656420746f2077815273686974656c69737465642061646472657373657360601b602082015260400192915050565b600061332a601983613ab7565b7f4552433732313a20696e76616c69642074696d6520736c6f7400000000000000815260200192915050565b6000613363602e83613ab7565b7f4552433732313a20636f6e74656e74206964206973206e6f742072656769737481526d32b932b2103a379031b0b63632b960911b602082015260400192915050565b60006133b3601b83613ab7565b7f4552433732313a204f4e4c595f434f4e54524143545f4f574e45520000000000815260200192915050565b60006133ec603e83613ab7565b7f4552433732313a20617070726f76652063616c6c6572206973206e6f7420746f81527f6b656e206f776e6572206e6f7220617070726f76656420666f7220616c6c0000602082015260400192915050565b600061344b602083613ab7565b7f4552433732313a206d696e7420746f20746865207a65726f2061646472657373815260200192915050565b6000613484602c83613ab7565b7f4552433732313a20617070726f76656420717565727920666f72206e6f6e657881526b34b9ba32b73a103a37b5b2b760a11b602082015260400192915050565b60006134d2602983613ab7565b7f4552433732313a207472616e73666572206f6620746f6b656e2074686174206981526839903737ba1037bbb760b91b602082015260400192915050565b600061351d601d83613ab7565b7f4552433732313a20617070726f76616c20697320726564756e64616e74000000815260200192915050565b6000610c596000836106f3565b6000613563603183613ab7565b7f4552433732313a207472616e736665722063616c6c6572206973206e6f74206f8152701ddb995c881b9bdc88185c1c1c9bdd9959607a1b602082015260400192915050565b60006135b6602583613ab7565b7f4552433732313a206275726e206f6620746f6b656e2074686174206973206e6f8152643a1037bbb760d91b602082015260400192915050565b60006135fd602483613ab7565b7f4552433732313a2055524920736574206f66206e6f6e6578697374656e74207481526337b5b2b760e11b602082015260400192915050565b6000613643601a83613ab7565b7f4552433732313a206e6f6e2d6578697374656e7420746f6b656e000000000000815260200192915050565b600061367c602e83613ab7565b7f4552433732313a2063616c6c6572206973206e6f7420746f6b656e206f776e6581526d1c881b9bdc88185c1c1c9bdd995960921b602082015260400192915050565b60006136cc602783613ab7565b7f4552433732313a2055524920717565727920666f72206e6f6e6578697374656e8152663a103a37b5b2b760c91b602082015260400192915050565b6000613715602183613ab7565b7f4552433732313a2063616c6c6572206973206e6f742077686974656c697374658152601960fa1b602082015260400192915050565b612e9c81613add565b612e9c8161083e565b612e9c81613af0565b6000611cc3828486612fb3565b60006120a98284612fd2565b6000610c5982613549565b60208101610c598284612e93565b61010081016137a7828b612e93565b6137b4602083018a612e93565b81810360408301526137c68189612f72565b905081810360608301526137da8188612f72565b90506137e9608083018761375d565b6137f660a083018661375d565b61380360c083018561375d565b61381060e083018461374b565b9998505050505050505050565b6080810161382b8287612e93565b6138386020830186612e93565b6138456040830185613754565b81810360608301526138578184612f72565b9695505050505050565b602080825281016120a98184612ea2565b602080825281016120a98184612f10565b60208101610c598284612f69565b60208101610c598284612faa565b602080825281016120a98184612f72565b60208082528101610c5981613001565b60208082528101610c598161303a565b60208082528101610c598161308e565b60208082528101610c59816130e5565b60208082528101610c5981613110565b60208082528101610c5981613157565b60208082528101610c59816131a3565b60208082528101610c59816131e9565b60208082528101610c5981613222565b60208082528101610c5981613279565b60208082528101610c59816132c7565b60208082528101610c598161331d565b60208082528101610c5981613356565b60208082528101610c59816133a6565b60208082528101610c59816133df565b60208082528101610c598161343e565b60208082528101610c5981613477565b60208082528101610c59816134c5565b60208082528101610c5981613510565b60208082528101610c5981613556565b60208082528101610c59816135a9565b60208082528101610c59816135f0565b60208082528101610c5981613636565b60208082528101610c598161366f565b60208082528101610c59816136bf565b60208082528101610c5981613708565b60208101610c598284613754565b60405181810167ffffffffffffffff81118282101715613a7d57600080fd5b604052919050565b600067ffffffffffffffff821115613a9c57600080fd5b506020601f91909101601f19160190565b60200190565b5190565b90815260200190565b6000610c5982613ae4565b151590565b6001600160e01b03191690565b61ffff1690565b6001600160a01b031690565b65ffffffffffff1690565b6000610c5982613ac0565b82818337506000910152565b60005b83811015613b2d578181015183820152602001613b15565b838111156115635750506000910152565b601f01601f191690565b613b5181613ac0565b8114610d3457600080fd5b613b5181613acb565b613b5181613ad0565b613b5181613add565b613b518161083e565b613b5181613af056fea365627a7a72315820f1e868db813037633aed9f81cf79367444a8ead9b480f6c89cf98bcc6d9093ab6c6578706572696d656e74616cf564736f6c634300050b0040",
  "source": "pragma solidity ^0.5.11;\npragma experimental ABIEncoderV2;\n\nimport \"./ERC721.sol\";\n\n/**\n * Customized for Microsponsors\n * from Open Zeppelin's ERC721Metadata contract, which is MIT Licensed:\n * https://github.com/OpenZeppelin/openzeppelin-contracts/blob/master/contracts/token/ERC721/ERC721Metadata.sol\n\n\n  Copyright 2019 Niche Networks, Inc. (owns & operates Microsponsors.io)\n\n  Licensed under the Apache License, Version 2.0 (the \"License\");\n  you may not use this file except in compliance with the License.\n  You may obtain a copy of the License at\n\n    http://www.apache.org/licenses/LICENSE-2.0\n\n  Unless required by applicable law or agreed to in writing, software\n  distributed under the License is distributed on an \"AS IS\" BASIS,\n  WITHOUT WARRANTIES OR CONDITIONS OF ANY KIND, either express or implied.\n  See the License for the specific language governing permissions and\n  limitations under the License.\n\n*/\n\ncontract Microsponsors is ERC721 {\n\n    // Token name\n    string private _name;\n\n    // Token symbol\n    string private _symbol;\n\n\n    /*\n     *     bytes4(keccak256('name()')) == 0x06fdde03\n     *     bytes4(keccak256('symbol()')) == 0x95d89b41\n     *     bytes4(keccak256('tokenURI(uint256)')) == 0xc87b56dd\n     *\n     *     => 0x06fdde03 ^ 0x95d89b41 ^ 0xc87b56dd == 0x5b5e139f\n     */\n    bytes4 private constant _INTERFACE_ID_ERC721_METADATA = 0x5b5e139f;\n\n    /**\n     * @dev Constructor function\n     */\n    constructor (string memory name, string memory symbol, address registryAddress) public {\n\n        _name = name;\n        _symbol = symbol;\n\n        // register the supported interfaces to conform to ERC721 via ERC165\n        _registerInterface(_INTERFACE_ID_ERC721_METADATA);\n\n        super.updateRegistryAddress(registryAddress);\n\n    }\n\n    /**\n     * @dev Gets the token name.\n     * @return string representing the token name\n     */\n    function name() external view returns (string memory) {\n        return _name;\n    }\n\n    /**\n     * @dev Gets the token symbol.\n     * @return string representing the token symbol\n     */\n    function symbol() external view returns (string memory) {\n        return _symbol;\n    }\n\n}\n",
  "sourcePath": "/Users/lauren/github/erc-721/contracts/Microsponsors.sol",
  "compiler": {
    "name": "solc",
    "version": "0.5.11+commit.c082d0b4.Emscripten.clang"
  },
  "schemaVersion": "3.0.10",
  "updatedAt": "2019-12-31T03:38:23.465Z",
  "devdoc": {
    "methods": {
      "approve(address,uint256)": {
        "details": "Approves another address to transfer the given token ID The zero address indicates there is no approved address. There can only be one approved address per token at a given time. Can only be called by the token owner or an approved operator.",
        "params": {
          "to": "address to be approved for the given token ID",
          "tokenId": "uint256 ID of the token to be approved"
        }
      },
      "balanceOf(address)": {
        "details": "Gets the balance of the specified address.",
        "params": {
          "tokenOwner": "address to query the balance of"
        },
        "return": "uint256 representing the amount owned by the passed address"
      },
      "burn(uint256)": {
        "details": "Customized for MicrosponsorsBurns a specific ERC721 token.",
        "params": {
          "tokenId": "uint256 id of the ERC721 token to be burned"
        }
      },
      "constructor": {
        "details": "Constructor function"
      },
      "getApproved(uint256)": {
        "details": "Gets the approved address for a token ID, or zero if no address set Reverts if the token ID does not exist.",
        "params": {
          "tokenId": "uint256 ID of the token to query the approval of"
        },
        "return": "address currently approved for the given token ID"
      },
      "isApprovedForAll(address,address)": {
        "details": "Tells whether an operator is approved by a given token owner.",
        "params": {
          "operator": "operator address which you want to query the approval of",
          "tokenOwner": "token owner address which you want to query the approval of"
        },
        "return": "bool whether the given operator is approved by the token owner"
      },
      "isMinter(address)": {
        "details": "Checks if minter isWhitelisted()"
      },
      "isWhitelisted(address)": {
        "details": "Checks Registry contract for whitelisted status",
        "params": {
          "target": "The address to check"
        }
      },
      "mint(string,string,uint48,uint48,uint48,uint16)": {
        "details": "Function to mint tokens.",
        "return": "tokenId"
      },
      "mintWithTokenURI(string,string,uint48,uint48,uint48,uint16,string)": {
        "details": "Function to mint tokens.",
        "params": {
          "tokenURI": "The token URI of the minted token."
        },
        "return": "tokenId"
      },
      "name()": {
        "details": "Gets the token name.",
        "return": "string representing the token name"
      },
      "ownerOf(uint256)": {
        "details": "Gets the owner of the specified token ID.",
        "params": {
          "tokenId": "uint256 ID of the token to query the owner of"
        },
        "return": "address currently marked as the owner of the given token ID"
      },
      "pause()": {
        "details": "Called by contract owner to pause actions on this contract"
      },
      "safeMint(string,string,uint48,uint48,uint48,uint16)": {
        "details": "Function to safely mint tokens.",
        "return": "tokenId"
      },
      "safeMint(string,string,uint48,uint48,uint48,uint16,bytes)": {
        "details": "Function to safely mint tokens.",
        "params": {
          "data": "bytes data to send along with a safe transfer check."
        },
        "return": "tokenId"
      },
      "safeMintWithTokenURI(string,string,uint48,uint48,uint48,uint16,string)": {
        "params": {
          "tokenURI": "The token URI of the minted token."
        },
        "return": "tokenId"
      },
      "safeTransferFrom(address,address,uint256)": {
        "details": "Safely transfers the ownership of a given token ID to another address If the target address is a contract, it must implement {IERC721Receiver-onERC721Received}, which is called upon a safe transfer, and return the magic value `bytes4(keccak256(\"onERC721Received(address,address,uint256,bytes)\"))`; otherwise, the transfer is reverted. Requires the msg.sender to be the owner, approved, or operator",
        "params": {
          "from": "current owner of the token",
          "to": "address to receive the ownership of the given token ID",
          "tokenId": "uint256 ID of the token to be transferred"
        }
      },
      "safeTransferFrom(address,address,uint256,bytes)": {
        "details": "Safely transfers the ownership of a given token ID to another address If the target address is a contract, it must implement {IERC721Receiver-onERC721Received}, which is called upon a safe transfer, and return the magic value `bytes4(keccak256(\"onERC721Received(address,address,uint256,bytes)\"))`; otherwise, the transfer is reverted. Requires the _msgSender() to be the owner, approved, or operator",
        "params": {
          "data": "bytes data to send along with a safe transfer check",
          "from": "current owner of the token",
          "to": "address to receive the ownership of the given token ID",
          "tokenId": "uint256 ID of the token to be transferred"
        }
      },
      "setApprovalForAll(address,bool)": {
        "details": "Sets or unsets the approval of a given operator An operator is allowed to transfer all tokens of the sender on their behalf.",
        "params": {
          "approved": "representing the status of the approval to be set",
          "to": "operator address to set the approval"
        }
      },
      "supportsInterface(bytes4)": {
        "details": "See {IERC165-supportsInterface}.     * Time complexity O(1), guaranteed to always use less than 30 000 gas."
      },
      "symbol()": {
        "details": "Gets the token symbol.",
        "return": "string representing the token symbol"
      },
      "tokenMinterContentIds(address)": {
        "details": "Look up all Content IDs a Minter has tokenized TimeSlots for.      We're not getting this from the Registry because we want to keep      a separate record here of all Content ID's the acct has *ever*      minted tokens for. The registry is for keeping track of their      current (not necessarily past) Content ID registrations."
      },
      "tokenMinterPropertyNames(address,string)": {
        "details": "Look up all Property Names a Minter has created Time Slots for      with a particular Content ID"
      },
      "tokenURI(uint256)": {
        "params": {
          "tokenId": "uint256 ID of the token to query"
        },
        "return": "URI for a given token ID."
      },
      "tokensMintedBy(address)": {
        "details": "This method MUST NEVER be called by smart contract code. First, it's fairly expensive (it walks the entire _tokenIds array looking for tokens belonging to minter), but it also returns a dynamic array, which is only supported for web3 calls, and not contract-to-contract calls (at this time)."
      },
      "tokensOfOwner(address)": {
        "details": "This method MUST NEVER be called by smart contract code. First, it's fairly expensive (it walks the entire _tokenIds array looking for tokens belonging to owner), but it also returns a dynamic array, which is only supported for web3 calls, and not contract-to-contract calls (at this time).",
        "params": {
          "tokenOwner": "The owner whose tokens we are interested in."
        }
      },
      "totalSupply()": {
        "details": "Gets the total number of tokens ever minted."
      },
      "transferFrom(address,address,uint256)": {
        "details": "Transfers the ownership of a given token ID to another address. Usage of this method is discouraged, use {safeTransferFrom} whenever possible. Requires the msg.sender to be the owner, approved, or operator.",
        "params": {
          "from": "current owner of the token",
          "to": "address to receive the ownership of the given token ID",
          "tokenId": "uint256 ID of the token to be transferred"
        }
      },
      "transferOwnership1(address)": {
        "details": "Transfer owner (admin) functions to another address",
        "params": {
          "newOwner": "Address of new owner/ admin of contract"
        }
      },
      "unpause()": {
        "details": "Called by contract owner to unpause the smart contract."
      },
      "updateMintFee(uint256)": {
        "details": "Update the fee (in wei) charged for minting a single token"
      },
      "updateRegistryAddress(address)": {
        "details": "Update contract address for Microsponsors Registry contract",
        "params": {
          "newAddress": "where the Registry contract lives"
        }
      }
    }
  },
  "userdoc": {
    "methods": {
      "tokenURI(uint256)": {
        "notice": "Throws if the token ID does not exist. May return an empty string."
      },
      "tokensMintedBy(address)": {
        "notice": "Return all the Token IDs minted by a given account."
      },
      "unpause()": {
        "notice": "This is public rather than external so it can be called by  derived contracts."
      },
      "withdrawBalance()": {
        "notice": "* Withdraw **"
      }
    },
    "notice": "Customized for Microsponsors from Open Zeppelin's ERC721Metadata contract, which is MIT Licensed: https://github.com/OpenZeppelin/openzeppelin-contracts/blob/master/contracts/token/ERC721/ERC721Metadata.sol Copyright 2019 Niche Networks, Inc. (owns & operates Microsponsors.io) Licensed under the Apache License, Version 2.0 (the \"License\"); you may not use this file except in compliance with the License. You may obtain a copy of the License at http://www.apache.org/licenses/LICENSE-2.0 Unless required by applicable law or agreed to in writing, software distributed under the License is distributed on an \"AS IS\" BASIS, WITHOUT WARRANTIES OR CONDITIONS OF ANY KIND, either express or implied. See the License for the specific language governing permissions and limitations under the License."
  }
}