{
  "contractName": "Microsponsors",
  "abi": [
    {
      "constant": true,
      "inputs": [
        {
          "internalType": "bytes4",
          "name": "interfaceId",
          "type": "bytes4"
        }
      ],
      "name": "supportsInterface",
      "outputs": [
        {
          "internalType": "bool",
          "name": "",
          "type": "bool"
        }
      ],
      "payable": false,
      "stateMutability": "view",
      "type": "function"
    },
    {
      "constant": true,
      "inputs": [
        {
          "internalType": "uint256",
          "name": "tokenId",
          "type": "uint256"
        }
      ],
      "name": "getApproved",
      "outputs": [
        {
          "internalType": "address",
          "name": "",
          "type": "address"
        }
      ],
      "payable": false,
      "stateMutability": "view",
      "type": "function"
    },
    {
      "constant": false,
      "inputs": [
        {
          "internalType": "address",
          "name": "to",
          "type": "address"
        },
        {
          "internalType": "uint256",
          "name": "tokenId",
          "type": "uint256"
        }
      ],
      "name": "approve",
      "outputs": [],
      "payable": false,
      "stateMutability": "nonpayable",
      "type": "function"
    },
    {
      "constant": true,
      "inputs": [],
      "name": "mintFee",
      "outputs": [
        {
          "internalType": "uint256",
          "name": "",
          "type": "uint256"
        }
      ],
      "payable": false,
      "stateMutability": "view",
      "type": "function"
    },
    {
      "constant": true,
      "inputs": [
        {
          "internalType": "uint256",
          "name": "",
          "type": "uint256"
        }
      ],
      "name": "tokenToFederationId",
      "outputs": [
        {
          "internalType": "uint32",
          "name": "",
          "type": "uint32"
        }
      ],
      "payable": false,
      "stateMutability": "view",
      "type": "function"
    },
    {
      "constant": true,
      "inputs": [],
      "name": "totalSupply",
      "outputs": [
        {
          "internalType": "uint256",
          "name": "",
          "type": "uint256"
        }
      ],
      "payable": false,
      "stateMutability": "view",
      "type": "function"
    },
    {
      "constant": false,
      "inputs": [
        {
          "internalType": "address",
          "name": "from",
          "type": "address"
        },
        {
          "internalType": "address",
          "name": "to",
          "type": "address"
        },
        {
          "internalType": "uint256",
          "name": "tokenId",
          "type": "uint256"
        }
      ],
      "name": "transferFrom",
      "outputs": [],
      "payable": false,
      "stateMutability": "nonpayable",
      "type": "function"
    },
    {
      "constant": true,
      "inputs": [
        {
          "internalType": "address",
          "name": "minter",
          "type": "address"
        }
      ],
      "name": "tokensMintedBy",
      "outputs": [
        {
          "internalType": "uint256[]",
          "name": "",
          "type": "uint256[]"
        }
      ],
      "payable": false,
      "stateMutability": "view",
      "type": "function"
    },
    {
      "constant": false,
      "inputs": [],
      "name": "unpause",
      "outputs": [],
      "payable": false,
      "stateMutability": "nonpayable",
      "type": "function"
    },
    {
      "constant": false,
      "inputs": [
        {
          "internalType": "address",
          "name": "from",
          "type": "address"
        },
        {
          "internalType": "address",
          "name": "to",
          "type": "address"
        },
        {
          "internalType": "uint256",
          "name": "tokenId",
          "type": "uint256"
        }
      ],
      "name": "safeTransferFrom",
      "outputs": [],
      "payable": false,
      "stateMutability": "nonpayable",
      "type": "function"
    },
    {
      "constant": false,
      "inputs": [
        {
          "internalType": "uint256",
          "name": "tokenId",
          "type": "uint256"
        }
      ],
      "name": "burn",
      "outputs": [],
      "payable": false,
      "stateMutability": "nonpayable",
      "type": "function"
    },
    {
      "constant": true,
      "inputs": [],
      "name": "owner2",
      "outputs": [
        {
          "internalType": "address",
          "name": "",
          "type": "address"
        }
      ],
      "payable": false,
      "stateMutability": "view",
      "type": "function"
    },
    {
      "constant": false,
      "inputs": [
        {
          "internalType": "string",
          "name": "contentId",
          "type": "string"
        },
        {
          "internalType": "uint48",
          "name": "startTime",
          "type": "uint48"
        },
        {
          "internalType": "uint48",
          "name": "endTime",
          "type": "uint48"
        },
        {
          "internalType": "bool",
          "name": "isSecondaryTradingEnabled",
          "type": "bool"
        },
        {
          "internalType": "uint32",
          "name": "federationId",
          "type": "uint32"
        },
        {
          "internalType": "bytes",
          "name": "data",
          "type": "bytes"
        }
      ],
      "name": "safeMint",
      "outputs": [
        {
          "internalType": "uint256",
          "name": "",
          "type": "uint256"
        }
      ],
      "payable": true,
      "stateMutability": "payable",
      "type": "function"
    },
    {
      "constant": true,
      "inputs": [],
      "name": "paused",
      "outputs": [
        {
          "internalType": "bool",
          "name": "",
          "type": "bool"
        }
      ],
      "payable": false,
      "stateMutability": "view",
      "type": "function"
    },
    {
      "constant": false,
      "inputs": [],
      "name": "withdrawBalance",
      "outputs": [],
      "payable": false,
      "stateMutability": "nonpayable",
      "type": "function"
    },
    {
      "constant": true,
      "inputs": [
        {
          "internalType": "uint256",
          "name": "tokenId",
          "type": "uint256"
        }
      ],
      "name": "ownerOf",
      "outputs": [
        {
          "internalType": "address",
          "name": "",
          "type": "address"
        }
      ],
      "payable": false,
      "stateMutability": "view",
      "type": "function"
    },
    {
      "constant": true,
      "inputs": [
        {
          "internalType": "address",
          "name": "tokenOwner",
          "type": "address"
        }
      ],
      "name": "balanceOf",
      "outputs": [
        {
          "internalType": "uint256",
          "name": "",
          "type": "uint256"
        }
      ],
      "payable": false,
      "stateMutability": "view",
      "type": "function"
    },
    {
      "constant": true,
      "inputs": [],
      "name": "owner1",
      "outputs": [
        {
          "internalType": "address",
          "name": "",
          "type": "address"
        }
      ],
      "payable": false,
      "stateMutability": "view",
      "type": "function"
    },
    {
      "constant": false,
      "inputs": [
        {
          "internalType": "string",
          "name": "val",
          "type": "string"
        }
      ],
      "name": "updateTokenURIBaseUrl",
      "outputs": [],
      "payable": false,
      "stateMutability": "nonpayable",
      "type": "function"
    },
    {
      "constant": true,
      "inputs": [],
      "name": "registry",
      "outputs": [
        {
          "internalType": "contract DeployedRegistry",
          "name": "",
          "type": "address"
        }
      ],
      "payable": false,
      "stateMutability": "view",
      "type": "function"
    },
    {
      "constant": false,
      "inputs": [
        {
          "internalType": "uint256",
          "name": "val",
          "type": "uint256"
        }
      ],
      "name": "updateMintFee",
      "outputs": [],
      "payable": false,
      "stateMutability": "nonpayable",
      "type": "function"
    },
    {
      "constant": false,
      "inputs": [],
      "name": "pause",
      "outputs": [],
      "payable": false,
      "stateMutability": "nonpayable",
      "type": "function"
    },
    {
      "constant": true,
      "inputs": [
        {
          "internalType": "address",
          "name": "tokenOwner",
          "type": "address"
        }
      ],
      "name": "tokensOfOwner",
      "outputs": [
        {
          "internalType": "uint256[]",
          "name": "",
          "type": "uint256[]"
        }
      ],
      "payable": false,
      "stateMutability": "view",
      "type": "function"
    },
    {
      "constant": false,
      "inputs": [
        {
          "internalType": "string",
          "name": "contentId",
          "type": "string"
        },
        {
          "internalType": "uint48",
          "name": "startTime",
          "type": "uint48"
        },
        {
          "internalType": "uint48",
          "name": "endTime",
          "type": "uint48"
        },
        {
          "internalType": "bool",
          "name": "isSecondaryTradingEnabled",
          "type": "bool"
        },
        {
          "internalType": "uint32",
          "name": "federationId",
          "type": "uint32"
        }
      ],
      "name": "safeMint",
      "outputs": [
        {
          "internalType": "uint256",
          "name": "",
          "type": "uint256"
        }
      ],
      "payable": true,
      "stateMutability": "payable",
      "type": "function"
    },
    {
      "constant": false,
      "inputs": [
        {
          "internalType": "address",
          "name": "to",
          "type": "address"
        },
        {
          "internalType": "bool",
          "name": "approved",
          "type": "bool"
        }
      ],
      "name": "setApprovalForAll",
      "outputs": [],
      "payable": false,
      "stateMutability": "nonpayable",
      "type": "function"
    },
    {
      "constant": true,
      "inputs": [
        {
          "internalType": "address",
          "name": "minter",
          "type": "address"
        }
      ],
      "name": "tokenMinterContentIds",
      "outputs": [
        {
          "internalType": "string[]",
          "name": "",
          "type": "string[]"
        }
      ],
      "payable": false,
      "stateMutability": "view",
      "type": "function"
    },
    {
      "constant": false,
      "inputs": [
        {
          "internalType": "address",
          "name": "from",
          "type": "address"
        },
        {
          "internalType": "address",
          "name": "to",
          "type": "address"
        },
        {
          "internalType": "uint256",
          "name": "tokenId",
          "type": "uint256"
        },
        {
          "internalType": "bytes",
          "name": "data",
          "type": "bytes"
        }
      ],
      "name": "safeTransferFrom",
      "outputs": [],
      "payable": false,
      "stateMutability": "nonpayable",
      "type": "function"
    },
    {
      "constant": false,
      "inputs": [
        {
          "internalType": "address",
          "name": "newAddress",
          "type": "address"
        }
      ],
      "name": "updateRegistryAddress",
      "outputs": [],
      "payable": false,
      "stateMutability": "nonpayable",
      "type": "function"
    },
    {
      "constant": true,
      "inputs": [
        {
          "internalType": "uint256",
          "name": "tokenId",
          "type": "uint256"
        }
      ],
      "name": "tokenURI",
      "outputs": [
        {
          "internalType": "string",
          "name": "",
          "type": "string"
        }
      ],
      "payable": false,
      "stateMutability": "view",
      "type": "function"
    },
    {
      "constant": false,
      "inputs": [
        {
          "internalType": "address",
          "name": "newOwner",
          "type": "address"
        }
      ],
      "name": "transferOwnership2",
      "outputs": [],
      "payable": false,
      "stateMutability": "nonpayable",
      "type": "function"
    },
    {
      "constant": true,
      "inputs": [],
      "name": "tokenURIBaseUrl",
      "outputs": [
        {
          "internalType": "string",
          "name": "",
          "type": "string"
        }
      ],
      "payable": false,
      "stateMutability": "view",
      "type": "function"
    },
    {
      "constant": true,
      "inputs": [
        {
          "internalType": "uint256",
          "name": "tokenId",
          "type": "uint256"
        }
      ],
      "name": "tokenTimeSlot",
      "outputs": [
        {
          "internalType": "address",
          "name": "minter",
          "type": "address"
        },
        {
          "internalType": "address",
          "name": "owner",
          "type": "address"
        },
        {
          "internalType": "string",
          "name": "contentId",
          "type": "string"
        },
        {
          "internalType": "uint48",
          "name": "startTime",
          "type": "uint48"
        },
        {
          "internalType": "uint48",
          "name": "endTime",
          "type": "uint48"
        },
        {
          "internalType": "bool",
          "name": "isSecondaryTradingEnabled",
          "type": "bool"
        },
        {
          "internalType": "uint32",
          "name": "federationId",
          "type": "uint32"
        }
      ],
      "payable": false,
      "stateMutability": "view",
      "type": "function"
    },
    {
      "constant": false,
      "inputs": [
        {
          "internalType": "string",
          "name": "contentId",
          "type": "string"
        },
        {
          "internalType": "uint48",
          "name": "startTime",
          "type": "uint48"
        },
        {
          "internalType": "uint48",
          "name": "endTime",
          "type": "uint48"
        },
        {
          "internalType": "bool",
          "name": "isSecondaryTradingEnabled",
          "type": "bool"
        },
        {
          "internalType": "uint32",
          "name": "federationId",
          "type": "uint32"
        }
      ],
      "name": "mint",
      "outputs": [
        {
          "internalType": "uint256",
          "name": "",
          "type": "uint256"
        }
      ],
      "payable": true,
      "stateMutability": "payable",
      "type": "function"
    },
    {
      "constant": false,
      "inputs": [
        {
          "internalType": "address",
          "name": "newOwner",
          "type": "address"
        }
      ],
      "name": "transferOwnership1",
      "outputs": [],
      "payable": false,
      "stateMutability": "nonpayable",
      "type": "function"
    },
    {
      "constant": true,
      "inputs": [
        {
          "internalType": "address",
          "name": "tokenOwner",
          "type": "address"
        },
        {
          "internalType": "address",
          "name": "operator",
          "type": "address"
        }
      ],
      "name": "isApprovedForAll",
      "outputs": [
        {
          "internalType": "bool",
          "name": "",
          "type": "bool"
        }
      ],
      "payable": false,
      "stateMutability": "view",
      "type": "function"
    },
    {
      "inputs": [
        {
          "internalType": "string",
          "name": "name",
          "type": "string"
        },
        {
          "internalType": "string",
          "name": "symbol",
          "type": "string"
        },
        {
          "internalType": "address",
          "name": "registryAddress",
          "type": "address"
        }
      ],
      "payable": false,
      "stateMutability": "nonpayable",
      "type": "constructor"
    },
    {
      "anonymous": false,
      "inputs": [
        {
          "indexed": true,
          "internalType": "address",
          "name": "from",
          "type": "address"
        },
        {
          "indexed": true,
          "internalType": "address",
          "name": "to",
          "type": "address"
        },
        {
          "indexed": true,
          "internalType": "uint256",
          "name": "tokenId",
          "type": "uint256"
        }
      ],
      "name": "Transfer",
      "type": "event"
    },
    {
      "anonymous": false,
      "inputs": [
        {
          "indexed": true,
          "internalType": "address",
          "name": "tokenOwner",
          "type": "address"
        },
        {
          "indexed": true,
          "internalType": "address",
          "name": "approved",
          "type": "address"
        },
        {
          "indexed": true,
          "internalType": "uint256",
          "name": "tokenId",
          "type": "uint256"
        }
      ],
      "name": "Approval",
      "type": "event"
    },
    {
      "anonymous": false,
      "inputs": [
        {
          "indexed": true,
          "internalType": "address",
          "name": "tokenOwner",
          "type": "address"
        },
        {
          "indexed": true,
          "internalType": "address",
          "name": "operator",
          "type": "address"
        },
        {
          "indexed": false,
          "internalType": "bool",
          "name": "approved",
          "type": "bool"
        }
      ],
      "name": "ApprovalForAll",
      "type": "event"
    },
    {
      "constant": true,
      "inputs": [],
      "name": "name",
      "outputs": [
        {
          "internalType": "string",
          "name": "",
          "type": "string"
        }
      ],
      "payable": false,
      "stateMutability": "view",
      "type": "function"
    },
    {
      "constant": true,
      "inputs": [],
      "name": "symbol",
      "outputs": [
        {
          "internalType": "string",
          "name": "",
          "type": "string"
        }
      ],
      "payable": false,
      "stateMutability": "view",
      "type": "function"
    }
  ],
  "bytecode": "0x6002805460ff60a01b19169055655af3107a400060035560a06040819052600060808190526200003291600c9162000306565b503480156200004057600080fd5b5060405162003dad38038062003dad833981016040819052620000639162000417565b620000977f01ffc9a7000000000000000000000000000000000000000000000000000000006001600160e01b03620001a716565b620000cb7f80ac58cd000000000000000000000000000000000000000000000000000000006001600160e01b03620001a716565b620000de6001600160e01b036200024c16565b600180546001600160a01b0319166001600160a01b0392909216919091179055620001086200024c565b600280546001600160a01b0319166001600160a01b039290921691909117905582516200013d90600f90602086019062000306565b5081516200015390601090602085019062000306565b50620001887f5b5e139f000000000000000000000000000000000000000000000000000000006001600160e01b03620001a716565b6200019e816200025160201b620017e31760201c565b505050620005eb565b7fffffffff0000000000000000000000000000000000000000000000000000000080821614156200020f576040517f08c379a0000000000000000000000000000000000000000000000000000000008152600401620002069062000510565b60405180910390fd5b7fffffffff00000000000000000000000000000000000000000000000000000000166000908152602081905260409020805460ff19166001179055565b335b90565b6001546001600160a01b0316620002706001600160e01b036200024c16565b6001600160a01b03161480620002ab57506002546001600160a01b0316620002a06001600160e01b036200024c16565b6001600160a01b0316145b620002e4576040517f08c379a0000000000000000000000000000000000000000000000000000000008152600401620002069062000522565b600480546001600160a01b0319166001600160a01b0392909216919091179055565b828054600181600116156101000203166002900490600052602060002090601f016020900481019282601f106200034957805160ff191683800117855562000379565b8280016001018555821562000379579182015b82811115620003795782518255916020019190600101906200035c565b50620003879291506200038b565b5090565b6200024e91905b8082111562000387576000815560010162000392565b8051620003b581620005d1565b92915050565b600082601f830112620003cd57600080fd5b8151620003e4620003de826200055b565b62000534565b915080825260208301602083018583830111156200040157600080fd5b6200040e8382846200059e565b50505092915050565b6000806000606084860312156200042d57600080fd5b83516001600160401b038111156200044457600080fd5b6200045286828701620003bb565b93505060208401516001600160401b038111156200046f57600080fd5b6200047d86828701620003bb565b92505060406200049086828701620003a8565b9150509250925092565b6000620004a9601c8362000583565b7f4552433136353a20696e76616c696420696e7465726661636520696400000000815260200192915050565b6000620004e460138362000583565b7f4f4e4c595f434f4e54524143545f4f574e455200000000000000000000000000815260200192915050565b60208082528101620003b5816200049a565b60208082528101620003b581620004d5565b6040518181016001600160401b03811182821017156200055357600080fd5b604052919050565b60006001600160401b038211156200057257600080fd5b506020601f91909101601f19160190565b90815260200190565b60006001600160a01b038216620003b5565b60005b83811015620005bb578181015183820152602001620005a1565b83811115620005cb576000848401525b50505050565b620005dc816200058c565b8114620005e857600080fd5b50565b6137b280620005fb6000396000f3fe60806040526004361061021a5760003560e01c80637368891411610123578063a4ede128116100ab578063e4bacbc51161006f578063e4bacbc5146105ff578063e5c2492414610614578063e89fecc014610647578063e982d5a91461065a578063e985e9c51461067a5761021a565b8063a4ede12814610552578063b88d4fde1461057f578063c57a88251461059f578063c87b56dd146105bf578063e2b375a9146105df5761021a565b80638456cb59116100f25780638456cb59146104d55780638462151c146104ea57806395d89b411461050a578063a002c3761461051f578063a22cb465146105325761021a565b8063736889141461045e578063748b0fa1146104735780637b1039991461049357806384017e52146104b55761021a565b80633f4ba83a116101a65780635a393bc2116101755780635a393bc2146103e15780635c975abb146103f45780635fd8c710146104095780636352211e1461041e57806370a082311461043e5761021a565b80633f4ba83a1461037757806342842e0e1461038c57806342966c68146103ac57806352709725146103cc5761021a565b806313966db5116101ed57806313966db5146102c6578063180b9e3f146102e857806318160ddd1461031557806323b872dd1461032a5780632a0c77991461034a5761021a565b806301ffc9a71461021f57806306fdde0314610255578063081812fc14610277578063095ea7b3146102a4575b600080fd5b34801561022b57600080fd5b5061023f61023a366004612aed565b61069a565b60405161024c9190613438565b60405180910390f35b34801561026157600080fd5b5061026a6106bd565b60405161024c9190613454565b34801561028357600080fd5b50610297610292366004612ca0565b610754565b60405161024c9190613355565b3480156102b057600080fd5b506102c46102bf366004612a9f565b6107a0565b005b3480156102d257600080fd5b506102db61089c565b60405161024c9190613585565b3480156102f457600080fd5b50610308610303366004612ca0565b6108a2565b60405161024c9190613593565b34801561032157600080fd5b506102db6108ba565b34801561033657600080fd5b506102c46103453660046129a9565b6108cb565b34801561035657600080fd5b5061036a610365366004612951565b610a47565b60405161024c9190613427565b34801561038357600080fd5b506102c4610b4f565b34801561039857600080fd5b506102c46103a73660046129a9565b610bd3565b3480156103b857600080fd5b506102c46103c7366004612ca0565b610bf3565b3480156103d857600080fd5b50610297610d37565b6102db6103ef366004612bea565b610d46565b34801561040057600080fd5b5061023f610eb1565b34801561041557600080fd5b506102c4610ec1565b34801561042a57600080fd5b50610297610439366004612ca0565b610f9d565b34801561044a57600080fd5b506102db610459366004612951565b610fb8565b34801561046a57600080fd5b50610297611007565b34801561047f57600080fd5b506102c461048e366004612b29565b611016565b34801561049f57600080fd5b506104a8611088565b60405161024c9190613446565b3480156104c157600080fd5b506102c46104d0366004612ca0565b611097565b3480156104e157600080fd5b506102c46110fb565b3480156104f657600080fd5b5061036a610505366004612951565b611186565b34801561051657600080fd5b5061026a611240565b6102db61052d366004612b5e565b6112a1565b34801561053e57600080fd5b506102c461054d366004612a6f565b61140a565b34801561055e57600080fd5b5061057261056d366004612951565b6114ef565b60405161024c9190613416565b34801561058b57600080fd5b506102c461059a3660046129f6565b611665565b3480156105ab57600080fd5b506102c46105ba366004612951565b6117e3565b3480156105cb57600080fd5b5061026a6105da366004612ca0565b611864565b3480156105eb57600080fd5b506102c46105fa366004612951565b6118b5565b34801561060b57600080fd5b5061026a611942565b34801561062057600080fd5b5061063461062f366004612ca0565b6119d0565b60405161024c9796959493929190613363565b6102db610655366004612b5e565b611b5b565b34801561066657600080fd5b506102c4610675366004612951565b611c87565b34801561068657600080fd5b5061023f61069536600461296f565b611d15565b6001600160e01b0319811660009081526020819052604090205460ff165b919050565b600f8054604080516020601f60026000196101006001881615020190951694909404938401819004810282018101909252828152606093909290918301828280156107495780601f1061071e57610100808354040283529160200191610749565b820191906000526020600020905b81548152906001019060200180831161072c57829003601f168201915b505050505090505b90565b600061075f82611d43565b6107845760405162461bcd60e51b815260040161077b90613545565b60405180910390fd5b506000908152600d60205260409020546001600160a01b031690565b600254600160a01b900460ff16156107b757600080fd5b60006107c282610f9d565b9050806001600160a01b0316836001600160a01b031614156107f65760405162461bcd60e51b815260040161077b906134c5565b806001600160a01b0316610808611d60565b6001600160a01b03161480610824575061082481610695611d60565b6108405760405162461bcd60e51b815260040161077b90613575565b6000828152600d602052604080822080546001600160a01b0319166001600160a01b0387811691821790925591518593918516917f8c5be1e5ebec7d5bd14f71427d1e84f3dd0314c0f7b2291e5b200ac8c7c3b92591a4505050565b60035481565b60096020526000908152604090205463ffffffff1681565b60006108c66005611d64565b905090565b600254600160a01b900460ff16156108e257600080fd5b6108f36108ed611d60565b82611d68565b61090f5760405162461bcd60e51b815260040161077b90613565565b6000818152600a60205260408120546001600160a01b03169061093183610f9d565b600084815260096020908152604080832054600a9092529091206002015491925063ffffffff1690600160601b900460ff1661098f57610972868686611ded565b1561098f5760405162461bcd60e51b815260040161077b90613475565b60048054604051630d1e359160e01b81526001600160a01b0390911691630d1e3591916109c89185918b918b918b918b918b91016135bc565b60206040518083038186803b1580156109e057600080fd5b505afa1580156109f4573d6000803e3d6000fd5b505050506040513d601f19601f82011682018060405250610a189190810190612acf565b610a345760405162461bcd60e51b815260040161077b90613565565b610a3f868686611e44565b505050505050565b60606001600160a01b038216610a6f5760405162461bcd60e51b815260040161077b906134a5565b6001600160a01b0382166000908152600860205260408120610a9090611d64565b905080610ab25760408051600080825260208201909252905b509150506106b8565b606081604051908082528060200260200182016040528015610ade578160200160208202803883390190505b5090506000610aeb6108ba565b9050600060015b828111610b42576000818152600a60205260409020546001600160a01b0388811691161415610b3a5780848381518110610b2857fe5b60209081029190910101526001909101905b600101610af2565b83955050505050506106b8565b6001546001600160a01b0316610b63611d60565b6001600160a01b03161480610b9257506002546001600160a01b0316610b87611d60565b6001600160a01b0316145b610bae5760405162461bcd60e51b815260040161077b90613515565b600254600160a01b900460ff16610bc457600080fd5b6002805460ff60a01b19169055565b610bee83838360405180602001604052806000815250611665565b505050565b600254600160a01b900460ff1615610c0a57600080fd5b6000818152600a60205260408120546001600160a01b031690610c2c83610f9d565b60008481526009602052604090205490915063ffffffff166001600160a01b038083169084161415610cfb576004546001600160a01b03166312d26ac882610c72611d60565b6040518363ffffffff1660e01b8152600401610c8f9291906135a1565b60206040518083038186803b158015610ca757600080fd5b505afa158015610cbb573d6000803e3d6000fd5b505050506040513d601f19601f82011682018060405250610cdf9190810190612acf565b610cfb5760405162461bcd60e51b815260040161077b906134b5565b610d0c610d06611d60565b85611d68565b610d285760405162461bcd60e51b815260040161077b906134b5565b610d3184611f4a565b50505050565b6002546001600160a01b031681565b600254600090600160a01b900460ff1615610d6057600080fd5b600354341015610d6f57600080fd5b60008363ffffffff1611610d955760405162461bcd60e51b815260040161077b90613505565b6004546001600160a01b03166312d26ac884610daf611d60565b6040518363ffffffff1660e01b8152600401610dcc9291906135a1565b60206040518083038186803b158015610de457600080fd5b505afa158015610df8573d6000803e3d6000fd5b505050506040513d601f19601f82011682018060405250610e1c9190810190612acf565b610e385760405162461bcd60e51b815260040161077b90613555565b610e4487878786611f5c565b610e605760405162461bcd60e51b815260040161077b90613535565b6000610e73610e6d611d60565b84612036565b9050610e82818989898961206d565b6000818152600960205260409020805463ffffffff861663ffffffff1990911617905590509695505050505050565b600254600160a01b900460ff1681565b6001546001600160a01b0316610ed5611d60565b6001600160a01b03161480610f0457506002546001600160a01b0316610ef9611d60565b6001600160a01b0316145b610f205760405162461bcd60e51b815260040161077b90613515565b60405130319060009033908390610f369061334a565b60006040518083038185875af1925050503d8060008114610f73576040519150601f19603f3d011682016040523d82523d6000602084013e610f78565b606091505b5050905080610f995760405162461bcd60e51b815260040161077b906134d5565b5050565b6000908152600660205260409020546001600160a01b031690565b60006001600160a01b038216610fe05760405162461bcd60e51b815260040161077b906134a5565b6001600160a01b038216600090815260076020526040902061100190611d64565b92915050565b6001546001600160a01b031681565b6001546001600160a01b031661102a611d60565b6001600160a01b0316148061105957506002546001600160a01b031661104e611d60565b6001600160a01b0316145b6110755760405162461bcd60e51b815260040161077b90613515565b8051610f9990600c90602084019061279e565b6004546001600160a01b031681565b6001546001600160a01b03166110ab611d60565b6001600160a01b031614806110da57506002546001600160a01b03166110cf611d60565b6001600160a01b0316145b6110f65760405162461bcd60e51b815260040161077b90613515565b600355565b6001546001600160a01b031661110f611d60565b6001600160a01b0316148061113e57506002546001600160a01b0316611133611d60565b6001600160a01b0316145b61115a5760405162461bcd60e51b815260040161077b90613515565b600254600160a01b900460ff161561117157600080fd5b6002805460ff60a01b1916600160a01b179055565b6060600061119383610fb8565b9050806111b0576040805160008082526020820190925290610aa9565b6060816040519080825280602002602001820160405280156111dc578160200160208202803883390190505b50905060006111e96108ba565b9050600060015b828111610b42576000818152600660205260409020546001600160a01b0388811691161415611238578084838151811061122657fe5b60209081029190910101526001909101905b6001016111f0565b60108054604080516020601f60026000196101006001881615020190951694909404938401819004810282018101909252828152606093909290918301828280156107495780601f1061071e57610100808354040283529160200191610749565b600254600090600160a01b900460ff16156112bb57600080fd5b6003543410156112ca57600080fd5b60008263ffffffff16116112f05760405162461bcd60e51b815260040161077b90613505565b6004546001600160a01b03166312d26ac88361130a611d60565b6040518363ffffffff1660e01b81526004016113279291906135a1565b60206040518083038186803b15801561133f57600080fd5b505afa158015611353573d6000803e3d6000fd5b505050506040513d601f19601f820116820180604052506113779190810190612acf565b6113935760405162461bcd60e51b815260040161077b90613555565b61139f86868685611f5c565b6113bb5760405162461bcd60e51b815260040161077b90613535565b60006113cd6113c8611d60565b61222c565b90506113dc818888888861206d565b6000818152600960205260409020805463ffffffff851663ffffffff19909116179055905095945050505050565b600254600160a01b900460ff161561142157600080fd5b611429611d60565b6001600160a01b0316826001600160a01b0316141561145a5760405162461bcd60e51b815260040161077b906134f5565b80600e6000611467611d60565b6001600160a01b03908116825260208083019390935260409182016000908120918716808252919093529120805460ff1916921515929092179091556114ab611d60565b6001600160a01b03167f17307eab39ab6107e8899845ad3d59bd9653f200f220920489ca2b5937696c31836040516114e39190613438565b60405180910390a35050565b6001600160a01b0381166000908152600b602090815260408083208054825181850281018501909352808352606094859484015b828210156115da57600084815260209081902060408051918501805460026001821615610100026000190190911604601f81018590048502840183018352938301848152929390928492909184918401828280156115c25780601f10611597576101008083540402835291602001916115c2565b820191906000526020600020905b8154815290600101906020018083116115a557829003601f168201915b50505050508152505081526020019060010190611523565b5050505090506060815160405190808252806020026020018201604052801561161757816020015b60608152602001906001900390816116025790505b50905060005b825181101561165d5782818151811061163257fe5b60200260200101516000015182828151811061164a57fe5b602090810291909101015260010161161d565b509392505050565b600254600160a01b900460ff161561167c57600080fd5b61168d611687611d60565b83611d68565b6116a95760405162461bcd60e51b815260040161077b90613565565b6000828152600a60205260408120546001600160a01b0316906116cb84610f9d565b600085815260096020908152604080832054600a9092529091206002015491925063ffffffff1690600160601b900460ff166117295761170c878787611ded565b156117295760405162461bcd60e51b815260040161077b90613475565b60048054604051630d1e359160e01b81526001600160a01b0390911691630d1e3591916117629185918c918c918c918b918b91016135bc565b60206040518083038186803b15801561177a57600080fd5b505afa15801561178e573d6000803e3d6000fd5b505050506040513d601f19601f820116820180604052506117b29190810190612acf565b6117ce5760405162461bcd60e51b815260040161077b90613565565b6117da87878787612248565b50505050505050565b6001546001600160a01b03166117f7611d60565b6001600160a01b0316148061182657506002546001600160a01b031661181b611d60565b6001600160a01b0316145b6118425760405162461bcd60e51b815260040161077b90613515565b600480546001600160a01b0319166001600160a01b0392909216919091179055565b606061186f82611d43565b61188b5760405162461bcd60e51b815260040161077b90613545565b600c8260405160200161189f929190613328565b6040516020818303038152906040529050919050565b6001546001600160a01b03166118c9611d60565b6001600160a01b031614806118f857506002546001600160a01b03166118ed611d60565b6001600160a01b0316145b6119145760405162461bcd60e51b815260040161077b90613515565b6001600160a01b0381161561193f57600280546001600160a01b0319166001600160a01b0383161790555b50565b600c805460408051602060026001851615610100026000190190941693909304601f810184900484028201840190925281815292918301828280156119c85780601f1061199d576101008083540402835291602001916119c8565b820191906000526020600020905b8154815290600101906020018083116119ab57829003601f168201915b505050505081565b60008060606000806000806119e488611d43565b611a005760405162461bcd60e51b815260040161077b90613545565b611a0861281c565b6000898152600a6020908152604091829020825160a08101845281546001600160a01b03168152600180830180548651600261010094831615949094026000190190911692909204601f8101869004860283018601909652858252919492938581019391929190830182828015611ac05780601f10611a9557610100808354040283529160200191611ac0565b820191906000526020600020905b815481529060010190602001808311611aa357829003601f168201915b50505091835250506002919091015465ffffffffffff80821660208085019190915266010000000000008304909116604080850191909152600160601b90920460ff16151560609093019290925260008c81526009909252902054815191925063ffffffff1690611b308b610f9d565b602084015160408501516060860151608090960151939e929d50909b50995092975095509350915050565b600254600090600160a01b900460ff1615611b7557600080fd5b600354341015611b8457600080fd5b60008263ffffffff1611611baa5760405162461bcd60e51b815260040161077b90613505565b6004546001600160a01b03166312d26ac883611bc4611d60565b6040518363ffffffff1660e01b8152600401611be19291906135a1565b60206040518083038186803b158015611bf957600080fd5b505afa158015611c0d573d6000803e3d6000fd5b505050506040513d601f19601f82011682018060405250611c319190810190612acf565b611c4d5760405162461bcd60e51b815260040161077b90613555565b611c5986868685611f5c565b611c755760405162461bcd60e51b815260040161077b90613535565b60006113cd611c82611d60565b61227b565b6001546001600160a01b0316611c9b611d60565b6001600160a01b03161480611cca57506002546001600160a01b0316611cbf611d60565b6001600160a01b0316145b611ce65760405162461bcd60e51b815260040161077b90613515565b6001600160a01b0381161561193f57600180546001600160a01b0383166001600160a01b031990911617905550565b6001600160a01b039182166000908152600e6020908152604080832093909416825291909152205460ff1690565b6000908152600660205260409020546001600160a01b0316151590565b3390565b5490565b6000611d7382611d43565b611d8f5760405162461bcd60e51b815260040161077b90613545565b6000611d9a83610f9d565b9050806001600160a01b0316846001600160a01b03161480611dd55750836001600160a01b0316611dca84610754565b6001600160a01b0316145b80611de55750611de58185611d15565b949350505050565b6000818152600a60205260408120546001600160a01b03908116908516811480611e285750806001600160a01b0316846001600160a01b0316145b15611e37576000915050611e3d565b60019150505b9392505050565b826001600160a01b0316611e5782610f9d565b6001600160a01b031614611e7d5760405162461bcd60e51b815260040161077b90613565565b6001600160a01b038216611ea35760405162461bcd60e51b815260040161077b90613495565b611eac8161235a565b6001600160a01b0383166000908152600760205260409020611ecd90612395565b6001600160a01b0382166000908152600760205260409020611eee906123ac565b60008181526006602052604080822080546001600160a01b0319166001600160a01b0386811691821790925591518493918716917fddf252ad1be2c89b69c2b068fc378daa952ba7f163c4a11628f55a4df523b3ef91a4505050565b61193f611f5682610f9d565b826123b5565b6004805460405163abe6178360e01b81526000926001600160a01b039092169163abe6178391611f909186918a9101613616565b60206040518083038186803b158015611fa857600080fd5b505afa158015611fbc573d6000803e3d6000fd5b505050506040513d601f19601f82011682018060405250611fe09190810190612acf565b611ffc5760405162461bcd60e51b815260040161077b906134e5565b8365ffffffffffff168365ffffffffffff161161202b5760405162461bcd60e51b815260040161077b90613525565b506001949350505050565b6000806120428461227b565b905061205160008583866124aa565b611e3d5760405162461bcd60e51b815260040161077b90613485565b61207685611d43565b6120925760405162461bcd60e51b815260040161077b90613545565b61209a61281c565b6040518060a001604052806120ad611d60565b6001600160a01b031681526020018681526020018565ffffffffffff1681526020018465ffffffffffff168152602001831515815250905080600a600088815260200190815260200160002060008201518160000160006101000a8154816001600160a01b0302191690836001600160a01b03160217905550602082015181600101908051906020019061214292919061279e565b5060408201516002919091018054606084015160809094015165ffffffffffff1990911665ffffffffffff938416176bffffffffffff000000000000191666010000000000009390941692909202929092176cff0000000000000000000000001916600160601b911515919091021790556121bc85612575565b610a3f57600b60006121cc611d60565b6001600160a01b03168152602080820192909252604090810160009081208251808501909352888352805460018101808355918352918490208351805192959190930192612220928492919091019061279e565b50505050505050505050565b600080611e3d8360405180602001604052806000815250612036565b612253848484611e44565b61225f848484846124aa565b610d315760405162461bcd60e51b815260040161077b90613485565b60006001600160a01b0382166122a35760405162461bcd60e51b815260040161077b90613465565b6122ad60056123ac565b60006122b96005611d64565b600081815260066020908152604080832080546001600160a01b0319166001600160a01b0389169081179091558352600790915290209091506122fb906123ac565b6001600160a01b038316600090815260086020526040902061231c906123ac565b60405181906001600160a01b038516906000907fddf252ad1be2c89b69c2b068fc378daa952ba7f163c4a11628f55a4df523b3ef908290a492915050565b6000818152600d60205260409020546001600160a01b03161561193f576000908152600d6020526040902080546001600160a01b0319169055565b80546123a890600163ffffffff6126a016565b9055565b80546001019055565b816001600160a01b03166123c882610f9d565b6001600160a01b0316146123ee5760405162461bcd60e51b815260040161077b906134b5565b6123f78161235a565b6001600160a01b038216600090815260076020526040902061241890612395565b600081815260066020908152604080832080546001600160a01b0319908116909155600a90925282208054909116815590612456600183018261284b565b5060020180546cffffffffffffffffffffffffff1916905560405181906000906001600160a01b038516907fddf252ad1be2c89b69c2b068fc378daa952ba7f163c4a11628f55a4df523b3ef908390a45050565b60006124be846001600160a01b03166126e2565b6124ca57506001611de5565b6000846001600160a01b031663150b7a026124e3611d60565b8887876040518563ffffffff1660e01b815260040161250594939291906133d2565b602060405180830381600087803b15801561251f57600080fd5b505af1158015612533573d6000803e3d6000fd5b505050506040513d601f19601f820116820180604052506125579190810190612b0b565b6001600160e01b031916630a85bd0160e11b14915050949350505050565b336000908152600b602090815260408083208054825181850281018501909352808352606093859084015b8282101561265757600084815260209081902060408051918501805460026001821615610100026000190190911604601f810185900485028401830183529383018481529293909284929091849184018282801561263f5780601f106126145761010080835404028352916020019161263f565b820191906000526020600020905b81548152906001019060200180831161262257829003601f168201915b505050505081525050815260200190600101906125a0565b5092935060009250829150505b825181101561165d5761268e8584838151811061267d57fe5b602002602001015160000151612719565b1561269857600191505b600101612664565b6000611e3d83836040518060400160405280601e81526020017f536166654d6174683a207375627472616374696f6e206f766572666c6f770000815250612772565b6000813f7fc5d2460186f7233c927e7db2dcc703c0e500b653ca82273b7bfad8045d85a4708115801590611de55750141592915050565b60008160405160200161272c919061331c565b6040516020818303038152906040528051906020012083604051602001612753919061331c565b6040516020818303038152906040528051906020012014905092915050565b600081848411156127965760405162461bcd60e51b815260040161077b9190613454565b505050900390565b828054600181600116156101000203166002900490600052602060002090601f016020900481019282601f106127df57805160ff191683800117855561280c565b8280016001018555821561280c579182015b8281111561280c5782518255916020019190600101906127f1565b5061281892915061288b565b5090565b6040805160a0810182526000808252606060208301819052928201819052918101829052608081019190915290565b50805460018160011615610100020316600290046000825580601f10612871575061193f565b601f01602090049060005260206000209081019061193f91905b61075191905b808211156128185760008155600101612891565b80356110018161372e565b803561100181613742565b805161100181613742565b80356110018161374b565b80516110018161374b565b600082601f8301126128ed57600080fd5b81356129006128fb8261365d565b613636565b9150808252602083016020830185838301111561291c57600080fd5b6129278382846136ec565b50505092915050565b803561100181613754565b80356110018161375d565b803561100181613766565b60006020828403121561296357600080fd5b6000611de584846128a5565b6000806040838503121561298257600080fd5b600061298e85856128a5565b925050602061299f858286016128a5565b9150509250929050565b6000806000606084860312156129be57600080fd5b60006129ca86866128a5565b93505060206129db868287016128a5565b92505060406129ec86828701612930565b9150509250925092565b60008060008060808587031215612a0c57600080fd5b6000612a1887876128a5565b9450506020612a29878288016128a5565b9350506040612a3a87828801612930565b925050606085013567ffffffffffffffff811115612a5757600080fd5b612a63878288016128dc565b91505092959194509250565b60008060408385031215612a8257600080fd5b6000612a8e85856128a5565b925050602061299f858286016128b0565b60008060408385031215612ab257600080fd5b6000612abe85856128a5565b925050602061299f85828601612930565b600060208284031215612ae157600080fd5b6000611de584846128bb565b600060208284031215612aff57600080fd5b6000611de584846128c6565b600060208284031215612b1d57600080fd5b6000611de584846128d1565b600060208284031215612b3b57600080fd5b813567ffffffffffffffff811115612b5257600080fd5b611de5848285016128dc565b600080600080600060a08688031215612b7657600080fd5b853567ffffffffffffffff811115612b8d57600080fd5b612b99888289016128dc565b9550506020612baa88828901612946565b9450506040612bbb88828901612946565b9350506060612bcc888289016128b0565b9250506080612bdd8882890161293b565b9150509295509295909350565b60008060008060008060c08789031215612c0357600080fd5b863567ffffffffffffffff811115612c1a57600080fd5b612c2689828a016128dc565b9650506020612c3789828a01612946565b9550506040612c4889828a01612946565b9450506060612c5989828a016128b0565b9350506080612c6a89828a0161293b565b92505060a087013567ffffffffffffffff811115612c8757600080fd5b612c9389828a016128dc565b9150509295509295509295565b600060208284031215612cb257600080fd5b6000611de58484612930565b6000611e3d8383612dbd565b6000612cd683836132f0565b505060200190565b612ce7816136a4565b82525050565b6000612cf882613697565b612d02818561369b565b935083602082028501612d1485613685565b8060005b85811015612d4e5784840389528151612d318582612cbe565b9450612d3c83613685565b60209a909a0199925050600101612d18565b5091979650505050505050565b6000612d6682613697565b612d70818561369b565b9350612d7b83613685565b8060005b83811015612da9578151612d938882612cca565b9750612d9e83613685565b925050600101612d7f565b509495945050505050565b612ce7816136af565b6000612dc882613697565b612dd2818561369b565b9350612de28185602086016136f8565b612deb81613724565b9093019392505050565b612ce7816136e1565b6000612e0982613697565b612e1381856106b8565b9350612e238185602086016136f8565b9290920192915050565b600081546001811660008114612e4a5760018114612e6d57612eac565b607f6002830416612e5b81876106b8565b60ff1984168152955085019250612eac565b60028204612e7b81876106b8565b9550612e868561368b565b60005b82811015612ea557815488820152600190910190602001612e89565b5050850192505b505092915050565b6000612ec160148361369b565b7f4d494e545f544f5f5a45524f5f41444452455353000000000000000000000000815260200192915050565b6000612efa601a8361369b565b7f5345434f4e444152595f54524144494e475f44495341424c4544000000000000815260200192915050565b6000612f33602a8361369b565b7f5452414e534645525f544f5f4e4f4e5f45524337323152454345495645525f4981526926a82622a6a2a72a22a960b11b602082015260400192915050565b6000612f7f60188361369b565b7f5452414e534645525f544f5f5a45524f5f414444524553530000000000000000815260200192915050565b6000612fb860198361369b565b7f43414e4e4f545f51554552595f5a45524f5f4144445245535300000000000000815260200192915050565b6000612ff160118361369b565b7f554e415554484f52495a45445f4255524e000000000000000000000000000000815260200192915050565b600061302a60158361369b565b7f415050524f56414c5f49535f524544554e44414e540000000000000000000000815260200192915050565b6000613063600f8361369b565b7f57495448445241575f4641494c45440000000000000000000000000000000000815260200192915050565b600061309c60238361369b565b7f434f4e54454e545f49445f4e4f545f524547495354455245445f544f5f43414c8152622622a960e91b602082015260400192915050565b60006130e1601a8361369b565b7f43414c4c45525f43414e4e4f545f415050524f56455f53454c46000000000000815260200192915050565b600061311a60158361369b565b7f494e56414c49445f46454445524154494f4e5f49440000000000000000000000815260200192915050565b600061315360138361369b565b7f4f4e4c595f434f4e54524143545f4f574e455200000000000000000000000000815260200192915050565b600061318c60198361369b565b7f53544152545f54494d455f41465445525f454e445f54494d4500000000000000815260200192915050565b60006110016000836106b8565b60006131d260118361369b565b7f494e56414c49445f54494d455f534c4f54000000000000000000000000000000815260200192915050565b600061320b60128361369b565b7f4e4f4e5f4558495354454e545f544f4b454e0000000000000000000000000000815260200192915050565b600061324460258361369b565b7f43414c4c45525f4e4f545f415554484f52495a45445f464f525f4d494e5445528152645f524f4c4560d81b602082015260400192915050565b600061328b60158361369b565b7f554e415554484f52495a45445f5452414e534645520000000000000000000000815260200192915050565b60006132c460158361369b565b7f43414c4c45525f4e4f545f415554484f52495a45440000000000000000000000815260200192915050565b612ce781610751565b612ce761330582610751565b610751565b612ce7816136cd565b612ce7816136d6565b6000611e3d8284612dfe565b60006133348285612e2d565b915061334082846132f9565b5060200192915050565b6000611001826131b8565b602081016110018284612cde565b60e08101613371828a612cde565b61337e6020830189612cde565b81810360408301526133908188612dbd565b905061339f6060830187613313565b6133ac6080830186613313565b6133b960a0830185612db4565b6133c660c083018461330a565b98975050505050505050565b608081016133e08287612cde565b6133ed6020830186612cde565b6133fa60408301856132f0565b818103606083015261340c8184612dbd565b9695505050505050565b60208082528101611e3d8184612ced565b60208082528101611e3d8184612d5b565b602081016110018284612db4565b602081016110018284612df5565b60208082528101611e3d8184612dbd565b6020808252810161100181612eb4565b6020808252810161100181612eed565b6020808252810161100181612f26565b6020808252810161100181612f72565b6020808252810161100181612fab565b6020808252810161100181612fe4565b602080825281016110018161301d565b6020808252810161100181613056565b602080825281016110018161308f565b60208082528101611001816130d4565b602080825281016110018161310d565b6020808252810161100181613146565b602080825281016110018161317f565b60208082528101611001816131c5565b60208082528101611001816131fe565b6020808252810161100181613237565b602080825281016110018161327e565b60208082528101611001816132b7565b6020810161100182846132f0565b60208101611001828461330a565b604081016135af828561330a565b611e3d6020830184612cde565b60c081016135ca828961330a565b6135d76020830188612cde565b6135e46040830187612cde565b6135f160608301866132f0565b6135fe6080830185612cde565b61360b60a0830184612cde565b979650505050505050565b60408101613624828561330a565b8181036020830152611de58184612dbd565b60405181810167ffffffffffffffff8111828210171561365557600080fd5b604052919050565b600067ffffffffffffffff82111561367457600080fd5b506020601f91909101601f19160190565b60200190565b60009081526020902090565b5190565b90815260200190565b6000611001826136c1565b151590565b6001600160e01b03191690565b6001600160a01b031690565b63ffffffff1690565b65ffffffffffff1690565b6000611001826136a4565b82818337506000910152565b60005b838110156137135781810151838201526020016136fb565b83811115610d315750506000910152565b601f01601f191690565b613737816136a4565b811461193f57600080fd5b613737816136af565b613737816136b4565b61373781610751565b613737816136cd565b613737816136d656fea365627a7a723158201fc3c44006dcf823538e7f75160fbb23c158d93becdfa0a034403b52ba7f75576c6578706572696d656e74616cf564736f6c634300050b0040",
  "source": "pragma solidity ^0.5.11;\npragma experimental ABIEncoderV2;\n\nimport \"./ERC721.sol\";\n\n/**\n * Customized for Microsponsors\n * from Open Zeppelin's ERC721Metadata contract, which is MIT Licensed:\n * https://github.com/OpenZeppelin/openzeppelin-contracts/blob/master/contracts/token/ERC721/ERC721Metadata.sol\n\n  Licensed under the Apache License, Version 2.0 (the \"License\");\n  you may not use this file except in compliance with the License.\n  You may obtain a copy of the License at\n\n    http://www.apache.org/licenses/LICENSE-2.0\n\n  Unless required by applicable law or agreed to in writing, software\n  distributed under the License is distributed on an \"AS IS\" BASIS,\n  WITHOUT WARRANTIES OR CONDITIONS OF ANY KIND, either express or implied.\n  See the License for the specific language governing permissions and\n  limitations under the License.\n\n*/\n\ncontract Microsponsors is ERC721 {\n\n    // Token name\n    string private _name;\n\n    // Token symbol\n    string private _symbol;\n\n\n    /*\n     *     bytes4(keccak256('name()')) == 0x06fdde03\n     *     bytes4(keccak256('symbol()')) == 0x95d89b41\n     *     bytes4(keccak256('tokenURI(uint256)')) == 0xc87b56dd\n     *\n     *     => 0x06fdde03 ^ 0x95d89b41 ^ 0xc87b56dd == 0x5b5e139f\n     */\n    bytes4 private constant _INTERFACE_ID_ERC721_METADATA = 0x5b5e139f;\n\n    /**\n     * @dev Constructor function\n     */\n    constructor (string memory name, string memory symbol, address registryAddress) public {\n\n        _name = name;\n        _symbol = symbol;\n\n        // register the supported interfaces to conform to ERC721 via ERC165\n        _registerInterface(_INTERFACE_ID_ERC721_METADATA);\n\n        super.updateRegistryAddress(registryAddress);\n\n    }\n\n    /**\n     * @dev Gets the token name.\n     * @return string representing the token name\n     */\n    function name() external view returns (string memory) {\n        return _name;\n    }\n\n    /**\n     * @dev Gets the token symbol.\n     * @return string representing the token symbol\n     */\n    function symbol() external view returns (string memory) {\n        return _symbol;\n    }\n\n}\n",
  "sourcePath": "/Users/lauren/github/erc-721/contracts/Microsponsors.sol",
  "compiler": {
    "name": "solc",
    "version": "0.5.11+commit.c082d0b4.Emscripten.clang"
  },
  "schemaVersion": "3.1.0",
  "updatedAt": "2021-03-03T01:12:40.084Z",
  "networkType": "ethereum",
  "devdoc": {
    "methods": {
      "approve(address,uint256)": {
        "details": "Approves another address to transfer the given token ID The zero address indicates there is no approved address. There can only be one approved address per token at a given time. Can only be called by the token owner or an approved operator.",
        "params": {
          "to": "address to be approved for the given token ID",
          "tokenId": "uint256 ID of the token to be approved"
        }
      },
      "balanceOf(address)": {
        "details": "Gets the balance of the specified address.",
        "params": {
          "tokenOwner": "address to query the balance of"
        },
        "return": "uint256 representing the amount owned by the passed address"
      },
      "burn(uint256)": {
        "details": "Customized for MicrosponsorsBurns a specific ERC721 token.",
        "params": {
          "tokenId": "uint256 id of the ERC721 token to be burned"
        }
      },
      "constructor": {
        "details": "Constructor function"
      },
      "getApproved(uint256)": {
        "details": "Gets the approved address for a token ID, or zero if no address set Reverts if the token ID does not exist.",
        "params": {
          "tokenId": "uint256 ID of the token to query the approval of"
        },
        "return": "address currently approved for the given token ID"
      },
      "isApprovedForAll(address,address)": {
        "details": "Tells whether an operator is approved by a given token owner.",
        "params": {
          "operator": "operator address which you want to query the approval of",
          "tokenOwner": "token owner address which you want to query the approval of"
        },
        "return": "bool whether the given operator is approved by the token owner"
      },
      "mint(string,uint48,uint48,bool,uint32)": {
        "details": "Function to mint tokens.",
        "return": "tokenId"
      },
      "name()": {
        "details": "Gets the token name.",
        "return": "string representing the token name"
      },
      "ownerOf(uint256)": {
        "details": "Gets the owner of the specified token ID.",
        "params": {
          "tokenId": "uint256 ID of the token to query the owner of"
        },
        "return": "address currently marked as the owner of the given token ID"
      },
      "pause()": {
        "details": "Called by contract owner to pause minting and transfers."
      },
      "safeMint(string,uint48,uint48,bool,uint32)": {
        "details": "Function to safely mint tokens.",
        "return": "tokenId"
      },
      "safeMint(string,uint48,uint48,bool,uint32,bytes)": {
        "details": "Function to safely mint tokens.",
        "params": {
          "data": "bytes data to send along with a safe transfer check."
        },
        "return": "tokenId"
      },
      "safeTransferFrom(address,address,uint256)": {
        "details": "Safely transfers the ownership of a given token ID to another address If the target address is a contract, it must implement {IERC721Receiver-onERC721Received}, which is called upon a safe transfer, and return the magic value `bytes4(keccak256(\"onERC721Received(address,address,uint256,bytes)\"))`; otherwise, the transfer is reverted. Requires the msg.sender to be the owner, approved, or operator",
        "params": {
          "from": "current owner of the token",
          "to": "address to receive the ownership of the given token ID",
          "tokenId": "uint256 ID of the token to be transferred"
        }
      },
      "safeTransferFrom(address,address,uint256,bytes)": {
        "details": "Safely transfers the ownership of a given token ID to another address If the target address is a contract, it must implement {IERC721Receiver-onERC721Received}, which is called upon a safe transfer, and return the magic value `bytes4(keccak256(\"onERC721Received(address,address,uint256,bytes)\"))`; otherwise, the transfer is reverted. Requires the _msgSender() to be the owner, approved, or operator",
        "params": {
          "data": "bytes data to send along with a safe transfer check",
          "from": "current owner of the token",
          "to": "address to receive the ownership of the given token ID",
          "tokenId": "uint256 ID of the token to be transferred"
        }
      },
      "setApprovalForAll(address,bool)": {
        "details": "Sets or unsets the approval of a given operator An operator is allowed to transfer all tokens of the sender on their behalf.",
        "params": {
          "approved": "representing the status of the approval to be set",
          "to": "operator address to set the approval"
        }
      },
      "supportsInterface(bytes4)": {
        "details": "See {IERC165-supportsInterface}.     * Time complexity O(1), guaranteed to always use less than 30 000 gas."
      },
      "symbol()": {
        "details": "Gets the token symbol.",
        "return": "string representing the token symbol"
      },
      "tokenMinterContentIds(address)": {
        "details": "Look up all Content IDs a Minter has tokenized TimeSlots for.      We're not getting this from the Registry because we want to keep      a separate record here of all Content ID's the acct has *ever*      minted tokens for. The registry is for keeping track of their      current (not necessarily past) Content ID registrations."
      },
      "tokenURI(uint256)": {
        "params": {
          "tokenId": "uint256 ID of the token to query"
        },
        "return": "URI for a given token ID."
      },
      "tokensMintedBy(address)": {
        "details": "This method MUST NEVER be called by smart contract code. First, it's fairly expensive (it walks the entire _tokenIds array looking for tokens belonging to minter), but it also returns a dynamic array, which is only supported for web3 calls, and not contract-to-contract calls (at this time)."
      },
      "tokensOfOwner(address)": {
        "details": "This method MUST NEVER be called by smart contract code. First, it's fairly expensive (it walks the entire _tokenIds array looking for tokens belonging to owner), but it also returns a dynamic array, which is only supported for web3 calls, and not contract-to-contract calls (at this time).",
        "params": {
          "tokenOwner": "The owner whose tokens we are interested in."
        }
      },
      "totalSupply()": {
        "details": "Gets the total number of tokens ever minted."
      },
      "transferFrom(address,address,uint256)": {
        "details": "Transfers the ownership of a given token ID to another address. Usage of this method is discouraged, use {safeTransferFrom} whenever possible. Requires the msg.sender to be the owner, approved, or operator.",
        "params": {
          "from": "current owner of the token",
          "to": "address to receive the ownership of the given token ID",
          "tokenId": "uint256 ID of the token to be transferred"
        }
      },
      "transferOwnership1(address)": {
        "details": "Transfer owner (admin) functions to another address",
        "params": {
          "newOwner": "Address of new owner/ admin of contract"
        }
      },
      "unpause()": {
        "details": "Called by contract owner to unpause minting and transfers."
      },
      "updateMintFee(uint256)": {
        "details": "Update the fee (in wei) charged for minting a single token"
      },
      "updateRegistryAddress(address)": {
        "details": "Update contract address for Microsponsors Registry contract",
        "params": {
          "newAddress": "where the Registry contract lives"
        }
      },
      "updateTokenURIBaseUrl(string)": {
        "details": "Update the base url for all tokenURI's"
      },
      "withdrawBalance()": {
        "details": "Admin withdraws entire balance from contract."
      }
    }
  },
  "userdoc": {
    "methods": {
      "tokenURI(uint256)": {
        "notice": "Throws if the token ID does not exist. May return an empty string."
      },
      "tokensMintedBy(address)": {
        "notice": "Return all the Token IDs minted by a given account."
      }
    },
    "notice": "Customized for Microsponsors from Open Zeppelin's ERC721Metadata contract, which is MIT Licensed: https://github.com/OpenZeppelin/openzeppelin-contracts/blob/master/contracts/token/ERC721/ERC721Metadata.sol Licensed under the Apache License, Version 2.0 (the \"License\"); you may not use this file except in compliance with the License. You may obtain a copy of the License at http://www.apache.org/licenses/LICENSE-2.0 Unless required by applicable law or agreed to in writing, software distributed under the License is distributed on an \"AS IS\" BASIS, WITHOUT WARRANTIES OR CONDITIONS OF ANY KIND, either express or implied. See the License for the specific language governing permissions and limitations under the License."
  }
}