{
  "contractName": "Microsponsors",
  "abi": [
    {
      "constant": true,
      "inputs": [
        {
          "internalType": "bytes4",
          "name": "interfaceId",
          "type": "bytes4"
        }
      ],
      "name": "supportsInterface",
      "outputs": [
        {
          "internalType": "bool",
          "name": "",
          "type": "bool"
        }
      ],
      "payable": false,
      "stateMutability": "view",
      "type": "function"
    },
    {
      "constant": true,
      "inputs": [
        {
          "internalType": "uint256",
          "name": "tokenId",
          "type": "uint256"
        }
      ],
      "name": "getApproved",
      "outputs": [
        {
          "internalType": "address",
          "name": "",
          "type": "address"
        }
      ],
      "payable": false,
      "stateMutability": "view",
      "type": "function"
    },
    {
      "constant": false,
      "inputs": [
        {
          "internalType": "address",
          "name": "to",
          "type": "address"
        },
        {
          "internalType": "uint256",
          "name": "tokenId",
          "type": "uint256"
        }
      ],
      "name": "approve",
      "outputs": [],
      "payable": false,
      "stateMutability": "nonpayable",
      "type": "function"
    },
    {
      "constant": true,
      "inputs": [],
      "name": "mintFee",
      "outputs": [
        {
          "internalType": "uint256",
          "name": "",
          "type": "uint256"
        }
      ],
      "payable": false,
      "stateMutability": "view",
      "type": "function"
    },
    {
      "constant": true,
      "inputs": [
        {
          "internalType": "uint256",
          "name": "",
          "type": "uint256"
        }
      ],
      "name": "tokenToFederationId",
      "outputs": [
        {
          "internalType": "uint32",
          "name": "",
          "type": "uint32"
        }
      ],
      "payable": false,
      "stateMutability": "view",
      "type": "function"
    },
    {
      "constant": true,
      "inputs": [],
      "name": "totalSupply",
      "outputs": [
        {
          "internalType": "uint256",
          "name": "",
          "type": "uint256"
        }
      ],
      "payable": false,
      "stateMutability": "view",
      "type": "function"
    },
    {
      "constant": false,
      "inputs": [
        {
          "internalType": "address",
          "name": "from",
          "type": "address"
        },
        {
          "internalType": "address",
          "name": "to",
          "type": "address"
        },
        {
          "internalType": "uint256",
          "name": "tokenId",
          "type": "uint256"
        }
      ],
      "name": "transferFrom",
      "outputs": [],
      "payable": false,
      "stateMutability": "nonpayable",
      "type": "function"
    },
    {
      "constant": true,
      "inputs": [
        {
          "internalType": "address",
          "name": "minter",
          "type": "address"
        }
      ],
      "name": "tokensMintedBy",
      "outputs": [
        {
          "internalType": "uint256[]",
          "name": "",
          "type": "uint256[]"
        }
      ],
      "payable": false,
      "stateMutability": "view",
      "type": "function"
    },
    {
      "constant": false,
      "inputs": [],
      "name": "unpause",
      "outputs": [],
      "payable": false,
      "stateMutability": "nonpayable",
      "type": "function"
    },
    {
      "constant": true,
      "inputs": [],
      "name": "tokenURIBaseURL",
      "outputs": [
        {
          "internalType": "string",
          "name": "",
          "type": "string"
        }
      ],
      "payable": false,
      "stateMutability": "view",
      "type": "function"
    },
    {
      "constant": false,
      "inputs": [
        {
          "internalType": "address",
          "name": "from",
          "type": "address"
        },
        {
          "internalType": "address",
          "name": "to",
          "type": "address"
        },
        {
          "internalType": "uint256",
          "name": "tokenId",
          "type": "uint256"
        }
      ],
      "name": "safeTransferFrom",
      "outputs": [],
      "payable": false,
      "stateMutability": "nonpayable",
      "type": "function"
    },
    {
      "constant": false,
      "inputs": [
        {
          "internalType": "uint256",
          "name": "tokenId",
          "type": "uint256"
        }
      ],
      "name": "burn",
      "outputs": [],
      "payable": false,
      "stateMutability": "nonpayable",
      "type": "function"
    },
    {
      "constant": true,
      "inputs": [],
      "name": "owner2",
      "outputs": [
        {
          "internalType": "address",
          "name": "",
          "type": "address"
        }
      ],
      "payable": false,
      "stateMutability": "view",
      "type": "function"
    },
    {
      "constant": false,
      "inputs": [
        {
          "internalType": "string",
          "name": "contentId",
          "type": "string"
        },
        {
          "internalType": "uint48",
          "name": "startTime",
          "type": "uint48"
        },
        {
          "internalType": "uint48",
          "name": "endTime",
          "type": "uint48"
        },
        {
          "internalType": "bool",
          "name": "isSecondaryTradingEnabled",
          "type": "bool"
        },
        {
          "internalType": "uint32",
          "name": "federationId",
          "type": "uint32"
        },
        {
          "internalType": "bytes",
          "name": "data",
          "type": "bytes"
        }
      ],
      "name": "safeMint",
      "outputs": [
        {
          "internalType": "uint256",
          "name": "",
          "type": "uint256"
        }
      ],
      "payable": true,
      "stateMutability": "payable",
      "type": "function"
    },
    {
      "constant": true,
      "inputs": [],
      "name": "paused",
      "outputs": [
        {
          "internalType": "bool",
          "name": "",
          "type": "bool"
        }
      ],
      "payable": false,
      "stateMutability": "view",
      "type": "function"
    },
    {
      "constant": false,
      "inputs": [],
      "name": "withdrawBalance",
      "outputs": [],
      "payable": false,
      "stateMutability": "nonpayable",
      "type": "function"
    },
    {
      "constant": true,
      "inputs": [
        {
          "internalType": "uint256",
          "name": "tokenId",
          "type": "uint256"
        }
      ],
      "name": "ownerOf",
      "outputs": [
        {
          "internalType": "address",
          "name": "",
          "type": "address"
        }
      ],
      "payable": false,
      "stateMutability": "view",
      "type": "function"
    },
    {
      "constant": false,
      "inputs": [
        {
          "internalType": "string",
          "name": "val",
          "type": "string"
        }
      ],
      "name": "updateTokenURIBaseURL",
      "outputs": [],
      "payable": false,
      "stateMutability": "nonpayable",
      "type": "function"
    },
    {
      "constant": true,
      "inputs": [
        {
          "internalType": "address",
          "name": "tokenOwner",
          "type": "address"
        }
      ],
      "name": "balanceOf",
      "outputs": [
        {
          "internalType": "uint256",
          "name": "",
          "type": "uint256"
        }
      ],
      "payable": false,
      "stateMutability": "view",
      "type": "function"
    },
    {
      "constant": true,
      "inputs": [],
      "name": "owner1",
      "outputs": [
        {
          "internalType": "address",
          "name": "",
          "type": "address"
        }
      ],
      "payable": false,
      "stateMutability": "view",
      "type": "function"
    },
    {
      "constant": true,
      "inputs": [],
      "name": "registry",
      "outputs": [
        {
          "internalType": "contract DeployedRegistry",
          "name": "",
          "type": "address"
        }
      ],
      "payable": false,
      "stateMutability": "view",
      "type": "function"
    },
    {
      "constant": false,
      "inputs": [
        {
          "internalType": "uint256",
          "name": "val",
          "type": "uint256"
        }
      ],
      "name": "updateMintFee",
      "outputs": [],
      "payable": false,
      "stateMutability": "nonpayable",
      "type": "function"
    },
    {
      "constant": false,
      "inputs": [],
      "name": "pause",
      "outputs": [],
      "payable": false,
      "stateMutability": "nonpayable",
      "type": "function"
    },
    {
      "constant": true,
      "inputs": [
        {
          "internalType": "address",
          "name": "tokenOwner",
          "type": "address"
        }
      ],
      "name": "tokensOfOwner",
      "outputs": [
        {
          "internalType": "uint256[]",
          "name": "",
          "type": "uint256[]"
        }
      ],
      "payable": false,
      "stateMutability": "view",
      "type": "function"
    },
    {
      "constant": false,
      "inputs": [
        {
          "internalType": "string",
          "name": "contentId",
          "type": "string"
        },
        {
          "internalType": "uint48",
          "name": "startTime",
          "type": "uint48"
        },
        {
          "internalType": "uint48",
          "name": "endTime",
          "type": "uint48"
        },
        {
          "internalType": "bool",
          "name": "isSecondaryTradingEnabled",
          "type": "bool"
        },
        {
          "internalType": "uint32",
          "name": "federationId",
          "type": "uint32"
        }
      ],
      "name": "safeMint",
      "outputs": [
        {
          "internalType": "uint256",
          "name": "",
          "type": "uint256"
        }
      ],
      "payable": true,
      "stateMutability": "payable",
      "type": "function"
    },
    {
      "constant": false,
      "inputs": [
        {
          "internalType": "address",
          "name": "to",
          "type": "address"
        },
        {
          "internalType": "bool",
          "name": "approved",
          "type": "bool"
        }
      ],
      "name": "setApprovalForAll",
      "outputs": [],
      "payable": false,
      "stateMutability": "nonpayable",
      "type": "function"
    },
    {
      "constant": true,
      "inputs": [
        {
          "internalType": "address",
          "name": "minter",
          "type": "address"
        }
      ],
      "name": "tokenMinterContentIds",
      "outputs": [
        {
          "internalType": "string[]",
          "name": "",
          "type": "string[]"
        }
      ],
      "payable": false,
      "stateMutability": "view",
      "type": "function"
    },
    {
      "constant": false,
      "inputs": [
        {
          "internalType": "address",
          "name": "from",
          "type": "address"
        },
        {
          "internalType": "address",
          "name": "to",
          "type": "address"
        },
        {
          "internalType": "uint256",
          "name": "tokenId",
          "type": "uint256"
        },
        {
          "internalType": "bytes",
          "name": "data",
          "type": "bytes"
        }
      ],
      "name": "safeTransferFrom",
      "outputs": [],
      "payable": false,
      "stateMutability": "nonpayable",
      "type": "function"
    },
    {
      "constant": false,
      "inputs": [
        {
          "internalType": "address",
          "name": "newAddress",
          "type": "address"
        }
      ],
      "name": "updateRegistryAddress",
      "outputs": [],
      "payable": false,
      "stateMutability": "nonpayable",
      "type": "function"
    },
    {
      "constant": true,
      "inputs": [
        {
          "internalType": "uint256",
          "name": "tokenId",
          "type": "uint256"
        }
      ],
      "name": "tokenURI",
      "outputs": [
        {
          "internalType": "string",
          "name": "",
          "type": "string"
        }
      ],
      "payable": false,
      "stateMutability": "view",
      "type": "function"
    },
    {
      "constant": false,
      "inputs": [
        {
          "internalType": "address",
          "name": "newOwner",
          "type": "address"
        }
      ],
      "name": "transferOwnership2",
      "outputs": [],
      "payable": false,
      "stateMutability": "nonpayable",
      "type": "function"
    },
    {
      "constant": true,
      "inputs": [
        {
          "internalType": "uint256",
          "name": "tokenId",
          "type": "uint256"
        }
      ],
      "name": "tokenTimeSlot",
      "outputs": [
        {
          "internalType": "address",
          "name": "minter",
          "type": "address"
        },
        {
          "internalType": "address",
          "name": "owner",
          "type": "address"
        },
        {
          "internalType": "string",
          "name": "contentId",
          "type": "string"
        },
        {
          "internalType": "uint48",
          "name": "startTime",
          "type": "uint48"
        },
        {
          "internalType": "uint48",
          "name": "endTime",
          "type": "uint48"
        },
        {
          "internalType": "bool",
          "name": "isSecondaryTradingEnabled",
          "type": "bool"
        },
        {
          "internalType": "uint32",
          "name": "federationId",
          "type": "uint32"
        }
      ],
      "payable": false,
      "stateMutability": "view",
      "type": "function"
    },
    {
      "constant": false,
      "inputs": [
        {
          "internalType": "string",
          "name": "contentId",
          "type": "string"
        },
        {
          "internalType": "uint48",
          "name": "startTime",
          "type": "uint48"
        },
        {
          "internalType": "uint48",
          "name": "endTime",
          "type": "uint48"
        },
        {
          "internalType": "bool",
          "name": "isSecondaryTradingEnabled",
          "type": "bool"
        },
        {
          "internalType": "uint32",
          "name": "federationId",
          "type": "uint32"
        }
      ],
      "name": "mint",
      "outputs": [
        {
          "internalType": "uint256",
          "name": "",
          "type": "uint256"
        }
      ],
      "payable": true,
      "stateMutability": "payable",
      "type": "function"
    },
    {
      "constant": false,
      "inputs": [
        {
          "internalType": "address",
          "name": "newOwner",
          "type": "address"
        }
      ],
      "name": "transferOwnership1",
      "outputs": [],
      "payable": false,
      "stateMutability": "nonpayable",
      "type": "function"
    },
    {
      "constant": true,
      "inputs": [
        {
          "internalType": "address",
          "name": "tokenOwner",
          "type": "address"
        },
        {
          "internalType": "address",
          "name": "operator",
          "type": "address"
        }
      ],
      "name": "isApprovedForAll",
      "outputs": [
        {
          "internalType": "bool",
          "name": "",
          "type": "bool"
        }
      ],
      "payable": false,
      "stateMutability": "view",
      "type": "function"
    },
    {
      "inputs": [
        {
          "internalType": "string",
          "name": "name",
          "type": "string"
        },
        {
          "internalType": "string",
          "name": "symbol",
          "type": "string"
        },
        {
          "internalType": "address",
          "name": "registryAddress",
          "type": "address"
        }
      ],
      "payable": false,
      "stateMutability": "nonpayable",
      "type": "constructor"
    },
    {
      "anonymous": false,
      "inputs": [
        {
          "indexed": true,
          "internalType": "address",
          "name": "from",
          "type": "address"
        },
        {
          "indexed": true,
          "internalType": "address",
          "name": "to",
          "type": "address"
        },
        {
          "indexed": true,
          "internalType": "uint256",
          "name": "tokenId",
          "type": "uint256"
        }
      ],
      "name": "Transfer",
      "type": "event"
    },
    {
      "anonymous": false,
      "inputs": [
        {
          "indexed": true,
          "internalType": "address",
          "name": "tokenOwner",
          "type": "address"
        },
        {
          "indexed": true,
          "internalType": "address",
          "name": "approved",
          "type": "address"
        },
        {
          "indexed": true,
          "internalType": "uint256",
          "name": "tokenId",
          "type": "uint256"
        }
      ],
      "name": "Approval",
      "type": "event"
    },
    {
      "anonymous": false,
      "inputs": [
        {
          "indexed": true,
          "internalType": "address",
          "name": "tokenOwner",
          "type": "address"
        },
        {
          "indexed": true,
          "internalType": "address",
          "name": "operator",
          "type": "address"
        },
        {
          "indexed": false,
          "internalType": "bool",
          "name": "approved",
          "type": "bool"
        }
      ],
      "name": "ApprovalForAll",
      "type": "event"
    },
    {
      "constant": true,
      "inputs": [],
      "name": "name",
      "outputs": [
        {
          "internalType": "string",
          "name": "",
          "type": "string"
        }
      ],
      "payable": false,
      "stateMutability": "view",
      "type": "function"
    },
    {
      "constant": true,
      "inputs": [],
      "name": "symbol",
      "outputs": [
        {
          "internalType": "string",
          "name": "",
          "type": "string"
        }
      ],
      "payable": false,
      "stateMutability": "view",
      "type": "function"
    }
  ],
  "bytecode": "0x6002805460ff60a01b19169055655af3107a400060035560a06040819052600060808190526200003291600c9162000306565b503480156200004057600080fd5b5060405162003e7338038062003e73833981016040819052620000639162000417565b620000977f01ffc9a7000000000000000000000000000000000000000000000000000000006001600160e01b03620001a716565b620000cb7f80ac58cd000000000000000000000000000000000000000000000000000000006001600160e01b03620001a716565b620000de6001600160e01b036200024c16565b600180546001600160a01b0319166001600160a01b0392909216919091179055620001086200024c565b600280546001600160a01b0319166001600160a01b039290921691909117905582516200013d90600f90602086019062000306565b5081516200015390601090602085019062000306565b50620001887f5b5e139f000000000000000000000000000000000000000000000000000000006001600160e01b03620001a716565b6200019e816200025160201b620018711760201c565b505050620005eb565b7fffffffff0000000000000000000000000000000000000000000000000000000080821614156200020f576040517f08c379a0000000000000000000000000000000000000000000000000000000008152600401620002069062000510565b60405180910390fd5b7fffffffff00000000000000000000000000000000000000000000000000000000166000908152602081905260409020805460ff19166001179055565b335b90565b6001546001600160a01b0316620002706001600160e01b036200024c16565b6001600160a01b03161480620002ab57506002546001600160a01b0316620002a06001600160e01b036200024c16565b6001600160a01b0316145b620002e4576040517f08c379a0000000000000000000000000000000000000000000000000000000008152600401620002069062000522565b600480546001600160a01b0319166001600160a01b0392909216919091179055565b828054600181600116156101000203166002900490600052602060002090601f016020900481019282601f106200034957805160ff191683800117855562000379565b8280016001018555821562000379579182015b82811115620003795782518255916020019190600101906200035c565b50620003879291506200038b565b5090565b6200024e91905b8082111562000387576000815560010162000392565b8051620003b581620005d1565b92915050565b600082601f830112620003cd57600080fd5b8151620003e4620003de826200055b565b62000534565b915080825260208301602083018583830111156200040157600080fd5b6200040e8382846200059e565b50505092915050565b6000806000606084860312156200042d57600080fd5b83516001600160401b038111156200044457600080fd5b6200045286828701620003bb565b93505060208401516001600160401b038111156200046f57600080fd5b6200047d86828701620003bb565b92505060406200049086828701620003a8565b9150509250925092565b6000620004a9601c8362000583565b7f4552433136353a20696e76616c696420696e7465726661636520696400000000815260200192915050565b6000620004e460138362000583565b7f4f4e4c595f434f4e54524143545f4f574e455200000000000000000000000000815260200192915050565b60208082528101620003b5816200049a565b60208082528101620003b581620004d5565b6040518181016001600160401b03811182821017156200055357600080fd5b604052919050565b60006001600160401b038211156200057257600080fd5b506020601f91909101601f19160190565b90815260200190565b60006001600160a01b038216620003b5565b60005b83811015620005bb578181015183820152602001620005a1565b83811115620005cb576000848401525b50505050565b620005dc816200058c565b8114620005e857600080fd5b50565b61387880620005fb6000396000f3fe60806040526004361061021a5760003560e01c8063706230db11610123578063a22cb465116100ab578063e2b375a91161006f578063e2b375a9146105f4578063e5c2492414610614578063e89fecc014610647578063e982d5a91461065a578063e985e9c51461067a5761021a565b8063a22cb46514610547578063a4ede12814610567578063b88d4fde14610594578063c57a8825146105b4578063c87b56dd146105d45761021a565b806384017e52116100f257806384017e52146104ca5780638456cb59146104ea5780638462151c146104ff57806395d89b411461051f578063a002c376146105345761021a565b8063706230db1461045357806370a082311461047357806373688914146104935780637b103999146104a85761021a565b80633f4ba83a116101a6578063527097251161017557806352709725146103e15780635a393bc2146103f65780635c975abb146104095780635fd8c7101461041e5780636352211e146104335761021a565b80633f4ba83a1461037757806340ce3a411461038c57806342842e0e146103a157806342966c68146103c15761021a565b806313966db5116101ed57806313966db5146102c6578063180b9e3f146102e857806318160ddd1461031557806323b872dd1461032a5780632a0c77991461034a5761021a565b806301ffc9a71461021f57806306fdde0314610255578063081812fc14610277578063095ea7b3146102a4575b600080fd5b34801561022b57600080fd5b5061023f61023a366004612bce565b61069a565b60405161024c91906134fe565b60405180910390f35b34801561026157600080fd5b5061026a6106bd565b60405161024c919061351a565b34801561028357600080fd5b50610297610292366004612d81565b610754565b60405161024c919061341b565b3480156102b057600080fd5b506102c46102bf366004612b80565b6107a0565b005b3480156102d257600080fd5b506102db61089c565b60405161024c919061364b565b3480156102f457600080fd5b50610308610303366004612d81565b6108a2565b60405161024c9190613659565b34801561032157600080fd5b506102db6108ba565b34801561033657600080fd5b506102c4610345366004612a8a565b6108cb565b34801561035657600080fd5b5061036a610365366004612a32565b610a47565b60405161024c91906134ed565b34801561038357600080fd5b506102c4610b4f565b34801561039857600080fd5b5061026a610bd3565b3480156103ad57600080fd5b506102c46103bc366004612a8a565b610c61565b3480156103cd57600080fd5b506102c46103dc366004612d81565b610c81565b3480156103ed57600080fd5b50610297610dc5565b6102db610404366004612ccb565b610dd4565b34801561041557600080fd5b5061023f610f3f565b34801561042a57600080fd5b506102c4610f4f565b34801561043f57600080fd5b5061029761044e366004612d81565b61102b565b34801561045f57600080fd5b506102c461046e366004612c0a565b611046565b34801561047f57600080fd5b506102db61048e366004612a32565b6110b8565b34801561049f57600080fd5b50610297611107565b3480156104b457600080fd5b506104bd611116565b60405161024c919061350c565b3480156104d657600080fd5b506102c46104e5366004612d81565b611125565b3480156104f657600080fd5b506102c4611189565b34801561050b57600080fd5b5061036a61051a366004612a32565b611214565b34801561052b57600080fd5b5061026a6112ce565b6102db610542366004612c3f565b61132f565b34801561055357600080fd5b506102c4610562366004612b50565b611498565b34801561057357600080fd5b50610587610582366004612a32565b61157d565b60405161024c91906134dc565b3480156105a057600080fd5b506102c46105af366004612ad7565b6116f3565b3480156105c057600080fd5b506102c46105cf366004612a32565b611871565b3480156105e057600080fd5b5061026a6105ef366004612d81565b6118f2565b34801561060057600080fd5b506102c461060f366004612a32565b61194b565b34801561062057600080fd5b5061063461062f366004612d81565b6119d8565b60405161024c9796959493929190613429565b6102db610655366004612c3f565b611b63565b34801561066657600080fd5b506102c4610675366004612a32565b611c8f565b34801561068657600080fd5b5061023f610695366004612a50565b611d1d565b6001600160e01b0319811660009081526020819052604090205460ff165b919050565b600f8054604080516020601f60026000196101006001881615020190951694909404938401819004810282018101909252828152606093909290918301828280156107495780601f1061071e57610100808354040283529160200191610749565b820191906000526020600020905b81548152906001019060200180831161072c57829003601f168201915b505050505090505b90565b600061075f82611d4b565b6107845760405162461bcd60e51b815260040161077b9061360b565b60405180910390fd5b506000908152600d60205260409020546001600160a01b031690565b600254600160a01b900460ff16156107b757600080fd5b60006107c28261102b565b9050806001600160a01b0316836001600160a01b031614156107f65760405162461bcd60e51b815260040161077b9061358b565b806001600160a01b0316610808611d68565b6001600160a01b03161480610824575061082481610695611d68565b6108405760405162461bcd60e51b815260040161077b9061363b565b6000828152600d602052604080822080546001600160a01b0319166001600160a01b0387811691821790925591518593918516917f8c5be1e5ebec7d5bd14f71427d1e84f3dd0314c0f7b2291e5b200ac8c7c3b92591a4505050565b60035481565b60096020526000908152604090205463ffffffff1681565b60006108c66005611d6c565b905090565b600254600160a01b900460ff16156108e257600080fd5b6108f36108ed611d68565b82611d70565b61090f5760405162461bcd60e51b815260040161077b9061362b565b6000818152600a60205260408120546001600160a01b0316906109318361102b565b600084815260096020908152604080832054600a9092529091206002015491925063ffffffff1690600160601b900460ff1661098f57610972868686611df5565b1561098f5760405162461bcd60e51b815260040161077b9061353b565b60048054604051630d1e359160e01b81526001600160a01b0390911691630d1e3591916109c89185918b918b918b918b918b9101613682565b60206040518083038186803b1580156109e057600080fd5b505afa1580156109f4573d6000803e3d6000fd5b505050506040513d601f19601f82011682018060405250610a189190810190612bb0565b610a345760405162461bcd60e51b815260040161077b9061362b565b610a3f868686611e4c565b505050505050565b60606001600160a01b038216610a6f5760405162461bcd60e51b815260040161077b9061356b565b6001600160a01b0382166000908152600860205260408120610a9090611d6c565b905080610ab25760408051600080825260208201909252905b509150506106b8565b606081604051908082528060200260200182016040528015610ade578160200160208202803883390190505b5090506000610aeb6108ba565b9050600060015b828111610b42576000818152600a60205260409020546001600160a01b0388811691161415610b3a5780848381518110610b2857fe5b60209081029190910101526001909101905b600101610af2565b83955050505050506106b8565b6001546001600160a01b0316610b63611d68565b6001600160a01b03161480610b9257506002546001600160a01b0316610b87611d68565b6001600160a01b0316145b610bae5760405162461bcd60e51b815260040161077b906135db565b600254600160a01b900460ff16610bc457600080fd5b6002805460ff60a01b19169055565b600c805460408051602060026001851615610100026000190190941693909304601f81018490048402820184019092528181529291830182828015610c595780601f10610c2e57610100808354040283529160200191610c59565b820191906000526020600020905b815481529060010190602001808311610c3c57829003601f168201915b505050505081565b610c7c838383604051806020016040528060008152506116f3565b505050565b600254600160a01b900460ff1615610c9857600080fd5b6000818152600a60205260408120546001600160a01b031690610cba8361102b565b60008481526009602052604090205490915063ffffffff166001600160a01b038083169084161415610d89576004546001600160a01b03166312d26ac882610d00611d68565b6040518363ffffffff1660e01b8152600401610d1d929190613667565b60206040518083038186803b158015610d3557600080fd5b505afa158015610d49573d6000803e3d6000fd5b505050506040513d601f19601f82011682018060405250610d6d9190810190612bb0565b610d895760405162461bcd60e51b815260040161077b9061357b565b610d9a610d94611d68565b85611d70565b610db65760405162461bcd60e51b815260040161077b9061357b565b610dbf84611f52565b50505050565b6002546001600160a01b031681565b600254600090600160a01b900460ff1615610dee57600080fd5b600354341015610dfd57600080fd5b60008363ffffffff1611610e235760405162461bcd60e51b815260040161077b906135cb565b6004546001600160a01b03166312d26ac884610e3d611d68565b6040518363ffffffff1660e01b8152600401610e5a929190613667565b60206040518083038186803b158015610e7257600080fd5b505afa158015610e86573d6000803e3d6000fd5b505050506040513d601f19601f82011682018060405250610eaa9190810190612bb0565b610ec65760405162461bcd60e51b815260040161077b9061361b565b610ed287878786611f64565b610eee5760405162461bcd60e51b815260040161077b906135fb565b6000610f01610efb611d68565b8461203e565b9050610f108189898989612075565b6000818152600960205260409020805463ffffffff861663ffffffff1990911617905590509695505050505050565b600254600160a01b900460ff1681565b6001546001600160a01b0316610f63611d68565b6001600160a01b03161480610f9257506002546001600160a01b0316610f87611d68565b6001600160a01b0316145b610fae5760405162461bcd60e51b815260040161077b906135db565b60405130319060009033908390610fc490613410565b60006040518083038185875af1925050503d8060008114611001576040519150601f19603f3d011682016040523d82523d6000602084013e611006565b606091505b50509050806110275760405162461bcd60e51b815260040161077b9061359b565b5050565b6000908152600660205260409020546001600160a01b031690565b6001546001600160a01b031661105a611d68565b6001600160a01b0316148061108957506002546001600160a01b031661107e611d68565b6001600160a01b0316145b6110a55760405162461bcd60e51b815260040161077b906135db565b805161102790600c90602084019061287f565b60006001600160a01b0382166110e05760405162461bcd60e51b815260040161077b9061356b565b6001600160a01b038216600090815260076020526040902061110190611d6c565b92915050565b6001546001600160a01b031681565b6004546001600160a01b031681565b6001546001600160a01b0316611139611d68565b6001600160a01b0316148061116857506002546001600160a01b031661115d611d68565b6001600160a01b0316145b6111845760405162461bcd60e51b815260040161077b906135db565b600355565b6001546001600160a01b031661119d611d68565b6001600160a01b031614806111cc57506002546001600160a01b03166111c1611d68565b6001600160a01b0316145b6111e85760405162461bcd60e51b815260040161077b906135db565b600254600160a01b900460ff16156111ff57600080fd5b6002805460ff60a01b1916600160a01b179055565b60606000611221836110b8565b90508061123e576040805160008082526020820190925290610aa9565b60608160405190808252806020026020018201604052801561126a578160200160208202803883390190505b50905060006112776108ba565b9050600060015b828111610b42576000818152600660205260409020546001600160a01b03888116911614156112c657808483815181106112b457fe5b60209081029190910101526001909101905b60010161127e565b60108054604080516020601f60026000196101006001881615020190951694909404938401819004810282018101909252828152606093909290918301828280156107495780601f1061071e57610100808354040283529160200191610749565b600254600090600160a01b900460ff161561134957600080fd5b60035434101561135857600080fd5b60008263ffffffff161161137e5760405162461bcd60e51b815260040161077b906135cb565b6004546001600160a01b03166312d26ac883611398611d68565b6040518363ffffffff1660e01b81526004016113b5929190613667565b60206040518083038186803b1580156113cd57600080fd5b505afa1580156113e1573d6000803e3d6000fd5b505050506040513d601f19601f820116820180604052506114059190810190612bb0565b6114215760405162461bcd60e51b815260040161077b9061361b565b61142d86868685611f64565b6114495760405162461bcd60e51b815260040161077b906135fb565b600061145b611456611d68565b612234565b905061146a8188888888612075565b6000818152600960205260409020805463ffffffff851663ffffffff19909116179055905095945050505050565b600254600160a01b900460ff16156114af57600080fd5b6114b7611d68565b6001600160a01b0316826001600160a01b031614156114e85760405162461bcd60e51b815260040161077b906135bb565b80600e60006114f5611d68565b6001600160a01b03908116825260208083019390935260409182016000908120918716808252919093529120805460ff191692151592909217909155611539611d68565b6001600160a01b03167f17307eab39ab6107e8899845ad3d59bd9653f200f220920489ca2b5937696c318360405161157191906134fe565b60405180910390a35050565b6001600160a01b0381166000908152600b602090815260408083208054825181850281018501909352808352606094859484015b8282101561166857600084815260209081902060408051918501805460026001821615610100026000190190911604601f81018590048502840183018352938301848152929390928492909184918401828280156116505780601f1061162557610100808354040283529160200191611650565b820191906000526020600020905b81548152906001019060200180831161163357829003601f168201915b505050505081525050815260200190600101906115b1565b505050509050606081516040519080825280602002602001820160405280156116a557816020015b60608152602001906001900390816116905790505b50905060005b82518110156116eb578281815181106116c057fe5b6020026020010151600001518282815181106116d857fe5b60209081029190910101526001016116ab565b509392505050565b600254600160a01b900460ff161561170a57600080fd5b61171b611715611d68565b83611d70565b6117375760405162461bcd60e51b815260040161077b9061362b565b6000828152600a60205260408120546001600160a01b0316906117598461102b565b600085815260096020908152604080832054600a9092529091206002015491925063ffffffff1690600160601b900460ff166117b75761179a878787611df5565b156117b75760405162461bcd60e51b815260040161077b9061353b565b60048054604051630d1e359160e01b81526001600160a01b0390911691630d1e3591916117f09185918c918c918c918b918b9101613682565b60206040518083038186803b15801561180857600080fd5b505afa15801561181c573d6000803e3d6000fd5b505050506040513d601f19601f820116820180604052506118409190810190612bb0565b61185c5760405162461bcd60e51b815260040161077b9061362b565b61186887878787612250565b50505050505050565b6001546001600160a01b0316611885611d68565b6001600160a01b031614806118b457506002546001600160a01b03166118a9611d68565b6001600160a01b0316145b6118d05760405162461bcd60e51b815260040161077b906135db565b600480546001600160a01b0319166001600160a01b0392909216919091179055565b60606118fd82611d4b565b6119195760405162461bcd60e51b815260040161077b9061360b565b600c61192483612283565b6040516020016119359291906133f8565b6040516020818303038152906040529050919050565b6001546001600160a01b031661195f611d68565b6001600160a01b0316148061198e57506002546001600160a01b0316611983611d68565b6001600160a01b0316145b6119aa5760405162461bcd60e51b815260040161077b906135db565b6001600160a01b038116156119d557600280546001600160a01b0319166001600160a01b0383161790555b50565b60008060606000806000806119ec88611d4b565b611a085760405162461bcd60e51b815260040161077b9061360b565b611a106128fd565b6000898152600a6020908152604091829020825160a08101845281546001600160a01b03168152600180830180548651600261010094831615949094026000190190911692909204601f8101869004860283018601909652858252919492938581019391929190830182828015611ac85780601f10611a9d57610100808354040283529160200191611ac8565b820191906000526020600020905b815481529060010190602001808311611aab57829003601f168201915b50505091835250506002919091015465ffffffffffff80821660208085019190915266010000000000008304909116604080850191909152600160601b90920460ff16151560609093019290925260008c81526009909252902054815191925063ffffffff1690611b388b61102b565b602084015160408501516060860151608090960151939e929d50909b50995092975095509350915050565b600254600090600160a01b900460ff1615611b7d57600080fd5b600354341015611b8c57600080fd5b60008263ffffffff1611611bb25760405162461bcd60e51b815260040161077b906135cb565b6004546001600160a01b03166312d26ac883611bcc611d68565b6040518363ffffffff1660e01b8152600401611be9929190613667565b60206040518083038186803b158015611c0157600080fd5b505afa158015611c15573d6000803e3d6000fd5b505050506040513d601f19601f82011682018060405250611c399190810190612bb0565b611c555760405162461bcd60e51b815260040161077b9061361b565b611c6186868685611f64565b611c7d5760405162461bcd60e51b815260040161077b906135fb565b600061145b611c8a611d68565b61235c565b6001546001600160a01b0316611ca3611d68565b6001600160a01b03161480611cd257506002546001600160a01b0316611cc7611d68565b6001600160a01b0316145b611cee5760405162461bcd60e51b815260040161077b906135db565b6001600160a01b038116156119d557600180546001600160a01b0383166001600160a01b031990911617905550565b6001600160a01b039182166000908152600e6020908152604080832093909416825291909152205460ff1690565b6000908152600660205260409020546001600160a01b0316151590565b3390565b5490565b6000611d7b82611d4b565b611d975760405162461bcd60e51b815260040161077b9061360b565b6000611da28361102b565b9050806001600160a01b0316846001600160a01b03161480611ddd5750836001600160a01b0316611dd284610754565b6001600160a01b0316145b80611ded5750611ded8185611d1d565b949350505050565b6000818152600a60205260408120546001600160a01b03908116908516811480611e305750806001600160a01b0316846001600160a01b0316145b15611e3f576000915050611e45565b60019150505b9392505050565b826001600160a01b0316611e5f8261102b565b6001600160a01b031614611e855760405162461bcd60e51b815260040161077b9061362b565b6001600160a01b038216611eab5760405162461bcd60e51b815260040161077b9061355b565b611eb48161243b565b6001600160a01b0383166000908152600760205260409020611ed590612476565b6001600160a01b0382166000908152600760205260409020611ef69061248d565b60008181526006602052604080822080546001600160a01b0319166001600160a01b0386811691821790925591518493918716917fddf252ad1be2c89b69c2b068fc378daa952ba7f163c4a11628f55a4df523b3ef91a4505050565b6119d5611f5e8261102b565b82612496565b6004805460405163abe6178360e01b81526000926001600160a01b039092169163abe6178391611f989186918a91016136dc565b60206040518083038186803b158015611fb057600080fd5b505afa158015611fc4573d6000803e3d6000fd5b505050506040513d601f19601f82011682018060405250611fe89190810190612bb0565b6120045760405162461bcd60e51b815260040161077b906135ab565b8365ffffffffffff168365ffffffffffff16116120335760405162461bcd60e51b815260040161077b906135eb565b506001949350505050565b60008061204a8461235c565b9050612059600085838661258b565b611e455760405162461bcd60e51b815260040161077b9061354b565b61207e85611d4b565b61209a5760405162461bcd60e51b815260040161077b9061360b565b6120a26128fd565b6040518060a001604052806120b5611d68565b6001600160a01b031681526020018681526020018565ffffffffffff1681526020018465ffffffffffff168152602001831515815250905080600a600088815260200190815260200160002060008201518160000160006101000a8154816001600160a01b0302191690836001600160a01b03160217905550602082015181600101908051906020019061214a92919061287f565b5060408201516002919091018054606084015160809094015165ffffffffffff1990911665ffffffffffff938416176bffffffffffff000000000000191666010000000000009390941692909202929092176cff0000000000000000000000001916600160601b911515919091021790556121c485612656565b610a3f57600b60006121d4611d68565b6001600160a01b03168152602080820192909252604090810160009081208251808501909352888352805460018101808355918352918490208351805192959190930192612228928492919091019061287f565b50505050505050505050565b600080611e45836040518060200160405280600081525061203e565b61225b848484611e4c565b6122678484848461258b565b610dbf5760405162461bcd60e51b815260040161077b9061354b565b6060816122a857506040805180820190915260018152600360fc1b60208201526106b8565b8160005b81156122c057600101600a820491506122ac565b6060816040519080825280601f01601f1916602001820160405280156122ed576020820181803883390190505b50905060001982015b851561235357600a860660300160f81b8282806001900393508151811061231957fe5b60200101907effffffffffffffffffffffffffffffffffffffffffffffffffffffffffffff1916908160001a905350600a860495506122f6565b50949350505050565b60006001600160a01b0382166123845760405162461bcd60e51b815260040161077b9061352b565b61238e600561248d565b600061239a6005611d6c565b600081815260066020908152604080832080546001600160a01b0319166001600160a01b0389169081179091558352600790915290209091506123dc9061248d565b6001600160a01b03831660009081526008602052604090206123fd9061248d565b60405181906001600160a01b038516906000907fddf252ad1be2c89b69c2b068fc378daa952ba7f163c4a11628f55a4df523b3ef908290a492915050565b6000818152600d60205260409020546001600160a01b0316156119d5576000908152600d6020526040902080546001600160a01b0319169055565b805461248990600163ffffffff61278116565b9055565b80546001019055565b816001600160a01b03166124a98261102b565b6001600160a01b0316146124cf5760405162461bcd60e51b815260040161077b9061357b565b6124d88161243b565b6001600160a01b03821660009081526007602052604090206124f990612476565b600081815260066020908152604080832080546001600160a01b0319908116909155600a90925282208054909116815590612537600183018261292c565b5060020180546cffffffffffffffffffffffffff1916905560405181906000906001600160a01b038516907fddf252ad1be2c89b69c2b068fc378daa952ba7f163c4a11628f55a4df523b3ef908390a45050565b600061259f846001600160a01b03166127c3565b6125ab57506001611ded565b6000846001600160a01b031663150b7a026125c4611d68565b8887876040518563ffffffff1660e01b81526004016125e69493929190613498565b602060405180830381600087803b15801561260057600080fd5b505af1158015612614573d6000803e3d6000fd5b505050506040513d601f19601f820116820180604052506126389190810190612bec565b6001600160e01b031916630a85bd0160e11b14915050949350505050565b336000908152600b602090815260408083208054825181850281018501909352808352606093859084015b8282101561273857600084815260209081902060408051918501805460026001821615610100026000190190911604601f81018590048502840183018352938301848152929390928492909184918401828280156127205780601f106126f557610100808354040283529160200191612720565b820191906000526020600020905b81548152906001019060200180831161270357829003601f168201915b50505050508152505081526020019060010190612681565b5092935060009250829150505b82518110156116eb5761276f8584838151811061275e57fe5b6020026020010151600001516127fa565b1561277957600191505b600101612745565b6000611e4583836040518060400160405280601e81526020017f536166654d6174683a207375627472616374696f6e206f766572666c6f770000815250612853565b6000813f7fc5d2460186f7233c927e7db2dcc703c0e500b653ca82273b7bfad8045d85a4708115801590611ded5750141592915050565b60008160405160200161280d91906133ec565b604051602081830303815290604052805190602001208360405160200161283491906133ec565b6040516020818303038152906040528051906020012014905092915050565b600081848411156128775760405162461bcd60e51b815260040161077b919061351a565b505050900390565b828054600181600116156101000203166002900490600052602060002090601f016020900481019282601f106128c057805160ff19168380011785556128ed565b828001600101855582156128ed579182015b828111156128ed5782518255916020019190600101906128d2565b506128f992915061296c565b5090565b6040805160a0810182526000808252606060208301819052928201819052918101829052608081019190915290565b50805460018160011615610100020316600290046000825580601f1061295257506119d5565b601f0160209004906000526020600020908101906119d591905b61075191905b808211156128f95760008155600101612972565b8035611101816137f4565b803561110181613808565b805161110181613808565b803561110181613811565b805161110181613811565b600082601f8301126129ce57600080fd5b81356129e16129dc82613723565b6136fc565b915080825260208301602083018583830111156129fd57600080fd5b612a088382846137b2565b50505092915050565b80356111018161381a565b803561110181613823565b80356111018161382c565b600060208284031215612a4457600080fd5b6000611ded8484612986565b60008060408385031215612a6357600080fd5b6000612a6f8585612986565b9250506020612a8085828601612986565b9150509250929050565b600080600060608486031215612a9f57600080fd5b6000612aab8686612986565b9350506020612abc86828701612986565b9250506040612acd86828701612a11565b9150509250925092565b60008060008060808587031215612aed57600080fd5b6000612af98787612986565b9450506020612b0a87828801612986565b9350506040612b1b87828801612a11565b925050606085013567ffffffffffffffff811115612b3857600080fd5b612b44878288016129bd565b91505092959194509250565b60008060408385031215612b6357600080fd5b6000612b6f8585612986565b9250506020612a8085828601612991565b60008060408385031215612b9357600080fd5b6000612b9f8585612986565b9250506020612a8085828601612a11565b600060208284031215612bc257600080fd5b6000611ded848461299c565b600060208284031215612be057600080fd5b6000611ded84846129a7565b600060208284031215612bfe57600080fd5b6000611ded84846129b2565b600060208284031215612c1c57600080fd5b813567ffffffffffffffff811115612c3357600080fd5b611ded848285016129bd565b600080600080600060a08688031215612c5757600080fd5b853567ffffffffffffffff811115612c6e57600080fd5b612c7a888289016129bd565b9550506020612c8b88828901612a27565b9450506040612c9c88828901612a27565b9350506060612cad88828901612991565b9250506080612cbe88828901612a1c565b9150509295509295909350565b60008060008060008060c08789031215612ce457600080fd5b863567ffffffffffffffff811115612cfb57600080fd5b612d0789828a016129bd565b9650506020612d1889828a01612a27565b9550506040612d2989828a01612a27565b9450506060612d3a89828a01612991565b9350506080612d4b89828a01612a1c565b92505060a087013567ffffffffffffffff811115612d6857600080fd5b612d7489828a016129bd565b9150509295509295509295565b600060208284031215612d9357600080fd5b6000611ded8484612a11565b6000611e458383612e9e565b6000612db783836133d1565b505060200190565b612dc88161376a565b82525050565b6000612dd98261375d565b612de38185613761565b935083602082028501612df58561374b565b8060005b85811015612e2f5784840389528151612e128582612d9f565b9450612e1d8361374b565b60209a909a0199925050600101612df9565b5091979650505050505050565b6000612e478261375d565b612e518185613761565b9350612e5c8361374b565b8060005b83811015612e8a578151612e748882612dab565b9750612e7f8361374b565b925050600101612e60565b509495945050505050565b612dc881613775565b6000612ea98261375d565b612eb38185613761565b9350612ec38185602086016137be565b612ecc816137ea565b9093019392505050565b612dc8816137a7565b6000612eea8261375d565b612ef481856106b8565b9350612f048185602086016137be565b9290920192915050565b600081546001811660008114612f2b5760018114612f4e57612f8d565b607f6002830416612f3c81876106b8565b60ff1984168152955085019250612f8d565b60028204612f5c81876106b8565b9550612f6785613751565b60005b82811015612f8657815488820152600190910190602001612f6a565b5050850192505b505092915050565b6000612fa2601483613761565b7f4d494e545f544f5f5a45524f5f41444452455353000000000000000000000000815260200192915050565b6000612fdb601a83613761565b7f5345434f4e444152595f54524144494e475f44495341424c4544000000000000815260200192915050565b6000613014602a83613761565b7f5452414e534645525f544f5f4e4f4e5f45524337323152454345495645525f4981526926a82622a6a2a72a22a960b11b602082015260400192915050565b6000613060601883613761565b7f5452414e534645525f544f5f5a45524f5f414444524553530000000000000000815260200192915050565b6000613099601983613761565b7f43414e4e4f545f51554552595f5a45524f5f4144445245535300000000000000815260200192915050565b60006130d2601183613761565b7f554e415554484f52495a45445f4255524e000000000000000000000000000000815260200192915050565b600061310b601583613761565b7f415050524f56414c5f49535f524544554e44414e540000000000000000000000815260200192915050565b6000613144600f83613761565b7f57495448445241575f4641494c45440000000000000000000000000000000000815260200192915050565b600061317d602383613761565b7f434f4e54454e545f49445f4e4f545f524547495354455245445f544f5f43414c8152622622a960e91b602082015260400192915050565b60006131c2601a83613761565b7f43414c4c45525f43414e4e4f545f415050524f56455f53454c46000000000000815260200192915050565b60006131fb601583613761565b7f494e56414c49445f46454445524154494f4e5f49440000000000000000000000815260200192915050565b6000613234601383613761565b7f4f4e4c595f434f4e54524143545f4f574e455200000000000000000000000000815260200192915050565b600061326d601983613761565b7f53544152545f54494d455f41465445525f454e445f54494d4500000000000000815260200192915050565b60006111016000836106b8565b60006132b3601183613761565b7f494e56414c49445f54494d455f534c4f54000000000000000000000000000000815260200192915050565b60006132ec601283613761565b7f4e4f4e5f4558495354454e545f544f4b454e0000000000000000000000000000815260200192915050565b6000613325602583613761565b7f43414c4c45525f4e4f545f415554484f52495a45445f464f525f4d494e5445528152645f524f4c4560d81b602082015260400192915050565b600061336c601583613761565b7f554e415554484f52495a45445f5452414e534645520000000000000000000000815260200192915050565b60006133a5601583613761565b7f43414c4c45525f4e4f545f415554484f52495a45440000000000000000000000815260200192915050565b612dc881610751565b612dc881613793565b612dc88161379c565b6000611e458284612edf565b60006134048285612f0e565b9150611ded8284612edf565b600061110182613299565b602081016111018284612dbf565b60e08101613437828a612dbf565b6134446020830189612dbf565b81810360408301526134568188612e9e565b905061346560608301876133e3565b61347260808301866133e3565b61347f60a0830185612e95565b61348c60c08301846133da565b98975050505050505050565b608081016134a68287612dbf565b6134b36020830186612dbf565b6134c060408301856133d1565b81810360608301526134d28184612e9e565b9695505050505050565b60208082528101611e458184612dce565b60208082528101611e458184612e3c565b602081016111018284612e95565b602081016111018284612ed6565b60208082528101611e458184612e9e565b6020808252810161110181612f95565b6020808252810161110181612fce565b6020808252810161110181613007565b6020808252810161110181613053565b602080825281016111018161308c565b60208082528101611101816130c5565b60208082528101611101816130fe565b6020808252810161110181613137565b6020808252810161110181613170565b60208082528101611101816131b5565b60208082528101611101816131ee565b6020808252810161110181613227565b6020808252810161110181613260565b60208082528101611101816132a6565b60208082528101611101816132df565b6020808252810161110181613318565b602080825281016111018161335f565b6020808252810161110181613398565b6020810161110182846133d1565b6020810161110182846133da565b6040810161367582856133da565b611e456020830184612dbf565b60c0810161369082896133da565b61369d6020830188612dbf565b6136aa6040830187612dbf565b6136b760608301866133d1565b6136c46080830185612dbf565b6136d160a0830184612dbf565b979650505050505050565b604081016136ea82856133da565b8181036020830152611ded8184612e9e565b60405181810167ffffffffffffffff8111828210171561371b57600080fd5b604052919050565b600067ffffffffffffffff82111561373a57600080fd5b506020601f91909101601f19160190565b60200190565b60009081526020902090565b5190565b90815260200190565b600061110182613787565b151590565b6001600160e01b03191690565b6001600160a01b031690565b63ffffffff1690565b65ffffffffffff1690565b60006111018261376a565b82818337506000910152565b60005b838110156137d95781810151838201526020016137c1565b83811115610dbf5750506000910152565b601f01601f191690565b6137fd8161376a565b81146119d557600080fd5b6137fd81613775565b6137fd8161377a565b6137fd81610751565b6137fd81613793565b6137fd8161379c56fea365627a7a72315820d9306d2ceb2fda13626adb341b4d0ed9ea4f6e025b86aefc41795da89da19a746c6578706572696d656e74616cf564736f6c634300050b0040",
  "source": "pragma solidity ^0.5.11;\npragma experimental ABIEncoderV2;\n\nimport \"./ERC721.sol\";\n\n/**\n * Customized for Microsponsors\n * from Open Zeppelin's ERC721Metadata contract, which is MIT Licensed:\n * https://github.com/OpenZeppelin/openzeppelin-contracts/blob/master/contracts/token/ERC721/ERC721Metadata.sol\n\n  Licensed under the Apache License, Version 2.0 (the \"License\");\n  you may not use this file except in compliance with the License.\n  You may obtain a copy of the License at\n\n    http://www.apache.org/licenses/LICENSE-2.0\n\n  Unless required by applicable law or agreed to in writing, software\n  distributed under the License is distributed on an \"AS IS\" BASIS,\n  WITHOUT WARRANTIES OR CONDITIONS OF ANY KIND, either express or implied.\n  See the License for the specific language governing permissions and\n  limitations under the License.\n\n*/\n\ncontract Microsponsors is ERC721 {\n\n    // Token name\n    string private _name;\n\n    // Token symbol\n    string private _symbol;\n\n\n    /*\n     *     bytes4(keccak256('name()')) == 0x06fdde03\n     *     bytes4(keccak256('symbol()')) == 0x95d89b41\n     *     bytes4(keccak256('tokenURI(uint256)')) == 0xc87b56dd\n     *\n     *     => 0x06fdde03 ^ 0x95d89b41 ^ 0xc87b56dd == 0x5b5e139f\n     */\n    bytes4 private constant _INTERFACE_ID_ERC721_METADATA = 0x5b5e139f;\n\n    /**\n     * @dev Constructor function\n     */\n    constructor (string memory name, string memory symbol, address registryAddress) public {\n\n        _name = name;\n        _symbol = symbol;\n\n        // register the supported interfaces to conform to ERC721 via ERC165\n        _registerInterface(_INTERFACE_ID_ERC721_METADATA);\n\n        super.updateRegistryAddress(registryAddress);\n\n    }\n\n    /**\n     * @dev Gets the token name.\n     * @return string representing the token name\n     */\n    function name() external view returns (string memory) {\n        return _name;\n    }\n\n    /**\n     * @dev Gets the token symbol.\n     * @return string representing the token symbol\n     */\n    function symbol() external view returns (string memory) {\n        return _symbol;\n    }\n\n}\n",
  "sourcePath": "/Users/lauren/github/mspt/contracts/Microsponsors.sol",
  "compiler": {
    "name": "solc",
    "version": "0.5.11+commit.c082d0b4.Emscripten.clang"
  },
  "schemaVersion": "3.1.0",
  "updatedAt": "2021-03-03T23:28:17.608Z",
  "networkType": "ethereum",
  "devdoc": {
    "methods": {
      "approve(address,uint256)": {
        "details": "Approves another address to transfer the given token ID The zero address indicates there is no approved address. There can only be one approved address per token at a given time. Can only be called by the token owner or an approved operator.",
        "params": {
          "to": "address to be approved for the given token ID",
          "tokenId": "uint256 ID of the token to be approved"
        }
      },
      "balanceOf(address)": {
        "details": "Gets the balance of the specified address.",
        "params": {
          "tokenOwner": "address to query the balance of"
        },
        "return": "uint256 representing the amount owned by the passed address"
      },
      "burn(uint256)": {
        "details": "Customized for MicrosponsorsBurns a specific ERC721 token.",
        "params": {
          "tokenId": "uint256 id of the ERC721 token to be burned"
        }
      },
      "constructor": {
        "details": "Constructor function"
      },
      "getApproved(uint256)": {
        "details": "Gets the approved address for a token ID, or zero if no address set Reverts if the token ID does not exist.",
        "params": {
          "tokenId": "uint256 ID of the token to query the approval of"
        },
        "return": "address currently approved for the given token ID"
      },
      "isApprovedForAll(address,address)": {
        "details": "Tells whether an operator is approved by a given token owner.",
        "params": {
          "operator": "operator address which you want to query the approval of",
          "tokenOwner": "token owner address which you want to query the approval of"
        },
        "return": "bool whether the given operator is approved by the token owner"
      },
      "mint(string,uint48,uint48,bool,uint32)": {
        "details": "Function to mint tokens.",
        "return": "tokenId"
      },
      "name()": {
        "details": "Gets the token name.",
        "return": "string representing the token name"
      },
      "ownerOf(uint256)": {
        "details": "Gets the owner of the specified token ID.",
        "params": {
          "tokenId": "uint256 ID of the token to query the owner of"
        },
        "return": "address currently marked as the owner of the given token ID"
      },
      "pause()": {
        "details": "Called by contract owner to pause minting and transfers."
      },
      "safeMint(string,uint48,uint48,bool,uint32)": {
        "details": "Function to safely mint tokens.",
        "return": "tokenId"
      },
      "safeMint(string,uint48,uint48,bool,uint32,bytes)": {
        "details": "Function to safely mint tokens.",
        "params": {
          "data": "bytes data to send along with a safe transfer check."
        },
        "return": "tokenId"
      },
      "safeTransferFrom(address,address,uint256)": {
        "details": "Safely transfers the ownership of a given token ID to another address If the target address is a contract, it must implement {IERC721Receiver-onERC721Received}, which is called upon a safe transfer, and return the magic value `bytes4(keccak256(\"onERC721Received(address,address,uint256,bytes)\"))`; otherwise, the transfer is reverted. Requires the msg.sender to be the owner, approved, or operator",
        "params": {
          "from": "current owner of the token",
          "to": "address to receive the ownership of the given token ID",
          "tokenId": "uint256 ID of the token to be transferred"
        }
      },
      "safeTransferFrom(address,address,uint256,bytes)": {
        "details": "Safely transfers the ownership of a given token ID to another address If the target address is a contract, it must implement {IERC721Receiver-onERC721Received}, which is called upon a safe transfer, and return the magic value `bytes4(keccak256(\"onERC721Received(address,address,uint256,bytes)\"))`; otherwise, the transfer is reverted. Requires the _msgSender() to be the owner, approved, or operator",
        "params": {
          "data": "bytes data to send along with a safe transfer check",
          "from": "current owner of the token",
          "to": "address to receive the ownership of the given token ID",
          "tokenId": "uint256 ID of the token to be transferred"
        }
      },
      "setApprovalForAll(address,bool)": {
        "details": "Sets or unsets the approval of a given operator An operator is allowed to transfer all tokens of the sender on their behalf.",
        "params": {
          "approved": "representing the status of the approval to be set",
          "to": "operator address to set the approval"
        }
      },
      "supportsInterface(bytes4)": {
        "details": "See {IERC165-supportsInterface}.     * Time complexity O(1), guaranteed to always use less than 30 000 gas."
      },
      "symbol()": {
        "details": "Gets the token symbol.",
        "return": "string representing the token symbol"
      },
      "tokenMinterContentIds(address)": {
        "details": "Look up all Content IDs a Minter has tokenized TimeSlots for.      We're not getting this from the Registry because we want to keep      a separate record here of all Content ID's the acct has *ever*      minted tokens for. The registry is for keeping track of their      current (not necessarily past) Content ID registrations."
      },
      "tokenURI(uint256)": {
        "params": {
          "tokenId": "uint256 ID of the token to query"
        },
        "return": "URI for a given token ID"
      },
      "tokensMintedBy(address)": {
        "details": "This method MUST NEVER be called by smart contract code. First, it's fairly expensive (it walks the entire _tokenIds array looking for tokens belonging to minter), but it also returns a dynamic array, which is only supported for web3 calls, and not contract-to-contract calls (at this time)."
      },
      "tokensOfOwner(address)": {
        "details": "This method MUST NEVER be called by smart contract code. First, it's fairly expensive (it walks the entire _tokenIds array looking for tokens belonging to owner), but it also returns a dynamic array, which is only supported for web3 calls, and not contract-to-contract calls (at this time).",
        "params": {
          "tokenOwner": "The owner whose tokens we are interested in."
        }
      },
      "totalSupply()": {
        "details": "Gets the total number of tokens ever minted."
      },
      "transferFrom(address,address,uint256)": {
        "details": "Transfers the ownership of a given token ID to another address. Usage of this method is discouraged, use {safeTransferFrom} whenever possible. Requires the msg.sender to be the owner, approved, or operator.",
        "params": {
          "from": "current owner of the token",
          "to": "address to receive the ownership of the given token ID",
          "tokenId": "uint256 ID of the token to be transferred"
        }
      },
      "transferOwnership1(address)": {
        "details": "Transfer owner (admin) functions to another address",
        "params": {
          "newOwner": "Address of new owner/ admin of contract"
        }
      },
      "unpause()": {
        "details": "Called by contract owner to unpause minting and transfers."
      },
      "updateMintFee(uint256)": {
        "details": "Update the fee (in wei) charged for minting a single token"
      },
      "updateRegistryAddress(address)": {
        "details": "Update contract address for Microsponsors Registry contract",
        "params": {
          "newAddress": "where the Registry contract lives"
        }
      },
      "updateTokenURIBaseURL(string)": {
        "details": "Update the base url for all tokenURI's"
      },
      "withdrawBalance()": {
        "details": "Admin withdraws entire balance from contract."
      }
    }
  },
  "userdoc": {
    "methods": {
      "tokenURI(uint256)": {
        "notice": "Throws if the token ID does not exist. May return an empty string."
      },
      "tokensMintedBy(address)": {
        "notice": "Return all the Token IDs minted by a given account."
      }
    },
    "notice": "Customized for Microsponsors from Open Zeppelin's ERC721Metadata contract, which is MIT Licensed: https://github.com/OpenZeppelin/openzeppelin-contracts/blob/master/contracts/token/ERC721/ERC721Metadata.sol Licensed under the Apache License, Version 2.0 (the \"License\"); you may not use this file except in compliance with the License. You may obtain a copy of the License at http://www.apache.org/licenses/LICENSE-2.0 Unless required by applicable law or agreed to in writing, software distributed under the License is distributed on an \"AS IS\" BASIS, WITHOUT WARRANTIES OR CONDITIONS OF ANY KIND, either express or implied. See the License for the specific language governing permissions and limitations under the License."
  }
}