{
  "contractName": "Microsponsors",
  "abi": [
    {
      "constant": true,
      "inputs": [
        {
          "internalType": "bytes4",
          "name": "interfaceId",
          "type": "bytes4"
        }
      ],
      "name": "supportsInterface",
      "outputs": [
        {
          "internalType": "bool",
          "name": "",
          "type": "bool"
        }
      ],
      "payable": false,
      "stateMutability": "view",
      "type": "function"
    },
    {
      "constant": true,
      "inputs": [
        {
          "internalType": "uint256",
          "name": "tokenId",
          "type": "uint256"
        }
      ],
      "name": "getApproved",
      "outputs": [
        {
          "internalType": "address",
          "name": "",
          "type": "address"
        }
      ],
      "payable": false,
      "stateMutability": "view",
      "type": "function"
    },
    {
      "constant": false,
      "inputs": [
        {
          "internalType": "address",
          "name": "to",
          "type": "address"
        },
        {
          "internalType": "uint256",
          "name": "tokenId",
          "type": "uint256"
        }
      ],
      "name": "approve",
      "outputs": [],
      "payable": false,
      "stateMutability": "nonpayable",
      "type": "function"
    },
    {
      "constant": true,
      "inputs": [],
      "name": "mintFee",
      "outputs": [
        {
          "internalType": "uint256",
          "name": "",
          "type": "uint256"
        }
      ],
      "payable": false,
      "stateMutability": "view",
      "type": "function"
    },
    {
      "constant": true,
      "inputs": [
        {
          "internalType": "uint256",
          "name": "",
          "type": "uint256"
        }
      ],
      "name": "tokenToFederationId",
      "outputs": [
        {
          "internalType": "uint32",
          "name": "",
          "type": "uint32"
        }
      ],
      "payable": false,
      "stateMutability": "view",
      "type": "function"
    },
    {
      "constant": true,
      "inputs": [],
      "name": "totalSupply",
      "outputs": [
        {
          "internalType": "uint256",
          "name": "",
          "type": "uint256"
        }
      ],
      "payable": false,
      "stateMutability": "view",
      "type": "function"
    },
    {
      "constant": false,
      "inputs": [
        {
          "internalType": "address",
          "name": "from",
          "type": "address"
        },
        {
          "internalType": "address",
          "name": "to",
          "type": "address"
        },
        {
          "internalType": "uint256",
          "name": "tokenId",
          "type": "uint256"
        }
      ],
      "name": "transferFrom",
      "outputs": [],
      "payable": false,
      "stateMutability": "nonpayable",
      "type": "function"
    },
    {
      "constant": true,
      "inputs": [
        {
          "internalType": "address",
          "name": "minter",
          "type": "address"
        }
      ],
      "name": "tokensMintedBy",
      "outputs": [
        {
          "internalType": "uint256[]",
          "name": "",
          "type": "uint256[]"
        }
      ],
      "payable": false,
      "stateMutability": "view",
      "type": "function"
    },
    {
      "constant": false,
      "inputs": [],
      "name": "unpause",
      "outputs": [],
      "payable": false,
      "stateMutability": "nonpayable",
      "type": "function"
    },
    {
      "constant": false,
      "inputs": [
        {
          "internalType": "address",
          "name": "from",
          "type": "address"
        },
        {
          "internalType": "address",
          "name": "to",
          "type": "address"
        },
        {
          "internalType": "uint256",
          "name": "tokenId",
          "type": "uint256"
        }
      ],
      "name": "safeTransferFrom",
      "outputs": [],
      "payable": false,
      "stateMutability": "nonpayable",
      "type": "function"
    },
    {
      "constant": false,
      "inputs": [
        {
          "internalType": "uint256",
          "name": "tokenId",
          "type": "uint256"
        }
      ],
      "name": "burn",
      "outputs": [],
      "payable": false,
      "stateMutability": "nonpayable",
      "type": "function"
    },
    {
      "constant": true,
      "inputs": [],
      "name": "owner2",
      "outputs": [
        {
          "internalType": "address",
          "name": "",
          "type": "address"
        }
      ],
      "payable": false,
      "stateMutability": "view",
      "type": "function"
    },
    {
      "constant": false,
      "inputs": [
        {
          "internalType": "string",
          "name": "contentId",
          "type": "string"
        },
        {
          "internalType": "uint48",
          "name": "startTime",
          "type": "uint48"
        },
        {
          "internalType": "uint48",
          "name": "endTime",
          "type": "uint48"
        },
        {
          "internalType": "bool",
          "name": "isSecondaryTradingEnabled",
          "type": "bool"
        },
        {
          "internalType": "uint32",
          "name": "federationId",
          "type": "uint32"
        },
        {
          "internalType": "bytes",
          "name": "data",
          "type": "bytes"
        }
      ],
      "name": "safeMint",
      "outputs": [
        {
          "internalType": "uint256",
          "name": "",
          "type": "uint256"
        }
      ],
      "payable": true,
      "stateMutability": "payable",
      "type": "function"
    },
    {
      "constant": true,
      "inputs": [],
      "name": "paused",
      "outputs": [
        {
          "internalType": "bool",
          "name": "",
          "type": "bool"
        }
      ],
      "payable": false,
      "stateMutability": "view",
      "type": "function"
    },
    {
      "constant": false,
      "inputs": [],
      "name": "withdrawBalance",
      "outputs": [],
      "payable": false,
      "stateMutability": "nonpayable",
      "type": "function"
    },
    {
      "constant": true,
      "inputs": [
        {
          "internalType": "uint256",
          "name": "tokenId",
          "type": "uint256"
        }
      ],
      "name": "ownerOf",
      "outputs": [
        {
          "internalType": "address",
          "name": "",
          "type": "address"
        }
      ],
      "payable": false,
      "stateMutability": "view",
      "type": "function"
    },
    {
      "constant": true,
      "inputs": [
        {
          "internalType": "address",
          "name": "tokenOwner",
          "type": "address"
        }
      ],
      "name": "balanceOf",
      "outputs": [
        {
          "internalType": "uint256",
          "name": "",
          "type": "uint256"
        }
      ],
      "payable": false,
      "stateMutability": "view",
      "type": "function"
    },
    {
      "constant": true,
      "inputs": [],
      "name": "owner1",
      "outputs": [
        {
          "internalType": "address",
          "name": "",
          "type": "address"
        }
      ],
      "payable": false,
      "stateMutability": "view",
      "type": "function"
    },
    {
      "constant": true,
      "inputs": [],
      "name": "registry",
      "outputs": [
        {
          "internalType": "contract DeployedRegistry",
          "name": "",
          "type": "address"
        }
      ],
      "payable": false,
      "stateMutability": "view",
      "type": "function"
    },
    {
      "constant": false,
      "inputs": [
        {
          "internalType": "uint256",
          "name": "val",
          "type": "uint256"
        }
      ],
      "name": "updateMintFee",
      "outputs": [],
      "payable": false,
      "stateMutability": "nonpayable",
      "type": "function"
    },
    {
      "constant": false,
      "inputs": [],
      "name": "pause",
      "outputs": [],
      "payable": false,
      "stateMutability": "nonpayable",
      "type": "function"
    },
    {
      "constant": true,
      "inputs": [
        {
          "internalType": "address",
          "name": "tokenOwner",
          "type": "address"
        }
      ],
      "name": "tokensOfOwner",
      "outputs": [
        {
          "internalType": "uint256[]",
          "name": "",
          "type": "uint256[]"
        }
      ],
      "payable": false,
      "stateMutability": "view",
      "type": "function"
    },
    {
      "constant": false,
      "inputs": [
        {
          "internalType": "string",
          "name": "contentId",
          "type": "string"
        },
        {
          "internalType": "uint48",
          "name": "startTime",
          "type": "uint48"
        },
        {
          "internalType": "uint48",
          "name": "endTime",
          "type": "uint48"
        },
        {
          "internalType": "bool",
          "name": "isSecondaryTradingEnabled",
          "type": "bool"
        },
        {
          "internalType": "uint32",
          "name": "federationId",
          "type": "uint32"
        }
      ],
      "name": "safeMint",
      "outputs": [
        {
          "internalType": "uint256",
          "name": "",
          "type": "uint256"
        }
      ],
      "payable": true,
      "stateMutability": "payable",
      "type": "function"
    },
    {
      "constant": false,
      "inputs": [
        {
          "internalType": "address",
          "name": "to",
          "type": "address"
        },
        {
          "internalType": "bool",
          "name": "approved",
          "type": "bool"
        }
      ],
      "name": "setApprovalForAll",
      "outputs": [],
      "payable": false,
      "stateMutability": "nonpayable",
      "type": "function"
    },
    {
      "constant": true,
      "inputs": [
        {
          "internalType": "address",
          "name": "minter",
          "type": "address"
        }
      ],
      "name": "tokenMinterContentIds",
      "outputs": [
        {
          "internalType": "string[]",
          "name": "",
          "type": "string[]"
        }
      ],
      "payable": false,
      "stateMutability": "view",
      "type": "function"
    },
    {
      "constant": false,
      "inputs": [
        {
          "internalType": "address",
          "name": "from",
          "type": "address"
        },
        {
          "internalType": "address",
          "name": "to",
          "type": "address"
        },
        {
          "internalType": "uint256",
          "name": "tokenId",
          "type": "uint256"
        },
        {
          "internalType": "bytes",
          "name": "data",
          "type": "bytes"
        }
      ],
      "name": "safeTransferFrom",
      "outputs": [],
      "payable": false,
      "stateMutability": "nonpayable",
      "type": "function"
    },
    {
      "constant": false,
      "inputs": [
        {
          "internalType": "string",
          "name": "contentId",
          "type": "string"
        },
        {
          "internalType": "uint48",
          "name": "startTime",
          "type": "uint48"
        },
        {
          "internalType": "uint48",
          "name": "endTime",
          "type": "uint48"
        },
        {
          "internalType": "bool",
          "name": "isSecondaryTradingEnabled",
          "type": "bool"
        },
        {
          "internalType": "uint32",
          "name": "federationId",
          "type": "uint32"
        },
        {
          "internalType": "string",
          "name": "tokenURI",
          "type": "string"
        }
      ],
      "name": "safeMintWithTokenURI",
      "outputs": [
        {
          "internalType": "uint256",
          "name": "",
          "type": "uint256"
        }
      ],
      "payable": true,
      "stateMutability": "payable",
      "type": "function"
    },
    {
      "constant": false,
      "inputs": [
        {
          "internalType": "address",
          "name": "newAddress",
          "type": "address"
        }
      ],
      "name": "updateRegistryAddress",
      "outputs": [],
      "payable": false,
      "stateMutability": "nonpayable",
      "type": "function"
    },
    {
      "constant": true,
      "inputs": [
        {
          "internalType": "uint256",
          "name": "tokenId",
          "type": "uint256"
        }
      ],
      "name": "tokenURI",
      "outputs": [
        {
          "internalType": "string",
          "name": "",
          "type": "string"
        }
      ],
      "payable": false,
      "stateMutability": "view",
      "type": "function"
    },
    {
      "constant": false,
      "inputs": [
        {
          "internalType": "string",
          "name": "contentId",
          "type": "string"
        },
        {
          "internalType": "uint48",
          "name": "startTime",
          "type": "uint48"
        },
        {
          "internalType": "uint48",
          "name": "endTime",
          "type": "uint48"
        },
        {
          "internalType": "bool",
          "name": "isSecondaryTradingEnabled",
          "type": "bool"
        },
        {
          "internalType": "uint32",
          "name": "federationId",
          "type": "uint32"
        },
        {
          "internalType": "string",
          "name": "tokenURI",
          "type": "string"
        }
      ],
      "name": "mintWithTokenURI",
      "outputs": [
        {
          "internalType": "uint256",
          "name": "",
          "type": "uint256"
        }
      ],
      "payable": true,
      "stateMutability": "payable",
      "type": "function"
    },
    {
      "constant": false,
      "inputs": [
        {
          "internalType": "address",
          "name": "newOwner",
          "type": "address"
        }
      ],
      "name": "transferOwnership2",
      "outputs": [],
      "payable": false,
      "stateMutability": "nonpayable",
      "type": "function"
    },
    {
      "constant": true,
      "inputs": [
        {
          "internalType": "uint256",
          "name": "tokenId",
          "type": "uint256"
        }
      ],
      "name": "tokenTimeSlot",
      "outputs": [
        {
          "internalType": "address",
          "name": "minter",
          "type": "address"
        },
        {
          "internalType": "address",
          "name": "owner",
          "type": "address"
        },
        {
          "internalType": "string",
          "name": "contentId",
          "type": "string"
        },
        {
          "internalType": "uint48",
          "name": "startTime",
          "type": "uint48"
        },
        {
          "internalType": "uint48",
          "name": "endTime",
          "type": "uint48"
        },
        {
          "internalType": "bool",
          "name": "isSecondaryTradingEnabled",
          "type": "bool"
        },
        {
          "internalType": "uint32",
          "name": "federationId",
          "type": "uint32"
        }
      ],
      "payable": false,
      "stateMutability": "view",
      "type": "function"
    },
    {
      "constant": false,
      "inputs": [
        {
          "internalType": "string",
          "name": "contentId",
          "type": "string"
        },
        {
          "internalType": "uint48",
          "name": "startTime",
          "type": "uint48"
        },
        {
          "internalType": "uint48",
          "name": "endTime",
          "type": "uint48"
        },
        {
          "internalType": "bool",
          "name": "isSecondaryTradingEnabled",
          "type": "bool"
        },
        {
          "internalType": "uint32",
          "name": "federationId",
          "type": "uint32"
        }
      ],
      "name": "mint",
      "outputs": [
        {
          "internalType": "uint256",
          "name": "",
          "type": "uint256"
        }
      ],
      "payable": true,
      "stateMutability": "payable",
      "type": "function"
    },
    {
      "constant": false,
      "inputs": [
        {
          "internalType": "address",
          "name": "newOwner",
          "type": "address"
        }
      ],
      "name": "transferOwnership1",
      "outputs": [],
      "payable": false,
      "stateMutability": "nonpayable",
      "type": "function"
    },
    {
      "constant": true,
      "inputs": [
        {
          "internalType": "address",
          "name": "tokenOwner",
          "type": "address"
        },
        {
          "internalType": "address",
          "name": "operator",
          "type": "address"
        }
      ],
      "name": "isApprovedForAll",
      "outputs": [
        {
          "internalType": "bool",
          "name": "",
          "type": "bool"
        }
      ],
      "payable": false,
      "stateMutability": "view",
      "type": "function"
    },
    {
      "inputs": [
        {
          "internalType": "string",
          "name": "name",
          "type": "string"
        },
        {
          "internalType": "string",
          "name": "symbol",
          "type": "string"
        },
        {
          "internalType": "address",
          "name": "registryAddress",
          "type": "address"
        }
      ],
      "payable": false,
      "stateMutability": "nonpayable",
      "type": "constructor"
    },
    {
      "anonymous": false,
      "inputs": [
        {
          "indexed": true,
          "internalType": "address",
          "name": "from",
          "type": "address"
        },
        {
          "indexed": true,
          "internalType": "address",
          "name": "to",
          "type": "address"
        },
        {
          "indexed": true,
          "internalType": "uint256",
          "name": "tokenId",
          "type": "uint256"
        }
      ],
      "name": "Transfer",
      "type": "event"
    },
    {
      "anonymous": false,
      "inputs": [
        {
          "indexed": true,
          "internalType": "address",
          "name": "tokenOwner",
          "type": "address"
        },
        {
          "indexed": true,
          "internalType": "address",
          "name": "approved",
          "type": "address"
        },
        {
          "indexed": true,
          "internalType": "uint256",
          "name": "tokenId",
          "type": "uint256"
        }
      ],
      "name": "Approval",
      "type": "event"
    },
    {
      "anonymous": false,
      "inputs": [
        {
          "indexed": true,
          "internalType": "address",
          "name": "tokenOwner",
          "type": "address"
        },
        {
          "indexed": true,
          "internalType": "address",
          "name": "operator",
          "type": "address"
        },
        {
          "indexed": false,
          "internalType": "bool",
          "name": "approved",
          "type": "bool"
        }
      ],
      "name": "ApprovalForAll",
      "type": "event"
    },
    {
      "constant": true,
      "inputs": [],
      "name": "name",
      "outputs": [
        {
          "internalType": "string",
          "name": "",
          "type": "string"
        }
      ],
      "payable": false,
      "stateMutability": "view",
      "type": "function"
    },
    {
      "constant": true,
      "inputs": [],
      "name": "symbol",
      "outputs": [
        {
          "internalType": "string",
          "name": "",
          "type": "string"
        }
      ],
      "payable": false,
      "stateMutability": "view",
      "type": "function"
    }
  ],
  "bytecode": "0x60806040526002805460ff60a01b19169055655af3107a40006003553480156200002857600080fd5b5060405162003eed38038062003eed8339810160408190526200004b91620003ff565b6200007f7f01ffc9a7000000000000000000000000000000000000000000000000000000006001600160e01b036200018f16565b620000b37f80ac58cd000000000000000000000000000000000000000000000000000000006001600160e01b036200018f16565b620000c66001600160e01b036200023416565b600180546001600160a01b0319166001600160a01b0392909216919091179055620000f062000234565b600280546001600160a01b0319166001600160a01b039290921691909117905582516200012590600f906020860190620002ee565b5081516200013b906010906020850190620002ee565b50620001707f5b5e139f000000000000000000000000000000000000000000000000000000006001600160e01b036200018f16565b62000186816200023960201b620018a21760201c565b505050620005d3565b7fffffffff000000000000000000000000000000000000000000000000000000008082161415620001f7576040517f08c379a0000000000000000000000000000000000000000000000000000000008152600401620001ee90620004f8565b60405180910390fd5b7fffffffff00000000000000000000000000000000000000000000000000000000166000908152602081905260409020805460ff19166001179055565b335b90565b6001546001600160a01b0316620002586001600160e01b036200023416565b6001600160a01b031614806200029357506002546001600160a01b0316620002886001600160e01b036200023416565b6001600160a01b0316145b620002cc576040517f08c379a0000000000000000000000000000000000000000000000000000000008152600401620001ee906200050a565b600480546001600160a01b0319166001600160a01b0392909216919091179055565b828054600181600116156101000203166002900490600052602060002090601f016020900481019282601f106200033157805160ff191683800117855562000361565b8280016001018555821562000361579182015b828111156200036157825182559160200191906001019062000344565b506200036f92915062000373565b5090565b6200023691905b808211156200036f57600081556001016200037a565b80516200039d81620005b9565b92915050565b600082601f830112620003b557600080fd5b8151620003cc620003c68262000543565b6200051c565b91508082526020830160208301858383011115620003e957600080fd5b620003f683828462000586565b50505092915050565b6000806000606084860312156200041557600080fd5b83516001600160401b038111156200042c57600080fd5b6200043a86828701620003a3565b93505060208401516001600160401b038111156200045757600080fd5b6200046586828701620003a3565b9250506040620004788682870162000390565b9150509250925092565b600062000491601c836200056b565b7f4552433136353a20696e76616c696420696e7465726661636520696400000000815260200192915050565b6000620004cc6013836200056b565b7f4f4e4c595f434f4e54524143545f4f574e455200000000000000000000000000815260200192915050565b602080825281016200039d8162000482565b602080825281016200039d81620004bd565b6040518181016001600160401b03811182821017156200053b57600080fd5b604052919050565b60006001600160401b038211156200055a57600080fd5b506020601f91909101601f19160190565b90815260200190565b60006001600160a01b0382166200039d565b60005b83811015620005a357818101518382015260200162000589565b83811115620005b3576000848401525b50505050565b620005c48162000574565b8114620005d057600080fd5b50565b61390a80620005e36000396000f3fe60806040526004361061021a5760003560e01c80637368891411610123578063b88d4fde116100ab578063e2b375a91161006f578063e2b375a9146105e5578063e5c2492414610605578063e89fecc014610638578063e982d5a91461064b578063e985e9c51461066b5761021a565b8063b88d4fde1461055f578063bd5c41851461057f578063c57a882514610592578063c87b56dd146105b2578063cd1ed24a146105d25761021a565b80638462151c116100f25780638462151c146104ca57806395d89b41146104ea578063a002c376146104ff578063a22cb46514610512578063a4ede128146105325761021a565b8063736889141461045e5780637b1039991461047357806384017e52146104955780638456cb59146104b55761021a565b80633f4ba83a116101a65780635a393bc2116101755780635a393bc2146103e15780635c975abb146103f45780635fd8c710146104095780636352211e1461041e57806370a082311461043e5761021a565b80633f4ba83a1461037757806342842e0e1461038c57806342966c68146103ac57806352709725146103cc5761021a565b806313966db5116101ed57806313966db5146102c6578063180b9e3f146102e857806318160ddd1461031557806323b872dd1461032a5780632a0c77991461034a5761021a565b806301ffc9a71461021f57806306fdde0314610255578063081812fc14610277578063095ea7b3146102a4575b600080fd5b34801561022b57600080fd5b5061023f61023a366004612d40565b61068b565b60405161024c919061359c565b60405180910390f35b34801561026157600080fd5b5061026a6106ae565b60405161024c91906135b8565b34801561028357600080fd5b50610297610292366004612ebe565b610745565b60405161024c91906134b9565b3480156102b057600080fd5b506102c46102bf366004612cf2565b610791565b005b3480156102d257600080fd5b506102db61088d565b60405161024c91906136e9565b3480156102f457600080fd5b50610308610303366004612ebe565b610893565b60405161024c91906136f7565b34801561032157600080fd5b506102db6108ab565b34801561033657600080fd5b506102c4610345366004612bfc565b6108bc565b34801561035657600080fd5b5061036a610365366004612ba4565b610a38565b60405161024c919061358b565b34801561038357600080fd5b506102c4610b40565b34801561039857600080fd5b506102c46103a7366004612bfc565b610bc4565b3480156103b857600080fd5b506102c46103c7366004612ebe565b610be4565b3480156103d857600080fd5b50610297610d28565b6102db6103ef366004612e08565b610d37565b34801561040057600080fd5b5061023f610ea2565b34801561041557600080fd5b506102c4610eb2565b34801561042a57600080fd5b50610297610439366004612ebe565b610f8e565b34801561044a57600080fd5b506102db610459366004612ba4565b610fa9565b34801561046a57600080fd5b50610297610ff8565b34801561047f57600080fd5b50610488611007565b60405161024c91906135aa565b3480156104a157600080fd5b506102c46104b0366004612ebe565b611016565b3480156104c157600080fd5b506102c461107a565b3480156104d657600080fd5b5061036a6104e5366004612ba4565b611105565b3480156104f657600080fd5b5061026a6111bf565b6102db61050d366004612d7c565b611220565b34801561051e57600080fd5b506102c461052d366004612cc2565b611389565b34801561053e57600080fd5b5061055261054d366004612ba4565b61146e565b60405161024c919061357a565b34801561056b57600080fd5b506102c461057a366004612c49565b6115e4565b6102db61058d366004612e08565b611762565b34801561059e57600080fd5b506102c46105ad366004612ba4565b6118a2565b3480156105be57600080fd5b5061026a6105cd366004612ebe565b611923565b6102db6105e0366004612e08565b6119e9565b3480156105f157600080fd5b506102c4610600366004612ba4565b611b15565b34801561061157600080fd5b50610625610620366004612ebe565b611ba2565b60405161024c97969594939291906134c7565b6102db610646366004612d7c565b611d2d565b34801561065757600080fd5b506102c4610666366004612ba4565b611e54565b34801561067757600080fd5b5061023f610686366004612bc2565b611ee2565b6001600160e01b0319811660009081526020819052604090205460ff165b919050565b600f8054604080516020601f600260001961010060018816150201909516949094049384018190048102820181019092528281526060939092909183018282801561073a5780601f1061070f5761010080835404028352916020019161073a565b820191906000526020600020905b81548152906001019060200180831161071d57829003601f168201915b505050505090505b90565b600061075082611f10565b6107755760405162461bcd60e51b815260040161076c906136a9565b60405180910390fd5b506000908152600d60205260409020546001600160a01b031690565b600254600160a01b900460ff16156107a857600080fd5b60006107b382610f8e565b9050806001600160a01b0316836001600160a01b031614156107e75760405162461bcd60e51b815260040161076c90613629565b806001600160a01b03166107f9611f2d565b6001600160a01b03161480610815575061081581610686611f2d565b6108315760405162461bcd60e51b815260040161076c906136d9565b6000828152600d602052604080822080546001600160a01b0319166001600160a01b0387811691821790925591518593918516917f8c5be1e5ebec7d5bd14f71427d1e84f3dd0314c0f7b2291e5b200ac8c7c3b92591a4505050565b60035481565b60096020526000908152604090205463ffffffff1681565b60006108b76005611f31565b905090565b600254600160a01b900460ff16156108d357600080fd5b6108e46108de611f2d565b82611f35565b6109005760405162461bcd60e51b815260040161076c906136c9565b6000818152600a60205260408120546001600160a01b03169061092283610f8e565b600084815260096020908152604080832054600a9092529091206002015491925063ffffffff1690600160601b900460ff1661098057610963868686611fba565b156109805760405162461bcd60e51b815260040161076c906135d9565b60048054604051630d1e359160e01b81526001600160a01b0390911691630d1e3591916109b99185918b918b918b918b918b9101613720565b60206040518083038186803b1580156109d157600080fd5b505afa1580156109e5573d6000803e3d6000fd5b505050506040513d601f19601f82011682018060405250610a099190810190612d22565b610a255760405162461bcd60e51b815260040161076c906136c9565b610a30868686612011565b505050505050565b60606001600160a01b038216610a605760405162461bcd60e51b815260040161076c90613609565b6001600160a01b0382166000908152600860205260408120610a8190611f31565b905080610aa35760408051600080825260208201909252905b509150506106a9565b606081604051908082528060200260200182016040528015610acf578160200160208202803883390190505b5090506000610adc6108ab565b9050600060015b828111610b33576000818152600a60205260409020546001600160a01b0388811691161415610b2b5780848381518110610b1957fe5b60209081029190910101526001909101905b600101610ae3565b83955050505050506106a9565b6001546001600160a01b0316610b54611f2d565b6001600160a01b03161480610b8357506002546001600160a01b0316610b78611f2d565b6001600160a01b0316145b610b9f5760405162461bcd60e51b815260040161076c90613679565b600254600160a01b900460ff16610bb557600080fd5b6002805460ff60a01b19169055565b610bdf838383604051806020016040528060008152506115e4565b505050565b600254600160a01b900460ff1615610bfb57600080fd5b6000818152600a60205260408120546001600160a01b031690610c1d83610f8e565b60008481526009602052604090205490915063ffffffff166001600160a01b038083169084161415610cec576004546001600160a01b03166312d26ac882610c63611f2d565b6040518363ffffffff1660e01b8152600401610c80929190613705565b60206040518083038186803b158015610c9857600080fd5b505afa158015610cac573d6000803e3d6000fd5b505050506040513d601f19601f82011682018060405250610cd09190810190612d22565b610cec5760405162461bcd60e51b815260040161076c90613619565b610cfd610cf7611f2d565b85611f35565b610d195760405162461bcd60e51b815260040161076c90613619565b610d2284612117565b50505050565b6002546001600160a01b031681565b600254600090600160a01b900460ff1615610d5157600080fd5b600354341015610d6057600080fd5b60008363ffffffff1611610d865760405162461bcd60e51b815260040161076c90613669565b6004546001600160a01b03166312d26ac884610da0611f2d565b6040518363ffffffff1660e01b8152600401610dbd929190613705565b60206040518083038186803b158015610dd557600080fd5b505afa158015610de9573d6000803e3d6000fd5b505050506040513d601f19601f82011682018060405250610e0d9190810190612d22565b610e295760405162461bcd60e51b815260040161076c906136b9565b610e3587878786612129565b610e515760405162461bcd60e51b815260040161076c90613699565b6000610e64610e5e611f2d565b84612203565b9050610e73818989898961223a565b6000818152600960205260409020805463ffffffff861663ffffffff1990911617905590509695505050505050565b600254600160a01b900460ff1681565b6001546001600160a01b0316610ec6611f2d565b6001600160a01b03161480610ef557506002546001600160a01b0316610eea611f2d565b6001600160a01b0316145b610f115760405162461bcd60e51b815260040161076c90613679565b60405130319060009033908390610f27906134ae565b60006040518083038185875af1925050503d8060008114610f64576040519150601f19603f3d011682016040523d82523d6000602084013e610f69565b606091505b5050905080610f8a5760405162461bcd60e51b815260040161076c90613639565b5050565b6000908152600660205260409020546001600160a01b031690565b60006001600160a01b038216610fd15760405162461bcd60e51b815260040161076c90613609565b6001600160a01b0382166000908152600760205260409020610ff290611f31565b92915050565b6001546001600160a01b031681565b6004546001600160a01b031681565b6001546001600160a01b031661102a611f2d565b6001600160a01b0316148061105957506002546001600160a01b031661104e611f2d565b6001600160a01b0316145b6110755760405162461bcd60e51b815260040161076c90613679565b600355565b6001546001600160a01b031661108e611f2d565b6001600160a01b031614806110bd57506002546001600160a01b03166110b2611f2d565b6001600160a01b0316145b6110d95760405162461bcd60e51b815260040161076c90613679565b600254600160a01b900460ff16156110f057600080fd5b6002805460ff60a01b1916600160a01b179055565b6060600061111283610fa9565b90508061112f576040805160008082526020820190925290610a9a565b60608160405190808252806020026020018201604052801561115b578160200160208202803883390190505b50905060006111686108ab565b9050600060015b828111610b33576000818152600660205260409020546001600160a01b03888116911614156111b757808483815181106111a557fe5b60209081029190910101526001909101905b60010161116f565b60108054604080516020601f600260001961010060018816150201909516949094049384018190048102820181019092528281526060939092909183018282801561073a5780601f1061070f5761010080835404028352916020019161073a565b600254600090600160a01b900460ff161561123a57600080fd5b60035434101561124957600080fd5b60008263ffffffff161161126f5760405162461bcd60e51b815260040161076c90613669565b6004546001600160a01b03166312d26ac883611289611f2d565b6040518363ffffffff1660e01b81526004016112a6929190613705565b60206040518083038186803b1580156112be57600080fd5b505afa1580156112d2573d6000803e3d6000fd5b505050506040513d601f19601f820116820180604052506112f69190810190612d22565b6113125760405162461bcd60e51b815260040161076c906136b9565b61131e86868685612129565b61133a5760405162461bcd60e51b815260040161076c90613699565b600061134c611347611f2d565b6123f9565b905061135b818888888861223a565b6000818152600960205260409020805463ffffffff851663ffffffff19909116179055905095945050505050565b600254600160a01b900460ff16156113a057600080fd5b6113a8611f2d565b6001600160a01b0316826001600160a01b031614156113d95760405162461bcd60e51b815260040161076c90613659565b80600e60006113e6611f2d565b6001600160a01b03908116825260208083019390935260409182016000908120918716808252919093529120805460ff19169215159290921790915561142a611f2d565b6001600160a01b03167f17307eab39ab6107e8899845ad3d59bd9653f200f220920489ca2b5937696c3183604051611462919061359c565b60405180910390a35050565b6001600160a01b0381166000908152600b602090815260408083208054825181850281018501909352808352606094859484015b8282101561155957600084815260209081902060408051918501805460026001821615610100026000190190911604601f81018590048502840183018352938301848152929390928492909184918401828280156115415780601f1061151657610100808354040283529160200191611541565b820191906000526020600020905b81548152906001019060200180831161152457829003601f168201915b505050505081525050815260200190600101906114a2565b5050505090506060815160405190808252806020026020018201604052801561159657816020015b60608152602001906001900390816115815790505b50905060005b82518110156115dc578281815181106115b157fe5b6020026020010151600001518282815181106115c957fe5b602090810291909101015260010161159c565b509392505050565b600254600160a01b900460ff16156115fb57600080fd5b61160c611606611f2d565b83611f35565b6116285760405162461bcd60e51b815260040161076c906136c9565b6000828152600a60205260408120546001600160a01b03169061164a84610f8e565b600085815260096020908152604080832054600a9092529091206002015491925063ffffffff1690600160601b900460ff166116a85761168b878787611fba565b156116a85760405162461bcd60e51b815260040161076c906135d9565b60048054604051630d1e359160e01b81526001600160a01b0390911691630d1e3591916116e19185918c918c918c918b918b9101613720565b60206040518083038186803b1580156116f957600080fd5b505afa15801561170d573d6000803e3d6000fd5b505050506040513d601f19601f820116820180604052506117319190810190612d22565b61174d5760405162461bcd60e51b815260040161076c906136c9565b61175987878787612415565b50505050505050565b600254600090600160a01b900460ff161561177c57600080fd5b60035434101561178b57600080fd5b60008363ffffffff16116117b15760405162461bcd60e51b815260040161076c90613669565b6004546001600160a01b03166312d26ac8846117cb611f2d565b6040518363ffffffff1660e01b81526004016117e8929190613705565b60206040518083038186803b15801561180057600080fd5b505afa158015611814573d6000803e3d6000fd5b505050506040513d601f19601f820116820180604052506118389190810190612d22565b6118545760405162461bcd60e51b815260040161076c906136b9565b61186087878786612129565b61187c5760405162461bcd60e51b815260040161076c90613699565b6000611889611347611f2d565b9050611898818989898961223a565b610e738184612448565b6001546001600160a01b03166118b6611f2d565b6001600160a01b031614806118e557506002546001600160a01b03166118da611f2d565b6001600160a01b0316145b6119015760405162461bcd60e51b815260040161076c90613679565b600480546001600160a01b0319166001600160a01b0392909216919091179055565b606061192e82611f10565b61194a5760405162461bcd60e51b815260040161076c906136a9565b6000828152600c602090815260409182902080548351601f6002600019610100600186161502019093169290920491820184900484028101840190945280845290918301828280156119dd5780601f106119b2576101008083540402835291602001916119dd565b820191906000526020600020905b8154815290600101906020018083116119c057829003601f168201915b50505050509050919050565b600254600090600160a01b900460ff1615611a0357600080fd5b600354341015611a1257600080fd5b60008363ffffffff1611611a385760405162461bcd60e51b815260040161076c90613669565b6004546001600160a01b03166312d26ac884611a52611f2d565b6040518363ffffffff1660e01b8152600401611a6f929190613705565b60206040518083038186803b158015611a8757600080fd5b505afa158015611a9b573d6000803e3d6000fd5b505050506040513d601f19601f82011682018060405250611abf9190810190612d22565b611adb5760405162461bcd60e51b815260040161076c906136b9565b611ae787878786612129565b611b035760405162461bcd60e51b815260040161076c90613699565b6000611889611b10611f2d565b61248c565b6001546001600160a01b0316611b29611f2d565b6001600160a01b03161480611b5857506002546001600160a01b0316611b4d611f2d565b6001600160a01b0316145b611b745760405162461bcd60e51b815260040161076c90613679565b6001600160a01b03811615611b9f57600280546001600160a01b0319166001600160a01b0383161790555b50565b6000806060600080600080611bb688611f10565b611bd25760405162461bcd60e51b815260040161076c906136a9565b611bda6129f1565b6000898152600a6020908152604091829020825160a08101845281546001600160a01b03168152600180830180548651600261010094831615949094026000190190911692909204601f8101869004860283018601909652858252919492938581019391929190830182828015611c925780601f10611c6757610100808354040283529160200191611c92565b820191906000526020600020905b815481529060010190602001808311611c7557829003601f168201915b50505091835250506002919091015465ffffffffffff80821660208085019190915266010000000000008304909116604080850191909152600160601b90920460ff16151560609093019290925260008c81526009909252902054815191925063ffffffff1690611d028b610f8e565b602084015160408501516060860151608090960151939e929d50909b50995092975095509350915050565b600254600090600160a01b900460ff1615611d4757600080fd5b600354341015611d5657600080fd5b60008263ffffffff1611611d7c5760405162461bcd60e51b815260040161076c90613669565b6004546001600160a01b03166312d26ac883611d96611f2d565b6040518363ffffffff1660e01b8152600401611db3929190613705565b60206040518083038186803b158015611dcb57600080fd5b505afa158015611ddf573d6000803e3d6000fd5b505050506040513d601f19601f82011682018060405250611e039190810190612d22565b611e1f5760405162461bcd60e51b815260040161076c906136b9565b611e2b86868685612129565b611e475760405162461bcd60e51b815260040161076c90613699565b600061134c611b10611f2d565b6001546001600160a01b0316611e68611f2d565b6001600160a01b03161480611e9757506002546001600160a01b0316611e8c611f2d565b6001600160a01b0316145b611eb35760405162461bcd60e51b815260040161076c90613679565b6001600160a01b03811615611b9f57600180546001600160a01b0383166001600160a01b031990911617905550565b6001600160a01b039182166000908152600e6020908152604080832093909416825291909152205460ff1690565b6000908152600660205260409020546001600160a01b0316151590565b3390565b5490565b6000611f4082611f10565b611f5c5760405162461bcd60e51b815260040161076c906136a9565b6000611f6783610f8e565b9050806001600160a01b0316846001600160a01b03161480611fa25750836001600160a01b0316611f9784610745565b6001600160a01b0316145b80611fb25750611fb28185611ee2565b949350505050565b6000818152600a60205260408120546001600160a01b03908116908516811480611ff55750806001600160a01b0316846001600160a01b0316145b1561200457600091505061200a565b60019150505b9392505050565b826001600160a01b031661202482610f8e565b6001600160a01b03161461204a5760405162461bcd60e51b815260040161076c906136c9565b6001600160a01b0382166120705760405162461bcd60e51b815260040161076c906135f9565b6120798161256b565b6001600160a01b038316600090815260076020526040902061209a906125a6565b6001600160a01b03821660009081526007602052604090206120bb906125bd565b60008181526006602052604080822080546001600160a01b0319166001600160a01b0386811691821790925591518493918716917fddf252ad1be2c89b69c2b068fc378daa952ba7f163c4a11628f55a4df523b3ef91a4505050565b611b9f61212382610f8e565b826125c6565b6004805460405163abe6178360e01b81526000926001600160a01b039092169163abe617839161215d9186918a910161377a565b60206040518083038186803b15801561217557600080fd5b505afa158015612189573d6000803e3d6000fd5b505050506040513d601f19601f820116820180604052506121ad9190810190612d22565b6121c95760405162461bcd60e51b815260040161076c90613649565b8365ffffffffffff168365ffffffffffff16116121f85760405162461bcd60e51b815260040161076c90613689565b506001949350505050565b60008061220f8461248c565b905061221e60008583866126fd565b61200a5760405162461bcd60e51b815260040161076c906135e9565b61224385611f10565b61225f5760405162461bcd60e51b815260040161076c906136a9565b6122676129f1565b6040518060a0016040528061227a611f2d565b6001600160a01b031681526020018681526020018565ffffffffffff1681526020018465ffffffffffff168152602001831515815250905080600a600088815260200190815260200160002060008201518160000160006101000a8154816001600160a01b0302191690836001600160a01b03160217905550602082015181600101908051906020019061230f929190612a20565b5060408201516002919091018054606084015160809094015165ffffffffffff1990911665ffffffffffff938416176bffffffffffff000000000000191666010000000000009390941692909202929092176cff0000000000000000000000001916600160601b91151591909102179055612389856127c8565b610a3057600b6000612399611f2d565b6001600160a01b031681526020808201929092526040908101600090812082518085019093528883528054600181018083559183529184902083518051929591909301926123ed9284929190910190612a20565b50505050505050505050565b60008061200a8360405180602001604052806000815250612203565b612420848484612011565b61242c848484846126fd565b610d225760405162461bcd60e51b815260040161076c906135e9565b61245182611f10565b61246d5760405162461bcd60e51b815260040161076c906136a9565b6000828152600c602090815260409091208251610bdf92840190612a20565b60006001600160a01b0382166124b45760405162461bcd60e51b815260040161076c906135c9565b6124be60056125bd565b60006124ca6005611f31565b600081815260066020908152604080832080546001600160a01b0319166001600160a01b03891690811790915583526007909152902090915061250c906125bd565b6001600160a01b038316600090815260086020526040902061252d906125bd565b60405181906001600160a01b038516906000907fddf252ad1be2c89b69c2b068fc378daa952ba7f163c4a11628f55a4df523b3ef908290a492915050565b6000818152600d60205260409020546001600160a01b031615611b9f576000908152600d6020526040902080546001600160a01b0319169055565b80546125b990600163ffffffff6128f316565b9055565b80546001019055565b816001600160a01b03166125d982610f8e565b6001600160a01b0316146125ff5760405162461bcd60e51b815260040161076c90613619565b6126088161256b565b6001600160a01b0382166000908152600760205260409020612629906125a6565b600081815260066020908152604080832080546001600160a01b0319169055600c909152902054600260001960018316156101000201909116041561267f576000818152600c6020526040812061267f91612a9e565b6000818152600a6020526040812080546001600160a01b0319168155906126a96001830182612a9e565b5060020180546cffffffffffffffffffffffffff1916905560405181906000906001600160a01b038516907fddf252ad1be2c89b69c2b068fc378daa952ba7f163c4a11628f55a4df523b3ef908390a45050565b6000612711846001600160a01b0316612935565b61271d57506001611fb2565b6000846001600160a01b031663150b7a02612736611f2d565b8887876040518563ffffffff1660e01b81526004016127589493929190613536565b602060405180830381600087803b15801561277257600080fd5b505af1158015612786573d6000803e3d6000fd5b505050506040513d601f19601f820116820180604052506127aa9190810190612d5e565b6001600160e01b031916630a85bd0160e11b14915050949350505050565b336000908152600b602090815260408083208054825181850281018501909352808352606093859084015b828210156128aa57600084815260209081902060408051918501805460026001821615610100026000190190911604601f81018590048502840183018352938301848152929390928492909184918401828280156128925780601f1061286757610100808354040283529160200191612892565b820191906000526020600020905b81548152906001019060200180831161287557829003601f168201915b505050505081525050815260200190600101906127f3565b5092935060009250829150505b82518110156115dc576128e1858483815181106128d057fe5b60200260200101516000015161296c565b156128eb57600191505b6001016128b7565b600061200a83836040518060400160405280601e81526020017f536166654d6174683a207375627472616374696f6e206f766572666c6f7700008152506129c5565b6000813f7fc5d2460186f7233c927e7db2dcc703c0e500b653ca82273b7bfad8045d85a4708115801590611fb25750141592915050565b60008160405160200161297f91906134a2565b60405160208183030381529060405280519060200120836040516020016129a691906134a2565b6040516020818303038152906040528051906020012014905092915050565b600081848411156129e95760405162461bcd60e51b815260040161076c91906135b8565b505050900390565b6040805160a0810182526000808252606060208301819052928201819052918101829052608081019190915290565b828054600181600116156101000203166002900490600052602060002090601f016020900481019282601f10612a6157805160ff1916838001178555612a8e565b82800160010185558215612a8e579182015b82811115612a8e578251825591602001919060010190612a73565b50612a9a929150612ade565b5090565b50805460018160011615610100020316600290046000825580601f10612ac45750611b9f565b601f016020900490600052602060002090810190611b9f91905b61074291905b80821115612a9a5760008155600101612ae4565b8035610ff281613886565b8035610ff28161389a565b8051610ff28161389a565b8035610ff2816138a3565b8051610ff2816138a3565b600082601f830112612b4057600080fd5b8135612b53612b4e826137c1565b61379a565b91508082526020830160208301858383011115612b6f57600080fd5b612b7a838284613844565b50505092915050565b8035610ff2816138ac565b8035610ff2816138b5565b8035610ff2816138be565b600060208284031215612bb657600080fd5b6000611fb28484612af8565b60008060408385031215612bd557600080fd5b6000612be18585612af8565b9250506020612bf285828601612af8565b9150509250929050565b600080600060608486031215612c1157600080fd5b6000612c1d8686612af8565b9350506020612c2e86828701612af8565b9250506040612c3f86828701612b83565b9150509250925092565b60008060008060808587031215612c5f57600080fd5b6000612c6b8787612af8565b9450506020612c7c87828801612af8565b9350506040612c8d87828801612b83565b925050606085013567ffffffffffffffff811115612caa57600080fd5b612cb687828801612b2f565b91505092959194509250565b60008060408385031215612cd557600080fd5b6000612ce18585612af8565b9250506020612bf285828601612b03565b60008060408385031215612d0557600080fd5b6000612d118585612af8565b9250506020612bf285828601612b83565b600060208284031215612d3457600080fd5b6000611fb28484612b0e565b600060208284031215612d5257600080fd5b6000611fb28484612b19565b600060208284031215612d7057600080fd5b6000611fb28484612b24565b600080600080600060a08688031215612d9457600080fd5b853567ffffffffffffffff811115612dab57600080fd5b612db788828901612b2f565b9550506020612dc888828901612b99565b9450506040612dd988828901612b99565b9350506060612dea88828901612b03565b9250506080612dfb88828901612b8e565b9150509295509295909350565b60008060008060008060c08789031215612e2157600080fd5b863567ffffffffffffffff811115612e3857600080fd5b612e4489828a01612b2f565b9650506020612e5589828a01612b99565b9550506040612e6689828a01612b99565b9450506060612e7789828a01612b03565b9350506080612e8889828a01612b8e565b92505060a087013567ffffffffffffffff811115612ea557600080fd5b612eb189828a01612b2f565b9150509295509295509295565b600060208284031215612ed057600080fd5b6000611fb28484612b83565b600061200a8383612fdb565b6000612ef48383613487565b505060200190565b612f05816137fc565b82525050565b6000612f16826137ef565b612f2081856137f3565b935083602082028501612f32856137e9565b8060005b85811015612f6c5784840389528151612f4f8582612edc565b9450612f5a836137e9565b60209a909a0199925050600101612f36565b5091979650505050505050565b6000612f84826137ef565b612f8e81856137f3565b9350612f99836137e9565b8060005b83811015612fc7578151612fb18882612ee8565b9750612fbc836137e9565b925050600101612f9d565b509495945050505050565b612f0581613807565b6000612fe6826137ef565b612ff081856137f3565b9350613000818560208601613850565b6130098161387c565b9093019392505050565b612f0581613839565b6000613027826137ef565b61303181856106a9565b9350613041818560208601613850565b9290920192915050565b60006130586014836137f3565b7f4d494e545f544f5f5a45524f5f41444452455353000000000000000000000000815260200192915050565b6000613091601a836137f3565b7f5345434f4e444152595f54524144494e475f44495341424c4544000000000000815260200192915050565b60006130ca602a836137f3565b7f5452414e534645525f544f5f4e4f4e5f45524337323152454345495645525f4981526926a82622a6a2a72a22a960b11b602082015260400192915050565b60006131166018836137f3565b7f5452414e534645525f544f5f5a45524f5f414444524553530000000000000000815260200192915050565b600061314f6019836137f3565b7f43414e4e4f545f51554552595f5a45524f5f4144445245535300000000000000815260200192915050565b60006131886011836137f3565b7f554e415554484f52495a45445f4255524e000000000000000000000000000000815260200192915050565b60006131c16015836137f3565b7f415050524f56414c5f49535f524544554e44414e540000000000000000000000815260200192915050565b60006131fa600f836137f3565b7f57495448445241575f4641494c45440000000000000000000000000000000000815260200192915050565b60006132336023836137f3565b7f434f4e54454e545f49445f4e4f545f524547495354455245445f544f5f43414c8152622622a960e91b602082015260400192915050565b6000613278601a836137f3565b7f43414c4c45525f43414e4e4f545f415050524f56455f53454c46000000000000815260200192915050565b60006132b16015836137f3565b7f494e56414c49445f46454445524154494f4e5f49440000000000000000000000815260200192915050565b60006132ea6013836137f3565b7f4f4e4c595f434f4e54524143545f4f574e455200000000000000000000000000815260200192915050565b60006133236019836137f3565b7f53544152545f54494d455f41465445525f454e445f54494d4500000000000000815260200192915050565b6000610ff26000836106a9565b60006133696011836137f3565b7f494e56414c49445f54494d455f534c4f54000000000000000000000000000000815260200192915050565b60006133a26012836137f3565b7f4e4f4e5f4558495354454e545f544f4b454e0000000000000000000000000000815260200192915050565b60006133db6025836137f3565b7f43414c4c45525f4e4f545f415554484f52495a45445f464f525f4d494e5445528152645f524f4c4560d81b602082015260400192915050565b60006134226015836137f3565b7f554e415554484f52495a45445f5452414e534645520000000000000000000000815260200192915050565b600061345b6015836137f3565b7f43414c4c45525f4e4f545f415554484f52495a45440000000000000000000000815260200192915050565b612f0581610742565b612f0581613825565b612f058161382e565b600061200a828461301c565b6000610ff28261334f565b60208101610ff28284612efc565b60e081016134d5828a612efc565b6134e26020830189612efc565b81810360408301526134f48188612fdb565b90506135036060830187613499565b6135106080830186613499565b61351d60a0830185612fd2565b61352a60c0830184613490565b98975050505050505050565b608081016135448287612efc565b6135516020830186612efc565b61355e6040830185613487565b81810360608301526135708184612fdb565b9695505050505050565b6020808252810161200a8184612f0b565b6020808252810161200a8184612f79565b60208101610ff28284612fd2565b60208101610ff28284613013565b6020808252810161200a8184612fdb565b60208082528101610ff28161304b565b60208082528101610ff281613084565b60208082528101610ff2816130bd565b60208082528101610ff281613109565b60208082528101610ff281613142565b60208082528101610ff28161317b565b60208082528101610ff2816131b4565b60208082528101610ff2816131ed565b60208082528101610ff281613226565b60208082528101610ff28161326b565b60208082528101610ff2816132a4565b60208082528101610ff2816132dd565b60208082528101610ff281613316565b60208082528101610ff28161335c565b60208082528101610ff281613395565b60208082528101610ff2816133ce565b60208082528101610ff281613415565b60208082528101610ff28161344e565b60208101610ff28284613487565b60208101610ff28284613490565b604081016137138285613490565b61200a6020830184612efc565b60c0810161372e8289613490565b61373b6020830188612efc565b6137486040830187612efc565b6137556060830186613487565b6137626080830185612efc565b61376f60a0830184612efc565b979650505050505050565b604081016137888285613490565b8181036020830152611fb28184612fdb565b60405181810167ffffffffffffffff811182821017156137b957600080fd5b604052919050565b600067ffffffffffffffff8211156137d857600080fd5b506020601f91909101601f19160190565b60200190565b5190565b90815260200190565b6000610ff282613819565b151590565b6001600160e01b03191690565b6001600160a01b031690565b63ffffffff1690565b65ffffffffffff1690565b6000610ff2826137fc565b82818337506000910152565b60005b8381101561386b578181015183820152602001613853565b83811115610d225750506000910152565b601f01601f191690565b61388f816137fc565b8114611b9f57600080fd5b61388f81613807565b61388f8161380c565b61388f81610742565b61388f81613825565b61388f8161382e56fea365627a7a72315820c75260f1b276f0041a5566404595ef9403f0eb4063ed76d7d24413b07b87aa8a6c6578706572696d656e74616cf564736f6c634300050b0040",
  "source": "pragma solidity ^0.5.11;\npragma experimental ABIEncoderV2;\n\nimport \"./ERC721.sol\";\n\n/**\n * Customized for Microsponsors\n * from Open Zeppelin's ERC721Metadata contract, which is MIT Licensed:\n * https://github.com/OpenZeppelin/openzeppelin-contracts/blob/master/contracts/token/ERC721/ERC721Metadata.sol\n\n  Licensed under the Apache License, Version 2.0 (the \"License\");\n  you may not use this file except in compliance with the License.\n  You may obtain a copy of the License at\n\n    http://www.apache.org/licenses/LICENSE-2.0\n\n  Unless required by applicable law or agreed to in writing, software\n  distributed under the License is distributed on an \"AS IS\" BASIS,\n  WITHOUT WARRANTIES OR CONDITIONS OF ANY KIND, either express or implied.\n  See the License for the specific language governing permissions and\n  limitations under the License.\n\n*/\n\ncontract Microsponsors is ERC721 {\n\n    // Token name\n    string private _name;\n\n    // Token symbol\n    string private _symbol;\n\n\n    /*\n     *     bytes4(keccak256('name()')) == 0x06fdde03\n     *     bytes4(keccak256('symbol()')) == 0x95d89b41\n     *     bytes4(keccak256('tokenURI(uint256)')) == 0xc87b56dd\n     *\n     *     => 0x06fdde03 ^ 0x95d89b41 ^ 0xc87b56dd == 0x5b5e139f\n     */\n    bytes4 private constant _INTERFACE_ID_ERC721_METADATA = 0x5b5e139f;\n\n    /**\n     * @dev Constructor function\n     */\n    constructor (string memory name, string memory symbol, address registryAddress) public {\n\n        _name = name;\n        _symbol = symbol;\n\n        // register the supported interfaces to conform to ERC721 via ERC165\n        _registerInterface(_INTERFACE_ID_ERC721_METADATA);\n\n        super.updateRegistryAddress(registryAddress);\n\n    }\n\n    /**\n     * @dev Gets the token name.\n     * @return string representing the token name\n     */\n    function name() external view returns (string memory) {\n        return _name;\n    }\n\n    /**\n     * @dev Gets the token symbol.\n     * @return string representing the token symbol\n     */\n    function symbol() external view returns (string memory) {\n        return _symbol;\n    }\n\n}\n",
  "sourcePath": "/Users/lauren/github/erc-721/contracts/Microsponsors.sol",
  "compiler": {
    "name": "solc",
    "version": "0.5.11+commit.c082d0b4.Emscripten.clang"
  },
  "schemaVersion": "3.1.0",
  "updatedAt": "2021-03-03T00:07:53.988Z",
  "networkType": "ethereum",
  "devdoc": {
    "methods": {
      "approve(address,uint256)": {
        "details": "Approves another address to transfer the given token ID The zero address indicates there is no approved address. There can only be one approved address per token at a given time. Can only be called by the token owner or an approved operator.",
        "params": {
          "to": "address to be approved for the given token ID",
          "tokenId": "uint256 ID of the token to be approved"
        }
      },
      "balanceOf(address)": {
        "details": "Gets the balance of the specified address.",
        "params": {
          "tokenOwner": "address to query the balance of"
        },
        "return": "uint256 representing the amount owned by the passed address"
      },
      "burn(uint256)": {
        "details": "Customized for MicrosponsorsBurns a specific ERC721 token.",
        "params": {
          "tokenId": "uint256 id of the ERC721 token to be burned"
        }
      },
      "constructor": {
        "details": "Constructor function"
      },
      "getApproved(uint256)": {
        "details": "Gets the approved address for a token ID, or zero if no address set Reverts if the token ID does not exist.",
        "params": {
          "tokenId": "uint256 ID of the token to query the approval of"
        },
        "return": "address currently approved for the given token ID"
      },
      "isApprovedForAll(address,address)": {
        "details": "Tells whether an operator is approved by a given token owner.",
        "params": {
          "operator": "operator address which you want to query the approval of",
          "tokenOwner": "token owner address which you want to query the approval of"
        },
        "return": "bool whether the given operator is approved by the token owner"
      },
      "mint(string,uint48,uint48,bool,uint32)": {
        "details": "Function to mint tokens.",
        "return": "tokenId"
      },
      "mintWithTokenURI(string,uint48,uint48,bool,uint32,string)": {
        "details": "Function to mint tokens.",
        "params": {
          "tokenURI": "The token URI of the minted token."
        },
        "return": "tokenId"
      },
      "name()": {
        "details": "Gets the token name.",
        "return": "string representing the token name"
      },
      "ownerOf(uint256)": {
        "details": "Gets the owner of the specified token ID.",
        "params": {
          "tokenId": "uint256 ID of the token to query the owner of"
        },
        "return": "address currently marked as the owner of the given token ID"
      },
      "pause()": {
        "details": "Called by contract owner to pause minting and transfers."
      },
      "safeMint(string,uint48,uint48,bool,uint32)": {
        "details": "Function to safely mint tokens.",
        "return": "tokenId"
      },
      "safeMint(string,uint48,uint48,bool,uint32,bytes)": {
        "details": "Function to safely mint tokens.",
        "params": {
          "data": "bytes data to send along with a safe transfer check."
        },
        "return": "tokenId"
      },
      "safeMintWithTokenURI(string,uint48,uint48,bool,uint32,string)": {
        "params": {
          "tokenURI": "The token URI of the minted token."
        },
        "return": "tokenId"
      },
      "safeTransferFrom(address,address,uint256)": {
        "details": "Safely transfers the ownership of a given token ID to another address If the target address is a contract, it must implement {IERC721Receiver-onERC721Received}, which is called upon a safe transfer, and return the magic value `bytes4(keccak256(\"onERC721Received(address,address,uint256,bytes)\"))`; otherwise, the transfer is reverted. Requires the msg.sender to be the owner, approved, or operator",
        "params": {
          "from": "current owner of the token",
          "to": "address to receive the ownership of the given token ID",
          "tokenId": "uint256 ID of the token to be transferred"
        }
      },
      "safeTransferFrom(address,address,uint256,bytes)": {
        "details": "Safely transfers the ownership of a given token ID to another address If the target address is a contract, it must implement {IERC721Receiver-onERC721Received}, which is called upon a safe transfer, and return the magic value `bytes4(keccak256(\"onERC721Received(address,address,uint256,bytes)\"))`; otherwise, the transfer is reverted. Requires the _msgSender() to be the owner, approved, or operator",
        "params": {
          "data": "bytes data to send along with a safe transfer check",
          "from": "current owner of the token",
          "to": "address to receive the ownership of the given token ID",
          "tokenId": "uint256 ID of the token to be transferred"
        }
      },
      "setApprovalForAll(address,bool)": {
        "details": "Sets or unsets the approval of a given operator An operator is allowed to transfer all tokens of the sender on their behalf.",
        "params": {
          "approved": "representing the status of the approval to be set",
          "to": "operator address to set the approval"
        }
      },
      "supportsInterface(bytes4)": {
        "details": "See {IERC165-supportsInterface}.     * Time complexity O(1), guaranteed to always use less than 30 000 gas."
      },
      "symbol()": {
        "details": "Gets the token symbol.",
        "return": "string representing the token symbol"
      },
      "tokenMinterContentIds(address)": {
        "details": "Look up all Content IDs a Minter has tokenized TimeSlots for.      We're not getting this from the Registry because we want to keep      a separate record here of all Content ID's the acct has *ever*      minted tokens for. The registry is for keeping track of their      current (not necessarily past) Content ID registrations."
      },
      "tokenURI(uint256)": {
        "params": {
          "tokenId": "uint256 ID of the token to query"
        },
        "return": "URI for a given token ID."
      },
      "tokensMintedBy(address)": {
        "details": "This method MUST NEVER be called by smart contract code. First, it's fairly expensive (it walks the entire _tokenIds array looking for tokens belonging to minter), but it also returns a dynamic array, which is only supported for web3 calls, and not contract-to-contract calls (at this time)."
      },
      "tokensOfOwner(address)": {
        "details": "This method MUST NEVER be called by smart contract code. First, it's fairly expensive (it walks the entire _tokenIds array looking for tokens belonging to owner), but it also returns a dynamic array, which is only supported for web3 calls, and not contract-to-contract calls (at this time).",
        "params": {
          "tokenOwner": "The owner whose tokens we are interested in."
        }
      },
      "totalSupply()": {
        "details": "Gets the total number of tokens ever minted."
      },
      "transferFrom(address,address,uint256)": {
        "details": "Transfers the ownership of a given token ID to another address. Usage of this method is discouraged, use {safeTransferFrom} whenever possible. Requires the msg.sender to be the owner, approved, or operator.",
        "params": {
          "from": "current owner of the token",
          "to": "address to receive the ownership of the given token ID",
          "tokenId": "uint256 ID of the token to be transferred"
        }
      },
      "transferOwnership1(address)": {
        "details": "Transfer owner (admin) functions to another address",
        "params": {
          "newOwner": "Address of new owner/ admin of contract"
        }
      },
      "unpause()": {
        "details": "Called by contract owner to unpause minting and transfers."
      },
      "updateMintFee(uint256)": {
        "details": "Update the fee (in wei) charged for minting a single token"
      },
      "updateRegistryAddress(address)": {
        "details": "Update contract address for Microsponsors Registry contract",
        "params": {
          "newAddress": "where the Registry contract lives"
        }
      },
      "withdrawBalance()": {
        "details": "Admin withdraws entire balance from contract."
      }
    }
  },
  "userdoc": {
    "methods": {
      "tokenURI(uint256)": {
        "notice": "Throws if the token ID does not exist. May return an empty string."
      },
      "tokensMintedBy(address)": {
        "notice": "Return all the Token IDs minted by a given account."
      }
    },
    "notice": "Customized for Microsponsors from Open Zeppelin's ERC721Metadata contract, which is MIT Licensed: https://github.com/OpenZeppelin/openzeppelin-contracts/blob/master/contracts/token/ERC721/ERC721Metadata.sol Licensed under the Apache License, Version 2.0 (the \"License\"); you may not use this file except in compliance with the License. You may obtain a copy of the License at http://www.apache.org/licenses/LICENSE-2.0 Unless required by applicable law or agreed to in writing, software distributed under the License is distributed on an \"AS IS\" BASIS, WITHOUT WARRANTIES OR CONDITIONS OF ANY KIND, either express or implied. See the License for the specific language governing permissions and limitations under the License."
  }
}