{
  "contractName": "Microsponsors",
  "abi": [
    {
      "constant": true,
      "inputs": [
        {
          "internalType": "bytes4",
          "name": "interfaceId",
          "type": "bytes4"
        }
      ],
      "name": "supportsInterface",
      "outputs": [
        {
          "internalType": "bool",
          "name": "",
          "type": "bool"
        }
      ],
      "payable": false,
      "stateMutability": "view",
      "type": "function"
    },
    {
      "constant": true,
      "inputs": [
        {
          "internalType": "uint256",
          "name": "tokenId",
          "type": "uint256"
        }
      ],
      "name": "getApproved",
      "outputs": [
        {
          "internalType": "address",
          "name": "",
          "type": "address"
        }
      ],
      "payable": false,
      "stateMutability": "view",
      "type": "function"
    },
    {
      "constant": false,
      "inputs": [
        {
          "internalType": "address",
          "name": "to",
          "type": "address"
        },
        {
          "internalType": "uint256",
          "name": "tokenId",
          "type": "uint256"
        }
      ],
      "name": "approve",
      "outputs": [],
      "payable": false,
      "stateMutability": "nonpayable",
      "type": "function"
    },
    {
      "constant": true,
      "inputs": [],
      "name": "mintFee",
      "outputs": [
        {
          "internalType": "uint256",
          "name": "",
          "type": "uint256"
        }
      ],
      "payable": false,
      "stateMutability": "view",
      "type": "function"
    },
    {
      "constant": true,
      "inputs": [
        {
          "internalType": "uint256",
          "name": "",
          "type": "uint256"
        }
      ],
      "name": "tokenToFederationId",
      "outputs": [
        {
          "internalType": "uint32",
          "name": "",
          "type": "uint32"
        }
      ],
      "payable": false,
      "stateMutability": "view",
      "type": "function"
    },
    {
      "constant": true,
      "inputs": [],
      "name": "totalSupply",
      "outputs": [
        {
          "internalType": "uint256",
          "name": "",
          "type": "uint256"
        }
      ],
      "payable": false,
      "stateMutability": "view",
      "type": "function"
    },
    {
      "constant": false,
      "inputs": [
        {
          "internalType": "string",
          "name": "contentId",
          "type": "string"
        },
        {
          "internalType": "string",
          "name": "propertyName",
          "type": "string"
        },
        {
          "internalType": "uint48",
          "name": "startTime",
          "type": "uint48"
        },
        {
          "internalType": "uint48",
          "name": "endTime",
          "type": "uint48"
        },
        {
          "internalType": "uint48",
          "name": "auctionEndTime",
          "type": "uint48"
        },
        {
          "internalType": "uint16",
          "name": "category",
          "type": "uint16"
        },
        {
          "internalType": "uint32",
          "name": "federationId",
          "type": "uint32"
        }
      ],
      "name": "safeMint",
      "outputs": [
        {
          "internalType": "uint256",
          "name": "",
          "type": "uint256"
        }
      ],
      "payable": true,
      "stateMutability": "payable",
      "type": "function"
    },
    {
      "constant": false,
      "inputs": [
        {
          "internalType": "address",
          "name": "from",
          "type": "address"
        },
        {
          "internalType": "address",
          "name": "to",
          "type": "address"
        },
        {
          "internalType": "uint256",
          "name": "tokenId",
          "type": "uint256"
        }
      ],
      "name": "transferFrom",
      "outputs": [],
      "payable": false,
      "stateMutability": "nonpayable",
      "type": "function"
    },
    {
      "constant": true,
      "inputs": [
        {
          "internalType": "address",
          "name": "minter",
          "type": "address"
        }
      ],
      "name": "tokensMintedBy",
      "outputs": [
        {
          "internalType": "uint256[]",
          "name": "",
          "type": "uint256[]"
        }
      ],
      "payable": false,
      "stateMutability": "view",
      "type": "function"
    },
    {
      "constant": false,
      "inputs": [
        {
          "internalType": "string",
          "name": "contentId",
          "type": "string"
        },
        {
          "internalType": "string",
          "name": "propertyName",
          "type": "string"
        },
        {
          "internalType": "uint48",
          "name": "startTime",
          "type": "uint48"
        },
        {
          "internalType": "uint48",
          "name": "endTime",
          "type": "uint48"
        },
        {
          "internalType": "uint48",
          "name": "auctionEndTime",
          "type": "uint48"
        },
        {
          "internalType": "uint16",
          "name": "category",
          "type": "uint16"
        },
        {
          "internalType": "uint32",
          "name": "federationId",
          "type": "uint32"
        },
        {
          "internalType": "string",
          "name": "tokenURI",
          "type": "string"
        }
      ],
      "name": "mintWithTokenURI",
      "outputs": [
        {
          "internalType": "uint256",
          "name": "",
          "type": "uint256"
        }
      ],
      "payable": true,
      "stateMutability": "payable",
      "type": "function"
    },
    {
      "constant": false,
      "inputs": [],
      "name": "unpause",
      "outputs": [],
      "payable": false,
      "stateMutability": "nonpayable",
      "type": "function"
    },
    {
      "constant": false,
      "inputs": [
        {
          "internalType": "address",
          "name": "from",
          "type": "address"
        },
        {
          "internalType": "address",
          "name": "to",
          "type": "address"
        },
        {
          "internalType": "uint256",
          "name": "tokenId",
          "type": "uint256"
        }
      ],
      "name": "safeTransferFrom",
      "outputs": [],
      "payable": false,
      "stateMutability": "nonpayable",
      "type": "function"
    },
    {
      "constant": false,
      "inputs": [
        {
          "internalType": "uint256",
          "name": "tokenId",
          "type": "uint256"
        }
      ],
      "name": "burn",
      "outputs": [],
      "payable": false,
      "stateMutability": "nonpayable",
      "type": "function"
    },
    {
      "constant": false,
      "inputs": [
        {
          "internalType": "string",
          "name": "contentId",
          "type": "string"
        },
        {
          "internalType": "string",
          "name": "propertyName",
          "type": "string"
        },
        {
          "internalType": "uint48",
          "name": "startTime",
          "type": "uint48"
        },
        {
          "internalType": "uint48",
          "name": "endTime",
          "type": "uint48"
        },
        {
          "internalType": "uint48",
          "name": "auctionEndTime",
          "type": "uint48"
        },
        {
          "internalType": "uint16",
          "name": "category",
          "type": "uint16"
        },
        {
          "internalType": "uint32",
          "name": "federationId",
          "type": "uint32"
        },
        {
          "internalType": "bytes",
          "name": "data",
          "type": "bytes"
        }
      ],
      "name": "safeMint",
      "outputs": [
        {
          "internalType": "uint256",
          "name": "",
          "type": "uint256"
        }
      ],
      "payable": true,
      "stateMutability": "payable",
      "type": "function"
    },
    {
      "constant": true,
      "inputs": [],
      "name": "owner2",
      "outputs": [
        {
          "internalType": "address",
          "name": "",
          "type": "address"
        }
      ],
      "payable": false,
      "stateMutability": "view",
      "type": "function"
    },
    {
      "constant": false,
      "inputs": [],
      "name": "enableGlobalResale",
      "outputs": [],
      "payable": false,
      "stateMutability": "nonpayable",
      "type": "function"
    },
    {
      "constant": true,
      "inputs": [],
      "name": "paused",
      "outputs": [
        {
          "internalType": "bool",
          "name": "",
          "type": "bool"
        }
      ],
      "payable": false,
      "stateMutability": "view",
      "type": "function"
    },
    {
      "constant": false,
      "inputs": [],
      "name": "withdrawBalance",
      "outputs": [],
      "payable": false,
      "stateMutability": "nonpayable",
      "type": "function"
    },
    {
      "constant": true,
      "inputs": [
        {
          "internalType": "uint256",
          "name": "tokenId",
          "type": "uint256"
        }
      ],
      "name": "ownerOf",
      "outputs": [
        {
          "internalType": "address",
          "name": "",
          "type": "address"
        }
      ],
      "payable": false,
      "stateMutability": "view",
      "type": "function"
    },
    {
      "constant": false,
      "inputs": [
        {
          "internalType": "string",
          "name": "contentId",
          "type": "string"
        },
        {
          "internalType": "string",
          "name": "propertyName",
          "type": "string"
        },
        {
          "internalType": "uint48",
          "name": "startTime",
          "type": "uint48"
        },
        {
          "internalType": "uint48",
          "name": "endTime",
          "type": "uint48"
        },
        {
          "internalType": "uint48",
          "name": "auctionEndTime",
          "type": "uint48"
        },
        {
          "internalType": "uint16",
          "name": "category",
          "type": "uint16"
        },
        {
          "internalType": "uint32",
          "name": "federationId",
          "type": "uint32"
        }
      ],
      "name": "mint",
      "outputs": [
        {
          "internalType": "uint256",
          "name": "",
          "type": "uint256"
        }
      ],
      "payable": true,
      "stateMutability": "payable",
      "type": "function"
    },
    {
      "constant": true,
      "inputs": [
        {
          "internalType": "address",
          "name": "tokenOwner",
          "type": "address"
        }
      ],
      "name": "balanceOf",
      "outputs": [
        {
          "internalType": "uint256",
          "name": "",
          "type": "uint256"
        }
      ],
      "payable": false,
      "stateMutability": "view",
      "type": "function"
    },
    {
      "constant": true,
      "inputs": [],
      "name": "owner1",
      "outputs": [
        {
          "internalType": "address",
          "name": "",
          "type": "address"
        }
      ],
      "payable": false,
      "stateMutability": "view",
      "type": "function"
    },
    {
      "constant": true,
      "inputs": [
        {
          "internalType": "address",
          "name": "minter",
          "type": "address"
        },
        {
          "internalType": "string",
          "name": "contentId",
          "type": "string"
        }
      ],
      "name": "tokenMinterPropertyNames",
      "outputs": [
        {
          "internalType": "string[]",
          "name": "",
          "type": "string[]"
        }
      ],
      "payable": false,
      "stateMutability": "view",
      "type": "function"
    },
    {
      "constant": true,
      "inputs": [],
      "name": "registry",
      "outputs": [
        {
          "internalType": "contract DeployedRegistry",
          "name": "",
          "type": "address"
        }
      ],
      "payable": false,
      "stateMutability": "view",
      "type": "function"
    },
    {
      "constant": false,
      "inputs": [
        {
          "internalType": "uint256",
          "name": "val",
          "type": "uint256"
        }
      ],
      "name": "updateMintFee",
      "outputs": [],
      "payable": false,
      "stateMutability": "nonpayable",
      "type": "function"
    },
    {
      "constant": false,
      "inputs": [],
      "name": "pause",
      "outputs": [],
      "payable": false,
      "stateMutability": "nonpayable",
      "type": "function"
    },
    {
      "constant": true,
      "inputs": [
        {
          "internalType": "address",
          "name": "tokenOwner",
          "type": "address"
        }
      ],
      "name": "tokensOfOwner",
      "outputs": [
        {
          "internalType": "uint256[]",
          "name": "",
          "type": "uint256[]"
        }
      ],
      "payable": false,
      "stateMutability": "view",
      "type": "function"
    },
    {
      "constant": false,
      "inputs": [
        {
          "internalType": "string",
          "name": "contentId",
          "type": "string"
        },
        {
          "internalType": "string",
          "name": "propertyName",
          "type": "string"
        },
        {
          "internalType": "uint48",
          "name": "startTime",
          "type": "uint48"
        },
        {
          "internalType": "uint48",
          "name": "endTime",
          "type": "uint48"
        },
        {
          "internalType": "uint48",
          "name": "auctionEndTime",
          "type": "uint48"
        },
        {
          "internalType": "uint16",
          "name": "category",
          "type": "uint16"
        },
        {
          "internalType": "uint32",
          "name": "federationId",
          "type": "uint32"
        },
        {
          "internalType": "string",
          "name": "tokenURI",
          "type": "string"
        }
      ],
      "name": "safeMintWithTokenURI",
      "outputs": [
        {
          "internalType": "uint256",
          "name": "",
          "type": "uint256"
        }
      ],
      "payable": true,
      "stateMutability": "payable",
      "type": "function"
    },
    {
      "constant": false,
      "inputs": [
        {
          "internalType": "address",
          "name": "to",
          "type": "address"
        },
        {
          "internalType": "bool",
          "name": "approved",
          "type": "bool"
        }
      ],
      "name": "setApprovalForAll",
      "outputs": [],
      "payable": false,
      "stateMutability": "nonpayable",
      "type": "function"
    },
    {
      "constant": true,
      "inputs": [
        {
          "internalType": "address",
          "name": "minter",
          "type": "address"
        }
      ],
      "name": "tokenMinterContentIds",
      "outputs": [
        {
          "internalType": "string[]",
          "name": "",
          "type": "string[]"
        }
      ],
      "payable": false,
      "stateMutability": "view",
      "type": "function"
    },
    {
      "constant": true,
      "inputs": [],
      "name": "isGlobalResaleEnabled",
      "outputs": [
        {
          "internalType": "bool",
          "name": "",
          "type": "bool"
        }
      ],
      "payable": false,
      "stateMutability": "view",
      "type": "function"
    },
    {
      "constant": false,
      "inputs": [],
      "name": "disableGlobalResale",
      "outputs": [],
      "payable": false,
      "stateMutability": "nonpayable",
      "type": "function"
    },
    {
      "constant": false,
      "inputs": [
        {
          "internalType": "address",
          "name": "from",
          "type": "address"
        },
        {
          "internalType": "address",
          "name": "to",
          "type": "address"
        },
        {
          "internalType": "uint256",
          "name": "tokenId",
          "type": "uint256"
        },
        {
          "internalType": "bytes",
          "name": "data",
          "type": "bytes"
        }
      ],
      "name": "safeTransferFrom",
      "outputs": [],
      "payable": false,
      "stateMutability": "nonpayable",
      "type": "function"
    },
    {
      "constant": false,
      "inputs": [
        {
          "internalType": "address",
          "name": "newAddress",
          "type": "address"
        }
      ],
      "name": "updateRegistryAddress",
      "outputs": [],
      "payable": false,
      "stateMutability": "nonpayable",
      "type": "function"
    },
    {
      "constant": true,
      "inputs": [
        {
          "internalType": "uint256",
          "name": "tokenId",
          "type": "uint256"
        }
      ],
      "name": "tokenURI",
      "outputs": [
        {
          "internalType": "string",
          "name": "",
          "type": "string"
        }
      ],
      "payable": false,
      "stateMutability": "view",
      "type": "function"
    },
    {
      "constant": false,
      "inputs": [
        {
          "internalType": "address",
          "name": "newOwner",
          "type": "address"
        }
      ],
      "name": "transferOwnership2",
      "outputs": [],
      "payable": false,
      "stateMutability": "nonpayable",
      "type": "function"
    },
    {
      "constant": true,
      "inputs": [
        {
          "internalType": "uint256",
          "name": "tokenId",
          "type": "uint256"
        }
      ],
      "name": "tokenTimeSlot",
      "outputs": [
        {
          "internalType": "address",
          "name": "minter",
          "type": "address"
        },
        {
          "internalType": "address",
          "name": "owner",
          "type": "address"
        },
        {
          "internalType": "string",
          "name": "contentId",
          "type": "string"
        },
        {
          "internalType": "string",
          "name": "propertyName",
          "type": "string"
        },
        {
          "internalType": "uint48",
          "name": "startTime",
          "type": "uint48"
        },
        {
          "internalType": "uint48",
          "name": "endTime",
          "type": "uint48"
        },
        {
          "internalType": "uint48",
          "name": "auctionEndTime",
          "type": "uint48"
        },
        {
          "internalType": "uint16",
          "name": "category",
          "type": "uint16"
        },
        {
          "internalType": "uint32",
          "name": "federationId",
          "type": "uint32"
        }
      ],
      "payable": false,
      "stateMutability": "view",
      "type": "function"
    },
    {
      "constant": false,
      "inputs": [
        {
          "internalType": "address",
          "name": "newOwner",
          "type": "address"
        }
      ],
      "name": "transferOwnership1",
      "outputs": [],
      "payable": false,
      "stateMutability": "nonpayable",
      "type": "function"
    },
    {
      "constant": true,
      "inputs": [
        {
          "internalType": "address",
          "name": "tokenOwner",
          "type": "address"
        },
        {
          "internalType": "address",
          "name": "operator",
          "type": "address"
        }
      ],
      "name": "isApprovedForAll",
      "outputs": [
        {
          "internalType": "bool",
          "name": "",
          "type": "bool"
        }
      ],
      "payable": false,
      "stateMutability": "view",
      "type": "function"
    },
    {
      "inputs": [
        {
          "internalType": "string",
          "name": "name",
          "type": "string"
        },
        {
          "internalType": "string",
          "name": "symbol",
          "type": "string"
        },
        {
          "internalType": "address",
          "name": "registryAddress",
          "type": "address"
        }
      ],
      "payable": false,
      "stateMutability": "nonpayable",
      "type": "constructor"
    },
    {
      "anonymous": false,
      "inputs": [
        {
          "indexed": true,
          "internalType": "address",
          "name": "from",
          "type": "address"
        },
        {
          "indexed": true,
          "internalType": "address",
          "name": "to",
          "type": "address"
        },
        {
          "indexed": true,
          "internalType": "uint256",
          "name": "tokenId",
          "type": "uint256"
        }
      ],
      "name": "Transfer",
      "type": "event"
    },
    {
      "anonymous": false,
      "inputs": [
        {
          "indexed": true,
          "internalType": "address",
          "name": "tokenOwner",
          "type": "address"
        },
        {
          "indexed": true,
          "internalType": "address",
          "name": "approved",
          "type": "address"
        },
        {
          "indexed": true,
          "internalType": "uint256",
          "name": "tokenId",
          "type": "uint256"
        }
      ],
      "name": "Approval",
      "type": "event"
    },
    {
      "anonymous": false,
      "inputs": [
        {
          "indexed": true,
          "internalType": "address",
          "name": "tokenOwner",
          "type": "address"
        },
        {
          "indexed": true,
          "internalType": "address",
          "name": "operator",
          "type": "address"
        },
        {
          "indexed": false,
          "internalType": "bool",
          "name": "approved",
          "type": "bool"
        }
      ],
      "name": "ApprovalForAll",
      "type": "event"
    },
    {
      "constant": true,
      "inputs": [],
      "name": "name",
      "outputs": [
        {
          "internalType": "string",
          "name": "",
          "type": "string"
        }
      ],
      "payable": false,
      "stateMutability": "view",
      "type": "function"
    },
    {
      "constant": true,
      "inputs": [],
      "name": "symbol",
      "outputs": [
        {
          "internalType": "string",
          "name": "",
          "type": "string"
        }
      ],
      "payable": false,
      "stateMutability": "view",
      "type": "function"
    }
  ],
  "bytecode": "0x60806040526002805461ffff60a01b19169055655af3107a40006003553480156200002957600080fd5b5060405162004d6e38038062004d6e8339810160408190526200004c9162000400565b620000807f01ffc9a7000000000000000000000000000000000000000000000000000000006001600160e01b036200019016565b620000b47f80ac58cd000000000000000000000000000000000000000000000000000000006001600160e01b036200019016565b620000c76001600160e01b036200023516565b600180546001600160a01b0319166001600160a01b0392909216919091179055620000f162000235565b600280546001600160a01b0319166001600160a01b0392909216919091179055825162000126906010906020860190620002ef565b5081516200013c906011906020850190620002ef565b50620001717f5b5e139f000000000000000000000000000000000000000000000000000000006001600160e01b036200019016565b62000187816200023a60201b62001f211760201c565b505050620005d4565b7fffffffff000000000000000000000000000000000000000000000000000000008082161415620001f8576040517f08c379a0000000000000000000000000000000000000000000000000000000008152600401620001ef90620004f9565b60405180910390fd5b7fffffffff00000000000000000000000000000000000000000000000000000000166000908152602081905260409020805460ff19166001179055565b335b90565b6001546001600160a01b0316620002596001600160e01b036200023516565b6001600160a01b031614806200029457506002546001600160a01b0316620002896001600160e01b036200023516565b6001600160a01b0316145b620002cd576040517f08c379a0000000000000000000000000000000000000000000000000000000008152600401620001ef906200050b565b600480546001600160a01b0319166001600160a01b0392909216919091179055565b828054600181600116156101000203166002900490600052602060002090601f016020900481019282601f106200033257805160ff191683800117855562000362565b8280016001018555821562000362579182015b828111156200036257825182559160200191906001019062000345565b506200037092915062000374565b5090565b6200023791905b808211156200037057600081556001016200037b565b80516200039e81620005ba565b92915050565b600082601f830112620003b657600080fd5b8151620003cd620003c78262000544565b6200051d565b91508082526020830160208301858383011115620003ea57600080fd5b620003f783828462000587565b50505092915050565b6000806000606084860312156200041657600080fd5b83516001600160401b038111156200042d57600080fd5b6200043b86828701620003a4565b93505060208401516001600160401b038111156200045857600080fd5b6200046686828701620003a4565b9250506040620004798682870162000391565b9150509250925092565b600062000492601c836200056c565b7f4552433136353a20696e76616c696420696e7465726661636520696400000000815260200192915050565b6000620004cd601b836200056c565b7f4552433732313a204f4e4c595f434f4e54524143545f4f574e45520000000000815260200192915050565b602080825281016200039e8162000483565b602080825281016200039e81620004be565b6040518181016001600160401b03811182821017156200053c57600080fd5b604052919050565b60006001600160401b038211156200055b57600080fd5b506020601f91909101601f19160190565b90815260200190565b60006001600160a01b0382166200039e565b60005b83811015620005a45781810151838201526020016200058a565b83811115620005b4576000848401525b50505050565b620005c58162000575565b8114620005d157600080fd5b50565b61478a80620005e46000396000f3fe6080604052600436106102465760003560e01c806363e1a83811610139578063a22cb465116100b6578063c57a88251161007a578063c57a882514610643578063c87b56dd14610663578063e2b375a914610683578063e5c24924146106a3578063e982d5a9146106d8578063e985e9c5146106f857610246565b8063a22cb465146105b9578063a4ede128146105d9578063a930fc73146105f9578063b06e2f9f1461060e578063b88d4fde1461062357610246565b806384017e52116100fd57806384017e521461053c5780638456cb591461055c5780638462151c1461057157806395d89b41146105915780639ce7dca3146105a657610246565b806363e1a838146104a557806370a08231146104b857806373688914146104d85780637affcb9a146104ed5780637b1039991461051a57610246565b80633d857187116101c7578063527097251161018b578063527097251461043157806357550b66146104465780635c975abb1461045b5780635fd8c710146104705780636352211e1461048557610246565b80633d857187146103b65780633f4ba83a146103c957806342842e0e146103de57806342966c68146103fe57806344c140d01461041e57610246565b8063180b9e3f1161020e578063180b9e3f1461031457806318160ddd146103415780631c7029811461035657806323b872dd146103695780632a0c77991461038957610246565b806301ffc9a71461024b57806306fdde0314610281578063081812fc146102a3578063095ea7b3146102d057806313966db5146102f2575b600080fd5b34801561025757600080fd5b5061026b610266366004613698565b610718565b60405161027891906143e1565b60405180910390f35b34801561028d57600080fd5b5061029661073b565b60405161027891906143fd565b3480156102af57600080fd5b506102c36102be366004613896565b6107d2565b60405161027891906142b1565b3480156102dc57600080fd5b506102f06102eb36600461364a565b61081e565b005b3480156102fe57600080fd5b506103076109bb565b60405161027891906145ee565b34801561032057600080fd5b5061033461032f366004613896565b6109c1565b60405161027891906145fc565b34801561034d57600080fd5b506103076109d9565b6103076103643660046136d4565b6109ea565b34801561037557600080fd5b506102f06103843660046134fe565b610b55565b34801561039557600080fd5b506103a96103a43660046134a6565b610d35565b60405161027891906143d0565b6103076103c436600461379f565b610e3d565b3480156103d557600080fd5b506102f0610fb3565b3480156103ea57600080fd5b506102f06103f93660046134fe565b611037565b34801561040a57600080fd5b506102f0610419366004613896565b611052565b61030761042c36600461379f565b61109c565b34801561043d57600080fd5b506102c36111d8565b34801561045257600080fd5b506102f06111e7565b34801561046757600080fd5b5061026b61125b565b34801561047c57600080fd5b506102f061126b565b34801561049157600080fd5b506102c36104a0366004613896565b611347565b6103076104b33660046136d4565b611362565b3480156104c457600080fd5b506103076104d33660046134a6565b611487565b3480156104e457600080fd5b506102c36114d6565b3480156104f957600080fd5b5061050d6105083660046135f4565b6114e5565b60405161027891906143bf565b34801561052657600080fd5b5061052f611687565b60405161027891906143ef565b34801561054857600080fd5b506102f0610557366004613896565b611696565b34801561056857600080fd5b506102f06116fa565b34801561057d57600080fd5b506103a961058c3660046134a6565b611785565b34801561059d57600080fd5b5061029661183f565b6103076105b436600461379f565b6118a0565b3480156105c557600080fd5b506102f06105d43660046135c4565b6119c5565b3480156105e557600080fd5b5061050d6105f43660046134a6565b611b4b565b34801561060557600080fd5b5061026b611cc1565b34801561061a57600080fd5b506102f0611cd1565b34801561062f57600080fd5b506102f061063e36600461354b565b611d3f565b34801561064f57600080fd5b506102f061065e3660046134a6565b611f21565b34801561066f57600080fd5b5061029661067e366004613896565b611fa2565b34801561068f57600080fd5b506102f061069e3660046134a6565b612068565b3480156106af57600080fd5b506106c36106be366004613896565b6120f6565b604051610278999897969594939291906142bf565b3480156106e457600080fd5b506102f06106f33660046134a6565b61233a565b34801561070457600080fd5b5061026b6107133660046134c4565b6123c8565b6001600160e01b0319811660009081526020819052604090205460ff165b919050565b60108054604080516020601f60026000196101006001881615020190951694909404938401819004810282018101909252828152606093909290918301828280156107c75780601f1061079c576101008083540402835291602001916107c7565b820191906000526020600020905b8154815290600101906020018083116107aa57829003601f168201915b505050505090505b90565b60006107dd826123f6565b6108025760405162461bcd60e51b81526004016107f9906144fe565b60405180910390fd5b506000908152600e60205260409020546001600160a01b031690565b6004546001600160a01b0316634039ad0d610837612413565b6040518263ffffffff1660e01b815260040161085391906142b1565b60206040518083038186803b15801561086b57600080fd5b505afa15801561087f573d6000803e3d6000fd5b505050506040513d601f19601f820116820180604052506108a3919081019061367a565b6108bf5760405162461bcd60e51b81526004016107f99061450e565b600254600160a01b900460ff16156108d657600080fd5b60006108e182611347565b9050806001600160a01b0316836001600160a01b031614156109155760405162461bcd60e51b81526004016107f99061453e565b806001600160a01b0316610927612413565b6001600160a01b03161480610943575061094381610713612413565b61095f5760405162461bcd60e51b81526004016107f9906144de565b6000828152600e602052604080822080546001600160a01b0319166001600160a01b0387811691821790925591518593918516917f8c5be1e5ebec7d5bd14f71427d1e84f3dd0314c0f7b2291e5b200ac8c7c3b92591a4505050565b60035481565b60096020526000908152604090205463ffffffff1681565b60006109e56005612417565b905090565b6004546000906001600160a01b031663aa271e1a610a06612413565b6040518263ffffffff1660e01b8152600401610a2291906142b1565b60206040518083038186803b158015610a3a57600080fd5b505afa158015610a4e573d6000803e3d6000fd5b505050506040513d601f19601f82011682018060405250610a72919081019061367a565b610a8e5760405162461bcd60e51b81526004016107f9906145ce565b600254600160a01b900460ff1615610aa557600080fd5b600354341015610ab457600080fd5b60008263ffffffff1611610ada5760405162461bcd60e51b81526004016107f99061451e565b610ae68887878761241b565b610b025760405162461bcd60e51b81526004016107f99061455e565b6000610b14610b0f612413565b612523565b9050610b25818a8a8a8a8a8a61253f565b6000818152600960205260409020805463ffffffff851663ffffffff199091161790559050979650505050505050565b600254600160a01b900460ff1615610b6c57600080fd5b6004805460405163f9ce6eab60e01b81526001600160a01b039091169163f9ce6eab91610b9f9187918791879101614353565b60206040518083038186803b158015610bb757600080fd5b505afa158015610bcb573d6000803e3d6000fd5b505050506040513d601f19601f82011682018060405250610bef919081019061367a565b610c0b5760405162461bcd60e51b81526004016107f99061445e565b610c1c610c16612413565b826127ba565b610c385760405162461bcd60e51b81526004016107f99061454e565b600254600160a81b900460ff16610c7657610c54838383612837565b15610c715760405162461bcd60e51b81526004016107f9906144be565b610d25565b610c81838383612837565b15610d2557600480546040516360c1c90f60e11b81526001600160a01b039091169163c183921e91610cb99187918791879101614353565b60206040518083038186803b158015610cd157600080fd5b505afa158015610ce5573d6000803e3d6000fd5b505050506040513d601f19601f82011682018060405250610d09919081019061367a565b610d255760405162461bcd60e51b81526004016107f9906145de565b610d30838383612a17565b505050565b60606001600160a01b038216610d5d5760405162461bcd60e51b81526004016107f99061443e565b6001600160a01b0382166000908152600860205260408120610d7e90612417565b905080610da05760408051600080825260208201909252905b50915050610736565b606081604051908082528060200260200182016040528015610dcc578160200160208202803883390190505b5090506000610dd96109d9565b9050600060015b828111610e30576000818152600a60205260409020546001600160a01b0388811691161415610e285780848381518110610e1657fe5b60209081029190910101526001909101905b600101610de0565b8395505050505050610736565b6004546000906001600160a01b031663aa271e1a610e59612413565b6040518263ffffffff1660e01b8152600401610e7591906142b1565b60206040518083038186803b158015610e8d57600080fd5b505afa158015610ea1573d6000803e3d6000fd5b505050506040513d601f19601f82011682018060405250610ec5919081019061367a565b610ee15760405162461bcd60e51b81526004016107f9906145ce565b600254600160a01b900460ff1615610ef857600080fd5b600354341015610f0757600080fd5b60008363ffffffff1611610f2d5760405162461bcd60e51b81526004016107f99061451e565b610f398988888861241b565b610f555760405162461bcd60e51b81526004016107f99061455e565b6000610f67610f62612413565b612b1d565b9050610f78818b8b8b8b8b8b61253f565b610f828184612bfc565b6000818152600960205260409020805463ffffffff861663ffffffff19909116179055905098975050505050505050565b6001546001600160a01b0316610fc7612413565b6001600160a01b03161480610ff657506002546001600160a01b0316610feb612413565b6001600160a01b0316145b6110125760405162461bcd60e51b81526004016107f9906144ce565b600254600160a01b900460ff1661102857600080fd5b6002805460ff60a01b19169055565b610d3083838360405180602001604052806000815250611d3f565b600254600160a01b900460ff161561106957600080fd5b611074610c16612413565b6110905760405162461bcd60e51b81526004016107f9906145ae565b61109981612c40565b50565b6004546000906001600160a01b031663aa271e1a6110b8612413565b6040518263ffffffff1660e01b81526004016110d491906142b1565b60206040518083038186803b1580156110ec57600080fd5b505afa158015611100573d6000803e3d6000fd5b505050506040513d601f19601f82011682018060405250611124919081019061367a565b6111405760405162461bcd60e51b81526004016107f9906145ce565b600254600160a01b900460ff161561115757600080fd5b60035434101561116657600080fd5b60008363ffffffff161161118c5760405162461bcd60e51b81526004016107f99061451e565b6111988988888861241b565b6111b45760405162461bcd60e51b81526004016107f99061455e565b60006111c76111c1612413565b84612c52565b9050610f82818b8b8b8b8b8b61253f565b6002546001600160a01b031681565b6001546001600160a01b03166111fb612413565b6001600160a01b0316148061122a57506002546001600160a01b031661121f612413565b6001600160a01b0316145b6112465760405162461bcd60e51b81526004016107f9906144ce565b6002805460ff60a81b1916600160a81b179055565b600254600160a01b900460ff1681565b6001546001600160a01b031661127f612413565b6001600160a01b031614806112ae57506002546001600160a01b03166112a3612413565b6001600160a01b0316145b6112ca5760405162461bcd60e51b81526004016107f9906144ce565b604051303190600090339083906112e0906142a6565b60006040518083038185875af1925050503d806000811461131d576040519150601f19603f3d011682016040523d82523d6000602084013e611322565b606091505b50509050806113435760405162461bcd60e51b81526004016107f99061442e565b5050565b6000908152600660205260409020546001600160a01b031690565b6004546000906001600160a01b031663aa271e1a61137e612413565b6040518263ffffffff1660e01b815260040161139a91906142b1565b60206040518083038186803b1580156113b257600080fd5b505afa1580156113c6573d6000803e3d6000fd5b505050506040513d601f19601f820116820180604052506113ea919081019061367a565b6114065760405162461bcd60e51b81526004016107f9906145ce565b600254600160a01b900460ff161561141d57600080fd5b60035434101561142c57600080fd5b60008263ffffffff16116114525760405162461bcd60e51b81526004016107f99061451e565b61145e8887878761241b565b61147a5760405162461bcd60e51b81526004016107f99061455e565b6000610b14610f62612413565b60006001600160a01b0382166114af5760405162461bcd60e51b81526004016107f99061443e565b6001600160a01b03821660009081526007602052604090206114d090612417565b92915050565b6001546001600160a01b031681565b6001600160a01b0383166000908152600b60205260409081902090516060918291611513908690869061428d565b9081526020016040518091039020805480602002602001604051908101604052809291908181526020016000905b828210156115f857600084815260209081902060408051918501805460026001821615610100026000190190911604601f81018590048502840183018352938301848152929390928492909184918401828280156115e05780601f106115b5576101008083540402835291602001916115e0565b820191906000526020600020905b8154815290600101906020018083116115c357829003601f168201915b50505050508152505081526020019060010190611541565b5050505090506060815160405190808252806020026020018201604052801561163557816020015b60608152602001906001900390816116205790505b50905060005b825181101561167b5782818151811061165057fe5b60200260200101516000015182828151811061166857fe5b602090810291909101015260010161163b565b509150505b9392505050565b6004546001600160a01b031681565b6001546001600160a01b03166116aa612413565b6001600160a01b031614806116d957506002546001600160a01b03166116ce612413565b6001600160a01b0316145b6116f55760405162461bcd60e51b81526004016107f9906144ce565b600355565b6001546001600160a01b031661170e612413565b6001600160a01b0316148061173d57506002546001600160a01b0316611732612413565b6001600160a01b0316145b6117595760405162461bcd60e51b81526004016107f9906144ce565b600254600160a01b900460ff161561177057600080fd5b6002805460ff60a01b1916600160a01b179055565b6060600061179283611487565b9050806117af576040805160008082526020820190925290610d97565b6060816040519080825280602002602001820160405280156117db578160200160208202803883390190505b50905060006117e86109d9565b9050600060015b828111610e30576000818152600660205260409020546001600160a01b0388811691161415611837578084838151811061182557fe5b60209081029190910101526001909101905b6001016117ef565b60118054604080516020601f60026000196101006001881615020190951694909404938401819004810282018101909252828152606093909290918301828280156107c75780601f1061079c576101008083540402835291602001916107c7565b6004546000906001600160a01b031663aa271e1a6118bc612413565b6040518263ffffffff1660e01b81526004016118d891906142b1565b60206040518083038186803b1580156118f057600080fd5b505afa158015611904573d6000803e3d6000fd5b505050506040513d601f19601f82011682018060405250611928919081019061367a565b6119445760405162461bcd60e51b81526004016107f9906145ce565b600254600160a01b900460ff161561195b57600080fd5b60035434101561196a57600080fd5b60008363ffffffff16116119905760405162461bcd60e51b81526004016107f99061451e565b61199c8988888861241b565b6119b85760405162461bcd60e51b81526004016107f99061455e565b6000610f67610b0f612413565b6004546001600160a01b0316634039ad0d6119de612413565b6040518263ffffffff1660e01b81526004016119fa91906142b1565b60206040518083038186803b158015611a1257600080fd5b505afa158015611a26573d6000803e3d6000fd5b505050506040513d601f19601f82011682018060405250611a4a919081019061367a565b611a665760405162461bcd60e51b81526004016107f99061450e565b600254600160a01b900460ff1615611a7d57600080fd5b611a85612413565b6001600160a01b0316826001600160a01b03161415611ab65760405162461bcd60e51b81526004016107f99061447e565b80600f6000611ac3612413565b6001600160a01b03908116825260208083019390935260409182016000908120918716808252919093529120805460ff191692151592909217909155611b07612413565b6001600160a01b03167f17307eab39ab6107e8899845ad3d59bd9653f200f220920489ca2b5937696c3183604051611b3f91906143e1565b60405180910390a35050565b6001600160a01b0381166000908152600c602090815260408083208054825181850281018501909352808352606094859484015b82821015611c3657600084815260209081902060408051918501805460026001821615610100026000190190911604601f8101859004850284018301835293830184815292939092849290918491840182828015611c1e5780601f10611bf357610100808354040283529160200191611c1e565b820191906000526020600020905b815481529060010190602001808311611c0157829003601f168201915b50505050508152505081526020019060010190611b7f565b50505050905060608151604051908082528060200260200182016040528015611c7357816020015b6060815260200190600190039081611c5e5790505b50905060005b8251811015611cb957828181518110611c8e57fe5b602002602001015160000151828281518110611ca657fe5b6020908102919091010152600101611c79565b509392505050565b600254600160a81b900460ff1681565b6001546001600160a01b0316611ce5612413565b6001600160a01b03161480611d1457506002546001600160a01b0316611d09612413565b6001600160a01b0316145b611d305760405162461bcd60e51b81526004016107f9906144ce565b6002805460ff60a81b19169055565b600254600160a01b900460ff1615611d5657600080fd5b6004805460405163f9ce6eab60e01b81526001600160a01b039091169163f9ce6eab91611d899188918891889101614353565b60206040518083038186803b158015611da157600080fd5b505afa158015611db5573d6000803e3d6000fd5b505050506040513d601f19601f82011682018060405250611dd9919081019061367a565b611df55760405162461bcd60e51b81526004016107f99061459e565b611e06611e00612413565b836127ba565b611e225760405162461bcd60e51b81526004016107f99061454e565b600254600160a81b900460ff16611e6057611e3e848484612837565b15611e5b5760405162461bcd60e51b81526004016107f9906144be565b611f0f565b611e6b848484612837565b15611f0f57600480546040516360c1c90f60e11b81526001600160a01b039091169163c183921e91611ea39188918891889101614353565b60206040518083038186803b158015611ebb57600080fd5b505afa158015611ecf573d6000803e3d6000fd5b505050506040513d601f19601f82011682018060405250611ef3919081019061367a565b611f0f5760405162461bcd60e51b81526004016107f9906145de565b611f1b84848484612c89565b50505050565b6001546001600160a01b0316611f35612413565b6001600160a01b03161480611f6457506002546001600160a01b0316611f59612413565b6001600160a01b0316145b611f805760405162461bcd60e51b81526004016107f9906144ce565b600480546001600160a01b0319166001600160a01b0392909216919091179055565b6060611fad826123f6565b611fc95760405162461bcd60e51b81526004016107f9906145be565b6000828152600d602090815260409182902080548351601f60026000196101006001861615020190931692909204918201849004840281018401909452808452909183018282801561205c5780601f106120315761010080835404028352916020019161205c565b820191906000526020600020905b81548152906001019060200180831161203f57829003601f168201915b50505050509050919050565b6001546001600160a01b031661207c612413565b6001600160a01b031614806120ab57506002546001600160a01b03166120a0612413565b6001600160a01b0316145b6120c75760405162461bcd60e51b81526004016107f9906144ce565b6001600160a01b0381161561109957600280546001600160a01b0383166001600160a01b031990911617905550565b600080606080600080600080600061210d8a6123f6565b6121295760405162461bcd60e51b81526004016107f99061440e565b612131613291565b60008b8152600a6020908152604091829020825160e08101845281546001600160a01b03168152600180830180548651600261010094831615949094026000190190911692909204601f81018690048602830186019096528582529194929385810193919291908301828280156121e95780601f106121be576101008083540402835291602001916121e9565b820191906000526020600020905b8154815290600101906020018083116121cc57829003601f168201915b5050509183525050600282810180546040805160206001841615610100026000190190931694909404601f8101839004830285018301909152808452938101939083018282801561227b5780601f106122505761010080835404028352916020019161227b565b820191906000526020600020905b81548152906001019060200180831161225e57829003601f168201915b50505091835250506003919091015465ffffffffffff808216602080850191909152600160301b83048216604080860191909152600160601b84049092166060850152600160901b90920461ffff1660809093019290925260008e815260099091522054815191925063ffffffff16906122f48d611347565b83602001518460400151856060015186608001518760a001518860c00151888696508595509a509a509a509a509a509a509a509a509a5050509193959799909294969850565b6001546001600160a01b031661234e612413565b6001600160a01b0316148061237d57506002546001600160a01b0316612372612413565b6001600160a01b0316145b6123995760405162461bcd60e51b81526004016107f9906144ce565b6001600160a01b0381161561109957600180546001600160a01b0383166001600160a01b031990911617905550565b6001600160a01b039182166000908152600f6020908152604080832093909416825291909152205460ff1690565b6000908152600660205260409020546001600160a01b0316151590565b3390565b5490565b600480546040516323dd3a3d60e11b81526000926001600160a01b03909216916347ba747a9161244d918991016143fd565b60206040518083038186803b15801561246557600080fd5b505afa158015612479573d6000803e3d6000fd5b505050506040513d601f19601f8201168201806040525061249d919081019061367a565b6124b95760405162461bcd60e51b81526004016107f9906144ae565b8165ffffffffffff168465ffffffffffff16116124e85760405162461bcd60e51b81526004016107f99061448e565b8365ffffffffffff168365ffffffffffff16116125175760405162461bcd60e51b81526004016107f99061444e565b5060015b949350505050565b6000806116808360405180602001604052806000815250612c52565b612548876123f6565b6125645760405162461bcd60e51b81526004016107f99061458e565b61256c613291565b6040518060e0016040528061257f612413565b6001600160a01b03908116825260208083018b905260408084018b905265ffffffffffff8a811660608601528981166080860152881660a085015261ffff871660c09094019390935260008c8152600a825292909220835181546001600160a01b03191692169190911781558282015180519394508493919261260a926001850192909101906132ce565b50604082015180516126269160028401916020909101906132ce565b50606082015160039091018054608084015160a085015160c09095015161ffff16600160901b0261ffff60901b1965ffffffffffff968716600160601b0265ffffffffffff60601b19938816600160301b026bffffffffffff000000000000199890971665ffffffffffff199095169490941796909616949094171617929092161790556126b387612cbc565b61271c57600c60006126c3612413565b6001600160a01b031681526020808201929092526040908101600090812082518085019093528a835280546001810180835591835291849020835180519295919093019261271792849291909101906132ce565b505050505b6127268787612de7565b6127b057600b6000612736612413565b6001600160a01b03166001600160a01b0316815260200190815260200160002087604051612764919061429a565b9081526040805191829003602090810183208382019092528883528154600181018084556000938452928290208451805194959491909201926127ab9284929101906132ce565b505050505b5050505050505050565b60006127c5826123f6565b6127e15760405162461bcd60e51b81526004016107f99061449e565b60006127ec83611347565b9050806001600160a01b0316846001600160a01b031614806128275750836001600160a01b031661281c846107d2565b6001600160a01b0316145b8061251b575061251b81856123c8565b6000612841613291565b6000838152600a6020908152604091829020825160e08101845281546001600160a01b03168152600180830180548651600261010094831615949094026000190190911692909204601f81018690048602830186019096528582529194929385810193919291908301828280156128f95780601f106128ce576101008083540402835291602001916128f9565b820191906000526020600020905b8154815290600101906020018083116128dc57829003601f168201915b5050509183525050600282810180546040805160206001841615610100026000190190931694909404601f8101839004830285018301909152808452938101939083018282801561298b5780601f106129605761010080835404028352916020019161298b565b820191906000526020600020905b81548152906001019060200180831161296e57829003601f168201915b50505091835250506003919091015465ffffffffffff8082166020840152600160301b820481166040840152600160601b820416606083015261ffff600160901b9091041660809091015280519091506001600160a01b03868116911614156129f8576000915050611680565b80516001600160a01b0385811691161415612517576000915050611680565b826001600160a01b0316612a2a82611347565b6001600160a01b031614612a505760405162461bcd60e51b81526004016107f99061452e565b6001600160a01b038216612a765760405162461bcd60e51b81526004016107f99061446e565b612a7f81612f2e565b6001600160a01b0383166000908152600760205260409020612aa090612f69565b6001600160a01b0382166000908152600760205260409020612ac190612f80565b60008181526006602052604080822080546001600160a01b0319166001600160a01b0386811691821790925591518493918716917fddf252ad1be2c89b69c2b068fc378daa952ba7f163c4a11628f55a4df523b3ef91a4505050565b60006001600160a01b038216612b455760405162461bcd60e51b81526004016107f9906144ee565b612b4f6005612f80565b6000612b5b6005612417565b600081815260066020908152604080832080546001600160a01b0319166001600160a01b038916908117909155835260079091529020909150612b9d90612f80565b6001600160a01b0383166000908152600860205260409020612bbe90612f80565b60405181906001600160a01b038516906000907fddf252ad1be2c89b69c2b068fc378daa952ba7f163c4a11628f55a4df523b3ef908290a492915050565b612c05826123f6565b612c215760405162461bcd60e51b81526004016107f99061457e565b6000828152600d602090815260409091208251610d30928401906132ce565b611099612c4c82611347565b82612f89565b600080612c5e84612b1d565b9050612c6d60008583866130c8565b6116805760405162461bcd60e51b81526004016107f99061441e565b612c94848484612a17565b612ca0848484846130c8565b611f1b5760405162461bcd60e51b81526004016107f99061441e565b336000908152600c602090815260408083208054825181850281018501909352808352606093859084015b82821015612d9e57600084815260209081902060408051918501805460026001821615610100026000190190911604601f8101859004850284018301835293830184815292939092849290918491840182828015612d865780601f10612d5b57610100808354040283529160200191612d86565b820191906000526020600020905b815481529060010190602001808311612d6957829003601f168201915b50505050508152505081526020019060010190612ce7565b5092935060009250829150505b8251811015611cb957612dd585848381518110612dc457fe5b602002602001015160000151613193565b15612ddf57600191505b600101612dab565b336000908152600b6020526040808220905160609190612e0890869061429a565b9081526020016040518091039020805480602002602001604051908101604052809291908181526020016000905b82821015612eed57600084815260209081902060408051918501805460026001821615610100026000190190911604601f8101859004850284018301835293830184815292939092849290918491840182828015612ed55780601f10612eaa57610100808354040283529160200191612ed5565b820191906000526020600020905b815481529060010190602001808311612eb857829003601f168201915b50505050508152505081526020019060010190612e36565b5092935060009250829150505b8251811015612f2557612f1385848381518110612dc457fe5b15612f1d57600191505b600101612efa565b50949350505050565b6000818152600e60205260409020546001600160a01b031615611099576000908152600e6020526040902080546001600160a01b0319169055565b8054612f7c90600163ffffffff6131ec16565b9055565b80546001019055565b816001600160a01b0316612f9c82611347565b6001600160a01b031614612fc25760405162461bcd60e51b81526004016107f99061456e565b612fcb81612f2e565b6001600160a01b0382166000908152600760205260409020612fec90612f69565b600081815260066020908152604080832080546001600160a01b0319169055600d9091529020546002600019600183161561010002019091160415613042576000818152600d602052604081206130429161334c565b6000818152600a6020526040812080546001600160a01b03191681559061306c600183018261334c565b61307a60028301600061334c565b5060030180546001600160a01b031916905560405181906000906001600160a01b038516907fddf252ad1be2c89b69c2b068fc378daa952ba7f163c4a11628f55a4df523b3ef908390a45050565b60006130dc846001600160a01b031661322e565b6130e85750600161251b565b6000846001600160a01b031663150b7a02613101612413565b8887876040518563ffffffff1660e01b8152600401613123949392919061437b565b602060405180830381600087803b15801561313d57600080fd5b505af1158015613151573d6000803e3d6000fd5b505050506040513d601f19601f8201168201806040525061317591908101906136b6565b6001600160e01b031916630a85bd0160e11b14915050949350505050565b6000816040516020016131a6919061429a565b60405160208183030381529060405280519060200120836040516020016131cd919061429a565b6040516020818303038152906040528051906020012014905092915050565b600061168083836040518060400160405280601e81526020017f536166654d6174683a207375627472616374696f6e206f766572666c6f770000815250613265565b6000813f7fc5d2460186f7233c927e7db2dcc703c0e500b653ca82273b7bfad8045d85a470811580159061251b5750141592915050565b600081848411156132895760405162461bcd60e51b81526004016107f991906143fd565b505050900390565b6040805160e08101825260008082526060602083018190529282018390529181018290526080810182905260a0810182905260c081019190915290565b828054600181600116156101000203166002900490600052602060002090601f016020900481019282601f1061330f57805160ff191683800117855561333c565b8280016001018555821561333c579182015b8281111561333c578251825591602001919060010190613321565b5061334892915061338c565b5090565b50805460018160011615610100020316600290046000825580601f106133725750611099565b601f01602090049060005260206000209081019061109991905b6107cf91905b808211156133485760008155600101613392565b80356114d0816146fd565b80356114d081614711565b80516114d081614711565b80356114d08161471a565b80516114d08161471a565b600082601f8301126133ee57600080fd5b81356134016133fc82614631565b61460a565b9150808252602083016020830185838301111561341d57600080fd5b6134288382846146bb565b50505092915050565b60008083601f84011261344357600080fd5b50813567ffffffffffffffff81111561345b57600080fd5b60208301915083600182028301111561347357600080fd5b9250929050565b80356114d081614723565b80356114d08161472c565b80356114d081614735565b80356114d08161473e565b6000602082840312156134b857600080fd5b600061251b84846133a6565b600080604083850312156134d757600080fd5b60006134e385856133a6565b92505060206134f4858286016133a6565b9150509250929050565b60008060006060848603121561351357600080fd5b600061351f86866133a6565b9350506020613530868287016133a6565b925050604061354186828701613485565b9150509250925092565b6000806000806080858703121561356157600080fd5b600061356d87876133a6565b945050602061357e878288016133a6565b935050604061358f87828801613485565b925050606085013567ffffffffffffffff8111156135ac57600080fd5b6135b8878288016133dd565b91505092959194509250565b600080604083850312156135d757600080fd5b60006135e385856133a6565b92505060206134f4858286016133b1565b60008060006040848603121561360957600080fd5b600061361586866133a6565b935050602084013567ffffffffffffffff81111561363257600080fd5b61363e86828701613431565b92509250509250925092565b6000806040838503121561365d57600080fd5b600061366985856133a6565b92505060206134f485828601613485565b60006020828403121561368c57600080fd5b600061251b84846133bc565b6000602082840312156136aa57600080fd5b600061251b84846133c7565b6000602082840312156136c857600080fd5b600061251b84846133d2565b600080600080600080600060e0888a0312156136ef57600080fd5b873567ffffffffffffffff81111561370657600080fd5b6137128a828b016133dd565b975050602088013567ffffffffffffffff81111561372f57600080fd5b61373b8a828b016133dd565b965050604061374c8a828b0161349b565b955050606061375d8a828b0161349b565b945050608061376e8a828b0161349b565b93505060a061377f8a828b0161347a565b92505060c06137908a828b01613490565b91505092959891949750929550565b600080600080600080600080610100898b0312156137bc57600080fd5b883567ffffffffffffffff8111156137d357600080fd5b6137df8b828c016133dd565b985050602089013567ffffffffffffffff8111156137fc57600080fd5b6138088b828c016133dd565b97505060406138198b828c0161349b565b965050606061382a8b828c0161349b565b955050608061383b8b828c0161349b565b94505060a061384c8b828c0161347a565b93505060c061385d8b828c01613490565b92505060e089013567ffffffffffffffff81111561387a57600080fd5b6138868b828c016133dd565b9150509295985092959890939650565b6000602082840312156138a857600080fd5b600061251b8484613485565b600061168083836139b3565b60006138cc8383614272565b505060200190565b6138dd8161466c565b82525050565b60006138ee8261465f565b6138f88185614663565b93508360208202850161390a85614659565b8060005b85811015613944578484038952815161392785826138b4565b945061393283614659565b60209a909a019992505060010161390e565b5091979650505050505050565b600061395c8261465f565b6139668185614663565b935061397183614659565b8060005b8381101561399f57815161398988826138c0565b975061399483614659565b925050600101613975565b509495945050505050565b6138dd81614677565b60006139be8261465f565b6139c88185614663565b93506139d88185602086016146c7565b6139e1816146f3565b9093019392505050565b6138dd816146b0565b6000613a008385610736565b9350613a0d8385846146bb565b50500190565b6000613a1e8261465f565b613a288185610736565b9350613a388185602086016146c7565b9290920192915050565b6000613a4f601d83614663565b7f4552433732313a204e6f6e2d6578697374656e7420546f6b656e204944000000815260200192915050565b6000613a88603283614663565b7f4552433732313a207472616e7366657220746f206e6f6e20455243373231526581527131b2b4bb32b91034b6b83632b6b2b73a32b960711b602082015260400192915050565b6000613adc600f83614663565b6e15da5d1a191c985dc819985a5b1959608a1b815260200192915050565b6000613b07602583614663565b7f4552433732313a2063616e6e6f7420717565727920746865207a65726f206164815264647265737360d81b602082015260400192915050565b6000613b4e602a83614663565b7f4552433732313a2073746172742074696d65206d757374206265206265666f728152696520656e642074696d6560b01b602082015260400192915050565b6000613b9a601c83614663565b7f4552433732313a20756e6174686f72697a6564207472616e7366657200000000815260200192915050565b6000613bd3602483614663565b7f4552433732313a207472616e7366657220746f20746865207a65726f206164648152637265737360e01b602082015260400192915050565b6000613c19601983614663565b7f4552433732313a20617070726f766520746f2063616c6c657200000000000000815260200192915050565b6000613c52603583614663565b7f4552433732313a2073746172742074696d65206d757374206265206166746572815274206974732061756374696f6e20656e642074696d6560581b602082015260400192915050565b6000613ca9602c83614663565b7f4552433732313a206f70657261746f7220717565727920666f72206e6f6e657881526b34b9ba32b73a103a37b5b2b760a11b602082015260400192915050565b6000613cf7602e83614663565b7f4552433732313a20636f6e74656e74206964206973206e6f742072656769737481526d32b932b2103a379031b0b63632b960911b602082015260400192915050565b6000613d47602f83614663565b7f4552433732313a20746f6b656e20726573616c6520697320726573747269637481526e656420617420746869732074696d6560881b602082015260400192915050565b6000613d98601b83614663565b7f4552433732313a204f4e4c595f434f4e54524143545f4f574e45520000000000815260200192915050565b6000613dd1603e83614663565b7f4552433732313a20617070726f76652063616c6c6572206973206e6f7420746f81527f6b656e206f776e6572206e6f7220617070726f76656420666f7220616c6c0000602082015260400192915050565b6000613e30602083614663565b7f4552433732313a206d696e7420746f20746865207a65726f2061646472657373815260200192915050565b6000613e69602c83614663565b7f4552433732313a20617070726f76656420717565727920666f72206e6f6e657881526b34b9ba32b73a103a37b5b2b760a11b602082015260400192915050565b6000613eb7603483614663565b7f4552433732313a2063616c6c6572206973206e6f7420617574686f72697a656481527320666f72207468652054726164657220726f6c6560601b602082015260400192915050565b6000613f0d601583614663565b741253959053125117d19151115490551253d397d251605a1b815260200192915050565b6000613f3e602983614663565b7f4552433732313a207472616e73666572206f6620746f6b656e2074686174206981526839903737ba1037bbb760b91b602082015260400192915050565b6000613f89601d83614663565b7f4552433732313a20617070726f76616c20697320726564756e64616e74000000815260200192915050565b60006114d0600083610736565b6000613fcf603183614663565b7f4552433732313a207472616e736665722063616c6c6572206973206e6f74206f8152701ddb995c881b9bdc88185c1c1c9bdd9959607a1b602082015260400192915050565b6000614022601183614663565b701253959053125117d512535157d4d313d5607a1b815260200192915050565b600061404f602583614663565b7f4552433732313a206275726e206f6620746f6b656e2074686174206973206e6f8152643a1037bbb760d91b602082015260400192915050565b6000614096602483614663565b7f4552433732313a2055524920736574206f66206e6f6e6578697374656e74207481526337b5b2b760e11b602082015260400192915050565b60006140dc601a83614663565b7f4552433732313a206e6f6e2d6578697374656e7420746f6b656e000000000000815260200192915050565b6000614115601d83614663565b7f4552433732313a20756e617574686f72697a6564207472616e73666572000000815260200192915050565b600061414e602e83614663565b7f4552433732313a2063616c6c6572206973206e6f7420746f6b656e206f776e6581526d1c881b9bdc88185c1c1c9bdd995960921b602082015260400192915050565b600061419e602783614663565b7f4552433732313a2055524920717565727920666f72206e6f6e6578697374656e8152663a103a37b5b2b760c91b602082015260400192915050565b60006141e7603483614663565b7f4552433732313a2063616c6c6572206973206e6f7420617574686f72697a656481527320666f7220746865204d696e74657220726f6c6560601b602082015260400192915050565b600061423d601b83614663565b7f4552433732313a20756e617574686f72697a656420726573616c650000000000815260200192915050565b6138dd81614689565b6138dd816107cf565b6138dd8161469c565b6138dd816146a5565b600061251b8284866139f4565b60006116808284613a13565b60006114d082613fb5565b602081016114d082846138d4565b61012081016142ce828c6138d4565b6142db602083018b6138d4565b81810360408301526142ed818a6139b3565b9050818103606083015261430181896139b3565b90506143106080830188614284565b61431d60a0830187614284565b61432a60c0830186614284565b61433760e0830185614269565b61434561010083018461427b565b9a9950505050505050505050565b6060810161436182866138d4565b61436e60208301856138d4565b61251b6040830184614272565b6080810161438982876138d4565b61439660208301866138d4565b6143a36040830185614272565b81810360608301526143b581846139b3565b9695505050505050565b6020808252810161168081846138e3565b602080825281016116808184613951565b602081016114d082846139aa565b602081016114d082846139eb565b6020808252810161168081846139b3565b602080825281016114d081613a42565b602080825281016114d081613a7b565b602080825281016114d081613acf565b602080825281016114d081613afa565b602080825281016114d081613b41565b602080825281016114d081613b8d565b602080825281016114d081613bc6565b602080825281016114d081613c0c565b602080825281016114d081613c45565b602080825281016114d081613c9c565b602080825281016114d081613cea565b602080825281016114d081613d3a565b602080825281016114d081613d8b565b602080825281016114d081613dc4565b602080825281016114d081613e23565b602080825281016114d081613e5c565b602080825281016114d081613eaa565b602080825281016114d081613f00565b602080825281016114d081613f31565b602080825281016114d081613f7c565b602080825281016114d081613fc2565b602080825281016114d081614015565b602080825281016114d081614042565b602080825281016114d081614089565b602080825281016114d0816140cf565b602080825281016114d081614108565b602080825281016114d081614141565b602080825281016114d081614191565b602080825281016114d0816141da565b602080825281016114d081614230565b602081016114d08284614272565b602081016114d0828461427b565b60405181810167ffffffffffffffff8111828210171561462957600080fd5b604052919050565b600067ffffffffffffffff82111561464857600080fd5b506020601f91909101601f19160190565b60200190565b5190565b90815260200190565b60006114d082614690565b151590565b6001600160e01b03191690565b61ffff1690565b6001600160a01b031690565b63ffffffff1690565b65ffffffffffff1690565b60006114d08261466c565b82818337506000910152565b60005b838110156146e25781810151838201526020016146ca565b83811115611f1b5750506000910152565b601f01601f191690565b6147068161466c565b811461109957600080fd5b61470681614677565b6147068161467c565b61470681614689565b614706816107cf565b6147068161469c565b614706816146a556fea365627a7a7231582031c5f9051b0ed13c10576549825d5dc1f01d4b55204482918eb54a66e3a520ff6c6578706572696d656e74616cf564736f6c634300050b0040",
  "source": "pragma solidity ^0.5.11;\npragma experimental ABIEncoderV2;\n\nimport \"./ERC721.sol\";\n\n/**\n * Customized for Microsponsors\n * from Open Zeppelin's ERC721Metadata contract, which is MIT Licensed:\n * https://github.com/OpenZeppelin/openzeppelin-contracts/blob/master/contracts/token/ERC721/ERC721Metadata.sol\n\n\n  Copyright 2020 Niche Networks, Inc. (owns & operates Microsponsors.io)\n\n  Licensed under the Apache License, Version 2.0 (the \"License\");\n  you may not use this file except in compliance with the License.\n  You may obtain a copy of the License at\n\n    http://www.apache.org/licenses/LICENSE-2.0\n\n  Unless required by applicable law or agreed to in writing, software\n  distributed under the License is distributed on an \"AS IS\" BASIS,\n  WITHOUT WARRANTIES OR CONDITIONS OF ANY KIND, either express or implied.\n  See the License for the specific language governing permissions and\n  limitations under the License.\n\n*/\n\ncontract Microsponsors is ERC721 {\n\n    // Token name\n    string private _name;\n\n    // Token symbol\n    string private _symbol;\n\n\n    /*\n     *     bytes4(keccak256('name()')) == 0x06fdde03\n     *     bytes4(keccak256('symbol()')) == 0x95d89b41\n     *     bytes4(keccak256('tokenURI(uint256)')) == 0xc87b56dd\n     *\n     *     => 0x06fdde03 ^ 0x95d89b41 ^ 0xc87b56dd == 0x5b5e139f\n     */\n    bytes4 private constant _INTERFACE_ID_ERC721_METADATA = 0x5b5e139f;\n\n    /**\n     * @dev Constructor function\n     */\n    constructor (string memory name, string memory symbol, address registryAddress) public {\n\n        _name = name;\n        _symbol = symbol;\n\n        // register the supported interfaces to conform to ERC721 via ERC165\n        _registerInterface(_INTERFACE_ID_ERC721_METADATA);\n\n        super.updateRegistryAddress(registryAddress);\n\n    }\n\n    /**\n     * @dev Gets the token name.\n     * @return string representing the token name\n     */\n    function name() external view returns (string memory) {\n        return _name;\n    }\n\n    /**\n     * @dev Gets the token symbol.\n     * @return string representing the token symbol\n     */\n    function symbol() external view returns (string memory) {\n        return _symbol;\n    }\n\n}\n",
  "sourcePath": "/Users/lauren/github/erc-721/contracts/Microsponsors.sol",
  "compiler": {
    "name": "solc",
    "version": "0.5.11+commit.c082d0b4.Emscripten.clang"
  },
  "schemaVersion": "3.0.10",
  "updatedAt": "2020-01-03T02:22:35.778Z",
  "devdoc": {
    "methods": {
      "approve(address,uint256)": {
        "details": "Approves another address to transfer the given token ID The zero address indicates there is no approved address. There can only be one approved address per token at a given time. Can only be called by the token owner or an approved operator.",
        "params": {
          "to": "address to be approved for the given token ID",
          "tokenId": "uint256 ID of the token to be approved"
        }
      },
      "balanceOf(address)": {
        "details": "Gets the balance of the specified address.",
        "params": {
          "tokenOwner": "address to query the balance of"
        },
        "return": "uint256 representing the amount owned by the passed address"
      },
      "burn(uint256)": {
        "details": "Customized for MicrosponsorsBurns a specific ERC721 token.",
        "params": {
          "tokenId": "uint256 id of the ERC721 token to be burned"
        }
      },
      "constructor": {
        "details": "Constructor function"
      },
      "disableGlobalResale()": {
        "details": "Called by contract owner to disable token tranfer (resale) by buyer."
      },
      "enableGlobalResale()": {
        "details": "Called by contract owner to enable token transfer (resale) by buyer."
      },
      "getApproved(uint256)": {
        "details": "Gets the approved address for a token ID, or zero if no address set Reverts if the token ID does not exist.",
        "params": {
          "tokenId": "uint256 ID of the token to query the approval of"
        },
        "return": "address currently approved for the given token ID"
      },
      "isApprovedForAll(address,address)": {
        "details": "Tells whether an operator is approved by a given token owner.",
        "params": {
          "operator": "operator address which you want to query the approval of",
          "tokenOwner": "token owner address which you want to query the approval of"
        },
        "return": "bool whether the given operator is approved by the token owner"
      },
      "mint(string,string,uint48,uint48,uint48,uint16,uint32)": {
        "details": "Function to mint tokens.",
        "return": "tokenId"
      },
      "mintWithTokenURI(string,string,uint48,uint48,uint48,uint16,uint32,string)": {
        "details": "Function to mint tokens.",
        "params": {
          "tokenURI": "The token URI of the minted token."
        },
        "return": "tokenId"
      },
      "name()": {
        "details": "Gets the token name.",
        "return": "string representing the token name"
      },
      "ownerOf(uint256)": {
        "details": "Gets the owner of the specified token ID.",
        "params": {
          "tokenId": "uint256 ID of the token to query the owner of"
        },
        "return": "address currently marked as the owner of the given token ID"
      },
      "pause()": {
        "details": "Called by contract owner to pause minting and transfers."
      },
      "safeMint(string,string,uint48,uint48,uint48,uint16,uint32)": {
        "details": "Function to safely mint tokens.",
        "return": "tokenId"
      },
      "safeMint(string,string,uint48,uint48,uint48,uint16,uint32,bytes)": {
        "details": "Function to safely mint tokens.",
        "params": {
          "data": "bytes data to send along with a safe transfer check."
        },
        "return": "tokenId"
      },
      "safeMintWithTokenURI(string,string,uint48,uint48,uint48,uint16,uint32,string)": {
        "params": {
          "tokenURI": "The token URI of the minted token."
        },
        "return": "tokenId"
      },
      "safeTransferFrom(address,address,uint256)": {
        "details": "Safely transfers the ownership of a given token ID to another address If the target address is a contract, it must implement {IERC721Receiver-onERC721Received}, which is called upon a safe transfer, and return the magic value `bytes4(keccak256(\"onERC721Received(address,address,uint256,bytes)\"))`; otherwise, the transfer is reverted. Requires the msg.sender to be the owner, approved, or operator",
        "params": {
          "from": "current owner of the token",
          "to": "address to receive the ownership of the given token ID",
          "tokenId": "uint256 ID of the token to be transferred"
        }
      },
      "safeTransferFrom(address,address,uint256,bytes)": {
        "details": "Safely transfers the ownership of a given token ID to another address If the target address is a contract, it must implement {IERC721Receiver-onERC721Received}, which is called upon a safe transfer, and return the magic value `bytes4(keccak256(\"onERC721Received(address,address,uint256,bytes)\"))`; otherwise, the transfer is reverted. Requires the _msgSender() to be the owner, approved, or operator",
        "params": {
          "data": "bytes data to send along with a safe transfer check",
          "from": "current owner of the token",
          "to": "address to receive the ownership of the given token ID",
          "tokenId": "uint256 ID of the token to be transferred"
        }
      },
      "setApprovalForAll(address,bool)": {
        "details": "Sets or unsets the approval of a given operator An operator is allowed to transfer all tokens of the sender on their behalf.",
        "params": {
          "approved": "representing the status of the approval to be set",
          "to": "operator address to set the approval"
        }
      },
      "supportsInterface(bytes4)": {
        "details": "See {IERC165-supportsInterface}.     * Time complexity O(1), guaranteed to always use less than 30 000 gas."
      },
      "symbol()": {
        "details": "Gets the token symbol.",
        "return": "string representing the token symbol"
      },
      "tokenMinterContentIds(address)": {
        "details": "Look up all Content IDs a Minter has tokenized TimeSlots for.      We're not getting this from the Registry because we want to keep      a separate record here of all Content ID's the acct has *ever*      minted tokens for. The registry is for keeping track of their      current (not necessarily past) Content ID registrations."
      },
      "tokenMinterPropertyNames(address,string)": {
        "details": "Look up all Property Names a Minter has created Time Slots for      with a particular Content ID"
      },
      "tokenURI(uint256)": {
        "params": {
          "tokenId": "uint256 ID of the token to query"
        },
        "return": "URI for a given token ID."
      },
      "tokensMintedBy(address)": {
        "details": "This method MUST NEVER be called by smart contract code. First, it's fairly expensive (it walks the entire _tokenIds array looking for tokens belonging to minter), but it also returns a dynamic array, which is only supported for web3 calls, and not contract-to-contract calls (at this time)."
      },
      "tokensOfOwner(address)": {
        "details": "This method MUST NEVER be called by smart contract code. First, it's fairly expensive (it walks the entire _tokenIds array looking for tokens belonging to owner), but it also returns a dynamic array, which is only supported for web3 calls, and not contract-to-contract calls (at this time).",
        "params": {
          "tokenOwner": "The owner whose tokens we are interested in."
        }
      },
      "totalSupply()": {
        "details": "Gets the total number of tokens ever minted."
      },
      "transferFrom(address,address,uint256)": {
        "details": "Transfers the ownership of a given token ID to another address. Usage of this method is discouraged, use {safeTransferFrom} whenever possible. Requires the msg.sender to be the owner, approved, or operator.",
        "params": {
          "from": "current owner of the token",
          "to": "address to receive the ownership of the given token ID",
          "tokenId": "uint256 ID of the token to be transferred"
        }
      },
      "transferOwnership1(address)": {
        "details": "Transfer owner (admin) functions to another address",
        "params": {
          "newOwner": "Address of new owner/ admin of contract"
        }
      },
      "unpause()": {
        "details": "Called by contract owner to unpause minting and transfers."
      },
      "updateMintFee(uint256)": {
        "details": "Update the fee (in wei) charged for minting a single token"
      },
      "updateRegistryAddress(address)": {
        "details": "Update contract address for Microsponsors Registry contract",
        "params": {
          "newAddress": "where the Registry contract lives"
        }
      },
      "withdrawBalance()": {
        "details": "Admin withdraws entire balance from contract."
      }
    }
  },
  "userdoc": {
    "methods": {
      "tokenURI(uint256)": {
        "notice": "Throws if the token ID does not exist. May return an empty string."
      },
      "tokensMintedBy(address)": {
        "notice": "Return all the Token IDs minted by a given account."
      }
    },
    "notice": "Customized for Microsponsors from Open Zeppelin's ERC721Metadata contract, which is MIT Licensed: https://github.com/OpenZeppelin/openzeppelin-contracts/blob/master/contracts/token/ERC721/ERC721Metadata.sol Copyright 2020 Niche Networks, Inc. (owns & operates Microsponsors.io) Licensed under the Apache License, Version 2.0 (the \"License\"); you may not use this file except in compliance with the License. You may obtain a copy of the License at http://www.apache.org/licenses/LICENSE-2.0 Unless required by applicable law or agreed to in writing, software distributed under the License is distributed on an \"AS IS\" BASIS, WITHOUT WARRANTIES OR CONDITIONS OF ANY KIND, either express or implied. See the License for the specific language governing permissions and limitations under the License."
  }
}