{
  "contractName": "Microsponsors",
  "abi": [
    {
      "constant": true,
      "inputs": [
        {
          "internalType": "bytes4",
          "name": "interfaceId",
          "type": "bytes4"
        }
      ],
      "name": "supportsInterface",
      "outputs": [
        {
          "internalType": "bool",
          "name": "",
          "type": "bool"
        }
      ],
      "payable": false,
      "stateMutability": "view",
      "type": "function"
    },
    {
      "constant": true,
      "inputs": [
        {
          "internalType": "uint256",
          "name": "tokenId",
          "type": "uint256"
        }
      ],
      "name": "getApproved",
      "outputs": [
        {
          "internalType": "address",
          "name": "",
          "type": "address"
        }
      ],
      "payable": false,
      "stateMutability": "view",
      "type": "function"
    },
    {
      "constant": false,
      "inputs": [
        {
          "internalType": "address",
          "name": "to",
          "type": "address"
        },
        {
          "internalType": "uint256",
          "name": "tokenId",
          "type": "uint256"
        }
      ],
      "name": "approve",
      "outputs": [],
      "payable": false,
      "stateMutability": "nonpayable",
      "type": "function"
    },
    {
      "constant": true,
      "inputs": [],
      "name": "mintFee",
      "outputs": [
        {
          "internalType": "uint256",
          "name": "",
          "type": "uint256"
        }
      ],
      "payable": false,
      "stateMutability": "view",
      "type": "function"
    },
    {
      "constant": true,
      "inputs": [
        {
          "internalType": "uint256",
          "name": "",
          "type": "uint256"
        }
      ],
      "name": "tokenToFederationId",
      "outputs": [
        {
          "internalType": "uint32",
          "name": "",
          "type": "uint32"
        }
      ],
      "payable": false,
      "stateMutability": "view",
      "type": "function"
    },
    {
      "constant": true,
      "inputs": [],
      "name": "totalSupply",
      "outputs": [
        {
          "internalType": "uint256",
          "name": "",
          "type": "uint256"
        }
      ],
      "payable": false,
      "stateMutability": "view",
      "type": "function"
    },
    {
      "constant": false,
      "inputs": [
        {
          "internalType": "address",
          "name": "from",
          "type": "address"
        },
        {
          "internalType": "address",
          "name": "to",
          "type": "address"
        },
        {
          "internalType": "uint256",
          "name": "tokenId",
          "type": "uint256"
        }
      ],
      "name": "transferFrom",
      "outputs": [],
      "payable": false,
      "stateMutability": "nonpayable",
      "type": "function"
    },
    {
      "constant": false,
      "inputs": [
        {
          "internalType": "string",
          "name": "contentId",
          "type": "string"
        },
        {
          "internalType": "string",
          "name": "propertyName",
          "type": "string"
        },
        {
          "internalType": "uint48",
          "name": "startTime",
          "type": "uint48"
        },
        {
          "internalType": "uint48",
          "name": "endTime",
          "type": "uint48"
        },
        {
          "internalType": "uint48",
          "name": "auctionEndTime",
          "type": "uint48"
        },
        {
          "internalType": "uint16",
          "name": "category",
          "type": "uint16"
        },
        {
          "internalType": "bool",
          "name": "isSecondaryTradingEnabled",
          "type": "bool"
        },
        {
          "internalType": "uint32",
          "name": "federationId",
          "type": "uint32"
        },
        {
          "internalType": "string",
          "name": "tokenURI",
          "type": "string"
        }
      ],
      "name": "safeMintWithTokenURI",
      "outputs": [
        {
          "internalType": "uint256",
          "name": "",
          "type": "uint256"
        }
      ],
      "payable": true,
      "stateMutability": "payable",
      "type": "function"
    },
    {
      "constant": true,
      "inputs": [
        {
          "internalType": "address",
          "name": "minter",
          "type": "address"
        }
      ],
      "name": "tokensMintedBy",
      "outputs": [
        {
          "internalType": "uint256[]",
          "name": "",
          "type": "uint256[]"
        }
      ],
      "payable": false,
      "stateMutability": "view",
      "type": "function"
    },
    {
      "constant": false,
      "inputs": [
        {
          "internalType": "string",
          "name": "contentId",
          "type": "string"
        },
        {
          "internalType": "string",
          "name": "propertyName",
          "type": "string"
        },
        {
          "internalType": "uint48",
          "name": "startTime",
          "type": "uint48"
        },
        {
          "internalType": "uint48",
          "name": "endTime",
          "type": "uint48"
        },
        {
          "internalType": "uint48",
          "name": "auctionEndTime",
          "type": "uint48"
        },
        {
          "internalType": "uint16",
          "name": "category",
          "type": "uint16"
        },
        {
          "internalType": "bool",
          "name": "isSecondaryTradingEnabled",
          "type": "bool"
        },
        {
          "internalType": "uint32",
          "name": "federationId",
          "type": "uint32"
        }
      ],
      "name": "safeMint",
      "outputs": [
        {
          "internalType": "uint256",
          "name": "",
          "type": "uint256"
        }
      ],
      "payable": true,
      "stateMutability": "payable",
      "type": "function"
    },
    {
      "constant": false,
      "inputs": [],
      "name": "unpause",
      "outputs": [],
      "payable": false,
      "stateMutability": "nonpayable",
      "type": "function"
    },
    {
      "constant": false,
      "inputs": [
        {
          "internalType": "address",
          "name": "from",
          "type": "address"
        },
        {
          "internalType": "address",
          "name": "to",
          "type": "address"
        },
        {
          "internalType": "uint256",
          "name": "tokenId",
          "type": "uint256"
        }
      ],
      "name": "safeTransferFrom",
      "outputs": [],
      "payable": false,
      "stateMutability": "nonpayable",
      "type": "function"
    },
    {
      "constant": false,
      "inputs": [
        {
          "internalType": "uint256",
          "name": "tokenId",
          "type": "uint256"
        }
      ],
      "name": "burn",
      "outputs": [],
      "payable": false,
      "stateMutability": "nonpayable",
      "type": "function"
    },
    {
      "constant": true,
      "inputs": [],
      "name": "owner2",
      "outputs": [
        {
          "internalType": "address",
          "name": "",
          "type": "address"
        }
      ],
      "payable": false,
      "stateMutability": "view",
      "type": "function"
    },
    {
      "constant": true,
      "inputs": [],
      "name": "paused",
      "outputs": [
        {
          "internalType": "bool",
          "name": "",
          "type": "bool"
        }
      ],
      "payable": false,
      "stateMutability": "view",
      "type": "function"
    },
    {
      "constant": false,
      "inputs": [],
      "name": "withdrawBalance",
      "outputs": [],
      "payable": false,
      "stateMutability": "nonpayable",
      "type": "function"
    },
    {
      "constant": true,
      "inputs": [
        {
          "internalType": "uint256",
          "name": "tokenId",
          "type": "uint256"
        }
      ],
      "name": "ownerOf",
      "outputs": [
        {
          "internalType": "address",
          "name": "",
          "type": "address"
        }
      ],
      "payable": false,
      "stateMutability": "view",
      "type": "function"
    },
    {
      "constant": true,
      "inputs": [
        {
          "internalType": "address",
          "name": "tokenOwner",
          "type": "address"
        }
      ],
      "name": "balanceOf",
      "outputs": [
        {
          "internalType": "uint256",
          "name": "",
          "type": "uint256"
        }
      ],
      "payable": false,
      "stateMutability": "view",
      "type": "function"
    },
    {
      "constant": true,
      "inputs": [],
      "name": "owner1",
      "outputs": [
        {
          "internalType": "address",
          "name": "",
          "type": "address"
        }
      ],
      "payable": false,
      "stateMutability": "view",
      "type": "function"
    },
    {
      "constant": true,
      "inputs": [
        {
          "internalType": "address",
          "name": "minter",
          "type": "address"
        },
        {
          "internalType": "string",
          "name": "contentId",
          "type": "string"
        }
      ],
      "name": "tokenMinterPropertyNames",
      "outputs": [
        {
          "internalType": "string[]",
          "name": "",
          "type": "string[]"
        }
      ],
      "payable": false,
      "stateMutability": "view",
      "type": "function"
    },
    {
      "constant": true,
      "inputs": [],
      "name": "registry",
      "outputs": [
        {
          "internalType": "contract DeployedRegistry",
          "name": "",
          "type": "address"
        }
      ],
      "payable": false,
      "stateMutability": "view",
      "type": "function"
    },
    {
      "constant": false,
      "inputs": [
        {
          "internalType": "uint256",
          "name": "val",
          "type": "uint256"
        }
      ],
      "name": "updateMintFee",
      "outputs": [],
      "payable": false,
      "stateMutability": "nonpayable",
      "type": "function"
    },
    {
      "constant": false,
      "inputs": [],
      "name": "pause",
      "outputs": [],
      "payable": false,
      "stateMutability": "nonpayable",
      "type": "function"
    },
    {
      "constant": true,
      "inputs": [
        {
          "internalType": "address",
          "name": "tokenOwner",
          "type": "address"
        }
      ],
      "name": "tokensOfOwner",
      "outputs": [
        {
          "internalType": "uint256[]",
          "name": "",
          "type": "uint256[]"
        }
      ],
      "payable": false,
      "stateMutability": "view",
      "type": "function"
    },
    {
      "constant": false,
      "inputs": [
        {
          "internalType": "address",
          "name": "to",
          "type": "address"
        },
        {
          "internalType": "bool",
          "name": "approved",
          "type": "bool"
        }
      ],
      "name": "setApprovalForAll",
      "outputs": [],
      "payable": false,
      "stateMutability": "nonpayable",
      "type": "function"
    },
    {
      "constant": true,
      "inputs": [
        {
          "internalType": "address",
          "name": "minter",
          "type": "address"
        }
      ],
      "name": "tokenMinterContentIds",
      "outputs": [
        {
          "internalType": "string[]",
          "name": "",
          "type": "string[]"
        }
      ],
      "payable": false,
      "stateMutability": "view",
      "type": "function"
    },
    {
      "constant": false,
      "inputs": [
        {
          "internalType": "address",
          "name": "from",
          "type": "address"
        },
        {
          "internalType": "address",
          "name": "to",
          "type": "address"
        },
        {
          "internalType": "uint256",
          "name": "tokenId",
          "type": "uint256"
        },
        {
          "internalType": "bytes",
          "name": "data",
          "type": "bytes"
        }
      ],
      "name": "safeTransferFrom",
      "outputs": [],
      "payable": false,
      "stateMutability": "nonpayable",
      "type": "function"
    },
    {
      "constant": false,
      "inputs": [
        {
          "internalType": "string",
          "name": "contentId",
          "type": "string"
        },
        {
          "internalType": "string",
          "name": "propertyName",
          "type": "string"
        },
        {
          "internalType": "uint48",
          "name": "startTime",
          "type": "uint48"
        },
        {
          "internalType": "uint48",
          "name": "endTime",
          "type": "uint48"
        },
        {
          "internalType": "uint48",
          "name": "auctionEndTime",
          "type": "uint48"
        },
        {
          "internalType": "uint16",
          "name": "category",
          "type": "uint16"
        },
        {
          "internalType": "bool",
          "name": "isSecondaryTradingEnabled",
          "type": "bool"
        },
        {
          "internalType": "uint32",
          "name": "federationId",
          "type": "uint32"
        },
        {
          "internalType": "string",
          "name": "tokenURI",
          "type": "string"
        }
      ],
      "name": "mintWithTokenURI",
      "outputs": [
        {
          "internalType": "uint256",
          "name": "",
          "type": "uint256"
        }
      ],
      "payable": true,
      "stateMutability": "payable",
      "type": "function"
    },
    {
      "constant": false,
      "inputs": [
        {
          "internalType": "address",
          "name": "newAddress",
          "type": "address"
        }
      ],
      "name": "updateRegistryAddress",
      "outputs": [],
      "payable": false,
      "stateMutability": "nonpayable",
      "type": "function"
    },
    {
      "constant": true,
      "inputs": [
        {
          "internalType": "uint256",
          "name": "tokenId",
          "type": "uint256"
        }
      ],
      "name": "tokenURI",
      "outputs": [
        {
          "internalType": "string",
          "name": "",
          "type": "string"
        }
      ],
      "payable": false,
      "stateMutability": "view",
      "type": "function"
    },
    {
      "constant": false,
      "inputs": [
        {
          "internalType": "address",
          "name": "newOwner",
          "type": "address"
        }
      ],
      "name": "transferOwnership2",
      "outputs": [],
      "payable": false,
      "stateMutability": "nonpayable",
      "type": "function"
    },
    {
      "constant": true,
      "inputs": [
        {
          "internalType": "uint256",
          "name": "tokenId",
          "type": "uint256"
        }
      ],
      "name": "tokenTimeSlot",
      "outputs": [
        {
          "internalType": "address",
          "name": "minter",
          "type": "address"
        },
        {
          "internalType": "address",
          "name": "owner",
          "type": "address"
        },
        {
          "internalType": "string",
          "name": "contentId",
          "type": "string"
        },
        {
          "internalType": "string",
          "name": "propertyName",
          "type": "string"
        },
        {
          "internalType": "uint48",
          "name": "startTime",
          "type": "uint48"
        },
        {
          "internalType": "uint48",
          "name": "endTime",
          "type": "uint48"
        },
        {
          "internalType": "uint48",
          "name": "auctionEndTime",
          "type": "uint48"
        },
        {
          "internalType": "uint16",
          "name": "category",
          "type": "uint16"
        },
        {
          "internalType": "bool",
          "name": "isSecondaryTradingEnabled",
          "type": "bool"
        },
        {
          "internalType": "uint32",
          "name": "federationId",
          "type": "uint32"
        }
      ],
      "payable": false,
      "stateMutability": "view",
      "type": "function"
    },
    {
      "constant": false,
      "inputs": [
        {
          "internalType": "address",
          "name": "newOwner",
          "type": "address"
        }
      ],
      "name": "transferOwnership1",
      "outputs": [],
      "payable": false,
      "stateMutability": "nonpayable",
      "type": "function"
    },
    {
      "constant": true,
      "inputs": [
        {
          "internalType": "address",
          "name": "tokenOwner",
          "type": "address"
        },
        {
          "internalType": "address",
          "name": "operator",
          "type": "address"
        }
      ],
      "name": "isApprovedForAll",
      "outputs": [
        {
          "internalType": "bool",
          "name": "",
          "type": "bool"
        }
      ],
      "payable": false,
      "stateMutability": "view",
      "type": "function"
    },
    {
      "constant": false,
      "inputs": [
        {
          "internalType": "string",
          "name": "contentId",
          "type": "string"
        },
        {
          "internalType": "string",
          "name": "propertyName",
          "type": "string"
        },
        {
          "internalType": "uint48",
          "name": "startTime",
          "type": "uint48"
        },
        {
          "internalType": "uint48",
          "name": "endTime",
          "type": "uint48"
        },
        {
          "internalType": "uint48",
          "name": "auctionEndTime",
          "type": "uint48"
        },
        {
          "internalType": "uint16",
          "name": "category",
          "type": "uint16"
        },
        {
          "internalType": "bool",
          "name": "isSecondaryTradingEnabled",
          "type": "bool"
        },
        {
          "internalType": "uint32",
          "name": "federationId",
          "type": "uint32"
        }
      ],
      "name": "mint",
      "outputs": [
        {
          "internalType": "uint256",
          "name": "",
          "type": "uint256"
        }
      ],
      "payable": true,
      "stateMutability": "payable",
      "type": "function"
    },
    {
      "constant": false,
      "inputs": [
        {
          "internalType": "string",
          "name": "contentId",
          "type": "string"
        },
        {
          "internalType": "string",
          "name": "propertyName",
          "type": "string"
        },
        {
          "internalType": "uint48",
          "name": "startTime",
          "type": "uint48"
        },
        {
          "internalType": "uint48",
          "name": "endTime",
          "type": "uint48"
        },
        {
          "internalType": "uint48",
          "name": "auctionEndTime",
          "type": "uint48"
        },
        {
          "internalType": "uint16",
          "name": "category",
          "type": "uint16"
        },
        {
          "internalType": "bool",
          "name": "isSecondaryTradingEnabled",
          "type": "bool"
        },
        {
          "internalType": "uint32",
          "name": "federationId",
          "type": "uint32"
        },
        {
          "internalType": "bytes",
          "name": "data",
          "type": "bytes"
        }
      ],
      "name": "safeMint",
      "outputs": [
        {
          "internalType": "uint256",
          "name": "",
          "type": "uint256"
        }
      ],
      "payable": true,
      "stateMutability": "payable",
      "type": "function"
    },
    {
      "inputs": [
        {
          "internalType": "string",
          "name": "name",
          "type": "string"
        },
        {
          "internalType": "string",
          "name": "symbol",
          "type": "string"
        },
        {
          "internalType": "address",
          "name": "registryAddress",
          "type": "address"
        }
      ],
      "payable": false,
      "stateMutability": "nonpayable",
      "type": "constructor"
    },
    {
      "anonymous": false,
      "inputs": [
        {
          "indexed": true,
          "internalType": "address",
          "name": "from",
          "type": "address"
        },
        {
          "indexed": true,
          "internalType": "address",
          "name": "to",
          "type": "address"
        },
        {
          "indexed": true,
          "internalType": "uint256",
          "name": "tokenId",
          "type": "uint256"
        }
      ],
      "name": "Transfer",
      "type": "event"
    },
    {
      "anonymous": false,
      "inputs": [
        {
          "indexed": true,
          "internalType": "address",
          "name": "tokenOwner",
          "type": "address"
        },
        {
          "indexed": true,
          "internalType": "address",
          "name": "approved",
          "type": "address"
        },
        {
          "indexed": true,
          "internalType": "uint256",
          "name": "tokenId",
          "type": "uint256"
        }
      ],
      "name": "Approval",
      "type": "event"
    },
    {
      "anonymous": false,
      "inputs": [
        {
          "indexed": true,
          "internalType": "address",
          "name": "tokenOwner",
          "type": "address"
        },
        {
          "indexed": true,
          "internalType": "address",
          "name": "operator",
          "type": "address"
        },
        {
          "indexed": false,
          "internalType": "bool",
          "name": "approved",
          "type": "bool"
        }
      ],
      "name": "ApprovalForAll",
      "type": "event"
    },
    {
      "constant": true,
      "inputs": [],
      "name": "name",
      "outputs": [
        {
          "internalType": "string",
          "name": "",
          "type": "string"
        }
      ],
      "payable": false,
      "stateMutability": "view",
      "type": "function"
    },
    {
      "constant": true,
      "inputs": [],
      "name": "symbol",
      "outputs": [
        {
          "internalType": "string",
          "name": "",
          "type": "string"
        }
      ],
      "payable": false,
      "stateMutability": "view",
      "type": "function"
    }
  ],
  "bytecode": "0x60806040526002805460ff60a01b19169055655af3107a40006003553480156200002857600080fd5b5060405162004663380380620046638339810160408190526200004b91620003ff565b6200007f7f01ffc9a7000000000000000000000000000000000000000000000000000000006001600160e01b036200018f16565b620000b37f80ac58cd000000000000000000000000000000000000000000000000000000006001600160e01b036200018f16565b620000c66001600160e01b036200023416565b600180546001600160a01b0319166001600160a01b0392909216919091179055620000f062000234565b600280546001600160a01b0319166001600160a01b0392909216919091179055825162000125906010906020860190620002ee565b5081516200013b906011906020850190620002ee565b50620001707f5b5e139f000000000000000000000000000000000000000000000000000000006001600160e01b036200018f16565b62000186816200023960201b62001a711760201c565b505050620005d3565b7fffffffff000000000000000000000000000000000000000000000000000000008082161415620001f7576040517f08c379a0000000000000000000000000000000000000000000000000000000008152600401620001ee90620004f8565b60405180910390fd5b7fffffffff00000000000000000000000000000000000000000000000000000000166000908152602081905260409020805460ff19166001179055565b335b90565b6001546001600160a01b0316620002586001600160e01b036200023416565b6001600160a01b031614806200029357506002546001600160a01b0316620002886001600160e01b036200023416565b6001600160a01b0316145b620002cc576040517f08c379a0000000000000000000000000000000000000000000000000000000008152600401620001ee906200050a565b600480546001600160a01b0319166001600160a01b0392909216919091179055565b828054600181600116156101000203166002900490600052602060002090601f016020900481019282601f106200033157805160ff191683800117855562000361565b8280016001018555821562000361579182015b828111156200036157825182559160200191906001019062000344565b506200036f92915062000373565b5090565b6200023691905b808211156200036f57600081556001016200037a565b80516200039d81620005b9565b92915050565b600082601f830112620003b557600080fd5b8151620003cc620003c68262000543565b6200051c565b91508082526020830160208301858383011115620003e957600080fd5b620003f683828462000586565b50505092915050565b6000806000606084860312156200041557600080fd5b83516001600160401b038111156200042c57600080fd5b6200043a86828701620003a3565b93505060208401516001600160401b038111156200045757600080fd5b6200046586828701620003a3565b9250506040620004788682870162000390565b9150509250925092565b600062000491601c836200056b565b7f4552433136353a20696e76616c696420696e7465726661636520696400000000815260200192915050565b6000620004cc6013836200056b565b7f4f4e4c595f434f4e54524143545f4f574e455200000000000000000000000000815260200192915050565b602080825281016200039d8162000482565b602080825281016200039d81620004bd565b6040518181016001600160401b03811182821017156200053b57600080fd5b604052919050565b60006001600160401b038211156200055a57600080fd5b506020601f91909101601f19160190565b90815260200190565b60006001600160a01b0382166200039d565b60005b83811015620005a357818101518382015260200162000589565b83811115620005b3576000848401525b50505050565b620005c48162000574565b8114620005d057600080fd5b50565b61408080620005e36000396000f3fe6080604052600436106102255760003560e01c80637368891411610123578063b88d4fde116100ab578063e5c249241161006f578063e5c249241461061d578063e982d5a914610653578063e985e9c514610673578063f33efd1e14610693578063fb796bb7146106a657610225565b8063b88d4fde1461058a578063c51e713c146105aa578063c57a8825146105bd578063c87b56dd146105dd578063e2b375a9146105fd57610225565b80638456cb59116100f25780638456cb59146105005780638462151c1461051557806395d89b4114610535578063a22cb4651461054a578063a4ede1281461056a57610225565b8063736889141461047c5780637affcb9a146104915780637b103999146104be57806384017e52146104e057610225565b80632a0c7799116101b1578063527097251161017557806352709725146103fd5780635c975abb146104125780635fd8c710146104275780636352211e1461043c57806370a082311461045c57610225565b80632a0c7799146103685780632e0dccbb146103955780633f4ba83a146103a857806342842e0e146103bd57806342966c68146103dd57610225565b806313966db5116101f857806313966db5146102d1578063180b9e3f146102f357806318160ddd1461032057806323b872dd146103355780632441c7091461035557610225565b806301ffc9a71461022a57806306fdde0314610260578063081812fc14610282578063095ea7b3146102af575b600080fd5b34801561023657600080fd5b5061024a610245366004613342565b6106b9565b6040516102579190613cf2565b60405180910390f35b34801561026c57600080fd5b506102756106dc565b6040516102579190613d0e565b34801561028e57600080fd5b506102a261029d366004613568565b610773565b6040516102579190613bdb565b3480156102bb57600080fd5b506102cf6102ca3660046132f4565b6107bf565b005b3480156102dd57600080fd5b506102e66108bb565b6040516102579190613e4f565b3480156102ff57600080fd5b5061031361030e366004613568565b6108c1565b6040516102579190613e5d565b34801561032c57600080fd5b506102e66108d9565b34801561034157600080fd5b506102cf6103503660046131a8565b6108ea565b6102e661036336600461345d565b610a66565b34801561037457600080fd5b50610388610383366004613150565b610be1565b6040516102579190613ce1565b6102e66103a336600461337e565b610ce9565b3480156103b457600080fd5b506102cf610e54565b3480156103c957600080fd5b506102cf6103d83660046131a8565b610ed8565b3480156103e957600080fd5b506102cf6103f8366004613568565b610ef8565b34801561040957600080fd5b506102a261103c565b34801561041e57600080fd5b5061024a61104b565b34801561043357600080fd5b506102cf61105b565b34801561044857600080fd5b506102a2610457366004613568565b611137565b34801561046857600080fd5b506102e6610477366004613150565b611152565b34801561048857600080fd5b506102a26111a1565b34801561049d57600080fd5b506104b16104ac36600461329e565b6111b0565b6040516102579190613cd0565b3480156104ca57600080fd5b506104d3611352565b6040516102579190613d00565b3480156104ec57600080fd5b506102cf6104fb366004613568565b611361565b34801561050c57600080fd5b506102cf6113c5565b34801561052157600080fd5b50610388610530366004613150565b611450565b34801561054157600080fd5b5061027561150a565b34801561055657600080fd5b506102cf61056536600461326e565b61156b565b34801561057657600080fd5b506104b1610585366004613150565b611650565b34801561059657600080fd5b506102cf6105a53660046131f5565b6117c6565b6102e66105b836600461345d565b611944565b3480156105c957600080fd5b506102cf6105d8366004613150565b611a71565b3480156105e957600080fd5b506102756105f8366004613568565b611af2565b34801561060957600080fd5b506102cf610618366004613150565b611bb8565b34801561062957600080fd5b5061063d610638366004613568565b611c45565b6040516102579a99989796959493929190613be9565b34801561065f57600080fd5b506102cf61066e366004613150565b611ea1565b34801561067f57600080fd5b5061024a61068e36600461316e565b611f2f565b6102e66106a136600461337e565b611f5d565b6102e66106b436600461345d565b612085565b6001600160e01b0319811660009081526020819052604090205460ff165b919050565b60108054604080516020601f60026000196101006001881615020190951694909404938401819004810282018101909252828152606093909290918301828280156107685780601f1061073d57610100808354040283529160200191610768565b820191906000526020600020905b81548152906001019060200180831161074b57829003601f168201915b505050505090505b90565b600061077e826121c5565b6107a35760405162461bcd60e51b815260040161079a90613e0f565b60405180910390fd5b506000908152600e60205260409020546001600160a01b031690565b600254600160a01b900460ff16156107d657600080fd5b60006107e182611137565b9050806001600160a01b0316836001600160a01b031614156108155760405162461bcd60e51b815260040161079a90613d7f565b806001600160a01b03166108276121e2565b6001600160a01b0316148061084357506108438161068e6121e2565b61085f5760405162461bcd60e51b815260040161079a90613e3f565b6000828152600e602052604080822080546001600160a01b0319166001600160a01b0387811691821790925591518593918516917f8c5be1e5ebec7d5bd14f71427d1e84f3dd0314c0f7b2291e5b200ac8c7c3b92591a4505050565b60035481565b60096020526000908152604090205463ffffffff1681565b60006108e560056121e6565b905090565b600254600160a01b900460ff161561090157600080fd5b61091261090c6121e2565b826121ea565b61092e5760405162461bcd60e51b815260040161079a90613e2f565b6000818152600a60205260408120546001600160a01b03169061095083611137565b600084815260096020908152604080832054600a9092529091206003015491925063ffffffff1690600160a01b900460ff166109ae5761099186868661226f565b156109ae5760405162461bcd60e51b815260040161079a90613d2f565b60048054604051630d1e359160e01b81526001600160a01b0390911691630d1e3591916109e79185918b918b918b918b918b9101613e86565b60206040518083038186803b1580156109ff57600080fd5b505afa158015610a13573d6000803e3d6000fd5b505050506040513d601f19601f82011682018060405250610a379190810190613324565b610a535760405162461bcd60e51b815260040161079a90613e2f565b610a5e8686866122c3565b505050505050565b600254600090600160a01b900460ff1615610a8057600080fd5b600354341015610a8f57600080fd5b60008363ffffffff1611610ab55760405162461bcd60e51b815260040161079a90613dbf565b6004546001600160a01b03166312d26ac884610acf6121e2565b6040518363ffffffff1660e01b8152600401610aec929190613e6b565b60206040518083038186803b158015610b0457600080fd5b505afa158015610b18573d6000803e3d6000fd5b505050506040513d601f19601f82011682018060405250610b3c9190810190613324565b610b585760405162461bcd60e51b815260040161079a90613e1f565b610b658a898989876123c9565b610b815760405162461bcd60e51b815260040161079a90613dff565b6000610b93610b8e6121e2565b6124d3565b9050610ba5818c8c8c8c8c8c8c6124ef565b610baf81846127b1565b6000818152600960205260409020805463ffffffff861663ffffffff1990911617905590509998505050505050505050565b60606001600160a01b038216610c095760405162461bcd60e51b815260040161079a90613d5f565b6001600160a01b0382166000908152600860205260408120610c2a906121e6565b905080610c4c5760408051600080825260208201909252905b509150506106d7565b606081604051908082528060200260200182016040528015610c78578160200160208202803883390190505b5090506000610c856108d9565b9050600060015b828111610cdc576000818152600a60205260409020546001600160a01b0388811691161415610cd45780848381518110610cc257fe5b60209081029190910101526001909101905b600101610c8c565b83955050505050506106d7565b600254600090600160a01b900460ff1615610d0357600080fd5b600354341015610d1257600080fd5b60008263ffffffff1611610d385760405162461bcd60e51b815260040161079a90613dbf565b6004546001600160a01b03166312d26ac883610d526121e2565b6040518363ffffffff1660e01b8152600401610d6f929190613e6b565b60206040518083038186803b158015610d8757600080fd5b505afa158015610d9b573d6000803e3d6000fd5b505050506040513d601f19601f82011682018060405250610dbf9190810190613324565b610ddb5760405162461bcd60e51b815260040161079a90613e1f565b610de889888888866123c9565b610e045760405162461bcd60e51b815260040161079a90613dff565b6000610e11610b8e6121e2565b9050610e23818b8b8b8b8b8b8b6124ef565b6000818152600960205260409020805463ffffffff851663ffffffff19909116179055905098975050505050505050565b6001546001600160a01b0316610e686121e2565b6001600160a01b03161480610e9757506002546001600160a01b0316610e8c6121e2565b6001600160a01b0316145b610eb35760405162461bcd60e51b815260040161079a90613dcf565b600254600160a01b900460ff16610ec957600080fd5b6002805460ff60a01b19169055565b610ef3838383604051806020016040528060008152506117c6565b505050565b600254600160a01b900460ff1615610f0f57600080fd5b6000818152600a60205260408120546001600160a01b031690610f3183611137565b60008481526009602052604090205490915063ffffffff166001600160a01b038083169084161415611000576004546001600160a01b03166312d26ac882610f776121e2565b6040518363ffffffff1660e01b8152600401610f94929190613e6b565b60206040518083038186803b158015610fac57600080fd5b505afa158015610fc0573d6000803e3d6000fd5b505050506040513d601f19601f82011682018060405250610fe49190810190613324565b6110005760405162461bcd60e51b815260040161079a90613d6f565b61101161100b6121e2565b856121ea565b61102d5760405162461bcd60e51b815260040161079a90613d6f565b611036846127f5565b50505050565b6002546001600160a01b031681565b600254600160a01b900460ff1681565b6001546001600160a01b031661106f6121e2565b6001600160a01b0316148061109e57506002546001600160a01b03166110936121e2565b6001600160a01b0316145b6110ba5760405162461bcd60e51b815260040161079a90613dcf565b604051303190600090339083906110d090613bd0565b60006040518083038185875af1925050503d806000811461110d576040519150601f19603f3d011682016040523d82523d6000602084013e611112565b606091505b50509050806111335760405162461bcd60e51b815260040161079a90613d8f565b5050565b6000908152600660205260409020546001600160a01b031690565b60006001600160a01b03821661117a5760405162461bcd60e51b815260040161079a90613d5f565b6001600160a01b038216600090815260076020526040902061119b906121e6565b92915050565b6001546001600160a01b031681565b6001600160a01b0383166000908152600b602052604090819020905160609182916111de9086908690613bb7565b9081526020016040518091039020805480602002602001604051908101604052809291908181526020016000905b828210156112c357600084815260209081902060408051918501805460026001821615610100026000190190911604601f81018590048502840183018352938301848152929390928492909184918401828280156112ab5780601f10611280576101008083540402835291602001916112ab565b820191906000526020600020905b81548152906001019060200180831161128e57829003601f168201915b5050505050815250508152602001906001019061120c565b5050505090506060815160405190808252806020026020018201604052801561130057816020015b60608152602001906001900390816112eb5790505b50905060005b82518110156113465782818151811061131b57fe5b60200260200101516000015182828151811061133357fe5b6020908102919091010152600101611306565b509150505b9392505050565b6004546001600160a01b031681565b6001546001600160a01b03166113756121e2565b6001600160a01b031614806113a457506002546001600160a01b03166113996121e2565b6001600160a01b0316145b6113c05760405162461bcd60e51b815260040161079a90613dcf565b600355565b6001546001600160a01b03166113d96121e2565b6001600160a01b0316148061140857506002546001600160a01b03166113fd6121e2565b6001600160a01b0316145b6114245760405162461bcd60e51b815260040161079a90613dcf565b600254600160a01b900460ff161561143b57600080fd5b6002805460ff60a01b1916600160a01b179055565b6060600061145d83611152565b90508061147a576040805160008082526020820190925290610c43565b6060816040519080825280602002602001820160405280156114a6578160200160208202803883390190505b50905060006114b36108d9565b9050600060015b828111610cdc576000818152600660205260409020546001600160a01b038881169116141561150257808483815181106114f057fe5b60209081029190910101526001909101905b6001016114ba565b60118054604080516020601f60026000196101006001881615020190951694909404938401819004810282018101909252828152606093909290918301828280156107685780601f1061073d57610100808354040283529160200191610768565b600254600160a01b900460ff161561158257600080fd5b61158a6121e2565b6001600160a01b0316826001600160a01b031614156115bb5760405162461bcd60e51b815260040161079a90613daf565b80600f60006115c86121e2565b6001600160a01b03908116825260208083019390935260409182016000908120918716808252919093529120805460ff19169215159290921790915561160c6121e2565b6001600160a01b03167f17307eab39ab6107e8899845ad3d59bd9653f200f220920489ca2b5937696c31836040516116449190613cf2565b60405180910390a35050565b6001600160a01b0381166000908152600c602090815260408083208054825181850281018501909352808352606094859484015b8282101561173b57600084815260209081902060408051918501805460026001821615610100026000190190911604601f81018590048502840183018352938301848152929390928492909184918401828280156117235780601f106116f857610100808354040283529160200191611723565b820191906000526020600020905b81548152906001019060200180831161170657829003601f168201915b50505050508152505081526020019060010190611684565b5050505090506060815160405190808252806020026020018201604052801561177857816020015b60608152602001906001900390816117635790505b50905060005b82518110156117be5782818151811061179357fe5b6020026020010151600001518282815181106117ab57fe5b602090810291909101015260010161177e565b509392505050565b600254600160a01b900460ff16156117dd57600080fd5b6117ee6117e86121e2565b836121ea565b61180a5760405162461bcd60e51b815260040161079a90613e2f565b6000828152600a60205260408120546001600160a01b03169061182c84611137565b600085815260096020908152604080832054600a9092529091206003015491925063ffffffff1690600160a01b900460ff1661188a5761186d87878761226f565b1561188a5760405162461bcd60e51b815260040161079a90613d2f565b60048054604051630d1e359160e01b81526001600160a01b0390911691630d1e3591916118c39185918c918c918c918b918b9101613e86565b60206040518083038186803b1580156118db57600080fd5b505afa1580156118ef573d6000803e3d6000fd5b505050506040513d601f19601f820116820180604052506119139190810190613324565b61192f5760405162461bcd60e51b815260040161079a90613e2f565b61193b87878787612807565b50505050505050565b600254600090600160a01b900460ff161561195e57600080fd5b60035434101561196d57600080fd5b60008363ffffffff16116119935760405162461bcd60e51b815260040161079a90613dbf565b6004546001600160a01b03166312d26ac8846119ad6121e2565b6040518363ffffffff1660e01b81526004016119ca929190613e6b565b60206040518083038186803b1580156119e257600080fd5b505afa1580156119f6573d6000803e3d6000fd5b505050506040513d601f19601f82011682018060405250611a1a9190810190613324565b611a365760405162461bcd60e51b815260040161079a90613e1f565b611a438a898989876123c9565b611a5f5760405162461bcd60e51b815260040161079a90613dff565b6000610b93611a6c6121e2565b61283a565b6001546001600160a01b0316611a856121e2565b6001600160a01b03161480611ab457506002546001600160a01b0316611aa96121e2565b6001600160a01b0316145b611ad05760405162461bcd60e51b815260040161079a90613dcf565b600480546001600160a01b0319166001600160a01b0392909216919091179055565b6060611afd826121c5565b611b195760405162461bcd60e51b815260040161079a90613e0f565b6000828152600d602090815260409182902080548351601f600260001961010060018616150201909316929092049182018490048402810184019094528084529091830182828015611bac5780601f10611b8157610100808354040283529160200191611bac565b820191906000526020600020905b815481529060010190602001808311611b8f57829003601f168201915b50505050509050919050565b6001546001600160a01b0316611bcc6121e2565b6001600160a01b03161480611bfb57506002546001600160a01b0316611bf06121e2565b6001600160a01b0316145b611c175760405162461bcd60e51b815260040161079a90613dcf565b6001600160a01b03811615611c4257600280546001600160a01b0319166001600160a01b0383161790555b50565b600080606080600080600080600080611c5d8b6121c5565b611c795760405162461bcd60e51b815260040161079a90613e0f565b611c81612f33565b60008c8152600a60209081526040918290208251610100808201855282546001600160a01b03168252600180840180548751600293821615909402600019011691909104601f8101869004860283018601909652858252919492938581019391929190830182828015611d355780601f10611d0a57610100808354040283529160200191611d35565b820191906000526020600020905b815481529060010190602001808311611d1857829003601f168201915b5050509183525050600282810180546040805160206001841615610100026000190190931694909404601f81018390048302850183019091528084529381019390830182828015611dc75780601f10611d9c57610100808354040283529160200191611dc7565b820191906000526020600020905b815481529060010190602001808311611daa57829003601f168201915b50505091835250506003919091015465ffffffffffff808216602080850191909152660100000000000083048216604080860191909152600160601b84049092166060850152600160901b830461ffff166080850152600160a01b90920460ff16151560a09093019290925260008f815260099091522054815191925063ffffffff1690611e548e611137565b83602001518460400151856060015186608001518760a001518860c001518960e00151898797508696509b509b509b509b509b509b509b509b509b509b5050509193959799509193959799565b6001546001600160a01b0316611eb56121e2565b6001600160a01b03161480611ee457506002546001600160a01b0316611ed96121e2565b6001600160a01b0316145b611f005760405162461bcd60e51b815260040161079a90613dcf565b6001600160a01b03811615611c4257600180546001600160a01b0383166001600160a01b031990911617905550565b6001600160a01b039182166000908152600f6020908152604080832093909416825291909152205460ff1690565b600254600090600160a01b900460ff1615611f7757600080fd5b600354341015611f8657600080fd5b60008263ffffffff1611611fac5760405162461bcd60e51b815260040161079a90613dbf565b6004546001600160a01b03166312d26ac883611fc66121e2565b6040518363ffffffff1660e01b8152600401611fe3929190613e6b565b60206040518083038186803b158015611ffb57600080fd5b505afa15801561200f573d6000803e3d6000fd5b505050506040513d601f19601f820116820180604052506120339190810190613324565b61204f5760405162461bcd60e51b815260040161079a90613e1f565b61205c89888888866123c9565b6120785760405162461bcd60e51b815260040161079a90613dff565b6000610e11611a6c6121e2565b600254600090600160a01b900460ff161561209f57600080fd5b6003543410156120ae57600080fd5b60008363ffffffff16116120d45760405162461bcd60e51b815260040161079a90613dbf565b6004546001600160a01b03166312d26ac8846120ee6121e2565b6040518363ffffffff1660e01b815260040161210b929190613e6b565b60206040518083038186803b15801561212357600080fd5b505afa158015612137573d6000803e3d6000fd5b505050506040513d601f19601f8201168201806040525061215b9190810190613324565b6121775760405162461bcd60e51b815260040161079a90613e1f565b6121848a898989876123c9565b6121a05760405162461bcd60e51b815260040161079a90613dff565b60006121b36121ad6121e2565b84612919565b9050610baf818c8c8c8c8c8c8c6124ef565b6000908152600660205260409020546001600160a01b0316151590565b3390565b5490565b60006121f5826121c5565b6122115760405162461bcd60e51b815260040161079a90613e0f565b600061221c83611137565b9050806001600160a01b0316846001600160a01b031614806122575750836001600160a01b031661224c84610773565b6001600160a01b0316145b8061226757506122678185611f2f565b949350505050565b6000818152600a60205260408120546001600160a01b039081169085168114806122aa5750806001600160a01b0316846001600160a01b0316145b156122b957600091505061134b565b600191505061134b565b826001600160a01b03166122d682611137565b6001600160a01b0316146122fc5760405162461bcd60e51b815260040161079a90613e2f565b6001600160a01b0382166123225760405162461bcd60e51b815260040161079a90613d4f565b61232b81612950565b6001600160a01b038316600090815260076020526040902061234c9061298b565b6001600160a01b038216600090815260076020526040902061236d906129a2565b60008181526006602052604080822080546001600160a01b0319166001600160a01b0386811691821790925591518493918716917fddf252ad1be2c89b69c2b068fc378daa952ba7f163c4a11628f55a4df523b3ef91a4505050565b6004805460405163abe6178360e01b81526000926001600160a01b039092169163abe61783916123fd9186918b9101613ee0565b60206040518083038186803b15801561241557600080fd5b505afa158015612429573d6000803e3d6000fd5b505050506040513d601f19601f8201168201806040525061244d9190810190613324565b6124695760405162461bcd60e51b815260040161079a90613d9f565b8265ffffffffffff168565ffffffffffff16116124985760405162461bcd60e51b815260040161079a90613ddf565b8465ffffffffffff168465ffffffffffff16116124c75760405162461bcd60e51b815260040161079a90613def565b50600195945050505050565b60008061134b8360405180602001604052806000815250612919565b6124f8886121c5565b6125145760405162461bcd60e51b815260040161079a90613e0f565b61251c612f33565b6040518061010001604052806125306121e2565b6001600160a01b03908116825260208083018c905260408084018c905265ffffffffffff8b811660608601528a81166080860152891660a085015261ffff881660c085015286151560e09094019390935260008d8152600a825292909220835181546001600160a01b0319169216919091178155828201518051939450849391926125c392600185019290910190612f78565b50604082015180516125df916002840191602090910190612f78565b5060608201516003919091018054608084015160a085015160c086015160e09096015165ffffffffffff1990931665ffffffffffff958616176bffffffffffff00000000000019166601000000000000928616929092029190911771ffffffffffff0000000000000000000000001916600160601b94909116939093029290921773ffff0000000000000000000000000000000000001916600160901b61ffff909416939093029290921760ff60a01b1916600160a01b911515919091021790556126a9886129ab565b61271257600c60006126b96121e2565b6001600160a01b031681526020808201929092526040908101600090812082518085019093528b835280546001810180835591835291849020835180519295919093019261270d9284929190910190612f78565b505050505b61271c8888612ad6565b6127a657600b600061272c6121e2565b6001600160a01b03166001600160a01b031681526020019081526020016000208860405161275a9190613bc4565b9081526040805191829003602090810183208382019092528983528154600181018084556000938452928290208451805194959491909201926127a1928492910190612f78565b505050505b505050505050505050565b6127ba826121c5565b6127d65760405162461bcd60e51b815260040161079a90613e0f565b6000828152600d602090815260409091208251610ef392840190612f78565b611c4261280182611137565b82612c1d565b6128128484846122c3565b61281e84848484612d6a565b6110365760405162461bcd60e51b815260040161079a90613d3f565b60006001600160a01b0382166128625760405162461bcd60e51b815260040161079a90613d1f565b61286c60056129a2565b600061287860056121e6565b600081815260066020908152604080832080546001600160a01b0319166001600160a01b0389169081179091558352600790915290209091506128ba906129a2565b6001600160a01b03831660009081526008602052604090206128db906129a2565b60405181906001600160a01b038516906000907fddf252ad1be2c89b69c2b068fc378daa952ba7f163c4a11628f55a4df523b3ef908290a492915050565b6000806129258461283a565b90506129346000858386612d6a565b61134b5760405162461bcd60e51b815260040161079a90613d3f565b6000818152600e60205260409020546001600160a01b031615611c42576000908152600e6020526040902080546001600160a01b0319169055565b805461299e90600163ffffffff612e3516565b9055565b80546001019055565b336000908152600c602090815260408083208054825181850281018501909352808352606093859084015b82821015612a8d57600084815260209081902060408051918501805460026001821615610100026000190190911604601f8101859004850284018301835293830184815292939092849290918491840182828015612a755780601f10612a4a57610100808354040283529160200191612a75565b820191906000526020600020905b815481529060010190602001808311612a5857829003601f168201915b505050505081525050815260200190600101906129d6565b5092935060009250829150505b82518110156117be57612ac485848381518110612ab357fe5b602002602001015160000151612e77565b15612ace57600191505b600101612a9a565b336000908152600b6020526040808220905160609190612af7908690613bc4565b9081526020016040518091039020805480602002602001604051908101604052809291908181526020016000905b82821015612bdc57600084815260209081902060408051918501805460026001821615610100026000190190911604601f8101859004850284018301835293830184815292939092849290918491840182828015612bc45780601f10612b9957610100808354040283529160200191612bc4565b820191906000526020600020905b815481529060010190602001808311612ba757829003601f168201915b50505050508152505081526020019060010190612b25565b5092935060009250829150505b8251811015612c1457612c0285848381518110612ab357fe5b15612c0c57600191505b600101612be9565b50949350505050565b816001600160a01b0316612c3082611137565b6001600160a01b031614612c565760405162461bcd60e51b815260040161079a90613d6f565b612c5f81612950565b6001600160a01b0382166000908152600760205260409020612c809061298b565b600081815260066020908152604080832080546001600160a01b0319169055600d9091529020546002600019600183161561010002019091160415612cd6576000818152600d60205260408120612cd691612ff6565b6000818152600a6020526040812080546001600160a01b031916815590612d006001830182612ff6565b612d0e600283016000612ff6565b50600301805474ffffffffffffffffffffffffffffffffffffffffff1916905560405181906000906001600160a01b038516907fddf252ad1be2c89b69c2b068fc378daa952ba7f163c4a11628f55a4df523b3ef908390a45050565b6000612d7e846001600160a01b0316612ed0565b612d8a57506001612267565b6000846001600160a01b031663150b7a02612da36121e2565b8887876040518563ffffffff1660e01b8152600401612dc59493929190613c8c565b602060405180830381600087803b158015612ddf57600080fd5b505af1158015612df3573d6000803e3d6000fd5b505050506040513d601f19601f82011682018060405250612e179190810190613360565b6001600160e01b031916630a85bd0160e11b14915050949350505050565b600061134b83836040518060400160405280601e81526020017f536166654d6174683a207375627472616374696f6e206f766572666c6f770000815250612f07565b600081604051602001612e8a9190613bc4565b6040516020818303038152906040528051906020012083604051602001612eb19190613bc4565b6040516020818303038152906040528051906020012014905092915050565b6000813f7fc5d2460186f7233c927e7db2dcc703c0e500b653ca82273b7bfad8045d85a47081158015906122675750141592915050565b60008184841115612f2b5760405162461bcd60e51b815260040161079a9190613d0e565b505050900390565b604080516101008101825260008082526060602083018190529282018390529181018290526080810182905260a0810182905260c0810182905260e081019190915290565b828054600181600116156101000203166002900490600052602060002090601f016020900481019282601f10612fb957805160ff1916838001178555612fe6565b82800160010185558215612fe6579182015b82811115612fe6578251825591602001919060010190612fcb565b50612ff2929150613036565b5090565b50805460018160011615610100020316600290046000825580601f1061301c5750611c42565b601f016020900490600052602060002090810190611c4291905b61077091905b80821115612ff2576000815560010161303c565b803561119b81613ff3565b803561119b81614007565b805161119b81614007565b803561119b81614010565b805161119b81614010565b600082601f83011261309857600080fd5b81356130ab6130a682613f27565b613f00565b915080825260208301602083018583830111156130c757600080fd5b6130d2838284613fb1565b50505092915050565b60008083601f8401126130ed57600080fd5b50813567ffffffffffffffff81111561310557600080fd5b60208301915083600182028301111561311d57600080fd5b9250929050565b803561119b81614019565b803561119b81614022565b803561119b8161402b565b803561119b81614034565b60006020828403121561316257600080fd5b60006122678484613050565b6000806040838503121561318157600080fd5b600061318d8585613050565b925050602061319e85828601613050565b9150509250929050565b6000806000606084860312156131bd57600080fd5b60006131c98686613050565b93505060206131da86828701613050565b92505060406131eb8682870161312f565b9150509250925092565b6000806000806080858703121561320b57600080fd5b60006132178787613050565b945050602061322887828801613050565b93505060406132398782880161312f565b925050606085013567ffffffffffffffff81111561325657600080fd5b61326287828801613087565b91505092959194509250565b6000806040838503121561328157600080fd5b600061328d8585613050565b925050602061319e8582860161305b565b6000806000604084860312156132b357600080fd5b60006132bf8686613050565b935050602084013567ffffffffffffffff8111156132dc57600080fd5b6132e8868287016130db565b92509250509250925092565b6000806040838503121561330757600080fd5b60006133138585613050565b925050602061319e8582860161312f565b60006020828403121561333657600080fd5b60006122678484613066565b60006020828403121561335457600080fd5b60006122678484613071565b60006020828403121561337257600080fd5b6000612267848461307c565b600080600080600080600080610100898b03121561339b57600080fd5b883567ffffffffffffffff8111156133b257600080fd5b6133be8b828c01613087565b985050602089013567ffffffffffffffff8111156133db57600080fd5b6133e78b828c01613087565b97505060406133f88b828c01613145565b96505060606134098b828c01613145565b955050608061341a8b828c01613145565b94505060a061342b8b828c01613124565b93505060c061343c8b828c0161305b565b92505060e061344d8b828c0161313a565b9150509295985092959890939650565b60008060008060008060008060006101208a8c03121561347c57600080fd5b893567ffffffffffffffff81111561349357600080fd5b61349f8c828d01613087565b99505060208a013567ffffffffffffffff8111156134bc57600080fd5b6134c88c828d01613087565b98505060406134d98c828d01613145565b97505060606134ea8c828d01613145565b96505060806134fb8c828d01613145565b95505060a061350c8c828d01613124565b94505060c061351d8c828d0161305b565b93505060e061352e8c828d0161313a565b9250506101008a013567ffffffffffffffff81111561354c57600080fd5b6135588c828d01613087565b9150509295985092959850929598565b60006020828403121561357a57600080fd5b6000612267848461312f565b600061134b8383613685565b600061359e8383613b9c565b505060200190565b6135af81613f62565b82525050565b60006135c082613f55565b6135ca8185613f59565b9350836020820285016135dc85613f4f565b8060005b8581101561361657848403895281516135f98582613586565b945061360483613f4f565b60209a909a01999250506001016135e0565b5091979650505050505050565b600061362e82613f55565b6136388185613f59565b935061364383613f4f565b8060005b8381101561367157815161365b8882613592565b975061366683613f4f565b925050600101613647565b509495945050505050565b6135af81613f6d565b600061369082613f55565b61369a8185613f59565b93506136aa818560208601613fbd565b6136b381613fe9565b9093019392505050565b6135af81613fa6565b60006136d283856106d7565b93506136df838584613fb1565b50500190565b60006136f082613f55565b6136fa81856106d7565b935061370a818560208601613fbd565b9290920192915050565b6000613721601483613f59565b7f4d494e545f544f5f5a45524f5f41444452455353000000000000000000000000815260200192915050565b600061375a601a83613f59565b7f5345434f4e444152595f54524144494e475f44495341424c4544000000000000815260200192915050565b6000613793602a83613f59565b7f5452414e534645525f544f5f4e4f4e5f45524337323152454345495645525f4981526926a82622a6a2a72a22a960b11b602082015260400192915050565b60006137df601883613f59565b7f5452414e534645525f544f5f5a45524f5f414444524553530000000000000000815260200192915050565b6000613818601983613f59565b7f43414e4e4f545f51554552595f5a45524f5f4144445245535300000000000000815260200192915050565b6000613851601183613f59565b7f554e415554484f52495a45445f4255524e000000000000000000000000000000815260200192915050565b600061388a601583613f59565b7f415050524f56414c5f49535f524544554e44414e540000000000000000000000815260200192915050565b60006138c3600f83613f59565b7f57495448445241575f4641494c45440000000000000000000000000000000000815260200192915050565b60006138fc602383613f59565b7f434f4e54454e545f49445f4e4f545f524547495354455245445f544f5f43414c8152622622a960e91b602082015260400192915050565b6000613941601a83613f59565b7f43414c4c45525f43414e4e4f545f415050524f56455f53454c46000000000000815260200192915050565b600061397a601583613f59565b7f494e56414c49445f46454445524154494f4e5f49440000000000000000000000815260200192915050565b60006139b3601383613f59565b7f4f4e4c595f434f4e54524143545f4f574e455200000000000000000000000000815260200192915050565b60006139ec602183613f59565b7f53544152545f54494d455f41465445525f41554354494f4e5f454e445f54494d8152604560f81b602082015260400192915050565b6000613a2f601983613f59565b7f53544152545f54494d455f41465445525f454e445f54494d4500000000000000815260200192915050565b600061119b6000836106d7565b6000613a75601183613f59565b7f494e56414c49445f54494d455f534c4f54000000000000000000000000000000815260200192915050565b6000613aae601283613f59565b7f4e4f4e5f4558495354454e545f544f4b454e0000000000000000000000000000815260200192915050565b6000613ae7602583613f59565b7f43414c4c45525f4e4f545f415554484f52495a45445f464f525f4d494e5445528152645f524f4c4560d81b602082015260400192915050565b6000613b2e601583613f59565b7f554e415554484f52495a45445f5452414e534645520000000000000000000000815260200192915050565b6000613b67601583613f59565b7f43414c4c45525f4e4f545f415554484f52495a45440000000000000000000000815260200192915050565b6135af81613f7f565b6135af81610770565b6135af81613f92565b6135af81613f9b565b60006122678284866136c6565b600061134b82846136e5565b600061119b82613a5b565b6020810161119b82846135a6565b6101408101613bf8828d6135a6565b613c05602083018c6135a6565b8181036040830152613c17818b613685565b90508181036060830152613c2b818a613685565b9050613c3a6080830189613bae565b613c4760a0830188613bae565b613c5460c0830187613bae565b613c6160e0830186613b93565b613c6f61010083018561367c565b613c7d610120830184613ba5565b9b9a5050505050505050505050565b60808101613c9a82876135a6565b613ca760208301866135a6565b613cb46040830185613b9c565b8181036060830152613cc68184613685565b9695505050505050565b6020808252810161134b81846135b5565b6020808252810161134b8184613623565b6020810161119b828461367c565b6020810161119b82846136bd565b6020808252810161134b8184613685565b6020808252810161119b81613714565b6020808252810161119b8161374d565b6020808252810161119b81613786565b6020808252810161119b816137d2565b6020808252810161119b8161380b565b6020808252810161119b81613844565b6020808252810161119b8161387d565b6020808252810161119b816138b6565b6020808252810161119b816138ef565b6020808252810161119b81613934565b6020808252810161119b8161396d565b6020808252810161119b816139a6565b6020808252810161119b816139df565b6020808252810161119b81613a22565b6020808252810161119b81613a68565b6020808252810161119b81613aa1565b6020808252810161119b81613ada565b6020808252810161119b81613b21565b6020808252810161119b81613b5a565b6020810161119b8284613b9c565b6020810161119b8284613ba5565b60408101613e798285613ba5565b61134b60208301846135a6565b60c08101613e948289613ba5565b613ea160208301886135a6565b613eae60408301876135a6565b613ebb6060830186613b9c565b613ec860808301856135a6565b613ed560a08301846135a6565b979650505050505050565b60408101613eee8285613ba5565b81810360208301526122678184613685565b60405181810167ffffffffffffffff81118282101715613f1f57600080fd5b604052919050565b600067ffffffffffffffff821115613f3e57600080fd5b506020601f91909101601f19160190565b60200190565b5190565b90815260200190565b600061119b82613f86565b151590565b6001600160e01b03191690565b61ffff1690565b6001600160a01b031690565b63ffffffff1690565b65ffffffffffff1690565b600061119b82613f62565b82818337506000910152565b60005b83811015613fd8578181015183820152602001613fc0565b838111156110365750506000910152565b601f01601f191690565b613ffc81613f62565b8114611c4257600080fd5b613ffc81613f6d565b613ffc81613f72565b613ffc81613f7f565b613ffc81610770565b613ffc81613f92565b613ffc81613f9b56fea365627a7a723158209018393b186b2040bd6c10d52a7a82d7682c252662714427adcf58a52f73b8766c6578706572696d656e74616cf564736f6c634300050b0040",
  "source": "pragma solidity ^0.5.11;\npragma experimental ABIEncoderV2;\n\nimport \"./ERC721.sol\";\n\n/**\n * Customized for Microsponsors\n * from Open Zeppelin's ERC721Metadata contract, which is MIT Licensed:\n * https://github.com/OpenZeppelin/openzeppelin-contracts/blob/master/contracts/token/ERC721/ERC721Metadata.sol\n\n  Licensed under the Apache License, Version 2.0 (the \"License\");\n  you may not use this file except in compliance with the License.\n  You may obtain a copy of the License at\n\n    http://www.apache.org/licenses/LICENSE-2.0\n\n  Unless required by applicable law or agreed to in writing, software\n  distributed under the License is distributed on an \"AS IS\" BASIS,\n  WITHOUT WARRANTIES OR CONDITIONS OF ANY KIND, either express or implied.\n  See the License for the specific language governing permissions and\n  limitations under the License.\n\n*/\n\ncontract Microsponsors is ERC721 {\n\n    // Token name\n    string private _name;\n\n    // Token symbol\n    string private _symbol;\n\n\n    /*\n     *     bytes4(keccak256('name()')) == 0x06fdde03\n     *     bytes4(keccak256('symbol()')) == 0x95d89b41\n     *     bytes4(keccak256('tokenURI(uint256)')) == 0xc87b56dd\n     *\n     *     => 0x06fdde03 ^ 0x95d89b41 ^ 0xc87b56dd == 0x5b5e139f\n     */\n    bytes4 private constant _INTERFACE_ID_ERC721_METADATA = 0x5b5e139f;\n\n    /**\n     * @dev Constructor function\n     */\n    constructor (string memory name, string memory symbol, address registryAddress) public {\n\n        _name = name;\n        _symbol = symbol;\n\n        // register the supported interfaces to conform to ERC721 via ERC165\n        _registerInterface(_INTERFACE_ID_ERC721_METADATA);\n\n        super.updateRegistryAddress(registryAddress);\n\n    }\n\n    /**\n     * @dev Gets the token name.\n     * @return string representing the token name\n     */\n    function name() external view returns (string memory) {\n        return _name;\n    }\n\n    /**\n     * @dev Gets the token symbol.\n     * @return string representing the token symbol\n     */\n    function symbol() external view returns (string memory) {\n        return _symbol;\n    }\n\n}\n",
  "sourcePath": "/Users/lauren/github/erc-721/contracts/Microsponsors.sol",
  "compiler": {
    "name": "solc",
    "version": "0.5.11+commit.c082d0b4.Emscripten.clang"
  },
  "schemaVersion": "3.0.10",
  "updatedAt": "2020-02-02T21:41:45.062Z",
  "devdoc": {
    "methods": {
      "approve(address,uint256)": {
        "details": "Approves another address to transfer the given token ID The zero address indicates there is no approved address. There can only be one approved address per token at a given time. Can only be called by the token owner or an approved operator.",
        "params": {
          "to": "address to be approved for the given token ID",
          "tokenId": "uint256 ID of the token to be approved"
        }
      },
      "balanceOf(address)": {
        "details": "Gets the balance of the specified address.",
        "params": {
          "tokenOwner": "address to query the balance of"
        },
        "return": "uint256 representing the amount owned by the passed address"
      },
      "burn(uint256)": {
        "details": "Customized for MicrosponsorsBurns a specific ERC721 token.",
        "params": {
          "tokenId": "uint256 id of the ERC721 token to be burned"
        }
      },
      "constructor": {
        "details": "Constructor function"
      },
      "getApproved(uint256)": {
        "details": "Gets the approved address for a token ID, or zero if no address set Reverts if the token ID does not exist.",
        "params": {
          "tokenId": "uint256 ID of the token to query the approval of"
        },
        "return": "address currently approved for the given token ID"
      },
      "isApprovedForAll(address,address)": {
        "details": "Tells whether an operator is approved by a given token owner.",
        "params": {
          "operator": "operator address which you want to query the approval of",
          "tokenOwner": "token owner address which you want to query the approval of"
        },
        "return": "bool whether the given operator is approved by the token owner"
      },
      "mint(string,string,uint48,uint48,uint48,uint16,bool,uint32)": {
        "details": "Function to mint tokens.",
        "return": "tokenId"
      },
      "mintWithTokenURI(string,string,uint48,uint48,uint48,uint16,bool,uint32,string)": {
        "details": "Function to mint tokens.",
        "params": {
          "tokenURI": "The token URI of the minted token."
        },
        "return": "tokenId"
      },
      "name()": {
        "details": "Gets the token name.",
        "return": "string representing the token name"
      },
      "ownerOf(uint256)": {
        "details": "Gets the owner of the specified token ID.",
        "params": {
          "tokenId": "uint256 ID of the token to query the owner of"
        },
        "return": "address currently marked as the owner of the given token ID"
      },
      "pause()": {
        "details": "Called by contract owner to pause minting and transfers."
      },
      "safeMint(string,string,uint48,uint48,uint48,uint16,bool,uint32)": {
        "details": "Function to safely mint tokens.",
        "return": "tokenId"
      },
      "safeMint(string,string,uint48,uint48,uint48,uint16,bool,uint32,bytes)": {
        "details": "Function to safely mint tokens.",
        "params": {
          "data": "bytes data to send along with a safe transfer check."
        },
        "return": "tokenId"
      },
      "safeMintWithTokenURI(string,string,uint48,uint48,uint48,uint16,bool,uint32,string)": {
        "params": {
          "tokenURI": "The token URI of the minted token."
        },
        "return": "tokenId"
      },
      "safeTransferFrom(address,address,uint256)": {
        "details": "Safely transfers the ownership of a given token ID to another address If the target address is a contract, it must implement {IERC721Receiver-onERC721Received}, which is called upon a safe transfer, and return the magic value `bytes4(keccak256(\"onERC721Received(address,address,uint256,bytes)\"))`; otherwise, the transfer is reverted. Requires the msg.sender to be the owner, approved, or operator",
        "params": {
          "from": "current owner of the token",
          "to": "address to receive the ownership of the given token ID",
          "tokenId": "uint256 ID of the token to be transferred"
        }
      },
      "safeTransferFrom(address,address,uint256,bytes)": {
        "details": "Safely transfers the ownership of a given token ID to another address If the target address is a contract, it must implement {IERC721Receiver-onERC721Received}, which is called upon a safe transfer, and return the magic value `bytes4(keccak256(\"onERC721Received(address,address,uint256,bytes)\"))`; otherwise, the transfer is reverted. Requires the _msgSender() to be the owner, approved, or operator",
        "params": {
          "data": "bytes data to send along with a safe transfer check",
          "from": "current owner of the token",
          "to": "address to receive the ownership of the given token ID",
          "tokenId": "uint256 ID of the token to be transferred"
        }
      },
      "setApprovalForAll(address,bool)": {
        "details": "Sets or unsets the approval of a given operator An operator is allowed to transfer all tokens of the sender on their behalf.",
        "params": {
          "approved": "representing the status of the approval to be set",
          "to": "operator address to set the approval"
        }
      },
      "supportsInterface(bytes4)": {
        "details": "See {IERC165-supportsInterface}.     * Time complexity O(1), guaranteed to always use less than 30 000 gas."
      },
      "symbol()": {
        "details": "Gets the token symbol.",
        "return": "string representing the token symbol"
      },
      "tokenMinterContentIds(address)": {
        "details": "Look up all Content IDs a Minter has tokenized TimeSlots for.      We're not getting this from the Registry because we want to keep      a separate record here of all Content ID's the acct has *ever*      minted tokens for. The registry is for keeping track of their      current (not necessarily past) Content ID registrations."
      },
      "tokenMinterPropertyNames(address,string)": {
        "details": "Look up all Property Names a Minter has created Time Slots for      with a particular Content ID"
      },
      "tokenURI(uint256)": {
        "params": {
          "tokenId": "uint256 ID of the token to query"
        },
        "return": "URI for a given token ID."
      },
      "tokensMintedBy(address)": {
        "details": "This method MUST NEVER be called by smart contract code. First, it's fairly expensive (it walks the entire _tokenIds array looking for tokens belonging to minter), but it also returns a dynamic array, which is only supported for web3 calls, and not contract-to-contract calls (at this time)."
      },
      "tokensOfOwner(address)": {
        "details": "This method MUST NEVER be called by smart contract code. First, it's fairly expensive (it walks the entire _tokenIds array looking for tokens belonging to owner), but it also returns a dynamic array, which is only supported for web3 calls, and not contract-to-contract calls (at this time).",
        "params": {
          "tokenOwner": "The owner whose tokens we are interested in."
        }
      },
      "totalSupply()": {
        "details": "Gets the total number of tokens ever minted."
      },
      "transferFrom(address,address,uint256)": {
        "details": "Transfers the ownership of a given token ID to another address. Usage of this method is discouraged, use {safeTransferFrom} whenever possible. Requires the msg.sender to be the owner, approved, or operator.",
        "params": {
          "from": "current owner of the token",
          "to": "address to receive the ownership of the given token ID",
          "tokenId": "uint256 ID of the token to be transferred"
        }
      },
      "transferOwnership1(address)": {
        "details": "Transfer owner (admin) functions to another address",
        "params": {
          "newOwner": "Address of new owner/ admin of contract"
        }
      },
      "unpause()": {
        "details": "Called by contract owner to unpause minting and transfers."
      },
      "updateMintFee(uint256)": {
        "details": "Update the fee (in wei) charged for minting a single token"
      },
      "updateRegistryAddress(address)": {
        "details": "Update contract address for Microsponsors Registry contract",
        "params": {
          "newAddress": "where the Registry contract lives"
        }
      },
      "withdrawBalance()": {
        "details": "Admin withdraws entire balance from contract."
      }
    }
  },
  "userdoc": {
    "methods": {
      "tokenURI(uint256)": {
        "notice": "Throws if the token ID does not exist. May return an empty string."
      },
      "tokensMintedBy(address)": {
        "notice": "Return all the Token IDs minted by a given account."
      }
    },
    "notice": "Customized for Microsponsors from Open Zeppelin's ERC721Metadata contract, which is MIT Licensed: https://github.com/OpenZeppelin/openzeppelin-contracts/blob/master/contracts/token/ERC721/ERC721Metadata.sol Licensed under the Apache License, Version 2.0 (the \"License\"); you may not use this file except in compliance with the License. You may obtain a copy of the License at http://www.apache.org/licenses/LICENSE-2.0 Unless required by applicable law or agreed to in writing, software distributed under the License is distributed on an \"AS IS\" BASIS, WITHOUT WARRANTIES OR CONDITIONS OF ANY KIND, either express or implied. See the License for the specific language governing permissions and limitations under the License."
  }
}