{
  "contractName": "Microsponsors",
  "abi": [
    {
      "constant": true,
      "inputs": [
        {
          "internalType": "bytes4",
          "name": "interfaceId",
          "type": "bytes4"
        }
      ],
      "name": "supportsInterface",
      "outputs": [
        {
          "internalType": "bool",
          "name": "",
          "type": "bool"
        }
      ],
      "payable": false,
      "stateMutability": "view",
      "type": "function"
    },
    {
      "constant": true,
      "inputs": [
        {
          "internalType": "uint256",
          "name": "tokenId",
          "type": "uint256"
        }
      ],
      "name": "getApproved",
      "outputs": [
        {
          "internalType": "address",
          "name": "",
          "type": "address"
        }
      ],
      "payable": false,
      "stateMutability": "view",
      "type": "function"
    },
    {
      "constant": false,
      "inputs": [
        {
          "internalType": "address",
          "name": "to",
          "type": "address"
        },
        {
          "internalType": "uint256",
          "name": "tokenId",
          "type": "uint256"
        }
      ],
      "name": "approve",
      "outputs": [],
      "payable": false,
      "stateMutability": "nonpayable",
      "type": "function"
    },
    {
      "constant": true,
      "inputs": [],
      "name": "totalSupply",
      "outputs": [
        {
          "internalType": "uint256",
          "name": "",
          "type": "uint256"
        }
      ],
      "payable": false,
      "stateMutability": "view",
      "type": "function"
    },
    {
      "constant": false,
      "inputs": [
        {
          "internalType": "string",
          "name": "contentId",
          "type": "string"
        },
        {
          "internalType": "string",
          "name": "propertyName",
          "type": "string"
        },
        {
          "internalType": "uint48",
          "name": "startTime",
          "type": "uint48"
        },
        {
          "internalType": "uint48",
          "name": "endTime",
          "type": "uint48"
        },
        {
          "internalType": "uint48",
          "name": "auctionEndTime",
          "type": "uint48"
        },
        {
          "internalType": "bytes",
          "name": "data",
          "type": "bytes"
        }
      ],
      "name": "safeMint",
      "outputs": [
        {
          "internalType": "uint256",
          "name": "",
          "type": "uint256"
        }
      ],
      "payable": false,
      "stateMutability": "nonpayable",
      "type": "function"
    },
    {
      "constant": false,
      "inputs": [
        {
          "internalType": "address",
          "name": "from",
          "type": "address"
        },
        {
          "internalType": "address",
          "name": "to",
          "type": "address"
        },
        {
          "internalType": "uint256",
          "name": "tokenId",
          "type": "uint256"
        }
      ],
      "name": "transferFrom",
      "outputs": [],
      "payable": false,
      "stateMutability": "nonpayable",
      "type": "function"
    },
    {
      "constant": false,
      "inputs": [
        {
          "internalType": "string",
          "name": "contentId",
          "type": "string"
        },
        {
          "internalType": "string",
          "name": "propertyName",
          "type": "string"
        },
        {
          "internalType": "uint48",
          "name": "startTime",
          "type": "uint48"
        },
        {
          "internalType": "uint48",
          "name": "endTime",
          "type": "uint48"
        },
        {
          "internalType": "uint48",
          "name": "auctionEndTime",
          "type": "uint48"
        },
        {
          "internalType": "string",
          "name": "tokenURI",
          "type": "string"
        }
      ],
      "name": "mintWithTokenURI",
      "outputs": [
        {
          "internalType": "uint256",
          "name": "",
          "type": "uint256"
        }
      ],
      "payable": false,
      "stateMutability": "nonpayable",
      "type": "function"
    },
    {
      "constant": true,
      "inputs": [
        {
          "internalType": "address",
          "name": "target",
          "type": "address"
        }
      ],
      "name": "isWhitelisted",
      "outputs": [
        {
          "internalType": "bool",
          "name": "",
          "type": "bool"
        }
      ],
      "payable": false,
      "stateMutability": "view",
      "type": "function"
    },
    {
      "constant": false,
      "inputs": [],
      "name": "unpause",
      "outputs": [],
      "payable": false,
      "stateMutability": "nonpayable",
      "type": "function"
    },
    {
      "constant": false,
      "inputs": [
        {
          "internalType": "address",
          "name": "from",
          "type": "address"
        },
        {
          "internalType": "address",
          "name": "to",
          "type": "address"
        },
        {
          "internalType": "uint256",
          "name": "tokenId",
          "type": "uint256"
        }
      ],
      "name": "safeTransferFrom",
      "outputs": [],
      "payable": false,
      "stateMutability": "nonpayable",
      "type": "function"
    },
    {
      "constant": false,
      "inputs": [
        {
          "internalType": "uint256",
          "name": "tokenId",
          "type": "uint256"
        }
      ],
      "name": "burn",
      "outputs": [],
      "payable": false,
      "stateMutability": "nonpayable",
      "type": "function"
    },
    {
      "constant": true,
      "inputs": [],
      "name": "paused",
      "outputs": [
        {
          "internalType": "bool",
          "name": "",
          "type": "bool"
        }
      ],
      "payable": false,
      "stateMutability": "view",
      "type": "function"
    },
    {
      "constant": true,
      "inputs": [
        {
          "internalType": "uint256",
          "name": "tokenId",
          "type": "uint256"
        }
      ],
      "name": "ownerOf",
      "outputs": [
        {
          "internalType": "address",
          "name": "",
          "type": "address"
        }
      ],
      "payable": false,
      "stateMutability": "view",
      "type": "function"
    },
    {
      "constant": true,
      "inputs": [
        {
          "internalType": "address",
          "name": "tokenOwner",
          "type": "address"
        }
      ],
      "name": "balanceOf",
      "outputs": [
        {
          "internalType": "uint256",
          "name": "",
          "type": "uint256"
        }
      ],
      "payable": false,
      "stateMutability": "view",
      "type": "function"
    },
    {
      "constant": true,
      "inputs": [
        {
          "internalType": "address",
          "name": "minter",
          "type": "address"
        },
        {
          "internalType": "string",
          "name": "contentId",
          "type": "string"
        }
      ],
      "name": "tokenMinterPropertyNames",
      "outputs": [
        {
          "internalType": "string[]",
          "name": "",
          "type": "string[]"
        }
      ],
      "payable": false,
      "stateMutability": "view",
      "type": "function"
    },
    {
      "constant": true,
      "inputs": [],
      "name": "registry",
      "outputs": [
        {
          "internalType": "contract DeployedRegistry",
          "name": "",
          "type": "address"
        }
      ],
      "payable": false,
      "stateMutability": "view",
      "type": "function"
    },
    {
      "constant": false,
      "inputs": [],
      "name": "pause",
      "outputs": [],
      "payable": false,
      "stateMutability": "nonpayable",
      "type": "function"
    },
    {
      "constant": true,
      "inputs": [
        {
          "internalType": "address",
          "name": "tokenOwner",
          "type": "address"
        }
      ],
      "name": "tokensOfOwner",
      "outputs": [
        {
          "internalType": "uint256[]",
          "name": "",
          "type": "uint256[]"
        }
      ],
      "payable": false,
      "stateMutability": "view",
      "type": "function"
    },
    {
      "constant": true,
      "inputs": [],
      "name": "owner",
      "outputs": [
        {
          "internalType": "address",
          "name": "",
          "type": "address"
        }
      ],
      "payable": false,
      "stateMutability": "view",
      "type": "function"
    },
    {
      "constant": false,
      "inputs": [
        {
          "internalType": "address",
          "name": "to",
          "type": "address"
        },
        {
          "internalType": "bool",
          "name": "approved",
          "type": "bool"
        }
      ],
      "name": "setApprovalForAll",
      "outputs": [],
      "payable": false,
      "stateMutability": "nonpayable",
      "type": "function"
    },
    {
      "constant": true,
      "inputs": [
        {
          "internalType": "address",
          "name": "minter",
          "type": "address"
        }
      ],
      "name": "tokenMinterContentIds",
      "outputs": [
        {
          "internalType": "string[]",
          "name": "",
          "type": "string[]"
        }
      ],
      "payable": false,
      "stateMutability": "view",
      "type": "function"
    },
    {
      "constant": true,
      "inputs": [
        {
          "internalType": "address",
          "name": "account",
          "type": "address"
        }
      ],
      "name": "isMinter",
      "outputs": [
        {
          "internalType": "bool",
          "name": "",
          "type": "bool"
        }
      ],
      "payable": false,
      "stateMutability": "view",
      "type": "function"
    },
    {
      "constant": false,
      "inputs": [
        {
          "internalType": "address",
          "name": "from",
          "type": "address"
        },
        {
          "internalType": "address",
          "name": "to",
          "type": "address"
        },
        {
          "internalType": "uint256",
          "name": "tokenId",
          "type": "uint256"
        },
        {
          "internalType": "bytes",
          "name": "data",
          "type": "bytes"
        }
      ],
      "name": "safeTransferFrom",
      "outputs": [],
      "payable": false,
      "stateMutability": "nonpayable",
      "type": "function"
    },
    {
      "constant": false,
      "inputs": [
        {
          "internalType": "address",
          "name": "newAddress",
          "type": "address"
        }
      ],
      "name": "updateRegistryAddress",
      "outputs": [],
      "payable": false,
      "stateMutability": "nonpayable",
      "type": "function"
    },
    {
      "constant": true,
      "inputs": [
        {
          "internalType": "uint256",
          "name": "tokenId",
          "type": "uint256"
        }
      ],
      "name": "tokenURI",
      "outputs": [
        {
          "internalType": "string",
          "name": "",
          "type": "string"
        }
      ],
      "payable": false,
      "stateMutability": "view",
      "type": "function"
    },
    {
      "constant": false,
      "inputs": [
        {
          "internalType": "string",
          "name": "contentId",
          "type": "string"
        },
        {
          "internalType": "string",
          "name": "propertyName",
          "type": "string"
        },
        {
          "internalType": "uint48",
          "name": "startTime",
          "type": "uint48"
        },
        {
          "internalType": "uint48",
          "name": "endTime",
          "type": "uint48"
        },
        {
          "internalType": "uint48",
          "name": "auctionEndTime",
          "type": "uint48"
        },
        {
          "internalType": "string",
          "name": "tokenURI",
          "type": "string"
        }
      ],
      "name": "safeMintWithTokenURI",
      "outputs": [
        {
          "internalType": "uint256",
          "name": "",
          "type": "uint256"
        }
      ],
      "payable": false,
      "stateMutability": "nonpayable",
      "type": "function"
    },
    {
      "constant": false,
      "inputs": [
        {
          "internalType": "string",
          "name": "contentId",
          "type": "string"
        },
        {
          "internalType": "string",
          "name": "propertyName",
          "type": "string"
        },
        {
          "internalType": "uint48",
          "name": "startTime",
          "type": "uint48"
        },
        {
          "internalType": "uint48",
          "name": "endTime",
          "type": "uint48"
        },
        {
          "internalType": "uint48",
          "name": "auctionEndTime",
          "type": "uint48"
        }
      ],
      "name": "safeMint",
      "outputs": [
        {
          "internalType": "uint256",
          "name": "",
          "type": "uint256"
        }
      ],
      "payable": false,
      "stateMutability": "nonpayable",
      "type": "function"
    },
    {
      "constant": false,
      "inputs": [
        {
          "internalType": "string",
          "name": "contentId",
          "type": "string"
        },
        {
          "internalType": "string",
          "name": "propertyName",
          "type": "string"
        },
        {
          "internalType": "uint48",
          "name": "startTime",
          "type": "uint48"
        },
        {
          "internalType": "uint48",
          "name": "endTime",
          "type": "uint48"
        },
        {
          "internalType": "uint48",
          "name": "auctionEndTime",
          "type": "uint48"
        }
      ],
      "name": "mint",
      "outputs": [
        {
          "internalType": "uint256",
          "name": "",
          "type": "uint256"
        }
      ],
      "payable": false,
      "stateMutability": "nonpayable",
      "type": "function"
    },
    {
      "constant": true,
      "inputs": [
        {
          "internalType": "uint256",
          "name": "tokenId",
          "type": "uint256"
        }
      ],
      "name": "tokenTimeSlot",
      "outputs": [
        {
          "internalType": "address",
          "name": "minter",
          "type": "address"
        },
        {
          "internalType": "string",
          "name": "contentId",
          "type": "string"
        },
        {
          "internalType": "string",
          "name": "propertyName",
          "type": "string"
        },
        {
          "internalType": "uint48",
          "name": "startTime",
          "type": "uint48"
        },
        {
          "internalType": "uint48",
          "name": "endTime",
          "type": "uint48"
        },
        {
          "internalType": "uint48",
          "name": "auctionEndTime",
          "type": "uint48"
        }
      ],
      "payable": false,
      "stateMutability": "view",
      "type": "function"
    },
    {
      "constant": true,
      "inputs": [
        {
          "internalType": "address",
          "name": "tokenOwner",
          "type": "address"
        },
        {
          "internalType": "address",
          "name": "operator",
          "type": "address"
        }
      ],
      "name": "isApprovedForAll",
      "outputs": [
        {
          "internalType": "bool",
          "name": "",
          "type": "bool"
        }
      ],
      "payable": false,
      "stateMutability": "view",
      "type": "function"
    },
    {
      "constant": false,
      "inputs": [
        {
          "internalType": "address",
          "name": "newOwner",
          "type": "address"
        }
      ],
      "name": "transferOwnership",
      "outputs": [],
      "payable": false,
      "stateMutability": "nonpayable",
      "type": "function"
    },
    {
      "inputs": [
        {
          "internalType": "string",
          "name": "name",
          "type": "string"
        },
        {
          "internalType": "string",
          "name": "symbol",
          "type": "string"
        },
        {
          "internalType": "address",
          "name": "registryAddress",
          "type": "address"
        }
      ],
      "payable": false,
      "stateMutability": "nonpayable",
      "type": "constructor"
    },
    {
      "anonymous": false,
      "inputs": [
        {
          "indexed": true,
          "internalType": "address",
          "name": "from",
          "type": "address"
        },
        {
          "indexed": true,
          "internalType": "address",
          "name": "to",
          "type": "address"
        },
        {
          "indexed": true,
          "internalType": "uint256",
          "name": "tokenId",
          "type": "uint256"
        }
      ],
      "name": "Transfer",
      "type": "event"
    },
    {
      "anonymous": false,
      "inputs": [
        {
          "indexed": true,
          "internalType": "address",
          "name": "tokenOwner",
          "type": "address"
        },
        {
          "indexed": true,
          "internalType": "address",
          "name": "approved",
          "type": "address"
        },
        {
          "indexed": true,
          "internalType": "uint256",
          "name": "tokenId",
          "type": "uint256"
        }
      ],
      "name": "Approval",
      "type": "event"
    },
    {
      "anonymous": false,
      "inputs": [
        {
          "indexed": true,
          "internalType": "address",
          "name": "tokenOwner",
          "type": "address"
        },
        {
          "indexed": true,
          "internalType": "address",
          "name": "operator",
          "type": "address"
        },
        {
          "indexed": false,
          "internalType": "bool",
          "name": "approved",
          "type": "bool"
        }
      ],
      "name": "ApprovalForAll",
      "type": "event"
    },
    {
      "constant": true,
      "inputs": [],
      "name": "name",
      "outputs": [
        {
          "internalType": "string",
          "name": "",
          "type": "string"
        }
      ],
      "payable": false,
      "stateMutability": "view",
      "type": "function"
    },
    {
      "constant": true,
      "inputs": [],
      "name": "symbol",
      "outputs": [
        {
          "internalType": "string",
          "name": "",
          "type": "string"
        }
      ],
      "payable": false,
      "stateMutability": "view",
      "type": "function"
    }
  ],
  "bytecode": "0x60806040526000600c60006101000a81548160ff0219169083151502179055503480156200002c57600080fd5b506040516200595438038062005954833981810160405262000052919081019062000423565b6200006a6301ffc9a760e01b6200013b60201b60201c565b620000826380ac58cd60e01b6200013b60201b60201c565b620000926200021360201b60201c565b600160006101000a81548173ffffffffffffffffffffffffffffffffffffffff021916908373ffffffffffffffffffffffffffffffffffffffff16021790555082600d9080519060200190620000ea92919062000301565b5081600e90805190602001906200010392919062000301565b506200011c635b5e139f60e01b6200013b60201b60201c565b62000132816200021b60201b62001ad61760201c565b50505062000663565b63ffffffff60e01b817bffffffffffffffffffffffffffffffffffffffffffffffffffffffff19161415620001a7576040517f08c379a00000000000000000000000000000000000000000000000000000000081526004016200019e906200052f565b60405180910390fd5b6001600080837bffffffffffffffffffffffffffffffffffffffffffffffffffffffff19167bffffffffffffffffffffffffffffffffffffffffffffffffffffffff1916815260200190815260200160002060006101000a81548160ff02191690831515021790555050565b600033905090565b600160009054906101000a900473ffffffffffffffffffffffffffffffffffffffff1673ffffffffffffffffffffffffffffffffffffffff16620002646200021360201b60201c565b73ffffffffffffffffffffffffffffffffffffffff1614620002bd576040517f08c379a0000000000000000000000000000000000000000000000000000000008152600401620002b49062000551565b60405180910390fd5b80600260006101000a81548173ffffffffffffffffffffffffffffffffffffffff021916908373ffffffffffffffffffffffffffffffffffffffff16021790555050565b828054600181600116156101000203166002900490600052602060002090601f016020900481019282601f106200034457805160ff191683800117855562000375565b8280016001018555821562000375579182015b828111156200037457825182559160200191906001019062000357565b5b50905062000384919062000388565b5090565b620003ad91905b80821115620003a95760008160009055506001016200038f565b5090565b90565b600081519050620003c18162000649565b92915050565b600082601f830112620003d957600080fd5b8151620003f0620003ea82620005a1565b62000573565b915080825260208301602083018583830111156200040d57600080fd5b6200041a83828462000613565b50505092915050565b6000806000606084860312156200043957600080fd5b600084015167ffffffffffffffff8111156200045457600080fd5b6200046286828701620003c7565b935050602084015167ffffffffffffffff8111156200048057600080fd5b6200048e86828701620003c7565b9250506040620004a186828701620003b0565b9150509250925092565b6000620004ba601c83620005ce565b91507f4552433136353a20696e76616c696420696e74657266616365206964000000006000830152602082019050919050565b6000620004fc601b83620005ce565b91507f4552433732313a2063616c6c6572206973206e6f74206f776e657200000000006000830152602082019050919050565b600060208201905081810360008301526200054a81620004ab565b9050919050565b600060208201905081810360008301526200056c81620004ed565b9050919050565b6000604051905081810181811067ffffffffffffffff821117156200059757600080fd5b8060405250919050565b600067ffffffffffffffff821115620005b957600080fd5b601f19601f8301169050602081019050919050565b600082825260208201905092915050565b6000620005ec82620005f3565b9050919050565b600073ffffffffffffffffffffffffffffffffffffffff82169050919050565b60005b838110156200063357808201518184015260208101905062000616565b8381111562000643576000848401525b50505050565b6200065481620005df565b81146200066057600080fd5b50565b6152e180620006736000396000f3fe608060405234801561001057600080fd5b50600436106101fb5760003560e01c80637b1039991161011a578063b88d4fde116100ad578063c9ef79ad1161007c578063c9ef79ad146105fc578063dc6fd7101461062c578063e5c249241461065c578063e985e9c514610691578063f2fde38b146106c1576101fb565b8063b88d4fde14610564578063c57a882514610580578063c87b56dd1461059c578063c88e5dc5146105cc576101fb565b806395d89b41116100e957806395d89b41146104ca578063a22cb465146104e8578063a4ede12814610504578063aa271e1a14610534576101fb565b80637b103999146104545780638456cb59146104725780638462151c1461047c5780638da5cb5b146104ac576101fb565b80633af32abf116101925780635c975abb116101615780635c975abb146103a65780636352211e146103c457806370a08231146103f45780637affcb9a14610424576101fb565b80633af32abf146103345780633f4ba83a1461036457806342842e0e1461036e57806342966c681461038a576101fb565b806318160ddd116101ce57806318160ddd1461029a5780631b2daa70146102b857806323b872dd146102e857806323c5bd8614610304576101fb565b806301ffc9a71461020057806306fdde0314610230578063081812fc1461024e578063095ea7b31461027e575b600080fd5b61021a60048036036102159190810190613d2b565b6106dd565b6040516102279190614c65565b60405180910390f35b610238610744565b6040516102459190614c9b565b60405180910390f35b61026860048036036102639190810190613fc6565b6107e6565b6040516102759190614b4b565b60405180910390f35b61029860048036036102939190810190613cc6565b61086b565b005b6102a2610a8f565b6040516102af9190614fbd565b60405180910390f35b6102d260048036036102cd9190810190613e24565b610aa0565b6040516102df9190614fbd565b60405180910390f35b61030260048036036102fd9190810190613b68565b610b86565b005b61031e60048036036103199190810190613ef5565b610c90565b60405161032b9190614fbd565b60405180910390f35b61034e60048036036103499190810190613b03565b610d7f565b60405161035b9190614c65565b60405180910390f35b61036c610e33565b005b61038860048036036103839190810190613b68565b610f00565b005b6103a4600480360361039f9190810190613fc6565b610f20565b005b6103ae610f96565b6040516103bb9190614c65565b60405180910390f35b6103de60048036036103d99190810190613fc6565b610fa9565b6040516103eb9190614b4b565b60405180910390f35b61040e60048036036104099190810190613b03565b61105b565b60405161041b9190614fbd565b60405180910390f35b61043e60048036036104399190810190613c6e565b61111a565b60405161044b9190614c21565b60405180910390f35b61045c611302565b6040516104699190614c80565b60405180910390f35b61047a611328565b005b61049660048036036104919190810190613b03565b6113f6565b6040516104a39190614c43565b60405180910390f35b6104b461153e565b6040516104c19190614b4b565b60405180910390f35b6104d2611564565b6040516104df9190614c9b565b60405180910390f35b61050260048036036104fd9190810190613c32565b611606565b005b61051e60048036036105199190810190613b03565b6117f0565b60405161052b9190614c21565b60405180910390f35b61054e60048036036105499190810190613b03565b6119b8565b60405161055b9190614c65565b60405180910390f35b61057e60048036036105799190810190613bb7565b6119ca565b005b61059a60048036036105959190810190613b03565b611ad6565b005b6105b660048036036105b19190810190613fc6565b611bb1565b6040516105c39190614c9b565b60405180910390f35b6105e660048036036105e19190810190613ef5565b611cae565b6040516105f39190614fbd565b60405180910390f35b61061660048036036106119190810190613d7d565b611d9d565b6040516106239190614fbd565b60405180910390f35b61064660048036036106419190810190613d7d565b611e81565b6040516106539190614fbd565b60405180910390f35b61067660048036036106719190810190613fc6565b611f65565b60405161068896959493929190614bb2565b60405180910390f35b6106ab60048036036106a69190810190613b2c565b6121e2565b6040516106b89190614c65565b60405180910390f35b6106db60048036036106d69190810190613b03565b612276565b005b6000806000837bffffffffffffffffffffffffffffffffffffffffffffffffffffffff19167bffffffffffffffffffffffffffffffffffffffffffffffffffffffff1916815260200190815260200160002060009054906101000a900460ff169050919050565b6060600d8054600181600116156101000203166002900480601f0160208091040260200160405190810160405280929190818152602001828054600181600116156101000203166002900480156107dc5780601f106107b1576101008083540402835291602001916107dc565b820191906000526020600020905b8154815290600101906020018083116107bf57829003601f168201915b5050505050905090565b60006107f182612386565b610830576040517f08c379a000000000000000000000000000000000000000000000000000000000815260040161082790614e7d565b60405180910390fd5b600a600083815260200190815260200160002060009054906101000a900473ffffffffffffffffffffffffffffffffffffffff169050919050565b61087b6108766123f8565b610d7f565b6108ba576040517f08c379a00000000000000000000000000000000000000000000000000000000081526004016108b190614f9d565b60405180910390fd5b600c60009054906101000a900460ff16156108d457600080fd5b60006108df82610fa9565b90508073ffffffffffffffffffffffffffffffffffffffff168373ffffffffffffffffffffffffffffffffffffffff161415610950576040517f08c379a000000000000000000000000000000000000000000000000000000000815260040161094790614ebd565b60405180910390fd5b8073ffffffffffffffffffffffffffffffffffffffff1661096f6123f8565b73ffffffffffffffffffffffffffffffffffffffff16148061099e575061099d816109986123f8565b6121e2565b5b6109dd576040517f08c379a00000000000000000000000000000000000000000000000000000000081526004016109d490614e1d565b60405180910390fd5b82600a600084815260200190815260200160002060006101000a81548173ffffffffffffffffffffffffffffffffffffffff021916908373ffffffffffffffffffffffffffffffffffffffff160217905550818373ffffffffffffffffffffffffffffffffffffffff168273ffffffffffffffffffffffffffffffffffffffff167f8c5be1e5ebec7d5bd14f71427d1e84f3dd0314c0f7b2291e5b200ac8c7c3b92560405160405180910390a4505050565b6000610a9b6003612400565b905090565b6000610ab2610aad6123f8565b6119b8565b610af1576040517f08c379a0000000000000000000000000000000000000000000000000000000008152600401610ae890614cdd565b60405180910390fd5b600c60009054906101000a900460ff1615610b0b57600080fd5b610b1687868661240e565b610b55576040517f08c379a0000000000000000000000000000000000000000000000000000000008152600401610b4c90614dbd565b60405180910390fd5b6000610b68610b626123f8565b84612557565b9050610b788189898989896125bb565b809150509695505050505050565b600c60009054906101000a900460ff1615610ba057600080fd5b610bb1610bab6123f8565b82612902565b610bf0576040517f08c379a0000000000000000000000000000000000000000000000000000000008152600401610be790614edd565b60405180910390fd5b610bf983610d7f565b610c38576040517f08c379a0000000000000000000000000000000000000000000000000000000008152600401610c2f90614d7d565b60405180910390fd5b610c4182610d7f565b610c80576040517f08c379a0000000000000000000000000000000000000000000000000000000008152600401610c7790614d7d565b60405180910390fd5b610c8b8383836129e0565b505050565b6000610ca2610c9d6123f8565b6119b8565b610ce1576040517f08c379a0000000000000000000000000000000000000000000000000000000008152600401610cd890614cdd565b60405180910390fd5b600c60009054906101000a900460ff1615610cfb57600080fd5b610d0687868661240e565b610d45576040517f08c379a0000000000000000000000000000000000000000000000000000000008152600401610d3c90614dbd565b60405180910390fd5b6000610d57610d526123f8565b612c0f565b9050610d678189898989896125bb565b610d718184612d96565b809150509695505050505050565b6000600260009054906101000a900473ffffffffffffffffffffffffffffffffffffffff1673ffffffffffffffffffffffffffffffffffffffff16633af32abf836040518263ffffffff1660e01b8152600401610ddc9190614b4b565b60206040518083038186803b158015610df457600080fd5b505afa158015610e08573d6000803e3d6000fd5b505050506040513d601f19601f82011682018060405250610e2c9190810190613d02565b9050919050565b600160009054906101000a900473ffffffffffffffffffffffffffffffffffffffff1673ffffffffffffffffffffffffffffffffffffffff16610e746123f8565b73ffffffffffffffffffffffffffffffffffffffff1614610eca576040517f08c379a0000000000000000000000000000000000000000000000000000000008152600401610ec190614f3d565b60405180910390fd5b600c60009054906101000a900460ff16610ee357600080fd5b6000600c60006101000a81548160ff021916908315150217905550565b610f1b838383604051806020016040528060008152506119ca565b505050565b600c60009054906101000a900460ff1615610f3a57600080fd5b610f4b610f456123f8565b82612902565b610f8a576040517f08c379a0000000000000000000000000000000000000000000000000000000008152600401610f8190614f5d565b60405180910390fd5b610f9381612e0a565b50565b600c60009054906101000a900460ff1681565b6000806004600084815260200190815260200160002060009054906101000a900473ffffffffffffffffffffffffffffffffffffffff169050600073ffffffffffffffffffffffffffffffffffffffff168173ffffffffffffffffffffffffffffffffffffffff161415611052576040517f08c379a000000000000000000000000000000000000000000000000000000000815260040161104990614e5d565b60405180910390fd5b80915050919050565b60008073ffffffffffffffffffffffffffffffffffffffff168273ffffffffffffffffffffffffffffffffffffffff1614156110cc576040517f08c379a00000000000000000000000000000000000000000000000000000000081526004016110c390614dfd565b60405180910390fd5b611113600560008473ffffffffffffffffffffffffffffffffffffffff1673ffffffffffffffffffffffffffffffffffffffff168152602001908152602001600020612400565b9050919050565b606080600760008673ffffffffffffffffffffffffffffffffffffffff1673ffffffffffffffffffffffffffffffffffffffff168152602001908152602001600020848460405161116c929190614b1b565b9081526020016040518091039020805480602002602001604051908101604052809291908181526020016000905b8282101561126a57838290600052602060002001604051806020016040529081600082018054600181600116156101000203166002900480601f0160208091040260200160405190810160405280929190818152602001828054600181600116156101000203166002900480156112525780601f1061122757610100808354040283529160200191611252565b820191906000526020600020905b81548152906001019060200180831161123557829003601f168201915b5050505050815250508152602001906001019061119a565b505050509050606081516040519080825280602002602001820160405280156112a757816020015b60608152602001906001900390816112925790505b50905060008090505b82518110156112f5578281815181106112c557fe5b6020026020010151600001518282815181106112dd57fe5b602002602001018190525080806001019150506112b0565b5080925050509392505050565b600260009054906101000a900473ffffffffffffffffffffffffffffffffffffffff1681565b600160009054906101000a900473ffffffffffffffffffffffffffffffffffffffff1673ffffffffffffffffffffffffffffffffffffffff166113696123f8565b73ffffffffffffffffffffffffffffffffffffffff16146113bf576040517f08c379a00000000000000000000000000000000000000000000000000000000081526004016113b690614f3d565b60405180910390fd5b600c60009054906101000a900460ff16156113d957600080fd5b6001600c60006101000a81548160ff021916908315150217905550565b606060006114038361105b565b9050600081141561144757600060405190808252806020026020018201604052801561143e5781602001602082028038833980820191505090505b50915050611539565b6060816040519080825280602002602001820160405280156114785781602001602082028038833980820191505090505b5090506000611485610a8f565b905060008090506000600190505b828111611530578673ffffffffffffffffffffffffffffffffffffffff166004600083815260200190815260200160002060009054906101000a900473ffffffffffffffffffffffffffffffffffffffff1673ffffffffffffffffffffffffffffffffffffffff161415611523578084838151811061150e57fe5b60200260200101818152505081806001019250505b8080600101915050611493565b83955050505050505b919050565b600160009054906101000a900473ffffffffffffffffffffffffffffffffffffffff1681565b6060600e8054600181600116156101000203166002900480601f0160208091040260200160405190810160405280929190818152602001828054600181600116156101000203166002900480156115fc5780601f106115d1576101008083540402835291602001916115fc565b820191906000526020600020905b8154815290600101906020018083116115df57829003601f168201915b5050505050905090565b6116166116116123f8565b610d7f565b611655576040517f08c379a000000000000000000000000000000000000000000000000000000000815260040161164c90614f9d565b60405180910390fd5b600c60009054906101000a900460ff161561166f57600080fd5b6116776123f8565b73ffffffffffffffffffffffffffffffffffffffff168273ffffffffffffffffffffffffffffffffffffffff1614156116e5576040517f08c379a00000000000000000000000000000000000000000000000000000000081526004016116dc90614d3d565b60405180910390fd5b80600b60006116f26123f8565b73ffffffffffffffffffffffffffffffffffffffff1673ffffffffffffffffffffffffffffffffffffffff16815260200190815260200160002060008473ffffffffffffffffffffffffffffffffffffffff1673ffffffffffffffffffffffffffffffffffffffff16815260200190815260200160002060006101000a81548160ff0219169083151502179055508173ffffffffffffffffffffffffffffffffffffffff1661179f6123f8565b73ffffffffffffffffffffffffffffffffffffffff167f17307eab39ab6107e8899845ad3d59bd9653f200f220920489ca2b5937696c31836040516117e49190614c65565b60405180910390a35050565b606080600860008473ffffffffffffffffffffffffffffffffffffffff1673ffffffffffffffffffffffffffffffffffffffff168152602001908152602001600020805480602002602001604051908101604052809291908181526020016000905b8282101561192257838290600052602060002001604051806020016040529081600082018054600181600116156101000203166002900480601f01602080910402602001604051908101604052809291908181526020018280546001816001161561010002031660029004801561190a5780601f106118df5761010080835404028352916020019161190a565b820191906000526020600020905b8154815290600101906020018083116118ed57829003601f168201915b50505050508152505081526020019060010190611852565b5050505090506060815160405190808252806020026020018201604052801561195f57816020015b606081526020019060019003908161194a5790505b50905060008090505b82518110156119ad5782818151811061197d57fe5b60200260200101516000015182828151811061199557fe5b60200260200101819052508080600101915050611968565b508092505050919050565b60006119c382610d7f565b9050919050565b600c60009054906101000a900460ff16156119e457600080fd5b6119ed84610d7f565b611a2c576040517f08c379a0000000000000000000000000000000000000000000000000000000008152600401611a2390614d7d565b60405180910390fd5b611a3583610d7f565b611a74576040517f08c379a0000000000000000000000000000000000000000000000000000000008152600401611a6b90614d7d565b60405180910390fd5b611a85611a7f6123f8565b83612902565b611ac4576040517f08c379a0000000000000000000000000000000000000000000000000000000008152600401611abb90614edd565b60405180910390fd5b611ad084848484612e1f565b50505050565b600160009054906101000a900473ffffffffffffffffffffffffffffffffffffffff1673ffffffffffffffffffffffffffffffffffffffff16611b176123f8565b73ffffffffffffffffffffffffffffffffffffffff1614611b6d576040517f08c379a0000000000000000000000000000000000000000000000000000000008152600401611b6490614f3d565b60405180910390fd5b80600260006101000a81548173ffffffffffffffffffffffffffffffffffffffff021916908373ffffffffffffffffffffffffffffffffffffffff16021790555050565b6060611bbc82612386565b611bfb576040517f08c379a0000000000000000000000000000000000000000000000000000000008152600401611bf290614f7d565b60405180910390fd5b600960008381526020019081526020016000208054600181600116156101000203166002900480601f016020809104026020016040519081016040528092919081815260200182805460018160011615610100020316600290048015611ca25780601f10611c7757610100808354040283529160200191611ca2565b820191906000526020600020905b815481529060010190602001808311611c8557829003601f168201915b50505050509050919050565b6000611cc0611cbb6123f8565b6119b8565b611cff576040517f08c379a0000000000000000000000000000000000000000000000000000000008152600401611cf690614cdd565b60405180910390fd5b600c60009054906101000a900460ff1615611d1957600080fd5b611d2487868661240e565b611d63576040517f08c379a0000000000000000000000000000000000000000000000000000000008152600401611d5a90614dbd565b60405180910390fd5b6000611d75611d706123f8565b612e7b565b9050611d858189898989896125bb565b611d8f8184612d96565b809150509695505050505050565b6000611daf611daa6123f8565b6119b8565b611dee576040517f08c379a0000000000000000000000000000000000000000000000000000000008152600401611de590614cdd565b60405180910390fd5b600c60009054906101000a900460ff1615611e0857600080fd5b611e1386858561240e565b611e52576040517f08c379a0000000000000000000000000000000000000000000000000000000008152600401611e4990614dbd565b60405180910390fd5b6000611e64611e5f6123f8565b612e7b565b9050611e748188888888886125bb565b8091505095945050505050565b6000611e93611e8e6123f8565b6119b8565b611ed2576040517f08c379a0000000000000000000000000000000000000000000000000000000008152600401611ec990614cdd565b60405180910390fd5b600c60009054906101000a900460ff1615611eec57600080fd5b611ef786858561240e565b611f36576040517f08c379a0000000000000000000000000000000000000000000000000000000008152600401611f2d90614dbd565b60405180910390fd5b6000611f48611f436123f8565b612c0f565b9050611f588188888888886125bb565b8091505095945050505050565b60006060806000806000611f7887612386565b611fb7576040517f08c379a0000000000000000000000000000000000000000000000000000000008152600401611fae90614d9d565b60405180910390fd5b6006600088815260200190815260200160002060000160009054906101000a900473ffffffffffffffffffffffffffffffffffffffff1660066000898152602001908152602001600020600101600660008a8152602001908152602001600020600201600660008b815260200190815260200160002060030160009054906101000a900465ffffffffffff16600660008c815260200190815260200160002060030160069054906101000a900465ffffffffffff16600660008d8152602001908152602001600020600301600c9054906101000a900465ffffffffffff16848054600181600116156101000203166002900480601f01602080910402602001604051908101604052809291908181526020018280546001816001161561010002031660029004801561212a5780601f106120ff5761010080835404028352916020019161212a565b820191906000526020600020905b81548152906001019060200180831161210d57829003601f168201915b50505050509450838054600181600116156101000203166002900480601f0160208091040260200160405190810160405280929190818152602001828054600181600116156101000203166002900480156121c65780601f1061219b576101008083540402835291602001916121c6565b820191906000526020600020905b8154815290600101906020018083116121a957829003601f168201915b5050505050935095509550955095509550955091939550919395565b6000600b60008473ffffffffffffffffffffffffffffffffffffffff1673ffffffffffffffffffffffffffffffffffffffff16815260200190815260200160002060008373ffffffffffffffffffffffffffffffffffffffff1673ffffffffffffffffffffffffffffffffffffffff16815260200190815260200160002060009054906101000a900460ff16905092915050565b600160009054906101000a900473ffffffffffffffffffffffffffffffffffffffff1673ffffffffffffffffffffffffffffffffffffffff166122b76123f8565b73ffffffffffffffffffffffffffffffffffffffff161461230d576040517f08c379a000000000000000000000000000000000000000000000000000000000815260040161230490614f3d565b60405180910390fd5b600073ffffffffffffffffffffffffffffffffffffffff168173ffffffffffffffffffffffffffffffffffffffff16146123835780600160006101000a81548173ffffffffffffffffffffffffffffffffffffffff021916908373ffffffffffffffffffffffffffffffffffffffff1602179055505b50565b6000806004600084815260200190815260200160002060009054906101000a900473ffffffffffffffffffffffffffffffffffffffff169050600073ffffffffffffffffffffffffffffffffffffffff168173ffffffffffffffffffffffffffffffffffffffff161415915050919050565b600033905090565b600081600001549050919050565b6000600260009054906101000a900473ffffffffffffffffffffffffffffffffffffffff1673ffffffffffffffffffffffffffffffffffffffff166347ba747a856040518263ffffffff1660e01b815260040161246b9190614c9b565b60206040518083038186803b15801561248357600080fd5b505afa158015612497573d6000803e3d6000fd5b505050506040513d601f19601f820116820180604052506124bb9190810190613d02565b6124fa576040517f08c379a00000000000000000000000000000000000000000000000000000000081526004016124f190614ddd565b60405180910390fd5b8265ffffffffffff168265ffffffffffff161161254c576040517f08c379a000000000000000000000000000000000000000000000000000000000815260040161254390614cfd565b60405180910390fd5b600190509392505050565b60008061256384612c0f565b90506125726000858386612ea2565b6125b1576040517f08c379a00000000000000000000000000000000000000000000000000000000081526004016125a890614cbd565b60405180910390fd5b8091505092915050565b6125c486612386565b612603576040517f08c379a00000000000000000000000000000000000000000000000000000000081526004016125fa90614f1d565b60405180910390fd5b61260b6137ad565b6040518060c0016040528061261e6123f8565b73ffffffffffffffffffffffffffffffffffffffff1681526020018781526020018681526020018565ffffffffffff1681526020018465ffffffffffff1681526020018365ffffffffffff168152509050806006600089815260200190815260200160002060008201518160000160006101000a81548173ffffffffffffffffffffffffffffffffffffffff021916908373ffffffffffffffffffffffffffffffffffffffff16021790555060208201518160010190805190602001906126e6929190613811565b506040820151816002019080519060200190612703929190613811565b5060608201518160030160006101000a81548165ffffffffffff021916908365ffffffffffff16021790555060808201518160030160066101000a81548165ffffffffffff021916908365ffffffffffff16021790555060a082015181600301600c6101000a81548165ffffffffffff021916908365ffffffffffff16021790555090505061279186612fc0565b61283257600860006127a16123f8565b73ffffffffffffffffffffffffffffffffffffffff1673ffffffffffffffffffffffffffffffffffffffff168152602001908152602001600020604051806020016040528088815250908060018154018082558091505090600182039060005260206000200160009091929091909150600082015181600001908051906020019061282d929190613811565b505050505b61283c8686613150565b6128f9576007600061284c6123f8565b73ffffffffffffffffffffffffffffffffffffffff1673ffffffffffffffffffffffffffffffffffffffff168152602001908152602001600020866040516128949190614b34565b908152602001604051809103902060405180602001604052808781525090806001815401808255809150509060018203906000526020600020016000909192909190915060008201518160000190805190602001906128f4929190613811565b505050505b50505050505050565b600061290d82612386565b61294c576040517f08c379a000000000000000000000000000000000000000000000000000000000815260040161294390614d5d565b60405180910390fd5b600061295783610fa9565b90508073ffffffffffffffffffffffffffffffffffffffff168473ffffffffffffffffffffffffffffffffffffffff1614806129c657508373ffffffffffffffffffffffffffffffffffffffff166129ae846107e6565b73ffffffffffffffffffffffffffffffffffffffff16145b806129d757506129d681856121e2565b5b91505092915050565b8273ffffffffffffffffffffffffffffffffffffffff16612a0082610fa9565b73ffffffffffffffffffffffffffffffffffffffff1614612a56576040517f08c379a0000000000000000000000000000000000000000000000000000000008152600401612a4d90614e9d565b60405180910390fd5b600073ffffffffffffffffffffffffffffffffffffffff168273ffffffffffffffffffffffffffffffffffffffff161415612ac6576040517f08c379a0000000000000000000000000000000000000000000000000000000008152600401612abd90614d1d565b60405180910390fd5b612acf816132fd565b612b16600560008573ffffffffffffffffffffffffffffffffffffffff1673ffffffffffffffffffffffffffffffffffffffff1681526020019081526020016000206133bb565b612b5d600560008473ffffffffffffffffffffffffffffffffffffffff1673ffffffffffffffffffffffffffffffffffffffff1681526020019081526020016000206133de565b816004600083815260200190815260200160002060006101000a81548173ffffffffffffffffffffffffffffffffffffffff021916908373ffffffffffffffffffffffffffffffffffffffff160217905550808273ffffffffffffffffffffffffffffffffffffffff168473ffffffffffffffffffffffffffffffffffffffff167fddf252ad1be2c89b69c2b068fc378daa952ba7f163c4a11628f55a4df523b3ef60405160405180910390a4505050565b60008073ffffffffffffffffffffffffffffffffffffffff168273ffffffffffffffffffffffffffffffffffffffff161415612c80576040517f08c379a0000000000000000000000000000000000000000000000000000000008152600401612c7790614e3d565b60405180910390fd5b612c8a60036133de565b6000612c966003612400565b9050826004600083815260200190815260200160002060006101000a81548173ffffffffffffffffffffffffffffffffffffffff021916908373ffffffffffffffffffffffffffffffffffffffff160217905550612d31600560008573ffffffffffffffffffffffffffffffffffffffff1673ffffffffffffffffffffffffffffffffffffffff1681526020019081526020016000206133de565b808373ffffffffffffffffffffffffffffffffffffffff16600073ffffffffffffffffffffffffffffffffffffffff167fddf252ad1be2c89b69c2b068fc378daa952ba7f163c4a11628f55a4df523b3ef60405160405180910390a480915050919050565b612d9f82612386565b612dde576040517f08c379a0000000000000000000000000000000000000000000000000000000008152600401612dd590614f1d565b60405180910390fd5b80600960008481526020019081526020016000209080519060200190612e05929190613891565b505050565b612e1c612e1682610fa9565b826133f4565b50565b612e2a8484846129e0565b612e3684848484612ea2565b612e75576040517f08c379a0000000000000000000000000000000000000000000000000000000008152600401612e6c90614cbd565b60405180910390fd5b50505050565b600080612e978360405180602001604052806000815250612557565b905080915050919050565b6000612ec38473ffffffffffffffffffffffffffffffffffffffff16613664565b612ed05760019050612fb8565b60008473ffffffffffffffffffffffffffffffffffffffff1663150b7a02612ef66123f8565b8887876040518563ffffffff1660e01b8152600401612f189493929190614b66565b602060405180830381600087803b158015612f3257600080fd5b505af1158015612f46573d6000803e3d6000fd5b505050506040513d601f19601f82011682018060405250612f6a9190810190613d54565b905063150b7a0260e01b7bffffffffffffffffffffffffffffffffffffffffffffffffffffffff1916817bffffffffffffffffffffffffffffffffffffffffffffffffffffffff1916149150505b949350505050565b60006060600860003373ffffffffffffffffffffffffffffffffffffffff1673ffffffffffffffffffffffffffffffffffffffff168152602001908152602001600020805480602002602001604051908101604052809291908181526020016000905b828210156130f357838290600052602060002001604051806020016040529081600082018054600181600116156101000203166002900480601f0160208091040260200160405190810160405280929190818152602001828054600181600116156101000203166002900480156130db5780601f106130b0576101008083540402835291602001916130db565b820191906000526020600020905b8154815290600101906020018083116130be57829003601f168201915b50505050508152505081526020019060010190613023565b505050509050600080905060008090505b82518110156131455761312e8584838151811061311d57fe5b6020026020010151600001516136af565b1561313857600191505b8080600101915050613104565b508092505050919050565b60006060600760003373ffffffffffffffffffffffffffffffffffffffff1673ffffffffffffffffffffffffffffffffffffffff168152602001908152602001600020846040516131a19190614b34565b9081526020016040518091039020805480602002602001604051908101604052809291908181526020016000905b8282101561329f57838290600052602060002001604051806020016040529081600082018054600181600116156101000203166002900480601f0160208091040260200160405190810160405280929190818152602001828054600181600116156101000203166002900480156132875780601f1061325c57610100808354040283529160200191613287565b820191906000526020600020905b81548152906001019060200180831161326a57829003601f168201915b505050505081525050815260200190600101906131cf565b505050509050600080905060008090505b82518110156132f1576132da858483815181106132c957fe5b6020026020010151600001516136af565b156132e457600191505b80806001019150506132b0565b50809250505092915050565b600073ffffffffffffffffffffffffffffffffffffffff16600a600083815260200190815260200160002060009054906101000a900473ffffffffffffffffffffffffffffffffffffffff1673ffffffffffffffffffffffffffffffffffffffff16146133b8576000600a600083815260200190815260200160002060006101000a81548173ffffffffffffffffffffffffffffffffffffffff021916908373ffffffffffffffffffffffffffffffffffffffff1602179055505b50565b6133d36001826000015461370890919063ffffffff16565b816000018190555050565b6001816000016000828254019250508190555050565b8173ffffffffffffffffffffffffffffffffffffffff1661341482610fa9565b73ffffffffffffffffffffffffffffffffffffffff161461346a576040517f08c379a000000000000000000000000000000000000000000000000000000000815260040161346190614efd565b60405180910390fd5b613473816132fd565b6134ba600560008473ffffffffffffffffffffffffffffffffffffffff1673ffffffffffffffffffffffffffffffffffffffff1681526020019081526020016000206133bb565b60006004600083815260200190815260200160002060006101000a81548173ffffffffffffffffffffffffffffffffffffffff021916908373ffffffffffffffffffffffffffffffffffffffff1602179055506000600960008381526020019081526020016000208054600181600116156101000203166002900490501461355c5760096000828152602001908152602001600020600061355b9190613911565b5b60066000828152602001908152602001600020600080820160006101000a81549073ffffffffffffffffffffffffffffffffffffffff02191690556001820160006135a79190613911565b6002820160006135b79190613911565b6003820160006101000a81549065ffffffffffff02191690556003820160066101000a81549065ffffffffffff021916905560038201600c6101000a81549065ffffffffffff0219169055505080600073ffffffffffffffffffffffffffffffffffffffff168373ffffffffffffffffffffffffffffffffffffffff167fddf252ad1be2c89b69c2b068fc378daa952ba7f163c4a11628f55a4df523b3ef60405160405180910390a45050565b60008060007fc5d2460186f7233c927e7db2dcc703c0e500b653ca82273b7bfad8045d85a47060001b9050833f91506000801b82141580156136a65750808214155b92505050919050565b6000816040516020016136c29190614b34565b60405160208183030381529060405280519060200120836040516020016136e99190614b34565b6040516020818303038152906040528051906020012014905092915050565b600061374a83836040518060400160405280601e81526020017f536166654d6174683a207375627472616374696f6e206f766572666c6f770000815250613752565b905092915050565b600083831115829061379a576040517f08c379a00000000000000000000000000000000000000000000000000000000081526004016137919190614c9b565b60405180910390fd5b5060008385039050809150509392505050565b6040518060c00160405280600073ffffffffffffffffffffffffffffffffffffffff1681526020016060815260200160608152602001600065ffffffffffff168152602001600065ffffffffffff168152602001600065ffffffffffff1681525090565b828054600181600116156101000203166002900490600052602060002090601f016020900481019282601f1061385257805160ff1916838001178555613880565b82800160010185558215613880579182015b8281111561387f578251825591602001919060010190613864565b5b50905061388d9190613959565b5090565b828054600181600116156101000203166002900490600052602060002090601f016020900481019282601f106138d257805160ff1916838001178555613900565b82800160010185558215613900579182015b828111156138ff5782518255916020019190600101906138e4565b5b50905061390d9190613959565b5090565b50805460018160011615610100020316600290046000825580601f106139375750613956565b601f0160209004906000526020600020908101906139559190613959565b5b50565b61397b91905b8082111561397757600081600090555060010161395f565b5090565b90565b60008135905061398d8161522b565b92915050565b6000813590506139a281615242565b92915050565b6000815190506139b781615242565b92915050565b6000813590506139cc81615259565b92915050565b6000815190506139e181615259565b92915050565b600082601f8301126139f857600080fd5b8135613a0b613a0682615005565b614fd8565b91508082526020830160208301858383011115613a2757600080fd5b613a328382846151d8565b50505092915050565b60008083601f840112613a4d57600080fd5b8235905067ffffffffffffffff811115613a6657600080fd5b602083019150836001820283011115613a7e57600080fd5b9250929050565b600082601f830112613a9657600080fd5b8135613aa9613aa482615031565b614fd8565b91508082526020830160208301858383011115613ac557600080fd5b613ad08382846151d8565b50505092915050565b600081359050613ae881615270565b92915050565b600081359050613afd81615287565b92915050565b600060208284031215613b1557600080fd5b6000613b238482850161397e565b91505092915050565b60008060408385031215613b3f57600080fd5b6000613b4d8582860161397e565b9250506020613b5e8582860161397e565b9150509250929050565b600080600060608486031215613b7d57600080fd5b6000613b8b8682870161397e565b9350506020613b9c8682870161397e565b9250506040613bad86828701613ad9565b9150509250925092565b60008060008060808587031215613bcd57600080fd5b6000613bdb8782880161397e565b9450506020613bec8782880161397e565b9350506040613bfd87828801613ad9565b925050606085013567ffffffffffffffff811115613c1a57600080fd5b613c26878288016139e7565b91505092959194509250565b60008060408385031215613c4557600080fd5b6000613c538582860161397e565b9250506020613c6485828601613993565b9150509250929050565b600080600060408486031215613c8357600080fd5b6000613c918682870161397e565b935050602084013567ffffffffffffffff811115613cae57600080fd5b613cba86828701613a3b565b92509250509250925092565b60008060408385031215613cd957600080fd5b6000613ce78582860161397e565b9250506020613cf885828601613ad9565b9150509250929050565b600060208284031215613d1457600080fd5b6000613d22848285016139a8565b91505092915050565b600060208284031215613d3d57600080fd5b6000613d4b848285016139bd565b91505092915050565b600060208284031215613d6657600080fd5b6000613d74848285016139d2565b91505092915050565b600080600080600060a08688031215613d9557600080fd5b600086013567ffffffffffffffff811115613daf57600080fd5b613dbb88828901613a85565b955050602086013567ffffffffffffffff811115613dd857600080fd5b613de488828901613a85565b9450506040613df588828901613aee565b9350506060613e0688828901613aee565b9250506080613e1788828901613aee565b9150509295509295909350565b60008060008060008060c08789031215613e3d57600080fd5b600087013567ffffffffffffffff811115613e5757600080fd5b613e6389828a01613a85565b965050602087013567ffffffffffffffff811115613e8057600080fd5b613e8c89828a01613a85565b9550506040613e9d89828a01613aee565b9450506060613eae89828a01613aee565b9350506080613ebf89828a01613aee565b92505060a087013567ffffffffffffffff811115613edc57600080fd5b613ee889828a016139e7565b9150509295509295509295565b60008060008060008060c08789031215613f0e57600080fd5b600087013567ffffffffffffffff811115613f2857600080fd5b613f3489828a01613a85565b965050602087013567ffffffffffffffff811115613f5157600080fd5b613f5d89828a01613a85565b9550506040613f6e89828a01613aee565b9450506060613f7f89828a01613aee565b9350506080613f9089828a01613aee565b92505060a087013567ffffffffffffffff811115613fad57600080fd5b613fb989828a01613a85565b9150509295509295509295565b600060208284031215613fd857600080fd5b6000613fe684828501613ad9565b91505092915050565b6000613ffb83836141e3565b905092915050565b600061400f8383614aee565b60208301905092915050565b6140248161512e565b82525050565b60006140358261507d565b61403f81856150ce565b9350836020820285016140518561505d565b8060005b8581101561408d578484038952815161406e8582613fef565b9450614079836150b4565b925060208a01995050600181019050614055565b50829750879550505050505092915050565b60006140aa82615088565b6140b481856150df565b93506140bf8361506d565b8060005b838110156140f05781516140d78882614003565b97506140e2836150c1565b9250506001810190506140c3565b5085935050505092915050565b61410681615140565b82525050565b600061411782615093565b61412181856150f0565b93506141318185602086016151e7565b61413a8161521a565b840191505092915050565b61414e816151b4565b82525050565b60006141608385615123565b935061416d8385846151d8565b82840190509392505050565b6000614184826150a9565b61418e8185615112565b935061419e8185602086016151e7565b6141a78161521a565b840191505092915050565b60006141bd826150a9565b6141c78185615123565b93506141d78185602086016151e7565b80840191505092915050565b60006141ee8261509e565b6141f88185615101565b93506142088185602086016151e7565b6142118161521a565b840191505092915050565b6000614229603283615112565b91507f4552433732313a207472616e7366657220746f206e6f6e20455243373231526560008301527f63656976657220696d706c656d656e74657200000000000000000000000000006020830152604082019050919050565b600061428f603583615112565b91507f4552433732313a2063616c6c6572206973206e6f742077686974656c6973746560008301527f6420666f7220746865204d696e74657220726f6c6500000000000000000000006020830152604082019050919050565b60006142f5602a83615112565b91507f4552433732313a2073746172742074696d65206d757374206265206265666f7260008301527f6520656e642074696d65000000000000000000000000000000000000000000006020830152604082019050919050565b600061435b602483615112565b91507f4552433732313a207472616e7366657220746f20746865207a65726f2061646460008301527f72657373000000000000000000000000000000000000000000000000000000006020830152604082019050919050565b60006143c1601983615112565b91507f4552433732313a20617070726f766520746f2063616c6c6572000000000000006000830152602082019050919050565b6000614401602c83615112565b91507f4552433732313a206f70657261746f7220717565727920666f72206e6f6e657860008301527f697374656e7420746f6b656e00000000000000000000000000000000000000006020830152604082019050919050565b6000614467603483615112565b91507f4552433732313a207472616e73666572207265737472696374656420746f207760008301527f686974656c6973746564206164647265737365730000000000000000000000006020830152604082019050919050565b60006144cd603083615112565b91507f4552433732313a2054696d6520736c6f7420717565727920666f72206e6f6e6560008301527f78697374656e7420746f6b656e206964000000000000000000000000000000006020830152604082019050919050565b6000614533601983615112565b91507f4552433732313a20696e76616c69642074696d6520736c6f74000000000000006000830152602082019050919050565b6000614573602e83615112565b91507f4552433732313a20636f6e74656e74206964206973206e6f742072656769737460008301527f6572656420746f2063616c6c65720000000000000000000000000000000000006020830152604082019050919050565b60006145d9602a83615112565b91507f4552433732313a2062616c616e636520717565727920666f7220746865207a6560008301527f726f2061646472657373000000000000000000000000000000000000000000006020830152604082019050919050565b600061463f603e83615112565b91507f4552433732313a20617070726f76652063616c6c6572206973206e6f7420746f60008301527f6b656e206f776e6572206e6f7220617070726f76656420666f7220616c6c00006020830152604082019050919050565b60006146a5602083615112565b91507f4552433732313a206d696e7420746f20746865207a65726f20616464726573736000830152602082019050919050565b60006146e5602f83615112565b91507f4552433732313a20746f6b656e206f776e657220717565727920666f72206e6f60008301527f6e6578697374656e7420746f6b656e00000000000000000000000000000000006020830152604082019050919050565b600061474b602c83615112565b91507f4552433732313a20617070726f76656420717565727920666f72206e6f6e657860008301527f697374656e7420746f6b656e00000000000000000000000000000000000000006020830152604082019050919050565b60006147b1602983615112565b91507f4552433732313a207472616e73666572206f6620746f6b656e2074686174206960008301527f73206e6f74206f776e00000000000000000000000000000000000000000000006020830152604082019050919050565b6000614817601d83615112565b91507f4552433732313a20617070726f76616c20697320726564756e64616e740000006000830152602082019050919050565b6000614857603183615112565b91507f4552433732313a207472616e736665722063616c6c6572206973206e6f74206f60008301527f776e6572206e6f7220617070726f7665640000000000000000000000000000006020830152604082019050919050565b60006148bd602583615112565b91507f4552433732313a206275726e206f6620746f6b656e2074686174206973206e6f60008301527f74206f776e0000000000000000000000000000000000000000000000000000006020830152604082019050919050565b6000614923602483615112565b91507f4552433732313a2055524920736574206f66206e6f6e6578697374656e74207460008301527f6f6b656e000000000000000000000000000000000000000000000000000000006020830152604082019050919050565b6000614989601b83615112565b91507f4552433732313a2063616c6c6572206973206e6f74206f776e657200000000006000830152602082019050919050565b60006149c9602e83615112565b91507f4552433732313a2063616c6c6572206973206e6f7420746f6b656e206f776e6560008301527f72206e6f7220617070726f7665640000000000000000000000000000000000006020830152604082019050919050565b6000614a2f602783615112565b91507f4552433732313a2055524920717565727920666f72206e6f6e6578697374656e60008301527f7420746f6b656e000000000000000000000000000000000000000000000000006020830152604082019050919050565b6000614a95602183615112565b91507f4552433732313a2063616c6c6572206973206e6f742077686974656c6973746560008301527f64000000000000000000000000000000000000000000000000000000000000006020830152604082019050919050565b614af781615198565b82525050565b614b0681615198565b82525050565b614b15816151a2565b82525050565b6000614b28828486614154565b91508190509392505050565b6000614b4082846141b2565b915081905092915050565b6000602082019050614b60600083018461401b565b92915050565b6000608082019050614b7b600083018761401b565b614b88602083018661401b565b614b956040830185614afd565b8181036060830152614ba7818461410c565b905095945050505050565b600060c082019050614bc7600083018961401b565b8181036020830152614bd98188614179565b90508181036040830152614bed8187614179565b9050614bfc6060830186614b0c565b614c096080830185614b0c565b614c1660a0830184614b0c565b979650505050505050565b60006020820190508181036000830152614c3b818461402a565b905092915050565b60006020820190508181036000830152614c5d818461409f565b905092915050565b6000602082019050614c7a60008301846140fd565b92915050565b6000602082019050614c956000830184614145565b92915050565b60006020820190508181036000830152614cb58184614179565b905092915050565b60006020820190508181036000830152614cd68161421c565b9050919050565b60006020820190508181036000830152614cf681614282565b9050919050565b60006020820190508181036000830152614d16816142e8565b9050919050565b60006020820190508181036000830152614d368161434e565b9050919050565b60006020820190508181036000830152614d56816143b4565b9050919050565b60006020820190508181036000830152614d76816143f4565b9050919050565b60006020820190508181036000830152614d968161445a565b9050919050565b60006020820190508181036000830152614db6816144c0565b9050919050565b60006020820190508181036000830152614dd681614526565b9050919050565b60006020820190508181036000830152614df681614566565b9050919050565b60006020820190508181036000830152614e16816145cc565b9050919050565b60006020820190508181036000830152614e3681614632565b9050919050565b60006020820190508181036000830152614e5681614698565b9050919050565b60006020820190508181036000830152614e76816146d8565b9050919050565b60006020820190508181036000830152614e968161473e565b9050919050565b60006020820190508181036000830152614eb6816147a4565b9050919050565b60006020820190508181036000830152614ed68161480a565b9050919050565b60006020820190508181036000830152614ef68161484a565b9050919050565b60006020820190508181036000830152614f16816148b0565b9050919050565b60006020820190508181036000830152614f3681614916565b9050919050565b60006020820190508181036000830152614f568161497c565b9050919050565b60006020820190508181036000830152614f76816149bc565b9050919050565b60006020820190508181036000830152614f9681614a22565b9050919050565b60006020820190508181036000830152614fb681614a88565b9050919050565b6000602082019050614fd26000830184614afd565b92915050565b6000604051905081810181811067ffffffffffffffff82111715614ffb57600080fd5b8060405250919050565b600067ffffffffffffffff82111561501c57600080fd5b601f19601f8301169050602081019050919050565b600067ffffffffffffffff82111561504857600080fd5b601f19601f8301169050602081019050919050565b6000819050602082019050919050565b6000819050602082019050919050565b600081519050919050565b600081519050919050565b600081519050919050565b600081519050919050565b600081519050919050565b6000602082019050919050565b6000602082019050919050565b600082825260208201905092915050565b600082825260208201905092915050565b600082825260208201905092915050565b600082825260208201905092915050565b600082825260208201905092915050565b600081905092915050565b600061513982615178565b9050919050565b60008115159050919050565b60007fffffffff0000000000000000000000000000000000000000000000000000000082169050919050565b600073ffffffffffffffffffffffffffffffffffffffff82169050919050565b6000819050919050565b600065ffffffffffff82169050919050565b60006151bf826151c6565b9050919050565b60006151d182615178565b9050919050565b82818337600083830152505050565b60005b838110156152055780820151818401526020810190506151ea565b83811115615214576000848401525b50505050565b6000601f19601f8301169050919050565b6152348161512e565b811461523f57600080fd5b50565b61524b81615140565b811461525657600080fd5b50565b6152628161514c565b811461526d57600080fd5b50565b61527981615198565b811461528457600080fd5b50565b615290816151a2565b811461529b57600080fd5b5056fea365627a7a72315820b6228b5e0973afd90735907424dc98ffc68ea3da73989ecfb05e25a263053ee06c6578706572696d656e74616cf564736f6c634300050b0040",
  "source": "pragma solidity ^0.5.11;\npragma experimental ABIEncoderV2;\n\nimport \"./ERC721.sol\";\n\n/**\n * Customized for Microsponsors\n * from Open Zeppelin's ERC721Metadata contract:\n * https://github.com/OpenZeppelin/openzeppelin-contracts/blob/master/contracts/token/ERC721/ERC721Metadata.sol\n */\ncontract Microsponsors is ERC721 {\n\n    // Token name\n    string private _name;\n\n    // Token symbol\n    string private _symbol;\n\n\n    /*\n     *     bytes4(keccak256('name()')) == 0x06fdde03\n     *     bytes4(keccak256('symbol()')) == 0x95d89b41\n     *     bytes4(keccak256('tokenURI(uint256)')) == 0xc87b56dd\n     *\n     *     => 0x06fdde03 ^ 0x95d89b41 ^ 0xc87b56dd == 0x5b5e139f\n     */\n    bytes4 private constant _INTERFACE_ID_ERC721_METADATA = 0x5b5e139f;\n\n    /**\n     * @dev Constructor function\n     */\n    constructor (string memory name, string memory symbol, address registryAddress) public {\n\n        _name = name;\n        _symbol = symbol;\n\n        // register the supported interfaces to conform to ERC721 via ERC165\n        _registerInterface(_INTERFACE_ID_ERC721_METADATA);\n\n        super.updateRegistryAddress(registryAddress);\n\n    }\n\n    /**\n     * @dev Gets the token name.\n     * @return string representing the token name\n     */\n    function name() external view returns (string memory) {\n        return _name;\n    }\n\n    /**\n     * @dev Gets the token symbol.\n     * @return string representing the token symbol\n     */\n    function symbol() external view returns (string memory) {\n        return _symbol;\n    }\n\n}\n",
  "sourcePath": "/Users/lauren/github/erc-721/contracts/Microsponsors.sol",
  "compiler": {
    "name": "solc",
    "version": "0.5.11+commit.c082d0b4.Emscripten.clang"
  },
  "schemaVersion": "3.0.10",
  "updatedAt": "2019-09-13T03:36:11.916Z",
  "devdoc": {
    "methods": {
      "approve(address,uint256)": {
        "details": "Approves another address to transfer the given token ID The zero address indicates there is no approved address. There can only be one approved address per token at a given time. Can only be called by the token owner or an approved operator.",
        "params": {
          "to": "address to be approved for the given token ID",
          "tokenId": "uint256 ID of the token to be approved"
        }
      },
      "balanceOf(address)": {
        "details": "Gets the balance of the specified address.",
        "params": {
          "tokenOwner": "address to query the balance of"
        },
        "return": "uint256 representing the amount owned by the passed address"
      },
      "burn(uint256)": {
        "details": "Burns a specific ERC721 token.",
        "params": {
          "tokenId": "uint256 id of the ERC721 token to be burned."
        }
      },
      "constructor": {
        "details": "Constructor function"
      },
      "getApproved(uint256)": {
        "details": "Gets the approved address for a token ID, or zero if no address set Reverts if the token ID does not exist.",
        "params": {
          "tokenId": "uint256 ID of the token to query the approval of"
        },
        "return": "address currently approved for the given token ID"
      },
      "isApprovedForAll(address,address)": {
        "details": "Tells whether an operator is approved by a given token owner.",
        "params": {
          "operator": "operator address which you want to query the approval of",
          "tokenOwner": "token owner address which you want to query the approval of"
        },
        "return": "bool whether the given operator is approved by the token owner"
      },
      "isMinter(address)": {
        "details": "Checks if minter isWhitelisted()"
      },
      "isWhitelisted(address)": {
        "details": "Checks Registry contract for whitelisted status",
        "params": {
          "target": "The address to check"
        }
      },
      "mint(string,string,uint48,uint48,uint48)": {
        "details": "Function to mint tokens.",
        "return": "tokenId"
      },
      "mintWithTokenURI(string,string,uint48,uint48,uint48,string)": {
        "details": "Function to mint tokens.",
        "params": {
          "tokenURI": "The token URI of the minted token."
        },
        "return": "tokenId"
      },
      "name()": {
        "details": "Gets the token name.",
        "return": "string representing the token name"
      },
      "ownerOf(uint256)": {
        "details": "Gets the owner of the specified token ID.",
        "params": {
          "tokenId": "uint256 ID of the token to query the owner of"
        },
        "return": "address currently marked as the owner of the given token ID"
      },
      "pause()": {
        "details": "Called by contract owner to pause actions on this contract"
      },
      "safeMint(string,string,uint48,uint48,uint48)": {
        "details": "Function to safely mint tokens.",
        "return": "tokenId"
      },
      "safeMint(string,string,uint48,uint48,uint48,bytes)": {
        "details": "Function to safely mint tokens.",
        "params": {
          "data": "bytes data to send along with a safe transfer check."
        },
        "return": "tokenId"
      },
      "safeMintWithTokenURI(string,string,uint48,uint48,uint48,string)": {
        "details": "Function to safely mint tokens.",
        "params": {
          "tokenURI": "The token URI of the minted token."
        },
        "return": "tokenId"
      },
      "safeTransferFrom(address,address,uint256)": {
        "details": "Safely transfers the ownership of a given token ID to another address If the target address is a contract, it must implement {IERC721Receiver-onERC721Received}, which is called upon a safe transfer, and return the magic value `bytes4(keccak256(\"onERC721Received(address,address,uint256,bytes)\"))`; otherwise, the transfer is reverted. Requires the msg.sender to be the owner, approved, or operator",
        "params": {
          "from": "current owner of the token",
          "to": "address to receive the ownership of the given token ID",
          "tokenId": "uint256 ID of the token to be transferred"
        }
      },
      "safeTransferFrom(address,address,uint256,bytes)": {
        "details": "Safely transfers the ownership of a given token ID to another address If the target address is a contract, it must implement {IERC721Receiver-onERC721Received}, which is called upon a safe transfer, and return the magic value `bytes4(keccak256(\"onERC721Received(address,address,uint256,bytes)\"))`; otherwise, the transfer is reverted. Requires the _msgSender() to be the owner, approved, or operator",
        "params": {
          "data": "bytes data to send along with a safe transfer check",
          "from": "current owner of the token",
          "to": "address to receive the ownership of the given token ID",
          "tokenId": "uint256 ID of the token to be transferred"
        }
      },
      "setApprovalForAll(address,bool)": {
        "details": "Sets or unsets the approval of a given operator An operator is allowed to transfer all tokens of the sender on their behalf.",
        "params": {
          "approved": "representing the status of the approval to be set",
          "to": "operator address to set the approval"
        }
      },
      "supportsInterface(bytes4)": {
        "details": "See {IERC165-supportsInterface}.     * Time complexity O(1), guaranteed to always use less than 30 000 gas."
      },
      "symbol()": {
        "details": "Gets the token symbol.",
        "return": "string representing the token symbol"
      },
      "tokenMinterContentIds(address)": {
        "details": "Look up all Content IDs a Minter has tokenized TimeSlots on      We're not grabbing this from the Registry in case the user has private"
      },
      "tokenMinterPropertyNames(address,string)": {
        "details": "Look up all Property Names a Minter has tokenized on a content ID"
      },
      "tokenURI(uint256)": {
        "details": "Returns an URI for a given token ID. Throws if the token ID does not exist. May return an empty string.",
        "params": {
          "tokenId": "uint256 ID of the token to query"
        }
      },
      "tokensOfOwner(address)": {
        "details": "This method MUST NEVER be called by smart contract code. First, it's fairly expensive (it walks the entire _tokenIds array looking for tokens belonging to owner), but it also returns a dynamic array, which is only supported for web3 calls, and not contract-to-contract calls.",
        "params": {
          "tokenOwner": "The owner whose tokens we are interested in."
        }
      },
      "totalSupply()": {
        "details": "Gets the total number of tokens ever minted."
      },
      "transferFrom(address,address,uint256)": {
        "details": "Transfers the ownership of a given token ID to another address. Usage of this method is discouraged, use {safeTransferFrom} whenever possible. Requires the msg.sender to be the owner, approved, or operator.",
        "params": {
          "from": "current owner of the token",
          "to": "address to receive the ownership of the given token ID",
          "tokenId": "uint256 ID of the token to be transferred"
        }
      },
      "unpause()": {
        "details": "Called by contract owner to unpause the smart contract."
      },
      "updateRegistryAddress(address)": {
        "details": "Update address for Microsponsors Registry contract",
        "params": {
          "newAddress": "where the Registry contract lives"
        }
      }
    }
  },
  "userdoc": {
    "methods": {
      "burn(uint256)": {
        "notice": "Customized for Microsponsors"
      },
      "safeMintWithTokenURI(string,string,uint48,uint48,uint48,string)": {
        "notice": "Customized for Microsponsors from https://github.com/OpenZeppelin/openzeppelin-contracts/blob/master/contracts/token/ERC721/ERC721MetadataMintable.sol"
      },
      "unpause()": {
        "notice": "This is public rather than external so it can be called by  derived contracts."
      }
    },
    "notice": "Customized for Microsponsors from Open Zeppelin's ERC721Metadata contract: https://github.com/OpenZeppelin/openzeppelin-contracts/blob/master/contracts/token/ERC721/ERC721Metadata.sol"
  }
}