{
  "contractName": "Microsponsors",
  "abi": [
    {
      "constant": true,
      "inputs": [
        {
          "internalType": "bytes4",
          "name": "interfaceId",
          "type": "bytes4"
        }
      ],
      "name": "supportsInterface",
      "outputs": [
        {
          "internalType": "bool",
          "name": "",
          "type": "bool"
        }
      ],
      "payable": false,
      "stateMutability": "view",
      "type": "function"
    },
    {
      "constant": true,
      "inputs": [
        {
          "internalType": "uint256",
          "name": "tokenId",
          "type": "uint256"
        }
      ],
      "name": "getApproved",
      "outputs": [
        {
          "internalType": "address",
          "name": "",
          "type": "address"
        }
      ],
      "payable": false,
      "stateMutability": "view",
      "type": "function"
    },
    {
      "constant": false,
      "inputs": [
        {
          "internalType": "address",
          "name": "to",
          "type": "address"
        },
        {
          "internalType": "uint256",
          "name": "tokenId",
          "type": "uint256"
        }
      ],
      "name": "approve",
      "outputs": [],
      "payable": false,
      "stateMutability": "nonpayable",
      "type": "function"
    },
    {
      "constant": true,
      "inputs": [],
      "name": "mintFee",
      "outputs": [
        {
          "internalType": "uint256",
          "name": "",
          "type": "uint256"
        }
      ],
      "payable": false,
      "stateMutability": "view",
      "type": "function"
    },
    {
      "constant": true,
      "inputs": [
        {
          "internalType": "uint256",
          "name": "",
          "type": "uint256"
        }
      ],
      "name": "tokenToFederationId",
      "outputs": [
        {
          "internalType": "uint32",
          "name": "",
          "type": "uint32"
        }
      ],
      "payable": false,
      "stateMutability": "view",
      "type": "function"
    },
    {
      "constant": true,
      "inputs": [],
      "name": "totalSupply",
      "outputs": [
        {
          "internalType": "uint256",
          "name": "",
          "type": "uint256"
        }
      ],
      "payable": false,
      "stateMutability": "view",
      "type": "function"
    },
    {
      "constant": false,
      "inputs": [
        {
          "internalType": "address",
          "name": "from",
          "type": "address"
        },
        {
          "internalType": "address",
          "name": "to",
          "type": "address"
        },
        {
          "internalType": "uint256",
          "name": "tokenId",
          "type": "uint256"
        }
      ],
      "name": "transferFrom",
      "outputs": [],
      "payable": false,
      "stateMutability": "nonpayable",
      "type": "function"
    },
    {
      "constant": false,
      "inputs": [
        {
          "internalType": "string",
          "name": "contentId",
          "type": "string"
        },
        {
          "internalType": "string",
          "name": "propertyName",
          "type": "string"
        },
        {
          "internalType": "uint48",
          "name": "startTime",
          "type": "uint48"
        },
        {
          "internalType": "uint48",
          "name": "endTime",
          "type": "uint48"
        },
        {
          "internalType": "uint48",
          "name": "auctionEndTime",
          "type": "uint48"
        },
        {
          "internalType": "uint16",
          "name": "category",
          "type": "uint16"
        },
        {
          "internalType": "bool",
          "name": "isSecondaryTradingEnabled",
          "type": "bool"
        },
        {
          "internalType": "uint32",
          "name": "federationId",
          "type": "uint32"
        },
        {
          "internalType": "string",
          "name": "tokenURI",
          "type": "string"
        }
      ],
      "name": "safeMintWithTokenURI",
      "outputs": [
        {
          "internalType": "uint256",
          "name": "",
          "type": "uint256"
        }
      ],
      "payable": true,
      "stateMutability": "payable",
      "type": "function"
    },
    {
      "constant": true,
      "inputs": [
        {
          "internalType": "address",
          "name": "minter",
          "type": "address"
        }
      ],
      "name": "tokensMintedBy",
      "outputs": [
        {
          "internalType": "uint256[]",
          "name": "",
          "type": "uint256[]"
        }
      ],
      "payable": false,
      "stateMutability": "view",
      "type": "function"
    },
    {
      "constant": false,
      "inputs": [
        {
          "internalType": "string",
          "name": "contentId",
          "type": "string"
        },
        {
          "internalType": "string",
          "name": "propertyName",
          "type": "string"
        },
        {
          "internalType": "uint48",
          "name": "startTime",
          "type": "uint48"
        },
        {
          "internalType": "uint48",
          "name": "endTime",
          "type": "uint48"
        },
        {
          "internalType": "uint48",
          "name": "auctionEndTime",
          "type": "uint48"
        },
        {
          "internalType": "uint16",
          "name": "category",
          "type": "uint16"
        },
        {
          "internalType": "bool",
          "name": "isSecondaryTradingEnabled",
          "type": "bool"
        },
        {
          "internalType": "uint32",
          "name": "federationId",
          "type": "uint32"
        }
      ],
      "name": "safeMint",
      "outputs": [
        {
          "internalType": "uint256",
          "name": "",
          "type": "uint256"
        }
      ],
      "payable": true,
      "stateMutability": "payable",
      "type": "function"
    },
    {
      "constant": false,
      "inputs": [],
      "name": "unpause",
      "outputs": [],
      "payable": false,
      "stateMutability": "nonpayable",
      "type": "function"
    },
    {
      "constant": false,
      "inputs": [
        {
          "internalType": "address",
          "name": "from",
          "type": "address"
        },
        {
          "internalType": "address",
          "name": "to",
          "type": "address"
        },
        {
          "internalType": "uint256",
          "name": "tokenId",
          "type": "uint256"
        }
      ],
      "name": "safeTransferFrom",
      "outputs": [],
      "payable": false,
      "stateMutability": "nonpayable",
      "type": "function"
    },
    {
      "constant": false,
      "inputs": [
        {
          "internalType": "uint256",
          "name": "tokenId",
          "type": "uint256"
        }
      ],
      "name": "burn",
      "outputs": [],
      "payable": false,
      "stateMutability": "nonpayable",
      "type": "function"
    },
    {
      "constant": true,
      "inputs": [],
      "name": "owner2",
      "outputs": [
        {
          "internalType": "address",
          "name": "",
          "type": "address"
        }
      ],
      "payable": false,
      "stateMutability": "view",
      "type": "function"
    },
    {
      "constant": true,
      "inputs": [],
      "name": "paused",
      "outputs": [
        {
          "internalType": "bool",
          "name": "",
          "type": "bool"
        }
      ],
      "payable": false,
      "stateMutability": "view",
      "type": "function"
    },
    {
      "constant": false,
      "inputs": [],
      "name": "withdrawBalance",
      "outputs": [],
      "payable": false,
      "stateMutability": "nonpayable",
      "type": "function"
    },
    {
      "constant": true,
      "inputs": [
        {
          "internalType": "uint256",
          "name": "tokenId",
          "type": "uint256"
        }
      ],
      "name": "ownerOf",
      "outputs": [
        {
          "internalType": "address",
          "name": "",
          "type": "address"
        }
      ],
      "payable": false,
      "stateMutability": "view",
      "type": "function"
    },
    {
      "constant": true,
      "inputs": [
        {
          "internalType": "address",
          "name": "tokenOwner",
          "type": "address"
        }
      ],
      "name": "balanceOf",
      "outputs": [
        {
          "internalType": "uint256",
          "name": "",
          "type": "uint256"
        }
      ],
      "payable": false,
      "stateMutability": "view",
      "type": "function"
    },
    {
      "constant": true,
      "inputs": [],
      "name": "owner1",
      "outputs": [
        {
          "internalType": "address",
          "name": "",
          "type": "address"
        }
      ],
      "payable": false,
      "stateMutability": "view",
      "type": "function"
    },
    {
      "constant": true,
      "inputs": [
        {
          "internalType": "address",
          "name": "minter",
          "type": "address"
        },
        {
          "internalType": "string",
          "name": "contentId",
          "type": "string"
        }
      ],
      "name": "tokenMinterPropertyNames",
      "outputs": [
        {
          "internalType": "string[]",
          "name": "",
          "type": "string[]"
        }
      ],
      "payable": false,
      "stateMutability": "view",
      "type": "function"
    },
    {
      "constant": true,
      "inputs": [],
      "name": "registry",
      "outputs": [
        {
          "internalType": "contract DeployedRegistry",
          "name": "",
          "type": "address"
        }
      ],
      "payable": false,
      "stateMutability": "view",
      "type": "function"
    },
    {
      "constant": false,
      "inputs": [
        {
          "internalType": "uint256",
          "name": "val",
          "type": "uint256"
        }
      ],
      "name": "updateMintFee",
      "outputs": [],
      "payable": false,
      "stateMutability": "nonpayable",
      "type": "function"
    },
    {
      "constant": false,
      "inputs": [],
      "name": "pause",
      "outputs": [],
      "payable": false,
      "stateMutability": "nonpayable",
      "type": "function"
    },
    {
      "constant": true,
      "inputs": [
        {
          "internalType": "address",
          "name": "tokenOwner",
          "type": "address"
        }
      ],
      "name": "tokensOfOwner",
      "outputs": [
        {
          "internalType": "uint256[]",
          "name": "",
          "type": "uint256[]"
        }
      ],
      "payable": false,
      "stateMutability": "view",
      "type": "function"
    },
    {
      "constant": false,
      "inputs": [
        {
          "internalType": "address",
          "name": "to",
          "type": "address"
        },
        {
          "internalType": "bool",
          "name": "approved",
          "type": "bool"
        }
      ],
      "name": "setApprovalForAll",
      "outputs": [],
      "payable": false,
      "stateMutability": "nonpayable",
      "type": "function"
    },
    {
      "constant": true,
      "inputs": [
        {
          "internalType": "address",
          "name": "minter",
          "type": "address"
        }
      ],
      "name": "tokenMinterContentIds",
      "outputs": [
        {
          "internalType": "string[]",
          "name": "",
          "type": "string[]"
        }
      ],
      "payable": false,
      "stateMutability": "view",
      "type": "function"
    },
    {
      "constant": false,
      "inputs": [
        {
          "internalType": "address",
          "name": "from",
          "type": "address"
        },
        {
          "internalType": "address",
          "name": "to",
          "type": "address"
        },
        {
          "internalType": "uint256",
          "name": "tokenId",
          "type": "uint256"
        },
        {
          "internalType": "bytes",
          "name": "data",
          "type": "bytes"
        }
      ],
      "name": "safeTransferFrom",
      "outputs": [],
      "payable": false,
      "stateMutability": "nonpayable",
      "type": "function"
    },
    {
      "constant": false,
      "inputs": [
        {
          "internalType": "string",
          "name": "contentId",
          "type": "string"
        },
        {
          "internalType": "string",
          "name": "propertyName",
          "type": "string"
        },
        {
          "internalType": "uint48",
          "name": "startTime",
          "type": "uint48"
        },
        {
          "internalType": "uint48",
          "name": "endTime",
          "type": "uint48"
        },
        {
          "internalType": "uint48",
          "name": "auctionEndTime",
          "type": "uint48"
        },
        {
          "internalType": "uint16",
          "name": "category",
          "type": "uint16"
        },
        {
          "internalType": "bool",
          "name": "isSecondaryTradingEnabled",
          "type": "bool"
        },
        {
          "internalType": "uint32",
          "name": "federationId",
          "type": "uint32"
        },
        {
          "internalType": "string",
          "name": "tokenURI",
          "type": "string"
        }
      ],
      "name": "mintWithTokenURI",
      "outputs": [
        {
          "internalType": "uint256",
          "name": "",
          "type": "uint256"
        }
      ],
      "payable": true,
      "stateMutability": "payable",
      "type": "function"
    },
    {
      "constant": false,
      "inputs": [
        {
          "internalType": "address",
          "name": "newAddress",
          "type": "address"
        }
      ],
      "name": "updateRegistryAddress",
      "outputs": [],
      "payable": false,
      "stateMutability": "nonpayable",
      "type": "function"
    },
    {
      "constant": true,
      "inputs": [
        {
          "internalType": "uint256",
          "name": "tokenId",
          "type": "uint256"
        }
      ],
      "name": "tokenURI",
      "outputs": [
        {
          "internalType": "string",
          "name": "",
          "type": "string"
        }
      ],
      "payable": false,
      "stateMutability": "view",
      "type": "function"
    },
    {
      "constant": false,
      "inputs": [
        {
          "internalType": "address",
          "name": "newOwner",
          "type": "address"
        }
      ],
      "name": "transferOwnership2",
      "outputs": [],
      "payable": false,
      "stateMutability": "nonpayable",
      "type": "function"
    },
    {
      "constant": true,
      "inputs": [
        {
          "internalType": "uint256",
          "name": "tokenId",
          "type": "uint256"
        }
      ],
      "name": "tokenTimeSlot",
      "outputs": [
        {
          "internalType": "address",
          "name": "minter",
          "type": "address"
        },
        {
          "internalType": "address",
          "name": "owner",
          "type": "address"
        },
        {
          "internalType": "string",
          "name": "contentId",
          "type": "string"
        },
        {
          "internalType": "string",
          "name": "propertyName",
          "type": "string"
        },
        {
          "internalType": "uint48",
          "name": "startTime",
          "type": "uint48"
        },
        {
          "internalType": "uint48",
          "name": "endTime",
          "type": "uint48"
        },
        {
          "internalType": "uint48",
          "name": "auctionEndTime",
          "type": "uint48"
        },
        {
          "internalType": "uint16",
          "name": "category",
          "type": "uint16"
        },
        {
          "internalType": "bool",
          "name": "isSecondaryTradingEnabled",
          "type": "bool"
        },
        {
          "internalType": "uint32",
          "name": "federationId",
          "type": "uint32"
        }
      ],
      "payable": false,
      "stateMutability": "view",
      "type": "function"
    },
    {
      "constant": false,
      "inputs": [
        {
          "internalType": "address",
          "name": "newOwner",
          "type": "address"
        }
      ],
      "name": "transferOwnership1",
      "outputs": [],
      "payable": false,
      "stateMutability": "nonpayable",
      "type": "function"
    },
    {
      "constant": true,
      "inputs": [
        {
          "internalType": "address",
          "name": "tokenOwner",
          "type": "address"
        },
        {
          "internalType": "address",
          "name": "operator",
          "type": "address"
        }
      ],
      "name": "isApprovedForAll",
      "outputs": [
        {
          "internalType": "bool",
          "name": "",
          "type": "bool"
        }
      ],
      "payable": false,
      "stateMutability": "view",
      "type": "function"
    },
    {
      "constant": false,
      "inputs": [
        {
          "internalType": "string",
          "name": "contentId",
          "type": "string"
        },
        {
          "internalType": "string",
          "name": "propertyName",
          "type": "string"
        },
        {
          "internalType": "uint48",
          "name": "startTime",
          "type": "uint48"
        },
        {
          "internalType": "uint48",
          "name": "endTime",
          "type": "uint48"
        },
        {
          "internalType": "uint48",
          "name": "auctionEndTime",
          "type": "uint48"
        },
        {
          "internalType": "uint16",
          "name": "category",
          "type": "uint16"
        },
        {
          "internalType": "bool",
          "name": "isSecondaryTradingEnabled",
          "type": "bool"
        },
        {
          "internalType": "uint32",
          "name": "federationId",
          "type": "uint32"
        }
      ],
      "name": "mint",
      "outputs": [
        {
          "internalType": "uint256",
          "name": "",
          "type": "uint256"
        }
      ],
      "payable": true,
      "stateMutability": "payable",
      "type": "function"
    },
    {
      "constant": false,
      "inputs": [
        {
          "internalType": "string",
          "name": "contentId",
          "type": "string"
        },
        {
          "internalType": "string",
          "name": "propertyName",
          "type": "string"
        },
        {
          "internalType": "uint48",
          "name": "startTime",
          "type": "uint48"
        },
        {
          "internalType": "uint48",
          "name": "endTime",
          "type": "uint48"
        },
        {
          "internalType": "uint48",
          "name": "auctionEndTime",
          "type": "uint48"
        },
        {
          "internalType": "uint16",
          "name": "category",
          "type": "uint16"
        },
        {
          "internalType": "bool",
          "name": "isSecondaryTradingEnabled",
          "type": "bool"
        },
        {
          "internalType": "uint32",
          "name": "federationId",
          "type": "uint32"
        },
        {
          "internalType": "bytes",
          "name": "data",
          "type": "bytes"
        }
      ],
      "name": "safeMint",
      "outputs": [
        {
          "internalType": "uint256",
          "name": "",
          "type": "uint256"
        }
      ],
      "payable": true,
      "stateMutability": "payable",
      "type": "function"
    },
    {
      "inputs": [
        {
          "internalType": "string",
          "name": "name",
          "type": "string"
        },
        {
          "internalType": "string",
          "name": "symbol",
          "type": "string"
        },
        {
          "internalType": "address",
          "name": "registryAddress",
          "type": "address"
        }
      ],
      "payable": false,
      "stateMutability": "nonpayable",
      "type": "constructor"
    },
    {
      "anonymous": false,
      "inputs": [
        {
          "indexed": true,
          "internalType": "address",
          "name": "from",
          "type": "address"
        },
        {
          "indexed": true,
          "internalType": "address",
          "name": "to",
          "type": "address"
        },
        {
          "indexed": true,
          "internalType": "uint256",
          "name": "tokenId",
          "type": "uint256"
        }
      ],
      "name": "Transfer",
      "type": "event"
    },
    {
      "anonymous": false,
      "inputs": [
        {
          "indexed": true,
          "internalType": "address",
          "name": "tokenOwner",
          "type": "address"
        },
        {
          "indexed": true,
          "internalType": "address",
          "name": "approved",
          "type": "address"
        },
        {
          "indexed": true,
          "internalType": "uint256",
          "name": "tokenId",
          "type": "uint256"
        }
      ],
      "name": "Approval",
      "type": "event"
    },
    {
      "anonymous": false,
      "inputs": [
        {
          "indexed": true,
          "internalType": "address",
          "name": "tokenOwner",
          "type": "address"
        },
        {
          "indexed": true,
          "internalType": "address",
          "name": "operator",
          "type": "address"
        },
        {
          "indexed": false,
          "internalType": "bool",
          "name": "approved",
          "type": "bool"
        }
      ],
      "name": "ApprovalForAll",
      "type": "event"
    },
    {
      "constant": true,
      "inputs": [],
      "name": "name",
      "outputs": [
        {
          "internalType": "string",
          "name": "",
          "type": "string"
        }
      ],
      "payable": false,
      "stateMutability": "view",
      "type": "function"
    },
    {
      "constant": true,
      "inputs": [],
      "name": "symbol",
      "outputs": [
        {
          "internalType": "string",
          "name": "",
          "type": "string"
        }
      ],
      "payable": false,
      "stateMutability": "view",
      "type": "function"
    }
  ],
  "bytecode": "0x60806040526002805460ff60a01b19169055655af3107a40006003553480156200002857600080fd5b506040516200474d3803806200474d8339810160408190526200004b91620003ff565b6200007f7f01ffc9a7000000000000000000000000000000000000000000000000000000006001600160e01b036200018f16565b620000b37f80ac58cd000000000000000000000000000000000000000000000000000000006001600160e01b036200018f16565b620000c66001600160e01b036200023416565b600180546001600160a01b0319166001600160a01b0392909216919091179055620000f062000234565b600280546001600160a01b0319166001600160a01b0392909216919091179055825162000125906010906020860190620002ee565b5081516200013b906011906020850190620002ee565b50620001707f5b5e139f000000000000000000000000000000000000000000000000000000006001600160e01b036200018f16565b62000186816200023960201b62001b5a1760201c565b505050620005d3565b7fffffffff000000000000000000000000000000000000000000000000000000008082161415620001f7576040517f08c379a0000000000000000000000000000000000000000000000000000000008152600401620001ee90620004f8565b60405180910390fd5b7fffffffff00000000000000000000000000000000000000000000000000000000166000908152602081905260409020805460ff19166001179055565b335b90565b6001546001600160a01b0316620002586001600160e01b036200023416565b6001600160a01b031614806200029357506002546001600160a01b0316620002886001600160e01b036200023416565b6001600160a01b0316145b620002cc576040517f08c379a0000000000000000000000000000000000000000000000000000000008152600401620001ee906200050a565b600480546001600160a01b0319166001600160a01b0392909216919091179055565b828054600181600116156101000203166002900490600052602060002090601f016020900481019282601f106200033157805160ff191683800117855562000361565b8280016001018555821562000361579182015b828111156200036157825182559160200191906001019062000344565b506200036f92915062000373565b5090565b6200023691905b808211156200036f57600081556001016200037a565b80516200039d81620005b9565b92915050565b600082601f830112620003b557600080fd5b8151620003cc620003c68262000543565b6200051c565b91508082526020830160208301858383011115620003e957600080fd5b620003f683828462000586565b50505092915050565b6000806000606084860312156200041557600080fd5b83516001600160401b038111156200042c57600080fd5b6200043a86828701620003a3565b93505060208401516001600160401b038111156200045757600080fd5b6200046586828701620003a3565b9250506040620004788682870162000390565b9150509250925092565b600062000491601c836200056b565b7f4552433136353a20696e76616c696420696e7465726661636520696400000000815260200192915050565b6000620004cc6013836200056b565b7f4f4e4c595f434f4e54524143545f4f574e455200000000000000000000000000815260200192915050565b602080825281016200039d8162000482565b602080825281016200039d81620004bd565b6040518181016001600160401b03811182821017156200053b57600080fd5b604052919050565b60006001600160401b038211156200055a57600080fd5b506020601f91909101601f19160190565b90815260200190565b60006001600160a01b0382166200039d565b60005b83811015620005a357818101518382015260200162000589565b83811115620005b3576000848401525b50505050565b620005c48162000574565b8114620005d057600080fd5b50565b61416a80620005e36000396000f3fe6080604052600436106102255760003560e01c80637368891411610123578063b88d4fde116100ab578063e5c249241161006f578063e5c249241461061d578063e982d5a914610653578063e985e9c514610673578063f33efd1e14610693578063fb796bb7146106a657610225565b8063b88d4fde1461058a578063c51e713c146105aa578063c57a8825146105bd578063c87b56dd146105dd578063e2b375a9146105fd57610225565b80638456cb59116100f25780638456cb59146105005780638462151c1461051557806395d89b4114610535578063a22cb4651461054a578063a4ede1281461056a57610225565b8063736889141461047c5780637affcb9a146104915780637b103999146104be57806384017e52146104e057610225565b80632a0c7799116101b1578063527097251161017557806352709725146103fd5780635c975abb146104125780635fd8c710146104275780636352211e1461043c57806370a082311461045c57610225565b80632a0c7799146103685780632e0dccbb146103955780633f4ba83a146103a857806342842e0e146103bd57806342966c68146103dd57610225565b806313966db5116101f857806313966db5146102d1578063180b9e3f146102f357806318160ddd1461032057806323b872dd146103355780632441c7091461035557610225565b806301ffc9a71461022a57806306fdde0314610260578063081812fc14610282578063095ea7b3146102af575b600080fd5b34801561023657600080fd5b5061024a610245366004613428565b6106b9565b6040516102579190613e61565b60405180910390f35b34801561026c57600080fd5b506102756106dc565b6040516102579190613e7d565b34801561028e57600080fd5b506102a261029d36600461364e565b610773565b6040516102579190613d08565b3480156102bb57600080fd5b506102cf6102ca3660046133da565b6107bf565b005b3480156102dd57600080fd5b506102e661095c565b6040516102579190613fce565b3480156102ff57600080fd5b5061031361030e36600461364e565b610962565b6040516102579190613fdc565b34801561032c57600080fd5b506102e661097a565b34801561034157600080fd5b506102cf61035036600461328e565b61098b565b6102e6610363366004613543565b610af1565b34801561037457600080fd5b50610388610383366004613236565b610c69565b6040516102579190613e50565b6102e66103a3366004613464565b610d71565b3480156103b457600080fd5b506102cf610ed9565b3480156103c957600080fd5b506102cf6103d836600461328e565b610f5d565b3480156103e957600080fd5b506102cf6103f836600461364e565b610f7d565b34801561040957600080fd5b506102a261109d565b34801561041e57600080fd5b5061024a6110ac565b34801561043357600080fd5b506102cf6110bc565b34801561044857600080fd5b506102a261045736600461364e565b611198565b34801561046857600080fd5b506102e6610477366004613236565b6111b3565b34801561048857600080fd5b506102a2611202565b34801561049d57600080fd5b506104b16104ac366004613384565b611211565b6040516102579190613e3f565b3480156104ca57600080fd5b506104d36113b3565b6040516102579190613e6f565b3480156104ec57600080fd5b506102cf6104fb36600461364e565b6113c2565b34801561050c57600080fd5b506102cf611426565b34801561052157600080fd5b50610388610530366004613236565b6114b1565b34801561054157600080fd5b5061027561156b565b34801561055657600080fd5b506102cf610565366004613354565b6115cc565b34801561057657600080fd5b506104b1610585366004613236565b611752565b34801561059657600080fd5b506102cf6105a53660046132db565b6118c8565b6102e66105b8366004613543565b611a30565b3480156105c957600080fd5b506102cf6105d8366004613236565b611b5a565b3480156105e957600080fd5b506102756105f836600461364e565b611bdb565b34801561060957600080fd5b506102cf610618366004613236565b611ca1565b34801561062957600080fd5b5061063d61063836600461364e565b611d2e565b6040516102579a99989796959493929190613d16565b34801561065f57600080fd5b506102cf61066e366004613236565b611f8a565b34801561067f57600080fd5b5061024a61068e366004613254565b612018565b6102e66106a1366004613464565b612046565b6102e66106b4366004613543565b61216b565b6001600160e01b0319811660009081526020819052604090205460ff165b919050565b60108054604080516020601f60026000196101006001881615020190951694909404938401819004810282018101909252828152606093909290918301828280156107685780601f1061073d57610100808354040283529160200191610768565b820191906000526020600020905b81548152906001019060200180831161074b57829003601f168201915b505050505090505b90565b600061077e826122a8565b6107a35760405162461bcd60e51b815260040161079a90613f7e565b60405180910390fd5b506000908152600e60205260409020546001600160a01b031690565b6004546001600160a01b0316634039ad0d6107d86122c5565b6040518263ffffffff1660e01b81526004016107f49190613d08565b60206040518083038186803b15801561080c57600080fd5b505afa158015610820573d6000803e3d6000fd5b505050506040513d601f19601f82011682018060405250610844919081019061340a565b6108605760405162461bcd60e51b815260040161079a90613f8e565b600254600160a01b900460ff161561087757600080fd5b600061088282611198565b9050806001600160a01b0316836001600160a01b031614156108b65760405162461bcd60e51b815260040161079a90613eee565b806001600160a01b03166108c86122c5565b6001600160a01b031614806108e457506108e48161068e6122c5565b6109005760405162461bcd60e51b815260040161079a90613fbe565b6000828152600e602052604080822080546001600160a01b0319166001600160a01b0387811691821790925591518593918516917f8c5be1e5ebec7d5bd14f71427d1e84f3dd0314c0f7b2291e5b200ac8c7c3b92591a4505050565b60035481565b60096020526000908152604090205463ffffffff1681565b600061098660056122c9565b905090565b600254600160a01b900460ff16156109a257600080fd5b6109b36109ad6122c5565b826122cd565b6109cf5760405162461bcd60e51b815260040161079a90613fae565b6000818152600a60205260408120546001600160a01b0316906109f183611198565b6000848152600a6020526040902060030154909150600160a01b900460ff16610a3c57610a1f858585612352565b15610a3c5760405162461bcd60e51b815260040161079a90613e9e565b600480546040516354a58b9b60e11b81526001600160a01b039091169163a94b173691610a73918991899189918991899101613db9565b60206040518083038186803b158015610a8b57600080fd5b505afa158015610a9f573d6000803e3d6000fd5b505050506040513d601f19601f82011682018060405250610ac3919081019061340a565b610adf5760405162461bcd60e51b815260040161079a90613fae565b610aea8585856123a6565b5050505050565b6004546000906001600160a01b031663aa271e1a610b0d6122c5565b6040518263ffffffff1660e01b8152600401610b299190613d08565b60206040518083038186803b158015610b4157600080fd5b505afa158015610b55573d6000803e3d6000fd5b505050506040513d601f19601f82011682018060405250610b79919081019061340a565b610b955760405162461bcd60e51b815260040161079a90613f9e565b600254600160a01b900460ff1615610bac57600080fd5b600354341015610bbb57600080fd5b60008363ffffffff1611610be15760405162461bcd60e51b815260040161079a90613f2e565b610bed8a8989896124ac565b610c095760405162461bcd60e51b815260040161079a90613f6e565b6000610c1b610c166122c5565b6125b3565b9050610c2d818c8c8c8c8c8c8c6125cf565b610c378184612891565b6000818152600960205260409020805463ffffffff861663ffffffff1990911617905590509998505050505050505050565b60606001600160a01b038216610c915760405162461bcd60e51b815260040161079a90613ece565b6001600160a01b0382166000908152600860205260408120610cb2906122c9565b905080610cd45760408051600080825260208201909252905b509150506106d7565b606081604051908082528060200260200182016040528015610d00578160200160208202803883390190505b5090506000610d0d61097a565b9050600060015b828111610d64576000818152600a60205260409020546001600160a01b0388811691161415610d5c5780848381518110610d4a57fe5b60209081029190910101526001909101905b600101610d14565b83955050505050506106d7565b6004546000906001600160a01b031663aa271e1a610d8d6122c5565b6040518263ffffffff1660e01b8152600401610da99190613d08565b60206040518083038186803b158015610dc157600080fd5b505afa158015610dd5573d6000803e3d6000fd5b505050506040513d601f19601f82011682018060405250610df9919081019061340a565b610e155760405162461bcd60e51b815260040161079a90613f9e565b600254600160a01b900460ff1615610e2c57600080fd5b600354341015610e3b57600080fd5b60008263ffffffff1611610e615760405162461bcd60e51b815260040161079a90613f2e565b610e6d898888886124ac565b610e895760405162461bcd60e51b815260040161079a90613f6e565b6000610e96610c166122c5565b9050610ea8818b8b8b8b8b8b8b6125cf565b6000818152600960205260409020805463ffffffff851663ffffffff19909116179055905098975050505050505050565b6001546001600160a01b0316610eed6122c5565b6001600160a01b03161480610f1c57506002546001600160a01b0316610f116122c5565b6001600160a01b0316145b610f385760405162461bcd60e51b815260040161079a90613f3e565b600254600160a01b900460ff16610f4e57600080fd5b6002805460ff60a01b19169055565b610f78838383604051806020016040528060008152506118c8565b505050565b600254600160a01b900460ff1615610f9457600080fd5b6000610f9f82611198565b6000838152600a60205260409020549091506001600160a01b03908116908216811415611067576004546001600160a01b031663aa271e1a610fdf6122c5565b6040518263ffffffff1660e01b8152600401610ffb9190613d08565b60206040518083038186803b15801561101357600080fd5b505afa158015611027573d6000803e3d6000fd5b505050506040513d601f19601f8201168201806040525061104b919081019061340a565b6110675760405162461bcd60e51b815260040161079a90613ede565b6110786110726122c5565b846122cd565b6110945760405162461bcd60e51b815260040161079a90613ede565b610f78836128d5565b6002546001600160a01b031681565b600254600160a01b900460ff1681565b6001546001600160a01b03166110d06122c5565b6001600160a01b031614806110ff57506002546001600160a01b03166110f46122c5565b6001600160a01b0316145b61111b5760405162461bcd60e51b815260040161079a90613f3e565b6040513031906000903390839061113190613cfd565b60006040518083038185875af1925050503d806000811461116e576040519150601f19603f3d011682016040523d82523d6000602084013e611173565b606091505b50509050806111945760405162461bcd60e51b815260040161079a90613efe565b5050565b6000908152600660205260409020546001600160a01b031690565b60006001600160a01b0382166111db5760405162461bcd60e51b815260040161079a90613ece565b6001600160a01b03821660009081526007602052604090206111fc906122c9565b92915050565b6001546001600160a01b031681565b6001600160a01b0383166000908152600b6020526040908190209051606091829161123f9086908690613ce4565b9081526020016040518091039020805480602002602001604051908101604052809291908181526020016000905b8282101561132457600084815260209081902060408051918501805460026001821615610100026000190190911604601f810185900485028401830183529383018481529293909284929091849184018282801561130c5780601f106112e15761010080835404028352916020019161130c565b820191906000526020600020905b8154815290600101906020018083116112ef57829003601f168201915b5050505050815250508152602001906001019061126d565b5050505090506060815160405190808252806020026020018201604052801561136157816020015b606081526020019060019003908161134c5790505b50905060005b82518110156113a75782818151811061137c57fe5b60200260200101516000015182828151811061139457fe5b6020908102919091010152600101611367565b509150505b9392505050565b6004546001600160a01b031681565b6001546001600160a01b03166113d66122c5565b6001600160a01b0316148061140557506002546001600160a01b03166113fa6122c5565b6001600160a01b0316145b6114215760405162461bcd60e51b815260040161079a90613f3e565b600355565b6001546001600160a01b031661143a6122c5565b6001600160a01b0316148061146957506002546001600160a01b031661145e6122c5565b6001600160a01b0316145b6114855760405162461bcd60e51b815260040161079a90613f3e565b600254600160a01b900460ff161561149c57600080fd5b6002805460ff60a01b1916600160a01b179055565b606060006114be836111b3565b9050806114db576040805160008082526020820190925290610ccb565b606081604051908082528060200260200182016040528015611507578160200160208202803883390190505b509050600061151461097a565b9050600060015b828111610d64576000818152600660205260409020546001600160a01b0388811691161415611563578084838151811061155157fe5b60209081029190910101526001909101905b60010161151b565b60118054604080516020601f60026000196101006001881615020190951694909404938401819004810282018101909252828152606093909290918301828280156107685780601f1061073d57610100808354040283529160200191610768565b6004546001600160a01b0316634039ad0d6115e56122c5565b6040518263ffffffff1660e01b81526004016116019190613d08565b60206040518083038186803b15801561161957600080fd5b505afa15801561162d573d6000803e3d6000fd5b505050506040513d601f19601f82011682018060405250611651919081019061340a565b61166d5760405162461bcd60e51b815260040161079a90613f8e565b600254600160a01b900460ff161561168457600080fd5b61168c6122c5565b6001600160a01b0316826001600160a01b031614156116bd5760405162461bcd60e51b815260040161079a90613f1e565b80600f60006116ca6122c5565b6001600160a01b03908116825260208083019390935260409182016000908120918716808252919093529120805460ff19169215159290921790915561170e6122c5565b6001600160a01b03167f17307eab39ab6107e8899845ad3d59bd9653f200f220920489ca2b5937696c31836040516117469190613e61565b60405180910390a35050565b6001600160a01b0381166000908152600c602090815260408083208054825181850281018501909352808352606094859484015b8282101561183d57600084815260209081902060408051918501805460026001821615610100026000190190911604601f81018590048502840183018352938301848152929390928492909184918401828280156118255780601f106117fa57610100808354040283529160200191611825565b820191906000526020600020905b81548152906001019060200180831161180857829003601f168201915b50505050508152505081526020019060010190611786565b5050505090506060815160405190808252806020026020018201604052801561187a57816020015b60608152602001906001900390816118655790505b50905060005b82518110156118c05782818151811061189557fe5b6020026020010151600001518282815181106118ad57fe5b6020908102919091010152600101611880565b509392505050565b600254600160a01b900460ff16156118df57600080fd5b6118f06118ea6122c5565b836122cd565b61190c5760405162461bcd60e51b815260040161079a90613fae565b6000828152600a60205260408120546001600160a01b03169061192e84611198565b6000858152600a6020526040902060030154909150600160a01b900460ff166119795761195c868686612352565b156119795760405162461bcd60e51b815260040161079a90613e9e565b600480546040516354a58b9b60e11b81526001600160a01b039091169163a94b1736916119b0918a918a918a918991899101613db9565b60206040518083038186803b1580156119c857600080fd5b505afa1580156119dc573d6000803e3d6000fd5b505050506040513d601f19601f82011682018060405250611a00919081019061340a565b611a1c5760405162461bcd60e51b815260040161079a90613fae565b611a28868686866128e7565b505050505050565b6004546000906001600160a01b031663aa271e1a611a4c6122c5565b6040518263ffffffff1660e01b8152600401611a689190613d08565b60206040518083038186803b158015611a8057600080fd5b505afa158015611a94573d6000803e3d6000fd5b505050506040513d601f19601f82011682018060405250611ab8919081019061340a565b611ad45760405162461bcd60e51b815260040161079a90613f9e565b600254600160a01b900460ff1615611aeb57600080fd5b600354341015611afa57600080fd5b60008363ffffffff1611611b205760405162461bcd60e51b815260040161079a90613f2e565b611b2c8a8989896124ac565b611b485760405162461bcd60e51b815260040161079a90613f6e565b6000610c1b611b556122c5565b612920565b6001546001600160a01b0316611b6e6122c5565b6001600160a01b03161480611b9d57506002546001600160a01b0316611b926122c5565b6001600160a01b0316145b611bb95760405162461bcd60e51b815260040161079a90613f3e565b600480546001600160a01b0319166001600160a01b0392909216919091179055565b6060611be6826122a8565b611c025760405162461bcd60e51b815260040161079a90613f7e565b6000828152600d602090815260409182902080548351601f600260001961010060018616150201909316929092049182018490048402810184019094528084529091830182828015611c955780601f10611c6a57610100808354040283529160200191611c95565b820191906000526020600020905b815481529060010190602001808311611c7857829003601f168201915b50505050509050919050565b6001546001600160a01b0316611cb56122c5565b6001600160a01b03161480611ce457506002546001600160a01b0316611cd96122c5565b6001600160a01b0316145b611d005760405162461bcd60e51b815260040161079a90613f3e565b6001600160a01b03811615611d2b57600280546001600160a01b0319166001600160a01b0383161790555b50565b600080606080600080600080600080611d468b6122a8565b611d625760405162461bcd60e51b815260040161079a90613f7e565b611d6a613019565b60008c8152600a60209081526040918290208251610100808201855282546001600160a01b03168252600180840180548751600293821615909402600019011691909104601f8101869004860283018601909652858252919492938581019391929190830182828015611e1e5780601f10611df357610100808354040283529160200191611e1e565b820191906000526020600020905b815481529060010190602001808311611e0157829003601f168201915b5050509183525050600282810180546040805160206001841615610100026000190190931694909404601f81018390048302850183019091528084529381019390830182828015611eb05780601f10611e8557610100808354040283529160200191611eb0565b820191906000526020600020905b815481529060010190602001808311611e9357829003601f168201915b50505091835250506003919091015465ffffffffffff808216602080850191909152660100000000000083048216604080860191909152600160601b84049092166060850152600160901b830461ffff166080850152600160a01b90920460ff16151560a09093019290925260008f815260099091522054815191925063ffffffff1690611f3d8e611198565b83602001518460400151856060015186608001518760a001518860c001518960e00151898797508696509b509b509b509b509b509b509b509b509b509b5050509193959799509193959799565b6001546001600160a01b0316611f9e6122c5565b6001600160a01b03161480611fcd57506002546001600160a01b0316611fc26122c5565b6001600160a01b0316145b611fe95760405162461bcd60e51b815260040161079a90613f3e565b6001600160a01b03811615611d2b57600180546001600160a01b0383166001600160a01b031990911617905550565b6001600160a01b039182166000908152600f6020908152604080832093909416825291909152205460ff1690565b6004546000906001600160a01b031663aa271e1a6120626122c5565b6040518263ffffffff1660e01b815260040161207e9190613d08565b60206040518083038186803b15801561209657600080fd5b505afa1580156120aa573d6000803e3d6000fd5b505050506040513d601f19601f820116820180604052506120ce919081019061340a565b6120ea5760405162461bcd60e51b815260040161079a90613f9e565b600254600160a01b900460ff161561210157600080fd5b60035434101561211057600080fd5b60008263ffffffff16116121365760405162461bcd60e51b815260040161079a90613f2e565b612142898888886124ac565b61215e5760405162461bcd60e51b815260040161079a90613f6e565b6000610e96611b556122c5565b6004546000906001600160a01b031663aa271e1a6121876122c5565b6040518263ffffffff1660e01b81526004016121a39190613d08565b60206040518083038186803b1580156121bb57600080fd5b505afa1580156121cf573d6000803e3d6000fd5b505050506040513d601f19601f820116820180604052506121f3919081019061340a565b61220f5760405162461bcd60e51b815260040161079a90613f9e565b600254600160a01b900460ff161561222657600080fd5b60035434101561223557600080fd5b60008363ffffffff161161225b5760405162461bcd60e51b815260040161079a90613f2e565b6122678a8989896124ac565b6122835760405162461bcd60e51b815260040161079a90613f6e565b60006122966122906122c5565b846129ff565b9050610c37818c8c8c8c8c8c8c6125cf565b6000908152600660205260409020546001600160a01b0316151590565b3390565b5490565b60006122d8826122a8565b6122f45760405162461bcd60e51b815260040161079a90613f7e565b60006122ff83611198565b9050806001600160a01b0316846001600160a01b0316148061233a5750836001600160a01b031661232f84610773565b6001600160a01b0316145b8061234a575061234a8185612018565b949350505050565b6000818152600a60205260408120546001600160a01b0390811690851681148061238d5750806001600160a01b0316846001600160a01b0316145b1561239c5760009150506113ac565b60019150506113ac565b826001600160a01b03166123b982611198565b6001600160a01b0316146123df5760405162461bcd60e51b815260040161079a90613fae565b6001600160a01b0382166124055760405162461bcd60e51b815260040161079a90613ebe565b61240e81612a36565b6001600160a01b038316600090815260076020526040902061242f90612a71565b6001600160a01b038216600090815260076020526040902061245090612a88565b60008181526006602052604080822080546001600160a01b0319166001600160a01b0386811691821790925591518493918716917fddf252ad1be2c89b69c2b068fc378daa952ba7f163c4a11628f55a4df523b3ef91a4505050565b600480546040516323dd3a3d60e11b81526000926001600160a01b03909216916347ba747a916124de91899101613e7d565b60206040518083038186803b1580156124f657600080fd5b505afa15801561250a573d6000803e3d6000fd5b505050506040513d601f19601f8201168201806040525061252e919081019061340a565b61254a5760405162461bcd60e51b815260040161079a90613f0e565b8165ffffffffffff168465ffffffffffff16116125795760405162461bcd60e51b815260040161079a90613f4e565b8365ffffffffffff168365ffffffffffff16116125a85760405162461bcd60e51b815260040161079a90613f5e565b506001949350505050565b6000806113ac83604051806020016040528060008152506129ff565b6125d8886122a8565b6125f45760405162461bcd60e51b815260040161079a90613f7e565b6125fc613019565b6040518061010001604052806126106122c5565b6001600160a01b03908116825260208083018c905260408084018c905265ffffffffffff8b811660608601528a81166080860152891660a085015261ffff881660c085015286151560e09094019390935260008d8152600a825292909220835181546001600160a01b0319169216919091178155828201518051939450849391926126a39260018501929091019061305e565b50604082015180516126bf91600284019160209091019061305e565b5060608201516003919091018054608084015160a085015160c086015160e09096015165ffffffffffff1990931665ffffffffffff958616176bffffffffffff00000000000019166601000000000000928616929092029190911771ffffffffffff0000000000000000000000001916600160601b94909116939093029290921773ffff0000000000000000000000000000000000001916600160901b61ffff909416939093029290921760ff60a01b1916600160a01b9115159190910217905561278988612a91565b6127f257600c60006127996122c5565b6001600160a01b031681526020808201929092526040908101600090812082518085019093528b83528054600181018083559183529184902083518051929591909301926127ed928492919091019061305e565b505050505b6127fc8888612bbc565b61288657600b600061280c6122c5565b6001600160a01b03166001600160a01b031681526020019081526020016000208860405161283a9190613cf1565b90815260408051918290036020908101832083820190925289835281546001810180845560009384529282902084518051949594919092019261288192849291019061305e565b505050505b505050505050505050565b61289a826122a8565b6128b65760405162461bcd60e51b815260040161079a90613f7e565b6000828152600d602090815260409091208251610f789284019061305e565b611d2b6128e182611198565b82612d03565b6128f28484846123a6565b6128fe84848484612e50565b61291a5760405162461bcd60e51b815260040161079a90613eae565b50505050565b60006001600160a01b0382166129485760405162461bcd60e51b815260040161079a90613e8e565b6129526005612a88565b600061295e60056122c9565b600081815260066020908152604080832080546001600160a01b0319166001600160a01b0389169081179091558352600790915290209091506129a090612a88565b6001600160a01b03831660009081526008602052604090206129c190612a88565b60405181906001600160a01b038516906000907fddf252ad1be2c89b69c2b068fc378daa952ba7f163c4a11628f55a4df523b3ef908290a492915050565b600080612a0b84612920565b9050612a1a6000858386612e50565b6113ac5760405162461bcd60e51b815260040161079a90613eae565b6000818152600e60205260409020546001600160a01b031615611d2b576000908152600e6020526040902080546001600160a01b0319169055565b8054612a8490600163ffffffff612f1b16565b9055565b80546001019055565b336000908152600c602090815260408083208054825181850281018501909352808352606093859084015b82821015612b7357600084815260209081902060408051918501805460026001821615610100026000190190911604601f8101859004850284018301835293830184815292939092849290918491840182828015612b5b5780601f10612b3057610100808354040283529160200191612b5b565b820191906000526020600020905b815481529060010190602001808311612b3e57829003601f168201915b50505050508152505081526020019060010190612abc565b5092935060009250829150505b82518110156118c057612baa85848381518110612b9957fe5b602002602001015160000151612f5d565b15612bb457600191505b600101612b80565b336000908152600b6020526040808220905160609190612bdd908690613cf1565b9081526020016040518091039020805480602002602001604051908101604052809291908181526020016000905b82821015612cc257600084815260209081902060408051918501805460026001821615610100026000190190911604601f8101859004850284018301835293830184815292939092849290918491840182828015612caa5780601f10612c7f57610100808354040283529160200191612caa565b820191906000526020600020905b815481529060010190602001808311612c8d57829003601f168201915b50505050508152505081526020019060010190612c0b565b5092935060009250829150505b8251811015612cfa57612ce885848381518110612b9957fe5b15612cf257600191505b600101612ccf565b50949350505050565b816001600160a01b0316612d1682611198565b6001600160a01b031614612d3c5760405162461bcd60e51b815260040161079a90613ede565b612d4581612a36565b6001600160a01b0382166000908152600760205260409020612d6690612a71565b600081815260066020908152604080832080546001600160a01b0319169055600d9091529020546002600019600183161561010002019091160415612dbc576000818152600d60205260408120612dbc916130dc565b6000818152600a6020526040812080546001600160a01b031916815590612de660018301826130dc565b612df46002830160006130dc565b50600301805474ffffffffffffffffffffffffffffffffffffffffff1916905560405181906000906001600160a01b038516907fddf252ad1be2c89b69c2b068fc378daa952ba7f163c4a11628f55a4df523b3ef908390a45050565b6000612e64846001600160a01b0316612fb6565b612e705750600161234a565b6000846001600160a01b031663150b7a02612e896122c5565b8887876040518563ffffffff1660e01b8152600401612eab9493929190613e05565b602060405180830381600087803b158015612ec557600080fd5b505af1158015612ed9573d6000803e3d6000fd5b505050506040513d601f19601f82011682018060405250612efd9190810190613446565b6001600160e01b031916630a85bd0160e11b14915050949350505050565b60006113ac83836040518060400160405280601e81526020017f536166654d6174683a207375627472616374696f6e206f766572666c6f770000815250612fed565b600081604051602001612f709190613cf1565b6040516020818303038152906040528051906020012083604051602001612f979190613cf1565b6040516020818303038152906040528051906020012014905092915050565b6000813f7fc5d2460186f7233c927e7db2dcc703c0e500b653ca82273b7bfad8045d85a470811580159061234a5750141592915050565b600081848411156130115760405162461bcd60e51b815260040161079a9190613e7d565b505050900390565b604080516101008101825260008082526060602083018190529282018390529181018290526080810182905260a0810182905260c0810182905260e081019190915290565b828054600181600116156101000203166002900490600052602060002090601f016020900481019282601f1061309f57805160ff19168380011785556130cc565b828001600101855582156130cc579182015b828111156130cc5782518255916020019190600101906130b1565b506130d892915061311c565b5090565b50805460018160011615610100020316600290046000825580601f106131025750611d2b565b601f016020900490600052602060002090810190611d2b91905b61077091905b808211156130d85760008155600101613122565b80356111fc816140dd565b80356111fc816140f1565b80516111fc816140f1565b80356111fc816140fa565b80516111fc816140fa565b600082601f83011261317e57600080fd5b813561319161318c82614011565b613fea565b915080825260208301602083018583830111156131ad57600080fd5b6131b883828461409b565b50505092915050565b60008083601f8401126131d357600080fd5b50813567ffffffffffffffff8111156131eb57600080fd5b60208301915083600182028301111561320357600080fd5b9250929050565b80356111fc81614103565b80356111fc8161410c565b80356111fc81614115565b80356111fc8161411e565b60006020828403121561324857600080fd5b600061234a8484613136565b6000806040838503121561326757600080fd5b60006132738585613136565b925050602061328485828601613136565b9150509250929050565b6000806000606084860312156132a357600080fd5b60006132af8686613136565b93505060206132c086828701613136565b92505060406132d186828701613215565b9150509250925092565b600080600080608085870312156132f157600080fd5b60006132fd8787613136565b945050602061330e87828801613136565b935050604061331f87828801613215565b925050606085013567ffffffffffffffff81111561333c57600080fd5b6133488782880161316d565b91505092959194509250565b6000806040838503121561336757600080fd5b60006133738585613136565b925050602061328485828601613141565b60008060006040848603121561339957600080fd5b60006133a58686613136565b935050602084013567ffffffffffffffff8111156133c257600080fd5b6133ce868287016131c1565b92509250509250925092565b600080604083850312156133ed57600080fd5b60006133f98585613136565b925050602061328485828601613215565b60006020828403121561341c57600080fd5b600061234a848461314c565b60006020828403121561343a57600080fd5b600061234a8484613157565b60006020828403121561345857600080fd5b600061234a8484613162565b600080600080600080600080610100898b03121561348157600080fd5b883567ffffffffffffffff81111561349857600080fd5b6134a48b828c0161316d565b985050602089013567ffffffffffffffff8111156134c157600080fd5b6134cd8b828c0161316d565b97505060406134de8b828c0161322b565b96505060606134ef8b828c0161322b565b95505060806135008b828c0161322b565b94505060a06135118b828c0161320a565b93505060c06135228b828c01613141565b92505060e06135338b828c01613220565b9150509295985092959890939650565b60008060008060008060008060006101208a8c03121561356257600080fd5b893567ffffffffffffffff81111561357957600080fd5b6135858c828d0161316d565b99505060208a013567ffffffffffffffff8111156135a257600080fd5b6135ae8c828d0161316d565b98505060406135bf8c828d0161322b565b97505060606135d08c828d0161322b565b96505060806135e18c828d0161322b565b95505060a06135f28c828d0161320a565b94505060c06136038c828d01613141565b93505060e06136148c828d01613220565b9250506101008a013567ffffffffffffffff81111561363257600080fd5b61363e8c828d0161316d565b9150509295985092959850929598565b60006020828403121561366057600080fd5b600061234a8484613215565b60006113ac838361376b565b60006136848383613cc9565b505060200190565b6136958161404c565b82525050565b60006136a68261403f565b6136b08185614043565b9350836020820285016136c285614039565b8060005b858110156136fc57848403895281516136df858261366c565b94506136ea83614039565b60209a909a01999250506001016136c6565b5091979650505050505050565b60006137148261403f565b61371e8185614043565b935061372983614039565b8060005b838110156137575781516137418882613678565b975061374c83614039565b92505060010161372d565b509495945050505050565b61369581614057565b60006137768261403f565b6137808185614043565b93506137908185602086016140a7565b613799816140d3565b9093019392505050565b61369581614090565b60006137b883856106d7565b93506137c583858461409b565b50500190565b60006137d68261403f565b6137e081856106d7565b93506137f08185602086016140a7565b9290920192915050565b6000613807601483614043565b7f4d494e545f544f5f5a45524f5f41444452455353000000000000000000000000815260200192915050565b6000613840601a83614043565b7f5345434f4e444152595f54524144494e475f44495341424c4544000000000000815260200192915050565b6000613879602a83614043565b7f5452414e534645525f544f5f4e4f4e5f45524337323152454345495645525f4981526926a82622a6a2a72a22a960b11b602082015260400192915050565b60006138c5601883614043565b7f5452414e534645525f544f5f5a45524f5f414444524553530000000000000000815260200192915050565b60006138fe601983614043565b7f43414e4e4f545f51554552595f5a45524f5f4144445245535300000000000000815260200192915050565b6000613937601183614043565b7f554e415554484f52495a45445f4255524e000000000000000000000000000000815260200192915050565b6000613970601583614043565b7f415050524f56414c5f49535f524544554e44414e540000000000000000000000815260200192915050565b60006139a9600f83614043565b7f57495448445241575f4641494c45440000000000000000000000000000000000815260200192915050565b60006139e2602383614043565b7f434f4e54454e545f49445f4e4f545f524547495354455245445f544f5f43414c8152622622a960e91b602082015260400192915050565b6000613a27601a83614043565b7f43414c4c45525f43414e4e4f545f415050524f56455f53454c46000000000000815260200192915050565b6000613a60601583614043565b7f494e56414c49445f46454445524154494f4e5f49440000000000000000000000815260200192915050565b6000613a99601383614043565b7f4f4e4c595f434f4e54524143545f4f574e455200000000000000000000000000815260200192915050565b6000613ad2602183614043565b7f53544152545f54494d455f41465445525f41554354494f4e5f454e445f54494d8152604560f81b602082015260400192915050565b6000613b15601983614043565b7f53544152545f54494d455f41465445525f454e445f54494d4500000000000000815260200192915050565b60006111fc6000836106d7565b6000613b5b601183614043565b7f494e56414c49445f54494d455f534c4f54000000000000000000000000000000815260200192915050565b6000613b94601283614043565b7f4e4f4e5f4558495354454e545f544f4b454e0000000000000000000000000000815260200192915050565b6000613bcd602583614043565b7f43414c4c45525f4e4f545f415554484f52495a45445f464f525f5452414445528152645f524f4c4560d81b602082015260400192915050565b6000613c14602583614043565b7f43414c4c45525f4e4f545f415554484f52495a45445f464f525f4d494e5445528152645f524f4c4560d81b602082015260400192915050565b6000613c5b601583614043565b7f554e415554484f52495a45445f5452414e534645520000000000000000000000815260200192915050565b6000613c94601583614043565b7f43414c4c45525f4e4f545f415554484f52495a45440000000000000000000000815260200192915050565b61369581614069565b61369581610770565b6136958161407c565b61369581614085565b600061234a8284866137ac565b60006113ac82846137cb565b60006111fc82613b41565b602081016111fc828461368c565b6101408101613d25828d61368c565b613d32602083018c61368c565b8181036040830152613d44818b61376b565b90508181036060830152613d58818a61376b565b9050613d676080830189613cdb565b613d7460a0830188613cdb565b613d8160c0830187613cdb565b613d8e60e0830186613cc0565b613d9c610100830185613762565b613daa610120830184613cd2565b9b9a5050505050505050505050565b60a08101613dc7828861368c565b613dd4602083018761368c565b613de16040830186613cc9565b613dee606083018561368c565b613dfb608083018461368c565b9695505050505050565b60808101613e13828761368c565b613e20602083018661368c565b613e2d6040830185613cc9565b8181036060830152613dfb818461376b565b602080825281016113ac818461369b565b602080825281016113ac8184613709565b602081016111fc8284613762565b602081016111fc82846137a3565b602080825281016113ac818461376b565b602080825281016111fc816137fa565b602080825281016111fc81613833565b602080825281016111fc8161386c565b602080825281016111fc816138b8565b602080825281016111fc816138f1565b602080825281016111fc8161392a565b602080825281016111fc81613963565b602080825281016111fc8161399c565b602080825281016111fc816139d5565b602080825281016111fc81613a1a565b602080825281016111fc81613a53565b602080825281016111fc81613a8c565b602080825281016111fc81613ac5565b602080825281016111fc81613b08565b602080825281016111fc81613b4e565b602080825281016111fc81613b87565b602080825281016111fc81613bc0565b602080825281016111fc81613c07565b602080825281016111fc81613c4e565b602080825281016111fc81613c87565b602081016111fc8284613cc9565b602081016111fc8284613cd2565b60405181810167ffffffffffffffff8111828210171561400957600080fd5b604052919050565b600067ffffffffffffffff82111561402857600080fd5b506020601f91909101601f19160190565b60200190565b5190565b90815260200190565b60006111fc82614070565b151590565b6001600160e01b03191690565b61ffff1690565b6001600160a01b031690565b63ffffffff1690565b65ffffffffffff1690565b60006111fc8261404c565b82818337506000910152565b60005b838110156140c25781810151838201526020016140aa565b8381111561291a5750506000910152565b601f01601f191690565b6140e68161404c565b8114611d2b57600080fd5b6140e681614057565b6140e68161405c565b6140e681614069565b6140e681610770565b6140e68161407c565b6140e68161408556fea365627a7a72315820c4737c9cdc2632e960e90c5db492494fc111cc4303660b18cd5d572b11278db86c6578706572696d656e74616cf564736f6c634300050b0040",
  "source": "pragma solidity ^0.5.11;\npragma experimental ABIEncoderV2;\n\nimport \"./ERC721.sol\";\n\n/**\n * Customized for Microsponsors\n * from Open Zeppelin's ERC721Metadata contract, which is MIT Licensed:\n * https://github.com/OpenZeppelin/openzeppelin-contracts/blob/master/contracts/token/ERC721/ERC721Metadata.sol\n\n  Licensed under the Apache License, Version 2.0 (the \"License\");\n  you may not use this file except in compliance with the License.\n  You may obtain a copy of the License at\n\n    http://www.apache.org/licenses/LICENSE-2.0\n\n  Unless required by applicable law or agreed to in writing, software\n  distributed under the License is distributed on an \"AS IS\" BASIS,\n  WITHOUT WARRANTIES OR CONDITIONS OF ANY KIND, either express or implied.\n  See the License for the specific language governing permissions and\n  limitations under the License.\n\n*/\n\ncontract Microsponsors is ERC721 {\n\n    // Token name\n    string private _name;\n\n    // Token symbol\n    string private _symbol;\n\n\n    /*\n     *     bytes4(keccak256('name()')) == 0x06fdde03\n     *     bytes4(keccak256('symbol()')) == 0x95d89b41\n     *     bytes4(keccak256('tokenURI(uint256)')) == 0xc87b56dd\n     *\n     *     => 0x06fdde03 ^ 0x95d89b41 ^ 0xc87b56dd == 0x5b5e139f\n     */\n    bytes4 private constant _INTERFACE_ID_ERC721_METADATA = 0x5b5e139f;\n\n    /**\n     * @dev Constructor function\n     */\n    constructor (string memory name, string memory symbol, address registryAddress) public {\n\n        _name = name;\n        _symbol = symbol;\n\n        // register the supported interfaces to conform to ERC721 via ERC165\n        _registerInterface(_INTERFACE_ID_ERC721_METADATA);\n\n        super.updateRegistryAddress(registryAddress);\n\n    }\n\n    /**\n     * @dev Gets the token name.\n     * @return string representing the token name\n     */\n    function name() external view returns (string memory) {\n        return _name;\n    }\n\n    /**\n     * @dev Gets the token symbol.\n     * @return string representing the token symbol\n     */\n    function symbol() external view returns (string memory) {\n        return _symbol;\n    }\n\n}\n",
  "sourcePath": "/Users/lauren/github/erc-721/contracts/Microsponsors.sol",
  "compiler": {
    "name": "solc",
    "version": "0.5.11+commit.c082d0b4.Emscripten.clang"
  },
  "schemaVersion": "3.0.10",
  "updatedAt": "2020-01-21T00:40:07.209Z",
  "devdoc": {
    "methods": {
      "approve(address,uint256)": {
        "details": "Approves another address to transfer the given token ID The zero address indicates there is no approved address. There can only be one approved address per token at a given time. Can only be called by the token owner or an approved operator.",
        "params": {
          "to": "address to be approved for the given token ID",
          "tokenId": "uint256 ID of the token to be approved"
        }
      },
      "balanceOf(address)": {
        "details": "Gets the balance of the specified address.",
        "params": {
          "tokenOwner": "address to query the balance of"
        },
        "return": "uint256 representing the amount owned by the passed address"
      },
      "burn(uint256)": {
        "details": "Customized for MicrosponsorsBurns a specific ERC721 token.",
        "params": {
          "tokenId": "uint256 id of the ERC721 token to be burned"
        }
      },
      "constructor": {
        "details": "Constructor function"
      },
      "getApproved(uint256)": {
        "details": "Gets the approved address for a token ID, or zero if no address set Reverts if the token ID does not exist.",
        "params": {
          "tokenId": "uint256 ID of the token to query the approval of"
        },
        "return": "address currently approved for the given token ID"
      },
      "isApprovedForAll(address,address)": {
        "details": "Tells whether an operator is approved by a given token owner.",
        "params": {
          "operator": "operator address which you want to query the approval of",
          "tokenOwner": "token owner address which you want to query the approval of"
        },
        "return": "bool whether the given operator is approved by the token owner"
      },
      "mint(string,string,uint48,uint48,uint48,uint16,bool,uint32)": {
        "details": "Function to mint tokens.",
        "return": "tokenId"
      },
      "mintWithTokenURI(string,string,uint48,uint48,uint48,uint16,bool,uint32,string)": {
        "details": "Function to mint tokens.",
        "params": {
          "tokenURI": "The token URI of the minted token."
        },
        "return": "tokenId"
      },
      "name()": {
        "details": "Gets the token name.",
        "return": "string representing the token name"
      },
      "ownerOf(uint256)": {
        "details": "Gets the owner of the specified token ID.",
        "params": {
          "tokenId": "uint256 ID of the token to query the owner of"
        },
        "return": "address currently marked as the owner of the given token ID"
      },
      "pause()": {
        "details": "Called by contract owner to pause minting and transfers."
      },
      "safeMint(string,string,uint48,uint48,uint48,uint16,bool,uint32)": {
        "details": "Function to safely mint tokens.",
        "return": "tokenId"
      },
      "safeMint(string,string,uint48,uint48,uint48,uint16,bool,uint32,bytes)": {
        "details": "Function to safely mint tokens.",
        "params": {
          "data": "bytes data to send along with a safe transfer check."
        },
        "return": "tokenId"
      },
      "safeMintWithTokenURI(string,string,uint48,uint48,uint48,uint16,bool,uint32,string)": {
        "params": {
          "tokenURI": "The token URI of the minted token."
        },
        "return": "tokenId"
      },
      "safeTransferFrom(address,address,uint256)": {
        "details": "Safely transfers the ownership of a given token ID to another address If the target address is a contract, it must implement {IERC721Receiver-onERC721Received}, which is called upon a safe transfer, and return the magic value `bytes4(keccak256(\"onERC721Received(address,address,uint256,bytes)\"))`; otherwise, the transfer is reverted. Requires the msg.sender to be the owner, approved, or operator",
        "params": {
          "from": "current owner of the token",
          "to": "address to receive the ownership of the given token ID",
          "tokenId": "uint256 ID of the token to be transferred"
        }
      },
      "safeTransferFrom(address,address,uint256,bytes)": {
        "details": "Safely transfers the ownership of a given token ID to another address If the target address is a contract, it must implement {IERC721Receiver-onERC721Received}, which is called upon a safe transfer, and return the magic value `bytes4(keccak256(\"onERC721Received(address,address,uint256,bytes)\"))`; otherwise, the transfer is reverted. Requires the _msgSender() to be the owner, approved, or operator",
        "params": {
          "data": "bytes data to send along with a safe transfer check",
          "from": "current owner of the token",
          "to": "address to receive the ownership of the given token ID",
          "tokenId": "uint256 ID of the token to be transferred"
        }
      },
      "setApprovalForAll(address,bool)": {
        "details": "Sets or unsets the approval of a given operator An operator is allowed to transfer all tokens of the sender on their behalf.",
        "params": {
          "approved": "representing the status of the approval to be set",
          "to": "operator address to set the approval"
        }
      },
      "supportsInterface(bytes4)": {
        "details": "See {IERC165-supportsInterface}.     * Time complexity O(1), guaranteed to always use less than 30 000 gas."
      },
      "symbol()": {
        "details": "Gets the token symbol.",
        "return": "string representing the token symbol"
      },
      "tokenMinterContentIds(address)": {
        "details": "Look up all Content IDs a Minter has tokenized TimeSlots for.      We're not getting this from the Registry because we want to keep      a separate record here of all Content ID's the acct has *ever*      minted tokens for. The registry is for keeping track of their      current (not necessarily past) Content ID registrations."
      },
      "tokenMinterPropertyNames(address,string)": {
        "details": "Look up all Property Names a Minter has created Time Slots for      with a particular Content ID"
      },
      "tokenURI(uint256)": {
        "params": {
          "tokenId": "uint256 ID of the token to query"
        },
        "return": "URI for a given token ID."
      },
      "tokensMintedBy(address)": {
        "details": "This method MUST NEVER be called by smart contract code. First, it's fairly expensive (it walks the entire _tokenIds array looking for tokens belonging to minter), but it also returns a dynamic array, which is only supported for web3 calls, and not contract-to-contract calls (at this time)."
      },
      "tokensOfOwner(address)": {
        "details": "This method MUST NEVER be called by smart contract code. First, it's fairly expensive (it walks the entire _tokenIds array looking for tokens belonging to owner), but it also returns a dynamic array, which is only supported for web3 calls, and not contract-to-contract calls (at this time).",
        "params": {
          "tokenOwner": "The owner whose tokens we are interested in."
        }
      },
      "totalSupply()": {
        "details": "Gets the total number of tokens ever minted."
      },
      "transferFrom(address,address,uint256)": {
        "details": "Transfers the ownership of a given token ID to another address. Usage of this method is discouraged, use {safeTransferFrom} whenever possible. Requires the msg.sender to be the owner, approved, or operator.",
        "params": {
          "from": "current owner of the token",
          "to": "address to receive the ownership of the given token ID",
          "tokenId": "uint256 ID of the token to be transferred"
        }
      },
      "transferOwnership1(address)": {
        "details": "Transfer owner (admin) functions to another address",
        "params": {
          "newOwner": "Address of new owner/ admin of contract"
        }
      },
      "unpause()": {
        "details": "Called by contract owner to unpause minting and transfers."
      },
      "updateMintFee(uint256)": {
        "details": "Update the fee (in wei) charged for minting a single token"
      },
      "updateRegistryAddress(address)": {
        "details": "Update contract address for Microsponsors Registry contract",
        "params": {
          "newAddress": "where the Registry contract lives"
        }
      },
      "withdrawBalance()": {
        "details": "Admin withdraws entire balance from contract."
      }
    }
  },
  "userdoc": {
    "methods": {
      "tokenURI(uint256)": {
        "notice": "Throws if the token ID does not exist. May return an empty string."
      },
      "tokensMintedBy(address)": {
        "notice": "Return all the Token IDs minted by a given account."
      }
    },
    "notice": "Customized for Microsponsors from Open Zeppelin's ERC721Metadata contract, which is MIT Licensed: https://github.com/OpenZeppelin/openzeppelin-contracts/blob/master/contracts/token/ERC721/ERC721Metadata.sol Licensed under the Apache License, Version 2.0 (the \"License\"); you may not use this file except in compliance with the License. You may obtain a copy of the License at http://www.apache.org/licenses/LICENSE-2.0 Unless required by applicable law or agreed to in writing, software distributed under the License is distributed on an \"AS IS\" BASIS, WITHOUT WARRANTIES OR CONDITIONS OF ANY KIND, either express or implied. See the License for the specific language governing permissions and limitations under the License."
  }
}