{
  "contractName": "Microsponsors",
  "abi": [
    {
      "constant": true,
      "inputs": [
        {
          "internalType": "bytes4",
          "name": "interfaceId",
          "type": "bytes4"
        }
      ],
      "name": "supportsInterface",
      "outputs": [
        {
          "internalType": "bool",
          "name": "",
          "type": "bool"
        }
      ],
      "payable": false,
      "stateMutability": "view",
      "type": "function"
    },
    {
      "constant": true,
      "inputs": [
        {
          "internalType": "uint256",
          "name": "tokenId",
          "type": "uint256"
        }
      ],
      "name": "getApproved",
      "outputs": [
        {
          "internalType": "address",
          "name": "",
          "type": "address"
        }
      ],
      "payable": false,
      "stateMutability": "view",
      "type": "function"
    },
    {
      "constant": false,
      "inputs": [
        {
          "internalType": "address",
          "name": "to",
          "type": "address"
        },
        {
          "internalType": "uint256",
          "name": "tokenId",
          "type": "uint256"
        }
      ],
      "name": "approve",
      "outputs": [],
      "payable": false,
      "stateMutability": "nonpayable",
      "type": "function"
    },
    {
      "constant": false,
      "inputs": [
        {
          "internalType": "address",
          "name": "from",
          "type": "address"
        },
        {
          "internalType": "address",
          "name": "to",
          "type": "address"
        },
        {
          "internalType": "uint256",
          "name": "tokenId",
          "type": "uint256"
        }
      ],
      "name": "transferFrom",
      "outputs": [],
      "payable": false,
      "stateMutability": "nonpayable",
      "type": "function"
    },
    {
      "constant": true,
      "inputs": [
        {
          "internalType": "address",
          "name": "target",
          "type": "address"
        }
      ],
      "name": "isWhitelisted",
      "outputs": [
        {
          "internalType": "bool",
          "name": "",
          "type": "bool"
        }
      ],
      "payable": false,
      "stateMutability": "view",
      "type": "function"
    },
    {
      "constant": false,
      "inputs": [],
      "name": "unpause",
      "outputs": [],
      "payable": false,
      "stateMutability": "nonpayable",
      "type": "function"
    },
    {
      "constant": false,
      "inputs": [
        {
          "internalType": "address",
          "name": "to",
          "type": "address"
        },
        {
          "internalType": "uint256",
          "name": "tokenId",
          "type": "uint256"
        }
      ],
      "name": "mint",
      "outputs": [
        {
          "internalType": "bool",
          "name": "",
          "type": "bool"
        }
      ],
      "payable": false,
      "stateMutability": "nonpayable",
      "type": "function"
    },
    {
      "constant": false,
      "inputs": [
        {
          "internalType": "address",
          "name": "from",
          "type": "address"
        },
        {
          "internalType": "address",
          "name": "to",
          "type": "address"
        },
        {
          "internalType": "uint256",
          "name": "tokenId",
          "type": "uint256"
        }
      ],
      "name": "safeTransferFrom",
      "outputs": [],
      "payable": false,
      "stateMutability": "nonpayable",
      "type": "function"
    },
    {
      "constant": false,
      "inputs": [
        {
          "internalType": "uint256",
          "name": "tokenId",
          "type": "uint256"
        }
      ],
      "name": "burn",
      "outputs": [],
      "payable": false,
      "stateMutability": "nonpayable",
      "type": "function"
    },
    {
      "constant": false,
      "inputs": [
        {
          "internalType": "address",
          "name": "to",
          "type": "address"
        },
        {
          "internalType": "uint256",
          "name": "tokenId",
          "type": "uint256"
        },
        {
          "internalType": "string",
          "name": "tokenURI",
          "type": "string"
        }
      ],
      "name": "mintWithTokenURI",
      "outputs": [
        {
          "internalType": "bool",
          "name": "",
          "type": "bool"
        }
      ],
      "payable": false,
      "stateMutability": "nonpayable",
      "type": "function"
    },
    {
      "constant": true,
      "inputs": [],
      "name": "paused",
      "outputs": [
        {
          "internalType": "bool",
          "name": "",
          "type": "bool"
        }
      ],
      "payable": false,
      "stateMutability": "view",
      "type": "function"
    },
    {
      "constant": true,
      "inputs": [
        {
          "internalType": "uint256",
          "name": "tokenId",
          "type": "uint256"
        }
      ],
      "name": "ownerOf",
      "outputs": [
        {
          "internalType": "address",
          "name": "",
          "type": "address"
        }
      ],
      "payable": false,
      "stateMutability": "view",
      "type": "function"
    },
    {
      "constant": true,
      "inputs": [
        {
          "internalType": "address",
          "name": "tokenOwner",
          "type": "address"
        }
      ],
      "name": "balanceOf",
      "outputs": [
        {
          "internalType": "uint256",
          "name": "",
          "type": "uint256"
        }
      ],
      "payable": false,
      "stateMutability": "view",
      "type": "function"
    },
    {
      "constant": true,
      "inputs": [],
      "name": "registry",
      "outputs": [
        {
          "internalType": "contract DeployedRegistry",
          "name": "",
          "type": "address"
        }
      ],
      "payable": false,
      "stateMutability": "view",
      "type": "function"
    },
    {
      "constant": false,
      "inputs": [],
      "name": "pause",
      "outputs": [],
      "payable": false,
      "stateMutability": "nonpayable",
      "type": "function"
    },
    {
      "constant": false,
      "inputs": [
        {
          "internalType": "address",
          "name": "to",
          "type": "address"
        },
        {
          "internalType": "uint256",
          "name": "tokenId",
          "type": "uint256"
        },
        {
          "internalType": "bytes",
          "name": "_data",
          "type": "bytes"
        }
      ],
      "name": "safeMint",
      "outputs": [
        {
          "internalType": "bool",
          "name": "",
          "type": "bool"
        }
      ],
      "payable": false,
      "stateMutability": "nonpayable",
      "type": "function"
    },
    {
      "constant": true,
      "inputs": [],
      "name": "owner",
      "outputs": [
        {
          "internalType": "address",
          "name": "",
          "type": "address"
        }
      ],
      "payable": false,
      "stateMutability": "view",
      "type": "function"
    },
    {
      "constant": false,
      "inputs": [
        {
          "internalType": "address",
          "name": "to",
          "type": "address"
        },
        {
          "internalType": "uint256",
          "name": "tokenId",
          "type": "uint256"
        }
      ],
      "name": "safeMint",
      "outputs": [
        {
          "internalType": "bool",
          "name": "",
          "type": "bool"
        }
      ],
      "payable": false,
      "stateMutability": "nonpayable",
      "type": "function"
    },
    {
      "constant": false,
      "inputs": [
        {
          "internalType": "address",
          "name": "to",
          "type": "address"
        },
        {
          "internalType": "bool",
          "name": "approved",
          "type": "bool"
        }
      ],
      "name": "setApprovalForAll",
      "outputs": [],
      "payable": false,
      "stateMutability": "nonpayable",
      "type": "function"
    },
    {
      "constant": true,
      "inputs": [
        {
          "internalType": "address",
          "name": "account",
          "type": "address"
        }
      ],
      "name": "isMinter",
      "outputs": [
        {
          "internalType": "bool",
          "name": "",
          "type": "bool"
        }
      ],
      "payable": false,
      "stateMutability": "view",
      "type": "function"
    },
    {
      "constant": false,
      "inputs": [
        {
          "internalType": "address",
          "name": "from",
          "type": "address"
        },
        {
          "internalType": "address",
          "name": "to",
          "type": "address"
        },
        {
          "internalType": "uint256",
          "name": "tokenId",
          "type": "uint256"
        },
        {
          "internalType": "bytes",
          "name": "_data",
          "type": "bytes"
        }
      ],
      "name": "safeTransferFrom",
      "outputs": [],
      "payable": false,
      "stateMutability": "nonpayable",
      "type": "function"
    },
    {
      "constant": false,
      "inputs": [
        {
          "internalType": "address",
          "name": "newAddress",
          "type": "address"
        }
      ],
      "name": "updateRegistryAddress",
      "outputs": [],
      "payable": false,
      "stateMutability": "nonpayable",
      "type": "function"
    },
    {
      "constant": true,
      "inputs": [
        {
          "internalType": "uint256",
          "name": "tokenId",
          "type": "uint256"
        }
      ],
      "name": "tokenURI",
      "outputs": [
        {
          "internalType": "string",
          "name": "",
          "type": "string"
        }
      ],
      "payable": false,
      "stateMutability": "view",
      "type": "function"
    },
    {
      "constant": false,
      "inputs": [
        {
          "internalType": "address",
          "name": "to",
          "type": "address"
        },
        {
          "internalType": "uint256",
          "name": "tokenId",
          "type": "uint256"
        },
        {
          "internalType": "string",
          "name": "tokenURI",
          "type": "string"
        }
      ],
      "name": "safeMintWithTokenURI",
      "outputs": [
        {
          "internalType": "bool",
          "name": "",
          "type": "bool"
        }
      ],
      "payable": false,
      "stateMutability": "nonpayable",
      "type": "function"
    },
    {
      "constant": true,
      "inputs": [
        {
          "internalType": "address",
          "name": "tokenOwner",
          "type": "address"
        },
        {
          "internalType": "address",
          "name": "operator",
          "type": "address"
        }
      ],
      "name": "isApprovedForAll",
      "outputs": [
        {
          "internalType": "bool",
          "name": "",
          "type": "bool"
        }
      ],
      "payable": false,
      "stateMutability": "view",
      "type": "function"
    },
    {
      "constant": false,
      "inputs": [
        {
          "internalType": "address",
          "name": "newOwner",
          "type": "address"
        }
      ],
      "name": "transferOwnership",
      "outputs": [],
      "payable": false,
      "stateMutability": "nonpayable",
      "type": "function"
    },
    {
      "inputs": [
        {
          "internalType": "string",
          "name": "name",
          "type": "string"
        },
        {
          "internalType": "string",
          "name": "symbol",
          "type": "string"
        },
        {
          "internalType": "address",
          "name": "registryAddress",
          "type": "address"
        }
      ],
      "payable": false,
      "stateMutability": "nonpayable",
      "type": "constructor"
    },
    {
      "anonymous": false,
      "inputs": [
        {
          "indexed": true,
          "internalType": "address",
          "name": "from",
          "type": "address"
        },
        {
          "indexed": true,
          "internalType": "address",
          "name": "to",
          "type": "address"
        },
        {
          "indexed": true,
          "internalType": "uint256",
          "name": "tokenId",
          "type": "uint256"
        }
      ],
      "name": "Transfer",
      "type": "event"
    },
    {
      "anonymous": false,
      "inputs": [
        {
          "indexed": true,
          "internalType": "address",
          "name": "tokenOwner",
          "type": "address"
        },
        {
          "indexed": true,
          "internalType": "address",
          "name": "approved",
          "type": "address"
        },
        {
          "indexed": true,
          "internalType": "uint256",
          "name": "tokenId",
          "type": "uint256"
        }
      ],
      "name": "Approval",
      "type": "event"
    },
    {
      "anonymous": false,
      "inputs": [
        {
          "indexed": true,
          "internalType": "address",
          "name": "tokenOwner",
          "type": "address"
        },
        {
          "indexed": true,
          "internalType": "address",
          "name": "operator",
          "type": "address"
        },
        {
          "indexed": false,
          "internalType": "bool",
          "name": "approved",
          "type": "bool"
        }
      ],
      "name": "ApprovalForAll",
      "type": "event"
    },
    {
      "constant": true,
      "inputs": [],
      "name": "name",
      "outputs": [
        {
          "internalType": "string",
          "name": "",
          "type": "string"
        }
      ],
      "payable": false,
      "stateMutability": "view",
      "type": "function"
    },
    {
      "constant": true,
      "inputs": [],
      "name": "symbol",
      "outputs": [
        {
          "internalType": "string",
          "name": "",
          "type": "string"
        }
      ],
      "payable": false,
      "stateMutability": "view",
      "type": "function"
    }
  ],
  "bytecode": "0x60806040526000600860006101000a81548160ff0219169083151502179055503480156200002c57600080fd5b5060405162003b7538038062003b75833981810160405260608110156200005257600080fd5b81019080805160405193929190846401000000008211156200007357600080fd5b838201915060208201858111156200008a57600080fd5b8251866001820283011164010000000082111715620000a857600080fd5b8083526020830192505050908051906020019080838360005b83811015620000de578082015181840152602081019050620000c1565b50505050905090810190601f1680156200010c5780820380516001836020036101000a031916815260200191505b50604052602001805160405193929190846401000000008211156200013057600080fd5b838201915060208201858111156200014757600080fd5b82518660018202830111640100000000821117156200016557600080fd5b8083526020830192505050908051906020019080838360005b838110156200019b5780820151818401526020810190506200017e565b50505050905090810190601f168015620001c95780820380516001836020036101000a031916815260200191505b5060405260200180519060200190929190505050620001f56301ffc9a760e01b620002c660201b60201c565b6200020d6380ac58cd60e01b620002c660201b60201c565b6200021d620003cf60201b60201c565b600160006101000a81548173ffffffffffffffffffffffffffffffffffffffff021916908373ffffffffffffffffffffffffffffffffffffffff160217905550826009908051906020019062000275929190620004ee565b5081600a90805190602001906200028e929190620004ee565b50620002a7635b5e139f60e01b620002c660201b60201c565b620002bd81620003d760201b62001f9e1760201c565b5050506200059d565b63ffffffff60e01b817bffffffffffffffffffffffffffffffffffffffffffffffffffffffff1916141562000363576040517f08c379a000000000000000000000000000000000000000000000000000000000815260040180806020018281038252601c8152602001807f4552433136353a20696e76616c696420696e746572666163652069640000000081525060200191505060405180910390fd5b6001600080837bffffffffffffffffffffffffffffffffffffffffffffffffffffffff19167bffffffffffffffffffffffffffffffffffffffffffffffffffffffff1916815260200190815260200160002060006101000a81548160ff02191690831515021790555050565b600033905090565b600160009054906101000a900473ffffffffffffffffffffffffffffffffffffffff1673ffffffffffffffffffffffffffffffffffffffff1662000420620003cf60201b60201c565b73ffffffffffffffffffffffffffffffffffffffff1614620004aa576040517f08c379a000000000000000000000000000000000000000000000000000000000815260040180806020018281038252601b8152602001807f4552433732313a2063616c6c6572206973206e6f74206f776e6572000000000081525060200191505060405180910390fd5b80600260006101000a81548173ffffffffffffffffffffffffffffffffffffffff021916908373ffffffffffffffffffffffffffffffffffffffff16021790555050565b828054600181600116156101000203166002900490600052602060002090601f016020900481019282601f106200053157805160ff191683800117855562000562565b8280016001018555821562000562579182015b828111156200056157825182559160200191906001019062000544565b5b50905062000571919062000575565b5090565b6200059a91905b80821115620005965760008160009055506001016200057c565b5090565b90565b6135c880620005ad6000396000f3fe608060405234801561001057600080fd5b50600436106101c45760003560e01c80637b103999116100f9578063aa271e1a11610097578063c87b56dd11610071578063c87b56dd14610ba1578063ca63c0ef14610c48578063e985e9c514610d45578063f2fde38b14610dc1576101c4565b8063aa271e1a146109fc578063b88d4fde14610a58578063c57a882514610b5d576101c4565b80638da5cb5b116100d35780638da5cb5b1461087957806395d89b41146108c3578063a144819414610946578063a22cb465146109ac576101c4565b80637b103999146107285780638456cb59146107725780638832e6e31461077c576101c4565b806340c10f191161016657806350bb4e7f1161014057806350bb4e7f146105435780635c975abb146106405780636352211e1461066257806370a08231146106d0576101c4565b806340c10f191461044157806342842e0e146104a757806342966c6814610515576101c4565b8063095ea7b3116101a2578063095ea7b31461031f57806323b872dd1461036d5780633af32abf146103db5780633f4ba83a14610437576101c4565b806301ffc9a7146101c957806306fdde031461022e578063081812fc146102b1575b600080fd5b610214600480360360208110156101df57600080fd5b8101908080357bffffffffffffffffffffffffffffffffffffffffffffffffffffffff19169060200190929190505050610e05565b604051808215151515815260200191505060405180910390f35b610236610e6c565b6040518080602001828103825283818151815260200191508051906020019080838360005b8381101561027657808201518184015260208101905061025b565b50505050905090810190601f1680156102a35780820380516001836020036101000a031916815260200191505b509250505060405180910390f35b6102dd600480360360208110156102c757600080fd5b8101908080359060200190929190505050610f0e565b604051808273ffffffffffffffffffffffffffffffffffffffff1673ffffffffffffffffffffffffffffffffffffffff16815260200191505060405180910390f35b61036b6004803603604081101561033557600080fd5b81019080803573ffffffffffffffffffffffffffffffffffffffff16906020019092919080359060200190929190505050610fa9565b005b6103d96004803603606081101561038357600080fd5b81019080803573ffffffffffffffffffffffffffffffffffffffff169060200190929190803573ffffffffffffffffffffffffffffffffffffffff1690602001909291908035906020019092919050505061122c565b005b61041d600480360360208110156103f157600080fd5b81019080803573ffffffffffffffffffffffffffffffffffffffff169060200190929190505050611378565b604051808215151515815260200191505060405180910390f35b61043f61145b565b005b61048d6004803603604081101561045757600080fd5b81019080803573ffffffffffffffffffffffffffffffffffffffff1690602001909291908035906020019092919050505061155b565b604051808215151515815260200191505060405180910390f35b610513600480360360608110156104bd57600080fd5b81019080803573ffffffffffffffffffffffffffffffffffffffff169060200190929190803573ffffffffffffffffffffffffffffffffffffffff169060200190929190803590602001909291905050506115f0565b005b6105416004803603602081101561052b57600080fd5b8101908080359060200190929190505050611610565b005b6106266004803603606081101561055957600080fd5b81019080803573ffffffffffffffffffffffffffffffffffffffff16906020019092919080359060200190929190803590602001906401000000008111156105a057600080fd5b8201836020820111156105b257600080fd5b803590602001918460018302840111640100000000831117156105d457600080fd5b91908080601f016020809104026020016040519081016040528093929190818152602001838380828437600081840152601f19601f82011690508083019250505050505050919291929050505061169c565b604051808215151515815260200191505060405180910390f35b61064861173c565b604051808215151515815260200191505060405180910390f35b61068e6004803603602081101561067857600080fd5b810190808035906020019092919050505061174f565b604051808273ffffffffffffffffffffffffffffffffffffffff1673ffffffffffffffffffffffffffffffffffffffff16815260200191505060405180910390f35b610712600480360360208110156106e657600080fd5b81019080803573ffffffffffffffffffffffffffffffffffffffff169060200190929190505050611817565b6040518082815260200191505060405180910390f35b6107306118ec565b604051808273ffffffffffffffffffffffffffffffffffffffff1673ffffffffffffffffffffffffffffffffffffffff16815260200191505060405180910390f35b61077a611912565b005b61085f6004803603606081101561079257600080fd5b81019080803573ffffffffffffffffffffffffffffffffffffffff16906020019092919080359060200190929190803590602001906401000000008111156107d957600080fd5b8201836020820111156107eb57600080fd5b8035906020019184600183028401116401000000008311171561080d57600080fd5b91908080601f016020809104026020016040519081016040528093929190818152602001838380828437600081840152601f19601f820116905080830192505050505050509192919290505050611a13565b604051808215151515815260200191505060405180910390f35b610881611aaa565b604051808273ffffffffffffffffffffffffffffffffffffffff1673ffffffffffffffffffffffffffffffffffffffff16815260200191505060405180910390f35b6108cb611ad0565b6040518080602001828103825283818151815260200191508051906020019080838360005b8381101561090b5780820151818401526020810190506108f0565b50505050905090810190601f1680156109385780820380516001836020036101000a031916815260200191505b509250505060405180910390f35b6109926004803603604081101561095c57600080fd5b81019080803573ffffffffffffffffffffffffffffffffffffffff16906020019092919080359060200190929190505050611b72565b604051808215151515815260200191505060405180910390f35b6109fa600480360360408110156109c257600080fd5b81019080803573ffffffffffffffffffffffffffffffffffffffff169060200190929190803515159060200190929190505050611c07565b005b610a3e60048036036020811015610a1257600080fd5b81019080803573ffffffffffffffffffffffffffffffffffffffff169060200190929190505050611e3e565b604051808215151515815260200191505060405180910390f35b610b5b60048036036080811015610a6e57600080fd5b81019080803573ffffffffffffffffffffffffffffffffffffffff169060200190929190803573ffffffffffffffffffffffffffffffffffffffff1690602001909291908035906020019092919080359060200190640100000000811115610ad557600080fd5b820183602082011115610ae757600080fd5b80359060200191846001830284011164010000000083111715610b0957600080fd5b91908080601f016020809104026020016040519081016040528093929190818152602001838380828437600081840152601f19601f820116905080830192505050505050509192919290505050611e50565b005b610b9f60048036036020811015610b7357600080fd5b81019080803573ffffffffffffffffffffffffffffffffffffffff169060200190929190505050611f9e565b005b610bcd60048036036020811015610bb757600080fd5b81019080803590602001909291905050506120ac565b6040518080602001828103825283818151815260200191508051906020019080838360005b83811015610c0d578082015181840152602081019050610bf2565b50505050905090810190601f168015610c3a5780820380516001836020036101000a031916815260200191505b509250505060405180910390f35b610d2b60048036036060811015610c5e57600080fd5b81019080803573ffffffffffffffffffffffffffffffffffffffff1690602001909291908035906020019092919080359060200190640100000000811115610ca557600080fd5b820183602082011115610cb757600080fd5b80359060200191846001830284011164010000000083111715610cd957600080fd5b91908080601f016020809104026020016040519081016040528093929190818152602001838380828437600081840152601f19601f8201169050808301925050505050505091929192905050506121bf565b604051808215151515815260200191505060405180910390f35b610da760048036036040811015610d5b57600080fd5b81019080803573ffffffffffffffffffffffffffffffffffffffff169060200190929190803573ffffffffffffffffffffffffffffffffffffffff16906020019092919050505061225f565b604051808215151515815260200191505060405180910390f35b610e0360048036036020811015610dd757600080fd5b81019080803573ffffffffffffffffffffffffffffffffffffffff1690602001909291905050506122f3565b005b6000806000837bffffffffffffffffffffffffffffffffffffffffffffffffffffffff19167bffffffffffffffffffffffffffffffffffffffffffffffffffffffff1916815260200190815260200160002060009054906101000a900460ff169050919050565b606060098054600181600116156101000203166002900480601f016020809104026020016040519081016040528092919081815260200182805460018160011615610100020316600290048015610f045780601f10610ed957610100808354040283529160200191610f04565b820191906000526020600020905b815481529060010190602001808311610ee757829003601f168201915b5050505050905090565b6000610f1982612436565b610f6e576040517f08c379a000000000000000000000000000000000000000000000000000000000815260040180806020018281038252602c81526020018061344f602c913960400191505060405180910390fd5b6004600083815260200190815260200160002060009054906101000a900473ffffffffffffffffffffffffffffffffffffffff169050919050565b610fb9610fb46124a8565b611378565b61100e576040517f08c379a00000000000000000000000000000000000000000000000000000000081526004018080602001828103825260218152602001806135736021913960400191505060405180910390fd5b600860009054906101000a900460ff161561102857600080fd5b60006110338261174f565b90508073ffffffffffffffffffffffffffffffffffffffff168373ffffffffffffffffffffffffffffffffffffffff1614156110d7576040517f08c379a000000000000000000000000000000000000000000000000000000000815260040180806020018281038252601d8152602001807f4552433732313a20617070726f76616c20697320726564756e64616e7400000081525060200191505060405180910390fd5b8073ffffffffffffffffffffffffffffffffffffffff166110f66124a8565b73ffffffffffffffffffffffffffffffffffffffff16148061112557506111248161111f6124a8565b61225f565b5b61117a576040517f08c379a000000000000000000000000000000000000000000000000000000000815260040180806020018281038252603e8152602001806133e2603e913960400191505060405180910390fd5b826004600084815260200190815260200160002060006101000a81548173ffffffffffffffffffffffffffffffffffffffff021916908373ffffffffffffffffffffffffffffffffffffffff160217905550818373ffffffffffffffffffffffffffffffffffffffff168273ffffffffffffffffffffffffffffffffffffffff167f8c5be1e5ebec7d5bd14f71427d1e84f3dd0314c0f7b2291e5b200ac8c7c3b92560405160405180910390a4505050565b600860009054906101000a900460ff161561124657600080fd5b6112576112516124a8565b826124b0565b6112ac576040517f08c379a00000000000000000000000000000000000000000000000000000000081526004018080602001828103825260318152602001806134a46031913960400191505060405180910390fd5b6112b583611378565b61130a576040517f08c379a00000000000000000000000000000000000000000000000000000000081526004018080602001828103825260348152602001806133846034913960400191505060405180910390fd5b61131382611378565b611368576040517f08c379a00000000000000000000000000000000000000000000000000000000081526004018080602001828103825260348152602001806133846034913960400191505060405180910390fd5b6113738383836125a4565b505050565b6000600260009054906101000a900473ffffffffffffffffffffffffffffffffffffffff1673ffffffffffffffffffffffffffffffffffffffff16633af32abf836040518263ffffffff1660e01b8152600401808273ffffffffffffffffffffffffffffffffffffffff1673ffffffffffffffffffffffffffffffffffffffff16815260200191505060206040518083038186803b15801561141957600080fd5b505afa15801561142d573d6000803e3d6000fd5b505050506040513d602081101561144357600080fd5b81019080805190602001909291905050509050919050565b600160009054906101000a900473ffffffffffffffffffffffffffffffffffffffff1673ffffffffffffffffffffffffffffffffffffffff1661149c6124a8565b73ffffffffffffffffffffffffffffffffffffffff1614611525576040517f08c379a000000000000000000000000000000000000000000000000000000000815260040180806020018281038252601b8152602001807f4552433732313a2063616c6c6572206973206e6f74206f776e6572000000000081525060200191505060405180910390fd5b600860009054906101000a900460ff1661153e57600080fd5b6000600860006101000a81548160ff021916908315150217905550565b600061156d6115686124a8565b611e3e565b6115c2576040517f08c379a00000000000000000000000000000000000000000000000000000000081526004018080602001828103825260358152602001806132ff6035913960400191505060405180910390fd5b600860009054906101000a900460ff16156115dc57600080fd5b6115e683836127ff565b6001905092915050565b61160b83838360405180602001604052806000815250611e50565b505050565b600860009054906101000a900460ff161561162a57600080fd5b61163b6116356124a8565b826124b0565b611690576040517f08c379a000000000000000000000000000000000000000000000000000000000815260040180806020018281038252602e81526020018061351e602e913960400191505060405180910390fd5b61169981612a17565b50565b60006116ae6116a96124a8565b611e3e565b611703576040517f08c379a00000000000000000000000000000000000000000000000000000000081526004018080602001828103825260358152602001806132ff6035913960400191505060405180910390fd5b600860009054906101000a900460ff161561171d57600080fd5b61172784846127ff565b6117318383612a2c565b600190509392505050565b600860009054906101000a900460ff1681565b6000806003600084815260200190815260200160002060009054906101000a900473ffffffffffffffffffffffffffffffffffffffff169050600073ffffffffffffffffffffffffffffffffffffffff168173ffffffffffffffffffffffffffffffffffffffff16141561180e576040517f08c379a000000000000000000000000000000000000000000000000000000000815260040180806020018281038252602f815260200180613420602f913960400191505060405180910390fd5b80915050919050565b60008073ffffffffffffffffffffffffffffffffffffffff168273ffffffffffffffffffffffffffffffffffffffff16141561189e576040517f08c379a000000000000000000000000000000000000000000000000000000000815260040180806020018281038252602a8152602001806133b8602a913960400191505060405180910390fd5b6118e5600560008473ffffffffffffffffffffffffffffffffffffffff1673ffffffffffffffffffffffffffffffffffffffff168152602001908152602001600020612ab6565b9050919050565b600260009054906101000a900473ffffffffffffffffffffffffffffffffffffffff1681565b600160009054906101000a900473ffffffffffffffffffffffffffffffffffffffff1673ffffffffffffffffffffffffffffffffffffffff166119536124a8565b73ffffffffffffffffffffffffffffffffffffffff16146119dc576040517f08c379a000000000000000000000000000000000000000000000000000000000815260040180806020018281038252601b8152602001807f4552433732313a2063616c6c6572206973206e6f74206f776e6572000000000081525060200191505060405180910390fd5b600860009054906101000a900460ff16156119f657600080fd5b6001600860006101000a81548160ff021916908315150217905550565b6000611a25611a206124a8565b611e3e565b611a7a576040517f08c379a00000000000000000000000000000000000000000000000000000000081526004018080602001828103825260358152602001806132ff6035913960400191505060405180910390fd5b600860009054906101000a900460ff1615611a9457600080fd5b611a9f848484612ac4565b600190509392505050565b600160009054906101000a900473ffffffffffffffffffffffffffffffffffffffff1681565b6060600a8054600181600116156101000203166002900480601f016020809104026020016040519081016040528092919081815260200182805460018160011615610100020316600290048015611b685780601f10611b3d57610100808354040283529160200191611b68565b820191906000526020600020905b815481529060010190602001808311611b4b57829003601f168201915b5050505050905090565b6000611b84611b7f6124a8565b611e3e565b611bd9576040517f08c379a00000000000000000000000000000000000000000000000000000000081526004018080602001828103825260358152602001806132ff6035913960400191505060405180910390fd5b600860009054906101000a900460ff1615611bf357600080fd5b611bfd8383612b35565b6001905092915050565b611c17611c126124a8565b611378565b611c6c576040517f08c379a00000000000000000000000000000000000000000000000000000000081526004018080602001828103825260218152602001806135736021913960400191505060405180910390fd5b600860009054906101000a900460ff1615611c8657600080fd5b611c8e6124a8565b73ffffffffffffffffffffffffffffffffffffffff168273ffffffffffffffffffffffffffffffffffffffff161415611d2f576040517f08c379a00000000000000000000000000000000000000000000000000000000081526004018080602001828103825260198152602001807f4552433732313a20617070726f766520746f2063616c6c65720000000000000081525060200191505060405180910390fd5b8060066000611d3c6124a8565b73ffffffffffffffffffffffffffffffffffffffff1673ffffffffffffffffffffffffffffffffffffffff16815260200190815260200160002060008473ffffffffffffffffffffffffffffffffffffffff1673ffffffffffffffffffffffffffffffffffffffff16815260200190815260200160002060006101000a81548160ff0219169083151502179055508173ffffffffffffffffffffffffffffffffffffffff16611de96124a8565b73ffffffffffffffffffffffffffffffffffffffff167f17307eab39ab6107e8899845ad3d59bd9653f200f220920489ca2b5937696c3183604051808215151515815260200191505060405180910390a35050565b6000611e4982611378565b9050919050565b600860009054906101000a900460ff1615611e6a57600080fd5b611e7384611378565b611ec8576040517f08c379a00000000000000000000000000000000000000000000000000000000081526004018080602001828103825260348152602001806133846034913960400191505060405180910390fd5b611ed183611378565b611f26576040517f08c379a00000000000000000000000000000000000000000000000000000000081526004018080602001828103825260348152602001806133846034913960400191505060405180910390fd5b611f37611f316124a8565b836124b0565b611f8c576040517f08c379a00000000000000000000000000000000000000000000000000000000081526004018080602001828103825260318152602001806134a46031913960400191505060405180910390fd5b611f9884848484612b53565b50505050565b600160009054906101000a900473ffffffffffffffffffffffffffffffffffffffff1673ffffffffffffffffffffffffffffffffffffffff16611fdf6124a8565b73ffffffffffffffffffffffffffffffffffffffff1614612068576040517f08c379a000000000000000000000000000000000000000000000000000000000815260040180806020018281038252601b8152602001807f4552433732313a2063616c6c6572206973206e6f74206f776e6572000000000081525060200191505060405180910390fd5b80600260006101000a81548173ffffffffffffffffffffffffffffffffffffffff021916908373ffffffffffffffffffffffffffffffffffffffff16021790555050565b60606120b782612436565b61210c576040517f08c379a000000000000000000000000000000000000000000000000000000000815260040180806020018281038252602781526020018061354c6027913960400191505060405180910390fd5b600760008381526020019081526020016000208054600181600116156101000203166002900480601f0160208091040260200160405190810160405280929190818152602001828054600181600116156101000203166002900480156121b35780601f10612188576101008083540402835291602001916121b3565b820191906000526020600020905b81548152906001019060200180831161219657829003601f168201915b50505050509050919050565b60006121d16121cc6124a8565b611e3e565b612226576040517f08c379a00000000000000000000000000000000000000000000000000000000081526004018080602001828103825260358152602001806132ff6035913960400191505060405180910390fd5b600860009054906101000a900460ff161561224057600080fd5b61224a8484612b35565b6122548383612a2c565b600190509392505050565b6000600660008473ffffffffffffffffffffffffffffffffffffffff1673ffffffffffffffffffffffffffffffffffffffff16815260200190815260200160002060008373ffffffffffffffffffffffffffffffffffffffff1673ffffffffffffffffffffffffffffffffffffffff16815260200190815260200160002060009054906101000a900460ff16905092915050565b600160009054906101000a900473ffffffffffffffffffffffffffffffffffffffff1673ffffffffffffffffffffffffffffffffffffffff166123346124a8565b73ffffffffffffffffffffffffffffffffffffffff16146123bd576040517f08c379a000000000000000000000000000000000000000000000000000000000815260040180806020018281038252601b8152602001807f4552433732313a2063616c6c6572206973206e6f74206f776e6572000000000081525060200191505060405180910390fd5b600073ffffffffffffffffffffffffffffffffffffffff168173ffffffffffffffffffffffffffffffffffffffff16146124335780600160006101000a81548173ffffffffffffffffffffffffffffffffffffffff021916908373ffffffffffffffffffffffffffffffffffffffff1602179055505b50565b6000806003600084815260200190815260200160002060009054906101000a900473ffffffffffffffffffffffffffffffffffffffff169050600073ffffffffffffffffffffffffffffffffffffffff168173ffffffffffffffffffffffffffffffffffffffff161415915050919050565b600033905090565b60006124bb82612436565b612510576040517f08c379a000000000000000000000000000000000000000000000000000000000815260040180806020018281038252602c815260200180613358602c913960400191505060405180910390fd5b600061251b8361174f565b90508073ffffffffffffffffffffffffffffffffffffffff168473ffffffffffffffffffffffffffffffffffffffff16148061258a57508373ffffffffffffffffffffffffffffffffffffffff1661257284610f0e565b73ffffffffffffffffffffffffffffffffffffffff16145b8061259b575061259a818561225f565b5b91505092915050565b8273ffffffffffffffffffffffffffffffffffffffff166125c48261174f565b73ffffffffffffffffffffffffffffffffffffffff1614612630576040517f08c379a000000000000000000000000000000000000000000000000000000000815260040180806020018281038252602981526020018061347b6029913960400191505060405180910390fd5b600073ffffffffffffffffffffffffffffffffffffffff168273ffffffffffffffffffffffffffffffffffffffff1614156126b6576040517f08c379a00000000000000000000000000000000000000000000000000000000081526004018080602001828103825260248152602001806133346024913960400191505060405180910390fd5b6126bf81612bc5565b612706600560008573ffffffffffffffffffffffffffffffffffffffff1673ffffffffffffffffffffffffffffffffffffffff168152602001908152602001600020612c83565b61274d600560008473ffffffffffffffffffffffffffffffffffffffff1673ffffffffffffffffffffffffffffffffffffffff168152602001908152602001600020612ca6565b816003600083815260200190815260200160002060006101000a81548173ffffffffffffffffffffffffffffffffffffffff021916908373ffffffffffffffffffffffffffffffffffffffff160217905550808273ffffffffffffffffffffffffffffffffffffffff168473ffffffffffffffffffffffffffffffffffffffff167fddf252ad1be2c89b69c2b068fc378daa952ba7f163c4a11628f55a4df523b3ef60405160405180910390a4505050565b600073ffffffffffffffffffffffffffffffffffffffff168273ffffffffffffffffffffffffffffffffffffffff1614156128a2576040517f08c379a00000000000000000000000000000000000000000000000000000000081526004018080602001828103825260208152602001807f4552433732313a206d696e7420746f20746865207a65726f206164647265737381525060200191505060405180910390fd5b6128ab81612436565b1561291e576040517f08c379a000000000000000000000000000000000000000000000000000000000815260040180806020018281038252601c8152602001807f4552433732313a20746f6b656e20616c7265616479206d696e7465640000000081525060200191505060405180910390fd5b816003600083815260200190815260200160002060006101000a81548173ffffffffffffffffffffffffffffffffffffffff021916908373ffffffffffffffffffffffffffffffffffffffff1602179055506129b7600560008473ffffffffffffffffffffffffffffffffffffffff1673ffffffffffffffffffffffffffffffffffffffff168152602001908152602001600020612ca6565b808273ffffffffffffffffffffffffffffffffffffffff16600073ffffffffffffffffffffffffffffffffffffffff167fddf252ad1be2c89b69c2b068fc378daa952ba7f163c4a11628f55a4df523b3ef60405160405180910390a45050565b612a29612a238261174f565b82612cbc565b50565b612a3582612436565b612a8a576040517f08c379a00000000000000000000000000000000000000000000000000000000081526004018080602001828103825260248152602001806134fa6024913960400191505060405180910390fd5b80600760008481526020019081526020016000209080519060200190612ab19291906131df565b505050565b600081600001549050919050565b612ace83836127ff565b612adb6000848484612e9a565b612b30576040517f08c379a00000000000000000000000000000000000000000000000000000000081526004018080602001828103825260328152602001806132cd6032913960400191505060405180910390fd5b505050565b612b4f828260405180602001604052806000815250612ac4565b5050565b612b5e8484846125a4565b612b6a84848484612e9a565b612bbf576040517f08c379a00000000000000000000000000000000000000000000000000000000081526004018080602001828103825260328152602001806132cd6032913960400191505060405180910390fd5b50505050565b600073ffffffffffffffffffffffffffffffffffffffff166004600083815260200190815260200160002060009054906101000a900473ffffffffffffffffffffffffffffffffffffffff1673ffffffffffffffffffffffffffffffffffffffff1614612c805760006004600083815260200190815260200160002060006101000a81548173ffffffffffffffffffffffffffffffffffffffff021916908373ffffffffffffffffffffffffffffffffffffffff1602179055505b50565b612c9b6001826000015461308a90919063ffffffff16565b816000018190555050565b6001816000016000828254019250508190555050565b8173ffffffffffffffffffffffffffffffffffffffff16612cdc8261174f565b73ffffffffffffffffffffffffffffffffffffffff1614612d48576040517f08c379a00000000000000000000000000000000000000000000000000000000081526004018080602001828103825260258152602001806134d56025913960400191505060405180910390fd5b612d5181612bc5565b612d98600560008473ffffffffffffffffffffffffffffffffffffffff1673ffffffffffffffffffffffffffffffffffffffff168152602001908152602001600020612c83565b60006003600083815260200190815260200160002060006101000a81548173ffffffffffffffffffffffffffffffffffffffff021916908373ffffffffffffffffffffffffffffffffffffffff16021790555060006007600083815260200190815260200160002080546001816001161561010002031660029004905014612e3a57600760008281526020019081526020016000206000612e39919061325f565b5b80600073ffffffffffffffffffffffffffffffffffffffff168373ffffffffffffffffffffffffffffffffffffffff167fddf252ad1be2c89b69c2b068fc378daa952ba7f163c4a11628f55a4df523b3ef60405160405180910390a45050565b6000612ebb8473ffffffffffffffffffffffffffffffffffffffff166130d4565b612ec85760019050613082565b60008473ffffffffffffffffffffffffffffffffffffffff1663150b7a02612eee6124a8565b8887876040518563ffffffff1660e01b8152600401808573ffffffffffffffffffffffffffffffffffffffff1673ffffffffffffffffffffffffffffffffffffffff1681526020018473ffffffffffffffffffffffffffffffffffffffff1673ffffffffffffffffffffffffffffffffffffffff16815260200183815260200180602001828103825283818151815260200191508051906020019080838360005b83811015612faa578082015181840152602081019050612f8f565b50505050905090810190601f168015612fd75780820380516001836020036101000a031916815260200191505b5095505050505050602060405180830381600087803b158015612ff957600080fd5b505af115801561300d573d6000803e3d6000fd5b505050506040513d602081101561302357600080fd5b8101908080519060200190929190505050905063150b7a0260e01b7bffffffffffffffffffffffffffffffffffffffffffffffffffffffff1916817bffffffffffffffffffffffffffffffffffffffffffffffffffffffff1916149150505b949350505050565b60006130cc83836040518060400160405280601e81526020017f536166654d6174683a207375627472616374696f6e206f766572666c6f77000081525061311f565b905092915050565b60008060007fc5d2460186f7233c927e7db2dcc703c0e500b653ca82273b7bfad8045d85a47060001b9050833f91506000801b82141580156131165750808214155b92505050919050565b60008383111582906131cc576040517f08c379a00000000000000000000000000000000000000000000000000000000081526004018080602001828103825283818151815260200191508051906020019080838360005b83811015613191578082015181840152602081019050613176565b50505050905090810190601f1680156131be5780820380516001836020036101000a031916815260200191505b509250505060405180910390fd5b5060008385039050809150509392505050565b828054600181600116156101000203166002900490600052602060002090601f016020900481019282601f1061322057805160ff191683800117855561324e565b8280016001018555821561324e579182015b8281111561324d578251825591602001919060010190613232565b5b50905061325b91906132a7565b5090565b50805460018160011615610100020316600290046000825580601f1061328557506132a4565b601f0160209004906000526020600020908101906132a391906132a7565b5b50565b6132c991905b808211156132c55760008160009055506001016132ad565b5090565b9056fe4552433732313a207472616e7366657220746f206e6f6e20455243373231526563656976657220696d706c656d656e7465724552433732313a2063616c6c6572206973206e6f742077686974656c697374656420666f7220746865204d696e74657220726f6c654552433732313a207472616e7366657220746f20746865207a65726f20616464726573734552433732313a206f70657261746f7220717565727920666f72206e6f6e6578697374656e7420746f6b656e4552433732313a207472616e73666572207265737472696374656420746f2077686974656c6973746564206164647265737365734552433732313a2062616c616e636520717565727920666f7220746865207a65726f20616464726573734552433732313a20617070726f76652063616c6c6572206973206e6f7420746f6b656e206f776e6572206e6f7220617070726f76656420666f7220616c6c4552433732313a20746f6b656e206f776e657220717565727920666f72206e6f6e6578697374656e7420746f6b656e4552433732313a20617070726f76656420717565727920666f72206e6f6e6578697374656e7420746f6b656e4552433732313a207472616e73666572206f6620746f6b656e2074686174206973206e6f74206f776e4552433732313a207472616e736665722063616c6c6572206973206e6f74206f776e6572206e6f7220617070726f7665644552433732313a206275726e206f6620746f6b656e2074686174206973206e6f74206f776e4552433732313a2055524920736574206f66206e6f6e6578697374656e7420746f6b656e4552433732313a2063616c6c6572206973206e6f7420746f6b656e206f776e6572206e6f7220617070726f7665644552433732313a2055524920717565727920666f72206e6f6e6578697374656e7420746f6b656e4552433732313a2063616c6c6572206973206e6f742077686974656c6973746564a265627a7a72315820c47cec7d0f84b81473a776f9d634c2661d8a6755b872973be08beb2eaa79659264736f6c634300050b0032",
  "source": "pragma solidity ^0.5.11;\n\nimport \"./ERC721.sol\";\n\n/**\n * Customized for Microsponsors\n * from Open Zeppelin's ERC721Metadata contract:\n * https://github.com/OpenZeppelin/openzeppelin-contracts/blob/master/contracts/token/ERC721/ERC721Metadata.sol\n */\ncontract Microsponsors is ERC721 {\n\n    // Token name\n    string private _name;\n\n    // Token symbol\n    string private _symbol;\n\n\n    /*\n     *     bytes4(keccak256('name()')) == 0x06fdde03\n     *     bytes4(keccak256('symbol()')) == 0x95d89b41\n     *     bytes4(keccak256('tokenURI(uint256)')) == 0xc87b56dd\n     *\n     *     => 0x06fdde03 ^ 0x95d89b41 ^ 0xc87b56dd == 0x5b5e139f\n     */\n    bytes4 private constant _INTERFACE_ID_ERC721_METADATA = 0x5b5e139f;\n\n    /**\n     * @dev Constructor function\n     */\n    constructor (string memory name, string memory symbol, address registryAddress) public {\n\n        _name = name;\n        _symbol = symbol;\n\n        // register the supported interfaces to conform to ERC721 via ERC165\n        _registerInterface(_INTERFACE_ID_ERC721_METADATA);\n\n        super.updateRegistryAddress(registryAddress);\n\n    }\n\n    /**\n     * @dev Gets the token name.\n     * @return string representing the token name\n     */\n    function name() external view returns (string memory) {\n        return _name;\n    }\n\n    /**\n     * @dev Gets the token symbol.\n     * @return string representing the token symbol\n     */\n    function symbol() external view returns (string memory) {\n        return _symbol;\n    }\n\n}\n",
  "sourcePath": "/Users/lauren/github/erc-721/contracts/Microsponsors.sol",
  "compiler": {
    "name": "solc",
    "version": "0.5.11+commit.c082d0b4.Emscripten.clang"
  },
  "schemaVersion": "3.0.10",
  "updatedAt": "2019-08-31T19:54:45.448Z",
  "devdoc": {
    "methods": {
      "approve(address,uint256)": {
        "details": "Approves another address to transfer the given token ID The zero address indicates there is no approved address. There can only be one approved address per token at a given time. Can only be called by the token owner or an approved operator.",
        "params": {
          "to": "address to be approved for the given token ID",
          "tokenId": "uint256 ID of the token to be approved"
        }
      },
      "balanceOf(address)": {
        "details": "Gets the balance of the specified address.",
        "params": {
          "tokenOwner": "address to query the balance of"
        },
        "return": "uint256 representing the amount owned by the passed address"
      },
      "burn(uint256)": {
        "details": "Burns a specific ERC721 token.",
        "params": {
          "tokenId": "uint256 id of the ERC721 token to be burned."
        }
      },
      "constructor": {
        "details": "Constructor function"
      },
      "getApproved(uint256)": {
        "details": "Gets the approved address for a token ID, or zero if no address set Reverts if the token ID does not exist.",
        "params": {
          "tokenId": "uint256 ID of the token to query the approval of"
        },
        "return": "address currently approved for the given token ID"
      },
      "isApprovedForAll(address,address)": {
        "details": "Tells whether an operator is approved by a given token owner.",
        "params": {
          "operator": "operator address which you want to query the approval of",
          "tokenOwner": "token owner address which you want to query the approval of"
        },
        "return": "bool whether the given operator is approved by the token owner"
      },
      "isMinter(address)": {
        "details": "Checks if minter isWhitelisted()"
      },
      "isWhitelisted(address)": {
        "details": "Checks Registry contract for whitelisted status",
        "params": {
          "target": "The address to check"
        }
      },
      "mint(address,uint256)": {
        "details": "Function to mint tokens.",
        "params": {
          "to": "The address that will receive the minted token.",
          "tokenId": "The token id to mint."
        },
        "return": "A boolean that indicates if the operation was successful."
      },
      "mintWithTokenURI(address,uint256,string)": {
        "details": "Function to mint tokens.",
        "params": {
          "to": "The address that will receive the minted tokens.",
          "tokenId": "The token id to mint.",
          "tokenURI": "The token URI of the minted token."
        },
        "return": "A boolean that indicates if the operation was successful."
      },
      "name()": {
        "details": "Gets the token name.",
        "return": "string representing the token name"
      },
      "ownerOf(uint256)": {
        "details": "Gets the owner of the specified token ID.",
        "params": {
          "tokenId": "uint256 ID of the token to query the owner of"
        },
        "return": "address currently marked as the owner of the given token ID"
      },
      "pause()": {
        "details": "Called by contract owner to pause actions on this contract"
      },
      "safeMint(address,uint256)": {
        "details": "Function to safely mint tokens.",
        "params": {
          "to": "The address that will receive the minted token.",
          "tokenId": "The token id to mint."
        },
        "return": "A boolean that indicates if the operation was successful."
      },
      "safeMint(address,uint256,bytes)": {
        "details": "Function to safely mint tokens.",
        "params": {
          "_data": "bytes data to send along with a safe transfer check.",
          "to": "The address that will receive the minted token.",
          "tokenId": "The token id to mint."
        },
        "return": "A boolean that indicates if the operation was successful."
      },
      "safeMintWithTokenURI(address,uint256,string)": {
        "details": "Function to safely mint tokens.",
        "params": {
          "to": "The address that will receive the minted tokens.",
          "tokenId": "The token id to mint.",
          "tokenURI": "The token URI of the minted token."
        },
        "return": "A boolean that indicates if the operation was successful."
      },
      "safeTransferFrom(address,address,uint256)": {
        "details": "Safely transfers the ownership of a given token ID to another address If the target address is a contract, it must implement {IERC721Receiver-onERC721Received}, which is called upon a safe transfer, and return the magic value `bytes4(keccak256(\"onERC721Received(address,address,uint256,bytes)\"))`; otherwise, the transfer is reverted. Requires the msg.sender to be the owner, approved, or operator",
        "params": {
          "from": "current owner of the token",
          "to": "address to receive the ownership of the given token ID",
          "tokenId": "uint256 ID of the token to be transferred"
        }
      },
      "safeTransferFrom(address,address,uint256,bytes)": {
        "details": "Safely transfers the ownership of a given token ID to another address If the target address is a contract, it must implement {IERC721Receiver-onERC721Received}, which is called upon a safe transfer, and return the magic value `bytes4(keccak256(\"onERC721Received(address,address,uint256,bytes)\"))`; otherwise, the transfer is reverted. Requires the _msgSender() to be the owner, approved, or operator",
        "params": {
          "_data": "bytes data to send along with a safe transfer check",
          "from": "current owner of the token",
          "to": "address to receive the ownership of the given token ID",
          "tokenId": "uint256 ID of the token to be transferred"
        }
      },
      "setApprovalForAll(address,bool)": {
        "details": "Sets or unsets the approval of a given operator An operator is allowed to transfer all tokens of the sender on their behalf.",
        "params": {
          "approved": "representing the status of the approval to be set",
          "to": "operator address to set the approval"
        }
      },
      "supportsInterface(bytes4)": {
        "details": "See {IERC165-supportsInterface}.     * Time complexity O(1), guaranteed to always use less than 30 000 gas."
      },
      "symbol()": {
        "details": "Gets the token symbol.",
        "return": "string representing the token symbol"
      },
      "tokenURI(uint256)": {
        "details": "Returns an URI for a given token ID. Throws if the token ID does not exist. May return an empty string.",
        "params": {
          "tokenId": "uint256 ID of the token to query"
        }
      },
      "transferFrom(address,address,uint256)": {
        "details": "Transfers the ownership of a given token ID to another address. Usage of this method is discouraged, use {safeTransferFrom} whenever possible. Requires the msg.sender to be the owner, approved, or operator.",
        "params": {
          "from": "current owner of the token",
          "to": "address to receive the ownership of the given token ID",
          "tokenId": "uint256 ID of the token to be transferred"
        }
      },
      "unpause()": {
        "details": "Called by contract owner to unpause the smart contract."
      },
      "updateRegistryAddress(address)": {
        "details": "Update address for Microsponsors Registry contract",
        "params": {
          "newAddress": "where the Registry contract lives"
        }
      }
    }
  },
  "userdoc": {
    "methods": {
      "burn(uint256)": {
        "notice": "Customized for Microsponsors"
      },
      "mintWithTokenURI(address,uint256,string)": {
        "notice": "Customized for Microsponsors from: https://github.com/OpenZeppelin/openzeppelin-contracts/blob/master/contracts/token/ERC721/ERC721MetadataMintable.sol"
      },
      "safeMintWithTokenURI(address,uint256,string)": {
        "notice": "Customized for Microsponsors from https://github.com/OpenZeppelin/openzeppelin-contracts/blob/master/contracts/token/ERC721/ERC721MetadataMintable.sol"
      },
      "unpause()": {
        "notice": "This is public rather than external so it can be called by  derived contracts."
      }
    },
    "notice": "Customized for Microsponsors from Open Zeppelin's ERC721Metadata contract: https://github.com/OpenZeppelin/openzeppelin-contracts/blob/master/contracts/token/ERC721/ERC721Metadata.sol"
  }
}