{
  "contractName": "Microsponsors",
  "abi": [
    {
      "constant": true,
      "inputs": [
        {
          "internalType": "bytes4",
          "name": "interfaceId",
          "type": "bytes4"
        }
      ],
      "name": "supportsInterface",
      "outputs": [
        {
          "internalType": "bool",
          "name": "",
          "type": "bool"
        }
      ],
      "payable": false,
      "stateMutability": "view",
      "type": "function"
    },
    {
      "constant": true,
      "inputs": [
        {
          "internalType": "uint256",
          "name": "tokenId",
          "type": "uint256"
        }
      ],
      "name": "getApproved",
      "outputs": [
        {
          "internalType": "address",
          "name": "",
          "type": "address"
        }
      ],
      "payable": false,
      "stateMutability": "view",
      "type": "function"
    },
    {
      "constant": false,
      "inputs": [
        {
          "internalType": "address",
          "name": "to",
          "type": "address"
        },
        {
          "internalType": "uint256",
          "name": "tokenId",
          "type": "uint256"
        }
      ],
      "name": "approve",
      "outputs": [],
      "payable": false,
      "stateMutability": "nonpayable",
      "type": "function"
    },
    {
      "constant": true,
      "inputs": [],
      "name": "totalSupply",
      "outputs": [
        {
          "internalType": "uint256",
          "name": "",
          "type": "uint256"
        }
      ],
      "payable": false,
      "stateMutability": "view",
      "type": "function"
    },
    {
      "constant": false,
      "inputs": [
        {
          "internalType": "address",
          "name": "from",
          "type": "address"
        },
        {
          "internalType": "address",
          "name": "to",
          "type": "address"
        },
        {
          "internalType": "uint256",
          "name": "tokenId",
          "type": "uint256"
        }
      ],
      "name": "transferFrom",
      "outputs": [],
      "payable": false,
      "stateMutability": "nonpayable",
      "type": "function"
    },
    {
      "constant": true,
      "inputs": [
        {
          "internalType": "address",
          "name": "target",
          "type": "address"
        }
      ],
      "name": "isWhitelisted",
      "outputs": [
        {
          "internalType": "bool",
          "name": "",
          "type": "bool"
        }
      ],
      "payable": false,
      "stateMutability": "view",
      "type": "function"
    },
    {
      "constant": false,
      "inputs": [],
      "name": "unpause",
      "outputs": [],
      "payable": false,
      "stateMutability": "nonpayable",
      "type": "function"
    },
    {
      "constant": false,
      "inputs": [
        {
          "internalType": "address",
          "name": "from",
          "type": "address"
        },
        {
          "internalType": "address",
          "name": "to",
          "type": "address"
        },
        {
          "internalType": "uint256",
          "name": "tokenId",
          "type": "uint256"
        }
      ],
      "name": "safeTransferFrom",
      "outputs": [],
      "payable": false,
      "stateMutability": "nonpayable",
      "type": "function"
    },
    {
      "constant": false,
      "inputs": [
        {
          "internalType": "uint256",
          "name": "tokenId",
          "type": "uint256"
        }
      ],
      "name": "burn",
      "outputs": [],
      "payable": false,
      "stateMutability": "nonpayable",
      "type": "function"
    },
    {
      "constant": false,
      "inputs": [
        {
          "internalType": "address",
          "name": "to",
          "type": "address"
        },
        {
          "internalType": "string",
          "name": "contentId",
          "type": "string"
        },
        {
          "internalType": "bytes32",
          "name": "propertyName",
          "type": "bytes32"
        },
        {
          "internalType": "uint32",
          "name": "startTime",
          "type": "uint32"
        },
        {
          "internalType": "uint32",
          "name": "endTime",
          "type": "uint32"
        },
        {
          "internalType": "uint32",
          "name": "auctionEndTime",
          "type": "uint32"
        },
        {
          "internalType": "bytes",
          "name": "data",
          "type": "bytes"
        }
      ],
      "name": "safeMint",
      "outputs": [
        {
          "internalType": "uint256",
          "name": "",
          "type": "uint256"
        }
      ],
      "payable": false,
      "stateMutability": "nonpayable",
      "type": "function"
    },
    {
      "constant": true,
      "inputs": [],
      "name": "paused",
      "outputs": [
        {
          "internalType": "bool",
          "name": "",
          "type": "bool"
        }
      ],
      "payable": false,
      "stateMutability": "view",
      "type": "function"
    },
    {
      "constant": true,
      "inputs": [
        {
          "internalType": "uint256",
          "name": "tokenId",
          "type": "uint256"
        }
      ],
      "name": "ownerOf",
      "outputs": [
        {
          "internalType": "address",
          "name": "",
          "type": "address"
        }
      ],
      "payable": false,
      "stateMutability": "view",
      "type": "function"
    },
    {
      "constant": true,
      "inputs": [
        {
          "internalType": "address",
          "name": "tokenOwner",
          "type": "address"
        }
      ],
      "name": "balanceOf",
      "outputs": [
        {
          "internalType": "uint256",
          "name": "",
          "type": "uint256"
        }
      ],
      "payable": false,
      "stateMutability": "view",
      "type": "function"
    },
    {
      "constant": false,
      "inputs": [
        {
          "internalType": "address",
          "name": "to",
          "type": "address"
        },
        {
          "internalType": "string",
          "name": "contentId",
          "type": "string"
        },
        {
          "internalType": "bytes32",
          "name": "propertyName",
          "type": "bytes32"
        },
        {
          "internalType": "uint32",
          "name": "startTime",
          "type": "uint32"
        },
        {
          "internalType": "uint32",
          "name": "endTime",
          "type": "uint32"
        },
        {
          "internalType": "uint32",
          "name": "auctionEndTime",
          "type": "uint32"
        }
      ],
      "name": "mint",
      "outputs": [
        {
          "internalType": "uint256",
          "name": "",
          "type": "uint256"
        }
      ],
      "payable": false,
      "stateMutability": "nonpayable",
      "type": "function"
    },
    {
      "constant": true,
      "inputs": [
        {
          "internalType": "address",
          "name": "minter",
          "type": "address"
        },
        {
          "internalType": "string",
          "name": "contentId",
          "type": "string"
        }
      ],
      "name": "tokenMinterPropertyNames",
      "outputs": [
        {
          "internalType": "bytes32[]",
          "name": "",
          "type": "bytes32[]"
        }
      ],
      "payable": false,
      "stateMutability": "view",
      "type": "function"
    },
    {
      "constant": true,
      "inputs": [],
      "name": "registry",
      "outputs": [
        {
          "internalType": "contract DeployedRegistry",
          "name": "",
          "type": "address"
        }
      ],
      "payable": false,
      "stateMutability": "view",
      "type": "function"
    },
    {
      "constant": false,
      "inputs": [],
      "name": "pause",
      "outputs": [],
      "payable": false,
      "stateMutability": "nonpayable",
      "type": "function"
    },
    {
      "constant": true,
      "inputs": [
        {
          "internalType": "address",
          "name": "tokenOwner",
          "type": "address"
        }
      ],
      "name": "tokensOfOwner",
      "outputs": [
        {
          "internalType": "uint256[]",
          "name": "",
          "type": "uint256[]"
        }
      ],
      "payable": false,
      "stateMutability": "view",
      "type": "function"
    },
    {
      "constant": true,
      "inputs": [],
      "name": "owner",
      "outputs": [
        {
          "internalType": "address",
          "name": "",
          "type": "address"
        }
      ],
      "payable": false,
      "stateMutability": "view",
      "type": "function"
    },
    {
      "constant": false,
      "inputs": [
        {
          "internalType": "address",
          "name": "to",
          "type": "address"
        },
        {
          "internalType": "bool",
          "name": "approved",
          "type": "bool"
        }
      ],
      "name": "setApprovalForAll",
      "outputs": [],
      "payable": false,
      "stateMutability": "nonpayable",
      "type": "function"
    },
    {
      "constant": true,
      "inputs": [
        {
          "internalType": "address",
          "name": "minter",
          "type": "address"
        }
      ],
      "name": "tokenMinterContentIds",
      "outputs": [
        {
          "internalType": "string[]",
          "name": "",
          "type": "string[]"
        }
      ],
      "payable": false,
      "stateMutability": "view",
      "type": "function"
    },
    {
      "constant": true,
      "inputs": [
        {
          "internalType": "address",
          "name": "account",
          "type": "address"
        }
      ],
      "name": "isMinter",
      "outputs": [
        {
          "internalType": "bool",
          "name": "",
          "type": "bool"
        }
      ],
      "payable": false,
      "stateMutability": "view",
      "type": "function"
    },
    {
      "constant": false,
      "inputs": [
        {
          "internalType": "address",
          "name": "from",
          "type": "address"
        },
        {
          "internalType": "address",
          "name": "to",
          "type": "address"
        },
        {
          "internalType": "uint256",
          "name": "tokenId",
          "type": "uint256"
        },
        {
          "internalType": "bytes",
          "name": "data",
          "type": "bytes"
        }
      ],
      "name": "safeTransferFrom",
      "outputs": [],
      "payable": false,
      "stateMutability": "nonpayable",
      "type": "function"
    },
    {
      "constant": false,
      "inputs": [
        {
          "internalType": "address",
          "name": "newAddress",
          "type": "address"
        }
      ],
      "name": "updateRegistryAddress",
      "outputs": [],
      "payable": false,
      "stateMutability": "nonpayable",
      "type": "function"
    },
    {
      "constant": true,
      "inputs": [
        {
          "internalType": "uint256",
          "name": "tokenId",
          "type": "uint256"
        }
      ],
      "name": "tokenURI",
      "outputs": [
        {
          "internalType": "string",
          "name": "",
          "type": "string"
        }
      ],
      "payable": false,
      "stateMutability": "view",
      "type": "function"
    },
    {
      "constant": false,
      "inputs": [
        {
          "internalType": "address",
          "name": "to",
          "type": "address"
        },
        {
          "internalType": "string",
          "name": "contentId",
          "type": "string"
        },
        {
          "internalType": "bytes32",
          "name": "propertyName",
          "type": "bytes32"
        },
        {
          "internalType": "uint32",
          "name": "startTime",
          "type": "uint32"
        },
        {
          "internalType": "uint32",
          "name": "endTime",
          "type": "uint32"
        },
        {
          "internalType": "uint32",
          "name": "auctionEndTime",
          "type": "uint32"
        }
      ],
      "name": "safeMint",
      "outputs": [
        {
          "internalType": "uint256",
          "name": "",
          "type": "uint256"
        }
      ],
      "payable": false,
      "stateMutability": "nonpayable",
      "type": "function"
    },
    {
      "constant": false,
      "inputs": [
        {
          "internalType": "address",
          "name": "to",
          "type": "address"
        },
        {
          "internalType": "string",
          "name": "contentId",
          "type": "string"
        },
        {
          "internalType": "bytes32",
          "name": "propertyName",
          "type": "bytes32"
        },
        {
          "internalType": "uint32",
          "name": "startTime",
          "type": "uint32"
        },
        {
          "internalType": "uint32",
          "name": "endTime",
          "type": "uint32"
        },
        {
          "internalType": "uint32",
          "name": "auctionEndTime",
          "type": "uint32"
        },
        {
          "internalType": "string",
          "name": "tokenURI",
          "type": "string"
        }
      ],
      "name": "safeMintWithTokenURI",
      "outputs": [
        {
          "internalType": "uint256",
          "name": "",
          "type": "uint256"
        }
      ],
      "payable": false,
      "stateMutability": "nonpayable",
      "type": "function"
    },
    {
      "constant": true,
      "inputs": [
        {
          "internalType": "uint256",
          "name": "tokenId",
          "type": "uint256"
        }
      ],
      "name": "tokenTimeSlot",
      "outputs": [
        {
          "internalType": "address",
          "name": "minter",
          "type": "address"
        },
        {
          "internalType": "string",
          "name": "contentId",
          "type": "string"
        },
        {
          "internalType": "bytes32",
          "name": "propertyName",
          "type": "bytes32"
        },
        {
          "internalType": "uint32",
          "name": "startTime",
          "type": "uint32"
        },
        {
          "internalType": "uint32",
          "name": "endTime",
          "type": "uint32"
        }
      ],
      "payable": false,
      "stateMutability": "view",
      "type": "function"
    },
    {
      "constant": true,
      "inputs": [
        {
          "internalType": "address",
          "name": "tokenOwner",
          "type": "address"
        },
        {
          "internalType": "address",
          "name": "operator",
          "type": "address"
        }
      ],
      "name": "isApprovedForAll",
      "outputs": [
        {
          "internalType": "bool",
          "name": "",
          "type": "bool"
        }
      ],
      "payable": false,
      "stateMutability": "view",
      "type": "function"
    },
    {
      "constant": false,
      "inputs": [
        {
          "internalType": "address",
          "name": "newOwner",
          "type": "address"
        }
      ],
      "name": "transferOwnership",
      "outputs": [],
      "payable": false,
      "stateMutability": "nonpayable",
      "type": "function"
    },
    {
      "constant": false,
      "inputs": [
        {
          "internalType": "address",
          "name": "to",
          "type": "address"
        },
        {
          "internalType": "string",
          "name": "contentId",
          "type": "string"
        },
        {
          "internalType": "bytes32",
          "name": "propertyName",
          "type": "bytes32"
        },
        {
          "internalType": "uint32",
          "name": "startTime",
          "type": "uint32"
        },
        {
          "internalType": "uint32",
          "name": "endTime",
          "type": "uint32"
        },
        {
          "internalType": "uint32",
          "name": "auctionEndTime",
          "type": "uint32"
        },
        {
          "internalType": "string",
          "name": "tokenURI",
          "type": "string"
        }
      ],
      "name": "mintWithTokenURI",
      "outputs": [
        {
          "internalType": "uint256",
          "name": "",
          "type": "uint256"
        }
      ],
      "payable": false,
      "stateMutability": "nonpayable",
      "type": "function"
    },
    {
      "inputs": [
        {
          "internalType": "string",
          "name": "name",
          "type": "string"
        },
        {
          "internalType": "string",
          "name": "symbol",
          "type": "string"
        },
        {
          "internalType": "address",
          "name": "registryAddress",
          "type": "address"
        }
      ],
      "payable": false,
      "stateMutability": "nonpayable",
      "type": "constructor"
    },
    {
      "anonymous": false,
      "inputs": [
        {
          "indexed": true,
          "internalType": "address",
          "name": "from",
          "type": "address"
        },
        {
          "indexed": true,
          "internalType": "address",
          "name": "to",
          "type": "address"
        },
        {
          "indexed": true,
          "internalType": "uint256",
          "name": "tokenId",
          "type": "uint256"
        }
      ],
      "name": "Transfer",
      "type": "event"
    },
    {
      "anonymous": false,
      "inputs": [
        {
          "indexed": true,
          "internalType": "address",
          "name": "tokenOwner",
          "type": "address"
        },
        {
          "indexed": true,
          "internalType": "address",
          "name": "approved",
          "type": "address"
        },
        {
          "indexed": true,
          "internalType": "uint256",
          "name": "tokenId",
          "type": "uint256"
        }
      ],
      "name": "Approval",
      "type": "event"
    },
    {
      "anonymous": false,
      "inputs": [
        {
          "indexed": true,
          "internalType": "address",
          "name": "tokenOwner",
          "type": "address"
        },
        {
          "indexed": true,
          "internalType": "address",
          "name": "operator",
          "type": "address"
        },
        {
          "indexed": false,
          "internalType": "bool",
          "name": "approved",
          "type": "bool"
        }
      ],
      "name": "ApprovalForAll",
      "type": "event"
    },
    {
      "constant": true,
      "inputs": [],
      "name": "name",
      "outputs": [
        {
          "internalType": "string",
          "name": "",
          "type": "string"
        }
      ],
      "payable": false,
      "stateMutability": "view",
      "type": "function"
    },
    {
      "constant": true,
      "inputs": [],
      "name": "symbol",
      "outputs": [
        {
          "internalType": "string",
          "name": "",
          "type": "string"
        }
      ],
      "payable": false,
      "stateMutability": "view",
      "type": "function"
    }
  ],
  "bytecode": "0x60806040526000600c60006101000a81548160ff0219169083151502179055503480156200002c57600080fd5b50604051620057e4380380620057e4833981810160405262000052919081019062000423565b6200006a6301ffc9a760e01b6200013b60201b60201c565b620000826380ac58cd60e01b6200013b60201b60201c565b620000926200021360201b60201c565b600160006101000a81548173ffffffffffffffffffffffffffffffffffffffff021916908373ffffffffffffffffffffffffffffffffffffffff16021790555082600d9080519060200190620000ea92919062000301565b5081600e90805190602001906200010392919062000301565b506200011c635b5e139f60e01b6200013b60201b60201c565b62000132816200021b60201b62001a221760201c565b50505062000663565b63ffffffff60e01b817bffffffffffffffffffffffffffffffffffffffffffffffffffffffff19161415620001a7576040517f08c379a00000000000000000000000000000000000000000000000000000000081526004016200019e906200052f565b60405180910390fd5b6001600080837bffffffffffffffffffffffffffffffffffffffffffffffffffffffff19167bffffffffffffffffffffffffffffffffffffffffffffffffffffffff1916815260200190815260200160002060006101000a81548160ff02191690831515021790555050565b600033905090565b600160009054906101000a900473ffffffffffffffffffffffffffffffffffffffff1673ffffffffffffffffffffffffffffffffffffffff16620002646200021360201b60201c565b73ffffffffffffffffffffffffffffffffffffffff1614620002bd576040517f08c379a0000000000000000000000000000000000000000000000000000000008152600401620002b49062000551565b60405180910390fd5b80600260006101000a81548173ffffffffffffffffffffffffffffffffffffffff021916908373ffffffffffffffffffffffffffffffffffffffff16021790555050565b828054600181600116156101000203166002900490600052602060002090601f016020900481019282601f106200034457805160ff191683800117855562000375565b8280016001018555821562000375579182015b828111156200037457825182559160200191906001019062000357565b5b50905062000384919062000388565b5090565b620003ad91905b80821115620003a95760008160009055506001016200038f565b5090565b90565b600081519050620003c18162000649565b92915050565b600082601f830112620003d957600080fd5b8151620003f0620003ea82620005a1565b62000573565b915080825260208301602083018583830111156200040d57600080fd5b6200041a83828462000613565b50505092915050565b6000806000606084860312156200043957600080fd5b600084015167ffffffffffffffff8111156200045457600080fd5b6200046286828701620003c7565b935050602084015167ffffffffffffffff8111156200048057600080fd5b6200048e86828701620003c7565b9250506040620004a186828701620003b0565b9150509250925092565b6000620004ba601c83620005ce565b91507f4552433136353a20696e76616c696420696e74657266616365206964000000006000830152602082019050919050565b6000620004fc601b83620005ce565b91507f4552433732313a2063616c6c6572206973206e6f74206f776e657200000000006000830152602082019050919050565b600060208201905081810360008301526200054a81620004ab565b9050919050565b600060208201905081810360008301526200056c81620004ed565b9050919050565b6000604051905081810181811067ffffffffffffffff821117156200059757600080fd5b8060405250919050565b600067ffffffffffffffff821115620005b957600080fd5b601f19601f8301169050602081019050919050565b600082825260208201905092915050565b6000620005ec82620005f3565b9050919050565b600073ffffffffffffffffffffffffffffffffffffffff82169050919050565b60005b838110156200063357808201518184015260208101905062000616565b8381111562000643576000848401525b50505050565b6200065481620005df565b81146200066057600080fd5b50565b61517180620006736000396000f3fe608060405234801561001057600080fd5b50600436106101fb5760003560e01c80637b1039991161011a578063b88d4fde116100ad578063da642eec1161007c578063da642eec146105fc578063e5c249241461062c578063e985e9c514610660578063f2fde38b14610690578063f3045080146106ac576101fb565b8063b88d4fde14610564578063c57a882514610580578063c87b56dd1461059c578063d8bf2c78146105cc576101fb565b806395d89b41116100e957806395d89b41146104ca578063a22cb465146104e8578063a4ede12814610504578063aa271e1a14610534576101fb565b80637b103999146104545780638456cb59146104725780638462151c1461047c5780638da5cb5b146104ac576101fb565b806342842e0e116101925780636352211e116101615780636352211e1461039457806370a08231146103c4578063769a9433146103f45780637affcb9a14610424576101fb565b806342842e0e1461030e57806342966c681461032a5780634569fd9f146103465780635c975abb14610376576101fb565b806318160ddd116101ce57806318160ddd1461029a57806323b872dd146102b85780633af32abf146102d45780633f4ba83a14610304576101fb565b806301ffc9a71461020057806306fdde0314610230578063081812fc1461024e578063095ea7b31461027e575b600080fd5b61021a60048036036102159190810190613d0b565b6106dc565b6040516102279190614a9d565b60405180910390f35b610238610743565b6040516102459190614ad3565b60405180910390f35b61026860048036036102639190810190613d5d565b6107e5565b6040516102759190614976565b60405180910390f35b61029860048036036102939190810190613ca6565b61086a565b005b6102a2610a8e565b6040516102af9190614df5565b60405180910390f35b6102d260048036036102cd919081019061390b565b610a9f565b005b6102ee60048036036102e991908101906138a6565b610ba9565b6040516102fb9190614a9d565b60405180910390f35b61030c610c5d565b005b6103286004803603610323919081019061390b565b610d2a565b005b610344600480360361033f9190810190613d5d565b610d4a565b005b610360600480360361035b9190810190613b0a565b610dc0565b60405161036d9190614df5565b60405180910390f35b61037e610ea0565b60405161038b9190614a9d565b60405180910390f35b6103ae60048036036103a99190810190613d5d565b610eb3565b6040516103bb9190614976565b60405180910390f35b6103de60048036036103d991908101906138a6565b610f65565b6040516103eb9190614df5565b60405180910390f35b61040e60048036036104099190810190613a69565b611024565b60405161041b9190614df5565b60405180910390f35b61043e60048036036104399190810190613a11565b611102565b60405161044b9190614a37565b60405180910390f35b61045c61124e565b6040516104699190614ab8565b60405180910390f35b61047a611274565b005b610496600480360361049191908101906138a6565b611342565b6040516104a39190614a7b565b60405180910390f35b6104b461148a565b6040516104c19190614976565b60405180910390f35b6104d26114b0565b6040516104df9190614ad3565b60405180910390f35b61050260048036036104fd91908101906139d5565b611552565b005b61051e600480360361051991908101906138a6565b61173c565b60405161052b9190614a59565b60405180910390f35b61054e600480360361054991908101906138a6565b611904565b60405161055b9190614a9d565b60405180910390f35b61057e6004803603610579919081019061395a565b611916565b005b61059a600480360361059591908101906138a6565b611a22565b005b6105b660048036036105b19190810190613d5d565b611afd565b6040516105c39190614ad3565b60405180910390f35b6105e660048036036105e19190810190613a69565b611bfa565b6040516105f39190614df5565b60405180910390f35b61061660048036036106119190810190613bd8565b611cd8565b6040516106239190614df5565b60405180910390f35b61064660048036036106419190810190613d5d565b611dc1565b6040516106579594939291906149dd565b60405180910390f35b61067a600480360361067591908101906138cf565b611f73565b6040516106879190614a9d565b60405180910390f35b6106aa60048036036106a591908101906138a6565b612007565b005b6106c660048036036106c19190810190613bd8565b612117565b6040516106d39190614df5565b60405180910390f35b6000806000837bffffffffffffffffffffffffffffffffffffffffffffffffffffffff19167bffffffffffffffffffffffffffffffffffffffffffffffffffffffff1916815260200190815260200160002060009054906101000a900460ff169050919050565b6060600d8054600181600116156101000203166002900480601f0160208091040260200160405190810160405280929190818152602001828054600181600116156101000203166002900480156107db5780601f106107b0576101008083540402835291602001916107db565b820191906000526020600020905b8154815290600101906020018083116107be57829003601f168201915b5050505050905090565b60006107f082612200565b61082f576040517f08c379a000000000000000000000000000000000000000000000000000000000815260040161082690614cb5565b60405180910390fd5b600a600083815260200190815260200160002060009054906101000a900473ffffffffffffffffffffffffffffffffffffffff169050919050565b61087a610875612272565b610ba9565b6108b9576040517f08c379a00000000000000000000000000000000000000000000000000000000081526004016108b090614dd5565b60405180910390fd5b600c60009054906101000a900460ff16156108d357600080fd5b60006108de82610eb3565b90508073ffffffffffffffffffffffffffffffffffffffff168373ffffffffffffffffffffffffffffffffffffffff16141561094f576040517f08c379a000000000000000000000000000000000000000000000000000000000815260040161094690614cf5565b60405180910390fd5b8073ffffffffffffffffffffffffffffffffffffffff1661096e612272565b73ffffffffffffffffffffffffffffffffffffffff16148061099d575061099c81610997612272565b611f73565b5b6109dc576040517f08c379a00000000000000000000000000000000000000000000000000000000081526004016109d390614c55565b60405180910390fd5b82600a600084815260200190815260200160002060006101000a81548173ffffffffffffffffffffffffffffffffffffffff021916908373ffffffffffffffffffffffffffffffffffffffff160217905550818373ffffffffffffffffffffffffffffffffffffffff168273ffffffffffffffffffffffffffffffffffffffff167f8c5be1e5ebec7d5bd14f71427d1e84f3dd0314c0f7b2291e5b200ac8c7c3b92560405160405180910390a4505050565b6000610a9a600361227a565b905090565b600c60009054906101000a900460ff1615610ab957600080fd5b610aca610ac4612272565b82612288565b610b09576040517f08c379a0000000000000000000000000000000000000000000000000000000008152600401610b0090614d15565b60405180910390fd5b610b1283610ba9565b610b51576040517f08c379a0000000000000000000000000000000000000000000000000000000008152600401610b4890614bb5565b60405180910390fd5b610b5a82610ba9565b610b99576040517f08c379a0000000000000000000000000000000000000000000000000000000008152600401610b9090614bb5565b60405180910390fd5b610ba4838383612366565b505050565b6000600260009054906101000a900473ffffffffffffffffffffffffffffffffffffffff1673ffffffffffffffffffffffffffffffffffffffff16633af32abf836040518263ffffffff1660e01b8152600401610c069190614976565b60206040518083038186803b158015610c1e57600080fd5b505afa158015610c32573d6000803e3d6000fd5b505050506040513d601f19601f82011682018060405250610c569190810190613ce2565b9050919050565b600160009054906101000a900473ffffffffffffffffffffffffffffffffffffffff1673ffffffffffffffffffffffffffffffffffffffff16610c9e612272565b73ffffffffffffffffffffffffffffffffffffffff1614610cf4576040517f08c379a0000000000000000000000000000000000000000000000000000000008152600401610ceb90614d75565b60405180910390fd5b600c60009054906101000a900460ff16610d0d57600080fd5b6000600c60006101000a81548160ff021916908315150217905550565b610d4583838360405180602001604052806000815250611916565b505050565b600c60009054906101000a900460ff1615610d6457600080fd5b610d75610d6f612272565b82612288565b610db4576040517f08c379a0000000000000000000000000000000000000000000000000000000008152600401610dab90614d95565b60405180910390fd5b610dbd81612595565b50565b6000610dd2610dcd612272565b611904565b610e11576040517f08c379a0000000000000000000000000000000000000000000000000000000008152600401610e0890614b15565b60405180910390fd5b600c60009054906101000a900460ff1615610e2b57600080fd5b610e368786866125aa565b610e75576040517f08c379a0000000000000000000000000000000000000000000000000000000008152600401610e6c90614bf5565b60405180910390fd5b6000610e8189846126ef565b9050610e91818989898989612753565b80915050979650505050505050565b600c60009054906101000a900460ff1681565b6000806004600084815260200190815260200160002060009054906101000a900473ffffffffffffffffffffffffffffffffffffffff169050600073ffffffffffffffffffffffffffffffffffffffff168173ffffffffffffffffffffffffffffffffffffffff161415610f5c576040517f08c379a0000000000000000000000000000000000000000000000000000000008152600401610f5390614c95565b60405180910390fd5b80915050919050565b60008073ffffffffffffffffffffffffffffffffffffffff168273ffffffffffffffffffffffffffffffffffffffff161415610fd6576040517f08c379a0000000000000000000000000000000000000000000000000000000008152600401610fcd90614c35565b60405180910390fd5b61101d600560008473ffffffffffffffffffffffffffffffffffffffff1673ffffffffffffffffffffffffffffffffffffffff16815260200190815260200160002061227a565b9050919050565b6000611036611031612272565b611904565b611075576040517f08c379a000000000000000000000000000000000000000000000000000000000815260040161106c90614b15565b60405180910390fd5b600c60009054906101000a900460ff161561108f57600080fd5b61109a8685856125aa565b6110d9576040517f08c379a00000000000000000000000000000000000000000000000000000000081526004016110d090614bf5565b60405180910390fd5b60006110e488612a62565b90506110f4818888888888612753565b809150509695505050505050565b606080600760008673ffffffffffffffffffffffffffffffffffffffff1673ffffffffffffffffffffffffffffffffffffffff1681526020019081526020016000208484604051611154929190614946565b9081526020016040518091039020805480602002602001604051908101604052809291908181526020016000905b828210156111ba5783829060005260206000200160405180602001604052908160008201548152505081526020019060010190611182565b505050509050606081516040519080825280602002602001820160405280156111f25781602001602082028038833980820191505090505b50905060008090505b82518110156112415782818151811061121057fe5b60200260200101516000015182828151811061122857fe5b60200260200101818152505080806001019150506111fb565b5080925050509392505050565b600260009054906101000a900473ffffffffffffffffffffffffffffffffffffffff1681565b600160009054906101000a900473ffffffffffffffffffffffffffffffffffffffff1673ffffffffffffffffffffffffffffffffffffffff166112b5612272565b73ffffffffffffffffffffffffffffffffffffffff161461130b576040517f08c379a000000000000000000000000000000000000000000000000000000000815260040161130290614d75565b60405180910390fd5b600c60009054906101000a900460ff161561132557600080fd5b6001600c60006101000a81548160ff021916908315150217905550565b6060600061134f83610f65565b9050600081141561139357600060405190808252806020026020018201604052801561138a5781602001602082028038833980820191505090505b50915050611485565b6060816040519080825280602002602001820160405280156113c45781602001602082028038833980820191505090505b50905060006113d1610a8e565b905060008090506000600190505b82811161147c578673ffffffffffffffffffffffffffffffffffffffff166004600083815260200190815260200160002060009054906101000a900473ffffffffffffffffffffffffffffffffffffffff1673ffffffffffffffffffffffffffffffffffffffff16141561146f578084838151811061145a57fe5b60200260200101818152505081806001019250505b80806001019150506113df565b83955050505050505b919050565b600160009054906101000a900473ffffffffffffffffffffffffffffffffffffffff1681565b6060600e8054600181600116156101000203166002900480601f0160208091040260200160405190810160405280929190818152602001828054600181600116156101000203166002900480156115485780601f1061151d57610100808354040283529160200191611548565b820191906000526020600020905b81548152906001019060200180831161152b57829003601f168201915b5050505050905090565b61156261155d612272565b610ba9565b6115a1576040517f08c379a000000000000000000000000000000000000000000000000000000000815260040161159890614dd5565b60405180910390fd5b600c60009054906101000a900460ff16156115bb57600080fd5b6115c3612272565b73ffffffffffffffffffffffffffffffffffffffff168273ffffffffffffffffffffffffffffffffffffffff161415611631576040517f08c379a000000000000000000000000000000000000000000000000000000000815260040161162890614b75565b60405180910390fd5b80600b600061163e612272565b73ffffffffffffffffffffffffffffffffffffffff1673ffffffffffffffffffffffffffffffffffffffff16815260200190815260200160002060008473ffffffffffffffffffffffffffffffffffffffff1673ffffffffffffffffffffffffffffffffffffffff16815260200190815260200160002060006101000a81548160ff0219169083151502179055508173ffffffffffffffffffffffffffffffffffffffff166116eb612272565b73ffffffffffffffffffffffffffffffffffffffff167f17307eab39ab6107e8899845ad3d59bd9653f200f220920489ca2b5937696c31836040516117309190614a9d565b60405180910390a35050565b606080600860008473ffffffffffffffffffffffffffffffffffffffff1673ffffffffffffffffffffffffffffffffffffffff168152602001908152602001600020805480602002602001604051908101604052809291908181526020016000905b8282101561186e57838290600052602060002001604051806020016040529081600082018054600181600116156101000203166002900480601f0160208091040260200160405190810160405280929190818152602001828054600181600116156101000203166002900480156118565780601f1061182b57610100808354040283529160200191611856565b820191906000526020600020905b81548152906001019060200180831161183957829003601f168201915b5050505050815250508152602001906001019061179e565b505050509050606081516040519080825280602002602001820160405280156118ab57816020015b60608152602001906001900390816118965790505b50905060008090505b82518110156118f9578281815181106118c957fe5b6020026020010151600001518282815181106118e157fe5b602002602001018190525080806001019150506118b4565b508092505050919050565b600061190f82610ba9565b9050919050565b600c60009054906101000a900460ff161561193057600080fd5b61193984610ba9565b611978576040517f08c379a000000000000000000000000000000000000000000000000000000000815260040161196f90614bb5565b60405180910390fd5b61198183610ba9565b6119c0576040517f08c379a00000000000000000000000000000000000000000000000000000000081526004016119b790614bb5565b60405180910390fd5b6119d16119cb612272565b83612288565b611a10576040517f08c379a0000000000000000000000000000000000000000000000000000000008152600401611a0790614d15565b60405180910390fd5b611a1c84848484612be9565b50505050565b600160009054906101000a900473ffffffffffffffffffffffffffffffffffffffff1673ffffffffffffffffffffffffffffffffffffffff16611a63612272565b73ffffffffffffffffffffffffffffffffffffffff1614611ab9576040517f08c379a0000000000000000000000000000000000000000000000000000000008152600401611ab090614d75565b60405180910390fd5b80600260006101000a81548173ffffffffffffffffffffffffffffffffffffffff021916908373ffffffffffffffffffffffffffffffffffffffff16021790555050565b6060611b0882612200565b611b47576040517f08c379a0000000000000000000000000000000000000000000000000000000008152600401611b3e90614db5565b60405180910390fd5b600960008381526020019081526020016000208054600181600116156101000203166002900480601f016020809104026020016040519081016040528092919081815260200182805460018160011615610100020316600290048015611bee5780601f10611bc357610100808354040283529160200191611bee565b820191906000526020600020905b815481529060010190602001808311611bd157829003601f168201915b50505050509050919050565b6000611c0c611c07612272565b611904565b611c4b576040517f08c379a0000000000000000000000000000000000000000000000000000000008152600401611c4290614b15565b60405180910390fd5b600c60009054906101000a900460ff1615611c6557600080fd5b611c708685856125aa565b611caf576040517f08c379a0000000000000000000000000000000000000000000000000000000008152600401611ca690614bf5565b60405180910390fd5b6000611cba88612c45565b9050611cca818888888888612753565b809150509695505050505050565b6000611cea611ce5612272565b611904565b611d29576040517f08c379a0000000000000000000000000000000000000000000000000000000008152600401611d2090614b15565b60405180910390fd5b600c60009054906101000a900460ff1615611d4357600080fd5b611d4e8786866125aa565b611d8d576040517f08c379a0000000000000000000000000000000000000000000000000000000008152600401611d8490614bf5565b60405180910390fd5b6000611d9889612c45565b9050611da8818989898989612753565b611db28184612c6c565b80915050979650505050505050565b600060606000806000611dd386612200565b611e12576040517f08c379a0000000000000000000000000000000000000000000000000000000008152600401611e0990614bd5565b60405180910390fd5b6006600087815260200190815260200160002060000160009054906101000a900473ffffffffffffffffffffffffffffffffffffffff16600660008881526020019081526020016000206001016006600089815260200190815260200160002060020154600660008a815260200190815260200160002060030160009054906101000a900463ffffffff16600660008b815260200190815260200160002060030160049054906101000a900463ffffffff16838054600181600116156101000203166002900480601f016020809104026020016040519081016040528092919081815260200182805460018160011615610100020316600290048015611f595780601f10611f2e57610100808354040283529160200191611f59565b820191906000526020600020905b815481529060010190602001808311611f3c57829003601f168201915b505050505093509450945094509450945091939590929450565b6000600b60008473ffffffffffffffffffffffffffffffffffffffff1673ffffffffffffffffffffffffffffffffffffffff16815260200190815260200160002060008373ffffffffffffffffffffffffffffffffffffffff1673ffffffffffffffffffffffffffffffffffffffff16815260200190815260200160002060009054906101000a900460ff16905092915050565b600160009054906101000a900473ffffffffffffffffffffffffffffffffffffffff1673ffffffffffffffffffffffffffffffffffffffff16612048612272565b73ffffffffffffffffffffffffffffffffffffffff161461209e576040517f08c379a000000000000000000000000000000000000000000000000000000000815260040161209590614d75565b60405180910390fd5b600073ffffffffffffffffffffffffffffffffffffffff168173ffffffffffffffffffffffffffffffffffffffff16146121145780600160006101000a81548173ffffffffffffffffffffffffffffffffffffffff021916908373ffffffffffffffffffffffffffffffffffffffff1602179055505b50565b6000612129612124612272565b611904565b612168576040517f08c379a000000000000000000000000000000000000000000000000000000000815260040161215f90614b15565b60405180910390fd5b600c60009054906101000a900460ff161561218257600080fd5b61218d8786866125aa565b6121cc576040517f08c379a00000000000000000000000000000000000000000000000000000000081526004016121c390614bf5565b60405180910390fd5b60006121d789612a62565b90506121e7818989898989612753565b6121f18184612c6c565b80915050979650505050505050565b6000806004600084815260200190815260200160002060009054906101000a900473ffffffffffffffffffffffffffffffffffffffff169050600073ffffffffffffffffffffffffffffffffffffffff168173ffffffffffffffffffffffffffffffffffffffff161415915050919050565b600033905090565b600081600001549050919050565b600061229382612200565b6122d2576040517f08c379a00000000000000000000000000000000000000000000000000000000081526004016122c990614b95565b60405180910390fd5b60006122dd83610eb3565b90508073ffffffffffffffffffffffffffffffffffffffff168473ffffffffffffffffffffffffffffffffffffffff16148061234c57508373ffffffffffffffffffffffffffffffffffffffff16612334846107e5565b73ffffffffffffffffffffffffffffffffffffffff16145b8061235d575061235c8185611f73565b5b91505092915050565b8273ffffffffffffffffffffffffffffffffffffffff1661238682610eb3565b73ffffffffffffffffffffffffffffffffffffffff16146123dc576040517f08c379a00000000000000000000000000000000000000000000000000000000081526004016123d390614cd5565b60405180910390fd5b600073ffffffffffffffffffffffffffffffffffffffff168273ffffffffffffffffffffffffffffffffffffffff16141561244c576040517f08c379a000000000000000000000000000000000000000000000000000000000815260040161244390614b55565b60405180910390fd5b61245581612ce0565b61249c600560008573ffffffffffffffffffffffffffffffffffffffff1673ffffffffffffffffffffffffffffffffffffffff168152602001908152602001600020612d9e565b6124e3600560008473ffffffffffffffffffffffffffffffffffffffff1673ffffffffffffffffffffffffffffffffffffffff168152602001908152602001600020612dc1565b816004600083815260200190815260200160002060006101000a81548173ffffffffffffffffffffffffffffffffffffffff021916908373ffffffffffffffffffffffffffffffffffffffff160217905550808273ffffffffffffffffffffffffffffffffffffffff168473ffffffffffffffffffffffffffffffffffffffff167fddf252ad1be2c89b69c2b068fc378daa952ba7f163c4a11628f55a4df523b3ef60405160405180910390a4505050565b6125a76125a182610eb3565b82612dd7565b50565b6000600260009054906101000a900473ffffffffffffffffffffffffffffffffffffffff1673ffffffffffffffffffffffffffffffffffffffff166347ba747a856040518263ffffffff1660e01b81526004016126079190614ad3565b60206040518083038186803b15801561261f57600080fd5b505afa158015612633573d6000803e3d6000fd5b505050506040513d601f19601f820116820180604052506126579190810190613ce2565b612696576040517f08c379a000000000000000000000000000000000000000000000000000000000815260040161268d90614c15565b60405180910390fd5b8263ffffffff168263ffffffff16116126e4576040517f08c379a00000000000000000000000000000000000000000000000000000000081526004016126db90614b35565b60405180910390fd5b600190509392505050565b6000806126fb84612a62565b905061270a6000858386613039565b612749576040517f08c379a000000000000000000000000000000000000000000000000000000000815260040161274090614af5565b60405180910390fd5b8091505092915050565b61275c86612200565b61279b576040517f08c379a000000000000000000000000000000000000000000000000000000000815260040161279290614d55565b60405180910390fd5b6127a361353e565b6040518060c001604052806127b6612272565b73ffffffffffffffffffffffffffffffffffffffff1681526020018781526020018681526020018563ffffffff1681526020018463ffffffff1681526020018363ffffffff168152509050806006600089815260200190815260200160002060008201518160000160006101000a81548173ffffffffffffffffffffffffffffffffffffffff021916908373ffffffffffffffffffffffffffffffffffffffff160217905550602082015181600101908051906020019061287892919061359f565b506040820151816002015560608201518160030160006101000a81548163ffffffff021916908363ffffffff16021790555060808201518160030160046101000a81548163ffffffff021916908363ffffffff16021790555060a08201518160030160086101000a81548163ffffffff021916908363ffffffff16021790555090505061290486613157565b6129a55760086000612914612272565b73ffffffffffffffffffffffffffffffffffffffff1673ffffffffffffffffffffffffffffffffffffffff16815260200190815260200160002060405180602001604052808881525090806001815401808255809150509060018203906000526020600020016000909192909190915060008201518160000190805190602001906129a092919061359f565b505050505b6129af86866132e7565b612a5957600760006129bf612272565b73ffffffffffffffffffffffffffffffffffffffff1673ffffffffffffffffffffffffffffffffffffffff16815260200190815260200160002086604051612a07919061495f565b9081526020016040518091039020604051806020016040528087815250908060018154018082558091505090600182039060005260206000200160009091929091909150600082015181600001555050505b50505050505050565b60008073ffffffffffffffffffffffffffffffffffffffff168273ffffffffffffffffffffffffffffffffffffffff161415612ad3576040517f08c379a0000000000000000000000000000000000000000000000000000000008152600401612aca90614c75565b60405180910390fd5b612add6003612dc1565b6000612ae9600361227a565b9050826004600083815260200190815260200160002060006101000a81548173ffffffffffffffffffffffffffffffffffffffff021916908373ffffffffffffffffffffffffffffffffffffffff160217905550612b84600560008573ffffffffffffffffffffffffffffffffffffffff1673ffffffffffffffffffffffffffffffffffffffff168152602001908152602001600020612dc1565b808373ffffffffffffffffffffffffffffffffffffffff16600073ffffffffffffffffffffffffffffffffffffffff167fddf252ad1be2c89b69c2b068fc378daa952ba7f163c4a11628f55a4df523b3ef60405160405180910390a480915050919050565b612bf4848484612366565b612c0084848484613039565b612c3f576040517f08c379a0000000000000000000000000000000000000000000000000000000008152600401612c3690614af5565b60405180910390fd5b50505050565b600080612c6183604051806020016040528060008152506126ef565b905080915050919050565b612c7582612200565b612cb4576040517f08c379a0000000000000000000000000000000000000000000000000000000008152600401612cab90614d55565b60405180910390fd5b80600960008481526020019081526020016000209080519060200190612cdb92919061361f565b505050565b600073ffffffffffffffffffffffffffffffffffffffff16600a600083815260200190815260200160002060009054906101000a900473ffffffffffffffffffffffffffffffffffffffff1673ffffffffffffffffffffffffffffffffffffffff1614612d9b576000600a600083815260200190815260200160002060006101000a81548173ffffffffffffffffffffffffffffffffffffffff021916908373ffffffffffffffffffffffffffffffffffffffff1602179055505b50565b612db6600182600001546133f590919063ffffffff16565b816000018190555050565b6001816000016000828254019250508190555050565b8173ffffffffffffffffffffffffffffffffffffffff16612df782610eb3565b73ffffffffffffffffffffffffffffffffffffffff1614612e4d576040517f08c379a0000000000000000000000000000000000000000000000000000000008152600401612e4490614d35565b60405180910390fd5b612e5681612ce0565b612e9d600560008473ffffffffffffffffffffffffffffffffffffffff1673ffffffffffffffffffffffffffffffffffffffff168152602001908152602001600020612d9e565b60006004600083815260200190815260200160002060006101000a81548173ffffffffffffffffffffffffffffffffffffffff021916908373ffffffffffffffffffffffffffffffffffffffff16021790555060006009600083815260200190815260200160002080546001816001161561010002031660029004905014612f3f57600960008281526020019081526020016000206000612f3e919061369f565b5b60066000828152602001908152602001600020600080820160006101000a81549073ffffffffffffffffffffffffffffffffffffffff0219169055600182016000612f8a919061369f565b60028201600090556003820160006101000a81549063ffffffff02191690556003820160046101000a81549063ffffffff02191690556003820160086101000a81549063ffffffff0219169055505080600073ffffffffffffffffffffffffffffffffffffffff168373ffffffffffffffffffffffffffffffffffffffff167fddf252ad1be2c89b69c2b068fc378daa952ba7f163c4a11628f55a4df523b3ef60405160405180910390a45050565b600061305a8473ffffffffffffffffffffffffffffffffffffffff1661343f565b613067576001905061314f565b60008473ffffffffffffffffffffffffffffffffffffffff1663150b7a0261308d612272565b8887876040518563ffffffff1660e01b81526004016130af9493929190614991565b602060405180830381600087803b1580156130c957600080fd5b505af11580156130dd573d6000803e3d6000fd5b505050506040513d601f19601f820116820180604052506131019190810190613d34565b905063150b7a0260e01b7bffffffffffffffffffffffffffffffffffffffffffffffffffffffff1916817bffffffffffffffffffffffffffffffffffffffffffffffffffffffff1916149150505b949350505050565b60006060600860003373ffffffffffffffffffffffffffffffffffffffff1673ffffffffffffffffffffffffffffffffffffffff168152602001908152602001600020805480602002602001604051908101604052809291908181526020016000905b8282101561328a57838290600052602060002001604051806020016040529081600082018054600181600116156101000203166002900480601f0160208091040260200160405190810160405280929190818152602001828054600181600116156101000203166002900480156132725780601f1061324757610100808354040283529160200191613272565b820191906000526020600020905b81548152906001019060200180831161325557829003601f168201915b505050505081525050815260200190600101906131ba565b505050509050600080905060008090505b82518110156132dc576132c5858483815181106132b457fe5b60200260200101516000015161348a565b156132cf57600191505b808060010191505061329b565b508092505050919050565b60006060600760003373ffffffffffffffffffffffffffffffffffffffff1673ffffffffffffffffffffffffffffffffffffffff16815260200190815260200160002084604051613338919061495f565b9081526020016040518091039020805480602002602001604051908101604052809291908181526020016000905b8282101561339e5783829060005260206000200160405180602001604052908160008201548152505081526020019060010190613366565b505050509050600080905060008090505b82518110156133e9578281815181106133c457fe5b6020026020010151600001518514156133dc57600191505b80806001019150506133af565b50809250505092915050565b600061343783836040518060400160405280601e81526020017f536166654d6174683a207375627472616374696f6e206f766572666c6f7700008152506134e3565b905092915050565b60008060007fc5d2460186f7233c927e7db2dcc703c0e500b653ca82273b7bfad8045d85a47060001b9050833f91506000801b82141580156134815750808214155b92505050919050565b60008160405160200161349d919061495f565b60405160208183030381529060405280519060200120836040516020016134c4919061495f565b6040516020818303038152906040528051906020012014905092915050565b600083831115829061352b576040517f08c379a00000000000000000000000000000000000000000000000000000000081526004016135229190614ad3565b60405180910390fd5b5060008385039050809150509392505050565b6040518060c00160405280600073ffffffffffffffffffffffffffffffffffffffff1681526020016060815260200160008019168152602001600063ffffffff168152602001600063ffffffff168152602001600063ffffffff1681525090565b828054600181600116156101000203166002900490600052602060002090601f016020900481019282601f106135e057805160ff191683800117855561360e565b8280016001018555821561360e579182015b8281111561360d5782518255916020019190600101906135f2565b5b50905061361b91906136e7565b5090565b828054600181600116156101000203166002900490600052602060002090601f016020900481019282601f1061366057805160ff191683800117855561368e565b8280016001018555821561368e579182015b8281111561368d578251825591602001919060010190613672565b5b50905061369b91906136e7565b5090565b50805460018160011615610100020316600290046000825580601f106136c557506136e4565b601f0160209004906000526020600020908101906136e391906136e7565b5b50565b61370991905b808211156137055760008160009055506001016136ed565b5090565b90565b60008135905061371b816150a4565b92915050565b600081359050613730816150bb565b92915050565b600081519050613745816150bb565b92915050565b60008135905061375a816150d2565b92915050565b60008135905061376f816150e9565b92915050565b600081519050613784816150e9565b92915050565b600082601f83011261379b57600080fd5b81356137ae6137a982614e3d565b614e10565b915080825260208301602083018583830111156137ca57600080fd5b6137d5838284615051565b50505092915050565b60008083601f8401126137f057600080fd5b8235905067ffffffffffffffff81111561380957600080fd5b60208301915083600182028301111561382157600080fd5b9250929050565b600082601f83011261383957600080fd5b813561384c61384782614e69565b614e10565b9150808252602083016020830185838301111561386857600080fd5b613873838284615051565b50505092915050565b60008135905061388b81615100565b92915050565b6000813590506138a081615117565b92915050565b6000602082840312156138b857600080fd5b60006138c68482850161370c565b91505092915050565b600080604083850312156138e257600080fd5b60006138f08582860161370c565b92505060206139018582860161370c565b9150509250929050565b60008060006060848603121561392057600080fd5b600061392e8682870161370c565b935050602061393f8682870161370c565b92505060406139508682870161387c565b9150509250925092565b6000806000806080858703121561397057600080fd5b600061397e8782880161370c565b945050602061398f8782880161370c565b93505060406139a08782880161387c565b925050606085013567ffffffffffffffff8111156139bd57600080fd5b6139c98782880161378a565b91505092959194509250565b600080604083850312156139e857600080fd5b60006139f68582860161370c565b9250506020613a0785828601613721565b9150509250929050565b600080600060408486031215613a2657600080fd5b6000613a348682870161370c565b935050602084013567ffffffffffffffff811115613a5157600080fd5b613a5d868287016137de565b92509250509250925092565b60008060008060008060c08789031215613a8257600080fd5b6000613a9089828a0161370c565b965050602087013567ffffffffffffffff811115613aad57600080fd5b613ab989828a01613828565b9550506040613aca89828a0161374b565b9450506060613adb89828a01613891565b9350506080613aec89828a01613891565b92505060a0613afd89828a01613891565b9150509295509295509295565b600080600080600080600060e0888a031215613b2557600080fd5b6000613b338a828b0161370c565b975050602088013567ffffffffffffffff811115613b5057600080fd5b613b5c8a828b01613828565b9650506040613b6d8a828b0161374b565b9550506060613b7e8a828b01613891565b9450506080613b8f8a828b01613891565b93505060a0613ba08a828b01613891565b92505060c088013567ffffffffffffffff811115613bbd57600080fd5b613bc98a828b0161378a565b91505092959891949750929550565b600080600080600080600060e0888a031215613bf357600080fd5b6000613c018a828b0161370c565b975050602088013567ffffffffffffffff811115613c1e57600080fd5b613c2a8a828b01613828565b9650506040613c3b8a828b0161374b565b9550506060613c4c8a828b01613891565b9450506080613c5d8a828b01613891565b93505060a0613c6e8a828b01613891565b92505060c088013567ffffffffffffffff811115613c8b57600080fd5b613c978a828b01613828565b91505092959891949750929550565b60008060408385031215613cb957600080fd5b6000613cc78582860161370c565b9250506020613cd88582860161387c565b9150509250929050565b600060208284031215613cf457600080fd5b6000613d0284828501613736565b91505092915050565b600060208284031215613d1d57600080fd5b6000613d2b84828501613760565b91505092915050565b600060208284031215613d4657600080fd5b6000613d5484828501613775565b91505092915050565b600060208284031215613d6f57600080fd5b6000613d7d8482850161387c565b91505092915050565b6000613d928383613f19565b60208301905092915050565b6000613daa838361400e565b905092915050565b6000613dbe8383614919565b60208301905092915050565b613dd381614f9f565b82525050565b6000613de482614ec5565b613dee8185614f2e565b9350613df983614e95565b8060005b83811015613e2a578151613e118882613d86565b9750613e1c83614f07565b925050600181019050613dfd565b5085935050505092915050565b6000613e4282614ed0565b613e4c8185614f3f565b935083602082028501613e5e85614ea5565b8060005b85811015613e9a5784840389528151613e7b8582613d9e565b9450613e8683614f14565b925060208a01995050600181019050613e62565b50829750879550505050505092915050565b6000613eb782614edb565b613ec18185614f50565b9350613ecc83614eb5565b8060005b83811015613efd578151613ee48882613db2565b9750613eef83614f21565b925050600181019050613ed0565b5085935050505092915050565b613f1381614fb1565b82525050565b613f2281614fbd565b82525050565b613f3181614fbd565b82525050565b6000613f4282614ee6565b613f4c8185614f61565b9350613f5c818560208601615060565b613f6581615093565b840191505092915050565b613f798161502d565b82525050565b6000613f8b8385614f94565b9350613f98838584615051565b82840190509392505050565b6000613faf82614efc565b613fb98185614f83565b9350613fc9818560208601615060565b613fd281615093565b840191505092915050565b6000613fe882614efc565b613ff28185614f94565b9350614002818560208601615060565b80840191505092915050565b600061401982614ef1565b6140238185614f72565b9350614033818560208601615060565b61403c81615093565b840191505092915050565b6000614054603283614f83565b91507f4552433732313a207472616e7366657220746f206e6f6e20455243373231526560008301527f63656976657220696d706c656d656e74657200000000000000000000000000006020830152604082019050919050565b60006140ba603583614f83565b91507f4552433732313a2063616c6c6572206973206e6f742077686974656c6973746560008301527f6420666f7220746865204d696e74657220726f6c6500000000000000000000006020830152604082019050919050565b6000614120602a83614f83565b91507f4552433732313a2073746172742074696d65206d757374206265206265666f7260008301527f6520656e642074696d65000000000000000000000000000000000000000000006020830152604082019050919050565b6000614186602483614f83565b91507f4552433732313a207472616e7366657220746f20746865207a65726f2061646460008301527f72657373000000000000000000000000000000000000000000000000000000006020830152604082019050919050565b60006141ec601983614f83565b91507f4552433732313a20617070726f766520746f2063616c6c6572000000000000006000830152602082019050919050565b600061422c602c83614f83565b91507f4552433732313a206f70657261746f7220717565727920666f72206e6f6e657860008301527f697374656e7420746f6b656e00000000000000000000000000000000000000006020830152604082019050919050565b6000614292603483614f83565b91507f4552433732313a207472616e73666572207265737472696374656420746f207760008301527f686974656c6973746564206164647265737365730000000000000000000000006020830152604082019050919050565b60006142f8603083614f83565b91507f4552433732313a2054696d6520736c6f7420717565727920666f72206e6f6e6560008301527f78697374656e7420746f6b656e206964000000000000000000000000000000006020830152604082019050919050565b600061435e601983614f83565b91507f4552433732313a20696e76616c69642074696d6520736c6f74000000000000006000830152602082019050919050565b600061439e602e83614f83565b91507f4552433732313a20636f6e74656e74206964206973206e6f742072656769737460008301527f6572656420746f2063616c6c65720000000000000000000000000000000000006020830152604082019050919050565b6000614404602a83614f83565b91507f4552433732313a2062616c616e636520717565727920666f7220746865207a6560008301527f726f2061646472657373000000000000000000000000000000000000000000006020830152604082019050919050565b600061446a603e83614f83565b91507f4552433732313a20617070726f76652063616c6c6572206973206e6f7420746f60008301527f6b656e206f776e6572206e6f7220617070726f76656420666f7220616c6c00006020830152604082019050919050565b60006144d0602083614f83565b91507f4552433732313a206d696e7420746f20746865207a65726f20616464726573736000830152602082019050919050565b6000614510602f83614f83565b91507f4552433732313a20746f6b656e206f776e657220717565727920666f72206e6f60008301527f6e6578697374656e7420746f6b656e00000000000000000000000000000000006020830152604082019050919050565b6000614576602c83614f83565b91507f4552433732313a20617070726f76656420717565727920666f72206e6f6e657860008301527f697374656e7420746f6b656e00000000000000000000000000000000000000006020830152604082019050919050565b60006145dc602983614f83565b91507f4552433732313a207472616e73666572206f6620746f6b656e2074686174206960008301527f73206e6f74206f776e00000000000000000000000000000000000000000000006020830152604082019050919050565b6000614642601d83614f83565b91507f4552433732313a20617070726f76616c20697320726564756e64616e740000006000830152602082019050919050565b6000614682603183614f83565b91507f4552433732313a207472616e736665722063616c6c6572206973206e6f74206f60008301527f776e6572206e6f7220617070726f7665640000000000000000000000000000006020830152604082019050919050565b60006146e8602583614f83565b91507f4552433732313a206275726e206f6620746f6b656e2074686174206973206e6f60008301527f74206f776e0000000000000000000000000000000000000000000000000000006020830152604082019050919050565b600061474e602483614f83565b91507f4552433732313a2055524920736574206f66206e6f6e6578697374656e74207460008301527f6f6b656e000000000000000000000000000000000000000000000000000000006020830152604082019050919050565b60006147b4601b83614f83565b91507f4552433732313a2063616c6c6572206973206e6f74206f776e657200000000006000830152602082019050919050565b60006147f4602e83614f83565b91507f4552433732313a2063616c6c6572206973206e6f7420746f6b656e206f776e6560008301527f72206e6f7220617070726f7665640000000000000000000000000000000000006020830152604082019050919050565b600061485a602783614f83565b91507f4552433732313a2055524920717565727920666f72206e6f6e6578697374656e60008301527f7420746f6b656e000000000000000000000000000000000000000000000000006020830152604082019050919050565b60006148c0602183614f83565b91507f4552433732313a2063616c6c6572206973206e6f742077686974656c6973746560008301527f64000000000000000000000000000000000000000000000000000000000000006020830152604082019050919050565b61492281615013565b82525050565b61493181615013565b82525050565b6149408161501d565b82525050565b6000614953828486613f7f565b91508190509392505050565b600061496b8284613fdd565b915081905092915050565b600060208201905061498b6000830184613dca565b92915050565b60006080820190506149a66000830187613dca565b6149b36020830186613dca565b6149c06040830185614928565b81810360608301526149d28184613f37565b905095945050505050565b600060a0820190506149f26000830188613dca565b8181036020830152614a048187613fa4565b9050614a136040830186613f28565b614a206060830185614937565b614a2d6080830184614937565b9695505050505050565b60006020820190508181036000830152614a518184613dd9565b905092915050565b60006020820190508181036000830152614a738184613e37565b905092915050565b60006020820190508181036000830152614a958184613eac565b905092915050565b6000602082019050614ab26000830184613f0a565b92915050565b6000602082019050614acd6000830184613f70565b92915050565b60006020820190508181036000830152614aed8184613fa4565b905092915050565b60006020820190508181036000830152614b0e81614047565b9050919050565b60006020820190508181036000830152614b2e816140ad565b9050919050565b60006020820190508181036000830152614b4e81614113565b9050919050565b60006020820190508181036000830152614b6e81614179565b9050919050565b60006020820190508181036000830152614b8e816141df565b9050919050565b60006020820190508181036000830152614bae8161421f565b9050919050565b60006020820190508181036000830152614bce81614285565b9050919050565b60006020820190508181036000830152614bee816142eb565b9050919050565b60006020820190508181036000830152614c0e81614351565b9050919050565b60006020820190508181036000830152614c2e81614391565b9050919050565b60006020820190508181036000830152614c4e816143f7565b9050919050565b60006020820190508181036000830152614c6e8161445d565b9050919050565b60006020820190508181036000830152614c8e816144c3565b9050919050565b60006020820190508181036000830152614cae81614503565b9050919050565b60006020820190508181036000830152614cce81614569565b9050919050565b60006020820190508181036000830152614cee816145cf565b9050919050565b60006020820190508181036000830152614d0e81614635565b9050919050565b60006020820190508181036000830152614d2e81614675565b9050919050565b60006020820190508181036000830152614d4e816146db565b9050919050565b60006020820190508181036000830152614d6e81614741565b9050919050565b60006020820190508181036000830152614d8e816147a7565b9050919050565b60006020820190508181036000830152614dae816147e7565b9050919050565b60006020820190508181036000830152614dce8161484d565b9050919050565b60006020820190508181036000830152614dee816148b3565b9050919050565b6000602082019050614e0a6000830184614928565b92915050565b6000604051905081810181811067ffffffffffffffff82111715614e3357600080fd5b8060405250919050565b600067ffffffffffffffff821115614e5457600080fd5b601f19601f8301169050602081019050919050565b600067ffffffffffffffff821115614e8057600080fd5b601f19601f8301169050602081019050919050565b6000819050602082019050919050565b6000819050602082019050919050565b6000819050602082019050919050565b600081519050919050565b600081519050919050565b600081519050919050565b600081519050919050565b600081519050919050565b600081519050919050565b6000602082019050919050565b6000602082019050919050565b6000602082019050919050565b600082825260208201905092915050565b600082825260208201905092915050565b600082825260208201905092915050565b600082825260208201905092915050565b600082825260208201905092915050565b600082825260208201905092915050565b600081905092915050565b6000614faa82614ff3565b9050919050565b60008115159050919050565b6000819050919050565b60007fffffffff0000000000000000000000000000000000000000000000000000000082169050919050565b600073ffffffffffffffffffffffffffffffffffffffff82169050919050565b6000819050919050565b600063ffffffff82169050919050565b60006150388261503f565b9050919050565b600061504a82614ff3565b9050919050565b82818337600083830152505050565b60005b8381101561507e578082015181840152602081019050615063565b8381111561508d576000848401525b50505050565b6000601f19601f8301169050919050565b6150ad81614f9f565b81146150b857600080fd5b50565b6150c481614fb1565b81146150cf57600080fd5b50565b6150db81614fbd565b81146150e657600080fd5b50565b6150f281614fc7565b81146150fd57600080fd5b50565b61510981615013565b811461511457600080fd5b50565b6151208161501d565b811461512b57600080fd5b5056fea365627a7a723158201dc711a4eb1267bfc88feadee0613831f2fd01b0948e02fdf23aa41ee65e0b3a6c6578706572696d656e74616cf564736f6c634300050b0040",
  "source": "pragma solidity ^0.5.11;\npragma experimental ABIEncoderV2;\n\nimport \"./ERC721.sol\";\n\n/**\n * Customized for Microsponsors\n * from Open Zeppelin's ERC721Metadata contract:\n * https://github.com/OpenZeppelin/openzeppelin-contracts/blob/master/contracts/token/ERC721/ERC721Metadata.sol\n */\ncontract Microsponsors is ERC721 {\n\n    // Token name\n    string private _name;\n\n    // Token symbol\n    string private _symbol;\n\n\n    /*\n     *     bytes4(keccak256('name()')) == 0x06fdde03\n     *     bytes4(keccak256('symbol()')) == 0x95d89b41\n     *     bytes4(keccak256('tokenURI(uint256)')) == 0xc87b56dd\n     *\n     *     => 0x06fdde03 ^ 0x95d89b41 ^ 0xc87b56dd == 0x5b5e139f\n     */\n    bytes4 private constant _INTERFACE_ID_ERC721_METADATA = 0x5b5e139f;\n\n    /**\n     * @dev Constructor function\n     */\n    constructor (string memory name, string memory symbol, address registryAddress) public {\n\n        _name = name;\n        _symbol = symbol;\n\n        // register the supported interfaces to conform to ERC721 via ERC165\n        _registerInterface(_INTERFACE_ID_ERC721_METADATA);\n\n        super.updateRegistryAddress(registryAddress);\n\n    }\n\n    /**\n     * @dev Gets the token name.\n     * @return string representing the token name\n     */\n    function name() external view returns (string memory) {\n        return _name;\n    }\n\n    /**\n     * @dev Gets the token symbol.\n     * @return string representing the token symbol\n     */\n    function symbol() external view returns (string memory) {\n        return _symbol;\n    }\n\n}\n",
  "sourcePath": "/Users/lauren/github/erc-721/contracts/Microsponsors.sol",
  "compiler": {
    "name": "solc",
    "version": "0.5.11+commit.c082d0b4.Emscripten.clang"
  },
  "schemaVersion": "3.0.10",
  "updatedAt": "2019-09-12T10:44:22.476Z",
  "devdoc": {
    "methods": {
      "approve(address,uint256)": {
        "details": "Approves another address to transfer the given token ID The zero address indicates there is no approved address. There can only be one approved address per token at a given time. Can only be called by the token owner or an approved operator.",
        "params": {
          "to": "address to be approved for the given token ID",
          "tokenId": "uint256 ID of the token to be approved"
        }
      },
      "balanceOf(address)": {
        "details": "Gets the balance of the specified address.",
        "params": {
          "tokenOwner": "address to query the balance of"
        },
        "return": "uint256 representing the amount owned by the passed address"
      },
      "burn(uint256)": {
        "details": "Burns a specific ERC721 token.",
        "params": {
          "tokenId": "uint256 id of the ERC721 token to be burned."
        }
      },
      "constructor": {
        "details": "Constructor function"
      },
      "getApproved(uint256)": {
        "details": "Gets the approved address for a token ID, or zero if no address set Reverts if the token ID does not exist.",
        "params": {
          "tokenId": "uint256 ID of the token to query the approval of"
        },
        "return": "address currently approved for the given token ID"
      },
      "isApprovedForAll(address,address)": {
        "details": "Tells whether an operator is approved by a given token owner.",
        "params": {
          "operator": "operator address which you want to query the approval of",
          "tokenOwner": "token owner address which you want to query the approval of"
        },
        "return": "bool whether the given operator is approved by the token owner"
      },
      "isMinter(address)": {
        "details": "Checks if minter isWhitelisted()"
      },
      "isWhitelisted(address)": {
        "details": "Checks Registry contract for whitelisted status",
        "params": {
          "target": "The address to check"
        }
      },
      "mint(address,string,bytes32,uint32,uint32,uint32)": {
        "details": "Function to mint tokens.",
        "params": {
          "to": "The address that will receive the minted token."
        },
        "return": "tokenId"
      },
      "mintWithTokenURI(address,string,bytes32,uint32,uint32,uint32,string)": {
        "details": "Function to mint tokens.",
        "params": {
          "to": "The address that will receive the minted tokens.",
          "tokenURI": "The token URI of the minted token."
        },
        "return": "tokenId"
      },
      "name()": {
        "details": "Gets the token name.",
        "return": "string representing the token name"
      },
      "ownerOf(uint256)": {
        "details": "Gets the owner of the specified token ID.",
        "params": {
          "tokenId": "uint256 ID of the token to query the owner of"
        },
        "return": "address currently marked as the owner of the given token ID"
      },
      "pause()": {
        "details": "Called by contract owner to pause actions on this contract"
      },
      "safeMint(address,string,bytes32,uint32,uint32,uint32)": {
        "details": "Function to safely mint tokens.",
        "params": {
          "to": "The address that will receive the minted token."
        },
        "return": "tokenId"
      },
      "safeMint(address,string,bytes32,uint32,uint32,uint32,bytes)": {
        "details": "Function to safely mint tokens.",
        "params": {
          "data": "bytes data to send along with a safe transfer check.",
          "to": "The address that will receive the minted token."
        },
        "return": "tokenId"
      },
      "safeMintWithTokenURI(address,string,bytes32,uint32,uint32,uint32,string)": {
        "details": "Function to safely mint tokens.",
        "params": {
          "to": "The address that will receive the minted tokens.",
          "tokenURI": "The token URI of the minted token."
        },
        "return": "tokenId"
      },
      "safeTransferFrom(address,address,uint256)": {
        "details": "Safely transfers the ownership of a given token ID to another address If the target address is a contract, it must implement {IERC721Receiver-onERC721Received}, which is called upon a safe transfer, and return the magic value `bytes4(keccak256(\"onERC721Received(address,address,uint256,bytes)\"))`; otherwise, the transfer is reverted. Requires the msg.sender to be the owner, approved, or operator",
        "params": {
          "from": "current owner of the token",
          "to": "address to receive the ownership of the given token ID",
          "tokenId": "uint256 ID of the token to be transferred"
        }
      },
      "safeTransferFrom(address,address,uint256,bytes)": {
        "details": "Safely transfers the ownership of a given token ID to another address If the target address is a contract, it must implement {IERC721Receiver-onERC721Received}, which is called upon a safe transfer, and return the magic value `bytes4(keccak256(\"onERC721Received(address,address,uint256,bytes)\"))`; otherwise, the transfer is reverted. Requires the _msgSender() to be the owner, approved, or operator",
        "params": {
          "data": "bytes data to send along with a safe transfer check",
          "from": "current owner of the token",
          "to": "address to receive the ownership of the given token ID",
          "tokenId": "uint256 ID of the token to be transferred"
        }
      },
      "setApprovalForAll(address,bool)": {
        "details": "Sets or unsets the approval of a given operator An operator is allowed to transfer all tokens of the sender on their behalf.",
        "params": {
          "approved": "representing the status of the approval to be set",
          "to": "operator address to set the approval"
        }
      },
      "supportsInterface(bytes4)": {
        "details": "See {IERC165-supportsInterface}.     * Time complexity O(1), guaranteed to always use less than 30 000 gas."
      },
      "symbol()": {
        "details": "Gets the token symbol.",
        "return": "string representing the token symbol"
      },
      "tokenMinterContentIds(address)": {
        "details": "Look up all Content IDs a Minter has tokenized TimeSlots on      We're not grabbing this from the Registry in case the user has private"
      },
      "tokenMinterPropertyNames(address,string)": {
        "details": "Look up all Property Names a Minter has tokenized on a content ID"
      },
      "tokenURI(uint256)": {
        "details": "Returns an URI for a given token ID. Throws if the token ID does not exist. May return an empty string.",
        "params": {
          "tokenId": "uint256 ID of the token to query"
        }
      },
      "tokensOfOwner(address)": {
        "details": "This method MUST NEVER be called by smart contract code. First, it's fairly expensive (it walks the entire _tokenIds array looking for tokens belonging to owner), but it also returns a dynamic array, which is only supported for web3 calls, and not contract-to-contract calls.",
        "params": {
          "tokenOwner": "The owner whose tokens we are interested in."
        }
      },
      "totalSupply()": {
        "details": "Gets the total number of tokens ever minted."
      },
      "transferFrom(address,address,uint256)": {
        "details": "Transfers the ownership of a given token ID to another address. Usage of this method is discouraged, use {safeTransferFrom} whenever possible. Requires the msg.sender to be the owner, approved, or operator.",
        "params": {
          "from": "current owner of the token",
          "to": "address to receive the ownership of the given token ID",
          "tokenId": "uint256 ID of the token to be transferred"
        }
      },
      "unpause()": {
        "details": "Called by contract owner to unpause the smart contract."
      },
      "updateRegistryAddress(address)": {
        "details": "Update address for Microsponsors Registry contract",
        "params": {
          "newAddress": "where the Registry contract lives"
        }
      }
    }
  },
  "userdoc": {
    "methods": {
      "burn(uint256)": {
        "notice": "Customized for Microsponsors"
      },
      "mintWithTokenURI(address,string,bytes32,uint32,uint32,uint32,string)": {
        "notice": "Customized for Microsponsors from: https://github.com/OpenZeppelin/openzeppelin-contracts/blob/master/contracts/token/ERC721/ERC721MetadataMintable.sol"
      },
      "safeMintWithTokenURI(address,string,bytes32,uint32,uint32,uint32,string)": {
        "notice": "Customized for Microsponsors from https://github.com/OpenZeppelin/openzeppelin-contracts/blob/master/contracts/token/ERC721/ERC721MetadataMintable.sol"
      },
      "unpause()": {
        "notice": "This is public rather than external so it can be called by  derived contracts."
      }
    },
    "notice": "Customized for Microsponsors from Open Zeppelin's ERC721Metadata contract: https://github.com/OpenZeppelin/openzeppelin-contracts/blob/master/contracts/token/ERC721/ERC721Metadata.sol"
  }
}