{
  "contractName": "Microsponsors",
  "abi": [
    {
      "constant": true,
      "inputs": [
        {
          "internalType": "bytes4",
          "name": "interfaceId",
          "type": "bytes4"
        }
      ],
      "name": "supportsInterface",
      "outputs": [
        {
          "internalType": "bool",
          "name": "",
          "type": "bool"
        }
      ],
      "payable": false,
      "stateMutability": "view",
      "type": "function"
    },
    {
      "constant": true,
      "inputs": [
        {
          "internalType": "uint256",
          "name": "tokenId",
          "type": "uint256"
        }
      ],
      "name": "getApproved",
      "outputs": [
        {
          "internalType": "address",
          "name": "",
          "type": "address"
        }
      ],
      "payable": false,
      "stateMutability": "view",
      "type": "function"
    },
    {
      "constant": false,
      "inputs": [
        {
          "internalType": "address",
          "name": "to",
          "type": "address"
        },
        {
          "internalType": "uint256",
          "name": "tokenId",
          "type": "uint256"
        }
      ],
      "name": "approve",
      "outputs": [],
      "payable": false,
      "stateMutability": "nonpayable",
      "type": "function"
    },
    {
      "constant": true,
      "inputs": [],
      "name": "totalSupply",
      "outputs": [
        {
          "internalType": "uint256",
          "name": "",
          "type": "uint256"
        }
      ],
      "payable": false,
      "stateMutability": "view",
      "type": "function"
    },
    {
      "constant": false,
      "inputs": [
        {
          "internalType": "address",
          "name": "from",
          "type": "address"
        },
        {
          "internalType": "address",
          "name": "to",
          "type": "address"
        },
        {
          "internalType": "uint256",
          "name": "tokenId",
          "type": "uint256"
        }
      ],
      "name": "transferFrom",
      "outputs": [],
      "payable": false,
      "stateMutability": "nonpayable",
      "type": "function"
    },
    {
      "constant": false,
      "inputs": [
        {
          "internalType": "string",
          "name": "contentId",
          "type": "string"
        },
        {
          "internalType": "bytes32",
          "name": "propertyName",
          "type": "bytes32"
        },
        {
          "internalType": "uint48",
          "name": "startTime",
          "type": "uint48"
        },
        {
          "internalType": "uint48",
          "name": "endTime",
          "type": "uint48"
        },
        {
          "internalType": "uint48",
          "name": "auctionEndTime",
          "type": "uint48"
        },
        {
          "internalType": "string",
          "name": "tokenURI",
          "type": "string"
        }
      ],
      "name": "safeMintWithTokenURI",
      "outputs": [
        {
          "internalType": "uint256",
          "name": "",
          "type": "uint256"
        }
      ],
      "payable": false,
      "stateMutability": "nonpayable",
      "type": "function"
    },
    {
      "constant": true,
      "inputs": [
        {
          "internalType": "address",
          "name": "target",
          "type": "address"
        }
      ],
      "name": "isWhitelisted",
      "outputs": [
        {
          "internalType": "bool",
          "name": "",
          "type": "bool"
        }
      ],
      "payable": false,
      "stateMutability": "view",
      "type": "function"
    },
    {
      "constant": false,
      "inputs": [],
      "name": "unpause",
      "outputs": [],
      "payable": false,
      "stateMutability": "nonpayable",
      "type": "function"
    },
    {
      "constant": false,
      "inputs": [
        {
          "internalType": "address",
          "name": "from",
          "type": "address"
        },
        {
          "internalType": "address",
          "name": "to",
          "type": "address"
        },
        {
          "internalType": "uint256",
          "name": "tokenId",
          "type": "uint256"
        }
      ],
      "name": "safeTransferFrom",
      "outputs": [],
      "payable": false,
      "stateMutability": "nonpayable",
      "type": "function"
    },
    {
      "constant": false,
      "inputs": [
        {
          "internalType": "uint256",
          "name": "tokenId",
          "type": "uint256"
        }
      ],
      "name": "burn",
      "outputs": [],
      "payable": false,
      "stateMutability": "nonpayable",
      "type": "function"
    },
    {
      "constant": false,
      "inputs": [
        {
          "internalType": "string",
          "name": "contentId",
          "type": "string"
        },
        {
          "internalType": "bytes32",
          "name": "propertyName",
          "type": "bytes32"
        },
        {
          "internalType": "uint48",
          "name": "startTime",
          "type": "uint48"
        },
        {
          "internalType": "uint48",
          "name": "endTime",
          "type": "uint48"
        },
        {
          "internalType": "uint48",
          "name": "auctionEndTime",
          "type": "uint48"
        },
        {
          "internalType": "bytes",
          "name": "data",
          "type": "bytes"
        }
      ],
      "name": "safeMint",
      "outputs": [
        {
          "internalType": "uint256",
          "name": "",
          "type": "uint256"
        }
      ],
      "payable": false,
      "stateMutability": "nonpayable",
      "type": "function"
    },
    {
      "constant": true,
      "inputs": [],
      "name": "paused",
      "outputs": [
        {
          "internalType": "bool",
          "name": "",
          "type": "bool"
        }
      ],
      "payable": false,
      "stateMutability": "view",
      "type": "function"
    },
    {
      "constant": false,
      "inputs": [
        {
          "internalType": "string",
          "name": "contentId",
          "type": "string"
        },
        {
          "internalType": "bytes32",
          "name": "propertyName",
          "type": "bytes32"
        },
        {
          "internalType": "uint48",
          "name": "startTime",
          "type": "uint48"
        },
        {
          "internalType": "uint48",
          "name": "endTime",
          "type": "uint48"
        },
        {
          "internalType": "uint48",
          "name": "auctionEndTime",
          "type": "uint48"
        },
        {
          "internalType": "string",
          "name": "tokenURI",
          "type": "string"
        }
      ],
      "name": "mintWithTokenURI",
      "outputs": [
        {
          "internalType": "uint256",
          "name": "",
          "type": "uint256"
        }
      ],
      "payable": false,
      "stateMutability": "nonpayable",
      "type": "function"
    },
    {
      "constant": true,
      "inputs": [
        {
          "internalType": "uint256",
          "name": "tokenId",
          "type": "uint256"
        }
      ],
      "name": "ownerOf",
      "outputs": [
        {
          "internalType": "address",
          "name": "",
          "type": "address"
        }
      ],
      "payable": false,
      "stateMutability": "view",
      "type": "function"
    },
    {
      "constant": true,
      "inputs": [
        {
          "internalType": "address",
          "name": "tokenOwner",
          "type": "address"
        }
      ],
      "name": "balanceOf",
      "outputs": [
        {
          "internalType": "uint256",
          "name": "",
          "type": "uint256"
        }
      ],
      "payable": false,
      "stateMutability": "view",
      "type": "function"
    },
    {
      "constant": true,
      "inputs": [
        {
          "internalType": "address",
          "name": "minter",
          "type": "address"
        },
        {
          "internalType": "string",
          "name": "contentId",
          "type": "string"
        }
      ],
      "name": "tokenMinterPropertyNames",
      "outputs": [
        {
          "internalType": "bytes32[]",
          "name": "",
          "type": "bytes32[]"
        }
      ],
      "payable": false,
      "stateMutability": "view",
      "type": "function"
    },
    {
      "constant": true,
      "inputs": [],
      "name": "registry",
      "outputs": [
        {
          "internalType": "contract DeployedRegistry",
          "name": "",
          "type": "address"
        }
      ],
      "payable": false,
      "stateMutability": "view",
      "type": "function"
    },
    {
      "constant": false,
      "inputs": [],
      "name": "pause",
      "outputs": [],
      "payable": false,
      "stateMutability": "nonpayable",
      "type": "function"
    },
    {
      "constant": true,
      "inputs": [
        {
          "internalType": "address",
          "name": "tokenOwner",
          "type": "address"
        }
      ],
      "name": "tokensOfOwner",
      "outputs": [
        {
          "internalType": "uint256[]",
          "name": "",
          "type": "uint256[]"
        }
      ],
      "payable": false,
      "stateMutability": "view",
      "type": "function"
    },
    {
      "constant": true,
      "inputs": [],
      "name": "owner",
      "outputs": [
        {
          "internalType": "address",
          "name": "",
          "type": "address"
        }
      ],
      "payable": false,
      "stateMutability": "view",
      "type": "function"
    },
    {
      "constant": false,
      "inputs": [
        {
          "internalType": "address",
          "name": "to",
          "type": "address"
        },
        {
          "internalType": "bool",
          "name": "approved",
          "type": "bool"
        }
      ],
      "name": "setApprovalForAll",
      "outputs": [],
      "payable": false,
      "stateMutability": "nonpayable",
      "type": "function"
    },
    {
      "constant": true,
      "inputs": [
        {
          "internalType": "address",
          "name": "minter",
          "type": "address"
        }
      ],
      "name": "tokenMinterContentIds",
      "outputs": [
        {
          "internalType": "string[]",
          "name": "",
          "type": "string[]"
        }
      ],
      "payable": false,
      "stateMutability": "view",
      "type": "function"
    },
    {
      "constant": true,
      "inputs": [
        {
          "internalType": "address",
          "name": "account",
          "type": "address"
        }
      ],
      "name": "isMinter",
      "outputs": [
        {
          "internalType": "bool",
          "name": "",
          "type": "bool"
        }
      ],
      "payable": false,
      "stateMutability": "view",
      "type": "function"
    },
    {
      "constant": false,
      "inputs": [
        {
          "internalType": "string",
          "name": "contentId",
          "type": "string"
        },
        {
          "internalType": "bytes32",
          "name": "propertyName",
          "type": "bytes32"
        },
        {
          "internalType": "uint48",
          "name": "startTime",
          "type": "uint48"
        },
        {
          "internalType": "uint48",
          "name": "endTime",
          "type": "uint48"
        },
        {
          "internalType": "uint48",
          "name": "auctionEndTime",
          "type": "uint48"
        }
      ],
      "name": "mint",
      "outputs": [
        {
          "internalType": "uint256",
          "name": "",
          "type": "uint256"
        }
      ],
      "payable": false,
      "stateMutability": "nonpayable",
      "type": "function"
    },
    {
      "constant": false,
      "inputs": [
        {
          "internalType": "address",
          "name": "from",
          "type": "address"
        },
        {
          "internalType": "address",
          "name": "to",
          "type": "address"
        },
        {
          "internalType": "uint256",
          "name": "tokenId",
          "type": "uint256"
        },
        {
          "internalType": "bytes",
          "name": "data",
          "type": "bytes"
        }
      ],
      "name": "safeTransferFrom",
      "outputs": [],
      "payable": false,
      "stateMutability": "nonpayable",
      "type": "function"
    },
    {
      "constant": false,
      "inputs": [
        {
          "internalType": "address",
          "name": "newAddress",
          "type": "address"
        }
      ],
      "name": "updateRegistryAddress",
      "outputs": [],
      "payable": false,
      "stateMutability": "nonpayable",
      "type": "function"
    },
    {
      "constant": true,
      "inputs": [
        {
          "internalType": "uint256",
          "name": "tokenId",
          "type": "uint256"
        }
      ],
      "name": "tokenURI",
      "outputs": [
        {
          "internalType": "string",
          "name": "",
          "type": "string"
        }
      ],
      "payable": false,
      "stateMutability": "view",
      "type": "function"
    },
    {
      "constant": false,
      "inputs": [
        {
          "internalType": "string",
          "name": "contentId",
          "type": "string"
        },
        {
          "internalType": "bytes32",
          "name": "propertyName",
          "type": "bytes32"
        },
        {
          "internalType": "uint48",
          "name": "startTime",
          "type": "uint48"
        },
        {
          "internalType": "uint48",
          "name": "endTime",
          "type": "uint48"
        },
        {
          "internalType": "uint48",
          "name": "auctionEndTime",
          "type": "uint48"
        }
      ],
      "name": "safeMint",
      "outputs": [
        {
          "internalType": "uint256",
          "name": "",
          "type": "uint256"
        }
      ],
      "payable": false,
      "stateMutability": "nonpayable",
      "type": "function"
    },
    {
      "constant": true,
      "inputs": [
        {
          "internalType": "uint256",
          "name": "tokenId",
          "type": "uint256"
        }
      ],
      "name": "tokenTimeSlot",
      "outputs": [
        {
          "internalType": "address",
          "name": "minter",
          "type": "address"
        },
        {
          "internalType": "string",
          "name": "contentId",
          "type": "string"
        },
        {
          "internalType": "bytes32",
          "name": "propertyName",
          "type": "bytes32"
        },
        {
          "internalType": "uint48",
          "name": "startTime",
          "type": "uint48"
        },
        {
          "internalType": "uint48",
          "name": "endTime",
          "type": "uint48"
        },
        {
          "internalType": "uint48",
          "name": "auctionEndTime",
          "type": "uint48"
        }
      ],
      "payable": false,
      "stateMutability": "view",
      "type": "function"
    },
    {
      "constant": true,
      "inputs": [
        {
          "internalType": "address",
          "name": "tokenOwner",
          "type": "address"
        },
        {
          "internalType": "address",
          "name": "operator",
          "type": "address"
        }
      ],
      "name": "isApprovedForAll",
      "outputs": [
        {
          "internalType": "bool",
          "name": "",
          "type": "bool"
        }
      ],
      "payable": false,
      "stateMutability": "view",
      "type": "function"
    },
    {
      "constant": false,
      "inputs": [
        {
          "internalType": "address",
          "name": "newOwner",
          "type": "address"
        }
      ],
      "name": "transferOwnership",
      "outputs": [],
      "payable": false,
      "stateMutability": "nonpayable",
      "type": "function"
    },
    {
      "inputs": [
        {
          "internalType": "string",
          "name": "name",
          "type": "string"
        },
        {
          "internalType": "string",
          "name": "symbol",
          "type": "string"
        },
        {
          "internalType": "address",
          "name": "registryAddress",
          "type": "address"
        }
      ],
      "payable": false,
      "stateMutability": "nonpayable",
      "type": "constructor"
    },
    {
      "anonymous": false,
      "inputs": [
        {
          "indexed": true,
          "internalType": "address",
          "name": "from",
          "type": "address"
        },
        {
          "indexed": true,
          "internalType": "address",
          "name": "to",
          "type": "address"
        },
        {
          "indexed": true,
          "internalType": "uint256",
          "name": "tokenId",
          "type": "uint256"
        }
      ],
      "name": "Transfer",
      "type": "event"
    },
    {
      "anonymous": false,
      "inputs": [
        {
          "indexed": true,
          "internalType": "address",
          "name": "tokenOwner",
          "type": "address"
        },
        {
          "indexed": true,
          "internalType": "address",
          "name": "approved",
          "type": "address"
        },
        {
          "indexed": true,
          "internalType": "uint256",
          "name": "tokenId",
          "type": "uint256"
        }
      ],
      "name": "Approval",
      "type": "event"
    },
    {
      "anonymous": false,
      "inputs": [
        {
          "indexed": true,
          "internalType": "address",
          "name": "tokenOwner",
          "type": "address"
        },
        {
          "indexed": true,
          "internalType": "address",
          "name": "operator",
          "type": "address"
        },
        {
          "indexed": false,
          "internalType": "bool",
          "name": "approved",
          "type": "bool"
        }
      ],
      "name": "ApprovalForAll",
      "type": "event"
    },
    {
      "constant": true,
      "inputs": [],
      "name": "name",
      "outputs": [
        {
          "internalType": "string",
          "name": "",
          "type": "string"
        }
      ],
      "payable": false,
      "stateMutability": "view",
      "type": "function"
    },
    {
      "constant": true,
      "inputs": [],
      "name": "symbol",
      "outputs": [
        {
          "internalType": "string",
          "name": "",
          "type": "string"
        }
      ],
      "payable": false,
      "stateMutability": "view",
      "type": "function"
    }
  ],
  "bytecode": "0x60806040526000600c60006101000a81548160ff0219169083151502179055503480156200002c57600080fd5b506040516200582938038062005829833981810160405262000052919081019062000423565b6200006a6301ffc9a760e01b6200013b60201b60201c565b620000826380ac58cd60e01b6200013b60201b60201c565b620000926200021360201b60201c565b600160006101000a81548173ffffffffffffffffffffffffffffffffffffffff021916908373ffffffffffffffffffffffffffffffffffffffff16021790555082600d9080519060200190620000ea92919062000301565b5081600e90805190602001906200010392919062000301565b506200011c635b5e139f60e01b6200013b60201b60201c565b62000132816200021b60201b62001c0d1760201c565b50505062000663565b63ffffffff60e01b817bffffffffffffffffffffffffffffffffffffffffffffffffffffffff19161415620001a7576040517f08c379a00000000000000000000000000000000000000000000000000000000081526004016200019e906200052f565b60405180910390fd5b6001600080837bffffffffffffffffffffffffffffffffffffffffffffffffffffffff19167bffffffffffffffffffffffffffffffffffffffffffffffffffffffff1916815260200190815260200160002060006101000a81548160ff02191690831515021790555050565b600033905090565b600160009054906101000a900473ffffffffffffffffffffffffffffffffffffffff1673ffffffffffffffffffffffffffffffffffffffff16620002646200021360201b60201c565b73ffffffffffffffffffffffffffffffffffffffff1614620002bd576040517f08c379a0000000000000000000000000000000000000000000000000000000008152600401620002b49062000551565b60405180910390fd5b80600260006101000a81548173ffffffffffffffffffffffffffffffffffffffff021916908373ffffffffffffffffffffffffffffffffffffffff16021790555050565b828054600181600116156101000203166002900490600052602060002090601f016020900481019282601f106200034457805160ff191683800117855562000375565b8280016001018555821562000375579182015b828111156200037457825182559160200191906001019062000357565b5b50905062000384919062000388565b5090565b620003ad91905b80821115620003a95760008160009055506001016200038f565b5090565b90565b600081519050620003c18162000649565b92915050565b600082601f830112620003d957600080fd5b8151620003f0620003ea82620005a1565b62000573565b915080825260208301602083018583830111156200040d57600080fd5b6200041a83828462000613565b50505092915050565b6000806000606084860312156200043957600080fd5b600084015167ffffffffffffffff8111156200045457600080fd5b6200046286828701620003c7565b935050602084015167ffffffffffffffff8111156200048057600080fd5b6200048e86828701620003c7565b9250506040620004a186828701620003b0565b9150509250925092565b6000620004ba601c83620005ce565b91507f4552433136353a20696e76616c696420696e74657266616365206964000000006000830152602082019050919050565b6000620004fc601b83620005ce565b91507f4552433732313a2063616c6c6572206973206e6f74206f776e657200000000006000830152602082019050919050565b600060208201905081810360008301526200054a81620004ab565b9050919050565b600060208201905081810360008301526200056c81620004ed565b9050919050565b6000604051905081810181811067ffffffffffffffff821117156200059757600080fd5b8060405250919050565b600067ffffffffffffffff821115620005b957600080fd5b601f19601f8301169050602081019050919050565b600082825260208201905092915050565b6000620005ec82620005f3565b9050919050565b600073ffffffffffffffffffffffffffffffffffffffff82169050919050565b60005b838110156200063357808201518184015260208101905062000616565b8381111562000643576000848401525b50505050565b6200065481620005df565b81146200066057600080fd5b50565b6151b680620006736000396000f3fe608060405234801561001057600080fd5b50600436106101fb5760003560e01c80637affcb9a1161011a578063aa271e1a116100ad578063c87b56dd1161007c578063c87b56dd146105fc578063cf74a5ad1461062c578063e5c249241461065c578063e985e9c514610691578063f2fde38b146106c1576101fb565b8063aa271e1a14610564578063aaa83bdb14610594578063b88d4fde146105c4578063c57a8825146105e0576101fb565b80638da5cb5b116100e95780638da5cb5b146104dc57806395d89b41146104fa578063a22cb46514610518578063a4ede12814610534576101fb565b80637affcb9a146104545780637b103999146104845780638456cb59146104a25780638462151c146104ac576101fb565b80633f4ba83a116101925780635c975abb116101615780635c975abb146103a6578063613a8da9146103c45780636352211e146103f457806370a0823114610424576101fb565b80633f4ba83a1461033457806342842e0e1461033e57806342966c681461035a57806349eabf5e14610376576101fb565b806318160ddd116101ce57806318160ddd1461029a57806323b872dd146102b85780633874fd67146102d45780633af32abf14610304576101fb565b806301ffc9a71461020057806306fdde0314610230578063081812fc1461024e578063095ea7b31461027e575b600080fd5b61021a60048036036102159190810190613b3f565b6106dd565b6040516102279190614ae0565b60405180910390f35b610238610744565b6040516102459190614b16565b60405180910390f35b61026860048036036102639190810190613d92565b6107e6565b60405161027591906149ab565b60405180910390f35b61029860048036036102939190810190613ada565b61086b565b005b6102a2610a8f565b6040516102af9190614e38565b60405180910390f35b6102d260048036036102cd919081019061397c565b610aa0565b005b6102ee60048036036102e99190810190613cd9565b610baa565b6040516102fb9190614e38565b60405180910390f35b61031e60048036036103199190810190613917565b610c99565b60405161032b9190614ae0565b60405180910390f35b61033c610d4d565b005b6103586004803603610353919081019061397c565b610e1a565b005b610374600480360361036f9190810190613d92565b610e3a565b005b610390600480360361038b9190810190613c20565b610eb0565b60405161039d9190614e38565b60405180910390f35b6103ae610f96565b6040516103bb9190614ae0565b60405180910390f35b6103de60048036036103d99190810190613cd9565b610fa9565b6040516103eb9190614e38565b60405180910390f35b61040e60048036036104099190810190613d92565b611098565b60405161041b91906149ab565b60405180910390f35b61043e60048036036104399190810190613917565b61114a565b60405161044b9190614e38565b60405180910390f35b61046e60048036036104699190810190613a82565b611209565b60405161047b9190614a7a565b60405180910390f35b61048c611355565b6040516104999190614afb565b60405180910390f35b6104aa61137b565b005b6104c660048036036104c19190810190613917565b611449565b6040516104d39190614abe565b60405180910390f35b6104e4611591565b6040516104f191906149ab565b60405180910390f35b6105026115b7565b60405161050f9190614b16565b60405180910390f35b610532600480360361052d9190810190613a46565b611659565b005b61054e60048036036105499190810190613917565b611843565b60405161055b9190614a9c565b60405180910390f35b61057e60048036036105799190810190613917565b611a0b565b60405161058b9190614ae0565b60405180910390f35b6105ae60048036036105a99190810190613b91565b611a1d565b6040516105bb9190614e38565b60405180910390f35b6105de60048036036105d991908101906139cb565b611b01565b005b6105fa60048036036105f59190810190613917565b611c0d565b005b61061660048036036106119190810190613d92565b611ce8565b6040516106239190614b16565b60405180910390f35b61064660048036036106419190810190613b91565b611de5565b6040516106539190614e38565b60405180910390f35b61067660048036036106719190810190613d92565b611ec9565b60405161068896959493929190614a12565b60405180910390f35b6106ab60048036036106a69190810190613940565b6120ab565b6040516106b89190614ae0565b60405180910390f35b6106db60048036036106d69190810190613917565b61213f565b005b6000806000837bffffffffffffffffffffffffffffffffffffffffffffffffffffffff19167bffffffffffffffffffffffffffffffffffffffffffffffffffffffff1916815260200190815260200160002060009054906101000a900460ff169050919050565b6060600d8054600181600116156101000203166002900480601f0160208091040260200160405190810160405280929190818152602001828054600181600116156101000203166002900480156107dc5780601f106107b1576101008083540402835291602001916107dc565b820191906000526020600020905b8154815290600101906020018083116107bf57829003601f168201915b5050505050905090565b60006107f18261224f565b610830576040517f08c379a000000000000000000000000000000000000000000000000000000000815260040161082790614cf8565b60405180910390fd5b600a600083815260200190815260200160002060009054906101000a900473ffffffffffffffffffffffffffffffffffffffff169050919050565b61087b6108766122c1565b610c99565b6108ba576040517f08c379a00000000000000000000000000000000000000000000000000000000081526004016108b190614e18565b60405180910390fd5b600c60009054906101000a900460ff16156108d457600080fd5b60006108df82611098565b90508073ffffffffffffffffffffffffffffffffffffffff168373ffffffffffffffffffffffffffffffffffffffff161415610950576040517f08c379a000000000000000000000000000000000000000000000000000000000815260040161094790614d38565b60405180910390fd5b8073ffffffffffffffffffffffffffffffffffffffff1661096f6122c1565b73ffffffffffffffffffffffffffffffffffffffff16148061099e575061099d816109986122c1565b6120ab565b5b6109dd576040517f08c379a00000000000000000000000000000000000000000000000000000000081526004016109d490614c98565b60405180910390fd5b82600a600084815260200190815260200160002060006101000a81548173ffffffffffffffffffffffffffffffffffffffff021916908373ffffffffffffffffffffffffffffffffffffffff160217905550818373ffffffffffffffffffffffffffffffffffffffff168273ffffffffffffffffffffffffffffffffffffffff167f8c5be1e5ebec7d5bd14f71427d1e84f3dd0314c0f7b2291e5b200ac8c7c3b92560405160405180910390a4505050565b6000610a9b60036122c9565b905090565b600c60009054906101000a900460ff1615610aba57600080fd5b610acb610ac56122c1565b826122d7565b610b0a576040517f08c379a0000000000000000000000000000000000000000000000000000000008152600401610b0190614d58565b60405180910390fd5b610b1383610c99565b610b52576040517f08c379a0000000000000000000000000000000000000000000000000000000008152600401610b4990614bf8565b60405180910390fd5b610b5b82610c99565b610b9a576040517f08c379a0000000000000000000000000000000000000000000000000000000008152600401610b9190614bf8565b60405180910390fd5b610ba58383836123b5565b505050565b6000610bbc610bb76122c1565b611a0b565b610bfb576040517f08c379a0000000000000000000000000000000000000000000000000000000008152600401610bf290614b58565b60405180910390fd5b600c60009054906101000a900460ff1615610c1557600080fd5b610c208786866125e4565b610c5f576040517f08c379a0000000000000000000000000000000000000000000000000000000008152600401610c5690614c38565b60405180910390fd5b6000610c71610c6c6122c1565b61272d565b9050610c81818989898989612754565b610c8b8184612a75565b809150509695505050505050565b6000600260009054906101000a900473ffffffffffffffffffffffffffffffffffffffff1673ffffffffffffffffffffffffffffffffffffffff16633af32abf836040518263ffffffff1660e01b8152600401610cf691906149ab565b60206040518083038186803b158015610d0e57600080fd5b505afa158015610d22573d6000803e3d6000fd5b505050506040513d601f19601f82011682018060405250610d469190810190613b16565b9050919050565b600160009054906101000a900473ffffffffffffffffffffffffffffffffffffffff1673ffffffffffffffffffffffffffffffffffffffff16610d8e6122c1565b73ffffffffffffffffffffffffffffffffffffffff1614610de4576040517f08c379a0000000000000000000000000000000000000000000000000000000008152600401610ddb90614db8565b60405180910390fd5b600c60009054906101000a900460ff16610dfd57600080fd5b6000600c60006101000a81548160ff021916908315150217905550565b610e3583838360405180602001604052806000815250611b01565b505050565b600c60009054906101000a900460ff1615610e5457600080fd5b610e65610e5f6122c1565b826122d7565b610ea4576040517f08c379a0000000000000000000000000000000000000000000000000000000008152600401610e9b90614dd8565b60405180910390fd5b610ead81612ae9565b50565b6000610ec2610ebd6122c1565b611a0b565b610f01576040517f08c379a0000000000000000000000000000000000000000000000000000000008152600401610ef890614b58565b60405180910390fd5b600c60009054906101000a900460ff1615610f1b57600080fd5b610f268786866125e4565b610f65576040517f08c379a0000000000000000000000000000000000000000000000000000000008152600401610f5c90614c38565b60405180910390fd5b6000610f78610f726122c1565b84612afe565b9050610f88818989898989612754565b809150509695505050505050565b600c60009054906101000a900460ff1681565b6000610fbb610fb66122c1565b611a0b565b610ffa576040517f08c379a0000000000000000000000000000000000000000000000000000000008152600401610ff190614b58565b60405180910390fd5b600c60009054906101000a900460ff161561101457600080fd5b61101f8786866125e4565b61105e576040517f08c379a000000000000000000000000000000000000000000000000000000000815260040161105590614c38565b60405180910390fd5b600061107061106b6122c1565b612b62565b9050611080818989898989612754565b61108a8184612a75565b809150509695505050505050565b6000806004600084815260200190815260200160002060009054906101000a900473ffffffffffffffffffffffffffffffffffffffff169050600073ffffffffffffffffffffffffffffffffffffffff168173ffffffffffffffffffffffffffffffffffffffff161415611141576040517f08c379a000000000000000000000000000000000000000000000000000000000815260040161113890614cd8565b60405180910390fd5b80915050919050565b60008073ffffffffffffffffffffffffffffffffffffffff168273ffffffffffffffffffffffffffffffffffffffff1614156111bb576040517f08c379a00000000000000000000000000000000000000000000000000000000081526004016111b290614c78565b60405180910390fd5b611202600560008473ffffffffffffffffffffffffffffffffffffffff1673ffffffffffffffffffffffffffffffffffffffff1681526020019081526020016000206122c9565b9050919050565b606080600760008673ffffffffffffffffffffffffffffffffffffffff1673ffffffffffffffffffffffffffffffffffffffff168152602001908152602001600020848460405161125b92919061497b565b9081526020016040518091039020805480602002602001604051908101604052809291908181526020016000905b828210156112c15783829060005260206000200160405180602001604052908160008201548152505081526020019060010190611289565b505050509050606081516040519080825280602002602001820160405280156112f95781602001602082028038833980820191505090505b50905060008090505b82518110156113485782818151811061131757fe5b60200260200101516000015182828151811061132f57fe5b6020026020010181815250508080600101915050611302565b5080925050509392505050565b600260009054906101000a900473ffffffffffffffffffffffffffffffffffffffff1681565b600160009054906101000a900473ffffffffffffffffffffffffffffffffffffffff1673ffffffffffffffffffffffffffffffffffffffff166113bc6122c1565b73ffffffffffffffffffffffffffffffffffffffff1614611412576040517f08c379a000000000000000000000000000000000000000000000000000000000815260040161140990614db8565b60405180910390fd5b600c60009054906101000a900460ff161561142c57600080fd5b6001600c60006101000a81548160ff021916908315150217905550565b606060006114568361114a565b9050600081141561149a5760006040519080825280602002602001820160405280156114915781602001602082028038833980820191505090505b5091505061158c565b6060816040519080825280602002602001820160405280156114cb5781602001602082028038833980820191505090505b50905060006114d8610a8f565b905060008090506000600190505b828111611583578673ffffffffffffffffffffffffffffffffffffffff166004600083815260200190815260200160002060009054906101000a900473ffffffffffffffffffffffffffffffffffffffff1673ffffffffffffffffffffffffffffffffffffffff161415611576578084838151811061156157fe5b60200260200101818152505081806001019250505b80806001019150506114e6565b83955050505050505b919050565b600160009054906101000a900473ffffffffffffffffffffffffffffffffffffffff1681565b6060600e8054600181600116156101000203166002900480601f01602080910402602001604051908101604052809291908181526020018280546001816001161561010002031660029004801561164f5780601f106116245761010080835404028352916020019161164f565b820191906000526020600020905b81548152906001019060200180831161163257829003601f168201915b5050505050905090565b6116696116646122c1565b610c99565b6116a8576040517f08c379a000000000000000000000000000000000000000000000000000000000815260040161169f90614e18565b60405180910390fd5b600c60009054906101000a900460ff16156116c257600080fd5b6116ca6122c1565b73ffffffffffffffffffffffffffffffffffffffff168273ffffffffffffffffffffffffffffffffffffffff161415611738576040517f08c379a000000000000000000000000000000000000000000000000000000000815260040161172f90614bb8565b60405180910390fd5b80600b60006117456122c1565b73ffffffffffffffffffffffffffffffffffffffff1673ffffffffffffffffffffffffffffffffffffffff16815260200190815260200160002060008473ffffffffffffffffffffffffffffffffffffffff1673ffffffffffffffffffffffffffffffffffffffff16815260200190815260200160002060006101000a81548160ff0219169083151502179055508173ffffffffffffffffffffffffffffffffffffffff166117f26122c1565b73ffffffffffffffffffffffffffffffffffffffff167f17307eab39ab6107e8899845ad3d59bd9653f200f220920489ca2b5937696c31836040516118379190614ae0565b60405180910390a35050565b606080600860008473ffffffffffffffffffffffffffffffffffffffff1673ffffffffffffffffffffffffffffffffffffffff168152602001908152602001600020805480602002602001604051908101604052809291908181526020016000905b8282101561197557838290600052602060002001604051806020016040529081600082018054600181600116156101000203166002900480601f01602080910402602001604051908101604052809291908181526020018280546001816001161561010002031660029004801561195d5780601f106119325761010080835404028352916020019161195d565b820191906000526020600020905b81548152906001019060200180831161194057829003601f168201915b505050505081525050815260200190600101906118a5565b505050509050606081516040519080825280602002602001820160405280156119b257816020015b606081526020019060019003908161199d5790505b50905060008090505b8251811015611a00578281815181106119d057fe5b6020026020010151600001518282815181106119e857fe5b602002602001018190525080806001019150506119bb565b508092505050919050565b6000611a1682610c99565b9050919050565b6000611a2f611a2a6122c1565b611a0b565b611a6e576040517f08c379a0000000000000000000000000000000000000000000000000000000008152600401611a6590614b58565b60405180910390fd5b600c60009054906101000a900460ff1615611a8857600080fd5b611a938685856125e4565b611ad2576040517f08c379a0000000000000000000000000000000000000000000000000000000008152600401611ac990614c38565b60405180910390fd5b6000611ae4611adf6122c1565b612b62565b9050611af4818888888888612754565b8091505095945050505050565b600c60009054906101000a900460ff1615611b1b57600080fd5b611b2484610c99565b611b63576040517f08c379a0000000000000000000000000000000000000000000000000000000008152600401611b5a90614bf8565b60405180910390fd5b611b6c83610c99565b611bab576040517f08c379a0000000000000000000000000000000000000000000000000000000008152600401611ba290614bf8565b60405180910390fd5b611bbc611bb66122c1565b836122d7565b611bfb576040517f08c379a0000000000000000000000000000000000000000000000000000000008152600401611bf290614d58565b60405180910390fd5b611c0784848484612ce9565b50505050565b600160009054906101000a900473ffffffffffffffffffffffffffffffffffffffff1673ffffffffffffffffffffffffffffffffffffffff16611c4e6122c1565b73ffffffffffffffffffffffffffffffffffffffff1614611ca4576040517f08c379a0000000000000000000000000000000000000000000000000000000008152600401611c9b90614db8565b60405180910390fd5b80600260006101000a81548173ffffffffffffffffffffffffffffffffffffffff021916908373ffffffffffffffffffffffffffffffffffffffff16021790555050565b6060611cf38261224f565b611d32576040517f08c379a0000000000000000000000000000000000000000000000000000000008152600401611d2990614df8565b60405180910390fd5b600960008381526020019081526020016000208054600181600116156101000203166002900480601f016020809104026020016040519081016040528092919081815260200182805460018160011615610100020316600290048015611dd95780601f10611dae57610100808354040283529160200191611dd9565b820191906000526020600020905b815481529060010190602001808311611dbc57829003601f168201915b50505050509050919050565b6000611df7611df26122c1565b611a0b565b611e36576040517f08c379a0000000000000000000000000000000000000000000000000000000008152600401611e2d90614b58565b60405180910390fd5b600c60009054906101000a900460ff1615611e5057600080fd5b611e5b8685856125e4565b611e9a576040517f08c379a0000000000000000000000000000000000000000000000000000000008152600401611e9190614c38565b60405180910390fd5b6000611eac611ea76122c1565b61272d565b9050611ebc818888888888612754565b8091505095945050505050565b60006060600080600080611edc8761224f565b611f1b576040517f08c379a0000000000000000000000000000000000000000000000000000000008152600401611f1290614c18565b60405180910390fd5b6006600088815260200190815260200160002060000160009054906101000a900473ffffffffffffffffffffffffffffffffffffffff1660066000898152602001908152602001600020600101600660008a815260200190815260200160002060020154600660008b815260200190815260200160002060030160009054906101000a900465ffffffffffff16600660008c815260200190815260200160002060030160069054906101000a900465ffffffffffff16600660008d8152602001908152602001600020600301600c9054906101000a900465ffffffffffff16848054600181600116156101000203166002900480601f01602080910402602001604051908101604052809291908181526020018280546001816001161561010002031660029004801561208f5780601f106120645761010080835404028352916020019161208f565b820191906000526020600020905b81548152906001019060200180831161207257829003601f168201915b5050505050945095509550955095509550955091939550919395565b6000600b60008473ffffffffffffffffffffffffffffffffffffffff1673ffffffffffffffffffffffffffffffffffffffff16815260200190815260200160002060008373ffffffffffffffffffffffffffffffffffffffff1673ffffffffffffffffffffffffffffffffffffffff16815260200190815260200160002060009054906101000a900460ff16905092915050565b600160009054906101000a900473ffffffffffffffffffffffffffffffffffffffff1673ffffffffffffffffffffffffffffffffffffffff166121806122c1565b73ffffffffffffffffffffffffffffffffffffffff16146121d6576040517f08c379a00000000000000000000000000000000000000000000000000000000081526004016121cd90614db8565b60405180910390fd5b600073ffffffffffffffffffffffffffffffffffffffff168173ffffffffffffffffffffffffffffffffffffffff161461224c5780600160006101000a81548173ffffffffffffffffffffffffffffffffffffffff021916908373ffffffffffffffffffffffffffffffffffffffff1602179055505b50565b6000806004600084815260200190815260200160002060009054906101000a900473ffffffffffffffffffffffffffffffffffffffff169050600073ffffffffffffffffffffffffffffffffffffffff168173ffffffffffffffffffffffffffffffffffffffff161415915050919050565b600033905090565b600081600001549050919050565b60006122e28261224f565b612321576040517f08c379a000000000000000000000000000000000000000000000000000000000815260040161231890614bd8565b60405180910390fd5b600061232c83611098565b90508073ffffffffffffffffffffffffffffffffffffffff168473ffffffffffffffffffffffffffffffffffffffff16148061239b57508373ffffffffffffffffffffffffffffffffffffffff16612383846107e6565b73ffffffffffffffffffffffffffffffffffffffff16145b806123ac57506123ab81856120ab565b5b91505092915050565b8273ffffffffffffffffffffffffffffffffffffffff166123d582611098565b73ffffffffffffffffffffffffffffffffffffffff161461242b576040517f08c379a000000000000000000000000000000000000000000000000000000000815260040161242290614d18565b60405180910390fd5b600073ffffffffffffffffffffffffffffffffffffffff168273ffffffffffffffffffffffffffffffffffffffff16141561249b576040517f08c379a000000000000000000000000000000000000000000000000000000000815260040161249290614b98565b60405180910390fd5b6124a481612d45565b6124eb600560008573ffffffffffffffffffffffffffffffffffffffff1673ffffffffffffffffffffffffffffffffffffffff168152602001908152602001600020612e03565b612532600560008473ffffffffffffffffffffffffffffffffffffffff1673ffffffffffffffffffffffffffffffffffffffff168152602001908152602001600020612e26565b816004600083815260200190815260200160002060006101000a81548173ffffffffffffffffffffffffffffffffffffffff021916908373ffffffffffffffffffffffffffffffffffffffff160217905550808273ffffffffffffffffffffffffffffffffffffffff168473ffffffffffffffffffffffffffffffffffffffff167fddf252ad1be2c89b69c2b068fc378daa952ba7f163c4a11628f55a4df523b3ef60405160405180910390a4505050565b6000600260009054906101000a900473ffffffffffffffffffffffffffffffffffffffff1673ffffffffffffffffffffffffffffffffffffffff166347ba747a856040518263ffffffff1660e01b81526004016126419190614b16565b60206040518083038186803b15801561265957600080fd5b505afa15801561266d573d6000803e3d6000fd5b505050506040513d601f19601f820116820180604052506126919190810190613b16565b6126d0576040517f08c379a00000000000000000000000000000000000000000000000000000000081526004016126c790614c58565b60405180910390fd5b8265ffffffffffff168265ffffffffffff1611612722576040517f08c379a000000000000000000000000000000000000000000000000000000000815260040161271990614b78565b60405180910390fd5b600190509392505050565b6000806127498360405180602001604052806000815250612afe565b905080915050919050565b61275d8661224f565b61279c576040517f08c379a000000000000000000000000000000000000000000000000000000000815260040161279390614d98565b60405180910390fd5b6127a46135a9565b6040518060c001604052806127b76122c1565b73ffffffffffffffffffffffffffffffffffffffff1681526020018781526020018681526020018565ffffffffffff1681526020018465ffffffffffff1681526020018365ffffffffffff168152509050806006600089815260200190815260200160002060008201518160000160006101000a81548173ffffffffffffffffffffffffffffffffffffffff021916908373ffffffffffffffffffffffffffffffffffffffff160217905550602082015181600101908051906020019061287f929190613610565b506040820151816002015560608201518160030160006101000a81548165ffffffffffff021916908365ffffffffffff16021790555060808201518160030160066101000a81548165ffffffffffff021916908365ffffffffffff16021790555060a082015181600301600c6101000a81548165ffffffffffff021916908365ffffffffffff16021790555090505061291786612e3c565b6129b857600860006129276122c1565b73ffffffffffffffffffffffffffffffffffffffff1673ffffffffffffffffffffffffffffffffffffffff16815260200190815260200160002060405180602001604052808881525090806001815401808255809150509060018203906000526020600020016000909192909190915060008201518160000190805190602001906129b3929190613610565b505050505b6129c28686612fcc565b612a6c57600760006129d26122c1565b73ffffffffffffffffffffffffffffffffffffffff1673ffffffffffffffffffffffffffffffffffffffff16815260200190815260200160002086604051612a1a9190614994565b9081526020016040518091039020604051806020016040528087815250908060018154018082558091505090600182039060005260206000200160009091929091909150600082015181600001555050505b50505050505050565b612a7e8261224f565b612abd576040517f08c379a0000000000000000000000000000000000000000000000000000000008152600401612ab490614d98565b60405180910390fd5b80600960008481526020019081526020016000209080519060200190612ae4929190613690565b505050565b612afb612af582611098565b826130da565b50565b600080612b0a84612b62565b9050612b196000858386613342565b612b58576040517f08c379a0000000000000000000000000000000000000000000000000000000008152600401612b4f90614b38565b60405180910390fd5b8091505092915050565b60008073ffffffffffffffffffffffffffffffffffffffff168273ffffffffffffffffffffffffffffffffffffffff161415612bd3576040517f08c379a0000000000000000000000000000000000000000000000000000000008152600401612bca90614cb8565b60405180910390fd5b612bdd6003612e26565b6000612be960036122c9565b9050826004600083815260200190815260200160002060006101000a81548173ffffffffffffffffffffffffffffffffffffffff021916908373ffffffffffffffffffffffffffffffffffffffff160217905550612c84600560008573ffffffffffffffffffffffffffffffffffffffff1673ffffffffffffffffffffffffffffffffffffffff168152602001908152602001600020612e26565b808373ffffffffffffffffffffffffffffffffffffffff16600073ffffffffffffffffffffffffffffffffffffffff167fddf252ad1be2c89b69c2b068fc378daa952ba7f163c4a11628f55a4df523b3ef60405160405180910390a480915050919050565b612cf48484846123b5565b612d0084848484613342565b612d3f576040517f08c379a0000000000000000000000000000000000000000000000000000000008152600401612d3690614b38565b60405180910390fd5b50505050565b600073ffffffffffffffffffffffffffffffffffffffff16600a600083815260200190815260200160002060009054906101000a900473ffffffffffffffffffffffffffffffffffffffff1673ffffffffffffffffffffffffffffffffffffffff1614612e00576000600a600083815260200190815260200160002060006101000a81548173ffffffffffffffffffffffffffffffffffffffff021916908373ffffffffffffffffffffffffffffffffffffffff1602179055505b50565b612e1b6001826000015461346090919063ffffffff16565b816000018190555050565b6001816000016000828254019250508190555050565b60006060600860003373ffffffffffffffffffffffffffffffffffffffff1673ffffffffffffffffffffffffffffffffffffffff168152602001908152602001600020805480602002602001604051908101604052809291908181526020016000905b82821015612f6f57838290600052602060002001604051806020016040529081600082018054600181600116156101000203166002900480601f016020809104026020016040519081016040528092919081815260200182805460018160011615610100020316600290048015612f575780601f10612f2c57610100808354040283529160200191612f57565b820191906000526020600020905b815481529060010190602001808311612f3a57829003601f168201915b50505050508152505081526020019060010190612e9f565b505050509050600080905060008090505b8251811015612fc157612faa85848381518110612f9957fe5b6020026020010151600001516134aa565b15612fb457600191505b8080600101915050612f80565b508092505050919050565b60006060600760003373ffffffffffffffffffffffffffffffffffffffff1673ffffffffffffffffffffffffffffffffffffffff1681526020019081526020016000208460405161301d9190614994565b9081526020016040518091039020805480602002602001604051908101604052809291908181526020016000905b82821015613083578382906000526020600020016040518060200160405290816000820154815250508152602001906001019061304b565b505050509050600080905060008090505b82518110156130ce578281815181106130a957fe5b6020026020010151600001518514156130c157600191505b8080600101915050613094565b50809250505092915050565b8173ffffffffffffffffffffffffffffffffffffffff166130fa82611098565b73ffffffffffffffffffffffffffffffffffffffff1614613150576040517f08c379a000000000000000000000000000000000000000000000000000000000815260040161314790614d78565b60405180910390fd5b61315981612d45565b6131a0600560008473ffffffffffffffffffffffffffffffffffffffff1673ffffffffffffffffffffffffffffffffffffffff168152602001908152602001600020612e03565b60006004600083815260200190815260200160002060006101000a81548173ffffffffffffffffffffffffffffffffffffffff021916908373ffffffffffffffffffffffffffffffffffffffff16021790555060006009600083815260200190815260200160002080546001816001161561010002031660029004905014613242576009600082815260200190815260200160002060006132419190613710565b5b60066000828152602001908152602001600020600080820160006101000a81549073ffffffffffffffffffffffffffffffffffffffff021916905560018201600061328d9190613710565b60028201600090556003820160006101000a81549065ffffffffffff02191690556003820160066101000a81549065ffffffffffff021916905560038201600c6101000a81549065ffffffffffff0219169055505080600073ffffffffffffffffffffffffffffffffffffffff168373ffffffffffffffffffffffffffffffffffffffff167fddf252ad1be2c89b69c2b068fc378daa952ba7f163c4a11628f55a4df523b3ef60405160405180910390a45050565b60006133638473ffffffffffffffffffffffffffffffffffffffff16613503565b6133705760019050613458565b60008473ffffffffffffffffffffffffffffffffffffffff1663150b7a026133966122c1565b8887876040518563ffffffff1660e01b81526004016133b894939291906149c6565b602060405180830381600087803b1580156133d257600080fd5b505af11580156133e6573d6000803e3d6000fd5b505050506040513d601f19601f8201168201806040525061340a9190810190613b68565b905063150b7a0260e01b7bffffffffffffffffffffffffffffffffffffffffffffffffffffffff1916817bffffffffffffffffffffffffffffffffffffffffffffffffffffffff1916149150505b949350505050565b60006134a283836040518060400160405280601e81526020017f536166654d6174683a207375627472616374696f6e206f766572666c6f77000081525061354e565b905092915050565b6000816040516020016134bd9190614994565b60405160208183030381529060405280519060200120836040516020016134e49190614994565b6040516020818303038152906040528051906020012014905092915050565b60008060007fc5d2460186f7233c927e7db2dcc703c0e500b653ca82273b7bfad8045d85a47060001b9050833f91506000801b82141580156135455750808214155b92505050919050565b6000838311158290613596576040517f08c379a000000000000000000000000000000000000000000000000000000000815260040161358d9190614b16565b60405180910390fd5b5060008385039050809150509392505050565b6040518060c00160405280600073ffffffffffffffffffffffffffffffffffffffff1681526020016060815260200160008019168152602001600065ffffffffffff168152602001600065ffffffffffff168152602001600065ffffffffffff1681525090565b828054600181600116156101000203166002900490600052602060002090601f016020900481019282601f1061365157805160ff191683800117855561367f565b8280016001018555821561367f579182015b8281111561367e578251825591602001919060010190613663565b5b50905061368c9190613758565b5090565b828054600181600116156101000203166002900490600052602060002090601f016020900481019282601f106136d157805160ff19168380011785556136ff565b828001600101855582156136ff579182015b828111156136fe5782518255916020019190600101906136e3565b5b50905061370c9190613758565b5090565b50805460018160011615610100020316600290046000825580601f106137365750613755565b601f0160209004906000526020600020908101906137549190613758565b5b50565b61377a91905b8082111561377657600081600090555060010161375e565b5090565b90565b60008135905061378c816150e9565b92915050565b6000813590506137a181615100565b92915050565b6000815190506137b681615100565b92915050565b6000813590506137cb81615117565b92915050565b6000813590506137e08161512e565b92915050565b6000815190506137f58161512e565b92915050565b600082601f83011261380c57600080fd5b813561381f61381a82614e80565b614e53565b9150808252602083016020830185838301111561383b57600080fd5b613846838284615096565b50505092915050565b60008083601f84011261386157600080fd5b8235905067ffffffffffffffff81111561387a57600080fd5b60208301915083600182028301111561389257600080fd5b9250929050565b600082601f8301126138aa57600080fd5b81356138bd6138b882614eac565b614e53565b915080825260208301602083018583830111156138d957600080fd5b6138e4838284615096565b50505092915050565b6000813590506138fc81615145565b92915050565b6000813590506139118161515c565b92915050565b60006020828403121561392957600080fd5b60006139378482850161377d565b91505092915050565b6000806040838503121561395357600080fd5b60006139618582860161377d565b92505060206139728582860161377d565b9150509250929050565b60008060006060848603121561399157600080fd5b600061399f8682870161377d565b93505060206139b08682870161377d565b92505060406139c1868287016138ed565b9150509250925092565b600080600080608085870312156139e157600080fd5b60006139ef8782880161377d565b9450506020613a008782880161377d565b9350506040613a11878288016138ed565b925050606085013567ffffffffffffffff811115613a2e57600080fd5b613a3a878288016137fb565b91505092959194509250565b60008060408385031215613a5957600080fd5b6000613a678582860161377d565b9250506020613a7885828601613792565b9150509250929050565b600080600060408486031215613a9757600080fd5b6000613aa58682870161377d565b935050602084013567ffffffffffffffff811115613ac257600080fd5b613ace8682870161384f565b92509250509250925092565b60008060408385031215613aed57600080fd5b6000613afb8582860161377d565b9250506020613b0c858286016138ed565b9150509250929050565b600060208284031215613b2857600080fd5b6000613b36848285016137a7565b91505092915050565b600060208284031215613b5157600080fd5b6000613b5f848285016137d1565b91505092915050565b600060208284031215613b7a57600080fd5b6000613b88848285016137e6565b91505092915050565b600080600080600060a08688031215613ba957600080fd5b600086013567ffffffffffffffff811115613bc357600080fd5b613bcf88828901613899565b9550506020613be0888289016137bc565b9450506040613bf188828901613902565b9350506060613c0288828901613902565b9250506080613c1388828901613902565b9150509295509295909350565b60008060008060008060c08789031215613c3957600080fd5b600087013567ffffffffffffffff811115613c5357600080fd5b613c5f89828a01613899565b9650506020613c7089828a016137bc565b9550506040613c8189828a01613902565b9450506060613c9289828a01613902565b9350506080613ca389828a01613902565b92505060a087013567ffffffffffffffff811115613cc057600080fd5b613ccc89828a016137fb565b9150509295509295509295565b60008060008060008060c08789031215613cf257600080fd5b600087013567ffffffffffffffff811115613d0c57600080fd5b613d1889828a01613899565b9650506020613d2989828a016137bc565b9550506040613d3a89828a01613902565b9450506060613d4b89828a01613902565b9350506080613d5c89828a01613902565b92505060a087013567ffffffffffffffff811115613d7957600080fd5b613d8589828a01613899565b9150509295509295509295565b600060208284031215613da457600080fd5b6000613db2848285016138ed565b91505092915050565b6000613dc78383613f4e565b60208301905092915050565b6000613ddf8383614043565b905092915050565b6000613df3838361494e565b60208301905092915050565b613e0881614fe2565b82525050565b6000613e1982614f08565b613e238185614f71565b9350613e2e83614ed8565b8060005b83811015613e5f578151613e468882613dbb565b9750613e5183614f4a565b925050600181019050613e32565b5085935050505092915050565b6000613e7782614f13565b613e818185614f82565b935083602082028501613e9385614ee8565b8060005b85811015613ecf5784840389528151613eb08582613dd3565b9450613ebb83614f57565b925060208a01995050600181019050613e97565b50829750879550505050505092915050565b6000613eec82614f1e565b613ef68185614f93565b9350613f0183614ef8565b8060005b83811015613f32578151613f198882613de7565b9750613f2483614f64565b925050600181019050613f05565b5085935050505092915050565b613f4881614ff4565b82525050565b613f5781615000565b82525050565b613f6681615000565b82525050565b6000613f7782614f29565b613f818185614fa4565b9350613f918185602086016150a5565b613f9a816150d8565b840191505092915050565b613fae81615072565b82525050565b6000613fc08385614fd7565b9350613fcd838584615096565b82840190509392505050565b6000613fe482614f3f565b613fee8185614fc6565b9350613ffe8185602086016150a5565b614007816150d8565b840191505092915050565b600061401d82614f3f565b6140278185614fd7565b93506140378185602086016150a5565b80840191505092915050565b600061404e82614f34565b6140588185614fb5565b93506140688185602086016150a5565b614071816150d8565b840191505092915050565b6000614089603283614fc6565b91507f4552433732313a207472616e7366657220746f206e6f6e20455243373231526560008301527f63656976657220696d706c656d656e74657200000000000000000000000000006020830152604082019050919050565b60006140ef603583614fc6565b91507f4552433732313a2063616c6c6572206973206e6f742077686974656c6973746560008301527f6420666f7220746865204d696e74657220726f6c6500000000000000000000006020830152604082019050919050565b6000614155602a83614fc6565b91507f4552433732313a2073746172742074696d65206d757374206265206265666f7260008301527f6520656e642074696d65000000000000000000000000000000000000000000006020830152604082019050919050565b60006141bb602483614fc6565b91507f4552433732313a207472616e7366657220746f20746865207a65726f2061646460008301527f72657373000000000000000000000000000000000000000000000000000000006020830152604082019050919050565b6000614221601983614fc6565b91507f4552433732313a20617070726f766520746f2063616c6c6572000000000000006000830152602082019050919050565b6000614261602c83614fc6565b91507f4552433732313a206f70657261746f7220717565727920666f72206e6f6e657860008301527f697374656e7420746f6b656e00000000000000000000000000000000000000006020830152604082019050919050565b60006142c7603483614fc6565b91507f4552433732313a207472616e73666572207265737472696374656420746f207760008301527f686974656c6973746564206164647265737365730000000000000000000000006020830152604082019050919050565b600061432d603083614fc6565b91507f4552433732313a2054696d6520736c6f7420717565727920666f72206e6f6e6560008301527f78697374656e7420746f6b656e206964000000000000000000000000000000006020830152604082019050919050565b6000614393601983614fc6565b91507f4552433732313a20696e76616c69642074696d6520736c6f74000000000000006000830152602082019050919050565b60006143d3602e83614fc6565b91507f4552433732313a20636f6e74656e74206964206973206e6f742072656769737460008301527f6572656420746f2063616c6c65720000000000000000000000000000000000006020830152604082019050919050565b6000614439602a83614fc6565b91507f4552433732313a2062616c616e636520717565727920666f7220746865207a6560008301527f726f2061646472657373000000000000000000000000000000000000000000006020830152604082019050919050565b600061449f603e83614fc6565b91507f4552433732313a20617070726f76652063616c6c6572206973206e6f7420746f60008301527f6b656e206f776e6572206e6f7220617070726f76656420666f7220616c6c00006020830152604082019050919050565b6000614505602083614fc6565b91507f4552433732313a206d696e7420746f20746865207a65726f20616464726573736000830152602082019050919050565b6000614545602f83614fc6565b91507f4552433732313a20746f6b656e206f776e657220717565727920666f72206e6f60008301527f6e6578697374656e7420746f6b656e00000000000000000000000000000000006020830152604082019050919050565b60006145ab602c83614fc6565b91507f4552433732313a20617070726f76656420717565727920666f72206e6f6e657860008301527f697374656e7420746f6b656e00000000000000000000000000000000000000006020830152604082019050919050565b6000614611602983614fc6565b91507f4552433732313a207472616e73666572206f6620746f6b656e2074686174206960008301527f73206e6f74206f776e00000000000000000000000000000000000000000000006020830152604082019050919050565b6000614677601d83614fc6565b91507f4552433732313a20617070726f76616c20697320726564756e64616e740000006000830152602082019050919050565b60006146b7603183614fc6565b91507f4552433732313a207472616e736665722063616c6c6572206973206e6f74206f60008301527f776e6572206e6f7220617070726f7665640000000000000000000000000000006020830152604082019050919050565b600061471d602583614fc6565b91507f4552433732313a206275726e206f6620746f6b656e2074686174206973206e6f60008301527f74206f776e0000000000000000000000000000000000000000000000000000006020830152604082019050919050565b6000614783602483614fc6565b91507f4552433732313a2055524920736574206f66206e6f6e6578697374656e74207460008301527f6f6b656e000000000000000000000000000000000000000000000000000000006020830152604082019050919050565b60006147e9601b83614fc6565b91507f4552433732313a2063616c6c6572206973206e6f74206f776e657200000000006000830152602082019050919050565b6000614829602e83614fc6565b91507f4552433732313a2063616c6c6572206973206e6f7420746f6b656e206f776e6560008301527f72206e6f7220617070726f7665640000000000000000000000000000000000006020830152604082019050919050565b600061488f602783614fc6565b91507f4552433732313a2055524920717565727920666f72206e6f6e6578697374656e60008301527f7420746f6b656e000000000000000000000000000000000000000000000000006020830152604082019050919050565b60006148f5602183614fc6565b91507f4552433732313a2063616c6c6572206973206e6f742077686974656c6973746560008301527f64000000000000000000000000000000000000000000000000000000000000006020830152604082019050919050565b61495781615056565b82525050565b61496681615056565b82525050565b61497581615060565b82525050565b6000614988828486613fb4565b91508190509392505050565b60006149a08284614012565b915081905092915050565b60006020820190506149c06000830184613dff565b92915050565b60006080820190506149db6000830187613dff565b6149e86020830186613dff565b6149f5604083018561495d565b8181036060830152614a078184613f6c565b905095945050505050565b600060c082019050614a276000830189613dff565b8181036020830152614a398188613fd9565b9050614a486040830187613f5d565b614a55606083018661496c565b614a62608083018561496c565b614a6f60a083018461496c565b979650505050505050565b60006020820190508181036000830152614a948184613e0e565b905092915050565b60006020820190508181036000830152614ab68184613e6c565b905092915050565b60006020820190508181036000830152614ad88184613ee1565b905092915050565b6000602082019050614af56000830184613f3f565b92915050565b6000602082019050614b106000830184613fa5565b92915050565b60006020820190508181036000830152614b308184613fd9565b905092915050565b60006020820190508181036000830152614b518161407c565b9050919050565b60006020820190508181036000830152614b71816140e2565b9050919050565b60006020820190508181036000830152614b9181614148565b9050919050565b60006020820190508181036000830152614bb1816141ae565b9050919050565b60006020820190508181036000830152614bd181614214565b9050919050565b60006020820190508181036000830152614bf181614254565b9050919050565b60006020820190508181036000830152614c11816142ba565b9050919050565b60006020820190508181036000830152614c3181614320565b9050919050565b60006020820190508181036000830152614c5181614386565b9050919050565b60006020820190508181036000830152614c71816143c6565b9050919050565b60006020820190508181036000830152614c918161442c565b9050919050565b60006020820190508181036000830152614cb181614492565b9050919050565b60006020820190508181036000830152614cd1816144f8565b9050919050565b60006020820190508181036000830152614cf181614538565b9050919050565b60006020820190508181036000830152614d118161459e565b9050919050565b60006020820190508181036000830152614d3181614604565b9050919050565b60006020820190508181036000830152614d518161466a565b9050919050565b60006020820190508181036000830152614d71816146aa565b9050919050565b60006020820190508181036000830152614d9181614710565b9050919050565b60006020820190508181036000830152614db181614776565b9050919050565b60006020820190508181036000830152614dd1816147dc565b9050919050565b60006020820190508181036000830152614df18161481c565b9050919050565b60006020820190508181036000830152614e1181614882565b9050919050565b60006020820190508181036000830152614e31816148e8565b9050919050565b6000602082019050614e4d600083018461495d565b92915050565b6000604051905081810181811067ffffffffffffffff82111715614e7657600080fd5b8060405250919050565b600067ffffffffffffffff821115614e9757600080fd5b601f19601f8301169050602081019050919050565b600067ffffffffffffffff821115614ec357600080fd5b601f19601f8301169050602081019050919050565b6000819050602082019050919050565b6000819050602082019050919050565b6000819050602082019050919050565b600081519050919050565b600081519050919050565b600081519050919050565b600081519050919050565b600081519050919050565b600081519050919050565b6000602082019050919050565b6000602082019050919050565b6000602082019050919050565b600082825260208201905092915050565b600082825260208201905092915050565b600082825260208201905092915050565b600082825260208201905092915050565b600082825260208201905092915050565b600082825260208201905092915050565b600081905092915050565b6000614fed82615036565b9050919050565b60008115159050919050565b6000819050919050565b60007fffffffff0000000000000000000000000000000000000000000000000000000082169050919050565b600073ffffffffffffffffffffffffffffffffffffffff82169050919050565b6000819050919050565b600065ffffffffffff82169050919050565b600061507d82615084565b9050919050565b600061508f82615036565b9050919050565b82818337600083830152505050565b60005b838110156150c35780820151818401526020810190506150a8565b838111156150d2576000848401525b50505050565b6000601f19601f8301169050919050565b6150f281614fe2565b81146150fd57600080fd5b50565b61510981614ff4565b811461511457600080fd5b50565b61512081615000565b811461512b57600080fd5b50565b6151378161500a565b811461514257600080fd5b50565b61514e81615056565b811461515957600080fd5b50565b61516581615060565b811461517057600080fd5b5056fea365627a7a72315820ea2f5d2449a9ff6c5518bc11a122932d899a12f029a7c893dea57d99ce171d236c6578706572696d656e74616cf564736f6c634300050b0040",
  "source": "pragma solidity ^0.5.11;\npragma experimental ABIEncoderV2;\n\nimport \"./ERC721.sol\";\n\n/**\n * Customized for Microsponsors\n * from Open Zeppelin's ERC721Metadata contract:\n * https://github.com/OpenZeppelin/openzeppelin-contracts/blob/master/contracts/token/ERC721/ERC721Metadata.sol\n */\ncontract Microsponsors is ERC721 {\n\n    // Token name\n    string private _name;\n\n    // Token symbol\n    string private _symbol;\n\n\n    /*\n     *     bytes4(keccak256('name()')) == 0x06fdde03\n     *     bytes4(keccak256('symbol()')) == 0x95d89b41\n     *     bytes4(keccak256('tokenURI(uint256)')) == 0xc87b56dd\n     *\n     *     => 0x06fdde03 ^ 0x95d89b41 ^ 0xc87b56dd == 0x5b5e139f\n     */\n    bytes4 private constant _INTERFACE_ID_ERC721_METADATA = 0x5b5e139f;\n\n    /**\n     * @dev Constructor function\n     */\n    constructor (string memory name, string memory symbol, address registryAddress) public {\n\n        _name = name;\n        _symbol = symbol;\n\n        // register the supported interfaces to conform to ERC721 via ERC165\n        _registerInterface(_INTERFACE_ID_ERC721_METADATA);\n\n        super.updateRegistryAddress(registryAddress);\n\n    }\n\n    /**\n     * @dev Gets the token name.\n     * @return string representing the token name\n     */\n    function name() external view returns (string memory) {\n        return _name;\n    }\n\n    /**\n     * @dev Gets the token symbol.\n     * @return string representing the token symbol\n     */\n    function symbol() external view returns (string memory) {\n        return _symbol;\n    }\n\n}\n",
  "sourcePath": "/Users/lauren/github/erc-721/contracts/Microsponsors.sol",
  "compiler": {
    "name": "solc",
    "version": "0.5.11+commit.c082d0b4.Emscripten.clang"
  },
  "schemaVersion": "3.0.10",
  "updatedAt": "2019-09-13T01:30:42.282Z",
  "devdoc": {
    "methods": {
      "approve(address,uint256)": {
        "details": "Approves another address to transfer the given token ID The zero address indicates there is no approved address. There can only be one approved address per token at a given time. Can only be called by the token owner or an approved operator.",
        "params": {
          "to": "address to be approved for the given token ID",
          "tokenId": "uint256 ID of the token to be approved"
        }
      },
      "balanceOf(address)": {
        "details": "Gets the balance of the specified address.",
        "params": {
          "tokenOwner": "address to query the balance of"
        },
        "return": "uint256 representing the amount owned by the passed address"
      },
      "burn(uint256)": {
        "details": "Burns a specific ERC721 token.",
        "params": {
          "tokenId": "uint256 id of the ERC721 token to be burned."
        }
      },
      "constructor": {
        "details": "Constructor function"
      },
      "getApproved(uint256)": {
        "details": "Gets the approved address for a token ID, or zero if no address set Reverts if the token ID does not exist.",
        "params": {
          "tokenId": "uint256 ID of the token to query the approval of"
        },
        "return": "address currently approved for the given token ID"
      },
      "isApprovedForAll(address,address)": {
        "details": "Tells whether an operator is approved by a given token owner.",
        "params": {
          "operator": "operator address which you want to query the approval of",
          "tokenOwner": "token owner address which you want to query the approval of"
        },
        "return": "bool whether the given operator is approved by the token owner"
      },
      "isMinter(address)": {
        "details": "Checks if minter isWhitelisted()"
      },
      "isWhitelisted(address)": {
        "details": "Checks Registry contract for whitelisted status",
        "params": {
          "target": "The address to check"
        }
      },
      "mint(string,bytes32,uint48,uint48,uint48)": {
        "details": "Function to mint tokens.",
        "return": "tokenId"
      },
      "mintWithTokenURI(string,bytes32,uint48,uint48,uint48,string)": {
        "details": "Function to mint tokens.",
        "params": {
          "tokenURI": "The token URI of the minted token."
        },
        "return": "tokenId"
      },
      "name()": {
        "details": "Gets the token name.",
        "return": "string representing the token name"
      },
      "ownerOf(uint256)": {
        "details": "Gets the owner of the specified token ID.",
        "params": {
          "tokenId": "uint256 ID of the token to query the owner of"
        },
        "return": "address currently marked as the owner of the given token ID"
      },
      "pause()": {
        "details": "Called by contract owner to pause actions on this contract"
      },
      "safeMint(string,bytes32,uint48,uint48,uint48)": {
        "details": "Function to safely mint tokens.",
        "return": "tokenId"
      },
      "safeMint(string,bytes32,uint48,uint48,uint48,bytes)": {
        "details": "Function to safely mint tokens.",
        "params": {
          "data": "bytes data to send along with a safe transfer check."
        },
        "return": "tokenId"
      },
      "safeMintWithTokenURI(string,bytes32,uint48,uint48,uint48,string)": {
        "details": "Function to safely mint tokens.",
        "params": {
          "tokenURI": "The token URI of the minted token."
        },
        "return": "tokenId"
      },
      "safeTransferFrom(address,address,uint256)": {
        "details": "Safely transfers the ownership of a given token ID to another address If the target address is a contract, it must implement {IERC721Receiver-onERC721Received}, which is called upon a safe transfer, and return the magic value `bytes4(keccak256(\"onERC721Received(address,address,uint256,bytes)\"))`; otherwise, the transfer is reverted. Requires the msg.sender to be the owner, approved, or operator",
        "params": {
          "from": "current owner of the token",
          "to": "address to receive the ownership of the given token ID",
          "tokenId": "uint256 ID of the token to be transferred"
        }
      },
      "safeTransferFrom(address,address,uint256,bytes)": {
        "details": "Safely transfers the ownership of a given token ID to another address If the target address is a contract, it must implement {IERC721Receiver-onERC721Received}, which is called upon a safe transfer, and return the magic value `bytes4(keccak256(\"onERC721Received(address,address,uint256,bytes)\"))`; otherwise, the transfer is reverted. Requires the _msgSender() to be the owner, approved, or operator",
        "params": {
          "data": "bytes data to send along with a safe transfer check",
          "from": "current owner of the token",
          "to": "address to receive the ownership of the given token ID",
          "tokenId": "uint256 ID of the token to be transferred"
        }
      },
      "setApprovalForAll(address,bool)": {
        "details": "Sets or unsets the approval of a given operator An operator is allowed to transfer all tokens of the sender on their behalf.",
        "params": {
          "approved": "representing the status of the approval to be set",
          "to": "operator address to set the approval"
        }
      },
      "supportsInterface(bytes4)": {
        "details": "See {IERC165-supportsInterface}.     * Time complexity O(1), guaranteed to always use less than 30 000 gas."
      },
      "symbol()": {
        "details": "Gets the token symbol.",
        "return": "string representing the token symbol"
      },
      "tokenMinterContentIds(address)": {
        "details": "Look up all Content IDs a Minter has tokenized TimeSlots on      We're not grabbing this from the Registry in case the user has private"
      },
      "tokenMinterPropertyNames(address,string)": {
        "details": "Look up all Property Names a Minter has tokenized on a content ID"
      },
      "tokenURI(uint256)": {
        "details": "Returns an URI for a given token ID. Throws if the token ID does not exist. May return an empty string.",
        "params": {
          "tokenId": "uint256 ID of the token to query"
        }
      },
      "tokensOfOwner(address)": {
        "details": "This method MUST NEVER be called by smart contract code. First, it's fairly expensive (it walks the entire _tokenIds array looking for tokens belonging to owner), but it also returns a dynamic array, which is only supported for web3 calls, and not contract-to-contract calls.",
        "params": {
          "tokenOwner": "The owner whose tokens we are interested in."
        }
      },
      "totalSupply()": {
        "details": "Gets the total number of tokens ever minted."
      },
      "transferFrom(address,address,uint256)": {
        "details": "Transfers the ownership of a given token ID to another address. Usage of this method is discouraged, use {safeTransferFrom} whenever possible. Requires the msg.sender to be the owner, approved, or operator.",
        "params": {
          "from": "current owner of the token",
          "to": "address to receive the ownership of the given token ID",
          "tokenId": "uint256 ID of the token to be transferred"
        }
      },
      "unpause()": {
        "details": "Called by contract owner to unpause the smart contract."
      },
      "updateRegistryAddress(address)": {
        "details": "Update address for Microsponsors Registry contract",
        "params": {
          "newAddress": "where the Registry contract lives"
        }
      }
    }
  },
  "userdoc": {
    "methods": {
      "burn(uint256)": {
        "notice": "Customized for Microsponsors"
      },
      "safeMintWithTokenURI(string,bytes32,uint48,uint48,uint48,string)": {
        "notice": "Customized for Microsponsors from https://github.com/OpenZeppelin/openzeppelin-contracts/blob/master/contracts/token/ERC721/ERC721MetadataMintable.sol"
      },
      "unpause()": {
        "notice": "This is public rather than external so it can be called by  derived contracts."
      }
    },
    "notice": "Customized for Microsponsors from Open Zeppelin's ERC721Metadata contract: https://github.com/OpenZeppelin/openzeppelin-contracts/blob/master/contracts/token/ERC721/ERC721Metadata.sol"
  }
}