{
  "contractName": "Microsponsors",
  "abi": [
    {
      "constant": true,
      "inputs": [
        {
          "internalType": "bytes4",
          "name": "interfaceId",
          "type": "bytes4"
        }
      ],
      "name": "supportsInterface",
      "outputs": [
        {
          "internalType": "bool",
          "name": "",
          "type": "bool"
        }
      ],
      "payable": false,
      "stateMutability": "view",
      "type": "function"
    },
    {
      "constant": false,
      "inputs": [
        {
          "internalType": "string",
          "name": "contentId",
          "type": "string"
        },
        {
          "internalType": "string",
          "name": "propertyName",
          "type": "string"
        },
        {
          "internalType": "uint48",
          "name": "startTime",
          "type": "uint48"
        },
        {
          "internalType": "uint48",
          "name": "endTime",
          "type": "uint48"
        },
        {
          "internalType": "uint48",
          "name": "auctionEndTime",
          "type": "uint48"
        },
        {
          "internalType": "uint16",
          "name": "category",
          "type": "uint16"
        },
        {
          "internalType": "string",
          "name": "tokenURI",
          "type": "string"
        }
      ],
      "name": "mintWithTokenURI",
      "outputs": [
        {
          "internalType": "uint256",
          "name": "",
          "type": "uint256"
        }
      ],
      "payable": true,
      "stateMutability": "payable",
      "type": "function"
    },
    {
      "constant": true,
      "inputs": [
        {
          "internalType": "uint256",
          "name": "tokenId",
          "type": "uint256"
        }
      ],
      "name": "getApproved",
      "outputs": [
        {
          "internalType": "address",
          "name": "",
          "type": "address"
        }
      ],
      "payable": false,
      "stateMutability": "view",
      "type": "function"
    },
    {
      "constant": false,
      "inputs": [
        {
          "internalType": "address",
          "name": "to",
          "type": "address"
        },
        {
          "internalType": "uint256",
          "name": "tokenId",
          "type": "uint256"
        }
      ],
      "name": "approve",
      "outputs": [],
      "payable": false,
      "stateMutability": "nonpayable",
      "type": "function"
    },
    {
      "constant": true,
      "inputs": [],
      "name": "mintFee",
      "outputs": [
        {
          "internalType": "uint256",
          "name": "",
          "type": "uint256"
        }
      ],
      "payable": false,
      "stateMutability": "view",
      "type": "function"
    },
    {
      "constant": true,
      "inputs": [],
      "name": "totalSupply",
      "outputs": [
        {
          "internalType": "uint256",
          "name": "",
          "type": "uint256"
        }
      ],
      "payable": false,
      "stateMutability": "view",
      "type": "function"
    },
    {
      "constant": false,
      "inputs": [
        {
          "internalType": "string",
          "name": "contentId",
          "type": "string"
        },
        {
          "internalType": "string",
          "name": "propertyName",
          "type": "string"
        },
        {
          "internalType": "uint48",
          "name": "startTime",
          "type": "uint48"
        },
        {
          "internalType": "uint48",
          "name": "endTime",
          "type": "uint48"
        },
        {
          "internalType": "uint48",
          "name": "auctionEndTime",
          "type": "uint48"
        },
        {
          "internalType": "uint16",
          "name": "category",
          "type": "uint16"
        },
        {
          "internalType": "string",
          "name": "tokenURI",
          "type": "string"
        }
      ],
      "name": "safeMintWithTokenURI",
      "outputs": [
        {
          "internalType": "uint256",
          "name": "",
          "type": "uint256"
        }
      ],
      "payable": true,
      "stateMutability": "payable",
      "type": "function"
    },
    {
      "constant": false,
      "inputs": [
        {
          "internalType": "address",
          "name": "from",
          "type": "address"
        },
        {
          "internalType": "address",
          "name": "to",
          "type": "address"
        },
        {
          "internalType": "uint256",
          "name": "tokenId",
          "type": "uint256"
        }
      ],
      "name": "transferFrom",
      "outputs": [],
      "payable": false,
      "stateMutability": "nonpayable",
      "type": "function"
    },
    {
      "constant": true,
      "inputs": [
        {
          "internalType": "address",
          "name": "minter",
          "type": "address"
        }
      ],
      "name": "tokensMintedBy",
      "outputs": [
        {
          "internalType": "uint256[]",
          "name": "",
          "type": "uint256[]"
        }
      ],
      "payable": false,
      "stateMutability": "view",
      "type": "function"
    },
    {
      "constant": true,
      "inputs": [
        {
          "internalType": "address",
          "name": "target",
          "type": "address"
        }
      ],
      "name": "isWhitelisted",
      "outputs": [
        {
          "internalType": "bool",
          "name": "",
          "type": "bool"
        }
      ],
      "payable": false,
      "stateMutability": "view",
      "type": "function"
    },
    {
      "constant": false,
      "inputs": [],
      "name": "unpause",
      "outputs": [],
      "payable": false,
      "stateMutability": "nonpayable",
      "type": "function"
    },
    {
      "constant": false,
      "inputs": [
        {
          "internalType": "address",
          "name": "from",
          "type": "address"
        },
        {
          "internalType": "address",
          "name": "to",
          "type": "address"
        },
        {
          "internalType": "uint256",
          "name": "tokenId",
          "type": "uint256"
        }
      ],
      "name": "safeTransferFrom",
      "outputs": [],
      "payable": false,
      "stateMutability": "nonpayable",
      "type": "function"
    },
    {
      "constant": false,
      "inputs": [
        {
          "internalType": "uint256",
          "name": "tokenId",
          "type": "uint256"
        }
      ],
      "name": "burn",
      "outputs": [],
      "payable": false,
      "stateMutability": "nonpayable",
      "type": "function"
    },
    {
      "constant": true,
      "inputs": [],
      "name": "owner2",
      "outputs": [
        {
          "internalType": "address",
          "name": "",
          "type": "address"
        }
      ],
      "payable": false,
      "stateMutability": "view",
      "type": "function"
    },
    {
      "constant": true,
      "inputs": [],
      "name": "paused",
      "outputs": [
        {
          "internalType": "bool",
          "name": "",
          "type": "bool"
        }
      ],
      "payable": false,
      "stateMutability": "view",
      "type": "function"
    },
    {
      "constant": false,
      "inputs": [],
      "name": "withdrawBalance",
      "outputs": [],
      "payable": false,
      "stateMutability": "nonpayable",
      "type": "function"
    },
    {
      "constant": true,
      "inputs": [
        {
          "internalType": "uint256",
          "name": "tokenId",
          "type": "uint256"
        }
      ],
      "name": "ownerOf",
      "outputs": [
        {
          "internalType": "address",
          "name": "",
          "type": "address"
        }
      ],
      "payable": false,
      "stateMutability": "view",
      "type": "function"
    },
    {
      "constant": true,
      "inputs": [
        {
          "internalType": "address",
          "name": "tokenOwner",
          "type": "address"
        }
      ],
      "name": "balanceOf",
      "outputs": [
        {
          "internalType": "uint256",
          "name": "",
          "type": "uint256"
        }
      ],
      "payable": false,
      "stateMutability": "view",
      "type": "function"
    },
    {
      "constant": true,
      "inputs": [],
      "name": "owner1",
      "outputs": [
        {
          "internalType": "address",
          "name": "",
          "type": "address"
        }
      ],
      "payable": false,
      "stateMutability": "view",
      "type": "function"
    },
    {
      "constant": true,
      "inputs": [
        {
          "internalType": "address",
          "name": "minter",
          "type": "address"
        },
        {
          "internalType": "string",
          "name": "contentId",
          "type": "string"
        }
      ],
      "name": "tokenMinterPropertyNames",
      "outputs": [
        {
          "internalType": "string[]",
          "name": "",
          "type": "string[]"
        }
      ],
      "payable": false,
      "stateMutability": "view",
      "type": "function"
    },
    {
      "constant": true,
      "inputs": [],
      "name": "registry",
      "outputs": [
        {
          "internalType": "contract DeployedRegistry",
          "name": "",
          "type": "address"
        }
      ],
      "payable": false,
      "stateMutability": "view",
      "type": "function"
    },
    {
      "constant": false,
      "inputs": [
        {
          "internalType": "uint256",
          "name": "val",
          "type": "uint256"
        }
      ],
      "name": "updateMintFee",
      "outputs": [],
      "payable": false,
      "stateMutability": "nonpayable",
      "type": "function"
    },
    {
      "constant": false,
      "inputs": [],
      "name": "pause",
      "outputs": [],
      "payable": false,
      "stateMutability": "nonpayable",
      "type": "function"
    },
    {
      "constant": true,
      "inputs": [
        {
          "internalType": "address",
          "name": "tokenOwner",
          "type": "address"
        }
      ],
      "name": "tokensOfOwner",
      "outputs": [
        {
          "internalType": "uint256[]",
          "name": "",
          "type": "uint256[]"
        }
      ],
      "payable": false,
      "stateMutability": "view",
      "type": "function"
    },
    {
      "constant": false,
      "inputs": [
        {
          "internalType": "address",
          "name": "to",
          "type": "address"
        },
        {
          "internalType": "bool",
          "name": "approved",
          "type": "bool"
        }
      ],
      "name": "setApprovalForAll",
      "outputs": [],
      "payable": false,
      "stateMutability": "nonpayable",
      "type": "function"
    },
    {
      "constant": true,
      "inputs": [
        {
          "internalType": "address",
          "name": "minter",
          "type": "address"
        }
      ],
      "name": "tokenMinterContentIds",
      "outputs": [
        {
          "internalType": "string[]",
          "name": "",
          "type": "string[]"
        }
      ],
      "payable": false,
      "stateMutability": "view",
      "type": "function"
    },
    {
      "constant": true,
      "inputs": [
        {
          "internalType": "address",
          "name": "account",
          "type": "address"
        }
      ],
      "name": "isMinter",
      "outputs": [
        {
          "internalType": "bool",
          "name": "",
          "type": "bool"
        }
      ],
      "payable": false,
      "stateMutability": "view",
      "type": "function"
    },
    {
      "constant": false,
      "inputs": [
        {
          "internalType": "address",
          "name": "from",
          "type": "address"
        },
        {
          "internalType": "address",
          "name": "to",
          "type": "address"
        },
        {
          "internalType": "uint256",
          "name": "tokenId",
          "type": "uint256"
        },
        {
          "internalType": "bytes",
          "name": "data",
          "type": "bytes"
        }
      ],
      "name": "safeTransferFrom",
      "outputs": [],
      "payable": false,
      "stateMutability": "nonpayable",
      "type": "function"
    },
    {
      "constant": false,
      "inputs": [
        {
          "internalType": "string",
          "name": "contentId",
          "type": "string"
        },
        {
          "internalType": "string",
          "name": "propertyName",
          "type": "string"
        },
        {
          "internalType": "uint48",
          "name": "startTime",
          "type": "uint48"
        },
        {
          "internalType": "uint48",
          "name": "endTime",
          "type": "uint48"
        },
        {
          "internalType": "uint48",
          "name": "auctionEndTime",
          "type": "uint48"
        },
        {
          "internalType": "uint16",
          "name": "category",
          "type": "uint16"
        }
      ],
      "name": "safeMint",
      "outputs": [
        {
          "internalType": "uint256",
          "name": "",
          "type": "uint256"
        }
      ],
      "payable": true,
      "stateMutability": "payable",
      "type": "function"
    },
    {
      "constant": false,
      "inputs": [
        {
          "internalType": "string",
          "name": "contentId",
          "type": "string"
        },
        {
          "internalType": "string",
          "name": "propertyName",
          "type": "string"
        },
        {
          "internalType": "uint48",
          "name": "startTime",
          "type": "uint48"
        },
        {
          "internalType": "uint48",
          "name": "endTime",
          "type": "uint48"
        },
        {
          "internalType": "uint48",
          "name": "auctionEndTime",
          "type": "uint48"
        },
        {
          "internalType": "uint16",
          "name": "category",
          "type": "uint16"
        }
      ],
      "name": "mint",
      "outputs": [
        {
          "internalType": "uint256",
          "name": "",
          "type": "uint256"
        }
      ],
      "payable": true,
      "stateMutability": "payable",
      "type": "function"
    },
    {
      "constant": false,
      "inputs": [
        {
          "internalType": "address",
          "name": "newAddress",
          "type": "address"
        }
      ],
      "name": "updateRegistryAddress",
      "outputs": [],
      "payable": false,
      "stateMutability": "nonpayable",
      "type": "function"
    },
    {
      "constant": true,
      "inputs": [
        {
          "internalType": "uint256",
          "name": "tokenId",
          "type": "uint256"
        }
      ],
      "name": "tokenURI",
      "outputs": [
        {
          "internalType": "string",
          "name": "",
          "type": "string"
        }
      ],
      "payable": false,
      "stateMutability": "view",
      "type": "function"
    },
    {
      "constant": false,
      "inputs": [
        {
          "internalType": "address",
          "name": "newOwner",
          "type": "address"
        }
      ],
      "name": "transferOwnership2",
      "outputs": [],
      "payable": false,
      "stateMutability": "nonpayable",
      "type": "function"
    },
    {
      "constant": true,
      "inputs": [
        {
          "internalType": "uint256",
          "name": "tokenId",
          "type": "uint256"
        }
      ],
      "name": "tokenTimeSlot",
      "outputs": [
        {
          "internalType": "address",
          "name": "minter",
          "type": "address"
        },
        {
          "internalType": "address",
          "name": "owner",
          "type": "address"
        },
        {
          "internalType": "string",
          "name": "contentId",
          "type": "string"
        },
        {
          "internalType": "string",
          "name": "propertyName",
          "type": "string"
        },
        {
          "internalType": "uint48",
          "name": "startTime",
          "type": "uint48"
        },
        {
          "internalType": "uint48",
          "name": "endTime",
          "type": "uint48"
        },
        {
          "internalType": "uint48",
          "name": "auctionEndTime",
          "type": "uint48"
        },
        {
          "internalType": "uint16",
          "name": "category",
          "type": "uint16"
        }
      ],
      "payable": false,
      "stateMutability": "view",
      "type": "function"
    },
    {
      "constant": false,
      "inputs": [
        {
          "internalType": "address",
          "name": "newOwner",
          "type": "address"
        }
      ],
      "name": "transferOwnership1",
      "outputs": [],
      "payable": false,
      "stateMutability": "nonpayable",
      "type": "function"
    },
    {
      "constant": true,
      "inputs": [
        {
          "internalType": "address",
          "name": "tokenOwner",
          "type": "address"
        },
        {
          "internalType": "address",
          "name": "operator",
          "type": "address"
        }
      ],
      "name": "isApprovedForAll",
      "outputs": [
        {
          "internalType": "bool",
          "name": "",
          "type": "bool"
        }
      ],
      "payable": false,
      "stateMutability": "view",
      "type": "function"
    },
    {
      "constant": false,
      "inputs": [
        {
          "internalType": "string",
          "name": "contentId",
          "type": "string"
        },
        {
          "internalType": "string",
          "name": "propertyName",
          "type": "string"
        },
        {
          "internalType": "uint48",
          "name": "startTime",
          "type": "uint48"
        },
        {
          "internalType": "uint48",
          "name": "endTime",
          "type": "uint48"
        },
        {
          "internalType": "uint48",
          "name": "auctionEndTime",
          "type": "uint48"
        },
        {
          "internalType": "uint16",
          "name": "category",
          "type": "uint16"
        },
        {
          "internalType": "bytes",
          "name": "data",
          "type": "bytes"
        }
      ],
      "name": "safeMint",
      "outputs": [
        {
          "internalType": "uint256",
          "name": "",
          "type": "uint256"
        }
      ],
      "payable": true,
      "stateMutability": "payable",
      "type": "function"
    },
    {
      "inputs": [
        {
          "internalType": "string",
          "name": "name",
          "type": "string"
        },
        {
          "internalType": "string",
          "name": "symbol",
          "type": "string"
        },
        {
          "internalType": "address",
          "name": "registryAddress",
          "type": "address"
        }
      ],
      "payable": false,
      "stateMutability": "nonpayable",
      "type": "constructor"
    },
    {
      "anonymous": false,
      "inputs": [
        {
          "indexed": true,
          "internalType": "address",
          "name": "from",
          "type": "address"
        },
        {
          "indexed": true,
          "internalType": "address",
          "name": "to",
          "type": "address"
        },
        {
          "indexed": true,
          "internalType": "uint256",
          "name": "tokenId",
          "type": "uint256"
        }
      ],
      "name": "Transfer",
      "type": "event"
    },
    {
      "anonymous": false,
      "inputs": [
        {
          "indexed": true,
          "internalType": "address",
          "name": "tokenOwner",
          "type": "address"
        },
        {
          "indexed": true,
          "internalType": "address",
          "name": "approved",
          "type": "address"
        },
        {
          "indexed": true,
          "internalType": "uint256",
          "name": "tokenId",
          "type": "uint256"
        }
      ],
      "name": "Approval",
      "type": "event"
    },
    {
      "anonymous": false,
      "inputs": [
        {
          "indexed": true,
          "internalType": "address",
          "name": "tokenOwner",
          "type": "address"
        },
        {
          "indexed": true,
          "internalType": "address",
          "name": "operator",
          "type": "address"
        },
        {
          "indexed": false,
          "internalType": "bool",
          "name": "approved",
          "type": "bool"
        }
      ],
      "name": "ApprovalForAll",
      "type": "event"
    },
    {
      "constant": true,
      "inputs": [],
      "name": "name",
      "outputs": [
        {
          "internalType": "string",
          "name": "",
          "type": "string"
        }
      ],
      "payable": false,
      "stateMutability": "view",
      "type": "function"
    },
    {
      "constant": true,
      "inputs": [],
      "name": "symbol",
      "outputs": [
        {
          "internalType": "string",
          "name": "",
          "type": "string"
        }
      ],
      "payable": false,
      "stateMutability": "view",
      "type": "function"
    }
  ],
  "bytecode": "0x6080604052655af3107a40006008556000600f60006101000a81548160ff0219169083151502179055503480156200003657600080fd5b506040516200675a3803806200675a83398181016040526200005c9190810190620004e5565b620000746301ffc9a760e01b6200019560201b60201c565b6200008c6380ac58cd60e01b6200019560201b60201c565b6200009c6200026d60201b60201c565b600160006101000a81548173ffffffffffffffffffffffffffffffffffffffff021916908373ffffffffffffffffffffffffffffffffffffffff160217905550620000ec6200026d60201b60201c565b600260006101000a81548173ffffffffffffffffffffffffffffffffffffffff021916908373ffffffffffffffffffffffffffffffffffffffff160217905550826010908051906020019062000144929190620003c3565b5081601190805190602001906200015d929190620003c3565b5062000176635b5e139f60e01b6200019560201b60201c565b6200018c816200027560201b620024c31760201c565b50505062000725565b63ffffffff60e01b817bffffffffffffffffffffffffffffffffffffffffffffffffffffffff1916141562000201576040517f08c379a0000000000000000000000000000000000000000000000000000000008152600401620001f890620005f1565b60405180910390fd5b6001600080837bffffffffffffffffffffffffffffffffffffffffffffffffffffffff19167bffffffffffffffffffffffffffffffffffffffffffffffffffffffff1916815260200190815260200160002060006101000a81548160ff02191690831515021790555050565b600033905090565b600160009054906101000a900473ffffffffffffffffffffffffffffffffffffffff1673ffffffffffffffffffffffffffffffffffffffff16620002be6200026d60201b60201c565b73ffffffffffffffffffffffffffffffffffffffff1614806200033d5750600260009054906101000a900473ffffffffffffffffffffffffffffffffffffffff1673ffffffffffffffffffffffffffffffffffffffff16620003256200026d60201b60201c565b73ffffffffffffffffffffffffffffffffffffffff16145b6200037f576040517f08c379a0000000000000000000000000000000000000000000000000000000008152600401620003769062000613565b60405180910390fd5b80600360006101000a81548173ffffffffffffffffffffffffffffffffffffffff021916908373ffffffffffffffffffffffffffffffffffffffff16021790555050565b828054600181600116156101000203166002900490600052602060002090601f016020900481019282601f106200040657805160ff191683800117855562000437565b8280016001018555821562000437579182015b828111156200043657825182559160200191906001019062000419565b5b5090506200044691906200044a565b5090565b6200046f91905b808211156200046b57600081600090555060010162000451565b5090565b90565b60008151905062000483816200070b565b92915050565b600082601f8301126200049b57600080fd5b8151620004b2620004ac8262000663565b62000635565b91508082526020830160208301858383011115620004cf57600080fd5b620004dc838284620006d5565b50505092915050565b600080600060608486031215620004fb57600080fd5b600084015167ffffffffffffffff8111156200051657600080fd5b620005248682870162000489565b935050602084015167ffffffffffffffff8111156200054257600080fd5b620005508682870162000489565b9250506040620005638682870162000472565b9150509250925092565b60006200057c601c8362000690565b91507f4552433136353a20696e76616c696420696e74657266616365206964000000006000830152602082019050919050565b6000620005be601b8362000690565b91507f4552433732313a204f4e4c595f434f4e54524143545f4f574e455200000000006000830152602082019050919050565b600060208201905081810360008301526200060c816200056d565b9050919050565b600060208201905081810360008301526200062e81620005af565b9050919050565b6000604051905081810181811067ffffffffffffffff821117156200065957600080fd5b8060405250919050565b600067ffffffffffffffff8211156200067b57600080fd5b601f19601f8301169050602081019050919050565b600082825260208201905092915050565b6000620006ae82620006b5565b9050919050565b600073ffffffffffffffffffffffffffffffffffffffff82169050919050565b60005b83811015620006f5578082015181840152602081019050620006d8565b8381111562000705576000848401525b50505050565b6200071681620006a1565b81146200072257600080fd5b50565b61602580620007356000396000f3fe6080604052600436106102305760003560e01c8063736889141161012e578063b88d4fde116100ab578063e2b375a91161006f578063e2b375a914610879578063e5c24924146108a2578063e982d5a9146108e6578063e985e9c51461090f578063f91869d41461094c57610230565b8063b88d4fde1461078a578063bac10839146107b3578063bffb18f6146107e3578063c57a882514610813578063c87b56dd1461083c57610230565b80638462151c116100f25780638462151c1461067f57806395d89b41146106bc578063a22cb465146106e7578063a4ede12814610710578063aa271e1a1461074d57610230565b806373688914146105ac5780637affcb9a146105d75780637b1039991461061457806384017e521461063f5780638456cb591461066857610230565b80632a0c7799116101bc578063527097251161018057806352709725146104c55780635c975abb146104f05780635fd8c7101461051b5780636352211e1461053257806370a082311461056f57610230565b80632a0c7799146103e25780633af32abf1461041f5780633f4ba83a1461045c57806342842e0e1461047357806342966c681461049c57610230565b8063095ea7b311610203578063095ea7b31461030a57806313966db51461033357806318160ddd1461035e57806319f9eb021461038957806323b872dd146103b957610230565b806301ffc9a71461023557806305fe1a201461027257806306fdde03146102a2578063081812fc146102cd575b600080fd5b34801561024157600080fd5b5061025c6004803603610257919081019061490e565b61097c565b6040516102699190615939565b60405180910390f35b61028c60048036036102879190810190614aff565b6109e3565b6040516102999190615cd1565b60405180910390f35b3480156102ae57600080fd5b506102b7610ae4565b6040516102c4919061596f565b60405180910390f35b3480156102d957600080fd5b506102f460048036036102ef9190810190614be5565b610b86565b6040516103019190615802565b60405180910390f35b34801561031657600080fd5b50610331600480360361032c91908101906148a9565b610c0b565b005b34801561033f57600080fd5b50610348610e2f565b6040516103559190615cd1565b60405180910390f35b34801561036a57600080fd5b50610373610e35565b6040516103809190615cd1565b60405180910390f35b6103a3600480360361039e9190810190614aff565b610e46565b6040516103b09190615cd1565b60405180910390f35b3480156103c557600080fd5b506103e060048036036103db919081019061474b565b610f47565b005b3480156103ee57600080fd5b50610409600480360361040491908101906146e6565b611051565b6040516104169190615917565b60405180910390f35b34801561042b57600080fd5b50610446600480360361044191908101906146e6565b61124a565b6040516104539190615939565b60405180910390f35b34801561046857600080fd5b506104716112fe565b005b34801561047f57600080fd5b5061049a6004803603610495919081019061474b565b61142a565b005b3480156104a857600080fd5b506104c360048036036104be9190810190614be5565b61144a565b005b3480156104d157600080fd5b506104da6114c0565b6040516104e79190615802565b60405180910390f35b3480156104fc57600080fd5b506105056114e6565b6040516105129190615939565b60405180910390f35b34801561052757600080fd5b506105306114f9565b005b34801561053e57600080fd5b5061055960048036036105549190810190614be5565b6116bb565b6040516105669190615802565b60405180910390f35b34801561057b57600080fd5b50610596600480360361059191908101906146e6565b6116fd565b6040516105a39190615cd1565b60405180910390f35b3480156105b857600080fd5b506105c16117bc565b6040516105ce9190615802565b60405180910390f35b3480156105e357600080fd5b506105fe60048036036105f99190810190614851565b6117e2565b60405161060b91906158f5565b60405180910390f35b34801561062057600080fd5b506106296119ca565b6040516106369190615954565b60405180910390f35b34801561064b57600080fd5b5061066660048036036106619190810190614be5565b6119f0565b005b34801561067457600080fd5b5061067d611af0565b005b34801561068b57600080fd5b506106a660048036036106a191908101906146e6565b611c1d565b6040516106b39190615917565b60405180910390f35b3480156106c857600080fd5b506106d1611d65565b6040516106de919061596f565b60405180910390f35b3480156106f357600080fd5b5061070e60048036036107099190810190614815565b611e07565b005b34801561071c57600080fd5b50610737600480360361073291908101906146e6565b611ff1565b60405161074491906158f5565b60405180910390f35b34801561075957600080fd5b50610774600480360361076f91908101906146e6565b6121b9565b6040516107819190615939565b60405180910390f35b34801561079657600080fd5b506107b160048036036107ac919081019061479a565b6121cb565b005b6107cd60048036036107c89190810190614960565b6122d7565b6040516107da9190615cd1565b60405180910390f35b6107fd60048036036107f89190810190614960565b6123cd565b60405161080a9190615cd1565b60405180910390f35b34801561081f57600080fd5b5061083a600480360361083591908101906146e6565b6124c3565b005b34801561084857600080fd5b50610863600480360361085e9190810190614be5565b6125fd565b604051610870919061596f565b60405180910390f35b34801561088557600080fd5b506108a0600480360361089b91908101906146e6565b6126fa565b005b3480156108ae57600080fd5b506108c960048036036108c49190810190614be5565b612869565b6040516108dd98979695949392919061581d565b60405180910390f35b3480156108f257600080fd5b5061090d600480360361090891908101906146e6565b612b71565b005b34801561091b57600080fd5b506109366004803603610931919081019061470f565b612ce0565b6040516109439190615939565b60405180910390f35b61096660048036036109619190810190614a19565b612d74565b6040516109739190615cd1565b60405180910390f35b6000806000837bffffffffffffffffffffffffffffffffffffffffffffffffffffffff19167bffffffffffffffffffffffffffffffffffffffffffffffffffffffff1916815260200190815260200160002060009054906101000a900460ff169050919050565b60006109f56109f0612e6c565b6121b9565b610a34576040517f08c379a0000000000000000000000000000000000000000000000000000000008152600401610a2b906159d1565b60405180910390fd5b600f60009054906101000a900460ff1615610a4e57600080fd5b600854341015610a5d57600080fd5b610a6988878787612e74565b610aa8576040517f08c379a0000000000000000000000000000000000000000000000000000000008152600401610a9f90615af1565b60405180910390fd5b6000610aba610ab5612e6c565b613010565b9050610acb818a8a8a8a8a8a6131de565b610ad58184613553565b80915050979650505050505050565b606060108054600181600116156101000203166002900480601f016020809104026020016040519081016040528092919081815260200182805460018160011615610100020316600290048015610b7c5780601f10610b5157610100808354040283529160200191610b7c565b820191906000526020600020905b815481529060010190602001808311610b5f57829003601f168201915b5050505050905090565b6000610b91826135c7565b610bd0576040517f08c379a0000000000000000000000000000000000000000000000000000000008152600401610bc790615b91565b60405180910390fd5b600d600083815260200190815260200160002060009054906101000a900473ffffffffffffffffffffffffffffffffffffffff169050919050565b610c1b610c16612e6c565b61124a565b610c5a576040517f08c379a0000000000000000000000000000000000000000000000000000000008152600401610c5190615cb1565b60405180910390fd5b600f60009054906101000a900460ff1615610c7457600080fd5b6000610c7f826116bb565b90508073ffffffffffffffffffffffffffffffffffffffff168373ffffffffffffffffffffffffffffffffffffffff161415610cf0576040517f08c379a0000000000000000000000000000000000000000000000000000000008152600401610ce790615bd1565b60405180910390fd5b8073ffffffffffffffffffffffffffffffffffffffff16610d0f612e6c565b73ffffffffffffffffffffffffffffffffffffffff161480610d3e5750610d3d81610d38612e6c565b612ce0565b5b610d7d576040517f08c379a0000000000000000000000000000000000000000000000000000000008152600401610d7490615b51565b60405180910390fd5b82600d600084815260200190815260200160002060006101000a81548173ffffffffffffffffffffffffffffffffffffffff021916908373ffffffffffffffffffffffffffffffffffffffff160217905550818373ffffffffffffffffffffffffffffffffffffffff168273ffffffffffffffffffffffffffffffffffffffff167f8c5be1e5ebec7d5bd14f71427d1e84f3dd0314c0f7b2291e5b200ac8c7c3b92560405160405180910390a4505050565b60085481565b6000610e416004613639565b905090565b6000610e58610e53612e6c565b6121b9565b610e97576040517f08c379a0000000000000000000000000000000000000000000000000000000008152600401610e8e906159d1565b60405180910390fd5b600f60009054906101000a900460ff1615610eb157600080fd5b600854341015610ec057600080fd5b610ecc88878787612e74565b610f0b576040517f08c379a0000000000000000000000000000000000000000000000000000000008152600401610f0290615af1565b60405180910390fd5b6000610f1d610f18612e6c565b613647565b9050610f2e818a8a8a8a8a8a6131de565b610f388184613553565b80915050979650505050505050565b600f60009054906101000a900460ff1615610f6157600080fd5b610f72610f6c612e6c565b8261366e565b610fb1576040517f08c379a0000000000000000000000000000000000000000000000000000000008152600401610fa890615bf1565b60405180910390fd5b610fba8361124a565b610ff9576040517f08c379a0000000000000000000000000000000000000000000000000000000008152600401610ff090615ad1565b60405180910390fd5b6110028261124a565b611041576040517f08c379a000000000000000000000000000000000000000000000000000000000815260040161103890615ad1565b60405180910390fd5b61104c83838361374c565b505050565b6060600073ffffffffffffffffffffffffffffffffffffffff168273ffffffffffffffffffffffffffffffffffffffff1614156110c3576040517f08c379a00000000000000000000000000000000000000000000000000000000081526004016110ba90615a11565b60405180910390fd5b600061110c600760008573ffffffffffffffffffffffffffffffffffffffff1673ffffffffffffffffffffffffffffffffffffffff168152602001908152602001600020613639565b905060008114156111505760006040519080825280602002602001820160405280156111475781602001602082028038833980820191505090505b50915050611245565b6060816040519080825280602002602001820160405280156111815781602001602082028038833980820191505090505b509050600061118e610e35565b905060008090506000600190505b82811161123c578673ffffffffffffffffffffffffffffffffffffffff166009600083815260200190815260200160002060000160009054906101000a900473ffffffffffffffffffffffffffffffffffffffff1673ffffffffffffffffffffffffffffffffffffffff16141561122f578084838151811061121a57fe5b60200260200101818152505081806001019250505b808060010191505061119c565b83955050505050505b919050565b6000600360009054906101000a900473ffffffffffffffffffffffffffffffffffffffff1673ffffffffffffffffffffffffffffffffffffffff16633af32abf836040518263ffffffff1660e01b81526004016112a79190615802565b60206040518083038186803b1580156112bf57600080fd5b505afa1580156112d3573d6000803e3d6000fd5b505050506040513d601f19601f820116820180604052506112f791908101906148e5565b9050919050565b600160009054906101000a900473ffffffffffffffffffffffffffffffffffffffff1673ffffffffffffffffffffffffffffffffffffffff1661133f612e6c565b73ffffffffffffffffffffffffffffffffffffffff1614806113b55750600260009054906101000a900473ffffffffffffffffffffffffffffffffffffffff1673ffffffffffffffffffffffffffffffffffffffff1661139d612e6c565b73ffffffffffffffffffffffffffffffffffffffff16145b6113f4576040517f08c379a00000000000000000000000000000000000000000000000000000000081526004016113eb90615b31565b60405180910390fd5b600f60009054906101000a900460ff1661140d57600080fd5b6000600f60006101000a81548160ff021916908315150217905550565b611445838383604051806020016040528060008152506121cb565b505050565b600f60009054906101000a900460ff161561146457600080fd5b61147561146f612e6c565b8261366e565b6114b4576040517f08c379a00000000000000000000000000000000000000000000000000000000081526004016114ab90615c71565b60405180910390fd5b6114bd8161397b565b50565b600260009054906101000a900473ffffffffffffffffffffffffffffffffffffffff1681565b600f60009054906101000a900460ff1681565b600160009054906101000a900473ffffffffffffffffffffffffffffffffffffffff1673ffffffffffffffffffffffffffffffffffffffff1661153a612e6c565b73ffffffffffffffffffffffffffffffffffffffff1614806115b05750600260009054906101000a900473ffffffffffffffffffffffffffffffffffffffff1673ffffffffffffffffffffffffffffffffffffffff16611598612e6c565b73ffffffffffffffffffffffffffffffffffffffff16145b6115ef576040517f08c379a00000000000000000000000000000000000000000000000000000000081526004016115e690615b31565b60405180910390fd5b60003073ffffffffffffffffffffffffffffffffffffffff1631905060003373ffffffffffffffffffffffffffffffffffffffff1682604051611631906157ed565b60006040518083038185875af1925050503d806000811461166e576040519150601f19603f3d011682016040523d82523d6000602084013e611673565b606091505b50509050806116b7576040517f08c379a00000000000000000000000000000000000000000000000000000000081526004016116ae906159f1565b60405180910390fd5b5050565b6000806005600084815260200190815260200160002060009054906101000a900473ffffffffffffffffffffffffffffffffffffffff16905080915050919050565b60008073ffffffffffffffffffffffffffffffffffffffff168273ffffffffffffffffffffffffffffffffffffffff16141561176e576040517f08c379a000000000000000000000000000000000000000000000000000000000815260040161176590615a11565b60405180910390fd5b6117b5600660008473ffffffffffffffffffffffffffffffffffffffff1673ffffffffffffffffffffffffffffffffffffffff168152602001908152602001600020613639565b9050919050565b600160009054906101000a900473ffffffffffffffffffffffffffffffffffffffff1681565b606080600a60008673ffffffffffffffffffffffffffffffffffffffff1673ffffffffffffffffffffffffffffffffffffffff16815260200190815260200160002084846040516118349291906157bd565b9081526020016040518091039020805480602002602001604051908101604052809291908181526020016000905b8282101561193257838290600052602060002001604051806020016040529081600082018054600181600116156101000203166002900480601f01602080910402602001604051908101604052809291908181526020018280546001816001161561010002031660029004801561191a5780601f106118ef5761010080835404028352916020019161191a565b820191906000526020600020905b8154815290600101906020018083116118fd57829003601f168201915b50505050508152505081526020019060010190611862565b5050505090506060815160405190808252806020026020018201604052801561196f57816020015b606081526020019060019003908161195a5790505b50905060008090505b82518110156119bd5782818151811061198d57fe5b6020026020010151600001518282815181106119a557fe5b60200260200101819052508080600101915050611978565b5080925050509392505050565b600360009054906101000a900473ffffffffffffffffffffffffffffffffffffffff1681565b600160009054906101000a900473ffffffffffffffffffffffffffffffffffffffff1673ffffffffffffffffffffffffffffffffffffffff16611a31612e6c565b73ffffffffffffffffffffffffffffffffffffffff161480611aa75750600260009054906101000a900473ffffffffffffffffffffffffffffffffffffffff1673ffffffffffffffffffffffffffffffffffffffff16611a8f612e6c565b73ffffffffffffffffffffffffffffffffffffffff16145b611ae6576040517f08c379a0000000000000000000000000000000000000000000000000000000008152600401611add90615b31565b60405180910390fd5b8060088190555050565b600160009054906101000a900473ffffffffffffffffffffffffffffffffffffffff1673ffffffffffffffffffffffffffffffffffffffff16611b31612e6c565b73ffffffffffffffffffffffffffffffffffffffff161480611ba75750600260009054906101000a900473ffffffffffffffffffffffffffffffffffffffff1673ffffffffffffffffffffffffffffffffffffffff16611b8f612e6c565b73ffffffffffffffffffffffffffffffffffffffff16145b611be6576040517f08c379a0000000000000000000000000000000000000000000000000000000008152600401611bdd90615b31565b60405180910390fd5b600f60009054906101000a900460ff1615611c0057600080fd5b6001600f60006101000a81548160ff021916908315150217905550565b60606000611c2a836116fd565b90506000811415611c6e576000604051908082528060200260200182016040528015611c655781602001602082028038833980820191505090505b50915050611d60565b606081604051908082528060200260200182016040528015611c9f5781602001602082028038833980820191505090505b5090506000611cac610e35565b905060008090506000600190505b828111611d57578673ffffffffffffffffffffffffffffffffffffffff166005600083815260200190815260200160002060009054906101000a900473ffffffffffffffffffffffffffffffffffffffff1673ffffffffffffffffffffffffffffffffffffffff161415611d4a5780848381518110611d3557fe5b60200260200101818152505081806001019250505b8080600101915050611cba565b83955050505050505b919050565b606060118054600181600116156101000203166002900480601f016020809104026020016040519081016040528092919081815260200182805460018160011615610100020316600290048015611dfd5780601f10611dd257610100808354040283529160200191611dfd565b820191906000526020600020905b815481529060010190602001808311611de057829003601f168201915b5050505050905090565b611e17611e12612e6c565b61124a565b611e56576040517f08c379a0000000000000000000000000000000000000000000000000000000008152600401611e4d90615cb1565b60405180910390fd5b600f60009054906101000a900460ff1615611e7057600080fd5b611e78612e6c565b73ffffffffffffffffffffffffffffffffffffffff168273ffffffffffffffffffffffffffffffffffffffff161415611ee6576040517f08c379a0000000000000000000000000000000000000000000000000000000008152600401611edd90615a71565b60405180910390fd5b80600e6000611ef3612e6c565b73ffffffffffffffffffffffffffffffffffffffff1673ffffffffffffffffffffffffffffffffffffffff16815260200190815260200160002060008473ffffffffffffffffffffffffffffffffffffffff1673ffffffffffffffffffffffffffffffffffffffff16815260200190815260200160002060006101000a81548160ff0219169083151502179055508173ffffffffffffffffffffffffffffffffffffffff16611fa0612e6c565b73ffffffffffffffffffffffffffffffffffffffff167f17307eab39ab6107e8899845ad3d59bd9653f200f220920489ca2b5937696c3183604051611fe59190615939565b60405180910390a35050565b606080600b60008473ffffffffffffffffffffffffffffffffffffffff1673ffffffffffffffffffffffffffffffffffffffff168152602001908152602001600020805480602002602001604051908101604052809291908181526020016000905b8282101561212357838290600052602060002001604051806020016040529081600082018054600181600116156101000203166002900480601f01602080910402602001604051908101604052809291908181526020018280546001816001161561010002031660029004801561210b5780601f106120e05761010080835404028352916020019161210b565b820191906000526020600020905b8154815290600101906020018083116120ee57829003601f168201915b50505050508152505081526020019060010190612053565b5050505090506060815160405190808252806020026020018201604052801561216057816020015b606081526020019060019003908161214b5790505b50905060008090505b82518110156121ae5782818151811061217e57fe5b60200260200101516000015182828151811061219657fe5b60200260200101819052508080600101915050612169565b508092505050919050565b60006121c48261124a565b9050919050565b600f60009054906101000a900460ff16156121e557600080fd5b6121ee8461124a565b61222d576040517f08c379a000000000000000000000000000000000000000000000000000000000815260040161222490615ad1565b60405180910390fd5b6122368361124a565b612275576040517f08c379a000000000000000000000000000000000000000000000000000000000815260040161226c90615ad1565b60405180910390fd5b612286612280612e6c565b8361366e565b6122c5576040517f08c379a00000000000000000000000000000000000000000000000000000000081526004016122bc90615bf1565b60405180910390fd5b6122d184848484613990565b50505050565b60006122e96122e4612e6c565b6121b9565b612328576040517f08c379a000000000000000000000000000000000000000000000000000000000815260040161231f906159d1565b60405180910390fd5b600f60009054906101000a900460ff161561234257600080fd5b60085434101561235157600080fd5b61235d87868686612e74565b61239c576040517f08c379a000000000000000000000000000000000000000000000000000000000815260040161239390615af1565b60405180910390fd5b60006123ae6123a9612e6c565b613647565b90506123bf818989898989896131de565b809150509695505050505050565b60006123df6123da612e6c565b6121b9565b61241e576040517f08c379a0000000000000000000000000000000000000000000000000000000008152600401612415906159d1565b60405180910390fd5b600f60009054906101000a900460ff161561243857600080fd5b60085434101561244757600080fd5b61245387868686612e74565b612492576040517f08c379a000000000000000000000000000000000000000000000000000000000815260040161248990615af1565b60405180910390fd5b60006124a461249f612e6c565b613010565b90506124b5818989898989896131de565b809150509695505050505050565b600160009054906101000a900473ffffffffffffffffffffffffffffffffffffffff1673ffffffffffffffffffffffffffffffffffffffff16612504612e6c565b73ffffffffffffffffffffffffffffffffffffffff16148061257a5750600260009054906101000a900473ffffffffffffffffffffffffffffffffffffffff1673ffffffffffffffffffffffffffffffffffffffff16612562612e6c565b73ffffffffffffffffffffffffffffffffffffffff16145b6125b9576040517f08c379a00000000000000000000000000000000000000000000000000000000081526004016125b090615b31565b60405180910390fd5b80600360006101000a81548173ffffffffffffffffffffffffffffffffffffffff021916908373ffffffffffffffffffffffffffffffffffffffff16021790555050565b6060612608826135c7565b612647576040517f08c379a000000000000000000000000000000000000000000000000000000000815260040161263e90615c91565b60405180910390fd5b600c60008381526020019081526020016000208054600181600116156101000203166002900480601f0160208091040260200160405190810160405280929190818152602001828054600181600116156101000203166002900480156126ee5780601f106126c3576101008083540402835291602001916126ee565b820191906000526020600020905b8154815290600101906020018083116126d157829003601f168201915b50505050509050919050565b600160009054906101000a900473ffffffffffffffffffffffffffffffffffffffff1673ffffffffffffffffffffffffffffffffffffffff1661273b612e6c565b73ffffffffffffffffffffffffffffffffffffffff1614806127b15750600260009054906101000a900473ffffffffffffffffffffffffffffffffffffffff1673ffffffffffffffffffffffffffffffffffffffff16612799612e6c565b73ffffffffffffffffffffffffffffffffffffffff16145b6127f0576040517f08c379a00000000000000000000000000000000000000000000000000000000081526004016127e790615b31565b60405180910390fd5b600073ffffffffffffffffffffffffffffffffffffffff168173ffffffffffffffffffffffffffffffffffffffff16146128665780600260006101000a81548173ffffffffffffffffffffffffffffffffffffffff021916908373ffffffffffffffffffffffffffffffffffffffff1602179055505b50565b60008060608060008060008061287e896135c7565b6128bd576040517f08c379a00000000000000000000000000000000000000000000000000000000081526004016128b490615991565b60405180910390fd5b6128c5614370565b600960008b81526020019081526020016000206040518060e00160405290816000820160009054906101000a900473ffffffffffffffffffffffffffffffffffffffff1673ffffffffffffffffffffffffffffffffffffffff1673ffffffffffffffffffffffffffffffffffffffff168152602001600182018054600181600116156101000203166002900480601f0160208091040260200160405190810160405280929190818152602001828054600181600116156101000203166002900480156129d25780601f106129a7576101008083540402835291602001916129d2565b820191906000526020600020905b8154815290600101906020018083116129b557829003601f168201915b50505050508152602001600282018054600181600116156101000203166002900480601f016020809104026020016040519081016040528092919081815260200182805460018160011615610100020316600290048015612a745780601f10612a4957610100808354040283529160200191612a74565b820191906000526020600020905b815481529060010190602001808311612a5757829003601f168201915b505050505081526020016003820160009054906101000a900465ffffffffffff1665ffffffffffff1665ffffffffffff1681526020016003820160069054906101000a900465ffffffffffff1665ffffffffffff1665ffffffffffff16815260200160038201600c9054906101000a900465ffffffffffff1665ffffffffffff1665ffffffffffff1681526020016003820160129054906101000a900461ffff1661ffff1661ffff168152505090508060000151612b318b6116bb565b82602001518360400151846060015185608001518660a001518760c001518595508494509850985098509850985098509850985050919395975091939597565b600160009054906101000a900473ffffffffffffffffffffffffffffffffffffffff1673ffffffffffffffffffffffffffffffffffffffff16612bb2612e6c565b73ffffffffffffffffffffffffffffffffffffffff161480612c285750600260009054906101000a900473ffffffffffffffffffffffffffffffffffffffff1673ffffffffffffffffffffffffffffffffffffffff16612c10612e6c565b73ffffffffffffffffffffffffffffffffffffffff16145b612c67576040517f08c379a0000000000000000000000000000000000000000000000000000000008152600401612c5e90615b31565b60405180910390fd5b600073ffffffffffffffffffffffffffffffffffffffff168173ffffffffffffffffffffffffffffffffffffffff1614612cdd5780600160006101000a81548173ffffffffffffffffffffffffffffffffffffffff021916908373ffffffffffffffffffffffffffffffffffffffff1602179055505b50565b6000600e60008473ffffffffffffffffffffffffffffffffffffffff1673ffffffffffffffffffffffffffffffffffffffff16815260200190815260200160002060008373ffffffffffffffffffffffffffffffffffffffff1673ffffffffffffffffffffffffffffffffffffffff16815260200190815260200160002060009054906101000a900460ff16905092915050565b6000612d86612d81612e6c565b6121b9565b612dc5576040517f08c379a0000000000000000000000000000000000000000000000000000000008152600401612dbc906159d1565b60405180910390fd5b600f60009054906101000a900460ff1615612ddf57600080fd5b600854341015612dee57600080fd5b612dfa88878787612e74565b612e39576040517f08c379a0000000000000000000000000000000000000000000000000000000008152600401612e3090615af1565b60405180910390fd5b6000612e4c612e46612e6c565b846139ec565b9050612e5d818a8a8a8a8a8a6131de565b80915050979650505050505050565b600033905090565b6000600360009054906101000a900473ffffffffffffffffffffffffffffffffffffffff1673ffffffffffffffffffffffffffffffffffffffff166347ba747a866040518263ffffffff1660e01b8152600401612ed1919061596f565b60206040518083038186803b158015612ee957600080fd5b505afa158015612efd573d6000803e3d6000fd5b505050506040513d601f19601f82011682018060405250612f2191908101906148e5565b612f60576040517f08c379a0000000000000000000000000000000000000000000000000000000008152600401612f5790615b11565b60405180910390fd5b8165ffffffffffff168465ffffffffffff1611612fb2576040517f08c379a0000000000000000000000000000000000000000000000000000000008152600401612fa990615a91565b60405180910390fd5b8365ffffffffffff168365ffffffffffff1611613004576040517f08c379a0000000000000000000000000000000000000000000000000000000008152600401612ffb90615a31565b60405180910390fd5b60019050949350505050565b60008073ffffffffffffffffffffffffffffffffffffffff168273ffffffffffffffffffffffffffffffffffffffff161415613081576040517f08c379a000000000000000000000000000000000000000000000000000000000815260040161307890615b71565b60405180910390fd5b61308b6004613a50565b60006130976004613639565b9050826005600083815260200190815260200160002060006101000a81548173ffffffffffffffffffffffffffffffffffffffff021916908373ffffffffffffffffffffffffffffffffffffffff160217905550613132600660008573ffffffffffffffffffffffffffffffffffffffff1673ffffffffffffffffffffffffffffffffffffffff168152602001908152602001600020613a50565b613179600760008573ffffffffffffffffffffffffffffffffffffffff1673ffffffffffffffffffffffffffffffffffffffff168152602001908152602001600020613a50565b808373ffffffffffffffffffffffffffffffffffffffff16600073ffffffffffffffffffffffffffffffffffffffff167fddf252ad1be2c89b69c2b068fc378daa952ba7f163c4a11628f55a4df523b3ef60405160405180910390a480915050919050565b6131e7876135c7565b613226576040517f08c379a000000000000000000000000000000000000000000000000000000000815260040161321d90615c51565b60405180910390fd5b61322e614370565b6040518060e00160405280613241612e6c565b73ffffffffffffffffffffffffffffffffffffffff1681526020018881526020018781526020018665ffffffffffff1681526020018565ffffffffffff1681526020018465ffffffffffff1681526020018361ffff16815250905080600960008a815260200190815260200160002060008201518160000160006101000a81548173ffffffffffffffffffffffffffffffffffffffff021916908373ffffffffffffffffffffffffffffffffffffffff16021790555060208201518160010190805190602001906133139291906143df565b5060408201518160020190805190602001906133309291906143df565b5060608201518160030160006101000a81548165ffffffffffff021916908365ffffffffffff16021790555060808201518160030160066101000a81548165ffffffffffff021916908365ffffffffffff16021790555060a082015181600301600c6101000a81548165ffffffffffff021916908365ffffffffffff16021790555060c08201518160030160126101000a81548161ffff021916908361ffff1602179055509050506133e187613a66565b61348257600b60006133f1612e6c565b73ffffffffffffffffffffffffffffffffffffffff1673ffffffffffffffffffffffffffffffffffffffff168152602001908152602001600020604051806020016040528089815250908060018154018082558091505090600182039060005260206000200160009091929091909150600082015181600001908051906020019061347d9291906143df565b505050505b61348c8787613bf6565b61354957600a600061349c612e6c565b73ffffffffffffffffffffffffffffffffffffffff1673ffffffffffffffffffffffffffffffffffffffff168152602001908152602001600020876040516134e491906157d6565b908152602001604051809103902060405180602001604052808881525090806001815401808255809150509060018203906000526020600020016000909192909190915060008201518160000190805190602001906135449291906143df565b505050505b5050505050505050565b61355c826135c7565b61359b576040517f08c379a000000000000000000000000000000000000000000000000000000000815260040161359290615c31565b60405180910390fd5b80600c600084815260200190815260200160002090805190602001906135c292919061445f565b505050565b6000806005600084815260200190815260200160002060009054906101000a900473ffffffffffffffffffffffffffffffffffffffff169050600073ffffffffffffffffffffffffffffffffffffffff168173ffffffffffffffffffffffffffffffffffffffff161415915050919050565b600081600001549050919050565b60008061366383604051806020016040528060008152506139ec565b905080915050919050565b6000613679826135c7565b6136b8576040517f08c379a00000000000000000000000000000000000000000000000000000000081526004016136af90615ab1565b60405180910390fd5b60006136c3836116bb565b90508073ffffffffffffffffffffffffffffffffffffffff168473ffffffffffffffffffffffffffffffffffffffff16148061373257508373ffffffffffffffffffffffffffffffffffffffff1661371a84610b86565b73ffffffffffffffffffffffffffffffffffffffff16145b8061374357506137428185612ce0565b5b91505092915050565b8273ffffffffffffffffffffffffffffffffffffffff1661376c826116bb565b73ffffffffffffffffffffffffffffffffffffffff16146137c2576040517f08c379a00000000000000000000000000000000000000000000000000000000081526004016137b990615bb1565b60405180910390fd5b600073ffffffffffffffffffffffffffffffffffffffff168273ffffffffffffffffffffffffffffffffffffffff161415613832576040517f08c379a000000000000000000000000000000000000000000000000000000000815260040161382990615a51565b60405180910390fd5b61383b81613da3565b613882600660008573ffffffffffffffffffffffffffffffffffffffff1673ffffffffffffffffffffffffffffffffffffffff168152602001908152602001600020613e61565b6138c9600660008473ffffffffffffffffffffffffffffffffffffffff1673ffffffffffffffffffffffffffffffffffffffff168152602001908152602001600020613a50565b816005600083815260200190815260200160002060006101000a81548173ffffffffffffffffffffffffffffffffffffffff021916908373ffffffffffffffffffffffffffffffffffffffff160217905550808273ffffffffffffffffffffffffffffffffffffffff168473ffffffffffffffffffffffffffffffffffffffff167fddf252ad1be2c89b69c2b068fc378daa952ba7f163c4a11628f55a4df523b3ef60405160405180910390a4505050565b61398d613987826116bb565b82613e84565b50565b61399b84848461374c565b6139a784848484614109565b6139e6576040517f08c379a00000000000000000000000000000000000000000000000000000000081526004016139dd906159b1565b60405180910390fd5b50505050565b6000806139f884613010565b9050613a076000858386614109565b613a46576040517f08c379a0000000000000000000000000000000000000000000000000000000008152600401613a3d906159b1565b60405180910390fd5b8091505092915050565b6001816000016000828254019250508190555050565b60006060600b60003373ffffffffffffffffffffffffffffffffffffffff1673ffffffffffffffffffffffffffffffffffffffff168152602001908152602001600020805480602002602001604051908101604052809291908181526020016000905b82821015613b9957838290600052602060002001604051806020016040529081600082018054600181600116156101000203166002900480601f016020809104026020016040519081016040528092919081815260200182805460018160011615610100020316600290048015613b815780601f10613b5657610100808354040283529160200191613b81565b820191906000526020600020905b815481529060010190602001808311613b6457829003601f168201915b50505050508152505081526020019060010190613ac9565b505050509050600080905060008090505b8251811015613beb57613bd485848381518110613bc357fe5b602002602001015160000151614227565b15613bde57600191505b8080600101915050613baa565b508092505050919050565b60006060600a60003373ffffffffffffffffffffffffffffffffffffffff1673ffffffffffffffffffffffffffffffffffffffff16815260200190815260200160002084604051613c4791906157d6565b9081526020016040518091039020805480602002602001604051908101604052809291908181526020016000905b82821015613d4557838290600052602060002001604051806020016040529081600082018054600181600116156101000203166002900480601f016020809104026020016040519081016040528092919081815260200182805460018160011615610100020316600290048015613d2d5780601f10613d0257610100808354040283529160200191613d2d565b820191906000526020600020905b815481529060010190602001808311613d1057829003601f168201915b50505050508152505081526020019060010190613c75565b505050509050600080905060008090505b8251811015613d9757613d8085848381518110613d6f57fe5b602002602001015160000151614227565b15613d8a57600191505b8080600101915050613d56565b50809250505092915050565b600073ffffffffffffffffffffffffffffffffffffffff16600d600083815260200190815260200160002060009054906101000a900473ffffffffffffffffffffffffffffffffffffffff1673ffffffffffffffffffffffffffffffffffffffff1614613e5e576000600d600083815260200190815260200160002060006101000a81548173ffffffffffffffffffffffffffffffffffffffff021916908373ffffffffffffffffffffffffffffffffffffffff1602179055505b50565b613e796001826000015461428090919063ffffffff16565b816000018190555050565b8173ffffffffffffffffffffffffffffffffffffffff16613ea4826116bb565b73ffffffffffffffffffffffffffffffffffffffff1614613efa576040517f08c379a0000000000000000000000000000000000000000000000000000000008152600401613ef190615c11565b60405180910390fd5b613f0381613da3565b613f4a600660008473ffffffffffffffffffffffffffffffffffffffff1673ffffffffffffffffffffffffffffffffffffffff168152602001908152602001600020613e61565b60006005600083815260200190815260200160002060006101000a81548173ffffffffffffffffffffffffffffffffffffffff021916908373ffffffffffffffffffffffffffffffffffffffff1602179055506000600c600083815260200190815260200160002080546001816001161561010002031660029004905014613fec57600c60008281526020019081526020016000206000613feb91906144df565b5b60096000828152602001908152602001600020600080820160006101000a81549073ffffffffffffffffffffffffffffffffffffffff021916905560018201600061403791906144df565b60028201600061404791906144df565b6003820160006101000a81549065ffffffffffff02191690556003820160066101000a81549065ffffffffffff021916905560038201600c6101000a81549065ffffffffffff02191690556003820160126101000a81549061ffff0219169055505080600073ffffffffffffffffffffffffffffffffffffffff168373ffffffffffffffffffffffffffffffffffffffff167fddf252ad1be2c89b69c2b068fc378daa952ba7f163c4a11628f55a4df523b3ef60405160405180910390a45050565b600061412a8473ffffffffffffffffffffffffffffffffffffffff166142ca565b614137576001905061421f565b60008473ffffffffffffffffffffffffffffffffffffffff1663150b7a0261415d612e6c565b8887876040518563ffffffff1660e01b815260040161417f94939291906158a9565b602060405180830381600087803b15801561419957600080fd5b505af11580156141ad573d6000803e3d6000fd5b505050506040513d601f19601f820116820180604052506141d19190810190614937565b905063150b7a0260e01b7bffffffffffffffffffffffffffffffffffffffffffffffffffffffff1916817bffffffffffffffffffffffffffffffffffffffffffffffffffffffff1916149150505b949350505050565b60008160405160200161423a91906157d6565b604051602081830303815290604052805190602001208360405160200161426191906157d6565b6040516020818303038152906040528051906020012014905092915050565b60006142c283836040518060400160405280601e81526020017f536166654d6174683a207375627472616374696f6e206f766572666c6f770000815250614315565b905092915050565b60008060007fc5d2460186f7233c927e7db2dcc703c0e500b653ca82273b7bfad8045d85a47060001b9050833f91506000801b821415801561430c5750808214155b92505050919050565b600083831115829061435d576040517f08c379a0000000000000000000000000000000000000000000000000000000008152600401614354919061596f565b60405180910390fd5b5060008385039050809150509392505050565b6040518060e00160405280600073ffffffffffffffffffffffffffffffffffffffff1681526020016060815260200160608152602001600065ffffffffffff168152602001600065ffffffffffff168152602001600065ffffffffffff168152602001600061ffff1681525090565b828054600181600116156101000203166002900490600052602060002090601f016020900481019282601f1061442057805160ff191683800117855561444e565b8280016001018555821561444e579182015b8281111561444d578251825591602001919060010190614432565b5b50905061445b9190614527565b5090565b828054600181600116156101000203166002900490600052602060002090601f016020900481019282601f106144a057805160ff19168380011785556144ce565b828001600101855582156144ce579182015b828111156144cd5782518255916020019190600101906144b2565b5b5090506144db9190614527565b5090565b50805460018160011615610100020316600290046000825580601f106145055750614524565b601f0160209004906000526020600020908101906145239190614527565b5b50565b61454991905b8082111561454557600081600090555060010161452d565b5090565b90565b60008135905061455b81615f58565b92915050565b60008135905061457081615f6f565b92915050565b60008151905061458581615f6f565b92915050565b60008135905061459a81615f86565b92915050565b6000815190506145af81615f86565b92915050565b600082601f8301126145c657600080fd5b81356145d96145d482615d19565b615cec565b915080825260208301602083018583830111156145f557600080fd5b614600838284615f05565b50505092915050565b60008083601f84011261461b57600080fd5b8235905067ffffffffffffffff81111561463457600080fd5b60208301915083600182028301111561464c57600080fd5b9250929050565b600082601f83011261466457600080fd5b813561467761467282615d45565b615cec565b9150808252602083016020830185838301111561469357600080fd5b61469e838284615f05565b50505092915050565b6000813590506146b681615f9d565b92915050565b6000813590506146cb81615fb4565b92915050565b6000813590506146e081615fcb565b92915050565b6000602082840312156146f857600080fd5b60006147068482850161454c565b91505092915050565b6000806040838503121561472257600080fd5b60006147308582860161454c565b92505060206147418582860161454c565b9150509250929050565b60008060006060848603121561476057600080fd5b600061476e8682870161454c565b935050602061477f8682870161454c565b9250506040614790868287016146bc565b9150509250925092565b600080600080608085870312156147b057600080fd5b60006147be8782880161454c565b94505060206147cf8782880161454c565b93505060406147e0878288016146bc565b925050606085013567ffffffffffffffff8111156147fd57600080fd5b614809878288016145b5565b91505092959194509250565b6000806040838503121561482857600080fd5b60006148368582860161454c565b925050602061484785828601614561565b9150509250929050565b60008060006040848603121561486657600080fd5b60006148748682870161454c565b935050602084013567ffffffffffffffff81111561489157600080fd5b61489d86828701614609565b92509250509250925092565b600080604083850312156148bc57600080fd5b60006148ca8582860161454c565b92505060206148db858286016146bc565b9150509250929050565b6000602082840312156148f757600080fd5b600061490584828501614576565b91505092915050565b60006020828403121561492057600080fd5b600061492e8482850161458b565b91505092915050565b60006020828403121561494957600080fd5b6000614957848285016145a0565b91505092915050565b60008060008060008060c0878903121561497957600080fd5b600087013567ffffffffffffffff81111561499357600080fd5b61499f89828a01614653565b965050602087013567ffffffffffffffff8111156149bc57600080fd5b6149c889828a01614653565b95505060406149d989828a016146d1565b94505060606149ea89828a016146d1565b93505060806149fb89828a016146d1565b92505060a0614a0c89828a016146a7565b9150509295509295509295565b600080600080600080600060e0888a031215614a3457600080fd5b600088013567ffffffffffffffff811115614a4e57600080fd5b614a5a8a828b01614653565b975050602088013567ffffffffffffffff811115614a7757600080fd5b614a838a828b01614653565b9650506040614a948a828b016146d1565b9550506060614aa58a828b016146d1565b9450506080614ab68a828b016146d1565b93505060a0614ac78a828b016146a7565b92505060c088013567ffffffffffffffff811115614ae457600080fd5b614af08a828b016145b5565b91505092959891949750929550565b600080600080600080600060e0888a031215614b1a57600080fd5b600088013567ffffffffffffffff811115614b3457600080fd5b614b408a828b01614653565b975050602088013567ffffffffffffffff811115614b5d57600080fd5b614b698a828b01614653565b9650506040614b7a8a828b016146d1565b9550506060614b8b8a828b016146d1565b9450506080614b9c8a828b016146d1565b93505060a0614bad8a828b016146a7565b92505060c088013567ffffffffffffffff811115614bca57600080fd5b614bd68a828b01614653565b91505092959891949750929550565b600060208284031215614bf757600080fd5b6000614c05848285016146bc565b91505092915050565b6000614c1a8383614e02565b905092915050565b6000614c2e8383615790565b60208301905092915050565b614c4381615e4d565b82525050565b6000614c5482615d91565b614c5e8185615de2565b935083602082028501614c7085615d71565b8060005b85811015614cac5784840389528151614c8d8582614c0e565b9450614c9883615dc8565b925060208a01995050600181019050614c74565b50829750879550505050505092915050565b6000614cc982615d9c565b614cd38185615df3565b9350614cde83615d81565b8060005b83811015614d0f578151614cf68882614c22565b9750614d0183615dd5565b925050600181019050614ce2565b5085935050505092915050565b614d2581615e5f565b82525050565b6000614d3682615da7565b614d408185615e04565b9350614d50818560208601615f14565b614d5981615f47565b840191505092915050565b614d6d81615ee1565b82525050565b6000614d7f8385615e42565b9350614d8c838584615f05565b82840190509392505050565b6000614da382615dbd565b614dad8185615e31565b9350614dbd818560208601615f14565b614dc681615f47565b840191505092915050565b6000614ddc82615dbd565b614de68185615e42565b9350614df6818560208601615f14565b80840191505092915050565b6000614e0d82615db2565b614e178185615e20565b9350614e27818560208601615f14565b614e3081615f47565b840191505092915050565b6000614e48601d83615e31565b91507f4552433732313a204e6f6e2d6578697374656e7420546f6b656e2049440000006000830152602082019050919050565b6000614e88603283615e31565b91507f4552433732313a207472616e7366657220746f206e6f6e20455243373231526560008301527f63656976657220696d706c656d656e74657200000000000000000000000000006020830152604082019050919050565b6000614eee603583615e31565b91507f4552433732313a2063616c6c6572206973206e6f742077686974656c6973746560008301527f6420666f7220746865204d696e74657220726f6c6500000000000000000000006020830152604082019050919050565b6000614f54600f83615e31565b91507f5769746864726177206661696c656400000000000000000000000000000000006000830152602082019050919050565b6000614f94602583615e31565b91507f4552433732313a2063616e6e6f7420717565727920746865207a65726f20616460008301527f64726573730000000000000000000000000000000000000000000000000000006020830152604082019050919050565b6000614ffa602a83615e31565b91507f4552433732313a2073746172742074696d65206d757374206265206265666f7260008301527f6520656e642074696d65000000000000000000000000000000000000000000006020830152604082019050919050565b6000615060602483615e31565b91507f4552433732313a207472616e7366657220746f20746865207a65726f2061646460008301527f72657373000000000000000000000000000000000000000000000000000000006020830152604082019050919050565b60006150c6601983615e31565b91507f4552433732313a20617070726f766520746f2063616c6c6572000000000000006000830152602082019050919050565b6000615106603583615e31565b91507f4552433732313a2073746172742074696d65206d75737420626520616674657260008301527f206974732061756374696f6e20656e642074696d6500000000000000000000006020830152604082019050919050565b600061516c602c83615e31565b91507f4552433732313a206f70657261746f7220717565727920666f72206e6f6e657860008301527f697374656e7420746f6b656e00000000000000000000000000000000000000006020830152604082019050919050565b60006151d2603483615e31565b91507f4552433732313a207472616e73666572207265737472696374656420746f207760008301527f686974656c6973746564206164647265737365730000000000000000000000006020830152604082019050919050565b6000615238601983615e31565b91507f4552433732313a20696e76616c69642074696d6520736c6f74000000000000006000830152602082019050919050565b6000615278602e83615e31565b91507f4552433732313a20636f6e74656e74206964206973206e6f742072656769737460008301527f6572656420746f2063616c6c65720000000000000000000000000000000000006020830152604082019050919050565b60006152de601b83615e31565b91507f4552433732313a204f4e4c595f434f4e54524143545f4f574e455200000000006000830152602082019050919050565b600061531e603e83615e31565b91507f4552433732313a20617070726f76652063616c6c6572206973206e6f7420746f60008301527f6b656e206f776e6572206e6f7220617070726f76656420666f7220616c6c00006020830152604082019050919050565b6000615384602083615e31565b91507f4552433732313a206d696e7420746f20746865207a65726f20616464726573736000830152602082019050919050565b60006153c4602c83615e31565b91507f4552433732313a20617070726f76656420717565727920666f72206e6f6e657860008301527f697374656e7420746f6b656e00000000000000000000000000000000000000006020830152604082019050919050565b600061542a602983615e31565b91507f4552433732313a207472616e73666572206f6620746f6b656e2074686174206960008301527f73206e6f74206f776e00000000000000000000000000000000000000000000006020830152604082019050919050565b6000615490601d83615e31565b91507f4552433732313a20617070726f76616c20697320726564756e64616e740000006000830152602082019050919050565b60006154d0600083615e15565b9150600082019050919050565b60006154ea603183615e31565b91507f4552433732313a207472616e736665722063616c6c6572206973206e6f74206f60008301527f776e6572206e6f7220617070726f7665640000000000000000000000000000006020830152604082019050919050565b6000615550602583615e31565b91507f4552433732313a206275726e206f6620746f6b656e2074686174206973206e6f60008301527f74206f776e0000000000000000000000000000000000000000000000000000006020830152604082019050919050565b60006155b6602483615e31565b91507f4552433732313a2055524920736574206f66206e6f6e6578697374656e74207460008301527f6f6b656e000000000000000000000000000000000000000000000000000000006020830152604082019050919050565b600061561c601a83615e31565b91507f4552433732313a206e6f6e2d6578697374656e7420746f6b656e0000000000006000830152602082019050919050565b600061565c602e83615e31565b91507f4552433732313a2063616c6c6572206973206e6f7420746f6b656e206f776e6560008301527f72206e6f7220617070726f7665640000000000000000000000000000000000006020830152604082019050919050565b60006156c2602783615e31565b91507f4552433732313a2055524920717565727920666f72206e6f6e6578697374656e60008301527f7420746f6b656e000000000000000000000000000000000000000000000000006020830152604082019050919050565b6000615728602183615e31565b91507f4552433732313a2063616c6c6572206973206e6f742077686974656c6973746560008301527f64000000000000000000000000000000000000000000000000000000000000006020830152604082019050919050565b61578a81615e97565b82525050565b61579981615ec5565b82525050565b6157a881615ec5565b82525050565b6157b781615ecf565b82525050565b60006157ca828486614d73565b91508190509392505050565b60006157e28284614dd1565b915081905092915050565b60006157f8826154c3565b9150819050919050565b60006020820190506158176000830184614c3a565b92915050565b600061010082019050615833600083018b614c3a565b615840602083018a614c3a565b81810360408301526158528189614d98565b905081810360608301526158668188614d98565b905061587560808301876157ae565b61588260a08301866157ae565b61588f60c08301856157ae565b61589c60e0830184615781565b9998505050505050505050565b60006080820190506158be6000830187614c3a565b6158cb6020830186614c3a565b6158d8604083018561579f565b81810360608301526158ea8184614d2b565b905095945050505050565b6000602082019050818103600083015261590f8184614c49565b905092915050565b600060208201905081810360008301526159318184614cbe565b905092915050565b600060208201905061594e6000830184614d1c565b92915050565b60006020820190506159696000830184614d64565b92915050565b600060208201905081810360008301526159898184614d98565b905092915050565b600060208201905081810360008301526159aa81614e3b565b9050919050565b600060208201905081810360008301526159ca81614e7b565b9050919050565b600060208201905081810360008301526159ea81614ee1565b9050919050565b60006020820190508181036000830152615a0a81614f47565b9050919050565b60006020820190508181036000830152615a2a81614f87565b9050919050565b60006020820190508181036000830152615a4a81614fed565b9050919050565b60006020820190508181036000830152615a6a81615053565b9050919050565b60006020820190508181036000830152615a8a816150b9565b9050919050565b60006020820190508181036000830152615aaa816150f9565b9050919050565b60006020820190508181036000830152615aca8161515f565b9050919050565b60006020820190508181036000830152615aea816151c5565b9050919050565b60006020820190508181036000830152615b0a8161522b565b9050919050565b60006020820190508181036000830152615b2a8161526b565b9050919050565b60006020820190508181036000830152615b4a816152d1565b9050919050565b60006020820190508181036000830152615b6a81615311565b9050919050565b60006020820190508181036000830152615b8a81615377565b9050919050565b60006020820190508181036000830152615baa816153b7565b9050919050565b60006020820190508181036000830152615bca8161541d565b9050919050565b60006020820190508181036000830152615bea81615483565b9050919050565b60006020820190508181036000830152615c0a816154dd565b9050919050565b60006020820190508181036000830152615c2a81615543565b9050919050565b60006020820190508181036000830152615c4a816155a9565b9050919050565b60006020820190508181036000830152615c6a8161560f565b9050919050565b60006020820190508181036000830152615c8a8161564f565b9050919050565b60006020820190508181036000830152615caa816156b5565b9050919050565b60006020820190508181036000830152615cca8161571b565b9050919050565b6000602082019050615ce6600083018461579f565b92915050565b6000604051905081810181811067ffffffffffffffff82111715615d0f57600080fd5b8060405250919050565b600067ffffffffffffffff821115615d3057600080fd5b601f19601f8301169050602081019050919050565b600067ffffffffffffffff821115615d5c57600080fd5b601f19601f8301169050602081019050919050565b6000819050602082019050919050565b6000819050602082019050919050565b600081519050919050565b600081519050919050565b600081519050919050565b600081519050919050565b600081519050919050565b6000602082019050919050565b6000602082019050919050565b600082825260208201905092915050565b600082825260208201905092915050565b600082825260208201905092915050565b600081905092915050565b600082825260208201905092915050565b600082825260208201905092915050565b600081905092915050565b6000615e5882615ea5565b9050919050565b60008115159050919050565b60007fffffffff0000000000000000000000000000000000000000000000000000000082169050919050565b600061ffff82169050919050565b600073ffffffffffffffffffffffffffffffffffffffff82169050919050565b6000819050919050565b600065ffffffffffff82169050919050565b6000615eec82615ef3565b9050919050565b6000615efe82615ea5565b9050919050565b82818337600083830152505050565b60005b83811015615f32578082015181840152602081019050615f17565b83811115615f41576000848401525b50505050565b6000601f19601f8301169050919050565b615f6181615e4d565b8114615f6c57600080fd5b50565b615f7881615e5f565b8114615f8357600080fd5b50565b615f8f81615e6b565b8114615f9a57600080fd5b50565b615fa681615e97565b8114615fb157600080fd5b50565b615fbd81615ec5565b8114615fc857600080fd5b50565b615fd481615ecf565b8114615fdf57600080fd5b5056fea365627a7a723158204cf83dff17edea0799855f5508af939db304a04ec9b4feb14ba4abd939cb67a16c6578706572696d656e74616cf564736f6c634300050b0040",
  "source": "pragma solidity ^0.5.11;\npragma experimental ABIEncoderV2;\n\nimport \"./ERC721.sol\";\n\n/**\n * Customized for Microsponsors\n * from Open Zeppelin's ERC721Metadata contract, which is MIT Licensed:\n * https://github.com/OpenZeppelin/openzeppelin-contracts/blob/master/contracts/token/ERC721/ERC721Metadata.sol\n\n\n  Copyright 2019 Niche Networks, Inc. (owns & operates Microsponsors.io)\n\n  Licensed under the Apache License, Version 2.0 (the \"License\");\n  you may not use this file except in compliance with the License.\n  You may obtain a copy of the License at\n\n    http://www.apache.org/licenses/LICENSE-2.0\n\n  Unless required by applicable law or agreed to in writing, software\n  distributed under the License is distributed on an \"AS IS\" BASIS,\n  WITHOUT WARRANTIES OR CONDITIONS OF ANY KIND, either express or implied.\n  See the License for the specific language governing permissions and\n  limitations under the License.\n\n*/\n\ncontract Microsponsors is ERC721 {\n\n    // Token name\n    string private _name;\n\n    // Token symbol\n    string private _symbol;\n\n\n    /*\n     *     bytes4(keccak256('name()')) == 0x06fdde03\n     *     bytes4(keccak256('symbol()')) == 0x95d89b41\n     *     bytes4(keccak256('tokenURI(uint256)')) == 0xc87b56dd\n     *\n     *     => 0x06fdde03 ^ 0x95d89b41 ^ 0xc87b56dd == 0x5b5e139f\n     */\n    bytes4 private constant _INTERFACE_ID_ERC721_METADATA = 0x5b5e139f;\n\n    /**\n     * @dev Constructor function\n     */\n    constructor (string memory name, string memory symbol, address registryAddress) public {\n\n        _name = name;\n        _symbol = symbol;\n\n        // register the supported interfaces to conform to ERC721 via ERC165\n        _registerInterface(_INTERFACE_ID_ERC721_METADATA);\n\n        super.updateRegistryAddress(registryAddress);\n\n    }\n\n    /**\n     * @dev Gets the token name.\n     * @return string representing the token name\n     */\n    function name() external view returns (string memory) {\n        return _name;\n    }\n\n    /**\n     * @dev Gets the token symbol.\n     * @return string representing the token symbol\n     */\n    function symbol() external view returns (string memory) {\n        return _symbol;\n    }\n\n}\n",
  "sourcePath": "/Users/lauren/github/erc-721/contracts/Microsponsors.sol",
  "compiler": {
    "name": "solc",
    "version": "0.5.11+commit.c082d0b4.Emscripten.clang"
  },
  "schemaVersion": "3.0.10",
  "updatedAt": "2019-12-31T03:26:46.620Z",
  "devdoc": {
    "methods": {
      "approve(address,uint256)": {
        "details": "Approves another address to transfer the given token ID The zero address indicates there is no approved address. There can only be one approved address per token at a given time. Can only be called by the token owner or an approved operator.",
        "params": {
          "to": "address to be approved for the given token ID",
          "tokenId": "uint256 ID of the token to be approved"
        }
      },
      "balanceOf(address)": {
        "details": "Gets the balance of the specified address.",
        "params": {
          "tokenOwner": "address to query the balance of"
        },
        "return": "uint256 representing the amount owned by the passed address"
      },
      "burn(uint256)": {
        "details": "Customized for MicrosponsorsBurns a specific ERC721 token.",
        "params": {
          "tokenId": "uint256 id of the ERC721 token to be burned"
        }
      },
      "constructor": {
        "details": "Constructor function"
      },
      "getApproved(uint256)": {
        "details": "Gets the approved address for a token ID, or zero if no address set Reverts if the token ID does not exist.",
        "params": {
          "tokenId": "uint256 ID of the token to query the approval of"
        },
        "return": "address currently approved for the given token ID"
      },
      "isApprovedForAll(address,address)": {
        "details": "Tells whether an operator is approved by a given token owner.",
        "params": {
          "operator": "operator address which you want to query the approval of",
          "tokenOwner": "token owner address which you want to query the approval of"
        },
        "return": "bool whether the given operator is approved by the token owner"
      },
      "isMinter(address)": {
        "details": "Checks if minter isWhitelisted()"
      },
      "isWhitelisted(address)": {
        "details": "Checks Registry contract for whitelisted status",
        "params": {
          "target": "The address to check"
        }
      },
      "mint(string,string,uint48,uint48,uint48,uint16)": {
        "details": "Function to mint tokens.",
        "return": "tokenId"
      },
      "mintWithTokenURI(string,string,uint48,uint48,uint48,uint16,string)": {
        "details": "Function to mint tokens.",
        "params": {
          "tokenURI": "The token URI of the minted token."
        },
        "return": "tokenId"
      },
      "name()": {
        "details": "Gets the token name.",
        "return": "string representing the token name"
      },
      "ownerOf(uint256)": {
        "details": "Gets the owner of the specified token ID.",
        "params": {
          "tokenId": "uint256 ID of the token to query the owner of"
        },
        "return": "address currently marked as the owner of the given token ID"
      },
      "pause()": {
        "details": "Called by contract owner to pause actions on this contract"
      },
      "safeMint(string,string,uint48,uint48,uint48,uint16)": {
        "details": "Function to safely mint tokens.",
        "return": "tokenId"
      },
      "safeMint(string,string,uint48,uint48,uint48,uint16,bytes)": {
        "details": "Function to safely mint tokens.",
        "params": {
          "data": "bytes data to send along with a safe transfer check."
        },
        "return": "tokenId"
      },
      "safeMintWithTokenURI(string,string,uint48,uint48,uint48,uint16,string)": {
        "params": {
          "tokenURI": "The token URI of the minted token."
        },
        "return": "tokenId"
      },
      "safeTransferFrom(address,address,uint256)": {
        "details": "Safely transfers the ownership of a given token ID to another address If the target address is a contract, it must implement {IERC721Receiver-onERC721Received}, which is called upon a safe transfer, and return the magic value `bytes4(keccak256(\"onERC721Received(address,address,uint256,bytes)\"))`; otherwise, the transfer is reverted. Requires the msg.sender to be the owner, approved, or operator",
        "params": {
          "from": "current owner of the token",
          "to": "address to receive the ownership of the given token ID",
          "tokenId": "uint256 ID of the token to be transferred"
        }
      },
      "safeTransferFrom(address,address,uint256,bytes)": {
        "details": "Safely transfers the ownership of a given token ID to another address If the target address is a contract, it must implement {IERC721Receiver-onERC721Received}, which is called upon a safe transfer, and return the magic value `bytes4(keccak256(\"onERC721Received(address,address,uint256,bytes)\"))`; otherwise, the transfer is reverted. Requires the _msgSender() to be the owner, approved, or operator",
        "params": {
          "data": "bytes data to send along with a safe transfer check",
          "from": "current owner of the token",
          "to": "address to receive the ownership of the given token ID",
          "tokenId": "uint256 ID of the token to be transferred"
        }
      },
      "setApprovalForAll(address,bool)": {
        "details": "Sets or unsets the approval of a given operator An operator is allowed to transfer all tokens of the sender on their behalf.",
        "params": {
          "approved": "representing the status of the approval to be set",
          "to": "operator address to set the approval"
        }
      },
      "supportsInterface(bytes4)": {
        "details": "See {IERC165-supportsInterface}.     * Time complexity O(1), guaranteed to always use less than 30 000 gas."
      },
      "symbol()": {
        "details": "Gets the token symbol.",
        "return": "string representing the token symbol"
      },
      "tokenMinterContentIds(address)": {
        "details": "Look up all Content IDs a Minter has tokenized TimeSlots for.      We're not getting this from the Registry because we want to keep      a separate record here of all Content ID's the acct has *ever*      minted tokens for. The registry is for keeping track of their      current (not necessarily past) Content ID registrations."
      },
      "tokenMinterPropertyNames(address,string)": {
        "details": "Look up all Property Names a Minter has created Time Slots for      with a particular Content ID"
      },
      "tokenURI(uint256)": {
        "params": {
          "tokenId": "uint256 ID of the token to query"
        },
        "return": "URI for a given token ID."
      },
      "tokensMintedBy(address)": {
        "details": "This method MUST NEVER be called by smart contract code. First, it's fairly expensive (it walks the entire _tokenIds array looking for tokens belonging to minter), but it also returns a dynamic array, which is only supported for web3 calls, and not contract-to-contract calls (at this time)."
      },
      "tokensOfOwner(address)": {
        "details": "This method MUST NEVER be called by smart contract code. First, it's fairly expensive (it walks the entire _tokenIds array looking for tokens belonging to owner), but it also returns a dynamic array, which is only supported for web3 calls, and not contract-to-contract calls (at this time).",
        "params": {
          "tokenOwner": "The owner whose tokens we are interested in."
        }
      },
      "totalSupply()": {
        "details": "Gets the total number of tokens ever minted."
      },
      "transferFrom(address,address,uint256)": {
        "details": "Transfers the ownership of a given token ID to another address. Usage of this method is discouraged, use {safeTransferFrom} whenever possible. Requires the msg.sender to be the owner, approved, or operator.",
        "params": {
          "from": "current owner of the token",
          "to": "address to receive the ownership of the given token ID",
          "tokenId": "uint256 ID of the token to be transferred"
        }
      },
      "transferOwnership1(address)": {
        "details": "Transfer owner (admin) functions to another address",
        "params": {
          "newOwner": "Address of new owner/ admin of contract"
        }
      },
      "unpause()": {
        "details": "Called by contract owner to unpause the smart contract."
      },
      "updateMintFee(uint256)": {
        "details": "Update the fee (in wei) charged for minting a single token"
      },
      "updateRegistryAddress(address)": {
        "details": "Update contract address for Microsponsors Registry contract",
        "params": {
          "newAddress": "where the Registry contract lives"
        }
      }
    }
  },
  "userdoc": {
    "methods": {
      "tokenURI(uint256)": {
        "notice": "Throws if the token ID does not exist. May return an empty string."
      },
      "tokensMintedBy(address)": {
        "notice": "Return all the Token IDs minted by a given account."
      },
      "unpause()": {
        "notice": "This is public rather than external so it can be called by  derived contracts."
      },
      "withdrawBalance()": {
        "notice": "* Withdraw **"
      }
    },
    "notice": "Customized for Microsponsors from Open Zeppelin's ERC721Metadata contract, which is MIT Licensed: https://github.com/OpenZeppelin/openzeppelin-contracts/blob/master/contracts/token/ERC721/ERC721Metadata.sol Copyright 2019 Niche Networks, Inc. (owns & operates Microsponsors.io) Licensed under the Apache License, Version 2.0 (the \"License\"); you may not use this file except in compliance with the License. You may obtain a copy of the License at http://www.apache.org/licenses/LICENSE-2.0 Unless required by applicable law or agreed to in writing, software distributed under the License is distributed on an \"AS IS\" BASIS, WITHOUT WARRANTIES OR CONDITIONS OF ANY KIND, either express or implied. See the License for the specific language governing permissions and limitations under the License."
  }
}