{
  "contractName": "Microsponsors",
  "abi": [
    {
      "constant": true,
      "inputs": [
        {
          "internalType": "bytes4",
          "name": "interfaceId",
          "type": "bytes4"
        }
      ],
      "name": "supportsInterface",
      "outputs": [
        {
          "internalType": "bool",
          "name": "",
          "type": "bool"
        }
      ],
      "payable": false,
      "stateMutability": "view",
      "type": "function"
    },
    {
      "constant": true,
      "inputs": [
        {
          "internalType": "uint256",
          "name": "tokenId",
          "type": "uint256"
        }
      ],
      "name": "getApproved",
      "outputs": [
        {
          "internalType": "address",
          "name": "",
          "type": "address"
        }
      ],
      "payable": false,
      "stateMutability": "view",
      "type": "function"
    },
    {
      "constant": false,
      "inputs": [
        {
          "internalType": "address",
          "name": "to",
          "type": "address"
        },
        {
          "internalType": "uint256",
          "name": "tokenId",
          "type": "uint256"
        }
      ],
      "name": "approve",
      "outputs": [],
      "payable": false,
      "stateMutability": "nonpayable",
      "type": "function"
    },
    {
      "constant": true,
      "inputs": [],
      "name": "mintFee",
      "outputs": [
        {
          "internalType": "uint256",
          "name": "",
          "type": "uint256"
        }
      ],
      "payable": false,
      "stateMutability": "view",
      "type": "function"
    },
    {
      "constant": true,
      "inputs": [
        {
          "internalType": "uint256",
          "name": "",
          "type": "uint256"
        }
      ],
      "name": "tokenToFederationId",
      "outputs": [
        {
          "internalType": "uint32",
          "name": "",
          "type": "uint32"
        }
      ],
      "payable": false,
      "stateMutability": "view",
      "type": "function"
    },
    {
      "constant": true,
      "inputs": [],
      "name": "totalSupply",
      "outputs": [
        {
          "internalType": "uint256",
          "name": "",
          "type": "uint256"
        }
      ],
      "payable": false,
      "stateMutability": "view",
      "type": "function"
    },
    {
      "constant": false,
      "inputs": [
        {
          "internalType": "string",
          "name": "contentId",
          "type": "string"
        },
        {
          "internalType": "string",
          "name": "propertyName",
          "type": "string"
        },
        {
          "internalType": "uint48",
          "name": "startTime",
          "type": "uint48"
        },
        {
          "internalType": "uint48",
          "name": "endTime",
          "type": "uint48"
        },
        {
          "internalType": "uint48",
          "name": "auctionEndTime",
          "type": "uint48"
        },
        {
          "internalType": "uint16",
          "name": "category",
          "type": "uint16"
        },
        {
          "internalType": "uint32",
          "name": "federationId",
          "type": "uint32"
        }
      ],
      "name": "safeMint",
      "outputs": [
        {
          "internalType": "uint256",
          "name": "",
          "type": "uint256"
        }
      ],
      "payable": true,
      "stateMutability": "payable",
      "type": "function"
    },
    {
      "constant": false,
      "inputs": [
        {
          "internalType": "address",
          "name": "from",
          "type": "address"
        },
        {
          "internalType": "address",
          "name": "to",
          "type": "address"
        },
        {
          "internalType": "uint256",
          "name": "tokenId",
          "type": "uint256"
        }
      ],
      "name": "transferFrom",
      "outputs": [],
      "payable": false,
      "stateMutability": "nonpayable",
      "type": "function"
    },
    {
      "constant": true,
      "inputs": [
        {
          "internalType": "address",
          "name": "minter",
          "type": "address"
        }
      ],
      "name": "tokensMintedBy",
      "outputs": [
        {
          "internalType": "uint256[]",
          "name": "",
          "type": "uint256[]"
        }
      ],
      "payable": false,
      "stateMutability": "view",
      "type": "function"
    },
    {
      "constant": false,
      "inputs": [
        {
          "internalType": "string",
          "name": "contentId",
          "type": "string"
        },
        {
          "internalType": "string",
          "name": "propertyName",
          "type": "string"
        },
        {
          "internalType": "uint48",
          "name": "startTime",
          "type": "uint48"
        },
        {
          "internalType": "uint48",
          "name": "endTime",
          "type": "uint48"
        },
        {
          "internalType": "uint48",
          "name": "auctionEndTime",
          "type": "uint48"
        },
        {
          "internalType": "uint16",
          "name": "category",
          "type": "uint16"
        },
        {
          "internalType": "uint32",
          "name": "federationId",
          "type": "uint32"
        },
        {
          "internalType": "string",
          "name": "tokenURI",
          "type": "string"
        }
      ],
      "name": "mintWithTokenURI",
      "outputs": [
        {
          "internalType": "uint256",
          "name": "",
          "type": "uint256"
        }
      ],
      "payable": true,
      "stateMutability": "payable",
      "type": "function"
    },
    {
      "constant": false,
      "inputs": [],
      "name": "unpause",
      "outputs": [],
      "payable": false,
      "stateMutability": "nonpayable",
      "type": "function"
    },
    {
      "constant": false,
      "inputs": [
        {
          "internalType": "address",
          "name": "from",
          "type": "address"
        },
        {
          "internalType": "address",
          "name": "to",
          "type": "address"
        },
        {
          "internalType": "uint256",
          "name": "tokenId",
          "type": "uint256"
        }
      ],
      "name": "safeTransferFrom",
      "outputs": [],
      "payable": false,
      "stateMutability": "nonpayable",
      "type": "function"
    },
    {
      "constant": false,
      "inputs": [
        {
          "internalType": "uint256",
          "name": "tokenId",
          "type": "uint256"
        }
      ],
      "name": "burn",
      "outputs": [],
      "payable": false,
      "stateMutability": "nonpayable",
      "type": "function"
    },
    {
      "constant": false,
      "inputs": [
        {
          "internalType": "string",
          "name": "contentId",
          "type": "string"
        },
        {
          "internalType": "string",
          "name": "propertyName",
          "type": "string"
        },
        {
          "internalType": "uint48",
          "name": "startTime",
          "type": "uint48"
        },
        {
          "internalType": "uint48",
          "name": "endTime",
          "type": "uint48"
        },
        {
          "internalType": "uint48",
          "name": "auctionEndTime",
          "type": "uint48"
        },
        {
          "internalType": "uint16",
          "name": "category",
          "type": "uint16"
        },
        {
          "internalType": "uint32",
          "name": "federationId",
          "type": "uint32"
        },
        {
          "internalType": "bytes",
          "name": "data",
          "type": "bytes"
        }
      ],
      "name": "safeMint",
      "outputs": [
        {
          "internalType": "uint256",
          "name": "",
          "type": "uint256"
        }
      ],
      "payable": true,
      "stateMutability": "payable",
      "type": "function"
    },
    {
      "constant": true,
      "inputs": [],
      "name": "owner2",
      "outputs": [
        {
          "internalType": "address",
          "name": "",
          "type": "address"
        }
      ],
      "payable": false,
      "stateMutability": "view",
      "type": "function"
    },
    {
      "constant": true,
      "inputs": [],
      "name": "paused",
      "outputs": [
        {
          "internalType": "bool",
          "name": "",
          "type": "bool"
        }
      ],
      "payable": false,
      "stateMutability": "view",
      "type": "function"
    },
    {
      "constant": false,
      "inputs": [],
      "name": "withdrawBalance",
      "outputs": [],
      "payable": false,
      "stateMutability": "nonpayable",
      "type": "function"
    },
    {
      "constant": true,
      "inputs": [
        {
          "internalType": "uint256",
          "name": "tokenId",
          "type": "uint256"
        }
      ],
      "name": "ownerOf",
      "outputs": [
        {
          "internalType": "address",
          "name": "",
          "type": "address"
        }
      ],
      "payable": false,
      "stateMutability": "view",
      "type": "function"
    },
    {
      "constant": false,
      "inputs": [
        {
          "internalType": "string",
          "name": "contentId",
          "type": "string"
        },
        {
          "internalType": "string",
          "name": "propertyName",
          "type": "string"
        },
        {
          "internalType": "uint48",
          "name": "startTime",
          "type": "uint48"
        },
        {
          "internalType": "uint48",
          "name": "endTime",
          "type": "uint48"
        },
        {
          "internalType": "uint48",
          "name": "auctionEndTime",
          "type": "uint48"
        },
        {
          "internalType": "uint16",
          "name": "category",
          "type": "uint16"
        },
        {
          "internalType": "uint32",
          "name": "federationId",
          "type": "uint32"
        }
      ],
      "name": "mint",
      "outputs": [
        {
          "internalType": "uint256",
          "name": "",
          "type": "uint256"
        }
      ],
      "payable": true,
      "stateMutability": "payable",
      "type": "function"
    },
    {
      "constant": true,
      "inputs": [
        {
          "internalType": "address",
          "name": "tokenOwner",
          "type": "address"
        }
      ],
      "name": "balanceOf",
      "outputs": [
        {
          "internalType": "uint256",
          "name": "",
          "type": "uint256"
        }
      ],
      "payable": false,
      "stateMutability": "view",
      "type": "function"
    },
    {
      "constant": true,
      "inputs": [],
      "name": "owner1",
      "outputs": [
        {
          "internalType": "address",
          "name": "",
          "type": "address"
        }
      ],
      "payable": false,
      "stateMutability": "view",
      "type": "function"
    },
    {
      "constant": true,
      "inputs": [
        {
          "internalType": "address",
          "name": "minter",
          "type": "address"
        },
        {
          "internalType": "string",
          "name": "contentId",
          "type": "string"
        }
      ],
      "name": "tokenMinterPropertyNames",
      "outputs": [
        {
          "internalType": "string[]",
          "name": "",
          "type": "string[]"
        }
      ],
      "payable": false,
      "stateMutability": "view",
      "type": "function"
    },
    {
      "constant": true,
      "inputs": [],
      "name": "registry",
      "outputs": [
        {
          "internalType": "contract DeployedRegistry",
          "name": "",
          "type": "address"
        }
      ],
      "payable": false,
      "stateMutability": "view",
      "type": "function"
    },
    {
      "constant": false,
      "inputs": [
        {
          "internalType": "uint256",
          "name": "val",
          "type": "uint256"
        }
      ],
      "name": "updateMintFee",
      "outputs": [],
      "payable": false,
      "stateMutability": "nonpayable",
      "type": "function"
    },
    {
      "constant": false,
      "inputs": [],
      "name": "pause",
      "outputs": [],
      "payable": false,
      "stateMutability": "nonpayable",
      "type": "function"
    },
    {
      "constant": true,
      "inputs": [
        {
          "internalType": "address",
          "name": "tokenOwner",
          "type": "address"
        }
      ],
      "name": "tokensOfOwner",
      "outputs": [
        {
          "internalType": "uint256[]",
          "name": "",
          "type": "uint256[]"
        }
      ],
      "payable": false,
      "stateMutability": "view",
      "type": "function"
    },
    {
      "constant": false,
      "inputs": [
        {
          "internalType": "string",
          "name": "contentId",
          "type": "string"
        },
        {
          "internalType": "string",
          "name": "propertyName",
          "type": "string"
        },
        {
          "internalType": "uint48",
          "name": "startTime",
          "type": "uint48"
        },
        {
          "internalType": "uint48",
          "name": "endTime",
          "type": "uint48"
        },
        {
          "internalType": "uint48",
          "name": "auctionEndTime",
          "type": "uint48"
        },
        {
          "internalType": "uint16",
          "name": "category",
          "type": "uint16"
        },
        {
          "internalType": "uint32",
          "name": "federationId",
          "type": "uint32"
        },
        {
          "internalType": "string",
          "name": "tokenURI",
          "type": "string"
        }
      ],
      "name": "safeMintWithTokenURI",
      "outputs": [
        {
          "internalType": "uint256",
          "name": "",
          "type": "uint256"
        }
      ],
      "payable": true,
      "stateMutability": "payable",
      "type": "function"
    },
    {
      "constant": false,
      "inputs": [
        {
          "internalType": "address",
          "name": "to",
          "type": "address"
        },
        {
          "internalType": "bool",
          "name": "approved",
          "type": "bool"
        }
      ],
      "name": "setApprovalForAll",
      "outputs": [],
      "payable": false,
      "stateMutability": "nonpayable",
      "type": "function"
    },
    {
      "constant": true,
      "inputs": [
        {
          "internalType": "address",
          "name": "minter",
          "type": "address"
        }
      ],
      "name": "tokenMinterContentIds",
      "outputs": [
        {
          "internalType": "string[]",
          "name": "",
          "type": "string[]"
        }
      ],
      "payable": false,
      "stateMutability": "view",
      "type": "function"
    },
    {
      "constant": false,
      "inputs": [
        {
          "internalType": "address",
          "name": "from",
          "type": "address"
        },
        {
          "internalType": "address",
          "name": "to",
          "type": "address"
        },
        {
          "internalType": "uint256",
          "name": "tokenId",
          "type": "uint256"
        },
        {
          "internalType": "bytes",
          "name": "data",
          "type": "bytes"
        }
      ],
      "name": "safeTransferFrom",
      "outputs": [],
      "payable": false,
      "stateMutability": "nonpayable",
      "type": "function"
    },
    {
      "constant": false,
      "inputs": [
        {
          "internalType": "address",
          "name": "newAddress",
          "type": "address"
        }
      ],
      "name": "updateRegistryAddress",
      "outputs": [],
      "payable": false,
      "stateMutability": "nonpayable",
      "type": "function"
    },
    {
      "constant": true,
      "inputs": [
        {
          "internalType": "uint256",
          "name": "tokenId",
          "type": "uint256"
        }
      ],
      "name": "tokenURI",
      "outputs": [
        {
          "internalType": "string",
          "name": "",
          "type": "string"
        }
      ],
      "payable": false,
      "stateMutability": "view",
      "type": "function"
    },
    {
      "constant": false,
      "inputs": [
        {
          "internalType": "address",
          "name": "newOwner",
          "type": "address"
        }
      ],
      "name": "transferOwnership2",
      "outputs": [],
      "payable": false,
      "stateMutability": "nonpayable",
      "type": "function"
    },
    {
      "constant": true,
      "inputs": [
        {
          "internalType": "uint256",
          "name": "tokenId",
          "type": "uint256"
        }
      ],
      "name": "tokenTimeSlot",
      "outputs": [
        {
          "internalType": "address",
          "name": "minter",
          "type": "address"
        },
        {
          "internalType": "address",
          "name": "owner",
          "type": "address"
        },
        {
          "internalType": "string",
          "name": "contentId",
          "type": "string"
        },
        {
          "internalType": "string",
          "name": "propertyName",
          "type": "string"
        },
        {
          "internalType": "uint48",
          "name": "startTime",
          "type": "uint48"
        },
        {
          "internalType": "uint48",
          "name": "endTime",
          "type": "uint48"
        },
        {
          "internalType": "uint48",
          "name": "auctionEndTime",
          "type": "uint48"
        },
        {
          "internalType": "uint16",
          "name": "category",
          "type": "uint16"
        },
        {
          "internalType": "uint32",
          "name": "federationId",
          "type": "uint32"
        }
      ],
      "payable": false,
      "stateMutability": "view",
      "type": "function"
    },
    {
      "constant": false,
      "inputs": [
        {
          "internalType": "address",
          "name": "newOwner",
          "type": "address"
        }
      ],
      "name": "transferOwnership1",
      "outputs": [],
      "payable": false,
      "stateMutability": "nonpayable",
      "type": "function"
    },
    {
      "constant": true,
      "inputs": [
        {
          "internalType": "address",
          "name": "tokenOwner",
          "type": "address"
        },
        {
          "internalType": "address",
          "name": "operator",
          "type": "address"
        }
      ],
      "name": "isApprovedForAll",
      "outputs": [
        {
          "internalType": "bool",
          "name": "",
          "type": "bool"
        }
      ],
      "payable": false,
      "stateMutability": "view",
      "type": "function"
    },
    {
      "inputs": [
        {
          "internalType": "string",
          "name": "name",
          "type": "string"
        },
        {
          "internalType": "string",
          "name": "symbol",
          "type": "string"
        },
        {
          "internalType": "address",
          "name": "registryAddress",
          "type": "address"
        }
      ],
      "payable": false,
      "stateMutability": "nonpayable",
      "type": "constructor"
    },
    {
      "anonymous": false,
      "inputs": [
        {
          "indexed": true,
          "internalType": "address",
          "name": "from",
          "type": "address"
        },
        {
          "indexed": true,
          "internalType": "address",
          "name": "to",
          "type": "address"
        },
        {
          "indexed": true,
          "internalType": "uint256",
          "name": "tokenId",
          "type": "uint256"
        }
      ],
      "name": "Transfer",
      "type": "event"
    },
    {
      "anonymous": false,
      "inputs": [
        {
          "indexed": true,
          "internalType": "address",
          "name": "tokenOwner",
          "type": "address"
        },
        {
          "indexed": true,
          "internalType": "address",
          "name": "approved",
          "type": "address"
        },
        {
          "indexed": true,
          "internalType": "uint256",
          "name": "tokenId",
          "type": "uint256"
        }
      ],
      "name": "Approval",
      "type": "event"
    },
    {
      "anonymous": false,
      "inputs": [
        {
          "indexed": true,
          "internalType": "address",
          "name": "tokenOwner",
          "type": "address"
        },
        {
          "indexed": true,
          "internalType": "address",
          "name": "operator",
          "type": "address"
        },
        {
          "indexed": false,
          "internalType": "bool",
          "name": "approved",
          "type": "bool"
        }
      ],
      "name": "ApprovalForAll",
      "type": "event"
    },
    {
      "constant": true,
      "inputs": [],
      "name": "name",
      "outputs": [
        {
          "internalType": "string",
          "name": "",
          "type": "string"
        }
      ],
      "payable": false,
      "stateMutability": "view",
      "type": "function"
    },
    {
      "constant": true,
      "inputs": [],
      "name": "symbol",
      "outputs": [
        {
          "internalType": "string",
          "name": "",
          "type": "string"
        }
      ],
      "payable": false,
      "stateMutability": "view",
      "type": "function"
    }
  ],
  "bytecode": "0x60806040526002805460ff60a01b19169055655af3107a40006003553480156200002857600080fd5b5060405162004586380380620045868339810160408190526200004b91620003ff565b6200007f7f01ffc9a7000000000000000000000000000000000000000000000000000000006001600160e01b036200018f16565b620000b37f80ac58cd000000000000000000000000000000000000000000000000000000006001600160e01b036200018f16565b620000c66001600160e01b036200023416565b600180546001600160a01b0319166001600160a01b0392909216919091179055620000f062000234565b600280546001600160a01b0319166001600160a01b0392909216919091179055825162000125906010906020860190620002ee565b5081516200013b906011906020850190620002ee565b50620001707f5b5e139f000000000000000000000000000000000000000000000000000000006001600160e01b036200018f16565b62000186816200023960201b62001d201760201c565b505050620005d3565b7fffffffff000000000000000000000000000000000000000000000000000000008082161415620001f7576040517f08c379a0000000000000000000000000000000000000000000000000000000008152600401620001ee90620004f8565b60405180910390fd5b7fffffffff00000000000000000000000000000000000000000000000000000000166000908152602081905260409020805460ff19166001179055565b335b90565b6001546001600160a01b0316620002586001600160e01b036200023416565b6001600160a01b031614806200029357506002546001600160a01b0316620002886001600160e01b036200023416565b6001600160a01b0316145b620002cc576040517f08c379a0000000000000000000000000000000000000000000000000000000008152600401620001ee906200050a565b600480546001600160a01b0319166001600160a01b0392909216919091179055565b828054600181600116156101000203166002900490600052602060002090601f016020900481019282601f106200033157805160ff191683800117855562000361565b8280016001018555821562000361579182015b828111156200036157825182559160200191906001019062000344565b506200036f92915062000373565b5090565b6200023691905b808211156200036f57600081556001016200037a565b80516200039d81620005b9565b92915050565b600082601f830112620003b557600080fd5b8151620003cc620003c68262000543565b6200051c565b91508082526020830160208301858383011115620003e957600080fd5b620003f683828462000586565b50505092915050565b6000806000606084860312156200041557600080fd5b83516001600160401b038111156200042c57600080fd5b6200043a86828701620003a3565b93505060208401516001600160401b038111156200045757600080fd5b6200046586828701620003a3565b9250506040620004788682870162000390565b9150509250925092565b600062000491601c836200056b565b7f4552433136353a20696e76616c696420696e7465726661636520696400000000815260200192915050565b6000620004cc6013836200056b565b7f4f4e4c595f434f4e54524143545f4f574e455200000000000000000000000000815260200192915050565b602080825281016200039d8162000482565b602080825281016200039d81620004bd565b6040518181016001600160401b03811182821017156200053b57600080fd5b604052919050565b60006001600160401b038211156200055a57600080fd5b506020601f91909101601f19160190565b90815260200190565b60006001600160a01b0382166200039d565b60005b83811015620005a357818101518382015260200162000589565b83811115620005b3576000848401525b50505050565b620005c48162000574565b8114620005d057600080fd5b50565b613fa380620005e36000396000f3fe6080604052600436106102255760003560e01c806363e1a838116101235780639ce7dca3116100ab578063c87b56dd1161006f578063c87b56dd14610603578063e2b375a914610623578063e5c2492414610643578063e982d5a914610678578063e985e9c51461069857610225565b80639ce7dca314610570578063a22cb46514610583578063a4ede128146105a3578063b88d4fde146105c3578063c57a8825146105e357610225565b80637b103999116100f25780637b103999146104e457806384017e52146105065780638456cb59146105265780638462151c1461053b57806395d89b411461055b57610225565b806363e1a8381461046f57806370a082311461048257806373688914146104a25780637affcb9a146104b757610225565b80632a0c7799116101b157806344c140d01161017557806344c140d0146103fd57806352709725146104105780635c975abb146104255780635fd8c7101461043a5780636352211e1461044f57610225565b80632a0c7799146103685780633d857187146103955780633f4ba83a146103a857806342842e0e146103bd57806342966c68146103dd57610225565b806313966db5116101f857806313966db5146102d1578063180b9e3f146102f357806318160ddd146103205780631c7029811461033557806323b872dd1461034857610225565b806301ffc9a71461022a57806306fdde0314610260578063081812fc14610282578063095ea7b3146102af575b600080fd5b34801561023657600080fd5b5061024a6102453660046132e1565b6106b8565b6040516102579190613caa565b60405180910390f35b34801561026c57600080fd5b506102756106db565b6040516102579190613cc6565b34801561028e57600080fd5b506102a261029d3660046134df565b610772565b6040516102579190613b60565b3480156102bb57600080fd5b506102cf6102ca366004613293565b6107be565b005b3480156102dd57600080fd5b506102e661095b565b6040516102579190613e07565b3480156102ff57600080fd5b5061031361030e3660046134df565b610961565b6040516102579190613e15565b34801561032c57600080fd5b506102e6610979565b6102e661034336600461331d565b61098a565b34801561035457600080fd5b506102cf610363366004613147565b610af5565b34801561037457600080fd5b506103886103833660046130ef565b610c11565b6040516102579190613c99565b6102e66103a33660046133e8565b610d19565b3480156103b457600080fd5b506102cf610e8f565b3480156103c957600080fd5b506102cf6103d8366004613147565b610f13565b3480156103e957600080fd5b506102cf6103f83660046134df565b610f33565b6102e661040b3660046133e8565b611053565b34801561041c57600080fd5b506102a261118f565b34801561043157600080fd5b5061024a61119e565b34801561044657600080fd5b506102cf6111ae565b34801561045b57600080fd5b506102a261046a3660046134df565b61128a565b6102e661047d36600461331d565b6112a5565b34801561048e57600080fd5b506102e661049d3660046130ef565b6113ca565b3480156104ae57600080fd5b506102a2611419565b3480156104c357600080fd5b506104d76104d236600461323d565b611428565b6040516102579190613c88565b3480156104f057600080fd5b506104f96115c8565b6040516102579190613cb8565b34801561051257600080fd5b506102cf6105213660046134df565b6115d7565b34801561053257600080fd5b506102cf61163b565b34801561054757600080fd5b506103886105563660046130ef565b6116c6565b34801561056757600080fd5b50610275611780565b6102e661057e3660046133e8565b6117e1565b34801561058f57600080fd5b506102cf61059e36600461320d565b611906565b3480156105af57600080fd5b506104d76105be3660046130ef565b611a8c565b3480156105cf57600080fd5b506102cf6105de366004613194565b611c02565b3480156105ef57600080fd5b506102cf6105fe3660046130ef565b611d20565b34801561060f57600080fd5b5061027561061e3660046134df565b611da1565b34801561062f57600080fd5b506102cf61063e3660046130ef565b611e67565b34801561064f57600080fd5b5061066361065e3660046134df565b611ef4565b60405161025799989796959493929190613b6e565b34801561068457600080fd5b506102cf6106933660046130ef565b61213b565b3480156106a457600080fd5b5061024a6106b336600461310d565b6121c9565b6001600160e01b0319811660009081526020819052604090205460ff165b919050565b60108054604080516020601f60026000196101006001881615020190951694909404938401819004810282018101909252828152606093909290918301828280156107675780601f1061073c57610100808354040283529160200191610767565b820191906000526020600020905b81548152906001019060200180831161074a57829003601f168201915b505050505090505b90565b600061077d826121f7565b6107a25760405162461bcd60e51b815260040161079990613db7565b60405180910390fd5b506000908152600e60205260409020546001600160a01b031690565b6004546001600160a01b0316634039ad0d6107d7612214565b6040518263ffffffff1660e01b81526004016107f39190613b60565b60206040518083038186803b15801561080b57600080fd5b505afa15801561081f573d6000803e3d6000fd5b505050506040513d601f19601f8201168201806040525061084391908101906132c3565b61085f5760405162461bcd60e51b815260040161079990613dc7565b600254600160a01b900460ff161561087657600080fd5b60006108818261128a565b9050806001600160a01b0316836001600160a01b031614156108b55760405162461bcd60e51b815260040161079990613d27565b806001600160a01b03166108c7612214565b6001600160a01b031614806108e357506108e3816106b3612214565b6108ff5760405162461bcd60e51b815260040161079990613df7565b6000828152600e602052604080822080546001600160a01b0319166001600160a01b0387811691821790925591518593918516917f8c5be1e5ebec7d5bd14f71427d1e84f3dd0314c0f7b2291e5b200ac8c7c3b92591a4505050565b60035481565b60096020526000908152604090205463ffffffff1681565b60006109856005612218565b905090565b6004546000906001600160a01b031663aa271e1a6109a6612214565b6040518263ffffffff1660e01b81526004016109c29190613b60565b60206040518083038186803b1580156109da57600080fd5b505afa1580156109ee573d6000803e3d6000fd5b505050506040513d601f19601f82011682018060405250610a1291908101906132c3565b610a2e5760405162461bcd60e51b815260040161079990613dd7565b600254600160a01b900460ff1615610a4557600080fd5b600354341015610a5457600080fd5b60008263ffffffff1611610a7a5760405162461bcd60e51b815260040161079990613d67565b610a868887878761221c565b610aa25760405162461bcd60e51b815260040161079990613da7565b6000610ab4610aaf612214565b612324565b9050610ac5818a8a8a8a8a8a612347565b6000818152600960205260409020805463ffffffff851663ffffffff199091161790559050979650505050505050565b600254600160a01b900460ff1615610b0c57600080fd5b610b1d610b17612214565b826125dd565b610b395760405162461bcd60e51b815260040161079990613de7565b6000818152600a60205260408120546001600160a01b031690610b5b8361128a565b600480546040516354a58b9b60e11b81529293506001600160a01b03169163a94b173691610b93918991899189918991899101613c02565b60206040518083038186803b158015610bab57600080fd5b505afa158015610bbf573d6000803e3d6000fd5b505050506040513d601f19601f82011682018060405250610be391908101906132c3565b610bff5760405162461bcd60e51b815260040161079990613de7565b610c0a85858561265a565b5050505050565b60606001600160a01b038216610c395760405162461bcd60e51b815260040161079990613d07565b6001600160a01b0382166000908152600860205260408120610c5a90612218565b905080610c7c5760408051600080825260208201909252905b509150506106d6565b606081604051908082528060200260200182016040528015610ca8578160200160208202803883390190505b5090506000610cb5610979565b9050600060015b828111610d0c576000818152600a60205260409020546001600160a01b0388811691161415610d045780848381518110610cf257fe5b60209081029190910101526001909101905b600101610cbc565b83955050505050506106d6565b6004546000906001600160a01b031663aa271e1a610d35612214565b6040518263ffffffff1660e01b8152600401610d519190613b60565b60206040518083038186803b158015610d6957600080fd5b505afa158015610d7d573d6000803e3d6000fd5b505050506040513d601f19601f82011682018060405250610da191908101906132c3565b610dbd5760405162461bcd60e51b815260040161079990613dd7565b600254600160a01b900460ff1615610dd457600080fd5b600354341015610de357600080fd5b60008363ffffffff1611610e095760405162461bcd60e51b815260040161079990613d67565b610e158988888861221c565b610e315760405162461bcd60e51b815260040161079990613da7565b6000610e43610e3e612214565b612760565b9050610e54818b8b8b8b8b8b612347565b610e5e818461283f565b6000818152600960205260409020805463ffffffff861663ffffffff19909116179055905098975050505050505050565b6001546001600160a01b0316610ea3612214565b6001600160a01b03161480610ed257506002546001600160a01b0316610ec7612214565b6001600160a01b0316145b610eee5760405162461bcd60e51b815260040161079990613d77565b600254600160a01b900460ff16610f0457600080fd5b6002805460ff60a01b19169055565b610f2e83838360405180602001604052806000815250611c02565b505050565b600254600160a01b900460ff1615610f4a57600080fd5b6000610f558261128a565b6000838152600a60205260409020549091506001600160a01b0390811690821681141561101d576004546001600160a01b031663aa271e1a610f95612214565b6040518263ffffffff1660e01b8152600401610fb19190613b60565b60206040518083038186803b158015610fc957600080fd5b505afa158015610fdd573d6000803e3d6000fd5b505050506040513d601f19601f8201168201806040525061100191908101906132c3565b61101d5760405162461bcd60e51b815260040161079990613d17565b61102e611028612214565b846125dd565b61104a5760405162461bcd60e51b815260040161079990613d17565b610f2e83612883565b6004546000906001600160a01b031663aa271e1a61106f612214565b6040518263ffffffff1660e01b815260040161108b9190613b60565b60206040518083038186803b1580156110a357600080fd5b505afa1580156110b7573d6000803e3d6000fd5b505050506040513d601f19601f820116820180604052506110db91908101906132c3565b6110f75760405162461bcd60e51b815260040161079990613dd7565b600254600160a01b900460ff161561110e57600080fd5b60035434101561111d57600080fd5b60008363ffffffff16116111435760405162461bcd60e51b815260040161079990613d67565b61114f8988888861221c565b61116b5760405162461bcd60e51b815260040161079990613da7565b600061117e611178612214565b84612895565b9050610e5e818b8b8b8b8b8b612347565b6002546001600160a01b031681565b600254600160a01b900460ff1681565b6001546001600160a01b03166111c2612214565b6001600160a01b031614806111f157506002546001600160a01b03166111e6612214565b6001600160a01b0316145b61120d5760405162461bcd60e51b815260040161079990613d77565b6040513031906000903390839061122390613b55565b60006040518083038185875af1925050503d8060008114611260576040519150601f19603f3d011682016040523d82523d6000602084013e611265565b606091505b50509050806112865760405162461bcd60e51b815260040161079990613d37565b5050565b6000908152600660205260409020546001600160a01b031690565b6004546000906001600160a01b031663aa271e1a6112c1612214565b6040518263ffffffff1660e01b81526004016112dd9190613b60565b60206040518083038186803b1580156112f557600080fd5b505afa158015611309573d6000803e3d6000fd5b505050506040513d601f19601f8201168201806040525061132d91908101906132c3565b6113495760405162461bcd60e51b815260040161079990613dd7565b600254600160a01b900460ff161561136057600080fd5b60035434101561136f57600080fd5b60008263ffffffff16116113955760405162461bcd60e51b815260040161079990613d67565b6113a18887878761221c565b6113bd5760405162461bcd60e51b815260040161079990613da7565b6000610ab4610e3e612214565b60006001600160a01b0382166113f25760405162461bcd60e51b815260040161079990613d07565b6001600160a01b038216600090815260076020526040902061141390612218565b92915050565b6001546001600160a01b031681565b6001600160a01b0383166000908152600b602052604090819020905160609182916114569086908690613b3c565b9081526020016040518091039020805480602002602001604051908101604052809291908181526020016000905b8282101561153b57600084815260209081902060408051918501805460026001821615610100026000190190911604601f81018590048502840183018352938301848152929390928492909184918401828280156115235780601f106114f857610100808354040283529160200191611523565b820191906000526020600020905b81548152906001019060200180831161150657829003601f168201915b50505050508152505081526020019060010190611484565b5050505090506060815160405190808252806020026020018201604052801561157857816020015b60608152602001906001900390816115635790505b50905060005b82518110156115be5782818151811061159357fe5b6020026020010151600001518282815181106115ab57fe5b602090810291909101015260010161157e565b5095945050505050565b6004546001600160a01b031681565b6001546001600160a01b03166115eb612214565b6001600160a01b0316148061161a57506002546001600160a01b031661160f612214565b6001600160a01b0316145b6116365760405162461bcd60e51b815260040161079990613d77565b600355565b6001546001600160a01b031661164f612214565b6001600160a01b0316148061167e57506002546001600160a01b0316611673612214565b6001600160a01b0316145b61169a5760405162461bcd60e51b815260040161079990613d77565b600254600160a01b900460ff16156116b157600080fd5b6002805460ff60a01b1916600160a01b179055565b606060006116d3836113ca565b9050806116f0576040805160008082526020820190925290610c73565b60608160405190808252806020026020018201604052801561171c578160200160208202803883390190505b5090506000611729610979565b9050600060015b828111610d0c576000818152600660205260409020546001600160a01b0388811691161415611778578084838151811061176657fe5b60209081029190910101526001909101905b600101611730565b60118054604080516020601f60026000196101006001881615020190951694909404938401819004810282018101909252828152606093909290918301828280156107675780601f1061073c57610100808354040283529160200191610767565b6004546000906001600160a01b031663aa271e1a6117fd612214565b6040518263ffffffff1660e01b81526004016118199190613b60565b60206040518083038186803b15801561183157600080fd5b505afa158015611845573d6000803e3d6000fd5b505050506040513d601f19601f8201168201806040525061186991908101906132c3565b6118855760405162461bcd60e51b815260040161079990613dd7565b600254600160a01b900460ff161561189c57600080fd5b6003543410156118ab57600080fd5b60008363ffffffff16116118d15760405162461bcd60e51b815260040161079990613d67565b6118dd8988888861221c565b6118f95760405162461bcd60e51b815260040161079990613da7565b6000610e43610aaf612214565b6004546001600160a01b0316634039ad0d61191f612214565b6040518263ffffffff1660e01b815260040161193b9190613b60565b60206040518083038186803b15801561195357600080fd5b505afa158015611967573d6000803e3d6000fd5b505050506040513d601f19601f8201168201806040525061198b91908101906132c3565b6119a75760405162461bcd60e51b815260040161079990613dc7565b600254600160a01b900460ff16156119be57600080fd5b6119c6612214565b6001600160a01b0316826001600160a01b031614156119f75760405162461bcd60e51b815260040161079990613d57565b80600f6000611a04612214565b6001600160a01b03908116825260208083019390935260409182016000908120918716808252919093529120805460ff191692151592909217909155611a48612214565b6001600160a01b03167f17307eab39ab6107e8899845ad3d59bd9653f200f220920489ca2b5937696c3183604051611a809190613caa565b60405180910390a35050565b6001600160a01b0381166000908152600c602090815260408083208054825181850281018501909352808352606094859484015b82821015611b7757600084815260209081902060408051918501805460026001821615610100026000190190911604601f8101859004850284018301835293830184815292939092849290918491840182828015611b5f5780601f10611b3457610100808354040283529160200191611b5f565b820191906000526020600020905b815481529060010190602001808311611b4257829003601f168201915b50505050508152505081526020019060010190611ac0565b50505050905060608151604051908082528060200260200182016040528015611bb457816020015b6060815260200190600190039081611b9f5790505b50905060005b8251811015611bfa57828181518110611bcf57fe5b602002602001015160000151828281518110611be757fe5b6020908102919091010152600101611bba565b509392505050565b600254600160a01b900460ff1615611c1957600080fd5b611c2a611c24612214565b836125dd565b611c465760405162461bcd60e51b815260040161079990613de7565b6000828152600a60205260408120546001600160a01b031690611c688461128a565b600480546040516354a58b9b60e11b81529293506001600160a01b03169163a94b173691611ca0918a918a918a918991899101613c02565b60206040518083038186803b158015611cb857600080fd5b505afa158015611ccc573d6000803e3d6000fd5b505050506040513d601f19601f82011682018060405250611cf091908101906132c3565b611d0c5760405162461bcd60e51b815260040161079990613de7565b611d18868686866128cc565b505050505050565b6001546001600160a01b0316611d34612214565b6001600160a01b03161480611d6357506002546001600160a01b0316611d58612214565b6001600160a01b0316145b611d7f5760405162461bcd60e51b815260040161079990613d77565b600480546001600160a01b0319166001600160a01b0392909216919091179055565b6060611dac826121f7565b611dc85760405162461bcd60e51b815260040161079990613db7565b6000828152600d602090815260409182902080548351601f600260001961010060018616150201909316929092049182018490048402810184019094528084529091830182828015611e5b5780601f10611e3057610100808354040283529160200191611e5b565b820191906000526020600020905b815481529060010190602001808311611e3e57829003601f168201915b50505050509050919050565b6001546001600160a01b0316611e7b612214565b6001600160a01b03161480611eaa57506002546001600160a01b0316611e9f612214565b6001600160a01b0316145b611ec65760405162461bcd60e51b815260040161079990613d77565b6001600160a01b03811615611ef157600280546001600160a01b0319166001600160a01b0383161790555b50565b6000806060806000806000806000611f0b8a6121f7565b611f275760405162461bcd60e51b815260040161079990613db7565b611f2f612eda565b60008b8152600a6020908152604091829020825160e08101845281546001600160a01b03168152600180830180548651600261010094831615949094026000190190911692909204601f8101869004860283018601909652858252919492938581019391929190830182828015611fe75780601f10611fbc57610100808354040283529160200191611fe7565b820191906000526020600020905b815481529060010190602001808311611fca57829003601f168201915b5050509183525050600282810180546040805160206001841615610100026000190190931694909404601f810183900483028501830190915280845293810193908301828280156120795780601f1061204e57610100808354040283529160200191612079565b820191906000526020600020905b81548152906001019060200180831161205c57829003601f168201915b50505091835250506003919091015465ffffffffffff808216602080850191909152660100000000000083048216604080860191909152600160601b84049092166060850152600160901b90920461ffff1660809093019290925260008e815260099091522054815191925063ffffffff16906120f58d61128a565b83602001518460400151856060015186608001518760a001518860c00151888696508595509a509a509a509a509a509a509a509a509a5050509193959799909294969850565b6001546001600160a01b031661214f612214565b6001600160a01b0316148061217e57506002546001600160a01b0316612173612214565b6001600160a01b0316145b61219a5760405162461bcd60e51b815260040161079990613d77565b6001600160a01b03811615611ef157600180546001600160a01b0383166001600160a01b031990911617905550565b6001600160a01b039182166000908152600f6020908152604080832093909416825291909152205460ff1690565b6000908152600660205260409020546001600160a01b0316151590565b3390565b5490565b600480546040516323dd3a3d60e11b81526000926001600160a01b03909216916347ba747a9161224e91899101613cc6565b60206040518083038186803b15801561226657600080fd5b505afa15801561227a573d6000803e3d6000fd5b505050506040513d601f19601f8201168201806040525061229e91908101906132c3565b6122ba5760405162461bcd60e51b815260040161079990613d47565b8165ffffffffffff168465ffffffffffff16116122e95760405162461bcd60e51b815260040161079990613d87565b8365ffffffffffff168365ffffffffffff16116123185760405162461bcd60e51b815260040161079990613d97565b5060015b949350505050565b6000806123408360405180602001604052806000815250612895565b9392505050565b612350876121f7565b61236c5760405162461bcd60e51b815260040161079990613db7565b612374612eda565b6040518060e00160405280612387612214565b6001600160a01b03908116825260208083018b905260408084018b905265ffffffffffff8a811660608601528981166080860152881660a085015261ffff871660c09094019390935260008c8152600a825292909220835181546001600160a01b03191692169190911781558282015180519394508493919261241292600185019290910190612f17565b506040820151805161242e916002840191602090910190612f17565b50606082015160039091018054608084015160a085015160c09095015161ffff16600160901b0273ffff0000000000000000000000000000000000001965ffffffffffff968716600160601b0271ffffffffffff000000000000000000000000199388166601000000000000026bffffffffffff000000000000199890971665ffffffffffff199095169490941796909616949094171617929092161790556124d687612905565b61253f57600c60006124e6612214565b6001600160a01b031681526020808201929092526040908101600090812082518085019093528a835280546001810180835591835291849020835180519295919093019261253a9284929190910190612f17565b505050505b6125498787612a30565b6125d357600b6000612559612214565b6001600160a01b03166001600160a01b03168152602001908152602001600020876040516125879190613b49565b9081526040805191829003602090810183208382019092528883528154600181018084556000938452928290208451805194959491909201926125ce928492910190612f17565b505050505b5050505050505050565b60006125e8826121f7565b6126045760405162461bcd60e51b815260040161079990613db7565b600061260f8361128a565b9050806001600160a01b0316846001600160a01b0316148061264a5750836001600160a01b031661263f84610772565b6001600160a01b0316145b8061231c575061231c81856121c9565b826001600160a01b031661266d8261128a565b6001600160a01b0316146126935760405162461bcd60e51b815260040161079990613de7565b6001600160a01b0382166126b95760405162461bcd60e51b815260040161079990613cf7565b6126c281612b77565b6001600160a01b03831660009081526007602052604090206126e390612bb2565b6001600160a01b038216600090815260076020526040902061270490612bc9565b60008181526006602052604080822080546001600160a01b0319166001600160a01b0386811691821790925591518493918716917fddf252ad1be2c89b69c2b068fc378daa952ba7f163c4a11628f55a4df523b3ef91a4505050565b60006001600160a01b0382166127885760405162461bcd60e51b815260040161079990613cd7565b6127926005612bc9565b600061279e6005612218565b600081815260066020908152604080832080546001600160a01b0319166001600160a01b0389169081179091558352600790915290209091506127e090612bc9565b6001600160a01b038316600090815260086020526040902061280190612bc9565b60405181906001600160a01b038516906000907fddf252ad1be2c89b69c2b068fc378daa952ba7f163c4a11628f55a4df523b3ef908290a492915050565b612848826121f7565b6128645760405162461bcd60e51b815260040161079990613db7565b6000828152600d602090815260409091208251610f2e92840190612f17565b611ef161288f8261128a565b82612bd2565b6000806128a184612760565b90506128b06000858386612d11565b6123405760405162461bcd60e51b815260040161079990613ce7565b6128d784848461265a565b6128e384848484612d11565b6128ff5760405162461bcd60e51b815260040161079990613ce7565b50505050565b336000908152600c602090815260408083208054825181850281018501909352808352606093859084015b828210156129e757600084815260209081902060408051918501805460026001821615610100026000190190911604601f81018590048502840183018352938301848152929390928492909184918401828280156129cf5780601f106129a4576101008083540402835291602001916129cf565b820191906000526020600020905b8154815290600101906020018083116129b257829003601f168201915b50505050508152505081526020019060010190612930565b5092935060009250829150505b8251811015611bfa57612a1e85848381518110612a0d57fe5b602002602001015160000151612ddc565b15612a2857600191505b6001016129f4565b336000908152600b6020526040808220905160609190612a51908690613b49565b9081526020016040518091039020805480602002602001604051908101604052809291908181526020016000905b82821015612b3657600084815260209081902060408051918501805460026001821615610100026000190190911604601f8101859004850284018301835293830184815292939092849290918491840182828015612b1e5780601f10612af357610100808354040283529160200191612b1e565b820191906000526020600020905b815481529060010190602001808311612b0157829003601f168201915b50505050508152505081526020019060010190612a7f565b5092935060009250829150505b8251811015612b6e57612b5c85848381518110612a0d57fe5b15612b6657600191505b600101612b43565b50949350505050565b6000818152600e60205260409020546001600160a01b031615611ef1576000908152600e6020526040902080546001600160a01b0319169055565b8054612bc590600163ffffffff612e3516565b9055565b80546001019055565b816001600160a01b0316612be58261128a565b6001600160a01b031614612c0b5760405162461bcd60e51b815260040161079990613d17565b612c1481612b77565b6001600160a01b0382166000908152600760205260409020612c3590612bb2565b600081815260066020908152604080832080546001600160a01b0319169055600d9091529020546002600019600183161561010002019091160415612c8b576000818152600d60205260408120612c8b91612f95565b6000818152600a6020526040812080546001600160a01b031916815590612cb56001830182612f95565b612cc3600283016000612f95565b5060030180546001600160a01b031916905560405181906000906001600160a01b038516907fddf252ad1be2c89b69c2b068fc378daa952ba7f163c4a11628f55a4df523b3ef908390a45050565b6000612d25846001600160a01b0316612e77565b612d315750600161231c565b6000846001600160a01b031663150b7a02612d4a612214565b8887876040518563ffffffff1660e01b8152600401612d6c9493929190613c4e565b602060405180830381600087803b158015612d8657600080fd5b505af1158015612d9a573d6000803e3d6000fd5b505050506040513d601f19601f82011682018060405250612dbe91908101906132ff565b6001600160e01b031916630a85bd0160e11b14915050949350505050565b600081604051602001612def9190613b49565b6040516020818303038152906040528051906020012083604051602001612e169190613b49565b6040516020818303038152906040528051906020012014905092915050565b600061234083836040518060400160405280601e81526020017f536166654d6174683a207375627472616374696f6e206f766572666c6f770000815250612eae565b6000813f7fc5d2460186f7233c927e7db2dcc703c0e500b653ca82273b7bfad8045d85a470811580159061231c5750141592915050565b60008184841115612ed25760405162461bcd60e51b81526004016107999190613cc6565b505050900390565b6040805160e08101825260008082526060602083018190529282018390529181018290526080810182905260a0810182905260c081019190915290565b828054600181600116156101000203166002900490600052602060002090601f016020900481019282601f10612f5857805160ff1916838001178555612f85565b82800160010185558215612f85579182015b82811115612f85578251825591602001919060010190612f6a565b50612f91929150612fd5565b5090565b50805460018160011615610100020316600290046000825580601f10612fbb5750611ef1565b601f016020900490600052602060002090810190611ef191905b61076f91905b80821115612f915760008155600101612fdb565b803561141381613f16565b803561141381613f2a565b805161141381613f2a565b803561141381613f33565b805161141381613f33565b600082601f83011261303757600080fd5b813561304a61304582613e4a565b613e23565b9150808252602083016020830185838301111561306657600080fd5b613071838284613ed4565b50505092915050565b60008083601f84011261308c57600080fd5b50813567ffffffffffffffff8111156130a457600080fd5b6020830191508360018202830111156130bc57600080fd5b9250929050565b803561141381613f3c565b803561141381613f45565b803561141381613f4e565b803561141381613f57565b60006020828403121561310157600080fd5b600061231c8484612fef565b6000806040838503121561312057600080fd5b600061312c8585612fef565b925050602061313d85828601612fef565b9150509250929050565b60008060006060848603121561315c57600080fd5b60006131688686612fef565b935050602061317986828701612fef565b925050604061318a868287016130ce565b9150509250925092565b600080600080608085870312156131aa57600080fd5b60006131b68787612fef565b94505060206131c787828801612fef565b93505060406131d8878288016130ce565b925050606085013567ffffffffffffffff8111156131f557600080fd5b61320187828801613026565b91505092959194509250565b6000806040838503121561322057600080fd5b600061322c8585612fef565b925050602061313d85828601612ffa565b60008060006040848603121561325257600080fd5b600061325e8686612fef565b935050602084013567ffffffffffffffff81111561327b57600080fd5b6132878682870161307a565b92509250509250925092565b600080604083850312156132a657600080fd5b60006132b28585612fef565b925050602061313d858286016130ce565b6000602082840312156132d557600080fd5b600061231c8484613005565b6000602082840312156132f357600080fd5b600061231c8484613010565b60006020828403121561331157600080fd5b600061231c848461301b565b600080600080600080600060e0888a03121561333857600080fd5b873567ffffffffffffffff81111561334f57600080fd5b61335b8a828b01613026565b975050602088013567ffffffffffffffff81111561337857600080fd5b6133848a828b01613026565b96505060406133958a828b016130e4565b95505060606133a68a828b016130e4565b94505060806133b78a828b016130e4565b93505060a06133c88a828b016130c3565b92505060c06133d98a828b016130d9565b91505092959891949750929550565b600080600080600080600080610100898b03121561340557600080fd5b883567ffffffffffffffff81111561341c57600080fd5b6134288b828c01613026565b985050602089013567ffffffffffffffff81111561344557600080fd5b6134518b828c01613026565b97505060406134628b828c016130e4565b96505060606134738b828c016130e4565b95505060806134848b828c016130e4565b94505060a06134958b828c016130c3565b93505060c06134a68b828c016130d9565b92505060e089013567ffffffffffffffff8111156134c357600080fd5b6134cf8b828c01613026565b9150509295985092959890939650565b6000602082840312156134f157600080fd5b600061231c84846130ce565b600061234083836135fc565b60006135158383613b21565b505060200190565b61352681613e85565b82525050565b600061353782613e78565b6135418185613e7c565b93508360208202850161355385613e72565b8060005b8581101561358d578484038952815161357085826134fd565b945061357b83613e72565b60209a909a0199925050600101613557565b5091979650505050505050565b60006135a582613e78565b6135af8185613e7c565b93506135ba83613e72565b8060005b838110156135e85781516135d28882613509565b97506135dd83613e72565b9250506001016135be565b509495945050505050565b61352681613e90565b600061360782613e78565b6136118185613e7c565b9350613621818560208601613ee0565b61362a81613f0c565b9093019392505050565b61352681613ec9565b600061364983856106d6565b9350613656838584613ed4565b50500190565b600061366782613e78565b61367181856106d6565b9350613681818560208601613ee0565b9290920192915050565b6000613698601483613e7c565b7f4d494e545f544f5f5a45524f5f41444452455353000000000000000000000000815260200192915050565b60006136d1602a83613e7c565b7f5452414e534645525f544f5f4e4f4e5f45524337323152454345495645525f4981526926a82622a6a2a72a22a960b11b602082015260400192915050565b600061371d601883613e7c565b7f5452414e534645525f544f5f5a45524f5f414444524553530000000000000000815260200192915050565b6000613756601983613e7c565b7f43414e4e4f545f51554552595f5a45524f5f4144445245535300000000000000815260200192915050565b600061378f601183613e7c565b7f554e415554484f52495a45445f4255524e000000000000000000000000000000815260200192915050565b60006137c8601583613e7c565b7f415050524f56414c5f49535f524544554e44414e540000000000000000000000815260200192915050565b6000613801600f83613e7c565b7f57495448445241575f4641494c45440000000000000000000000000000000000815260200192915050565b600061383a602383613e7c565b7f434f4e54454e545f49445f4e4f545f524547495354455245445f544f5f43414c8152622622a960e91b602082015260400192915050565b600061387f601a83613e7c565b7f43414c4c45525f43414e4e4f545f415050524f56455f53454c46000000000000815260200192915050565b60006138b8601583613e7c565b7f494e56414c49445f46454445524154494f4e5f49440000000000000000000000815260200192915050565b60006138f1601383613e7c565b7f4f4e4c595f434f4e54524143545f4f574e455200000000000000000000000000815260200192915050565b600061392a602183613e7c565b7f53544152545f54494d455f41465445525f41554354494f4e5f454e445f54494d8152604560f81b602082015260400192915050565b600061396d601983613e7c565b7f53544152545f54494d455f41465445525f454e445f54494d4500000000000000815260200192915050565b60006114136000836106d6565b60006139b3601183613e7c565b7f494e56414c49445f54494d455f534c4f54000000000000000000000000000000815260200192915050565b60006139ec601283613e7c565b7f4e4f4e5f4558495354454e545f544f4b454e0000000000000000000000000000815260200192915050565b6000613a25602583613e7c565b7f43414c4c45525f4e4f545f415554484f52495a45445f464f525f5452414445528152645f524f4c4560d81b602082015260400192915050565b6000613a6c602583613e7c565b7f43414c4c45525f4e4f545f415554484f52495a45445f464f525f4d494e5445528152645f524f4c4560d81b602082015260400192915050565b6000613ab3601583613e7c565b7f554e415554484f52495a45445f5452414e534645520000000000000000000000815260200192915050565b6000613aec601583613e7c565b7f43414c4c45525f4e4f545f415554484f52495a45440000000000000000000000815260200192915050565b61352681613ea2565b6135268161076f565b61352681613eb5565b61352681613ebe565b600061231c82848661363d565b6000612340828461365c565b600061141382613999565b60208101611413828461351d565b6101208101613b7d828c61351d565b613b8a602083018b61351d565b8181036040830152613b9c818a6135fc565b90508181036060830152613bb081896135fc565b9050613bbf6080830188613b33565b613bcc60a0830187613b33565b613bd960c0830186613b33565b613be660e0830185613b18565b613bf4610100830184613b2a565b9a9950505050505050505050565b60a08101613c10828861351d565b613c1d602083018761351d565b613c2a6040830186613b21565b613c37606083018561351d565b613c44608083018461351d565b9695505050505050565b60808101613c5c828761351d565b613c69602083018661351d565b613c766040830185613b21565b8181036060830152613c4481846135fc565b60208082528101612340818461352c565b60208082528101612340818461359a565b6020810161141382846135f3565b602081016114138284613634565b6020808252810161234081846135fc565b602080825281016114138161368b565b60208082528101611413816136c4565b6020808252810161141381613710565b6020808252810161141381613749565b6020808252810161141381613782565b60208082528101611413816137bb565b60208082528101611413816137f4565b602080825281016114138161382d565b6020808252810161141381613872565b60208082528101611413816138ab565b60208082528101611413816138e4565b602080825281016114138161391d565b6020808252810161141381613960565b60208082528101611413816139a6565b60208082528101611413816139df565b6020808252810161141381613a18565b6020808252810161141381613a5f565b6020808252810161141381613aa6565b6020808252810161141381613adf565b602081016114138284613b21565b602081016114138284613b2a565b60405181810167ffffffffffffffff81118282101715613e4257600080fd5b604052919050565b600067ffffffffffffffff821115613e6157600080fd5b506020601f91909101601f19160190565b60200190565b5190565b90815260200190565b600061141382613ea9565b151590565b6001600160e01b03191690565b61ffff1690565b6001600160a01b031690565b63ffffffff1690565b65ffffffffffff1690565b600061141382613e85565b82818337506000910152565b60005b83811015613efb578181015183820152602001613ee3565b838111156128ff5750506000910152565b601f01601f191690565b613f1f81613e85565b8114611ef157600080fd5b613f1f81613e90565b613f1f81613e95565b613f1f81613ea2565b613f1f8161076f565b613f1f81613eb5565b613f1f81613ebe56fea365627a7a723158205c43843d0b715256557a339db906a41bbbd8ff026fbca0e715b2e0e7382758456c6578706572696d656e74616cf564736f6c634300050b0040",
  "source": "pragma solidity ^0.5.11;\npragma experimental ABIEncoderV2;\n\nimport \"./ERC721.sol\";\n\n/**\n * Customized for Microsponsors\n * from Open Zeppelin's ERC721Metadata contract, which is MIT Licensed:\n * https://github.com/OpenZeppelin/openzeppelin-contracts/blob/master/contracts/token/ERC721/ERC721Metadata.sol\n\n\n  Copyright 2020 Niche Networks, Inc. (owns & operates Microsponsors.io)\n\n  Licensed under the Apache License, Version 2.0 (the \"License\");\n  you may not use this file except in compliance with the License.\n  You may obtain a copy of the License at\n\n    http://www.apache.org/licenses/LICENSE-2.0\n\n  Unless required by applicable law or agreed to in writing, software\n  distributed under the License is distributed on an \"AS IS\" BASIS,\n  WITHOUT WARRANTIES OR CONDITIONS OF ANY KIND, either express or implied.\n  See the License for the specific language governing permissions and\n  limitations under the License.\n\n*/\n\ncontract Microsponsors is ERC721 {\n\n    // Token name\n    string private _name;\n\n    // Token symbol\n    string private _symbol;\n\n\n    /*\n     *     bytes4(keccak256('name()')) == 0x06fdde03\n     *     bytes4(keccak256('symbol()')) == 0x95d89b41\n     *     bytes4(keccak256('tokenURI(uint256)')) == 0xc87b56dd\n     *\n     *     => 0x06fdde03 ^ 0x95d89b41 ^ 0xc87b56dd == 0x5b5e139f\n     */\n    bytes4 private constant _INTERFACE_ID_ERC721_METADATA = 0x5b5e139f;\n\n    /**\n     * @dev Constructor function\n     */\n    constructor (string memory name, string memory symbol, address registryAddress) public {\n\n        _name = name;\n        _symbol = symbol;\n\n        // register the supported interfaces to conform to ERC721 via ERC165\n        _registerInterface(_INTERFACE_ID_ERC721_METADATA);\n\n        super.updateRegistryAddress(registryAddress);\n\n    }\n\n    /**\n     * @dev Gets the token name.\n     * @return string representing the token name\n     */\n    function name() external view returns (string memory) {\n        return _name;\n    }\n\n    /**\n     * @dev Gets the token symbol.\n     * @return string representing the token symbol\n     */\n    function symbol() external view returns (string memory) {\n        return _symbol;\n    }\n\n}\n",
  "sourcePath": "/Users/lauren/github/erc-721/contracts/Microsponsors.sol",
  "compiler": {
    "name": "solc",
    "version": "0.5.11+commit.c082d0b4.Emscripten.clang"
  },
  "schemaVersion": "3.0.10",
  "updatedAt": "2020-01-06T20:43:13.015Z",
  "devdoc": {
    "methods": {
      "approve(address,uint256)": {
        "details": "Approves another address to transfer the given token ID The zero address indicates there is no approved address. There can only be one approved address per token at a given time. Can only be called by the token owner or an approved operator.",
        "params": {
          "to": "address to be approved for the given token ID",
          "tokenId": "uint256 ID of the token to be approved"
        }
      },
      "balanceOf(address)": {
        "details": "Gets the balance of the specified address.",
        "params": {
          "tokenOwner": "address to query the balance of"
        },
        "return": "uint256 representing the amount owned by the passed address"
      },
      "burn(uint256)": {
        "details": "Customized for MicrosponsorsBurns a specific ERC721 token.",
        "params": {
          "tokenId": "uint256 id of the ERC721 token to be burned"
        }
      },
      "constructor": {
        "details": "Constructor function"
      },
      "getApproved(uint256)": {
        "details": "Gets the approved address for a token ID, or zero if no address set Reverts if the token ID does not exist.",
        "params": {
          "tokenId": "uint256 ID of the token to query the approval of"
        },
        "return": "address currently approved for the given token ID"
      },
      "isApprovedForAll(address,address)": {
        "details": "Tells whether an operator is approved by a given token owner.",
        "params": {
          "operator": "operator address which you want to query the approval of",
          "tokenOwner": "token owner address which you want to query the approval of"
        },
        "return": "bool whether the given operator is approved by the token owner"
      },
      "mint(string,string,uint48,uint48,uint48,uint16,uint32)": {
        "details": "Function to mint tokens.",
        "return": "tokenId"
      },
      "mintWithTokenURI(string,string,uint48,uint48,uint48,uint16,uint32,string)": {
        "details": "Function to mint tokens.",
        "params": {
          "tokenURI": "The token URI of the minted token."
        },
        "return": "tokenId"
      },
      "name()": {
        "details": "Gets the token name.",
        "return": "string representing the token name"
      },
      "ownerOf(uint256)": {
        "details": "Gets the owner of the specified token ID.",
        "params": {
          "tokenId": "uint256 ID of the token to query the owner of"
        },
        "return": "address currently marked as the owner of the given token ID"
      },
      "pause()": {
        "details": "Called by contract owner to pause minting and transfers."
      },
      "safeMint(string,string,uint48,uint48,uint48,uint16,uint32)": {
        "details": "Function to safely mint tokens.",
        "return": "tokenId"
      },
      "safeMint(string,string,uint48,uint48,uint48,uint16,uint32,bytes)": {
        "details": "Function to safely mint tokens.",
        "params": {
          "data": "bytes data to send along with a safe transfer check."
        },
        "return": "tokenId"
      },
      "safeMintWithTokenURI(string,string,uint48,uint48,uint48,uint16,uint32,string)": {
        "params": {
          "tokenURI": "The token URI of the minted token."
        },
        "return": "tokenId"
      },
      "safeTransferFrom(address,address,uint256)": {
        "details": "Safely transfers the ownership of a given token ID to another address If the target address is a contract, it must implement {IERC721Receiver-onERC721Received}, which is called upon a safe transfer, and return the magic value `bytes4(keccak256(\"onERC721Received(address,address,uint256,bytes)\"))`; otherwise, the transfer is reverted. Requires the msg.sender to be the owner, approved, or operator",
        "params": {
          "from": "current owner of the token",
          "to": "address to receive the ownership of the given token ID",
          "tokenId": "uint256 ID of the token to be transferred"
        }
      },
      "safeTransferFrom(address,address,uint256,bytes)": {
        "details": "Safely transfers the ownership of a given token ID to another address If the target address is a contract, it must implement {IERC721Receiver-onERC721Received}, which is called upon a safe transfer, and return the magic value `bytes4(keccak256(\"onERC721Received(address,address,uint256,bytes)\"))`; otherwise, the transfer is reverted. Requires the _msgSender() to be the owner, approved, or operator",
        "params": {
          "data": "bytes data to send along with a safe transfer check",
          "from": "current owner of the token",
          "to": "address to receive the ownership of the given token ID",
          "tokenId": "uint256 ID of the token to be transferred"
        }
      },
      "setApprovalForAll(address,bool)": {
        "details": "Sets or unsets the approval of a given operator An operator is allowed to transfer all tokens of the sender on their behalf.",
        "params": {
          "approved": "representing the status of the approval to be set",
          "to": "operator address to set the approval"
        }
      },
      "supportsInterface(bytes4)": {
        "details": "See {IERC165-supportsInterface}.     * Time complexity O(1), guaranteed to always use less than 30 000 gas."
      },
      "symbol()": {
        "details": "Gets the token symbol.",
        "return": "string representing the token symbol"
      },
      "tokenMinterContentIds(address)": {
        "details": "Look up all Content IDs a Minter has tokenized TimeSlots for.      We're not getting this from the Registry because we want to keep      a separate record here of all Content ID's the acct has *ever*      minted tokens for. The registry is for keeping track of their      current (not necessarily past) Content ID registrations."
      },
      "tokenMinterPropertyNames(address,string)": {
        "details": "Look up all Property Names a Minter has created Time Slots for      with a particular Content ID"
      },
      "tokenURI(uint256)": {
        "params": {
          "tokenId": "uint256 ID of the token to query"
        },
        "return": "URI for a given token ID."
      },
      "tokensMintedBy(address)": {
        "details": "This method MUST NEVER be called by smart contract code. First, it's fairly expensive (it walks the entire _tokenIds array looking for tokens belonging to minter), but it also returns a dynamic array, which is only supported for web3 calls, and not contract-to-contract calls (at this time)."
      },
      "tokensOfOwner(address)": {
        "details": "This method MUST NEVER be called by smart contract code. First, it's fairly expensive (it walks the entire _tokenIds array looking for tokens belonging to owner), but it also returns a dynamic array, which is only supported for web3 calls, and not contract-to-contract calls (at this time).",
        "params": {
          "tokenOwner": "The owner whose tokens we are interested in."
        }
      },
      "totalSupply()": {
        "details": "Gets the total number of tokens ever minted."
      },
      "transferFrom(address,address,uint256)": {
        "details": "Transfers the ownership of a given token ID to another address. Usage of this method is discouraged, use {safeTransferFrom} whenever possible. Requires the msg.sender to be the owner, approved, or operator.",
        "params": {
          "from": "current owner of the token",
          "to": "address to receive the ownership of the given token ID",
          "tokenId": "uint256 ID of the token to be transferred"
        }
      },
      "transferOwnership1(address)": {
        "details": "Transfer owner (admin) functions to another address",
        "params": {
          "newOwner": "Address of new owner/ admin of contract"
        }
      },
      "unpause()": {
        "details": "Called by contract owner to unpause minting and transfers."
      },
      "updateMintFee(uint256)": {
        "details": "Update the fee (in wei) charged for minting a single token"
      },
      "updateRegistryAddress(address)": {
        "details": "Update contract address for Microsponsors Registry contract",
        "params": {
          "newAddress": "where the Registry contract lives"
        }
      },
      "withdrawBalance()": {
        "details": "Admin withdraws entire balance from contract."
      }
    }
  },
  "userdoc": {
    "methods": {
      "tokenURI(uint256)": {
        "notice": "Throws if the token ID does not exist. May return an empty string."
      },
      "tokensMintedBy(address)": {
        "notice": "Return all the Token IDs minted by a given account."
      }
    },
    "notice": "Customized for Microsponsors from Open Zeppelin's ERC721Metadata contract, which is MIT Licensed: https://github.com/OpenZeppelin/openzeppelin-contracts/blob/master/contracts/token/ERC721/ERC721Metadata.sol Copyright 2020 Niche Networks, Inc. (owns & operates Microsponsors.io) Licensed under the Apache License, Version 2.0 (the \"License\"); you may not use this file except in compliance with the License. You may obtain a copy of the License at http://www.apache.org/licenses/LICENSE-2.0 Unless required by applicable law or agreed to in writing, software distributed under the License is distributed on an \"AS IS\" BASIS, WITHOUT WARRANTIES OR CONDITIONS OF ANY KIND, either express or implied. See the License for the specific language governing permissions and limitations under the License."
  }
}