{
  "contractName": "Microsponsors",
  "abi": [
    {
      "constant": true,
      "inputs": [
        {
          "internalType": "bytes4",
          "name": "interfaceId",
          "type": "bytes4"
        }
      ],
      "name": "supportsInterface",
      "outputs": [
        {
          "internalType": "bool",
          "name": "",
          "type": "bool"
        }
      ],
      "payable": false,
      "stateMutability": "view",
      "type": "function"
    },
    {
      "constant": true,
      "inputs": [
        {
          "internalType": "uint256",
          "name": "tokenId",
          "type": "uint256"
        }
      ],
      "name": "getApproved",
      "outputs": [
        {
          "internalType": "address",
          "name": "",
          "type": "address"
        }
      ],
      "payable": false,
      "stateMutability": "view",
      "type": "function"
    },
    {
      "constant": false,
      "inputs": [
        {
          "internalType": "address",
          "name": "to",
          "type": "address"
        },
        {
          "internalType": "uint256",
          "name": "tokenId",
          "type": "uint256"
        }
      ],
      "name": "approve",
      "outputs": [],
      "payable": false,
      "stateMutability": "nonpayable",
      "type": "function"
    },
    {
      "constant": true,
      "inputs": [],
      "name": "totalSupply",
      "outputs": [
        {
          "internalType": "uint256",
          "name": "",
          "type": "uint256"
        }
      ],
      "payable": false,
      "stateMutability": "view",
      "type": "function"
    },
    {
      "constant": false,
      "inputs": [
        {
          "internalType": "address",
          "name": "from",
          "type": "address"
        },
        {
          "internalType": "address",
          "name": "to",
          "type": "address"
        },
        {
          "internalType": "uint256",
          "name": "tokenId",
          "type": "uint256"
        }
      ],
      "name": "transferFrom",
      "outputs": [],
      "payable": false,
      "stateMutability": "nonpayable",
      "type": "function"
    },
    {
      "constant": true,
      "inputs": [
        {
          "internalType": "address",
          "name": "target",
          "type": "address"
        }
      ],
      "name": "isWhitelisted",
      "outputs": [
        {
          "internalType": "bool",
          "name": "",
          "type": "bool"
        }
      ],
      "payable": false,
      "stateMutability": "view",
      "type": "function"
    },
    {
      "constant": false,
      "inputs": [],
      "name": "unpause",
      "outputs": [],
      "payable": false,
      "stateMutability": "nonpayable",
      "type": "function"
    },
    {
      "constant": false,
      "inputs": [
        {
          "internalType": "address",
          "name": "from",
          "type": "address"
        },
        {
          "internalType": "address",
          "name": "to",
          "type": "address"
        },
        {
          "internalType": "uint256",
          "name": "tokenId",
          "type": "uint256"
        }
      ],
      "name": "safeTransferFrom",
      "outputs": [],
      "payable": false,
      "stateMutability": "nonpayable",
      "type": "function"
    },
    {
      "constant": false,
      "inputs": [
        {
          "internalType": "uint256",
          "name": "tokenId",
          "type": "uint256"
        }
      ],
      "name": "burn",
      "outputs": [],
      "payable": false,
      "stateMutability": "nonpayable",
      "type": "function"
    },
    {
      "constant": false,
      "inputs": [
        {
          "internalType": "string",
          "name": "contentId",
          "type": "string"
        },
        {
          "internalType": "bytes32",
          "name": "propertyName",
          "type": "bytes32"
        },
        {
          "internalType": "uint32",
          "name": "startTime",
          "type": "uint32"
        },
        {
          "internalType": "uint32",
          "name": "endTime",
          "type": "uint32"
        },
        {
          "internalType": "uint32",
          "name": "auctionEndTime",
          "type": "uint32"
        }
      ],
      "name": "safeMint",
      "outputs": [
        {
          "internalType": "uint256",
          "name": "",
          "type": "uint256"
        }
      ],
      "payable": false,
      "stateMutability": "nonpayable",
      "type": "function"
    },
    {
      "constant": true,
      "inputs": [],
      "name": "paused",
      "outputs": [
        {
          "internalType": "bool",
          "name": "",
          "type": "bool"
        }
      ],
      "payable": false,
      "stateMutability": "view",
      "type": "function"
    },
    {
      "constant": true,
      "inputs": [
        {
          "internalType": "uint256",
          "name": "tokenId",
          "type": "uint256"
        }
      ],
      "name": "ownerOf",
      "outputs": [
        {
          "internalType": "address",
          "name": "",
          "type": "address"
        }
      ],
      "payable": false,
      "stateMutability": "view",
      "type": "function"
    },
    {
      "constant": true,
      "inputs": [
        {
          "internalType": "address",
          "name": "tokenOwner",
          "type": "address"
        }
      ],
      "name": "balanceOf",
      "outputs": [
        {
          "internalType": "uint256",
          "name": "",
          "type": "uint256"
        }
      ],
      "payable": false,
      "stateMutability": "view",
      "type": "function"
    },
    {
      "constant": false,
      "inputs": [
        {
          "internalType": "string",
          "name": "contentId",
          "type": "string"
        },
        {
          "internalType": "bytes32",
          "name": "propertyName",
          "type": "bytes32"
        },
        {
          "internalType": "uint32",
          "name": "startTime",
          "type": "uint32"
        },
        {
          "internalType": "uint32",
          "name": "endTime",
          "type": "uint32"
        },
        {
          "internalType": "uint32",
          "name": "auctionEndTime",
          "type": "uint32"
        },
        {
          "internalType": "bytes",
          "name": "data",
          "type": "bytes"
        }
      ],
      "name": "safeMint",
      "outputs": [
        {
          "internalType": "uint256",
          "name": "",
          "type": "uint256"
        }
      ],
      "payable": false,
      "stateMutability": "nonpayable",
      "type": "function"
    },
    {
      "constant": true,
      "inputs": [
        {
          "internalType": "address",
          "name": "minter",
          "type": "address"
        },
        {
          "internalType": "string",
          "name": "contentId",
          "type": "string"
        }
      ],
      "name": "tokenMinterPropertyNames",
      "outputs": [
        {
          "internalType": "bytes32[]",
          "name": "",
          "type": "bytes32[]"
        }
      ],
      "payable": false,
      "stateMutability": "view",
      "type": "function"
    },
    {
      "constant": true,
      "inputs": [],
      "name": "registry",
      "outputs": [
        {
          "internalType": "contract DeployedRegistry",
          "name": "",
          "type": "address"
        }
      ],
      "payable": false,
      "stateMutability": "view",
      "type": "function"
    },
    {
      "constant": false,
      "inputs": [],
      "name": "pause",
      "outputs": [],
      "payable": false,
      "stateMutability": "nonpayable",
      "type": "function"
    },
    {
      "constant": true,
      "inputs": [
        {
          "internalType": "address",
          "name": "tokenOwner",
          "type": "address"
        }
      ],
      "name": "tokensOfOwner",
      "outputs": [
        {
          "internalType": "uint256[]",
          "name": "",
          "type": "uint256[]"
        }
      ],
      "payable": false,
      "stateMutability": "view",
      "type": "function"
    },
    {
      "constant": true,
      "inputs": [],
      "name": "owner",
      "outputs": [
        {
          "internalType": "address",
          "name": "",
          "type": "address"
        }
      ],
      "payable": false,
      "stateMutability": "view",
      "type": "function"
    },
    {
      "constant": false,
      "inputs": [
        {
          "internalType": "string",
          "name": "contentId",
          "type": "string"
        },
        {
          "internalType": "bytes32",
          "name": "propertyName",
          "type": "bytes32"
        },
        {
          "internalType": "uint32",
          "name": "startTime",
          "type": "uint32"
        },
        {
          "internalType": "uint32",
          "name": "endTime",
          "type": "uint32"
        },
        {
          "internalType": "uint32",
          "name": "auctionEndTime",
          "type": "uint32"
        },
        {
          "internalType": "string",
          "name": "tokenURI",
          "type": "string"
        }
      ],
      "name": "mintWithTokenURI",
      "outputs": [
        {
          "internalType": "uint256",
          "name": "",
          "type": "uint256"
        }
      ],
      "payable": false,
      "stateMutability": "nonpayable",
      "type": "function"
    },
    {
      "constant": false,
      "inputs": [
        {
          "internalType": "address",
          "name": "to",
          "type": "address"
        },
        {
          "internalType": "bool",
          "name": "approved",
          "type": "bool"
        }
      ],
      "name": "setApprovalForAll",
      "outputs": [],
      "payable": false,
      "stateMutability": "nonpayable",
      "type": "function"
    },
    {
      "constant": true,
      "inputs": [
        {
          "internalType": "address",
          "name": "minter",
          "type": "address"
        }
      ],
      "name": "tokenMinterContentIds",
      "outputs": [
        {
          "internalType": "string[]",
          "name": "",
          "type": "string[]"
        }
      ],
      "payable": false,
      "stateMutability": "view",
      "type": "function"
    },
    {
      "constant": true,
      "inputs": [
        {
          "internalType": "address",
          "name": "account",
          "type": "address"
        }
      ],
      "name": "isMinter",
      "outputs": [
        {
          "internalType": "bool",
          "name": "",
          "type": "bool"
        }
      ],
      "payable": false,
      "stateMutability": "view",
      "type": "function"
    },
    {
      "constant": false,
      "inputs": [
        {
          "internalType": "string",
          "name": "contentId",
          "type": "string"
        },
        {
          "internalType": "bytes32",
          "name": "propertyName",
          "type": "bytes32"
        },
        {
          "internalType": "uint32",
          "name": "startTime",
          "type": "uint32"
        },
        {
          "internalType": "uint32",
          "name": "endTime",
          "type": "uint32"
        },
        {
          "internalType": "uint32",
          "name": "auctionEndTime",
          "type": "uint32"
        }
      ],
      "name": "mint",
      "outputs": [
        {
          "internalType": "uint256",
          "name": "",
          "type": "uint256"
        }
      ],
      "payable": false,
      "stateMutability": "nonpayable",
      "type": "function"
    },
    {
      "constant": false,
      "inputs": [
        {
          "internalType": "address",
          "name": "from",
          "type": "address"
        },
        {
          "internalType": "address",
          "name": "to",
          "type": "address"
        },
        {
          "internalType": "uint256",
          "name": "tokenId",
          "type": "uint256"
        },
        {
          "internalType": "bytes",
          "name": "data",
          "type": "bytes"
        }
      ],
      "name": "safeTransferFrom",
      "outputs": [],
      "payable": false,
      "stateMutability": "nonpayable",
      "type": "function"
    },
    {
      "constant": false,
      "inputs": [
        {
          "internalType": "address",
          "name": "newAddress",
          "type": "address"
        }
      ],
      "name": "updateRegistryAddress",
      "outputs": [],
      "payable": false,
      "stateMutability": "nonpayable",
      "type": "function"
    },
    {
      "constant": true,
      "inputs": [
        {
          "internalType": "uint256",
          "name": "tokenId",
          "type": "uint256"
        }
      ],
      "name": "tokenURI",
      "outputs": [
        {
          "internalType": "string",
          "name": "",
          "type": "string"
        }
      ],
      "payable": false,
      "stateMutability": "view",
      "type": "function"
    },
    {
      "constant": false,
      "inputs": [
        {
          "internalType": "string",
          "name": "contentId",
          "type": "string"
        },
        {
          "internalType": "bytes32",
          "name": "propertyName",
          "type": "bytes32"
        },
        {
          "internalType": "uint32",
          "name": "startTime",
          "type": "uint32"
        },
        {
          "internalType": "uint32",
          "name": "endTime",
          "type": "uint32"
        },
        {
          "internalType": "uint32",
          "name": "auctionEndTime",
          "type": "uint32"
        },
        {
          "internalType": "string",
          "name": "tokenURI",
          "type": "string"
        }
      ],
      "name": "safeMintWithTokenURI",
      "outputs": [
        {
          "internalType": "uint256",
          "name": "",
          "type": "uint256"
        }
      ],
      "payable": false,
      "stateMutability": "nonpayable",
      "type": "function"
    },
    {
      "constant": true,
      "inputs": [
        {
          "internalType": "uint256",
          "name": "tokenId",
          "type": "uint256"
        }
      ],
      "name": "tokenTimeSlot",
      "outputs": [
        {
          "internalType": "address",
          "name": "minter",
          "type": "address"
        },
        {
          "internalType": "string",
          "name": "contentId",
          "type": "string"
        },
        {
          "internalType": "bytes32",
          "name": "propertyName",
          "type": "bytes32"
        },
        {
          "internalType": "uint32",
          "name": "startTime",
          "type": "uint32"
        },
        {
          "internalType": "uint32",
          "name": "endTime",
          "type": "uint32"
        }
      ],
      "payable": false,
      "stateMutability": "view",
      "type": "function"
    },
    {
      "constant": true,
      "inputs": [
        {
          "internalType": "address",
          "name": "tokenOwner",
          "type": "address"
        },
        {
          "internalType": "address",
          "name": "operator",
          "type": "address"
        }
      ],
      "name": "isApprovedForAll",
      "outputs": [
        {
          "internalType": "bool",
          "name": "",
          "type": "bool"
        }
      ],
      "payable": false,
      "stateMutability": "view",
      "type": "function"
    },
    {
      "constant": false,
      "inputs": [
        {
          "internalType": "address",
          "name": "newOwner",
          "type": "address"
        }
      ],
      "name": "transferOwnership",
      "outputs": [],
      "payable": false,
      "stateMutability": "nonpayable",
      "type": "function"
    },
    {
      "inputs": [
        {
          "internalType": "string",
          "name": "name",
          "type": "string"
        },
        {
          "internalType": "string",
          "name": "symbol",
          "type": "string"
        },
        {
          "internalType": "address",
          "name": "registryAddress",
          "type": "address"
        }
      ],
      "payable": false,
      "stateMutability": "nonpayable",
      "type": "constructor"
    },
    {
      "anonymous": false,
      "inputs": [
        {
          "indexed": true,
          "internalType": "address",
          "name": "from",
          "type": "address"
        },
        {
          "indexed": true,
          "internalType": "address",
          "name": "to",
          "type": "address"
        },
        {
          "indexed": true,
          "internalType": "uint256",
          "name": "tokenId",
          "type": "uint256"
        }
      ],
      "name": "Transfer",
      "type": "event"
    },
    {
      "anonymous": false,
      "inputs": [
        {
          "indexed": true,
          "internalType": "address",
          "name": "tokenOwner",
          "type": "address"
        },
        {
          "indexed": true,
          "internalType": "address",
          "name": "approved",
          "type": "address"
        },
        {
          "indexed": true,
          "internalType": "uint256",
          "name": "tokenId",
          "type": "uint256"
        }
      ],
      "name": "Approval",
      "type": "event"
    },
    {
      "anonymous": false,
      "inputs": [
        {
          "indexed": true,
          "internalType": "address",
          "name": "tokenOwner",
          "type": "address"
        },
        {
          "indexed": true,
          "internalType": "address",
          "name": "operator",
          "type": "address"
        },
        {
          "indexed": false,
          "internalType": "bool",
          "name": "approved",
          "type": "bool"
        }
      ],
      "name": "ApprovalForAll",
      "type": "event"
    },
    {
      "constant": true,
      "inputs": [],
      "name": "name",
      "outputs": [
        {
          "internalType": "string",
          "name": "",
          "type": "string"
        }
      ],
      "payable": false,
      "stateMutability": "view",
      "type": "function"
    },
    {
      "constant": true,
      "inputs": [],
      "name": "symbol",
      "outputs": [
        {
          "internalType": "string",
          "name": "",
          "type": "string"
        }
      ],
      "payable": false,
      "stateMutability": "view",
      "type": "function"
    }
  ],
  "bytecode": "0x60806040526000600c60006101000a81548160ff0219169083151502179055503480156200002c57600080fd5b50604051620057c6380380620057c6833981810160405262000052919081019062000423565b6200006a6301ffc9a760e01b6200013b60201b60201c565b620000826380ac58cd60e01b6200013b60201b60201c565b620000926200021360201b60201c565b600160006101000a81548173ffffffffffffffffffffffffffffffffffffffff021916908373ffffffffffffffffffffffffffffffffffffffff16021790555082600d9080519060200190620000ea92919062000301565b5081600e90805190602001906200010392919062000301565b506200011c635b5e139f60e01b6200013b60201b60201c565b62000132816200021b60201b62001c011760201c565b50505062000663565b63ffffffff60e01b817bffffffffffffffffffffffffffffffffffffffffffffffffffffffff19161415620001a7576040517f08c379a00000000000000000000000000000000000000000000000000000000081526004016200019e906200052f565b60405180910390fd5b6001600080837bffffffffffffffffffffffffffffffffffffffffffffffffffffffff19167bffffffffffffffffffffffffffffffffffffffffffffffffffffffff1916815260200190815260200160002060006101000a81548160ff02191690831515021790555050565b600033905090565b600160009054906101000a900473ffffffffffffffffffffffffffffffffffffffff1673ffffffffffffffffffffffffffffffffffffffff16620002646200021360201b60201c565b73ffffffffffffffffffffffffffffffffffffffff1614620002bd576040517f08c379a0000000000000000000000000000000000000000000000000000000008152600401620002b49062000551565b60405180910390fd5b80600260006101000a81548173ffffffffffffffffffffffffffffffffffffffff021916908373ffffffffffffffffffffffffffffffffffffffff16021790555050565b828054600181600116156101000203166002900490600052602060002090601f016020900481019282601f106200034457805160ff191683800117855562000375565b8280016001018555821562000375579182015b828111156200037457825182559160200191906001019062000357565b5b50905062000384919062000388565b5090565b620003ad91905b80821115620003a95760008160009055506001016200038f565b5090565b90565b600081519050620003c18162000649565b92915050565b600082601f830112620003d957600080fd5b8151620003f0620003ea82620005a1565b62000573565b915080825260208301602083018583830111156200040d57600080fd5b6200041a83828462000613565b50505092915050565b6000806000606084860312156200043957600080fd5b600084015167ffffffffffffffff8111156200045457600080fd5b6200046286828701620003c7565b935050602084015167ffffffffffffffff8111156200048057600080fd5b6200048e86828701620003c7565b9250506040620004a186828701620003b0565b9150509250925092565b6000620004ba601c83620005ce565b91507f4552433136353a20696e76616c696420696e74657266616365206964000000006000830152602082019050919050565b6000620004fc601b83620005ce565b91507f4552433732313a2063616c6c6572206973206e6f74206f776e657200000000006000830152602082019050919050565b600060208201905081810360008301526200054a81620004ab565b9050919050565b600060208201905081810360008301526200056c81620004ed565b9050919050565b6000604051905081810181811067ffffffffffffffff821117156200059757600080fd5b8060405250919050565b600067ffffffffffffffff821115620005b957600080fd5b601f19601f8301169050602081019050919050565b600082825260208201905092915050565b6000620005ec82620005f3565b9050919050565b600073ffffffffffffffffffffffffffffffffffffffff82169050919050565b60005b838110156200063357808201518184015260208101905062000616565b8381111562000643576000848401525b50505050565b6200065481620005df565b81146200066057600080fd5b50565b61515380620006736000396000f3fe608060405234801561001057600080fd5b50600436106101fb5760003560e01c80637b1039991161011a578063aa271e1a116100ad578063c87b56dd1161007c578063c87b56dd146105fc578063cd2c24ca1461062c578063e5c249241461065c578063e985e9c514610690578063f2fde38b146106c0576101fb565b8063aa271e1a14610564578063b525e30814610594578063b88d4fde146105c4578063c57a8825146105e0576101fb565b80638f4e59f1116100e95780638f4e59f1146104ca57806395d89b41146104fa578063a22cb46514610518578063a4ede12814610534576101fb565b80637b103999146104545780638456cb59146104725780638462151c1461047c5780638da5cb5b146104ac576101fb565b806342842e0e116101925780636352211e116101615780636352211e1461039457806370a08231146103c45780637668b6c5146103f45780637affcb9a14610424576101fb565b806342842e0e1461030e57806342966c681461032a578063441d3f1b146103465780635c975abb14610376576101fb565b806318160ddd116101ce57806318160ddd1461029a57806323b872dd146102b85780633af32abf146102d45780633f4ba83a14610304576101fb565b806301ffc9a71461020057806306fdde0314610230578063081812fc1461024e578063095ea7b31461027e575b600080fd5b61021a60048036036102159190810190613aec565b6106dc565b6040516102279190614a7f565b60405180910390f35b610238610743565b6040516102459190614ab5565b60405180910390f35b61026860048036036102639190810190613d3f565b6107e5565b6040516102759190614958565b60405180910390f35b61029860048036036102939190810190613a87565b61086a565b005b6102a2610a8e565b6040516102af9190614dd7565b60405180910390f35b6102d260048036036102cd9190810190613929565b610a9f565b005b6102ee60048036036102e991908101906138c4565b610ba9565b6040516102fb9190614a7f565b60405180910390f35b61030c610c5d565b005b61032860048036036103239190810190613929565b610d2a565b005b610344600480360361033f9190810190613d3f565b610d4a565b005b610360600480360361035b9190810190613b3e565b610dc0565b60405161036d9190614dd7565b60405180910390f35b61037e610ea4565b60405161038b9190614a7f565b60405180910390f35b6103ae60048036036103a99190810190613d3f565b610eb7565b6040516103bb9190614958565b60405180910390f35b6103de60048036036103d991908101906138c4565b610f69565b6040516103eb9190614dd7565b60405180910390f35b61040e60048036036104099190810190613bcd565b611028565b60405161041b9190614dd7565b60405180910390f35b61043e60048036036104399190810190613a2f565b61110e565b60405161044b9190614a19565b60405180910390f35b61045c61125a565b6040516104699190614a9a565b60405180910390f35b61047a611280565b005b610496600480360361049191908101906138c4565b61134e565b6040516104a39190614a5d565b60405180910390f35b6104b4611496565b6040516104c19190614958565b60405180910390f35b6104e460048036036104df9190810190613c86565b6114bc565b6040516104f19190614dd7565b60405180910390f35b6105026115ab565b60405161050f9190614ab5565b60405180910390f35b610532600480360361052d91908101906139f3565b61164d565b005b61054e600480360361054991908101906138c4565b611837565b60405161055b9190614a3b565b60405180910390f35b61057e600480360361057991908101906138c4565b6119ff565b60405161058b9190614a7f565b60405180910390f35b6105ae60048036036105a99190810190613b3e565b611a11565b6040516105bb9190614dd7565b60405180910390f35b6105de60048036036105d99190810190613978565b611af5565b005b6105fa60048036036105f591908101906138c4565b611c01565b005b61061660048036036106119190810190613d3f565b611cdc565b6040516106239190614ab5565b60405180910390f35b61064660048036036106419190810190613c86565b611dd9565b6040516106539190614dd7565b60405180910390f35b61067660048036036106719190810190613d3f565b611ec8565b6040516106879594939291906149bf565b60405180910390f35b6106aa60048036036106a591908101906138ed565b61207a565b6040516106b79190614a7f565b60405180910390f35b6106da60048036036106d591908101906138c4565b61210e565b005b6000806000837bffffffffffffffffffffffffffffffffffffffffffffffffffffffff19167bffffffffffffffffffffffffffffffffffffffffffffffffffffffff1916815260200190815260200160002060009054906101000a900460ff169050919050565b6060600d8054600181600116156101000203166002900480601f0160208091040260200160405190810160405280929190818152602001828054600181600116156101000203166002900480156107db5780601f106107b0576101008083540402835291602001916107db565b820191906000526020600020905b8154815290600101906020018083116107be57829003601f168201915b5050505050905090565b60006107f08261221e565b61082f576040517f08c379a000000000000000000000000000000000000000000000000000000000815260040161082690614c97565b60405180910390fd5b600a600083815260200190815260200160002060009054906101000a900473ffffffffffffffffffffffffffffffffffffffff169050919050565b61087a610875612290565b610ba9565b6108b9576040517f08c379a00000000000000000000000000000000000000000000000000000000081526004016108b090614db7565b60405180910390fd5b600c60009054906101000a900460ff16156108d357600080fd5b60006108de82610eb7565b90508073ffffffffffffffffffffffffffffffffffffffff168373ffffffffffffffffffffffffffffffffffffffff16141561094f576040517f08c379a000000000000000000000000000000000000000000000000000000000815260040161094690614cd7565b60405180910390fd5b8073ffffffffffffffffffffffffffffffffffffffff1661096e612290565b73ffffffffffffffffffffffffffffffffffffffff16148061099d575061099c81610997612290565b61207a565b5b6109dc576040517f08c379a00000000000000000000000000000000000000000000000000000000081526004016109d390614c37565b60405180910390fd5b82600a600084815260200190815260200160002060006101000a81548173ffffffffffffffffffffffffffffffffffffffff021916908373ffffffffffffffffffffffffffffffffffffffff160217905550818373ffffffffffffffffffffffffffffffffffffffff168273ffffffffffffffffffffffffffffffffffffffff167f8c5be1e5ebec7d5bd14f71427d1e84f3dd0314c0f7b2291e5b200ac8c7c3b92560405160405180910390a4505050565b6000610a9a6003612298565b905090565b600c60009054906101000a900460ff1615610ab957600080fd5b610aca610ac4612290565b826122a6565b610b09576040517f08c379a0000000000000000000000000000000000000000000000000000000008152600401610b0090614cf7565b60405180910390fd5b610b1283610ba9565b610b51576040517f08c379a0000000000000000000000000000000000000000000000000000000008152600401610b4890614b97565b60405180910390fd5b610b5a82610ba9565b610b99576040517f08c379a0000000000000000000000000000000000000000000000000000000008152600401610b9090614b97565b60405180910390fd5b610ba4838383612384565b505050565b6000600260009054906101000a900473ffffffffffffffffffffffffffffffffffffffff1673ffffffffffffffffffffffffffffffffffffffff16633af32abf836040518263ffffffff1660e01b8152600401610c069190614958565b60206040518083038186803b158015610c1e57600080fd5b505afa158015610c32573d6000803e3d6000fd5b505050506040513d601f19601f82011682018060405250610c569190810190613ac3565b9050919050565b600160009054906101000a900473ffffffffffffffffffffffffffffffffffffffff1673ffffffffffffffffffffffffffffffffffffffff16610c9e612290565b73ffffffffffffffffffffffffffffffffffffffff1614610cf4576040517f08c379a0000000000000000000000000000000000000000000000000000000008152600401610ceb90614d57565b60405180910390fd5b600c60009054906101000a900460ff16610d0d57600080fd5b6000600c60006101000a81548160ff021916908315150217905550565b610d4583838360405180602001604052806000815250611af5565b505050565b600c60009054906101000a900460ff1615610d6457600080fd5b610d75610d6f612290565b826122a6565b610db4576040517f08c379a0000000000000000000000000000000000000000000000000000000008152600401610dab90614d77565b60405180910390fd5b610dbd816125b3565b50565b6000610dd2610dcd612290565b6119ff565b610e11576040517f08c379a0000000000000000000000000000000000000000000000000000000008152600401610e0890614af7565b60405180910390fd5b600c60009054906101000a900460ff1615610e2b57600080fd5b610e368685856125c8565b610e75576040517f08c379a0000000000000000000000000000000000000000000000000000000008152600401610e6c90614bd7565b60405180910390fd5b6000610e87610e82612290565b61270d565b9050610e97818888888888612734565b8091505095945050505050565b600c60009054906101000a900460ff1681565b6000806004600084815260200190815260200160002060009054906101000a900473ffffffffffffffffffffffffffffffffffffffff169050600073ffffffffffffffffffffffffffffffffffffffff168173ffffffffffffffffffffffffffffffffffffffff161415610f60576040517f08c379a0000000000000000000000000000000000000000000000000000000008152600401610f5790614c77565b60405180910390fd5b80915050919050565b60008073ffffffffffffffffffffffffffffffffffffffff168273ffffffffffffffffffffffffffffffffffffffff161415610fda576040517f08c379a0000000000000000000000000000000000000000000000000000000008152600401610fd190614c17565b60405180910390fd5b611021600560008473ffffffffffffffffffffffffffffffffffffffff1673ffffffffffffffffffffffffffffffffffffffff168152602001908152602001600020612298565b9050919050565b600061103a611035612290565b6119ff565b611079576040517f08c379a000000000000000000000000000000000000000000000000000000000815260040161107090614af7565b60405180910390fd5b600c60009054906101000a900460ff161561109357600080fd5b61109e8786866125c8565b6110dd576040517f08c379a00000000000000000000000000000000000000000000000000000000081526004016110d490614bd7565b60405180910390fd5b60006110f06110ea612290565b84612a43565b9050611100818989898989612734565b809150509695505050505050565b606080600760008673ffffffffffffffffffffffffffffffffffffffff1673ffffffffffffffffffffffffffffffffffffffff1681526020019081526020016000208484604051611160929190614928565b9081526020016040518091039020805480602002602001604051908101604052809291908181526020016000905b828210156111c6578382906000526020600020016040518060200160405290816000820154815250508152602001906001019061118e565b505050509050606081516040519080825280602002602001820160405280156111fe5781602001602082028038833980820191505090505b50905060008090505b825181101561124d5782818151811061121c57fe5b60200260200101516000015182828151811061123457fe5b6020026020010181815250508080600101915050611207565b5080925050509392505050565b600260009054906101000a900473ffffffffffffffffffffffffffffffffffffffff1681565b600160009054906101000a900473ffffffffffffffffffffffffffffffffffffffff1673ffffffffffffffffffffffffffffffffffffffff166112c1612290565b73ffffffffffffffffffffffffffffffffffffffff1614611317576040517f08c379a000000000000000000000000000000000000000000000000000000000815260040161130e90614d57565b60405180910390fd5b600c60009054906101000a900460ff161561133157600080fd5b6001600c60006101000a81548160ff021916908315150217905550565b6060600061135b83610f69565b9050600081141561139f5760006040519080825280602002602001820160405280156113965781602001602082028038833980820191505090505b50915050611491565b6060816040519080825280602002602001820160405280156113d05781602001602082028038833980820191505090505b50905060006113dd610a8e565b905060008090506000600190505b828111611488578673ffffffffffffffffffffffffffffffffffffffff166004600083815260200190815260200160002060009054906101000a900473ffffffffffffffffffffffffffffffffffffffff1673ffffffffffffffffffffffffffffffffffffffff16141561147b578084838151811061146657fe5b60200260200101818152505081806001019250505b80806001019150506113eb565b83955050505050505b919050565b600160009054906101000a900473ffffffffffffffffffffffffffffffffffffffff1681565b60006114ce6114c9612290565b6119ff565b61150d576040517f08c379a000000000000000000000000000000000000000000000000000000000815260040161150490614af7565b60405180910390fd5b600c60009054906101000a900460ff161561152757600080fd5b6115328786866125c8565b611571576040517f08c379a000000000000000000000000000000000000000000000000000000000815260040161156890614bd7565b60405180910390fd5b600061158361157e612290565b612aa7565b9050611593818989898989612734565b61159d8184612c2e565b809150509695505050505050565b6060600e8054600181600116156101000203166002900480601f0160208091040260200160405190810160405280929190818152602001828054600181600116156101000203166002900480156116435780601f1061161857610100808354040283529160200191611643565b820191906000526020600020905b81548152906001019060200180831161162657829003601f168201915b5050505050905090565b61165d611658612290565b610ba9565b61169c576040517f08c379a000000000000000000000000000000000000000000000000000000000815260040161169390614db7565b60405180910390fd5b600c60009054906101000a900460ff16156116b657600080fd5b6116be612290565b73ffffffffffffffffffffffffffffffffffffffff168273ffffffffffffffffffffffffffffffffffffffff16141561172c576040517f08c379a000000000000000000000000000000000000000000000000000000000815260040161172390614b57565b60405180910390fd5b80600b6000611739612290565b73ffffffffffffffffffffffffffffffffffffffff1673ffffffffffffffffffffffffffffffffffffffff16815260200190815260200160002060008473ffffffffffffffffffffffffffffffffffffffff1673ffffffffffffffffffffffffffffffffffffffff16815260200190815260200160002060006101000a81548160ff0219169083151502179055508173ffffffffffffffffffffffffffffffffffffffff166117e6612290565b73ffffffffffffffffffffffffffffffffffffffff167f17307eab39ab6107e8899845ad3d59bd9653f200f220920489ca2b5937696c318360405161182b9190614a7f565b60405180910390a35050565b606080600860008473ffffffffffffffffffffffffffffffffffffffff1673ffffffffffffffffffffffffffffffffffffffff168152602001908152602001600020805480602002602001604051908101604052809291908181526020016000905b8282101561196957838290600052602060002001604051806020016040529081600082018054600181600116156101000203166002900480601f0160208091040260200160405190810160405280929190818152602001828054600181600116156101000203166002900480156119515780601f1061192657610100808354040283529160200191611951565b820191906000526020600020905b81548152906001019060200180831161193457829003601f168201915b50505050508152505081526020019060010190611899565b505050509050606081516040519080825280602002602001820160405280156119a657816020015b60608152602001906001900390816119915790505b50905060008090505b82518110156119f4578281815181106119c457fe5b6020026020010151600001518282815181106119dc57fe5b602002602001018190525080806001019150506119af565b508092505050919050565b6000611a0a82610ba9565b9050919050565b6000611a23611a1e612290565b6119ff565b611a62576040517f08c379a0000000000000000000000000000000000000000000000000000000008152600401611a5990614af7565b60405180910390fd5b600c60009054906101000a900460ff1615611a7c57600080fd5b611a878685856125c8565b611ac6576040517f08c379a0000000000000000000000000000000000000000000000000000000008152600401611abd90614bd7565b60405180910390fd5b6000611ad8611ad3612290565b612aa7565b9050611ae8818888888888612734565b8091505095945050505050565b600c60009054906101000a900460ff1615611b0f57600080fd5b611b1884610ba9565b611b57576040517f08c379a0000000000000000000000000000000000000000000000000000000008152600401611b4e90614b97565b60405180910390fd5b611b6083610ba9565b611b9f576040517f08c379a0000000000000000000000000000000000000000000000000000000008152600401611b9690614b97565b60405180910390fd5b611bb0611baa612290565b836122a6565b611bef576040517f08c379a0000000000000000000000000000000000000000000000000000000008152600401611be690614cf7565b60405180910390fd5b611bfb84848484612ca2565b50505050565b600160009054906101000a900473ffffffffffffffffffffffffffffffffffffffff1673ffffffffffffffffffffffffffffffffffffffff16611c42612290565b73ffffffffffffffffffffffffffffffffffffffff1614611c98576040517f08c379a0000000000000000000000000000000000000000000000000000000008152600401611c8f90614d57565b60405180910390fd5b80600260006101000a81548173ffffffffffffffffffffffffffffffffffffffff021916908373ffffffffffffffffffffffffffffffffffffffff16021790555050565b6060611ce78261221e565b611d26576040517f08c379a0000000000000000000000000000000000000000000000000000000008152600401611d1d90614d97565b60405180910390fd5b600960008381526020019081526020016000208054600181600116156101000203166002900480601f016020809104026020016040519081016040528092919081815260200182805460018160011615610100020316600290048015611dcd5780601f10611da257610100808354040283529160200191611dcd565b820191906000526020600020905b815481529060010190602001808311611db057829003601f168201915b50505050509050919050565b6000611deb611de6612290565b6119ff565b611e2a576040517f08c379a0000000000000000000000000000000000000000000000000000000008152600401611e2190614af7565b60405180910390fd5b600c60009054906101000a900460ff1615611e4457600080fd5b611e4f8786866125c8565b611e8e576040517f08c379a0000000000000000000000000000000000000000000000000000000008152600401611e8590614bd7565b60405180910390fd5b6000611ea0611e9b612290565b61270d565b9050611eb0818989898989612734565b611eba8184612c2e565b809150509695505050505050565b600060606000806000611eda8661221e565b611f19576040517f08c379a0000000000000000000000000000000000000000000000000000000008152600401611f1090614bb7565b60405180910390fd5b6006600087815260200190815260200160002060000160009054906101000a900473ffffffffffffffffffffffffffffffffffffffff16600660008881526020019081526020016000206001016006600089815260200190815260200160002060020154600660008a815260200190815260200160002060030160009054906101000a900463ffffffff16600660008b815260200190815260200160002060030160049054906101000a900463ffffffff16838054600181600116156101000203166002900480601f0160208091040260200160405190810160405280929190818152602001828054600181600116156101000203166002900480156120605780601f1061203557610100808354040283529160200191612060565b820191906000526020600020905b81548152906001019060200180831161204357829003601f168201915b505050505093509450945094509450945091939590929450565b6000600b60008473ffffffffffffffffffffffffffffffffffffffff1673ffffffffffffffffffffffffffffffffffffffff16815260200190815260200160002060008373ffffffffffffffffffffffffffffffffffffffff1673ffffffffffffffffffffffffffffffffffffffff16815260200190815260200160002060009054906101000a900460ff16905092915050565b600160009054906101000a900473ffffffffffffffffffffffffffffffffffffffff1673ffffffffffffffffffffffffffffffffffffffff1661214f612290565b73ffffffffffffffffffffffffffffffffffffffff16146121a5576040517f08c379a000000000000000000000000000000000000000000000000000000000815260040161219c90614d57565b60405180910390fd5b600073ffffffffffffffffffffffffffffffffffffffff168173ffffffffffffffffffffffffffffffffffffffff161461221b5780600160006101000a81548173ffffffffffffffffffffffffffffffffffffffff021916908373ffffffffffffffffffffffffffffffffffffffff1602179055505b50565b6000806004600084815260200190815260200160002060009054906101000a900473ffffffffffffffffffffffffffffffffffffffff169050600073ffffffffffffffffffffffffffffffffffffffff168173ffffffffffffffffffffffffffffffffffffffff161415915050919050565b600033905090565b600081600001549050919050565b60006122b18261221e565b6122f0576040517f08c379a00000000000000000000000000000000000000000000000000000000081526004016122e790614b77565b60405180910390fd5b60006122fb83610eb7565b90508073ffffffffffffffffffffffffffffffffffffffff168473ffffffffffffffffffffffffffffffffffffffff16148061236a57508373ffffffffffffffffffffffffffffffffffffffff16612352846107e5565b73ffffffffffffffffffffffffffffffffffffffff16145b8061237b575061237a818561207a565b5b91505092915050565b8273ffffffffffffffffffffffffffffffffffffffff166123a482610eb7565b73ffffffffffffffffffffffffffffffffffffffff16146123fa576040517f08c379a00000000000000000000000000000000000000000000000000000000081526004016123f190614cb7565b60405180910390fd5b600073ffffffffffffffffffffffffffffffffffffffff168273ffffffffffffffffffffffffffffffffffffffff16141561246a576040517f08c379a000000000000000000000000000000000000000000000000000000000815260040161246190614b37565b60405180910390fd5b61247381612cfe565b6124ba600560008573ffffffffffffffffffffffffffffffffffffffff1673ffffffffffffffffffffffffffffffffffffffff168152602001908152602001600020612dbc565b612501600560008473ffffffffffffffffffffffffffffffffffffffff1673ffffffffffffffffffffffffffffffffffffffff168152602001908152602001600020612ddf565b816004600083815260200190815260200160002060006101000a81548173ffffffffffffffffffffffffffffffffffffffff021916908373ffffffffffffffffffffffffffffffffffffffff160217905550808273ffffffffffffffffffffffffffffffffffffffff168473ffffffffffffffffffffffffffffffffffffffff167fddf252ad1be2c89b69c2b068fc378daa952ba7f163c4a11628f55a4df523b3ef60405160405180910390a4505050565b6125c56125bf82610eb7565b82612df5565b50565b6000600260009054906101000a900473ffffffffffffffffffffffffffffffffffffffff1673ffffffffffffffffffffffffffffffffffffffff166347ba747a856040518263ffffffff1660e01b81526004016126259190614ab5565b60206040518083038186803b15801561263d57600080fd5b505afa158015612651573d6000803e3d6000fd5b505050506040513d601f19601f820116820180604052506126759190810190613ac3565b6126b4576040517f08c379a00000000000000000000000000000000000000000000000000000000081526004016126ab90614bf7565b60405180910390fd5b8263ffffffff168263ffffffff1611612702576040517f08c379a00000000000000000000000000000000000000000000000000000000081526004016126f990614b17565b60405180910390fd5b600190509392505050565b6000806127298360405180602001604052806000815250612a43565b905080915050919050565b61273d8661221e565b61277c576040517f08c379a000000000000000000000000000000000000000000000000000000000815260040161277390614d37565b60405180910390fd5b61278461355c565b6040518060c00160405280612797612290565b73ffffffffffffffffffffffffffffffffffffffff1681526020018781526020018681526020018563ffffffff1681526020018463ffffffff1681526020018363ffffffff168152509050806006600089815260200190815260200160002060008201518160000160006101000a81548173ffffffffffffffffffffffffffffffffffffffff021916908373ffffffffffffffffffffffffffffffffffffffff16021790555060208201518160010190805190602001906128599291906135bd565b506040820151816002015560608201518160030160006101000a81548163ffffffff021916908363ffffffff16021790555060808201518160030160046101000a81548163ffffffff021916908363ffffffff16021790555060a08201518160030160086101000a81548163ffffffff021916908363ffffffff1602179055509050506128e586613057565b61298657600860006128f5612290565b73ffffffffffffffffffffffffffffffffffffffff1673ffffffffffffffffffffffffffffffffffffffff16815260200190815260200160002060405180602001604052808881525090806001815401808255809150509060018203906000526020600020016000909192909190915060008201518160000190805190602001906129819291906135bd565b505050505b61299086866131e7565b612a3a57600760006129a0612290565b73ffffffffffffffffffffffffffffffffffffffff1673ffffffffffffffffffffffffffffffffffffffff168152602001908152602001600020866040516129e89190614941565b9081526020016040518091039020604051806020016040528087815250908060018154018082558091505090600182039060005260206000200160009091929091909150600082015181600001555050505b50505050505050565b600080612a4f84612aa7565b9050612a5e60008583866132f5565b612a9d576040517f08c379a0000000000000000000000000000000000000000000000000000000008152600401612a9490614ad7565b60405180910390fd5b8091505092915050565b60008073ffffffffffffffffffffffffffffffffffffffff168273ffffffffffffffffffffffffffffffffffffffff161415612b18576040517f08c379a0000000000000000000000000000000000000000000000000000000008152600401612b0f90614c57565b60405180910390fd5b612b226003612ddf565b6000612b2e6003612298565b9050826004600083815260200190815260200160002060006101000a81548173ffffffffffffffffffffffffffffffffffffffff021916908373ffffffffffffffffffffffffffffffffffffffff160217905550612bc9600560008573ffffffffffffffffffffffffffffffffffffffff1673ffffffffffffffffffffffffffffffffffffffff168152602001908152602001600020612ddf565b808373ffffffffffffffffffffffffffffffffffffffff16600073ffffffffffffffffffffffffffffffffffffffff167fddf252ad1be2c89b69c2b068fc378daa952ba7f163c4a11628f55a4df523b3ef60405160405180910390a480915050919050565b612c378261221e565b612c76576040517f08c379a0000000000000000000000000000000000000000000000000000000008152600401612c6d90614d37565b60405180910390fd5b80600960008481526020019081526020016000209080519060200190612c9d92919061363d565b505050565b612cad848484612384565b612cb9848484846132f5565b612cf8576040517f08c379a0000000000000000000000000000000000000000000000000000000008152600401612cef90614ad7565b60405180910390fd5b50505050565b600073ffffffffffffffffffffffffffffffffffffffff16600a600083815260200190815260200160002060009054906101000a900473ffffffffffffffffffffffffffffffffffffffff1673ffffffffffffffffffffffffffffffffffffffff1614612db9576000600a600083815260200190815260200160002060006101000a81548173ffffffffffffffffffffffffffffffffffffffff021916908373ffffffffffffffffffffffffffffffffffffffff1602179055505b50565b612dd46001826000015461341390919063ffffffff16565b816000018190555050565b6001816000016000828254019250508190555050565b8173ffffffffffffffffffffffffffffffffffffffff16612e1582610eb7565b73ffffffffffffffffffffffffffffffffffffffff1614612e6b576040517f08c379a0000000000000000000000000000000000000000000000000000000008152600401612e6290614d17565b60405180910390fd5b612e7481612cfe565b612ebb600560008473ffffffffffffffffffffffffffffffffffffffff1673ffffffffffffffffffffffffffffffffffffffff168152602001908152602001600020612dbc565b60006004600083815260200190815260200160002060006101000a81548173ffffffffffffffffffffffffffffffffffffffff021916908373ffffffffffffffffffffffffffffffffffffffff16021790555060006009600083815260200190815260200160002080546001816001161561010002031660029004905014612f5d57600960008281526020019081526020016000206000612f5c91906136bd565b5b60066000828152602001908152602001600020600080820160006101000a81549073ffffffffffffffffffffffffffffffffffffffff0219169055600182016000612fa891906136bd565b60028201600090556003820160006101000a81549063ffffffff02191690556003820160046101000a81549063ffffffff02191690556003820160086101000a81549063ffffffff0219169055505080600073ffffffffffffffffffffffffffffffffffffffff168373ffffffffffffffffffffffffffffffffffffffff167fddf252ad1be2c89b69c2b068fc378daa952ba7f163c4a11628f55a4df523b3ef60405160405180910390a45050565b60006060600860003373ffffffffffffffffffffffffffffffffffffffff1673ffffffffffffffffffffffffffffffffffffffff168152602001908152602001600020805480602002602001604051908101604052809291908181526020016000905b8282101561318a57838290600052602060002001604051806020016040529081600082018054600181600116156101000203166002900480601f0160208091040260200160405190810160405280929190818152602001828054600181600116156101000203166002900480156131725780601f1061314757610100808354040283529160200191613172565b820191906000526020600020905b81548152906001019060200180831161315557829003601f168201915b505050505081525050815260200190600101906130ba565b505050509050600080905060008090505b82518110156131dc576131c5858483815181106131b457fe5b60200260200101516000015161345d565b156131cf57600191505b808060010191505061319b565b508092505050919050565b60006060600760003373ffffffffffffffffffffffffffffffffffffffff1673ffffffffffffffffffffffffffffffffffffffff168152602001908152602001600020846040516132389190614941565b9081526020016040518091039020805480602002602001604051908101604052809291908181526020016000905b8282101561329e5783829060005260206000200160405180602001604052908160008201548152505081526020019060010190613266565b505050509050600080905060008090505b82518110156132e9578281815181106132c457fe5b6020026020010151600001518514156132dc57600191505b80806001019150506132af565b50809250505092915050565b60006133168473ffffffffffffffffffffffffffffffffffffffff166134b6565b613323576001905061340b565b60008473ffffffffffffffffffffffffffffffffffffffff1663150b7a02613349612290565b8887876040518563ffffffff1660e01b815260040161336b9493929190614973565b602060405180830381600087803b15801561338557600080fd5b505af1158015613399573d6000803e3d6000fd5b505050506040513d601f19601f820116820180604052506133bd9190810190613b15565b905063150b7a0260e01b7bffffffffffffffffffffffffffffffffffffffffffffffffffffffff1916817bffffffffffffffffffffffffffffffffffffffffffffffffffffffff1916149150505b949350505050565b600061345583836040518060400160405280601e81526020017f536166654d6174683a207375627472616374696f6e206f766572666c6f770000815250613501565b905092915050565b6000816040516020016134709190614941565b60405160208183030381529060405280519060200120836040516020016134979190614941565b6040516020818303038152906040528051906020012014905092915050565b60008060007fc5d2460186f7233c927e7db2dcc703c0e500b653ca82273b7bfad8045d85a47060001b9050833f91506000801b82141580156134f85750808214155b92505050919050565b6000838311158290613549576040517f08c379a00000000000000000000000000000000000000000000000000000000081526004016135409190614ab5565b60405180910390fd5b5060008385039050809150509392505050565b6040518060c00160405280600073ffffffffffffffffffffffffffffffffffffffff1681526020016060815260200160008019168152602001600063ffffffff168152602001600063ffffffff168152602001600063ffffffff1681525090565b828054600181600116156101000203166002900490600052602060002090601f016020900481019282601f106135fe57805160ff191683800117855561362c565b8280016001018555821561362c579182015b8281111561362b578251825591602001919060010190613610565b5b5090506136399190613705565b5090565b828054600181600116156101000203166002900490600052602060002090601f016020900481019282601f1061367e57805160ff19168380011785556136ac565b828001600101855582156136ac579182015b828111156136ab578251825591602001919060010190613690565b5b5090506136b99190613705565b5090565b50805460018160011615610100020316600290046000825580601f106136e35750613702565b601f0160209004906000526020600020908101906137019190613705565b5b50565b61372791905b8082111561372357600081600090555060010161370b565b5090565b90565b60008135905061373981615086565b92915050565b60008135905061374e8161509d565b92915050565b6000815190506137638161509d565b92915050565b600081359050613778816150b4565b92915050565b60008135905061378d816150cb565b92915050565b6000815190506137a2816150cb565b92915050565b600082601f8301126137b957600080fd5b81356137cc6137c782614e1f565b614df2565b915080825260208301602083018583830111156137e857600080fd5b6137f3838284615033565b50505092915050565b60008083601f84011261380e57600080fd5b8235905067ffffffffffffffff81111561382757600080fd5b60208301915083600182028301111561383f57600080fd5b9250929050565b600082601f83011261385757600080fd5b813561386a61386582614e4b565b614df2565b9150808252602083016020830185838301111561388657600080fd5b613891838284615033565b50505092915050565b6000813590506138a9816150e2565b92915050565b6000813590506138be816150f9565b92915050565b6000602082840312156138d657600080fd5b60006138e48482850161372a565b91505092915050565b6000806040838503121561390057600080fd5b600061390e8582860161372a565b925050602061391f8582860161372a565b9150509250929050565b60008060006060848603121561393e57600080fd5b600061394c8682870161372a565b935050602061395d8682870161372a565b925050604061396e8682870161389a565b9150509250925092565b6000806000806080858703121561398e57600080fd5b600061399c8782880161372a565b94505060206139ad8782880161372a565b93505060406139be8782880161389a565b925050606085013567ffffffffffffffff8111156139db57600080fd5b6139e7878288016137a8565b91505092959194509250565b60008060408385031215613a0657600080fd5b6000613a148582860161372a565b9250506020613a258582860161373f565b9150509250929050565b600080600060408486031215613a4457600080fd5b6000613a528682870161372a565b935050602084013567ffffffffffffffff811115613a6f57600080fd5b613a7b868287016137fc565b92509250509250925092565b60008060408385031215613a9a57600080fd5b6000613aa88582860161372a565b9250506020613ab98582860161389a565b9150509250929050565b600060208284031215613ad557600080fd5b6000613ae384828501613754565b91505092915050565b600060208284031215613afe57600080fd5b6000613b0c8482850161377e565b91505092915050565b600060208284031215613b2757600080fd5b6000613b3584828501613793565b91505092915050565b600080600080600060a08688031215613b5657600080fd5b600086013567ffffffffffffffff811115613b7057600080fd5b613b7c88828901613846565b9550506020613b8d88828901613769565b9450506040613b9e888289016138af565b9350506060613baf888289016138af565b9250506080613bc0888289016138af565b9150509295509295909350565b60008060008060008060c08789031215613be657600080fd5b600087013567ffffffffffffffff811115613c0057600080fd5b613c0c89828a01613846565b9650506020613c1d89828a01613769565b9550506040613c2e89828a016138af565b9450506060613c3f89828a016138af565b9350506080613c5089828a016138af565b92505060a087013567ffffffffffffffff811115613c6d57600080fd5b613c7989828a016137a8565b9150509295509295509295565b60008060008060008060c08789031215613c9f57600080fd5b600087013567ffffffffffffffff811115613cb957600080fd5b613cc589828a01613846565b9650506020613cd689828a01613769565b9550506040613ce789828a016138af565b9450506060613cf889828a016138af565b9350506080613d0989828a016138af565b92505060a087013567ffffffffffffffff811115613d2657600080fd5b613d3289828a01613846565b9150509295509295509295565b600060208284031215613d5157600080fd5b6000613d5f8482850161389a565b91505092915050565b6000613d748383613efb565b60208301905092915050565b6000613d8c8383613ff0565b905092915050565b6000613da083836148fb565b60208301905092915050565b613db581614f81565b82525050565b6000613dc682614ea7565b613dd08185614f10565b9350613ddb83614e77565b8060005b83811015613e0c578151613df38882613d68565b9750613dfe83614ee9565b925050600181019050613ddf565b5085935050505092915050565b6000613e2482614eb2565b613e2e8185614f21565b935083602082028501613e4085614e87565b8060005b85811015613e7c5784840389528151613e5d8582613d80565b9450613e6883614ef6565b925060208a01995050600181019050613e44565b50829750879550505050505092915050565b6000613e9982614ebd565b613ea38185614f32565b9350613eae83614e97565b8060005b83811015613edf578151613ec68882613d94565b9750613ed183614f03565b925050600181019050613eb2565b5085935050505092915050565b613ef581614f93565b82525050565b613f0481614f9f565b82525050565b613f1381614f9f565b82525050565b6000613f2482614ec8565b613f2e8185614f43565b9350613f3e818560208601615042565b613f4781615075565b840191505092915050565b613f5b8161500f565b82525050565b6000613f6d8385614f76565b9350613f7a838584615033565b82840190509392505050565b6000613f9182614ede565b613f9b8185614f65565b9350613fab818560208601615042565b613fb481615075565b840191505092915050565b6000613fca82614ede565b613fd48185614f76565b9350613fe4818560208601615042565b80840191505092915050565b6000613ffb82614ed3565b6140058185614f54565b9350614015818560208601615042565b61401e81615075565b840191505092915050565b6000614036603283614f65565b91507f4552433732313a207472616e7366657220746f206e6f6e20455243373231526560008301527f63656976657220696d706c656d656e74657200000000000000000000000000006020830152604082019050919050565b600061409c603583614f65565b91507f4552433732313a2063616c6c6572206973206e6f742077686974656c6973746560008301527f6420666f7220746865204d696e74657220726f6c6500000000000000000000006020830152604082019050919050565b6000614102602a83614f65565b91507f4552433732313a2073746172742074696d65206d757374206265206265666f7260008301527f6520656e642074696d65000000000000000000000000000000000000000000006020830152604082019050919050565b6000614168602483614f65565b91507f4552433732313a207472616e7366657220746f20746865207a65726f2061646460008301527f72657373000000000000000000000000000000000000000000000000000000006020830152604082019050919050565b60006141ce601983614f65565b91507f4552433732313a20617070726f766520746f2063616c6c6572000000000000006000830152602082019050919050565b600061420e602c83614f65565b91507f4552433732313a206f70657261746f7220717565727920666f72206e6f6e657860008301527f697374656e7420746f6b656e00000000000000000000000000000000000000006020830152604082019050919050565b6000614274603483614f65565b91507f4552433732313a207472616e73666572207265737472696374656420746f207760008301527f686974656c6973746564206164647265737365730000000000000000000000006020830152604082019050919050565b60006142da603083614f65565b91507f4552433732313a2054696d6520736c6f7420717565727920666f72206e6f6e6560008301527f78697374656e7420746f6b656e206964000000000000000000000000000000006020830152604082019050919050565b6000614340601983614f65565b91507f4552433732313a20696e76616c69642074696d6520736c6f74000000000000006000830152602082019050919050565b6000614380602e83614f65565b91507f4552433732313a20636f6e74656e74206964206973206e6f742072656769737460008301527f6572656420746f2063616c6c65720000000000000000000000000000000000006020830152604082019050919050565b60006143e6602a83614f65565b91507f4552433732313a2062616c616e636520717565727920666f7220746865207a6560008301527f726f2061646472657373000000000000000000000000000000000000000000006020830152604082019050919050565b600061444c603e83614f65565b91507f4552433732313a20617070726f76652063616c6c6572206973206e6f7420746f60008301527f6b656e206f776e6572206e6f7220617070726f76656420666f7220616c6c00006020830152604082019050919050565b60006144b2602083614f65565b91507f4552433732313a206d696e7420746f20746865207a65726f20616464726573736000830152602082019050919050565b60006144f2602f83614f65565b91507f4552433732313a20746f6b656e206f776e657220717565727920666f72206e6f60008301527f6e6578697374656e7420746f6b656e00000000000000000000000000000000006020830152604082019050919050565b6000614558602c83614f65565b91507f4552433732313a20617070726f76656420717565727920666f72206e6f6e657860008301527f697374656e7420746f6b656e00000000000000000000000000000000000000006020830152604082019050919050565b60006145be602983614f65565b91507f4552433732313a207472616e73666572206f6620746f6b656e2074686174206960008301527f73206e6f74206f776e00000000000000000000000000000000000000000000006020830152604082019050919050565b6000614624601d83614f65565b91507f4552433732313a20617070726f76616c20697320726564756e64616e740000006000830152602082019050919050565b6000614664603183614f65565b91507f4552433732313a207472616e736665722063616c6c6572206973206e6f74206f60008301527f776e6572206e6f7220617070726f7665640000000000000000000000000000006020830152604082019050919050565b60006146ca602583614f65565b91507f4552433732313a206275726e206f6620746f6b656e2074686174206973206e6f60008301527f74206f776e0000000000000000000000000000000000000000000000000000006020830152604082019050919050565b6000614730602483614f65565b91507f4552433732313a2055524920736574206f66206e6f6e6578697374656e74207460008301527f6f6b656e000000000000000000000000000000000000000000000000000000006020830152604082019050919050565b6000614796601b83614f65565b91507f4552433732313a2063616c6c6572206973206e6f74206f776e657200000000006000830152602082019050919050565b60006147d6602e83614f65565b91507f4552433732313a2063616c6c6572206973206e6f7420746f6b656e206f776e6560008301527f72206e6f7220617070726f7665640000000000000000000000000000000000006020830152604082019050919050565b600061483c602783614f65565b91507f4552433732313a2055524920717565727920666f72206e6f6e6578697374656e60008301527f7420746f6b656e000000000000000000000000000000000000000000000000006020830152604082019050919050565b60006148a2602183614f65565b91507f4552433732313a2063616c6c6572206973206e6f742077686974656c6973746560008301527f64000000000000000000000000000000000000000000000000000000000000006020830152604082019050919050565b61490481614ff5565b82525050565b61491381614ff5565b82525050565b61492281614fff565b82525050565b6000614935828486613f61565b91508190509392505050565b600061494d8284613fbf565b915081905092915050565b600060208201905061496d6000830184613dac565b92915050565b60006080820190506149886000830187613dac565b6149956020830186613dac565b6149a2604083018561490a565b81810360608301526149b48184613f19565b905095945050505050565b600060a0820190506149d46000830188613dac565b81810360208301526149e68187613f86565b90506149f56040830186613f0a565b614a026060830185614919565b614a0f6080830184614919565b9695505050505050565b60006020820190508181036000830152614a338184613dbb565b905092915050565b60006020820190508181036000830152614a558184613e19565b905092915050565b60006020820190508181036000830152614a778184613e8e565b905092915050565b6000602082019050614a946000830184613eec565b92915050565b6000602082019050614aaf6000830184613f52565b92915050565b60006020820190508181036000830152614acf8184613f86565b905092915050565b60006020820190508181036000830152614af081614029565b9050919050565b60006020820190508181036000830152614b108161408f565b9050919050565b60006020820190508181036000830152614b30816140f5565b9050919050565b60006020820190508181036000830152614b508161415b565b9050919050565b60006020820190508181036000830152614b70816141c1565b9050919050565b60006020820190508181036000830152614b9081614201565b9050919050565b60006020820190508181036000830152614bb081614267565b9050919050565b60006020820190508181036000830152614bd0816142cd565b9050919050565b60006020820190508181036000830152614bf081614333565b9050919050565b60006020820190508181036000830152614c1081614373565b9050919050565b60006020820190508181036000830152614c30816143d9565b9050919050565b60006020820190508181036000830152614c508161443f565b9050919050565b60006020820190508181036000830152614c70816144a5565b9050919050565b60006020820190508181036000830152614c90816144e5565b9050919050565b60006020820190508181036000830152614cb08161454b565b9050919050565b60006020820190508181036000830152614cd0816145b1565b9050919050565b60006020820190508181036000830152614cf081614617565b9050919050565b60006020820190508181036000830152614d1081614657565b9050919050565b60006020820190508181036000830152614d30816146bd565b9050919050565b60006020820190508181036000830152614d5081614723565b9050919050565b60006020820190508181036000830152614d7081614789565b9050919050565b60006020820190508181036000830152614d90816147c9565b9050919050565b60006020820190508181036000830152614db08161482f565b9050919050565b60006020820190508181036000830152614dd081614895565b9050919050565b6000602082019050614dec600083018461490a565b92915050565b6000604051905081810181811067ffffffffffffffff82111715614e1557600080fd5b8060405250919050565b600067ffffffffffffffff821115614e3657600080fd5b601f19601f8301169050602081019050919050565b600067ffffffffffffffff821115614e6257600080fd5b601f19601f8301169050602081019050919050565b6000819050602082019050919050565b6000819050602082019050919050565b6000819050602082019050919050565b600081519050919050565b600081519050919050565b600081519050919050565b600081519050919050565b600081519050919050565b600081519050919050565b6000602082019050919050565b6000602082019050919050565b6000602082019050919050565b600082825260208201905092915050565b600082825260208201905092915050565b600082825260208201905092915050565b600082825260208201905092915050565b600082825260208201905092915050565b600082825260208201905092915050565b600081905092915050565b6000614f8c82614fd5565b9050919050565b60008115159050919050565b6000819050919050565b60007fffffffff0000000000000000000000000000000000000000000000000000000082169050919050565b600073ffffffffffffffffffffffffffffffffffffffff82169050919050565b6000819050919050565b600063ffffffff82169050919050565b600061501a82615021565b9050919050565b600061502c82614fd5565b9050919050565b82818337600083830152505050565b60005b83811015615060578082015181840152602081019050615045565b8381111561506f576000848401525b50505050565b6000601f19601f8301169050919050565b61508f81614f81565b811461509a57600080fd5b50565b6150a681614f93565b81146150b157600080fd5b50565b6150bd81614f9f565b81146150c857600080fd5b50565b6150d481614fa9565b81146150df57600080fd5b50565b6150eb81614ff5565b81146150f657600080fd5b50565b61510281614fff565b811461510d57600080fd5b5056fea365627a7a72315820c943cc83efcb0cb77f86f7abd8da271494e22f3da8aa008b676e287826a902906c6578706572696d656e74616cf564736f6c634300050b0040",
  "source": "pragma solidity ^0.5.11;\npragma experimental ABIEncoderV2;\n\nimport \"./ERC721.sol\";\n\n/**\n * Customized for Microsponsors\n * from Open Zeppelin's ERC721Metadata contract:\n * https://github.com/OpenZeppelin/openzeppelin-contracts/blob/master/contracts/token/ERC721/ERC721Metadata.sol\n */\ncontract Microsponsors is ERC721 {\n\n    // Token name\n    string private _name;\n\n    // Token symbol\n    string private _symbol;\n\n\n    /*\n     *     bytes4(keccak256('name()')) == 0x06fdde03\n     *     bytes4(keccak256('symbol()')) == 0x95d89b41\n     *     bytes4(keccak256('tokenURI(uint256)')) == 0xc87b56dd\n     *\n     *     => 0x06fdde03 ^ 0x95d89b41 ^ 0xc87b56dd == 0x5b5e139f\n     */\n    bytes4 private constant _INTERFACE_ID_ERC721_METADATA = 0x5b5e139f;\n\n    /**\n     * @dev Constructor function\n     */\n    constructor (string memory name, string memory symbol, address registryAddress) public {\n\n        _name = name;\n        _symbol = symbol;\n\n        // register the supported interfaces to conform to ERC721 via ERC165\n        _registerInterface(_INTERFACE_ID_ERC721_METADATA);\n\n        super.updateRegistryAddress(registryAddress);\n\n    }\n\n    /**\n     * @dev Gets the token name.\n     * @return string representing the token name\n     */\n    function name() external view returns (string memory) {\n        return _name;\n    }\n\n    /**\n     * @dev Gets the token symbol.\n     * @return string representing the token symbol\n     */\n    function symbol() external view returns (string memory) {\n        return _symbol;\n    }\n\n}\n",
  "sourcePath": "/Users/lauren/github/erc-721/contracts/Microsponsors.sol",
  "compiler": {
    "name": "solc",
    "version": "0.5.11+commit.c082d0b4.Emscripten.clang"
  },
  "schemaVersion": "3.0.10",
  "updatedAt": "2019-09-13T00:08:59.580Z",
  "devdoc": {
    "methods": {
      "approve(address,uint256)": {
        "details": "Approves another address to transfer the given token ID The zero address indicates there is no approved address. There can only be one approved address per token at a given time. Can only be called by the token owner or an approved operator.",
        "params": {
          "to": "address to be approved for the given token ID",
          "tokenId": "uint256 ID of the token to be approved"
        }
      },
      "balanceOf(address)": {
        "details": "Gets the balance of the specified address.",
        "params": {
          "tokenOwner": "address to query the balance of"
        },
        "return": "uint256 representing the amount owned by the passed address"
      },
      "burn(uint256)": {
        "details": "Burns a specific ERC721 token.",
        "params": {
          "tokenId": "uint256 id of the ERC721 token to be burned."
        }
      },
      "constructor": {
        "details": "Constructor function"
      },
      "getApproved(uint256)": {
        "details": "Gets the approved address for a token ID, or zero if no address set Reverts if the token ID does not exist.",
        "params": {
          "tokenId": "uint256 ID of the token to query the approval of"
        },
        "return": "address currently approved for the given token ID"
      },
      "isApprovedForAll(address,address)": {
        "details": "Tells whether an operator is approved by a given token owner.",
        "params": {
          "operator": "operator address which you want to query the approval of",
          "tokenOwner": "token owner address which you want to query the approval of"
        },
        "return": "bool whether the given operator is approved by the token owner"
      },
      "isMinter(address)": {
        "details": "Checks if minter isWhitelisted()"
      },
      "isWhitelisted(address)": {
        "details": "Checks Registry contract for whitelisted status",
        "params": {
          "target": "The address to check"
        }
      },
      "mint(string,bytes32,uint32,uint32,uint32)": {
        "details": "Function to mint tokens.",
        "return": "tokenId"
      },
      "mintWithTokenURI(string,bytes32,uint32,uint32,uint32,string)": {
        "details": "Function to mint tokens.",
        "params": {
          "tokenURI": "The token URI of the minted token."
        },
        "return": "tokenId"
      },
      "name()": {
        "details": "Gets the token name.",
        "return": "string representing the token name"
      },
      "ownerOf(uint256)": {
        "details": "Gets the owner of the specified token ID.",
        "params": {
          "tokenId": "uint256 ID of the token to query the owner of"
        },
        "return": "address currently marked as the owner of the given token ID"
      },
      "pause()": {
        "details": "Called by contract owner to pause actions on this contract"
      },
      "safeMint(string,bytes32,uint32,uint32,uint32)": {
        "details": "Function to safely mint tokens.",
        "return": "tokenId"
      },
      "safeMint(string,bytes32,uint32,uint32,uint32,bytes)": {
        "details": "Function to safely mint tokens.",
        "params": {
          "data": "bytes data to send along with a safe transfer check."
        },
        "return": "tokenId"
      },
      "safeMintWithTokenURI(string,bytes32,uint32,uint32,uint32,string)": {
        "details": "Function to safely mint tokens.",
        "params": {
          "tokenURI": "The token URI of the minted token."
        },
        "return": "tokenId"
      },
      "safeTransferFrom(address,address,uint256)": {
        "details": "Safely transfers the ownership of a given token ID to another address If the target address is a contract, it must implement {IERC721Receiver-onERC721Received}, which is called upon a safe transfer, and return the magic value `bytes4(keccak256(\"onERC721Received(address,address,uint256,bytes)\"))`; otherwise, the transfer is reverted. Requires the msg.sender to be the owner, approved, or operator",
        "params": {
          "from": "current owner of the token",
          "to": "address to receive the ownership of the given token ID",
          "tokenId": "uint256 ID of the token to be transferred"
        }
      },
      "safeTransferFrom(address,address,uint256,bytes)": {
        "details": "Safely transfers the ownership of a given token ID to another address If the target address is a contract, it must implement {IERC721Receiver-onERC721Received}, which is called upon a safe transfer, and return the magic value `bytes4(keccak256(\"onERC721Received(address,address,uint256,bytes)\"))`; otherwise, the transfer is reverted. Requires the _msgSender() to be the owner, approved, or operator",
        "params": {
          "data": "bytes data to send along with a safe transfer check",
          "from": "current owner of the token",
          "to": "address to receive the ownership of the given token ID",
          "tokenId": "uint256 ID of the token to be transferred"
        }
      },
      "setApprovalForAll(address,bool)": {
        "details": "Sets or unsets the approval of a given operator An operator is allowed to transfer all tokens of the sender on their behalf.",
        "params": {
          "approved": "representing the status of the approval to be set",
          "to": "operator address to set the approval"
        }
      },
      "supportsInterface(bytes4)": {
        "details": "See {IERC165-supportsInterface}.     * Time complexity O(1), guaranteed to always use less than 30 000 gas."
      },
      "symbol()": {
        "details": "Gets the token symbol.",
        "return": "string representing the token symbol"
      },
      "tokenMinterContentIds(address)": {
        "details": "Look up all Content IDs a Minter has tokenized TimeSlots on      We're not grabbing this from the Registry in case the user has private"
      },
      "tokenMinterPropertyNames(address,string)": {
        "details": "Look up all Property Names a Minter has tokenized on a content ID"
      },
      "tokenURI(uint256)": {
        "details": "Returns an URI for a given token ID. Throws if the token ID does not exist. May return an empty string.",
        "params": {
          "tokenId": "uint256 ID of the token to query"
        }
      },
      "tokensOfOwner(address)": {
        "details": "This method MUST NEVER be called by smart contract code. First, it's fairly expensive (it walks the entire _tokenIds array looking for tokens belonging to owner), but it also returns a dynamic array, which is only supported for web3 calls, and not contract-to-contract calls.",
        "params": {
          "tokenOwner": "The owner whose tokens we are interested in."
        }
      },
      "totalSupply()": {
        "details": "Gets the total number of tokens ever minted."
      },
      "transferFrom(address,address,uint256)": {
        "details": "Transfers the ownership of a given token ID to another address. Usage of this method is discouraged, use {safeTransferFrom} whenever possible. Requires the msg.sender to be the owner, approved, or operator.",
        "params": {
          "from": "current owner of the token",
          "to": "address to receive the ownership of the given token ID",
          "tokenId": "uint256 ID of the token to be transferred"
        }
      },
      "unpause()": {
        "details": "Called by contract owner to unpause the smart contract."
      },
      "updateRegistryAddress(address)": {
        "details": "Update address for Microsponsors Registry contract",
        "params": {
          "newAddress": "where the Registry contract lives"
        }
      }
    }
  },
  "userdoc": {
    "methods": {
      "burn(uint256)": {
        "notice": "Customized for Microsponsors"
      },
      "safeMintWithTokenURI(string,bytes32,uint32,uint32,uint32,string)": {
        "notice": "Customized for Microsponsors from https://github.com/OpenZeppelin/openzeppelin-contracts/blob/master/contracts/token/ERC721/ERC721MetadataMintable.sol"
      },
      "unpause()": {
        "notice": "This is public rather than external so it can be called by  derived contracts."
      }
    },
    "notice": "Customized for Microsponsors from Open Zeppelin's ERC721Metadata contract: https://github.com/OpenZeppelin/openzeppelin-contracts/blob/master/contracts/token/ERC721/ERC721Metadata.sol"
  }
}